{
	"data": {
		"bytecode": {
			"linkReferences": {},
			"object": "6080604052670de0b6b3a7640000600055633b9aca00600155600160025534801561002957600080fd5b50610107806100396000396000f3fe6080604052348015600f57600080fd5b5060043610603c5760003560e01c80635cb3a6b2146041578063923f7b1514605b578063bd049e5c146075575b600080fd5b6047608f565b6040516052919060ae565b60405180910390f35b60616095565b604051606c919060ae565b60405180910390f35b607b609b565b6040516086919060ae565b60405180910390f35b60025481565b60015481565b60005481565b60a88160c7565b82525050565b600060208201905060c1600083018460a1565b92915050565b600081905091905056fea26469706673582212200f6ae7a3426f9fd5495ae2fc4c7aece3a2534d98de7832399f057be674a3844364736f6c63430008070033",
			"opcodes": "PUSH1 0x80 PUSH1 0x40 MSTORE PUSH8 0xDE0B6B3A7640000 PUSH1 0x0 SSTORE PUSH4 0x3B9ACA00 PUSH1 0x1 SSTORE PUSH1 0x1 PUSH1 0x2 SSTORE CALLVALUE DUP1 ISZERO PUSH2 0x29 JUMPI PUSH1 0x0 DUP1 REVERT JUMPDEST POP PUSH2 0x107 DUP1 PUSH2 0x39 PUSH1 0x0 CODECOPY PUSH1 0x0 RETURN INVALID PUSH1 0x80 PUSH1 0x40 MSTORE CALLVALUE DUP1 ISZERO PUSH1 0xF JUMPI PUSH1 0x0 DUP1 REVERT JUMPDEST POP PUSH1 0x4 CALLDATASIZE LT PUSH1 0x3C JUMPI PUSH1 0x0 CALLDATALOAD PUSH1 0xE0 SHR DUP1 PUSH4 0x5CB3A6B2 EQ PUSH1 0x41 JUMPI DUP1 PUSH4 0x923F7B15 EQ PUSH1 0x5B JUMPI DUP1 PUSH4 0xBD049E5C EQ PUSH1 0x75 JUMPI JUMPDEST PUSH1 0x0 DUP1 REVERT JUMPDEST PUSH1 0x47 PUSH1 0x8F JUMP JUMPDEST PUSH1 0x40 MLOAD PUSH1 0x52 SWAP2 SWAP1 PUSH1 0xAE JUMP JUMPDEST PUSH1 0x40 MLOAD DUP1 SWAP2 SUB SWAP1 RETURN JUMPDEST PUSH1 0x61 PUSH1 0x95 JUMP JUMPDEST PUSH1 0x40 MLOAD PUSH1 0x6C SWAP2 SWAP1 PUSH1 0xAE JUMP JUMPDEST PUSH1 0x40 MLOAD DUP1 SWAP2 SUB SWAP1 RETURN JUMPDEST PUSH1 0x7B PUSH1 0x9B JUMP JUMPDEST PUSH1 0x40 MLOAD PUSH1 0x86 SWAP2 SWAP1 PUSH1 0xAE JUMP JUMPDEST PUSH1 0x40 MLOAD DUP1 SWAP2 SUB SWAP1 RETURN JUMPDEST PUSH1 0x2 SLOAD DUP2 JUMP JUMPDEST PUSH1 0x1 SLOAD DUP2 JUMP JUMPDEST PUSH1 0x0 SLOAD DUP2 JUMP JUMPDEST PUSH1 0xA8 DUP2 PUSH1 0xC7 JUMP JUMPDEST DUP3 MSTORE POP POP JUMP JUMPDEST PUSH1 0x0 PUSH1 0x20 DUP3 ADD SWAP1 POP PUSH1 0xC1 PUSH1 0x0 DUP4 ADD DUP5 PUSH1 0xA1 JUMP JUMPDEST SWAP3 SWAP2 POP POP JUMP JUMPDEST PUSH1 0x0 DUP2 SWAP1 POP SWAP2 SWAP1 POP JUMP INVALID LOG2 PUSH5 0x6970667358 0x22 SLT KECCAK256 0xF PUSH11 0xE7A3426F9FD5495AE2FC4C PUSH27 0xECE3A2534D98DE7832399F057BE674A3844364736F6C6343000807 STOP CALLER "
		},
		"gasEstimates": {
			"creation": {
				"codeDepositCost": "52600",
				"executionCost": "66423",
				"totalCost": "119023"
			},
			"external": {
				"valueEth()": "2451",
				"valueGwei()": "2429",
				"valueWei()": "2407"
			}
		},
		"methodIdentifiers": {
			"valueEth()": "bd049e5c",
			"valueGwei()": "923f7b15",
			"valueWei()": "5cb3a6b2"
		}
	},
	"abi": [
		{
			"inputs": [],
			"name": "valueEth",
			"outputs": [
				{
					"internalType": "uint256",
					"name": "",
					"type": "uint256"
				}
			],
			"stateMutability": "view",
			"type": "function"
		},
		{
			"inputs": [],
			"name": "valueGwei",
			"outputs": [
				{
					"internalType": "uint256",
					"name": "",
					"type": "uint256"
				}
			],
			"stateMutability": "view",
			"type": "function"
		},
		{
			"inputs": [],
			"name": "valueWei",
			"outputs": [
				{
					"internalType": "uint256",
					"name": "",
					"type": "uint256"
				}
			],
			"stateMutability": "view",
			"type": "function"
		}
	]
}