{
	"data": {
		"bytecode": {
			"linkReferences": {},
			"object": "608060405234801561001057600080fd5b5061055f806100206000396000f3fe608060405234801561001057600080fd5b50600436106100565760003560e01c80627467151461005b5780632712f5191461008b578063844adfd2146100955780639de5b7d21461009f578063afe26609146100cf575b600080fd5b61007560048036038101906100709190610282565b6100d9565b6040516100829190610351565b60405180910390f35b61009361015b565b005b61009d61016c565b005b6100b960048036038101906100b49190610282565b6101af565b6040516100c69190610351565b60405180910390f35b6100d7610232565b005b60606013821161011e576040517f08c379a000000000000000000000000000000000000000000000000000000000815260040161011590610373565b60405180910390fd5b6040518060400160405280601881526020017f596f7572207061796d656e7420697320736363656564656400000000000000008152509050919050565b600061016a5761016961042c565b5b565b60006101ad576040517f08c379a00000000000000000000000000000000000000000000000000000000081526004016101a490610393565b60405180910390fd5b565b606060138210156101f5576040517f08c379a00000000000000000000000000000000000000000000000000000000081526004016101ec90610373565b60405180910390fd5b6040518060400160405280601881526020017f596f7572207061796d656e7420697320736363656564656400000000000000008152509050919050565b6040517f08c379a0000000000000000000000000000000000000000000000000000000008152600401610264906103b3565b60405180910390fd5b60008135905061027c81610512565b92915050565b6000602082840312156102985761029761045b565b5b60006102a68482850161026d565b91505092915050565b60006102ba826103d3565b6102c481856103de565b93506102d48185602086016103f9565b6102dd81610460565b840191505092915050565b60006102f5602c836103de565b915061030082610471565b604082019050919050565b60006103186008836103de565b9150610323826104c0565b602082019050919050565b600061033b6007836103de565b9150610346826104e9565b602082019050919050565b6000602082019050818103600083015261036b81846102af565b905092915050565b6000602082019050818103600083015261038c816102e8565b9050919050565b600060208201905081810360008301526103ac8161030b565b9050919050565b600060208201905081810360008301526103cc8161032e565b9050919050565b600081519050919050565b600082825260208201905092915050565b6000819050919050565b60005b838110156104175780820151818401526020810190506103fc565b83811115610426576000848401525b50505050565b7f4e487b7100000000000000000000000000000000000000000000000000000000600052600160045260246000fd5b600080fd5b6000601f19601f8301169050919050565b7f596f7520617265206e6f7420616c6c6f77656420746f2070617920666f72207460008201527f6865206369676172657474650000000000000000000000000000000000000000602082015250565b7f6f63637572726564000000000000000000000000000000000000000000000000600082015250565b7f6572726f72212100000000000000000000000000000000000000000000000000600082015250565b61051b816103ef565b811461052657600080fd5b5056fea264697066735822122072b16afeaeaf798293ab49e52ba2b2ab8973e812e72d485528ef7c915af57f2b64736f6c63430008070033",
			"opcodes": "PUSH1 0x80 PUSH1 0x40 MSTORE CALLVALUE DUP1 ISZERO PUSH2 0x10 JUMPI PUSH1 0x0 DUP1 REVERT JUMPDEST POP PUSH2 0x55F DUP1 PUSH2 0x20 PUSH1 0x0 CODECOPY PUSH1 0x0 RETURN INVALID PUSH1 0x80 PUSH1 0x40 MSTORE CALLVALUE DUP1 ISZERO PUSH2 0x10 JUMPI PUSH1 0x0 DUP1 REVERT JUMPDEST POP PUSH1 0x4 CALLDATASIZE LT PUSH2 0x56 JUMPI PUSH1 0x0 CALLDATALOAD PUSH1 0xE0 SHR DUP1 PUSH3 0x746715 EQ PUSH2 0x5B JUMPI DUP1 PUSH4 0x2712F519 EQ PUSH2 0x8B JUMPI DUP1 PUSH4 0x844ADFD2 EQ PUSH2 0x95 JUMPI DUP1 PUSH4 0x9DE5B7D2 EQ PUSH2 0x9F JUMPI DUP1 PUSH4 0xAFE26609 EQ PUSH2 0xCF JUMPI JUMPDEST PUSH1 0x0 DUP1 REVERT JUMPDEST PUSH2 0x75 PUSH1 0x4 DUP1 CALLDATASIZE SUB DUP2 ADD SWAP1 PUSH2 0x70 SWAP2 SWAP1 PUSH2 0x282 JUMP JUMPDEST PUSH2 0xD9 JUMP JUMPDEST PUSH1 0x40 MLOAD PUSH2 0x82 SWAP2 SWAP1 PUSH2 0x351 JUMP JUMPDEST PUSH1 0x40 MLOAD DUP1 SWAP2 SUB SWAP1 RETURN JUMPDEST PUSH2 0x93 PUSH2 0x15B JUMP JUMPDEST STOP JUMPDEST PUSH2 0x9D PUSH2 0x16C JUMP JUMPDEST STOP JUMPDEST PUSH2 0xB9 PUSH1 0x4 DUP1 CALLDATASIZE SUB DUP2 ADD SWAP1 PUSH2 0xB4 SWAP2 SWAP1 PUSH2 0x282 JUMP JUMPDEST PUSH2 0x1AF JUMP JUMPDEST PUSH1 0x40 MLOAD PUSH2 0xC6 SWAP2 SWAP1 PUSH2 0x351 JUMP JUMPDEST PUSH1 0x40 MLOAD DUP1 SWAP2 SUB SWAP1 RETURN JUMPDEST PUSH2 0xD7 PUSH2 0x232 JUMP JUMPDEST STOP JUMPDEST PUSH1 0x60 PUSH1 0x13 DUP3 GT PUSH2 0x11E JUMPI PUSH1 0x40 MLOAD PUSH32 0x8C379A000000000000000000000000000000000000000000000000000000000 DUP2 MSTORE PUSH1 0x4 ADD PUSH2 0x115 SWAP1 PUSH2 0x373 JUMP JUMPDEST PUSH1 0x40 MLOAD DUP1 SWAP2 SUB SWAP1 REVERT JUMPDEST PUSH1 0x40 MLOAD DUP1 PUSH1 0x40 ADD PUSH1 0x40 MSTORE DUP1 PUSH1 0x18 DUP2 MSTORE PUSH1 0x20 ADD PUSH32 0x596F7572207061796D656E742069732073636365656465640000000000000000 DUP2 MSTORE POP SWAP1 POP SWAP2 SWAP1 POP JUMP JUMPDEST PUSH1 0x0 PUSH2 0x16A JUMPI PUSH2 0x169 PUSH2 0x42C JUMP JUMPDEST JUMPDEST JUMP JUMPDEST PUSH1 0x0 PUSH2 0x1AD JUMPI PUSH1 0x40 MLOAD PUSH32 0x8C379A000000000000000000000000000000000000000000000000000000000 DUP2 MSTORE PUSH1 0x4 ADD PUSH2 0x1A4 SWAP1 PUSH2 0x393 JUMP JUMPDEST PUSH1 0x40 MLOAD DUP1 SWAP2 SUB SWAP1 REVERT JUMPDEST JUMP JUMPDEST PUSH1 0x60 PUSH1 0x13 DUP3 LT ISZERO PUSH2 0x1F5 JUMPI PUSH1 0x40 MLOAD PUSH32 0x8C379A000000000000000000000000000000000000000000000000000000000 DUP2 MSTORE PUSH1 0x4 ADD PUSH2 0x1EC SWAP1 PUSH2 0x373 JUMP JUMPDEST PUSH1 0x40 MLOAD DUP1 SWAP2 SUB SWAP1 REVERT JUMPDEST PUSH1 0x40 MLOAD DUP1 PUSH1 0x40 ADD PUSH1 0x40 MSTORE DUP1 PUSH1 0x18 DUP2 MSTORE PUSH1 0x20 ADD PUSH32 0x596F7572207061796D656E742069732073636365656465640000000000000000 DUP2 MSTORE POP SWAP1 POP SWAP2 SWAP1 POP JUMP JUMPDEST PUSH1 0x40 MLOAD PUSH32 0x8C379A000000000000000000000000000000000000000000000000000000000 DUP2 MSTORE PUSH1 0x4 ADD PUSH2 0x264 SWAP1 PUSH2 0x3B3 JUMP JUMPDEST PUSH1 0x40 MLOAD DUP1 SWAP2 SUB SWAP1 REVERT JUMPDEST PUSH1 0x0 DUP2 CALLDATALOAD SWAP1 POP PUSH2 0x27C DUP2 PUSH2 0x512 JUMP JUMPDEST SWAP3 SWAP2 POP POP JUMP JUMPDEST PUSH1 0x0 PUSH1 0x20 DUP3 DUP5 SUB SLT ISZERO PUSH2 0x298 JUMPI PUSH2 0x297 PUSH2 0x45B JUMP JUMPDEST JUMPDEST PUSH1 0x0 PUSH2 0x2A6 DUP5 DUP3 DUP6 ADD PUSH2 0x26D JUMP JUMPDEST SWAP2 POP POP SWAP3 SWAP2 POP POP JUMP JUMPDEST PUSH1 0x0 PUSH2 0x2BA DUP3 PUSH2 0x3D3 JUMP JUMPDEST PUSH2 0x2C4 DUP2 DUP6 PUSH2 0x3DE JUMP JUMPDEST SWAP4 POP PUSH2 0x2D4 DUP2 DUP6 PUSH1 0x20 DUP7 ADD PUSH2 0x3F9 JUMP JUMPDEST PUSH2 0x2DD DUP2 PUSH2 0x460 JUMP JUMPDEST DUP5 ADD SWAP2 POP POP SWAP3 SWAP2 POP POP JUMP JUMPDEST PUSH1 0x0 PUSH2 0x2F5 PUSH1 0x2C DUP4 PUSH2 0x3DE JUMP JUMPDEST SWAP2 POP PUSH2 0x300 DUP3 PUSH2 0x471 JUMP JUMPDEST PUSH1 0x40 DUP3 ADD SWAP1 POP SWAP2 SWAP1 POP JUMP JUMPDEST PUSH1 0x0 PUSH2 0x318 PUSH1 0x8 DUP4 PUSH2 0x3DE JUMP JUMPDEST SWAP2 POP PUSH2 0x323 DUP3 PUSH2 0x4C0 JUMP JUMPDEST PUSH1 0x20 DUP3 ADD SWAP1 POP SWAP2 SWAP1 POP JUMP JUMPDEST PUSH1 0x0 PUSH2 0x33B PUSH1 0x7 DUP4 PUSH2 0x3DE JUMP JUMPDEST SWAP2 POP PUSH2 0x346 DUP3 PUSH2 0x4E9 JUMP JUMPDEST PUSH1 0x20 DUP3 ADD SWAP1 POP SWAP2 SWAP1 POP JUMP JUMPDEST PUSH1 0x0 PUSH1 0x20 DUP3 ADD SWAP1 POP DUP2 DUP2 SUB PUSH1 0x0 DUP4 ADD MSTORE PUSH2 0x36B DUP2 DUP5 PUSH2 0x2AF JUMP JUMPDEST SWAP1 POP SWAP3 SWAP2 POP POP JUMP JUMPDEST PUSH1 0x0 PUSH1 0x20 DUP3 ADD SWAP1 POP DUP2 DUP2 SUB PUSH1 0x0 DUP4 ADD MSTORE PUSH2 0x38C DUP2 PUSH2 0x2E8 JUMP JUMPDEST SWAP1 POP SWAP2 SWAP1 POP JUMP JUMPDEST PUSH1 0x0 PUSH1 0x20 DUP3 ADD SWAP1 POP DUP2 DUP2 SUB PUSH1 0x0 DUP4 ADD MSTORE PUSH2 0x3AC DUP2 PUSH2 0x30B JUMP JUMPDEST SWAP1 POP SWAP2 SWAP1 POP JUMP JUMPDEST PUSH1 0x0 PUSH1 0x20 DUP3 ADD SWAP1 POP DUP2 DUP2 SUB PUSH1 0x0 DUP4 ADD MSTORE PUSH2 0x3CC DUP2 PUSH2 0x32E JUMP JUMPDEST SWAP1 POP SWAP2 SWAP1 POP JUMP JUMPDEST PUSH1 0x0 DUP2 MLOAD SWAP1 POP SWAP2 SWAP1 POP JUMP JUMPDEST PUSH1 0x0 DUP3 DUP3 MSTORE PUSH1 0x20 DUP3 ADD SWAP1 POP SWAP3 SWAP2 POP POP JUMP JUMPDEST PUSH1 0x0 DUP2 SWAP1 POP SWAP2 SWAP1 POP JUMP JUMPDEST PUSH1 0x0 JUMPDEST DUP4 DUP2 LT ISZERO PUSH2 0x417 JUMPI DUP1 DUP3 ADD MLOAD DUP2 DUP5 ADD MSTORE PUSH1 0x20 DUP2 ADD SWAP1 POP PUSH2 0x3FC JUMP JUMPDEST DUP4 DUP2 GT ISZERO PUSH2 0x426 JUMPI PUSH1 0x0 DUP5 DUP5 ADD MSTORE JUMPDEST POP POP POP POP JUMP JUMPDEST PUSH32 0x4E487B7100000000000000000000000000000000000000000000000000000000 PUSH1 0x0 MSTORE PUSH1 0x1 PUSH1 0x4 MSTORE PUSH1 0x24 PUSH1 0x0 REVERT JUMPDEST PUSH1 0x0 DUP1 REVERT JUMPDEST PUSH1 0x0 PUSH1 0x1F NOT PUSH1 0x1F DUP4 ADD AND SWAP1 POP SWAP2 SWAP1 POP JUMP JUMPDEST PUSH32 0x596F7520617265206E6F7420616C6C6F77656420746F2070617920666F722074 PUSH1 0x0 DUP3 ADD MSTORE PUSH32 0x6865206369676172657474650000000000000000000000000000000000000000 PUSH1 0x20 DUP3 ADD MSTORE POP JUMP JUMPDEST PUSH32 0x6F63637572726564000000000000000000000000000000000000000000000000 PUSH1 0x0 DUP3 ADD MSTORE POP JUMP JUMPDEST PUSH32 0x6572726F72212100000000000000000000000000000000000000000000000000 PUSH1 0x0 DUP3 ADD MSTORE POP JUMP JUMPDEST PUSH2 0x51B DUP2 PUSH2 0x3EF JUMP JUMPDEST DUP2 EQ PUSH2 0x526 JUMPI PUSH1 0x0 DUP1 REVERT JUMPDEST POP JUMP INVALID LOG2 PUSH5 0x6970667358 0x22 SLT KECCAK256 PUSH19 0xB16AFEAEAF798293AB49E52BA2B2AB8973E812 0xE7 0x2D BASEFEE SSTORE 0x28 0xEF PUSH29 0x915AF57F2B64736F6C6343000807003300000000000000000000000000 "
		},
		"gasEstimates": {
			"creation": {
				"codeDepositCost": "275000",
				"executionCost": "312",
				"totalCost": "275312"
			},
			"external": {
				"assertNow()": "190",
				"onlyAdults(uint256)": "infinite",
				"onlyAdults2(uint256)": "infinite",
				"requireNow()": "472",
				"revertNow()": "500"
			}
		},
		"methodIdentifiers": {
			"assertNow()": "2712f519",
			"onlyAdults(uint256)": "9de5b7d2",
			"onlyAdults2(uint256)": "00746715",
			"requireNow()": "844adfd2",
			"revertNow()": "afe26609"
		}
	},
	"abi": [
		{
			"inputs": [],
			"name": "assertNow",
			"outputs": [],
			"stateMutability": "pure",
			"type": "function"
		},
		{
			"inputs": [
				{
					"internalType": "uint256",
					"name": "_age",
					"type": "uint256"
				}
			],
			"name": "onlyAdults",
			"outputs": [
				{
					"internalType": "string",
					"name": "",
					"type": "string"
				}
			],
			"stateMutability": "pure",
			"type": "function"
		},
		{
			"inputs": [
				{
					"internalType": "uint256",
					"name": "_age",
					"type": "uint256"
				}
			],
			"name": "onlyAdults2",
			"outputs": [
				{
					"internalType": "string",
					"name": "",
					"type": "string"
				}
			],
			"stateMutability": "pure",
			"type": "function"
		},
		{
			"inputs": [],
			"name": "requireNow",
			"outputs": [],
			"stateMutability": "pure",
			"type": "function"
		},
		{
			"inputs": [],
			"name": "revertNow",
			"outputs": [],
			"stateMutability": "pure",
			"type": "function"
		}
	]
}