{
	"data": {
		"bytecode": {
			"linkReferences": {},
			"object": "60806040526040518060a001604052806040518060400160405280600b81526020017f736f757468204b6f72656100000000000000000000000000000000000000000081525081526020016040518060400160405280600b81526020017f4e6f727468204b6f72656100000000000000000000000000000000000000000081525081526020016040518060400160405280600381526020017f555341000000000000000000000000000000000000000000000000000000000081525081526020016040518060400160405280600581526020017f4368696e6100000000000000000000000000000000000000000000000000000081525081526020016040518060400160405280600581526020017f4a6170616e0000000000000000000000000000000000000000000000000000008152508152506000906005610144929190610157565b5034801561015157600080fd5b5061031f565b8280548282559060005260206000209081019282156101a6579160200282015b828111156101a55782518290805190602001906101959291906101b7565b5091602001919060010190610177565b5b5090506101b3919061023d565b5090565b8280546101c3906102be565b90600052602060002090601f0160209004810192826101e5576000855561022c565b82601f106101fe57805160ff191683800117855561022c565b8280016001018555821561022c579182015b8281111561022b578251825591602001919060010190610210565b5b5090506102399190610261565b5090565b5b8082111561025d5760008181610254919061027e565b5060010161023e565b5090565b5b8082111561027a576000816000905550600101610262565b5090565b50805461028a906102be565b6000825580601f1061029c57506102bb565b601f0160209004906000526020600020908101906102ba9190610261565b5b50565b600060028204905060018216806102d657607f821691505b602082108114156102ea576102e96102f0565b5b50919050565b7f4e487b7100000000000000000000000000000000000000000000000000000000600052602260045260246000fd5b6103df8061032e6000396000f3fe608060405234801561001057600080fd5b50600436106100415760003560e01c806341ff4bb6146100465780636cde9f8c14610050578063ddea9b0a1461005a575b600080fd5b61004e610064565b005b6100586100d9565b005b610062610154565b005b60005b807fc3750795857a09dd89d722c915dbd49e7496a6f23cad9de450838745e45f93296000838154811061009d5761009c61037a565b5b906000526020600020016040516100b4919061024f565b60405180910390a280806100c7906102d3565b91505060008054905081106100675750565b60005b60008054905081101561015157807fc3750795857a09dd89d722c915dbd49e7496a6f23cad9de450838745e45f93296000838154811061011f5761011e61037a565b5b90600052602060002001604051610136919061024f565b60405180910390a28080610149906102d3565b9150506100dc565b50565b60005b6000805490508110156101cc57807fc3750795857a09dd89d722c915dbd49e7496a6f23cad9de450838745e45f93296000838154811061019a5761019961037a565b5b906000526020600020016040516101b1919061024f565b60405180910390a280806101c4906102d3565b915050610157565b50565b600081546101dc816102a1565b6101e68186610286565b94506001821660008114610201576001811461021357610246565b60ff1983168652602086019350610246565b61021c85610271565b60005b8381101561023e5781548189015260018201915060208101905061021f565b808801955050505b50505092915050565b6000602082019050818103600083015261026981846101cf565b905092915050565b60008190508160005260206000209050919050565b600082825260208201905092915050565b6000819050919050565b600060028204905060018216806102b957607f821691505b602082108114156102cd576102cc61034b565b5b50919050565b60006102de82610297565b91507fffffffffffffffffffffffffffffffffffffffffffffffffffffffffffffffff8214156103115761031061031c565b5b600182019050919050565b7f4e487b7100000000000000000000000000000000000000000000000000000000600052601160045260246000fd5b7f4e487b7100000000000000000000000000000000000000000000000000000000600052602260045260246000fd5b7f4e487b7100000000000000000000000000000000000000000000000000000000600052603260045260246000fdfea2646970667358221220e226aa022a349aebcb36fb804c0edf7e4351f5d62bc7e80de74d3e37145a659d64736f6c63430008070033",
			"opcodes": "PUSH1 0x80 PUSH1 0x40 MSTORE PUSH1 0x40 MLOAD DUP1 PUSH1 0xA0 ADD PUSH1 0x40 MSTORE DUP1 PUSH1 0x40 MLOAD DUP1 PUSH1 0x40 ADD PUSH1 0x40 MSTORE DUP1 PUSH1 0xB DUP2 MSTORE PUSH1 0x20 ADD PUSH32 0x736F757468204B6F726561000000000000000000000000000000000000000000 DUP2 MSTORE POP DUP2 MSTORE PUSH1 0x20 ADD PUSH1 0x40 MLOAD DUP1 PUSH1 0x40 ADD PUSH1 0x40 MSTORE DUP1 PUSH1 0xB DUP2 MSTORE PUSH1 0x20 ADD PUSH32 0x4E6F727468204B6F726561000000000000000000000000000000000000000000 DUP2 MSTORE POP DUP2 MSTORE PUSH1 0x20 ADD PUSH1 0x40 MLOAD DUP1 PUSH1 0x40 ADD PUSH1 0x40 MSTORE DUP1 PUSH1 0x3 DUP2 MSTORE PUSH1 0x20 ADD PUSH32 0x5553410000000000000000000000000000000000000000000000000000000000 DUP2 MSTORE POP DUP2 MSTORE PUSH1 0x20 ADD PUSH1 0x40 MLOAD DUP1 PUSH1 0x40 ADD PUSH1 0x40 MSTORE DUP1 PUSH1 0x5 DUP2 MSTORE PUSH1 0x20 ADD PUSH32 0x4368696E61000000000000000000000000000000000000000000000000000000 DUP2 MSTORE POP DUP2 MSTORE PUSH1 0x20 ADD PUSH1 0x40 MLOAD DUP1 PUSH1 0x40 ADD PUSH1 0x40 MSTORE DUP1 PUSH1 0x5 DUP2 MSTORE PUSH1 0x20 ADD PUSH32 0x4A6170616E000000000000000000000000000000000000000000000000000000 DUP2 MSTORE POP DUP2 MSTORE POP PUSH1 0x0 SWAP1 PUSH1 0x5 PUSH2 0x144 SWAP3 SWAP2 SWAP1 PUSH2 0x157 JUMP JUMPDEST POP CALLVALUE DUP1 ISZERO PUSH2 0x151 JUMPI PUSH1 0x0 DUP1 REVERT JUMPDEST POP PUSH2 0x31F JUMP JUMPDEST DUP3 DUP1 SLOAD DUP3 DUP3 SSTORE SWAP1 PUSH1 0x0 MSTORE PUSH1 0x20 PUSH1 0x0 KECCAK256 SWAP1 DUP2 ADD SWAP3 DUP3 ISZERO PUSH2 0x1A6 JUMPI SWAP2 PUSH1 0x20 MUL DUP3 ADD JUMPDEST DUP3 DUP2 GT ISZERO PUSH2 0x1A5 JUMPI DUP3 MLOAD DUP3 SWAP1 DUP1 MLOAD SWAP1 PUSH1 0x20 ADD SWAP1 PUSH2 0x195 SWAP3 SWAP2 SWAP1 PUSH2 0x1B7 JUMP JUMPDEST POP SWAP2 PUSH1 0x20 ADD SWAP2 SWAP1 PUSH1 0x1 ADD SWAP1 PUSH2 0x177 JUMP JUMPDEST JUMPDEST POP SWAP1 POP PUSH2 0x1B3 SWAP2 SWAP1 PUSH2 0x23D JUMP JUMPDEST POP SWAP1 JUMP JUMPDEST DUP3 DUP1 SLOAD PUSH2 0x1C3 SWAP1 PUSH2 0x2BE JUMP JUMPDEST SWAP1 PUSH1 0x0 MSTORE PUSH1 0x20 PUSH1 0x0 KECCAK256 SWAP1 PUSH1 0x1F ADD PUSH1 0x20 SWAP1 DIV DUP2 ADD SWAP3 DUP3 PUSH2 0x1E5 JUMPI PUSH1 0x0 DUP6 SSTORE PUSH2 0x22C JUMP JUMPDEST DUP3 PUSH1 0x1F LT PUSH2 0x1FE JUMPI DUP1 MLOAD PUSH1 0xFF NOT AND DUP4 DUP1 ADD OR DUP6 SSTORE PUSH2 0x22C JUMP JUMPDEST DUP3 DUP1 ADD PUSH1 0x1 ADD DUP6 SSTORE DUP3 ISZERO PUSH2 0x22C JUMPI SWAP2 DUP3 ADD JUMPDEST DUP3 DUP2 GT ISZERO PUSH2 0x22B JUMPI DUP3 MLOAD DUP3 SSTORE SWAP2 PUSH1 0x20 ADD SWAP2 SWAP1 PUSH1 0x1 ADD SWAP1 PUSH2 0x210 JUMP JUMPDEST JUMPDEST POP SWAP1 POP PUSH2 0x239 SWAP2 SWAP1 PUSH2 0x261 JUMP JUMPDEST POP SWAP1 JUMP JUMPDEST JUMPDEST DUP1 DUP3 GT ISZERO PUSH2 0x25D JUMPI PUSH1 0x0 DUP2 DUP2 PUSH2 0x254 SWAP2 SWAP1 PUSH2 0x27E JUMP JUMPDEST POP PUSH1 0x1 ADD PUSH2 0x23E JUMP JUMPDEST POP SWAP1 JUMP JUMPDEST JUMPDEST DUP1 DUP3 GT ISZERO PUSH2 0x27A JUMPI PUSH1 0x0 DUP2 PUSH1 0x0 SWAP1 SSTORE POP PUSH1 0x1 ADD PUSH2 0x262 JUMP JUMPDEST POP SWAP1 JUMP JUMPDEST POP DUP1 SLOAD PUSH2 0x28A SWAP1 PUSH2 0x2BE JUMP JUMPDEST PUSH1 0x0 DUP3 SSTORE DUP1 PUSH1 0x1F LT PUSH2 0x29C JUMPI POP PUSH2 0x2BB JUMP JUMPDEST PUSH1 0x1F ADD PUSH1 0x20 SWAP1 DIV SWAP1 PUSH1 0x0 MSTORE PUSH1 0x20 PUSH1 0x0 KECCAK256 SWAP1 DUP2 ADD SWAP1 PUSH2 0x2BA SWAP2 SWAP1 PUSH2 0x261 JUMP JUMPDEST JUMPDEST POP JUMP JUMPDEST PUSH1 0x0 PUSH1 0x2 DUP3 DIV SWAP1 POP PUSH1 0x1 DUP3 AND DUP1 PUSH2 0x2D6 JUMPI PUSH1 0x7F DUP3 AND SWAP2 POP JUMPDEST PUSH1 0x20 DUP3 LT DUP2 EQ ISZERO PUSH2 0x2EA JUMPI PUSH2 0x2E9 PUSH2 0x2F0 JUMP JUMPDEST JUMPDEST POP SWAP2 SWAP1 POP JUMP JUMPDEST PUSH32 0x4E487B7100000000000000000000000000000000000000000000000000000000 PUSH1 0x0 MSTORE PUSH1 0x22 PUSH1 0x4 MSTORE PUSH1 0x24 PUSH1 0x0 REVERT JUMPDEST PUSH2 0x3DF DUP1 PUSH2 0x32E PUSH1 0x0 CODECOPY PUSH1 0x0 RETURN INVALID PUSH1 0x80 PUSH1 0x40 MSTORE CALLVALUE DUP1 ISZERO PUSH2 0x10 JUMPI PUSH1 0x0 DUP1 REVERT JUMPDEST POP PUSH1 0x4 CALLDATASIZE LT PUSH2 0x41 JUMPI PUSH1 0x0 CALLDATALOAD PUSH1 0xE0 SHR DUP1 PUSH4 0x41FF4BB6 EQ PUSH2 0x46 JUMPI DUP1 PUSH4 0x6CDE9F8C EQ PUSH2 0x50 JUMPI DUP1 PUSH4 0xDDEA9B0A EQ PUSH2 0x5A JUMPI JUMPDEST PUSH1 0x0 DUP1 REVERT JUMPDEST PUSH2 0x4E PUSH2 0x64 JUMP JUMPDEST STOP JUMPDEST PUSH2 0x58 PUSH2 0xD9 JUMP JUMPDEST STOP JUMPDEST PUSH2 0x62 PUSH2 0x154 JUMP JUMPDEST STOP JUMPDEST PUSH1 0x0 JUMPDEST DUP1 PUSH32 0xC3750795857A09DD89D722C915DBD49E7496A6F23CAD9DE450838745E45F9329 PUSH1 0x0 DUP4 DUP2 SLOAD DUP2 LT PUSH2 0x9D JUMPI PUSH2 0x9C PUSH2 0x37A JUMP JUMPDEST JUMPDEST SWAP1 PUSH1 0x0 MSTORE PUSH1 0x20 PUSH1 0x0 KECCAK256 ADD PUSH1 0x40 MLOAD PUSH2 0xB4 SWAP2 SWAP1 PUSH2 0x24F JUMP JUMPDEST PUSH1 0x40 MLOAD DUP1 SWAP2 SUB SWAP1 LOG2 DUP1 DUP1 PUSH2 0xC7 SWAP1 PUSH2 0x2D3 JUMP JUMPDEST SWAP2 POP POP PUSH1 0x0 DUP1 SLOAD SWAP1 POP DUP2 LT PUSH2 0x67 JUMPI POP JUMP JUMPDEST PUSH1 0x0 JUMPDEST PUSH1 0x0 DUP1 SLOAD SWAP1 POP DUP2 LT ISZERO PUSH2 0x151 JUMPI DUP1 PUSH32 0xC3750795857A09DD89D722C915DBD49E7496A6F23CAD9DE450838745E45F9329 PUSH1 0x0 DUP4 DUP2 SLOAD DUP2 LT PUSH2 0x11F JUMPI PUSH2 0x11E PUSH2 0x37A JUMP JUMPDEST JUMPDEST SWAP1 PUSH1 0x0 MSTORE PUSH1 0x20 PUSH1 0x0 KECCAK256 ADD PUSH1 0x40 MLOAD PUSH2 0x136 SWAP2 SWAP1 PUSH2 0x24F JUMP JUMPDEST PUSH1 0x40 MLOAD DUP1 SWAP2 SUB SWAP1 LOG2 DUP1 DUP1 PUSH2 0x149 SWAP1 PUSH2 0x2D3 JUMP JUMPDEST SWAP2 POP POP PUSH2 0xDC JUMP JUMPDEST POP JUMP JUMPDEST PUSH1 0x0 JUMPDEST PUSH1 0x0 DUP1 SLOAD SWAP1 POP DUP2 LT ISZERO PUSH2 0x1CC JUMPI DUP1 PUSH32 0xC3750795857A09DD89D722C915DBD49E7496A6F23CAD9DE450838745E45F9329 PUSH1 0x0 DUP4 DUP2 SLOAD DUP2 LT PUSH2 0x19A JUMPI PUSH2 0x199 PUSH2 0x37A JUMP JUMPDEST JUMPDEST SWAP1 PUSH1 0x0 MSTORE PUSH1 0x20 PUSH1 0x0 KECCAK256 ADD PUSH1 0x40 MLOAD PUSH2 0x1B1 SWAP2 SWAP1 PUSH2 0x24F JUMP JUMPDEST PUSH1 0x40 MLOAD DUP1 SWAP2 SUB SWAP1 LOG2 DUP1 DUP1 PUSH2 0x1C4 SWAP1 PUSH2 0x2D3 JUMP JUMPDEST SWAP2 POP POP PUSH2 0x157 JUMP JUMPDEST POP JUMP JUMPDEST PUSH1 0x0 DUP2 SLOAD PUSH2 0x1DC DUP2 PUSH2 0x2A1 JUMP JUMPDEST PUSH2 0x1E6 DUP2 DUP7 PUSH2 0x286 JUMP JUMPDEST SWAP5 POP PUSH1 0x1 DUP3 AND PUSH1 0x0 DUP2 EQ PUSH2 0x201 JUMPI PUSH1 0x1 DUP2 EQ PUSH2 0x213 JUMPI PUSH2 0x246 JUMP JUMPDEST PUSH1 0xFF NOT DUP4 AND DUP7 MSTORE PUSH1 0x20 DUP7 ADD SWAP4 POP PUSH2 0x246 JUMP JUMPDEST PUSH2 0x21C DUP6 PUSH2 0x271 JUMP JUMPDEST PUSH1 0x0 JUMPDEST DUP4 DUP2 LT ISZERO PUSH2 0x23E JUMPI DUP2 SLOAD DUP2 DUP10 ADD MSTORE PUSH1 0x1 DUP3 ADD SWAP2 POP PUSH1 0x20 DUP2 ADD SWAP1 POP PUSH2 0x21F JUMP JUMPDEST DUP1 DUP9 ADD SWAP6 POP POP POP JUMPDEST POP POP POP SWAP3 SWAP2 POP POP JUMP JUMPDEST PUSH1 0x0 PUSH1 0x20 DUP3 ADD SWAP1 POP DUP2 DUP2 SUB PUSH1 0x0 DUP4 ADD MSTORE PUSH2 0x269 DUP2 DUP5 PUSH2 0x1CF JUMP JUMPDEST SWAP1 POP SWAP3 SWAP2 POP POP JUMP JUMPDEST PUSH1 0x0 DUP2 SWAP1 POP DUP2 PUSH1 0x0 MSTORE PUSH1 0x20 PUSH1 0x0 KECCAK256 SWAP1 POP SWAP2 SWAP1 POP JUMP JUMPDEST PUSH1 0x0 DUP3 DUP3 MSTORE PUSH1 0x20 DUP3 ADD SWAP1 POP SWAP3 SWAP2 POP POP JUMP JUMPDEST PUSH1 0x0 DUP2 SWAP1 POP SWAP2 SWAP1 POP JUMP JUMPDEST PUSH1 0x0 PUSH1 0x2 DUP3 DIV SWAP1 POP PUSH1 0x1 DUP3 AND DUP1 PUSH2 0x2B9 JUMPI PUSH1 0x7F DUP3 AND SWAP2 POP JUMPDEST PUSH1 0x20 DUP3 LT DUP2 EQ ISZERO PUSH2 0x2CD JUMPI PUSH2 0x2CC PUSH2 0x34B JUMP JUMPDEST JUMPDEST POP SWAP2 SWAP1 POP JUMP JUMPDEST PUSH1 0x0 PUSH2 0x2DE DUP3 PUSH2 0x297 JUMP JUMPDEST SWAP2 POP PUSH32 0xFFFFFFFFFFFFFFFFFFFFFFFFFFFFFFFFFFFFFFFFFFFFFFFFFFFFFFFFFFFFFFFF DUP3 EQ ISZERO PUSH2 0x311 JUMPI PUSH2 0x310 PUSH2 0x31C JUMP JUMPDEST JUMPDEST PUSH1 0x1 DUP3 ADD SWAP1 POP SWAP2 SWAP1 POP JUMP JUMPDEST PUSH32 0x4E487B7100000000000000000000000000000000000000000000000000000000 PUSH1 0x0 MSTORE PUSH1 0x11 PUSH1 0x4 MSTORE PUSH1 0x24 PUSH1 0x0 REVERT JUMPDEST PUSH32 0x4E487B7100000000000000000000000000000000000000000000000000000000 PUSH1 0x0 MSTORE PUSH1 0x22 PUSH1 0x4 MSTORE PUSH1 0x24 PUSH1 0x0 REVERT JUMPDEST PUSH32 0x4E487B7100000000000000000000000000000000000000000000000000000000 PUSH1 0x0 MSTORE PUSH1 0x32 PUSH1 0x4 MSTORE PUSH1 0x24 PUSH1 0x0 REVERT INVALID LOG2 PUSH5 0x6970667358 0x22 SLT KECCAK256 0xE2 0x26 0xAA MUL 0x2A CALLVALUE SWAP11 0xEB 0xCB CALLDATASIZE 0xFB DUP1 0x4C 0xE 0xDF PUSH31 0x4351F5D62BC7E80DE74D3E37145A659D64736F6C6343000807003300000000 "
		},
		"gasEstimates": {
			"creation": {
				"codeDepositCost": "198200",
				"executionCost": "infinite",
				"totalCost": "infinite"
			},
			"external": {
				"doWhileLoopEvent()": "infinite",
				"forLoopEvents()": "infinite",
				"whileLoopEvents()": "infinite"
			}
		},
		"methodIdentifiers": {
			"doWhileLoopEvent()": "41ff4bb6",
			"forLoopEvents()": "6cde9f8c",
			"whileLoopEvents()": "ddea9b0a"
		}
	},
	"abi": [
		{
			"anonymous": false,
			"inputs": [
				{
					"indexed": true,
					"internalType": "uint256",
					"name": "_index",
					"type": "uint256"
				},
				{
					"indexed": false,
					"internalType": "string",
					"name": "_name",
					"type": "string"
				}
			],
			"name": "CountryIndexName",
			"type": "event"
		},
		{
			"inputs": [],
			"name": "doWhileLoopEvent",
			"outputs": [],
			"stateMutability": "nonpayable",
			"type": "function"
		},
		{
			"inputs": [],
			"name": "forLoopEvents",
			"outputs": [],
			"stateMutability": "nonpayable",
			"type": "function"
		},
		{
			"inputs": [],
			"name": "whileLoopEvents",
			"outputs": [],
			"stateMutability": "nonpayable",
			"type": "function"
		}
	]
}