{
	"mycoin/Mytoken.sol": {
		"MyToken": {
			"abi": [
				{
					"inputs": [
						{
							"internalType": "string",
							"name": "name",
							"type": "string"
						},
						{
							"internalType": "string",
							"name": "symbol",
							"type": "string"
						}
					],
					"stateMutability": "nonpayable",
					"type": "constructor"
				},
				{
					"anonymous": false,
					"inputs": [
						{
							"indexed": true,
							"internalType": "address",
							"name": "owner",
							"type": "address"
						},
						{
							"indexed": true,
							"internalType": "address",
							"name": "spender",
							"type": "address"
						},
						{
							"indexed": false,
							"internalType": "uint256",
							"name": "value",
							"type": "uint256"
						}
					],
					"name": "Approval",
					"type": "event"
				},
				{
					"anonymous": false,
					"inputs": [
						{
							"indexed": true,
							"internalType": "address",
							"name": "from",
							"type": "address"
						},
						{
							"indexed": true,
							"internalType": "address",
							"name": "to",
							"type": "address"
						},
						{
							"indexed": false,
							"internalType": "uint256",
							"name": "value",
							"type": "uint256"
						}
					],
					"name": "Transfer",
					"type": "event"
				},
				{
					"inputs": [
						{
							"internalType": "address",
							"name": "owner",
							"type": "address"
						},
						{
							"internalType": "address",
							"name": "spender",
							"type": "address"
						}
					],
					"name": "allowance",
					"outputs": [
						{
							"internalType": "uint256",
							"name": "",
							"type": "uint256"
						}
					],
					"stateMutability": "view",
					"type": "function"
				},
				{
					"inputs": [
						{
							"internalType": "address",
							"name": "spender",
							"type": "address"
						},
						{
							"internalType": "uint256",
							"name": "amount",
							"type": "uint256"
						}
					],
					"name": "approve",
					"outputs": [
						{
							"internalType": "bool",
							"name": "",
							"type": "bool"
						}
					],
					"stateMutability": "nonpayable",
					"type": "function"
				},
				{
					"inputs": [
						{
							"internalType": "address",
							"name": "account",
							"type": "address"
						}
					],
					"name": "balanceOf",
					"outputs": [
						{
							"internalType": "uint256",
							"name": "",
							"type": "uint256"
						}
					],
					"stateMutability": "view",
					"type": "function"
				},
				{
					"inputs": [],
					"name": "decimals",
					"outputs": [
						{
							"internalType": "uint8",
							"name": "",
							"type": "uint8"
						}
					],
					"stateMutability": "view",
					"type": "function"
				},
				{
					"inputs": [
						{
							"internalType": "address",
							"name": "spender",
							"type": "address"
						},
						{
							"internalType": "uint256",
							"name": "subtractedValue",
							"type": "uint256"
						}
					],
					"name": "decreaseAllowance",
					"outputs": [
						{
							"internalType": "bool",
							"name": "",
							"type": "bool"
						}
					],
					"stateMutability": "nonpayable",
					"type": "function"
				},
				{
					"inputs": [
						{
							"internalType": "address",
							"name": "spender",
							"type": "address"
						},
						{
							"internalType": "uint256",
							"name": "addedValue",
							"type": "uint256"
						}
					],
					"name": "increaseAllowance",
					"outputs": [
						{
							"internalType": "bool",
							"name": "",
							"type": "bool"
						}
					],
					"stateMutability": "nonpayable",
					"type": "function"
				},
				{
					"inputs": [],
					"name": "name",
					"outputs": [
						{
							"internalType": "string",
							"name": "",
							"type": "string"
						}
					],
					"stateMutability": "view",
					"type": "function"
				},
				{
					"inputs": [],
					"name": "symbol",
					"outputs": [
						{
							"internalType": "string",
							"name": "",
							"type": "string"
						}
					],
					"stateMutability": "view",
					"type": "function"
				},
				{
					"inputs": [],
					"name": "totalSupply",
					"outputs": [
						{
							"internalType": "uint256",
							"name": "",
							"type": "uint256"
						}
					],
					"stateMutability": "view",
					"type": "function"
				},
				{
					"inputs": [
						{
							"internalType": "address",
							"name": "to",
							"type": "address"
						},
						{
							"internalType": "uint256",
							"name": "amount",
							"type": "uint256"
						}
					],
					"name": "transfer",
					"outputs": [
						{
							"internalType": "bool",
							"name": "",
							"type": "bool"
						}
					],
					"stateMutability": "nonpayable",
					"type": "function"
				},
				{
					"inputs": [
						{
							"internalType": "address",
							"name": "from",
							"type": "address"
						},
						{
							"internalType": "address",
							"name": "to",
							"type": "address"
						},
						{
							"internalType": "uint256",
							"name": "amount",
							"type": "uint256"
						}
					],
					"name": "transferFrom",
					"outputs": [
						{
							"internalType": "bool",
							"name": "",
							"type": "bool"
						}
					],
					"stateMutability": "nonpayable",
					"type": "function"
				}
			],
			"devdoc": {
				"kind": "dev",
				"methods": {
					"allowance(address,address)": {
						"details": "See {IERC20-allowance}."
					},
					"approve(address,uint256)": {
						"details": "See {IERC20-approve}. NOTE: If `amount` is the maximum `uint256`, the allowance is not updated on `transferFrom`. This is semantically equivalent to an infinite approval. Requirements: - `spender` cannot be the zero address."
					},
					"balanceOf(address)": {
						"details": "See {IERC20-balanceOf}."
					},
					"decimals()": {
						"details": "Returns the number of decimals used to get its user representation. For example, if `decimals` equals `2`, a balance of `505` tokens should be displayed to a user as `5.05` (`505 / 10 ** 2`). Tokens usually opt for a value of 18, imitating the relationship between Ether and Wei. This is the value {ERC20} uses, unless this function is overridden; NOTE: This information is only used for _display_ purposes: it in no way affects any of the arithmetic of the contract, including {IERC20-balanceOf} and {IERC20-transfer}."
					},
					"decreaseAllowance(address,uint256)": {
						"details": "Atomically decreases the allowance granted to `spender` by the caller. This is an alternative to {approve} that can be used as a mitigation for problems described in {IERC20-approve}. Emits an {Approval} event indicating the updated allowance. Requirements: - `spender` cannot be the zero address. - `spender` must have allowance for the caller of at least `subtractedValue`."
					},
					"increaseAllowance(address,uint256)": {
						"details": "Atomically increases the allowance granted to `spender` by the caller. This is an alternative to {approve} that can be used as a mitigation for problems described in {IERC20-approve}. Emits an {Approval} event indicating the updated allowance. Requirements: - `spender` cannot be the zero address."
					},
					"name()": {
						"details": "Returns the name of the token."
					},
					"symbol()": {
						"details": "Returns the symbol of the token, usually a shorter version of the name."
					},
					"totalSupply()": {
						"details": "See {IERC20-totalSupply}."
					},
					"transfer(address,uint256)": {
						"details": "See {IERC20-transfer}. Requirements: - `to` cannot be the zero address. - the caller must have a balance of at least `amount`."
					},
					"transferFrom(address,address,uint256)": {
						"details": "See {IERC20-transferFrom}. Emits an {Approval} event indicating the updated allowance. This is not required by the EIP. See the note at the beginning of {ERC20}. NOTE: Does not update the allowance if the current allowance is the maximum `uint256`. Requirements: - `from` and `to` cannot be the zero address. - `from` must have a balance of at least `amount`. - the caller must have allowance for ``from``'s tokens of at least `amount`."
					}
				},
				"version": 1
			},
			"evm": {
				"assembly": "    /* \"mycoin/Mytoken.sol\":240:407  contract MyToken is ERC20{... */\n  mstore(0x40, 0x80)\n    /* \"mycoin/Mytoken.sol\":271:405  constructor(string memory name, string memory symbol) ERC20(name, symbol){... */\n  callvalue\n  dup1\n  iszero\n  tag_1\n  jumpi\n  0x00\n  dup1\n  revert\ntag_1:\n  pop\n  mload(0x40)\n  sub(codesize, bytecodeSize)\n  dup1\n  bytecodeSize\n  dup4\n  codecopy\n  dup2\n  dup2\n  add\n  0x40\n  mstore\n  dup2\n  add\n  swap1\n  tag_2\n  swap2\n  swap1\n  tag_3\n  jump\t// in\ntag_2:\n    /* \"mycoin/Mytoken.sol\":331:335  name */\n  dup2\n    /* \"mycoin/Mytoken.sol\":337:343  symbol */\n  dup2\n    /* \"https://github.com/OpenZeppelin/openzeppelin-contracts/blob/master/contracts/token/ERC20/ERC20.sol\":2050:2055  name_ */\n  dup2\n    /* \"https://github.com/OpenZeppelin/openzeppelin-contracts/blob/master/contracts/token/ERC20/ERC20.sol\":2042:2047  _name */\n  0x03\n    /* \"https://github.com/OpenZeppelin/openzeppelin-contracts/blob/master/contracts/token/ERC20/ERC20.sol\":2042:2055  _name = name_ */\n  swap1\n  dup1\n  mload\n  swap1\n  0x20\n  add\n  swap1\n  tag_7\n  swap3\n  swap2\n  swap1\n  tag_8\n  jump\t// in\ntag_7:\n  pop\n    /* \"https://github.com/OpenZeppelin/openzeppelin-contracts/blob/master/contracts/token/ERC20/ERC20.sol\":2075:2082  symbol_ */\n  dup1\n    /* \"https://github.com/OpenZeppelin/openzeppelin-contracts/blob/master/contracts/token/ERC20/ERC20.sol\":2065:2072  _symbol */\n  0x04\n    /* \"https://github.com/OpenZeppelin/openzeppelin-contracts/blob/master/contracts/token/ERC20/ERC20.sol\":2065:2082  _symbol = symbol_ */\n  swap1\n  dup1\n  mload\n  swap1\n  0x20\n  add\n  swap1\n  tag_9\n  swap3\n  swap2\n  swap1\n  tag_8\n  jump\t// in\ntag_9:\n  pop\n    /* \"https://github.com/OpenZeppelin/openzeppelin-contracts/blob/master/contracts/token/ERC20/ERC20.sol\":1976:2089  constructor(string memory name_, string memory symbol_) {... */\n  pop\n  pop\n    /* \"mycoin/Mytoken.sol\":354:398  _mint(msg.sender, 1000*10**uint(decimals())) */\n  tag_11\n    /* \"mycoin/Mytoken.sol\":360:370  msg.sender */\n  caller\n    /* \"mycoin/Mytoken.sol\":386:396  decimals() */\n  tag_12\n    /* \"mycoin/Mytoken.sol\":386:394  decimals */\n  shl(0x20, tag_13)\n    /* \"mycoin/Mytoken.sol\":386:396  decimals() */\n  0x20\n  shr\n  jump\t// in\ntag_12:\n    /* \"mycoin/Mytoken.sol\":381:397  uint(decimals()) */\n  0xff\n  and\n    /* \"mycoin/Mytoken.sol\":377:379  10 */\n  0x0a\n    /* \"mycoin/Mytoken.sol\":377:397  10**uint(decimals()) */\n  tag_14\n  swap2\n  swap1\n  tag_15\n  jump\t// in\ntag_14:\n    /* \"mycoin/Mytoken.sol\":372:376  1000 */\n  0x03e8\n    /* \"mycoin/Mytoken.sol\":372:397  1000*10**uint(decimals()) */\n  tag_16\n  swap2\n  swap1\n  tag_17\n  jump\t// in\ntag_16:\n    /* \"mycoin/Mytoken.sol\":354:359  _mint */\n  shl(0x20, tag_18)\n    /* \"mycoin/Mytoken.sol\":354:398  _mint(msg.sender, 1000*10**uint(decimals())) */\n  0x20\n  shr\n  jump\t// in\ntag_11:\n    /* \"mycoin/Mytoken.sol\":271:405  constructor(string memory name, string memory symbol) ERC20(name, symbol){... */\n  pop\n  pop\n    /* \"mycoin/Mytoken.sol\":240:407  contract MyToken is ERC20{... */\n  jump(tag_19)\n    /* \"https://github.com/OpenZeppelin/openzeppelin-contracts/blob/master/contracts/token/ERC20/ERC20.sol\":3091:3182  function decimals() public view virtual override returns (uint8) {... */\ntag_13:\n    /* \"https://github.com/OpenZeppelin/openzeppelin-contracts/blob/master/contracts/token/ERC20/ERC20.sol\":3149:3154  uint8 */\n  0x00\n    /* \"https://github.com/OpenZeppelin/openzeppelin-contracts/blob/master/contracts/token/ERC20/ERC20.sol\":3173:3175  18 */\n  0x12\n    /* \"https://github.com/OpenZeppelin/openzeppelin-contracts/blob/master/contracts/token/ERC20/ERC20.sol\":3166:3175  return 18 */\n  swap1\n  pop\n    /* \"https://github.com/OpenZeppelin/openzeppelin-contracts/blob/master/contracts/token/ERC20/ERC20.sol\":3091:3182  function decimals() public view virtual override returns (uint8) {... */\n  swap1\n  jump\t// out\n    /* \"https://github.com/OpenZeppelin/openzeppelin-contracts/blob/master/contracts/token/ERC20/ERC20.sol\":8567:9102  function _mint(address account, uint256 amount) internal virtual {... */\ntag_18:\n    /* \"https://github.com/OpenZeppelin/openzeppelin-contracts/blob/master/contracts/token/ERC20/ERC20.sol\":8669:8670  0 */\n  0x00\n    /* \"https://github.com/OpenZeppelin/openzeppelin-contracts/blob/master/contracts/token/ERC20/ERC20.sol\":8650:8671  account != address(0) */\n  0xffffffffffffffffffffffffffffffffffffffff\n  and\n    /* \"https://github.com/OpenZeppelin/openzeppelin-contracts/blob/master/contracts/token/ERC20/ERC20.sol\":8650:8657  account */\n  dup3\n    /* \"https://github.com/OpenZeppelin/openzeppelin-contracts/blob/master/contracts/token/ERC20/ERC20.sol\":8650:8671  account != address(0) */\n  0xffffffffffffffffffffffffffffffffffffffff\n  and\n  eq\n  iszero\n    /* \"https://github.com/OpenZeppelin/openzeppelin-contracts/blob/master/contracts/token/ERC20/ERC20.sol\":8642:8707  require(account != address(0), \"ERC20: mint to the zero address\") */\n  tag_22\n  jumpi\n  mload(0x40)\n  0x08c379a000000000000000000000000000000000000000000000000000000000\n  dup2\n  mstore\n  0x04\n  add\n  tag_23\n  swap1\n  tag_24\n  jump\t// in\ntag_23:\n  mload(0x40)\n  dup1\n  swap2\n  sub\n  swap1\n  revert\ntag_22:\n    /* \"https://github.com/OpenZeppelin/openzeppelin-contracts/blob/master/contracts/token/ERC20/ERC20.sol\":8718:8767  _beforeTokenTransfer(address(0), account, amount) */\n  tag_25\n    /* \"https://github.com/OpenZeppelin/openzeppelin-contracts/blob/master/contracts/token/ERC20/ERC20.sol\":8747:8748  0 */\n  0x00\n    /* \"https://github.com/OpenZeppelin/openzeppelin-contracts/blob/master/contracts/token/ERC20/ERC20.sol\":8751:8758  account */\n  dup4\n    /* \"https://github.com/OpenZeppelin/openzeppelin-contracts/blob/master/contracts/token/ERC20/ERC20.sol\":8760:8766  amount */\n  dup4\n    /* \"https://github.com/OpenZeppelin/openzeppelin-contracts/blob/master/contracts/token/ERC20/ERC20.sol\":8718:8738  _beforeTokenTransfer */\n  shl(0x20, tag_26)\n    /* \"https://github.com/OpenZeppelin/openzeppelin-contracts/blob/master/contracts/token/ERC20/ERC20.sol\":8718:8767  _beforeTokenTransfer(address(0), account, amount) */\n  0x20\n  shr\n  jump\t// in\ntag_25:\n    /* \"https://github.com/OpenZeppelin/openzeppelin-contracts/blob/master/contracts/token/ERC20/ERC20.sol\":8794:8800  amount */\n  dup1\n    /* \"https://github.com/OpenZeppelin/openzeppelin-contracts/blob/master/contracts/token/ERC20/ERC20.sol\":8778:8790  _totalSupply */\n  0x02\n  0x00\n    /* \"https://github.com/OpenZeppelin/openzeppelin-contracts/blob/master/contracts/token/ERC20/ERC20.sol\":8778:8800  _totalSupply += amount */\n  dup3\n  dup3\n  sload\n  tag_27\n  swap2\n  swap1\n  tag_28\n  jump\t// in\ntag_27:\n  swap3\n  pop\n  pop\n  dup2\n  swap1\n  sstore\n  pop\n    /* \"https://github.com/OpenZeppelin/openzeppelin-contracts/blob/master/contracts/token/ERC20/ERC20.sol\":8968:8974  amount */\n  dup1\n    /* \"https://github.com/OpenZeppelin/openzeppelin-contracts/blob/master/contracts/token/ERC20/ERC20.sol\":8946:8955  _balances */\n  0x00\n    /* \"https://github.com/OpenZeppelin/openzeppelin-contracts/blob/master/contracts/token/ERC20/ERC20.sol\":8946:8964  _balances[account] */\n  dup1\n    /* \"https://github.com/OpenZeppelin/openzeppelin-contracts/blob/master/contracts/token/ERC20/ERC20.sol\":8956:8963  account */\n  dup5\n    /* \"https://github.com/OpenZeppelin/openzeppelin-contracts/blob/master/contracts/token/ERC20/ERC20.sol\":8946:8964  _balances[account] */\n  0xffffffffffffffffffffffffffffffffffffffff\n  and\n  0xffffffffffffffffffffffffffffffffffffffff\n  and\n  dup2\n  mstore\n  0x20\n  add\n  swap1\n  dup2\n  mstore\n  0x20\n  add\n  0x00\n  keccak256\n  0x00\n    /* \"https://github.com/OpenZeppelin/openzeppelin-contracts/blob/master/contracts/token/ERC20/ERC20.sol\":8946:8974  _balances[account] += amount */\n  dup3\n  dup3\n  sload\n  add\n  swap3\n  pop\n  pop\n  dup2\n  swap1\n  sstore\n  pop\n    /* \"https://github.com/OpenZeppelin/openzeppelin-contracts/blob/master/contracts/token/ERC20/ERC20.sol\":9020:9027  account */\n  dup2\n    /* \"https://github.com/OpenZeppelin/openzeppelin-contracts/blob/master/contracts/token/ERC20/ERC20.sol\":8999:9036  Transfer(address(0), account, amount) */\n  0xffffffffffffffffffffffffffffffffffffffff\n  and\n    /* \"https://github.com/OpenZeppelin/openzeppelin-contracts/blob/master/contracts/token/ERC20/ERC20.sol\":9016:9017  0 */\n  0x00\n    /* \"https://github.com/OpenZeppelin/openzeppelin-contracts/blob/master/contracts/token/ERC20/ERC20.sol\":8999:9036  Transfer(address(0), account, amount) */\n  0xffffffffffffffffffffffffffffffffffffffff\n  and\n  0xddf252ad1be2c89b69c2b068fc378daa952ba7f163c4a11628f55a4df523b3ef\n    /* \"https://github.com/OpenZeppelin/openzeppelin-contracts/blob/master/contracts/token/ERC20/ERC20.sol\":9029:9035  amount */\n  dup4\n    /* \"https://github.com/OpenZeppelin/openzeppelin-contracts/blob/master/contracts/token/ERC20/ERC20.sol\":8999:9036  Transfer(address(0), account, amount) */\n  mload(0x40)\n  tag_29\n  swap2\n  swap1\n  tag_30\n  jump\t// in\ntag_29:\n  mload(0x40)\n  dup1\n  swap2\n  sub\n  swap1\n  log3\n    /* \"https://github.com/OpenZeppelin/openzeppelin-contracts/blob/master/contracts/token/ERC20/ERC20.sol\":9047:9095  _afterTokenTransfer(address(0), account, amount) */\n  tag_31\n    /* \"https://github.com/OpenZeppelin/openzeppelin-contracts/blob/master/contracts/token/ERC20/ERC20.sol\":9075:9076  0 */\n  0x00\n    /* \"https://github.com/OpenZeppelin/openzeppelin-contracts/blob/master/contracts/token/ERC20/ERC20.sol\":9079:9086  account */\n  dup4\n    /* \"https://github.com/OpenZeppelin/openzeppelin-contracts/blob/master/contracts/token/ERC20/ERC20.sol\":9088:9094  amount */\n  dup4\n    /* \"https://github.com/OpenZeppelin/openzeppelin-contracts/blob/master/contracts/token/ERC20/ERC20.sol\":9047:9066  _afterTokenTransfer */\n  shl(0x20, tag_32)\n    /* \"https://github.com/OpenZeppelin/openzeppelin-contracts/blob/master/contracts/token/ERC20/ERC20.sol\":9047:9095  _afterTokenTransfer(address(0), account, amount) */\n  0x20\n  shr\n  jump\t// in\ntag_31:\n    /* \"https://github.com/OpenZeppelin/openzeppelin-contracts/blob/master/contracts/token/ERC20/ERC20.sol\":8567:9102  function _mint(address account, uint256 amount) internal virtual {... */\n  pop\n  pop\n  jump\t// out\n    /* \"https://github.com/OpenZeppelin/openzeppelin-contracts/blob/master/contracts/token/ERC20/ERC20.sol\":12180:12301  function _beforeTokenTransfer(... */\ntag_26:\n  pop\n  pop\n  pop\n  jump\t// out\n    /* \"https://github.com/OpenZeppelin/openzeppelin-contracts/blob/master/contracts/token/ERC20/ERC20.sol\":12889:13009  function _afterTokenTransfer(... */\ntag_32:\n  pop\n  pop\n  pop\n  jump\t// out\n    /* \"mycoin/Mytoken.sol\":240:407  contract MyToken is ERC20{... */\ntag_8:\n  dup3\n  dup1\n  sload\n  tag_35\n  swap1\n  tag_36\n  jump\t// in\ntag_35:\n  swap1\n  0x00\n  mstore\n  keccak256(0x00, 0x20)\n  swap1\n  0x1f\n  add\n  0x20\n  swap1\n  div\n  dup2\n  add\n  swap3\n  dup3\n  tag_38\n  jumpi\n  0x00\n  dup6\n  sstore\n  jump(tag_37)\ntag_38:\n  dup3\n  0x1f\n  lt\n  tag_39\n  jumpi\n  dup1\n  mload\n  not(0xff)\n  and\n  dup4\n  dup1\n  add\n  or\n  dup6\n  sstore\n  jump(tag_37)\ntag_39:\n  dup3\n  dup1\n  add\n  0x01\n  add\n  dup6\n  sstore\n  dup3\n  iszero\n  tag_37\n  jumpi\n  swap2\n  dup3\n  add\ntag_40:\n  dup3\n  dup2\n  gt\n  iszero\n  tag_41\n  jumpi\n  dup3\n  mload\n  dup3\n  sstore\n  swap2\n  0x20\n  add\n  swap2\n  swap1\n  0x01\n  add\n  swap1\n  jump(tag_40)\ntag_41:\ntag_37:\n  pop\n  swap1\n  pop\n  tag_42\n  swap2\n  swap1\n  tag_43\n  jump\t// in\ntag_42:\n  pop\n  swap1\n  jump\t// out\ntag_43:\ntag_44:\n  dup1\n  dup3\n  gt\n  iszero\n  tag_45\n  jumpi\n  0x00\n  dup2\n  0x00\n  swap1\n  sstore\n  pop\n  0x01\n  add\n  jump(tag_44)\ntag_45:\n  pop\n  swap1\n  jump\t// out\n    /* \"#utility.yul\":7:360   */\ntag_47:\n  0x00\n    /* \"#utility.yul\":121:186   */\n  tag_49\n    /* \"#utility.yul\":136:185   */\n  tag_50\n    /* \"#utility.yul\":178:184   */\n  dup5\n    /* \"#utility.yul\":136:185   */\n  tag_51\n  jump\t// in\ntag_50:\n    /* \"#utility.yul\":121:186   */\n  tag_52\n  jump\t// in\ntag_49:\n    /* \"#utility.yul\":112:186   */\n  swap1\n  pop\n    /* \"#utility.yul\":209:215   */\n  dup3\n    /* \"#utility.yul\":202:207   */\n  dup2\n    /* \"#utility.yul\":195:216   */\n  mstore\n    /* \"#utility.yul\":247:251   */\n  0x20\n    /* \"#utility.yul\":240:245   */\n  dup2\n    /* \"#utility.yul\":236:252   */\n  add\n    /* \"#utility.yul\":285:288   */\n  dup5\n    /* \"#utility.yul\":276:282   */\n  dup5\n    /* \"#utility.yul\":271:274   */\n  dup5\n    /* \"#utility.yul\":267:283   */\n  add\n    /* \"#utility.yul\":264:289   */\n  gt\n    /* \"#utility.yul\":261:263   */\n  iszero\n  tag_53\n  jumpi\n    /* \"#utility.yul\":302:303   */\n  0x00\n    /* \"#utility.yul\":299:300   */\n  dup1\n    /* \"#utility.yul\":292:304   */\n  revert\n    /* \"#utility.yul\":261:263   */\ntag_53:\n    /* \"#utility.yul\":315:354   */\n  tag_54\n    /* \"#utility.yul\":347:353   */\n  dup5\n    /* \"#utility.yul\":342:345   */\n  dup3\n    /* \"#utility.yul\":337:340   */\n  dup6\n    /* \"#utility.yul\":315:354   */\n  tag_55\n  jump\t// in\ntag_54:\n    /* \"#utility.yul\":102:360   */\n  pop\n  swap4\n  swap3\n  pop\n  pop\n  pop\n  jump\t// out\n    /* \"#utility.yul\":380:668   */\ntag_56:\n  0x00\n    /* \"#utility.yul\":496:499   */\n  dup3\n    /* \"#utility.yul\":489:493   */\n  0x1f\n    /* \"#utility.yul\":481:487   */\n  dup4\n    /* \"#utility.yul\":477:494   */\n  add\n    /* \"#utility.yul\":473:500   */\n  slt\n    /* \"#utility.yul\":463:465   */\n  tag_58\n  jumpi\n    /* \"#utility.yul\":514:515   */\n  0x00\n    /* \"#utility.yul\":511:512   */\n  dup1\n    /* \"#utility.yul\":504:516   */\n  revert\n    /* \"#utility.yul\":463:465   */\ntag_58:\n    /* \"#utility.yul\":547:553   */\n  dup2\n    /* \"#utility.yul\":541:554   */\n  mload\n    /* \"#utility.yul\":572:662   */\n  tag_59\n    /* \"#utility.yul\":658:661   */\n  dup5\n    /* \"#utility.yul\":650:656   */\n  dup3\n    /* \"#utility.yul\":643:647   */\n  0x20\n    /* \"#utility.yul\":635:641   */\n  dup7\n    /* \"#utility.yul\":631:648   */\n  add\n    /* \"#utility.yul\":572:662   */\n  tag_47\n  jump\t// in\ntag_59:\n    /* \"#utility.yul\":563:662   */\n  swap2\n  pop\n    /* \"#utility.yul\":453:668   */\n  pop\n  swap3\n  swap2\n  pop\n  pop\n  jump\t// out\n    /* \"#utility.yul\":674:1326   */\ntag_3:\n  0x00\n  dup1\n    /* \"#utility.yul\":830:832   */\n  0x40\n    /* \"#utility.yul\":818:827   */\n  dup4\n    /* \"#utility.yul\":809:816   */\n  dup6\n    /* \"#utility.yul\":805:828   */\n  sub\n    /* \"#utility.yul\":801:833   */\n  slt\n    /* \"#utility.yul\":798:800   */\n  iszero\n  tag_61\n  jumpi\n    /* \"#utility.yul\":846:847   */\n  0x00\n    /* \"#utility.yul\":843:844   */\n  dup1\n    /* \"#utility.yul\":836:848   */\n  revert\n    /* \"#utility.yul\":798:800   */\ntag_61:\n    /* \"#utility.yul\":910:911   */\n  0x00\n    /* \"#utility.yul\":899:908   */\n  dup4\n    /* \"#utility.yul\":895:912   */\n  add\n    /* \"#utility.yul\":889:913   */\n  mload\n    /* \"#utility.yul\":940:958   */\n  0xffffffffffffffff\n    /* \"#utility.yul\":932:938   */\n  dup2\n    /* \"#utility.yul\":929:959   */\n  gt\n    /* \"#utility.yul\":926:928   */\n  iszero\n  tag_62\n  jumpi\n    /* \"#utility.yul\":972:973   */\n  0x00\n    /* \"#utility.yul\":969:970   */\n  dup1\n    /* \"#utility.yul\":962:974   */\n  revert\n    /* \"#utility.yul\":926:928   */\ntag_62:\n    /* \"#utility.yul\":1000:1074   */\n  tag_63\n    /* \"#utility.yul\":1066:1073   */\n  dup6\n    /* \"#utility.yul\":1057:1063   */\n  dup3\n    /* \"#utility.yul\":1046:1055   */\n  dup7\n    /* \"#utility.yul\":1042:1064   */\n  add\n    /* \"#utility.yul\":1000:1074   */\n  tag_56\n  jump\t// in\ntag_63:\n    /* \"#utility.yul\":990:1074   */\n  swap3\n  pop\n    /* \"#utility.yul\":860:1084   */\n  pop\n    /* \"#utility.yul\":1144:1146   */\n  0x20\n    /* \"#utility.yul\":1133:1142   */\n  dup4\n    /* \"#utility.yul\":1129:1147   */\n  add\n    /* \"#utility.yul\":1123:1148   */\n  mload\n    /* \"#utility.yul\":1175:1193   */\n  0xffffffffffffffff\n    /* \"#utility.yul\":1167:1173   */\n  dup2\n    /* \"#utility.yul\":1164:1194   */\n  gt\n    /* \"#utility.yul\":1161:1163   */\n  iszero\n  tag_64\n  jumpi\n    /* \"#utility.yul\":1207:1208   */\n  0x00\n    /* \"#utility.yul\":1204:1205   */\n  dup1\n    /* \"#utility.yul\":1197:1209   */\n  revert\n    /* \"#utility.yul\":1161:1163   */\ntag_64:\n    /* \"#utility.yul\":1235:1309   */\n  tag_65\n    /* \"#utility.yul\":1301:1308   */\n  dup6\n    /* \"#utility.yul\":1292:1298   */\n  dup3\n    /* \"#utility.yul\":1281:1290   */\n  dup7\n    /* \"#utility.yul\":1277:1299   */\n  add\n    /* \"#utility.yul\":1235:1309   */\n  tag_56\n  jump\t// in\ntag_65:\n    /* \"#utility.yul\":1225:1309   */\n  swap2\n  pop\n    /* \"#utility.yul\":1094:1319   */\n  pop\n    /* \"#utility.yul\":788:1326   */\n  swap3\n  pop\n  swap3\n  swap1\n  pop\n  jump\t// out\n    /* \"#utility.yul\":1332:1661   */\ntag_66:\n  0x00\n    /* \"#utility.yul\":1495:1562   */\n  tag_68\n    /* \"#utility.yul\":1559:1561   */\n  0x1f\n    /* \"#utility.yul\":1554:1557   */\n  dup4\n    /* \"#utility.yul\":1495:1562   */\n  tag_69\n  jump\t// in\ntag_68:\n    /* \"#utility.yul\":1488:1562   */\n  swap2\n  pop\n    /* \"#utility.yul\":1592:1625   */\n  0x45524332303a206d696e7420746f20746865207a65726f206164647265737300\n    /* \"#utility.yul\":1588:1589   */\n  0x00\n    /* \"#utility.yul\":1583:1586   */\n  dup4\n    /* \"#utility.yul\":1579:1590   */\n  add\n    /* \"#utility.yul\":1572:1626   */\n  mstore\n    /* \"#utility.yul\":1652:1654   */\n  0x20\n    /* \"#utility.yul\":1647:1650   */\n  dup3\n    /* \"#utility.yul\":1643:1655   */\n  add\n    /* \"#utility.yul\":1636:1655   */\n  swap1\n  pop\n    /* \"#utility.yul\":1478:1661   */\n  swap2\n  swap1\n  pop\n  jump\t// out\n    /* \"#utility.yul\":1667:1785   */\ntag_70:\n    /* \"#utility.yul\":1754:1778   */\n  tag_72\n    /* \"#utility.yul\":1772:1777   */\n  dup2\n    /* \"#utility.yul\":1754:1778   */\n  tag_73\n  jump\t// in\ntag_72:\n    /* \"#utility.yul\":1749:1752   */\n  dup3\n    /* \"#utility.yul\":1742:1779   */\n  mstore\n    /* \"#utility.yul\":1732:1785   */\n  pop\n  pop\n  jump\t// out\n    /* \"#utility.yul\":1791:2210   */\ntag_24:\n  0x00\n    /* \"#utility.yul\":1995:1997   */\n  0x20\n    /* \"#utility.yul\":1984:1993   */\n  dup3\n    /* \"#utility.yul\":1980:1998   */\n  add\n    /* \"#utility.yul\":1972:1998   */\n  swap1\n  pop\n    /* \"#utility.yul\":2044:2053   */\n  dup2\n    /* \"#utility.yul\":2038:2042   */\n  dup2\n    /* \"#utility.yul\":2034:2054   */\n  sub\n    /* \"#utility.yul\":2030:2031   */\n  0x00\n    /* \"#utility.yul\":2019:2028   */\n  dup4\n    /* \"#utility.yul\":2015:2032   */\n  add\n    /* \"#utility.yul\":2008:2055   */\n  mstore\n    /* \"#utility.yul\":2072:2203   */\n  tag_75\n    /* \"#utility.yul\":2198:2202   */\n  dup2\n    /* \"#utility.yul\":2072:2203   */\n  tag_66\n  jump\t// in\ntag_75:\n    /* \"#utility.yul\":2064:2203   */\n  swap1\n  pop\n    /* \"#utility.yul\":1962:2210   */\n  swap2\n  swap1\n  pop\n  jump\t// out\n    /* \"#utility.yul\":2216:2438   */\ntag_30:\n  0x00\n    /* \"#utility.yul\":2347:2349   */\n  0x20\n    /* \"#utility.yul\":2336:2345   */\n  dup3\n    /* \"#utility.yul\":2332:2350   */\n  add\n    /* \"#utility.yul\":2324:2350   */\n  swap1\n  pop\n    /* \"#utility.yul\":2360:2431   */\n  tag_77\n    /* \"#utility.yul\":2428:2429   */\n  0x00\n    /* \"#utility.yul\":2417:2426   */\n  dup4\n    /* \"#utility.yul\":2413:2430   */\n  add\n    /* \"#utility.yul\":2404:2410   */\n  dup5\n    /* \"#utility.yul\":2360:2431   */\n  tag_70\n  jump\t// in\ntag_77:\n    /* \"#utility.yul\":2314:2438   */\n  swap3\n  swap2\n  pop\n  pop\n  jump\t// out\n    /* \"#utility.yul\":2444:2727   */\ntag_52:\n  0x00\n    /* \"#utility.yul\":2510:2512   */\n  0x40\n    /* \"#utility.yul\":2504:2513   */\n  mload\n    /* \"#utility.yul\":2494:2513   */\n  swap1\n  pop\n    /* \"#utility.yul\":2552:2556   */\n  dup2\n    /* \"#utility.yul\":2544:2550   */\n  dup2\n    /* \"#utility.yul\":2540:2557   */\n  add\n    /* \"#utility.yul\":2659:2665   */\n  dup2\n    /* \"#utility.yul\":2647:2657   */\n  dup2\n    /* \"#utility.yul\":2644:2666   */\n  lt\n    /* \"#utility.yul\":2623:2641   */\n  0xffffffffffffffff\n    /* \"#utility.yul\":2611:2621   */\n  dup3\n    /* \"#utility.yul\":2608:2642   */\n  gt\n    /* \"#utility.yul\":2605:2667   */\n  or\n    /* \"#utility.yul\":2602:2604   */\n  iszero\n  tag_79\n  jumpi\n    /* \"#utility.yul\":2670:2688   */\n  tag_80\n  tag_81\n  jump\t// in\ntag_80:\n    /* \"#utility.yul\":2602:2604   */\ntag_79:\n    /* \"#utility.yul\":2710:2720   */\n  dup1\n    /* \"#utility.yul\":2706:2708   */\n  0x40\n    /* \"#utility.yul\":2699:2721   */\n  mstore\n    /* \"#utility.yul\":2484:2727   */\n  pop\n  swap2\n  swap1\n  pop\n  jump\t// out\n    /* \"#utility.yul\":2733:3065   */\ntag_51:\n  0x00\n    /* \"#utility.yul\":2885:2903   */\n  0xffffffffffffffff\n    /* \"#utility.yul\":2877:2883   */\n  dup3\n    /* \"#utility.yul\":2874:2904   */\n  gt\n    /* \"#utility.yul\":2871:2873   */\n  iszero\n  tag_83\n  jumpi\n    /* \"#utility.yul\":2907:2925   */\n  tag_84\n  tag_81\n  jump\t// in\ntag_84:\n    /* \"#utility.yul\":2871:2873   */\ntag_83:\n    /* \"#utility.yul\":2992:2996   */\n  0x1f\n    /* \"#utility.yul\":2988:2997   */\n  not\n    /* \"#utility.yul\":2981:2985   */\n  0x1f\n    /* \"#utility.yul\":2973:2979   */\n  dup4\n    /* \"#utility.yul\":2969:2986   */\n  add\n    /* \"#utility.yul\":2965:2998   */\n  and\n    /* \"#utility.yul\":2957:2998   */\n  swap1\n  pop\n    /* \"#utility.yul\":3053:3057   */\n  0x20\n    /* \"#utility.yul\":3047:3051   */\n  dup2\n    /* \"#utility.yul\":3043:3058   */\n  add\n    /* \"#utility.yul\":3035:3058   */\n  swap1\n  pop\n    /* \"#utility.yul\":2800:3065   */\n  swap2\n  swap1\n  pop\n  jump\t// out\n    /* \"#utility.yul\":3071:3240   */\ntag_69:\n  0x00\n    /* \"#utility.yul\":3189:3195   */\n  dup3\n    /* \"#utility.yul\":3184:3187   */\n  dup3\n    /* \"#utility.yul\":3177:3196   */\n  mstore\n    /* \"#utility.yul\":3229:3233   */\n  0x20\n    /* \"#utility.yul\":3224:3227   */\n  dup3\n    /* \"#utility.yul\":3220:3234   */\n  add\n    /* \"#utility.yul\":3205:3234   */\n  swap1\n  pop\n    /* \"#utility.yul\":3167:3240   */\n  swap3\n  swap2\n  pop\n  pop\n  jump\t// out\n    /* \"#utility.yul\":3246:3551   */\ntag_28:\n  0x00\n    /* \"#utility.yul\":3305:3325   */\n  tag_87\n    /* \"#utility.yul\":3323:3324   */\n  dup3\n    /* \"#utility.yul\":3305:3325   */\n  tag_73\n  jump\t// in\ntag_87:\n    /* \"#utility.yul\":3300:3325   */\n  swap2\n  pop\n    /* \"#utility.yul\":3339:3359   */\n  tag_88\n    /* \"#utility.yul\":3357:3358   */\n  dup4\n    /* \"#utility.yul\":3339:3359   */\n  tag_73\n  jump\t// in\ntag_88:\n    /* \"#utility.yul\":3334:3359   */\n  swap3\n  pop\n    /* \"#utility.yul\":3493:3494   */\n  dup3\n    /* \"#utility.yul\":3425:3491   */\n  0xffffffffffffffffffffffffffffffffffffffffffffffffffffffffffffffff\n    /* \"#utility.yul\":3421:3495   */\n  sub\n    /* \"#utility.yul\":3418:3419   */\n  dup3\n    /* \"#utility.yul\":3415:3496   */\n  gt\n    /* \"#utility.yul\":3412:3414   */\n  iszero\n  tag_89\n  jumpi\n    /* \"#utility.yul\":3499:3517   */\n  tag_90\n  tag_91\n  jump\t// in\ntag_90:\n    /* \"#utility.yul\":3412:3414   */\ntag_89:\n    /* \"#utility.yul\":3543:3544   */\n  dup3\n    /* \"#utility.yul\":3540:3541   */\n  dup3\n    /* \"#utility.yul\":3536:3545   */\n  add\n    /* \"#utility.yul\":3529:3545   */\n  swap1\n  pop\n    /* \"#utility.yul\":3290:3551   */\n  swap3\n  swap2\n  pop\n  pop\n  jump\t// out\n    /* \"#utility.yul\":3557:4405   */\ntag_92:\n  0x00\n  dup1\n    /* \"#utility.yul\":3649:3655   */\n  dup3\n    /* \"#utility.yul\":3640:3655   */\n  swap2\n  pop\n    /* \"#utility.yul\":3673:3678   */\n  dup4\n    /* \"#utility.yul\":3664:3678   */\n  swap1\n  pop\n    /* \"#utility.yul\":3687:4399   */\ntag_94:\n    /* \"#utility.yul\":3708:3709   */\n  0x01\n    /* \"#utility.yul\":3698:3706   */\n  dup6\n    /* \"#utility.yul\":3695:3710   */\n  gt\n    /* \"#utility.yul\":3687:4399   */\n  iszero\n  tag_96\n  jumpi\n    /* \"#utility.yul\":3803:3807   */\n  dup1\n    /* \"#utility.yul\":3798:3801   */\n  dup7\n    /* \"#utility.yul\":3794:3808   */\n  div\n    /* \"#utility.yul\":3788:3792   */\n  dup2\n    /* \"#utility.yul\":3785:3809   */\n  gt\n    /* \"#utility.yul\":3782:3784   */\n  iszero\n  tag_97\n  jumpi\n    /* \"#utility.yul\":3812:3830   */\n  tag_98\n  tag_91\n  jump\t// in\ntag_98:\n    /* \"#utility.yul\":3782:3784   */\ntag_97:\n    /* \"#utility.yul\":3862:3863   */\n  0x01\n    /* \"#utility.yul\":3852:3860   */\n  dup6\n    /* \"#utility.yul\":3848:3864   */\n  and\n    /* \"#utility.yul\":3845:3847   */\n  iszero\n  tag_99\n  jumpi\n    /* \"#utility.yul\":4277:4281   */\n  dup1\n    /* \"#utility.yul\":4270:4275   */\n  dup3\n    /* \"#utility.yul\":4266:4282   */\n  mul\n    /* \"#utility.yul\":4257:4282   */\n  swap2\n  pop\n    /* \"#utility.yul\":3845:3847   */\ntag_99:\n    /* \"#utility.yul\":4327:4331   */\n  dup1\n    /* \"#utility.yul\":4321:4325   */\n  dup2\n    /* \"#utility.yul\":4317:4332   */\n  mul\n    /* \"#utility.yul\":4309:4332   */\n  swap1\n  pop\n    /* \"#utility.yul\":4357:4389   */\n  tag_100\n    /* \"#utility.yul\":4380:4388   */\n  dup6\n    /* \"#utility.yul\":4357:4389   */\n  tag_101\n  jump\t// in\ntag_100:\n    /* \"#utility.yul\":4345:4389   */\n  swap5\n  pop\n    /* \"#utility.yul\":3687:4399   */\n  jump(tag_94)\ntag_96:\n    /* \"#utility.yul\":3630:4405   */\n  swap5\n  pop\n  swap5\n  swap3\n  pop\n  pop\n  pop\n  jump\t// out\n    /* \"#utility.yul\":4411:4696   */\ntag_15:\n  0x00\n    /* \"#utility.yul\":4495:4518   */\n  tag_103\n    /* \"#utility.yul\":4513:4517   */\n  dup3\n    /* \"#utility.yul\":4495:4518   */\n  tag_73\n  jump\t// in\ntag_103:\n    /* \"#utility.yul\":4487:4518   */\n  swap2\n  pop\n    /* \"#utility.yul\":4539:4566   */\n  tag_104\n    /* \"#utility.yul\":4557:4565   */\n  dup4\n    /* \"#utility.yul\":4539:4566   */\n  tag_73\n  jump\t// in\ntag_104:\n    /* \"#utility.yul\":4527:4566   */\n  swap3\n  pop\n    /* \"#utility.yul\":4585:4689   */\n  tag_105\n    /* \"#utility.yul\":4622:4688   */\n  0xffffffffffffffffffffffffffffffffffffffffffffffffffffffffffffffff\n    /* \"#utility.yul\":4612:4620   */\n  dup5\n    /* \"#utility.yul\":4606:4610   */\n  dup5\n    /* \"#utility.yul\":4585:4689   */\n  tag_106\n  jump\t// in\ntag_105:\n    /* \"#utility.yul\":4576:4689   */\n  swap1\n  pop\n    /* \"#utility.yul\":4477:4696   */\n  swap3\n  swap2\n  pop\n  pop\n  jump\t// out\n    /* \"#utility.yul\":4702:5775   */\ntag_106:\n  0x00\n    /* \"#utility.yul\":4947:4955   */\n  dup3\n    /* \"#utility.yul\":4937:4939   */\n  tag_108\n  jumpi\n    /* \"#utility.yul\":4968:4969   */\n  0x01\n    /* \"#utility.yul\":4959:4969   */\n  swap1\n  pop\n    /* \"#utility.yul\":4970:4975   */\n  jump(tag_107)\n    /* \"#utility.yul\":4937:4939   */\ntag_108:\n    /* \"#utility.yul\":4996:5000   */\n  dup2\n    /* \"#utility.yul\":4986:4988   */\n  tag_109\n  jumpi\n    /* \"#utility.yul\":5013:5014   */\n  0x00\n    /* \"#utility.yul\":5004:5014   */\n  swap1\n  pop\n    /* \"#utility.yul\":5015:5020   */\n  jump(tag_107)\n    /* \"#utility.yul\":4986:4988   */\ntag_109:\n    /* \"#utility.yul\":5082:5086   */\n  dup2\n    /* \"#utility.yul\":5130:5131   */\n  0x01\n    /* \"#utility.yul\":5125:5152   */\n  dup2\n  eq\n  tag_111\n  jumpi\n    /* \"#utility.yul\":5166:5167   */\n  0x02\n    /* \"#utility.yul\":5161:5352   */\n  dup2\n  eq\n  tag_112\n  jumpi\n    /* \"#utility.yul\":5075:5352   */\n  jump(tag_110)\n    /* \"#utility.yul\":5125:5152   */\ntag_111:\n    /* \"#utility.yul\":5143:5144   */\n  0x01\n    /* \"#utility.yul\":5134:5144   */\n  swap2\n  pop\n    /* \"#utility.yul\":5145:5150   */\n  pop\n  jump(tag_107)\n    /* \"#utility.yul\":5161:5352   */\ntag_112:\n    /* \"#utility.yul\":5206:5209   */\n  0xff\n    /* \"#utility.yul\":5196:5204   */\n  dup5\n    /* \"#utility.yul\":5193:5210   */\n  gt\n    /* \"#utility.yul\":5190:5192   */\n  iszero\n  tag_113\n  jumpi\n    /* \"#utility.yul\":5213:5231   */\n  tag_114\n  tag_91\n  jump\t// in\ntag_114:\n    /* \"#utility.yul\":5190:5192   */\ntag_113:\n    /* \"#utility.yul\":5262:5270   */\n  dup4\n    /* \"#utility.yul\":5259:5260   */\n  0x02\n    /* \"#utility.yul\":5255:5271   */\n  exp\n    /* \"#utility.yul\":5246:5271   */\n  swap2\n  pop\n    /* \"#utility.yul\":5297:5300   */\n  dup5\n    /* \"#utility.yul\":5290:5295   */\n  dup3\n    /* \"#utility.yul\":5287:5301   */\n  gt\n    /* \"#utility.yul\":5284:5286   */\n  iszero\n  tag_115\n  jumpi\n    /* \"#utility.yul\":5304:5322   */\n  tag_116\n  tag_91\n  jump\t// in\ntag_116:\n    /* \"#utility.yul\":5284:5286   */\ntag_115:\n    /* \"#utility.yul\":5337:5342   */\n  pop\n  jump(tag_107)\n    /* \"#utility.yul\":5075:5352   */\ntag_110:\n  pop\n    /* \"#utility.yul\":5461:5463   */\n  0x20\n    /* \"#utility.yul\":5451:5459   */\n  dup4\n    /* \"#utility.yul\":5448:5464   */\n  lt\n    /* \"#utility.yul\":5442:5445   */\n  0x0133\n    /* \"#utility.yul\":5436:5440   */\n  dup4\n    /* \"#utility.yul\":5433:5446   */\n  lt\n    /* \"#utility.yul\":5429:5465   */\n  and\n    /* \"#utility.yul\":5411:5413   */\n  0x4e\n    /* \"#utility.yul\":5401:5409   */\n  dup5\n    /* \"#utility.yul\":5398:5414   */\n  lt\n    /* \"#utility.yul\":5393:5395   */\n  0x0b\n    /* \"#utility.yul\":5387:5391   */\n  dup5\n    /* \"#utility.yul\":5384:5396   */\n  lt\n    /* \"#utility.yul\":5380:5415   */\n  and\n    /* \"#utility.yul\":5364:5475   */\n  or\n    /* \"#utility.yul\":5361:5363   */\n  iszero\n  tag_117\n  jumpi\n    /* \"#utility.yul\":5517:5525   */\n  dup3\n    /* \"#utility.yul\":5511:5515   */\n  dup3\n    /* \"#utility.yul\":5507:5526   */\n  exp\n    /* \"#utility.yul\":5498:5526   */\n  swap1\n  pop\n    /* \"#utility.yul\":5552:5555   */\n  dup4\n    /* \"#utility.yul\":5545:5550   */\n  dup2\n    /* \"#utility.yul\":5542:5556   */\n  gt\n    /* \"#utility.yul\":5539:5541   */\n  iszero\n  tag_118\n  jumpi\n    /* \"#utility.yul\":5559:5577   */\n  tag_119\n  tag_91\n  jump\t// in\ntag_119:\n    /* \"#utility.yul\":5539:5541   */\ntag_118:\n    /* \"#utility.yul\":5592:5597   */\n  jump(tag_107)\n    /* \"#utility.yul\":5361:5363   */\ntag_117:\n    /* \"#utility.yul\":5632:5674   */\n  tag_120\n    /* \"#utility.yul\":5670:5673   */\n  dup5\n    /* \"#utility.yul\":5660:5668   */\n  dup5\n    /* \"#utility.yul\":5654:5658   */\n  dup5\n    /* \"#utility.yul\":5651:5652   */\n  0x01\n    /* \"#utility.yul\":5632:5674   */\n  tag_92\n  jump\t// in\ntag_120:\n    /* \"#utility.yul\":5617:5674   */\n  swap3\n  pop\n  swap1\n  pop\n    /* \"#utility.yul\":5706:5710   */\n  dup2\n    /* \"#utility.yul\":5701:5704   */\n  dup5\n    /* \"#utility.yul\":5697:5711   */\n  div\n    /* \"#utility.yul\":5690:5695   */\n  dup2\n    /* \"#utility.yul\":5687:5712   */\n  gt\n    /* \"#utility.yul\":5684:5686   */\n  iszero\n  tag_121\n  jumpi\n    /* \"#utility.yul\":5715:5733   */\n  tag_122\n  tag_91\n  jump\t// in\ntag_122:\n    /* \"#utility.yul\":5684:5686   */\ntag_121:\n    /* \"#utility.yul\":5764:5768   */\n  dup2\n    /* \"#utility.yul\":5757:5762   */\n  dup2\n    /* \"#utility.yul\":5753:5769   */\n  mul\n    /* \"#utility.yul\":5744:5769   */\n  swap1\n  pop\n    /* \"#utility.yul\":4762:5775   */\ntag_107:\n  swap4\n  swap3\n  pop\n  pop\n  pop\n  jump\t// out\n    /* \"#utility.yul\":5781:6129   */\ntag_17:\n  0x00\n    /* \"#utility.yul\":5844:5864   */\n  tag_124\n    /* \"#utility.yul\":5862:5863   */\n  dup3\n    /* \"#utility.yul\":5844:5864   */\n  tag_73\n  jump\t// in\ntag_124:\n    /* \"#utility.yul\":5839:5864   */\n  swap2\n  pop\n    /* \"#utility.yul\":5878:5898   */\n  tag_125\n    /* \"#utility.yul\":5896:5897   */\n  dup4\n    /* \"#utility.yul\":5878:5898   */\n  tag_73\n  jump\t// in\ntag_125:\n    /* \"#utility.yul\":5873:5898   */\n  swap3\n  pop\n    /* \"#utility.yul\":6066:6067   */\n  dup2\n    /* \"#utility.yul\":5998:6064   */\n  0xffffffffffffffffffffffffffffffffffffffffffffffffffffffffffffffff\n    /* \"#utility.yul\":5994:6068   */\n  div\n    /* \"#utility.yul\":5991:5992   */\n  dup4\n    /* \"#utility.yul\":5988:6069   */\n  gt\n    /* \"#utility.yul\":5983:5984   */\n  dup3\n    /* \"#utility.yul\":5976:5985   */\n  iszero\n    /* \"#utility.yul\":5969:5986   */\n  iszero\n    /* \"#utility.yul\":5965:6070   */\n  and\n    /* \"#utility.yul\":5962:5964   */\n  iszero\n  tag_126\n  jumpi\n    /* \"#utility.yul\":6073:6091   */\n  tag_127\n  tag_91\n  jump\t// in\ntag_127:\n    /* \"#utility.yul\":5962:5964   */\ntag_126:\n    /* \"#utility.yul\":6121:6122   */\n  dup3\n    /* \"#utility.yul\":6118:6119   */\n  dup3\n    /* \"#utility.yul\":6114:6123   */\n  mul\n    /* \"#utility.yul\":6103:6123   */\n  swap1\n  pop\n    /* \"#utility.yul\":5829:6129   */\n  swap3\n  swap2\n  pop\n  pop\n  jump\t// out\n    /* \"#utility.yul\":6135:6212   */\ntag_73:\n  0x00\n    /* \"#utility.yul\":6201:6206   */\n  dup2\n    /* \"#utility.yul\":6190:6206   */\n  swap1\n  pop\n    /* \"#utility.yul\":6180:6212   */\n  swap2\n  swap1\n  pop\n  jump\t// out\n    /* \"#utility.yul\":6218:6525   */\ntag_55:\n    /* \"#utility.yul\":6286:6287   */\n  0x00\n    /* \"#utility.yul\":6296:6409   */\ntag_130:\n    /* \"#utility.yul\":6310:6316   */\n  dup4\n    /* \"#utility.yul\":6307:6308   */\n  dup2\n    /* \"#utility.yul\":6304:6317   */\n  lt\n    /* \"#utility.yul\":6296:6409   */\n  iszero\n  tag_132\n  jumpi\n    /* \"#utility.yul\":6395:6396   */\n  dup1\n    /* \"#utility.yul\":6390:6393   */\n  dup3\n    /* \"#utility.yul\":6386:6397   */\n  add\n    /* \"#utility.yul\":6380:6398   */\n  mload\n    /* \"#utility.yul\":6376:6377   */\n  dup2\n    /* \"#utility.yul\":6371:6374   */\n  dup5\n    /* \"#utility.yul\":6367:6378   */\n  add\n    /* \"#utility.yul\":6360:6399   */\n  mstore\n    /* \"#utility.yul\":6332:6334   */\n  0x20\n    /* \"#utility.yul\":6329:6330   */\n  dup2\n    /* \"#utility.yul\":6325:6335   */\n  add\n    /* \"#utility.yul\":6320:6335   */\n  swap1\n  pop\n    /* \"#utility.yul\":6296:6409   */\n  jump(tag_130)\ntag_132:\n    /* \"#utility.yul\":6427:6433   */\n  dup4\n    /* \"#utility.yul\":6424:6425   */\n  dup2\n    /* \"#utility.yul\":6421:6434   */\n  gt\n    /* \"#utility.yul\":6418:6420   */\n  iszero\n  tag_133\n  jumpi\n    /* \"#utility.yul\":6507:6508   */\n  0x00\n    /* \"#utility.yul\":6498:6504   */\n  dup5\n    /* \"#utility.yul\":6493:6496   */\n  dup5\n    /* \"#utility.yul\":6489:6505   */\n  add\n    /* \"#utility.yul\":6482:6509   */\n  mstore\n    /* \"#utility.yul\":6418:6420   */\ntag_133:\n    /* \"#utility.yul\":6267:6525   */\n  pop\n  pop\n  pop\n  pop\n  jump\t// out\n    /* \"#utility.yul\":6531:6851   */\ntag_36:\n  0x00\n    /* \"#utility.yul\":6612:6613   */\n  0x02\n    /* \"#utility.yul\":6606:6610   */\n  dup3\n    /* \"#utility.yul\":6602:6614   */\n  div\n    /* \"#utility.yul\":6592:6614   */\n  swap1\n  pop\n    /* \"#utility.yul\":6659:6660   */\n  0x01\n    /* \"#utility.yul\":6653:6657   */\n  dup3\n    /* \"#utility.yul\":6649:6661   */\n  and\n    /* \"#utility.yul\":6680:6698   */\n  dup1\n    /* \"#utility.yul\":6670:6672   */\n  tag_135\n  jumpi\n    /* \"#utility.yul\":6736:6740   */\n  0x7f\n    /* \"#utility.yul\":6728:6734   */\n  dup3\n    /* \"#utility.yul\":6724:6741   */\n  and\n    /* \"#utility.yul\":6714:6741   */\n  swap2\n  pop\n    /* \"#utility.yul\":6670:6672   */\ntag_135:\n    /* \"#utility.yul\":6798:6800   */\n  0x20\n    /* \"#utility.yul\":6790:6796   */\n  dup3\n    /* \"#utility.yul\":6787:6801   */\n  lt\n    /* \"#utility.yul\":6767:6785   */\n  dup2\n    /* \"#utility.yul\":6764:6802   */\n  eq\n    /* \"#utility.yul\":6761:6763   */\n  iszero\n  tag_136\n  jumpi\n    /* \"#utility.yul\":6817:6835   */\n  tag_137\n  tag_138\n  jump\t// in\ntag_137:\n    /* \"#utility.yul\":6761:6763   */\ntag_136:\n    /* \"#utility.yul\":6582:6851   */\n  pop\n  swap2\n  swap1\n  pop\n  jump\t// out\n    /* \"#utility.yul\":6857:7037   */\ntag_91:\n    /* \"#utility.yul\":6905:6982   */\n  0x4e487b7100000000000000000000000000000000000000000000000000000000\n    /* \"#utility.yul\":6902:6903   */\n  0x00\n    /* \"#utility.yul\":6895:6983   */\n  mstore\n    /* \"#utility.yul\":7002:7006   */\n  0x11\n    /* \"#utility.yul\":6999:7000   */\n  0x04\n    /* \"#utility.yul\":6992:7007   */\n  mstore\n    /* \"#utility.yul\":7026:7030   */\n  0x24\n    /* \"#utility.yul\":7023:7024   */\n  0x00\n    /* \"#utility.yul\":7016:7031   */\n  revert\n    /* \"#utility.yul\":7043:7223   */\ntag_138:\n    /* \"#utility.yul\":7091:7168   */\n  0x4e487b7100000000000000000000000000000000000000000000000000000000\n    /* \"#utility.yul\":7088:7089   */\n  0x00\n    /* \"#utility.yul\":7081:7169   */\n  mstore\n    /* \"#utility.yul\":7188:7192   */\n  0x22\n    /* \"#utility.yul\":7185:7186   */\n  0x04\n    /* \"#utility.yul\":7178:7193   */\n  mstore\n    /* \"#utility.yul\":7212:7216   */\n  0x24\n    /* \"#utility.yul\":7209:7210   */\n  0x00\n    /* \"#utility.yul\":7202:7217   */\n  revert\n    /* \"#utility.yul\":7229:7409   */\ntag_81:\n    /* \"#utility.yul\":7277:7354   */\n  0x4e487b7100000000000000000000000000000000000000000000000000000000\n    /* \"#utility.yul\":7274:7275   */\n  0x00\n    /* \"#utility.yul\":7267:7355   */\n  mstore\n    /* \"#utility.yul\":7374:7378   */\n  0x41\n    /* \"#utility.yul\":7371:7372   */\n  0x04\n    /* \"#utility.yul\":7364:7379   */\n  mstore\n    /* \"#utility.yul\":7398:7402   */\n  0x24\n    /* \"#utility.yul\":7395:7396   */\n  0x00\n    /* \"#utility.yul\":7388:7403   */\n  revert\n    /* \"#utility.yul\":7415:7517   */\ntag_101:\n  0x00\n    /* \"#utility.yul\":7504:7509   */\n  dup2\n    /* \"#utility.yul\":7501:7502   */\n  0x01\n    /* \"#utility.yul\":7497:7510   */\n  shr\n    /* \"#utility.yul\":7476:7510   */\n  swap1\n  pop\n    /* \"#utility.yul\":7466:7517   */\n  swap2\n  swap1\n  pop\n  jump\t// out\n    /* \"mycoin/Mytoken.sol\":240:407  contract MyToken is ERC20{... */\ntag_19:\n  dataSize(sub_0)\n  dup1\n  dataOffset(sub_0)\n  0x00\n  codecopy\n  0x00\n  return\nstop\n\nsub_0: assembly {\n        /* \"mycoin/Mytoken.sol\":240:407  contract MyToken is ERC20{... */\n      mstore(0x40, 0x80)\n      callvalue\n      dup1\n      iszero\n      tag_1\n      jumpi\n      0x00\n      dup1\n      revert\n    tag_1:\n      pop\n      jumpi(tag_2, lt(calldatasize, 0x04))\n      shr(0xe0, calldataload(0x00))\n      dup1\n      0x39509351\n      gt\n      tag_14\n      jumpi\n      dup1\n      0x39509351\n      eq\n      tag_8\n      jumpi\n      dup1\n      0x70a08231\n      eq\n      tag_9\n      jumpi\n      dup1\n      0x95d89b41\n      eq\n      tag_10\n      jumpi\n      dup1\n      0xa457c2d7\n      eq\n      tag_11\n      jumpi\n      dup1\n      0xa9059cbb\n      eq\n      tag_12\n      jumpi\n      dup1\n      0xdd62ed3e\n      eq\n      tag_13\n      jumpi\n      jump(tag_2)\n    tag_14:\n      dup1\n      0x06fdde03\n      eq\n      tag_3\n      jumpi\n      dup1\n      0x095ea7b3\n      eq\n      tag_4\n      jumpi\n      dup1\n      0x18160ddd\n      eq\n      tag_5\n      jumpi\n      dup1\n      0x23b872dd\n      eq\n      tag_6\n      jumpi\n      dup1\n      0x313ce567\n      eq\n      tag_7\n      jumpi\n    tag_2:\n      0x00\n      dup1\n      revert\n        /* \"https://github.com/OpenZeppelin/openzeppelin-contracts/blob/master/contracts/token/ERC20/ERC20.sol\":2154:2252  function name() public view virtual override returns (string memory) {... */\n    tag_3:\n      tag_15\n      tag_16\n      jump\t// in\n    tag_15:\n      mload(0x40)\n      tag_17\n      swap2\n      swap1\n      tag_18\n      jump\t// in\n    tag_17:\n      mload(0x40)\n      dup1\n      swap2\n      sub\n      swap1\n      return\n        /* \"https://github.com/OpenZeppelin/openzeppelin-contracts/blob/master/contracts/token/ERC20/ERC20.sol\":4431:4628  function approve(address spender, uint256 amount) public virtual override returns (bool) {... */\n    tag_4:\n      tag_19\n      0x04\n      dup1\n      calldatasize\n      sub\n      dup2\n      add\n      swap1\n      tag_20\n      swap2\n      swap1\n      tag_21\n      jump\t// in\n    tag_20:\n      tag_22\n      jump\t// in\n    tag_19:\n      mload(0x40)\n      tag_23\n      swap2\n      swap1\n      tag_24\n      jump\t// in\n    tag_23:\n      mload(0x40)\n      dup1\n      swap2\n      sub\n      swap1\n      return\n        /* \"https://github.com/OpenZeppelin/openzeppelin-contracts/blob/master/contracts/token/ERC20/ERC20.sol\":3242:3348  function totalSupply() public view virtual override returns (uint256) {... */\n    tag_5:\n      tag_25\n      tag_26\n      jump\t// in\n    tag_25:\n      mload(0x40)\n      tag_27\n      swap2\n      swap1\n      tag_28\n      jump\t// in\n    tag_27:\n      mload(0x40)\n      dup1\n      swap2\n      sub\n      swap1\n      return\n        /* \"https://github.com/OpenZeppelin/openzeppelin-contracts/blob/master/contracts/token/ERC20/ERC20.sol\":5190:5476  function transferFrom(... */\n    tag_6:\n      tag_29\n      0x04\n      dup1\n      calldatasize\n      sub\n      dup2\n      add\n      swap1\n      tag_30\n      swap2\n      swap1\n      tag_31\n      jump\t// in\n    tag_30:\n      tag_32\n      jump\t// in\n    tag_29:\n      mload(0x40)\n      tag_33\n      swap2\n      swap1\n      tag_24\n      jump\t// in\n    tag_33:\n      mload(0x40)\n      dup1\n      swap2\n      sub\n      swap1\n      return\n        /* \"https://github.com/OpenZeppelin/openzeppelin-contracts/blob/master/contracts/token/ERC20/ERC20.sol\":3091:3182  function decimals() public view virtual override returns (uint8) {... */\n    tag_7:\n      tag_34\n      tag_35\n      jump\t// in\n    tag_34:\n      mload(0x40)\n      tag_36\n      swap2\n      swap1\n      tag_37\n      jump\t// in\n    tag_36:\n      mload(0x40)\n      dup1\n      swap2\n      sub\n      swap1\n      return\n        /* \"https://github.com/OpenZeppelin/openzeppelin-contracts/blob/master/contracts/token/ERC20/ERC20.sol\":5871:6105  function increaseAllowance(address spender, uint256 addedValue) public virtual returns (bool) {... */\n    tag_8:\n      tag_38\n      0x04\n      dup1\n      calldatasize\n      sub\n      dup2\n      add\n      swap1\n      tag_39\n      swap2\n      swap1\n      tag_21\n      jump\t// in\n    tag_39:\n      tag_40\n      jump\t// in\n    tag_38:\n      mload(0x40)\n      tag_41\n      swap2\n      swap1\n      tag_24\n      jump\t// in\n    tag_41:\n      mload(0x40)\n      dup1\n      swap2\n      sub\n      swap1\n      return\n        /* \"https://github.com/OpenZeppelin/openzeppelin-contracts/blob/master/contracts/token/ERC20/ERC20.sol\":3406:3531  function balanceOf(address account) public view virtual override returns (uint256) {... */\n    tag_9:\n      tag_42\n      0x04\n      dup1\n      calldatasize\n      sub\n      dup2\n      add\n      swap1\n      tag_43\n      swap2\n      swap1\n      tag_44\n      jump\t// in\n    tag_43:\n      tag_45\n      jump\t// in\n    tag_42:\n      mload(0x40)\n      tag_46\n      swap2\n      swap1\n      tag_28\n      jump\t// in\n    tag_46:\n      mload(0x40)\n      dup1\n      swap2\n      sub\n      swap1\n      return\n        /* \"https://github.com/OpenZeppelin/openzeppelin-contracts/blob/master/contracts/token/ERC20/ERC20.sol\":2365:2467  function symbol() public view virtual override returns (string memory) {... */\n    tag_10:\n      tag_47\n      tag_48\n      jump\t// in\n    tag_47:\n      mload(0x40)\n      tag_49\n      swap2\n      swap1\n      tag_18\n      jump\t// in\n    tag_49:\n      mload(0x40)\n      dup1\n      swap2\n      sub\n      swap1\n      return\n        /* \"https://github.com/OpenZeppelin/openzeppelin-contracts/blob/master/contracts/token/ERC20/ERC20.sol\":6592:7019  function decreaseAllowance(address spender, uint256 subtractedValue) public virtual returns (bool) {... */\n    tag_11:\n      tag_50\n      0x04\n      dup1\n      calldatasize\n      sub\n      dup2\n      add\n      swap1\n      tag_51\n      swap2\n      swap1\n      tag_21\n      jump\t// in\n    tag_51:\n      tag_52\n      jump\t// in\n    tag_50:\n      mload(0x40)\n      tag_53\n      swap2\n      swap1\n      tag_24\n      jump\t// in\n    tag_53:\n      mload(0x40)\n      dup1\n      swap2\n      sub\n      swap1\n      return\n        /* \"https://github.com/OpenZeppelin/openzeppelin-contracts/blob/master/contracts/token/ERC20/ERC20.sol\":3727:3916  function transfer(address to, uint256 amount) public virtual override returns (bool) {... */\n    tag_12:\n      tag_54\n      0x04\n      dup1\n      calldatasize\n      sub\n      dup2\n      add\n      swap1\n      tag_55\n      swap2\n      swap1\n      tag_21\n      jump\t// in\n    tag_55:\n      tag_56\n      jump\t// in\n    tag_54:\n      mload(0x40)\n      tag_57\n      swap2\n      swap1\n      tag_24\n      jump\t// in\n    tag_57:\n      mload(0x40)\n      dup1\n      swap2\n      sub\n      swap1\n      return\n        /* \"https://github.com/OpenZeppelin/openzeppelin-contracts/blob/master/contracts/token/ERC20/ERC20.sol\":3974:4123  function allowance(address owner, address spender) public view virtual override returns (uint256) {... */\n    tag_13:\n      tag_58\n      0x04\n      dup1\n      calldatasize\n      sub\n      dup2\n      add\n      swap1\n      tag_59\n      swap2\n      swap1\n      tag_60\n      jump\t// in\n    tag_59:\n      tag_61\n      jump\t// in\n    tag_58:\n      mload(0x40)\n      tag_62\n      swap2\n      swap1\n      tag_28\n      jump\t// in\n    tag_62:\n      mload(0x40)\n      dup1\n      swap2\n      sub\n      swap1\n      return\n        /* \"https://github.com/OpenZeppelin/openzeppelin-contracts/blob/master/contracts/token/ERC20/ERC20.sol\":2154:2252  function name() public view virtual override returns (string memory) {... */\n    tag_16:\n        /* \"https://github.com/OpenZeppelin/openzeppelin-contracts/blob/master/contracts/token/ERC20/ERC20.sol\":2208:2221  string memory */\n      0x60\n        /* \"https://github.com/OpenZeppelin/openzeppelin-contracts/blob/master/contracts/token/ERC20/ERC20.sol\":2240:2245  _name */\n      0x03\n        /* \"https://github.com/OpenZeppelin/openzeppelin-contracts/blob/master/contracts/token/ERC20/ERC20.sol\":2233:2245  return _name */\n      dup1\n      sload\n      tag_64\n      swap1\n      tag_65\n      jump\t// in\n    tag_64:\n      dup1\n      0x1f\n      add\n      0x20\n      dup1\n      swap2\n      div\n      mul\n      0x20\n      add\n      mload(0x40)\n      swap1\n      dup2\n      add\n      0x40\n      mstore\n      dup1\n      swap3\n      swap2\n      swap1\n      dup2\n      dup2\n      mstore\n      0x20\n      add\n      dup3\n      dup1\n      sload\n      tag_66\n      swap1\n      tag_65\n      jump\t// in\n    tag_66:\n      dup1\n      iszero\n      tag_67\n      jumpi\n      dup1\n      0x1f\n      lt\n      tag_68\n      jumpi\n      0x0100\n      dup1\n      dup4\n      sload\n      div\n      mul\n      dup4\n      mstore\n      swap2\n      0x20\n      add\n      swap2\n      jump(tag_67)\n    tag_68:\n      dup3\n      add\n      swap2\n      swap1\n      0x00\n      mstore\n      keccak256(0x00, 0x20)\n      swap1\n    tag_69:\n      dup2\n      sload\n      dup2\n      mstore\n      swap1\n      0x01\n      add\n      swap1\n      0x20\n      add\n      dup1\n      dup4\n      gt\n      tag_69\n      jumpi\n      dup3\n      swap1\n      sub\n      0x1f\n      and\n      dup3\n      add\n      swap2\n    tag_67:\n      pop\n      pop\n      pop\n      pop\n      pop\n      swap1\n      pop\n        /* \"https://github.com/OpenZeppelin/openzeppelin-contracts/blob/master/contracts/token/ERC20/ERC20.sol\":2154:2252  function name() public view virtual override returns (string memory) {... */\n      swap1\n      jump\t// out\n        /* \"https://github.com/OpenZeppelin/openzeppelin-contracts/blob/master/contracts/token/ERC20/ERC20.sol\":4431:4628  function approve(address spender, uint256 amount) public virtual override returns (bool) {... */\n    tag_22:\n        /* \"https://github.com/OpenZeppelin/openzeppelin-contracts/blob/master/contracts/token/ERC20/ERC20.sol\":4514:4518  bool */\n      0x00\n        /* \"https://github.com/OpenZeppelin/openzeppelin-contracts/blob/master/contracts/token/ERC20/ERC20.sol\":4530:4543  address owner */\n      dup1\n        /* \"https://github.com/OpenZeppelin/openzeppelin-contracts/blob/master/contracts/token/ERC20/ERC20.sol\":4546:4558  _msgSender() */\n      tag_71\n        /* \"https://github.com/OpenZeppelin/openzeppelin-contracts/blob/master/contracts/token/ERC20/ERC20.sol\":4546:4556  _msgSender */\n      tag_72\n        /* \"https://github.com/OpenZeppelin/openzeppelin-contracts/blob/master/contracts/token/ERC20/ERC20.sol\":4546:4558  _msgSender() */\n      jump\t// in\n    tag_71:\n        /* \"https://github.com/OpenZeppelin/openzeppelin-contracts/blob/master/contracts/token/ERC20/ERC20.sol\":4530:4558  address owner = _msgSender() */\n      swap1\n      pop\n        /* \"https://github.com/OpenZeppelin/openzeppelin-contracts/blob/master/contracts/token/ERC20/ERC20.sol\":4568:4600  _approve(owner, spender, amount) */\n      tag_73\n        /* \"https://github.com/OpenZeppelin/openzeppelin-contracts/blob/master/contracts/token/ERC20/ERC20.sol\":4577:4582  owner */\n      dup2\n        /* \"https://github.com/OpenZeppelin/openzeppelin-contracts/blob/master/contracts/token/ERC20/ERC20.sol\":4584:4591  spender */\n      dup6\n        /* \"https://github.com/OpenZeppelin/openzeppelin-contracts/blob/master/contracts/token/ERC20/ERC20.sol\":4593:4599  amount */\n      dup6\n        /* \"https://github.com/OpenZeppelin/openzeppelin-contracts/blob/master/contracts/token/ERC20/ERC20.sol\":4568:4576  _approve */\n      tag_74\n        /* \"https://github.com/OpenZeppelin/openzeppelin-contracts/blob/master/contracts/token/ERC20/ERC20.sol\":4568:4600  _approve(owner, spender, amount) */\n      jump\t// in\n    tag_73:\n        /* \"https://github.com/OpenZeppelin/openzeppelin-contracts/blob/master/contracts/token/ERC20/ERC20.sol\":4617:4621  true */\n      0x01\n        /* \"https://github.com/OpenZeppelin/openzeppelin-contracts/blob/master/contracts/token/ERC20/ERC20.sol\":4610:4621  return true */\n      swap2\n      pop\n      pop\n        /* \"https://github.com/OpenZeppelin/openzeppelin-contracts/blob/master/contracts/token/ERC20/ERC20.sol\":4431:4628  function approve(address spender, uint256 amount) public virtual override returns (bool) {... */\n      swap3\n      swap2\n      pop\n      pop\n      jump\t// out\n        /* \"https://github.com/OpenZeppelin/openzeppelin-contracts/blob/master/contracts/token/ERC20/ERC20.sol\":3242:3348  function totalSupply() public view virtual override returns (uint256) {... */\n    tag_26:\n        /* \"https://github.com/OpenZeppelin/openzeppelin-contracts/blob/master/contracts/token/ERC20/ERC20.sol\":3303:3310  uint256 */\n      0x00\n        /* \"https://github.com/OpenZeppelin/openzeppelin-contracts/blob/master/contracts/token/ERC20/ERC20.sol\":3329:3341  _totalSupply */\n      sload(0x02)\n        /* \"https://github.com/OpenZeppelin/openzeppelin-contracts/blob/master/contracts/token/ERC20/ERC20.sol\":3322:3341  return _totalSupply */\n      swap1\n      pop\n        /* \"https://github.com/OpenZeppelin/openzeppelin-contracts/blob/master/contracts/token/ERC20/ERC20.sol\":3242:3348  function totalSupply() public view virtual override returns (uint256) {... */\n      swap1\n      jump\t// out\n        /* \"https://github.com/OpenZeppelin/openzeppelin-contracts/blob/master/contracts/token/ERC20/ERC20.sol\":5190:5476  function transferFrom(... */\n    tag_32:\n        /* \"https://github.com/OpenZeppelin/openzeppelin-contracts/blob/master/contracts/token/ERC20/ERC20.sol\":5317:5321  bool */\n      0x00\n        /* \"https://github.com/OpenZeppelin/openzeppelin-contracts/blob/master/contracts/token/ERC20/ERC20.sol\":5333:5348  address spender */\n      dup1\n        /* \"https://github.com/OpenZeppelin/openzeppelin-contracts/blob/master/contracts/token/ERC20/ERC20.sol\":5351:5363  _msgSender() */\n      tag_77\n        /* \"https://github.com/OpenZeppelin/openzeppelin-contracts/blob/master/contracts/token/ERC20/ERC20.sol\":5351:5361  _msgSender */\n      tag_72\n        /* \"https://github.com/OpenZeppelin/openzeppelin-contracts/blob/master/contracts/token/ERC20/ERC20.sol\":5351:5363  _msgSender() */\n      jump\t// in\n    tag_77:\n        /* \"https://github.com/OpenZeppelin/openzeppelin-contracts/blob/master/contracts/token/ERC20/ERC20.sol\":5333:5363  address spender = _msgSender() */\n      swap1\n      pop\n        /* \"https://github.com/OpenZeppelin/openzeppelin-contracts/blob/master/contracts/token/ERC20/ERC20.sol\":5373:5411  _spendAllowance(from, spender, amount) */\n      tag_78\n        /* \"https://github.com/OpenZeppelin/openzeppelin-contracts/blob/master/contracts/token/ERC20/ERC20.sol\":5389:5393  from */\n      dup6\n        /* \"https://github.com/OpenZeppelin/openzeppelin-contracts/blob/master/contracts/token/ERC20/ERC20.sol\":5395:5402  spender */\n      dup3\n        /* \"https://github.com/OpenZeppelin/openzeppelin-contracts/blob/master/contracts/token/ERC20/ERC20.sol\":5404:5410  amount */\n      dup6\n        /* \"https://github.com/OpenZeppelin/openzeppelin-contracts/blob/master/contracts/token/ERC20/ERC20.sol\":5373:5388  _spendAllowance */\n      tag_79\n        /* \"https://github.com/OpenZeppelin/openzeppelin-contracts/blob/master/contracts/token/ERC20/ERC20.sol\":5373:5411  _spendAllowance(from, spender, amount) */\n      jump\t// in\n    tag_78:\n        /* \"https://github.com/OpenZeppelin/openzeppelin-contracts/blob/master/contracts/token/ERC20/ERC20.sol\":5421:5448  _transfer(from, to, amount) */\n      tag_80\n        /* \"https://github.com/OpenZeppelin/openzeppelin-contracts/blob/master/contracts/token/ERC20/ERC20.sol\":5431:5435  from */\n      dup6\n        /* \"https://github.com/OpenZeppelin/openzeppelin-contracts/blob/master/contracts/token/ERC20/ERC20.sol\":5437:5439  to */\n      dup6\n        /* \"https://github.com/OpenZeppelin/openzeppelin-contracts/blob/master/contracts/token/ERC20/ERC20.sol\":5441:5447  amount */\n      dup6\n        /* \"https://github.com/OpenZeppelin/openzeppelin-contracts/blob/master/contracts/token/ERC20/ERC20.sol\":5421:5430  _transfer */\n      tag_81\n        /* \"https://github.com/OpenZeppelin/openzeppelin-contracts/blob/master/contracts/token/ERC20/ERC20.sol\":5421:5448  _transfer(from, to, amount) */\n      jump\t// in\n    tag_80:\n        /* \"https://github.com/OpenZeppelin/openzeppelin-contracts/blob/master/contracts/token/ERC20/ERC20.sol\":5465:5469  true */\n      0x01\n        /* \"https://github.com/OpenZeppelin/openzeppelin-contracts/blob/master/contracts/token/ERC20/ERC20.sol\":5458:5469  return true */\n      swap2\n      pop\n      pop\n        /* \"https://github.com/OpenZeppelin/openzeppelin-contracts/blob/master/contracts/token/ERC20/ERC20.sol\":5190:5476  function transferFrom(... */\n      swap4\n      swap3\n      pop\n      pop\n      pop\n      jump\t// out\n        /* \"https://github.com/OpenZeppelin/openzeppelin-contracts/blob/master/contracts/token/ERC20/ERC20.sol\":3091:3182  function decimals() public view virtual override returns (uint8) {... */\n    tag_35:\n        /* \"https://github.com/OpenZeppelin/openzeppelin-contracts/blob/master/contracts/token/ERC20/ERC20.sol\":3149:3154  uint8 */\n      0x00\n        /* \"https://github.com/OpenZeppelin/openzeppelin-contracts/blob/master/contracts/token/ERC20/ERC20.sol\":3173:3175  18 */\n      0x12\n        /* \"https://github.com/OpenZeppelin/openzeppelin-contracts/blob/master/contracts/token/ERC20/ERC20.sol\":3166:3175  return 18 */\n      swap1\n      pop\n        /* \"https://github.com/OpenZeppelin/openzeppelin-contracts/blob/master/contracts/token/ERC20/ERC20.sol\":3091:3182  function decimals() public view virtual override returns (uint8) {... */\n      swap1\n      jump\t// out\n        /* \"https://github.com/OpenZeppelin/openzeppelin-contracts/blob/master/contracts/token/ERC20/ERC20.sol\":5871:6105  function increaseAllowance(address spender, uint256 addedValue) public virtual returns (bool) {... */\n    tag_40:\n        /* \"https://github.com/OpenZeppelin/openzeppelin-contracts/blob/master/contracts/token/ERC20/ERC20.sol\":5959:5963  bool */\n      0x00\n        /* \"https://github.com/OpenZeppelin/openzeppelin-contracts/blob/master/contracts/token/ERC20/ERC20.sol\":5975:5988  address owner */\n      dup1\n        /* \"https://github.com/OpenZeppelin/openzeppelin-contracts/blob/master/contracts/token/ERC20/ERC20.sol\":5991:6003  _msgSender() */\n      tag_84\n        /* \"https://github.com/OpenZeppelin/openzeppelin-contracts/blob/master/contracts/token/ERC20/ERC20.sol\":5991:6001  _msgSender */\n      tag_72\n        /* \"https://github.com/OpenZeppelin/openzeppelin-contracts/blob/master/contracts/token/ERC20/ERC20.sol\":5991:6003  _msgSender() */\n      jump\t// in\n    tag_84:\n        /* \"https://github.com/OpenZeppelin/openzeppelin-contracts/blob/master/contracts/token/ERC20/ERC20.sol\":5975:6003  address owner = _msgSender() */\n      swap1\n      pop\n        /* \"https://github.com/OpenZeppelin/openzeppelin-contracts/blob/master/contracts/token/ERC20/ERC20.sol\":6013:6077  _approve(owner, spender, allowance(owner, spender) + addedValue) */\n      tag_85\n        /* \"https://github.com/OpenZeppelin/openzeppelin-contracts/blob/master/contracts/token/ERC20/ERC20.sol\":6022:6027  owner */\n      dup2\n        /* \"https://github.com/OpenZeppelin/openzeppelin-contracts/blob/master/contracts/token/ERC20/ERC20.sol\":6029:6036  spender */\n      dup6\n        /* \"https://github.com/OpenZeppelin/openzeppelin-contracts/blob/master/contracts/token/ERC20/ERC20.sol\":6066:6076  addedValue */\n      dup6\n        /* \"https://github.com/OpenZeppelin/openzeppelin-contracts/blob/master/contracts/token/ERC20/ERC20.sol\":6038:6063  allowance(owner, spender) */\n      tag_86\n        /* \"https://github.com/OpenZeppelin/openzeppelin-contracts/blob/master/contracts/token/ERC20/ERC20.sol\":6048:6053  owner */\n      dup6\n        /* \"https://github.com/OpenZeppelin/openzeppelin-contracts/blob/master/contracts/token/ERC20/ERC20.sol\":6055:6062  spender */\n      dup10\n        /* \"https://github.com/OpenZeppelin/openzeppelin-contracts/blob/master/contracts/token/ERC20/ERC20.sol\":6038:6047  allowance */\n      tag_61\n        /* \"https://github.com/OpenZeppelin/openzeppelin-contracts/blob/master/contracts/token/ERC20/ERC20.sol\":6038:6063  allowance(owner, spender) */\n      jump\t// in\n    tag_86:\n        /* \"https://github.com/OpenZeppelin/openzeppelin-contracts/blob/master/contracts/token/ERC20/ERC20.sol\":6038:6076  allowance(owner, spender) + addedValue */\n      tag_87\n      swap2\n      swap1\n      tag_88\n      jump\t// in\n    tag_87:\n        /* \"https://github.com/OpenZeppelin/openzeppelin-contracts/blob/master/contracts/token/ERC20/ERC20.sol\":6013:6021  _approve */\n      tag_74\n        /* \"https://github.com/OpenZeppelin/openzeppelin-contracts/blob/master/contracts/token/ERC20/ERC20.sol\":6013:6077  _approve(owner, spender, allowance(owner, spender) + addedValue) */\n      jump\t// in\n    tag_85:\n        /* \"https://github.com/OpenZeppelin/openzeppelin-contracts/blob/master/contracts/token/ERC20/ERC20.sol\":6094:6098  true */\n      0x01\n        /* \"https://github.com/OpenZeppelin/openzeppelin-contracts/blob/master/contracts/token/ERC20/ERC20.sol\":6087:6098  return true */\n      swap2\n      pop\n      pop\n        /* \"https://github.com/OpenZeppelin/openzeppelin-contracts/blob/master/contracts/token/ERC20/ERC20.sol\":5871:6105  function increaseAllowance(address spender, uint256 addedValue) public virtual returns (bool) {... */\n      swap3\n      swap2\n      pop\n      pop\n      jump\t// out\n        /* \"https://github.com/OpenZeppelin/openzeppelin-contracts/blob/master/contracts/token/ERC20/ERC20.sol\":3406:3531  function balanceOf(address account) public view virtual override returns (uint256) {... */\n    tag_45:\n        /* \"https://github.com/OpenZeppelin/openzeppelin-contracts/blob/master/contracts/token/ERC20/ERC20.sol\":3480:3487  uint256 */\n      0x00\n        /* \"https://github.com/OpenZeppelin/openzeppelin-contracts/blob/master/contracts/token/ERC20/ERC20.sol\":3506:3515  _balances */\n      dup1\n        /* \"https://github.com/OpenZeppelin/openzeppelin-contracts/blob/master/contracts/token/ERC20/ERC20.sol\":3506:3524  _balances[account] */\n      0x00\n        /* \"https://github.com/OpenZeppelin/openzeppelin-contracts/blob/master/contracts/token/ERC20/ERC20.sol\":3516:3523  account */\n      dup4\n        /* \"https://github.com/OpenZeppelin/openzeppelin-contracts/blob/master/contracts/token/ERC20/ERC20.sol\":3506:3524  _balances[account] */\n      0xffffffffffffffffffffffffffffffffffffffff\n      and\n      0xffffffffffffffffffffffffffffffffffffffff\n      and\n      dup2\n      mstore\n      0x20\n      add\n      swap1\n      dup2\n      mstore\n      0x20\n      add\n      0x00\n      keccak256\n      sload\n        /* \"https://github.com/OpenZeppelin/openzeppelin-contracts/blob/master/contracts/token/ERC20/ERC20.sol\":3499:3524  return _balances[account] */\n      swap1\n      pop\n        /* \"https://github.com/OpenZeppelin/openzeppelin-contracts/blob/master/contracts/token/ERC20/ERC20.sol\":3406:3531  function balanceOf(address account) public view virtual override returns (uint256) {... */\n      swap2\n      swap1\n      pop\n      jump\t// out\n        /* \"https://github.com/OpenZeppelin/openzeppelin-contracts/blob/master/contracts/token/ERC20/ERC20.sol\":2365:2467  function symbol() public view virtual override returns (string memory) {... */\n    tag_48:\n        /* \"https://github.com/OpenZeppelin/openzeppelin-contracts/blob/master/contracts/token/ERC20/ERC20.sol\":2421:2434  string memory */\n      0x60\n        /* \"https://github.com/OpenZeppelin/openzeppelin-contracts/blob/master/contracts/token/ERC20/ERC20.sol\":2453:2460  _symbol */\n      0x04\n        /* \"https://github.com/OpenZeppelin/openzeppelin-contracts/blob/master/contracts/token/ERC20/ERC20.sol\":2446:2460  return _symbol */\n      dup1\n      sload\n      tag_91\n      swap1\n      tag_65\n      jump\t// in\n    tag_91:\n      dup1\n      0x1f\n      add\n      0x20\n      dup1\n      swap2\n      div\n      mul\n      0x20\n      add\n      mload(0x40)\n      swap1\n      dup2\n      add\n      0x40\n      mstore\n      dup1\n      swap3\n      swap2\n      swap1\n      dup2\n      dup2\n      mstore\n      0x20\n      add\n      dup3\n      dup1\n      sload\n      tag_92\n      swap1\n      tag_65\n      jump\t// in\n    tag_92:\n      dup1\n      iszero\n      tag_93\n      jumpi\n      dup1\n      0x1f\n      lt\n      tag_94\n      jumpi\n      0x0100\n      dup1\n      dup4\n      sload\n      div\n      mul\n      dup4\n      mstore\n      swap2\n      0x20\n      add\n      swap2\n      jump(tag_93)\n    tag_94:\n      dup3\n      add\n      swap2\n      swap1\n      0x00\n      mstore\n      keccak256(0x00, 0x20)\n      swap1\n    tag_95:\n      dup2\n      sload\n      dup2\n      mstore\n      swap1\n      0x01\n      add\n      swap1\n      0x20\n      add\n      dup1\n      dup4\n      gt\n      tag_95\n      jumpi\n      dup3\n      swap1\n      sub\n      0x1f\n      and\n      dup3\n      add\n      swap2\n    tag_93:\n      pop\n      pop\n      pop\n      pop\n      pop\n      swap1\n      pop\n        /* \"https://github.com/OpenZeppelin/openzeppelin-contracts/blob/master/contracts/token/ERC20/ERC20.sol\":2365:2467  function symbol() public view virtual override returns (string memory) {... */\n      swap1\n      jump\t// out\n        /* \"https://github.com/OpenZeppelin/openzeppelin-contracts/blob/master/contracts/token/ERC20/ERC20.sol\":6592:7019  function decreaseAllowance(address spender, uint256 subtractedValue) public virtual returns (bool) {... */\n    tag_52:\n        /* \"https://github.com/OpenZeppelin/openzeppelin-contracts/blob/master/contracts/token/ERC20/ERC20.sol\":6685:6689  bool */\n      0x00\n        /* \"https://github.com/OpenZeppelin/openzeppelin-contracts/blob/master/contracts/token/ERC20/ERC20.sol\":6701:6714  address owner */\n      dup1\n        /* \"https://github.com/OpenZeppelin/openzeppelin-contracts/blob/master/contracts/token/ERC20/ERC20.sol\":6717:6729  _msgSender() */\n      tag_97\n        /* \"https://github.com/OpenZeppelin/openzeppelin-contracts/blob/master/contracts/token/ERC20/ERC20.sol\":6717:6727  _msgSender */\n      tag_72\n        /* \"https://github.com/OpenZeppelin/openzeppelin-contracts/blob/master/contracts/token/ERC20/ERC20.sol\":6717:6729  _msgSender() */\n      jump\t// in\n    tag_97:\n        /* \"https://github.com/OpenZeppelin/openzeppelin-contracts/blob/master/contracts/token/ERC20/ERC20.sol\":6701:6729  address owner = _msgSender() */\n      swap1\n      pop\n        /* \"https://github.com/OpenZeppelin/openzeppelin-contracts/blob/master/contracts/token/ERC20/ERC20.sol\":6739:6763  uint256 currentAllowance */\n      0x00\n        /* \"https://github.com/OpenZeppelin/openzeppelin-contracts/blob/master/contracts/token/ERC20/ERC20.sol\":6766:6791  allowance(owner, spender) */\n      tag_98\n        /* \"https://github.com/OpenZeppelin/openzeppelin-contracts/blob/master/contracts/token/ERC20/ERC20.sol\":6776:6781  owner */\n      dup3\n        /* \"https://github.com/OpenZeppelin/openzeppelin-contracts/blob/master/contracts/token/ERC20/ERC20.sol\":6783:6790  spender */\n      dup7\n        /* \"https://github.com/OpenZeppelin/openzeppelin-contracts/blob/master/contracts/token/ERC20/ERC20.sol\":6766:6775  allowance */\n      tag_61\n        /* \"https://github.com/OpenZeppelin/openzeppelin-contracts/blob/master/contracts/token/ERC20/ERC20.sol\":6766:6791  allowance(owner, spender) */\n      jump\t// in\n    tag_98:\n        /* \"https://github.com/OpenZeppelin/openzeppelin-contracts/blob/master/contracts/token/ERC20/ERC20.sol\":6739:6791  uint256 currentAllowance = allowance(owner, spender) */\n      swap1\n      pop\n        /* \"https://github.com/OpenZeppelin/openzeppelin-contracts/blob/master/contracts/token/ERC20/ERC20.sol\":6829:6844  subtractedValue */\n      dup4\n        /* \"https://github.com/OpenZeppelin/openzeppelin-contracts/blob/master/contracts/token/ERC20/ERC20.sol\":6809:6825  currentAllowance */\n      dup2\n        /* \"https://github.com/OpenZeppelin/openzeppelin-contracts/blob/master/contracts/token/ERC20/ERC20.sol\":6809:6844  currentAllowance >= subtractedValue */\n      lt\n      iszero\n        /* \"https://github.com/OpenZeppelin/openzeppelin-contracts/blob/master/contracts/token/ERC20/ERC20.sol\":6801:6886  require(currentAllowance >= subtractedValue, \"ERC20: decreased allowance below zero\") */\n      tag_99\n      jumpi\n      mload(0x40)\n      0x08c379a000000000000000000000000000000000000000000000000000000000\n      dup2\n      mstore\n      0x04\n      add\n      tag_100\n      swap1\n      tag_101\n      jump\t// in\n    tag_100:\n      mload(0x40)\n      dup1\n      swap2\n      sub\n      swap1\n      revert\n    tag_99:\n        /* \"https://github.com/OpenZeppelin/openzeppelin-contracts/blob/master/contracts/token/ERC20/ERC20.sol\":6920:6980  _approve(owner, spender, currentAllowance - subtractedValue) */\n      tag_102\n        /* \"https://github.com/OpenZeppelin/openzeppelin-contracts/blob/master/contracts/token/ERC20/ERC20.sol\":6929:6934  owner */\n      dup3\n        /* \"https://github.com/OpenZeppelin/openzeppelin-contracts/blob/master/contracts/token/ERC20/ERC20.sol\":6936:6943  spender */\n      dup7\n        /* \"https://github.com/OpenZeppelin/openzeppelin-contracts/blob/master/contracts/token/ERC20/ERC20.sol\":6964:6979  subtractedValue */\n      dup7\n        /* \"https://github.com/OpenZeppelin/openzeppelin-contracts/blob/master/contracts/token/ERC20/ERC20.sol\":6945:6961  currentAllowance */\n      dup5\n        /* \"https://github.com/OpenZeppelin/openzeppelin-contracts/blob/master/contracts/token/ERC20/ERC20.sol\":6945:6979  currentAllowance - subtractedValue */\n      sub\n        /* \"https://github.com/OpenZeppelin/openzeppelin-contracts/blob/master/contracts/token/ERC20/ERC20.sol\":6920:6928  _approve */\n      tag_74\n        /* \"https://github.com/OpenZeppelin/openzeppelin-contracts/blob/master/contracts/token/ERC20/ERC20.sol\":6920:6980  _approve(owner, spender, currentAllowance - subtractedValue) */\n      jump\t// in\n    tag_102:\n        /* \"https://github.com/OpenZeppelin/openzeppelin-contracts/blob/master/contracts/token/ERC20/ERC20.sol\":7008:7012  true */\n      0x01\n        /* \"https://github.com/OpenZeppelin/openzeppelin-contracts/blob/master/contracts/token/ERC20/ERC20.sol\":7001:7012  return true */\n      swap3\n      pop\n      pop\n      pop\n        /* \"https://github.com/OpenZeppelin/openzeppelin-contracts/blob/master/contracts/token/ERC20/ERC20.sol\":6592:7019  function decreaseAllowance(address spender, uint256 subtractedValue) public virtual returns (bool) {... */\n      swap3\n      swap2\n      pop\n      pop\n      jump\t// out\n        /* \"https://github.com/OpenZeppelin/openzeppelin-contracts/blob/master/contracts/token/ERC20/ERC20.sol\":3727:3916  function transfer(address to, uint256 amount) public virtual override returns (bool) {... */\n    tag_56:\n        /* \"https://github.com/OpenZeppelin/openzeppelin-contracts/blob/master/contracts/token/ERC20/ERC20.sol\":3806:3810  bool */\n      0x00\n        /* \"https://github.com/OpenZeppelin/openzeppelin-contracts/blob/master/contracts/token/ERC20/ERC20.sol\":3822:3835  address owner */\n      dup1\n        /* \"https://github.com/OpenZeppelin/openzeppelin-contracts/blob/master/contracts/token/ERC20/ERC20.sol\":3838:3850  _msgSender() */\n      tag_104\n        /* \"https://github.com/OpenZeppelin/openzeppelin-contracts/blob/master/contracts/token/ERC20/ERC20.sol\":3838:3848  _msgSender */\n      tag_72\n        /* \"https://github.com/OpenZeppelin/openzeppelin-contracts/blob/master/contracts/token/ERC20/ERC20.sol\":3838:3850  _msgSender() */\n      jump\t// in\n    tag_104:\n        /* \"https://github.com/OpenZeppelin/openzeppelin-contracts/blob/master/contracts/token/ERC20/ERC20.sol\":3822:3850  address owner = _msgSender() */\n      swap1\n      pop\n        /* \"https://github.com/OpenZeppelin/openzeppelin-contracts/blob/master/contracts/token/ERC20/ERC20.sol\":3860:3888  _transfer(owner, to, amount) */\n      tag_105\n        /* \"https://github.com/OpenZeppelin/openzeppelin-contracts/blob/master/contracts/token/ERC20/ERC20.sol\":3870:3875  owner */\n      dup2\n        /* \"https://github.com/OpenZeppelin/openzeppelin-contracts/blob/master/contracts/token/ERC20/ERC20.sol\":3877:3879  to */\n      dup6\n        /* \"https://github.com/OpenZeppelin/openzeppelin-contracts/blob/master/contracts/token/ERC20/ERC20.sol\":3881:3887  amount */\n      dup6\n        /* \"https://github.com/OpenZeppelin/openzeppelin-contracts/blob/master/contracts/token/ERC20/ERC20.sol\":3860:3869  _transfer */\n      tag_81\n        /* \"https://github.com/OpenZeppelin/openzeppelin-contracts/blob/master/contracts/token/ERC20/ERC20.sol\":3860:3888  _transfer(owner, to, amount) */\n      jump\t// in\n    tag_105:\n        /* \"https://github.com/OpenZeppelin/openzeppelin-contracts/blob/master/contracts/token/ERC20/ERC20.sol\":3905:3909  true */\n      0x01\n        /* \"https://github.com/OpenZeppelin/openzeppelin-contracts/blob/master/contracts/token/ERC20/ERC20.sol\":3898:3909  return true */\n      swap2\n      pop\n      pop\n        /* \"https://github.com/OpenZeppelin/openzeppelin-contracts/blob/master/contracts/token/ERC20/ERC20.sol\":3727:3916  function transfer(address to, uint256 amount) public virtual override returns (bool) {... */\n      swap3\n      swap2\n      pop\n      pop\n      jump\t// out\n        /* \"https://github.com/OpenZeppelin/openzeppelin-contracts/blob/master/contracts/token/ERC20/ERC20.sol\":3974:4123  function allowance(address owner, address spender) public view virtual override returns (uint256) {... */\n    tag_61:\n        /* \"https://github.com/OpenZeppelin/openzeppelin-contracts/blob/master/contracts/token/ERC20/ERC20.sol\":4063:4070  uint256 */\n      0x00\n        /* \"https://github.com/OpenZeppelin/openzeppelin-contracts/blob/master/contracts/token/ERC20/ERC20.sol\":4089:4100  _allowances */\n      0x01\n        /* \"https://github.com/OpenZeppelin/openzeppelin-contracts/blob/master/contracts/token/ERC20/ERC20.sol\":4089:4107  _allowances[owner] */\n      0x00\n        /* \"https://github.com/OpenZeppelin/openzeppelin-contracts/blob/master/contracts/token/ERC20/ERC20.sol\":4101:4106  owner */\n      dup5\n        /* \"https://github.com/OpenZeppelin/openzeppelin-contracts/blob/master/contracts/token/ERC20/ERC20.sol\":4089:4107  _allowances[owner] */\n      0xffffffffffffffffffffffffffffffffffffffff\n      and\n      0xffffffffffffffffffffffffffffffffffffffff\n      and\n      dup2\n      mstore\n      0x20\n      add\n      swap1\n      dup2\n      mstore\n      0x20\n      add\n      0x00\n      keccak256\n        /* \"https://github.com/OpenZeppelin/openzeppelin-contracts/blob/master/contracts/token/ERC20/ERC20.sol\":4089:4116  _allowances[owner][spender] */\n      0x00\n        /* \"https://github.com/OpenZeppelin/openzeppelin-contracts/blob/master/contracts/token/ERC20/ERC20.sol\":4108:4115  spender */\n      dup4\n        /* \"https://github.com/OpenZeppelin/openzeppelin-contracts/blob/master/contracts/token/ERC20/ERC20.sol\":4089:4116  _allowances[owner][spender] */\n      0xffffffffffffffffffffffffffffffffffffffff\n      and\n      0xffffffffffffffffffffffffffffffffffffffff\n      and\n      dup2\n      mstore\n      0x20\n      add\n      swap1\n      dup2\n      mstore\n      0x20\n      add\n      0x00\n      keccak256\n      sload\n        /* \"https://github.com/OpenZeppelin/openzeppelin-contracts/blob/master/contracts/token/ERC20/ERC20.sol\":4082:4116  return _allowances[owner][spender] */\n      swap1\n      pop\n        /* \"https://github.com/OpenZeppelin/openzeppelin-contracts/blob/master/contracts/token/ERC20/ERC20.sol\":3974:4123  function allowance(address owner, address spender) public view virtual override returns (uint256) {... */\n      swap3\n      swap2\n      pop\n      pop\n      jump\t// out\n        /* \"https://github.com/OpenZeppelin/openzeppelin-contracts/blob/master/contracts/utils/Context.sol\":640:736  function _msgSender() internal view virtual returns (address) {... */\n    tag_72:\n        /* \"https://github.com/OpenZeppelin/openzeppelin-contracts/blob/master/contracts/utils/Context.sol\":693:700  address */\n      0x00\n        /* \"https://github.com/OpenZeppelin/openzeppelin-contracts/blob/master/contracts/utils/Context.sol\":719:729  msg.sender */\n      caller\n        /* \"https://github.com/OpenZeppelin/openzeppelin-contracts/blob/master/contracts/utils/Context.sol\":712:729  return msg.sender */\n      swap1\n      pop\n        /* \"https://github.com/OpenZeppelin/openzeppelin-contracts/blob/master/contracts/utils/Context.sol\":640:736  function _msgSender() internal view virtual returns (address) {... */\n      swap1\n      jump\t// out\n        /* \"https://github.com/OpenZeppelin/openzeppelin-contracts/blob/master/contracts/token/ERC20/ERC20.sol\":10504:10874  function _approve(... */\n    tag_74:\n        /* \"https://github.com/OpenZeppelin/openzeppelin-contracts/blob/master/contracts/token/ERC20/ERC20.sol\":10652:10653  0 */\n      0x00\n        /* \"https://github.com/OpenZeppelin/openzeppelin-contracts/blob/master/contracts/token/ERC20/ERC20.sol\":10635:10654  owner != address(0) */\n      0xffffffffffffffffffffffffffffffffffffffff\n      and\n        /* \"https://github.com/OpenZeppelin/openzeppelin-contracts/blob/master/contracts/token/ERC20/ERC20.sol\":10635:10640  owner */\n      dup4\n        /* \"https://github.com/OpenZeppelin/openzeppelin-contracts/blob/master/contracts/token/ERC20/ERC20.sol\":10635:10654  owner != address(0) */\n      0xffffffffffffffffffffffffffffffffffffffff\n      and\n      eq\n      iszero\n        /* \"https://github.com/OpenZeppelin/openzeppelin-contracts/blob/master/contracts/token/ERC20/ERC20.sol\":10627:10695  require(owner != address(0), \"ERC20: approve from the zero address\") */\n      tag_109\n      jumpi\n      mload(0x40)\n      0x08c379a000000000000000000000000000000000000000000000000000000000\n      dup2\n      mstore\n      0x04\n      add\n      tag_110\n      swap1\n      tag_111\n      jump\t// in\n    tag_110:\n      mload(0x40)\n      dup1\n      swap2\n      sub\n      swap1\n      revert\n    tag_109:\n        /* \"https://github.com/OpenZeppelin/openzeppelin-contracts/blob/master/contracts/token/ERC20/ERC20.sol\":10732:10733  0 */\n      0x00\n        /* \"https://github.com/OpenZeppelin/openzeppelin-contracts/blob/master/contracts/token/ERC20/ERC20.sol\":10713:10734  spender != address(0) */\n      0xffffffffffffffffffffffffffffffffffffffff\n      and\n        /* \"https://github.com/OpenZeppelin/openzeppelin-contracts/blob/master/contracts/token/ERC20/ERC20.sol\":10713:10720  spender */\n      dup3\n        /* \"https://github.com/OpenZeppelin/openzeppelin-contracts/blob/master/contracts/token/ERC20/ERC20.sol\":10713:10734  spender != address(0) */\n      0xffffffffffffffffffffffffffffffffffffffff\n      and\n      eq\n      iszero\n        /* \"https://github.com/OpenZeppelin/openzeppelin-contracts/blob/master/contracts/token/ERC20/ERC20.sol\":10705:10773  require(spender != address(0), \"ERC20: approve to the zero address\") */\n      tag_112\n      jumpi\n      mload(0x40)\n      0x08c379a000000000000000000000000000000000000000000000000000000000\n      dup2\n      mstore\n      0x04\n      add\n      tag_113\n      swap1\n      tag_114\n      jump\t// in\n    tag_113:\n      mload(0x40)\n      dup1\n      swap2\n      sub\n      swap1\n      revert\n    tag_112:\n        /* \"https://github.com/OpenZeppelin/openzeppelin-contracts/blob/master/contracts/token/ERC20/ERC20.sol\":10814:10820  amount */\n      dup1\n        /* \"https://github.com/OpenZeppelin/openzeppelin-contracts/blob/master/contracts/token/ERC20/ERC20.sol\":10784:10795  _allowances */\n      0x01\n        /* \"https://github.com/OpenZeppelin/openzeppelin-contracts/blob/master/contracts/token/ERC20/ERC20.sol\":10784:10802  _allowances[owner] */\n      0x00\n        /* \"https://github.com/OpenZeppelin/openzeppelin-contracts/blob/master/contracts/token/ERC20/ERC20.sol\":10796:10801  owner */\n      dup6\n        /* \"https://github.com/OpenZeppelin/openzeppelin-contracts/blob/master/contracts/token/ERC20/ERC20.sol\":10784:10802  _allowances[owner] */\n      0xffffffffffffffffffffffffffffffffffffffff\n      and\n      0xffffffffffffffffffffffffffffffffffffffff\n      and\n      dup2\n      mstore\n      0x20\n      add\n      swap1\n      dup2\n      mstore\n      0x20\n      add\n      0x00\n      keccak256\n        /* \"https://github.com/OpenZeppelin/openzeppelin-contracts/blob/master/contracts/token/ERC20/ERC20.sol\":10784:10811  _allowances[owner][spender] */\n      0x00\n        /* \"https://github.com/OpenZeppelin/openzeppelin-contracts/blob/master/contracts/token/ERC20/ERC20.sol\":10803:10810  spender */\n      dup5\n        /* \"https://github.com/OpenZeppelin/openzeppelin-contracts/blob/master/contracts/token/ERC20/ERC20.sol\":10784:10811  _allowances[owner][spender] */\n      0xffffffffffffffffffffffffffffffffffffffff\n      and\n      0xffffffffffffffffffffffffffffffffffffffff\n      and\n      dup2\n      mstore\n      0x20\n      add\n      swap1\n      dup2\n      mstore\n      0x20\n      add\n      0x00\n      keccak256\n        /* \"https://github.com/OpenZeppelin/openzeppelin-contracts/blob/master/contracts/token/ERC20/ERC20.sol\":10784:10820  _allowances[owner][spender] = amount */\n      dup2\n      swap1\n      sstore\n      pop\n        /* \"https://github.com/OpenZeppelin/openzeppelin-contracts/blob/master/contracts/token/ERC20/ERC20.sol\":10851:10858  spender */\n      dup2\n        /* \"https://github.com/OpenZeppelin/openzeppelin-contracts/blob/master/contracts/token/ERC20/ERC20.sol\":10835:10867  Approval(owner, spender, amount) */\n      0xffffffffffffffffffffffffffffffffffffffff\n      and\n        /* \"https://github.com/OpenZeppelin/openzeppelin-contracts/blob/master/contracts/token/ERC20/ERC20.sol\":10844:10849  owner */\n      dup4\n        /* \"https://github.com/OpenZeppelin/openzeppelin-contracts/blob/master/contracts/token/ERC20/ERC20.sol\":10835:10867  Approval(owner, spender, amount) */\n      0xffffffffffffffffffffffffffffffffffffffff\n      and\n      0x8c5be1e5ebec7d5bd14f71427d1e84f3dd0314c0f7b2291e5b200ac8c7c3b925\n        /* \"https://github.com/OpenZeppelin/openzeppelin-contracts/blob/master/contracts/token/ERC20/ERC20.sol\":10860:10866  amount */\n      dup4\n        /* \"https://github.com/OpenZeppelin/openzeppelin-contracts/blob/master/contracts/token/ERC20/ERC20.sol\":10835:10867  Approval(owner, spender, amount) */\n      mload(0x40)\n      tag_115\n      swap2\n      swap1\n      tag_28\n      jump\t// in\n    tag_115:\n      mload(0x40)\n      dup1\n      swap2\n      sub\n      swap1\n      log3\n        /* \"https://github.com/OpenZeppelin/openzeppelin-contracts/blob/master/contracts/token/ERC20/ERC20.sol\":10504:10874  function _approve(... */\n      pop\n      pop\n      pop\n      jump\t// out\n        /* \"https://github.com/OpenZeppelin/openzeppelin-contracts/blob/master/contracts/token/ERC20/ERC20.sol\":11155:11596  function _spendAllowance(... */\n    tag_79:\n        /* \"https://github.com/OpenZeppelin/openzeppelin-contracts/blob/master/contracts/token/ERC20/ERC20.sol\":11285:11309  uint256 currentAllowance */\n      0x00\n        /* \"https://github.com/OpenZeppelin/openzeppelin-contracts/blob/master/contracts/token/ERC20/ERC20.sol\":11312:11337  allowance(owner, spender) */\n      tag_117\n        /* \"https://github.com/OpenZeppelin/openzeppelin-contracts/blob/master/contracts/token/ERC20/ERC20.sol\":11322:11327  owner */\n      dup5\n        /* \"https://github.com/OpenZeppelin/openzeppelin-contracts/blob/master/contracts/token/ERC20/ERC20.sol\":11329:11336  spender */\n      dup5\n        /* \"https://github.com/OpenZeppelin/openzeppelin-contracts/blob/master/contracts/token/ERC20/ERC20.sol\":11312:11321  allowance */\n      tag_61\n        /* \"https://github.com/OpenZeppelin/openzeppelin-contracts/blob/master/contracts/token/ERC20/ERC20.sol\":11312:11337  allowance(owner, spender) */\n      jump\t// in\n    tag_117:\n        /* \"https://github.com/OpenZeppelin/openzeppelin-contracts/blob/master/contracts/token/ERC20/ERC20.sol\":11285:11337  uint256 currentAllowance = allowance(owner, spender) */\n      swap1\n      pop\n        /* \"https://github.com/OpenZeppelin/openzeppelin-contracts/blob/master/contracts/token/ERC20/ERC20.sol\":11371:11388  type(uint256).max */\n      0xffffffffffffffffffffffffffffffffffffffffffffffffffffffffffffffff\n        /* \"https://github.com/OpenZeppelin/openzeppelin-contracts/blob/master/contracts/token/ERC20/ERC20.sol\":11351:11367  currentAllowance */\n      dup2\n        /* \"https://github.com/OpenZeppelin/openzeppelin-contracts/blob/master/contracts/token/ERC20/ERC20.sol\":11351:11388  currentAllowance != type(uint256).max */\n      eq\n        /* \"https://github.com/OpenZeppelin/openzeppelin-contracts/blob/master/contracts/token/ERC20/ERC20.sol\":11347:11590  if (currentAllowance != type(uint256).max) {... */\n      tag_118\n      jumpi\n        /* \"https://github.com/OpenZeppelin/openzeppelin-contracts/blob/master/contracts/token/ERC20/ERC20.sol\":11432:11438  amount */\n      dup2\n        /* \"https://github.com/OpenZeppelin/openzeppelin-contracts/blob/master/contracts/token/ERC20/ERC20.sol\":11412:11428  currentAllowance */\n      dup2\n        /* \"https://github.com/OpenZeppelin/openzeppelin-contracts/blob/master/contracts/token/ERC20/ERC20.sol\":11412:11438  currentAllowance >= amount */\n      lt\n      iszero\n        /* \"https://github.com/OpenZeppelin/openzeppelin-contracts/blob/master/contracts/token/ERC20/ERC20.sol\":11404:11472  require(currentAllowance >= amount, \"ERC20: insufficient allowance\") */\n      tag_119\n      jumpi\n      mload(0x40)\n      0x08c379a000000000000000000000000000000000000000000000000000000000\n      dup2\n      mstore\n      0x04\n      add\n      tag_120\n      swap1\n      tag_121\n      jump\t// in\n    tag_120:\n      mload(0x40)\n      dup1\n      swap2\n      sub\n      swap1\n      revert\n    tag_119:\n        /* \"https://github.com/OpenZeppelin/openzeppelin-contracts/blob/master/contracts/token/ERC20/ERC20.sol\":11514:11565  _approve(owner, spender, currentAllowance - amount) */\n      tag_122\n        /* \"https://github.com/OpenZeppelin/openzeppelin-contracts/blob/master/contracts/token/ERC20/ERC20.sol\":11523:11528  owner */\n      dup5\n        /* \"https://github.com/OpenZeppelin/openzeppelin-contracts/blob/master/contracts/token/ERC20/ERC20.sol\":11530:11537  spender */\n      dup5\n        /* \"https://github.com/OpenZeppelin/openzeppelin-contracts/blob/master/contracts/token/ERC20/ERC20.sol\":11558:11564  amount */\n      dup5\n        /* \"https://github.com/OpenZeppelin/openzeppelin-contracts/blob/master/contracts/token/ERC20/ERC20.sol\":11539:11555  currentAllowance */\n      dup5\n        /* \"https://github.com/OpenZeppelin/openzeppelin-contracts/blob/master/contracts/token/ERC20/ERC20.sol\":11539:11564  currentAllowance - amount */\n      sub\n        /* \"https://github.com/OpenZeppelin/openzeppelin-contracts/blob/master/contracts/token/ERC20/ERC20.sol\":11514:11522  _approve */\n      tag_74\n        /* \"https://github.com/OpenZeppelin/openzeppelin-contracts/blob/master/contracts/token/ERC20/ERC20.sol\":11514:11565  _approve(owner, spender, currentAllowance - amount) */\n      jump\t// in\n    tag_122:\n        /* \"https://github.com/OpenZeppelin/openzeppelin-contracts/blob/master/contracts/token/ERC20/ERC20.sol\":11347:11590  if (currentAllowance != type(uint256).max) {... */\n    tag_118:\n        /* \"https://github.com/OpenZeppelin/openzeppelin-contracts/blob/master/contracts/token/ERC20/ERC20.sol\":11155:11596  function _spendAllowance(... */\n      pop\n      pop\n      pop\n      pop\n      jump\t// out\n        /* \"https://github.com/OpenZeppelin/openzeppelin-contracts/blob/master/contracts/token/ERC20/ERC20.sol\":7473:8291  function _transfer(... */\n    tag_81:\n        /* \"https://github.com/OpenZeppelin/openzeppelin-contracts/blob/master/contracts/token/ERC20/ERC20.sol\":7615:7616  0 */\n      0x00\n        /* \"https://github.com/OpenZeppelin/openzeppelin-contracts/blob/master/contracts/token/ERC20/ERC20.sol\":7599:7617  from != address(0) */\n      0xffffffffffffffffffffffffffffffffffffffff\n      and\n        /* \"https://github.com/OpenZeppelin/openzeppelin-contracts/blob/master/contracts/token/ERC20/ERC20.sol\":7599:7603  from */\n      dup4\n        /* \"https://github.com/OpenZeppelin/openzeppelin-contracts/blob/master/contracts/token/ERC20/ERC20.sol\":7599:7617  from != address(0) */\n      0xffffffffffffffffffffffffffffffffffffffff\n      and\n      eq\n      iszero\n        /* \"https://github.com/OpenZeppelin/openzeppelin-contracts/blob/master/contracts/token/ERC20/ERC20.sol\":7591:7659  require(from != address(0), \"ERC20: transfer from the zero address\") */\n      tag_124\n      jumpi\n      mload(0x40)\n      0x08c379a000000000000000000000000000000000000000000000000000000000\n      dup2\n      mstore\n      0x04\n      add\n      tag_125\n      swap1\n      tag_126\n      jump\t// in\n    tag_125:\n      mload(0x40)\n      dup1\n      swap2\n      sub\n      swap1\n      revert\n    tag_124:\n        /* \"https://github.com/OpenZeppelin/openzeppelin-contracts/blob/master/contracts/token/ERC20/ERC20.sol\":7691:7692  0 */\n      0x00\n        /* \"https://github.com/OpenZeppelin/openzeppelin-contracts/blob/master/contracts/token/ERC20/ERC20.sol\":7677:7693  to != address(0) */\n      0xffffffffffffffffffffffffffffffffffffffff\n      and\n        /* \"https://github.com/OpenZeppelin/openzeppelin-contracts/blob/master/contracts/token/ERC20/ERC20.sol\":7677:7679  to */\n      dup3\n        /* \"https://github.com/OpenZeppelin/openzeppelin-contracts/blob/master/contracts/token/ERC20/ERC20.sol\":7677:7693  to != address(0) */\n      0xffffffffffffffffffffffffffffffffffffffff\n      and\n      eq\n      iszero\n        /* \"https://github.com/OpenZeppelin/openzeppelin-contracts/blob/master/contracts/token/ERC20/ERC20.sol\":7669:7733  require(to != address(0), \"ERC20: transfer to the zero address\") */\n      tag_127\n      jumpi\n      mload(0x40)\n      0x08c379a000000000000000000000000000000000000000000000000000000000\n      dup2\n      mstore\n      0x04\n      add\n      tag_128\n      swap1\n      tag_129\n      jump\t// in\n    tag_128:\n      mload(0x40)\n      dup1\n      swap2\n      sub\n      swap1\n      revert\n    tag_127:\n        /* \"https://github.com/OpenZeppelin/openzeppelin-contracts/blob/master/contracts/token/ERC20/ERC20.sol\":7744:7782  _beforeTokenTransfer(from, to, amount) */\n      tag_130\n        /* \"https://github.com/OpenZeppelin/openzeppelin-contracts/blob/master/contracts/token/ERC20/ERC20.sol\":7765:7769  from */\n      dup4\n        /* \"https://github.com/OpenZeppelin/openzeppelin-contracts/blob/master/contracts/token/ERC20/ERC20.sol\":7771:7773  to */\n      dup4\n        /* \"https://github.com/OpenZeppelin/openzeppelin-contracts/blob/master/contracts/token/ERC20/ERC20.sol\":7775:7781  amount */\n      dup4\n        /* \"https://github.com/OpenZeppelin/openzeppelin-contracts/blob/master/contracts/token/ERC20/ERC20.sol\":7744:7764  _beforeTokenTransfer */\n      tag_131\n        /* \"https://github.com/OpenZeppelin/openzeppelin-contracts/blob/master/contracts/token/ERC20/ERC20.sol\":7744:7782  _beforeTokenTransfer(from, to, amount) */\n      jump\t// in\n    tag_130:\n        /* \"https://github.com/OpenZeppelin/openzeppelin-contracts/blob/master/contracts/token/ERC20/ERC20.sol\":7793:7812  uint256 fromBalance */\n      0x00\n        /* \"https://github.com/OpenZeppelin/openzeppelin-contracts/blob/master/contracts/token/ERC20/ERC20.sol\":7815:7824  _balances */\n      dup1\n        /* \"https://github.com/OpenZeppelin/openzeppelin-contracts/blob/master/contracts/token/ERC20/ERC20.sol\":7815:7830  _balances[from] */\n      0x00\n        /* \"https://github.com/OpenZeppelin/openzeppelin-contracts/blob/master/contracts/token/ERC20/ERC20.sol\":7825:7829  from */\n      dup6\n        /* \"https://github.com/OpenZeppelin/openzeppelin-contracts/blob/master/contracts/token/ERC20/ERC20.sol\":7815:7830  _balances[from] */\n      0xffffffffffffffffffffffffffffffffffffffff\n      and\n      0xffffffffffffffffffffffffffffffffffffffff\n      and\n      dup2\n      mstore\n      0x20\n      add\n      swap1\n      dup2\n      mstore\n      0x20\n      add\n      0x00\n      keccak256\n      sload\n        /* \"https://github.com/OpenZeppelin/openzeppelin-contracts/blob/master/contracts/token/ERC20/ERC20.sol\":7793:7830  uint256 fromBalance = _balances[from] */\n      swap1\n      pop\n        /* \"https://github.com/OpenZeppelin/openzeppelin-contracts/blob/master/contracts/token/ERC20/ERC20.sol\":7863:7869  amount */\n      dup2\n        /* \"https://github.com/OpenZeppelin/openzeppelin-contracts/blob/master/contracts/token/ERC20/ERC20.sol\":7848:7859  fromBalance */\n      dup2\n        /* \"https://github.com/OpenZeppelin/openzeppelin-contracts/blob/master/contracts/token/ERC20/ERC20.sol\":7848:7869  fromBalance >= amount */\n      lt\n      iszero\n        /* \"https://github.com/OpenZeppelin/openzeppelin-contracts/blob/master/contracts/token/ERC20/ERC20.sol\":7840:7912  require(fromBalance >= amount, \"ERC20: transfer amount exceeds balance\") */\n      tag_132\n      jumpi\n      mload(0x40)\n      0x08c379a000000000000000000000000000000000000000000000000000000000\n      dup2\n      mstore\n      0x04\n      add\n      tag_133\n      swap1\n      tag_134\n      jump\t// in\n    tag_133:\n      mload(0x40)\n      dup1\n      swap2\n      sub\n      swap1\n      revert\n    tag_132:\n        /* \"https://github.com/OpenZeppelin/openzeppelin-contracts/blob/master/contracts/token/ERC20/ERC20.sol\":7978:7984  amount */\n      dup2\n        /* \"https://github.com/OpenZeppelin/openzeppelin-contracts/blob/master/contracts/token/ERC20/ERC20.sol\":7964:7975  fromBalance */\n      dup2\n        /* \"https://github.com/OpenZeppelin/openzeppelin-contracts/blob/master/contracts/token/ERC20/ERC20.sol\":7964:7984  fromBalance - amount */\n      sub\n        /* \"https://github.com/OpenZeppelin/openzeppelin-contracts/blob/master/contracts/token/ERC20/ERC20.sol\":7946:7955  _balances */\n      0x00\n        /* \"https://github.com/OpenZeppelin/openzeppelin-contracts/blob/master/contracts/token/ERC20/ERC20.sol\":7946:7961  _balances[from] */\n      dup1\n        /* \"https://github.com/OpenZeppelin/openzeppelin-contracts/blob/master/contracts/token/ERC20/ERC20.sol\":7956:7960  from */\n      dup7\n        /* \"https://github.com/OpenZeppelin/openzeppelin-contracts/blob/master/contracts/token/ERC20/ERC20.sol\":7946:7961  _balances[from] */\n      0xffffffffffffffffffffffffffffffffffffffff\n      and\n      0xffffffffffffffffffffffffffffffffffffffff\n      and\n      dup2\n      mstore\n      0x20\n      add\n      swap1\n      dup2\n      mstore\n      0x20\n      add\n      0x00\n      keccak256\n        /* \"https://github.com/OpenZeppelin/openzeppelin-contracts/blob/master/contracts/token/ERC20/ERC20.sol\":7946:7984  _balances[from] = fromBalance - amount */\n      dup2\n      swap1\n      sstore\n      pop\n        /* \"https://github.com/OpenZeppelin/openzeppelin-contracts/blob/master/contracts/token/ERC20/ERC20.sol\":8178:8184  amount */\n      dup2\n        /* \"https://github.com/OpenZeppelin/openzeppelin-contracts/blob/master/contracts/token/ERC20/ERC20.sol\":8161:8170  _balances */\n      0x00\n        /* \"https://github.com/OpenZeppelin/openzeppelin-contracts/blob/master/contracts/token/ERC20/ERC20.sol\":8161:8174  _balances[to] */\n      dup1\n        /* \"https://github.com/OpenZeppelin/openzeppelin-contracts/blob/master/contracts/token/ERC20/ERC20.sol\":8171:8173  to */\n      dup6\n        /* \"https://github.com/OpenZeppelin/openzeppelin-contracts/blob/master/contracts/token/ERC20/ERC20.sol\":8161:8174  _balances[to] */\n      0xffffffffffffffffffffffffffffffffffffffff\n      and\n      0xffffffffffffffffffffffffffffffffffffffff\n      and\n      dup2\n      mstore\n      0x20\n      add\n      swap1\n      dup2\n      mstore\n      0x20\n      add\n      0x00\n      keccak256\n      0x00\n        /* \"https://github.com/OpenZeppelin/openzeppelin-contracts/blob/master/contracts/token/ERC20/ERC20.sol\":8161:8184  _balances[to] += amount */\n      dup3\n      dup3\n      sload\n      add\n      swap3\n      pop\n      pop\n      dup2\n      swap1\n      sstore\n      pop\n        /* \"https://github.com/OpenZeppelin/openzeppelin-contracts/blob/master/contracts/token/ERC20/ERC20.sol\":8225:8227  to */\n      dup3\n        /* \"https://github.com/OpenZeppelin/openzeppelin-contracts/blob/master/contracts/token/ERC20/ERC20.sol\":8210:8236  Transfer(from, to, amount) */\n      0xffffffffffffffffffffffffffffffffffffffff\n      and\n        /* \"https://github.com/OpenZeppelin/openzeppelin-contracts/blob/master/contracts/token/ERC20/ERC20.sol\":8219:8223  from */\n      dup5\n        /* \"https://github.com/OpenZeppelin/openzeppelin-contracts/blob/master/contracts/token/ERC20/ERC20.sol\":8210:8236  Transfer(from, to, amount) */\n      0xffffffffffffffffffffffffffffffffffffffff\n      and\n      0xddf252ad1be2c89b69c2b068fc378daa952ba7f163c4a11628f55a4df523b3ef\n        /* \"https://github.com/OpenZeppelin/openzeppelin-contracts/blob/master/contracts/token/ERC20/ERC20.sol\":8229:8235  amount */\n      dup5\n        /* \"https://github.com/OpenZeppelin/openzeppelin-contracts/blob/master/contracts/token/ERC20/ERC20.sol\":8210:8236  Transfer(from, to, amount) */\n      mload(0x40)\n      tag_135\n      swap2\n      swap1\n      tag_28\n      jump\t// in\n    tag_135:\n      mload(0x40)\n      dup1\n      swap2\n      sub\n      swap1\n      log3\n        /* \"https://github.com/OpenZeppelin/openzeppelin-contracts/blob/master/contracts/token/ERC20/ERC20.sol\":8247:8284  _afterTokenTransfer(from, to, amount) */\n      tag_136\n        /* \"https://github.com/OpenZeppelin/openzeppelin-contracts/blob/master/contracts/token/ERC20/ERC20.sol\":8267:8271  from */\n      dup5\n        /* \"https://github.com/OpenZeppelin/openzeppelin-contracts/blob/master/contracts/token/ERC20/ERC20.sol\":8273:8275  to */\n      dup5\n        /* \"https://github.com/OpenZeppelin/openzeppelin-contracts/blob/master/contracts/token/ERC20/ERC20.sol\":8277:8283  amount */\n      dup5\n        /* \"https://github.com/OpenZeppelin/openzeppelin-contracts/blob/master/contracts/token/ERC20/ERC20.sol\":8247:8266  _afterTokenTransfer */\n      tag_137\n        /* \"https://github.com/OpenZeppelin/openzeppelin-contracts/blob/master/contracts/token/ERC20/ERC20.sol\":8247:8284  _afterTokenTransfer(from, to, amount) */\n      jump\t// in\n    tag_136:\n        /* \"https://github.com/OpenZeppelin/openzeppelin-contracts/blob/master/contracts/token/ERC20/ERC20.sol\":7473:8291  function _transfer(... */\n      pop\n      pop\n      pop\n      pop\n      jump\t// out\n        /* \"https://github.com/OpenZeppelin/openzeppelin-contracts/blob/master/contracts/token/ERC20/ERC20.sol\":12180:12301  function _beforeTokenTransfer(... */\n    tag_131:\n      pop\n      pop\n      pop\n      jump\t// out\n        /* \"https://github.com/OpenZeppelin/openzeppelin-contracts/blob/master/contracts/token/ERC20/ERC20.sol\":12889:13009  function _afterTokenTransfer(... */\n    tag_137:\n      pop\n      pop\n      pop\n      jump\t// out\n        /* \"#utility.yul\":7:146   */\n    tag_141:\n      0x00\n        /* \"#utility.yul\":91:97   */\n      dup2\n        /* \"#utility.yul\":78:98   */\n      calldataload\n        /* \"#utility.yul\":69:98   */\n      swap1\n      pop\n        /* \"#utility.yul\":107:140   */\n      tag_143\n        /* \"#utility.yul\":134:139   */\n      dup2\n        /* \"#utility.yul\":107:140   */\n      tag_144\n      jump\t// in\n    tag_143:\n        /* \"#utility.yul\":59:146   */\n      swap3\n      swap2\n      pop\n      pop\n      jump\t// out\n        /* \"#utility.yul\":152:291   */\n    tag_145:\n      0x00\n        /* \"#utility.yul\":236:242   */\n      dup2\n        /* \"#utility.yul\":223:243   */\n      calldataload\n        /* \"#utility.yul\":214:243   */\n      swap1\n      pop\n        /* \"#utility.yul\":252:285   */\n      tag_147\n        /* \"#utility.yul\":279:284   */\n      dup2\n        /* \"#utility.yul\":252:285   */\n      tag_148\n      jump\t// in\n    tag_147:\n        /* \"#utility.yul\":204:291   */\n      swap3\n      swap2\n      pop\n      pop\n      jump\t// out\n        /* \"#utility.yul\":297:559   */\n    tag_44:\n      0x00\n        /* \"#utility.yul\":405:407   */\n      0x20\n        /* \"#utility.yul\":393:402   */\n      dup3\n        /* \"#utility.yul\":384:391   */\n      dup5\n        /* \"#utility.yul\":380:403   */\n      sub\n        /* \"#utility.yul\":376:408   */\n      slt\n        /* \"#utility.yul\":373:375   */\n      iszero\n      tag_150\n      jumpi\n        /* \"#utility.yul\":421:422   */\n      0x00\n        /* \"#utility.yul\":418:419   */\n      dup1\n        /* \"#utility.yul\":411:423   */\n      revert\n        /* \"#utility.yul\":373:375   */\n    tag_150:\n        /* \"#utility.yul\":464:465   */\n      0x00\n        /* \"#utility.yul\":489:542   */\n      tag_151\n        /* \"#utility.yul\":534:541   */\n      dup5\n        /* \"#utility.yul\":525:531   */\n      dup3\n        /* \"#utility.yul\":514:523   */\n      dup6\n        /* \"#utility.yul\":510:532   */\n      add\n        /* \"#utility.yul\":489:542   */\n      tag_141\n      jump\t// in\n    tag_151:\n        /* \"#utility.yul\":479:542   */\n      swap2\n      pop\n        /* \"#utility.yul\":435:552   */\n      pop\n        /* \"#utility.yul\":363:559   */\n      swap3\n      swap2\n      pop\n      pop\n      jump\t// out\n        /* \"#utility.yul\":565:972   */\n    tag_60:\n      0x00\n      dup1\n        /* \"#utility.yul\":690:692   */\n      0x40\n        /* \"#utility.yul\":678:687   */\n      dup4\n        /* \"#utility.yul\":669:676   */\n      dup6\n        /* \"#utility.yul\":665:688   */\n      sub\n        /* \"#utility.yul\":661:693   */\n      slt\n        /* \"#utility.yul\":658:660   */\n      iszero\n      tag_153\n      jumpi\n        /* \"#utility.yul\":706:707   */\n      0x00\n        /* \"#utility.yul\":703:704   */\n      dup1\n        /* \"#utility.yul\":696:708   */\n      revert\n        /* \"#utility.yul\":658:660   */\n    tag_153:\n        /* \"#utility.yul\":749:750   */\n      0x00\n        /* \"#utility.yul\":774:827   */\n      tag_154\n        /* \"#utility.yul\":819:826   */\n      dup6\n        /* \"#utility.yul\":810:816   */\n      dup3\n        /* \"#utility.yul\":799:808   */\n      dup7\n        /* \"#utility.yul\":795:817   */\n      add\n        /* \"#utility.yul\":774:827   */\n      tag_141\n      jump\t// in\n    tag_154:\n        /* \"#utility.yul\":764:827   */\n      swap3\n      pop\n        /* \"#utility.yul\":720:837   */\n      pop\n        /* \"#utility.yul\":876:878   */\n      0x20\n        /* \"#utility.yul\":902:955   */\n      tag_155\n        /* \"#utility.yul\":947:954   */\n      dup6\n        /* \"#utility.yul\":938:944   */\n      dup3\n        /* \"#utility.yul\":927:936   */\n      dup7\n        /* \"#utility.yul\":923:945   */\n      add\n        /* \"#utility.yul\":902:955   */\n      tag_141\n      jump\t// in\n    tag_155:\n        /* \"#utility.yul\":892:955   */\n      swap2\n      pop\n        /* \"#utility.yul\":847:965   */\n      pop\n        /* \"#utility.yul\":648:972   */\n      swap3\n      pop\n      swap3\n      swap1\n      pop\n      jump\t// out\n        /* \"#utility.yul\":978:1530   */\n    tag_31:\n      0x00\n      dup1\n      0x00\n        /* \"#utility.yul\":1120:1122   */\n      0x60\n        /* \"#utility.yul\":1108:1117   */\n      dup5\n        /* \"#utility.yul\":1099:1106   */\n      dup7\n        /* \"#utility.yul\":1095:1118   */\n      sub\n        /* \"#utility.yul\":1091:1123   */\n      slt\n        /* \"#utility.yul\":1088:1090   */\n      iszero\n      tag_157\n      jumpi\n        /* \"#utility.yul\":1136:1137   */\n      0x00\n        /* \"#utility.yul\":1133:1134   */\n      dup1\n        /* \"#utility.yul\":1126:1138   */\n      revert\n        /* \"#utility.yul\":1088:1090   */\n    tag_157:\n        /* \"#utility.yul\":1179:1180   */\n      0x00\n        /* \"#utility.yul\":1204:1257   */\n      tag_158\n        /* \"#utility.yul\":1249:1256   */\n      dup7\n        /* \"#utility.yul\":1240:1246   */\n      dup3\n        /* \"#utility.yul\":1229:1238   */\n      dup8\n        /* \"#utility.yul\":1225:1247   */\n      add\n        /* \"#utility.yul\":1204:1257   */\n      tag_141\n      jump\t// in\n    tag_158:\n        /* \"#utility.yul\":1194:1257   */\n      swap4\n      pop\n        /* \"#utility.yul\":1150:1267   */\n      pop\n        /* \"#utility.yul\":1306:1308   */\n      0x20\n        /* \"#utility.yul\":1332:1385   */\n      tag_159\n        /* \"#utility.yul\":1377:1384   */\n      dup7\n        /* \"#utility.yul\":1368:1374   */\n      dup3\n        /* \"#utility.yul\":1357:1366   */\n      dup8\n        /* \"#utility.yul\":1353:1375   */\n      add\n        /* \"#utility.yul\":1332:1385   */\n      tag_141\n      jump\t// in\n    tag_159:\n        /* \"#utility.yul\":1322:1385   */\n      swap3\n      pop\n        /* \"#utility.yul\":1277:1395   */\n      pop\n        /* \"#utility.yul\":1434:1436   */\n      0x40\n        /* \"#utility.yul\":1460:1513   */\n      tag_160\n        /* \"#utility.yul\":1505:1512   */\n      dup7\n        /* \"#utility.yul\":1496:1502   */\n      dup3\n        /* \"#utility.yul\":1485:1494   */\n      dup8\n        /* \"#utility.yul\":1481:1503   */\n      add\n        /* \"#utility.yul\":1460:1513   */\n      tag_145\n      jump\t// in\n    tag_160:\n        /* \"#utility.yul\":1450:1513   */\n      swap2\n      pop\n        /* \"#utility.yul\":1405:1523   */\n      pop\n        /* \"#utility.yul\":1078:1530   */\n      swap3\n      pop\n      swap3\n      pop\n      swap3\n      jump\t// out\n        /* \"#utility.yul\":1536:1943   */\n    tag_21:\n      0x00\n      dup1\n        /* \"#utility.yul\":1661:1663   */\n      0x40\n        /* \"#utility.yul\":1649:1658   */\n      dup4\n        /* \"#utility.yul\":1640:1647   */\n      dup6\n        /* \"#utility.yul\":1636:1659   */\n      sub\n        /* \"#utility.yul\":1632:1664   */\n      slt\n        /* \"#utility.yul\":1629:1631   */\n      iszero\n      tag_162\n      jumpi\n        /* \"#utility.yul\":1677:1678   */\n      0x00\n        /* \"#utility.yul\":1674:1675   */\n      dup1\n        /* \"#utility.yul\":1667:1679   */\n      revert\n        /* \"#utility.yul\":1629:1631   */\n    tag_162:\n        /* \"#utility.yul\":1720:1721   */\n      0x00\n        /* \"#utility.yul\":1745:1798   */\n      tag_163\n        /* \"#utility.yul\":1790:1797   */\n      dup6\n        /* \"#utility.yul\":1781:1787   */\n      dup3\n        /* \"#utility.yul\":1770:1779   */\n      dup7\n        /* \"#utility.yul\":1766:1788   */\n      add\n        /* \"#utility.yul\":1745:1798   */\n      tag_141\n      jump\t// in\n    tag_163:\n        /* \"#utility.yul\":1735:1798   */\n      swap3\n      pop\n        /* \"#utility.yul\":1691:1808   */\n      pop\n        /* \"#utility.yul\":1847:1849   */\n      0x20\n        /* \"#utility.yul\":1873:1926   */\n      tag_164\n        /* \"#utility.yul\":1918:1925   */\n      dup6\n        /* \"#utility.yul\":1909:1915   */\n      dup3\n        /* \"#utility.yul\":1898:1907   */\n      dup7\n        /* \"#utility.yul\":1894:1916   */\n      add\n        /* \"#utility.yul\":1873:1926   */\n      tag_145\n      jump\t// in\n    tag_164:\n        /* \"#utility.yul\":1863:1926   */\n      swap2\n      pop\n        /* \"#utility.yul\":1818:1936   */\n      pop\n        /* \"#utility.yul\":1619:1943   */\n      swap3\n      pop\n      swap3\n      swap1\n      pop\n      jump\t// out\n        /* \"#utility.yul\":1949:2058   */\n    tag_165:\n        /* \"#utility.yul\":2030:2051   */\n      tag_167\n        /* \"#utility.yul\":2045:2050   */\n      dup2\n        /* \"#utility.yul\":2030:2051   */\n      tag_168\n      jump\t// in\n    tag_167:\n        /* \"#utility.yul\":2025:2028   */\n      dup3\n        /* \"#utility.yul\":2018:2052   */\n      mstore\n        /* \"#utility.yul\":2008:2058   */\n      pop\n      pop\n      jump\t// out\n        /* \"#utility.yul\":2064:2428   */\n    tag_169:\n      0x00\n        /* \"#utility.yul\":2180:2219   */\n      tag_171\n        /* \"#utility.yul\":2213:2218   */\n      dup3\n        /* \"#utility.yul\":2180:2219   */\n      tag_172\n      jump\t// in\n    tag_171:\n        /* \"#utility.yul\":2235:2306   */\n      tag_173\n        /* \"#utility.yul\":2299:2305   */\n      dup2\n        /* \"#utility.yul\":2294:2297   */\n      dup6\n        /* \"#utility.yul\":2235:2306   */\n      tag_174\n      jump\t// in\n    tag_173:\n        /* \"#utility.yul\":2228:2306   */\n      swap4\n      pop\n        /* \"#utility.yul\":2315:2367   */\n      tag_175\n        /* \"#utility.yul\":2360:2366   */\n      dup2\n        /* \"#utility.yul\":2355:2358   */\n      dup6\n        /* \"#utility.yul\":2348:2352   */\n      0x20\n        /* \"#utility.yul\":2341:2346   */\n      dup7\n        /* \"#utility.yul\":2337:2353   */\n      add\n        /* \"#utility.yul\":2315:2367   */\n      tag_176\n      jump\t// in\n    tag_175:\n        /* \"#utility.yul\":2392:2421   */\n      tag_177\n        /* \"#utility.yul\":2414:2420   */\n      dup2\n        /* \"#utility.yul\":2392:2421   */\n      tag_178\n      jump\t// in\n    tag_177:\n        /* \"#utility.yul\":2387:2390   */\n      dup5\n        /* \"#utility.yul\":2383:2422   */\n      add\n        /* \"#utility.yul\":2376:2422   */\n      swap2\n      pop\n        /* \"#utility.yul\":2156:2428   */\n      pop\n      swap3\n      swap2\n      pop\n      pop\n      jump\t// out\n        /* \"#utility.yul\":2434:2801   */\n    tag_179:\n      0x00\n        /* \"#utility.yul\":2597:2664   */\n      tag_181\n        /* \"#utility.yul\":2661:2663   */\n      0x23\n        /* \"#utility.yul\":2656:2659   */\n      dup4\n        /* \"#utility.yul\":2597:2664   */\n      tag_174\n      jump\t// in\n    tag_181:\n        /* \"#utility.yul\":2590:2664   */\n      swap2\n      pop\n        /* \"#utility.yul\":2694:2728   */\n      0x45524332303a207472616e7366657220746f20746865207a65726f2061646472\n        /* \"#utility.yul\":2690:2691   */\n      0x00\n        /* \"#utility.yul\":2685:2688   */\n      dup4\n        /* \"#utility.yul\":2681:2692   */\n      add\n        /* \"#utility.yul\":2674:2729   */\n      mstore\n        /* \"#utility.yul\":2760:2765   */\n      0x6573730000000000000000000000000000000000000000000000000000000000\n        /* \"#utility.yul\":2755:2757   */\n      0x20\n        /* \"#utility.yul\":2750:2753   */\n      dup4\n        /* \"#utility.yul\":2746:2758   */\n      add\n        /* \"#utility.yul\":2739:2766   */\n      mstore\n        /* \"#utility.yul\":2792:2794   */\n      0x40\n        /* \"#utility.yul\":2787:2790   */\n      dup3\n        /* \"#utility.yul\":2783:2795   */\n      add\n        /* \"#utility.yul\":2776:2795   */\n      swap1\n      pop\n        /* \"#utility.yul\":2580:2801   */\n      swap2\n      swap1\n      pop\n      jump\t// out\n        /* \"#utility.yul\":2807:3173   */\n    tag_182:\n      0x00\n        /* \"#utility.yul\":2970:3037   */\n      tag_184\n        /* \"#utility.yul\":3034:3036   */\n      0x22\n        /* \"#utility.yul\":3029:3032   */\n      dup4\n        /* \"#utility.yul\":2970:3037   */\n      tag_174\n      jump\t// in\n    tag_184:\n        /* \"#utility.yul\":2963:3037   */\n      swap2\n      pop\n        /* \"#utility.yul\":3067:3101   */\n      0x45524332303a20617070726f766520746f20746865207a65726f206164647265\n        /* \"#utility.yul\":3063:3064   */\n      0x00\n        /* \"#utility.yul\":3058:3061   */\n      dup4\n        /* \"#utility.yul\":3054:3065   */\n      add\n        /* \"#utility.yul\":3047:3102   */\n      mstore\n        /* \"#utility.yul\":3133:3137   */\n      0x7373000000000000000000000000000000000000000000000000000000000000\n        /* \"#utility.yul\":3128:3130   */\n      0x20\n        /* \"#utility.yul\":3123:3126   */\n      dup4\n        /* \"#utility.yul\":3119:3131   */\n      add\n        /* \"#utility.yul\":3112:3138   */\n      mstore\n        /* \"#utility.yul\":3164:3166   */\n      0x40\n        /* \"#utility.yul\":3159:3162   */\n      dup3\n        /* \"#utility.yul\":3155:3167   */\n      add\n        /* \"#utility.yul\":3148:3167   */\n      swap1\n      pop\n        /* \"#utility.yul\":2953:3173   */\n      swap2\n      swap1\n      pop\n      jump\t// out\n        /* \"#utility.yul\":3179:3506   */\n    tag_185:\n      0x00\n        /* \"#utility.yul\":3342:3409   */\n      tag_187\n        /* \"#utility.yul\":3406:3408   */\n      0x1d\n        /* \"#utility.yul\":3401:3404   */\n      dup4\n        /* \"#utility.yul\":3342:3409   */\n      tag_174\n      jump\t// in\n    tag_187:\n        /* \"#utility.yul\":3335:3409   */\n      swap2\n      pop\n        /* \"#utility.yul\":3439:3470   */\n      0x45524332303a20696e73756666696369656e7420616c6c6f77616e6365000000\n        /* \"#utility.yul\":3435:3436   */\n      0x00\n        /* \"#utility.yul\":3430:3433   */\n      dup4\n        /* \"#utility.yul\":3426:3437   */\n      add\n        /* \"#utility.yul\":3419:3471   */\n      mstore\n        /* \"#utility.yul\":3497:3499   */\n      0x20\n        /* \"#utility.yul\":3492:3495   */\n      dup3\n        /* \"#utility.yul\":3488:3500   */\n      add\n        /* \"#utility.yul\":3481:3500   */\n      swap1\n      pop\n        /* \"#utility.yul\":3325:3506   */\n      swap2\n      swap1\n      pop\n      jump\t// out\n        /* \"#utility.yul\":3512:3882   */\n    tag_188:\n      0x00\n        /* \"#utility.yul\":3675:3742   */\n      tag_190\n        /* \"#utility.yul\":3739:3741   */\n      0x26\n        /* \"#utility.yul\":3734:3737   */\n      dup4\n        /* \"#utility.yul\":3675:3742   */\n      tag_174\n      jump\t// in\n    tag_190:\n        /* \"#utility.yul\":3668:3742   */\n      swap2\n      pop\n        /* \"#utility.yul\":3772:3806   */\n      0x45524332303a207472616e7366657220616d6f756e7420657863656564732062\n        /* \"#utility.yul\":3768:3769   */\n      0x00\n        /* \"#utility.yul\":3763:3766   */\n      dup4\n        /* \"#utility.yul\":3759:3770   */\n      add\n        /* \"#utility.yul\":3752:3807   */\n      mstore\n        /* \"#utility.yul\":3838:3846   */\n      0x616c616e63650000000000000000000000000000000000000000000000000000\n        /* \"#utility.yul\":3833:3835   */\n      0x20\n        /* \"#utility.yul\":3828:3831   */\n      dup4\n        /* \"#utility.yul\":3824:3836   */\n      add\n        /* \"#utility.yul\":3817:3847   */\n      mstore\n        /* \"#utility.yul\":3873:3875   */\n      0x40\n        /* \"#utility.yul\":3868:3871   */\n      dup3\n        /* \"#utility.yul\":3864:3876   */\n      add\n        /* \"#utility.yul\":3857:3876   */\n      swap1\n      pop\n        /* \"#utility.yul\":3658:3882   */\n      swap2\n      swap1\n      pop\n      jump\t// out\n        /* \"#utility.yul\":3888:4257   */\n    tag_191:\n      0x00\n        /* \"#utility.yul\":4051:4118   */\n      tag_193\n        /* \"#utility.yul\":4115:4117   */\n      0x25\n        /* \"#utility.yul\":4110:4113   */\n      dup4\n        /* \"#utility.yul\":4051:4118   */\n      tag_174\n      jump\t// in\n    tag_193:\n        /* \"#utility.yul\":4044:4118   */\n      swap2\n      pop\n        /* \"#utility.yul\":4148:4182   */\n      0x45524332303a207472616e736665722066726f6d20746865207a65726f206164\n        /* \"#utility.yul\":4144:4145   */\n      0x00\n        /* \"#utility.yul\":4139:4142   */\n      dup4\n        /* \"#utility.yul\":4135:4146   */\n      add\n        /* \"#utility.yul\":4128:4183   */\n      mstore\n        /* \"#utility.yul\":4214:4221   */\n      0x6472657373000000000000000000000000000000000000000000000000000000\n        /* \"#utility.yul\":4209:4211   */\n      0x20\n        /* \"#utility.yul\":4204:4207   */\n      dup4\n        /* \"#utility.yul\":4200:4212   */\n      add\n        /* \"#utility.yul\":4193:4222   */\n      mstore\n        /* \"#utility.yul\":4248:4250   */\n      0x40\n        /* \"#utility.yul\":4243:4246   */\n      dup3\n        /* \"#utility.yul\":4239:4251   */\n      add\n        /* \"#utility.yul\":4232:4251   */\n      swap1\n      pop\n        /* \"#utility.yul\":4034:4257   */\n      swap2\n      swap1\n      pop\n      jump\t// out\n        /* \"#utility.yul\":4263:4631   */\n    tag_194:\n      0x00\n        /* \"#utility.yul\":4426:4493   */\n      tag_196\n        /* \"#utility.yul\":4490:4492   */\n      0x24\n        /* \"#utility.yul\":4485:4488   */\n      dup4\n        /* \"#utility.yul\":4426:4493   */\n      tag_174\n      jump\t// in\n    tag_196:\n        /* \"#utility.yul\":4419:4493   */\n      swap2\n      pop\n        /* \"#utility.yul\":4523:4557   */\n      0x45524332303a20617070726f76652066726f6d20746865207a65726f20616464\n        /* \"#utility.yul\":4519:4520   */\n      0x00\n        /* \"#utility.yul\":4514:4517   */\n      dup4\n        /* \"#utility.yul\":4510:4521   */\n      add\n        /* \"#utility.yul\":4503:4558   */\n      mstore\n        /* \"#utility.yul\":4589:4595   */\n      0x7265737300000000000000000000000000000000000000000000000000000000\n        /* \"#utility.yul\":4584:4586   */\n      0x20\n        /* \"#utility.yul\":4579:4582   */\n      dup4\n        /* \"#utility.yul\":4575:4587   */\n      add\n        /* \"#utility.yul\":4568:4596   */\n      mstore\n        /* \"#utility.yul\":4622:4624   */\n      0x40\n        /* \"#utility.yul\":4617:4620   */\n      dup3\n        /* \"#utility.yul\":4613:4625   */\n      add\n        /* \"#utility.yul\":4606:4625   */\n      swap1\n      pop\n        /* \"#utility.yul\":4409:4631   */\n      swap2\n      swap1\n      pop\n      jump\t// out\n        /* \"#utility.yul\":4637:5006   */\n    tag_197:\n      0x00\n        /* \"#utility.yul\":4800:4867   */\n      tag_199\n        /* \"#utility.yul\":4864:4866   */\n      0x25\n        /* \"#utility.yul\":4859:4862   */\n      dup4\n        /* \"#utility.yul\":4800:4867   */\n      tag_174\n      jump\t// in\n    tag_199:\n        /* \"#utility.yul\":4793:4867   */\n      swap2\n      pop\n        /* \"#utility.yul\":4897:4931   */\n      0x45524332303a2064656372656173656420616c6c6f77616e63652062656c6f77\n        /* \"#utility.yul\":4893:4894   */\n      0x00\n        /* \"#utility.yul\":4888:4891   */\n      dup4\n        /* \"#utility.yul\":4884:4895   */\n      add\n        /* \"#utility.yul\":4877:4932   */\n      mstore\n        /* \"#utility.yul\":4963:4970   */\n      0x207a65726f000000000000000000000000000000000000000000000000000000\n        /* \"#utility.yul\":4958:4960   */\n      0x20\n        /* \"#utility.yul\":4953:4956   */\n      dup4\n        /* \"#utility.yul\":4949:4961   */\n      add\n        /* \"#utility.yul\":4942:4971   */\n      mstore\n        /* \"#utility.yul\":4997:4999   */\n      0x40\n        /* \"#utility.yul\":4992:4995   */\n      dup3\n        /* \"#utility.yul\":4988:5000   */\n      add\n        /* \"#utility.yul\":4981:5000   */\n      swap1\n      pop\n        /* \"#utility.yul\":4783:5006   */\n      swap2\n      swap1\n      pop\n      jump\t// out\n        /* \"#utility.yul\":5012:5130   */\n    tag_200:\n        /* \"#utility.yul\":5099:5123   */\n      tag_202\n        /* \"#utility.yul\":5117:5122   */\n      dup2\n        /* \"#utility.yul\":5099:5123   */\n      tag_203\n      jump\t// in\n    tag_202:\n        /* \"#utility.yul\":5094:5097   */\n      dup3\n        /* \"#utility.yul\":5087:5124   */\n      mstore\n        /* \"#utility.yul\":5077:5130   */\n      pop\n      pop\n      jump\t// out\n        /* \"#utility.yul\":5136:5248   */\n    tag_204:\n        /* \"#utility.yul\":5219:5241   */\n      tag_206\n        /* \"#utility.yul\":5235:5240   */\n      dup2\n        /* \"#utility.yul\":5219:5241   */\n      tag_207\n      jump\t// in\n    tag_206:\n        /* \"#utility.yul\":5214:5217   */\n      dup3\n        /* \"#utility.yul\":5207:5242   */\n      mstore\n        /* \"#utility.yul\":5197:5248   */\n      pop\n      pop\n      jump\t// out\n        /* \"#utility.yul\":5254:5464   */\n    tag_24:\n      0x00\n        /* \"#utility.yul\":5379:5381   */\n      0x20\n        /* \"#utility.yul\":5368:5377   */\n      dup3\n        /* \"#utility.yul\":5364:5382   */\n      add\n        /* \"#utility.yul\":5356:5382   */\n      swap1\n      pop\n        /* \"#utility.yul\":5392:5457   */\n      tag_209\n        /* \"#utility.yul\":5454:5455   */\n      0x00\n        /* \"#utility.yul\":5443:5452   */\n      dup4\n        /* \"#utility.yul\":5439:5456   */\n      add\n        /* \"#utility.yul\":5430:5436   */\n      dup5\n        /* \"#utility.yul\":5392:5457   */\n      tag_165\n      jump\t// in\n    tag_209:\n        /* \"#utility.yul\":5346:5464   */\n      swap3\n      swap2\n      pop\n      pop\n      jump\t// out\n        /* \"#utility.yul\":5470:5783   */\n    tag_18:\n      0x00\n        /* \"#utility.yul\":5621:5623   */\n      0x20\n        /* \"#utility.yul\":5610:5619   */\n      dup3\n        /* \"#utility.yul\":5606:5624   */\n      add\n        /* \"#utility.yul\":5598:5624   */\n      swap1\n      pop\n        /* \"#utility.yul\":5670:5679   */\n      dup2\n        /* \"#utility.yul\":5664:5668   */\n      dup2\n        /* \"#utility.yul\":5660:5680   */\n      sub\n        /* \"#utility.yul\":5656:5657   */\n      0x00\n        /* \"#utility.yul\":5645:5654   */\n      dup4\n        /* \"#utility.yul\":5641:5658   */\n      add\n        /* \"#utility.yul\":5634:5681   */\n      mstore\n        /* \"#utility.yul\":5698:5776   */\n      tag_211\n        /* \"#utility.yul\":5771:5775   */\n      dup2\n        /* \"#utility.yul\":5762:5768   */\n      dup5\n        /* \"#utility.yul\":5698:5776   */\n      tag_169\n      jump\t// in\n    tag_211:\n        /* \"#utility.yul\":5690:5776   */\n      swap1\n      pop\n        /* \"#utility.yul\":5588:5783   */\n      swap3\n      swap2\n      pop\n      pop\n      jump\t// out\n        /* \"#utility.yul\":5789:6208   */\n    tag_129:\n      0x00\n        /* \"#utility.yul\":5993:5995   */\n      0x20\n        /* \"#utility.yul\":5982:5991   */\n      dup3\n        /* \"#utility.yul\":5978:5996   */\n      add\n        /* \"#utility.yul\":5970:5996   */\n      swap1\n      pop\n        /* \"#utility.yul\":6042:6051   */\n      dup2\n        /* \"#utility.yul\":6036:6040   */\n      dup2\n        /* \"#utility.yul\":6032:6052   */\n      sub\n        /* \"#utility.yul\":6028:6029   */\n      0x00\n        /* \"#utility.yul\":6017:6026   */\n      dup4\n        /* \"#utility.yul\":6013:6030   */\n      add\n        /* \"#utility.yul\":6006:6053   */\n      mstore\n        /* \"#utility.yul\":6070:6201   */\n      tag_213\n        /* \"#utility.yul\":6196:6200   */\n      dup2\n        /* \"#utility.yul\":6070:6201   */\n      tag_179\n      jump\t// in\n    tag_213:\n        /* \"#utility.yul\":6062:6201   */\n      swap1\n      pop\n        /* \"#utility.yul\":5960:6208   */\n      swap2\n      swap1\n      pop\n      jump\t// out\n        /* \"#utility.yul\":6214:6633   */\n    tag_114:\n      0x00\n        /* \"#utility.yul\":6418:6420   */\n      0x20\n        /* \"#utility.yul\":6407:6416   */\n      dup3\n        /* \"#utility.yul\":6403:6421   */\n      add\n        /* \"#utility.yul\":6395:6421   */\n      swap1\n      pop\n        /* \"#utility.yul\":6467:6476   */\n      dup2\n        /* \"#utility.yul\":6461:6465   */\n      dup2\n        /* \"#utility.yul\":6457:6477   */\n      sub\n        /* \"#utility.yul\":6453:6454   */\n      0x00\n        /* \"#utility.yul\":6442:6451   */\n      dup4\n        /* \"#utility.yul\":6438:6455   */\n      add\n        /* \"#utility.yul\":6431:6478   */\n      mstore\n        /* \"#utility.yul\":6495:6626   */\n      tag_215\n        /* \"#utility.yul\":6621:6625   */\n      dup2\n        /* \"#utility.yul\":6495:6626   */\n      tag_182\n      jump\t// in\n    tag_215:\n        /* \"#utility.yul\":6487:6626   */\n      swap1\n      pop\n        /* \"#utility.yul\":6385:6633   */\n      swap2\n      swap1\n      pop\n      jump\t// out\n        /* \"#utility.yul\":6639:7058   */\n    tag_121:\n      0x00\n        /* \"#utility.yul\":6843:6845   */\n      0x20\n        /* \"#utility.yul\":6832:6841   */\n      dup3\n        /* \"#utility.yul\":6828:6846   */\n      add\n        /* \"#utility.yul\":6820:6846   */\n      swap1\n      pop\n        /* \"#utility.yul\":6892:6901   */\n      dup2\n        /* \"#utility.yul\":6886:6890   */\n      dup2\n        /* \"#utility.yul\":6882:6902   */\n      sub\n        /* \"#utility.yul\":6878:6879   */\n      0x00\n        /* \"#utility.yul\":6867:6876   */\n      dup4\n        /* \"#utility.yul\":6863:6880   */\n      add\n        /* \"#utility.yul\":6856:6903   */\n      mstore\n        /* \"#utility.yul\":6920:7051   */\n      tag_217\n        /* \"#utility.yul\":7046:7050   */\n      dup2\n        /* \"#utility.yul\":6920:7051   */\n      tag_185\n      jump\t// in\n    tag_217:\n        /* \"#utility.yul\":6912:7051   */\n      swap1\n      pop\n        /* \"#utility.yul\":6810:7058   */\n      swap2\n      swap1\n      pop\n      jump\t// out\n        /* \"#utility.yul\":7064:7483   */\n    tag_134:\n      0x00\n        /* \"#utility.yul\":7268:7270   */\n      0x20\n        /* \"#utility.yul\":7257:7266   */\n      dup3\n        /* \"#utility.yul\":7253:7271   */\n      add\n        /* \"#utility.yul\":7245:7271   */\n      swap1\n      pop\n        /* \"#utility.yul\":7317:7326   */\n      dup2\n        /* \"#utility.yul\":7311:7315   */\n      dup2\n        /* \"#utility.yul\":7307:7327   */\n      sub\n        /* \"#utility.yul\":7303:7304   */\n      0x00\n        /* \"#utility.yul\":7292:7301   */\n      dup4\n        /* \"#utility.yul\":7288:7305   */\n      add\n        /* \"#utility.yul\":7281:7328   */\n      mstore\n        /* \"#utility.yul\":7345:7476   */\n      tag_219\n        /* \"#utility.yul\":7471:7475   */\n      dup2\n        /* \"#utility.yul\":7345:7476   */\n      tag_188\n      jump\t// in\n    tag_219:\n        /* \"#utility.yul\":7337:7476   */\n      swap1\n      pop\n        /* \"#utility.yul\":7235:7483   */\n      swap2\n      swap1\n      pop\n      jump\t// out\n        /* \"#utility.yul\":7489:7908   */\n    tag_126:\n      0x00\n        /* \"#utility.yul\":7693:7695   */\n      0x20\n        /* \"#utility.yul\":7682:7691   */\n      dup3\n        /* \"#utility.yul\":7678:7696   */\n      add\n        /* \"#utility.yul\":7670:7696   */\n      swap1\n      pop\n        /* \"#utility.yul\":7742:7751   */\n      dup2\n        /* \"#utility.yul\":7736:7740   */\n      dup2\n        /* \"#utility.yul\":7732:7752   */\n      sub\n        /* \"#utility.yul\":7728:7729   */\n      0x00\n        /* \"#utility.yul\":7717:7726   */\n      dup4\n        /* \"#utility.yul\":7713:7730   */\n      add\n        /* \"#utility.yul\":7706:7753   */\n      mstore\n        /* \"#utility.yul\":7770:7901   */\n      tag_221\n        /* \"#utility.yul\":7896:7900   */\n      dup2\n        /* \"#utility.yul\":7770:7901   */\n      tag_191\n      jump\t// in\n    tag_221:\n        /* \"#utility.yul\":7762:7901   */\n      swap1\n      pop\n        /* \"#utility.yul\":7660:7908   */\n      swap2\n      swap1\n      pop\n      jump\t// out\n        /* \"#utility.yul\":7914:8333   */\n    tag_111:\n      0x00\n        /* \"#utility.yul\":8118:8120   */\n      0x20\n        /* \"#utility.yul\":8107:8116   */\n      dup3\n        /* \"#utility.yul\":8103:8121   */\n      add\n        /* \"#utility.yul\":8095:8121   */\n      swap1\n      pop\n        /* \"#utility.yul\":8167:8176   */\n      dup2\n        /* \"#utility.yul\":8161:8165   */\n      dup2\n        /* \"#utility.yul\":8157:8177   */\n      sub\n        /* \"#utility.yul\":8153:8154   */\n      0x00\n        /* \"#utility.yul\":8142:8151   */\n      dup4\n        /* \"#utility.yul\":8138:8155   */\n      add\n        /* \"#utility.yul\":8131:8178   */\n      mstore\n        /* \"#utility.yul\":8195:8326   */\n      tag_223\n        /* \"#utility.yul\":8321:8325   */\n      dup2\n        /* \"#utility.yul\":8195:8326   */\n      tag_194\n      jump\t// in\n    tag_223:\n        /* \"#utility.yul\":8187:8326   */\n      swap1\n      pop\n        /* \"#utility.yul\":8085:8333   */\n      swap2\n      swap1\n      pop\n      jump\t// out\n        /* \"#utility.yul\":8339:8758   */\n    tag_101:\n      0x00\n        /* \"#utility.yul\":8543:8545   */\n      0x20\n        /* \"#utility.yul\":8532:8541   */\n      dup3\n        /* \"#utility.yul\":8528:8546   */\n      add\n        /* \"#utility.yul\":8520:8546   */\n      swap1\n      pop\n        /* \"#utility.yul\":8592:8601   */\n      dup2\n        /* \"#utility.yul\":8586:8590   */\n      dup2\n        /* \"#utility.yul\":8582:8602   */\n      sub\n        /* \"#utility.yul\":8578:8579   */\n      0x00\n        /* \"#utility.yul\":8567:8576   */\n      dup4\n        /* \"#utility.yul\":8563:8580   */\n      add\n        /* \"#utility.yul\":8556:8603   */\n      mstore\n        /* \"#utility.yul\":8620:8751   */\n      tag_225\n        /* \"#utility.yul\":8746:8750   */\n      dup2\n        /* \"#utility.yul\":8620:8751   */\n      tag_197\n      jump\t// in\n    tag_225:\n        /* \"#utility.yul\":8612:8751   */\n      swap1\n      pop\n        /* \"#utility.yul\":8510:8758   */\n      swap2\n      swap1\n      pop\n      jump\t// out\n        /* \"#utility.yul\":8764:8986   */\n    tag_28:\n      0x00\n        /* \"#utility.yul\":8895:8897   */\n      0x20\n        /* \"#utility.yul\":8884:8893   */\n      dup3\n        /* \"#utility.yul\":8880:8898   */\n      add\n        /* \"#utility.yul\":8872:8898   */\n      swap1\n      pop\n        /* \"#utility.yul\":8908:8979   */\n      tag_227\n        /* \"#utility.yul\":8976:8977   */\n      0x00\n        /* \"#utility.yul\":8965:8974   */\n      dup4\n        /* \"#utility.yul\":8961:8978   */\n      add\n        /* \"#utility.yul\":8952:8958   */\n      dup5\n        /* \"#utility.yul\":8908:8979   */\n      tag_200\n      jump\t// in\n    tag_227:\n        /* \"#utility.yul\":8862:8986   */\n      swap3\n      swap2\n      pop\n      pop\n      jump\t// out\n        /* \"#utility.yul\":8992:9206   */\n    tag_37:\n      0x00\n        /* \"#utility.yul\":9119:9121   */\n      0x20\n        /* \"#utility.yul\":9108:9117   */\n      dup3\n        /* \"#utility.yul\":9104:9122   */\n      add\n        /* \"#utility.yul\":9096:9122   */\n      swap1\n      pop\n        /* \"#utility.yul\":9132:9199   */\n      tag_229\n        /* \"#utility.yul\":9196:9197   */\n      0x00\n        /* \"#utility.yul\":9185:9194   */\n      dup4\n        /* \"#utility.yul\":9181:9198   */\n      add\n        /* \"#utility.yul\":9172:9178   */\n      dup5\n        /* \"#utility.yul\":9132:9199   */\n      tag_204\n      jump\t// in\n    tag_229:\n        /* \"#utility.yul\":9086:9206   */\n      swap3\n      swap2\n      pop\n      pop\n      jump\t// out\n        /* \"#utility.yul\":9212:9311   */\n    tag_172:\n      0x00\n        /* \"#utility.yul\":9298:9303   */\n      dup2\n        /* \"#utility.yul\":9292:9304   */\n      mload\n        /* \"#utility.yul\":9282:9304   */\n      swap1\n      pop\n        /* \"#utility.yul\":9271:9311   */\n      swap2\n      swap1\n      pop\n      jump\t// out\n        /* \"#utility.yul\":9317:9486   */\n    tag_174:\n      0x00\n        /* \"#utility.yul\":9435:9441   */\n      dup3\n        /* \"#utility.yul\":9430:9433   */\n      dup3\n        /* \"#utility.yul\":9423:9442   */\n      mstore\n        /* \"#utility.yul\":9475:9479   */\n      0x20\n        /* \"#utility.yul\":9470:9473   */\n      dup3\n        /* \"#utility.yul\":9466:9480   */\n      add\n        /* \"#utility.yul\":9451:9480   */\n      swap1\n      pop\n        /* \"#utility.yul\":9413:9486   */\n      swap3\n      swap2\n      pop\n      pop\n      jump\t// out\n        /* \"#utility.yul\":9492:9797   */\n    tag_88:\n      0x00\n        /* \"#utility.yul\":9551:9571   */\n      tag_233\n        /* \"#utility.yul\":9569:9570   */\n      dup3\n        /* \"#utility.yul\":9551:9571   */\n      tag_203\n      jump\t// in\n    tag_233:\n        /* \"#utility.yul\":9546:9571   */\n      swap2\n      pop\n        /* \"#utility.yul\":9585:9605   */\n      tag_234\n        /* \"#utility.yul\":9603:9604   */\n      dup4\n        /* \"#utility.yul\":9585:9605   */\n      tag_203\n      jump\t// in\n    tag_234:\n        /* \"#utility.yul\":9580:9605   */\n      swap3\n      pop\n        /* \"#utility.yul\":9739:9740   */\n      dup3\n        /* \"#utility.yul\":9671:9737   */\n      0xffffffffffffffffffffffffffffffffffffffffffffffffffffffffffffffff\n        /* \"#utility.yul\":9667:9741   */\n      sub\n        /* \"#utility.yul\":9664:9665   */\n      dup3\n        /* \"#utility.yul\":9661:9742   */\n      gt\n        /* \"#utility.yul\":9658:9660   */\n      iszero\n      tag_235\n      jumpi\n        /* \"#utility.yul\":9745:9763   */\n      tag_236\n      tag_237\n      jump\t// in\n    tag_236:\n        /* \"#utility.yul\":9658:9660   */\n    tag_235:\n        /* \"#utility.yul\":9789:9790   */\n      dup3\n        /* \"#utility.yul\":9786:9787   */\n      dup3\n        /* \"#utility.yul\":9782:9791   */\n      add\n        /* \"#utility.yul\":9775:9791   */\n      swap1\n      pop\n        /* \"#utility.yul\":9536:9797   */\n      swap3\n      swap2\n      pop\n      pop\n      jump\t// out\n        /* \"#utility.yul\":9803:9899   */\n    tag_238:\n      0x00\n        /* \"#utility.yul\":9869:9893   */\n      tag_240\n        /* \"#utility.yul\":9887:9892   */\n      dup3\n        /* \"#utility.yul\":9869:9893   */\n      tag_241\n      jump\t// in\n    tag_240:\n        /* \"#utility.yul\":9858:9893   */\n      swap1\n      pop\n        /* \"#utility.yul\":9848:9899   */\n      swap2\n      swap1\n      pop\n      jump\t// out\n        /* \"#utility.yul\":9905:9995   */\n    tag_168:\n      0x00\n        /* \"#utility.yul\":9982:9987   */\n      dup2\n        /* \"#utility.yul\":9975:9988   */\n      iszero\n        /* \"#utility.yul\":9968:9989   */\n      iszero\n        /* \"#utility.yul\":9957:9989   */\n      swap1\n      pop\n        /* \"#utility.yul\":9947:9995   */\n      swap2\n      swap1\n      pop\n      jump\t// out\n        /* \"#utility.yul\":10001:10127   */\n    tag_241:\n      0x00\n        /* \"#utility.yul\":10078:10120   */\n      0xffffffffffffffffffffffffffffffffffffffff\n        /* \"#utility.yul\":10071:10076   */\n      dup3\n        /* \"#utility.yul\":10067:10121   */\n      and\n        /* \"#utility.yul\":10056:10121   */\n      swap1\n      pop\n        /* \"#utility.yul\":10046:10127   */\n      swap2\n      swap1\n      pop\n      jump\t// out\n        /* \"#utility.yul\":10133:10210   */\n    tag_203:\n      0x00\n        /* \"#utility.yul\":10199:10204   */\n      dup2\n        /* \"#utility.yul\":10188:10204   */\n      swap1\n      pop\n        /* \"#utility.yul\":10178:10210   */\n      swap2\n      swap1\n      pop\n      jump\t// out\n        /* \"#utility.yul\":10216:10302   */\n    tag_207:\n      0x00\n        /* \"#utility.yul\":10291:10295   */\n      0xff\n        /* \"#utility.yul\":10284:10289   */\n      dup3\n        /* \"#utility.yul\":10280:10296   */\n      and\n        /* \"#utility.yul\":10269:10296   */\n      swap1\n      pop\n        /* \"#utility.yul\":10259:10302   */\n      swap2\n      swap1\n      pop\n      jump\t// out\n        /* \"#utility.yul\":10308:10615   */\n    tag_176:\n        /* \"#utility.yul\":10376:10377   */\n      0x00\n        /* \"#utility.yul\":10386:10499   */\n    tag_247:\n        /* \"#utility.yul\":10400:10406   */\n      dup4\n        /* \"#utility.yul\":10397:10398   */\n      dup2\n        /* \"#utility.yul\":10394:10407   */\n      lt\n        /* \"#utility.yul\":10386:10499   */\n      iszero\n      tag_249\n      jumpi\n        /* \"#utility.yul\":10485:10486   */\n      dup1\n        /* \"#utility.yul\":10480:10483   */\n      dup3\n        /* \"#utility.yul\":10476:10487   */\n      add\n        /* \"#utility.yul\":10470:10488   */\n      mload\n        /* \"#utility.yul\":10466:10467   */\n      dup2\n        /* \"#utility.yul\":10461:10464   */\n      dup5\n        /* \"#utility.yul\":10457:10468   */\n      add\n        /* \"#utility.yul\":10450:10489   */\n      mstore\n        /* \"#utility.yul\":10422:10424   */\n      0x20\n        /* \"#utility.yul\":10419:10420   */\n      dup2\n        /* \"#utility.yul\":10415:10425   */\n      add\n        /* \"#utility.yul\":10410:10425   */\n      swap1\n      pop\n        /* \"#utility.yul\":10386:10499   */\n      jump(tag_247)\n    tag_249:\n        /* \"#utility.yul\":10517:10523   */\n      dup4\n        /* \"#utility.yul\":10514:10515   */\n      dup2\n        /* \"#utility.yul\":10511:10524   */\n      gt\n        /* \"#utility.yul\":10508:10510   */\n      iszero\n      tag_250\n      jumpi\n        /* \"#utility.yul\":10597:10598   */\n      0x00\n        /* \"#utility.yul\":10588:10594   */\n      dup5\n        /* \"#utility.yul\":10583:10586   */\n      dup5\n        /* \"#utility.yul\":10579:10595   */\n      add\n        /* \"#utility.yul\":10572:10599   */\n      mstore\n        /* \"#utility.yul\":10508:10510   */\n    tag_250:\n        /* \"#utility.yul\":10357:10615   */\n      pop\n      pop\n      pop\n      pop\n      jump\t// out\n        /* \"#utility.yul\":10621:10941   */\n    tag_65:\n      0x00\n        /* \"#utility.yul\":10702:10703   */\n      0x02\n        /* \"#utility.yul\":10696:10700   */\n      dup3\n        /* \"#utility.yul\":10692:10704   */\n      div\n        /* \"#utility.yul\":10682:10704   */\n      swap1\n      pop\n        /* \"#utility.yul\":10749:10750   */\n      0x01\n        /* \"#utility.yul\":10743:10747   */\n      dup3\n        /* \"#utility.yul\":10739:10751   */\n      and\n        /* \"#utility.yul\":10770:10788   */\n      dup1\n        /* \"#utility.yul\":10760:10762   */\n      tag_252\n      jumpi\n        /* \"#utility.yul\":10826:10830   */\n      0x7f\n        /* \"#utility.yul\":10818:10824   */\n      dup3\n        /* \"#utility.yul\":10814:10831   */\n      and\n        /* \"#utility.yul\":10804:10831   */\n      swap2\n      pop\n        /* \"#utility.yul\":10760:10762   */\n    tag_252:\n        /* \"#utility.yul\":10888:10890   */\n      0x20\n        /* \"#utility.yul\":10880:10886   */\n      dup3\n        /* \"#utility.yul\":10877:10891   */\n      lt\n        /* \"#utility.yul\":10857:10875   */\n      dup2\n        /* \"#utility.yul\":10854:10892   */\n      eq\n        /* \"#utility.yul\":10851:10853   */\n      iszero\n      tag_253\n      jumpi\n        /* \"#utility.yul\":10907:10925   */\n      tag_254\n      tag_255\n      jump\t// in\n    tag_254:\n        /* \"#utility.yul\":10851:10853   */\n    tag_253:\n        /* \"#utility.yul\":10672:10941   */\n      pop\n      swap2\n      swap1\n      pop\n      jump\t// out\n        /* \"#utility.yul\":10947:11127   */\n    tag_237:\n        /* \"#utility.yul\":10995:11072   */\n      0x4e487b7100000000000000000000000000000000000000000000000000000000\n        /* \"#utility.yul\":10992:10993   */\n      0x00\n        /* \"#utility.yul\":10985:11073   */\n      mstore\n        /* \"#utility.yul\":11092:11096   */\n      0x11\n        /* \"#utility.yul\":11089:11090   */\n      0x04\n        /* \"#utility.yul\":11082:11097   */\n      mstore\n        /* \"#utility.yul\":11116:11120   */\n      0x24\n        /* \"#utility.yul\":11113:11114   */\n      0x00\n        /* \"#utility.yul\":11106:11121   */\n      revert\n        /* \"#utility.yul\":11133:11313   */\n    tag_255:\n        /* \"#utility.yul\":11181:11258   */\n      0x4e487b7100000000000000000000000000000000000000000000000000000000\n        /* \"#utility.yul\":11178:11179   */\n      0x00\n        /* \"#utility.yul\":11171:11259   */\n      mstore\n        /* \"#utility.yul\":11278:11282   */\n      0x22\n        /* \"#utility.yul\":11275:11276   */\n      0x04\n        /* \"#utility.yul\":11268:11283   */\n      mstore\n        /* \"#utility.yul\":11302:11306   */\n      0x24\n        /* \"#utility.yul\":11299:11300   */\n      0x00\n        /* \"#utility.yul\":11292:11307   */\n      revert\n        /* \"#utility.yul\":11319:11421   */\n    tag_178:\n      0x00\n        /* \"#utility.yul\":11411:11413   */\n      0x1f\n        /* \"#utility.yul\":11407:11414   */\n      not\n        /* \"#utility.yul\":11402:11404   */\n      0x1f\n        /* \"#utility.yul\":11395:11400   */\n      dup4\n        /* \"#utility.yul\":11391:11405   */\n      add\n        /* \"#utility.yul\":11387:11415   */\n      and\n        /* \"#utility.yul\":11377:11415   */\n      swap1\n      pop\n        /* \"#utility.yul\":11367:11421   */\n      swap2\n      swap1\n      pop\n      jump\t// out\n        /* \"#utility.yul\":11427:11549   */\n    tag_144:\n        /* \"#utility.yul\":11500:11524   */\n      tag_260\n        /* \"#utility.yul\":11518:11523   */\n      dup2\n        /* \"#utility.yul\":11500:11524   */\n      tag_238\n      jump\t// in\n    tag_260:\n        /* \"#utility.yul\":11493:11498   */\n      dup2\n        /* \"#utility.yul\":11490:11525   */\n      eq\n        /* \"#utility.yul\":11480:11482   */\n      tag_261\n      jumpi\n        /* \"#utility.yul\":11539:11540   */\n      0x00\n        /* \"#utility.yul\":11536:11537   */\n      dup1\n        /* \"#utility.yul\":11529:11541   */\n      revert\n        /* \"#utility.yul\":11480:11482   */\n    tag_261:\n        /* \"#utility.yul\":11470:11549   */\n      pop\n      jump\t// out\n        /* \"#utility.yul\":11555:11677   */\n    tag_148:\n        /* \"#utility.yul\":11628:11652   */\n      tag_263\n        /* \"#utility.yul\":11646:11651   */\n      dup2\n        /* \"#utility.yul\":11628:11652   */\n      tag_203\n      jump\t// in\n    tag_263:\n        /* \"#utility.yul\":11621:11626   */\n      dup2\n        /* \"#utility.yul\":11618:11653   */\n      eq\n        /* \"#utility.yul\":11608:11610   */\n      tag_264\n      jumpi\n        /* \"#utility.yul\":11667:11668   */\n      0x00\n        /* \"#utility.yul\":11664:11665   */\n      dup1\n        /* \"#utility.yul\":11657:11669   */\n      revert\n        /* \"#utility.yul\":11608:11610   */\n    tag_264:\n        /* \"#utility.yul\":11598:11677   */\n      pop\n      jump\t// out\n\n    auxdata: 0xa2646970667358221220a5c96c9ca8a8ad244b65d4773177620dd0198a4eabf594bb84e6299b10ed961b64736f6c63430008000033\n}\n",
				"bytecode": {
					"linkReferences": {},
					"object": "60806040523480156200001157600080fd5b5060405162001a4238038062001a42833981810160405281019062000037919062000359565b818181600390805190602001906200005192919062000237565b5080600490805190602001906200006a92919062000237565b505050620000ae3362000082620000b660201b60201c565b60ff16600a6200009391906200058e565b6103e8620000a29190620006cb565b620000bf60201b60201c565b50506200083c565b60006012905090565b600073ffffffffffffffffffffffffffffffffffffffff168273ffffffffffffffffffffffffffffffffffffffff16141562000132576040517f08c379a000000000000000000000000000000000000000000000000000000000815260040162000129906200041f565b60405180910390fd5b62000146600083836200022d60201b60201c565b80600260008282546200015a9190620004d6565b92505081905550806000808473ffffffffffffffffffffffffffffffffffffffff1673ffffffffffffffffffffffffffffffffffffffff168152602001908152602001600020600082825401925050819055508173ffffffffffffffffffffffffffffffffffffffff16600073ffffffffffffffffffffffffffffffffffffffff167fddf252ad1be2c89b69c2b068fc378daa952ba7f163c4a11628f55a4df523b3ef836040516200020d919062000441565b60405180910390a362000229600083836200023260201b60201c565b5050565b505050565b505050565b82805462000245906200076c565b90600052602060002090601f016020900481019282620002695760008555620002b5565b82601f106200028457805160ff1916838001178555620002b5565b82800160010185558215620002b5579182015b82811115620002b457825182559160200191906001019062000297565b5b509050620002c49190620002c8565b5090565b5b80821115620002e3576000816000905550600101620002c9565b5090565b6000620002fe620002f88462000492565b6200045e565b9050828152602081018484840111156200031757600080fd5b6200032484828562000736565b509392505050565b600082601f8301126200033e57600080fd5b815162000350848260208601620002e7565b91505092915050565b600080604083850312156200036d57600080fd5b600083015167ffffffffffffffff8111156200038857600080fd5b62000396858286016200032c565b925050602083015167ffffffffffffffff811115620003b457600080fd5b620003c2858286016200032c565b9150509250929050565b6000620003db601f83620004c5565b91507f45524332303a206d696e7420746f20746865207a65726f2061646472657373006000830152602082019050919050565b62000419816200072c565b82525050565b600060208201905081810360008301526200043a81620003cc565b9050919050565b60006020820190506200045860008301846200040e565b92915050565b6000604051905081810181811067ffffffffffffffff8211171562000488576200048762000800565b5b8060405250919050565b600067ffffffffffffffff821115620004b057620004af62000800565b5b601f19601f8301169050602081019050919050565b600082825260208201905092915050565b6000620004e3826200072c565b9150620004f0836200072c565b9250827fffffffffffffffffffffffffffffffffffffffffffffffffffffffffffffffff03821115620005285762000527620007a2565b5b828201905092915050565b6000808291508390505b600185111562000585578086048111156200055d576200055c620007a2565b5b60018516156200056d5780820291505b80810290506200057d856200082f565b94506200053d565b94509492505050565b60006200059b826200072c565b9150620005a8836200072c565b9250620005d77fffffffffffffffffffffffffffffffffffffffffffffffffffffffffffffffff8484620005df565b905092915050565b600082620005f15760019050620006c4565b81620006015760009050620006c4565b81600181146200061a576002811462000625576200065b565b6001915050620006c4565b60ff8411156200063a5762000639620007a2565b5b8360020a915084821115620006545762000653620007a2565b5b50620006c4565b5060208310610133831016604e8410600b8410161715620006955782820a9050838111156200068f576200068e620007a2565b5b620006c4565b620006a4848484600162000533565b92509050818404811115620006be57620006bd620007a2565b5b81810290505b9392505050565b6000620006d8826200072c565b9150620006e5836200072c565b9250817fffffffffffffffffffffffffffffffffffffffffffffffffffffffffffffffff0483118215151615620007215762000720620007a2565b5b828202905092915050565b6000819050919050565b60005b838110156200075657808201518184015260208101905062000739565b8381111562000766576000848401525b50505050565b600060028204905060018216806200078557607f821691505b602082108114156200079c576200079b620007d1565b5b50919050565b7f4e487b7100000000000000000000000000000000000000000000000000000000600052601160045260246000fd5b7f4e487b7100000000000000000000000000000000000000000000000000000000600052602260045260246000fd5b7f4e487b7100000000000000000000000000000000000000000000000000000000600052604160045260246000fd5b60008160011c9050919050565b6111f6806200084c6000396000f3fe608060405234801561001057600080fd5b50600436106100a95760003560e01c80633950935111610071578063395093511461016857806370a082311461019857806395d89b41146101c8578063a457c2d7146101e6578063a9059cbb14610216578063dd62ed3e14610246576100a9565b806306fdde03146100ae578063095ea7b3146100cc57806318160ddd146100fc57806323b872dd1461011a578063313ce5671461014a575b600080fd5b6100b6610276565b6040516100c39190610ebf565b60405180910390f35b6100e660048036038101906100e19190610b5e565b610308565b6040516100f39190610ea4565b60405180910390f35b61010461032b565b6040516101119190610fc1565b60405180910390f35b610134600480360381019061012f9190610b0f565b610335565b6040516101419190610ea4565b60405180910390f35b610152610364565b60405161015f9190610fdc565b60405180910390f35b610182600480360381019061017d9190610b5e565b61036d565b60405161018f9190610ea4565b60405180910390f35b6101b260048036038101906101ad9190610aaa565b6103a4565b6040516101bf9190610fc1565b60405180910390f35b6101d06103ec565b6040516101dd9190610ebf565b60405180910390f35b61020060048036038101906101fb9190610b5e565b61047e565b60405161020d9190610ea4565b60405180910390f35b610230600480360381019061022b9190610b5e565b6104f5565b60405161023d9190610ea4565b60405180910390f35b610260600480360381019061025b9190610ad3565b610518565b60405161026d9190610fc1565b60405180910390f35b606060038054610285906110f1565b80601f01602080910402602001604051908101604052809291908181526020018280546102b1906110f1565b80156102fe5780601f106102d3576101008083540402835291602001916102fe565b820191906000526020600020905b8154815290600101906020018083116102e157829003601f168201915b5050505050905090565b60008061031361059f565b90506103208185856105a7565b600191505092915050565b6000600254905090565b60008061034061059f565b905061034d858285610772565b6103588585856107fe565b60019150509392505050565b60006012905090565b60008061037861059f565b905061039981858561038a8589610518565b6103949190611013565b6105a7565b600191505092915050565b60008060008373ffffffffffffffffffffffffffffffffffffffff1673ffffffffffffffffffffffffffffffffffffffff168152602001908152602001600020549050919050565b6060600480546103fb906110f1565b80601f0160208091040260200160405190810160405280929190818152602001828054610427906110f1565b80156104745780601f1061044957610100808354040283529160200191610474565b820191906000526020600020905b81548152906001019060200180831161045757829003601f168201915b5050505050905090565b60008061048961059f565b905060006104978286610518565b9050838110156104dc576040517f08c379a00000000000000000000000000000000000000000000000000000000081526004016104d390610fa1565b60405180910390fd5b6104e982868684036105a7565b60019250505092915050565b60008061050061059f565b905061050d8185856107fe565b600191505092915050565b6000600160008473ffffffffffffffffffffffffffffffffffffffff1673ffffffffffffffffffffffffffffffffffffffff16815260200190815260200160002060008373ffffffffffffffffffffffffffffffffffffffff1673ffffffffffffffffffffffffffffffffffffffff16815260200190815260200160002054905092915050565b600033905090565b600073ffffffffffffffffffffffffffffffffffffffff168373ffffffffffffffffffffffffffffffffffffffff161415610617576040517f08c379a000000000000000000000000000000000000000000000000000000000815260040161060e90610f81565b60405180910390fd5b600073ffffffffffffffffffffffffffffffffffffffff168273ffffffffffffffffffffffffffffffffffffffff161415610687576040517f08c379a000000000000000000000000000000000000000000000000000000000815260040161067e90610f01565b60405180910390fd5b80600160008573ffffffffffffffffffffffffffffffffffffffff1673ffffffffffffffffffffffffffffffffffffffff16815260200190815260200160002060008473ffffffffffffffffffffffffffffffffffffffff1673ffffffffffffffffffffffffffffffffffffffff168152602001908152602001600020819055508173ffffffffffffffffffffffffffffffffffffffff168373ffffffffffffffffffffffffffffffffffffffff167f8c5be1e5ebec7d5bd14f71427d1e84f3dd0314c0f7b2291e5b200ac8c7c3b925836040516107659190610fc1565b60405180910390a3505050565b600061077e8484610518565b90507fffffffffffffffffffffffffffffffffffffffffffffffffffffffffffffffff81146107f857818110156107ea576040517f08c379a00000000000000000000000000000000000000000000000000000000081526004016107e190610f21565b60405180910390fd5b6107f784848484036105a7565b5b50505050565b600073ffffffffffffffffffffffffffffffffffffffff168373ffffffffffffffffffffffffffffffffffffffff16141561086e576040517f08c379a000000000000000000000000000000000000000000000000000000000815260040161086590610f61565b60405180910390fd5b600073ffffffffffffffffffffffffffffffffffffffff168273ffffffffffffffffffffffffffffffffffffffff1614156108de576040517f08c379a00000000000000000000000000000000000000000000000000000000081526004016108d590610ee1565b60405180910390fd5b6108e9838383610a76565b60008060008573ffffffffffffffffffffffffffffffffffffffff1673ffffffffffffffffffffffffffffffffffffffff1681526020019081526020016000205490508181101561096f576040517f08c379a000000000000000000000000000000000000000000000000000000000815260040161096690610f41565b60405180910390fd5b8181036000808673ffffffffffffffffffffffffffffffffffffffff1673ffffffffffffffffffffffffffffffffffffffff16815260200190815260200160002081905550816000808573ffffffffffffffffffffffffffffffffffffffff1673ffffffffffffffffffffffffffffffffffffffff168152602001908152602001600020600082825401925050819055508273ffffffffffffffffffffffffffffffffffffffff168473ffffffffffffffffffffffffffffffffffffffff167fddf252ad1be2c89b69c2b068fc378daa952ba7f163c4a11628f55a4df523b3ef84604051610a5d9190610fc1565b60405180910390a3610a70848484610a7b565b50505050565b505050565b505050565b600081359050610a8f81611192565b92915050565b600081359050610aa4816111a9565b92915050565b600060208284031215610abc57600080fd5b6000610aca84828501610a80565b91505092915050565b60008060408385031215610ae657600080fd5b6000610af485828601610a80565b9250506020610b0585828601610a80565b9150509250929050565b600080600060608486031215610b2457600080fd5b6000610b3286828701610a80565b9350506020610b4386828701610a80565b9250506040610b5486828701610a95565b9150509250925092565b60008060408385031215610b7157600080fd5b6000610b7f85828601610a80565b9250506020610b9085828601610a95565b9150509250929050565b610ba38161107b565b82525050565b6000610bb482610ff7565b610bbe8185611002565b9350610bce8185602086016110be565b610bd781611181565b840191505092915050565b6000610bef602383611002565b91507f45524332303a207472616e7366657220746f20746865207a65726f206164647260008301527f65737300000000000000000000000000000000000000000000000000000000006020830152604082019050919050565b6000610c55602283611002565b91507f45524332303a20617070726f766520746f20746865207a65726f20616464726560008301527f73730000000000000000000000000000000000000000000000000000000000006020830152604082019050919050565b6000610cbb601d83611002565b91507f45524332303a20696e73756666696369656e7420616c6c6f77616e63650000006000830152602082019050919050565b6000610cfb602683611002565b91507f45524332303a207472616e7366657220616d6f756e742065786365656473206260008301527f616c616e636500000000000000000000000000000000000000000000000000006020830152604082019050919050565b6000610d61602583611002565b91507f45524332303a207472616e736665722066726f6d20746865207a65726f20616460008301527f64726573730000000000000000000000000000000000000000000000000000006020830152604082019050919050565b6000610dc7602483611002565b91507f45524332303a20617070726f76652066726f6d20746865207a65726f2061646460008301527f72657373000000000000000000000000000000000000000000000000000000006020830152604082019050919050565b6000610e2d602583611002565b91507f45524332303a2064656372656173656420616c6c6f77616e63652062656c6f7760008301527f207a65726f0000000000000000000000000000000000000000000000000000006020830152604082019050919050565b610e8f816110a7565b82525050565b610e9e816110b1565b82525050565b6000602082019050610eb96000830184610b9a565b92915050565b60006020820190508181036000830152610ed98184610ba9565b905092915050565b60006020820190508181036000830152610efa81610be2565b9050919050565b60006020820190508181036000830152610f1a81610c48565b9050919050565b60006020820190508181036000830152610f3a81610cae565b9050919050565b60006020820190508181036000830152610f5a81610cee565b9050919050565b60006020820190508181036000830152610f7a81610d54565b9050919050565b60006020820190508181036000830152610f9a81610dba565b9050919050565b60006020820190508181036000830152610fba81610e20565b9050919050565b6000602082019050610fd66000830184610e86565b92915050565b6000602082019050610ff16000830184610e95565b92915050565b600081519050919050565b600082825260208201905092915050565b600061101e826110a7565b9150611029836110a7565b9250827fffffffffffffffffffffffffffffffffffffffffffffffffffffffffffffffff0382111561105e5761105d611123565b5b828201905092915050565b600061107482611087565b9050919050565b60008115159050919050565b600073ffffffffffffffffffffffffffffffffffffffff82169050919050565b6000819050919050565b600060ff82169050919050565b60005b838110156110dc5780820151818401526020810190506110c1565b838111156110eb576000848401525b50505050565b6000600282049050600182168061110957607f821691505b6020821081141561111d5761111c611152565b5b50919050565b7f4e487b7100000000000000000000000000000000000000000000000000000000600052601160045260246000fd5b7f4e487b7100000000000000000000000000000000000000000000000000000000600052602260045260246000fd5b6000601f19601f8301169050919050565b61119b81611069565b81146111a657600080fd5b50565b6111b2816110a7565b81146111bd57600080fd5b5056fea2646970667358221220a5c96c9ca8a8ad244b65d4773177620dd0198a4eabf594bb84e6299b10ed961b64736f6c63430008000033",
					"opcodes": "PUSH1 0x80 PUSH1 0x40 MSTORE CALLVALUE DUP1 ISZERO PUSH3 0x11 JUMPI PUSH1 0x0 DUP1 REVERT JUMPDEST POP PUSH1 0x40 MLOAD PUSH3 0x1A42 CODESIZE SUB DUP1 PUSH3 0x1A42 DUP4 CODECOPY DUP2 DUP2 ADD PUSH1 0x40 MSTORE DUP2 ADD SWAP1 PUSH3 0x37 SWAP2 SWAP1 PUSH3 0x359 JUMP JUMPDEST DUP2 DUP2 DUP2 PUSH1 0x3 SWAP1 DUP1 MLOAD SWAP1 PUSH1 0x20 ADD SWAP1 PUSH3 0x51 SWAP3 SWAP2 SWAP1 PUSH3 0x237 JUMP JUMPDEST POP DUP1 PUSH1 0x4 SWAP1 DUP1 MLOAD SWAP1 PUSH1 0x20 ADD SWAP1 PUSH3 0x6A SWAP3 SWAP2 SWAP1 PUSH3 0x237 JUMP JUMPDEST POP POP POP PUSH3 0xAE CALLER PUSH3 0x82 PUSH3 0xB6 PUSH1 0x20 SHL PUSH1 0x20 SHR JUMP JUMPDEST PUSH1 0xFF AND PUSH1 0xA PUSH3 0x93 SWAP2 SWAP1 PUSH3 0x58E JUMP JUMPDEST PUSH2 0x3E8 PUSH3 0xA2 SWAP2 SWAP1 PUSH3 0x6CB JUMP JUMPDEST PUSH3 0xBF PUSH1 0x20 SHL PUSH1 0x20 SHR JUMP JUMPDEST POP POP PUSH3 0x83C JUMP JUMPDEST PUSH1 0x0 PUSH1 0x12 SWAP1 POP SWAP1 JUMP JUMPDEST PUSH1 0x0 PUSH20 0xFFFFFFFFFFFFFFFFFFFFFFFFFFFFFFFFFFFFFFFF AND DUP3 PUSH20 0xFFFFFFFFFFFFFFFFFFFFFFFFFFFFFFFFFFFFFFFF AND EQ ISZERO PUSH3 0x132 JUMPI PUSH1 0x40 MLOAD PUSH32 0x8C379A000000000000000000000000000000000000000000000000000000000 DUP2 MSTORE PUSH1 0x4 ADD PUSH3 0x129 SWAP1 PUSH3 0x41F JUMP JUMPDEST PUSH1 0x40 MLOAD DUP1 SWAP2 SUB SWAP1 REVERT JUMPDEST PUSH3 0x146 PUSH1 0x0 DUP4 DUP4 PUSH3 0x22D PUSH1 0x20 SHL PUSH1 0x20 SHR JUMP JUMPDEST DUP1 PUSH1 0x2 PUSH1 0x0 DUP3 DUP3 SLOAD PUSH3 0x15A SWAP2 SWAP1 PUSH3 0x4D6 JUMP JUMPDEST SWAP3 POP POP DUP2 SWAP1 SSTORE POP DUP1 PUSH1 0x0 DUP1 DUP5 PUSH20 0xFFFFFFFFFFFFFFFFFFFFFFFFFFFFFFFFFFFFFFFF AND PUSH20 0xFFFFFFFFFFFFFFFFFFFFFFFFFFFFFFFFFFFFFFFF AND DUP2 MSTORE PUSH1 0x20 ADD SWAP1 DUP2 MSTORE PUSH1 0x20 ADD PUSH1 0x0 KECCAK256 PUSH1 0x0 DUP3 DUP3 SLOAD ADD SWAP3 POP POP DUP2 SWAP1 SSTORE POP DUP2 PUSH20 0xFFFFFFFFFFFFFFFFFFFFFFFFFFFFFFFFFFFFFFFF AND PUSH1 0x0 PUSH20 0xFFFFFFFFFFFFFFFFFFFFFFFFFFFFFFFFFFFFFFFF AND PUSH32 0xDDF252AD1BE2C89B69C2B068FC378DAA952BA7F163C4A11628F55A4DF523B3EF DUP4 PUSH1 0x40 MLOAD PUSH3 0x20D SWAP2 SWAP1 PUSH3 0x441 JUMP JUMPDEST PUSH1 0x40 MLOAD DUP1 SWAP2 SUB SWAP1 LOG3 PUSH3 0x229 PUSH1 0x0 DUP4 DUP4 PUSH3 0x232 PUSH1 0x20 SHL PUSH1 0x20 SHR JUMP JUMPDEST POP POP JUMP JUMPDEST POP POP POP JUMP JUMPDEST POP POP POP JUMP JUMPDEST DUP3 DUP1 SLOAD PUSH3 0x245 SWAP1 PUSH3 0x76C JUMP JUMPDEST SWAP1 PUSH1 0x0 MSTORE PUSH1 0x20 PUSH1 0x0 KECCAK256 SWAP1 PUSH1 0x1F ADD PUSH1 0x20 SWAP1 DIV DUP2 ADD SWAP3 DUP3 PUSH3 0x269 JUMPI PUSH1 0x0 DUP6 SSTORE PUSH3 0x2B5 JUMP JUMPDEST DUP3 PUSH1 0x1F LT PUSH3 0x284 JUMPI DUP1 MLOAD PUSH1 0xFF NOT AND DUP4 DUP1 ADD OR DUP6 SSTORE PUSH3 0x2B5 JUMP JUMPDEST DUP3 DUP1 ADD PUSH1 0x1 ADD DUP6 SSTORE DUP3 ISZERO PUSH3 0x2B5 JUMPI SWAP2 DUP3 ADD JUMPDEST DUP3 DUP2 GT ISZERO PUSH3 0x2B4 JUMPI DUP3 MLOAD DUP3 SSTORE SWAP2 PUSH1 0x20 ADD SWAP2 SWAP1 PUSH1 0x1 ADD SWAP1 PUSH3 0x297 JUMP JUMPDEST JUMPDEST POP SWAP1 POP PUSH3 0x2C4 SWAP2 SWAP1 PUSH3 0x2C8 JUMP JUMPDEST POP SWAP1 JUMP JUMPDEST JUMPDEST DUP1 DUP3 GT ISZERO PUSH3 0x2E3 JUMPI PUSH1 0x0 DUP2 PUSH1 0x0 SWAP1 SSTORE POP PUSH1 0x1 ADD PUSH3 0x2C9 JUMP JUMPDEST POP SWAP1 JUMP JUMPDEST PUSH1 0x0 PUSH3 0x2FE PUSH3 0x2F8 DUP5 PUSH3 0x492 JUMP JUMPDEST PUSH3 0x45E JUMP JUMPDEST SWAP1 POP DUP3 DUP2 MSTORE PUSH1 0x20 DUP2 ADD DUP5 DUP5 DUP5 ADD GT ISZERO PUSH3 0x317 JUMPI PUSH1 0x0 DUP1 REVERT JUMPDEST PUSH3 0x324 DUP5 DUP3 DUP6 PUSH3 0x736 JUMP JUMPDEST POP SWAP4 SWAP3 POP POP POP JUMP JUMPDEST PUSH1 0x0 DUP3 PUSH1 0x1F DUP4 ADD SLT PUSH3 0x33E JUMPI PUSH1 0x0 DUP1 REVERT JUMPDEST DUP2 MLOAD PUSH3 0x350 DUP5 DUP3 PUSH1 0x20 DUP7 ADD PUSH3 0x2E7 JUMP JUMPDEST SWAP2 POP POP SWAP3 SWAP2 POP POP JUMP JUMPDEST PUSH1 0x0 DUP1 PUSH1 0x40 DUP4 DUP6 SUB SLT ISZERO PUSH3 0x36D JUMPI PUSH1 0x0 DUP1 REVERT JUMPDEST PUSH1 0x0 DUP4 ADD MLOAD PUSH8 0xFFFFFFFFFFFFFFFF DUP2 GT ISZERO PUSH3 0x388 JUMPI PUSH1 0x0 DUP1 REVERT JUMPDEST PUSH3 0x396 DUP6 DUP3 DUP7 ADD PUSH3 0x32C JUMP JUMPDEST SWAP3 POP POP PUSH1 0x20 DUP4 ADD MLOAD PUSH8 0xFFFFFFFFFFFFFFFF DUP2 GT ISZERO PUSH3 0x3B4 JUMPI PUSH1 0x0 DUP1 REVERT JUMPDEST PUSH3 0x3C2 DUP6 DUP3 DUP7 ADD PUSH3 0x32C JUMP JUMPDEST SWAP2 POP POP SWAP3 POP SWAP3 SWAP1 POP JUMP JUMPDEST PUSH1 0x0 PUSH3 0x3DB PUSH1 0x1F DUP4 PUSH3 0x4C5 JUMP JUMPDEST SWAP2 POP PUSH32 0x45524332303A206D696E7420746F20746865207A65726F206164647265737300 PUSH1 0x0 DUP4 ADD MSTORE PUSH1 0x20 DUP3 ADD SWAP1 POP SWAP2 SWAP1 POP JUMP JUMPDEST PUSH3 0x419 DUP2 PUSH3 0x72C JUMP JUMPDEST DUP3 MSTORE POP POP JUMP JUMPDEST PUSH1 0x0 PUSH1 0x20 DUP3 ADD SWAP1 POP DUP2 DUP2 SUB PUSH1 0x0 DUP4 ADD MSTORE PUSH3 0x43A DUP2 PUSH3 0x3CC JUMP JUMPDEST SWAP1 POP SWAP2 SWAP1 POP JUMP JUMPDEST PUSH1 0x0 PUSH1 0x20 DUP3 ADD SWAP1 POP PUSH3 0x458 PUSH1 0x0 DUP4 ADD DUP5 PUSH3 0x40E JUMP JUMPDEST SWAP3 SWAP2 POP POP JUMP JUMPDEST PUSH1 0x0 PUSH1 0x40 MLOAD SWAP1 POP DUP2 DUP2 ADD DUP2 DUP2 LT PUSH8 0xFFFFFFFFFFFFFFFF DUP3 GT OR ISZERO PUSH3 0x488 JUMPI PUSH3 0x487 PUSH3 0x800 JUMP JUMPDEST JUMPDEST DUP1 PUSH1 0x40 MSTORE POP SWAP2 SWAP1 POP JUMP JUMPDEST PUSH1 0x0 PUSH8 0xFFFFFFFFFFFFFFFF DUP3 GT ISZERO PUSH3 0x4B0 JUMPI PUSH3 0x4AF PUSH3 0x800 JUMP JUMPDEST JUMPDEST PUSH1 0x1F NOT PUSH1 0x1F DUP4 ADD AND SWAP1 POP PUSH1 0x20 DUP2 ADD SWAP1 POP SWAP2 SWAP1 POP JUMP JUMPDEST PUSH1 0x0 DUP3 DUP3 MSTORE PUSH1 0x20 DUP3 ADD SWAP1 POP SWAP3 SWAP2 POP POP JUMP JUMPDEST PUSH1 0x0 PUSH3 0x4E3 DUP3 PUSH3 0x72C JUMP JUMPDEST SWAP2 POP PUSH3 0x4F0 DUP4 PUSH3 0x72C JUMP JUMPDEST SWAP3 POP DUP3 PUSH32 0xFFFFFFFFFFFFFFFFFFFFFFFFFFFFFFFFFFFFFFFFFFFFFFFFFFFFFFFFFFFFFFFF SUB DUP3 GT ISZERO PUSH3 0x528 JUMPI PUSH3 0x527 PUSH3 0x7A2 JUMP JUMPDEST JUMPDEST DUP3 DUP3 ADD SWAP1 POP SWAP3 SWAP2 POP POP JUMP JUMPDEST PUSH1 0x0 DUP1 DUP3 SWAP2 POP DUP4 SWAP1 POP JUMPDEST PUSH1 0x1 DUP6 GT ISZERO PUSH3 0x585 JUMPI DUP1 DUP7 DIV DUP2 GT ISZERO PUSH3 0x55D JUMPI PUSH3 0x55C PUSH3 0x7A2 JUMP JUMPDEST JUMPDEST PUSH1 0x1 DUP6 AND ISZERO PUSH3 0x56D JUMPI DUP1 DUP3 MUL SWAP2 POP JUMPDEST DUP1 DUP2 MUL SWAP1 POP PUSH3 0x57D DUP6 PUSH3 0x82F JUMP JUMPDEST SWAP5 POP PUSH3 0x53D JUMP JUMPDEST SWAP5 POP SWAP5 SWAP3 POP POP POP JUMP JUMPDEST PUSH1 0x0 PUSH3 0x59B DUP3 PUSH3 0x72C JUMP JUMPDEST SWAP2 POP PUSH3 0x5A8 DUP4 PUSH3 0x72C JUMP JUMPDEST SWAP3 POP PUSH3 0x5D7 PUSH32 0xFFFFFFFFFFFFFFFFFFFFFFFFFFFFFFFFFFFFFFFFFFFFFFFFFFFFFFFFFFFFFFFF DUP5 DUP5 PUSH3 0x5DF JUMP JUMPDEST SWAP1 POP SWAP3 SWAP2 POP POP JUMP JUMPDEST PUSH1 0x0 DUP3 PUSH3 0x5F1 JUMPI PUSH1 0x1 SWAP1 POP PUSH3 0x6C4 JUMP JUMPDEST DUP2 PUSH3 0x601 JUMPI PUSH1 0x0 SWAP1 POP PUSH3 0x6C4 JUMP JUMPDEST DUP2 PUSH1 0x1 DUP2 EQ PUSH3 0x61A JUMPI PUSH1 0x2 DUP2 EQ PUSH3 0x625 JUMPI PUSH3 0x65B JUMP JUMPDEST PUSH1 0x1 SWAP2 POP POP PUSH3 0x6C4 JUMP JUMPDEST PUSH1 0xFF DUP5 GT ISZERO PUSH3 0x63A JUMPI PUSH3 0x639 PUSH3 0x7A2 JUMP JUMPDEST JUMPDEST DUP4 PUSH1 0x2 EXP SWAP2 POP DUP5 DUP3 GT ISZERO PUSH3 0x654 JUMPI PUSH3 0x653 PUSH3 0x7A2 JUMP JUMPDEST JUMPDEST POP PUSH3 0x6C4 JUMP JUMPDEST POP PUSH1 0x20 DUP4 LT PUSH2 0x133 DUP4 LT AND PUSH1 0x4E DUP5 LT PUSH1 0xB DUP5 LT AND OR ISZERO PUSH3 0x695 JUMPI DUP3 DUP3 EXP SWAP1 POP DUP4 DUP2 GT ISZERO PUSH3 0x68F JUMPI PUSH3 0x68E PUSH3 0x7A2 JUMP JUMPDEST JUMPDEST PUSH3 0x6C4 JUMP JUMPDEST PUSH3 0x6A4 DUP5 DUP5 DUP5 PUSH1 0x1 PUSH3 0x533 JUMP JUMPDEST SWAP3 POP SWAP1 POP DUP2 DUP5 DIV DUP2 GT ISZERO PUSH3 0x6BE JUMPI PUSH3 0x6BD PUSH3 0x7A2 JUMP JUMPDEST JUMPDEST DUP2 DUP2 MUL SWAP1 POP JUMPDEST SWAP4 SWAP3 POP POP POP JUMP JUMPDEST PUSH1 0x0 PUSH3 0x6D8 DUP3 PUSH3 0x72C JUMP JUMPDEST SWAP2 POP PUSH3 0x6E5 DUP4 PUSH3 0x72C JUMP JUMPDEST SWAP3 POP DUP2 PUSH32 0xFFFFFFFFFFFFFFFFFFFFFFFFFFFFFFFFFFFFFFFFFFFFFFFFFFFFFFFFFFFFFFFF DIV DUP4 GT DUP3 ISZERO ISZERO AND ISZERO PUSH3 0x721 JUMPI PUSH3 0x720 PUSH3 0x7A2 JUMP JUMPDEST JUMPDEST DUP3 DUP3 MUL SWAP1 POP SWAP3 SWAP2 POP POP JUMP JUMPDEST PUSH1 0x0 DUP2 SWAP1 POP SWAP2 SWAP1 POP JUMP JUMPDEST PUSH1 0x0 JUMPDEST DUP4 DUP2 LT ISZERO PUSH3 0x756 JUMPI DUP1 DUP3 ADD MLOAD DUP2 DUP5 ADD MSTORE PUSH1 0x20 DUP2 ADD SWAP1 POP PUSH3 0x739 JUMP JUMPDEST DUP4 DUP2 GT ISZERO PUSH3 0x766 JUMPI PUSH1 0x0 DUP5 DUP5 ADD MSTORE JUMPDEST POP POP POP POP JUMP JUMPDEST PUSH1 0x0 PUSH1 0x2 DUP3 DIV SWAP1 POP PUSH1 0x1 DUP3 AND DUP1 PUSH3 0x785 JUMPI PUSH1 0x7F DUP3 AND SWAP2 POP JUMPDEST PUSH1 0x20 DUP3 LT DUP2 EQ ISZERO PUSH3 0x79C JUMPI PUSH3 0x79B PUSH3 0x7D1 JUMP JUMPDEST JUMPDEST POP SWAP2 SWAP1 POP JUMP JUMPDEST PUSH32 0x4E487B7100000000000000000000000000000000000000000000000000000000 PUSH1 0x0 MSTORE PUSH1 0x11 PUSH1 0x4 MSTORE PUSH1 0x24 PUSH1 0x0 REVERT JUMPDEST PUSH32 0x4E487B7100000000000000000000000000000000000000000000000000000000 PUSH1 0x0 MSTORE PUSH1 0x22 PUSH1 0x4 MSTORE PUSH1 0x24 PUSH1 0x0 REVERT JUMPDEST PUSH32 0x4E487B7100000000000000000000000000000000000000000000000000000000 PUSH1 0x0 MSTORE PUSH1 0x41 PUSH1 0x4 MSTORE PUSH1 0x24 PUSH1 0x0 REVERT JUMPDEST PUSH1 0x0 DUP2 PUSH1 0x1 SHR SWAP1 POP SWAP2 SWAP1 POP JUMP JUMPDEST PUSH2 0x11F6 DUP1 PUSH3 0x84C PUSH1 0x0 CODECOPY PUSH1 0x0 RETURN INVALID PUSH1 0x80 PUSH1 0x40 MSTORE CALLVALUE DUP1 ISZERO PUSH2 0x10 JUMPI PUSH1 0x0 DUP1 REVERT JUMPDEST POP PUSH1 0x4 CALLDATASIZE LT PUSH2 0xA9 JUMPI PUSH1 0x0 CALLDATALOAD PUSH1 0xE0 SHR DUP1 PUSH4 0x39509351 GT PUSH2 0x71 JUMPI DUP1 PUSH4 0x39509351 EQ PUSH2 0x168 JUMPI DUP1 PUSH4 0x70A08231 EQ PUSH2 0x198 JUMPI DUP1 PUSH4 0x95D89B41 EQ PUSH2 0x1C8 JUMPI DUP1 PUSH4 0xA457C2D7 EQ PUSH2 0x1E6 JUMPI DUP1 PUSH4 0xA9059CBB EQ PUSH2 0x216 JUMPI DUP1 PUSH4 0xDD62ED3E EQ PUSH2 0x246 JUMPI PUSH2 0xA9 JUMP JUMPDEST DUP1 PUSH4 0x6FDDE03 EQ PUSH2 0xAE JUMPI DUP1 PUSH4 0x95EA7B3 EQ PUSH2 0xCC JUMPI DUP1 PUSH4 0x18160DDD EQ PUSH2 0xFC JUMPI DUP1 PUSH4 0x23B872DD EQ PUSH2 0x11A JUMPI DUP1 PUSH4 0x313CE567 EQ PUSH2 0x14A JUMPI JUMPDEST PUSH1 0x0 DUP1 REVERT JUMPDEST PUSH2 0xB6 PUSH2 0x276 JUMP JUMPDEST PUSH1 0x40 MLOAD PUSH2 0xC3 SWAP2 SWAP1 PUSH2 0xEBF JUMP JUMPDEST PUSH1 0x40 MLOAD DUP1 SWAP2 SUB SWAP1 RETURN JUMPDEST PUSH2 0xE6 PUSH1 0x4 DUP1 CALLDATASIZE SUB DUP2 ADD SWAP1 PUSH2 0xE1 SWAP2 SWAP1 PUSH2 0xB5E JUMP JUMPDEST PUSH2 0x308 JUMP JUMPDEST PUSH1 0x40 MLOAD PUSH2 0xF3 SWAP2 SWAP1 PUSH2 0xEA4 JUMP JUMPDEST PUSH1 0x40 MLOAD DUP1 SWAP2 SUB SWAP1 RETURN JUMPDEST PUSH2 0x104 PUSH2 0x32B JUMP JUMPDEST PUSH1 0x40 MLOAD PUSH2 0x111 SWAP2 SWAP1 PUSH2 0xFC1 JUMP JUMPDEST PUSH1 0x40 MLOAD DUP1 SWAP2 SUB SWAP1 RETURN JUMPDEST PUSH2 0x134 PUSH1 0x4 DUP1 CALLDATASIZE SUB DUP2 ADD SWAP1 PUSH2 0x12F SWAP2 SWAP1 PUSH2 0xB0F JUMP JUMPDEST PUSH2 0x335 JUMP JUMPDEST PUSH1 0x40 MLOAD PUSH2 0x141 SWAP2 SWAP1 PUSH2 0xEA4 JUMP JUMPDEST PUSH1 0x40 MLOAD DUP1 SWAP2 SUB SWAP1 RETURN JUMPDEST PUSH2 0x152 PUSH2 0x364 JUMP JUMPDEST PUSH1 0x40 MLOAD PUSH2 0x15F SWAP2 SWAP1 PUSH2 0xFDC JUMP JUMPDEST PUSH1 0x40 MLOAD DUP1 SWAP2 SUB SWAP1 RETURN JUMPDEST PUSH2 0x182 PUSH1 0x4 DUP1 CALLDATASIZE SUB DUP2 ADD SWAP1 PUSH2 0x17D SWAP2 SWAP1 PUSH2 0xB5E JUMP JUMPDEST PUSH2 0x36D JUMP JUMPDEST PUSH1 0x40 MLOAD PUSH2 0x18F SWAP2 SWAP1 PUSH2 0xEA4 JUMP JUMPDEST PUSH1 0x40 MLOAD DUP1 SWAP2 SUB SWAP1 RETURN JUMPDEST PUSH2 0x1B2 PUSH1 0x4 DUP1 CALLDATASIZE SUB DUP2 ADD SWAP1 PUSH2 0x1AD SWAP2 SWAP1 PUSH2 0xAAA JUMP JUMPDEST PUSH2 0x3A4 JUMP JUMPDEST PUSH1 0x40 MLOAD PUSH2 0x1BF SWAP2 SWAP1 PUSH2 0xFC1 JUMP JUMPDEST PUSH1 0x40 MLOAD DUP1 SWAP2 SUB SWAP1 RETURN JUMPDEST PUSH2 0x1D0 PUSH2 0x3EC JUMP JUMPDEST PUSH1 0x40 MLOAD PUSH2 0x1DD SWAP2 SWAP1 PUSH2 0xEBF JUMP JUMPDEST PUSH1 0x40 MLOAD DUP1 SWAP2 SUB SWAP1 RETURN JUMPDEST PUSH2 0x200 PUSH1 0x4 DUP1 CALLDATASIZE SUB DUP2 ADD SWAP1 PUSH2 0x1FB SWAP2 SWAP1 PUSH2 0xB5E JUMP JUMPDEST PUSH2 0x47E JUMP JUMPDEST PUSH1 0x40 MLOAD PUSH2 0x20D SWAP2 SWAP1 PUSH2 0xEA4 JUMP JUMPDEST PUSH1 0x40 MLOAD DUP1 SWAP2 SUB SWAP1 RETURN JUMPDEST PUSH2 0x230 PUSH1 0x4 DUP1 CALLDATASIZE SUB DUP2 ADD SWAP1 PUSH2 0x22B SWAP2 SWAP1 PUSH2 0xB5E JUMP JUMPDEST PUSH2 0x4F5 JUMP JUMPDEST PUSH1 0x40 MLOAD PUSH2 0x23D SWAP2 SWAP1 PUSH2 0xEA4 JUMP JUMPDEST PUSH1 0x40 MLOAD DUP1 SWAP2 SUB SWAP1 RETURN JUMPDEST PUSH2 0x260 PUSH1 0x4 DUP1 CALLDATASIZE SUB DUP2 ADD SWAP1 PUSH2 0x25B SWAP2 SWAP1 PUSH2 0xAD3 JUMP JUMPDEST PUSH2 0x518 JUMP JUMPDEST PUSH1 0x40 MLOAD PUSH2 0x26D SWAP2 SWAP1 PUSH2 0xFC1 JUMP JUMPDEST PUSH1 0x40 MLOAD DUP1 SWAP2 SUB SWAP1 RETURN JUMPDEST PUSH1 0x60 PUSH1 0x3 DUP1 SLOAD PUSH2 0x285 SWAP1 PUSH2 0x10F1 JUMP JUMPDEST DUP1 PUSH1 0x1F ADD PUSH1 0x20 DUP1 SWAP2 DIV MUL PUSH1 0x20 ADD PUSH1 0x40 MLOAD SWAP1 DUP2 ADD PUSH1 0x40 MSTORE DUP1 SWAP3 SWAP2 SWAP1 DUP2 DUP2 MSTORE PUSH1 0x20 ADD DUP3 DUP1 SLOAD PUSH2 0x2B1 SWAP1 PUSH2 0x10F1 JUMP JUMPDEST DUP1 ISZERO PUSH2 0x2FE JUMPI DUP1 PUSH1 0x1F LT PUSH2 0x2D3 JUMPI PUSH2 0x100 DUP1 DUP4 SLOAD DIV MUL DUP4 MSTORE SWAP2 PUSH1 0x20 ADD SWAP2 PUSH2 0x2FE JUMP JUMPDEST DUP3 ADD SWAP2 SWAP1 PUSH1 0x0 MSTORE PUSH1 0x20 PUSH1 0x0 KECCAK256 SWAP1 JUMPDEST DUP2 SLOAD DUP2 MSTORE SWAP1 PUSH1 0x1 ADD SWAP1 PUSH1 0x20 ADD DUP1 DUP4 GT PUSH2 0x2E1 JUMPI DUP3 SWAP1 SUB PUSH1 0x1F AND DUP3 ADD SWAP2 JUMPDEST POP POP POP POP POP SWAP1 POP SWAP1 JUMP JUMPDEST PUSH1 0x0 DUP1 PUSH2 0x313 PUSH2 0x59F JUMP JUMPDEST SWAP1 POP PUSH2 0x320 DUP2 DUP6 DUP6 PUSH2 0x5A7 JUMP JUMPDEST PUSH1 0x1 SWAP2 POP POP SWAP3 SWAP2 POP POP JUMP JUMPDEST PUSH1 0x0 PUSH1 0x2 SLOAD SWAP1 POP SWAP1 JUMP JUMPDEST PUSH1 0x0 DUP1 PUSH2 0x340 PUSH2 0x59F JUMP JUMPDEST SWAP1 POP PUSH2 0x34D DUP6 DUP3 DUP6 PUSH2 0x772 JUMP JUMPDEST PUSH2 0x358 DUP6 DUP6 DUP6 PUSH2 0x7FE JUMP JUMPDEST PUSH1 0x1 SWAP2 POP POP SWAP4 SWAP3 POP POP POP JUMP JUMPDEST PUSH1 0x0 PUSH1 0x12 SWAP1 POP SWAP1 JUMP JUMPDEST PUSH1 0x0 DUP1 PUSH2 0x378 PUSH2 0x59F JUMP JUMPDEST SWAP1 POP PUSH2 0x399 DUP2 DUP6 DUP6 PUSH2 0x38A DUP6 DUP10 PUSH2 0x518 JUMP JUMPDEST PUSH2 0x394 SWAP2 SWAP1 PUSH2 0x1013 JUMP JUMPDEST PUSH2 0x5A7 JUMP JUMPDEST PUSH1 0x1 SWAP2 POP POP SWAP3 SWAP2 POP POP JUMP JUMPDEST PUSH1 0x0 DUP1 PUSH1 0x0 DUP4 PUSH20 0xFFFFFFFFFFFFFFFFFFFFFFFFFFFFFFFFFFFFFFFF AND PUSH20 0xFFFFFFFFFFFFFFFFFFFFFFFFFFFFFFFFFFFFFFFF AND DUP2 MSTORE PUSH1 0x20 ADD SWAP1 DUP2 MSTORE PUSH1 0x20 ADD PUSH1 0x0 KECCAK256 SLOAD SWAP1 POP SWAP2 SWAP1 POP JUMP JUMPDEST PUSH1 0x60 PUSH1 0x4 DUP1 SLOAD PUSH2 0x3FB SWAP1 PUSH2 0x10F1 JUMP JUMPDEST DUP1 PUSH1 0x1F ADD PUSH1 0x20 DUP1 SWAP2 DIV MUL PUSH1 0x20 ADD PUSH1 0x40 MLOAD SWAP1 DUP2 ADD PUSH1 0x40 MSTORE DUP1 SWAP3 SWAP2 SWAP1 DUP2 DUP2 MSTORE PUSH1 0x20 ADD DUP3 DUP1 SLOAD PUSH2 0x427 SWAP1 PUSH2 0x10F1 JUMP JUMPDEST DUP1 ISZERO PUSH2 0x474 JUMPI DUP1 PUSH1 0x1F LT PUSH2 0x449 JUMPI PUSH2 0x100 DUP1 DUP4 SLOAD DIV MUL DUP4 MSTORE SWAP2 PUSH1 0x20 ADD SWAP2 PUSH2 0x474 JUMP JUMPDEST DUP3 ADD SWAP2 SWAP1 PUSH1 0x0 MSTORE PUSH1 0x20 PUSH1 0x0 KECCAK256 SWAP1 JUMPDEST DUP2 SLOAD DUP2 MSTORE SWAP1 PUSH1 0x1 ADD SWAP1 PUSH1 0x20 ADD DUP1 DUP4 GT PUSH2 0x457 JUMPI DUP3 SWAP1 SUB PUSH1 0x1F AND DUP3 ADD SWAP2 JUMPDEST POP POP POP POP POP SWAP1 POP SWAP1 JUMP JUMPDEST PUSH1 0x0 DUP1 PUSH2 0x489 PUSH2 0x59F JUMP JUMPDEST SWAP1 POP PUSH1 0x0 PUSH2 0x497 DUP3 DUP7 PUSH2 0x518 JUMP JUMPDEST SWAP1 POP DUP4 DUP2 LT ISZERO PUSH2 0x4DC JUMPI PUSH1 0x40 MLOAD PUSH32 0x8C379A000000000000000000000000000000000000000000000000000000000 DUP2 MSTORE PUSH1 0x4 ADD PUSH2 0x4D3 SWAP1 PUSH2 0xFA1 JUMP JUMPDEST PUSH1 0x40 MLOAD DUP1 SWAP2 SUB SWAP1 REVERT JUMPDEST PUSH2 0x4E9 DUP3 DUP7 DUP7 DUP5 SUB PUSH2 0x5A7 JUMP JUMPDEST PUSH1 0x1 SWAP3 POP POP POP SWAP3 SWAP2 POP POP JUMP JUMPDEST PUSH1 0x0 DUP1 PUSH2 0x500 PUSH2 0x59F JUMP JUMPDEST SWAP1 POP PUSH2 0x50D DUP2 DUP6 DUP6 PUSH2 0x7FE JUMP JUMPDEST PUSH1 0x1 SWAP2 POP POP SWAP3 SWAP2 POP POP JUMP JUMPDEST PUSH1 0x0 PUSH1 0x1 PUSH1 0x0 DUP5 PUSH20 0xFFFFFFFFFFFFFFFFFFFFFFFFFFFFFFFFFFFFFFFF AND PUSH20 0xFFFFFFFFFFFFFFFFFFFFFFFFFFFFFFFFFFFFFFFF AND DUP2 MSTORE PUSH1 0x20 ADD SWAP1 DUP2 MSTORE PUSH1 0x20 ADD PUSH1 0x0 KECCAK256 PUSH1 0x0 DUP4 PUSH20 0xFFFFFFFFFFFFFFFFFFFFFFFFFFFFFFFFFFFFFFFF AND PUSH20 0xFFFFFFFFFFFFFFFFFFFFFFFFFFFFFFFFFFFFFFFF AND DUP2 MSTORE PUSH1 0x20 ADD SWAP1 DUP2 MSTORE PUSH1 0x20 ADD PUSH1 0x0 KECCAK256 SLOAD SWAP1 POP SWAP3 SWAP2 POP POP JUMP JUMPDEST PUSH1 0x0 CALLER SWAP1 POP SWAP1 JUMP JUMPDEST PUSH1 0x0 PUSH20 0xFFFFFFFFFFFFFFFFFFFFFFFFFFFFFFFFFFFFFFFF AND DUP4 PUSH20 0xFFFFFFFFFFFFFFFFFFFFFFFFFFFFFFFFFFFFFFFF AND EQ ISZERO PUSH2 0x617 JUMPI PUSH1 0x40 MLOAD PUSH32 0x8C379A000000000000000000000000000000000000000000000000000000000 DUP2 MSTORE PUSH1 0x4 ADD PUSH2 0x60E SWAP1 PUSH2 0xF81 JUMP JUMPDEST PUSH1 0x40 MLOAD DUP1 SWAP2 SUB SWAP1 REVERT JUMPDEST PUSH1 0x0 PUSH20 0xFFFFFFFFFFFFFFFFFFFFFFFFFFFFFFFFFFFFFFFF AND DUP3 PUSH20 0xFFFFFFFFFFFFFFFFFFFFFFFFFFFFFFFFFFFFFFFF AND EQ ISZERO PUSH2 0x687 JUMPI PUSH1 0x40 MLOAD PUSH32 0x8C379A000000000000000000000000000000000000000000000000000000000 DUP2 MSTORE PUSH1 0x4 ADD PUSH2 0x67E SWAP1 PUSH2 0xF01 JUMP JUMPDEST PUSH1 0x40 MLOAD DUP1 SWAP2 SUB SWAP1 REVERT JUMPDEST DUP1 PUSH1 0x1 PUSH1 0x0 DUP6 PUSH20 0xFFFFFFFFFFFFFFFFFFFFFFFFFFFFFFFFFFFFFFFF AND PUSH20 0xFFFFFFFFFFFFFFFFFFFFFFFFFFFFFFFFFFFFFFFF AND DUP2 MSTORE PUSH1 0x20 ADD SWAP1 DUP2 MSTORE PUSH1 0x20 ADD PUSH1 0x0 KECCAK256 PUSH1 0x0 DUP5 PUSH20 0xFFFFFFFFFFFFFFFFFFFFFFFFFFFFFFFFFFFFFFFF AND PUSH20 0xFFFFFFFFFFFFFFFFFFFFFFFFFFFFFFFFFFFFFFFF AND DUP2 MSTORE PUSH1 0x20 ADD SWAP1 DUP2 MSTORE PUSH1 0x20 ADD PUSH1 0x0 KECCAK256 DUP2 SWAP1 SSTORE POP DUP2 PUSH20 0xFFFFFFFFFFFFFFFFFFFFFFFFFFFFFFFFFFFFFFFF AND DUP4 PUSH20 0xFFFFFFFFFFFFFFFFFFFFFFFFFFFFFFFFFFFFFFFF AND PUSH32 0x8C5BE1E5EBEC7D5BD14F71427D1E84F3DD0314C0F7B2291E5B200AC8C7C3B925 DUP4 PUSH1 0x40 MLOAD PUSH2 0x765 SWAP2 SWAP1 PUSH2 0xFC1 JUMP JUMPDEST PUSH1 0x40 MLOAD DUP1 SWAP2 SUB SWAP1 LOG3 POP POP POP JUMP JUMPDEST PUSH1 0x0 PUSH2 0x77E DUP5 DUP5 PUSH2 0x518 JUMP JUMPDEST SWAP1 POP PUSH32 0xFFFFFFFFFFFFFFFFFFFFFFFFFFFFFFFFFFFFFFFFFFFFFFFFFFFFFFFFFFFFFFFF DUP2 EQ PUSH2 0x7F8 JUMPI DUP2 DUP2 LT ISZERO PUSH2 0x7EA JUMPI PUSH1 0x40 MLOAD PUSH32 0x8C379A000000000000000000000000000000000000000000000000000000000 DUP2 MSTORE PUSH1 0x4 ADD PUSH2 0x7E1 SWAP1 PUSH2 0xF21 JUMP JUMPDEST PUSH1 0x40 MLOAD DUP1 SWAP2 SUB SWAP1 REVERT JUMPDEST PUSH2 0x7F7 DUP5 DUP5 DUP5 DUP5 SUB PUSH2 0x5A7 JUMP JUMPDEST JUMPDEST POP POP POP POP JUMP JUMPDEST PUSH1 0x0 PUSH20 0xFFFFFFFFFFFFFFFFFFFFFFFFFFFFFFFFFFFFFFFF AND DUP4 PUSH20 0xFFFFFFFFFFFFFFFFFFFFFFFFFFFFFFFFFFFFFFFF AND EQ ISZERO PUSH2 0x86E JUMPI PUSH1 0x40 MLOAD PUSH32 0x8C379A000000000000000000000000000000000000000000000000000000000 DUP2 MSTORE PUSH1 0x4 ADD PUSH2 0x865 SWAP1 PUSH2 0xF61 JUMP JUMPDEST PUSH1 0x40 MLOAD DUP1 SWAP2 SUB SWAP1 REVERT JUMPDEST PUSH1 0x0 PUSH20 0xFFFFFFFFFFFFFFFFFFFFFFFFFFFFFFFFFFFFFFFF AND DUP3 PUSH20 0xFFFFFFFFFFFFFFFFFFFFFFFFFFFFFFFFFFFFFFFF AND EQ ISZERO PUSH2 0x8DE JUMPI PUSH1 0x40 MLOAD PUSH32 0x8C379A000000000000000000000000000000000000000000000000000000000 DUP2 MSTORE PUSH1 0x4 ADD PUSH2 0x8D5 SWAP1 PUSH2 0xEE1 JUMP JUMPDEST PUSH1 0x40 MLOAD DUP1 SWAP2 SUB SWAP1 REVERT JUMPDEST PUSH2 0x8E9 DUP4 DUP4 DUP4 PUSH2 0xA76 JUMP JUMPDEST PUSH1 0x0 DUP1 PUSH1 0x0 DUP6 PUSH20 0xFFFFFFFFFFFFFFFFFFFFFFFFFFFFFFFFFFFFFFFF AND PUSH20 0xFFFFFFFFFFFFFFFFFFFFFFFFFFFFFFFFFFFFFFFF AND DUP2 MSTORE PUSH1 0x20 ADD SWAP1 DUP2 MSTORE PUSH1 0x20 ADD PUSH1 0x0 KECCAK256 SLOAD SWAP1 POP DUP2 DUP2 LT ISZERO PUSH2 0x96F JUMPI PUSH1 0x40 MLOAD PUSH32 0x8C379A000000000000000000000000000000000000000000000000000000000 DUP2 MSTORE PUSH1 0x4 ADD PUSH2 0x966 SWAP1 PUSH2 0xF41 JUMP JUMPDEST PUSH1 0x40 MLOAD DUP1 SWAP2 SUB SWAP1 REVERT JUMPDEST DUP2 DUP2 SUB PUSH1 0x0 DUP1 DUP7 PUSH20 0xFFFFFFFFFFFFFFFFFFFFFFFFFFFFFFFFFFFFFFFF AND PUSH20 0xFFFFFFFFFFFFFFFFFFFFFFFFFFFFFFFFFFFFFFFF AND DUP2 MSTORE PUSH1 0x20 ADD SWAP1 DUP2 MSTORE PUSH1 0x20 ADD PUSH1 0x0 KECCAK256 DUP2 SWAP1 SSTORE POP DUP2 PUSH1 0x0 DUP1 DUP6 PUSH20 0xFFFFFFFFFFFFFFFFFFFFFFFFFFFFFFFFFFFFFFFF AND PUSH20 0xFFFFFFFFFFFFFFFFFFFFFFFFFFFFFFFFFFFFFFFF AND DUP2 MSTORE PUSH1 0x20 ADD SWAP1 DUP2 MSTORE PUSH1 0x20 ADD PUSH1 0x0 KECCAK256 PUSH1 0x0 DUP3 DUP3 SLOAD ADD SWAP3 POP POP DUP2 SWAP1 SSTORE POP DUP3 PUSH20 0xFFFFFFFFFFFFFFFFFFFFFFFFFFFFFFFFFFFFFFFF AND DUP5 PUSH20 0xFFFFFFFFFFFFFFFFFFFFFFFFFFFFFFFFFFFFFFFF AND PUSH32 0xDDF252AD1BE2C89B69C2B068FC378DAA952BA7F163C4A11628F55A4DF523B3EF DUP5 PUSH1 0x40 MLOAD PUSH2 0xA5D SWAP2 SWAP1 PUSH2 0xFC1 JUMP JUMPDEST PUSH1 0x40 MLOAD DUP1 SWAP2 SUB SWAP1 LOG3 PUSH2 0xA70 DUP5 DUP5 DUP5 PUSH2 0xA7B JUMP JUMPDEST POP POP POP POP JUMP JUMPDEST POP POP POP JUMP JUMPDEST POP POP POP JUMP JUMPDEST PUSH1 0x0 DUP2 CALLDATALOAD SWAP1 POP PUSH2 0xA8F DUP2 PUSH2 0x1192 JUMP JUMPDEST SWAP3 SWAP2 POP POP JUMP JUMPDEST PUSH1 0x0 DUP2 CALLDATALOAD SWAP1 POP PUSH2 0xAA4 DUP2 PUSH2 0x11A9 JUMP JUMPDEST SWAP3 SWAP2 POP POP JUMP JUMPDEST PUSH1 0x0 PUSH1 0x20 DUP3 DUP5 SUB SLT ISZERO PUSH2 0xABC JUMPI PUSH1 0x0 DUP1 REVERT JUMPDEST PUSH1 0x0 PUSH2 0xACA DUP5 DUP3 DUP6 ADD PUSH2 0xA80 JUMP JUMPDEST SWAP2 POP POP SWAP3 SWAP2 POP POP JUMP JUMPDEST PUSH1 0x0 DUP1 PUSH1 0x40 DUP4 DUP6 SUB SLT ISZERO PUSH2 0xAE6 JUMPI PUSH1 0x0 DUP1 REVERT JUMPDEST PUSH1 0x0 PUSH2 0xAF4 DUP6 DUP3 DUP7 ADD PUSH2 0xA80 JUMP JUMPDEST SWAP3 POP POP PUSH1 0x20 PUSH2 0xB05 DUP6 DUP3 DUP7 ADD PUSH2 0xA80 JUMP JUMPDEST SWAP2 POP POP SWAP3 POP SWAP3 SWAP1 POP JUMP JUMPDEST PUSH1 0x0 DUP1 PUSH1 0x0 PUSH1 0x60 DUP5 DUP7 SUB SLT ISZERO PUSH2 0xB24 JUMPI PUSH1 0x0 DUP1 REVERT JUMPDEST PUSH1 0x0 PUSH2 0xB32 DUP7 DUP3 DUP8 ADD PUSH2 0xA80 JUMP JUMPDEST SWAP4 POP POP PUSH1 0x20 PUSH2 0xB43 DUP7 DUP3 DUP8 ADD PUSH2 0xA80 JUMP JUMPDEST SWAP3 POP POP PUSH1 0x40 PUSH2 0xB54 DUP7 DUP3 DUP8 ADD PUSH2 0xA95 JUMP JUMPDEST SWAP2 POP POP SWAP3 POP SWAP3 POP SWAP3 JUMP JUMPDEST PUSH1 0x0 DUP1 PUSH1 0x40 DUP4 DUP6 SUB SLT ISZERO PUSH2 0xB71 JUMPI PUSH1 0x0 DUP1 REVERT JUMPDEST PUSH1 0x0 PUSH2 0xB7F DUP6 DUP3 DUP7 ADD PUSH2 0xA80 JUMP JUMPDEST SWAP3 POP POP PUSH1 0x20 PUSH2 0xB90 DUP6 DUP3 DUP7 ADD PUSH2 0xA95 JUMP JUMPDEST SWAP2 POP POP SWAP3 POP SWAP3 SWAP1 POP JUMP JUMPDEST PUSH2 0xBA3 DUP2 PUSH2 0x107B JUMP JUMPDEST DUP3 MSTORE POP POP JUMP JUMPDEST PUSH1 0x0 PUSH2 0xBB4 DUP3 PUSH2 0xFF7 JUMP JUMPDEST PUSH2 0xBBE DUP2 DUP6 PUSH2 0x1002 JUMP JUMPDEST SWAP4 POP PUSH2 0xBCE DUP2 DUP6 PUSH1 0x20 DUP7 ADD PUSH2 0x10BE JUMP JUMPDEST PUSH2 0xBD7 DUP2 PUSH2 0x1181 JUMP JUMPDEST DUP5 ADD SWAP2 POP POP SWAP3 SWAP2 POP POP JUMP JUMPDEST PUSH1 0x0 PUSH2 0xBEF PUSH1 0x23 DUP4 PUSH2 0x1002 JUMP JUMPDEST SWAP2 POP PUSH32 0x45524332303A207472616E7366657220746F20746865207A65726F2061646472 PUSH1 0x0 DUP4 ADD MSTORE PUSH32 0x6573730000000000000000000000000000000000000000000000000000000000 PUSH1 0x20 DUP4 ADD MSTORE PUSH1 0x40 DUP3 ADD SWAP1 POP SWAP2 SWAP1 POP JUMP JUMPDEST PUSH1 0x0 PUSH2 0xC55 PUSH1 0x22 DUP4 PUSH2 0x1002 JUMP JUMPDEST SWAP2 POP PUSH32 0x45524332303A20617070726F766520746F20746865207A65726F206164647265 PUSH1 0x0 DUP4 ADD MSTORE PUSH32 0x7373000000000000000000000000000000000000000000000000000000000000 PUSH1 0x20 DUP4 ADD MSTORE PUSH1 0x40 DUP3 ADD SWAP1 POP SWAP2 SWAP1 POP JUMP JUMPDEST PUSH1 0x0 PUSH2 0xCBB PUSH1 0x1D DUP4 PUSH2 0x1002 JUMP JUMPDEST SWAP2 POP PUSH32 0x45524332303A20696E73756666696369656E7420616C6C6F77616E6365000000 PUSH1 0x0 DUP4 ADD MSTORE PUSH1 0x20 DUP3 ADD SWAP1 POP SWAP2 SWAP1 POP JUMP JUMPDEST PUSH1 0x0 PUSH2 0xCFB PUSH1 0x26 DUP4 PUSH2 0x1002 JUMP JUMPDEST SWAP2 POP PUSH32 0x45524332303A207472616E7366657220616D6F756E7420657863656564732062 PUSH1 0x0 DUP4 ADD MSTORE PUSH32 0x616C616E63650000000000000000000000000000000000000000000000000000 PUSH1 0x20 DUP4 ADD MSTORE PUSH1 0x40 DUP3 ADD SWAP1 POP SWAP2 SWAP1 POP JUMP JUMPDEST PUSH1 0x0 PUSH2 0xD61 PUSH1 0x25 DUP4 PUSH2 0x1002 JUMP JUMPDEST SWAP2 POP PUSH32 0x45524332303A207472616E736665722066726F6D20746865207A65726F206164 PUSH1 0x0 DUP4 ADD MSTORE PUSH32 0x6472657373000000000000000000000000000000000000000000000000000000 PUSH1 0x20 DUP4 ADD MSTORE PUSH1 0x40 DUP3 ADD SWAP1 POP SWAP2 SWAP1 POP JUMP JUMPDEST PUSH1 0x0 PUSH2 0xDC7 PUSH1 0x24 DUP4 PUSH2 0x1002 JUMP JUMPDEST SWAP2 POP PUSH32 0x45524332303A20617070726F76652066726F6D20746865207A65726F20616464 PUSH1 0x0 DUP4 ADD MSTORE PUSH32 0x7265737300000000000000000000000000000000000000000000000000000000 PUSH1 0x20 DUP4 ADD MSTORE PUSH1 0x40 DUP3 ADD SWAP1 POP SWAP2 SWAP1 POP JUMP JUMPDEST PUSH1 0x0 PUSH2 0xE2D PUSH1 0x25 DUP4 PUSH2 0x1002 JUMP JUMPDEST SWAP2 POP PUSH32 0x45524332303A2064656372656173656420616C6C6F77616E63652062656C6F77 PUSH1 0x0 DUP4 ADD MSTORE PUSH32 0x207A65726F000000000000000000000000000000000000000000000000000000 PUSH1 0x20 DUP4 ADD MSTORE PUSH1 0x40 DUP3 ADD SWAP1 POP SWAP2 SWAP1 POP JUMP JUMPDEST PUSH2 0xE8F DUP2 PUSH2 0x10A7 JUMP JUMPDEST DUP3 MSTORE POP POP JUMP JUMPDEST PUSH2 0xE9E DUP2 PUSH2 0x10B1 JUMP JUMPDEST DUP3 MSTORE POP POP JUMP JUMPDEST PUSH1 0x0 PUSH1 0x20 DUP3 ADD SWAP1 POP PUSH2 0xEB9 PUSH1 0x0 DUP4 ADD DUP5 PUSH2 0xB9A JUMP JUMPDEST SWAP3 SWAP2 POP POP JUMP JUMPDEST PUSH1 0x0 PUSH1 0x20 DUP3 ADD SWAP1 POP DUP2 DUP2 SUB PUSH1 0x0 DUP4 ADD MSTORE PUSH2 0xED9 DUP2 DUP5 PUSH2 0xBA9 JUMP JUMPDEST SWAP1 POP SWAP3 SWAP2 POP POP JUMP JUMPDEST PUSH1 0x0 PUSH1 0x20 DUP3 ADD SWAP1 POP DUP2 DUP2 SUB PUSH1 0x0 DUP4 ADD MSTORE PUSH2 0xEFA DUP2 PUSH2 0xBE2 JUMP JUMPDEST SWAP1 POP SWAP2 SWAP1 POP JUMP JUMPDEST PUSH1 0x0 PUSH1 0x20 DUP3 ADD SWAP1 POP DUP2 DUP2 SUB PUSH1 0x0 DUP4 ADD MSTORE PUSH2 0xF1A DUP2 PUSH2 0xC48 JUMP JUMPDEST SWAP1 POP SWAP2 SWAP1 POP JUMP JUMPDEST PUSH1 0x0 PUSH1 0x20 DUP3 ADD SWAP1 POP DUP2 DUP2 SUB PUSH1 0x0 DUP4 ADD MSTORE PUSH2 0xF3A DUP2 PUSH2 0xCAE JUMP JUMPDEST SWAP1 POP SWAP2 SWAP1 POP JUMP JUMPDEST PUSH1 0x0 PUSH1 0x20 DUP3 ADD SWAP1 POP DUP2 DUP2 SUB PUSH1 0x0 DUP4 ADD MSTORE PUSH2 0xF5A DUP2 PUSH2 0xCEE JUMP JUMPDEST SWAP1 POP SWAP2 SWAP1 POP JUMP JUMPDEST PUSH1 0x0 PUSH1 0x20 DUP3 ADD SWAP1 POP DUP2 DUP2 SUB PUSH1 0x0 DUP4 ADD MSTORE PUSH2 0xF7A DUP2 PUSH2 0xD54 JUMP JUMPDEST SWAP1 POP SWAP2 SWAP1 POP JUMP JUMPDEST PUSH1 0x0 PUSH1 0x20 DUP3 ADD SWAP1 POP DUP2 DUP2 SUB PUSH1 0x0 DUP4 ADD MSTORE PUSH2 0xF9A DUP2 PUSH2 0xDBA JUMP JUMPDEST SWAP1 POP SWAP2 SWAP1 POP JUMP JUMPDEST PUSH1 0x0 PUSH1 0x20 DUP3 ADD SWAP1 POP DUP2 DUP2 SUB PUSH1 0x0 DUP4 ADD MSTORE PUSH2 0xFBA DUP2 PUSH2 0xE20 JUMP JUMPDEST SWAP1 POP SWAP2 SWAP1 POP JUMP JUMPDEST PUSH1 0x0 PUSH1 0x20 DUP3 ADD SWAP1 POP PUSH2 0xFD6 PUSH1 0x0 DUP4 ADD DUP5 PUSH2 0xE86 JUMP JUMPDEST SWAP3 SWAP2 POP POP JUMP JUMPDEST PUSH1 0x0 PUSH1 0x20 DUP3 ADD SWAP1 POP PUSH2 0xFF1 PUSH1 0x0 DUP4 ADD DUP5 PUSH2 0xE95 JUMP JUMPDEST SWAP3 SWAP2 POP POP JUMP JUMPDEST PUSH1 0x0 DUP2 MLOAD SWAP1 POP SWAP2 SWAP1 POP JUMP JUMPDEST PUSH1 0x0 DUP3 DUP3 MSTORE PUSH1 0x20 DUP3 ADD SWAP1 POP SWAP3 SWAP2 POP POP JUMP JUMPDEST PUSH1 0x0 PUSH2 0x101E DUP3 PUSH2 0x10A7 JUMP JUMPDEST SWAP2 POP PUSH2 0x1029 DUP4 PUSH2 0x10A7 JUMP JUMPDEST SWAP3 POP DUP3 PUSH32 0xFFFFFFFFFFFFFFFFFFFFFFFFFFFFFFFFFFFFFFFFFFFFFFFFFFFFFFFFFFFFFFFF SUB DUP3 GT ISZERO PUSH2 0x105E JUMPI PUSH2 0x105D PUSH2 0x1123 JUMP JUMPDEST JUMPDEST DUP3 DUP3 ADD SWAP1 POP SWAP3 SWAP2 POP POP JUMP JUMPDEST PUSH1 0x0 PUSH2 0x1074 DUP3 PUSH2 0x1087 JUMP JUMPDEST SWAP1 POP SWAP2 SWAP1 POP JUMP JUMPDEST PUSH1 0x0 DUP2 ISZERO ISZERO SWAP1 POP SWAP2 SWAP1 POP JUMP JUMPDEST PUSH1 0x0 PUSH20 0xFFFFFFFFFFFFFFFFFFFFFFFFFFFFFFFFFFFFFFFF DUP3 AND SWAP1 POP SWAP2 SWAP1 POP JUMP JUMPDEST PUSH1 0x0 DUP2 SWAP1 POP SWAP2 SWAP1 POP JUMP JUMPDEST PUSH1 0x0 PUSH1 0xFF DUP3 AND SWAP1 POP SWAP2 SWAP1 POP JUMP JUMPDEST PUSH1 0x0 JUMPDEST DUP4 DUP2 LT ISZERO PUSH2 0x10DC JUMPI DUP1 DUP3 ADD MLOAD DUP2 DUP5 ADD MSTORE PUSH1 0x20 DUP2 ADD SWAP1 POP PUSH2 0x10C1 JUMP JUMPDEST DUP4 DUP2 GT ISZERO PUSH2 0x10EB JUMPI PUSH1 0x0 DUP5 DUP5 ADD MSTORE JUMPDEST POP POP POP POP JUMP JUMPDEST PUSH1 0x0 PUSH1 0x2 DUP3 DIV SWAP1 POP PUSH1 0x1 DUP3 AND DUP1 PUSH2 0x1109 JUMPI PUSH1 0x7F DUP3 AND SWAP2 POP JUMPDEST PUSH1 0x20 DUP3 LT DUP2 EQ ISZERO PUSH2 0x111D JUMPI PUSH2 0x111C PUSH2 0x1152 JUMP JUMPDEST JUMPDEST POP SWAP2 SWAP1 POP JUMP JUMPDEST PUSH32 0x4E487B7100000000000000000000000000000000000000000000000000000000 PUSH1 0x0 MSTORE PUSH1 0x11 PUSH1 0x4 MSTORE PUSH1 0x24 PUSH1 0x0 REVERT JUMPDEST PUSH32 0x4E487B7100000000000000000000000000000000000000000000000000000000 PUSH1 0x0 MSTORE PUSH1 0x22 PUSH1 0x4 MSTORE PUSH1 0x24 PUSH1 0x0 REVERT JUMPDEST PUSH1 0x0 PUSH1 0x1F NOT PUSH1 0x1F DUP4 ADD AND SWAP1 POP SWAP2 SWAP1 POP JUMP JUMPDEST PUSH2 0x119B DUP2 PUSH2 0x1069 JUMP JUMPDEST DUP2 EQ PUSH2 0x11A6 JUMPI PUSH1 0x0 DUP1 REVERT JUMPDEST POP JUMP JUMPDEST PUSH2 0x11B2 DUP2 PUSH2 0x10A7 JUMP JUMPDEST DUP2 EQ PUSH2 0x11BD JUMPI PUSH1 0x0 DUP1 REVERT JUMPDEST POP JUMP INVALID LOG2 PUSH5 0x6970667358 0x22 SLT KECCAK256 0xA5 0xC9 PUSH13 0x9CA8A8AD244B65D4773177620D 0xD0 NOT DUP11 0x4E 0xAB CREATE2 SWAP5 0xBB DUP5 0xE6 0x29 SWAP12 LT 0xED SWAP7 SHL PUSH5 0x736F6C6343 STOP ADDMOD STOP STOP CALLER "
				},
				"gasEstimates": {
					"creation": {
						"codeDepositCost": "919600",
						"executionCost": "infinite",
						"totalCost": "infinite"
					},
					"external": {
						"allowance(address,address)": "infinite",
						"approve(address,uint256)": "infinite",
						"balanceOf(address)": "1563",
						"decimals()": "432",
						"decreaseAllowance(address,uint256)": "infinite",
						"increaseAllowance(address,uint256)": "infinite",
						"name()": "infinite",
						"symbol()": "infinite",
						"totalSupply()": "1182",
						"transfer(address,uint256)": "infinite",
						"transferFrom(address,address,uint256)": "infinite"
					}
				},
				"methodIdentifiers": {
					"allowance(address,address)": "dd62ed3e",
					"approve(address,uint256)": "095ea7b3",
					"balanceOf(address)": "70a08231",
					"decimals()": "313ce567",
					"decreaseAllowance(address,uint256)": "a457c2d7",
					"increaseAllowance(address,uint256)": "39509351",
					"name()": "06fdde03",
					"symbol()": "95d89b41",
					"totalSupply()": "18160ddd",
					"transfer(address,uint256)": "a9059cbb",
					"transferFrom(address,address,uint256)": "23b872dd"
				}
			},
			"storageLayout": {
				"storage": [
					{
						"astId": 15,
						"contract": "mycoin/Mytoken.sol:MyToken",
						"label": "_balances",
						"offset": 0,
						"slot": "0",
						"type": "t_mapping(t_address,t_uint256)"
					},
					{
						"astId": 21,
						"contract": "mycoin/Mytoken.sol:MyToken",
						"label": "_allowances",
						"offset": 0,
						"slot": "1",
						"type": "t_mapping(t_address,t_mapping(t_address,t_uint256))"
					},
					{
						"astId": 23,
						"contract": "mycoin/Mytoken.sol:MyToken",
						"label": "_totalSupply",
						"offset": 0,
						"slot": "2",
						"type": "t_uint256"
					},
					{
						"astId": 25,
						"contract": "mycoin/Mytoken.sol:MyToken",
						"label": "_name",
						"offset": 0,
						"slot": "3",
						"type": "t_string_storage"
					},
					{
						"astId": 27,
						"contract": "mycoin/Mytoken.sol:MyToken",
						"label": "_symbol",
						"offset": 0,
						"slot": "4",
						"type": "t_string_storage"
					}
				],
				"types": {
					"t_address": {
						"encoding": "inplace",
						"label": "address",
						"numberOfBytes": "20"
					},
					"t_mapping(t_address,t_mapping(t_address,t_uint256))": {
						"encoding": "mapping",
						"key": "t_address",
						"label": "mapping(address => mapping(address => uint256))",
						"numberOfBytes": "32",
						"value": "t_mapping(t_address,t_uint256)"
					},
					"t_mapping(t_address,t_uint256)": {
						"encoding": "mapping",
						"key": "t_address",
						"label": "mapping(address => uint256)",
						"numberOfBytes": "32",
						"value": "t_uint256"
					},
					"t_string_storage": {
						"encoding": "bytes",
						"label": "string",
						"numberOfBytes": "32"
					},
					"t_uint256": {
						"encoding": "inplace",
						"label": "uint256",
						"numberOfBytes": "32"
					}
				}
			},
			"userdoc": {
				"kind": "user",
				"methods": {},
				"version": 1
			}
		}
	}
}