{
	"contracts/1_Lottery.sol": {
		"Lottery": {
			"abi": [
				{
					"inputs": [],
					"stateMutability": "nonpayable",
					"type": "constructor"
				},
				{
					"inputs": [],
					"name": "enter",
					"outputs": [],
					"stateMutability": "payable",
					"type": "function"
				},
				{
					"inputs": [],
					"name": "getBalance",
					"outputs": [
						{
							"internalType": "uint256",
							"name": "",
							"type": "uint256"
						}
					],
					"stateMutability": "view",
					"type": "function"
				},
				{
					"inputs": [],
					"name": "getPlayers",
					"outputs": [
						{
							"internalType": "address payable[]",
							"name": "",
							"type": "address[]"
						}
					],
					"stateMutability": "view",
					"type": "function"
				},
				{
					"inputs": [],
					"name": "getRandomNumber",
					"outputs": [
						{
							"internalType": "uint256",
							"name": "",
							"type": "uint256"
						}
					],
					"stateMutability": "view",
					"type": "function"
				},
				{
					"inputs": [],
					"name": "lotteryId",
					"outputs": [
						{
							"internalType": "uint256",
							"name": "",
							"type": "uint256"
						}
					],
					"stateMutability": "view",
					"type": "function"
				},
				{
					"inputs": [],
					"name": "owner",
					"outputs": [
						{
							"internalType": "address",
							"name": "",
							"type": "address"
						}
					],
					"stateMutability": "view",
					"type": "function"
				},
				{
					"inputs": [],
					"name": "pickWinner",
					"outputs": [],
					"stateMutability": "nonpayable",
					"type": "function"
				},
				{
					"inputs": [
						{
							"internalType": "uint256",
							"name": "",
							"type": "uint256"
						}
					],
					"name": "players",
					"outputs": [
						{
							"internalType": "address payable",
							"name": "",
							"type": "address"
						}
					],
					"stateMutability": "view",
					"type": "function"
				}
			],
			"devdoc": {
				"kind": "dev",
				"methods": {},
				"version": 1
			},
			"evm": {
				"assembly": "    /* \"contracts/1_Lottery.sol\":59:1163  contract Lottery {... */\n  mstore(0x40, 0x80)\n    /* \"contracts/1_Lottery.sol\":175:246  constructor(){... */\n  callvalue\n  dup1\n  iszero\n  tag_1\n  jumpi\n  0x00\n  dup1\n  revert\ntag_1:\n  pop\n    /* \"contracts/1_Lottery.sol\":206:216  msg.sender */\n  caller\n    /* \"contracts/1_Lottery.sol\":198:203  owner */\n  0x00\n  dup1\n    /* \"contracts/1_Lottery.sol\":198:216  owner = msg.sender */\n  0x0100\n  exp\n  dup2\n  sload\n  dup2\n  0xffffffffffffffffffffffffffffffffffffffff\n  mul\n  not\n  and\n  swap1\n  dup4\n  0xffffffffffffffffffffffffffffffffffffffff\n  and\n  mul\n  or\n  swap1\n  sstore\n  pop\n    /* \"contracts/1_Lottery.sol\":238:239  1 */\n  0x01\n    /* \"contracts/1_Lottery.sol\":226:235  lotteryId */\n  0x02\n    /* \"contracts/1_Lottery.sol\":226:239  lotteryId = 1 */\n  dup2\n  swap1\n  sstore\n  pop\n    /* \"contracts/1_Lottery.sol\":59:1163  contract Lottery {... */\n  dataSize(sub_0)\n  dup1\n  dataOffset(sub_0)\n  0x00\n  codecopy\n  0x00\n  return\nstop\n\nsub_0: assembly {\n        /* \"contracts/1_Lottery.sol\":59:1163  contract Lottery {... */\n      mstore(0x40, 0x80)\n      jumpi(tag_1, lt(calldatasize, 0x04))\n      shr(0xe0, calldataload(0x00))\n      dup1\n      0xdbdff2c1\n      gt\n      tag_10\n      jumpi\n      dup1\n      0xdbdff2c1\n      eq\n      tag_6\n      jumpi\n      dup1\n      0xe580f47b\n      eq\n      tag_7\n      jumpi\n      dup1\n      0xe97dcb62\n      eq\n      tag_8\n      jumpi\n      dup1\n      0xf71d96cb\n      eq\n      tag_9\n      jumpi\n      jump(tag_1)\n    tag_10:\n      dup1\n      0x12065fe0\n      eq\n      tag_2\n      jumpi\n      dup1\n      0x5d495aea\n      eq\n      tag_3\n      jumpi\n      dup1\n      0x8b5b9ccc\n      eq\n      tag_4\n      jumpi\n      dup1\n      0x8da5cb5b\n      eq\n      tag_5\n      jumpi\n    tag_1:\n      0x00\n      dup1\n      revert\n        /* \"contracts/1_Lottery.sol\":252:346  function getBalance() public view returns (uint){... */\n    tag_2:\n      callvalue\n      dup1\n      iszero\n      tag_11\n      jumpi\n      0x00\n      dup1\n      revert\n    tag_11:\n      pop\n      tag_12\n      tag_13\n      jump\t// in\n    tag_12:\n      mload(0x40)\n      tag_14\n      swap2\n      swap1\n      tag_15\n      jump\t// in\n    tag_14:\n      mload(0x40)\n      dup1\n      swap2\n      sub\n      swap1\n      return\n        /* \"contracts/1_Lottery.sol\":771:1078  function pickWinner() public onlyOwner {... */\n    tag_3:\n      callvalue\n      dup1\n      iszero\n      tag_16\n      jumpi\n      0x00\n      dup1\n      revert\n    tag_16:\n      pop\n      tag_17\n      tag_18\n      jump\t// in\n    tag_17:\n      stop\n        /* \"contracts/1_Lottery.sol\":352:452  function getPlayers() public view returns (address payable[] memory ){... */\n    tag_4:\n      callvalue\n      dup1\n      iszero\n      tag_19\n      jumpi\n      0x00\n      dup1\n      revert\n    tag_19:\n      pop\n      tag_20\n      tag_21\n      jump\t// in\n    tag_20:\n      mload(0x40)\n      tag_22\n      swap2\n      swap1\n      tag_23\n      jump\t// in\n    tag_22:\n      mload(0x40)\n      dup1\n      swap2\n      sub\n      swap1\n      return\n        /* \"contracts/1_Lottery.sol\":82:102  address public owner */\n    tag_5:\n      callvalue\n      dup1\n      iszero\n      tag_24\n      jumpi\n      0x00\n      dup1\n      revert\n    tag_24:\n      pop\n      tag_25\n      tag_26\n      jump\t// in\n    tag_25:\n      mload(0x40)\n      tag_27\n      swap2\n      swap1\n      tag_28\n      jump\t// in\n    tag_27:\n      mload(0x40)\n      dup1\n      swap2\n      sub\n      swap1\n      return\n        /* \"contracts/1_Lottery.sol\":632:765  function getRandomNumber() public view returns(uint){... */\n    tag_6:\n      callvalue\n      dup1\n      iszero\n      tag_29\n      jumpi\n      0x00\n      dup1\n      revert\n    tag_29:\n      pop\n      tag_30\n      tag_31\n      jump\t// in\n    tag_30:\n      mload(0x40)\n      tag_32\n      swap2\n      swap1\n      tag_15\n      jump\t// in\n    tag_32:\n      mload(0x40)\n      dup1\n      swap2\n      sub\n      swap1\n      return\n        /* \"contracts/1_Lottery.sol\":147:168  uint public lotteryId */\n    tag_7:\n      callvalue\n      dup1\n      iszero\n      tag_33\n      jumpi\n      0x00\n      dup1\n      revert\n    tag_33:\n      pop\n      tag_34\n      tag_35\n      jump\t// in\n    tag_34:\n      mload(0x40)\n      tag_36\n      swap2\n      swap1\n      tag_15\n      jump\t// in\n    tag_36:\n      mload(0x40)\n      dup1\n      swap2\n      sub\n      swap1\n      return\n        /* \"contracts/1_Lottery.sol\":458:626  function enter() public payable {... */\n    tag_8:\n      tag_37\n      tag_38\n      jump\t// in\n    tag_37:\n      stop\n        /* \"contracts/1_Lottery.sol\":108:141  address payable[] public  players */\n    tag_9:\n      callvalue\n      dup1\n      iszero\n      tag_39\n      jumpi\n      0x00\n      dup1\n      revert\n    tag_39:\n      pop\n      tag_40\n      0x04\n      dup1\n      calldatasize\n      sub\n      dup2\n      add\n      swap1\n      tag_41\n      swap2\n      swap1\n      tag_42\n      jump\t// in\n    tag_41:\n      tag_43\n      jump\t// in\n    tag_40:\n      mload(0x40)\n      tag_44\n      swap2\n      swap1\n      tag_45\n      jump\t// in\n    tag_44:\n      mload(0x40)\n      dup1\n      swap2\n      sub\n      swap1\n      return\n        /* \"contracts/1_Lottery.sol\":252:346  function getBalance() public view returns (uint){... */\n    tag_13:\n        /* \"contracts/1_Lottery.sol\":295:299  uint */\n      0x00\n        /* \"contracts/1_Lottery.sol\":318:339  address(this).balance */\n      selfbalance\n        /* \"contracts/1_Lottery.sol\":310:339  return  address(this).balance */\n      swap1\n      pop\n        /* \"contracts/1_Lottery.sol\":252:346  function getBalance() public view returns (uint){... */\n      swap1\n      jump\t// out\n        /* \"contracts/1_Lottery.sol\":771:1078  function pickWinner() public onlyOwner {... */\n    tag_18:\n        /* \"contracts/1_Lottery.sol\":1137:1142  owner */\n      0x00\n      dup1\n      sload\n      swap1\n      0x0100\n      exp\n      swap1\n      div\n      0xffffffffffffffffffffffffffffffffffffffff\n      and\n        /* \"contracts/1_Lottery.sol\":1123:1142  msg.sender == owner */\n      0xffffffffffffffffffffffffffffffffffffffff\n      and\n        /* \"contracts/1_Lottery.sol\":1123:1133  msg.sender */\n      caller\n        /* \"contracts/1_Lottery.sol\":1123:1142  msg.sender == owner */\n      0xffffffffffffffffffffffffffffffffffffffff\n      and\n      eq\n        /* \"contracts/1_Lottery.sol\":1115:1143  require(msg.sender == owner) */\n      tag_48\n      jumpi\n      0x00\n      dup1\n      revert\n    tag_48:\n        /* \"contracts/1_Lottery.sol\":842:847  owner */\n      0x00\n      dup1\n      sload\n      swap1\n      0x0100\n      exp\n      swap1\n      div\n      0xffffffffffffffffffffffffffffffffffffffff\n      and\n        /* \"contracts/1_Lottery.sol\":828:847  msg.sender == owner */\n      0xffffffffffffffffffffffffffffffffffffffff\n      and\n        /* \"contracts/1_Lottery.sol\":828:838  msg.sender */\n      caller\n        /* \"contracts/1_Lottery.sol\":828:847  msg.sender == owner */\n      0xffffffffffffffffffffffffffffffffffffffff\n      and\n      eq\n        /* \"contracts/1_Lottery.sol\":820:848  require(msg.sender == owner) */\n      tag_50\n      jumpi\n      0x00\n      dup1\n      revert\n    tag_50:\n        /* \"contracts/1_Lottery.sol\":858:868  uint index */\n      0x00\n        /* \"contracts/1_Lottery.sol\":891:898  players */\n      0x01\n        /* \"contracts/1_Lottery.sol\":891:905  players.length */\n      dup1\n      sload\n      swap1\n      pop\n        /* \"contracts/1_Lottery.sol\":871:888  getRandomNumber() */\n      tag_51\n        /* \"contracts/1_Lottery.sol\":871:886  getRandomNumber */\n      tag_31\n        /* \"contracts/1_Lottery.sol\":871:888  getRandomNumber() */\n      jump\t// in\n    tag_51:\n        /* \"contracts/1_Lottery.sol\":871:905  getRandomNumber() % players.length */\n      tag_52\n      swap2\n      swap1\n      tag_53\n      jump\t// in\n    tag_52:\n        /* \"contracts/1_Lottery.sol\":858:905  uint index = getRandomNumber() % players.length */\n      swap1\n      pop\n        /* \"contracts/1_Lottery.sol\":915:922  players */\n      0x01\n        /* \"contracts/1_Lottery.sol\":923:928  index */\n      dup2\n        /* \"contracts/1_Lottery.sol\":915:929  players[index] */\n      dup2\n      sload\n      dup2\n      lt\n      tag_54\n      jumpi\n      tag_55\n      tag_56\n      jump\t// in\n    tag_55:\n    tag_54:\n      swap1\n      0x00\n      mstore\n      keccak256(0x00, 0x20)\n      add\n      0x00\n      swap1\n      sload\n      swap1\n      0x0100\n      exp\n      swap1\n      div\n      0xffffffffffffffffffffffffffffffffffffffff\n      and\n        /* \"contracts/1_Lottery.sol\":915:938  players[index].transfer */\n      0xffffffffffffffffffffffffffffffffffffffff\n      and\n        /* \"contracts/1_Lottery.sol\":915:961  players[index].transfer(address(this).balance) */\n      0x08fc\n        /* \"contracts/1_Lottery.sol\":939:960  address(this).balance */\n      selfbalance\n        /* \"contracts/1_Lottery.sol\":915:961  players[index].transfer(address(this).balance) */\n      swap1\n      dup2\n      iszero\n      mul\n      swap1\n      mload(0x40)\n      0x00\n      mload(0x40)\n      dup1\n      dup4\n      sub\n      dup2\n      dup6\n      dup9\n      dup9\n      call\n      swap4\n      pop\n      pop\n      pop\n      pop\n      iszero\n      dup1\n      iszero\n      tag_59\n      jumpi\n      returndatasize\n      0x00\n      dup1\n      returndatacopy\n      revert(0x00, returndatasize)\n    tag_59:\n      pop\n        /* \"contracts/1_Lottery.sol\":972:981  lotteryId */\n      0x02\n      0x00\n        /* \"contracts/1_Lottery.sol\":972:983  lotteryId++ */\n      dup2\n      sload\n      dup1\n      swap3\n      swap2\n      swap1\n      tag_60\n      swap1\n      tag_61\n      jump\t// in\n    tag_60:\n      swap2\n      swap1\n      pop\n      sstore\n      pop\n        /* \"contracts/1_Lottery.sol\":1069:1070  0 */\n      0x00\n        /* \"contracts/1_Lottery.sol\":1047:1071  new address payable[](0) */\n      0xffffffffffffffff\n      dup2\n      gt\n      iszero\n      tag_62\n      jumpi\n      tag_63\n      tag_64\n      jump\t// in\n    tag_63:\n    tag_62:\n      mload(0x40)\n      swap1\n      dup1\n      dup3\n      mstore\n      dup1\n      0x20\n      mul\n      0x20\n      add\n      dup3\n      add\n      0x40\n      mstore\n      dup1\n      iszero\n      tag_65\n      jumpi\n      dup2\n      0x20\n      add\n      0x20\n      dup3\n      mul\n      dup1\n      calldatasize\n      dup4\n      calldatacopy\n      dup1\n      dup3\n      add\n      swap2\n      pop\n      pop\n      swap1\n      pop\n    tag_65:\n      pop\n        /* \"contracts/1_Lottery.sol\":1037:1044  players */\n      0x01\n        /* \"contracts/1_Lottery.sol\":1037:1071  players = new address payable[](0) */\n      swap1\n      dup1\n      mload\n      swap1\n      0x20\n      add\n      swap1\n      tag_66\n      swap3\n      swap2\n      swap1\n      tag_67\n      jump\t// in\n    tag_66:\n      pop\n        /* \"contracts/1_Lottery.sol\":810:1078  {... */\n      pop\n        /* \"contracts/1_Lottery.sol\":771:1078  function pickWinner() public onlyOwner {... */\n      jump\t// out\n        /* \"contracts/1_Lottery.sol\":352:452  function getPlayers() public view returns (address payable[] memory ){... */\n    tag_21:\n        /* \"contracts/1_Lottery.sol\":395:419  address payable[] memory */\n      0x60\n        /* \"contracts/1_Lottery.sol\":438:445  players */\n      0x01\n        /* \"contracts/1_Lottery.sol\":431:445  return players */\n      dup1\n      sload\n      dup1\n      0x20\n      mul\n      0x20\n      add\n      mload(0x40)\n      swap1\n      dup2\n      add\n      0x40\n      mstore\n      dup1\n      swap3\n      swap2\n      swap1\n      dup2\n      dup2\n      mstore\n      0x20\n      add\n      dup3\n      dup1\n      sload\n      dup1\n      iszero\n      tag_69\n      jumpi\n      0x20\n      mul\n      dup3\n      add\n      swap2\n      swap1\n      0x00\n      mstore\n      keccak256(0x00, 0x20)\n      swap1\n    tag_70:\n      dup2\n      0x00\n      swap1\n      sload\n      swap1\n      0x0100\n      exp\n      swap1\n      div\n      0xffffffffffffffffffffffffffffffffffffffff\n      and\n      0xffffffffffffffffffffffffffffffffffffffff\n      and\n      dup2\n      mstore\n      0x20\n      add\n      swap1\n      0x01\n      add\n      swap1\n      dup1\n      dup4\n      gt\n      tag_70\n      jumpi\n    tag_69:\n      pop\n      pop\n      pop\n      pop\n      pop\n      swap1\n      pop\n        /* \"contracts/1_Lottery.sol\":352:452  function getPlayers() public view returns (address payable[] memory ){... */\n      swap1\n      jump\t// out\n        /* \"contracts/1_Lottery.sol\":82:102  address public owner */\n    tag_26:\n      0x00\n      dup1\n      sload\n      swap1\n      0x0100\n      exp\n      swap1\n      div\n      0xffffffffffffffffffffffffffffffffffffffff\n      and\n      dup2\n      jump\t// out\n        /* \"contracts/1_Lottery.sol\":632:765  function getRandomNumber() public view returns(uint){... */\n    tag_31:\n        /* \"contracts/1_Lottery.sol\":679:683  uint */\n      0x00\n        /* \"contracts/1_Lottery.sol\":733:738  owner */\n      dup1\n      0x00\n      swap1\n      sload\n      swap1\n      0x0100\n      exp\n      swap1\n      div\n      0xffffffffffffffffffffffffffffffffffffffff\n      and\n        /* \"contracts/1_Lottery.sol\":740:755  block.timestamp */\n      timestamp\n        /* \"contracts/1_Lottery.sol\":716:756  abi.encodePacked(owner, block.timestamp) */\n      add(0x20, mload(0x40))\n      tag_72\n      swap3\n      swap2\n      swap1\n      tag_73\n      jump\t// in\n    tag_72:\n      mload(0x40)\n      0x20\n      dup2\n      dup4\n      sub\n      sub\n      dup2\n      mstore\n      swap1\n      0x40\n      mstore\n        /* \"contracts/1_Lottery.sol\":706:757  keccak256(abi.encodePacked(owner, block.timestamp)) */\n      dup1\n      mload\n      swap1\n      0x20\n      add\n      keccak256\n        /* \"contracts/1_Lottery.sol\":701:758  uint(keccak256(abi.encodePacked(owner, block.timestamp))) */\n      0x00\n      shr\n        /* \"contracts/1_Lottery.sol\":694:758  return uint(keccak256(abi.encodePacked(owner, block.timestamp))) */\n      swap1\n      pop\n        /* \"contracts/1_Lottery.sol\":632:765  function getRandomNumber() public view returns(uint){... */\n      swap1\n      jump\t// out\n        /* \"contracts/1_Lottery.sol\":147:168  uint public lotteryId */\n    tag_35:\n      sload(0x02)\n      dup2\n      jump\t// out\n        /* \"contracts/1_Lottery.sol\":458:626  function enter() public payable {... */\n    tag_38:\n        /* \"contracts/1_Lottery.sol\":520:529  0.1 ether */\n      0x016345785d8a0000\n        /* \"contracts/1_Lottery.sol\":508:517  msg.value */\n      callvalue\n        /* \"contracts/1_Lottery.sol\":508:529  msg.value > 0.1 ether */\n      gt\n        /* \"contracts/1_Lottery.sol\":500:530  require(msg.value > 0.1 ether) */\n      tag_75\n      jumpi\n      0x00\n      dup1\n      revert\n    tag_75:\n        /* \"contracts/1_Lottery.sol\":586:593  players */\n      0x01\n        /* \"contracts/1_Lottery.sol\":607:617  msg.sender */\n      caller\n        /* \"contracts/1_Lottery.sol\":586:619  players.push(payable(msg.sender)) */\n      swap1\n      dup1\n      0x01\n      dup2\n      sload\n      add\n      dup1\n      dup3\n      sstore\n      dup1\n      swap2\n      pop\n      pop\n      0x01\n      swap1\n      sub\n      swap1\n      0x00\n      mstore\n      keccak256(0x00, 0x20)\n      add\n      0x00\n      swap1\n      swap2\n      swap1\n      swap2\n      swap1\n      swap2\n      0x0100\n      exp\n      dup2\n      sload\n      dup2\n      0xffffffffffffffffffffffffffffffffffffffff\n      mul\n      not\n      and\n      swap1\n      dup4\n      0xffffffffffffffffffffffffffffffffffffffff\n      and\n      mul\n      or\n      swap1\n      sstore\n      pop\n        /* \"contracts/1_Lottery.sol\":458:626  function enter() public payable {... */\n      jump\t// out\n        /* \"contracts/1_Lottery.sol\":108:141  address payable[] public  players */\n    tag_43:\n      0x01\n      dup2\n      dup2\n      sload\n      dup2\n      lt\n      tag_77\n      jumpi\n      0x00\n      dup1\n      revert\n    tag_77:\n      swap1\n      0x00\n      mstore\n      keccak256(0x00, 0x20)\n      add\n      0x00\n      swap2\n      pop\n      sload\n      swap1\n      0x0100\n      exp\n      swap1\n      div\n      0xffffffffffffffffffffffffffffffffffffffff\n      and\n      dup2\n      jump\t// out\n    tag_67:\n      dup3\n      dup1\n      sload\n      dup3\n      dup3\n      sstore\n      swap1\n      0x00\n      mstore\n      keccak256(0x00, 0x20)\n      swap1\n      dup2\n      add\n      swap3\n      dup3\n      iszero\n      tag_79\n      jumpi\n      swap2\n      0x20\n      mul\n      dup3\n      add\n    tag_80:\n      dup3\n      dup2\n      gt\n      iszero\n      tag_81\n      jumpi\n      dup3\n      mload\n      dup3\n      exp(0x0100, 0x00)\n      dup2\n      sload\n      dup2\n      0xffffffffffffffffffffffffffffffffffffffff\n      mul\n      not\n      and\n      swap1\n      dup4\n      0xffffffffffffffffffffffffffffffffffffffff\n      and\n      mul\n      or\n      swap1\n      sstore\n      pop\n      swap2\n      0x20\n      add\n      swap2\n      swap1\n      0x01\n      add\n      swap1\n      jump(tag_80)\n    tag_81:\n    tag_79:\n      pop\n      swap1\n      pop\n      tag_82\n      swap2\n      swap1\n      tag_83\n      jump\t// in\n    tag_82:\n      pop\n      swap1\n      jump\t// out\n    tag_83:\n    tag_84:\n      dup1\n      dup3\n      gt\n      iszero\n      tag_85\n      jumpi\n      0x00\n      dup2\n      0x00\n      swap1\n      sstore\n      pop\n      0x01\n      add\n      jump(tag_84)\n    tag_85:\n      pop\n      swap1\n      jump\t// out\n        /* \"#utility.yul\":7:84   */\n    tag_86:\n        /* \"#utility.yul\":44:51   */\n      0x00\n        /* \"#utility.yul\":73:78   */\n      dup2\n        /* \"#utility.yul\":62:78   */\n      swap1\n      pop\n        /* \"#utility.yul\":7:84   */\n      swap2\n      swap1\n      pop\n      jump\t// out\n        /* \"#utility.yul\":90:208   */\n    tag_87:\n        /* \"#utility.yul\":177:201   */\n      tag_116\n        /* \"#utility.yul\":195:200   */\n      dup2\n        /* \"#utility.yul\":177:201   */\n      tag_86\n      jump\t// in\n    tag_116:\n        /* \"#utility.yul\":172:175   */\n      dup3\n        /* \"#utility.yul\":165:202   */\n      mstore\n        /* \"#utility.yul\":90:208   */\n      pop\n      pop\n      jump\t// out\n        /* \"#utility.yul\":214:436   */\n    tag_15:\n        /* \"#utility.yul\":307:311   */\n      0x00\n        /* \"#utility.yul\":345:347   */\n      0x20\n        /* \"#utility.yul\":334:343   */\n      dup3\n        /* \"#utility.yul\":330:348   */\n      add\n        /* \"#utility.yul\":322:348   */\n      swap1\n      pop\n        /* \"#utility.yul\":358:429   */\n      tag_118\n        /* \"#utility.yul\":426:427   */\n      0x00\n        /* \"#utility.yul\":415:424   */\n      dup4\n        /* \"#utility.yul\":411:428   */\n      add\n        /* \"#utility.yul\":402:408   */\n      dup5\n        /* \"#utility.yul\":358:429   */\n      tag_87\n      jump\t// in\n    tag_118:\n        /* \"#utility.yul\":214:436   */\n      swap3\n      swap2\n      pop\n      pop\n      jump\t// out\n        /* \"#utility.yul\":442:564   */\n    tag_88:\n        /* \"#utility.yul\":517:523   */\n      0x00\n        /* \"#utility.yul\":551:556   */\n      dup2\n        /* \"#utility.yul\":545:557   */\n      mload\n        /* \"#utility.yul\":535:557   */\n      swap1\n      pop\n        /* \"#utility.yul\":442:564   */\n      swap2\n      swap1\n      pop\n      jump\t// out\n        /* \"#utility.yul\":570:762   */\n    tag_89:\n        /* \"#utility.yul\":677:688   */\n      0x00\n        /* \"#utility.yul\":711:717   */\n      dup3\n        /* \"#utility.yul\":706:709   */\n      dup3\n        /* \"#utility.yul\":699:718   */\n      mstore\n        /* \"#utility.yul\":751:755   */\n      0x20\n        /* \"#utility.yul\":746:749   */\n      dup3\n        /* \"#utility.yul\":742:756   */\n      add\n        /* \"#utility.yul\":727:756   */\n      swap1\n      pop\n        /* \"#utility.yul\":570:762   */\n      swap3\n      swap2\n      pop\n      pop\n      jump\t// out\n        /* \"#utility.yul\":768:908   */\n    tag_90:\n        /* \"#utility.yul\":843:847   */\n      0x00\n        /* \"#utility.yul\":866:869   */\n      dup2\n        /* \"#utility.yul\":858:869   */\n      swap1\n      pop\n        /* \"#utility.yul\":896:900   */\n      0x20\n        /* \"#utility.yul\":891:894   */\n      dup3\n        /* \"#utility.yul\":887:901   */\n      add\n        /* \"#utility.yul\":879:901   */\n      swap1\n      pop\n        /* \"#utility.yul\":768:908   */\n      swap2\n      swap1\n      pop\n      jump\t// out\n        /* \"#utility.yul\":914:1040   */\n    tag_91:\n        /* \"#utility.yul\":951:958   */\n      0x00\n        /* \"#utility.yul\":991:1033   */\n      0xffffffffffffffffffffffffffffffffffffffff\n        /* \"#utility.yul\":984:989   */\n      dup3\n        /* \"#utility.yul\":980:1034   */\n      and\n        /* \"#utility.yul\":969:1034   */\n      swap1\n      pop\n        /* \"#utility.yul\":914:1040   */\n      swap2\n      swap1\n      pop\n      jump\t// out\n        /* \"#utility.yul\":1046:1150   */\n    tag_92:\n        /* \"#utility.yul\":1091:1098   */\n      0x00\n        /* \"#utility.yul\":1120:1144   */\n      tag_124\n        /* \"#utility.yul\":1138:1143   */\n      dup3\n        /* \"#utility.yul\":1120:1144   */\n      tag_91\n      jump\t// in\n    tag_124:\n        /* \"#utility.yul\":1109:1144   */\n      swap1\n      pop\n        /* \"#utility.yul\":1046:1150   */\n      swap2\n      swap1\n      pop\n      jump\t// out\n        /* \"#utility.yul\":1156:1288   */\n    tag_93:\n        /* \"#utility.yul\":1249:1281   */\n      tag_126\n        /* \"#utility.yul\":1275:1280   */\n      dup2\n        /* \"#utility.yul\":1249:1281   */\n      tag_92\n      jump\t// in\n    tag_126:\n        /* \"#utility.yul\":1244:1247   */\n      dup3\n        /* \"#utility.yul\":1237:1282   */\n      mstore\n        /* \"#utility.yul\":1156:1288   */\n      pop\n      pop\n      jump\t// out\n        /* \"#utility.yul\":1294:1505   */\n    tag_94:\n        /* \"#utility.yul\":1379:1389   */\n      0x00\n        /* \"#utility.yul\":1400:1462   */\n      tag_128\n        /* \"#utility.yul\":1458:1461   */\n      dup4\n        /* \"#utility.yul\":1450:1456   */\n      dup4\n        /* \"#utility.yul\":1400:1462   */\n      tag_93\n      jump\t// in\n    tag_128:\n        /* \"#utility.yul\":1494:1498   */\n      0x20\n        /* \"#utility.yul\":1489:1492   */\n      dup4\n        /* \"#utility.yul\":1485:1499   */\n      add\n        /* \"#utility.yul\":1471:1499   */\n      swap1\n      pop\n        /* \"#utility.yul\":1294:1505   */\n      swap3\n      swap2\n      pop\n      pop\n      jump\t// out\n        /* \"#utility.yul\":1511:1632   */\n    tag_95:\n        /* \"#utility.yul\":1589:1593   */\n      0x00\n        /* \"#utility.yul\":1621:1625   */\n      0x20\n        /* \"#utility.yul\":1616:1619   */\n      dup3\n        /* \"#utility.yul\":1612:1626   */\n      add\n        /* \"#utility.yul\":1604:1626   */\n      swap1\n      pop\n        /* \"#utility.yul\":1511:1632   */\n      swap2\n      swap1\n      pop\n      jump\t// out\n        /* \"#utility.yul\":1684:2480   */\n    tag_96:\n        /* \"#utility.yul\":1819:1822   */\n      0x00\n        /* \"#utility.yul\":1848:1910   */\n      tag_131\n        /* \"#utility.yul\":1904:1909   */\n      dup3\n        /* \"#utility.yul\":1848:1910   */\n      tag_88\n      jump\t// in\n    tag_131:\n        /* \"#utility.yul\":1926:2020   */\n      tag_132\n        /* \"#utility.yul\":2013:2019   */\n      dup2\n        /* \"#utility.yul\":2008:2011   */\n      dup6\n        /* \"#utility.yul\":1926:2020   */\n      tag_89\n      jump\t// in\n    tag_132:\n        /* \"#utility.yul\":1919:2020   */\n      swap4\n      pop\n        /* \"#utility.yul\":2044:2108   */\n      tag_133\n        /* \"#utility.yul\":2102:2107   */\n      dup4\n        /* \"#utility.yul\":2044:2108   */\n      tag_90\n      jump\t// in\n    tag_133:\n        /* \"#utility.yul\":2131:2138   */\n      dup1\n        /* \"#utility.yul\":2162:2163   */\n      0x00\n        /* \"#utility.yul\":2147:2455   */\n    tag_134:\n        /* \"#utility.yul\":2172:2178   */\n      dup4\n        /* \"#utility.yul\":2169:2170   */\n      dup2\n        /* \"#utility.yul\":2166:2179   */\n      lt\n        /* \"#utility.yul\":2147:2455   */\n      iszero\n      tag_136\n      jumpi\n        /* \"#utility.yul\":2248:2254   */\n      dup2\n        /* \"#utility.yul\":2242:2255   */\n      mload\n        /* \"#utility.yul\":2275:2354   */\n      tag_137\n        /* \"#utility.yul\":2350:2353   */\n      dup9\n        /* \"#utility.yul\":2335:2348   */\n      dup3\n        /* \"#utility.yul\":2275:2354   */\n      tag_94\n      jump\t// in\n    tag_137:\n        /* \"#utility.yul\":2268:2354   */\n      swap8\n      pop\n        /* \"#utility.yul\":2377:2445   */\n      tag_138\n        /* \"#utility.yul\":2438:2444   */\n      dup4\n        /* \"#utility.yul\":2377:2445   */\n      tag_95\n      jump\t// in\n    tag_138:\n        /* \"#utility.yul\":2367:2445   */\n      swap3\n      pop\n        /* \"#utility.yul\":2207:2455   */\n      pop\n        /* \"#utility.yul\":2194:2195   */\n      0x01\n        /* \"#utility.yul\":2191:2192   */\n      dup2\n        /* \"#utility.yul\":2187:2196   */\n      add\n        /* \"#utility.yul\":2182:2196   */\n      swap1\n      pop\n        /* \"#utility.yul\":2147:2455   */\n      jump(tag_134)\n    tag_136:\n        /* \"#utility.yul\":2151:2165   */\n      pop\n        /* \"#utility.yul\":2471:2474   */\n      dup6\n        /* \"#utility.yul\":2464:2474   */\n      swap4\n      pop\n        /* \"#utility.yul\":1824:2480   */\n      pop\n      pop\n      pop\n        /* \"#utility.yul\":1684:2480   */\n      swap3\n      swap2\n      pop\n      pop\n      jump\t// out\n        /* \"#utility.yul\":2486:2891   */\n    tag_23:\n        /* \"#utility.yul\":2645:2649   */\n      0x00\n        /* \"#utility.yul\":2683:2685   */\n      0x20\n        /* \"#utility.yul\":2672:2681   */\n      dup3\n        /* \"#utility.yul\":2668:2686   */\n      add\n        /* \"#utility.yul\":2660:2686   */\n      swap1\n      pop\n        /* \"#utility.yul\":2732:2741   */\n      dup2\n        /* \"#utility.yul\":2726:2730   */\n      dup2\n        /* \"#utility.yul\":2722:2742   */\n      sub\n        /* \"#utility.yul\":2718:2719   */\n      0x00\n        /* \"#utility.yul\":2707:2716   */\n      dup4\n        /* \"#utility.yul\":2703:2720   */\n      add\n        /* \"#utility.yul\":2696:2743   */\n      mstore\n        /* \"#utility.yul\":2760:2884   */\n      tag_140\n        /* \"#utility.yul\":2879:2883   */\n      dup2\n        /* \"#utility.yul\":2870:2876   */\n      dup5\n        /* \"#utility.yul\":2760:2884   */\n      tag_96\n      jump\t// in\n    tag_140:\n        /* \"#utility.yul\":2752:2884   */\n      swap1\n      pop\n        /* \"#utility.yul\":2486:2891   */\n      swap3\n      swap2\n      pop\n      pop\n      jump\t// out\n        /* \"#utility.yul\":2897:2993   */\n    tag_97:\n        /* \"#utility.yul\":2934:2941   */\n      0x00\n        /* \"#utility.yul\":2963:2987   */\n      tag_142\n        /* \"#utility.yul\":2981:2986   */\n      dup3\n        /* \"#utility.yul\":2963:2987   */\n      tag_91\n      jump\t// in\n    tag_142:\n        /* \"#utility.yul\":2952:2987   */\n      swap1\n      pop\n        /* \"#utility.yul\":2897:2993   */\n      swap2\n      swap1\n      pop\n      jump\t// out\n        /* \"#utility.yul\":2999:3117   */\n    tag_98:\n        /* \"#utility.yul\":3086:3110   */\n      tag_144\n        /* \"#utility.yul\":3104:3109   */\n      dup2\n        /* \"#utility.yul\":3086:3110   */\n      tag_97\n      jump\t// in\n    tag_144:\n        /* \"#utility.yul\":3081:3084   */\n      dup3\n        /* \"#utility.yul\":3074:3111   */\n      mstore\n        /* \"#utility.yul\":2999:3117   */\n      pop\n      pop\n      jump\t// out\n        /* \"#utility.yul\":3123:3345   */\n    tag_28:\n        /* \"#utility.yul\":3216:3220   */\n      0x00\n        /* \"#utility.yul\":3254:3256   */\n      0x20\n        /* \"#utility.yul\":3243:3252   */\n      dup3\n        /* \"#utility.yul\":3239:3257   */\n      add\n        /* \"#utility.yul\":3231:3257   */\n      swap1\n      pop\n        /* \"#utility.yul\":3267:3338   */\n      tag_146\n        /* \"#utility.yul\":3335:3336   */\n      0x00\n        /* \"#utility.yul\":3324:3333   */\n      dup4\n        /* \"#utility.yul\":3320:3337   */\n      add\n        /* \"#utility.yul\":3311:3317   */\n      dup5\n        /* \"#utility.yul\":3267:3338   */\n      tag_98\n      jump\t// in\n    tag_146:\n        /* \"#utility.yul\":3123:3345   */\n      swap3\n      swap2\n      pop\n      pop\n      jump\t// out\n        /* \"#utility.yul\":3432:3549   */\n    tag_100:\n        /* \"#utility.yul\":3541:3542   */\n      0x00\n        /* \"#utility.yul\":3538:3539   */\n      dup1\n        /* \"#utility.yul\":3531:3543   */\n      revert\n        /* \"#utility.yul\":3678:3800   */\n    tag_102:\n        /* \"#utility.yul\":3751:3775   */\n      tag_151\n        /* \"#utility.yul\":3769:3774   */\n      dup2\n        /* \"#utility.yul\":3751:3775   */\n      tag_86\n      jump\t// in\n    tag_151:\n        /* \"#utility.yul\":3744:3749   */\n      dup2\n        /* \"#utility.yul\":3741:3776   */\n      eq\n        /* \"#utility.yul\":3731:3794   */\n      tag_152\n      jumpi\n        /* \"#utility.yul\":3790:3791   */\n      0x00\n        /* \"#utility.yul\":3787:3788   */\n      dup1\n        /* \"#utility.yul\":3780:3792   */\n      revert\n        /* \"#utility.yul\":3731:3794   */\n    tag_152:\n        /* \"#utility.yul\":3678:3800   */\n      pop\n      jump\t// out\n        /* \"#utility.yul\":3806:3945   */\n    tag_103:\n        /* \"#utility.yul\":3852:3857   */\n      0x00\n        /* \"#utility.yul\":3890:3896   */\n      dup2\n        /* \"#utility.yul\":3877:3897   */\n      calldataload\n        /* \"#utility.yul\":3868:3897   */\n      swap1\n      pop\n        /* \"#utility.yul\":3906:3939   */\n      tag_154\n        /* \"#utility.yul\":3933:3938   */\n      dup2\n        /* \"#utility.yul\":3906:3939   */\n      tag_102\n      jump\t// in\n    tag_154:\n        /* \"#utility.yul\":3806:3945   */\n      swap3\n      swap2\n      pop\n      pop\n      jump\t// out\n        /* \"#utility.yul\":3951:4280   */\n    tag_42:\n        /* \"#utility.yul\":4010:4016   */\n      0x00\n        /* \"#utility.yul\":4059:4061   */\n      0x20\n        /* \"#utility.yul\":4047:4056   */\n      dup3\n        /* \"#utility.yul\":4038:4045   */\n      dup5\n        /* \"#utility.yul\":4034:4057   */\n      sub\n        /* \"#utility.yul\":4030:4062   */\n      slt\n        /* \"#utility.yul\":4027:4146   */\n      iszero\n      tag_156\n      jumpi\n        /* \"#utility.yul\":4065:4144   */\n      tag_157\n      tag_100\n      jump\t// in\n    tag_157:\n        /* \"#utility.yul\":4027:4146   */\n    tag_156:\n        /* \"#utility.yul\":4185:4186   */\n      0x00\n        /* \"#utility.yul\":4210:4263   */\n      tag_158\n        /* \"#utility.yul\":4255:4262   */\n      dup5\n        /* \"#utility.yul\":4246:4252   */\n      dup3\n        /* \"#utility.yul\":4235:4244   */\n      dup6\n        /* \"#utility.yul\":4231:4253   */\n      add\n        /* \"#utility.yul\":4210:4263   */\n      tag_103\n      jump\t// in\n    tag_158:\n        /* \"#utility.yul\":4200:4263   */\n      swap2\n      pop\n        /* \"#utility.yul\":4156:4273   */\n      pop\n        /* \"#utility.yul\":3951:4280   */\n      swap3\n      swap2\n      pop\n      pop\n      jump\t// out\n        /* \"#utility.yul\":4286:4428   */\n    tag_104:\n        /* \"#utility.yul\":4389:4421   */\n      tag_160\n        /* \"#utility.yul\":4415:4420   */\n      dup2\n        /* \"#utility.yul\":4389:4421   */\n      tag_92\n      jump\t// in\n    tag_160:\n        /* \"#utility.yul\":4384:4387   */\n      dup3\n        /* \"#utility.yul\":4377:4422   */\n      mstore\n        /* \"#utility.yul\":4286:4428   */\n      pop\n      pop\n      jump\t// out\n        /* \"#utility.yul\":4434:4688   */\n    tag_45:\n        /* \"#utility.yul\":4543:4547   */\n      0x00\n        /* \"#utility.yul\":4581:4583   */\n      0x20\n        /* \"#utility.yul\":4570:4579   */\n      dup3\n        /* \"#utility.yul\":4566:4584   */\n      add\n        /* \"#utility.yul\":4558:4584   */\n      swap1\n      pop\n        /* \"#utility.yul\":4594:4681   */\n      tag_162\n        /* \"#utility.yul\":4678:4679   */\n      0x00\n        /* \"#utility.yul\":4667:4676   */\n      dup4\n        /* \"#utility.yul\":4663:4680   */\n      add\n        /* \"#utility.yul\":4654:4660   */\n      dup5\n        /* \"#utility.yul\":4594:4681   */\n      tag_104\n      jump\t// in\n    tag_162:\n        /* \"#utility.yul\":4434:4688   */\n      swap3\n      swap2\n      pop\n      pop\n      jump\t// out\n        /* \"#utility.yul\":4694:4874   */\n    tag_105:\n        /* \"#utility.yul\":4742:4819   */\n      0x4e487b7100000000000000000000000000000000000000000000000000000000\n        /* \"#utility.yul\":4739:4740   */\n      0x00\n        /* \"#utility.yul\":4732:4820   */\n      mstore\n        /* \"#utility.yul\":4839:4843   */\n      0x12\n        /* \"#utility.yul\":4836:4837   */\n      0x04\n        /* \"#utility.yul\":4829:4844   */\n      mstore\n        /* \"#utility.yul\":4863:4867   */\n      0x24\n        /* \"#utility.yul\":4860:4861   */\n      0x00\n        /* \"#utility.yul\":4853:4868   */\n      revert\n        /* \"#utility.yul\":4880:5056   */\n    tag_53:\n        /* \"#utility.yul\":4912:4913   */\n      0x00\n        /* \"#utility.yul\":4929:4949   */\n      tag_165\n        /* \"#utility.yul\":4947:4948   */\n      dup3\n        /* \"#utility.yul\":4929:4949   */\n      tag_86\n      jump\t// in\n    tag_165:\n        /* \"#utility.yul\":4924:4949   */\n      swap2\n      pop\n        /* \"#utility.yul\":4963:4983   */\n      tag_166\n        /* \"#utility.yul\":4981:4982   */\n      dup4\n        /* \"#utility.yul\":4963:4983   */\n      tag_86\n      jump\t// in\n    tag_166:\n        /* \"#utility.yul\":4958:4983   */\n      swap3\n      pop\n        /* \"#utility.yul\":5002:5003   */\n      dup3\n        /* \"#utility.yul\":4992:5027   */\n      tag_167\n      jumpi\n        /* \"#utility.yul\":5007:5025   */\n      tag_168\n      tag_105\n      jump\t// in\n    tag_168:\n        /* \"#utility.yul\":4992:5027   */\n    tag_167:\n        /* \"#utility.yul\":5048:5049   */\n      dup3\n        /* \"#utility.yul\":5045:5046   */\n      dup3\n        /* \"#utility.yul\":5041:5050   */\n      mod\n        /* \"#utility.yul\":5036:5050   */\n      swap1\n      pop\n        /* \"#utility.yul\":4880:5056   */\n      swap3\n      swap2\n      pop\n      pop\n      jump\t// out\n        /* \"#utility.yul\":5062:5242   */\n    tag_56:\n        /* \"#utility.yul\":5110:5187   */\n      0x4e487b7100000000000000000000000000000000000000000000000000000000\n        /* \"#utility.yul\":5107:5108   */\n      0x00\n        /* \"#utility.yul\":5100:5188   */\n      mstore\n        /* \"#utility.yul\":5207:5211   */\n      0x32\n        /* \"#utility.yul\":5204:5205   */\n      0x04\n        /* \"#utility.yul\":5197:5212   */\n      mstore\n        /* \"#utility.yul\":5231:5235   */\n      0x24\n        /* \"#utility.yul\":5228:5229   */\n      0x00\n        /* \"#utility.yul\":5221:5236   */\n      revert\n        /* \"#utility.yul\":5248:5428   */\n    tag_106:\n        /* \"#utility.yul\":5296:5373   */\n      0x4e487b7100000000000000000000000000000000000000000000000000000000\n        /* \"#utility.yul\":5293:5294   */\n      0x00\n        /* \"#utility.yul\":5286:5374   */\n      mstore\n        /* \"#utility.yul\":5393:5397   */\n      0x11\n        /* \"#utility.yul\":5390:5391   */\n      0x04\n        /* \"#utility.yul\":5383:5398   */\n      mstore\n        /* \"#utility.yul\":5417:5421   */\n      0x24\n        /* \"#utility.yul\":5414:5415   */\n      0x00\n        /* \"#utility.yul\":5407:5422   */\n      revert\n        /* \"#utility.yul\":5434:5667   */\n    tag_61:\n        /* \"#utility.yul\":5473:5476   */\n      0x00\n        /* \"#utility.yul\":5496:5520   */\n      tag_172\n        /* \"#utility.yul\":5514:5519   */\n      dup3\n        /* \"#utility.yul\":5496:5520   */\n      tag_86\n      jump\t// in\n    tag_172:\n        /* \"#utility.yul\":5487:5520   */\n      swap2\n      pop\n        /* \"#utility.yul\":5542:5608   */\n      0xffffffffffffffffffffffffffffffffffffffffffffffffffffffffffffffff\n        /* \"#utility.yul\":5535:5540   */\n      dup3\n        /* \"#utility.yul\":5532:5609   */\n      eq\n        /* \"#utility.yul\":5529:5632   */\n      iszero\n      tag_173\n      jumpi\n        /* \"#utility.yul\":5612:5630   */\n      tag_174\n      tag_106\n      jump\t// in\n    tag_174:\n        /* \"#utility.yul\":5529:5632   */\n    tag_173:\n        /* \"#utility.yul\":5659:5660   */\n      0x01\n        /* \"#utility.yul\":5652:5657   */\n      dup3\n        /* \"#utility.yul\":5648:5661   */\n      add\n        /* \"#utility.yul\":5641:5661   */\n      swap1\n      pop\n        /* \"#utility.yul\":5434:5667   */\n      swap2\n      swap1\n      pop\n      jump\t// out\n        /* \"#utility.yul\":5673:5853   */\n    tag_64:\n        /* \"#utility.yul\":5721:5798   */\n      0x4e487b7100000000000000000000000000000000000000000000000000000000\n        /* \"#utility.yul\":5718:5719   */\n      0x00\n        /* \"#utility.yul\":5711:5799   */\n      mstore\n        /* \"#utility.yul\":5818:5822   */\n      0x41\n        /* \"#utility.yul\":5815:5816   */\n      0x04\n        /* \"#utility.yul\":5808:5823   */\n      mstore\n        /* \"#utility.yul\":5842:5846   */\n      0x24\n        /* \"#utility.yul\":5839:5840   */\n      0x00\n        /* \"#utility.yul\":5832:5847   */\n      revert\n        /* \"#utility.yul\":5859:5953   */\n    tag_107:\n        /* \"#utility.yul\":5892:5900   */\n      0x00\n        /* \"#utility.yul\":5940:5945   */\n      dup2\n        /* \"#utility.yul\":5936:5938   */\n      0x60\n        /* \"#utility.yul\":5932:5946   */\n      shl\n        /* \"#utility.yul\":5911:5946   */\n      swap1\n      pop\n        /* \"#utility.yul\":5859:5953   */\n      swap2\n      swap1\n      pop\n      jump\t// out\n        /* \"#utility.yul\":5959:6053   */\n    tag_108:\n        /* \"#utility.yul\":5998:6005   */\n      0x00\n        /* \"#utility.yul\":6027:6047   */\n      tag_178\n        /* \"#utility.yul\":6041:6046   */\n      dup3\n        /* \"#utility.yul\":6027:6047   */\n      tag_107\n      jump\t// in\n    tag_178:\n        /* \"#utility.yul\":6016:6047   */\n      swap1\n      pop\n        /* \"#utility.yul\":5959:6053   */\n      swap2\n      swap1\n      pop\n      jump\t// out\n        /* \"#utility.yul\":6059:6159   */\n    tag_109:\n        /* \"#utility.yul\":6098:6105   */\n      0x00\n        /* \"#utility.yul\":6127:6153   */\n      tag_180\n        /* \"#utility.yul\":6147:6152   */\n      dup3\n        /* \"#utility.yul\":6127:6153   */\n      tag_108\n      jump\t// in\n    tag_180:\n        /* \"#utility.yul\":6116:6153   */\n      swap1\n      pop\n        /* \"#utility.yul\":6059:6159   */\n      swap2\n      swap1\n      pop\n      jump\t// out\n        /* \"#utility.yul\":6165:6322   */\n    tag_110:\n        /* \"#utility.yul\":6270:6315   */\n      tag_182\n        /* \"#utility.yul\":6290:6314   */\n      tag_183\n        /* \"#utility.yul\":6308:6313   */\n      dup3\n        /* \"#utility.yul\":6290:6314   */\n      tag_97\n      jump\t// in\n    tag_183:\n        /* \"#utility.yul\":6270:6315   */\n      tag_109\n      jump\t// in\n    tag_182:\n        /* \"#utility.yul\":6265:6268   */\n      dup3\n        /* \"#utility.yul\":6258:6316   */\n      mstore\n        /* \"#utility.yul\":6165:6322   */\n      pop\n      pop\n      jump\t// out\n        /* \"#utility.yul\":6328:6407   */\n    tag_111:\n        /* \"#utility.yul\":6367:6374   */\n      0x00\n        /* \"#utility.yul\":6396:6401   */\n      dup2\n        /* \"#utility.yul\":6385:6401   */\n      swap1\n      pop\n        /* \"#utility.yul\":6328:6407   */\n      swap2\n      swap1\n      pop\n      jump\t// out\n        /* \"#utility.yul\":6413:6570   */\n    tag_112:\n        /* \"#utility.yul\":6518:6563   */\n      tag_186\n        /* \"#utility.yul\":6538:6562   */\n      tag_187\n        /* \"#utility.yul\":6556:6561   */\n      dup3\n        /* \"#utility.yul\":6538:6562   */\n      tag_86\n      jump\t// in\n    tag_187:\n        /* \"#utility.yul\":6518:6563   */\n      tag_111\n      jump\t// in\n    tag_186:\n        /* \"#utility.yul\":6513:6516   */\n      dup3\n        /* \"#utility.yul\":6506:6564   */\n      mstore\n        /* \"#utility.yul\":6413:6570   */\n      pop\n      pop\n      jump\t// out\n        /* \"#utility.yul\":6576:6973   */\n    tag_73:\n        /* \"#utility.yul\":6716:6719   */\n      0x00\n        /* \"#utility.yul\":6731:6806   */\n      tag_189\n        /* \"#utility.yul\":6802:6805   */\n      dup3\n        /* \"#utility.yul\":6793:6799   */\n      dup6\n        /* \"#utility.yul\":6731:6806   */\n      tag_110\n      jump\t// in\n    tag_189:\n        /* \"#utility.yul\":6831:6833   */\n      0x14\n        /* \"#utility.yul\":6826:6829   */\n      dup3\n        /* \"#utility.yul\":6822:6834   */\n      add\n        /* \"#utility.yul\":6815:6834   */\n      swap2\n      pop\n        /* \"#utility.yul\":6844:6919   */\n      tag_190\n        /* \"#utility.yul\":6915:6918   */\n      dup3\n        /* \"#utility.yul\":6906:6912   */\n      dup5\n        /* \"#utility.yul\":6844:6919   */\n      tag_112\n      jump\t// in\n    tag_190:\n        /* \"#utility.yul\":6944:6946   */\n      0x20\n        /* \"#utility.yul\":6939:6942   */\n      dup3\n        /* \"#utility.yul\":6935:6947   */\n      add\n        /* \"#utility.yul\":6928:6947   */\n      swap2\n      pop\n        /* \"#utility.yul\":6964:6967   */\n      dup2\n        /* \"#utility.yul\":6957:6967   */\n      swap1\n      pop\n        /* \"#utility.yul\":6576:6973   */\n      swap4\n      swap3\n      pop\n      pop\n      pop\n      jump\t// out\n\n    auxdata: 0xa2646970667358221220b921cb60b12c41a9ab480833293463ebc3bc19f879d29938360c6a103d1b394164736f6c634300080b0033\n}\n",
				"bytecode": {
					"linkReferences": {},
					"object": "608060405234801561001057600080fd5b50336000806101000a81548173ffffffffffffffffffffffffffffffffffffffff021916908373ffffffffffffffffffffffffffffffffffffffff16021790555060016002819055506109ff806100686000396000f3fe60806040526004361061007b5760003560e01c8063dbdff2c11161004e578063dbdff2c114610118578063e580f47b14610143578063e97dcb621461016e578063f71d96cb146101785761007b565b806312065fe0146100805780635d495aea146100ab5780638b5b9ccc146100c25780638da5cb5b146100ed575b600080fd5b34801561008c57600080fd5b506100956101b5565b6040516100a2919061060d565b60405180910390f35b3480156100b757600080fd5b506100c06101bd565b005b3480156100ce57600080fd5b506100d7610389565b6040516100e49190610718565b60405180910390f35b3480156100f957600080fd5b50610102610417565b60405161010f919061075b565b60405180910390f35b34801561012457600080fd5b5061012d61043b565b60405161013a919061060d565b60405180910390f35b34801561014f57600080fd5b5061015861048f565b604051610165919061060d565b60405180910390f35b610176610495565b005b34801561018457600080fd5b5061019f600480360381019061019a91906107a7565b61050e565b6040516101ac91906107e3565b60405180910390f35b600047905090565b60008054906101000a900473ffffffffffffffffffffffffffffffffffffffff1673ffffffffffffffffffffffffffffffffffffffff163373ffffffffffffffffffffffffffffffffffffffff161461021557600080fd5b60008054906101000a900473ffffffffffffffffffffffffffffffffffffffff1673ffffffffffffffffffffffffffffffffffffffff163373ffffffffffffffffffffffffffffffffffffffff161461026d57600080fd5b600060018054905061027d61043b565b610287919061082d565b90506001818154811061029d5761029c61085e565b5b9060005260206000200160009054906101000a900473ffffffffffffffffffffffffffffffffffffffff1673ffffffffffffffffffffffffffffffffffffffff166108fc479081150290604051600060405180830381858888f1935050505015801561030d573d6000803e3d6000fd5b5060026000815480929190610321906108bc565b9190505550600067ffffffffffffffff81111561034157610340610905565b5b60405190808252806020026020018201604052801561036f5781602001602082028036833780820191505090505b506001908051906020019061038592919061054d565b5050565b6060600180548060200260200160405190810160405280929190818152602001828054801561040d57602002820191906000526020600020905b8160009054906101000a900473ffffffffffffffffffffffffffffffffffffffff1673ffffffffffffffffffffffffffffffffffffffff16815260200190600101908083116103c3575b5050505050905090565b60008054906101000a900473ffffffffffffffffffffffffffffffffffffffff1681565b60008060009054906101000a900473ffffffffffffffffffffffffffffffffffffffff164260405160200161047192919061099d565b6040516020818303038152906040528051906020012060001c905090565b60025481565b67016345785d8a000034116104a957600080fd5b6001339080600181540180825580915050600190039060005260206000200160009091909190916101000a81548173ffffffffffffffffffffffffffffffffffffffff021916908373ffffffffffffffffffffffffffffffffffffffff160217905550565b6001818154811061051e57600080fd5b906000526020600020016000915054906101000a900473ffffffffffffffffffffffffffffffffffffffff1681565b8280548282559060005260206000209081019282156105c6579160200282015b828111156105c55782518260006101000a81548173ffffffffffffffffffffffffffffffffffffffff021916908373ffffffffffffffffffffffffffffffffffffffff1602179055509160200191906001019061056d565b5b5090506105d391906105d7565b5090565b5b808211156105f05760008160009055506001016105d8565b5090565b6000819050919050565b610607816105f4565b82525050565b600060208201905061062260008301846105fe565b92915050565b600081519050919050565b600082825260208201905092915050565b6000819050602082019050919050565b600073ffffffffffffffffffffffffffffffffffffffff82169050919050565b600061067f82610654565b9050919050565b61068f81610674565b82525050565b60006106a18383610686565b60208301905092915050565b6000602082019050919050565b60006106c582610628565b6106cf8185610633565b93506106da83610644565b8060005b8381101561070b5781516106f28882610695565b97506106fd836106ad565b9250506001810190506106de565b5085935050505092915050565b6000602082019050818103600083015261073281846106ba565b905092915050565b600061074582610654565b9050919050565b6107558161073a565b82525050565b6000602082019050610770600083018461074c565b92915050565b600080fd5b610784816105f4565b811461078f57600080fd5b50565b6000813590506107a18161077b565b92915050565b6000602082840312156107bd576107bc610776565b5b60006107cb84828501610792565b91505092915050565b6107dd81610674565b82525050565b60006020820190506107f860008301846107d4565b92915050565b7f4e487b7100000000000000000000000000000000000000000000000000000000600052601260045260246000fd5b6000610838826105f4565b9150610843836105f4565b925082610853576108526107fe565b5b828206905092915050565b7f4e487b7100000000000000000000000000000000000000000000000000000000600052603260045260246000fd5b7f4e487b7100000000000000000000000000000000000000000000000000000000600052601160045260246000fd5b60006108c7826105f4565b91507fffffffffffffffffffffffffffffffffffffffffffffffffffffffffffffffff8214156108fa576108f961088d565b5b600182019050919050565b7f4e487b7100000000000000000000000000000000000000000000000000000000600052604160045260246000fd5b60008160601b9050919050565b600061094c82610934565b9050919050565b600061095e82610941565b9050919050565b6109766109718261073a565b610953565b82525050565b6000819050919050565b610997610992826105f4565b61097c565b82525050565b60006109a98285610965565b6014820191506109b98284610986565b602082019150819050939250505056fea2646970667358221220b921cb60b12c41a9ab480833293463ebc3bc19f879d29938360c6a103d1b394164736f6c634300080b0033",
					"opcodes": "PUSH1 0x80 PUSH1 0x40 MSTORE CALLVALUE DUP1 ISZERO PUSH2 0x10 JUMPI PUSH1 0x0 DUP1 REVERT JUMPDEST POP CALLER PUSH1 0x0 DUP1 PUSH2 0x100 EXP DUP2 SLOAD DUP2 PUSH20 0xFFFFFFFFFFFFFFFFFFFFFFFFFFFFFFFFFFFFFFFF MUL NOT AND SWAP1 DUP4 PUSH20 0xFFFFFFFFFFFFFFFFFFFFFFFFFFFFFFFFFFFFFFFF AND MUL OR SWAP1 SSTORE POP PUSH1 0x1 PUSH1 0x2 DUP2 SWAP1 SSTORE POP PUSH2 0x9FF DUP1 PUSH2 0x68 PUSH1 0x0 CODECOPY PUSH1 0x0 RETURN INVALID PUSH1 0x80 PUSH1 0x40 MSTORE PUSH1 0x4 CALLDATASIZE LT PUSH2 0x7B JUMPI PUSH1 0x0 CALLDATALOAD PUSH1 0xE0 SHR DUP1 PUSH4 0xDBDFF2C1 GT PUSH2 0x4E JUMPI DUP1 PUSH4 0xDBDFF2C1 EQ PUSH2 0x118 JUMPI DUP1 PUSH4 0xE580F47B EQ PUSH2 0x143 JUMPI DUP1 PUSH4 0xE97DCB62 EQ PUSH2 0x16E JUMPI DUP1 PUSH4 0xF71D96CB EQ PUSH2 0x178 JUMPI PUSH2 0x7B JUMP JUMPDEST DUP1 PUSH4 0x12065FE0 EQ PUSH2 0x80 JUMPI DUP1 PUSH4 0x5D495AEA EQ PUSH2 0xAB JUMPI DUP1 PUSH4 0x8B5B9CCC EQ PUSH2 0xC2 JUMPI DUP1 PUSH4 0x8DA5CB5B EQ PUSH2 0xED JUMPI JUMPDEST PUSH1 0x0 DUP1 REVERT JUMPDEST CALLVALUE DUP1 ISZERO PUSH2 0x8C JUMPI PUSH1 0x0 DUP1 REVERT JUMPDEST POP PUSH2 0x95 PUSH2 0x1B5 JUMP JUMPDEST PUSH1 0x40 MLOAD PUSH2 0xA2 SWAP2 SWAP1 PUSH2 0x60D JUMP JUMPDEST PUSH1 0x40 MLOAD DUP1 SWAP2 SUB SWAP1 RETURN JUMPDEST CALLVALUE DUP1 ISZERO PUSH2 0xB7 JUMPI PUSH1 0x0 DUP1 REVERT JUMPDEST POP PUSH2 0xC0 PUSH2 0x1BD JUMP JUMPDEST STOP JUMPDEST CALLVALUE DUP1 ISZERO PUSH2 0xCE JUMPI PUSH1 0x0 DUP1 REVERT JUMPDEST POP PUSH2 0xD7 PUSH2 0x389 JUMP JUMPDEST PUSH1 0x40 MLOAD PUSH2 0xE4 SWAP2 SWAP1 PUSH2 0x718 JUMP JUMPDEST PUSH1 0x40 MLOAD DUP1 SWAP2 SUB SWAP1 RETURN JUMPDEST CALLVALUE DUP1 ISZERO PUSH2 0xF9 JUMPI PUSH1 0x0 DUP1 REVERT JUMPDEST POP PUSH2 0x102 PUSH2 0x417 JUMP JUMPDEST PUSH1 0x40 MLOAD PUSH2 0x10F SWAP2 SWAP1 PUSH2 0x75B JUMP JUMPDEST PUSH1 0x40 MLOAD DUP1 SWAP2 SUB SWAP1 RETURN JUMPDEST CALLVALUE DUP1 ISZERO PUSH2 0x124 JUMPI PUSH1 0x0 DUP1 REVERT JUMPDEST POP PUSH2 0x12D PUSH2 0x43B JUMP JUMPDEST PUSH1 0x40 MLOAD PUSH2 0x13A SWAP2 SWAP1 PUSH2 0x60D JUMP JUMPDEST PUSH1 0x40 MLOAD DUP1 SWAP2 SUB SWAP1 RETURN JUMPDEST CALLVALUE DUP1 ISZERO PUSH2 0x14F JUMPI PUSH1 0x0 DUP1 REVERT JUMPDEST POP PUSH2 0x158 PUSH2 0x48F JUMP JUMPDEST PUSH1 0x40 MLOAD PUSH2 0x165 SWAP2 SWAP1 PUSH2 0x60D JUMP JUMPDEST PUSH1 0x40 MLOAD DUP1 SWAP2 SUB SWAP1 RETURN JUMPDEST PUSH2 0x176 PUSH2 0x495 JUMP JUMPDEST STOP JUMPDEST CALLVALUE DUP1 ISZERO PUSH2 0x184 JUMPI PUSH1 0x0 DUP1 REVERT JUMPDEST POP PUSH2 0x19F PUSH1 0x4 DUP1 CALLDATASIZE SUB DUP2 ADD SWAP1 PUSH2 0x19A SWAP2 SWAP1 PUSH2 0x7A7 JUMP JUMPDEST PUSH2 0x50E JUMP JUMPDEST PUSH1 0x40 MLOAD PUSH2 0x1AC SWAP2 SWAP1 PUSH2 0x7E3 JUMP JUMPDEST PUSH1 0x40 MLOAD DUP1 SWAP2 SUB SWAP1 RETURN JUMPDEST PUSH1 0x0 SELFBALANCE SWAP1 POP SWAP1 JUMP JUMPDEST PUSH1 0x0 DUP1 SLOAD SWAP1 PUSH2 0x100 EXP SWAP1 DIV PUSH20 0xFFFFFFFFFFFFFFFFFFFFFFFFFFFFFFFFFFFFFFFF AND PUSH20 0xFFFFFFFFFFFFFFFFFFFFFFFFFFFFFFFFFFFFFFFF AND CALLER PUSH20 0xFFFFFFFFFFFFFFFFFFFFFFFFFFFFFFFFFFFFFFFF AND EQ PUSH2 0x215 JUMPI PUSH1 0x0 DUP1 REVERT JUMPDEST PUSH1 0x0 DUP1 SLOAD SWAP1 PUSH2 0x100 EXP SWAP1 DIV PUSH20 0xFFFFFFFFFFFFFFFFFFFFFFFFFFFFFFFFFFFFFFFF AND PUSH20 0xFFFFFFFFFFFFFFFFFFFFFFFFFFFFFFFFFFFFFFFF AND CALLER PUSH20 0xFFFFFFFFFFFFFFFFFFFFFFFFFFFFFFFFFFFFFFFF AND EQ PUSH2 0x26D JUMPI PUSH1 0x0 DUP1 REVERT JUMPDEST PUSH1 0x0 PUSH1 0x1 DUP1 SLOAD SWAP1 POP PUSH2 0x27D PUSH2 0x43B JUMP JUMPDEST PUSH2 0x287 SWAP2 SWAP1 PUSH2 0x82D JUMP JUMPDEST SWAP1 POP PUSH1 0x1 DUP2 DUP2 SLOAD DUP2 LT PUSH2 0x29D JUMPI PUSH2 0x29C PUSH2 0x85E JUMP JUMPDEST JUMPDEST SWAP1 PUSH1 0x0 MSTORE PUSH1 0x20 PUSH1 0x0 KECCAK256 ADD PUSH1 0x0 SWAP1 SLOAD SWAP1 PUSH2 0x100 EXP SWAP1 DIV PUSH20 0xFFFFFFFFFFFFFFFFFFFFFFFFFFFFFFFFFFFFFFFF AND PUSH20 0xFFFFFFFFFFFFFFFFFFFFFFFFFFFFFFFFFFFFFFFF AND PUSH2 0x8FC SELFBALANCE SWAP1 DUP2 ISZERO MUL SWAP1 PUSH1 0x40 MLOAD PUSH1 0x0 PUSH1 0x40 MLOAD DUP1 DUP4 SUB DUP2 DUP6 DUP9 DUP9 CALL SWAP4 POP POP POP POP ISZERO DUP1 ISZERO PUSH2 0x30D JUMPI RETURNDATASIZE PUSH1 0x0 DUP1 RETURNDATACOPY RETURNDATASIZE PUSH1 0x0 REVERT JUMPDEST POP PUSH1 0x2 PUSH1 0x0 DUP2 SLOAD DUP1 SWAP3 SWAP2 SWAP1 PUSH2 0x321 SWAP1 PUSH2 0x8BC JUMP JUMPDEST SWAP2 SWAP1 POP SSTORE POP PUSH1 0x0 PUSH8 0xFFFFFFFFFFFFFFFF DUP2 GT ISZERO PUSH2 0x341 JUMPI PUSH2 0x340 PUSH2 0x905 JUMP JUMPDEST JUMPDEST PUSH1 0x40 MLOAD SWAP1 DUP1 DUP3 MSTORE DUP1 PUSH1 0x20 MUL PUSH1 0x20 ADD DUP3 ADD PUSH1 0x40 MSTORE DUP1 ISZERO PUSH2 0x36F JUMPI DUP2 PUSH1 0x20 ADD PUSH1 0x20 DUP3 MUL DUP1 CALLDATASIZE DUP4 CALLDATACOPY DUP1 DUP3 ADD SWAP2 POP POP SWAP1 POP JUMPDEST POP PUSH1 0x1 SWAP1 DUP1 MLOAD SWAP1 PUSH1 0x20 ADD SWAP1 PUSH2 0x385 SWAP3 SWAP2 SWAP1 PUSH2 0x54D JUMP JUMPDEST POP POP JUMP JUMPDEST PUSH1 0x60 PUSH1 0x1 DUP1 SLOAD DUP1 PUSH1 0x20 MUL PUSH1 0x20 ADD PUSH1 0x40 MLOAD SWAP1 DUP2 ADD PUSH1 0x40 MSTORE DUP1 SWAP3 SWAP2 SWAP1 DUP2 DUP2 MSTORE PUSH1 0x20 ADD DUP3 DUP1 SLOAD DUP1 ISZERO PUSH2 0x40D JUMPI PUSH1 0x20 MUL DUP3 ADD SWAP2 SWAP1 PUSH1 0x0 MSTORE PUSH1 0x20 PUSH1 0x0 KECCAK256 SWAP1 JUMPDEST DUP2 PUSH1 0x0 SWAP1 SLOAD SWAP1 PUSH2 0x100 EXP SWAP1 DIV PUSH20 0xFFFFFFFFFFFFFFFFFFFFFFFFFFFFFFFFFFFFFFFF AND PUSH20 0xFFFFFFFFFFFFFFFFFFFFFFFFFFFFFFFFFFFFFFFF AND DUP2 MSTORE PUSH1 0x20 ADD SWAP1 PUSH1 0x1 ADD SWAP1 DUP1 DUP4 GT PUSH2 0x3C3 JUMPI JUMPDEST POP POP POP POP POP SWAP1 POP SWAP1 JUMP JUMPDEST PUSH1 0x0 DUP1 SLOAD SWAP1 PUSH2 0x100 EXP SWAP1 DIV PUSH20 0xFFFFFFFFFFFFFFFFFFFFFFFFFFFFFFFFFFFFFFFF AND DUP2 JUMP JUMPDEST PUSH1 0x0 DUP1 PUSH1 0x0 SWAP1 SLOAD SWAP1 PUSH2 0x100 EXP SWAP1 DIV PUSH20 0xFFFFFFFFFFFFFFFFFFFFFFFFFFFFFFFFFFFFFFFF AND TIMESTAMP PUSH1 0x40 MLOAD PUSH1 0x20 ADD PUSH2 0x471 SWAP3 SWAP2 SWAP1 PUSH2 0x99D JUMP JUMPDEST PUSH1 0x40 MLOAD PUSH1 0x20 DUP2 DUP4 SUB SUB DUP2 MSTORE SWAP1 PUSH1 0x40 MSTORE DUP1 MLOAD SWAP1 PUSH1 0x20 ADD KECCAK256 PUSH1 0x0 SHR SWAP1 POP SWAP1 JUMP JUMPDEST PUSH1 0x2 SLOAD DUP2 JUMP JUMPDEST PUSH8 0x16345785D8A0000 CALLVALUE GT PUSH2 0x4A9 JUMPI PUSH1 0x0 DUP1 REVERT JUMPDEST PUSH1 0x1 CALLER SWAP1 DUP1 PUSH1 0x1 DUP2 SLOAD ADD DUP1 DUP3 SSTORE DUP1 SWAP2 POP POP PUSH1 0x1 SWAP1 SUB SWAP1 PUSH1 0x0 MSTORE PUSH1 0x20 PUSH1 0x0 KECCAK256 ADD PUSH1 0x0 SWAP1 SWAP2 SWAP1 SWAP2 SWAP1 SWAP2 PUSH2 0x100 EXP DUP2 SLOAD DUP2 PUSH20 0xFFFFFFFFFFFFFFFFFFFFFFFFFFFFFFFFFFFFFFFF MUL NOT AND SWAP1 DUP4 PUSH20 0xFFFFFFFFFFFFFFFFFFFFFFFFFFFFFFFFFFFFFFFF AND MUL OR SWAP1 SSTORE POP JUMP JUMPDEST PUSH1 0x1 DUP2 DUP2 SLOAD DUP2 LT PUSH2 0x51E JUMPI PUSH1 0x0 DUP1 REVERT JUMPDEST SWAP1 PUSH1 0x0 MSTORE PUSH1 0x20 PUSH1 0x0 KECCAK256 ADD PUSH1 0x0 SWAP2 POP SLOAD SWAP1 PUSH2 0x100 EXP SWAP1 DIV PUSH20 0xFFFFFFFFFFFFFFFFFFFFFFFFFFFFFFFFFFFFFFFF AND DUP2 JUMP JUMPDEST DUP3 DUP1 SLOAD DUP3 DUP3 SSTORE SWAP1 PUSH1 0x0 MSTORE PUSH1 0x20 PUSH1 0x0 KECCAK256 SWAP1 DUP2 ADD SWAP3 DUP3 ISZERO PUSH2 0x5C6 JUMPI SWAP2 PUSH1 0x20 MUL DUP3 ADD JUMPDEST DUP3 DUP2 GT ISZERO PUSH2 0x5C5 JUMPI DUP3 MLOAD DUP3 PUSH1 0x0 PUSH2 0x100 EXP DUP2 SLOAD DUP2 PUSH20 0xFFFFFFFFFFFFFFFFFFFFFFFFFFFFFFFFFFFFFFFF MUL NOT AND SWAP1 DUP4 PUSH20 0xFFFFFFFFFFFFFFFFFFFFFFFFFFFFFFFFFFFFFFFF AND MUL OR SWAP1 SSTORE POP SWAP2 PUSH1 0x20 ADD SWAP2 SWAP1 PUSH1 0x1 ADD SWAP1 PUSH2 0x56D JUMP JUMPDEST JUMPDEST POP SWAP1 POP PUSH2 0x5D3 SWAP2 SWAP1 PUSH2 0x5D7 JUMP JUMPDEST POP SWAP1 JUMP JUMPDEST JUMPDEST DUP1 DUP3 GT ISZERO PUSH2 0x5F0 JUMPI PUSH1 0x0 DUP2 PUSH1 0x0 SWAP1 SSTORE POP PUSH1 0x1 ADD PUSH2 0x5D8 JUMP JUMPDEST POP SWAP1 JUMP JUMPDEST PUSH1 0x0 DUP2 SWAP1 POP SWAP2 SWAP1 POP JUMP JUMPDEST PUSH2 0x607 DUP2 PUSH2 0x5F4 JUMP JUMPDEST DUP3 MSTORE POP POP JUMP JUMPDEST PUSH1 0x0 PUSH1 0x20 DUP3 ADD SWAP1 POP PUSH2 0x622 PUSH1 0x0 DUP4 ADD DUP5 PUSH2 0x5FE JUMP JUMPDEST SWAP3 SWAP2 POP POP JUMP JUMPDEST PUSH1 0x0 DUP2 MLOAD SWAP1 POP SWAP2 SWAP1 POP JUMP JUMPDEST PUSH1 0x0 DUP3 DUP3 MSTORE PUSH1 0x20 DUP3 ADD SWAP1 POP SWAP3 SWAP2 POP POP JUMP JUMPDEST PUSH1 0x0 DUP2 SWAP1 POP PUSH1 0x20 DUP3 ADD SWAP1 POP SWAP2 SWAP1 POP JUMP JUMPDEST PUSH1 0x0 PUSH20 0xFFFFFFFFFFFFFFFFFFFFFFFFFFFFFFFFFFFFFFFF DUP3 AND SWAP1 POP SWAP2 SWAP1 POP JUMP JUMPDEST PUSH1 0x0 PUSH2 0x67F DUP3 PUSH2 0x654 JUMP JUMPDEST SWAP1 POP SWAP2 SWAP1 POP JUMP JUMPDEST PUSH2 0x68F DUP2 PUSH2 0x674 JUMP JUMPDEST DUP3 MSTORE POP POP JUMP JUMPDEST PUSH1 0x0 PUSH2 0x6A1 DUP4 DUP4 PUSH2 0x686 JUMP JUMPDEST PUSH1 0x20 DUP4 ADD SWAP1 POP SWAP3 SWAP2 POP POP JUMP JUMPDEST PUSH1 0x0 PUSH1 0x20 DUP3 ADD SWAP1 POP SWAP2 SWAP1 POP JUMP JUMPDEST PUSH1 0x0 PUSH2 0x6C5 DUP3 PUSH2 0x628 JUMP JUMPDEST PUSH2 0x6CF DUP2 DUP6 PUSH2 0x633 JUMP JUMPDEST SWAP4 POP PUSH2 0x6DA DUP4 PUSH2 0x644 JUMP JUMPDEST DUP1 PUSH1 0x0 JUMPDEST DUP4 DUP2 LT ISZERO PUSH2 0x70B JUMPI DUP2 MLOAD PUSH2 0x6F2 DUP9 DUP3 PUSH2 0x695 JUMP JUMPDEST SWAP8 POP PUSH2 0x6FD DUP4 PUSH2 0x6AD JUMP JUMPDEST SWAP3 POP POP PUSH1 0x1 DUP2 ADD SWAP1 POP PUSH2 0x6DE JUMP JUMPDEST POP DUP6 SWAP4 POP POP POP POP SWAP3 SWAP2 POP POP JUMP JUMPDEST PUSH1 0x0 PUSH1 0x20 DUP3 ADD SWAP1 POP DUP2 DUP2 SUB PUSH1 0x0 DUP4 ADD MSTORE PUSH2 0x732 DUP2 DUP5 PUSH2 0x6BA JUMP JUMPDEST SWAP1 POP SWAP3 SWAP2 POP POP JUMP JUMPDEST PUSH1 0x0 PUSH2 0x745 DUP3 PUSH2 0x654 JUMP JUMPDEST SWAP1 POP SWAP2 SWAP1 POP JUMP JUMPDEST PUSH2 0x755 DUP2 PUSH2 0x73A JUMP JUMPDEST DUP3 MSTORE POP POP JUMP JUMPDEST PUSH1 0x0 PUSH1 0x20 DUP3 ADD SWAP1 POP PUSH2 0x770 PUSH1 0x0 DUP4 ADD DUP5 PUSH2 0x74C JUMP JUMPDEST SWAP3 SWAP2 POP POP JUMP JUMPDEST PUSH1 0x0 DUP1 REVERT JUMPDEST PUSH2 0x784 DUP2 PUSH2 0x5F4 JUMP JUMPDEST DUP2 EQ PUSH2 0x78F JUMPI PUSH1 0x0 DUP1 REVERT JUMPDEST POP JUMP JUMPDEST PUSH1 0x0 DUP2 CALLDATALOAD SWAP1 POP PUSH2 0x7A1 DUP2 PUSH2 0x77B JUMP JUMPDEST SWAP3 SWAP2 POP POP JUMP JUMPDEST PUSH1 0x0 PUSH1 0x20 DUP3 DUP5 SUB SLT ISZERO PUSH2 0x7BD JUMPI PUSH2 0x7BC PUSH2 0x776 JUMP JUMPDEST JUMPDEST PUSH1 0x0 PUSH2 0x7CB DUP5 DUP3 DUP6 ADD PUSH2 0x792 JUMP JUMPDEST SWAP2 POP POP SWAP3 SWAP2 POP POP JUMP JUMPDEST PUSH2 0x7DD DUP2 PUSH2 0x674 JUMP JUMPDEST DUP3 MSTORE POP POP JUMP JUMPDEST PUSH1 0x0 PUSH1 0x20 DUP3 ADD SWAP1 POP PUSH2 0x7F8 PUSH1 0x0 DUP4 ADD DUP5 PUSH2 0x7D4 JUMP JUMPDEST SWAP3 SWAP2 POP POP JUMP JUMPDEST PUSH32 0x4E487B7100000000000000000000000000000000000000000000000000000000 PUSH1 0x0 MSTORE PUSH1 0x12 PUSH1 0x4 MSTORE PUSH1 0x24 PUSH1 0x0 REVERT JUMPDEST PUSH1 0x0 PUSH2 0x838 DUP3 PUSH2 0x5F4 JUMP JUMPDEST SWAP2 POP PUSH2 0x843 DUP4 PUSH2 0x5F4 JUMP JUMPDEST SWAP3 POP DUP3 PUSH2 0x853 JUMPI PUSH2 0x852 PUSH2 0x7FE JUMP JUMPDEST JUMPDEST DUP3 DUP3 MOD SWAP1 POP SWAP3 SWAP2 POP POP JUMP JUMPDEST PUSH32 0x4E487B7100000000000000000000000000000000000000000000000000000000 PUSH1 0x0 MSTORE PUSH1 0x32 PUSH1 0x4 MSTORE PUSH1 0x24 PUSH1 0x0 REVERT JUMPDEST PUSH32 0x4E487B7100000000000000000000000000000000000000000000000000000000 PUSH1 0x0 MSTORE PUSH1 0x11 PUSH1 0x4 MSTORE PUSH1 0x24 PUSH1 0x0 REVERT JUMPDEST PUSH1 0x0 PUSH2 0x8C7 DUP3 PUSH2 0x5F4 JUMP JUMPDEST SWAP2 POP PUSH32 0xFFFFFFFFFFFFFFFFFFFFFFFFFFFFFFFFFFFFFFFFFFFFFFFFFFFFFFFFFFFFFFFF DUP3 EQ ISZERO PUSH2 0x8FA JUMPI PUSH2 0x8F9 PUSH2 0x88D JUMP JUMPDEST JUMPDEST PUSH1 0x1 DUP3 ADD SWAP1 POP SWAP2 SWAP1 POP JUMP JUMPDEST PUSH32 0x4E487B7100000000000000000000000000000000000000000000000000000000 PUSH1 0x0 MSTORE PUSH1 0x41 PUSH1 0x4 MSTORE PUSH1 0x24 PUSH1 0x0 REVERT JUMPDEST PUSH1 0x0 DUP2 PUSH1 0x60 SHL SWAP1 POP SWAP2 SWAP1 POP JUMP JUMPDEST PUSH1 0x0 PUSH2 0x94C DUP3 PUSH2 0x934 JUMP JUMPDEST SWAP1 POP SWAP2 SWAP1 POP JUMP JUMPDEST PUSH1 0x0 PUSH2 0x95E DUP3 PUSH2 0x941 JUMP JUMPDEST SWAP1 POP SWAP2 SWAP1 POP JUMP JUMPDEST PUSH2 0x976 PUSH2 0x971 DUP3 PUSH2 0x73A JUMP JUMPDEST PUSH2 0x953 JUMP JUMPDEST DUP3 MSTORE POP POP JUMP JUMPDEST PUSH1 0x0 DUP2 SWAP1 POP SWAP2 SWAP1 POP JUMP JUMPDEST PUSH2 0x997 PUSH2 0x992 DUP3 PUSH2 0x5F4 JUMP JUMPDEST PUSH2 0x97C JUMP JUMPDEST DUP3 MSTORE POP POP JUMP JUMPDEST PUSH1 0x0 PUSH2 0x9A9 DUP3 DUP6 PUSH2 0x965 JUMP JUMPDEST PUSH1 0x14 DUP3 ADD SWAP2 POP PUSH2 0x9B9 DUP3 DUP5 PUSH2 0x986 JUMP JUMPDEST PUSH1 0x20 DUP3 ADD SWAP2 POP DUP2 SWAP1 POP SWAP4 SWAP3 POP POP POP JUMP INVALID LOG2 PUSH5 0x6970667358 0x22 SLT KECCAK256 0xB9 0x21 0xCB PUSH1 0xB1 0x2C COINBASE 0xA9 0xAB BASEFEE ADDMOD CALLER 0x29 CALLVALUE PUSH4 0xEBC3BC19 0xF8 PUSH26 0xD29938360C6A103D1B394164736F6C634300080B003300000000 "
				},
				"gasEstimates": {
					"creation": {
						"codeDepositCost": "511800",
						"executionCost": "46923",
						"totalCost": "558723"
					},
					"external": {
						"enter()": "48764",
						"getBalance()": "340",
						"getPlayers()": "infinite",
						"getRandomNumber()": "infinite",
						"lotteryId()": "2451",
						"owner()": "2578",
						"pickWinner()": "infinite",
						"players(uint256)": "5022"
					}
				},
				"methodIdentifiers": {
					"enter()": "e97dcb62",
					"getBalance()": "12065fe0",
					"getPlayers()": "8b5b9ccc",
					"getRandomNumber()": "dbdff2c1",
					"lotteryId()": "e580f47b",
					"owner()": "8da5cb5b",
					"pickWinner()": "5d495aea",
					"players(uint256)": "f71d96cb"
				}
			},
			"storageLayout": {
				"storage": [
					{
						"astId": 3,
						"contract": "contracts/1_Lottery.sol:Lottery",
						"label": "owner",
						"offset": 0,
						"slot": "0",
						"type": "t_address"
					},
					{
						"astId": 6,
						"contract": "contracts/1_Lottery.sol:Lottery",
						"label": "players",
						"offset": 0,
						"slot": "1",
						"type": "t_array(t_address_payable)dyn_storage"
					},
					{
						"astId": 8,
						"contract": "contracts/1_Lottery.sol:Lottery",
						"label": "lotteryId",
						"offset": 0,
						"slot": "2",
						"type": "t_uint256"
					}
				],
				"types": {
					"t_address": {
						"encoding": "inplace",
						"label": "address",
						"numberOfBytes": "20"
					},
					"t_address_payable": {
						"encoding": "inplace",
						"label": "address payable",
						"numberOfBytes": "20"
					},
					"t_array(t_address_payable)dyn_storage": {
						"base": "t_address_payable",
						"encoding": "dynamic_array",
						"label": "address payable[]",
						"numberOfBytes": "32"
					},
					"t_uint256": {
						"encoding": "inplace",
						"label": "uint256",
						"numberOfBytes": "32"
					}
				}
			},
			"userdoc": {
				"kind": "user",
				"methods": {},
				"version": 1
			}
		}
	}
}