{
	"contracts/Vending_Machine.sol": {
		"VendingMachine": {
			"abi": [
				{
					"inputs": [],
					"stateMutability": "nonpayable",
					"type": "constructor"
				},
				{
					"inputs": [
						{
							"internalType": "address",
							"name": "",
							"type": "address"
						}
					],
					"name": "donutBalances",
					"outputs": [
						{
							"internalType": "uint256",
							"name": "",
							"type": "uint256"
						}
					],
					"stateMutability": "view",
					"type": "function"
				},
				{
					"inputs": [],
					"name": "getDonutBalance",
					"outputs": [
						{
							"internalType": "uint256",
							"name": "",
							"type": "uint256"
						}
					],
					"stateMutability": "view",
					"type": "function"
				},
				{
					"inputs": [],
					"name": "owner",
					"outputs": [
						{
							"internalType": "address",
							"name": "",
							"type": "address"
						}
					],
					"stateMutability": "view",
					"type": "function"
				},
				{
					"inputs": [
						{
							"internalType": "uint256",
							"name": "_amount",
							"type": "uint256"
						}
					],
					"name": "purchase",
					"outputs": [],
					"stateMutability": "payable",
					"type": "function"
				},
				{
					"inputs": [
						{
							"internalType": "uint256",
							"name": "_amount",
							"type": "uint256"
						}
					],
					"name": "restockDonutBalance",
					"outputs": [],
					"stateMutability": "nonpayable",
					"type": "function"
				}
			],
			"devdoc": {
				"kind": "dev",
				"methods": {},
				"version": 1
			},
			"evm": {
				"assembly": "    /* \"contracts/Vending_Machine.sol\":65:725  contract VendingMachine {... */\n  mstore(0x40, 0x80)\n    /* \"contracts/Vending_Machine.sol\":173:266  constructor() {... */\n  callvalue\n  dup1\n  iszero\n  tag_1\n  jumpi\n  0x00\n  dup1\n  revert\ntag_1:\n  pop\n    /* \"contracts/Vending_Machine.sol\":205:215  msg.sender */\n  caller\n    /* \"contracts/Vending_Machine.sol\":197:202  owner */\n  0x00\n  dup1\n    /* \"contracts/Vending_Machine.sol\":197:215  owner = msg.sender */\n  0x0100\n  exp\n  dup2\n  sload\n  dup2\n  0xffffffffffffffffffffffffffffffffffffffff\n  mul\n  not\n  and\n  swap1\n  dup4\n  0xffffffffffffffffffffffffffffffffffffffff\n  and\n  mul\n  or\n  swap1\n  sstore\n  pop\n    /* \"contracts/Vending_Machine.sol\":256:259  100 */\n  0x64\n    /* \"contracts/Vending_Machine.sol\":225:238  donutBalances */\n  0x01\n    /* \"contracts/Vending_Machine.sol\":225:253  donutBalances[address(this)] */\n  0x00\n    /* \"contracts/Vending_Machine.sol\":247:251  this */\n  address\n    /* \"contracts/Vending_Machine.sol\":225:253  donutBalances[address(this)] */\n  0xffffffffffffffffffffffffffffffffffffffff\n  and\n  0xffffffffffffffffffffffffffffffffffffffff\n  and\n  dup2\n  mstore\n  0x20\n  add\n  swap1\n  dup2\n  mstore\n  0x20\n  add\n  0x00\n  keccak256\n    /* \"contracts/Vending_Machine.sol\":225:259  donutBalances[address(this)] = 100 */\n  dup2\n  swap1\n  sstore\n  pop\n    /* \"contracts/Vending_Machine.sol\":65:725  contract VendingMachine {... */\n  dataSize(sub_0)\n  dup1\n  dataOffset(sub_0)\n  0x00\n  codecopy\n  0x00\n  return\nstop\n\nsub_0: assembly {\n        /* \"contracts/Vending_Machine.sol\":65:725  contract VendingMachine {... */\n      mstore(0x40, 0x80)\n      jumpi(tag_1, lt(calldatasize, 0x04))\n      shr(0xe0, calldataload(0x00))\n      dup1\n      0x277e78bf\n      eq\n      tag_2\n      jumpi\n      dup1\n      0x6c92c921\n      eq\n      tag_3\n      jumpi\n      dup1\n      0x8da5cb5b\n      eq\n      tag_4\n      jumpi\n      dup1\n      0x9a020d8a\n      eq\n      tag_5\n      jumpi\n      dup1\n      0xefef39a1\n      eq\n      tag_6\n      jumpi\n    tag_1:\n      0x00\n      dup1\n      revert\n        /* \"contracts/Vending_Machine.sol\":382:568  function restockDonutBalance(uint _amount) public{... */\n    tag_2:\n      callvalue\n      dup1\n      iszero\n      tag_7\n      jumpi\n      0x00\n      dup1\n      revert\n    tag_7:\n      pop\n      tag_8\n      0x04\n      dup1\n      calldatasize\n      sub\n      dup2\n      add\n      swap1\n      tag_9\n      swap2\n      swap1\n      tag_10\n      jump\t// in\n    tag_9:\n      tag_11\n      jump\t// in\n    tag_8:\n      stop\n        /* \"contracts/Vending_Machine.sol\":272:377  function getDonutBalance() public view returns(uint){... */\n    tag_3:\n      callvalue\n      dup1\n      iszero\n      tag_12\n      jumpi\n      0x00\n      dup1\n      revert\n    tag_12:\n      pop\n      tag_13\n      tag_14\n      jump\t// in\n    tag_13:\n      mload(0x40)\n      tag_15\n      swap2\n      swap1\n      tag_16\n      jump\t// in\n    tag_15:\n      mload(0x40)\n      dup1\n      swap2\n      sub\n      swap1\n      return\n        /* \"contracts/Vending_Machine.sol\":95:115  address public owner */\n    tag_4:\n      callvalue\n      dup1\n      iszero\n      tag_17\n      jumpi\n      0x00\n      dup1\n      revert\n    tag_17:\n      pop\n      tag_18\n      tag_19\n      jump\t// in\n    tag_18:\n      mload(0x40)\n      tag_20\n      swap2\n      swap1\n      tag_21\n      jump\t// in\n    tag_20:\n      mload(0x40)\n      dup1\n      swap2\n      sub\n      swap1\n      return\n        /* \"contracts/Vending_Machine.sol\":121:166  mapping(address => uint) public donutBalances */\n    tag_5:\n      callvalue\n      dup1\n      iszero\n      tag_22\n      jumpi\n      0x00\n      dup1\n      revert\n    tag_22:\n      pop\n      tag_23\n      0x04\n      dup1\n      calldatasize\n      sub\n      dup2\n      add\n      swap1\n      tag_24\n      swap2\n      swap1\n      tag_25\n      jump\t// in\n    tag_24:\n      tag_26\n      jump\t// in\n    tag_23:\n      mload(0x40)\n      tag_27\n      swap2\n      swap1\n      tag_16\n      jump\t// in\n    tag_27:\n      mload(0x40)\n      dup1\n      swap2\n      sub\n      swap1\n      return\n        /* \"contracts/Vending_Machine.sol\":574:723  function purchase(uint _amount) public payable {... */\n    tag_6:\n      tag_28\n      0x04\n      dup1\n      calldatasize\n      sub\n      dup2\n      add\n      swap1\n      tag_29\n      swap2\n      swap1\n      tag_10\n      jump\t// in\n    tag_29:\n      tag_30\n      jump\t// in\n    tag_28:\n      stop\n        /* \"contracts/Vending_Machine.sol\":382:568  function restockDonutBalance(uint _amount) public{... */\n    tag_11:\n        /* \"contracts/Vending_Machine.sol\":463:468  owner */\n      0x00\n      dup1\n      sload\n      swap1\n      0x0100\n      exp\n      swap1\n      div\n      0xffffffffffffffffffffffffffffffffffffffff\n      and\n        /* \"contracts/Vending_Machine.sol\":449:468  msg.sender == owner */\n      0xffffffffffffffffffffffffffffffffffffffff\n      and\n        /* \"contracts/Vending_Machine.sol\":449:459  msg.sender */\n      caller\n        /* \"contracts/Vending_Machine.sol\":449:468  msg.sender == owner */\n      0xffffffffffffffffffffffffffffffffffffffff\n      and\n      eq\n        /* \"contracts/Vending_Machine.sol\":441:512  require(msg.sender == owner, \"only the owner can restock this machine\") */\n      tag_32\n      jumpi\n      mload(0x40)\n      0x08c379a000000000000000000000000000000000000000000000000000000000\n      dup2\n      mstore\n      0x04\n      add\n      tag_33\n      swap1\n      tag_34\n      jump\t// in\n    tag_33:\n      mload(0x40)\n      dup1\n      swap2\n      sub\n      swap1\n      revert\n    tag_32:\n        /* \"contracts/Vending_Machine.sol\":554:561  _amount */\n      dup1\n        /* \"contracts/Vending_Machine.sol\":522:535  donutBalances */\n      0x01\n        /* \"contracts/Vending_Machine.sol\":522:550  donutBalances[address(this)] */\n      0x00\n        /* \"contracts/Vending_Machine.sol\":544:548  this */\n      address\n        /* \"contracts/Vending_Machine.sol\":522:550  donutBalances[address(this)] */\n      0xffffffffffffffffffffffffffffffffffffffff\n      and\n      0xffffffffffffffffffffffffffffffffffffffff\n      and\n      dup2\n      mstore\n      0x20\n      add\n      swap1\n      dup2\n      mstore\n      0x20\n      add\n      0x00\n      keccak256\n      0x00\n        /* \"contracts/Vending_Machine.sol\":522:561  donutBalances[address(this)] += _amount */\n      dup3\n      dup3\n      sload\n      tag_35\n      swap2\n      swap1\n      tag_36\n      jump\t// in\n    tag_35:\n      swap3\n      pop\n      pop\n      dup2\n      swap1\n      sstore\n      pop\n        /* \"contracts/Vending_Machine.sol\":382:568  function restockDonutBalance(uint _amount) public{... */\n      pop\n      jump\t// out\n        /* \"contracts/Vending_Machine.sol\":272:377  function getDonutBalance() public view returns(uint){... */\n    tag_14:\n        /* \"contracts/Vending_Machine.sol\":319:323  uint */\n      0x00\n        /* \"contracts/Vending_Machine.sol\":341:354  donutBalances */\n      0x01\n        /* \"contracts/Vending_Machine.sol\":341:369  donutBalances[address(this)] */\n      0x00\n        /* \"contracts/Vending_Machine.sol\":363:367  this */\n      address\n        /* \"contracts/Vending_Machine.sol\":341:369  donutBalances[address(this)] */\n      0xffffffffffffffffffffffffffffffffffffffff\n      and\n      0xffffffffffffffffffffffffffffffffffffffff\n      and\n      dup2\n      mstore\n      0x20\n      add\n      swap1\n      dup2\n      mstore\n      0x20\n      add\n      0x00\n      keccak256\n      sload\n        /* \"contracts/Vending_Machine.sol\":334:369  return donutBalances[address(this)] */\n      swap1\n      pop\n        /* \"contracts/Vending_Machine.sol\":272:377  function getDonutBalance() public view returns(uint){... */\n      swap1\n      jump\t// out\n        /* \"contracts/Vending_Machine.sol\":95:115  address public owner */\n    tag_19:\n      0x00\n      dup1\n      sload\n      swap1\n      0x0100\n      exp\n      swap1\n      div\n      0xffffffffffffffffffffffffffffffffffffffff\n      and\n      dup2\n      jump\t// out\n        /* \"contracts/Vending_Machine.sol\":121:166  mapping(address => uint) public donutBalances */\n    tag_26:\n      mstore(0x20, 0x01)\n      dup1\n      0x00\n      mstore\n      keccak256(0x00, 0x40)\n      0x00\n      swap2\n      pop\n      swap1\n      pop\n      sload\n      dup2\n      jump\t// out\n        /* \"contracts/Vending_Machine.sol\":574:723  function purchase(uint _amount) public payable {... */\n    tag_30:\n        /* \"contracts/Vending_Machine.sol\":663:670  _amount */\n      dup1\n        /* \"contracts/Vending_Machine.sol\":631:644  donutBalances */\n      0x01\n        /* \"contracts/Vending_Machine.sol\":631:659  donutBalances[address(this)] */\n      0x00\n        /* \"contracts/Vending_Machine.sol\":653:657  this */\n      address\n        /* \"contracts/Vending_Machine.sol\":631:659  donutBalances[address(this)] */\n      0xffffffffffffffffffffffffffffffffffffffff\n      and\n      0xffffffffffffffffffffffffffffffffffffffff\n      and\n      dup2\n      mstore\n      0x20\n      add\n      swap1\n      dup2\n      mstore\n      0x20\n      add\n      0x00\n      keccak256\n      0x00\n        /* \"contracts/Vending_Machine.sol\":631:670  donutBalances[address(this)] -= _amount */\n      dup3\n      dup3\n      sload\n      tag_39\n      swap2\n      swap1\n      tag_40\n      jump\t// in\n    tag_39:\n      swap3\n      pop\n      pop\n      dup2\n      swap1\n      sstore\n      pop\n        /* \"contracts/Vending_Machine.sol\":709:716  _amount */\n      dup1\n        /* \"contracts/Vending_Machine.sol\":680:693  donutBalances */\n      0x01\n        /* \"contracts/Vending_Machine.sol\":680:705  donutBalances[msg.sender] */\n      0x00\n        /* \"contracts/Vending_Machine.sol\":694:704  msg.sender */\n      caller\n        /* \"contracts/Vending_Machine.sol\":680:705  donutBalances[msg.sender] */\n      0xffffffffffffffffffffffffffffffffffffffff\n      and\n      0xffffffffffffffffffffffffffffffffffffffff\n      and\n      dup2\n      mstore\n      0x20\n      add\n      swap1\n      dup2\n      mstore\n      0x20\n      add\n      0x00\n      keccak256\n      0x00\n        /* \"contracts/Vending_Machine.sol\":680:716  donutBalances[msg.sender] += _amount */\n      dup3\n      dup3\n      sload\n      tag_41\n      swap2\n      swap1\n      tag_36\n      jump\t// in\n    tag_41:\n      swap3\n      pop\n      pop\n      dup2\n      swap1\n      sstore\n      pop\n        /* \"contracts/Vending_Machine.sol\":574:723  function purchase(uint _amount) public payable {... */\n      pop\n      jump\t// out\n        /* \"#utility.yul\":7:146   */\n    tag_43:\n        /* \"#utility.yul\":53:58   */\n      0x00\n        /* \"#utility.yul\":91:97   */\n      dup2\n        /* \"#utility.yul\":78:98   */\n      calldataload\n        /* \"#utility.yul\":69:98   */\n      swap1\n      pop\n        /* \"#utility.yul\":107:140   */\n      tag_45\n        /* \"#utility.yul\":134:139   */\n      dup2\n        /* \"#utility.yul\":107:140   */\n      tag_46\n      jump\t// in\n    tag_45:\n        /* \"#utility.yul\":7:146   */\n      swap3\n      swap2\n      pop\n      pop\n      jump\t// out\n        /* \"#utility.yul\":152:291   */\n    tag_47:\n        /* \"#utility.yul\":198:203   */\n      0x00\n        /* \"#utility.yul\":236:242   */\n      dup2\n        /* \"#utility.yul\":223:243   */\n      calldataload\n        /* \"#utility.yul\":214:243   */\n      swap1\n      pop\n        /* \"#utility.yul\":252:285   */\n      tag_49\n        /* \"#utility.yul\":279:284   */\n      dup2\n        /* \"#utility.yul\":252:285   */\n      tag_50\n      jump\t// in\n    tag_49:\n        /* \"#utility.yul\":152:291   */\n      swap3\n      swap2\n      pop\n      pop\n      jump\t// out\n        /* \"#utility.yul\":297:626   */\n    tag_25:\n        /* \"#utility.yul\":356:362   */\n      0x00\n        /* \"#utility.yul\":405:407   */\n      0x20\n        /* \"#utility.yul\":393:402   */\n      dup3\n        /* \"#utility.yul\":384:391   */\n      dup5\n        /* \"#utility.yul\":380:403   */\n      sub\n        /* \"#utility.yul\":376:408   */\n      slt\n        /* \"#utility.yul\":373:492   */\n      iszero\n      tag_52\n      jumpi\n        /* \"#utility.yul\":411:490   */\n      tag_53\n      tag_54\n      jump\t// in\n    tag_53:\n        /* \"#utility.yul\":373:492   */\n    tag_52:\n        /* \"#utility.yul\":531:532   */\n      0x00\n        /* \"#utility.yul\":556:609   */\n      tag_55\n        /* \"#utility.yul\":601:608   */\n      dup5\n        /* \"#utility.yul\":592:598   */\n      dup3\n        /* \"#utility.yul\":581:590   */\n      dup6\n        /* \"#utility.yul\":577:599   */\n      add\n        /* \"#utility.yul\":556:609   */\n      tag_43\n      jump\t// in\n    tag_55:\n        /* \"#utility.yul\":546:609   */\n      swap2\n      pop\n        /* \"#utility.yul\":502:619   */\n      pop\n        /* \"#utility.yul\":297:626   */\n      swap3\n      swap2\n      pop\n      pop\n      jump\t// out\n        /* \"#utility.yul\":632:961   */\n    tag_10:\n        /* \"#utility.yul\":691:697   */\n      0x00\n        /* \"#utility.yul\":740:742   */\n      0x20\n        /* \"#utility.yul\":728:737   */\n      dup3\n        /* \"#utility.yul\":719:726   */\n      dup5\n        /* \"#utility.yul\":715:738   */\n      sub\n        /* \"#utility.yul\":711:743   */\n      slt\n        /* \"#utility.yul\":708:827   */\n      iszero\n      tag_57\n      jumpi\n        /* \"#utility.yul\":746:825   */\n      tag_58\n      tag_54\n      jump\t// in\n    tag_58:\n        /* \"#utility.yul\":708:827   */\n    tag_57:\n        /* \"#utility.yul\":866:867   */\n      0x00\n        /* \"#utility.yul\":891:944   */\n      tag_59\n        /* \"#utility.yul\":936:943   */\n      dup5\n        /* \"#utility.yul\":927:933   */\n      dup3\n        /* \"#utility.yul\":916:925   */\n      dup6\n        /* \"#utility.yul\":912:934   */\n      add\n        /* \"#utility.yul\":891:944   */\n      tag_47\n      jump\t// in\n    tag_59:\n        /* \"#utility.yul\":881:944   */\n      swap2\n      pop\n        /* \"#utility.yul\":837:954   */\n      pop\n        /* \"#utility.yul\":632:961   */\n      swap3\n      swap2\n      pop\n      pop\n      jump\t// out\n        /* \"#utility.yul\":967:1085   */\n    tag_60:\n        /* \"#utility.yul\":1054:1078   */\n      tag_62\n        /* \"#utility.yul\":1072:1077   */\n      dup2\n        /* \"#utility.yul\":1054:1078   */\n      tag_63\n      jump\t// in\n    tag_62:\n        /* \"#utility.yul\":1049:1052   */\n      dup3\n        /* \"#utility.yul\":1042:1079   */\n      mstore\n        /* \"#utility.yul\":967:1085   */\n      pop\n      pop\n      jump\t// out\n        /* \"#utility.yul\":1091:1457   */\n    tag_64:\n        /* \"#utility.yul\":1233:1236   */\n      0x00\n        /* \"#utility.yul\":1254:1321   */\n      tag_66\n        /* \"#utility.yul\":1318:1320   */\n      0x27\n        /* \"#utility.yul\":1313:1316   */\n      dup4\n        /* \"#utility.yul\":1254:1321   */\n      tag_67\n      jump\t// in\n    tag_66:\n        /* \"#utility.yul\":1247:1321   */\n      swap2\n      pop\n        /* \"#utility.yul\":1330:1423   */\n      tag_68\n        /* \"#utility.yul\":1419:1422   */\n      dup3\n        /* \"#utility.yul\":1330:1423   */\n      tag_69\n      jump\t// in\n    tag_68:\n        /* \"#utility.yul\":1448:1450   */\n      0x40\n        /* \"#utility.yul\":1443:1446   */\n      dup3\n        /* \"#utility.yul\":1439:1451   */\n      add\n        /* \"#utility.yul\":1432:1451   */\n      swap1\n      pop\n        /* \"#utility.yul\":1091:1457   */\n      swap2\n      swap1\n      pop\n      jump\t// out\n        /* \"#utility.yul\":1463:1581   */\n    tag_70:\n        /* \"#utility.yul\":1550:1574   */\n      tag_72\n        /* \"#utility.yul\":1568:1573   */\n      dup2\n        /* \"#utility.yul\":1550:1574   */\n      tag_73\n      jump\t// in\n    tag_72:\n        /* \"#utility.yul\":1545:1548   */\n      dup3\n        /* \"#utility.yul\":1538:1575   */\n      mstore\n        /* \"#utility.yul\":1463:1581   */\n      pop\n      pop\n      jump\t// out\n        /* \"#utility.yul\":1587:1809   */\n    tag_21:\n        /* \"#utility.yul\":1680:1684   */\n      0x00\n        /* \"#utility.yul\":1718:1720   */\n      0x20\n        /* \"#utility.yul\":1707:1716   */\n      dup3\n        /* \"#utility.yul\":1703:1721   */\n      add\n        /* \"#utility.yul\":1695:1721   */\n      swap1\n      pop\n        /* \"#utility.yul\":1731:1802   */\n      tag_75\n        /* \"#utility.yul\":1799:1800   */\n      0x00\n        /* \"#utility.yul\":1788:1797   */\n      dup4\n        /* \"#utility.yul\":1784:1801   */\n      add\n        /* \"#utility.yul\":1775:1781   */\n      dup5\n        /* \"#utility.yul\":1731:1802   */\n      tag_60\n      jump\t// in\n    tag_75:\n        /* \"#utility.yul\":1587:1809   */\n      swap3\n      swap2\n      pop\n      pop\n      jump\t// out\n        /* \"#utility.yul\":1815:2234   */\n    tag_34:\n        /* \"#utility.yul\":1981:1985   */\n      0x00\n        /* \"#utility.yul\":2019:2021   */\n      0x20\n        /* \"#utility.yul\":2008:2017   */\n      dup3\n        /* \"#utility.yul\":2004:2022   */\n      add\n        /* \"#utility.yul\":1996:2022   */\n      swap1\n      pop\n        /* \"#utility.yul\":2068:2077   */\n      dup2\n        /* \"#utility.yul\":2062:2066   */\n      dup2\n        /* \"#utility.yul\":2058:2078   */\n      sub\n        /* \"#utility.yul\":2054:2055   */\n      0x00\n        /* \"#utility.yul\":2043:2052   */\n      dup4\n        /* \"#utility.yul\":2039:2056   */\n      add\n        /* \"#utility.yul\":2032:2079   */\n      mstore\n        /* \"#utility.yul\":2096:2227   */\n      tag_77\n        /* \"#utility.yul\":2222:2226   */\n      dup2\n        /* \"#utility.yul\":2096:2227   */\n      tag_64\n      jump\t// in\n    tag_77:\n        /* \"#utility.yul\":2088:2227   */\n      swap1\n      pop\n        /* \"#utility.yul\":1815:2234   */\n      swap2\n      swap1\n      pop\n      jump\t// out\n        /* \"#utility.yul\":2240:2462   */\n    tag_16:\n        /* \"#utility.yul\":2333:2337   */\n      0x00\n        /* \"#utility.yul\":2371:2373   */\n      0x20\n        /* \"#utility.yul\":2360:2369   */\n      dup3\n        /* \"#utility.yul\":2356:2374   */\n      add\n        /* \"#utility.yul\":2348:2374   */\n      swap1\n      pop\n        /* \"#utility.yul\":2384:2455   */\n      tag_79\n        /* \"#utility.yul\":2452:2453   */\n      0x00\n        /* \"#utility.yul\":2441:2450   */\n      dup4\n        /* \"#utility.yul\":2437:2454   */\n      add\n        /* \"#utility.yul\":2428:2434   */\n      dup5\n        /* \"#utility.yul\":2384:2455   */\n      tag_70\n      jump\t// in\n    tag_79:\n        /* \"#utility.yul\":2240:2462   */\n      swap3\n      swap2\n      pop\n      pop\n      jump\t// out\n        /* \"#utility.yul\":2549:2718   */\n    tag_67:\n        /* \"#utility.yul\":2633:2644   */\n      0x00\n        /* \"#utility.yul\":2667:2673   */\n      dup3\n        /* \"#utility.yul\":2662:2665   */\n      dup3\n        /* \"#utility.yul\":2655:2674   */\n      mstore\n        /* \"#utility.yul\":2707:2711   */\n      0x20\n        /* \"#utility.yul\":2702:2705   */\n      dup3\n        /* \"#utility.yul\":2698:2712   */\n      add\n        /* \"#utility.yul\":2683:2712   */\n      swap1\n      pop\n        /* \"#utility.yul\":2549:2718   */\n      swap3\n      swap2\n      pop\n      pop\n      jump\t// out\n        /* \"#utility.yul\":2724:3029   */\n    tag_36:\n        /* \"#utility.yul\":2764:2767   */\n      0x00\n        /* \"#utility.yul\":2783:2803   */\n      tag_84\n        /* \"#utility.yul\":2801:2802   */\n      dup3\n        /* \"#utility.yul\":2783:2803   */\n      tag_73\n      jump\t// in\n    tag_84:\n        /* \"#utility.yul\":2778:2803   */\n      swap2\n      pop\n        /* \"#utility.yul\":2817:2837   */\n      tag_85\n        /* \"#utility.yul\":2835:2836   */\n      dup4\n        /* \"#utility.yul\":2817:2837   */\n      tag_73\n      jump\t// in\n    tag_85:\n        /* \"#utility.yul\":2812:2837   */\n      swap3\n      pop\n        /* \"#utility.yul\":2971:2972   */\n      dup3\n        /* \"#utility.yul\":2903:2969   */\n      0xffffffffffffffffffffffffffffffffffffffffffffffffffffffffffffffff\n        /* \"#utility.yul\":2899:2973   */\n      sub\n        /* \"#utility.yul\":2896:2897   */\n      dup3\n        /* \"#utility.yul\":2893:2974   */\n      gt\n        /* \"#utility.yul\":2890:2997   */\n      iszero\n      tag_86\n      jumpi\n        /* \"#utility.yul\":2977:2995   */\n      tag_87\n      tag_88\n      jump\t// in\n    tag_87:\n        /* \"#utility.yul\":2890:2997   */\n    tag_86:\n        /* \"#utility.yul\":3021:3022   */\n      dup3\n        /* \"#utility.yul\":3018:3019   */\n      dup3\n        /* \"#utility.yul\":3014:3023   */\n      add\n        /* \"#utility.yul\":3007:3023   */\n      swap1\n      pop\n        /* \"#utility.yul\":2724:3029   */\n      swap3\n      swap2\n      pop\n      pop\n      jump\t// out\n        /* \"#utility.yul\":3035:3226   */\n    tag_40:\n        /* \"#utility.yul\":3075:3079   */\n      0x00\n        /* \"#utility.yul\":3095:3115   */\n      tag_90\n        /* \"#utility.yul\":3113:3114   */\n      dup3\n        /* \"#utility.yul\":3095:3115   */\n      tag_73\n      jump\t// in\n    tag_90:\n        /* \"#utility.yul\":3090:3115   */\n      swap2\n      pop\n        /* \"#utility.yul\":3129:3149   */\n      tag_91\n        /* \"#utility.yul\":3147:3148   */\n      dup4\n        /* \"#utility.yul\":3129:3149   */\n      tag_73\n      jump\t// in\n    tag_91:\n        /* \"#utility.yul\":3124:3149   */\n      swap3\n      pop\n        /* \"#utility.yul\":3168:3169   */\n      dup3\n        /* \"#utility.yul\":3165:3166   */\n      dup3\n        /* \"#utility.yul\":3162:3170   */\n      lt\n        /* \"#utility.yul\":3159:3193   */\n      iszero\n      tag_92\n      jumpi\n        /* \"#utility.yul\":3173:3191   */\n      tag_93\n      tag_88\n      jump\t// in\n    tag_93:\n        /* \"#utility.yul\":3159:3193   */\n    tag_92:\n        /* \"#utility.yul\":3218:3219   */\n      dup3\n        /* \"#utility.yul\":3215:3216   */\n      dup3\n        /* \"#utility.yul\":3211:3220   */\n      sub\n        /* \"#utility.yul\":3203:3220   */\n      swap1\n      pop\n        /* \"#utility.yul\":3035:3226   */\n      swap3\n      swap2\n      pop\n      pop\n      jump\t// out\n        /* \"#utility.yul\":3232:3328   */\n    tag_63:\n        /* \"#utility.yul\":3269:3276   */\n      0x00\n        /* \"#utility.yul\":3298:3322   */\n      tag_95\n        /* \"#utility.yul\":3316:3321   */\n      dup3\n        /* \"#utility.yul\":3298:3322   */\n      tag_96\n      jump\t// in\n    tag_95:\n        /* \"#utility.yul\":3287:3322   */\n      swap1\n      pop\n        /* \"#utility.yul\":3232:3328   */\n      swap2\n      swap1\n      pop\n      jump\t// out\n        /* \"#utility.yul\":3334:3460   */\n    tag_96:\n        /* \"#utility.yul\":3371:3378   */\n      0x00\n        /* \"#utility.yul\":3411:3453   */\n      0xffffffffffffffffffffffffffffffffffffffff\n        /* \"#utility.yul\":3404:3409   */\n      dup3\n        /* \"#utility.yul\":3400:3454   */\n      and\n        /* \"#utility.yul\":3389:3454   */\n      swap1\n      pop\n        /* \"#utility.yul\":3334:3460   */\n      swap2\n      swap1\n      pop\n      jump\t// out\n        /* \"#utility.yul\":3466:3543   */\n    tag_73:\n        /* \"#utility.yul\":3503:3510   */\n      0x00\n        /* \"#utility.yul\":3532:3537   */\n      dup2\n        /* \"#utility.yul\":3521:3537   */\n      swap1\n      pop\n        /* \"#utility.yul\":3466:3543   */\n      swap2\n      swap1\n      pop\n      jump\t// out\n        /* \"#utility.yul\":3549:3729   */\n    tag_88:\n        /* \"#utility.yul\":3597:3674   */\n      0x4e487b7100000000000000000000000000000000000000000000000000000000\n        /* \"#utility.yul\":3594:3595   */\n      0x00\n        /* \"#utility.yul\":3587:3675   */\n      mstore\n        /* \"#utility.yul\":3694:3698   */\n      0x11\n        /* \"#utility.yul\":3691:3692   */\n      0x04\n        /* \"#utility.yul\":3684:3699   */\n      mstore\n        /* \"#utility.yul\":3718:3722   */\n      0x24\n        /* \"#utility.yul\":3715:3716   */\n      0x00\n        /* \"#utility.yul\":3708:3723   */\n      revert\n        /* \"#utility.yul\":3858:3975   */\n    tag_54:\n        /* \"#utility.yul\":3967:3968   */\n      0x00\n        /* \"#utility.yul\":3964:3965   */\n      dup1\n        /* \"#utility.yul\":3957:3969   */\n      revert\n        /* \"#utility.yul\":3981:4207   */\n    tag_69:\n        /* \"#utility.yul\":4121:4155   */\n      0x6f6e6c7920746865206f776e65722063616e20726573746f636b207468697320\n        /* \"#utility.yul\":4117:4118   */\n      0x00\n        /* \"#utility.yul\":4109:4115   */\n      dup3\n        /* \"#utility.yul\":4105:4119   */\n      add\n        /* \"#utility.yul\":4098:4156   */\n      mstore\n        /* \"#utility.yul\":4190:4199   */\n      0x6d616368696e6500000000000000000000000000000000000000000000000000\n        /* \"#utility.yul\":4185:4187   */\n      0x20\n        /* \"#utility.yul\":4177:4183   */\n      dup3\n        /* \"#utility.yul\":4173:4188   */\n      add\n        /* \"#utility.yul\":4166:4200   */\n      mstore\n        /* \"#utility.yul\":3981:4207   */\n      pop\n      jump\t// out\n        /* \"#utility.yul\":4213:4335   */\n    tag_46:\n        /* \"#utility.yul\":4286:4310   */\n      tag_105\n        /* \"#utility.yul\":4304:4309   */\n      dup2\n        /* \"#utility.yul\":4286:4310   */\n      tag_63\n      jump\t// in\n    tag_105:\n        /* \"#utility.yul\":4279:4284   */\n      dup2\n        /* \"#utility.yul\":4276:4311   */\n      eq\n        /* \"#utility.yul\":4266:4329   */\n      tag_106\n      jumpi\n        /* \"#utility.yul\":4325:4326   */\n      0x00\n        /* \"#utility.yul\":4322:4323   */\n      dup1\n        /* \"#utility.yul\":4315:4327   */\n      revert\n        /* \"#utility.yul\":4266:4329   */\n    tag_106:\n        /* \"#utility.yul\":4213:4335   */\n      pop\n      jump\t// out\n        /* \"#utility.yul\":4341:4463   */\n    tag_50:\n        /* \"#utility.yul\":4414:4438   */\n      tag_108\n        /* \"#utility.yul\":4432:4437   */\n      dup2\n        /* \"#utility.yul\":4414:4438   */\n      tag_73\n      jump\t// in\n    tag_108:\n        /* \"#utility.yul\":4407:4412   */\n      dup2\n        /* \"#utility.yul\":4404:4439   */\n      eq\n        /* \"#utility.yul\":4394:4457   */\n      tag_109\n      jumpi\n        /* \"#utility.yul\":4453:4454   */\n      0x00\n        /* \"#utility.yul\":4450:4451   */\n      dup1\n        /* \"#utility.yul\":4443:4455   */\n      revert\n        /* \"#utility.yul\":4394:4457   */\n    tag_109:\n        /* \"#utility.yul\":4341:4463   */\n      pop\n      jump\t// out\n\n    auxdata: 0xa26469706673582212200e96398ba3741f459a4fb99da1949a2d91c6dca79f58c6c5e03566f420db26b964736f6c63430008070033\n}\n",
				"bytecode": {
					"linkReferences": {},
					"object": "608060405234801561001057600080fd5b50336000806101000a81548173ffffffffffffffffffffffffffffffffffffffff021916908373ffffffffffffffffffffffffffffffffffffffff1602179055506064600160003073ffffffffffffffffffffffffffffffffffffffff1673ffffffffffffffffffffffffffffffffffffffff16815260200190815260200160002081905550610619806100a56000396000f3fe60806040526004361061004a5760003560e01c8063277e78bf1461004f5780636c92c921146100785780638da5cb5b146100a35780639a020d8a146100ce578063efef39a11461010b575b600080fd5b34801561005b57600080fd5b5061007660048036038101906100719190610397565b610127565b005b34801561008457600080fd5b5061008d61020e565b60405161009a9190610440565b60405180910390f35b3480156100af57600080fd5b506100b8610255565b6040516100c59190610405565b60405180910390f35b3480156100da57600080fd5b506100f560048036038101906100f0919061036a565b610279565b6040516101029190610440565b60405180910390f35b61012560048036038101906101209190610397565b610291565b005b60008054906101000a900473ffffffffffffffffffffffffffffffffffffffff1673ffffffffffffffffffffffffffffffffffffffff163373ffffffffffffffffffffffffffffffffffffffff16146101b5576040517f08c379a00000000000000000000000000000000000000000000000000000000081526004016101ac90610420565b60405180910390fd5b80600160003073ffffffffffffffffffffffffffffffffffffffff1673ffffffffffffffffffffffffffffffffffffffff1681526020019081526020016000206000828254610204919061046c565b9250508190555050565b6000600160003073ffffffffffffffffffffffffffffffffffffffff1673ffffffffffffffffffffffffffffffffffffffff16815260200190815260200160002054905090565b60008054906101000a900473ffffffffffffffffffffffffffffffffffffffff1681565b60016020528060005260406000206000915090505481565b80600160003073ffffffffffffffffffffffffffffffffffffffff1673ffffffffffffffffffffffffffffffffffffffff16815260200190815260200160002060008282546102e091906104c2565b9250508190555080600160003373ffffffffffffffffffffffffffffffffffffffff1673ffffffffffffffffffffffffffffffffffffffff1681526020019081526020016000206000828254610336919061046c565b9250508190555050565b60008135905061034f816105b5565b92915050565b600081359050610364816105cc565b92915050565b6000602082840312156103805761037f610561565b5b600061038e84828501610340565b91505092915050565b6000602082840312156103ad576103ac610561565b5b60006103bb84828501610355565b91505092915050565b6103cd816104f6565b82525050565b60006103e060278361045b565b91506103eb82610566565b604082019050919050565b6103ff81610528565b82525050565b600060208201905061041a60008301846103c4565b92915050565b60006020820190508181036000830152610439816103d3565b9050919050565b600060208201905061045560008301846103f6565b92915050565b600082825260208201905092915050565b600061047782610528565b915061048283610528565b9250827fffffffffffffffffffffffffffffffffffffffffffffffffffffffffffffffff038211156104b7576104b6610532565b5b828201905092915050565b60006104cd82610528565b91506104d883610528565b9250828210156104eb576104ea610532565b5b828203905092915050565b600061050182610508565b9050919050565b600073ffffffffffffffffffffffffffffffffffffffff82169050919050565b6000819050919050565b7f4e487b7100000000000000000000000000000000000000000000000000000000600052601160045260246000fd5b600080fd5b7f6f6e6c7920746865206f776e65722063616e20726573746f636b20746869732060008201527f6d616368696e6500000000000000000000000000000000000000000000000000602082015250565b6105be816104f6565b81146105c957600080fd5b50565b6105d581610528565b81146105e057600080fd5b5056fea26469706673582212200e96398ba3741f459a4fb99da1949a2d91c6dca79f58c6c5e03566f420db26b964736f6c63430008070033",
					"opcodes": "PUSH1 0x80 PUSH1 0x40 MSTORE CALLVALUE DUP1 ISZERO PUSH2 0x10 JUMPI PUSH1 0x0 DUP1 REVERT JUMPDEST POP CALLER PUSH1 0x0 DUP1 PUSH2 0x100 EXP DUP2 SLOAD DUP2 PUSH20 0xFFFFFFFFFFFFFFFFFFFFFFFFFFFFFFFFFFFFFFFF MUL NOT AND SWAP1 DUP4 PUSH20 0xFFFFFFFFFFFFFFFFFFFFFFFFFFFFFFFFFFFFFFFF AND MUL OR SWAP1 SSTORE POP PUSH1 0x64 PUSH1 0x1 PUSH1 0x0 ADDRESS PUSH20 0xFFFFFFFFFFFFFFFFFFFFFFFFFFFFFFFFFFFFFFFF AND PUSH20 0xFFFFFFFFFFFFFFFFFFFFFFFFFFFFFFFFFFFFFFFF AND DUP2 MSTORE PUSH1 0x20 ADD SWAP1 DUP2 MSTORE PUSH1 0x20 ADD PUSH1 0x0 KECCAK256 DUP2 SWAP1 SSTORE POP PUSH2 0x619 DUP1 PUSH2 0xA5 PUSH1 0x0 CODECOPY PUSH1 0x0 RETURN INVALID PUSH1 0x80 PUSH1 0x40 MSTORE PUSH1 0x4 CALLDATASIZE LT PUSH2 0x4A JUMPI PUSH1 0x0 CALLDATALOAD PUSH1 0xE0 SHR DUP1 PUSH4 0x277E78BF EQ PUSH2 0x4F JUMPI DUP1 PUSH4 0x6C92C921 EQ PUSH2 0x78 JUMPI DUP1 PUSH4 0x8DA5CB5B EQ PUSH2 0xA3 JUMPI DUP1 PUSH4 0x9A020D8A EQ PUSH2 0xCE JUMPI DUP1 PUSH4 0xEFEF39A1 EQ PUSH2 0x10B JUMPI JUMPDEST PUSH1 0x0 DUP1 REVERT JUMPDEST CALLVALUE DUP1 ISZERO PUSH2 0x5B JUMPI PUSH1 0x0 DUP1 REVERT JUMPDEST POP PUSH2 0x76 PUSH1 0x4 DUP1 CALLDATASIZE SUB DUP2 ADD SWAP1 PUSH2 0x71 SWAP2 SWAP1 PUSH2 0x397 JUMP JUMPDEST PUSH2 0x127 JUMP JUMPDEST STOP JUMPDEST CALLVALUE DUP1 ISZERO PUSH2 0x84 JUMPI PUSH1 0x0 DUP1 REVERT JUMPDEST POP PUSH2 0x8D PUSH2 0x20E JUMP JUMPDEST PUSH1 0x40 MLOAD PUSH2 0x9A SWAP2 SWAP1 PUSH2 0x440 JUMP JUMPDEST PUSH1 0x40 MLOAD DUP1 SWAP2 SUB SWAP1 RETURN JUMPDEST CALLVALUE DUP1 ISZERO PUSH2 0xAF JUMPI PUSH1 0x0 DUP1 REVERT JUMPDEST POP PUSH2 0xB8 PUSH2 0x255 JUMP JUMPDEST PUSH1 0x40 MLOAD PUSH2 0xC5 SWAP2 SWAP1 PUSH2 0x405 JUMP JUMPDEST PUSH1 0x40 MLOAD DUP1 SWAP2 SUB SWAP1 RETURN JUMPDEST CALLVALUE DUP1 ISZERO PUSH2 0xDA JUMPI PUSH1 0x0 DUP1 REVERT JUMPDEST POP PUSH2 0xF5 PUSH1 0x4 DUP1 CALLDATASIZE SUB DUP2 ADD SWAP1 PUSH2 0xF0 SWAP2 SWAP1 PUSH2 0x36A JUMP JUMPDEST PUSH2 0x279 JUMP JUMPDEST PUSH1 0x40 MLOAD PUSH2 0x102 SWAP2 SWAP1 PUSH2 0x440 JUMP JUMPDEST PUSH1 0x40 MLOAD DUP1 SWAP2 SUB SWAP1 RETURN JUMPDEST PUSH2 0x125 PUSH1 0x4 DUP1 CALLDATASIZE SUB DUP2 ADD SWAP1 PUSH2 0x120 SWAP2 SWAP1 PUSH2 0x397 JUMP JUMPDEST PUSH2 0x291 JUMP JUMPDEST STOP JUMPDEST PUSH1 0x0 DUP1 SLOAD SWAP1 PUSH2 0x100 EXP SWAP1 DIV PUSH20 0xFFFFFFFFFFFFFFFFFFFFFFFFFFFFFFFFFFFFFFFF AND PUSH20 0xFFFFFFFFFFFFFFFFFFFFFFFFFFFFFFFFFFFFFFFF AND CALLER PUSH20 0xFFFFFFFFFFFFFFFFFFFFFFFFFFFFFFFFFFFFFFFF AND EQ PUSH2 0x1B5 JUMPI PUSH1 0x40 MLOAD PUSH32 0x8C379A000000000000000000000000000000000000000000000000000000000 DUP2 MSTORE PUSH1 0x4 ADD PUSH2 0x1AC SWAP1 PUSH2 0x420 JUMP JUMPDEST PUSH1 0x40 MLOAD DUP1 SWAP2 SUB SWAP1 REVERT JUMPDEST DUP1 PUSH1 0x1 PUSH1 0x0 ADDRESS PUSH20 0xFFFFFFFFFFFFFFFFFFFFFFFFFFFFFFFFFFFFFFFF AND PUSH20 0xFFFFFFFFFFFFFFFFFFFFFFFFFFFFFFFFFFFFFFFF AND DUP2 MSTORE PUSH1 0x20 ADD SWAP1 DUP2 MSTORE PUSH1 0x20 ADD PUSH1 0x0 KECCAK256 PUSH1 0x0 DUP3 DUP3 SLOAD PUSH2 0x204 SWAP2 SWAP1 PUSH2 0x46C JUMP JUMPDEST SWAP3 POP POP DUP2 SWAP1 SSTORE POP POP JUMP JUMPDEST PUSH1 0x0 PUSH1 0x1 PUSH1 0x0 ADDRESS PUSH20 0xFFFFFFFFFFFFFFFFFFFFFFFFFFFFFFFFFFFFFFFF AND PUSH20 0xFFFFFFFFFFFFFFFFFFFFFFFFFFFFFFFFFFFFFFFF AND DUP2 MSTORE PUSH1 0x20 ADD SWAP1 DUP2 MSTORE PUSH1 0x20 ADD PUSH1 0x0 KECCAK256 SLOAD SWAP1 POP SWAP1 JUMP JUMPDEST PUSH1 0x0 DUP1 SLOAD SWAP1 PUSH2 0x100 EXP SWAP1 DIV PUSH20 0xFFFFFFFFFFFFFFFFFFFFFFFFFFFFFFFFFFFFFFFF AND DUP2 JUMP JUMPDEST PUSH1 0x1 PUSH1 0x20 MSTORE DUP1 PUSH1 0x0 MSTORE PUSH1 0x40 PUSH1 0x0 KECCAK256 PUSH1 0x0 SWAP2 POP SWAP1 POP SLOAD DUP2 JUMP JUMPDEST DUP1 PUSH1 0x1 PUSH1 0x0 ADDRESS PUSH20 0xFFFFFFFFFFFFFFFFFFFFFFFFFFFFFFFFFFFFFFFF AND PUSH20 0xFFFFFFFFFFFFFFFFFFFFFFFFFFFFFFFFFFFFFFFF AND DUP2 MSTORE PUSH1 0x20 ADD SWAP1 DUP2 MSTORE PUSH1 0x20 ADD PUSH1 0x0 KECCAK256 PUSH1 0x0 DUP3 DUP3 SLOAD PUSH2 0x2E0 SWAP2 SWAP1 PUSH2 0x4C2 JUMP JUMPDEST SWAP3 POP POP DUP2 SWAP1 SSTORE POP DUP1 PUSH1 0x1 PUSH1 0x0 CALLER PUSH20 0xFFFFFFFFFFFFFFFFFFFFFFFFFFFFFFFFFFFFFFFF AND PUSH20 0xFFFFFFFFFFFFFFFFFFFFFFFFFFFFFFFFFFFFFFFF AND DUP2 MSTORE PUSH1 0x20 ADD SWAP1 DUP2 MSTORE PUSH1 0x20 ADD PUSH1 0x0 KECCAK256 PUSH1 0x0 DUP3 DUP3 SLOAD PUSH2 0x336 SWAP2 SWAP1 PUSH2 0x46C JUMP JUMPDEST SWAP3 POP POP DUP2 SWAP1 SSTORE POP POP JUMP JUMPDEST PUSH1 0x0 DUP2 CALLDATALOAD SWAP1 POP PUSH2 0x34F DUP2 PUSH2 0x5B5 JUMP JUMPDEST SWAP3 SWAP2 POP POP JUMP JUMPDEST PUSH1 0x0 DUP2 CALLDATALOAD SWAP1 POP PUSH2 0x364 DUP2 PUSH2 0x5CC JUMP JUMPDEST SWAP3 SWAP2 POP POP JUMP JUMPDEST PUSH1 0x0 PUSH1 0x20 DUP3 DUP5 SUB SLT ISZERO PUSH2 0x380 JUMPI PUSH2 0x37F PUSH2 0x561 JUMP JUMPDEST JUMPDEST PUSH1 0x0 PUSH2 0x38E DUP5 DUP3 DUP6 ADD PUSH2 0x340 JUMP JUMPDEST SWAP2 POP POP SWAP3 SWAP2 POP POP JUMP JUMPDEST PUSH1 0x0 PUSH1 0x20 DUP3 DUP5 SUB SLT ISZERO PUSH2 0x3AD JUMPI PUSH2 0x3AC PUSH2 0x561 JUMP JUMPDEST JUMPDEST PUSH1 0x0 PUSH2 0x3BB DUP5 DUP3 DUP6 ADD PUSH2 0x355 JUMP JUMPDEST SWAP2 POP POP SWAP3 SWAP2 POP POP JUMP JUMPDEST PUSH2 0x3CD DUP2 PUSH2 0x4F6 JUMP JUMPDEST DUP3 MSTORE POP POP JUMP JUMPDEST PUSH1 0x0 PUSH2 0x3E0 PUSH1 0x27 DUP4 PUSH2 0x45B JUMP JUMPDEST SWAP2 POP PUSH2 0x3EB DUP3 PUSH2 0x566 JUMP JUMPDEST PUSH1 0x40 DUP3 ADD SWAP1 POP SWAP2 SWAP1 POP JUMP JUMPDEST PUSH2 0x3FF DUP2 PUSH2 0x528 JUMP JUMPDEST DUP3 MSTORE POP POP JUMP JUMPDEST PUSH1 0x0 PUSH1 0x20 DUP3 ADD SWAP1 POP PUSH2 0x41A PUSH1 0x0 DUP4 ADD DUP5 PUSH2 0x3C4 JUMP JUMPDEST SWAP3 SWAP2 POP POP JUMP JUMPDEST PUSH1 0x0 PUSH1 0x20 DUP3 ADD SWAP1 POP DUP2 DUP2 SUB PUSH1 0x0 DUP4 ADD MSTORE PUSH2 0x439 DUP2 PUSH2 0x3D3 JUMP JUMPDEST SWAP1 POP SWAP2 SWAP1 POP JUMP JUMPDEST PUSH1 0x0 PUSH1 0x20 DUP3 ADD SWAP1 POP PUSH2 0x455 PUSH1 0x0 DUP4 ADD DUP5 PUSH2 0x3F6 JUMP JUMPDEST SWAP3 SWAP2 POP POP JUMP JUMPDEST PUSH1 0x0 DUP3 DUP3 MSTORE PUSH1 0x20 DUP3 ADD SWAP1 POP SWAP3 SWAP2 POP POP JUMP JUMPDEST PUSH1 0x0 PUSH2 0x477 DUP3 PUSH2 0x528 JUMP JUMPDEST SWAP2 POP PUSH2 0x482 DUP4 PUSH2 0x528 JUMP JUMPDEST SWAP3 POP DUP3 PUSH32 0xFFFFFFFFFFFFFFFFFFFFFFFFFFFFFFFFFFFFFFFFFFFFFFFFFFFFFFFFFFFFFFFF SUB DUP3 GT ISZERO PUSH2 0x4B7 JUMPI PUSH2 0x4B6 PUSH2 0x532 JUMP JUMPDEST JUMPDEST DUP3 DUP3 ADD SWAP1 POP SWAP3 SWAP2 POP POP JUMP JUMPDEST PUSH1 0x0 PUSH2 0x4CD DUP3 PUSH2 0x528 JUMP JUMPDEST SWAP2 POP PUSH2 0x4D8 DUP4 PUSH2 0x528 JUMP JUMPDEST SWAP3 POP DUP3 DUP3 LT ISZERO PUSH2 0x4EB JUMPI PUSH2 0x4EA PUSH2 0x532 JUMP JUMPDEST JUMPDEST DUP3 DUP3 SUB SWAP1 POP SWAP3 SWAP2 POP POP JUMP JUMPDEST PUSH1 0x0 PUSH2 0x501 DUP3 PUSH2 0x508 JUMP JUMPDEST SWAP1 POP SWAP2 SWAP1 POP JUMP JUMPDEST PUSH1 0x0 PUSH20 0xFFFFFFFFFFFFFFFFFFFFFFFFFFFFFFFFFFFFFFFF DUP3 AND SWAP1 POP SWAP2 SWAP1 POP JUMP JUMPDEST PUSH1 0x0 DUP2 SWAP1 POP SWAP2 SWAP1 POP JUMP JUMPDEST PUSH32 0x4E487B7100000000000000000000000000000000000000000000000000000000 PUSH1 0x0 MSTORE PUSH1 0x11 PUSH1 0x4 MSTORE PUSH1 0x24 PUSH1 0x0 REVERT JUMPDEST PUSH1 0x0 DUP1 REVERT JUMPDEST PUSH32 0x6F6E6C7920746865206F776E65722063616E20726573746F636B207468697320 PUSH1 0x0 DUP3 ADD MSTORE PUSH32 0x6D616368696E6500000000000000000000000000000000000000000000000000 PUSH1 0x20 DUP3 ADD MSTORE POP JUMP JUMPDEST PUSH2 0x5BE DUP2 PUSH2 0x4F6 JUMP JUMPDEST DUP2 EQ PUSH2 0x5C9 JUMPI PUSH1 0x0 DUP1 REVERT JUMPDEST POP JUMP JUMPDEST PUSH2 0x5D5 DUP2 PUSH2 0x528 JUMP JUMPDEST DUP2 EQ PUSH2 0x5E0 JUMPI PUSH1 0x0 DUP1 REVERT JUMPDEST POP JUMP INVALID LOG2 PUSH5 0x6970667358 0x22 SLT KECCAK256 0xE SWAP7 CODECOPY DUP12 LOG3 PUSH21 0x1F459A4FB99DA1949A2D91C6DCA79F58C6C5E03566 DELEGATECALL KECCAK256 0xDB 0x26 0xB9 PUSH5 0x736F6C6343 STOP ADDMOD SMOD STOP CALLER "
				},
				"gasEstimates": {
					"creation": {
						"codeDepositCost": "312200",
						"executionCost": "46818",
						"totalCost": "359018"
					},
					"external": {
						"donutBalances(address)": "2858",
						"getDonutBalance()": "2526",
						"owner()": "2533",
						"purchase(uint256)": "infinite",
						"restockDonutBalance(uint256)": "infinite"
					}
				},
				"methodIdentifiers": {
					"donutBalances(address)": "9a020d8a",
					"getDonutBalance()": "6c92c921",
					"owner()": "8da5cb5b",
					"purchase(uint256)": "efef39a1",
					"restockDonutBalance(uint256)": "277e78bf"
				}
			},
			"storageLayout": {
				"storage": [
					{
						"astId": 3,
						"contract": "contracts/Vending_Machine.sol:VendingMachine",
						"label": "owner",
						"offset": 0,
						"slot": "0",
						"type": "t_address"
					},
					{
						"astId": 7,
						"contract": "contracts/Vending_Machine.sol:VendingMachine",
						"label": "donutBalances",
						"offset": 0,
						"slot": "1",
						"type": "t_mapping(t_address,t_uint256)"
					}
				],
				"types": {
					"t_address": {
						"encoding": "inplace",
						"label": "address",
						"numberOfBytes": "20"
					},
					"t_mapping(t_address,t_uint256)": {
						"encoding": "mapping",
						"key": "t_address",
						"label": "mapping(address => uint256)",
						"numberOfBytes": "32",
						"value": "t_uint256"
					},
					"t_uint256": {
						"encoding": "inplace",
						"label": "uint256",
						"numberOfBytes": "32"
					}
				}
			},
			"userdoc": {
				"kind": "user",
				"methods": {},
				"version": 1
			}
		}
	}
}