{
	"contracts/1_Lottery.sol": {
		"Lottery": {
			"abi": [
				{
					"inputs": [],
					"stateMutability": "nonpayable",
					"type": "constructor"
				},
				{
					"inputs": [],
					"name": "_getRandomNumber",
					"outputs": [
						{
							"internalType": "uint256",
							"name": "",
							"type": "uint256"
						}
					],
					"stateMutability": "view",
					"type": "function"
				},
				{
					"inputs": [],
					"name": "enter",
					"outputs": [],
					"stateMutability": "payable",
					"type": "function"
				},
				{
					"inputs": [],
					"name": "getBalance",
					"outputs": [
						{
							"internalType": "uint256",
							"name": "",
							"type": "uint256"
						}
					],
					"stateMutability": "view",
					"type": "function"
				},
				{
					"inputs": [],
					"name": "getPlayers",
					"outputs": [
						{
							"internalType": "address payable[]",
							"name": "",
							"type": "address[]"
						}
					],
					"stateMutability": "view",
					"type": "function"
				},
				{
					"inputs": [
						{
							"internalType": "uint256",
							"name": "lotteryId",
							"type": "uint256"
						}
					],
					"name": "getWinnerByLottery",
					"outputs": [
						{
							"internalType": "address payable",
							"name": "",
							"type": "address"
						}
					],
					"stateMutability": "view",
					"type": "function"
				},
				{
					"inputs": [
						{
							"internalType": "uint256",
							"name": "",
							"type": "uint256"
						}
					],
					"name": "lotteryHistory",
					"outputs": [
						{
							"internalType": "address payable",
							"name": "",
							"type": "address"
						}
					],
					"stateMutability": "view",
					"type": "function"
				},
				{
					"inputs": [],
					"name": "lotteryId",
					"outputs": [
						{
							"internalType": "uint256",
							"name": "",
							"type": "uint256"
						}
					],
					"stateMutability": "view",
					"type": "function"
				},
				{
					"inputs": [],
					"name": "owner",
					"outputs": [
						{
							"internalType": "address",
							"name": "",
							"type": "address"
						}
					],
					"stateMutability": "view",
					"type": "function"
				},
				{
					"inputs": [],
					"name": "pickWinner",
					"outputs": [],
					"stateMutability": "nonpayable",
					"type": "function"
				},
				{
					"inputs": [
						{
							"internalType": "uint256",
							"name": "",
							"type": "uint256"
						}
					],
					"name": "players",
					"outputs": [
						{
							"internalType": "address payable",
							"name": "",
							"type": "address"
						}
					],
					"stateMutability": "view",
					"type": "function"
				}
			],
			"devdoc": {
				"kind": "dev",
				"methods": {},
				"version": 1
			},
			"evm": {
				"assembly": "    /* \"contracts/1_Lottery.sol\":65:1389  contract Lottery {... */\n  mstore(0x40, 0x80)\n    /* \"contracts/1_Lottery.sol\":245:316  constructor(){... */\n  callvalue\n  dup1\n  iszero\n  tag_1\n  jumpi\n  0x00\n  dup1\n  revert\ntag_1:\n  pop\n    /* \"contracts/1_Lottery.sol\":276:286  msg.sender */\n  caller\n    /* \"contracts/1_Lottery.sol\":268:273  owner */\n  0x00\n  dup1\n    /* \"contracts/1_Lottery.sol\":268:286  owner = msg.sender */\n  0x0100\n  exp\n  dup2\n  sload\n  dup2\n  0xffffffffffffffffffffffffffffffffffffffff\n  mul\n  not\n  and\n  swap1\n  dup4\n  0xffffffffffffffffffffffffffffffffffffffff\n  and\n  mul\n  or\n  swap1\n  sstore\n  pop\n    /* \"contracts/1_Lottery.sol\":308:309  1 */\n  0x01\n    /* \"contracts/1_Lottery.sol\":296:305  lotteryId */\n  0x02\n    /* \"contracts/1_Lottery.sol\":296:309  lotteryId = 1 */\n  dup2\n  swap1\n  sstore\n  pop\n    /* \"contracts/1_Lottery.sol\":65:1389  contract Lottery {... */\n  dataSize(sub_0)\n  dup1\n  dataOffset(sub_0)\n  0x00\n  codecopy\n  0x00\n  return\nstop\n\nsub_0: assembly {\n        /* \"contracts/1_Lottery.sol\":65:1389  contract Lottery {... */\n      mstore(0x40, 0x80)\n      jumpi(tag_1, lt(calldatasize, 0x04))\n      shr(0xe0, calldataload(0x00))\n      dup1\n      0x8b5b9ccc\n      gt\n      tag_12\n      jumpi\n      dup1\n      0x8b5b9ccc\n      eq\n      tag_7\n      jumpi\n      dup1\n      0x8da5cb5b\n      eq\n      tag_8\n      jumpi\n      dup1\n      0xe580f47b\n      eq\n      tag_9\n      jumpi\n      dup1\n      0xe97dcb62\n      eq\n      tag_10\n      jumpi\n      dup1\n      0xf71d96cb\n      eq\n      tag_11\n      jumpi\n      jump(tag_1)\n    tag_12:\n      dup1\n      0x43ea26\n      eq\n      tag_2\n      jumpi\n      dup1\n      0x12065fe0\n      eq\n      tag_3\n      jumpi\n      dup1\n      0x281d098d\n      eq\n      tag_4\n      jumpi\n      dup1\n      0x5d495aea\n      eq\n      tag_5\n      jumpi\n      dup1\n      0x6d6fe230\n      eq\n      tag_6\n      jumpi\n    tag_1:\n      0x00\n      dup1\n      revert\n        /* \"contracts/1_Lottery.sol\":842:976  function _getRandomNumber() public view returns(uint){... */\n    tag_2:\n      callvalue\n      dup1\n      iszero\n      tag_13\n      jumpi\n      0x00\n      dup1\n      revert\n    tag_13:\n      pop\n      tag_14\n      tag_15\n      jump\t// in\n    tag_14:\n      mload(0x40)\n      tag_16\n      swap2\n      swap1\n      tag_17\n      jump\t// in\n    tag_16:\n      mload(0x40)\n      dup1\n      swap2\n      sub\n      swap1\n      return\n        /* \"contracts/1_Lottery.sol\":462:556  function getBalance() public view returns (uint){... */\n    tag_3:\n      callvalue\n      dup1\n      iszero\n      tag_18\n      jumpi\n      0x00\n      dup1\n      revert\n    tag_18:\n      pop\n      tag_19\n      tag_20\n      jump\t// in\n    tag_19:\n      mload(0x40)\n      tag_21\n      swap2\n      swap1\n      tag_17\n      jump\t// in\n    tag_21:\n      mload(0x40)\n      dup1\n      swap2\n      sub\n      swap1\n      return\n        /* \"contracts/1_Lottery.sol\":322:456  function getWinnerByLottery(uint256 lotteryId) public view returns (address payable ){... */\n    tag_4:\n      callvalue\n      dup1\n      iszero\n      tag_22\n      jumpi\n      0x00\n      dup1\n      revert\n    tag_22:\n      pop\n      tag_23\n      0x04\n      dup1\n      calldatasize\n      sub\n      dup2\n      add\n      swap1\n      tag_24\n      swap2\n      swap1\n      tag_25\n      jump\t// in\n    tag_24:\n      tag_26\n      jump\t// in\n    tag_23:\n      mload(0x40)\n      tag_27\n      swap2\n      swap1\n      tag_28\n      jump\t// in\n    tag_27:\n      mload(0x40)\n      dup1\n      swap2\n      sub\n      swap1\n      return\n        /* \"contracts/1_Lottery.sol\":982:1304  function pickWinner() public onlyOwner {... */\n    tag_5:\n      callvalue\n      dup1\n      iszero\n      tag_29\n      jumpi\n      0x00\n      dup1\n      revert\n    tag_29:\n      pop\n      tag_30\n      tag_31\n      jump\t// in\n    tag_30:\n      stop\n        /* \"contracts/1_Lottery.sol\":183:238  mapping (uint => address payable) public lotteryHistory */\n    tag_6:\n      callvalue\n      dup1\n      iszero\n      tag_32\n      jumpi\n      0x00\n      dup1\n      revert\n    tag_32:\n      pop\n      tag_33\n      0x04\n      dup1\n      calldatasize\n      sub\n      dup2\n      add\n      swap1\n      tag_34\n      swap2\n      swap1\n      tag_25\n      jump\t// in\n    tag_34:\n      tag_35\n      jump\t// in\n    tag_33:\n      mload(0x40)\n      tag_36\n      swap2\n      swap1\n      tag_28\n      jump\t// in\n    tag_36:\n      mload(0x40)\n      dup1\n      swap2\n      sub\n      swap1\n      return\n        /* \"contracts/1_Lottery.sol\":562:662  function getPlayers() public view returns (address payable[] memory ){... */\n    tag_7:\n      callvalue\n      dup1\n      iszero\n      tag_37\n      jumpi\n      0x00\n      dup1\n      revert\n    tag_37:\n      pop\n      tag_38\n      tag_39\n      jump\t// in\n    tag_38:\n      mload(0x40)\n      tag_40\n      swap2\n      swap1\n      tag_41\n      jump\t// in\n    tag_40:\n      mload(0x40)\n      dup1\n      swap2\n      sub\n      swap1\n      return\n        /* \"contracts/1_Lottery.sol\":88:108  address public owner */\n    tag_8:\n      callvalue\n      dup1\n      iszero\n      tag_42\n      jumpi\n      0x00\n      dup1\n      revert\n    tag_42:\n      pop\n      tag_43\n      tag_44\n      jump\t// in\n    tag_43:\n      mload(0x40)\n      tag_45\n      swap2\n      swap1\n      tag_46\n      jump\t// in\n    tag_45:\n      mload(0x40)\n      dup1\n      swap2\n      sub\n      swap1\n      return\n        /* \"contracts/1_Lottery.sol\":153:177  uint256 public lotteryId */\n    tag_9:\n      callvalue\n      dup1\n      iszero\n      tag_47\n      jumpi\n      0x00\n      dup1\n      revert\n    tag_47:\n      pop\n      tag_48\n      tag_49\n      jump\t// in\n    tag_48:\n      mload(0x40)\n      tag_50\n      swap2\n      swap1\n      tag_17\n      jump\t// in\n    tag_50:\n      mload(0x40)\n      dup1\n      swap2\n      sub\n      swap1\n      return\n        /* \"contracts/1_Lottery.sol\":668:836  function enter() public payable {... */\n    tag_10:\n      tag_51\n      tag_52\n      jump\t// in\n    tag_51:\n      stop\n        /* \"contracts/1_Lottery.sol\":114:147  address payable[] public  players */\n    tag_11:\n      callvalue\n      dup1\n      iszero\n      tag_53\n      jumpi\n      0x00\n      dup1\n      revert\n    tag_53:\n      pop\n      tag_54\n      0x04\n      dup1\n      calldatasize\n      sub\n      dup2\n      add\n      swap1\n      tag_55\n      swap2\n      swap1\n      tag_25\n      jump\t// in\n    tag_55:\n      tag_56\n      jump\t// in\n    tag_54:\n      mload(0x40)\n      tag_57\n      swap2\n      swap1\n      tag_28\n      jump\t// in\n    tag_57:\n      mload(0x40)\n      dup1\n      swap2\n      sub\n      swap1\n      return\n        /* \"contracts/1_Lottery.sol\":842:976  function _getRandomNumber() public view returns(uint){... */\n    tag_15:\n        /* \"contracts/1_Lottery.sol\":890:894  uint */\n      0x00\n        /* \"contracts/1_Lottery.sol\":944:949  owner */\n      dup1\n      0x00\n      swap1\n      sload\n      swap1\n      0x0100\n      exp\n      swap1\n      div\n      0xffffffffffffffffffffffffffffffffffffffff\n      and\n        /* \"contracts/1_Lottery.sol\":951:966  block.timestamp */\n      timestamp\n        /* \"contracts/1_Lottery.sol\":927:967  abi.encodePacked(owner, block.timestamp) */\n      add(0x20, mload(0x40))\n      tag_59\n      swap3\n      swap2\n      swap1\n      tag_60\n      jump\t// in\n    tag_59:\n      mload(0x40)\n      0x20\n      dup2\n      dup4\n      sub\n      sub\n      dup2\n      mstore\n      swap1\n      0x40\n      mstore\n        /* \"contracts/1_Lottery.sol\":917:968  keccak256(abi.encodePacked(owner, block.timestamp)) */\n      dup1\n      mload\n      swap1\n      0x20\n      add\n      keccak256\n        /* \"contracts/1_Lottery.sol\":912:969  uint(keccak256(abi.encodePacked(owner, block.timestamp))) */\n      0x00\n      shr\n        /* \"contracts/1_Lottery.sol\":905:969  return uint(keccak256(abi.encodePacked(owner, block.timestamp))) */\n      swap1\n      pop\n        /* \"contracts/1_Lottery.sol\":842:976  function _getRandomNumber() public view returns(uint){... */\n      swap1\n      jump\t// out\n        /* \"contracts/1_Lottery.sol\":462:556  function getBalance() public view returns (uint){... */\n    tag_20:\n        /* \"contracts/1_Lottery.sol\":505:509  uint */\n      0x00\n        /* \"contracts/1_Lottery.sol\":528:549  address(this).balance */\n      selfbalance\n        /* \"contracts/1_Lottery.sol\":520:549  return  address(this).balance */\n      swap1\n      pop\n        /* \"contracts/1_Lottery.sol\":462:556  function getBalance() public view returns (uint){... */\n      swap1\n      jump\t// out\n        /* \"contracts/1_Lottery.sol\":322:456  function getWinnerByLottery(uint256 lotteryId) public view returns (address payable ){... */\n    tag_26:\n        /* \"contracts/1_Lottery.sol\":390:405  address payable */\n      0x00\n        /* \"contracts/1_Lottery.sol\":424:438  lotteryHistory */\n      0x03\n        /* \"contracts/1_Lottery.sol\":424:449  lotteryHistory[lotteryId] */\n      0x00\n        /* \"contracts/1_Lottery.sol\":439:448  lotteryId */\n      dup4\n        /* \"contracts/1_Lottery.sol\":424:449  lotteryHistory[lotteryId] */\n      dup2\n      mstore\n      0x20\n      add\n      swap1\n      dup2\n      mstore\n      0x20\n      add\n      0x00\n      keccak256\n      0x00\n      swap1\n      sload\n      swap1\n      0x0100\n      exp\n      swap1\n      div\n      0xffffffffffffffffffffffffffffffffffffffff\n      and\n        /* \"contracts/1_Lottery.sol\":417:449  return lotteryHistory[lotteryId] */\n      swap1\n      pop\n        /* \"contracts/1_Lottery.sol\":322:456  function getWinnerByLottery(uint256 lotteryId) public view returns (address payable ){... */\n      swap2\n      swap1\n      pop\n      jump\t// out\n        /* \"contracts/1_Lottery.sol\":982:1304  function pickWinner() public onlyOwner {... */\n    tag_31:\n        /* \"contracts/1_Lottery.sol\":1363:1368  owner */\n      0x00\n      dup1\n      sload\n      swap1\n      0x0100\n      exp\n      swap1\n      div\n      0xffffffffffffffffffffffffffffffffffffffff\n      and\n        /* \"contracts/1_Lottery.sol\":1349:1368  msg.sender == owner */\n      0xffffffffffffffffffffffffffffffffffffffff\n      and\n        /* \"contracts/1_Lottery.sol\":1349:1359  msg.sender */\n      caller\n        /* \"contracts/1_Lottery.sol\":1349:1368  msg.sender == owner */\n      0xffffffffffffffffffffffffffffffffffffffff\n      and\n      eq\n        /* \"contracts/1_Lottery.sol\":1341:1369  require(msg.sender == owner) */\n      tag_64\n      jumpi\n      0x00\n      dup1\n      revert\n    tag_64:\n        /* \"contracts/1_Lottery.sol\":1031:1041  uint index */\n      0x00\n        /* \"contracts/1_Lottery.sol\":1065:1072  players */\n      0x01\n        /* \"contracts/1_Lottery.sol\":1065:1079  players.length */\n      dup1\n      sload\n      swap1\n      pop\n        /* \"contracts/1_Lottery.sol\":1044:1062  _getRandomNumber() */\n      tag_66\n        /* \"contracts/1_Lottery.sol\":1044:1060  _getRandomNumber */\n      tag_15\n        /* \"contracts/1_Lottery.sol\":1044:1062  _getRandomNumber() */\n      jump\t// in\n    tag_66:\n        /* \"contracts/1_Lottery.sol\":1044:1079  _getRandomNumber() % players.length */\n      tag_67\n      swap2\n      swap1\n      tag_68\n      jump\t// in\n    tag_67:\n        /* \"contracts/1_Lottery.sol\":1031:1079  uint index = _getRandomNumber() % players.length */\n      swap1\n      pop\n        /* \"contracts/1_Lottery.sol\":1089:1096  players */\n      0x01\n        /* \"contracts/1_Lottery.sol\":1097:1102  index */\n      dup2\n        /* \"contracts/1_Lottery.sol\":1089:1103  players[index] */\n      dup2\n      sload\n      dup2\n      lt\n      tag_69\n      jumpi\n      tag_70\n      tag_71\n      jump\t// in\n    tag_70:\n    tag_69:\n      swap1\n      0x00\n      mstore\n      keccak256(0x00, 0x20)\n      add\n      0x00\n      swap1\n      sload\n      swap1\n      0x0100\n      exp\n      swap1\n      div\n      0xffffffffffffffffffffffffffffffffffffffff\n      and\n        /* \"contracts/1_Lottery.sol\":1089:1112  players[index].transfer */\n      0xffffffffffffffffffffffffffffffffffffffff\n      and\n        /* \"contracts/1_Lottery.sol\":1089:1135  players[index].transfer(address(this).balance) */\n      0x08fc\n        /* \"contracts/1_Lottery.sol\":1113:1134  address(this).balance */\n      selfbalance\n        /* \"contracts/1_Lottery.sol\":1089:1135  players[index].transfer(address(this).balance) */\n      swap1\n      dup2\n      iszero\n      mul\n      swap1\n      mload(0x40)\n      0x00\n      mload(0x40)\n      dup1\n      dup4\n      sub\n      dup2\n      dup6\n      dup9\n      dup9\n      call\n      swap4\n      pop\n      pop\n      pop\n      pop\n      iszero\n      dup1\n      iszero\n      tag_74\n      jumpi\n      returndatasize\n      0x00\n      dup1\n      returndatacopy\n      revert(0x00, returndatasize)\n    tag_74:\n      pop\n        /* \"contracts/1_Lottery.sol\":1174:1181  players */\n      0x01\n        /* \"contracts/1_Lottery.sol\":1182:1187  index */\n      dup2\n        /* \"contracts/1_Lottery.sol\":1174:1188  players[index] */\n      dup2\n      sload\n      dup2\n      lt\n      tag_75\n      jumpi\n      tag_76\n      tag_71\n      jump\t// in\n    tag_76:\n    tag_75:\n      swap1\n      0x00\n      mstore\n      keccak256(0x00, 0x20)\n      add\n      0x00\n      swap1\n      sload\n      swap1\n      0x0100\n      exp\n      swap1\n      div\n      0xffffffffffffffffffffffffffffffffffffffff\n      and\n        /* \"contracts/1_Lottery.sol\":1146:1160  lotteryHistory */\n      0x03\n        /* \"contracts/1_Lottery.sol\":1146:1171  lotteryHistory[lotteryId] */\n      0x00\n        /* \"contracts/1_Lottery.sol\":1161:1170  lotteryId */\n      sload(0x02)\n        /* \"contracts/1_Lottery.sol\":1146:1171  lotteryHistory[lotteryId] */\n      dup2\n      mstore\n      0x20\n      add\n      swap1\n      dup2\n      mstore\n      0x20\n      add\n      0x00\n      keccak256\n      0x00\n        /* \"contracts/1_Lottery.sol\":1146:1188  lotteryHistory[lotteryId] = players[index] */\n      0x0100\n      exp\n      dup2\n      sload\n      dup2\n      0xffffffffffffffffffffffffffffffffffffffff\n      mul\n      not\n      and\n      swap1\n      dup4\n      0xffffffffffffffffffffffffffffffffffffffff\n      and\n      mul\n      or\n      swap1\n      sstore\n      pop\n        /* \"contracts/1_Lottery.sol\":1198:1207  lotteryId */\n      0x02\n      0x00\n        /* \"contracts/1_Lottery.sol\":1198:1209  lotteryId++ */\n      dup2\n      sload\n      dup1\n      swap3\n      swap2\n      swap1\n      tag_78\n      swap1\n      tag_79\n      jump\t// in\n    tag_78:\n      swap2\n      swap1\n      pop\n      sstore\n      pop\n        /* \"contracts/1_Lottery.sol\":1295:1296  0 */\n      0x00\n        /* \"contracts/1_Lottery.sol\":1273:1297  new address payable[](0) */\n      0xffffffffffffffff\n      dup2\n      gt\n      iszero\n      tag_80\n      jumpi\n      tag_81\n      tag_82\n      jump\t// in\n    tag_81:\n    tag_80:\n      mload(0x40)\n      swap1\n      dup1\n      dup3\n      mstore\n      dup1\n      0x20\n      mul\n      0x20\n      add\n      dup3\n      add\n      0x40\n      mstore\n      dup1\n      iszero\n      tag_83\n      jumpi\n      dup2\n      0x20\n      add\n      0x20\n      dup3\n      mul\n      dup1\n      calldatasize\n      dup4\n      calldatacopy\n      dup1\n      dup3\n      add\n      swap2\n      pop\n      pop\n      swap1\n      pop\n    tag_83:\n      pop\n        /* \"contracts/1_Lottery.sol\":1263:1270  players */\n      0x01\n        /* \"contracts/1_Lottery.sol\":1263:1297  players = new address payable[](0) */\n      swap1\n      dup1\n      mload\n      swap1\n      0x20\n      add\n      swap1\n      tag_84\n      swap3\n      swap2\n      swap1\n      tag_85\n      jump\t// in\n    tag_84:\n      pop\n        /* \"contracts/1_Lottery.sol\":1021:1304  {... */\n      pop\n        /* \"contracts/1_Lottery.sol\":982:1304  function pickWinner() public onlyOwner {... */\n      jump\t// out\n        /* \"contracts/1_Lottery.sol\":183:238  mapping (uint => address payable) public lotteryHistory */\n    tag_35:\n      mstore(0x20, 0x03)\n      dup1\n      0x00\n      mstore\n      keccak256(0x00, 0x40)\n      0x00\n      swap2\n      pop\n      sload\n      swap1\n      0x0100\n      exp\n      swap1\n      div\n      0xffffffffffffffffffffffffffffffffffffffff\n      and\n      dup2\n      jump\t// out\n        /* \"contracts/1_Lottery.sol\":562:662  function getPlayers() public view returns (address payable[] memory ){... */\n    tag_39:\n        /* \"contracts/1_Lottery.sol\":605:629  address payable[] memory */\n      0x60\n        /* \"contracts/1_Lottery.sol\":648:655  players */\n      0x01\n        /* \"contracts/1_Lottery.sol\":641:655  return players */\n      dup1\n      sload\n      dup1\n      0x20\n      mul\n      0x20\n      add\n      mload(0x40)\n      swap1\n      dup2\n      add\n      0x40\n      mstore\n      dup1\n      swap3\n      swap2\n      swap1\n      dup2\n      dup2\n      mstore\n      0x20\n      add\n      dup3\n      dup1\n      sload\n      dup1\n      iszero\n      tag_87\n      jumpi\n      0x20\n      mul\n      dup3\n      add\n      swap2\n      swap1\n      0x00\n      mstore\n      keccak256(0x00, 0x20)\n      swap1\n    tag_88:\n      dup2\n      0x00\n      swap1\n      sload\n      swap1\n      0x0100\n      exp\n      swap1\n      div\n      0xffffffffffffffffffffffffffffffffffffffff\n      and\n      0xffffffffffffffffffffffffffffffffffffffff\n      and\n      dup2\n      mstore\n      0x20\n      add\n      swap1\n      0x01\n      add\n      swap1\n      dup1\n      dup4\n      gt\n      tag_88\n      jumpi\n    tag_87:\n      pop\n      pop\n      pop\n      pop\n      pop\n      swap1\n      pop\n        /* \"contracts/1_Lottery.sol\":562:662  function getPlayers() public view returns (address payable[] memory ){... */\n      swap1\n      jump\t// out\n        /* \"contracts/1_Lottery.sol\":88:108  address public owner */\n    tag_44:\n      0x00\n      dup1\n      sload\n      swap1\n      0x0100\n      exp\n      swap1\n      div\n      0xffffffffffffffffffffffffffffffffffffffff\n      and\n      dup2\n      jump\t// out\n        /* \"contracts/1_Lottery.sol\":153:177  uint256 public lotteryId */\n    tag_49:\n      sload(0x02)\n      dup2\n      jump\t// out\n        /* \"contracts/1_Lottery.sol\":668:836  function enter() public payable {... */\n    tag_52:\n        /* \"contracts/1_Lottery.sol\":730:739  0.1 ether */\n      0x016345785d8a0000\n        /* \"contracts/1_Lottery.sol\":718:727  msg.value */\n      callvalue\n        /* \"contracts/1_Lottery.sol\":718:739  msg.value > 0.1 ether */\n      gt\n        /* \"contracts/1_Lottery.sol\":710:740  require(msg.value > 0.1 ether) */\n      tag_90\n      jumpi\n      0x00\n      dup1\n      revert\n    tag_90:\n        /* \"contracts/1_Lottery.sol\":796:803  players */\n      0x01\n        /* \"contracts/1_Lottery.sol\":817:827  msg.sender */\n      caller\n        /* \"contracts/1_Lottery.sol\":796:829  players.push(payable(msg.sender)) */\n      swap1\n      dup1\n      0x01\n      dup2\n      sload\n      add\n      dup1\n      dup3\n      sstore\n      dup1\n      swap2\n      pop\n      pop\n      0x01\n      swap1\n      sub\n      swap1\n      0x00\n      mstore\n      keccak256(0x00, 0x20)\n      add\n      0x00\n      swap1\n      swap2\n      swap1\n      swap2\n      swap1\n      swap2\n      0x0100\n      exp\n      dup2\n      sload\n      dup2\n      0xffffffffffffffffffffffffffffffffffffffff\n      mul\n      not\n      and\n      swap1\n      dup4\n      0xffffffffffffffffffffffffffffffffffffffff\n      and\n      mul\n      or\n      swap1\n      sstore\n      pop\n        /* \"contracts/1_Lottery.sol\":668:836  function enter() public payable {... */\n      jump\t// out\n        /* \"contracts/1_Lottery.sol\":114:147  address payable[] public  players */\n    tag_56:\n      0x01\n      dup2\n      dup2\n      sload\n      dup2\n      lt\n      tag_92\n      jumpi\n      0x00\n      dup1\n      revert\n    tag_92:\n      swap1\n      0x00\n      mstore\n      keccak256(0x00, 0x20)\n      add\n      0x00\n      swap2\n      pop\n      sload\n      swap1\n      0x0100\n      exp\n      swap1\n      div\n      0xffffffffffffffffffffffffffffffffffffffff\n      and\n      dup2\n      jump\t// out\n    tag_85:\n      dup3\n      dup1\n      sload\n      dup3\n      dup3\n      sstore\n      swap1\n      0x00\n      mstore\n      keccak256(0x00, 0x20)\n      swap1\n      dup2\n      add\n      swap3\n      dup3\n      iszero\n      tag_94\n      jumpi\n      swap2\n      0x20\n      mul\n      dup3\n      add\n    tag_95:\n      dup3\n      dup2\n      gt\n      iszero\n      tag_96\n      jumpi\n      dup3\n      mload\n      dup3\n      exp(0x0100, 0x00)\n      dup2\n      sload\n      dup2\n      0xffffffffffffffffffffffffffffffffffffffff\n      mul\n      not\n      and\n      swap1\n      dup4\n      0xffffffffffffffffffffffffffffffffffffffff\n      and\n      mul\n      or\n      swap1\n      sstore\n      pop\n      swap2\n      0x20\n      add\n      swap2\n      swap1\n      0x01\n      add\n      swap1\n      jump(tag_95)\n    tag_96:\n    tag_94:\n      pop\n      swap1\n      pop\n      tag_97\n      swap2\n      swap1\n      tag_98\n      jump\t// in\n    tag_97:\n      pop\n      swap1\n      jump\t// out\n    tag_98:\n    tag_99:\n      dup1\n      dup3\n      gt\n      iszero\n      tag_100\n      jumpi\n      0x00\n      dup2\n      0x00\n      swap1\n      sstore\n      pop\n      0x01\n      add\n      jump(tag_99)\n    tag_100:\n      pop\n      swap1\n      jump\t// out\n        /* \"#utility.yul\":7:146   */\n    tag_102:\n        /* \"#utility.yul\":53:58   */\n      0x00\n        /* \"#utility.yul\":91:97   */\n      dup2\n        /* \"#utility.yul\":78:98   */\n      calldataload\n        /* \"#utility.yul\":69:98   */\n      swap1\n      pop\n        /* \"#utility.yul\":107:140   */\n      tag_104\n        /* \"#utility.yul\":134:139   */\n      dup2\n        /* \"#utility.yul\":107:140   */\n      tag_105\n      jump\t// in\n    tag_104:\n        /* \"#utility.yul\":7:146   */\n      swap3\n      swap2\n      pop\n      pop\n      jump\t// out\n        /* \"#utility.yul\":152:481   */\n    tag_25:\n        /* \"#utility.yul\":211:217   */\n      0x00\n        /* \"#utility.yul\":260:262   */\n      0x20\n        /* \"#utility.yul\":248:257   */\n      dup3\n        /* \"#utility.yul\":239:246   */\n      dup5\n        /* \"#utility.yul\":235:258   */\n      sub\n        /* \"#utility.yul\":231:263   */\n      slt\n        /* \"#utility.yul\":228:347   */\n      iszero\n      tag_107\n      jumpi\n        /* \"#utility.yul\":266:345   */\n      tag_108\n      tag_109\n      jump\t// in\n    tag_108:\n        /* \"#utility.yul\":228:347   */\n    tag_107:\n        /* \"#utility.yul\":386:387   */\n      0x00\n        /* \"#utility.yul\":411:464   */\n      tag_110\n        /* \"#utility.yul\":456:463   */\n      dup5\n        /* \"#utility.yul\":447:453   */\n      dup3\n        /* \"#utility.yul\":436:445   */\n      dup6\n        /* \"#utility.yul\":432:454   */\n      add\n        /* \"#utility.yul\":411:464   */\n      tag_102\n      jump\t// in\n    tag_110:\n        /* \"#utility.yul\":401:464   */\n      swap2\n      pop\n        /* \"#utility.yul\":357:474   */\n      pop\n        /* \"#utility.yul\":152:481   */\n      swap3\n      swap2\n      pop\n      pop\n      jump\t// out\n        /* \"#utility.yul\":487:698   */\n    tag_111:\n        /* \"#utility.yul\":572:582   */\n      0x00\n        /* \"#utility.yul\":593:655   */\n      tag_113\n        /* \"#utility.yul\":651:654   */\n      dup4\n        /* \"#utility.yul\":643:649   */\n      dup4\n        /* \"#utility.yul\":593:655   */\n      tag_114\n      jump\t// in\n    tag_113:\n        /* \"#utility.yul\":687:691   */\n      0x20\n        /* \"#utility.yul\":682:685   */\n      dup4\n        /* \"#utility.yul\":678:692   */\n      add\n        /* \"#utility.yul\":664:692   */\n      swap1\n      pop\n        /* \"#utility.yul\":487:698   */\n      swap3\n      swap2\n      pop\n      pop\n      jump\t// out\n        /* \"#utility.yul\":704:836   */\n    tag_114:\n        /* \"#utility.yul\":797:829   */\n      tag_116\n        /* \"#utility.yul\":823:828   */\n      dup2\n        /* \"#utility.yul\":797:829   */\n      tag_117\n      jump\t// in\n    tag_116:\n        /* \"#utility.yul\":792:795   */\n      dup3\n        /* \"#utility.yul\":785:830   */\n      mstore\n        /* \"#utility.yul\":704:836   */\n      pop\n      pop\n      jump\t// out\n        /* \"#utility.yul\":842:984   */\n    tag_118:\n        /* \"#utility.yul\":945:977   */\n      tag_120\n        /* \"#utility.yul\":971:976   */\n      dup2\n        /* \"#utility.yul\":945:977   */\n      tag_117\n      jump\t// in\n    tag_120:\n        /* \"#utility.yul\":940:943   */\n      dup3\n        /* \"#utility.yul\":933:978   */\n      mstore\n        /* \"#utility.yul\":842:984   */\n      pop\n      pop\n      jump\t// out\n        /* \"#utility.yul\":990:1108   */\n    tag_121:\n        /* \"#utility.yul\":1077:1101   */\n      tag_123\n        /* \"#utility.yul\":1095:1100   */\n      dup2\n        /* \"#utility.yul\":1077:1101   */\n      tag_124\n      jump\t// in\n    tag_123:\n        /* \"#utility.yul\":1072:1075   */\n      dup3\n        /* \"#utility.yul\":1065:1102   */\n      mstore\n        /* \"#utility.yul\":990:1108   */\n      pop\n      pop\n      jump\t// out\n        /* \"#utility.yul\":1114:1271   */\n    tag_125:\n        /* \"#utility.yul\":1219:1264   */\n      tag_127\n        /* \"#utility.yul\":1239:1263   */\n      tag_128\n        /* \"#utility.yul\":1257:1262   */\n      dup3\n        /* \"#utility.yul\":1239:1263   */\n      tag_124\n      jump\t// in\n    tag_128:\n        /* \"#utility.yul\":1219:1264   */\n      tag_129\n      jump\t// in\n    tag_127:\n        /* \"#utility.yul\":1214:1217   */\n      dup3\n        /* \"#utility.yul\":1207:1265   */\n      mstore\n        /* \"#utility.yul\":1114:1271   */\n      pop\n      pop\n      jump\t// out\n        /* \"#utility.yul\":1323:2119   */\n    tag_130:\n        /* \"#utility.yul\":1458:1461   */\n      0x00\n        /* \"#utility.yul\":1487:1549   */\n      tag_132\n        /* \"#utility.yul\":1543:1548   */\n      dup3\n        /* \"#utility.yul\":1487:1549   */\n      tag_133\n      jump\t// in\n    tag_132:\n        /* \"#utility.yul\":1565:1659   */\n      tag_134\n        /* \"#utility.yul\":1652:1658   */\n      dup2\n        /* \"#utility.yul\":1647:1650   */\n      dup6\n        /* \"#utility.yul\":1565:1659   */\n      tag_135\n      jump\t// in\n    tag_134:\n        /* \"#utility.yul\":1558:1659   */\n      swap4\n      pop\n        /* \"#utility.yul\":1683:1747   */\n      tag_136\n        /* \"#utility.yul\":1741:1746   */\n      dup4\n        /* \"#utility.yul\":1683:1747   */\n      tag_137\n      jump\t// in\n    tag_136:\n        /* \"#utility.yul\":1770:1777   */\n      dup1\n        /* \"#utility.yul\":1801:1802   */\n      0x00\n        /* \"#utility.yul\":1786:2094   */\n    tag_138:\n        /* \"#utility.yul\":1811:1817   */\n      dup4\n        /* \"#utility.yul\":1808:1809   */\n      dup2\n        /* \"#utility.yul\":1805:1818   */\n      lt\n        /* \"#utility.yul\":1786:2094   */\n      iszero\n      tag_140\n      jumpi\n        /* \"#utility.yul\":1887:1893   */\n      dup2\n        /* \"#utility.yul\":1881:1894   */\n      mload\n        /* \"#utility.yul\":1914:1993   */\n      tag_141\n        /* \"#utility.yul\":1989:1992   */\n      dup9\n        /* \"#utility.yul\":1974:1987   */\n      dup3\n        /* \"#utility.yul\":1914:1993   */\n      tag_111\n      jump\t// in\n    tag_141:\n        /* \"#utility.yul\":1907:1993   */\n      swap8\n      pop\n        /* \"#utility.yul\":2016:2084   */\n      tag_142\n        /* \"#utility.yul\":2077:2083   */\n      dup4\n        /* \"#utility.yul\":2016:2084   */\n      tag_143\n      jump\t// in\n    tag_142:\n        /* \"#utility.yul\":2006:2084   */\n      swap3\n      pop\n        /* \"#utility.yul\":1846:2094   */\n      pop\n        /* \"#utility.yul\":1833:1834   */\n      0x01\n        /* \"#utility.yul\":1830:1831   */\n      dup2\n        /* \"#utility.yul\":1826:1835   */\n      add\n        /* \"#utility.yul\":1821:1835   */\n      swap1\n      pop\n        /* \"#utility.yul\":1786:2094   */\n      jump(tag_138)\n    tag_140:\n        /* \"#utility.yul\":1790:1804   */\n      pop\n        /* \"#utility.yul\":2110:2113   */\n      dup6\n        /* \"#utility.yul\":2103:2113   */\n      swap4\n      pop\n        /* \"#utility.yul\":1463:2119   */\n      pop\n      pop\n      pop\n        /* \"#utility.yul\":1323:2119   */\n      swap3\n      swap2\n      pop\n      pop\n      jump\t// out\n        /* \"#utility.yul\":2125:2243   */\n    tag_144:\n        /* \"#utility.yul\":2212:2236   */\n      tag_146\n        /* \"#utility.yul\":2230:2235   */\n      dup2\n        /* \"#utility.yul\":2212:2236   */\n      tag_147\n      jump\t// in\n    tag_146:\n        /* \"#utility.yul\":2207:2210   */\n      dup3\n        /* \"#utility.yul\":2200:2237   */\n      mstore\n        /* \"#utility.yul\":2125:2243   */\n      pop\n      pop\n      jump\t// out\n        /* \"#utility.yul\":2249:2406   */\n    tag_148:\n        /* \"#utility.yul\":2354:2399   */\n      tag_150\n        /* \"#utility.yul\":2374:2398   */\n      tag_151\n        /* \"#utility.yul\":2392:2397   */\n      dup3\n        /* \"#utility.yul\":2374:2398   */\n      tag_147\n      jump\t// in\n    tag_151:\n        /* \"#utility.yul\":2354:2399   */\n      tag_152\n      jump\t// in\n    tag_150:\n        /* \"#utility.yul\":2349:2352   */\n      dup3\n        /* \"#utility.yul\":2342:2400   */\n      mstore\n        /* \"#utility.yul\":2249:2406   */\n      pop\n      pop\n      jump\t// out\n        /* \"#utility.yul\":2412:2809   */\n    tag_60:\n        /* \"#utility.yul\":2552:2555   */\n      0x00\n        /* \"#utility.yul\":2567:2642   */\n      tag_154\n        /* \"#utility.yul\":2638:2641   */\n      dup3\n        /* \"#utility.yul\":2629:2635   */\n      dup6\n        /* \"#utility.yul\":2567:2642   */\n      tag_125\n      jump\t// in\n    tag_154:\n        /* \"#utility.yul\":2667:2669   */\n      0x14\n        /* \"#utility.yul\":2662:2665   */\n      dup3\n        /* \"#utility.yul\":2658:2670   */\n      add\n        /* \"#utility.yul\":2651:2670   */\n      swap2\n      pop\n        /* \"#utility.yul\":2680:2755   */\n      tag_155\n        /* \"#utility.yul\":2751:2754   */\n      dup3\n        /* \"#utility.yul\":2742:2748   */\n      dup5\n        /* \"#utility.yul\":2680:2755   */\n      tag_148\n      jump\t// in\n    tag_155:\n        /* \"#utility.yul\":2780:2782   */\n      0x20\n        /* \"#utility.yul\":2775:2778   */\n      dup3\n        /* \"#utility.yul\":2771:2783   */\n      add\n        /* \"#utility.yul\":2764:2783   */\n      swap2\n      pop\n        /* \"#utility.yul\":2800:2803   */\n      dup2\n        /* \"#utility.yul\":2793:2803   */\n      swap1\n      pop\n        /* \"#utility.yul\":2412:2809   */\n      swap4\n      swap3\n      pop\n      pop\n      pop\n      jump\t// out\n        /* \"#utility.yul\":2815:3037   */\n    tag_46:\n        /* \"#utility.yul\":2908:2912   */\n      0x00\n        /* \"#utility.yul\":2946:2948   */\n      0x20\n        /* \"#utility.yul\":2935:2944   */\n      dup3\n        /* \"#utility.yul\":2931:2949   */\n      add\n        /* \"#utility.yul\":2923:2949   */\n      swap1\n      pop\n        /* \"#utility.yul\":2959:3030   */\n      tag_157\n        /* \"#utility.yul\":3027:3028   */\n      0x00\n        /* \"#utility.yul\":3016:3025   */\n      dup4\n        /* \"#utility.yul\":3012:3029   */\n      add\n        /* \"#utility.yul\":3003:3009   */\n      dup5\n        /* \"#utility.yul\":2959:3030   */\n      tag_121\n      jump\t// in\n    tag_157:\n        /* \"#utility.yul\":2815:3037   */\n      swap3\n      swap2\n      pop\n      pop\n      jump\t// out\n        /* \"#utility.yul\":3043:3297   */\n    tag_28:\n        /* \"#utility.yul\":3152:3156   */\n      0x00\n        /* \"#utility.yul\":3190:3192   */\n      0x20\n        /* \"#utility.yul\":3179:3188   */\n      dup3\n        /* \"#utility.yul\":3175:3193   */\n      add\n        /* \"#utility.yul\":3167:3193   */\n      swap1\n      pop\n        /* \"#utility.yul\":3203:3290   */\n      tag_159\n        /* \"#utility.yul\":3287:3288   */\n      0x00\n        /* \"#utility.yul\":3276:3285   */\n      dup4\n        /* \"#utility.yul\":3272:3289   */\n      add\n        /* \"#utility.yul\":3263:3269   */\n      dup5\n        /* \"#utility.yul\":3203:3290   */\n      tag_118\n      jump\t// in\n    tag_159:\n        /* \"#utility.yul\":3043:3297   */\n      swap3\n      swap2\n      pop\n      pop\n      jump\t// out\n        /* \"#utility.yul\":3303:3708   */\n    tag_41:\n        /* \"#utility.yul\":3462:3466   */\n      0x00\n        /* \"#utility.yul\":3500:3502   */\n      0x20\n        /* \"#utility.yul\":3489:3498   */\n      dup3\n        /* \"#utility.yul\":3485:3503   */\n      add\n        /* \"#utility.yul\":3477:3503   */\n      swap1\n      pop\n        /* \"#utility.yul\":3549:3558   */\n      dup2\n        /* \"#utility.yul\":3543:3547   */\n      dup2\n        /* \"#utility.yul\":3539:3559   */\n      sub\n        /* \"#utility.yul\":3535:3536   */\n      0x00\n        /* \"#utility.yul\":3524:3533   */\n      dup4\n        /* \"#utility.yul\":3520:3537   */\n      add\n        /* \"#utility.yul\":3513:3560   */\n      mstore\n        /* \"#utility.yul\":3577:3701   */\n      tag_161\n        /* \"#utility.yul\":3696:3700   */\n      dup2\n        /* \"#utility.yul\":3687:3693   */\n      dup5\n        /* \"#utility.yul\":3577:3701   */\n      tag_130\n      jump\t// in\n    tag_161:\n        /* \"#utility.yul\":3569:3701   */\n      swap1\n      pop\n        /* \"#utility.yul\":3303:3708   */\n      swap3\n      swap2\n      pop\n      pop\n      jump\t// out\n        /* \"#utility.yul\":3714:3936   */\n    tag_17:\n        /* \"#utility.yul\":3807:3811   */\n      0x00\n        /* \"#utility.yul\":3845:3847   */\n      0x20\n        /* \"#utility.yul\":3834:3843   */\n      dup3\n        /* \"#utility.yul\":3830:3848   */\n      add\n        /* \"#utility.yul\":3822:3848   */\n      swap1\n      pop\n        /* \"#utility.yul\":3858:3929   */\n      tag_163\n        /* \"#utility.yul\":3926:3927   */\n      0x00\n        /* \"#utility.yul\":3915:3924   */\n      dup4\n        /* \"#utility.yul\":3911:3928   */\n      add\n        /* \"#utility.yul\":3902:3908   */\n      dup5\n        /* \"#utility.yul\":3858:3929   */\n      tag_144\n      jump\t// in\n    tag_163:\n        /* \"#utility.yul\":3714:3936   */\n      swap3\n      swap2\n      pop\n      pop\n      jump\t// out\n        /* \"#utility.yul\":4023:4163   */\n    tag_137:\n        /* \"#utility.yul\":4098:4102   */\n      0x00\n        /* \"#utility.yul\":4121:4124   */\n      dup2\n        /* \"#utility.yul\":4113:4124   */\n      swap1\n      pop\n        /* \"#utility.yul\":4151:4155   */\n      0x20\n        /* \"#utility.yul\":4146:4149   */\n      dup3\n        /* \"#utility.yul\":4142:4156   */\n      add\n        /* \"#utility.yul\":4134:4156   */\n      swap1\n      pop\n        /* \"#utility.yul\":4023:4163   */\n      swap2\n      swap1\n      pop\n      jump\t// out\n        /* \"#utility.yul\":4169:4291   */\n    tag_133:\n        /* \"#utility.yul\":4244:4250   */\n      0x00\n        /* \"#utility.yul\":4278:4283   */\n      dup2\n        /* \"#utility.yul\":4272:4284   */\n      mload\n        /* \"#utility.yul\":4262:4284   */\n      swap1\n      pop\n        /* \"#utility.yul\":4169:4291   */\n      swap2\n      swap1\n      pop\n      jump\t// out\n        /* \"#utility.yul\":4297:4418   */\n    tag_143:\n        /* \"#utility.yul\":4375:4379   */\n      0x00\n        /* \"#utility.yul\":4407:4411   */\n      0x20\n        /* \"#utility.yul\":4402:4405   */\n      dup3\n        /* \"#utility.yul\":4398:4412   */\n      add\n        /* \"#utility.yul\":4390:4412   */\n      swap1\n      pop\n        /* \"#utility.yul\":4297:4418   */\n      swap2\n      swap1\n      pop\n      jump\t// out\n        /* \"#utility.yul\":4424:4616   */\n    tag_135:\n        /* \"#utility.yul\":4531:4542   */\n      0x00\n        /* \"#utility.yul\":4565:4571   */\n      dup3\n        /* \"#utility.yul\":4560:4563   */\n      dup3\n        /* \"#utility.yul\":4553:4572   */\n      mstore\n        /* \"#utility.yul\":4605:4609   */\n      0x20\n        /* \"#utility.yul\":4600:4603   */\n      dup3\n        /* \"#utility.yul\":4596:4610   */\n      add\n        /* \"#utility.yul\":4581:4610   */\n      swap1\n      pop\n        /* \"#utility.yul\":4424:4616   */\n      swap3\n      swap2\n      pop\n      pop\n      jump\t// out\n        /* \"#utility.yul\":4622:4718   */\n    tag_124:\n        /* \"#utility.yul\":4659:4666   */\n      0x00\n        /* \"#utility.yul\":4688:4712   */\n      tag_171\n        /* \"#utility.yul\":4706:4711   */\n      dup3\n        /* \"#utility.yul\":4688:4712   */\n      tag_172\n      jump\t// in\n    tag_171:\n        /* \"#utility.yul\":4677:4712   */\n      swap1\n      pop\n        /* \"#utility.yul\":4622:4718   */\n      swap2\n      swap1\n      pop\n      jump\t// out\n        /* \"#utility.yul\":4724:4828   */\n    tag_117:\n        /* \"#utility.yul\":4769:4776   */\n      0x00\n        /* \"#utility.yul\":4798:4822   */\n      tag_174\n        /* \"#utility.yul\":4816:4821   */\n      dup3\n        /* \"#utility.yul\":4798:4822   */\n      tag_172\n      jump\t// in\n    tag_174:\n        /* \"#utility.yul\":4787:4822   */\n      swap1\n      pop\n        /* \"#utility.yul\":4724:4828   */\n      swap2\n      swap1\n      pop\n      jump\t// out\n        /* \"#utility.yul\":4834:4960   */\n    tag_172:\n        /* \"#utility.yul\":4871:4878   */\n      0x00\n        /* \"#utility.yul\":4911:4953   */\n      0xffffffffffffffffffffffffffffffffffffffff\n        /* \"#utility.yul\":4904:4909   */\n      dup3\n        /* \"#utility.yul\":4900:4954   */\n      and\n        /* \"#utility.yul\":4889:4954   */\n      swap1\n      pop\n        /* \"#utility.yul\":4834:4960   */\n      swap2\n      swap1\n      pop\n      jump\t// out\n        /* \"#utility.yul\":4966:5043   */\n    tag_147:\n        /* \"#utility.yul\":5003:5010   */\n      0x00\n        /* \"#utility.yul\":5032:5037   */\n      dup2\n        /* \"#utility.yul\":5021:5037   */\n      swap1\n      pop\n        /* \"#utility.yul\":4966:5043   */\n      swap2\n      swap1\n      pop\n      jump\t// out\n        /* \"#utility.yul\":5049:5282   */\n    tag_79:\n        /* \"#utility.yul\":5088:5091   */\n      0x00\n        /* \"#utility.yul\":5111:5135   */\n      tag_178\n        /* \"#utility.yul\":5129:5134   */\n      dup3\n        /* \"#utility.yul\":5111:5135   */\n      tag_147\n      jump\t// in\n    tag_178:\n        /* \"#utility.yul\":5102:5135   */\n      swap2\n      pop\n        /* \"#utility.yul\":5157:5223   */\n      0xffffffffffffffffffffffffffffffffffffffffffffffffffffffffffffffff\n        /* \"#utility.yul\":5150:5155   */\n      dup3\n        /* \"#utility.yul\":5147:5224   */\n      eq\n        /* \"#utility.yul\":5144:5247   */\n      iszero\n      tag_179\n      jumpi\n        /* \"#utility.yul\":5227:5245   */\n      tag_180\n      tag_181\n      jump\t// in\n    tag_180:\n        /* \"#utility.yul\":5144:5247   */\n    tag_179:\n        /* \"#utility.yul\":5274:5275   */\n      0x01\n        /* \"#utility.yul\":5267:5272   */\n      dup3\n        /* \"#utility.yul\":5263:5276   */\n      add\n        /* \"#utility.yul\":5256:5276   */\n      swap1\n      pop\n        /* \"#utility.yul\":5049:5282   */\n      swap2\n      swap1\n      pop\n      jump\t// out\n        /* \"#utility.yul\":5288:5388   */\n    tag_129:\n        /* \"#utility.yul\":5327:5334   */\n      0x00\n        /* \"#utility.yul\":5356:5382   */\n      tag_183\n        /* \"#utility.yul\":5376:5381   */\n      dup3\n        /* \"#utility.yul\":5356:5382   */\n      tag_184\n      jump\t// in\n    tag_183:\n        /* \"#utility.yul\":5345:5382   */\n      swap1\n      pop\n        /* \"#utility.yul\":5288:5388   */\n      swap2\n      swap1\n      pop\n      jump\t// out\n        /* \"#utility.yul\":5394:5488   */\n    tag_184:\n        /* \"#utility.yul\":5433:5440   */\n      0x00\n        /* \"#utility.yul\":5462:5482   */\n      tag_186\n        /* \"#utility.yul\":5476:5481   */\n      dup3\n        /* \"#utility.yul\":5462:5482   */\n      tag_187\n      jump\t// in\n    tag_186:\n        /* \"#utility.yul\":5451:5482   */\n      swap1\n      pop\n        /* \"#utility.yul\":5394:5488   */\n      swap2\n      swap1\n      pop\n      jump\t// out\n        /* \"#utility.yul\":5494:5573   */\n    tag_152:\n        /* \"#utility.yul\":5533:5540   */\n      0x00\n        /* \"#utility.yul\":5562:5567   */\n      dup2\n        /* \"#utility.yul\":5551:5567   */\n      swap1\n      pop\n        /* \"#utility.yul\":5494:5573   */\n      swap2\n      swap1\n      pop\n      jump\t// out\n        /* \"#utility.yul\":5579:5755   */\n    tag_68:\n        /* \"#utility.yul\":5611:5612   */\n      0x00\n        /* \"#utility.yul\":5628:5648   */\n      tag_190\n        /* \"#utility.yul\":5646:5647   */\n      dup3\n        /* \"#utility.yul\":5628:5648   */\n      tag_147\n      jump\t// in\n    tag_190:\n        /* \"#utility.yul\":5623:5648   */\n      swap2\n      pop\n        /* \"#utility.yul\":5662:5682   */\n      tag_191\n        /* \"#utility.yul\":5680:5681   */\n      dup4\n        /* \"#utility.yul\":5662:5682   */\n      tag_147\n      jump\t// in\n    tag_191:\n        /* \"#utility.yul\":5657:5682   */\n      swap3\n      pop\n        /* \"#utility.yul\":5701:5702   */\n      dup3\n        /* \"#utility.yul\":5691:5726   */\n      tag_192\n      jumpi\n        /* \"#utility.yul\":5706:5724   */\n      tag_193\n      tag_194\n      jump\t// in\n    tag_193:\n        /* \"#utility.yul\":5691:5726   */\n    tag_192:\n        /* \"#utility.yul\":5747:5748   */\n      dup3\n        /* \"#utility.yul\":5744:5745   */\n      dup3\n        /* \"#utility.yul\":5740:5749   */\n      mod\n        /* \"#utility.yul\":5735:5749   */\n      swap1\n      pop\n        /* \"#utility.yul\":5579:5755   */\n      swap3\n      swap2\n      pop\n      pop\n      jump\t// out\n        /* \"#utility.yul\":5761:5941   */\n    tag_181:\n        /* \"#utility.yul\":5809:5886   */\n      0x4e487b7100000000000000000000000000000000000000000000000000000000\n        /* \"#utility.yul\":5806:5807   */\n      0x00\n        /* \"#utility.yul\":5799:5887   */\n      mstore\n        /* \"#utility.yul\":5906:5910   */\n      0x11\n        /* \"#utility.yul\":5903:5904   */\n      0x04\n        /* \"#utility.yul\":5896:5911   */\n      mstore\n        /* \"#utility.yul\":5930:5934   */\n      0x24\n        /* \"#utility.yul\":5927:5928   */\n      0x00\n        /* \"#utility.yul\":5920:5935   */\n      revert\n        /* \"#utility.yul\":5947:6127   */\n    tag_194:\n        /* \"#utility.yul\":5995:6072   */\n      0x4e487b7100000000000000000000000000000000000000000000000000000000\n        /* \"#utility.yul\":5992:5993   */\n      0x00\n        /* \"#utility.yul\":5985:6073   */\n      mstore\n        /* \"#utility.yul\":6092:6096   */\n      0x12\n        /* \"#utility.yul\":6089:6090   */\n      0x04\n        /* \"#utility.yul\":6082:6097   */\n      mstore\n        /* \"#utility.yul\":6116:6120   */\n      0x24\n        /* \"#utility.yul\":6113:6114   */\n      0x00\n        /* \"#utility.yul\":6106:6121   */\n      revert\n        /* \"#utility.yul\":6133:6313   */\n    tag_71:\n        /* \"#utility.yul\":6181:6258   */\n      0x4e487b7100000000000000000000000000000000000000000000000000000000\n        /* \"#utility.yul\":6178:6179   */\n      0x00\n        /* \"#utility.yul\":6171:6259   */\n      mstore\n        /* \"#utility.yul\":6278:6282   */\n      0x32\n        /* \"#utility.yul\":6275:6276   */\n      0x04\n        /* \"#utility.yul\":6268:6283   */\n      mstore\n        /* \"#utility.yul\":6302:6306   */\n      0x24\n        /* \"#utility.yul\":6299:6300   */\n      0x00\n        /* \"#utility.yul\":6292:6307   */\n      revert\n        /* \"#utility.yul\":6319:6499   */\n    tag_82:\n        /* \"#utility.yul\":6367:6444   */\n      0x4e487b7100000000000000000000000000000000000000000000000000000000\n        /* \"#utility.yul\":6364:6365   */\n      0x00\n        /* \"#utility.yul\":6357:6445   */\n      mstore\n        /* \"#utility.yul\":6464:6468   */\n      0x41\n        /* \"#utility.yul\":6461:6462   */\n      0x04\n        /* \"#utility.yul\":6454:6469   */\n      mstore\n        /* \"#utility.yul\":6488:6492   */\n      0x24\n        /* \"#utility.yul\":6485:6486   */\n      0x00\n        /* \"#utility.yul\":6478:6493   */\n      revert\n        /* \"#utility.yul\":6628:6745   */\n    tag_109:\n        /* \"#utility.yul\":6737:6738   */\n      0x00\n        /* \"#utility.yul\":6734:6735   */\n      dup1\n        /* \"#utility.yul\":6727:6739   */\n      revert\n        /* \"#utility.yul\":6751:6845   */\n    tag_187:\n        /* \"#utility.yul\":6784:6792   */\n      0x00\n        /* \"#utility.yul\":6832:6837   */\n      dup2\n        /* \"#utility.yul\":6828:6830   */\n      0x60\n        /* \"#utility.yul\":6824:6838   */\n      shl\n        /* \"#utility.yul\":6803:6838   */\n      swap1\n      pop\n        /* \"#utility.yul\":6751:6845   */\n      swap2\n      swap1\n      pop\n      jump\t// out\n        /* \"#utility.yul\":6851:6973   */\n    tag_105:\n        /* \"#utility.yul\":6924:6948   */\n      tag_204\n        /* \"#utility.yul\":6942:6947   */\n      dup2\n        /* \"#utility.yul\":6924:6948   */\n      tag_147\n      jump\t// in\n    tag_204:\n        /* \"#utility.yul\":6917:6922   */\n      dup2\n        /* \"#utility.yul\":6914:6949   */\n      eq\n        /* \"#utility.yul\":6904:6967   */\n      tag_205\n      jumpi\n        /* \"#utility.yul\":6963:6964   */\n      0x00\n        /* \"#utility.yul\":6960:6961   */\n      dup1\n        /* \"#utility.yul\":6953:6965   */\n      revert\n        /* \"#utility.yul\":6904:6967   */\n    tag_205:\n        /* \"#utility.yul\":6851:6973   */\n      pop\n      jump\t// out\n\n    auxdata: 0xa2646970667358221220cc72478d52c127e227ce66e4c7ed0ff32de2a514e8ca98caeffc2c36e363182e64736f6c63430008070033\n}\n",
				"bytecode": {
					"linkReferences": {},
					"object": "608060405234801561001057600080fd5b50336000806101000a81548173ffffffffffffffffffffffffffffffffffffffff021916908373ffffffffffffffffffffffffffffffffffffffff1602179055506001600281905550610b38806100686000396000f3fe6080604052600436106100905760003560e01c80638b5b9ccc116100595780638b5b9ccc1461017c5780638da5cb5b146101a7578063e580f47b146101d2578063e97dcb62146101fd578063f71d96cb1461020757610090565b806243ea261461009557806312065fe0146100c0578063281d098d146100eb5780635d495aea146101285780636d6fe2301461013f575b600080fd5b3480156100a157600080fd5b506100aa610244565b6040516100b791906108d3565b60405180910390f35b3480156100cc57600080fd5b506100d5610298565b6040516100e291906108d3565b60405180910390f35b3480156100f757600080fd5b50610112600480360381019061010d9190610742565b6102a0565b60405161011f9190610896565b60405180910390f35b34801561013457600080fd5b5061013d6102dd565b005b34801561014b57600080fd5b5061016660048036038101906101619190610742565b6104e3565b6040516101739190610896565b60405180910390f35b34801561018857600080fd5b50610191610516565b60405161019e91906108b1565b60405180910390f35b3480156101b357600080fd5b506101bc6105a4565b6040516101c9919061087b565b60405180910390f35b3480156101de57600080fd5b506101e76105c8565b6040516101f491906108d3565b60405180910390f35b6102056105ce565b005b34801561021357600080fd5b5061022e60048036038101906102299190610742565b610647565b60405161023b9190610896565b60405180910390f35b60008060009054906101000a900473ffffffffffffffffffffffffffffffffffffffff164260405160200161027a92919061084f565b6040516020818303038152906040528051906020012060001c905090565b600047905090565b60006003600083815260200190815260200160002060009054906101000a900473ffffffffffffffffffffffffffffffffffffffff169050919050565b60008054906101000a900473ffffffffffffffffffffffffffffffffffffffff1673ffffffffffffffffffffffffffffffffffffffff163373ffffffffffffffffffffffffffffffffffffffff161461033557600080fd5b6000600180549050610345610244565b61034f91906109ec565b90506001818154811061036557610364610a7b565b5b9060005260206000200160009054906101000a900473ffffffffffffffffffffffffffffffffffffffff1673ffffffffffffffffffffffffffffffffffffffff166108fc479081150290604051600060405180830381858888f193505050501580156103d5573d6000803e3d6000fd5b50600181815481106103ea576103e9610a7b565b5b9060005260206000200160009054906101000a900473ffffffffffffffffffffffffffffffffffffffff1660036000600254815260200190815260200160002060006101000a81548173ffffffffffffffffffffffffffffffffffffffff021916908373ffffffffffffffffffffffffffffffffffffffff1602179055506002600081548092919061047b90610975565b9190505550600067ffffffffffffffff81111561049b5761049a610aaa565b5b6040519080825280602002602001820160405280156104c95781602001602082028036833780820191505090505b50600190805190602001906104df929190610686565b5050565b60036020528060005260406000206000915054906101000a900473ffffffffffffffffffffffffffffffffffffffff1681565b6060600180548060200260200160405190810160405280929190818152602001828054801561059a57602002820191906000526020600020905b8160009054906101000a900473ffffffffffffffffffffffffffffffffffffffff1673ffffffffffffffffffffffffffffffffffffffff1681526020019060010190808311610550575b5050505050905090565b60008054906101000a900473ffffffffffffffffffffffffffffffffffffffff1681565b60025481565b67016345785d8a000034116105e257600080fd5b6001339080600181540180825580915050600190039060005260206000200160009091909190916101000a81548173ffffffffffffffffffffffffffffffffffffffff021916908373ffffffffffffffffffffffffffffffffffffffff160217905550565b6001818154811061065757600080fd5b906000526020600020016000915054906101000a900473ffffffffffffffffffffffffffffffffffffffff1681565b8280548282559060005260206000209081019282156106ff579160200282015b828111156106fe5782518260006101000a81548173ffffffffffffffffffffffffffffffffffffffff021916908373ffffffffffffffffffffffffffffffffffffffff160217905550916020019190600101906106a6565b5b50905061070c9190610710565b5090565b5b80821115610729576000816000905550600101610711565b5090565b60008135905061073c81610aeb565b92915050565b60006020828403121561075857610757610ad9565b5b60006107668482850161072d565b91505092915050565b600061077b8383610787565b60208301905092915050565b61079081610939565b82525050565b61079f81610939565b82525050565b6107ae81610927565b82525050565b6107c56107c082610927565b6109be565b82525050565b60006107d6826108fe565b6107e08185610916565b93506107eb836108ee565b8060005b8381101561081c578151610803888261076f565b975061080e83610909565b9250506001810190506107ef565b5085935050505092915050565b6108328161096b565b82525050565b6108496108448261096b565b6109e2565b82525050565b600061085b82856107b4565b60148201915061086b8284610838565b6020820191508190509392505050565b600060208201905061089060008301846107a5565b92915050565b60006020820190506108ab6000830184610796565b92915050565b600060208201905081810360008301526108cb81846107cb565b905092915050565b60006020820190506108e86000830184610829565b92915050565b6000819050602082019050919050565b600081519050919050565b6000602082019050919050565b600082825260208201905092915050565b60006109328261094b565b9050919050565b60006109448261094b565b9050919050565b600073ffffffffffffffffffffffffffffffffffffffff82169050919050565b6000819050919050565b60006109808261096b565b91507fffffffffffffffffffffffffffffffffffffffffffffffffffffffffffffffff8214156109b3576109b2610a1d565b5b600182019050919050565b60006109c9826109d0565b9050919050565b60006109db82610ade565b9050919050565b6000819050919050565b60006109f78261096b565b9150610a028361096b565b925082610a1257610a11610a4c565b5b828206905092915050565b7f4e487b7100000000000000000000000000000000000000000000000000000000600052601160045260246000fd5b7f4e487b7100000000000000000000000000000000000000000000000000000000600052601260045260246000fd5b7f4e487b7100000000000000000000000000000000000000000000000000000000600052603260045260246000fd5b7f4e487b7100000000000000000000000000000000000000000000000000000000600052604160045260246000fd5b600080fd5b60008160601b9050919050565b610af48161096b565b8114610aff57600080fd5b5056fea2646970667358221220cc72478d52c127e227ce66e4c7ed0ff32de2a514e8ca98caeffc2c36e363182e64736f6c63430008070033",
					"opcodes": "PUSH1 0x80 PUSH1 0x40 MSTORE CALLVALUE DUP1 ISZERO PUSH2 0x10 JUMPI PUSH1 0x0 DUP1 REVERT JUMPDEST POP CALLER PUSH1 0x0 DUP1 PUSH2 0x100 EXP DUP2 SLOAD DUP2 PUSH20 0xFFFFFFFFFFFFFFFFFFFFFFFFFFFFFFFFFFFFFFFF MUL NOT AND SWAP1 DUP4 PUSH20 0xFFFFFFFFFFFFFFFFFFFFFFFFFFFFFFFFFFFFFFFF AND MUL OR SWAP1 SSTORE POP PUSH1 0x1 PUSH1 0x2 DUP2 SWAP1 SSTORE POP PUSH2 0xB38 DUP1 PUSH2 0x68 PUSH1 0x0 CODECOPY PUSH1 0x0 RETURN INVALID PUSH1 0x80 PUSH1 0x40 MSTORE PUSH1 0x4 CALLDATASIZE LT PUSH2 0x90 JUMPI PUSH1 0x0 CALLDATALOAD PUSH1 0xE0 SHR DUP1 PUSH4 0x8B5B9CCC GT PUSH2 0x59 JUMPI DUP1 PUSH4 0x8B5B9CCC EQ PUSH2 0x17C JUMPI DUP1 PUSH4 0x8DA5CB5B EQ PUSH2 0x1A7 JUMPI DUP1 PUSH4 0xE580F47B EQ PUSH2 0x1D2 JUMPI DUP1 PUSH4 0xE97DCB62 EQ PUSH2 0x1FD JUMPI DUP1 PUSH4 0xF71D96CB EQ PUSH2 0x207 JUMPI PUSH2 0x90 JUMP JUMPDEST DUP1 PUSH3 0x43EA26 EQ PUSH2 0x95 JUMPI DUP1 PUSH4 0x12065FE0 EQ PUSH2 0xC0 JUMPI DUP1 PUSH4 0x281D098D EQ PUSH2 0xEB JUMPI DUP1 PUSH4 0x5D495AEA EQ PUSH2 0x128 JUMPI DUP1 PUSH4 0x6D6FE230 EQ PUSH2 0x13F JUMPI JUMPDEST PUSH1 0x0 DUP1 REVERT JUMPDEST CALLVALUE DUP1 ISZERO PUSH2 0xA1 JUMPI PUSH1 0x0 DUP1 REVERT JUMPDEST POP PUSH2 0xAA PUSH2 0x244 JUMP JUMPDEST PUSH1 0x40 MLOAD PUSH2 0xB7 SWAP2 SWAP1 PUSH2 0x8D3 JUMP JUMPDEST PUSH1 0x40 MLOAD DUP1 SWAP2 SUB SWAP1 RETURN JUMPDEST CALLVALUE DUP1 ISZERO PUSH2 0xCC JUMPI PUSH1 0x0 DUP1 REVERT JUMPDEST POP PUSH2 0xD5 PUSH2 0x298 JUMP JUMPDEST PUSH1 0x40 MLOAD PUSH2 0xE2 SWAP2 SWAP1 PUSH2 0x8D3 JUMP JUMPDEST PUSH1 0x40 MLOAD DUP1 SWAP2 SUB SWAP1 RETURN JUMPDEST CALLVALUE DUP1 ISZERO PUSH2 0xF7 JUMPI PUSH1 0x0 DUP1 REVERT JUMPDEST POP PUSH2 0x112 PUSH1 0x4 DUP1 CALLDATASIZE SUB DUP2 ADD SWAP1 PUSH2 0x10D SWAP2 SWAP1 PUSH2 0x742 JUMP JUMPDEST PUSH2 0x2A0 JUMP JUMPDEST PUSH1 0x40 MLOAD PUSH2 0x11F SWAP2 SWAP1 PUSH2 0x896 JUMP JUMPDEST PUSH1 0x40 MLOAD DUP1 SWAP2 SUB SWAP1 RETURN JUMPDEST CALLVALUE DUP1 ISZERO PUSH2 0x134 JUMPI PUSH1 0x0 DUP1 REVERT JUMPDEST POP PUSH2 0x13D PUSH2 0x2DD JUMP JUMPDEST STOP JUMPDEST CALLVALUE DUP1 ISZERO PUSH2 0x14B JUMPI PUSH1 0x0 DUP1 REVERT JUMPDEST POP PUSH2 0x166 PUSH1 0x4 DUP1 CALLDATASIZE SUB DUP2 ADD SWAP1 PUSH2 0x161 SWAP2 SWAP1 PUSH2 0x742 JUMP JUMPDEST PUSH2 0x4E3 JUMP JUMPDEST PUSH1 0x40 MLOAD PUSH2 0x173 SWAP2 SWAP1 PUSH2 0x896 JUMP JUMPDEST PUSH1 0x40 MLOAD DUP1 SWAP2 SUB SWAP1 RETURN JUMPDEST CALLVALUE DUP1 ISZERO PUSH2 0x188 JUMPI PUSH1 0x0 DUP1 REVERT JUMPDEST POP PUSH2 0x191 PUSH2 0x516 JUMP JUMPDEST PUSH1 0x40 MLOAD PUSH2 0x19E SWAP2 SWAP1 PUSH2 0x8B1 JUMP JUMPDEST PUSH1 0x40 MLOAD DUP1 SWAP2 SUB SWAP1 RETURN JUMPDEST CALLVALUE DUP1 ISZERO PUSH2 0x1B3 JUMPI PUSH1 0x0 DUP1 REVERT JUMPDEST POP PUSH2 0x1BC PUSH2 0x5A4 JUMP JUMPDEST PUSH1 0x40 MLOAD PUSH2 0x1C9 SWAP2 SWAP1 PUSH2 0x87B JUMP JUMPDEST PUSH1 0x40 MLOAD DUP1 SWAP2 SUB SWAP1 RETURN JUMPDEST CALLVALUE DUP1 ISZERO PUSH2 0x1DE JUMPI PUSH1 0x0 DUP1 REVERT JUMPDEST POP PUSH2 0x1E7 PUSH2 0x5C8 JUMP JUMPDEST PUSH1 0x40 MLOAD PUSH2 0x1F4 SWAP2 SWAP1 PUSH2 0x8D3 JUMP JUMPDEST PUSH1 0x40 MLOAD DUP1 SWAP2 SUB SWAP1 RETURN JUMPDEST PUSH2 0x205 PUSH2 0x5CE JUMP JUMPDEST STOP JUMPDEST CALLVALUE DUP1 ISZERO PUSH2 0x213 JUMPI PUSH1 0x0 DUP1 REVERT JUMPDEST POP PUSH2 0x22E PUSH1 0x4 DUP1 CALLDATASIZE SUB DUP2 ADD SWAP1 PUSH2 0x229 SWAP2 SWAP1 PUSH2 0x742 JUMP JUMPDEST PUSH2 0x647 JUMP JUMPDEST PUSH1 0x40 MLOAD PUSH2 0x23B SWAP2 SWAP1 PUSH2 0x896 JUMP JUMPDEST PUSH1 0x40 MLOAD DUP1 SWAP2 SUB SWAP1 RETURN JUMPDEST PUSH1 0x0 DUP1 PUSH1 0x0 SWAP1 SLOAD SWAP1 PUSH2 0x100 EXP SWAP1 DIV PUSH20 0xFFFFFFFFFFFFFFFFFFFFFFFFFFFFFFFFFFFFFFFF AND TIMESTAMP PUSH1 0x40 MLOAD PUSH1 0x20 ADD PUSH2 0x27A SWAP3 SWAP2 SWAP1 PUSH2 0x84F JUMP JUMPDEST PUSH1 0x40 MLOAD PUSH1 0x20 DUP2 DUP4 SUB SUB DUP2 MSTORE SWAP1 PUSH1 0x40 MSTORE DUP1 MLOAD SWAP1 PUSH1 0x20 ADD KECCAK256 PUSH1 0x0 SHR SWAP1 POP SWAP1 JUMP JUMPDEST PUSH1 0x0 SELFBALANCE SWAP1 POP SWAP1 JUMP JUMPDEST PUSH1 0x0 PUSH1 0x3 PUSH1 0x0 DUP4 DUP2 MSTORE PUSH1 0x20 ADD SWAP1 DUP2 MSTORE PUSH1 0x20 ADD PUSH1 0x0 KECCAK256 PUSH1 0x0 SWAP1 SLOAD SWAP1 PUSH2 0x100 EXP SWAP1 DIV PUSH20 0xFFFFFFFFFFFFFFFFFFFFFFFFFFFFFFFFFFFFFFFF AND SWAP1 POP SWAP2 SWAP1 POP JUMP JUMPDEST PUSH1 0x0 DUP1 SLOAD SWAP1 PUSH2 0x100 EXP SWAP1 DIV PUSH20 0xFFFFFFFFFFFFFFFFFFFFFFFFFFFFFFFFFFFFFFFF AND PUSH20 0xFFFFFFFFFFFFFFFFFFFFFFFFFFFFFFFFFFFFFFFF AND CALLER PUSH20 0xFFFFFFFFFFFFFFFFFFFFFFFFFFFFFFFFFFFFFFFF AND EQ PUSH2 0x335 JUMPI PUSH1 0x0 DUP1 REVERT JUMPDEST PUSH1 0x0 PUSH1 0x1 DUP1 SLOAD SWAP1 POP PUSH2 0x345 PUSH2 0x244 JUMP JUMPDEST PUSH2 0x34F SWAP2 SWAP1 PUSH2 0x9EC JUMP JUMPDEST SWAP1 POP PUSH1 0x1 DUP2 DUP2 SLOAD DUP2 LT PUSH2 0x365 JUMPI PUSH2 0x364 PUSH2 0xA7B JUMP JUMPDEST JUMPDEST SWAP1 PUSH1 0x0 MSTORE PUSH1 0x20 PUSH1 0x0 KECCAK256 ADD PUSH1 0x0 SWAP1 SLOAD SWAP1 PUSH2 0x100 EXP SWAP1 DIV PUSH20 0xFFFFFFFFFFFFFFFFFFFFFFFFFFFFFFFFFFFFFFFF AND PUSH20 0xFFFFFFFFFFFFFFFFFFFFFFFFFFFFFFFFFFFFFFFF AND PUSH2 0x8FC SELFBALANCE SWAP1 DUP2 ISZERO MUL SWAP1 PUSH1 0x40 MLOAD PUSH1 0x0 PUSH1 0x40 MLOAD DUP1 DUP4 SUB DUP2 DUP6 DUP9 DUP9 CALL SWAP4 POP POP POP POP ISZERO DUP1 ISZERO PUSH2 0x3D5 JUMPI RETURNDATASIZE PUSH1 0x0 DUP1 RETURNDATACOPY RETURNDATASIZE PUSH1 0x0 REVERT JUMPDEST POP PUSH1 0x1 DUP2 DUP2 SLOAD DUP2 LT PUSH2 0x3EA JUMPI PUSH2 0x3E9 PUSH2 0xA7B JUMP JUMPDEST JUMPDEST SWAP1 PUSH1 0x0 MSTORE PUSH1 0x20 PUSH1 0x0 KECCAK256 ADD PUSH1 0x0 SWAP1 SLOAD SWAP1 PUSH2 0x100 EXP SWAP1 DIV PUSH20 0xFFFFFFFFFFFFFFFFFFFFFFFFFFFFFFFFFFFFFFFF AND PUSH1 0x3 PUSH1 0x0 PUSH1 0x2 SLOAD DUP2 MSTORE PUSH1 0x20 ADD SWAP1 DUP2 MSTORE PUSH1 0x20 ADD PUSH1 0x0 KECCAK256 PUSH1 0x0 PUSH2 0x100 EXP DUP2 SLOAD DUP2 PUSH20 0xFFFFFFFFFFFFFFFFFFFFFFFFFFFFFFFFFFFFFFFF MUL NOT AND SWAP1 DUP4 PUSH20 0xFFFFFFFFFFFFFFFFFFFFFFFFFFFFFFFFFFFFFFFF AND MUL OR SWAP1 SSTORE POP PUSH1 0x2 PUSH1 0x0 DUP2 SLOAD DUP1 SWAP3 SWAP2 SWAP1 PUSH2 0x47B SWAP1 PUSH2 0x975 JUMP JUMPDEST SWAP2 SWAP1 POP SSTORE POP PUSH1 0x0 PUSH8 0xFFFFFFFFFFFFFFFF DUP2 GT ISZERO PUSH2 0x49B JUMPI PUSH2 0x49A PUSH2 0xAAA JUMP JUMPDEST JUMPDEST PUSH1 0x40 MLOAD SWAP1 DUP1 DUP3 MSTORE DUP1 PUSH1 0x20 MUL PUSH1 0x20 ADD DUP3 ADD PUSH1 0x40 MSTORE DUP1 ISZERO PUSH2 0x4C9 JUMPI DUP2 PUSH1 0x20 ADD PUSH1 0x20 DUP3 MUL DUP1 CALLDATASIZE DUP4 CALLDATACOPY DUP1 DUP3 ADD SWAP2 POP POP SWAP1 POP JUMPDEST POP PUSH1 0x1 SWAP1 DUP1 MLOAD SWAP1 PUSH1 0x20 ADD SWAP1 PUSH2 0x4DF SWAP3 SWAP2 SWAP1 PUSH2 0x686 JUMP JUMPDEST POP POP JUMP JUMPDEST PUSH1 0x3 PUSH1 0x20 MSTORE DUP1 PUSH1 0x0 MSTORE PUSH1 0x40 PUSH1 0x0 KECCAK256 PUSH1 0x0 SWAP2 POP SLOAD SWAP1 PUSH2 0x100 EXP SWAP1 DIV PUSH20 0xFFFFFFFFFFFFFFFFFFFFFFFFFFFFFFFFFFFFFFFF AND DUP2 JUMP JUMPDEST PUSH1 0x60 PUSH1 0x1 DUP1 SLOAD DUP1 PUSH1 0x20 MUL PUSH1 0x20 ADD PUSH1 0x40 MLOAD SWAP1 DUP2 ADD PUSH1 0x40 MSTORE DUP1 SWAP3 SWAP2 SWAP1 DUP2 DUP2 MSTORE PUSH1 0x20 ADD DUP3 DUP1 SLOAD DUP1 ISZERO PUSH2 0x59A JUMPI PUSH1 0x20 MUL DUP3 ADD SWAP2 SWAP1 PUSH1 0x0 MSTORE PUSH1 0x20 PUSH1 0x0 KECCAK256 SWAP1 JUMPDEST DUP2 PUSH1 0x0 SWAP1 SLOAD SWAP1 PUSH2 0x100 EXP SWAP1 DIV PUSH20 0xFFFFFFFFFFFFFFFFFFFFFFFFFFFFFFFFFFFFFFFF AND PUSH20 0xFFFFFFFFFFFFFFFFFFFFFFFFFFFFFFFFFFFFFFFF AND DUP2 MSTORE PUSH1 0x20 ADD SWAP1 PUSH1 0x1 ADD SWAP1 DUP1 DUP4 GT PUSH2 0x550 JUMPI JUMPDEST POP POP POP POP POP SWAP1 POP SWAP1 JUMP JUMPDEST PUSH1 0x0 DUP1 SLOAD SWAP1 PUSH2 0x100 EXP SWAP1 DIV PUSH20 0xFFFFFFFFFFFFFFFFFFFFFFFFFFFFFFFFFFFFFFFF AND DUP2 JUMP JUMPDEST PUSH1 0x2 SLOAD DUP2 JUMP JUMPDEST PUSH8 0x16345785D8A0000 CALLVALUE GT PUSH2 0x5E2 JUMPI PUSH1 0x0 DUP1 REVERT JUMPDEST PUSH1 0x1 CALLER SWAP1 DUP1 PUSH1 0x1 DUP2 SLOAD ADD DUP1 DUP3 SSTORE DUP1 SWAP2 POP POP PUSH1 0x1 SWAP1 SUB SWAP1 PUSH1 0x0 MSTORE PUSH1 0x20 PUSH1 0x0 KECCAK256 ADD PUSH1 0x0 SWAP1 SWAP2 SWAP1 SWAP2 SWAP1 SWAP2 PUSH2 0x100 EXP DUP2 SLOAD DUP2 PUSH20 0xFFFFFFFFFFFFFFFFFFFFFFFFFFFFFFFFFFFFFFFF MUL NOT AND SWAP1 DUP4 PUSH20 0xFFFFFFFFFFFFFFFFFFFFFFFFFFFFFFFFFFFFFFFF AND MUL OR SWAP1 SSTORE POP JUMP JUMPDEST PUSH1 0x1 DUP2 DUP2 SLOAD DUP2 LT PUSH2 0x657 JUMPI PUSH1 0x0 DUP1 REVERT JUMPDEST SWAP1 PUSH1 0x0 MSTORE PUSH1 0x20 PUSH1 0x0 KECCAK256 ADD PUSH1 0x0 SWAP2 POP SLOAD SWAP1 PUSH2 0x100 EXP SWAP1 DIV PUSH20 0xFFFFFFFFFFFFFFFFFFFFFFFFFFFFFFFFFFFFFFFF AND DUP2 JUMP JUMPDEST DUP3 DUP1 SLOAD DUP3 DUP3 SSTORE SWAP1 PUSH1 0x0 MSTORE PUSH1 0x20 PUSH1 0x0 KECCAK256 SWAP1 DUP2 ADD SWAP3 DUP3 ISZERO PUSH2 0x6FF JUMPI SWAP2 PUSH1 0x20 MUL DUP3 ADD JUMPDEST DUP3 DUP2 GT ISZERO PUSH2 0x6FE JUMPI DUP3 MLOAD DUP3 PUSH1 0x0 PUSH2 0x100 EXP DUP2 SLOAD DUP2 PUSH20 0xFFFFFFFFFFFFFFFFFFFFFFFFFFFFFFFFFFFFFFFF MUL NOT AND SWAP1 DUP4 PUSH20 0xFFFFFFFFFFFFFFFFFFFFFFFFFFFFFFFFFFFFFFFF AND MUL OR SWAP1 SSTORE POP SWAP2 PUSH1 0x20 ADD SWAP2 SWAP1 PUSH1 0x1 ADD SWAP1 PUSH2 0x6A6 JUMP JUMPDEST JUMPDEST POP SWAP1 POP PUSH2 0x70C SWAP2 SWAP1 PUSH2 0x710 JUMP JUMPDEST POP SWAP1 JUMP JUMPDEST JUMPDEST DUP1 DUP3 GT ISZERO PUSH2 0x729 JUMPI PUSH1 0x0 DUP2 PUSH1 0x0 SWAP1 SSTORE POP PUSH1 0x1 ADD PUSH2 0x711 JUMP JUMPDEST POP SWAP1 JUMP JUMPDEST PUSH1 0x0 DUP2 CALLDATALOAD SWAP1 POP PUSH2 0x73C DUP2 PUSH2 0xAEB JUMP JUMPDEST SWAP3 SWAP2 POP POP JUMP JUMPDEST PUSH1 0x0 PUSH1 0x20 DUP3 DUP5 SUB SLT ISZERO PUSH2 0x758 JUMPI PUSH2 0x757 PUSH2 0xAD9 JUMP JUMPDEST JUMPDEST PUSH1 0x0 PUSH2 0x766 DUP5 DUP3 DUP6 ADD PUSH2 0x72D JUMP JUMPDEST SWAP2 POP POP SWAP3 SWAP2 POP POP JUMP JUMPDEST PUSH1 0x0 PUSH2 0x77B DUP4 DUP4 PUSH2 0x787 JUMP JUMPDEST PUSH1 0x20 DUP4 ADD SWAP1 POP SWAP3 SWAP2 POP POP JUMP JUMPDEST PUSH2 0x790 DUP2 PUSH2 0x939 JUMP JUMPDEST DUP3 MSTORE POP POP JUMP JUMPDEST PUSH2 0x79F DUP2 PUSH2 0x939 JUMP JUMPDEST DUP3 MSTORE POP POP JUMP JUMPDEST PUSH2 0x7AE DUP2 PUSH2 0x927 JUMP JUMPDEST DUP3 MSTORE POP POP JUMP JUMPDEST PUSH2 0x7C5 PUSH2 0x7C0 DUP3 PUSH2 0x927 JUMP JUMPDEST PUSH2 0x9BE JUMP JUMPDEST DUP3 MSTORE POP POP JUMP JUMPDEST PUSH1 0x0 PUSH2 0x7D6 DUP3 PUSH2 0x8FE JUMP JUMPDEST PUSH2 0x7E0 DUP2 DUP6 PUSH2 0x916 JUMP JUMPDEST SWAP4 POP PUSH2 0x7EB DUP4 PUSH2 0x8EE JUMP JUMPDEST DUP1 PUSH1 0x0 JUMPDEST DUP4 DUP2 LT ISZERO PUSH2 0x81C JUMPI DUP2 MLOAD PUSH2 0x803 DUP9 DUP3 PUSH2 0x76F JUMP JUMPDEST SWAP8 POP PUSH2 0x80E DUP4 PUSH2 0x909 JUMP JUMPDEST SWAP3 POP POP PUSH1 0x1 DUP2 ADD SWAP1 POP PUSH2 0x7EF JUMP JUMPDEST POP DUP6 SWAP4 POP POP POP POP SWAP3 SWAP2 POP POP JUMP JUMPDEST PUSH2 0x832 DUP2 PUSH2 0x96B JUMP JUMPDEST DUP3 MSTORE POP POP JUMP JUMPDEST PUSH2 0x849 PUSH2 0x844 DUP3 PUSH2 0x96B JUMP JUMPDEST PUSH2 0x9E2 JUMP JUMPDEST DUP3 MSTORE POP POP JUMP JUMPDEST PUSH1 0x0 PUSH2 0x85B DUP3 DUP6 PUSH2 0x7B4 JUMP JUMPDEST PUSH1 0x14 DUP3 ADD SWAP2 POP PUSH2 0x86B DUP3 DUP5 PUSH2 0x838 JUMP JUMPDEST PUSH1 0x20 DUP3 ADD SWAP2 POP DUP2 SWAP1 POP SWAP4 SWAP3 POP POP POP JUMP JUMPDEST PUSH1 0x0 PUSH1 0x20 DUP3 ADD SWAP1 POP PUSH2 0x890 PUSH1 0x0 DUP4 ADD DUP5 PUSH2 0x7A5 JUMP JUMPDEST SWAP3 SWAP2 POP POP JUMP JUMPDEST PUSH1 0x0 PUSH1 0x20 DUP3 ADD SWAP1 POP PUSH2 0x8AB PUSH1 0x0 DUP4 ADD DUP5 PUSH2 0x796 JUMP JUMPDEST SWAP3 SWAP2 POP POP JUMP JUMPDEST PUSH1 0x0 PUSH1 0x20 DUP3 ADD SWAP1 POP DUP2 DUP2 SUB PUSH1 0x0 DUP4 ADD MSTORE PUSH2 0x8CB DUP2 DUP5 PUSH2 0x7CB JUMP JUMPDEST SWAP1 POP SWAP3 SWAP2 POP POP JUMP JUMPDEST PUSH1 0x0 PUSH1 0x20 DUP3 ADD SWAP1 POP PUSH2 0x8E8 PUSH1 0x0 DUP4 ADD DUP5 PUSH2 0x829 JUMP JUMPDEST SWAP3 SWAP2 POP POP JUMP JUMPDEST PUSH1 0x0 DUP2 SWAP1 POP PUSH1 0x20 DUP3 ADD SWAP1 POP SWAP2 SWAP1 POP JUMP JUMPDEST PUSH1 0x0 DUP2 MLOAD SWAP1 POP SWAP2 SWAP1 POP JUMP JUMPDEST PUSH1 0x0 PUSH1 0x20 DUP3 ADD SWAP1 POP SWAP2 SWAP1 POP JUMP JUMPDEST PUSH1 0x0 DUP3 DUP3 MSTORE PUSH1 0x20 DUP3 ADD SWAP1 POP SWAP3 SWAP2 POP POP JUMP JUMPDEST PUSH1 0x0 PUSH2 0x932 DUP3 PUSH2 0x94B JUMP JUMPDEST SWAP1 POP SWAP2 SWAP1 POP JUMP JUMPDEST PUSH1 0x0 PUSH2 0x944 DUP3 PUSH2 0x94B JUMP JUMPDEST SWAP1 POP SWAP2 SWAP1 POP JUMP JUMPDEST PUSH1 0x0 PUSH20 0xFFFFFFFFFFFFFFFFFFFFFFFFFFFFFFFFFFFFFFFF DUP3 AND SWAP1 POP SWAP2 SWAP1 POP JUMP JUMPDEST PUSH1 0x0 DUP2 SWAP1 POP SWAP2 SWAP1 POP JUMP JUMPDEST PUSH1 0x0 PUSH2 0x980 DUP3 PUSH2 0x96B JUMP JUMPDEST SWAP2 POP PUSH32 0xFFFFFFFFFFFFFFFFFFFFFFFFFFFFFFFFFFFFFFFFFFFFFFFFFFFFFFFFFFFFFFFF DUP3 EQ ISZERO PUSH2 0x9B3 JUMPI PUSH2 0x9B2 PUSH2 0xA1D JUMP JUMPDEST JUMPDEST PUSH1 0x1 DUP3 ADD SWAP1 POP SWAP2 SWAP1 POP JUMP JUMPDEST PUSH1 0x0 PUSH2 0x9C9 DUP3 PUSH2 0x9D0 JUMP JUMPDEST SWAP1 POP SWAP2 SWAP1 POP JUMP JUMPDEST PUSH1 0x0 PUSH2 0x9DB DUP3 PUSH2 0xADE JUMP JUMPDEST SWAP1 POP SWAP2 SWAP1 POP JUMP JUMPDEST PUSH1 0x0 DUP2 SWAP1 POP SWAP2 SWAP1 POP JUMP JUMPDEST PUSH1 0x0 PUSH2 0x9F7 DUP3 PUSH2 0x96B JUMP JUMPDEST SWAP2 POP PUSH2 0xA02 DUP4 PUSH2 0x96B JUMP JUMPDEST SWAP3 POP DUP3 PUSH2 0xA12 JUMPI PUSH2 0xA11 PUSH2 0xA4C JUMP JUMPDEST JUMPDEST DUP3 DUP3 MOD SWAP1 POP SWAP3 SWAP2 POP POP JUMP JUMPDEST PUSH32 0x4E487B7100000000000000000000000000000000000000000000000000000000 PUSH1 0x0 MSTORE PUSH1 0x11 PUSH1 0x4 MSTORE PUSH1 0x24 PUSH1 0x0 REVERT JUMPDEST PUSH32 0x4E487B7100000000000000000000000000000000000000000000000000000000 PUSH1 0x0 MSTORE PUSH1 0x12 PUSH1 0x4 MSTORE PUSH1 0x24 PUSH1 0x0 REVERT JUMPDEST PUSH32 0x4E487B7100000000000000000000000000000000000000000000000000000000 PUSH1 0x0 MSTORE PUSH1 0x32 PUSH1 0x4 MSTORE PUSH1 0x24 PUSH1 0x0 REVERT JUMPDEST PUSH32 0x4E487B7100000000000000000000000000000000000000000000000000000000 PUSH1 0x0 MSTORE PUSH1 0x41 PUSH1 0x4 MSTORE PUSH1 0x24 PUSH1 0x0 REVERT JUMPDEST PUSH1 0x0 DUP1 REVERT JUMPDEST PUSH1 0x0 DUP2 PUSH1 0x60 SHL SWAP1 POP SWAP2 SWAP1 POP JUMP JUMPDEST PUSH2 0xAF4 DUP2 PUSH2 0x96B JUMP JUMPDEST DUP2 EQ PUSH2 0xAFF JUMPI PUSH1 0x0 DUP1 REVERT JUMPDEST POP JUMP INVALID LOG2 PUSH5 0x6970667358 0x22 SLT KECCAK256 0xCC PUSH19 0x478D52C127E227CE66E4C7ED0FF32DE2A514E8 0xCA SWAP9 0xCA 0xEF 0xFC 0x2C CALLDATASIZE 0xE3 PUSH4 0x182E6473 PUSH16 0x6C634300080700330000000000000000 "
				},
				"gasEstimates": {
					"creation": {
						"codeDepositCost": "574400",
						"executionCost": "46986",
						"totalCost": "621386"
					},
					"external": {
						"_getRandomNumber()": "infinite",
						"enter()": "48786",
						"getBalance()": "362",
						"getPlayers()": "infinite",
						"getWinnerByLottery(uint256)": "2910",
						"lotteryHistory(uint256)": "2928",
						"lotteryId()": "2473",
						"owner()": "2533",
						"pickWinner()": "infinite",
						"players(uint256)": "5044"
					}
				},
				"methodIdentifiers": {
					"_getRandomNumber()": "0043ea26",
					"enter()": "e97dcb62",
					"getBalance()": "12065fe0",
					"getPlayers()": "8b5b9ccc",
					"getWinnerByLottery(uint256)": "281d098d",
					"lotteryHistory(uint256)": "6d6fe230",
					"lotteryId()": "e580f47b",
					"owner()": "8da5cb5b",
					"pickWinner()": "5d495aea",
					"players(uint256)": "f71d96cb"
				}
			},
			"storageLayout": {
				"storage": [
					{
						"astId": 3,
						"contract": "contracts/1_Lottery.sol:Lottery",
						"label": "owner",
						"offset": 0,
						"slot": "0",
						"type": "t_address"
					},
					{
						"astId": 6,
						"contract": "contracts/1_Lottery.sol:Lottery",
						"label": "players",
						"offset": 0,
						"slot": "1",
						"type": "t_array(t_address_payable)dyn_storage"
					},
					{
						"astId": 8,
						"contract": "contracts/1_Lottery.sol:Lottery",
						"label": "lotteryId",
						"offset": 0,
						"slot": "2",
						"type": "t_uint256"
					},
					{
						"astId": 12,
						"contract": "contracts/1_Lottery.sol:Lottery",
						"label": "lotteryHistory",
						"offset": 0,
						"slot": "3",
						"type": "t_mapping(t_uint256,t_address_payable)"
					}
				],
				"types": {
					"t_address": {
						"encoding": "inplace",
						"label": "address",
						"numberOfBytes": "20"
					},
					"t_address_payable": {
						"encoding": "inplace",
						"label": "address payable",
						"numberOfBytes": "20"
					},
					"t_array(t_address_payable)dyn_storage": {
						"base": "t_address_payable",
						"encoding": "dynamic_array",
						"label": "address payable[]",
						"numberOfBytes": "32"
					},
					"t_mapping(t_uint256,t_address_payable)": {
						"encoding": "mapping",
						"key": "t_uint256",
						"label": "mapping(uint256 => address payable)",
						"numberOfBytes": "32",
						"value": "t_address_payable"
					},
					"t_uint256": {
						"encoding": "inplace",
						"label": "uint256",
						"numberOfBytes": "32"
					}
				}
			},
			"userdoc": {
				"kind": "user",
				"methods": {},
				"version": 1
			}
		}
	}
}