{
	"contracts/2_RandomNumber.sol": {
		"Lottery": {
			"abi": [
				{
					"inputs": [],
					"stateMutability": "nonpayable",
					"type": "constructor"
				},
				{
					"inputs": [],
					"name": "enter",
					"outputs": [],
					"stateMutability": "payable",
					"type": "function"
				},
				{
					"inputs": [],
					"name": "getBalance",
					"outputs": [
						{
							"internalType": "uint256",
							"name": "",
							"type": "uint256"
						}
					],
					"stateMutability": "view",
					"type": "function"
				},
				{
					"inputs": [],
					"name": "getPlayers",
					"outputs": [
						{
							"internalType": "address payable[]",
							"name": "",
							"type": "address[]"
						}
					],
					"stateMutability": "view",
					"type": "function"
				},
				{
					"inputs": [],
					"name": "getRandomNumber",
					"outputs": [
						{
							"internalType": "bytes32",
							"name": "requestId",
							"type": "bytes32"
						}
					],
					"stateMutability": "nonpayable",
					"type": "function"
				},
				{
					"inputs": [
						{
							"internalType": "uint256",
							"name": "lottery",
							"type": "uint256"
						}
					],
					"name": "getWinnerByLottery",
					"outputs": [
						{
							"internalType": "address payable",
							"name": "",
							"type": "address"
						}
					],
					"stateMutability": "view",
					"type": "function"
				},
				{
					"inputs": [
						{
							"internalType": "uint256",
							"name": "",
							"type": "uint256"
						}
					],
					"name": "lotteryHistory",
					"outputs": [
						{
							"internalType": "address payable",
							"name": "",
							"type": "address"
						}
					],
					"stateMutability": "view",
					"type": "function"
				},
				{
					"inputs": [],
					"name": "lotteryId",
					"outputs": [
						{
							"internalType": "uint256",
							"name": "",
							"type": "uint256"
						}
					],
					"stateMutability": "view",
					"type": "function"
				},
				{
					"inputs": [],
					"name": "owner",
					"outputs": [
						{
							"internalType": "address",
							"name": "",
							"type": "address"
						}
					],
					"stateMutability": "view",
					"type": "function"
				},
				{
					"inputs": [],
					"name": "payWinner",
					"outputs": [],
					"stateMutability": "nonpayable",
					"type": "function"
				},
				{
					"inputs": [],
					"name": "pickWinner",
					"outputs": [],
					"stateMutability": "nonpayable",
					"type": "function"
				},
				{
					"inputs": [
						{
							"internalType": "uint256",
							"name": "",
							"type": "uint256"
						}
					],
					"name": "players",
					"outputs": [
						{
							"internalType": "address payable",
							"name": "",
							"type": "address"
						}
					],
					"stateMutability": "view",
					"type": "function"
				},
				{
					"inputs": [],
					"name": "randomResult",
					"outputs": [
						{
							"internalType": "uint256",
							"name": "",
							"type": "uint256"
						}
					],
					"stateMutability": "view",
					"type": "function"
				},
				{
					"inputs": [
						{
							"internalType": "bytes32",
							"name": "requestId",
							"type": "bytes32"
						},
						{
							"internalType": "uint256",
							"name": "randomness",
							"type": "uint256"
						}
					],
					"name": "rawFulfillRandomness",
					"outputs": [],
					"stateMutability": "nonpayable",
					"type": "function"
				}
			],
			"devdoc": {
				"kind": "dev",
				"methods": {},
				"version": 1
			},
			"evm": {
				"assembly": "    /* \"contracts/2_RandomNumber.sol\":119:2241  contract Lottery is VRFConsumerBase {... */\n  mstore(0x40, 0xc0)\n    /* \"contracts/2_RandomNumber.sol\":477:889  constructor()... */\n  callvalue\n  dup1\n  iszero\n  tag_1\n  jumpi\n  0x00\n  dup1\n  revert\ntag_1:\n  pop\n    /* \"contracts/2_RandomNumber.sol\":528:570  0xb3dCcb4Cf7a26f6cf6B120Cf5A73875B7BBc655B */\n  0xb3dccb4cf7a26f6cf6b120cf5a73875b7bbc655b\n    /* \"contracts/2_RandomNumber.sol\":603:645  0x01BE23585060835E02B77ef475b0Cc51aA1e0709 */\n  0x01be23585060835e02b77ef475b0cc51aa1e0709\n    /* \"@chainlink/contracts/src/v0.8/VRFConsumerBase.sol\":9323:9338  _vrfCoordinator */\n  dup2\n    /* \"@chainlink/contracts/src/v0.8/VRFConsumerBase.sol\":9306:9338  vrfCoordinator = _vrfCoordinator */\n  0xffffffffffffffffffffffffffffffffffffffff\n  and\n  0xa0\n  dup2\n  0xffffffffffffffffffffffffffffffffffffffff\n  and\n  dup2\n  mstore\n  pop\n  pop\n    /* \"@chainlink/contracts/src/v0.8/VRFConsumerBase.sol\":9370:9375  _link */\n  dup1\n    /* \"@chainlink/contracts/src/v0.8/VRFConsumerBase.sol\":9344:9376  LINK = LinkTokenInterface(_link) */\n  0xffffffffffffffffffffffffffffffffffffffff\n  and\n  0x80\n  dup2\n  0xffffffffffffffffffffffffffffffffffffffff\n  and\n  dup2\n  mstore\n  pop\n  pop\n    /* \"@chainlink/contracts/src/v0.8/VRFConsumerBase.sol\":9248:9381  constructor(address _vrfCoordinator, address _link) {... */\n  pop\n  pop\n    /* \"contracts/2_RandomNumber.sol\":703:769  0x2ed0feb3e7fd2022120aa84fab1945545a9f2ffc9076fd6156fa96eaff4c1311 */\n  0x2ed0feb3e7fd2022120aa84fab1945545a9f2ffc9076fd6156fa96eaff4c1311\n    /* \"contracts/2_RandomNumber.sol\":693:769  keyHash = 0x2ed0feb3e7fd2022120aa84fab1945545a9f2ffc9076fd6156fa96eaff4c1311 */\n  0x00\n  shl\n    /* \"contracts/2_RandomNumber.sol\":693:700  keyHash */\n  0x05\n    /* \"contracts/2_RandomNumber.sol\":693:769  keyHash = 0x2ed0feb3e7fd2022120aa84fab1945545a9f2ffc9076fd6156fa96eaff4c1311 */\n  dup2\n  swap1\n  sstore\n  pop\n    /* \"contracts/2_RandomNumber.sol\":789:803  0.1 * 10 ** 18 */\n  0x016345785d8a0000\n    /* \"contracts/2_RandomNumber.sol\":783:786  fee */\n  0x06\n    /* \"contracts/2_RandomNumber.sol\":783:803  fee = 0.1 * 10 ** 18 */\n  dup2\n  swap1\n  sstore\n  pop\n    /* \"contracts/2_RandomNumber.sol\":841:851  msg.sender */\n  caller\n    /* \"contracts/2_RandomNumber.sol\":833:838  owner */\n  0x01\n  0x00\n    /* \"contracts/2_RandomNumber.sol\":833:851  owner = msg.sender */\n  0x0100\n  exp\n  dup2\n  sload\n  dup2\n  0xffffffffffffffffffffffffffffffffffffffff\n  mul\n  not\n  and\n  swap1\n  dup4\n  0xffffffffffffffffffffffffffffffffffffffff\n  and\n  mul\n  or\n  swap1\n  sstore\n  pop\n    /* \"contracts/2_RandomNumber.sol\":877:878  1 */\n  0x01\n    /* \"contracts/2_RandomNumber.sol\":865:874  lotteryId */\n  0x03\n    /* \"contracts/2_RandomNumber.sol\":865:878  lotteryId = 1 */\n  dup2\n  swap1\n  sstore\n  pop\n    /* \"contracts/2_RandomNumber.sol\":119:2241  contract Lottery is VRFConsumerBase {... */\n  mload(0x80)\n  mload(0xa0)\n  codecopy(0x00, dataOffset(sub_0), dataSize(sub_0))\n  0x00\n  assignImmutable(\"0x6dbb33232cde86c8a04f90a8bed9fc1c5ef520188a14538d96eb100d69bc2a94\")\n  0x00\n  assignImmutable(\"0xb2219b801710730437d0358146c829b62297a059eceaa0b40b27aea2daecf595\")\n  return(0x00, dataSize(sub_0))\nstop\n\nsub_0: assembly {\n        /* \"contracts/2_RandomNumber.sol\":119:2241  contract Lottery is VRFConsumerBase {... */\n      mstore(0x40, 0x80)\n      jumpi(tag_1, lt(calldatasize, 0x04))\n      shr(0xe0, calldataload(0x00))\n      dup1\n      0x8da5cb5b\n      gt\n      tag_15\n      jumpi\n      dup1\n      0xdbdff2c1\n      gt\n      tag_16\n      jumpi\n      dup1\n      0xdbdff2c1\n      eq\n      tag_11\n      jumpi\n      dup1\n      0xe580f47b\n      eq\n      tag_12\n      jumpi\n      dup1\n      0xe97dcb62\n      eq\n      tag_13\n      jumpi\n      dup1\n      0xf71d96cb\n      eq\n      tag_14\n      jumpi\n      jump(tag_1)\n    tag_16:\n      dup1\n      0x8da5cb5b\n      eq\n      tag_8\n      jumpi\n      dup1\n      0x94985ddd\n      eq\n      tag_9\n      jumpi\n      dup1\n      0xbe71248a\n      eq\n      tag_10\n      jumpi\n      jump(tag_1)\n    tag_15:\n      dup1\n      0x12065fe0\n      eq\n      tag_2\n      jumpi\n      dup1\n      0x281d098d\n      eq\n      tag_3\n      jumpi\n      dup1\n      0x42619f66\n      eq\n      tag_4\n      jumpi\n      dup1\n      0x5d495aea\n      eq\n      tag_5\n      jumpi\n      dup1\n      0x6d6fe230\n      eq\n      tag_6\n      jumpi\n      dup1\n      0x8b5b9ccc\n      eq\n      tag_7\n      jumpi\n    tag_1:\n      0x00\n      dup1\n      revert\n        /* \"contracts/2_RandomNumber.sol\":1387:1481  function getBalance() public view returns (uint) {... */\n    tag_2:\n      callvalue\n      dup1\n      iszero\n      tag_17\n      jumpi\n      0x00\n      dup1\n      revert\n    tag_17:\n      pop\n      tag_18\n      tag_19\n      jump\t// in\n    tag_18:\n      mload(0x40)\n      tag_20\n      swap2\n      swap1\n      tag_21\n      jump\t// in\n    tag_20:\n      mload(0x40)\n      dup1\n      swap2\n      sub\n      swap1\n      return\n        /* \"contracts/2_RandomNumber.sol\":1254:1381  function getWinnerByLottery(uint lottery) public view returns (address payable) {... */\n    tag_3:\n      callvalue\n      dup1\n      iszero\n      tag_22\n      jumpi\n      0x00\n      dup1\n      revert\n    tag_22:\n      pop\n      tag_23\n      0x04\n      dup1\n      calldatasize\n      sub\n      dup2\n      add\n      swap1\n      tag_24\n      swap2\n      swap1\n      tag_25\n      jump\t// in\n    tag_24:\n      tag_26\n      jump\t// in\n    tag_23:\n      mload(0x40)\n      tag_27\n      swap2\n      swap1\n      tag_28\n      jump\t// in\n    tag_27:\n      mload(0x40)\n      dup1\n      swap2\n      sub\n      swap1\n      return\n        /* \"contracts/2_RandomNumber.sol\":446:470  uint public randomResult */\n    tag_4:\n      callvalue\n      dup1\n      iszero\n      tag_29\n      jumpi\n      0x00\n      dup1\n      revert\n    tag_29:\n      pop\n      tag_30\n      tag_31\n      jump\t// in\n    tag_30:\n      mload(0x40)\n      tag_32\n      swap2\n      swap1\n      tag_21\n      jump\t// in\n    tag_32:\n      mload(0x40)\n      dup1\n      swap2\n      sub\n      swap1\n      return\n        /* \"contracts/2_RandomNumber.sol\":1768:1841  function pickWinner() public onlyowner {... */\n    tag_5:\n      callvalue\n      dup1\n      iszero\n      tag_33\n      jumpi\n      0x00\n      dup1\n      revert\n    tag_33:\n      pop\n      tag_34\n      tag_35\n      jump\t// in\n    tag_34:\n      stop\n        /* \"contracts/2_RandomNumber.sol\":252:307  mapping (uint => address payable) public lotteryHistory */\n    tag_6:\n      callvalue\n      dup1\n      iszero\n      tag_36\n      jumpi\n      0x00\n      dup1\n      revert\n    tag_36:\n      pop\n      tag_37\n      0x04\n      dup1\n      calldatasize\n      sub\n      dup2\n      add\n      swap1\n      tag_38\n      swap2\n      swap1\n      tag_25\n      jump\t// in\n    tag_38:\n      tag_39\n      jump\t// in\n    tag_37:\n      mload(0x40)\n      tag_40\n      swap2\n      swap1\n      tag_28\n      jump\t// in\n    tag_40:\n      mload(0x40)\n      dup1\n      swap2\n      sub\n      swap1\n      return\n        /* \"contracts/2_RandomNumber.sol\":1487:1587  function getPlayers() public view returns (address payable[] memory) {... */\n    tag_7:\n      callvalue\n      dup1\n      iszero\n      tag_41\n      jumpi\n      0x00\n      dup1\n      revert\n    tag_41:\n      pop\n      tag_42\n      tag_43\n      jump\t// in\n    tag_42:\n      mload(0x40)\n      tag_44\n      swap2\n      swap1\n      tag_45\n      jump\t// in\n    tag_44:\n      mload(0x40)\n      dup1\n      swap2\n      sub\n      swap1\n      return\n        /* \"contracts/2_RandomNumber.sol\":161:181  address public owner */\n    tag_8:\n      callvalue\n      dup1\n      iszero\n      tag_46\n      jumpi\n      0x00\n      dup1\n      revert\n    tag_46:\n      pop\n      tag_47\n      tag_48\n      jump\t// in\n    tag_47:\n      mload(0x40)\n      tag_49\n      swap2\n      swap1\n      tag_50\n      jump\t// in\n    tag_49:\n      mload(0x40)\n      dup1\n      swap2\n      sub\n      swap1\n      return\n        /* \"@chainlink/contracts/src/v0.8/VRFConsumerBase.sol\":9576:9783  function rawFulfillRandomness(bytes32 requestId, uint256 randomness) external {... */\n    tag_9:\n      callvalue\n      dup1\n      iszero\n      tag_51\n      jumpi\n      0x00\n      dup1\n      revert\n    tag_51:\n      pop\n      tag_52\n      0x04\n      dup1\n      calldatasize\n      sub\n      dup2\n      add\n      swap1\n      tag_53\n      swap2\n      swap1\n      tag_54\n      jump\t// in\n    tag_53:\n      tag_55\n      jump\t// in\n    tag_52:\n      stop\n        /* \"contracts/2_RandomNumber.sol\":1847:2160  function payWinner() public {... */\n    tag_10:\n      callvalue\n      dup1\n      iszero\n      tag_56\n      jumpi\n      0x00\n      dup1\n      revert\n    tag_56:\n      pop\n      tag_57\n      tag_58\n      jump\t// in\n    tag_57:\n      stop\n        /* \"contracts/2_RandomNumber.sol\":895:1098  function getRandomNumber() public returns (bytes32 requestId) {... */\n    tag_11:\n      callvalue\n      dup1\n      iszero\n      tag_59\n      jumpi\n      0x00\n      dup1\n      revert\n    tag_59:\n      pop\n      tag_60\n      tag_61\n      jump\t// in\n    tag_60:\n      mload(0x40)\n      tag_62\n      swap2\n      swap1\n      tag_63\n      jump\t// in\n    tag_62:\n      mload(0x40)\n      dup1\n      swap2\n      sub\n      swap1\n      return\n        /* \"contracts/2_RandomNumber.sol\":225:246  uint public lotteryId */\n    tag_12:\n      callvalue\n      dup1\n      iszero\n      tag_64\n      jumpi\n      0x00\n      dup1\n      revert\n    tag_64:\n      pop\n      tag_65\n      tag_66\n      jump\t// in\n    tag_65:\n      mload(0x40)\n      tag_67\n      swap2\n      swap1\n      tag_21\n      jump\t// in\n    tag_67:\n      mload(0x40)\n      dup1\n      swap2\n      sub\n      swap1\n      return\n        /* \"contracts/2_RandomNumber.sol\":1593:1762  function enter() public payable {... */\n    tag_13:\n      tag_68\n      tag_69\n      jump\t// in\n    tag_68:\n      stop\n        /* \"contracts/2_RandomNumber.sol\":187:219  address payable[] public players */\n    tag_14:\n      callvalue\n      dup1\n      iszero\n      tag_70\n      jumpi\n      0x00\n      dup1\n      revert\n    tag_70:\n      pop\n      tag_71\n      0x04\n      dup1\n      calldatasize\n      sub\n      dup2\n      add\n      swap1\n      tag_72\n      swap2\n      swap1\n      tag_25\n      jump\t// in\n    tag_72:\n      tag_73\n      jump\t// in\n    tag_71:\n      mload(0x40)\n      tag_74\n      swap2\n      swap1\n      tag_28\n      jump\t// in\n    tag_74:\n      mload(0x40)\n      dup1\n      swap2\n      sub\n      swap1\n      return\n        /* \"contracts/2_RandomNumber.sol\":1387:1481  function getBalance() public view returns (uint) {... */\n    tag_19:\n        /* \"contracts/2_RandomNumber.sol\":1430:1434  uint */\n      0x00\n        /* \"contracts/2_RandomNumber.sol\":1453:1474  address(this).balance */\n      selfbalance\n        /* \"contracts/2_RandomNumber.sol\":1446:1474  return address(this).balance */\n      swap1\n      pop\n        /* \"contracts/2_RandomNumber.sol\":1387:1481  function getBalance() public view returns (uint) {... */\n      swap1\n      jump\t// out\n        /* \"contracts/2_RandomNumber.sol\":1254:1381  function getWinnerByLottery(uint lottery) public view returns (address payable) {... */\n    tag_26:\n        /* \"contracts/2_RandomNumber.sol\":1317:1332  address payable */\n      0x00\n        /* \"contracts/2_RandomNumber.sol\":1351:1365  lotteryHistory */\n      0x04\n        /* \"contracts/2_RandomNumber.sol\":1351:1374  lotteryHistory[lottery] */\n      0x00\n        /* \"contracts/2_RandomNumber.sol\":1366:1373  lottery */\n      dup4\n        /* \"contracts/2_RandomNumber.sol\":1351:1374  lotteryHistory[lottery] */\n      dup2\n      mstore\n      0x20\n      add\n      swap1\n      dup2\n      mstore\n      0x20\n      add\n      0x00\n      keccak256\n      0x00\n      swap1\n      sload\n      swap1\n      0x0100\n      exp\n      swap1\n      div\n      0xffffffffffffffffffffffffffffffffffffffff\n      and\n        /* \"contracts/2_RandomNumber.sol\":1344:1374  return lotteryHistory[lottery] */\n      swap1\n      pop\n        /* \"contracts/2_RandomNumber.sol\":1254:1381  function getWinnerByLottery(uint lottery) public view returns (address payable) {... */\n      swap2\n      swap1\n      pop\n      jump\t// out\n        /* \"contracts/2_RandomNumber.sol\":446:470  uint public randomResult */\n    tag_31:\n      sload(0x07)\n      dup2\n      jump\t// out\n        /* \"contracts/2_RandomNumber.sol\":1768:1841  function pickWinner() public onlyowner {... */\n    tag_35:\n        /* \"contracts/2_RandomNumber.sol\":2217:2222  owner */\n      0x01\n      0x00\n      swap1\n      sload\n      swap1\n      0x0100\n      exp\n      swap1\n      div\n      0xffffffffffffffffffffffffffffffffffffffff\n      and\n        /* \"contracts/2_RandomNumber.sol\":2203:2222  msg.sender == owner */\n      0xffffffffffffffffffffffffffffffffffffffff\n      and\n        /* \"contracts/2_RandomNumber.sol\":2203:2213  msg.sender */\n      caller\n        /* \"contracts/2_RandomNumber.sol\":2203:2222  msg.sender == owner */\n      0xffffffffffffffffffffffffffffffffffffffff\n      and\n      eq\n        /* \"contracts/2_RandomNumber.sol\":2195:2223  require(msg.sender == owner) */\n      tag_78\n      jumpi\n      0x00\n      dup1\n      revert\n    tag_78:\n        /* \"contracts/2_RandomNumber.sol\":1817:1834  getRandomNumber() */\n      tag_80\n        /* \"contracts/2_RandomNumber.sol\":1817:1832  getRandomNumber */\n      tag_61\n        /* \"contracts/2_RandomNumber.sol\":1817:1834  getRandomNumber() */\n      jump\t// in\n    tag_80:\n      pop\n        /* \"contracts/2_RandomNumber.sol\":1768:1841  function pickWinner() public onlyowner {... */\n      jump\t// out\n        /* \"contracts/2_RandomNumber.sol\":252:307  mapping (uint => address payable) public lotteryHistory */\n    tag_39:\n      mstore(0x20, 0x04)\n      dup1\n      0x00\n      mstore\n      keccak256(0x00, 0x40)\n      0x00\n      swap2\n      pop\n      sload\n      swap1\n      0x0100\n      exp\n      swap1\n      div\n      0xffffffffffffffffffffffffffffffffffffffff\n      and\n      dup2\n      jump\t// out\n        /* \"contracts/2_RandomNumber.sol\":1487:1587  function getPlayers() public view returns (address payable[] memory) {... */\n    tag_43:\n        /* \"contracts/2_RandomNumber.sol\":1530:1554  address payable[] memory */\n      0x60\n        /* \"contracts/2_RandomNumber.sol\":1573:1580  players */\n      0x02\n        /* \"contracts/2_RandomNumber.sol\":1566:1580  return players */\n      dup1\n      sload\n      dup1\n      0x20\n      mul\n      0x20\n      add\n      mload(0x40)\n      swap1\n      dup2\n      add\n      0x40\n      mstore\n      dup1\n      swap3\n      swap2\n      swap1\n      dup2\n      dup2\n      mstore\n      0x20\n      add\n      dup3\n      dup1\n      sload\n      dup1\n      iszero\n      tag_82\n      jumpi\n      0x20\n      mul\n      dup3\n      add\n      swap2\n      swap1\n      0x00\n      mstore\n      keccak256(0x00, 0x20)\n      swap1\n    tag_83:\n      dup2\n      0x00\n      swap1\n      sload\n      swap1\n      0x0100\n      exp\n      swap1\n      div\n      0xffffffffffffffffffffffffffffffffffffffff\n      and\n      0xffffffffffffffffffffffffffffffffffffffff\n      and\n      dup2\n      mstore\n      0x20\n      add\n      swap1\n      0x01\n      add\n      swap1\n      dup1\n      dup4\n      gt\n      tag_83\n      jumpi\n    tag_82:\n      pop\n      pop\n      pop\n      pop\n      pop\n      swap1\n      pop\n        /* \"contracts/2_RandomNumber.sol\":1487:1587  function getPlayers() public view returns (address payable[] memory) {... */\n      swap1\n      jump\t// out\n        /* \"contracts/2_RandomNumber.sol\":161:181  address public owner */\n    tag_48:\n      0x01\n      0x00\n      swap1\n      sload\n      swap1\n      0x0100\n      exp\n      swap1\n      div\n      0xffffffffffffffffffffffffffffffffffffffff\n      and\n      dup2\n      jump\t// out\n        /* \"@chainlink/contracts/src/v0.8/VRFConsumerBase.sol\":9576:9783  function rawFulfillRandomness(bytes32 requestId, uint256 randomness) external {... */\n    tag_55:\n        /* \"@chainlink/contracts/src/v0.8/VRFConsumerBase.sol\":9682:9696  vrfCoordinator */\n      immutable(\"0x6dbb33232cde86c8a04f90a8bed9fc1c5ef520188a14538d96eb100d69bc2a94\")\n        /* \"@chainlink/contracts/src/v0.8/VRFConsumerBase.sol\":9668:9696  msg.sender == vrfCoordinator */\n      0xffffffffffffffffffffffffffffffffffffffff\n      and\n        /* \"@chainlink/contracts/src/v0.8/VRFConsumerBase.sol\":9668:9678  msg.sender */\n      caller\n        /* \"@chainlink/contracts/src/v0.8/VRFConsumerBase.sol\":9668:9696  msg.sender == vrfCoordinator */\n      0xffffffffffffffffffffffffffffffffffffffff\n      and\n      eq\n        /* \"@chainlink/contracts/src/v0.8/VRFConsumerBase.sol\":9660:9732  require(msg.sender == vrfCoordinator, \"Only VRFCoordinator can fulfill\") */\n      tag_85\n      jumpi\n      mload(0x40)\n      0x08c379a000000000000000000000000000000000000000000000000000000000\n      dup2\n      mstore\n      0x04\n      add\n      tag_86\n      swap1\n      tag_87\n      jump\t// in\n    tag_86:\n      mload(0x40)\n      dup1\n      swap2\n      sub\n      swap1\n      revert\n    tag_85:\n        /* \"@chainlink/contracts/src/v0.8/VRFConsumerBase.sol\":9738:9778  fulfillRandomness(requestId, randomness) */\n      tag_88\n        /* \"@chainlink/contracts/src/v0.8/VRFConsumerBase.sol\":9756:9765  requestId */\n      dup3\n        /* \"@chainlink/contracts/src/v0.8/VRFConsumerBase.sol\":9767:9777  randomness */\n      dup3\n        /* \"@chainlink/contracts/src/v0.8/VRFConsumerBase.sol\":9738:9755  fulfillRandomness */\n      tag_89\n        /* \"@chainlink/contracts/src/v0.8/VRFConsumerBase.sol\":9738:9778  fulfillRandomness(requestId, randomness) */\n      jump\t// in\n    tag_88:\n        /* \"@chainlink/contracts/src/v0.8/VRFConsumerBase.sol\":9576:9783  function rawFulfillRandomness(bytes32 requestId, uint256 randomness) external {... */\n      pop\n      pop\n      jump\t// out\n        /* \"contracts/2_RandomNumber.sol\":1847:2160  function payWinner() public {... */\n    tag_58:\n        /* \"contracts/2_RandomNumber.sol\":1885:1895  uint index */\n      0x00\n        /* \"contracts/2_RandomNumber.sol\":1913:1920  players */\n      0x02\n        /* \"contracts/2_RandomNumber.sol\":1913:1927  players.length */\n      dup1\n      sload\n      swap1\n      pop\n        /* \"contracts/2_RandomNumber.sol\":1898:1910  randomResult */\n      sload(0x07)\n        /* \"contracts/2_RandomNumber.sol\":1898:1927  randomResult % players.length */\n      tag_91\n      swap2\n      swap1\n      tag_92\n      jump\t// in\n    tag_91:\n        /* \"contracts/2_RandomNumber.sol\":1885:1927  uint index = randomResult % players.length */\n      swap1\n      pop\n        /* \"contracts/2_RandomNumber.sol\":1937:1944  players */\n      0x02\n        /* \"contracts/2_RandomNumber.sol\":1945:1950  index */\n      dup2\n        /* \"contracts/2_RandomNumber.sol\":1937:1951  players[index] */\n      dup2\n      sload\n      dup2\n      lt\n      tag_93\n      jumpi\n      tag_94\n      tag_95\n      jump\t// in\n    tag_94:\n    tag_93:\n      swap1\n      0x00\n      mstore\n      keccak256(0x00, 0x20)\n      add\n      0x00\n      swap1\n      sload\n      swap1\n      0x0100\n      exp\n      swap1\n      div\n      0xffffffffffffffffffffffffffffffffffffffff\n      and\n        /* \"contracts/2_RandomNumber.sol\":1937:1960  players[index].transfer */\n      0xffffffffffffffffffffffffffffffffffffffff\n      and\n        /* \"contracts/2_RandomNumber.sol\":1937:1983  players[index].transfer(address(this).balance) */\n      0x08fc\n        /* \"contracts/2_RandomNumber.sol\":1961:1982  address(this).balance */\n      selfbalance\n        /* \"contracts/2_RandomNumber.sol\":1937:1983  players[index].transfer(address(this).balance) */\n      swap1\n      dup2\n      iszero\n      mul\n      swap1\n      mload(0x40)\n      0x00\n      mload(0x40)\n      dup1\n      dup4\n      sub\n      dup2\n      dup6\n      dup9\n      dup9\n      call\n      swap4\n      pop\n      pop\n      pop\n      pop\n      iszero\n      dup1\n      iszero\n      tag_98\n      jumpi\n      returndatasize\n      0x00\n      dup1\n      returndatacopy\n      revert(0x00, returndatasize)\n    tag_98:\n      pop\n        /* \"contracts/2_RandomNumber.sol\":2022:2029  players */\n      0x02\n        /* \"contracts/2_RandomNumber.sol\":2030:2035  index */\n      dup2\n        /* \"contracts/2_RandomNumber.sol\":2022:2036  players[index] */\n      dup2\n      sload\n      dup2\n      lt\n      tag_99\n      jumpi\n      tag_100\n      tag_95\n      jump\t// in\n    tag_100:\n    tag_99:\n      swap1\n      0x00\n      mstore\n      keccak256(0x00, 0x20)\n      add\n      0x00\n      swap1\n      sload\n      swap1\n      0x0100\n      exp\n      swap1\n      div\n      0xffffffffffffffffffffffffffffffffffffffff\n      and\n        /* \"contracts/2_RandomNumber.sol\":1994:2008  lotteryHistory */\n      0x04\n        /* \"contracts/2_RandomNumber.sol\":1994:2019  lotteryHistory[lotteryId] */\n      0x00\n        /* \"contracts/2_RandomNumber.sol\":2009:2018  lotteryId */\n      sload(0x03)\n        /* \"contracts/2_RandomNumber.sol\":1994:2019  lotteryHistory[lotteryId] */\n      dup2\n      mstore\n      0x20\n      add\n      swap1\n      dup2\n      mstore\n      0x20\n      add\n      0x00\n      keccak256\n      0x00\n        /* \"contracts/2_RandomNumber.sol\":1994:2036  lotteryHistory[lotteryId] = players[index] */\n      0x0100\n      exp\n      dup2\n      sload\n      dup2\n      0xffffffffffffffffffffffffffffffffffffffff\n      mul\n      not\n      and\n      swap1\n      dup4\n      0xffffffffffffffffffffffffffffffffffffffff\n      and\n      mul\n      or\n      swap1\n      sstore\n      pop\n        /* \"contracts/2_RandomNumber.sol\":2046:2055  lotteryId */\n      0x03\n      0x00\n        /* \"contracts/2_RandomNumber.sol\":2046:2057  lotteryId++ */\n      dup2\n      sload\n      dup1\n      swap3\n      swap2\n      swap1\n      tag_102\n      swap1\n      tag_103\n      jump\t// in\n    tag_102:\n      swap2\n      swap1\n      pop\n      sstore\n      pop\n        /* \"contracts/2_RandomNumber.sol\":2151:2152  0 */\n      0x00\n        /* \"contracts/2_RandomNumber.sol\":2129:2153  new address payable[](0) */\n      0xffffffffffffffff\n      dup2\n      gt\n      iszero\n      tag_104\n      jumpi\n      tag_105\n      tag_106\n      jump\t// in\n    tag_105:\n    tag_104:\n      mload(0x40)\n      swap1\n      dup1\n      dup3\n      mstore\n      dup1\n      0x20\n      mul\n      0x20\n      add\n      dup3\n      add\n      0x40\n      mstore\n      dup1\n      iszero\n      tag_107\n      jumpi\n      dup2\n      0x20\n      add\n      0x20\n      dup3\n      mul\n      dup1\n      calldatasize\n      dup4\n      calldatacopy\n      dup1\n      dup3\n      add\n      swap2\n      pop\n      pop\n      swap1\n      pop\n    tag_107:\n      pop\n        /* \"contracts/2_RandomNumber.sol\":2119:2126  players */\n      0x02\n        /* \"contracts/2_RandomNumber.sol\":2119:2153  players = new address payable[](0) */\n      swap1\n      dup1\n      mload\n      swap1\n      0x20\n      add\n      swap1\n      tag_108\n      swap3\n      swap2\n      swap1\n      tag_109\n      jump\t// in\n    tag_108:\n      pop\n        /* \"contracts/2_RandomNumber.sol\":1875:2160  {... */\n      pop\n        /* \"contracts/2_RandomNumber.sol\":1847:2160  function payWinner() public {... */\n      jump\t// out\n        /* \"contracts/2_RandomNumber.sol\":895:1098  function getRandomNumber() public returns (bytes32 requestId) {... */\n    tag_61:\n        /* \"contracts/2_RandomNumber.sol\":938:955  bytes32 requestId */\n      0x00\n        /* \"contracts/2_RandomNumber.sol\":1008:1011  fee */\n      sload(0x06)\n        /* \"contracts/2_RandomNumber.sol\":975:979  LINK */\n      immutable(\"0xb2219b801710730437d0358146c829b62297a059eceaa0b40b27aea2daecf595\")\n        /* \"contracts/2_RandomNumber.sol\":975:989  LINK.balanceOf */\n      0xffffffffffffffffffffffffffffffffffffffff\n      and\n      0x70a08231\n        /* \"contracts/2_RandomNumber.sol\":998:1002  this */\n      address\n        /* \"contracts/2_RandomNumber.sol\":975:1004  LINK.balanceOf(address(this)) */\n      mload(0x40)\n      dup3\n      0xffffffff\n      and\n      0xe0\n      shl\n      dup2\n      mstore\n      0x04\n      add\n      tag_111\n      swap2\n      swap1\n      tag_50\n      jump\t// in\n    tag_111:\n      0x20\n      mload(0x40)\n      dup1\n      dup4\n      sub\n      dup2\n      dup7\n      gas\n      staticcall\n      iszero\n      dup1\n      iszero\n      tag_113\n      jumpi\n      returndatasize\n      0x00\n      dup1\n      returndatacopy\n      revert(0x00, returndatasize)\n    tag_113:\n      pop\n      pop\n      pop\n      pop\n      mload(0x40)\n      returndatasize\n      not(0x1f)\n      0x1f\n      dup3\n      add\n      and\n      dup3\n      add\n      dup1\n      0x40\n      mstore\n      pop\n      dup2\n      add\n      swap1\n      tag_114\n      swap2\n      swap1\n      tag_115\n      jump\t// in\n    tag_114:\n        /* \"contracts/2_RandomNumber.sol\":975:1011  LINK.balanceOf(address(this)) >= fee */\n      lt\n      iszero\n        /* \"contracts/2_RandomNumber.sol\":967:1043  require(LINK.balanceOf(address(this)) >= fee, \"Not enough LINK in contract\") */\n      tag_116\n      jumpi\n      mload(0x40)\n      0x08c379a000000000000000000000000000000000000000000000000000000000\n      dup2\n      mstore\n      0x04\n      add\n      tag_117\n      swap1\n      tag_118\n      jump\t// in\n    tag_117:\n      mload(0x40)\n      dup1\n      swap2\n      sub\n      swap1\n      revert\n    tag_116:\n        /* \"contracts/2_RandomNumber.sol\":1060:1091  requestRandomness(keyHash, fee) */\n      tag_119\n        /* \"contracts/2_RandomNumber.sol\":1078:1085  keyHash */\n      sload(0x05)\n        /* \"contracts/2_RandomNumber.sol\":1087:1090  fee */\n      sload(0x06)\n        /* \"contracts/2_RandomNumber.sol\":1060:1077  requestRandomness */\n      tag_120\n        /* \"contracts/2_RandomNumber.sol\":1060:1091  requestRandomness(keyHash, fee) */\n      jump\t// in\n    tag_119:\n        /* \"contracts/2_RandomNumber.sol\":1053:1091  return requestRandomness(keyHash, fee) */\n      swap1\n      pop\n        /* \"contracts/2_RandomNumber.sol\":895:1098  function getRandomNumber() public returns (bytes32 requestId) {... */\n      swap1\n      jump\t// out\n        /* \"contracts/2_RandomNumber.sol\":225:246  uint public lotteryId */\n    tag_66:\n      sload(0x03)\n      dup2\n      jump\t// out\n        /* \"contracts/2_RandomNumber.sol\":1593:1762  function enter() public payable {... */\n    tag_69:\n        /* \"contracts/2_RandomNumber.sol\":1655:1664  .01 ether */\n      0x2386f26fc10000\n        /* \"contracts/2_RandomNumber.sol\":1643:1652  msg.value */\n      callvalue\n        /* \"contracts/2_RandomNumber.sol\":1643:1664  msg.value > .01 ether */\n      gt\n        /* \"contracts/2_RandomNumber.sol\":1635:1665  require(msg.value > .01 ether) */\n      tag_122\n      jumpi\n      0x00\n      dup1\n      revert\n    tag_122:\n        /* \"contracts/2_RandomNumber.sol\":1722:1729  players */\n      0x02\n        /* \"contracts/2_RandomNumber.sol\":1743:1753  msg.sender */\n      caller\n        /* \"contracts/2_RandomNumber.sol\":1722:1755  players.push(payable(msg.sender)) */\n      swap1\n      dup1\n      0x01\n      dup2\n      sload\n      add\n      dup1\n      dup3\n      sstore\n      dup1\n      swap2\n      pop\n      pop\n      0x01\n      swap1\n      sub\n      swap1\n      0x00\n      mstore\n      keccak256(0x00, 0x20)\n      add\n      0x00\n      swap1\n      swap2\n      swap1\n      swap2\n      swap1\n      swap2\n      0x0100\n      exp\n      dup2\n      sload\n      dup2\n      0xffffffffffffffffffffffffffffffffffffffff\n      mul\n      not\n      and\n      swap1\n      dup4\n      0xffffffffffffffffffffffffffffffffffffffff\n      and\n      mul\n      or\n      swap1\n      sstore\n      pop\n        /* \"contracts/2_RandomNumber.sol\":1593:1762  function enter() public payable {... */\n      jump\t// out\n        /* \"contracts/2_RandomNumber.sol\":187:219  address payable[] public players */\n    tag_73:\n      0x02\n      dup2\n      dup2\n      sload\n      dup2\n      lt\n      tag_124\n      jumpi\n      0x00\n      dup1\n      revert\n    tag_124:\n      swap1\n      0x00\n      mstore\n      keccak256(0x00, 0x20)\n      add\n      0x00\n      swap2\n      pop\n      sload\n      swap1\n      0x0100\n      exp\n      swap1\n      div\n      0xffffffffffffffffffffffffffffffffffffffff\n      and\n      dup2\n      jump\t// out\n        /* \"contracts/2_RandomNumber.sol\":1104:1248  function fulfillRandomness(bytes32 requestId, uint randomness) internal override {... */\n    tag_89:\n        /* \"contracts/2_RandomNumber.sol\":1210:1220  randomness */\n      dup1\n        /* \"contracts/2_RandomNumber.sol\":1195:1207  randomResult */\n      0x07\n        /* \"contracts/2_RandomNumber.sol\":1195:1220  randomResult = randomness */\n      dup2\n      swap1\n      sstore\n      pop\n        /* \"contracts/2_RandomNumber.sol\":1230:1241  payWinner() */\n      tag_127\n        /* \"contracts/2_RandomNumber.sol\":1230:1239  payWinner */\n      tag_58\n        /* \"contracts/2_RandomNumber.sol\":1230:1241  payWinner() */\n      jump\t// in\n    tag_127:\n        /* \"contracts/2_RandomNumber.sol\":1104:1248  function fulfillRandomness(bytes32 requestId, uint randomness) internal override {... */\n      pop\n      pop\n      jump\t// out\n        /* \"@chainlink/contracts/src/v0.8/VRFConsumerBase.sol\":7732:8752  function requestRandomness(bytes32 _keyHash, uint256 _fee) internal returns (bytes32 requestId) {... */\n    tag_120:\n        /* \"@chainlink/contracts/src/v0.8/VRFConsumerBase.sol\":7809:7826  bytes32 requestId */\n      0x00\n        /* \"@chainlink/contracts/src/v0.8/VRFConsumerBase.sol\":7834:7838  LINK */\n      immutable(\"0xb2219b801710730437d0358146c829b62297a059eceaa0b40b27aea2daecf595\")\n        /* \"@chainlink/contracts/src/v0.8/VRFConsumerBase.sol\":7834:7854  LINK.transferAndCall */\n      0xffffffffffffffffffffffffffffffffffffffff\n      and\n      0x4000aea0\n        /* \"@chainlink/contracts/src/v0.8/VRFConsumerBase.sol\":7855:7869  vrfCoordinator */\n      immutable(\"0x6dbb33232cde86c8a04f90a8bed9fc1c5ef520188a14538d96eb100d69bc2a94\")\n        /* \"@chainlink/contracts/src/v0.8/VRFConsumerBase.sol\":7871:7875  _fee */\n      dup5\n        /* \"@chainlink/contracts/src/v0.8/VRFConsumerBase.sol\":7888:7896  _keyHash */\n      dup7\n        /* \"@chainlink/contracts/src/v0.8/VRFConsumerBase.sol\":6589:6590  0 */\n      0x00\n        /* \"@chainlink/contracts/src/v0.8/VRFConsumerBase.sol\":7877:7920  abi.encode(_keyHash, USER_SEED_PLACEHOLDER) */\n      add(0x20, mload(0x40))\n      tag_129\n      swap3\n      swap2\n      swap1\n      tag_130\n      jump\t// in\n    tag_129:\n      mload(0x40)\n      0x20\n      dup2\n      dup4\n      sub\n      sub\n      dup2\n      mstore\n      swap1\n      0x40\n      mstore\n        /* \"@chainlink/contracts/src/v0.8/VRFConsumerBase.sol\":7834:7921  LINK.transferAndCall(vrfCoordinator, _fee, abi.encode(_keyHash, USER_SEED_PLACEHOLDER)) */\n      mload(0x40)\n      dup5\n      0xffffffff\n      and\n      0xe0\n      shl\n      dup2\n      mstore\n      0x04\n      add\n      tag_131\n      swap4\n      swap3\n      swap2\n      swap1\n      tag_132\n      jump\t// in\n    tag_131:\n      0x20\n      mload(0x40)\n      dup1\n      dup4\n      sub\n      dup2\n      0x00\n      dup8\n      gas\n      call\n      iszero\n      dup1\n      iszero\n      tag_134\n      jumpi\n      returndatasize\n      0x00\n      dup1\n      returndatacopy\n      revert(0x00, returndatasize)\n    tag_134:\n      pop\n      pop\n      pop\n      pop\n      mload(0x40)\n      returndatasize\n      not(0x1f)\n      0x1f\n      dup3\n      add\n      and\n      dup3\n      add\n      dup1\n      0x40\n      mstore\n      pop\n      dup2\n      add\n      swap1\n      tag_135\n      swap2\n      swap1\n      tag_136\n      jump\t// in\n    tag_135:\n      pop\n        /* \"@chainlink/contracts/src/v0.8/VRFConsumerBase.sol\":8152:8167  uint256 vRFSeed */\n      0x00\n        /* \"@chainlink/contracts/src/v0.8/VRFConsumerBase.sol\":8170:8252  makeVRFInputSeed(_keyHash, USER_SEED_PLACEHOLDER, address(this), nonces[_keyHash]) */\n      tag_137\n        /* \"@chainlink/contracts/src/v0.8/VRFConsumerBase.sol\":8187:8195  _keyHash */\n      dup5\n        /* \"@chainlink/contracts/src/v0.8/VRFConsumerBase.sol\":6589:6590  0 */\n      0x00\n        /* \"@chainlink/contracts/src/v0.8/VRFConsumerBase.sol\":8228:8232  this */\n      address\n        /* \"@chainlink/contracts/src/v0.8/VRFConsumerBase.sol\":8235:8241  nonces */\n      0x00\n        /* \"@chainlink/contracts/src/v0.8/VRFConsumerBase.sol\":8235:8251  nonces[_keyHash] */\n      dup1\n        /* \"@chainlink/contracts/src/v0.8/VRFConsumerBase.sol\":8242:8250  _keyHash */\n      dup10\n        /* \"@chainlink/contracts/src/v0.8/VRFConsumerBase.sol\":8235:8251  nonces[_keyHash] */\n      dup2\n      mstore\n      0x20\n      add\n      swap1\n      dup2\n      mstore\n      0x20\n      add\n      0x00\n      keccak256\n      sload\n        /* \"@chainlink/contracts/src/v0.8/VRFConsumerBase.sol\":8170:8186  makeVRFInputSeed */\n      tag_138\n        /* \"@chainlink/contracts/src/v0.8/VRFConsumerBase.sol\":8170:8252  makeVRFInputSeed(_keyHash, USER_SEED_PLACEHOLDER, address(this), nonces[_keyHash]) */\n      jump\t// in\n    tag_137:\n        /* \"@chainlink/contracts/src/v0.8/VRFConsumerBase.sol\":8152:8252  uint256 vRFSeed = makeVRFInputSeed(_keyHash, USER_SEED_PLACEHOLDER, address(this), nonces[_keyHash]) */\n      swap1\n      pop\n        /* \"@chainlink/contracts/src/v0.8/VRFConsumerBase.sol\":8701:8702  1 */\n      0x01\n        /* \"@chainlink/contracts/src/v0.8/VRFConsumerBase.sol\":8682:8688  nonces */\n      0x00\n        /* \"@chainlink/contracts/src/v0.8/VRFConsumerBase.sol\":8682:8698  nonces[_keyHash] */\n      dup1\n        /* \"@chainlink/contracts/src/v0.8/VRFConsumerBase.sol\":8689:8697  _keyHash */\n      dup7\n        /* \"@chainlink/contracts/src/v0.8/VRFConsumerBase.sol\":8682:8698  nonces[_keyHash] */\n      dup2\n      mstore\n      0x20\n      add\n      swap1\n      dup2\n      mstore\n      0x20\n      add\n      0x00\n      keccak256\n      sload\n        /* \"@chainlink/contracts/src/v0.8/VRFConsumerBase.sol\":8682:8702  nonces[_keyHash] + 1 */\n      tag_139\n      swap2\n      swap1\n      tag_140\n      jump\t// in\n    tag_139:\n        /* \"@chainlink/contracts/src/v0.8/VRFConsumerBase.sol\":8663:8669  nonces */\n      0x00\n        /* \"@chainlink/contracts/src/v0.8/VRFConsumerBase.sol\":8663:8679  nonces[_keyHash] */\n      dup1\n        /* \"@chainlink/contracts/src/v0.8/VRFConsumerBase.sol\":8670:8678  _keyHash */\n      dup7\n        /* \"@chainlink/contracts/src/v0.8/VRFConsumerBase.sol\":8663:8679  nonces[_keyHash] */\n      dup2\n      mstore\n      0x20\n      add\n      swap1\n      dup2\n      mstore\n      0x20\n      add\n      0x00\n      keccak256\n        /* \"@chainlink/contracts/src/v0.8/VRFConsumerBase.sol\":8663:8702  nonces[_keyHash] = nonces[_keyHash] + 1 */\n      dup2\n      swap1\n      sstore\n      pop\n        /* \"@chainlink/contracts/src/v0.8/VRFConsumerBase.sol\":8715:8747  makeRequestId(_keyHash, vRFSeed) */\n      tag_141\n        /* \"@chainlink/contracts/src/v0.8/VRFConsumerBase.sol\":8729:8737  _keyHash */\n      dup5\n        /* \"@chainlink/contracts/src/v0.8/VRFConsumerBase.sol\":8739:8746  vRFSeed */\n      dup3\n        /* \"@chainlink/contracts/src/v0.8/VRFConsumerBase.sol\":8715:8728  makeRequestId */\n      tag_142\n        /* \"@chainlink/contracts/src/v0.8/VRFConsumerBase.sol\":8715:8747  makeRequestId(_keyHash, vRFSeed) */\n      jump\t// in\n    tag_141:\n        /* \"@chainlink/contracts/src/v0.8/VRFConsumerBase.sol\":8708:8747  return makeRequestId(_keyHash, vRFSeed) */\n      swap2\n      pop\n      pop\n        /* \"@chainlink/contracts/src/v0.8/VRFConsumerBase.sol\":7732:8752  function requestRandomness(bytes32 _keyHash, uint256 _fee) internal returns (bytes32 requestId) {... */\n      swap3\n      swap2\n      pop\n      pop\n      jump\t// out\n        /* \"@chainlink/contracts/src/v0.8/VRFRequestIDBase.sol\":796:1036  function makeVRFInputSeed(... */\n    tag_138:\n        /* \"@chainlink/contracts/src/v0.8/VRFRequestIDBase.sol\":938:945  uint256 */\n      0x00\n        /* \"@chainlink/contracts/src/v0.8/VRFRequestIDBase.sol\":989:997  _keyHash */\n      dup5\n        /* \"@chainlink/contracts/src/v0.8/VRFRequestIDBase.sol\":999:1008  _userSeed */\n      dup5\n        /* \"@chainlink/contracts/src/v0.8/VRFRequestIDBase.sol\":1010:1020  _requester */\n      dup5\n        /* \"@chainlink/contracts/src/v0.8/VRFRequestIDBase.sol\":1022:1028  _nonce */\n      dup5\n        /* \"@chainlink/contracts/src/v0.8/VRFRequestIDBase.sol\":978:1029  abi.encode(_keyHash, _userSeed, _requester, _nonce) */\n      add(0x20, mload(0x40))\n      tag_144\n      swap5\n      swap4\n      swap3\n      swap2\n      swap1\n      tag_145\n      jump\t// in\n    tag_144:\n      mload(0x40)\n      0x20\n      dup2\n      dup4\n      sub\n      sub\n      dup2\n      mstore\n      swap1\n      0x40\n      mstore\n        /* \"@chainlink/contracts/src/v0.8/VRFRequestIDBase.sol\":968:1030  keccak256(abi.encode(_keyHash, _userSeed, _requester, _nonce)) */\n      dup1\n      mload\n      swap1\n      0x20\n      add\n      keccak256\n        /* \"@chainlink/contracts/src/v0.8/VRFRequestIDBase.sol\":960:1031  uint256(keccak256(abi.encode(_keyHash, _userSeed, _requester, _nonce))) */\n      0x00\n      shr\n        /* \"@chainlink/contracts/src/v0.8/VRFRequestIDBase.sol\":953:1031  return uint256(keccak256(abi.encode(_keyHash, _userSeed, _requester, _nonce))) */\n      swap1\n      pop\n        /* \"@chainlink/contracts/src/v0.8/VRFRequestIDBase.sol\":796:1036  function makeVRFInputSeed(... */\n      swap5\n      swap4\n      pop\n      pop\n      pop\n      pop\n      jump\t// out\n        /* \"@chainlink/contracts/src/v0.8/VRFRequestIDBase.sol\":1416:1582  function makeRequestId(bytes32 _keyHash, uint256 _vRFInputSeed) internal pure returns (bytes32) {... */\n    tag_142:\n        /* \"@chainlink/contracts/src/v0.8/VRFRequestIDBase.sol\":1503:1510  bytes32 */\n      0x00\n        /* \"@chainlink/contracts/src/v0.8/VRFRequestIDBase.sol\":1552:1560  _keyHash */\n      dup3\n        /* \"@chainlink/contracts/src/v0.8/VRFRequestIDBase.sol\":1562:1575  _vRFInputSeed */\n      dup3\n        /* \"@chainlink/contracts/src/v0.8/VRFRequestIDBase.sol\":1535:1576  abi.encodePacked(_keyHash, _vRFInputSeed) */\n      add(0x20, mload(0x40))\n      tag_147\n      swap3\n      swap2\n      swap1\n      tag_148\n      jump\t// in\n    tag_147:\n      mload(0x40)\n      0x20\n      dup2\n      dup4\n      sub\n      sub\n      dup2\n      mstore\n      swap1\n      0x40\n      mstore\n        /* \"@chainlink/contracts/src/v0.8/VRFRequestIDBase.sol\":1525:1577  keccak256(abi.encodePacked(_keyHash, _vRFInputSeed)) */\n      dup1\n      mload\n      swap1\n      0x20\n      add\n      keccak256\n        /* \"@chainlink/contracts/src/v0.8/VRFRequestIDBase.sol\":1518:1577  return keccak256(abi.encodePacked(_keyHash, _vRFInputSeed)) */\n      swap1\n      pop\n        /* \"@chainlink/contracts/src/v0.8/VRFRequestIDBase.sol\":1416:1582  function makeRequestId(bytes32 _keyHash, uint256 _vRFInputSeed) internal pure returns (bytes32) {... */\n      swap3\n      swap2\n      pop\n      pop\n      jump\t// out\n    tag_109:\n      dup3\n      dup1\n      sload\n      dup3\n      dup3\n      sstore\n      swap1\n      0x00\n      mstore\n      keccak256(0x00, 0x20)\n      swap1\n      dup2\n      add\n      swap3\n      dup3\n      iszero\n      tag_149\n      jumpi\n      swap2\n      0x20\n      mul\n      dup3\n      add\n    tag_150:\n      dup3\n      dup2\n      gt\n      iszero\n      tag_151\n      jumpi\n      dup3\n      mload\n      dup3\n      exp(0x0100, 0x00)\n      dup2\n      sload\n      dup2\n      0xffffffffffffffffffffffffffffffffffffffff\n      mul\n      not\n      and\n      swap1\n      dup4\n      0xffffffffffffffffffffffffffffffffffffffff\n      and\n      mul\n      or\n      swap1\n      sstore\n      pop\n      swap2\n      0x20\n      add\n      swap2\n      swap1\n      0x01\n      add\n      swap1\n      jump(tag_150)\n    tag_151:\n    tag_149:\n      pop\n      swap1\n      pop\n      tag_152\n      swap2\n      swap1\n      tag_153\n      jump\t// in\n    tag_152:\n      pop\n      swap1\n      jump\t// out\n    tag_153:\n    tag_154:\n      dup1\n      dup3\n      gt\n      iszero\n      tag_155\n      jumpi\n      0x00\n      dup2\n      0x00\n      swap1\n      sstore\n      pop\n      0x01\n      add\n      jump(tag_154)\n    tag_155:\n      pop\n      swap1\n      jump\t// out\n        /* \"#utility.yul\":7:84   */\n    tag_156:\n        /* \"#utility.yul\":44:51   */\n      0x00\n        /* \"#utility.yul\":73:78   */\n      dup2\n        /* \"#utility.yul\":62:78   */\n      swap1\n      pop\n        /* \"#utility.yul\":7:84   */\n      swap2\n      swap1\n      pop\n      jump\t// out\n        /* \"#utility.yul\":90:208   */\n    tag_157:\n        /* \"#utility.yul\":177:201   */\n      tag_202\n        /* \"#utility.yul\":195:200   */\n      dup2\n        /* \"#utility.yul\":177:201   */\n      tag_156\n      jump\t// in\n    tag_202:\n        /* \"#utility.yul\":172:175   */\n      dup3\n        /* \"#utility.yul\":165:202   */\n      mstore\n        /* \"#utility.yul\":90:208   */\n      pop\n      pop\n      jump\t// out\n        /* \"#utility.yul\":214:436   */\n    tag_21:\n        /* \"#utility.yul\":307:311   */\n      0x00\n        /* \"#utility.yul\":345:347   */\n      0x20\n        /* \"#utility.yul\":334:343   */\n      dup3\n        /* \"#utility.yul\":330:348   */\n      add\n        /* \"#utility.yul\":322:348   */\n      swap1\n      pop\n        /* \"#utility.yul\":358:429   */\n      tag_204\n        /* \"#utility.yul\":426:427   */\n      0x00\n        /* \"#utility.yul\":415:424   */\n      dup4\n        /* \"#utility.yul\":411:428   */\n      add\n        /* \"#utility.yul\":402:408   */\n      dup5\n        /* \"#utility.yul\":358:429   */\n      tag_157\n      jump\t// in\n    tag_204:\n        /* \"#utility.yul\":214:436   */\n      swap3\n      swap2\n      pop\n      pop\n      jump\t// out\n        /* \"#utility.yul\":523:640   */\n    tag_159:\n        /* \"#utility.yul\":632:633   */\n      0x00\n        /* \"#utility.yul\":629:630   */\n      dup1\n        /* \"#utility.yul\":622:634   */\n      revert\n        /* \"#utility.yul\":769:891   */\n    tag_161:\n        /* \"#utility.yul\":842:866   */\n      tag_209\n        /* \"#utility.yul\":860:865   */\n      dup2\n        /* \"#utility.yul\":842:866   */\n      tag_156\n      jump\t// in\n    tag_209:\n        /* \"#utility.yul\":835:840   */\n      dup2\n        /* \"#utility.yul\":832:867   */\n      eq\n        /* \"#utility.yul\":822:885   */\n      tag_210\n      jumpi\n        /* \"#utility.yul\":881:882   */\n      0x00\n        /* \"#utility.yul\":878:879   */\n      dup1\n        /* \"#utility.yul\":871:883   */\n      revert\n        /* \"#utility.yul\":822:885   */\n    tag_210:\n        /* \"#utility.yul\":769:891   */\n      pop\n      jump\t// out\n        /* \"#utility.yul\":897:1036   */\n    tag_162:\n        /* \"#utility.yul\":943:948   */\n      0x00\n        /* \"#utility.yul\":981:987   */\n      dup2\n        /* \"#utility.yul\":968:988   */\n      calldataload\n        /* \"#utility.yul\":959:988   */\n      swap1\n      pop\n        /* \"#utility.yul\":997:1030   */\n      tag_212\n        /* \"#utility.yul\":1024:1029   */\n      dup2\n        /* \"#utility.yul\":997:1030   */\n      tag_161\n      jump\t// in\n    tag_212:\n        /* \"#utility.yul\":897:1036   */\n      swap3\n      swap2\n      pop\n      pop\n      jump\t// out\n        /* \"#utility.yul\":1042:1371   */\n    tag_25:\n        /* \"#utility.yul\":1101:1107   */\n      0x00\n        /* \"#utility.yul\":1150:1152   */\n      0x20\n        /* \"#utility.yul\":1138:1147   */\n      dup3\n        /* \"#utility.yul\":1129:1136   */\n      dup5\n        /* \"#utility.yul\":1125:1148   */\n      sub\n        /* \"#utility.yul\":1121:1153   */\n      slt\n        /* \"#utility.yul\":1118:1237   */\n      iszero\n      tag_214\n      jumpi\n        /* \"#utility.yul\":1156:1235   */\n      tag_215\n      tag_159\n      jump\t// in\n    tag_215:\n        /* \"#utility.yul\":1118:1237   */\n    tag_214:\n        /* \"#utility.yul\":1276:1277   */\n      0x00\n        /* \"#utility.yul\":1301:1354   */\n      tag_216\n        /* \"#utility.yul\":1346:1353   */\n      dup5\n        /* \"#utility.yul\":1337:1343   */\n      dup3\n        /* \"#utility.yul\":1326:1335   */\n      dup6\n        /* \"#utility.yul\":1322:1344   */\n      add\n        /* \"#utility.yul\":1301:1354   */\n      tag_162\n      jump\t// in\n    tag_216:\n        /* \"#utility.yul\":1291:1354   */\n      swap2\n      pop\n        /* \"#utility.yul\":1247:1364   */\n      pop\n        /* \"#utility.yul\":1042:1371   */\n      swap3\n      swap2\n      pop\n      pop\n      jump\t// out\n        /* \"#utility.yul\":1377:1503   */\n    tag_163:\n        /* \"#utility.yul\":1414:1421   */\n      0x00\n        /* \"#utility.yul\":1454:1496   */\n      0xffffffffffffffffffffffffffffffffffffffff\n        /* \"#utility.yul\":1447:1452   */\n      dup3\n        /* \"#utility.yul\":1443:1497   */\n      and\n        /* \"#utility.yul\":1432:1497   */\n      swap1\n      pop\n        /* \"#utility.yul\":1377:1503   */\n      swap2\n      swap1\n      pop\n      jump\t// out\n        /* \"#utility.yul\":1509:1613   */\n    tag_164:\n        /* \"#utility.yul\":1554:1561   */\n      0x00\n        /* \"#utility.yul\":1583:1607   */\n      tag_219\n        /* \"#utility.yul\":1601:1606   */\n      dup3\n        /* \"#utility.yul\":1583:1607   */\n      tag_163\n      jump\t// in\n    tag_219:\n        /* \"#utility.yul\":1572:1607   */\n      swap1\n      pop\n        /* \"#utility.yul\":1509:1613   */\n      swap2\n      swap1\n      pop\n      jump\t// out\n        /* \"#utility.yul\":1619:1761   */\n    tag_165:\n        /* \"#utility.yul\":1722:1754   */\n      tag_221\n        /* \"#utility.yul\":1748:1753   */\n      dup2\n        /* \"#utility.yul\":1722:1754   */\n      tag_164\n      jump\t// in\n    tag_221:\n        /* \"#utility.yul\":1717:1720   */\n      dup3\n        /* \"#utility.yul\":1710:1755   */\n      mstore\n        /* \"#utility.yul\":1619:1761   */\n      pop\n      pop\n      jump\t// out\n        /* \"#utility.yul\":1767:2021   */\n    tag_28:\n        /* \"#utility.yul\":1876:1880   */\n      0x00\n        /* \"#utility.yul\":1914:1916   */\n      0x20\n        /* \"#utility.yul\":1903:1912   */\n      dup3\n        /* \"#utility.yul\":1899:1917   */\n      add\n        /* \"#utility.yul\":1891:1917   */\n      swap1\n      pop\n        /* \"#utility.yul\":1927:2014   */\n      tag_223\n        /* \"#utility.yul\":2011:2012   */\n      0x00\n        /* \"#utility.yul\":2000:2009   */\n      dup4\n        /* \"#utility.yul\":1996:2013   */\n      add\n        /* \"#utility.yul\":1987:1993   */\n      dup5\n        /* \"#utility.yul\":1927:2014   */\n      tag_165\n      jump\t// in\n    tag_223:\n        /* \"#utility.yul\":1767:2021   */\n      swap3\n      swap2\n      pop\n      pop\n      jump\t// out\n        /* \"#utility.yul\":2027:2149   */\n    tag_166:\n        /* \"#utility.yul\":2102:2108   */\n      0x00\n        /* \"#utility.yul\":2136:2141   */\n      dup2\n        /* \"#utility.yul\":2130:2142   */\n      mload\n        /* \"#utility.yul\":2120:2142   */\n      swap1\n      pop\n        /* \"#utility.yul\":2027:2149   */\n      swap2\n      swap1\n      pop\n      jump\t// out\n        /* \"#utility.yul\":2155:2347   */\n    tag_167:\n        /* \"#utility.yul\":2262:2273   */\n      0x00\n        /* \"#utility.yul\":2296:2302   */\n      dup3\n        /* \"#utility.yul\":2291:2294   */\n      dup3\n        /* \"#utility.yul\":2284:2303   */\n      mstore\n        /* \"#utility.yul\":2336:2340   */\n      0x20\n        /* \"#utility.yul\":2331:2334   */\n      dup3\n        /* \"#utility.yul\":2327:2341   */\n      add\n        /* \"#utility.yul\":2312:2341   */\n      swap1\n      pop\n        /* \"#utility.yul\":2155:2347   */\n      swap3\n      swap2\n      pop\n      pop\n      jump\t// out\n        /* \"#utility.yul\":2353:2493   */\n    tag_168:\n        /* \"#utility.yul\":2428:2432   */\n      0x00\n        /* \"#utility.yul\":2451:2454   */\n      dup2\n        /* \"#utility.yul\":2443:2454   */\n      swap1\n      pop\n        /* \"#utility.yul\":2481:2485   */\n      0x20\n        /* \"#utility.yul\":2476:2479   */\n      dup3\n        /* \"#utility.yul\":2472:2486   */\n      add\n        /* \"#utility.yul\":2464:2486   */\n      swap1\n      pop\n        /* \"#utility.yul\":2353:2493   */\n      swap2\n      swap1\n      pop\n      jump\t// out\n        /* \"#utility.yul\":2499:2631   */\n    tag_169:\n        /* \"#utility.yul\":2592:2624   */\n      tag_228\n        /* \"#utility.yul\":2618:2623   */\n      dup2\n        /* \"#utility.yul\":2592:2624   */\n      tag_164\n      jump\t// in\n    tag_228:\n        /* \"#utility.yul\":2587:2590   */\n      dup3\n        /* \"#utility.yul\":2580:2625   */\n      mstore\n        /* \"#utility.yul\":2499:2631   */\n      pop\n      pop\n      jump\t// out\n        /* \"#utility.yul\":2637:2848   */\n    tag_170:\n        /* \"#utility.yul\":2722:2732   */\n      0x00\n        /* \"#utility.yul\":2743:2805   */\n      tag_230\n        /* \"#utility.yul\":2801:2804   */\n      dup4\n        /* \"#utility.yul\":2793:2799   */\n      dup4\n        /* \"#utility.yul\":2743:2805   */\n      tag_169\n      jump\t// in\n    tag_230:\n        /* \"#utility.yul\":2837:2841   */\n      0x20\n        /* \"#utility.yul\":2832:2835   */\n      dup4\n        /* \"#utility.yul\":2828:2842   */\n      add\n        /* \"#utility.yul\":2814:2842   */\n      swap1\n      pop\n        /* \"#utility.yul\":2637:2848   */\n      swap3\n      swap2\n      pop\n      pop\n      jump\t// out\n        /* \"#utility.yul\":2854:2975   */\n    tag_171:\n        /* \"#utility.yul\":2932:2936   */\n      0x00\n        /* \"#utility.yul\":2964:2968   */\n      0x20\n        /* \"#utility.yul\":2959:2962   */\n      dup3\n        /* \"#utility.yul\":2955:2969   */\n      add\n        /* \"#utility.yul\":2947:2969   */\n      swap1\n      pop\n        /* \"#utility.yul\":2854:2975   */\n      swap2\n      swap1\n      pop\n      jump\t// out\n        /* \"#utility.yul\":3027:3823   */\n    tag_172:\n        /* \"#utility.yul\":3162:3165   */\n      0x00\n        /* \"#utility.yul\":3191:3253   */\n      tag_233\n        /* \"#utility.yul\":3247:3252   */\n      dup3\n        /* \"#utility.yul\":3191:3253   */\n      tag_166\n      jump\t// in\n    tag_233:\n        /* \"#utility.yul\":3269:3363   */\n      tag_234\n        /* \"#utility.yul\":3356:3362   */\n      dup2\n        /* \"#utility.yul\":3351:3354   */\n      dup6\n        /* \"#utility.yul\":3269:3363   */\n      tag_167\n      jump\t// in\n    tag_234:\n        /* \"#utility.yul\":3262:3363   */\n      swap4\n      pop\n        /* \"#utility.yul\":3387:3451   */\n      tag_235\n        /* \"#utility.yul\":3445:3450   */\n      dup4\n        /* \"#utility.yul\":3387:3451   */\n      tag_168\n      jump\t// in\n    tag_235:\n        /* \"#utility.yul\":3474:3481   */\n      dup1\n        /* \"#utility.yul\":3505:3506   */\n      0x00\n        /* \"#utility.yul\":3490:3798   */\n    tag_236:\n        /* \"#utility.yul\":3515:3521   */\n      dup4\n        /* \"#utility.yul\":3512:3513   */\n      dup2\n        /* \"#utility.yul\":3509:3522   */\n      lt\n        /* \"#utility.yul\":3490:3798   */\n      iszero\n      tag_238\n      jumpi\n        /* \"#utility.yul\":3591:3597   */\n      dup2\n        /* \"#utility.yul\":3585:3598   */\n      mload\n        /* \"#utility.yul\":3618:3697   */\n      tag_239\n        /* \"#utility.yul\":3693:3696   */\n      dup9\n        /* \"#utility.yul\":3678:3691   */\n      dup3\n        /* \"#utility.yul\":3618:3697   */\n      tag_170\n      jump\t// in\n    tag_239:\n        /* \"#utility.yul\":3611:3697   */\n      swap8\n      pop\n        /* \"#utility.yul\":3720:3788   */\n      tag_240\n        /* \"#utility.yul\":3781:3787   */\n      dup4\n        /* \"#utility.yul\":3720:3788   */\n      tag_171\n      jump\t// in\n    tag_240:\n        /* \"#utility.yul\":3710:3788   */\n      swap3\n      pop\n        /* \"#utility.yul\":3550:3798   */\n      pop\n        /* \"#utility.yul\":3537:3538   */\n      0x01\n        /* \"#utility.yul\":3534:3535   */\n      dup2\n        /* \"#utility.yul\":3530:3539   */\n      add\n        /* \"#utility.yul\":3525:3539   */\n      swap1\n      pop\n        /* \"#utility.yul\":3490:3798   */\n      jump(tag_236)\n    tag_238:\n        /* \"#utility.yul\":3494:3508   */\n      pop\n        /* \"#utility.yul\":3814:3817   */\n      dup6\n        /* \"#utility.yul\":3807:3817   */\n      swap4\n      pop\n        /* \"#utility.yul\":3167:3823   */\n      pop\n      pop\n      pop\n        /* \"#utility.yul\":3027:3823   */\n      swap3\n      swap2\n      pop\n      pop\n      jump\t// out\n        /* \"#utility.yul\":3829:4234   */\n    tag_45:\n        /* \"#utility.yul\":3988:3992   */\n      0x00\n        /* \"#utility.yul\":4026:4028   */\n      0x20\n        /* \"#utility.yul\":4015:4024   */\n      dup3\n        /* \"#utility.yul\":4011:4029   */\n      add\n        /* \"#utility.yul\":4003:4029   */\n      swap1\n      pop\n        /* \"#utility.yul\":4075:4084   */\n      dup2\n        /* \"#utility.yul\":4069:4073   */\n      dup2\n        /* \"#utility.yul\":4065:4085   */\n      sub\n        /* \"#utility.yul\":4061:4062   */\n      0x00\n        /* \"#utility.yul\":4050:4059   */\n      dup4\n        /* \"#utility.yul\":4046:4063   */\n      add\n        /* \"#utility.yul\":4039:4086   */\n      mstore\n        /* \"#utility.yul\":4103:4227   */\n      tag_242\n        /* \"#utility.yul\":4222:4226   */\n      dup2\n        /* \"#utility.yul\":4213:4219   */\n      dup5\n        /* \"#utility.yul\":4103:4227   */\n      tag_172\n      jump\t// in\n    tag_242:\n        /* \"#utility.yul\":4095:4227   */\n      swap1\n      pop\n        /* \"#utility.yul\":3829:4234   */\n      swap3\n      swap2\n      pop\n      pop\n      jump\t// out\n        /* \"#utility.yul\":4240:4336   */\n    tag_173:\n        /* \"#utility.yul\":4277:4284   */\n      0x00\n        /* \"#utility.yul\":4306:4330   */\n      tag_244\n        /* \"#utility.yul\":4324:4329   */\n      dup3\n        /* \"#utility.yul\":4306:4330   */\n      tag_163\n      jump\t// in\n    tag_244:\n        /* \"#utility.yul\":4295:4330   */\n      swap1\n      pop\n        /* \"#utility.yul\":4240:4336   */\n      swap2\n      swap1\n      pop\n      jump\t// out\n        /* \"#utility.yul\":4342:4460   */\n    tag_174:\n        /* \"#utility.yul\":4429:4453   */\n      tag_246\n        /* \"#utility.yul\":4447:4452   */\n      dup2\n        /* \"#utility.yul\":4429:4453   */\n      tag_173\n      jump\t// in\n    tag_246:\n        /* \"#utility.yul\":4424:4427   */\n      dup3\n        /* \"#utility.yul\":4417:4454   */\n      mstore\n        /* \"#utility.yul\":4342:4460   */\n      pop\n      pop\n      jump\t// out\n        /* \"#utility.yul\":4466:4688   */\n    tag_50:\n        /* \"#utility.yul\":4559:4563   */\n      0x00\n        /* \"#utility.yul\":4597:4599   */\n      0x20\n        /* \"#utility.yul\":4586:4595   */\n      dup3\n        /* \"#utility.yul\":4582:4600   */\n      add\n        /* \"#utility.yul\":4574:4600   */\n      swap1\n      pop\n        /* \"#utility.yul\":4610:4681   */\n      tag_248\n        /* \"#utility.yul\":4678:4679   */\n      0x00\n        /* \"#utility.yul\":4667:4676   */\n      dup4\n        /* \"#utility.yul\":4663:4680   */\n      add\n        /* \"#utility.yul\":4654:4660   */\n      dup5\n        /* \"#utility.yul\":4610:4681   */\n      tag_174\n      jump\t// in\n    tag_248:\n        /* \"#utility.yul\":4466:4688   */\n      swap3\n      swap2\n      pop\n      pop\n      jump\t// out\n        /* \"#utility.yul\":4694:4771   */\n    tag_175:\n        /* \"#utility.yul\":4731:4738   */\n      0x00\n        /* \"#utility.yul\":4760:4765   */\n      dup2\n        /* \"#utility.yul\":4749:4765   */\n      swap1\n      pop\n        /* \"#utility.yul\":4694:4771   */\n      swap2\n      swap1\n      pop\n      jump\t// out\n        /* \"#utility.yul\":4777:4899   */\n    tag_176:\n        /* \"#utility.yul\":4850:4874   */\n      tag_251\n        /* \"#utility.yul\":4868:4873   */\n      dup2\n        /* \"#utility.yul\":4850:4874   */\n      tag_175\n      jump\t// in\n    tag_251:\n        /* \"#utility.yul\":4843:4848   */\n      dup2\n        /* \"#utility.yul\":4840:4875   */\n      eq\n        /* \"#utility.yul\":4830:4893   */\n      tag_252\n      jumpi\n        /* \"#utility.yul\":4889:4890   */\n      0x00\n        /* \"#utility.yul\":4886:4887   */\n      dup1\n        /* \"#utility.yul\":4879:4891   */\n      revert\n        /* \"#utility.yul\":4830:4893   */\n    tag_252:\n        /* \"#utility.yul\":4777:4899   */\n      pop\n      jump\t// out\n        /* \"#utility.yul\":4905:5044   */\n    tag_177:\n        /* \"#utility.yul\":4951:4956   */\n      0x00\n        /* \"#utility.yul\":4989:4995   */\n      dup2\n        /* \"#utility.yul\":4976:4996   */\n      calldataload\n        /* \"#utility.yul\":4967:4996   */\n      swap1\n      pop\n        /* \"#utility.yul\":5005:5038   */\n      tag_254\n        /* \"#utility.yul\":5032:5037   */\n      dup2\n        /* \"#utility.yul\":5005:5038   */\n      tag_176\n      jump\t// in\n    tag_254:\n        /* \"#utility.yul\":4905:5044   */\n      swap3\n      swap2\n      pop\n      pop\n      jump\t// out\n        /* \"#utility.yul\":5050:5524   */\n    tag_54:\n        /* \"#utility.yul\":5118:5124   */\n      0x00\n        /* \"#utility.yul\":5126:5132   */\n      dup1\n        /* \"#utility.yul\":5175:5177   */\n      0x40\n        /* \"#utility.yul\":5163:5172   */\n      dup4\n        /* \"#utility.yul\":5154:5161   */\n      dup6\n        /* \"#utility.yul\":5150:5173   */\n      sub\n        /* \"#utility.yul\":5146:5178   */\n      slt\n        /* \"#utility.yul\":5143:5262   */\n      iszero\n      tag_256\n      jumpi\n        /* \"#utility.yul\":5181:5260   */\n      tag_257\n      tag_159\n      jump\t// in\n    tag_257:\n        /* \"#utility.yul\":5143:5262   */\n    tag_256:\n        /* \"#utility.yul\":5301:5302   */\n      0x00\n        /* \"#utility.yul\":5326:5379   */\n      tag_258\n        /* \"#utility.yul\":5371:5378   */\n      dup6\n        /* \"#utility.yul\":5362:5368   */\n      dup3\n        /* \"#utility.yul\":5351:5360   */\n      dup7\n        /* \"#utility.yul\":5347:5369   */\n      add\n        /* \"#utility.yul\":5326:5379   */\n      tag_177\n      jump\t// in\n    tag_258:\n        /* \"#utility.yul\":5316:5379   */\n      swap3\n      pop\n        /* \"#utility.yul\":5272:5389   */\n      pop\n        /* \"#utility.yul\":5428:5430   */\n      0x20\n        /* \"#utility.yul\":5454:5507   */\n      tag_259\n        /* \"#utility.yul\":5499:5506   */\n      dup6\n        /* \"#utility.yul\":5490:5496   */\n      dup3\n        /* \"#utility.yul\":5479:5488   */\n      dup7\n        /* \"#utility.yul\":5475:5497   */\n      add\n        /* \"#utility.yul\":5454:5507   */\n      tag_162\n      jump\t// in\n    tag_259:\n        /* \"#utility.yul\":5444:5507   */\n      swap2\n      pop\n        /* \"#utility.yul\":5399:5517   */\n      pop\n        /* \"#utility.yul\":5050:5524   */\n      swap3\n      pop\n      swap3\n      swap1\n      pop\n      jump\t// out\n        /* \"#utility.yul\":5530:5648   */\n    tag_178:\n        /* \"#utility.yul\":5617:5641   */\n      tag_261\n        /* \"#utility.yul\":5635:5640   */\n      dup2\n        /* \"#utility.yul\":5617:5641   */\n      tag_175\n      jump\t// in\n    tag_261:\n        /* \"#utility.yul\":5612:5615   */\n      dup3\n        /* \"#utility.yul\":5605:5642   */\n      mstore\n        /* \"#utility.yul\":5530:5648   */\n      pop\n      pop\n      jump\t// out\n        /* \"#utility.yul\":5654:5876   */\n    tag_63:\n        /* \"#utility.yul\":5747:5751   */\n      0x00\n        /* \"#utility.yul\":5785:5787   */\n      0x20\n        /* \"#utility.yul\":5774:5783   */\n      dup3\n        /* \"#utility.yul\":5770:5788   */\n      add\n        /* \"#utility.yul\":5762:5788   */\n      swap1\n      pop\n        /* \"#utility.yul\":5798:5869   */\n      tag_263\n        /* \"#utility.yul\":5866:5867   */\n      0x00\n        /* \"#utility.yul\":5855:5864   */\n      dup4\n        /* \"#utility.yul\":5851:5868   */\n      add\n        /* \"#utility.yul\":5842:5848   */\n      dup5\n        /* \"#utility.yul\":5798:5869   */\n      tag_178\n      jump\t// in\n    tag_263:\n        /* \"#utility.yul\":5654:5876   */\n      swap3\n      swap2\n      pop\n      pop\n      jump\t// out\n        /* \"#utility.yul\":5882:6051   */\n    tag_179:\n        /* \"#utility.yul\":5966:5977   */\n      0x00\n        /* \"#utility.yul\":6000:6006   */\n      dup3\n        /* \"#utility.yul\":5995:5998   */\n      dup3\n        /* \"#utility.yul\":5988:6007   */\n      mstore\n        /* \"#utility.yul\":6040:6044   */\n      0x20\n        /* \"#utility.yul\":6035:6038   */\n      dup3\n        /* \"#utility.yul\":6031:6045   */\n      add\n        /* \"#utility.yul\":6016:6045   */\n      swap1\n      pop\n        /* \"#utility.yul\":5882:6051   */\n      swap3\n      swap2\n      pop\n      pop\n      jump\t// out\n        /* \"#utility.yul\":6057:6238   */\n    tag_180:\n        /* \"#utility.yul\":6197:6230   */\n      0x4f6e6c7920565246436f6f7264696e61746f722063616e2066756c66696c6c00\n        /* \"#utility.yul\":6193:6194   */\n      0x00\n        /* \"#utility.yul\":6185:6191   */\n      dup3\n        /* \"#utility.yul\":6181:6195   */\n      add\n        /* \"#utility.yul\":6174:6231   */\n      mstore\n        /* \"#utility.yul\":6057:6238   */\n      pop\n      jump\t// out\n        /* \"#utility.yul\":6244:6610   */\n    tag_181:\n        /* \"#utility.yul\":6386:6389   */\n      0x00\n        /* \"#utility.yul\":6407:6474   */\n      tag_267\n        /* \"#utility.yul\":6471:6473   */\n      0x1f\n        /* \"#utility.yul\":6466:6469   */\n      dup4\n        /* \"#utility.yul\":6407:6474   */\n      tag_179\n      jump\t// in\n    tag_267:\n        /* \"#utility.yul\":6400:6474   */\n      swap2\n      pop\n        /* \"#utility.yul\":6483:6576   */\n      tag_268\n        /* \"#utility.yul\":6572:6575   */\n      dup3\n        /* \"#utility.yul\":6483:6576   */\n      tag_180\n      jump\t// in\n    tag_268:\n        /* \"#utility.yul\":6601:6603   */\n      0x20\n        /* \"#utility.yul\":6596:6599   */\n      dup3\n        /* \"#utility.yul\":6592:6604   */\n      add\n        /* \"#utility.yul\":6585:6604   */\n      swap1\n      pop\n        /* \"#utility.yul\":6244:6610   */\n      swap2\n      swap1\n      pop\n      jump\t// out\n        /* \"#utility.yul\":6616:7035   */\n    tag_87:\n        /* \"#utility.yul\":6782:6786   */\n      0x00\n        /* \"#utility.yul\":6820:6822   */\n      0x20\n        /* \"#utility.yul\":6809:6818   */\n      dup3\n        /* \"#utility.yul\":6805:6823   */\n      add\n        /* \"#utility.yul\":6797:6823   */\n      swap1\n      pop\n        /* \"#utility.yul\":6869:6878   */\n      dup2\n        /* \"#utility.yul\":6863:6867   */\n      dup2\n        /* \"#utility.yul\":6859:6879   */\n      sub\n        /* \"#utility.yul\":6855:6856   */\n      0x00\n        /* \"#utility.yul\":6844:6853   */\n      dup4\n        /* \"#utility.yul\":6840:6857   */\n      add\n        /* \"#utility.yul\":6833:6880   */\n      mstore\n        /* \"#utility.yul\":6897:7028   */\n      tag_270\n        /* \"#utility.yul\":7023:7027   */\n      dup2\n        /* \"#utility.yul\":6897:7028   */\n      tag_181\n      jump\t// in\n    tag_270:\n        /* \"#utility.yul\":6889:7028   */\n      swap1\n      pop\n        /* \"#utility.yul\":6616:7035   */\n      swap2\n      swap1\n      pop\n      jump\t// out\n        /* \"#utility.yul\":7041:7221   */\n    tag_182:\n        /* \"#utility.yul\":7089:7166   */\n      0x4e487b7100000000000000000000000000000000000000000000000000000000\n        /* \"#utility.yul\":7086:7087   */\n      0x00\n        /* \"#utility.yul\":7079:7167   */\n      mstore\n        /* \"#utility.yul\":7186:7190   */\n      0x12\n        /* \"#utility.yul\":7183:7184   */\n      0x04\n        /* \"#utility.yul\":7176:7191   */\n      mstore\n        /* \"#utility.yul\":7210:7214   */\n      0x24\n        /* \"#utility.yul\":7207:7208   */\n      0x00\n        /* \"#utility.yul\":7200:7215   */\n      revert\n        /* \"#utility.yul\":7227:7403   */\n    tag_92:\n        /* \"#utility.yul\":7259:7260   */\n      0x00\n        /* \"#utility.yul\":7276:7296   */\n      tag_273\n        /* \"#utility.yul\":7294:7295   */\n      dup3\n        /* \"#utility.yul\":7276:7296   */\n      tag_156\n      jump\t// in\n    tag_273:\n        /* \"#utility.yul\":7271:7296   */\n      swap2\n      pop\n        /* \"#utility.yul\":7310:7330   */\n      tag_274\n        /* \"#utility.yul\":7328:7329   */\n      dup4\n        /* \"#utility.yul\":7310:7330   */\n      tag_156\n      jump\t// in\n    tag_274:\n        /* \"#utility.yul\":7305:7330   */\n      swap3\n      pop\n        /* \"#utility.yul\":7349:7350   */\n      dup3\n        /* \"#utility.yul\":7339:7374   */\n      tag_275\n      jumpi\n        /* \"#utility.yul\":7354:7372   */\n      tag_276\n      tag_182\n      jump\t// in\n    tag_276:\n        /* \"#utility.yul\":7339:7374   */\n    tag_275:\n        /* \"#utility.yul\":7395:7396   */\n      dup3\n        /* \"#utility.yul\":7392:7393   */\n      dup3\n        /* \"#utility.yul\":7388:7397   */\n      mod\n        /* \"#utility.yul\":7383:7397   */\n      swap1\n      pop\n        /* \"#utility.yul\":7227:7403   */\n      swap3\n      swap2\n      pop\n      pop\n      jump\t// out\n        /* \"#utility.yul\":7409:7589   */\n    tag_95:\n        /* \"#utility.yul\":7457:7534   */\n      0x4e487b7100000000000000000000000000000000000000000000000000000000\n        /* \"#utility.yul\":7454:7455   */\n      0x00\n        /* \"#utility.yul\":7447:7535   */\n      mstore\n        /* \"#utility.yul\":7554:7558   */\n      0x32\n        /* \"#utility.yul\":7551:7552   */\n      0x04\n        /* \"#utility.yul\":7544:7559   */\n      mstore\n        /* \"#utility.yul\":7578:7582   */\n      0x24\n        /* \"#utility.yul\":7575:7576   */\n      0x00\n        /* \"#utility.yul\":7568:7583   */\n      revert\n        /* \"#utility.yul\":7595:7775   */\n    tag_183:\n        /* \"#utility.yul\":7643:7720   */\n      0x4e487b7100000000000000000000000000000000000000000000000000000000\n        /* \"#utility.yul\":7640:7641   */\n      0x00\n        /* \"#utility.yul\":7633:7721   */\n      mstore\n        /* \"#utility.yul\":7740:7744   */\n      0x11\n        /* \"#utility.yul\":7737:7738   */\n      0x04\n        /* \"#utility.yul\":7730:7745   */\n      mstore\n        /* \"#utility.yul\":7764:7768   */\n      0x24\n        /* \"#utility.yul\":7761:7762   */\n      0x00\n        /* \"#utility.yul\":7754:7769   */\n      revert\n        /* \"#utility.yul\":7781:8014   */\n    tag_103:\n        /* \"#utility.yul\":7820:7823   */\n      0x00\n        /* \"#utility.yul\":7843:7867   */\n      tag_280\n        /* \"#utility.yul\":7861:7866   */\n      dup3\n        /* \"#utility.yul\":7843:7867   */\n      tag_156\n      jump\t// in\n    tag_280:\n        /* \"#utility.yul\":7834:7867   */\n      swap2\n      pop\n        /* \"#utility.yul\":7889:7955   */\n      0xffffffffffffffffffffffffffffffffffffffffffffffffffffffffffffffff\n        /* \"#utility.yul\":7882:7887   */\n      dup3\n        /* \"#utility.yul\":7879:7956   */\n      eq\n        /* \"#utility.yul\":7876:7979   */\n      iszero\n      tag_281\n      jumpi\n        /* \"#utility.yul\":7959:7977   */\n      tag_282\n      tag_183\n      jump\t// in\n    tag_282:\n        /* \"#utility.yul\":7876:7979   */\n    tag_281:\n        /* \"#utility.yul\":8006:8007   */\n      0x01\n        /* \"#utility.yul\":7999:8004   */\n      dup3\n        /* \"#utility.yul\":7995:8008   */\n      add\n        /* \"#utility.yul\":7988:8008   */\n      swap1\n      pop\n        /* \"#utility.yul\":7781:8014   */\n      swap2\n      swap1\n      pop\n      jump\t// out\n        /* \"#utility.yul\":8020:8200   */\n    tag_106:\n        /* \"#utility.yul\":8068:8145   */\n      0x4e487b7100000000000000000000000000000000000000000000000000000000\n        /* \"#utility.yul\":8065:8066   */\n      0x00\n        /* \"#utility.yul\":8058:8146   */\n      mstore\n        /* \"#utility.yul\":8165:8169   */\n      0x41\n        /* \"#utility.yul\":8162:8163   */\n      0x04\n        /* \"#utility.yul\":8155:8170   */\n      mstore\n        /* \"#utility.yul\":8189:8193   */\n      0x24\n        /* \"#utility.yul\":8186:8187   */\n      0x00\n        /* \"#utility.yul\":8179:8194   */\n      revert\n        /* \"#utility.yul\":8206:8349   */\n    tag_184:\n        /* \"#utility.yul\":8263:8268   */\n      0x00\n        /* \"#utility.yul\":8294:8300   */\n      dup2\n        /* \"#utility.yul\":8288:8301   */\n      mload\n        /* \"#utility.yul\":8279:8301   */\n      swap1\n      pop\n        /* \"#utility.yul\":8310:8343   */\n      tag_285\n        /* \"#utility.yul\":8337:8342   */\n      dup2\n        /* \"#utility.yul\":8310:8343   */\n      tag_161\n      jump\t// in\n    tag_285:\n        /* \"#utility.yul\":8206:8349   */\n      swap3\n      swap2\n      pop\n      pop\n      jump\t// out\n        /* \"#utility.yul\":8355:8706   */\n    tag_115:\n        /* \"#utility.yul\":8425:8431   */\n      0x00\n        /* \"#utility.yul\":8474:8476   */\n      0x20\n        /* \"#utility.yul\":8462:8471   */\n      dup3\n        /* \"#utility.yul\":8453:8460   */\n      dup5\n        /* \"#utility.yul\":8449:8472   */\n      sub\n        /* \"#utility.yul\":8445:8477   */\n      slt\n        /* \"#utility.yul\":8442:8561   */\n      iszero\n      tag_287\n      jumpi\n        /* \"#utility.yul\":8480:8559   */\n      tag_288\n      tag_159\n      jump\t// in\n    tag_288:\n        /* \"#utility.yul\":8442:8561   */\n    tag_287:\n        /* \"#utility.yul\":8600:8601   */\n      0x00\n        /* \"#utility.yul\":8625:8689   */\n      tag_289\n        /* \"#utility.yul\":8681:8688   */\n      dup5\n        /* \"#utility.yul\":8672:8678   */\n      dup3\n        /* \"#utility.yul\":8661:8670   */\n      dup6\n        /* \"#utility.yul\":8657:8679   */\n      add\n        /* \"#utility.yul\":8625:8689   */\n      tag_184\n      jump\t// in\n    tag_289:\n        /* \"#utility.yul\":8615:8689   */\n      swap2\n      pop\n        /* \"#utility.yul\":8571:8699   */\n      pop\n        /* \"#utility.yul\":8355:8706   */\n      swap3\n      swap2\n      pop\n      pop\n      jump\t// out\n        /* \"#utility.yul\":8712:8889   */\n    tag_185:\n        /* \"#utility.yul\":8852:8881   */\n      0x4e6f7420656e6f756768204c494e4b20696e20636f6e74726163740000000000\n        /* \"#utility.yul\":8848:8849   */\n      0x00\n        /* \"#utility.yul\":8840:8846   */\n      dup3\n        /* \"#utility.yul\":8836:8850   */\n      add\n        /* \"#utility.yul\":8829:8882   */\n      mstore\n        /* \"#utility.yul\":8712:8889   */\n      pop\n      jump\t// out\n        /* \"#utility.yul\":8895:9261   */\n    tag_186:\n        /* \"#utility.yul\":9037:9040   */\n      0x00\n        /* \"#utility.yul\":9058:9125   */\n      tag_292\n        /* \"#utility.yul\":9122:9124   */\n      0x1b\n        /* \"#utility.yul\":9117:9120   */\n      dup4\n        /* \"#utility.yul\":9058:9125   */\n      tag_179\n      jump\t// in\n    tag_292:\n        /* \"#utility.yul\":9051:9125   */\n      swap2\n      pop\n        /* \"#utility.yul\":9134:9227   */\n      tag_293\n        /* \"#utility.yul\":9223:9226   */\n      dup3\n        /* \"#utility.yul\":9134:9227   */\n      tag_185\n      jump\t// in\n    tag_293:\n        /* \"#utility.yul\":9252:9254   */\n      0x20\n        /* \"#utility.yul\":9247:9250   */\n      dup3\n        /* \"#utility.yul\":9243:9255   */\n      add\n        /* \"#utility.yul\":9236:9255   */\n      swap1\n      pop\n        /* \"#utility.yul\":8895:9261   */\n      swap2\n      swap1\n      pop\n      jump\t// out\n        /* \"#utility.yul\":9267:9686   */\n    tag_118:\n        /* \"#utility.yul\":9433:9437   */\n      0x00\n        /* \"#utility.yul\":9471:9473   */\n      0x20\n        /* \"#utility.yul\":9460:9469   */\n      dup3\n        /* \"#utility.yul\":9456:9474   */\n      add\n        /* \"#utility.yul\":9448:9474   */\n      swap1\n      pop\n        /* \"#utility.yul\":9520:9529   */\n      dup2\n        /* \"#utility.yul\":9514:9518   */\n      dup2\n        /* \"#utility.yul\":9510:9530   */\n      sub\n        /* \"#utility.yul\":9506:9507   */\n      0x00\n        /* \"#utility.yul\":9495:9504   */\n      dup4\n        /* \"#utility.yul\":9491:9508   */\n      add\n        /* \"#utility.yul\":9484:9531   */\n      mstore\n        /* \"#utility.yul\":9548:9679   */\n      tag_295\n        /* \"#utility.yul\":9674:9678   */\n      dup2\n        /* \"#utility.yul\":9548:9679   */\n      tag_186\n      jump\t// in\n    tag_295:\n        /* \"#utility.yul\":9540:9679   */\n      swap1\n      pop\n        /* \"#utility.yul\":9267:9686   */\n      swap2\n      swap1\n      pop\n      jump\t// out\n        /* \"#utility.yul\":9692:10024   */\n    tag_130:\n        /* \"#utility.yul\":9813:9817   */\n      0x00\n        /* \"#utility.yul\":9851:9853   */\n      0x40\n        /* \"#utility.yul\":9840:9849   */\n      dup3\n        /* \"#utility.yul\":9836:9854   */\n      add\n        /* \"#utility.yul\":9828:9854   */\n      swap1\n      pop\n        /* \"#utility.yul\":9864:9935   */\n      tag_297\n        /* \"#utility.yul\":9932:9933   */\n      0x00\n        /* \"#utility.yul\":9921:9930   */\n      dup4\n        /* \"#utility.yul\":9917:9934   */\n      add\n        /* \"#utility.yul\":9908:9914   */\n      dup6\n        /* \"#utility.yul\":9864:9935   */\n      tag_178\n      jump\t// in\n    tag_297:\n        /* \"#utility.yul\":9945:10017   */\n      tag_298\n        /* \"#utility.yul\":10013:10015   */\n      0x20\n        /* \"#utility.yul\":10002:10011   */\n      dup4\n        /* \"#utility.yul\":9998:10016   */\n      add\n        /* \"#utility.yul\":9989:9995   */\n      dup5\n        /* \"#utility.yul\":9945:10017   */\n      tag_157\n      jump\t// in\n    tag_298:\n        /* \"#utility.yul\":9692:10024   */\n      swap4\n      swap3\n      pop\n      pop\n      pop\n      jump\t// out\n        /* \"#utility.yul\":10030:10128   */\n    tag_187:\n        /* \"#utility.yul\":10081:10087   */\n      0x00\n        /* \"#utility.yul\":10115:10120   */\n      dup2\n        /* \"#utility.yul\":10109:10121   */\n      mload\n        /* \"#utility.yul\":10099:10121   */\n      swap1\n      pop\n        /* \"#utility.yul\":10030:10128   */\n      swap2\n      swap1\n      pop\n      jump\t// out\n        /* \"#utility.yul\":10134:10302   */\n    tag_188:\n        /* \"#utility.yul\":10217:10228   */\n      0x00\n        /* \"#utility.yul\":10251:10257   */\n      dup3\n        /* \"#utility.yul\":10246:10249   */\n      dup3\n        /* \"#utility.yul\":10239:10258   */\n      mstore\n        /* \"#utility.yul\":10291:10295   */\n      0x20\n        /* \"#utility.yul\":10286:10289   */\n      dup3\n        /* \"#utility.yul\":10282:10296   */\n      add\n        /* \"#utility.yul\":10267:10296   */\n      swap1\n      pop\n        /* \"#utility.yul\":10134:10302   */\n      swap3\n      swap2\n      pop\n      pop\n      jump\t// out\n        /* \"#utility.yul\":10308:10615   */\n    tag_189:\n        /* \"#utility.yul\":10376:10377   */\n      0x00\n        /* \"#utility.yul\":10386:10499   */\n    tag_302:\n        /* \"#utility.yul\":10400:10406   */\n      dup4\n        /* \"#utility.yul\":10397:10398   */\n      dup2\n        /* \"#utility.yul\":10394:10407   */\n      lt\n        /* \"#utility.yul\":10386:10499   */\n      iszero\n      tag_304\n      jumpi\n        /* \"#utility.yul\":10485:10486   */\n      dup1\n        /* \"#utility.yul\":10480:10483   */\n      dup3\n        /* \"#utility.yul\":10476:10487   */\n      add\n        /* \"#utility.yul\":10470:10488   */\n      mload\n        /* \"#utility.yul\":10466:10467   */\n      dup2\n        /* \"#utility.yul\":10461:10464   */\n      dup5\n        /* \"#utility.yul\":10457:10468   */\n      add\n        /* \"#utility.yul\":10450:10489   */\n      mstore\n        /* \"#utility.yul\":10422:10424   */\n      0x20\n        /* \"#utility.yul\":10419:10420   */\n      dup2\n        /* \"#utility.yul\":10415:10425   */\n      add\n        /* \"#utility.yul\":10410:10425   */\n      swap1\n      pop\n        /* \"#utility.yul\":10386:10499   */\n      jump(tag_302)\n    tag_304:\n        /* \"#utility.yul\":10517:10523   */\n      dup4\n        /* \"#utility.yul\":10514:10515   */\n      dup2\n        /* \"#utility.yul\":10511:10524   */\n      gt\n        /* \"#utility.yul\":10508:10609   */\n      iszero\n      tag_305\n      jumpi\n        /* \"#utility.yul\":10597:10598   */\n      0x00\n        /* \"#utility.yul\":10588:10594   */\n      dup5\n        /* \"#utility.yul\":10583:10586   */\n      dup5\n        /* \"#utility.yul\":10579:10595   */\n      add\n        /* \"#utility.yul\":10572:10599   */\n      mstore\n        /* \"#utility.yul\":10508:10609   */\n    tag_305:\n        /* \"#utility.yul\":10357:10615   */\n      pop\n        /* \"#utility.yul\":10308:10615   */\n      pop\n      pop\n      pop\n      jump\t// out\n        /* \"#utility.yul\":10621:10723   */\n    tag_190:\n        /* \"#utility.yul\":10662:10668   */\n      0x00\n        /* \"#utility.yul\":10713:10715   */\n      0x1f\n        /* \"#utility.yul\":10709:10716   */\n      not\n        /* \"#utility.yul\":10704:10706   */\n      0x1f\n        /* \"#utility.yul\":10697:10702   */\n      dup4\n        /* \"#utility.yul\":10693:10707   */\n      add\n        /* \"#utility.yul\":10689:10717   */\n      and\n        /* \"#utility.yul\":10679:10717   */\n      swap1\n      pop\n        /* \"#utility.yul\":10621:10723   */\n      swap2\n      swap1\n      pop\n      jump\t// out\n        /* \"#utility.yul\":10729:11089   */\n    tag_191:\n        /* \"#utility.yul\":10815:10818   */\n      0x00\n        /* \"#utility.yul\":10843:10881   */\n      tag_308\n        /* \"#utility.yul\":10875:10880   */\n      dup3\n        /* \"#utility.yul\":10843:10881   */\n      tag_187\n      jump\t// in\n    tag_308:\n        /* \"#utility.yul\":10897:10967   */\n      tag_309\n        /* \"#utility.yul\":10960:10966   */\n      dup2\n        /* \"#utility.yul\":10955:10958   */\n      dup6\n        /* \"#utility.yul\":10897:10967   */\n      tag_188\n      jump\t// in\n    tag_309:\n        /* \"#utility.yul\":10890:10967   */\n      swap4\n      pop\n        /* \"#utility.yul\":10976:11028   */\n      tag_310\n        /* \"#utility.yul\":11021:11027   */\n      dup2\n        /* \"#utility.yul\":11016:11019   */\n      dup6\n        /* \"#utility.yul\":11009:11013   */\n      0x20\n        /* \"#utility.yul\":11002:11007   */\n      dup7\n        /* \"#utility.yul\":10998:11014   */\n      add\n        /* \"#utility.yul\":10976:11028   */\n      tag_189\n      jump\t// in\n    tag_310:\n        /* \"#utility.yul\":11053:11082   */\n      tag_311\n        /* \"#utility.yul\":11075:11081   */\n      dup2\n        /* \"#utility.yul\":11053:11082   */\n      tag_190\n      jump\t// in\n    tag_311:\n        /* \"#utility.yul\":11048:11051   */\n      dup5\n        /* \"#utility.yul\":11044:11083   */\n      add\n        /* \"#utility.yul\":11037:11083   */\n      swap2\n      pop\n        /* \"#utility.yul\":10819:11089   */\n      pop\n        /* \"#utility.yul\":10729:11089   */\n      swap3\n      swap2\n      pop\n      pop\n      jump\t// out\n        /* \"#utility.yul\":11095:11624   */\n    tag_132:\n        /* \"#utility.yul\":11262:11266   */\n      0x00\n        /* \"#utility.yul\":11300:11302   */\n      0x60\n        /* \"#utility.yul\":11289:11298   */\n      dup3\n        /* \"#utility.yul\":11285:11303   */\n      add\n        /* \"#utility.yul\":11277:11303   */\n      swap1\n      pop\n        /* \"#utility.yul\":11313:11384   */\n      tag_313\n        /* \"#utility.yul\":11381:11382   */\n      0x00\n        /* \"#utility.yul\":11370:11379   */\n      dup4\n        /* \"#utility.yul\":11366:11383   */\n      add\n        /* \"#utility.yul\":11357:11363   */\n      dup7\n        /* \"#utility.yul\":11313:11384   */\n      tag_174\n      jump\t// in\n    tag_313:\n        /* \"#utility.yul\":11394:11466   */\n      tag_314\n        /* \"#utility.yul\":11462:11464   */\n      0x20\n        /* \"#utility.yul\":11451:11460   */\n      dup4\n        /* \"#utility.yul\":11447:11465   */\n      add\n        /* \"#utility.yul\":11438:11444   */\n      dup6\n        /* \"#utility.yul\":11394:11466   */\n      tag_157\n      jump\t// in\n    tag_314:\n        /* \"#utility.yul\":11513:11522   */\n      dup2\n        /* \"#utility.yul\":11507:11511   */\n      dup2\n        /* \"#utility.yul\":11503:11523   */\n      sub\n        /* \"#utility.yul\":11498:11500   */\n      0x40\n        /* \"#utility.yul\":11487:11496   */\n      dup4\n        /* \"#utility.yul\":11483:11501   */\n      add\n        /* \"#utility.yul\":11476:11524   */\n      mstore\n        /* \"#utility.yul\":11541:11617   */\n      tag_315\n        /* \"#utility.yul\":11612:11616   */\n      dup2\n        /* \"#utility.yul\":11603:11609   */\n      dup5\n        /* \"#utility.yul\":11541:11617   */\n      tag_191\n      jump\t// in\n    tag_315:\n        /* \"#utility.yul\":11533:11617   */\n      swap1\n      pop\n        /* \"#utility.yul\":11095:11624   */\n      swap5\n      swap4\n      pop\n      pop\n      pop\n      pop\n      jump\t// out\n        /* \"#utility.yul\":11630:11720   */\n    tag_192:\n        /* \"#utility.yul\":11664:11671   */\n      0x00\n        /* \"#utility.yul\":11707:11712   */\n      dup2\n        /* \"#utility.yul\":11700:11713   */\n      iszero\n        /* \"#utility.yul\":11693:11714   */\n      iszero\n        /* \"#utility.yul\":11682:11714   */\n      swap1\n      pop\n        /* \"#utility.yul\":11630:11720   */\n      swap2\n      swap1\n      pop\n      jump\t// out\n        /* \"#utility.yul\":11726:11842   */\n    tag_193:\n        /* \"#utility.yul\":11796:11817   */\n      tag_318\n        /* \"#utility.yul\":11811:11816   */\n      dup2\n        /* \"#utility.yul\":11796:11817   */\n      tag_192\n      jump\t// in\n    tag_318:\n        /* \"#utility.yul\":11789:11794   */\n      dup2\n        /* \"#utility.yul\":11786:11818   */\n      eq\n        /* \"#utility.yul\":11776:11836   */\n      tag_319\n      jumpi\n        /* \"#utility.yul\":11832:11833   */\n      0x00\n        /* \"#utility.yul\":11829:11830   */\n      dup1\n        /* \"#utility.yul\":11822:11834   */\n      revert\n        /* \"#utility.yul\":11776:11836   */\n    tag_319:\n        /* \"#utility.yul\":11726:11842   */\n      pop\n      jump\t// out\n        /* \"#utility.yul\":11848:11985   */\n    tag_194:\n        /* \"#utility.yul\":11902:11907   */\n      0x00\n        /* \"#utility.yul\":11933:11939   */\n      dup2\n        /* \"#utility.yul\":11927:11940   */\n      mload\n        /* \"#utility.yul\":11918:11940   */\n      swap1\n      pop\n        /* \"#utility.yul\":11949:11979   */\n      tag_321\n        /* \"#utility.yul\":11973:11978   */\n      dup2\n        /* \"#utility.yul\":11949:11979   */\n      tag_193\n      jump\t// in\n    tag_321:\n        /* \"#utility.yul\":11848:11985   */\n      swap3\n      swap2\n      pop\n      pop\n      jump\t// out\n        /* \"#utility.yul\":11991:12336   */\n    tag_136:\n        /* \"#utility.yul\":12058:12064   */\n      0x00\n        /* \"#utility.yul\":12107:12109   */\n      0x20\n        /* \"#utility.yul\":12095:12104   */\n      dup3\n        /* \"#utility.yul\":12086:12093   */\n      dup5\n        /* \"#utility.yul\":12082:12105   */\n      sub\n        /* \"#utility.yul\":12078:12110   */\n      slt\n        /* \"#utility.yul\":12075:12194   */\n      iszero\n      tag_323\n      jumpi\n        /* \"#utility.yul\":12113:12192   */\n      tag_324\n      tag_159\n      jump\t// in\n    tag_324:\n        /* \"#utility.yul\":12075:12194   */\n    tag_323:\n        /* \"#utility.yul\":12233:12234   */\n      0x00\n        /* \"#utility.yul\":12258:12319   */\n      tag_325\n        /* \"#utility.yul\":12311:12318   */\n      dup5\n        /* \"#utility.yul\":12302:12308   */\n      dup3\n        /* \"#utility.yul\":12291:12300   */\n      dup6\n        /* \"#utility.yul\":12287:12309   */\n      add\n        /* \"#utility.yul\":12258:12319   */\n      tag_194\n      jump\t// in\n    tag_325:\n        /* \"#utility.yul\":12248:12319   */\n      swap2\n      pop\n        /* \"#utility.yul\":12204:12329   */\n      pop\n        /* \"#utility.yul\":11991:12336   */\n      swap3\n      swap2\n      pop\n      pop\n      jump\t// out\n        /* \"#utility.yul\":12342:12647   */\n    tag_140:\n        /* \"#utility.yul\":12382:12385   */\n      0x00\n        /* \"#utility.yul\":12401:12421   */\n      tag_327\n        /* \"#utility.yul\":12419:12420   */\n      dup3\n        /* \"#utility.yul\":12401:12421   */\n      tag_156\n      jump\t// in\n    tag_327:\n        /* \"#utility.yul\":12396:12421   */\n      swap2\n      pop\n        /* \"#utility.yul\":12435:12455   */\n      tag_328\n        /* \"#utility.yul\":12453:12454   */\n      dup4\n        /* \"#utility.yul\":12435:12455   */\n      tag_156\n      jump\t// in\n    tag_328:\n        /* \"#utility.yul\":12430:12455   */\n      swap3\n      pop\n        /* \"#utility.yul\":12589:12590   */\n      dup3\n        /* \"#utility.yul\":12521:12587   */\n      0xffffffffffffffffffffffffffffffffffffffffffffffffffffffffffffffff\n        /* \"#utility.yul\":12517:12591   */\n      sub\n        /* \"#utility.yul\":12514:12515   */\n      dup3\n        /* \"#utility.yul\":12511:12592   */\n      gt\n        /* \"#utility.yul\":12508:12615   */\n      iszero\n      tag_329\n      jumpi\n        /* \"#utility.yul\":12595:12613   */\n      tag_330\n      tag_183\n      jump\t// in\n    tag_330:\n        /* \"#utility.yul\":12508:12615   */\n    tag_329:\n        /* \"#utility.yul\":12639:12640   */\n      dup3\n        /* \"#utility.yul\":12636:12637   */\n      dup3\n        /* \"#utility.yul\":12632:12641   */\n      add\n        /* \"#utility.yul\":12625:12641   */\n      swap1\n      pop\n        /* \"#utility.yul\":12342:12647   */\n      swap3\n      swap2\n      pop\n      pop\n      jump\t// out\n        /* \"#utility.yul\":12653:13206   */\n    tag_145:\n        /* \"#utility.yul\":12830:12834   */\n      0x00\n        /* \"#utility.yul\":12868:12871   */\n      0x80\n        /* \"#utility.yul\":12857:12866   */\n      dup3\n        /* \"#utility.yul\":12853:12872   */\n      add\n        /* \"#utility.yul\":12845:12872   */\n      swap1\n      pop\n        /* \"#utility.yul\":12882:12953   */\n      tag_332\n        /* \"#utility.yul\":12950:12951   */\n      0x00\n        /* \"#utility.yul\":12939:12948   */\n      dup4\n        /* \"#utility.yul\":12935:12952   */\n      add\n        /* \"#utility.yul\":12926:12932   */\n      dup8\n        /* \"#utility.yul\":12882:12953   */\n      tag_178\n      jump\t// in\n    tag_332:\n        /* \"#utility.yul\":12963:13035   */\n      tag_333\n        /* \"#utility.yul\":13031:13033   */\n      0x20\n        /* \"#utility.yul\":13020:13029   */\n      dup4\n        /* \"#utility.yul\":13016:13034   */\n      add\n        /* \"#utility.yul\":13007:13013   */\n      dup7\n        /* \"#utility.yul\":12963:13035   */\n      tag_157\n      jump\t// in\n    tag_333:\n        /* \"#utility.yul\":13045:13117   */\n      tag_334\n        /* \"#utility.yul\":13113:13115   */\n      0x40\n        /* \"#utility.yul\":13102:13111   */\n      dup4\n        /* \"#utility.yul\":13098:13116   */\n      add\n        /* \"#utility.yul\":13089:13095   */\n      dup6\n        /* \"#utility.yul\":13045:13117   */\n      tag_174\n      jump\t// in\n    tag_334:\n        /* \"#utility.yul\":13127:13199   */\n      tag_335\n        /* \"#utility.yul\":13195:13197   */\n      0x60\n        /* \"#utility.yul\":13184:13193   */\n      dup4\n        /* \"#utility.yul\":13180:13198   */\n      add\n        /* \"#utility.yul\":13171:13177   */\n      dup5\n        /* \"#utility.yul\":13127:13199   */\n      tag_157\n      jump\t// in\n    tag_335:\n        /* \"#utility.yul\":12653:13206   */\n      swap6\n      swap5\n      pop\n      pop\n      pop\n      pop\n      pop\n      jump\t// out\n        /* \"#utility.yul\":13212:13291   */\n    tag_195:\n        /* \"#utility.yul\":13251:13258   */\n      0x00\n        /* \"#utility.yul\":13280:13285   */\n      dup2\n        /* \"#utility.yul\":13269:13285   */\n      swap1\n      pop\n        /* \"#utility.yul\":13212:13291   */\n      swap2\n      swap1\n      pop\n      jump\t// out\n        /* \"#utility.yul\":13297:13454   */\n    tag_196:\n        /* \"#utility.yul\":13402:13447   */\n      tag_338\n        /* \"#utility.yul\":13422:13446   */\n      tag_339\n        /* \"#utility.yul\":13440:13445   */\n      dup3\n        /* \"#utility.yul\":13422:13446   */\n      tag_175\n      jump\t// in\n    tag_339:\n        /* \"#utility.yul\":13402:13447   */\n      tag_195\n      jump\t// in\n    tag_338:\n        /* \"#utility.yul\":13397:13400   */\n      dup3\n        /* \"#utility.yul\":13390:13448   */\n      mstore\n        /* \"#utility.yul\":13297:13454   */\n      pop\n      pop\n      jump\t// out\n        /* \"#utility.yul\":13460:13539   */\n    tag_197:\n        /* \"#utility.yul\":13499:13506   */\n      0x00\n        /* \"#utility.yul\":13528:13533   */\n      dup2\n        /* \"#utility.yul\":13517:13533   */\n      swap1\n      pop\n        /* \"#utility.yul\":13460:13539   */\n      swap2\n      swap1\n      pop\n      jump\t// out\n        /* \"#utility.yul\":13545:13702   */\n    tag_198:\n        /* \"#utility.yul\":13650:13695   */\n      tag_342\n        /* \"#utility.yul\":13670:13694   */\n      tag_343\n        /* \"#utility.yul\":13688:13693   */\n      dup3\n        /* \"#utility.yul\":13670:13694   */\n      tag_156\n      jump\t// in\n    tag_343:\n        /* \"#utility.yul\":13650:13695   */\n      tag_197\n      jump\t// in\n    tag_342:\n        /* \"#utility.yul\":13645:13648   */\n      dup3\n        /* \"#utility.yul\":13638:13696   */\n      mstore\n        /* \"#utility.yul\":13545:13702   */\n      pop\n      pop\n      jump\t// out\n        /* \"#utility.yul\":13708:14105   */\n    tag_148:\n        /* \"#utility.yul\":13848:13851   */\n      0x00\n        /* \"#utility.yul\":13863:13938   */\n      tag_345\n        /* \"#utility.yul\":13934:13937   */\n      dup3\n        /* \"#utility.yul\":13925:13931   */\n      dup6\n        /* \"#utility.yul\":13863:13938   */\n      tag_196\n      jump\t// in\n    tag_345:\n        /* \"#utility.yul\":13963:13965   */\n      0x20\n        /* \"#utility.yul\":13958:13961   */\n      dup3\n        /* \"#utility.yul\":13954:13966   */\n      add\n        /* \"#utility.yul\":13947:13966   */\n      swap2\n      pop\n        /* \"#utility.yul\":13976:14051   */\n      tag_346\n        /* \"#utility.yul\":14047:14050   */\n      dup3\n        /* \"#utility.yul\":14038:14044   */\n      dup5\n        /* \"#utility.yul\":13976:14051   */\n      tag_198\n      jump\t// in\n    tag_346:\n        /* \"#utility.yul\":14076:14078   */\n      0x20\n        /* \"#utility.yul\":14071:14074   */\n      dup3\n        /* \"#utility.yul\":14067:14079   */\n      add\n        /* \"#utility.yul\":14060:14079   */\n      swap2\n      pop\n        /* \"#utility.yul\":14096:14099   */\n      dup2\n        /* \"#utility.yul\":14089:14099   */\n      swap1\n      pop\n        /* \"#utility.yul\":13708:14105   */\n      swap4\n      swap3\n      pop\n      pop\n      pop\n      jump\t// out\n\n    auxdata: 0xa2646970667358221220ace8ea21ea548f0393d5b71b181881634bf201f19d6fed19fc840ebf23257a3d64736f6c634300080b0033\n}\n",
				"bytecode": {
					"linkReferences": {},
					"object": "60c060405234801561001057600080fd5b5073b3dccb4cf7a26f6cf6b120cf5a73875b7bbc655b7301be23585060835e02b77ef475b0cc51aa1e07098173ffffffffffffffffffffffffffffffffffffffff1660a08173ffffffffffffffffffffffffffffffffffffffff16815250508073ffffffffffffffffffffffffffffffffffffffff1660808173ffffffffffffffffffffffffffffffffffffffff168152505050507f2ed0feb3e7fd2022120aa84fab1945545a9f2ffc9076fd6156fa96eaff4c131160001b60058190555067016345785d8a000060068190555033600160006101000a81548173ffffffffffffffffffffffffffffffffffffffff021916908373ffffffffffffffffffffffffffffffffffffffff160217905550600160038190555060805160a05161129561015a6000396000818161047a01526108c00152600081816106c4015261088401526112956000f3fe6080604052600436106100c25760003560e01c80638da5cb5b1161007f578063dbdff2c111610059578063dbdff2c114610244578063e580f47b1461026f578063e97dcb621461029a578063f71d96cb146102a4576100c2565b80638da5cb5b146101d957806394985ddd14610204578063be71248a1461022d576100c2565b806312065fe0146100c7578063281d098d146100f257806342619f661461012f5780635d495aea1461015a5780636d6fe230146101715780638b5b9ccc146101ae575b600080fd5b3480156100d357600080fd5b506100dc6102e1565b6040516100e99190610aff565b60405180910390f35b3480156100fe57600080fd5b5061011960048036038101906101149190610b4b565b6102e9565b6040516101269190610bb9565b60405180910390f35b34801561013b57600080fd5b50610144610326565b6040516101519190610aff565b60405180910390f35b34801561016657600080fd5b5061016f61032c565b005b34801561017d57600080fd5b5061019860048036038101906101939190610b4b565b610391565b6040516101a59190610bb9565b60405180910390f35b3480156101ba57600080fd5b506101c36103c4565b6040516101d09190610c92565b60405180910390f35b3480156101e557600080fd5b506101ee610452565b6040516101fb9190610cd5565b60405180910390f35b34801561021057600080fd5b5061022b60048036038101906102269190610d26565b610478565b005b34801561023957600080fd5b50610242610514565b005b34801561025057600080fd5b506102596106bd565b6040516102669190610d75565b60405180910390f35b34801561027b57600080fd5b506102846107b0565b6040516102919190610aff565b60405180910390f35b6102a26107b6565b005b3480156102b057600080fd5b506102cb60048036038101906102c69190610b4b565b61082e565b6040516102d89190610bb9565b60405180910390f35b600047905090565b60006004600083815260200190815260200160002060009054906101000a900473ffffffffffffffffffffffffffffffffffffffff169050919050565b60075481565b600160009054906101000a900473ffffffffffffffffffffffffffffffffffffffff1673ffffffffffffffffffffffffffffffffffffffff163373ffffffffffffffffffffffffffffffffffffffff161461038657600080fd5b61038e6106bd565b50565b60046020528060005260406000206000915054906101000a900473ffffffffffffffffffffffffffffffffffffffff1681565b6060600280548060200260200160405190810160405280929190818152602001828054801561044857602002820191906000526020600020905b8160009054906101000a900473ffffffffffffffffffffffffffffffffffffffff1673ffffffffffffffffffffffffffffffffffffffff16815260200190600101908083116103fe575b5050505050905090565b600160009054906101000a900473ffffffffffffffffffffffffffffffffffffffff1681565b7f000000000000000000000000000000000000000000000000000000000000000073ffffffffffffffffffffffffffffffffffffffff163373ffffffffffffffffffffffffffffffffffffffff1614610506576040517f08c379a00000000000000000000000000000000000000000000000000000000081526004016104fd90610ded565b60405180910390fd5b610510828261086d565b5050565b60006002805490506007546105299190610e3c565b90506002818154811061053f5761053e610e6d565b5b9060005260206000200160009054906101000a900473ffffffffffffffffffffffffffffffffffffffff1673ffffffffffffffffffffffffffffffffffffffff166108fc479081150290604051600060405180830381858888f193505050501580156105af573d6000803e3d6000fd5b50600281815481106105c4576105c3610e6d565b5b9060005260206000200160009054906101000a900473ffffffffffffffffffffffffffffffffffffffff1660046000600354815260200190815260200160002060006101000a81548173ffffffffffffffffffffffffffffffffffffffff021916908373ffffffffffffffffffffffffffffffffffffffff1602179055506003600081548092919061065590610ecb565b9190505550600067ffffffffffffffff81111561067557610674610f14565b5b6040519080825280602002602001820160405280156106a35781602001602082028036833780820191505090505b50600290805190602001906106b9929190610a3f565b5050565b60006006547f000000000000000000000000000000000000000000000000000000000000000073ffffffffffffffffffffffffffffffffffffffff166370a08231306040518263ffffffff1660e01b815260040161071b9190610cd5565b602060405180830381865afa158015610738573d6000803e3d6000fd5b505050506040513d601f19601f8201168201806040525081019061075c9190610f58565b101561079d576040517f08c379a000000000000000000000000000000000000000000000000000000000815260040161079490610fd1565b60405180910390fd5b6107ab600554600654610880565b905090565b60035481565b662386f26fc1000034116107c957600080fd5b6002339080600181540180825580915050600190039060005260206000200160009091909190916101000a81548173ffffffffffffffffffffffffffffffffffffffff021916908373ffffffffffffffffffffffffffffffffffffffff160217905550565b6002818154811061083e57600080fd5b906000526020600020016000915054906101000a900473ffffffffffffffffffffffffffffffffffffffff1681565b8060078190555061087c610514565b5050565b60007f000000000000000000000000000000000000000000000000000000000000000073ffffffffffffffffffffffffffffffffffffffff16634000aea07f0000000000000000000000000000000000000000000000000000000000000000848660006040516020016108f4929190610ff1565b6040516020818303038152906040526040518463ffffffff1660e01b8152600401610921939291906110b3565b6020604051808303816000875af1158015610940573d6000803e3d6000fd5b505050506040513d601f19601f820116820180604052508101906109649190611129565b50600061098684600030600080898152602001908152602001600020546109d0565b90506001600080868152602001908152602001600020546109a79190611156565b600080868152602001908152602001600020819055506109c78482610a0c565b91505092915050565b6000848484846040516020016109e994939291906111ac565b6040516020818303038152906040528051906020012060001c9050949350505050565b60008282604051602001610a21929190611233565b60405160208183030381529060405280519060200120905092915050565b828054828255906000526020600020908101928215610ab8579160200282015b82811115610ab75782518260006101000a81548173ffffffffffffffffffffffffffffffffffffffff021916908373ffffffffffffffffffffffffffffffffffffffff16021790555091602001919060010190610a5f565b5b509050610ac59190610ac9565b5090565b5b80821115610ae2576000816000905550600101610aca565b5090565b6000819050919050565b610af981610ae6565b82525050565b6000602082019050610b146000830184610af0565b92915050565b600080fd5b610b2881610ae6565b8114610b3357600080fd5b50565b600081359050610b4581610b1f565b92915050565b600060208284031215610b6157610b60610b1a565b5b6000610b6f84828501610b36565b91505092915050565b600073ffffffffffffffffffffffffffffffffffffffff82169050919050565b6000610ba382610b78565b9050919050565b610bb381610b98565b82525050565b6000602082019050610bce6000830184610baa565b92915050565b600081519050919050565b600082825260208201905092915050565b6000819050602082019050919050565b610c0981610b98565b82525050565b6000610c1b8383610c00565b60208301905092915050565b6000602082019050919050565b6000610c3f82610bd4565b610c498185610bdf565b9350610c5483610bf0565b8060005b83811015610c85578151610c6c8882610c0f565b9750610c7783610c27565b925050600181019050610c58565b5085935050505092915050565b60006020820190508181036000830152610cac8184610c34565b905092915050565b6000610cbf82610b78565b9050919050565b610ccf81610cb4565b82525050565b6000602082019050610cea6000830184610cc6565b92915050565b6000819050919050565b610d0381610cf0565b8114610d0e57600080fd5b50565b600081359050610d2081610cfa565b92915050565b60008060408385031215610d3d57610d3c610b1a565b5b6000610d4b85828601610d11565b9250506020610d5c85828601610b36565b9150509250929050565b610d6f81610cf0565b82525050565b6000602082019050610d8a6000830184610d66565b92915050565b600082825260208201905092915050565b7f4f6e6c7920565246436f6f7264696e61746f722063616e2066756c66696c6c00600082015250565b6000610dd7601f83610d90565b9150610de282610da1565b602082019050919050565b60006020820190508181036000830152610e0681610dca565b9050919050565b7f4e487b7100000000000000000000000000000000000000000000000000000000600052601260045260246000fd5b6000610e4782610ae6565b9150610e5283610ae6565b925082610e6257610e61610e0d565b5b828206905092915050565b7f4e487b7100000000000000000000000000000000000000000000000000000000600052603260045260246000fd5b7f4e487b7100000000000000000000000000000000000000000000000000000000600052601160045260246000fd5b6000610ed682610ae6565b91507fffffffffffffffffffffffffffffffffffffffffffffffffffffffffffffffff821415610f0957610f08610e9c565b5b600182019050919050565b7f4e487b7100000000000000000000000000000000000000000000000000000000600052604160045260246000fd5b600081519050610f5281610b1f565b92915050565b600060208284031215610f6e57610f6d610b1a565b5b6000610f7c84828501610f43565b91505092915050565b7f4e6f7420656e6f756768204c494e4b20696e20636f6e74726163740000000000600082015250565b6000610fbb601b83610d90565b9150610fc682610f85565b602082019050919050565b60006020820190508181036000830152610fea81610fae565b9050919050565b60006040820190506110066000830185610d66565b6110136020830184610af0565b9392505050565b600081519050919050565b600082825260208201905092915050565b60005b83811015611054578082015181840152602081019050611039565b83811115611063576000848401525b50505050565b6000601f19601f8301169050919050565b60006110858261101a565b61108f8185611025565b935061109f818560208601611036565b6110a881611069565b840191505092915050565b60006060820190506110c86000830186610cc6565b6110d56020830185610af0565b81810360408301526110e7818461107a565b9050949350505050565b60008115159050919050565b611106816110f1565b811461111157600080fd5b50565b600081519050611123816110fd565b92915050565b60006020828403121561113f5761113e610b1a565b5b600061114d84828501611114565b91505092915050565b600061116182610ae6565b915061116c83610ae6565b9250827fffffffffffffffffffffffffffffffffffffffffffffffffffffffffffffffff038211156111a1576111a0610e9c565b5b828201905092915050565b60006080820190506111c16000830187610d66565b6111ce6020830186610af0565b6111db6040830185610cc6565b6111e86060830184610af0565b95945050505050565b6000819050919050565b61120c61120782610cf0565b6111f1565b82525050565b6000819050919050565b61122d61122882610ae6565b611212565b82525050565b600061123f82856111fb565b60208201915061124f828461121c565b602082019150819050939250505056fea2646970667358221220ace8ea21ea548f0393d5b71b181881634bf201f19d6fed19fc840ebf23257a3d64736f6c634300080b0033",
					"opcodes": "PUSH1 0xC0 PUSH1 0x40 MSTORE CALLVALUE DUP1 ISZERO PUSH2 0x10 JUMPI PUSH1 0x0 DUP1 REVERT JUMPDEST POP PUSH20 0xB3DCCB4CF7A26F6CF6B120CF5A73875B7BBC655B PUSH20 0x1BE23585060835E02B77EF475B0CC51AA1E0709 DUP2 PUSH20 0xFFFFFFFFFFFFFFFFFFFFFFFFFFFFFFFFFFFFFFFF AND PUSH1 0xA0 DUP2 PUSH20 0xFFFFFFFFFFFFFFFFFFFFFFFFFFFFFFFFFFFFFFFF AND DUP2 MSTORE POP POP DUP1 PUSH20 0xFFFFFFFFFFFFFFFFFFFFFFFFFFFFFFFFFFFFFFFF AND PUSH1 0x80 DUP2 PUSH20 0xFFFFFFFFFFFFFFFFFFFFFFFFFFFFFFFFFFFFFFFF AND DUP2 MSTORE POP POP POP POP PUSH32 0x2ED0FEB3E7FD2022120AA84FAB1945545A9F2FFC9076FD6156FA96EAFF4C1311 PUSH1 0x0 SHL PUSH1 0x5 DUP2 SWAP1 SSTORE POP PUSH8 0x16345785D8A0000 PUSH1 0x6 DUP2 SWAP1 SSTORE POP CALLER PUSH1 0x1 PUSH1 0x0 PUSH2 0x100 EXP DUP2 SLOAD DUP2 PUSH20 0xFFFFFFFFFFFFFFFFFFFFFFFFFFFFFFFFFFFFFFFF MUL NOT AND SWAP1 DUP4 PUSH20 0xFFFFFFFFFFFFFFFFFFFFFFFFFFFFFFFFFFFFFFFF AND MUL OR SWAP1 SSTORE POP PUSH1 0x1 PUSH1 0x3 DUP2 SWAP1 SSTORE POP PUSH1 0x80 MLOAD PUSH1 0xA0 MLOAD PUSH2 0x1295 PUSH2 0x15A PUSH1 0x0 CODECOPY PUSH1 0x0 DUP2 DUP2 PUSH2 0x47A ADD MSTORE PUSH2 0x8C0 ADD MSTORE PUSH1 0x0 DUP2 DUP2 PUSH2 0x6C4 ADD MSTORE PUSH2 0x884 ADD MSTORE PUSH2 0x1295 PUSH1 0x0 RETURN INVALID PUSH1 0x80 PUSH1 0x40 MSTORE PUSH1 0x4 CALLDATASIZE LT PUSH2 0xC2 JUMPI PUSH1 0x0 CALLDATALOAD PUSH1 0xE0 SHR DUP1 PUSH4 0x8DA5CB5B GT PUSH2 0x7F JUMPI DUP1 PUSH4 0xDBDFF2C1 GT PUSH2 0x59 JUMPI DUP1 PUSH4 0xDBDFF2C1 EQ PUSH2 0x244 JUMPI DUP1 PUSH4 0xE580F47B EQ PUSH2 0x26F JUMPI DUP1 PUSH4 0xE97DCB62 EQ PUSH2 0x29A JUMPI DUP1 PUSH4 0xF71D96CB EQ PUSH2 0x2A4 JUMPI PUSH2 0xC2 JUMP JUMPDEST DUP1 PUSH4 0x8DA5CB5B EQ PUSH2 0x1D9 JUMPI DUP1 PUSH4 0x94985DDD EQ PUSH2 0x204 JUMPI DUP1 PUSH4 0xBE71248A EQ PUSH2 0x22D JUMPI PUSH2 0xC2 JUMP JUMPDEST DUP1 PUSH4 0x12065FE0 EQ PUSH2 0xC7 JUMPI DUP1 PUSH4 0x281D098D EQ PUSH2 0xF2 JUMPI DUP1 PUSH4 0x42619F66 EQ PUSH2 0x12F JUMPI DUP1 PUSH4 0x5D495AEA EQ PUSH2 0x15A JUMPI DUP1 PUSH4 0x6D6FE230 EQ PUSH2 0x171 JUMPI DUP1 PUSH4 0x8B5B9CCC EQ PUSH2 0x1AE JUMPI JUMPDEST PUSH1 0x0 DUP1 REVERT JUMPDEST CALLVALUE DUP1 ISZERO PUSH2 0xD3 JUMPI PUSH1 0x0 DUP1 REVERT JUMPDEST POP PUSH2 0xDC PUSH2 0x2E1 JUMP JUMPDEST PUSH1 0x40 MLOAD PUSH2 0xE9 SWAP2 SWAP1 PUSH2 0xAFF JUMP JUMPDEST PUSH1 0x40 MLOAD DUP1 SWAP2 SUB SWAP1 RETURN JUMPDEST CALLVALUE DUP1 ISZERO PUSH2 0xFE JUMPI PUSH1 0x0 DUP1 REVERT JUMPDEST POP PUSH2 0x119 PUSH1 0x4 DUP1 CALLDATASIZE SUB DUP2 ADD SWAP1 PUSH2 0x114 SWAP2 SWAP1 PUSH2 0xB4B JUMP JUMPDEST PUSH2 0x2E9 JUMP JUMPDEST PUSH1 0x40 MLOAD PUSH2 0x126 SWAP2 SWAP1 PUSH2 0xBB9 JUMP JUMPDEST PUSH1 0x40 MLOAD DUP1 SWAP2 SUB SWAP1 RETURN JUMPDEST CALLVALUE DUP1 ISZERO PUSH2 0x13B JUMPI PUSH1 0x0 DUP1 REVERT JUMPDEST POP PUSH2 0x144 PUSH2 0x326 JUMP JUMPDEST PUSH1 0x40 MLOAD PUSH2 0x151 SWAP2 SWAP1 PUSH2 0xAFF JUMP JUMPDEST PUSH1 0x40 MLOAD DUP1 SWAP2 SUB SWAP1 RETURN JUMPDEST CALLVALUE DUP1 ISZERO PUSH2 0x166 JUMPI PUSH1 0x0 DUP1 REVERT JUMPDEST POP PUSH2 0x16F PUSH2 0x32C JUMP JUMPDEST STOP JUMPDEST CALLVALUE DUP1 ISZERO PUSH2 0x17D JUMPI PUSH1 0x0 DUP1 REVERT JUMPDEST POP PUSH2 0x198 PUSH1 0x4 DUP1 CALLDATASIZE SUB DUP2 ADD SWAP1 PUSH2 0x193 SWAP2 SWAP1 PUSH2 0xB4B JUMP JUMPDEST PUSH2 0x391 JUMP JUMPDEST PUSH1 0x40 MLOAD PUSH2 0x1A5 SWAP2 SWAP1 PUSH2 0xBB9 JUMP JUMPDEST PUSH1 0x40 MLOAD DUP1 SWAP2 SUB SWAP1 RETURN JUMPDEST CALLVALUE DUP1 ISZERO PUSH2 0x1BA JUMPI PUSH1 0x0 DUP1 REVERT JUMPDEST POP PUSH2 0x1C3 PUSH2 0x3C4 JUMP JUMPDEST PUSH1 0x40 MLOAD PUSH2 0x1D0 SWAP2 SWAP1 PUSH2 0xC92 JUMP JUMPDEST PUSH1 0x40 MLOAD DUP1 SWAP2 SUB SWAP1 RETURN JUMPDEST CALLVALUE DUP1 ISZERO PUSH2 0x1E5 JUMPI PUSH1 0x0 DUP1 REVERT JUMPDEST POP PUSH2 0x1EE PUSH2 0x452 JUMP JUMPDEST PUSH1 0x40 MLOAD PUSH2 0x1FB SWAP2 SWAP1 PUSH2 0xCD5 JUMP JUMPDEST PUSH1 0x40 MLOAD DUP1 SWAP2 SUB SWAP1 RETURN JUMPDEST CALLVALUE DUP1 ISZERO PUSH2 0x210 JUMPI PUSH1 0x0 DUP1 REVERT JUMPDEST POP PUSH2 0x22B PUSH1 0x4 DUP1 CALLDATASIZE SUB DUP2 ADD SWAP1 PUSH2 0x226 SWAP2 SWAP1 PUSH2 0xD26 JUMP JUMPDEST PUSH2 0x478 JUMP JUMPDEST STOP JUMPDEST CALLVALUE DUP1 ISZERO PUSH2 0x239 JUMPI PUSH1 0x0 DUP1 REVERT JUMPDEST POP PUSH2 0x242 PUSH2 0x514 JUMP JUMPDEST STOP JUMPDEST CALLVALUE DUP1 ISZERO PUSH2 0x250 JUMPI PUSH1 0x0 DUP1 REVERT JUMPDEST POP PUSH2 0x259 PUSH2 0x6BD JUMP JUMPDEST PUSH1 0x40 MLOAD PUSH2 0x266 SWAP2 SWAP1 PUSH2 0xD75 JUMP JUMPDEST PUSH1 0x40 MLOAD DUP1 SWAP2 SUB SWAP1 RETURN JUMPDEST CALLVALUE DUP1 ISZERO PUSH2 0x27B JUMPI PUSH1 0x0 DUP1 REVERT JUMPDEST POP PUSH2 0x284 PUSH2 0x7B0 JUMP JUMPDEST PUSH1 0x40 MLOAD PUSH2 0x291 SWAP2 SWAP1 PUSH2 0xAFF JUMP JUMPDEST PUSH1 0x40 MLOAD DUP1 SWAP2 SUB SWAP1 RETURN JUMPDEST PUSH2 0x2A2 PUSH2 0x7B6 JUMP JUMPDEST STOP JUMPDEST CALLVALUE DUP1 ISZERO PUSH2 0x2B0 JUMPI PUSH1 0x0 DUP1 REVERT JUMPDEST POP PUSH2 0x2CB PUSH1 0x4 DUP1 CALLDATASIZE SUB DUP2 ADD SWAP1 PUSH2 0x2C6 SWAP2 SWAP1 PUSH2 0xB4B JUMP JUMPDEST PUSH2 0x82E JUMP JUMPDEST PUSH1 0x40 MLOAD PUSH2 0x2D8 SWAP2 SWAP1 PUSH2 0xBB9 JUMP JUMPDEST PUSH1 0x40 MLOAD DUP1 SWAP2 SUB SWAP1 RETURN JUMPDEST PUSH1 0x0 SELFBALANCE SWAP1 POP SWAP1 JUMP JUMPDEST PUSH1 0x0 PUSH1 0x4 PUSH1 0x0 DUP4 DUP2 MSTORE PUSH1 0x20 ADD SWAP1 DUP2 MSTORE PUSH1 0x20 ADD PUSH1 0x0 KECCAK256 PUSH1 0x0 SWAP1 SLOAD SWAP1 PUSH2 0x100 EXP SWAP1 DIV PUSH20 0xFFFFFFFFFFFFFFFFFFFFFFFFFFFFFFFFFFFFFFFF AND SWAP1 POP SWAP2 SWAP1 POP JUMP JUMPDEST PUSH1 0x7 SLOAD DUP2 JUMP JUMPDEST PUSH1 0x1 PUSH1 0x0 SWAP1 SLOAD SWAP1 PUSH2 0x100 EXP SWAP1 DIV PUSH20 0xFFFFFFFFFFFFFFFFFFFFFFFFFFFFFFFFFFFFFFFF AND PUSH20 0xFFFFFFFFFFFFFFFFFFFFFFFFFFFFFFFFFFFFFFFF AND CALLER PUSH20 0xFFFFFFFFFFFFFFFFFFFFFFFFFFFFFFFFFFFFFFFF AND EQ PUSH2 0x386 JUMPI PUSH1 0x0 DUP1 REVERT JUMPDEST PUSH2 0x38E PUSH2 0x6BD JUMP JUMPDEST POP JUMP JUMPDEST PUSH1 0x4 PUSH1 0x20 MSTORE DUP1 PUSH1 0x0 MSTORE PUSH1 0x40 PUSH1 0x0 KECCAK256 PUSH1 0x0 SWAP2 POP SLOAD SWAP1 PUSH2 0x100 EXP SWAP1 DIV PUSH20 0xFFFFFFFFFFFFFFFFFFFFFFFFFFFFFFFFFFFFFFFF AND DUP2 JUMP JUMPDEST PUSH1 0x60 PUSH1 0x2 DUP1 SLOAD DUP1 PUSH1 0x20 MUL PUSH1 0x20 ADD PUSH1 0x40 MLOAD SWAP1 DUP2 ADD PUSH1 0x40 MSTORE DUP1 SWAP3 SWAP2 SWAP1 DUP2 DUP2 MSTORE PUSH1 0x20 ADD DUP3 DUP1 SLOAD DUP1 ISZERO PUSH2 0x448 JUMPI PUSH1 0x20 MUL DUP3 ADD SWAP2 SWAP1 PUSH1 0x0 MSTORE PUSH1 0x20 PUSH1 0x0 KECCAK256 SWAP1 JUMPDEST DUP2 PUSH1 0x0 SWAP1 SLOAD SWAP1 PUSH2 0x100 EXP SWAP1 DIV PUSH20 0xFFFFFFFFFFFFFFFFFFFFFFFFFFFFFFFFFFFFFFFF AND PUSH20 0xFFFFFFFFFFFFFFFFFFFFFFFFFFFFFFFFFFFFFFFF AND DUP2 MSTORE PUSH1 0x20 ADD SWAP1 PUSH1 0x1 ADD SWAP1 DUP1 DUP4 GT PUSH2 0x3FE JUMPI JUMPDEST POP POP POP POP POP SWAP1 POP SWAP1 JUMP JUMPDEST PUSH1 0x1 PUSH1 0x0 SWAP1 SLOAD SWAP1 PUSH2 0x100 EXP SWAP1 DIV PUSH20 0xFFFFFFFFFFFFFFFFFFFFFFFFFFFFFFFFFFFFFFFF AND DUP2 JUMP JUMPDEST PUSH32 0x0 PUSH20 0xFFFFFFFFFFFFFFFFFFFFFFFFFFFFFFFFFFFFFFFF AND CALLER PUSH20 0xFFFFFFFFFFFFFFFFFFFFFFFFFFFFFFFFFFFFFFFF AND EQ PUSH2 0x506 JUMPI PUSH1 0x40 MLOAD PUSH32 0x8C379A000000000000000000000000000000000000000000000000000000000 DUP2 MSTORE PUSH1 0x4 ADD PUSH2 0x4FD SWAP1 PUSH2 0xDED JUMP JUMPDEST PUSH1 0x40 MLOAD DUP1 SWAP2 SUB SWAP1 REVERT JUMPDEST PUSH2 0x510 DUP3 DUP3 PUSH2 0x86D JUMP JUMPDEST POP POP JUMP JUMPDEST PUSH1 0x0 PUSH1 0x2 DUP1 SLOAD SWAP1 POP PUSH1 0x7 SLOAD PUSH2 0x529 SWAP2 SWAP1 PUSH2 0xE3C JUMP JUMPDEST SWAP1 POP PUSH1 0x2 DUP2 DUP2 SLOAD DUP2 LT PUSH2 0x53F JUMPI PUSH2 0x53E PUSH2 0xE6D JUMP JUMPDEST JUMPDEST SWAP1 PUSH1 0x0 MSTORE PUSH1 0x20 PUSH1 0x0 KECCAK256 ADD PUSH1 0x0 SWAP1 SLOAD SWAP1 PUSH2 0x100 EXP SWAP1 DIV PUSH20 0xFFFFFFFFFFFFFFFFFFFFFFFFFFFFFFFFFFFFFFFF AND PUSH20 0xFFFFFFFFFFFFFFFFFFFFFFFFFFFFFFFFFFFFFFFF AND PUSH2 0x8FC SELFBALANCE SWAP1 DUP2 ISZERO MUL SWAP1 PUSH1 0x40 MLOAD PUSH1 0x0 PUSH1 0x40 MLOAD DUP1 DUP4 SUB DUP2 DUP6 DUP9 DUP9 CALL SWAP4 POP POP POP POP ISZERO DUP1 ISZERO PUSH2 0x5AF JUMPI RETURNDATASIZE PUSH1 0x0 DUP1 RETURNDATACOPY RETURNDATASIZE PUSH1 0x0 REVERT JUMPDEST POP PUSH1 0x2 DUP2 DUP2 SLOAD DUP2 LT PUSH2 0x5C4 JUMPI PUSH2 0x5C3 PUSH2 0xE6D JUMP JUMPDEST JUMPDEST SWAP1 PUSH1 0x0 MSTORE PUSH1 0x20 PUSH1 0x0 KECCAK256 ADD PUSH1 0x0 SWAP1 SLOAD SWAP1 PUSH2 0x100 EXP SWAP1 DIV PUSH20 0xFFFFFFFFFFFFFFFFFFFFFFFFFFFFFFFFFFFFFFFF AND PUSH1 0x4 PUSH1 0x0 PUSH1 0x3 SLOAD DUP2 MSTORE PUSH1 0x20 ADD SWAP1 DUP2 MSTORE PUSH1 0x20 ADD PUSH1 0x0 KECCAK256 PUSH1 0x0 PUSH2 0x100 EXP DUP2 SLOAD DUP2 PUSH20 0xFFFFFFFFFFFFFFFFFFFFFFFFFFFFFFFFFFFFFFFF MUL NOT AND SWAP1 DUP4 PUSH20 0xFFFFFFFFFFFFFFFFFFFFFFFFFFFFFFFFFFFFFFFF AND MUL OR SWAP1 SSTORE POP PUSH1 0x3 PUSH1 0x0 DUP2 SLOAD DUP1 SWAP3 SWAP2 SWAP1 PUSH2 0x655 SWAP1 PUSH2 0xECB JUMP JUMPDEST SWAP2 SWAP1 POP SSTORE POP PUSH1 0x0 PUSH8 0xFFFFFFFFFFFFFFFF DUP2 GT ISZERO PUSH2 0x675 JUMPI PUSH2 0x674 PUSH2 0xF14 JUMP JUMPDEST JUMPDEST PUSH1 0x40 MLOAD SWAP1 DUP1 DUP3 MSTORE DUP1 PUSH1 0x20 MUL PUSH1 0x20 ADD DUP3 ADD PUSH1 0x40 MSTORE DUP1 ISZERO PUSH2 0x6A3 JUMPI DUP2 PUSH1 0x20 ADD PUSH1 0x20 DUP3 MUL DUP1 CALLDATASIZE DUP4 CALLDATACOPY DUP1 DUP3 ADD SWAP2 POP POP SWAP1 POP JUMPDEST POP PUSH1 0x2 SWAP1 DUP1 MLOAD SWAP1 PUSH1 0x20 ADD SWAP1 PUSH2 0x6B9 SWAP3 SWAP2 SWAP1 PUSH2 0xA3F JUMP JUMPDEST POP POP JUMP JUMPDEST PUSH1 0x0 PUSH1 0x6 SLOAD PUSH32 0x0 PUSH20 0xFFFFFFFFFFFFFFFFFFFFFFFFFFFFFFFFFFFFFFFF AND PUSH4 0x70A08231 ADDRESS PUSH1 0x40 MLOAD DUP3 PUSH4 0xFFFFFFFF AND PUSH1 0xE0 SHL DUP2 MSTORE PUSH1 0x4 ADD PUSH2 0x71B SWAP2 SWAP1 PUSH2 0xCD5 JUMP JUMPDEST PUSH1 0x20 PUSH1 0x40 MLOAD DUP1 DUP4 SUB DUP2 DUP7 GAS STATICCALL ISZERO DUP1 ISZERO PUSH2 0x738 JUMPI RETURNDATASIZE PUSH1 0x0 DUP1 RETURNDATACOPY RETURNDATASIZE PUSH1 0x0 REVERT JUMPDEST POP POP POP POP PUSH1 0x40 MLOAD RETURNDATASIZE PUSH1 0x1F NOT PUSH1 0x1F DUP3 ADD AND DUP3 ADD DUP1 PUSH1 0x40 MSTORE POP DUP2 ADD SWAP1 PUSH2 0x75C SWAP2 SWAP1 PUSH2 0xF58 JUMP JUMPDEST LT ISZERO PUSH2 0x79D JUMPI PUSH1 0x40 MLOAD PUSH32 0x8C379A000000000000000000000000000000000000000000000000000000000 DUP2 MSTORE PUSH1 0x4 ADD PUSH2 0x794 SWAP1 PUSH2 0xFD1 JUMP JUMPDEST PUSH1 0x40 MLOAD DUP1 SWAP2 SUB SWAP1 REVERT JUMPDEST PUSH2 0x7AB PUSH1 0x5 SLOAD PUSH1 0x6 SLOAD PUSH2 0x880 JUMP JUMPDEST SWAP1 POP SWAP1 JUMP JUMPDEST PUSH1 0x3 SLOAD DUP2 JUMP JUMPDEST PUSH7 0x2386F26FC10000 CALLVALUE GT PUSH2 0x7C9 JUMPI PUSH1 0x0 DUP1 REVERT JUMPDEST PUSH1 0x2 CALLER SWAP1 DUP1 PUSH1 0x1 DUP2 SLOAD ADD DUP1 DUP3 SSTORE DUP1 SWAP2 POP POP PUSH1 0x1 SWAP1 SUB SWAP1 PUSH1 0x0 MSTORE PUSH1 0x20 PUSH1 0x0 KECCAK256 ADD PUSH1 0x0 SWAP1 SWAP2 SWAP1 SWAP2 SWAP1 SWAP2 PUSH2 0x100 EXP DUP2 SLOAD DUP2 PUSH20 0xFFFFFFFFFFFFFFFFFFFFFFFFFFFFFFFFFFFFFFFF MUL NOT AND SWAP1 DUP4 PUSH20 0xFFFFFFFFFFFFFFFFFFFFFFFFFFFFFFFFFFFFFFFF AND MUL OR SWAP1 SSTORE POP JUMP JUMPDEST PUSH1 0x2 DUP2 DUP2 SLOAD DUP2 LT PUSH2 0x83E JUMPI PUSH1 0x0 DUP1 REVERT JUMPDEST SWAP1 PUSH1 0x0 MSTORE PUSH1 0x20 PUSH1 0x0 KECCAK256 ADD PUSH1 0x0 SWAP2 POP SLOAD SWAP1 PUSH2 0x100 EXP SWAP1 DIV PUSH20 0xFFFFFFFFFFFFFFFFFFFFFFFFFFFFFFFFFFFFFFFF AND DUP2 JUMP JUMPDEST DUP1 PUSH1 0x7 DUP2 SWAP1 SSTORE POP PUSH2 0x87C PUSH2 0x514 JUMP JUMPDEST POP POP JUMP JUMPDEST PUSH1 0x0 PUSH32 0x0 PUSH20 0xFFFFFFFFFFFFFFFFFFFFFFFFFFFFFFFFFFFFFFFF AND PUSH4 0x4000AEA0 PUSH32 0x0 DUP5 DUP7 PUSH1 0x0 PUSH1 0x40 MLOAD PUSH1 0x20 ADD PUSH2 0x8F4 SWAP3 SWAP2 SWAP1 PUSH2 0xFF1 JUMP JUMPDEST PUSH1 0x40 MLOAD PUSH1 0x20 DUP2 DUP4 SUB SUB DUP2 MSTORE SWAP1 PUSH1 0x40 MSTORE PUSH1 0x40 MLOAD DUP5 PUSH4 0xFFFFFFFF AND PUSH1 0xE0 SHL DUP2 MSTORE PUSH1 0x4 ADD PUSH2 0x921 SWAP4 SWAP3 SWAP2 SWAP1 PUSH2 0x10B3 JUMP JUMPDEST PUSH1 0x20 PUSH1 0x40 MLOAD DUP1 DUP4 SUB DUP2 PUSH1 0x0 DUP8 GAS CALL ISZERO DUP1 ISZERO PUSH2 0x940 JUMPI RETURNDATASIZE PUSH1 0x0 DUP1 RETURNDATACOPY RETURNDATASIZE PUSH1 0x0 REVERT JUMPDEST POP POP POP POP PUSH1 0x40 MLOAD RETURNDATASIZE PUSH1 0x1F NOT PUSH1 0x1F DUP3 ADD AND DUP3 ADD DUP1 PUSH1 0x40 MSTORE POP DUP2 ADD SWAP1 PUSH2 0x964 SWAP2 SWAP1 PUSH2 0x1129 JUMP JUMPDEST POP PUSH1 0x0 PUSH2 0x986 DUP5 PUSH1 0x0 ADDRESS PUSH1 0x0 DUP1 DUP10 DUP2 MSTORE PUSH1 0x20 ADD SWAP1 DUP2 MSTORE PUSH1 0x20 ADD PUSH1 0x0 KECCAK256 SLOAD PUSH2 0x9D0 JUMP JUMPDEST SWAP1 POP PUSH1 0x1 PUSH1 0x0 DUP1 DUP7 DUP2 MSTORE PUSH1 0x20 ADD SWAP1 DUP2 MSTORE PUSH1 0x20 ADD PUSH1 0x0 KECCAK256 SLOAD PUSH2 0x9A7 SWAP2 SWAP1 PUSH2 0x1156 JUMP JUMPDEST PUSH1 0x0 DUP1 DUP7 DUP2 MSTORE PUSH1 0x20 ADD SWAP1 DUP2 MSTORE PUSH1 0x20 ADD PUSH1 0x0 KECCAK256 DUP2 SWAP1 SSTORE POP PUSH2 0x9C7 DUP5 DUP3 PUSH2 0xA0C JUMP JUMPDEST SWAP2 POP POP SWAP3 SWAP2 POP POP JUMP JUMPDEST PUSH1 0x0 DUP5 DUP5 DUP5 DUP5 PUSH1 0x40 MLOAD PUSH1 0x20 ADD PUSH2 0x9E9 SWAP5 SWAP4 SWAP3 SWAP2 SWAP1 PUSH2 0x11AC JUMP JUMPDEST PUSH1 0x40 MLOAD PUSH1 0x20 DUP2 DUP4 SUB SUB DUP2 MSTORE SWAP1 PUSH1 0x40 MSTORE DUP1 MLOAD SWAP1 PUSH1 0x20 ADD KECCAK256 PUSH1 0x0 SHR SWAP1 POP SWAP5 SWAP4 POP POP POP POP JUMP JUMPDEST PUSH1 0x0 DUP3 DUP3 PUSH1 0x40 MLOAD PUSH1 0x20 ADD PUSH2 0xA21 SWAP3 SWAP2 SWAP1 PUSH2 0x1233 JUMP JUMPDEST PUSH1 0x40 MLOAD PUSH1 0x20 DUP2 DUP4 SUB SUB DUP2 MSTORE SWAP1 PUSH1 0x40 MSTORE DUP1 MLOAD SWAP1 PUSH1 0x20 ADD KECCAK256 SWAP1 POP SWAP3 SWAP2 POP POP JUMP JUMPDEST DUP3 DUP1 SLOAD DUP3 DUP3 SSTORE SWAP1 PUSH1 0x0 MSTORE PUSH1 0x20 PUSH1 0x0 KECCAK256 SWAP1 DUP2 ADD SWAP3 DUP3 ISZERO PUSH2 0xAB8 JUMPI SWAP2 PUSH1 0x20 MUL DUP3 ADD JUMPDEST DUP3 DUP2 GT ISZERO PUSH2 0xAB7 JUMPI DUP3 MLOAD DUP3 PUSH1 0x0 PUSH2 0x100 EXP DUP2 SLOAD DUP2 PUSH20 0xFFFFFFFFFFFFFFFFFFFFFFFFFFFFFFFFFFFFFFFF MUL NOT AND SWAP1 DUP4 PUSH20 0xFFFFFFFFFFFFFFFFFFFFFFFFFFFFFFFFFFFFFFFF AND MUL OR SWAP1 SSTORE POP SWAP2 PUSH1 0x20 ADD SWAP2 SWAP1 PUSH1 0x1 ADD SWAP1 PUSH2 0xA5F JUMP JUMPDEST JUMPDEST POP SWAP1 POP PUSH2 0xAC5 SWAP2 SWAP1 PUSH2 0xAC9 JUMP JUMPDEST POP SWAP1 JUMP JUMPDEST JUMPDEST DUP1 DUP3 GT ISZERO PUSH2 0xAE2 JUMPI PUSH1 0x0 DUP2 PUSH1 0x0 SWAP1 SSTORE POP PUSH1 0x1 ADD PUSH2 0xACA JUMP JUMPDEST POP SWAP1 JUMP JUMPDEST PUSH1 0x0 DUP2 SWAP1 POP SWAP2 SWAP1 POP JUMP JUMPDEST PUSH2 0xAF9 DUP2 PUSH2 0xAE6 JUMP JUMPDEST DUP3 MSTORE POP POP JUMP JUMPDEST PUSH1 0x0 PUSH1 0x20 DUP3 ADD SWAP1 POP PUSH2 0xB14 PUSH1 0x0 DUP4 ADD DUP5 PUSH2 0xAF0 JUMP JUMPDEST SWAP3 SWAP2 POP POP JUMP JUMPDEST PUSH1 0x0 DUP1 REVERT JUMPDEST PUSH2 0xB28 DUP2 PUSH2 0xAE6 JUMP JUMPDEST DUP2 EQ PUSH2 0xB33 JUMPI PUSH1 0x0 DUP1 REVERT JUMPDEST POP JUMP JUMPDEST PUSH1 0x0 DUP2 CALLDATALOAD SWAP1 POP PUSH2 0xB45 DUP2 PUSH2 0xB1F JUMP JUMPDEST SWAP3 SWAP2 POP POP JUMP JUMPDEST PUSH1 0x0 PUSH1 0x20 DUP3 DUP5 SUB SLT ISZERO PUSH2 0xB61 JUMPI PUSH2 0xB60 PUSH2 0xB1A JUMP JUMPDEST JUMPDEST PUSH1 0x0 PUSH2 0xB6F DUP5 DUP3 DUP6 ADD PUSH2 0xB36 JUMP JUMPDEST SWAP2 POP POP SWAP3 SWAP2 POP POP JUMP JUMPDEST PUSH1 0x0 PUSH20 0xFFFFFFFFFFFFFFFFFFFFFFFFFFFFFFFFFFFFFFFF DUP3 AND SWAP1 POP SWAP2 SWAP1 POP JUMP JUMPDEST PUSH1 0x0 PUSH2 0xBA3 DUP3 PUSH2 0xB78 JUMP JUMPDEST SWAP1 POP SWAP2 SWAP1 POP JUMP JUMPDEST PUSH2 0xBB3 DUP2 PUSH2 0xB98 JUMP JUMPDEST DUP3 MSTORE POP POP JUMP JUMPDEST PUSH1 0x0 PUSH1 0x20 DUP3 ADD SWAP1 POP PUSH2 0xBCE PUSH1 0x0 DUP4 ADD DUP5 PUSH2 0xBAA JUMP JUMPDEST SWAP3 SWAP2 POP POP JUMP JUMPDEST PUSH1 0x0 DUP2 MLOAD SWAP1 POP SWAP2 SWAP1 POP JUMP JUMPDEST PUSH1 0x0 DUP3 DUP3 MSTORE PUSH1 0x20 DUP3 ADD SWAP1 POP SWAP3 SWAP2 POP POP JUMP JUMPDEST PUSH1 0x0 DUP2 SWAP1 POP PUSH1 0x20 DUP3 ADD SWAP1 POP SWAP2 SWAP1 POP JUMP JUMPDEST PUSH2 0xC09 DUP2 PUSH2 0xB98 JUMP JUMPDEST DUP3 MSTORE POP POP JUMP JUMPDEST PUSH1 0x0 PUSH2 0xC1B DUP4 DUP4 PUSH2 0xC00 JUMP JUMPDEST PUSH1 0x20 DUP4 ADD SWAP1 POP SWAP3 SWAP2 POP POP JUMP JUMPDEST PUSH1 0x0 PUSH1 0x20 DUP3 ADD SWAP1 POP SWAP2 SWAP1 POP JUMP JUMPDEST PUSH1 0x0 PUSH2 0xC3F DUP3 PUSH2 0xBD4 JUMP JUMPDEST PUSH2 0xC49 DUP2 DUP6 PUSH2 0xBDF JUMP JUMPDEST SWAP4 POP PUSH2 0xC54 DUP4 PUSH2 0xBF0 JUMP JUMPDEST DUP1 PUSH1 0x0 JUMPDEST DUP4 DUP2 LT ISZERO PUSH2 0xC85 JUMPI DUP2 MLOAD PUSH2 0xC6C DUP9 DUP3 PUSH2 0xC0F JUMP JUMPDEST SWAP8 POP PUSH2 0xC77 DUP4 PUSH2 0xC27 JUMP JUMPDEST SWAP3 POP POP PUSH1 0x1 DUP2 ADD SWAP1 POP PUSH2 0xC58 JUMP JUMPDEST POP DUP6 SWAP4 POP POP POP POP SWAP3 SWAP2 POP POP JUMP JUMPDEST PUSH1 0x0 PUSH1 0x20 DUP3 ADD SWAP1 POP DUP2 DUP2 SUB PUSH1 0x0 DUP4 ADD MSTORE PUSH2 0xCAC DUP2 DUP5 PUSH2 0xC34 JUMP JUMPDEST SWAP1 POP SWAP3 SWAP2 POP POP JUMP JUMPDEST PUSH1 0x0 PUSH2 0xCBF DUP3 PUSH2 0xB78 JUMP JUMPDEST SWAP1 POP SWAP2 SWAP1 POP JUMP JUMPDEST PUSH2 0xCCF DUP2 PUSH2 0xCB4 JUMP JUMPDEST DUP3 MSTORE POP POP JUMP JUMPDEST PUSH1 0x0 PUSH1 0x20 DUP3 ADD SWAP1 POP PUSH2 0xCEA PUSH1 0x0 DUP4 ADD DUP5 PUSH2 0xCC6 JUMP JUMPDEST SWAP3 SWAP2 POP POP JUMP JUMPDEST PUSH1 0x0 DUP2 SWAP1 POP SWAP2 SWAP1 POP JUMP JUMPDEST PUSH2 0xD03 DUP2 PUSH2 0xCF0 JUMP JUMPDEST DUP2 EQ PUSH2 0xD0E JUMPI PUSH1 0x0 DUP1 REVERT JUMPDEST POP JUMP JUMPDEST PUSH1 0x0 DUP2 CALLDATALOAD SWAP1 POP PUSH2 0xD20 DUP2 PUSH2 0xCFA JUMP JUMPDEST SWAP3 SWAP2 POP POP JUMP JUMPDEST PUSH1 0x0 DUP1 PUSH1 0x40 DUP4 DUP6 SUB SLT ISZERO PUSH2 0xD3D JUMPI PUSH2 0xD3C PUSH2 0xB1A JUMP JUMPDEST JUMPDEST PUSH1 0x0 PUSH2 0xD4B DUP6 DUP3 DUP7 ADD PUSH2 0xD11 JUMP JUMPDEST SWAP3 POP POP PUSH1 0x20 PUSH2 0xD5C DUP6 DUP3 DUP7 ADD PUSH2 0xB36 JUMP JUMPDEST SWAP2 POP POP SWAP3 POP SWAP3 SWAP1 POP JUMP JUMPDEST PUSH2 0xD6F DUP2 PUSH2 0xCF0 JUMP JUMPDEST DUP3 MSTORE POP POP JUMP JUMPDEST PUSH1 0x0 PUSH1 0x20 DUP3 ADD SWAP1 POP PUSH2 0xD8A PUSH1 0x0 DUP4 ADD DUP5 PUSH2 0xD66 JUMP JUMPDEST SWAP3 SWAP2 POP POP JUMP JUMPDEST PUSH1 0x0 DUP3 DUP3 MSTORE PUSH1 0x20 DUP3 ADD SWAP1 POP SWAP3 SWAP2 POP POP JUMP JUMPDEST PUSH32 0x4F6E6C7920565246436F6F7264696E61746F722063616E2066756C66696C6C00 PUSH1 0x0 DUP3 ADD MSTORE POP JUMP JUMPDEST PUSH1 0x0 PUSH2 0xDD7 PUSH1 0x1F DUP4 PUSH2 0xD90 JUMP JUMPDEST SWAP2 POP PUSH2 0xDE2 DUP3 PUSH2 0xDA1 JUMP JUMPDEST PUSH1 0x20 DUP3 ADD SWAP1 POP SWAP2 SWAP1 POP JUMP JUMPDEST PUSH1 0x0 PUSH1 0x20 DUP3 ADD SWAP1 POP DUP2 DUP2 SUB PUSH1 0x0 DUP4 ADD MSTORE PUSH2 0xE06 DUP2 PUSH2 0xDCA JUMP JUMPDEST SWAP1 POP SWAP2 SWAP1 POP JUMP JUMPDEST PUSH32 0x4E487B7100000000000000000000000000000000000000000000000000000000 PUSH1 0x0 MSTORE PUSH1 0x12 PUSH1 0x4 MSTORE PUSH1 0x24 PUSH1 0x0 REVERT JUMPDEST PUSH1 0x0 PUSH2 0xE47 DUP3 PUSH2 0xAE6 JUMP JUMPDEST SWAP2 POP PUSH2 0xE52 DUP4 PUSH2 0xAE6 JUMP JUMPDEST SWAP3 POP DUP3 PUSH2 0xE62 JUMPI PUSH2 0xE61 PUSH2 0xE0D JUMP JUMPDEST JUMPDEST DUP3 DUP3 MOD SWAP1 POP SWAP3 SWAP2 POP POP JUMP JUMPDEST PUSH32 0x4E487B7100000000000000000000000000000000000000000000000000000000 PUSH1 0x0 MSTORE PUSH1 0x32 PUSH1 0x4 MSTORE PUSH1 0x24 PUSH1 0x0 REVERT JUMPDEST PUSH32 0x4E487B7100000000000000000000000000000000000000000000000000000000 PUSH1 0x0 MSTORE PUSH1 0x11 PUSH1 0x4 MSTORE PUSH1 0x24 PUSH1 0x0 REVERT JUMPDEST PUSH1 0x0 PUSH2 0xED6 DUP3 PUSH2 0xAE6 JUMP JUMPDEST SWAP2 POP PUSH32 0xFFFFFFFFFFFFFFFFFFFFFFFFFFFFFFFFFFFFFFFFFFFFFFFFFFFFFFFFFFFFFFFF DUP3 EQ ISZERO PUSH2 0xF09 JUMPI PUSH2 0xF08 PUSH2 0xE9C JUMP JUMPDEST JUMPDEST PUSH1 0x1 DUP3 ADD SWAP1 POP SWAP2 SWAP1 POP JUMP JUMPDEST PUSH32 0x4E487B7100000000000000000000000000000000000000000000000000000000 PUSH1 0x0 MSTORE PUSH1 0x41 PUSH1 0x4 MSTORE PUSH1 0x24 PUSH1 0x0 REVERT JUMPDEST PUSH1 0x0 DUP2 MLOAD SWAP1 POP PUSH2 0xF52 DUP2 PUSH2 0xB1F JUMP JUMPDEST SWAP3 SWAP2 POP POP JUMP JUMPDEST PUSH1 0x0 PUSH1 0x20 DUP3 DUP5 SUB SLT ISZERO PUSH2 0xF6E JUMPI PUSH2 0xF6D PUSH2 0xB1A JUMP JUMPDEST JUMPDEST PUSH1 0x0 PUSH2 0xF7C DUP5 DUP3 DUP6 ADD PUSH2 0xF43 JUMP JUMPDEST SWAP2 POP POP SWAP3 SWAP2 POP POP JUMP JUMPDEST PUSH32 0x4E6F7420656E6F756768204C494E4B20696E20636F6E74726163740000000000 PUSH1 0x0 DUP3 ADD MSTORE POP JUMP JUMPDEST PUSH1 0x0 PUSH2 0xFBB PUSH1 0x1B DUP4 PUSH2 0xD90 JUMP JUMPDEST SWAP2 POP PUSH2 0xFC6 DUP3 PUSH2 0xF85 JUMP JUMPDEST PUSH1 0x20 DUP3 ADD SWAP1 POP SWAP2 SWAP1 POP JUMP JUMPDEST PUSH1 0x0 PUSH1 0x20 DUP3 ADD SWAP1 POP DUP2 DUP2 SUB PUSH1 0x0 DUP4 ADD MSTORE PUSH2 0xFEA DUP2 PUSH2 0xFAE JUMP JUMPDEST SWAP1 POP SWAP2 SWAP1 POP JUMP JUMPDEST PUSH1 0x0 PUSH1 0x40 DUP3 ADD SWAP1 POP PUSH2 0x1006 PUSH1 0x0 DUP4 ADD DUP6 PUSH2 0xD66 JUMP JUMPDEST PUSH2 0x1013 PUSH1 0x20 DUP4 ADD DUP5 PUSH2 0xAF0 JUMP JUMPDEST SWAP4 SWAP3 POP POP POP JUMP JUMPDEST PUSH1 0x0 DUP2 MLOAD SWAP1 POP SWAP2 SWAP1 POP JUMP JUMPDEST PUSH1 0x0 DUP3 DUP3 MSTORE PUSH1 0x20 DUP3 ADD SWAP1 POP SWAP3 SWAP2 POP POP JUMP JUMPDEST PUSH1 0x0 JUMPDEST DUP4 DUP2 LT ISZERO PUSH2 0x1054 JUMPI DUP1 DUP3 ADD MLOAD DUP2 DUP5 ADD MSTORE PUSH1 0x20 DUP2 ADD SWAP1 POP PUSH2 0x1039 JUMP JUMPDEST DUP4 DUP2 GT ISZERO PUSH2 0x1063 JUMPI PUSH1 0x0 DUP5 DUP5 ADD MSTORE JUMPDEST POP POP POP POP JUMP JUMPDEST PUSH1 0x0 PUSH1 0x1F NOT PUSH1 0x1F DUP4 ADD AND SWAP1 POP SWAP2 SWAP1 POP JUMP JUMPDEST PUSH1 0x0 PUSH2 0x1085 DUP3 PUSH2 0x101A JUMP JUMPDEST PUSH2 0x108F DUP2 DUP6 PUSH2 0x1025 JUMP JUMPDEST SWAP4 POP PUSH2 0x109F DUP2 DUP6 PUSH1 0x20 DUP7 ADD PUSH2 0x1036 JUMP JUMPDEST PUSH2 0x10A8 DUP2 PUSH2 0x1069 JUMP JUMPDEST DUP5 ADD SWAP2 POP POP SWAP3 SWAP2 POP POP JUMP JUMPDEST PUSH1 0x0 PUSH1 0x60 DUP3 ADD SWAP1 POP PUSH2 0x10C8 PUSH1 0x0 DUP4 ADD DUP7 PUSH2 0xCC6 JUMP JUMPDEST PUSH2 0x10D5 PUSH1 0x20 DUP4 ADD DUP6 PUSH2 0xAF0 JUMP JUMPDEST DUP2 DUP2 SUB PUSH1 0x40 DUP4 ADD MSTORE PUSH2 0x10E7 DUP2 DUP5 PUSH2 0x107A JUMP JUMPDEST SWAP1 POP SWAP5 SWAP4 POP POP POP POP JUMP JUMPDEST PUSH1 0x0 DUP2 ISZERO ISZERO SWAP1 POP SWAP2 SWAP1 POP JUMP JUMPDEST PUSH2 0x1106 DUP2 PUSH2 0x10F1 JUMP JUMPDEST DUP2 EQ PUSH2 0x1111 JUMPI PUSH1 0x0 DUP1 REVERT JUMPDEST POP JUMP JUMPDEST PUSH1 0x0 DUP2 MLOAD SWAP1 POP PUSH2 0x1123 DUP2 PUSH2 0x10FD JUMP JUMPDEST SWAP3 SWAP2 POP POP JUMP JUMPDEST PUSH1 0x0 PUSH1 0x20 DUP3 DUP5 SUB SLT ISZERO PUSH2 0x113F JUMPI PUSH2 0x113E PUSH2 0xB1A JUMP JUMPDEST JUMPDEST PUSH1 0x0 PUSH2 0x114D DUP5 DUP3 DUP6 ADD PUSH2 0x1114 JUMP JUMPDEST SWAP2 POP POP SWAP3 SWAP2 POP POP JUMP JUMPDEST PUSH1 0x0 PUSH2 0x1161 DUP3 PUSH2 0xAE6 JUMP JUMPDEST SWAP2 POP PUSH2 0x116C DUP4 PUSH2 0xAE6 JUMP JUMPDEST SWAP3 POP DUP3 PUSH32 0xFFFFFFFFFFFFFFFFFFFFFFFFFFFFFFFFFFFFFFFFFFFFFFFFFFFFFFFFFFFFFFFF SUB DUP3 GT ISZERO PUSH2 0x11A1 JUMPI PUSH2 0x11A0 PUSH2 0xE9C JUMP JUMPDEST JUMPDEST DUP3 DUP3 ADD SWAP1 POP SWAP3 SWAP2 POP POP JUMP JUMPDEST PUSH1 0x0 PUSH1 0x80 DUP3 ADD SWAP1 POP PUSH2 0x11C1 PUSH1 0x0 DUP4 ADD DUP8 PUSH2 0xD66 JUMP JUMPDEST PUSH2 0x11CE PUSH1 0x20 DUP4 ADD DUP7 PUSH2 0xAF0 JUMP JUMPDEST PUSH2 0x11DB PUSH1 0x40 DUP4 ADD DUP6 PUSH2 0xCC6 JUMP JUMPDEST PUSH2 0x11E8 PUSH1 0x60 DUP4 ADD DUP5 PUSH2 0xAF0 JUMP JUMPDEST SWAP6 SWAP5 POP POP POP POP POP JUMP JUMPDEST PUSH1 0x0 DUP2 SWAP1 POP SWAP2 SWAP1 POP JUMP JUMPDEST PUSH2 0x120C PUSH2 0x1207 DUP3 PUSH2 0xCF0 JUMP JUMPDEST PUSH2 0x11F1 JUMP JUMPDEST DUP3 MSTORE POP POP JUMP JUMPDEST PUSH1 0x0 DUP2 SWAP1 POP SWAP2 SWAP1 POP JUMP JUMPDEST PUSH2 0x122D PUSH2 0x1228 DUP3 PUSH2 0xAE6 JUMP JUMPDEST PUSH2 0x1212 JUMP JUMPDEST DUP3 MSTORE POP POP JUMP JUMPDEST PUSH1 0x0 PUSH2 0x123F DUP3 DUP6 PUSH2 0x11FB JUMP JUMPDEST PUSH1 0x20 DUP3 ADD SWAP2 POP PUSH2 0x124F DUP3 DUP5 PUSH2 0x121C JUMP JUMPDEST PUSH1 0x20 DUP3 ADD SWAP2 POP DUP2 SWAP1 POP SWAP4 SWAP3 POP POP POP JUMP INVALID LOG2 PUSH5 0x6970667358 0x22 SLT KECCAK256 0xAC 0xE8 0xEA 0x21 0xEA SLOAD DUP16 SUB SWAP4 0xD5 0xB7 SHL XOR XOR DUP2 PUSH4 0x4BF201F1 SWAP14 PUSH16 0xED19FC840EBF23257A3D64736F6C6343 STOP ADDMOD SIGNEXTEND STOP CALLER "
				},
				"gasEstimates": {
					"creation": {
						"codeDepositCost": "951400",
						"executionCost": "infinite",
						"totalCost": "infinite"
					},
					"external": {
						"enter()": "48786",
						"getBalance()": "340",
						"getPlayers()": "infinite",
						"getRandomNumber()": "infinite",
						"getWinnerByLottery(uint256)": "2888",
						"lotteryHistory(uint256)": "2928",
						"lotteryId()": "2473",
						"owner()": "2537",
						"payWinner()": "infinite",
						"pickWinner()": "infinite",
						"players(uint256)": "5044",
						"randomResult()": "2474",
						"rawFulfillRandomness(bytes32,uint256)": "infinite"
					},
					"internal": {
						"fulfillRandomness(bytes32,uint256)": "infinite"
					}
				},
				"methodIdentifiers": {
					"enter()": "e97dcb62",
					"getBalance()": "12065fe0",
					"getPlayers()": "8b5b9ccc",
					"getRandomNumber()": "dbdff2c1",
					"getWinnerByLottery(uint256)": "281d098d",
					"lotteryHistory(uint256)": "6d6fe230",
					"lotteryId()": "e580f47b",
					"owner()": "8da5cb5b",
					"payWinner()": "be71248a",
					"pickWinner()": "5d495aea",
					"players(uint256)": "f71d96cb",
					"randomResult()": "42619f66",
					"rawFulfillRandomness(bytes32,uint256)": "94985ddd"
				}
			},
			"storageLayout": {
				"storage": [
					{
						"astId": 79,
						"contract": "contracts/2_RandomNumber.sol:Lottery",
						"label": "nonces",
						"offset": 0,
						"slot": "0",
						"type": "t_mapping(t_bytes32,t_uint256)"
					},
					{
						"astId": 272,
						"contract": "contracts/2_RandomNumber.sol:Lottery",
						"label": "owner",
						"offset": 0,
						"slot": "1",
						"type": "t_address"
					},
					{
						"astId": 275,
						"contract": "contracts/2_RandomNumber.sol:Lottery",
						"label": "players",
						"offset": 0,
						"slot": "2",
						"type": "t_array(t_address_payable)dyn_storage"
					},
					{
						"astId": 277,
						"contract": "contracts/2_RandomNumber.sol:Lottery",
						"label": "lotteryId",
						"offset": 0,
						"slot": "3",
						"type": "t_uint256"
					},
					{
						"astId": 281,
						"contract": "contracts/2_RandomNumber.sol:Lottery",
						"label": "lotteryHistory",
						"offset": 0,
						"slot": "4",
						"type": "t_mapping(t_uint256,t_address_payable)"
					},
					{
						"astId": 283,
						"contract": "contracts/2_RandomNumber.sol:Lottery",
						"label": "keyHash",
						"offset": 0,
						"slot": "5",
						"type": "t_bytes32"
					},
					{
						"astId": 285,
						"contract": "contracts/2_RandomNumber.sol:Lottery",
						"label": "fee",
						"offset": 0,
						"slot": "6",
						"type": "t_uint256"
					},
					{
						"astId": 287,
						"contract": "contracts/2_RandomNumber.sol:Lottery",
						"label": "randomResult",
						"offset": 0,
						"slot": "7",
						"type": "t_uint256"
					}
				],
				"types": {
					"t_address": {
						"encoding": "inplace",
						"label": "address",
						"numberOfBytes": "20"
					},
					"t_address_payable": {
						"encoding": "inplace",
						"label": "address payable",
						"numberOfBytes": "20"
					},
					"t_array(t_address_payable)dyn_storage": {
						"base": "t_address_payable",
						"encoding": "dynamic_array",
						"label": "address payable[]",
						"numberOfBytes": "32"
					},
					"t_bytes32": {
						"encoding": "inplace",
						"label": "bytes32",
						"numberOfBytes": "32"
					},
					"t_mapping(t_bytes32,t_uint256)": {
						"encoding": "mapping",
						"key": "t_bytes32",
						"label": "mapping(bytes32 => uint256)",
						"numberOfBytes": "32",
						"value": "t_uint256"
					},
					"t_mapping(t_uint256,t_address_payable)": {
						"encoding": "mapping",
						"key": "t_uint256",
						"label": "mapping(uint256 => address payable)",
						"numberOfBytes": "32",
						"value": "t_address_payable"
					},
					"t_uint256": {
						"encoding": "inplace",
						"label": "uint256",
						"numberOfBytes": "32"
					}
				}
			},
			"userdoc": {
				"kind": "user",
				"methods": {},
				"version": 1
			}
		}
	}
}