{
	"solidityLecture/lecture_03.sol": {
		"lec3": {
			"abi": [
				{
					"inputs": [],
					"name": "number",
					"outputs": [
						{
							"internalType": "uint8",
							"name": "",
							"type": "uint8"
						}
					],
					"stateMutability": "view",
					"type": "function"
				},
				{
					"inputs": [],
					"name": "valueEth",
					"outputs": [
						{
							"internalType": "uint256",
							"name": "",
							"type": "uint256"
						}
					],
					"stateMutability": "view",
					"type": "function"
				},
				{
					"inputs": [],
					"name": "valueGwei",
					"outputs": [
						{
							"internalType": "uint256",
							"name": "",
							"type": "uint256"
						}
					],
					"stateMutability": "view",
					"type": "function"
				}
			],
			"devdoc": {
				"kind": "dev",
				"methods": {},
				"version": 1
			},
			"evm": {
				"assembly": "    /* \"solidityLecture/lecture_03.sol\":67:341  contract lec3{... */\n  mstore(0x40, 0x80)\n    /* \"solidityLecture/lecture_03.sol\":286:293  1 ether */\n  0x0de0b6b3a7640000\n    /* \"solidityLecture/lecture_03.sol\":260:293  uint256 public valueEth = 1 ether */\n  0x01\n  sstore\n    /* \"solidityLecture/lecture_03.sol\":326:332  1 gwei */\n  0x3b9aca00\n    /* \"solidityLecture/lecture_03.sol\":299:332  uint256 public valueGwei = 1 gwei */\n  0x02\n  sstore\n    /* \"solidityLecture/lecture_03.sol\":67:341  contract lec3{... */\n  callvalue\n  dup1\n  iszero\n  tag_1\n  jumpi\n  0x00\n  dup1\n  revert\ntag_1:\n  pop\n  dataSize(sub_0)\n  dup1\n  dataOffset(sub_0)\n  0x00\n  codecopy\n  0x00\n  return\nstop\n\nsub_0: assembly {\n        /* \"solidityLecture/lecture_03.sol\":67:341  contract lec3{... */\n      mstore(0x40, 0x80)\n      callvalue\n      dup1\n      iszero\n      tag_1\n      jumpi\n      0x00\n      dup1\n      revert\n    tag_1:\n      pop\n      jumpi(tag_2, lt(calldatasize, 0x04))\n      shr(0xe0, calldataload(0x00))\n      dup1\n      0x8381f58a\n      eq\n      tag_3\n      jumpi\n      dup1\n      0x923f7b15\n      eq\n      tag_4\n      jumpi\n      dup1\n      0xbd049e5c\n      eq\n      tag_5\n      jumpi\n    tag_2:\n      0x00\n      dup1\n      revert\n        /* \"solidityLecture/lecture_03.sol\":86:105  uint8 public number */\n    tag_3:\n      tag_6\n      tag_7\n      jump\t// in\n    tag_6:\n      mload(0x40)\n      tag_8\n      swap2\n      swap1\n      tag_9\n      jump\t// in\n    tag_8:\n      mload(0x40)\n      dup1\n      swap2\n      sub\n      swap1\n      return\n        /* \"solidityLecture/lecture_03.sol\":299:332  uint256 public valueGwei = 1 gwei */\n    tag_4:\n      tag_10\n      tag_11\n      jump\t// in\n    tag_10:\n      mload(0x40)\n      tag_12\n      swap2\n      swap1\n      tag_13\n      jump\t// in\n    tag_12:\n      mload(0x40)\n      dup1\n      swap2\n      sub\n      swap1\n      return\n        /* \"solidityLecture/lecture_03.sol\":260:293  uint256 public valueEth = 1 ether */\n    tag_5:\n      tag_14\n      tag_15\n      jump\t// in\n    tag_14:\n      mload(0x40)\n      tag_16\n      swap2\n      swap1\n      tag_13\n      jump\t// in\n    tag_16:\n      mload(0x40)\n      dup1\n      swap2\n      sub\n      swap1\n      return\n        /* \"solidityLecture/lecture_03.sol\":86:105  uint8 public number */\n    tag_7:\n      0x00\n      dup1\n      sload\n      swap1\n      0x0100\n      exp\n      swap1\n      div\n      0xff\n      and\n      dup2\n      jump\t// out\n        /* \"solidityLecture/lecture_03.sol\":299:332  uint256 public valueGwei = 1 gwei */\n    tag_11:\n      sload(0x02)\n      dup2\n      jump\t// out\n        /* \"solidityLecture/lecture_03.sol\":260:293  uint256 public valueEth = 1 ether */\n    tag_15:\n      sload(0x01)\n      dup2\n      jump\t// out\n        /* \"#utility.yul\":7:125   */\n    tag_18:\n        /* \"#utility.yul\":94:118   */\n      tag_20\n        /* \"#utility.yul\":112:117   */\n      dup2\n        /* \"#utility.yul\":94:118   */\n      tag_21\n      jump\t// in\n    tag_20:\n        /* \"#utility.yul\":89:92   */\n      dup3\n        /* \"#utility.yul\":82:119   */\n      mstore\n        /* \"#utility.yul\":7:125   */\n      pop\n      pop\n      jump\t// out\n        /* \"#utility.yul\":131:243   */\n    tag_22:\n        /* \"#utility.yul\":214:236   */\n      tag_24\n        /* \"#utility.yul\":230:235   */\n      dup2\n        /* \"#utility.yul\":214:236   */\n      tag_25\n      jump\t// in\n    tag_24:\n        /* \"#utility.yul\":209:212   */\n      dup3\n        /* \"#utility.yul\":202:237   */\n      mstore\n        /* \"#utility.yul\":131:243   */\n      pop\n      pop\n      jump\t// out\n        /* \"#utility.yul\":249:471   */\n    tag_13:\n        /* \"#utility.yul\":342:346   */\n      0x00\n        /* \"#utility.yul\":380:382   */\n      0x20\n        /* \"#utility.yul\":369:378   */\n      dup3\n        /* \"#utility.yul\":365:383   */\n      add\n        /* \"#utility.yul\":357:383   */\n      swap1\n      pop\n        /* \"#utility.yul\":393:464   */\n      tag_27\n        /* \"#utility.yul\":461:462   */\n      0x00\n        /* \"#utility.yul\":450:459   */\n      dup4\n        /* \"#utility.yul\":446:463   */\n      add\n        /* \"#utility.yul\":437:443   */\n      dup5\n        /* \"#utility.yul\":393:464   */\n      tag_18\n      jump\t// in\n    tag_27:\n        /* \"#utility.yul\":249:471   */\n      swap3\n      swap2\n      pop\n      pop\n      jump\t// out\n        /* \"#utility.yul\":477:691   */\n    tag_9:\n        /* \"#utility.yul\":566:570   */\n      0x00\n        /* \"#utility.yul\":604:606   */\n      0x20\n        /* \"#utility.yul\":593:602   */\n      dup3\n        /* \"#utility.yul\":589:607   */\n      add\n        /* \"#utility.yul\":581:607   */\n      swap1\n      pop\n        /* \"#utility.yul\":617:684   */\n      tag_29\n        /* \"#utility.yul\":681:682   */\n      0x00\n        /* \"#utility.yul\":670:679   */\n      dup4\n        /* \"#utility.yul\":666:683   */\n      add\n        /* \"#utility.yul\":657:663   */\n      dup5\n        /* \"#utility.yul\":617:684   */\n      tag_22\n      jump\t// in\n    tag_29:\n        /* \"#utility.yul\":477:691   */\n      swap3\n      swap2\n      pop\n      pop\n      jump\t// out\n        /* \"#utility.yul\":697:774   */\n    tag_21:\n        /* \"#utility.yul\":734:741   */\n      0x00\n        /* \"#utility.yul\":763:768   */\n      dup2\n        /* \"#utility.yul\":752:768   */\n      swap1\n      pop\n        /* \"#utility.yul\":697:774   */\n      swap2\n      swap1\n      pop\n      jump\t// out\n        /* \"#utility.yul\":780:866   */\n    tag_25:\n        /* \"#utility.yul\":815:822   */\n      0x00\n        /* \"#utility.yul\":855:859   */\n      0xff\n        /* \"#utility.yul\":848:853   */\n      dup3\n        /* \"#utility.yul\":844:860   */\n      and\n        /* \"#utility.yul\":833:860   */\n      swap1\n      pop\n        /* \"#utility.yul\":780:866   */\n      swap2\n      swap1\n      pop\n      jump\t// out\n\n    auxdata: 0xa264697066735822122034c4f2fbeb4d69488931b21813442b7e3a58b9774ff4676920f13805df0b19d364736f6c63430008070033\n}\n",
				"bytecode": {
					"linkReferences": {},
					"object": "6080604052670de0b6b3a7640000600155633b9aca0060025534801561002457600080fd5b5061015e806100346000396000f3fe608060405234801561001057600080fd5b50600436106100415760003560e01c80638381f58a14610046578063923f7b1514610064578063bd049e5c14610082575b600080fd5b61004e6100a0565b60405161005b91906100f6565b60405180910390f35b61006c6100b1565b60405161007991906100db565b60405180910390f35b61008a6100b7565b60405161009791906100db565b60405180910390f35b60008054906101000a900460ff1681565b60025481565b60015481565b6100c681610111565b82525050565b6100d58161011b565b82525050565b60006020820190506100f060008301846100bd565b92915050565b600060208201905061010b60008301846100cc565b92915050565b6000819050919050565b600060ff8216905091905056fea264697066735822122034c4f2fbeb4d69488931b21813442b7e3a58b9774ff4676920f13805df0b19d364736f6c63430008070033",
					"opcodes": "PUSH1 0x80 PUSH1 0x40 MSTORE PUSH8 0xDE0B6B3A7640000 PUSH1 0x1 SSTORE PUSH4 0x3B9ACA00 PUSH1 0x2 SSTORE CALLVALUE DUP1 ISZERO PUSH2 0x24 JUMPI PUSH1 0x0 DUP1 REVERT JUMPDEST POP PUSH2 0x15E DUP1 PUSH2 0x34 PUSH1 0x0 CODECOPY PUSH1 0x0 RETURN INVALID PUSH1 0x80 PUSH1 0x40 MSTORE CALLVALUE DUP1 ISZERO PUSH2 0x10 JUMPI PUSH1 0x0 DUP1 REVERT JUMPDEST POP PUSH1 0x4 CALLDATASIZE LT PUSH2 0x41 JUMPI PUSH1 0x0 CALLDATALOAD PUSH1 0xE0 SHR DUP1 PUSH4 0x8381F58A EQ PUSH2 0x46 JUMPI DUP1 PUSH4 0x923F7B15 EQ PUSH2 0x64 JUMPI DUP1 PUSH4 0xBD049E5C EQ PUSH2 0x82 JUMPI JUMPDEST PUSH1 0x0 DUP1 REVERT JUMPDEST PUSH2 0x4E PUSH2 0xA0 JUMP JUMPDEST PUSH1 0x40 MLOAD PUSH2 0x5B SWAP2 SWAP1 PUSH2 0xF6 JUMP JUMPDEST PUSH1 0x40 MLOAD DUP1 SWAP2 SUB SWAP1 RETURN JUMPDEST PUSH2 0x6C PUSH2 0xB1 JUMP JUMPDEST PUSH1 0x40 MLOAD PUSH2 0x79 SWAP2 SWAP1 PUSH2 0xDB JUMP JUMPDEST PUSH1 0x40 MLOAD DUP1 SWAP2 SUB SWAP1 RETURN JUMPDEST PUSH2 0x8A PUSH2 0xB7 JUMP JUMPDEST PUSH1 0x40 MLOAD PUSH2 0x97 SWAP2 SWAP1 PUSH2 0xDB JUMP JUMPDEST PUSH1 0x40 MLOAD DUP1 SWAP2 SUB SWAP1 RETURN JUMPDEST PUSH1 0x0 DUP1 SLOAD SWAP1 PUSH2 0x100 EXP SWAP1 DIV PUSH1 0xFF AND DUP2 JUMP JUMPDEST PUSH1 0x2 SLOAD DUP2 JUMP JUMPDEST PUSH1 0x1 SLOAD DUP2 JUMP JUMPDEST PUSH2 0xC6 DUP2 PUSH2 0x111 JUMP JUMPDEST DUP3 MSTORE POP POP JUMP JUMPDEST PUSH2 0xD5 DUP2 PUSH2 0x11B JUMP JUMPDEST DUP3 MSTORE POP POP JUMP JUMPDEST PUSH1 0x0 PUSH1 0x20 DUP3 ADD SWAP1 POP PUSH2 0xF0 PUSH1 0x0 DUP4 ADD DUP5 PUSH2 0xBD JUMP JUMPDEST SWAP3 SWAP2 POP POP JUMP JUMPDEST PUSH1 0x0 PUSH1 0x20 DUP3 ADD SWAP1 POP PUSH2 0x10B PUSH1 0x0 DUP4 ADD DUP5 PUSH2 0xCC JUMP JUMPDEST SWAP3 SWAP2 POP POP JUMP JUMPDEST PUSH1 0x0 DUP2 SWAP1 POP SWAP2 SWAP1 POP JUMP JUMPDEST PUSH1 0x0 PUSH1 0xFF DUP3 AND SWAP1 POP SWAP2 SWAP1 POP JUMP INVALID LOG2 PUSH5 0x6970667358 0x22 SLT KECCAK256 CALLVALUE 0xC4 CALLCODE 0xFB 0xEB 0x4D PUSH10 0x488931B21813442B7E3A PC 0xB9 PUSH24 0x4FF4676920F13805DF0B19D364736F6C6343000807003300 "
				},
				"gasEstimates": {
					"creation": {
						"codeDepositCost": "70000",
						"executionCost": "44329",
						"totalCost": "114329"
					},
					"external": {
						"number()": "2446",
						"valueEth()": "2451",
						"valueGwei()": "2429"
					}
				},
				"methodIdentifiers": {
					"number()": "8381f58a",
					"valueEth()": "bd049e5c",
					"valueGwei()": "923f7b15"
				}
			},
			"storageLayout": {
				"storage": [
					{
						"astId": 3,
						"contract": "solidityLecture/lecture_03.sol:lec3",
						"label": "number",
						"offset": 0,
						"slot": "0",
						"type": "t_uint8"
					},
					{
						"astId": 6,
						"contract": "solidityLecture/lecture_03.sol:lec3",
						"label": "valueEth",
						"offset": 0,
						"slot": "1",
						"type": "t_uint256"
					},
					{
						"astId": 9,
						"contract": "solidityLecture/lecture_03.sol:lec3",
						"label": "valueGwei",
						"offset": 0,
						"slot": "2",
						"type": "t_uint256"
					}
				],
				"types": {
					"t_uint256": {
						"encoding": "inplace",
						"label": "uint256",
						"numberOfBytes": "32"
					},
					"t_uint8": {
						"encoding": "inplace",
						"label": "uint8",
						"numberOfBytes": "1"
					}
				}
			},
			"userdoc": {
				"kind": "user",
				"methods": {},
				"version": 1
			}
		}
	}
}