{
	"solidityLecture/lecture_02.sol": {
		"lec02": {
			"abi": [
				{
					"inputs": [],
					"name": "b",
					"outputs": [
						{
							"internalType": "bool",
							"name": "",
							"type": "bool"
						}
					],
					"stateMutability": "view",
					"type": "function"
				},
				{
					"inputs": [],
					"name": "bt",
					"outputs": [
						{
							"internalType": "bytes4",
							"name": "",
							"type": "bytes4"
						}
					],
					"stateMutability": "view",
					"type": "function"
				},
				{
					"inputs": [],
					"name": "c",
					"outputs": [
						{
							"internalType": "bool",
							"name": "",
							"type": "bool"
						}
					],
					"stateMutability": "view",
					"type": "function"
				},
				{
					"inputs": [],
					"name": "d",
					"outputs": [
						{
							"internalType": "bool",
							"name": "",
							"type": "bool"
						}
					],
					"stateMutability": "view",
					"type": "function"
				},
				{
					"inputs": [],
					"name": "hi",
					"outputs": [
						{
							"internalType": "string",
							"name": "",
							"type": "string"
						}
					],
					"stateMutability": "view",
					"type": "function"
				}
			],
			"devdoc": {
				"kind": "dev",
				"methods": {},
				"version": 1
			},
			"evm": {
				"assembly": "    /* \"solidityLecture/lecture_02.sol\":67:353  contract lec02{... */\n  mstore(0x40, 0x80)\n    /* \"solidityLecture/lecture_02.sol\":135:140  false */\n  0x00\n    /* \"solidityLecture/lecture_02.sol\":119:140  bool public b = false */\n  dup1\n  exp(0x0100, 0x00)\n  dup2\n  sload\n  dup2\n  0xff\n  mul\n  not\n  and\n  swap1\n  dup4\n  iszero\n  iszero\n  mul\n  or\n  swap1\n  sstore\n  pop\n    /* \"solidityLecture/lecture_02.sol\":163:168  false */\n  0x00\n    /* \"solidityLecture/lecture_02.sol\":162:168  !false */\n  iszero\n    /* \"solidityLecture/lecture_02.sol\":146:168  bool public c = !false */\n  0x00\n  exp(0x0100, 0x01)\n  dup2\n  sload\n  dup2\n  0xff\n  mul\n  not\n  and\n  swap1\n  dup4\n  iszero\n  iszero\n  mul\n  or\n  swap1\n  sstore\n  pop\n    /* \"solidityLecture/lecture_02.sol\":217:222  false */\n  0x00\n    /* \"solidityLecture/lecture_02.sol\":208:222  false == false */\n  iszero\n  iszero\n    /* \"solidityLecture/lecture_02.sol\":208:213  false */\n  0x00\n    /* \"solidityLecture/lecture_02.sol\":208:222  false == false */\n  iszero\n  iszero\n  eq\n    /* \"solidityLecture/lecture_02.sol\":192:222  bool public d = false == false */\n  0x00\n  exp(0x0100, 0x02)\n  dup2\n  sload\n  dup2\n  0xff\n  mul\n  not\n  and\n  swap1\n  dup4\n  iszero\n  iszero\n  mul\n  or\n  swap1\n  sstore\n  pop\n    /* \"solidityLecture/lecture_02.sol\":228:263  string public hi = \"Hello solidity\" */\n  mload(0x40)\n  dup1\n  0x40\n  add\n  0x40\n  mstore\n  dup1\n  0x0e\n  dup2\n  mstore\n  0x20\n  add\n  0x48656c6c6f20736f6c6964697479000000000000000000000000000000000000\n  dup2\n  mstore\n  pop\n  0x01\n  swap1\n  dup1\n  mload\n  swap1\n  0x20\n  add\n  swap1\n  tag_1\n  swap3\n  swap2\n  swap1\n  tag_2\n  jump\t// in\ntag_1:\n  pop\n    /* \"solidityLecture/lecture_02.sol\":310:320  0x12345678 */\n  0x12345678\n    /* \"solidityLecture/lecture_02.sol\":291:320  bytes4 public bt = 0x12345678 */\n  0xe0\n  shl\n  0x02\n  exp(0x0100, 0x00)\n  dup2\n  sload\n  dup2\n  0xffffffff\n  mul\n  not\n  and\n  swap1\n  dup4\n  0xe0\n  shr\n  mul\n  or\n  swap1\n  sstore\n  pop\n    /* \"solidityLecture/lecture_02.sol\":67:353  contract lec02{... */\n  callvalue\n  dup1\n  iszero\n  tag_3\n  jumpi\n  0x00\n  dup1\n  revert\ntag_3:\n  pop\n  jump(tag_4)\ntag_2:\n  dup3\n  dup1\n  sload\n  tag_5\n  swap1\n  tag_6\n  jump\t// in\ntag_5:\n  swap1\n  0x00\n  mstore\n  keccak256(0x00, 0x20)\n  swap1\n  0x1f\n  add\n  0x20\n  swap1\n  div\n  dup2\n  add\n  swap3\n  dup3\n  tag_8\n  jumpi\n  0x00\n  dup6\n  sstore\n  jump(tag_7)\ntag_8:\n  dup3\n  0x1f\n  lt\n  tag_9\n  jumpi\n  dup1\n  mload\n  not(0xff)\n  and\n  dup4\n  dup1\n  add\n  or\n  dup6\n  sstore\n  jump(tag_7)\ntag_9:\n  dup3\n  dup1\n  add\n  0x01\n  add\n  dup6\n  sstore\n  dup3\n  iszero\n  tag_7\n  jumpi\n  swap2\n  dup3\n  add\ntag_10:\n  dup3\n  dup2\n  gt\n  iszero\n  tag_11\n  jumpi\n  dup3\n  mload\n  dup3\n  sstore\n  swap2\n  0x20\n  add\n  swap2\n  swap1\n  0x01\n  add\n  swap1\n  jump(tag_10)\ntag_11:\ntag_7:\n  pop\n  swap1\n  pop\n  tag_12\n  swap2\n  swap1\n  tag_13\n  jump\t// in\ntag_12:\n  pop\n  swap1\n  jump\t// out\ntag_13:\ntag_14:\n  dup1\n  dup3\n  gt\n  iszero\n  tag_15\n  jumpi\n  0x00\n  dup2\n  0x00\n  swap1\n  sstore\n  pop\n  0x01\n  add\n  jump(tag_14)\ntag_15:\n  pop\n  swap1\n  jump\t// out\n    /* \"#utility.yul\":7:327   */\ntag_6:\n    /* \"#utility.yul\":51:57   */\n  0x00\n    /* \"#utility.yul\":88:89   */\n  0x02\n    /* \"#utility.yul\":82:86   */\n  dup3\n    /* \"#utility.yul\":78:90   */\n  div\n    /* \"#utility.yul\":68:90   */\n  swap1\n  pop\n    /* \"#utility.yul\":135:136   */\n  0x01\n    /* \"#utility.yul\":129:133   */\n  dup3\n    /* \"#utility.yul\":125:137   */\n  and\n    /* \"#utility.yul\":156:174   */\n  dup1\n    /* \"#utility.yul\":146:227   */\n  tag_18\n  jumpi\n    /* \"#utility.yul\":212:216   */\n  0x7f\n    /* \"#utility.yul\":204:210   */\n  dup3\n    /* \"#utility.yul\":200:217   */\n  and\n    /* \"#utility.yul\":190:217   */\n  swap2\n  pop\n    /* \"#utility.yul\":146:227   */\ntag_18:\n    /* \"#utility.yul\":274:276   */\n  0x20\n    /* \"#utility.yul\":266:272   */\n  dup3\n    /* \"#utility.yul\":263:277   */\n  lt\n    /* \"#utility.yul\":243:261   */\n  dup2\n    /* \"#utility.yul\":240:278   */\n  eq\n    /* \"#utility.yul\":237:321   */\n  iszero\n  tag_19\n  jumpi\n    /* \"#utility.yul\":293:311   */\n  tag_20\n  tag_21\n  jump\t// in\ntag_20:\n    /* \"#utility.yul\":237:321   */\ntag_19:\n    /* \"#utility.yul\":58:327   */\n  pop\n    /* \"#utility.yul\":7:327   */\n  swap2\n  swap1\n  pop\n  jump\t// out\n    /* \"#utility.yul\":333:513   */\ntag_21:\n    /* \"#utility.yul\":381:458   */\n  0x4e487b7100000000000000000000000000000000000000000000000000000000\n    /* \"#utility.yul\":378:379   */\n  0x00\n    /* \"#utility.yul\":371:459   */\n  mstore\n    /* \"#utility.yul\":478:482   */\n  0x22\n    /* \"#utility.yul\":475:476   */\n  0x04\n    /* \"#utility.yul\":468:483   */\n  mstore\n    /* \"#utility.yul\":502:506   */\n  0x24\n    /* \"#utility.yul\":499:500   */\n  0x00\n    /* \"#utility.yul\":492:507   */\n  revert\n    /* \"solidityLecture/lecture_02.sol\":67:353  contract lec02{... */\ntag_4:\n  dataSize(sub_0)\n  dup1\n  dataOffset(sub_0)\n  0x00\n  codecopy\n  0x00\n  return\nstop\n\nsub_0: assembly {\n        /* \"solidityLecture/lecture_02.sol\":67:353  contract lec02{... */\n      mstore(0x40, 0x80)\n      callvalue\n      dup1\n      iszero\n      tag_1\n      jumpi\n      0x00\n      dup1\n      revert\n    tag_1:\n      pop\n      jumpi(tag_2, lt(calldatasize, 0x04))\n      shr(0xe0, calldataload(0x00))\n      dup1\n      0x4df7e3d0\n      eq\n      tag_3\n      jumpi\n      dup1\n      0x8a054ac2\n      eq\n      tag_4\n      jumpi\n      dup1\n      0xa99dca3f\n      eq\n      tag_5\n      jumpi\n      dup1\n      0xac9c1959\n      eq\n      tag_6\n      jumpi\n      dup1\n      0xc3da42b8\n      eq\n      tag_7\n      jumpi\n    tag_2:\n      0x00\n      dup1\n      revert\n        /* \"solidityLecture/lecture_02.sol\":119:140  bool public b = false */\n    tag_3:\n      tag_8\n      tag_9\n      jump\t// in\n    tag_8:\n      mload(0x40)\n      tag_10\n      swap2\n      swap1\n      tag_11\n      jump\t// in\n    tag_10:\n      mload(0x40)\n      dup1\n      swap2\n      sub\n      swap1\n      return\n        /* \"solidityLecture/lecture_02.sol\":192:222  bool public d = false == false */\n    tag_4:\n      tag_12\n      tag_13\n      jump\t// in\n    tag_12:\n      mload(0x40)\n      tag_14\n      swap2\n      swap1\n      tag_11\n      jump\t// in\n    tag_14:\n      mload(0x40)\n      dup1\n      swap2\n      sub\n      swap1\n      return\n        /* \"solidityLecture/lecture_02.sol\":228:263  string public hi = \"Hello solidity\" */\n    tag_5:\n      tag_15\n      tag_16\n      jump\t// in\n    tag_15:\n      mload(0x40)\n      tag_17\n      swap2\n      swap1\n      tag_18\n      jump\t// in\n    tag_17:\n      mload(0x40)\n      dup1\n      swap2\n      sub\n      swap1\n      return\n        /* \"solidityLecture/lecture_02.sol\":291:320  bytes4 public bt = 0x12345678 */\n    tag_6:\n      tag_19\n      tag_20\n      jump\t// in\n    tag_19:\n      mload(0x40)\n      tag_21\n      swap2\n      swap1\n      tag_22\n      jump\t// in\n    tag_21:\n      mload(0x40)\n      dup1\n      swap2\n      sub\n      swap1\n      return\n        /* \"solidityLecture/lecture_02.sol\":146:168  bool public c = !false */\n    tag_7:\n      tag_23\n      tag_24\n      jump\t// in\n    tag_23:\n      mload(0x40)\n      tag_25\n      swap2\n      swap1\n      tag_11\n      jump\t// in\n    tag_25:\n      mload(0x40)\n      dup1\n      swap2\n      sub\n      swap1\n      return\n        /* \"solidityLecture/lecture_02.sol\":119:140  bool public b = false */\n    tag_9:\n      0x00\n      dup1\n      sload\n      swap1\n      0x0100\n      exp\n      swap1\n      div\n      0xff\n      and\n      dup2\n      jump\t// out\n        /* \"solidityLecture/lecture_02.sol\":192:222  bool public d = false == false */\n    tag_13:\n      0x00\n      0x02\n      swap1\n      sload\n      swap1\n      0x0100\n      exp\n      swap1\n      div\n      0xff\n      and\n      dup2\n      jump\t// out\n        /* \"solidityLecture/lecture_02.sol\":228:263  string public hi = \"Hello solidity\" */\n    tag_16:\n      0x01\n      dup1\n      sload\n      tag_26\n      swap1\n      tag_27\n      jump\t// in\n    tag_26:\n      dup1\n      0x1f\n      add\n      0x20\n      dup1\n      swap2\n      div\n      mul\n      0x20\n      add\n      mload(0x40)\n      swap1\n      dup2\n      add\n      0x40\n      mstore\n      dup1\n      swap3\n      swap2\n      swap1\n      dup2\n      dup2\n      mstore\n      0x20\n      add\n      dup3\n      dup1\n      sload\n      tag_28\n      swap1\n      tag_27\n      jump\t// in\n    tag_28:\n      dup1\n      iszero\n      tag_29\n      jumpi\n      dup1\n      0x1f\n      lt\n      tag_30\n      jumpi\n      0x0100\n      dup1\n      dup4\n      sload\n      div\n      mul\n      dup4\n      mstore\n      swap2\n      0x20\n      add\n      swap2\n      jump(tag_29)\n    tag_30:\n      dup3\n      add\n      swap2\n      swap1\n      0x00\n      mstore\n      keccak256(0x00, 0x20)\n      swap1\n    tag_31:\n      dup2\n      sload\n      dup2\n      mstore\n      swap1\n      0x01\n      add\n      swap1\n      0x20\n      add\n      dup1\n      dup4\n      gt\n      tag_31\n      jumpi\n      dup3\n      swap1\n      sub\n      0x1f\n      and\n      dup3\n      add\n      swap2\n    tag_29:\n      pop\n      pop\n      pop\n      pop\n      pop\n      dup2\n      jump\t// out\n        /* \"solidityLecture/lecture_02.sol\":291:320  bytes4 public bt = 0x12345678 */\n    tag_20:\n      0x02\n      0x00\n      swap1\n      sload\n      swap1\n      0x0100\n      exp\n      swap1\n      div\n      0xe0\n      shl\n      dup2\n      jump\t// out\n        /* \"solidityLecture/lecture_02.sol\":146:168  bool public c = !false */\n    tag_24:\n      0x00\n      0x01\n      swap1\n      sload\n      swap1\n      0x0100\n      exp\n      swap1\n      div\n      0xff\n      and\n      dup2\n      jump\t// out\n        /* \"#utility.yul\":7:116   */\n    tag_33:\n        /* \"#utility.yul\":88:109   */\n      tag_35\n        /* \"#utility.yul\":103:108   */\n      dup2\n        /* \"#utility.yul\":88:109   */\n      tag_36\n      jump\t// in\n    tag_35:\n        /* \"#utility.yul\":83:86   */\n      dup3\n        /* \"#utility.yul\":76:110   */\n      mstore\n        /* \"#utility.yul\":7:116   */\n      pop\n      pop\n      jump\t// out\n        /* \"#utility.yul\":122:237   */\n    tag_37:\n        /* \"#utility.yul\":207:230   */\n      tag_39\n        /* \"#utility.yul\":224:229   */\n      dup2\n        /* \"#utility.yul\":207:230   */\n      tag_40\n      jump\t// in\n    tag_39:\n        /* \"#utility.yul\":202:205   */\n      dup3\n        /* \"#utility.yul\":195:231   */\n      mstore\n        /* \"#utility.yul\":122:237   */\n      pop\n      pop\n      jump\t// out\n        /* \"#utility.yul\":243:607   */\n    tag_41:\n        /* \"#utility.yul\":331:334   */\n      0x00\n        /* \"#utility.yul\":359:398   */\n      tag_43\n        /* \"#utility.yul\":392:397   */\n      dup3\n        /* \"#utility.yul\":359:398   */\n      tag_44\n      jump\t// in\n    tag_43:\n        /* \"#utility.yul\":414:485   */\n      tag_45\n        /* \"#utility.yul\":478:484   */\n      dup2\n        /* \"#utility.yul\":473:476   */\n      dup6\n        /* \"#utility.yul\":414:485   */\n      tag_46\n      jump\t// in\n    tag_45:\n        /* \"#utility.yul\":407:485   */\n      swap4\n      pop\n        /* \"#utility.yul\":494:546   */\n      tag_47\n        /* \"#utility.yul\":539:545   */\n      dup2\n        /* \"#utility.yul\":534:537   */\n      dup6\n        /* \"#utility.yul\":527:531   */\n      0x20\n        /* \"#utility.yul\":520:525   */\n      dup7\n        /* \"#utility.yul\":516:532   */\n      add\n        /* \"#utility.yul\":494:546   */\n      tag_48\n      jump\t// in\n    tag_47:\n        /* \"#utility.yul\":571:600   */\n      tag_49\n        /* \"#utility.yul\":593:599   */\n      dup2\n        /* \"#utility.yul\":571:600   */\n      tag_50\n      jump\t// in\n    tag_49:\n        /* \"#utility.yul\":566:569   */\n      dup5\n        /* \"#utility.yul\":562:601   */\n      add\n        /* \"#utility.yul\":555:601   */\n      swap2\n      pop\n        /* \"#utility.yul\":335:607   */\n      pop\n        /* \"#utility.yul\":243:607   */\n      swap3\n      swap2\n      pop\n      pop\n      jump\t// out\n        /* \"#utility.yul\":613:823   */\n    tag_11:\n        /* \"#utility.yul\":700:704   */\n      0x00\n        /* \"#utility.yul\":738:740   */\n      0x20\n        /* \"#utility.yul\":727:736   */\n      dup3\n        /* \"#utility.yul\":723:741   */\n      add\n        /* \"#utility.yul\":715:741   */\n      swap1\n      pop\n        /* \"#utility.yul\":751:816   */\n      tag_52\n        /* \"#utility.yul\":813:814   */\n      0x00\n        /* \"#utility.yul\":802:811   */\n      dup4\n        /* \"#utility.yul\":798:815   */\n      add\n        /* \"#utility.yul\":789:795   */\n      dup5\n        /* \"#utility.yul\":751:816   */\n      tag_33\n      jump\t// in\n    tag_52:\n        /* \"#utility.yul\":613:823   */\n      swap3\n      swap2\n      pop\n      pop\n      jump\t// out\n        /* \"#utility.yul\":829:1047   */\n    tag_22:\n        /* \"#utility.yul\":920:924   */\n      0x00\n        /* \"#utility.yul\":958:960   */\n      0x20\n        /* \"#utility.yul\":947:956   */\n      dup3\n        /* \"#utility.yul\":943:961   */\n      add\n        /* \"#utility.yul\":935:961   */\n      swap1\n      pop\n        /* \"#utility.yul\":971:1040   */\n      tag_54\n        /* \"#utility.yul\":1037:1038   */\n      0x00\n        /* \"#utility.yul\":1026:1035   */\n      dup4\n        /* \"#utility.yul\":1022:1039   */\n      add\n        /* \"#utility.yul\":1013:1019   */\n      dup5\n        /* \"#utility.yul\":971:1040   */\n      tag_37\n      jump\t// in\n    tag_54:\n        /* \"#utility.yul\":829:1047   */\n      swap3\n      swap2\n      pop\n      pop\n      jump\t// out\n        /* \"#utility.yul\":1053:1366   */\n    tag_18:\n        /* \"#utility.yul\":1166:1170   */\n      0x00\n        /* \"#utility.yul\":1204:1206   */\n      0x20\n        /* \"#utility.yul\":1193:1202   */\n      dup3\n        /* \"#utility.yul\":1189:1207   */\n      add\n        /* \"#utility.yul\":1181:1207   */\n      swap1\n      pop\n        /* \"#utility.yul\":1253:1262   */\n      dup2\n        /* \"#utility.yul\":1247:1251   */\n      dup2\n        /* \"#utility.yul\":1243:1263   */\n      sub\n        /* \"#utility.yul\":1239:1240   */\n      0x00\n        /* \"#utility.yul\":1228:1237   */\n      dup4\n        /* \"#utility.yul\":1224:1241   */\n      add\n        /* \"#utility.yul\":1217:1264   */\n      mstore\n        /* \"#utility.yul\":1281:1359   */\n      tag_56\n        /* \"#utility.yul\":1354:1358   */\n      dup2\n        /* \"#utility.yul\":1345:1351   */\n      dup5\n        /* \"#utility.yul\":1281:1359   */\n      tag_41\n      jump\t// in\n    tag_56:\n        /* \"#utility.yul\":1273:1359   */\n      swap1\n      pop\n        /* \"#utility.yul\":1053:1366   */\n      swap3\n      swap2\n      pop\n      pop\n      jump\t// out\n        /* \"#utility.yul\":1372:1471   */\n    tag_44:\n        /* \"#utility.yul\":1424:1430   */\n      0x00\n        /* \"#utility.yul\":1458:1463   */\n      dup2\n        /* \"#utility.yul\":1452:1464   */\n      mload\n        /* \"#utility.yul\":1442:1464   */\n      swap1\n      pop\n        /* \"#utility.yul\":1372:1471   */\n      swap2\n      swap1\n      pop\n      jump\t// out\n        /* \"#utility.yul\":1477:1646   */\n    tag_46:\n        /* \"#utility.yul\":1561:1572   */\n      0x00\n        /* \"#utility.yul\":1595:1601   */\n      dup3\n        /* \"#utility.yul\":1590:1593   */\n      dup3\n        /* \"#utility.yul\":1583:1602   */\n      mstore\n        /* \"#utility.yul\":1635:1639   */\n      0x20\n        /* \"#utility.yul\":1630:1633   */\n      dup3\n        /* \"#utility.yul\":1626:1640   */\n      add\n        /* \"#utility.yul\":1611:1640   */\n      swap1\n      pop\n        /* \"#utility.yul\":1477:1646   */\n      swap3\n      swap2\n      pop\n      pop\n      jump\t// out\n        /* \"#utility.yul\":1652:1742   */\n    tag_36:\n        /* \"#utility.yul\":1686:1693   */\n      0x00\n        /* \"#utility.yul\":1729:1734   */\n      dup2\n        /* \"#utility.yul\":1722:1735   */\n      iszero\n        /* \"#utility.yul\":1715:1736   */\n      iszero\n        /* \"#utility.yul\":1704:1736   */\n      swap1\n      pop\n        /* \"#utility.yul\":1652:1742   */\n      swap2\n      swap1\n      pop\n      jump\t// out\n        /* \"#utility.yul\":1748:1897   */\n    tag_40:\n        /* \"#utility.yul\":1784:1791   */\n      0x00\n        /* \"#utility.yul\":1824:1890   */\n      0xffffffff00000000000000000000000000000000000000000000000000000000\n        /* \"#utility.yul\":1817:1822   */\n      dup3\n        /* \"#utility.yul\":1813:1891   */\n      and\n        /* \"#utility.yul\":1802:1891   */\n      swap1\n      pop\n        /* \"#utility.yul\":1748:1897   */\n      swap2\n      swap1\n      pop\n      jump\t// out\n        /* \"#utility.yul\":1903:2210   */\n    tag_48:\n        /* \"#utility.yul\":1971:1972   */\n      0x00\n        /* \"#utility.yul\":1981:2094   */\n    tag_62:\n        /* \"#utility.yul\":1995:2001   */\n      dup4\n        /* \"#utility.yul\":1992:1993   */\n      dup2\n        /* \"#utility.yul\":1989:2002   */\n      lt\n        /* \"#utility.yul\":1981:2094   */\n      iszero\n      tag_64\n      jumpi\n        /* \"#utility.yul\":2080:2081   */\n      dup1\n        /* \"#utility.yul\":2075:2078   */\n      dup3\n        /* \"#utility.yul\":2071:2082   */\n      add\n        /* \"#utility.yul\":2065:2083   */\n      mload\n        /* \"#utility.yul\":2061:2062   */\n      dup2\n        /* \"#utility.yul\":2056:2059   */\n      dup5\n        /* \"#utility.yul\":2052:2063   */\n      add\n        /* \"#utility.yul\":2045:2084   */\n      mstore\n        /* \"#utility.yul\":2017:2019   */\n      0x20\n        /* \"#utility.yul\":2014:2015   */\n      dup2\n        /* \"#utility.yul\":2010:2020   */\n      add\n        /* \"#utility.yul\":2005:2020   */\n      swap1\n      pop\n        /* \"#utility.yul\":1981:2094   */\n      jump(tag_62)\n    tag_64:\n        /* \"#utility.yul\":2112:2118   */\n      dup4\n        /* \"#utility.yul\":2109:2110   */\n      dup2\n        /* \"#utility.yul\":2106:2119   */\n      gt\n        /* \"#utility.yul\":2103:2204   */\n      iszero\n      tag_65\n      jumpi\n        /* \"#utility.yul\":2192:2193   */\n      0x00\n        /* \"#utility.yul\":2183:2189   */\n      dup5\n        /* \"#utility.yul\":2178:2181   */\n      dup5\n        /* \"#utility.yul\":2174:2190   */\n      add\n        /* \"#utility.yul\":2167:2194   */\n      mstore\n        /* \"#utility.yul\":2103:2204   */\n    tag_65:\n        /* \"#utility.yul\":1952:2210   */\n      pop\n        /* \"#utility.yul\":1903:2210   */\n      pop\n      pop\n      pop\n      jump\t// out\n        /* \"#utility.yul\":2216:2536   */\n    tag_27:\n        /* \"#utility.yul\":2260:2266   */\n      0x00\n        /* \"#utility.yul\":2297:2298   */\n      0x02\n        /* \"#utility.yul\":2291:2295   */\n      dup3\n        /* \"#utility.yul\":2287:2299   */\n      div\n        /* \"#utility.yul\":2277:2299   */\n      swap1\n      pop\n        /* \"#utility.yul\":2344:2345   */\n      0x01\n        /* \"#utility.yul\":2338:2342   */\n      dup3\n        /* \"#utility.yul\":2334:2346   */\n      and\n        /* \"#utility.yul\":2365:2383   */\n      dup1\n        /* \"#utility.yul\":2355:2436   */\n      tag_67\n      jumpi\n        /* \"#utility.yul\":2421:2425   */\n      0x7f\n        /* \"#utility.yul\":2413:2419   */\n      dup3\n        /* \"#utility.yul\":2409:2426   */\n      and\n        /* \"#utility.yul\":2399:2426   */\n      swap2\n      pop\n        /* \"#utility.yul\":2355:2436   */\n    tag_67:\n        /* \"#utility.yul\":2483:2485   */\n      0x20\n        /* \"#utility.yul\":2475:2481   */\n      dup3\n        /* \"#utility.yul\":2472:2486   */\n      lt\n        /* \"#utility.yul\":2452:2470   */\n      dup2\n        /* \"#utility.yul\":2449:2487   */\n      eq\n        /* \"#utility.yul\":2446:2530   */\n      iszero\n      tag_68\n      jumpi\n        /* \"#utility.yul\":2502:2520   */\n      tag_69\n      tag_70\n      jump\t// in\n    tag_69:\n        /* \"#utility.yul\":2446:2530   */\n    tag_68:\n        /* \"#utility.yul\":2267:2536   */\n      pop\n        /* \"#utility.yul\":2216:2536   */\n      swap2\n      swap1\n      pop\n      jump\t// out\n        /* \"#utility.yul\":2542:2722   */\n    tag_70:\n        /* \"#utility.yul\":2590:2667   */\n      0x4e487b7100000000000000000000000000000000000000000000000000000000\n        /* \"#utility.yul\":2587:2588   */\n      0x00\n        /* \"#utility.yul\":2580:2668   */\n      mstore\n        /* \"#utility.yul\":2687:2691   */\n      0x22\n        /* \"#utility.yul\":2684:2685   */\n      0x04\n        /* \"#utility.yul\":2677:2692   */\n      mstore\n        /* \"#utility.yul\":2711:2715   */\n      0x24\n        /* \"#utility.yul\":2708:2709   */\n      0x00\n        /* \"#utility.yul\":2701:2716   */\n      revert\n        /* \"#utility.yul\":2728:2830   */\n    tag_50:\n        /* \"#utility.yul\":2769:2775   */\n      0x00\n        /* \"#utility.yul\":2820:2822   */\n      0x1f\n        /* \"#utility.yul\":2816:2823   */\n      not\n        /* \"#utility.yul\":2811:2813   */\n      0x1f\n        /* \"#utility.yul\":2804:2809   */\n      dup4\n        /* \"#utility.yul\":2800:2814   */\n      add\n        /* \"#utility.yul\":2796:2824   */\n      and\n        /* \"#utility.yul\":2786:2824   */\n      swap1\n      pop\n        /* \"#utility.yul\":2728:2830   */\n      swap2\n      swap1\n      pop\n      jump\t// out\n\n    auxdata: 0xa2646970667358221220c850314657436639ccf90811df2e001fd5cb4d8a6ea69bbe90e2435e0117110764736f6c63430008070033\n}\n",
				"bytecode": {
					"linkReferences": {},
					"object": "608060405260008060006101000a81548160ff021916908315150217905550600015600060016101000a81548160ff021916908315150217905550600015156000151514600060026101000a81548160ff0219169083151502179055506040518060400160405280600e81526020017f48656c6c6f20736f6c6964697479000000000000000000000000000000000000815250600190805190602001906100a79291906100df565b50631234567860e01b600260006101000a81548163ffffffff021916908360e01c02179055503480156100d957600080fd5b506101e3565b8280546100eb90610182565b90600052602060002090601f01602090048101928261010d5760008555610154565b82601f1061012657805160ff1916838001178555610154565b82800160010185558215610154579182015b82811115610153578251825591602001919060010190610138565b5b5090506101619190610165565b5090565b5b8082111561017e576000816000905550600101610166565b5090565b6000600282049050600182168061019a57607f821691505b602082108114156101ae576101ad6101b4565b5b50919050565b7f4e487b7100000000000000000000000000000000000000000000000000000000600052602260045260246000fd5b6103a8806101f26000396000f3fe608060405234801561001057600080fd5b50600436106100575760003560e01c80634df7e3d01461005c5780638a054ac21461007a578063a99dca3f14610098578063ac9c1959146100b6578063c3da42b8146100d4575b600080fd5b6100646100f2565b6040516100719190610221565b60405180910390f35b610082610103565b60405161008f9190610221565b60405180910390f35b6100a0610116565b6040516100ad9190610257565b60405180910390f35b6100be6101a4565b6040516100cb919061023c565b60405180910390f35b6100dc6101b7565b6040516100e99190610221565b60405180910390f35b60008054906101000a900460ff1681565b600060029054906101000a900460ff1681565b6001805461012390610300565b80601f016020809104026020016040519081016040528092919081815260200182805461014f90610300565b801561019c5780601f106101715761010080835404028352916020019161019c565b820191906000526020600020905b81548152906001019060200180831161017f57829003601f168201915b505050505081565b600260009054906101000a900460e01b81565b600060019054906101000a900460ff1681565b6101d381610295565b82525050565b6101e2816102a1565b82525050565b60006101f382610279565b6101fd8185610284565b935061020d8185602086016102cd565b61021681610361565b840191505092915050565b600060208201905061023660008301846101ca565b92915050565b600060208201905061025160008301846101d9565b92915050565b6000602082019050818103600083015261027181846101e8565b905092915050565b600081519050919050565b600082825260208201905092915050565b60008115159050919050565b60007fffffffff0000000000000000000000000000000000000000000000000000000082169050919050565b60005b838110156102eb5780820151818401526020810190506102d0565b838111156102fa576000848401525b50505050565b6000600282049050600182168061031857607f821691505b6020821081141561032c5761032b610332565b5b50919050565b7f4e487b7100000000000000000000000000000000000000000000000000000000600052602260045260246000fd5b6000601f19601f830116905091905056fea2646970667358221220c850314657436639ccf90811df2e001fd5cb4d8a6ea69bbe90e2435e0117110764736f6c63430008070033",
					"opcodes": "PUSH1 0x80 PUSH1 0x40 MSTORE PUSH1 0x0 DUP1 PUSH1 0x0 PUSH2 0x100 EXP DUP2 SLOAD DUP2 PUSH1 0xFF MUL NOT AND SWAP1 DUP4 ISZERO ISZERO MUL OR SWAP1 SSTORE POP PUSH1 0x0 ISZERO PUSH1 0x0 PUSH1 0x1 PUSH2 0x100 EXP DUP2 SLOAD DUP2 PUSH1 0xFF MUL NOT AND SWAP1 DUP4 ISZERO ISZERO MUL OR SWAP1 SSTORE POP PUSH1 0x0 ISZERO ISZERO PUSH1 0x0 ISZERO ISZERO EQ PUSH1 0x0 PUSH1 0x2 PUSH2 0x100 EXP DUP2 SLOAD DUP2 PUSH1 0xFF MUL NOT AND SWAP1 DUP4 ISZERO ISZERO MUL OR SWAP1 SSTORE POP PUSH1 0x40 MLOAD DUP1 PUSH1 0x40 ADD PUSH1 0x40 MSTORE DUP1 PUSH1 0xE DUP2 MSTORE PUSH1 0x20 ADD PUSH32 0x48656C6C6F20736F6C6964697479000000000000000000000000000000000000 DUP2 MSTORE POP PUSH1 0x1 SWAP1 DUP1 MLOAD SWAP1 PUSH1 0x20 ADD SWAP1 PUSH2 0xA7 SWAP3 SWAP2 SWAP1 PUSH2 0xDF JUMP JUMPDEST POP PUSH4 0x12345678 PUSH1 0xE0 SHL PUSH1 0x2 PUSH1 0x0 PUSH2 0x100 EXP DUP2 SLOAD DUP2 PUSH4 0xFFFFFFFF MUL NOT AND SWAP1 DUP4 PUSH1 0xE0 SHR MUL OR SWAP1 SSTORE POP CALLVALUE DUP1 ISZERO PUSH2 0xD9 JUMPI PUSH1 0x0 DUP1 REVERT JUMPDEST POP PUSH2 0x1E3 JUMP JUMPDEST DUP3 DUP1 SLOAD PUSH2 0xEB SWAP1 PUSH2 0x182 JUMP JUMPDEST SWAP1 PUSH1 0x0 MSTORE PUSH1 0x20 PUSH1 0x0 KECCAK256 SWAP1 PUSH1 0x1F ADD PUSH1 0x20 SWAP1 DIV DUP2 ADD SWAP3 DUP3 PUSH2 0x10D JUMPI PUSH1 0x0 DUP6 SSTORE PUSH2 0x154 JUMP JUMPDEST DUP3 PUSH1 0x1F LT PUSH2 0x126 JUMPI DUP1 MLOAD PUSH1 0xFF NOT AND DUP4 DUP1 ADD OR DUP6 SSTORE PUSH2 0x154 JUMP JUMPDEST DUP3 DUP1 ADD PUSH1 0x1 ADD DUP6 SSTORE DUP3 ISZERO PUSH2 0x154 JUMPI SWAP2 DUP3 ADD JUMPDEST DUP3 DUP2 GT ISZERO PUSH2 0x153 JUMPI DUP3 MLOAD DUP3 SSTORE SWAP2 PUSH1 0x20 ADD SWAP2 SWAP1 PUSH1 0x1 ADD SWAP1 PUSH2 0x138 JUMP JUMPDEST JUMPDEST POP SWAP1 POP PUSH2 0x161 SWAP2 SWAP1 PUSH2 0x165 JUMP JUMPDEST POP SWAP1 JUMP JUMPDEST JUMPDEST DUP1 DUP3 GT ISZERO PUSH2 0x17E JUMPI PUSH1 0x0 DUP2 PUSH1 0x0 SWAP1 SSTORE POP PUSH1 0x1 ADD PUSH2 0x166 JUMP JUMPDEST POP SWAP1 JUMP JUMPDEST PUSH1 0x0 PUSH1 0x2 DUP3 DIV SWAP1 POP PUSH1 0x1 DUP3 AND DUP1 PUSH2 0x19A JUMPI PUSH1 0x7F DUP3 AND SWAP2 POP JUMPDEST PUSH1 0x20 DUP3 LT DUP2 EQ ISZERO PUSH2 0x1AE JUMPI PUSH2 0x1AD PUSH2 0x1B4 JUMP JUMPDEST JUMPDEST POP SWAP2 SWAP1 POP JUMP JUMPDEST PUSH32 0x4E487B7100000000000000000000000000000000000000000000000000000000 PUSH1 0x0 MSTORE PUSH1 0x22 PUSH1 0x4 MSTORE PUSH1 0x24 PUSH1 0x0 REVERT JUMPDEST PUSH2 0x3A8 DUP1 PUSH2 0x1F2 PUSH1 0x0 CODECOPY PUSH1 0x0 RETURN INVALID PUSH1 0x80 PUSH1 0x40 MSTORE CALLVALUE DUP1 ISZERO PUSH2 0x10 JUMPI PUSH1 0x0 DUP1 REVERT JUMPDEST POP PUSH1 0x4 CALLDATASIZE LT PUSH2 0x57 JUMPI PUSH1 0x0 CALLDATALOAD PUSH1 0xE0 SHR DUP1 PUSH4 0x4DF7E3D0 EQ PUSH2 0x5C JUMPI DUP1 PUSH4 0x8A054AC2 EQ PUSH2 0x7A JUMPI DUP1 PUSH4 0xA99DCA3F EQ PUSH2 0x98 JUMPI DUP1 PUSH4 0xAC9C1959 EQ PUSH2 0xB6 JUMPI DUP1 PUSH4 0xC3DA42B8 EQ PUSH2 0xD4 JUMPI JUMPDEST PUSH1 0x0 DUP1 REVERT JUMPDEST PUSH2 0x64 PUSH2 0xF2 JUMP JUMPDEST PUSH1 0x40 MLOAD PUSH2 0x71 SWAP2 SWAP1 PUSH2 0x221 JUMP JUMPDEST PUSH1 0x40 MLOAD DUP1 SWAP2 SUB SWAP1 RETURN JUMPDEST PUSH2 0x82 PUSH2 0x103 JUMP JUMPDEST PUSH1 0x40 MLOAD PUSH2 0x8F SWAP2 SWAP1 PUSH2 0x221 JUMP JUMPDEST PUSH1 0x40 MLOAD DUP1 SWAP2 SUB SWAP1 RETURN JUMPDEST PUSH2 0xA0 PUSH2 0x116 JUMP JUMPDEST PUSH1 0x40 MLOAD PUSH2 0xAD SWAP2 SWAP1 PUSH2 0x257 JUMP JUMPDEST PUSH1 0x40 MLOAD DUP1 SWAP2 SUB SWAP1 RETURN JUMPDEST PUSH2 0xBE PUSH2 0x1A4 JUMP JUMPDEST PUSH1 0x40 MLOAD PUSH2 0xCB SWAP2 SWAP1 PUSH2 0x23C JUMP JUMPDEST PUSH1 0x40 MLOAD DUP1 SWAP2 SUB SWAP1 RETURN JUMPDEST PUSH2 0xDC PUSH2 0x1B7 JUMP JUMPDEST PUSH1 0x40 MLOAD PUSH2 0xE9 SWAP2 SWAP1 PUSH2 0x221 JUMP JUMPDEST PUSH1 0x40 MLOAD DUP1 SWAP2 SUB SWAP1 RETURN JUMPDEST PUSH1 0x0 DUP1 SLOAD SWAP1 PUSH2 0x100 EXP SWAP1 DIV PUSH1 0xFF AND DUP2 JUMP JUMPDEST PUSH1 0x0 PUSH1 0x2 SWAP1 SLOAD SWAP1 PUSH2 0x100 EXP SWAP1 DIV PUSH1 0xFF AND DUP2 JUMP JUMPDEST PUSH1 0x1 DUP1 SLOAD PUSH2 0x123 SWAP1 PUSH2 0x300 JUMP JUMPDEST DUP1 PUSH1 0x1F ADD PUSH1 0x20 DUP1 SWAP2 DIV MUL PUSH1 0x20 ADD PUSH1 0x40 MLOAD SWAP1 DUP2 ADD PUSH1 0x40 MSTORE DUP1 SWAP3 SWAP2 SWAP1 DUP2 DUP2 MSTORE PUSH1 0x20 ADD DUP3 DUP1 SLOAD PUSH2 0x14F SWAP1 PUSH2 0x300 JUMP JUMPDEST DUP1 ISZERO PUSH2 0x19C JUMPI DUP1 PUSH1 0x1F LT PUSH2 0x171 JUMPI PUSH2 0x100 DUP1 DUP4 SLOAD DIV MUL DUP4 MSTORE SWAP2 PUSH1 0x20 ADD SWAP2 PUSH2 0x19C JUMP JUMPDEST DUP3 ADD SWAP2 SWAP1 PUSH1 0x0 MSTORE PUSH1 0x20 PUSH1 0x0 KECCAK256 SWAP1 JUMPDEST DUP2 SLOAD DUP2 MSTORE SWAP1 PUSH1 0x1 ADD SWAP1 PUSH1 0x20 ADD DUP1 DUP4 GT PUSH2 0x17F JUMPI DUP3 SWAP1 SUB PUSH1 0x1F AND DUP3 ADD SWAP2 JUMPDEST POP POP POP POP POP DUP2 JUMP JUMPDEST PUSH1 0x2 PUSH1 0x0 SWAP1 SLOAD SWAP1 PUSH2 0x100 EXP SWAP1 DIV PUSH1 0xE0 SHL DUP2 JUMP JUMPDEST PUSH1 0x0 PUSH1 0x1 SWAP1 SLOAD SWAP1 PUSH2 0x100 EXP SWAP1 DIV PUSH1 0xFF AND DUP2 JUMP JUMPDEST PUSH2 0x1D3 DUP2 PUSH2 0x295 JUMP JUMPDEST DUP3 MSTORE POP POP JUMP JUMPDEST PUSH2 0x1E2 DUP2 PUSH2 0x2A1 JUMP JUMPDEST DUP3 MSTORE POP POP JUMP JUMPDEST PUSH1 0x0 PUSH2 0x1F3 DUP3 PUSH2 0x279 JUMP JUMPDEST PUSH2 0x1FD DUP2 DUP6 PUSH2 0x284 JUMP JUMPDEST SWAP4 POP PUSH2 0x20D DUP2 DUP6 PUSH1 0x20 DUP7 ADD PUSH2 0x2CD JUMP JUMPDEST PUSH2 0x216 DUP2 PUSH2 0x361 JUMP JUMPDEST DUP5 ADD SWAP2 POP POP SWAP3 SWAP2 POP POP JUMP JUMPDEST PUSH1 0x0 PUSH1 0x20 DUP3 ADD SWAP1 POP PUSH2 0x236 PUSH1 0x0 DUP4 ADD DUP5 PUSH2 0x1CA JUMP JUMPDEST SWAP3 SWAP2 POP POP JUMP JUMPDEST PUSH1 0x0 PUSH1 0x20 DUP3 ADD SWAP1 POP PUSH2 0x251 PUSH1 0x0 DUP4 ADD DUP5 PUSH2 0x1D9 JUMP JUMPDEST SWAP3 SWAP2 POP POP JUMP JUMPDEST PUSH1 0x0 PUSH1 0x20 DUP3 ADD SWAP1 POP DUP2 DUP2 SUB PUSH1 0x0 DUP4 ADD MSTORE PUSH2 0x271 DUP2 DUP5 PUSH2 0x1E8 JUMP JUMPDEST SWAP1 POP SWAP3 SWAP2 POP POP JUMP JUMPDEST PUSH1 0x0 DUP2 MLOAD SWAP1 POP SWAP2 SWAP1 POP JUMP JUMPDEST PUSH1 0x0 DUP3 DUP3 MSTORE PUSH1 0x20 DUP3 ADD SWAP1 POP SWAP3 SWAP2 POP POP JUMP JUMPDEST PUSH1 0x0 DUP2 ISZERO ISZERO SWAP1 POP SWAP2 SWAP1 POP JUMP JUMPDEST PUSH1 0x0 PUSH32 0xFFFFFFFF00000000000000000000000000000000000000000000000000000000 DUP3 AND SWAP1 POP SWAP2 SWAP1 POP JUMP JUMPDEST PUSH1 0x0 JUMPDEST DUP4 DUP2 LT ISZERO PUSH2 0x2EB JUMPI DUP1 DUP3 ADD MLOAD DUP2 DUP5 ADD MSTORE PUSH1 0x20 DUP2 ADD SWAP1 POP PUSH2 0x2D0 JUMP JUMPDEST DUP4 DUP2 GT ISZERO PUSH2 0x2FA JUMPI PUSH1 0x0 DUP5 DUP5 ADD MSTORE JUMPDEST POP POP POP POP JUMP JUMPDEST PUSH1 0x0 PUSH1 0x2 DUP3 DIV SWAP1 POP PUSH1 0x1 DUP3 AND DUP1 PUSH2 0x318 JUMPI PUSH1 0x7F DUP3 AND SWAP2 POP JUMPDEST PUSH1 0x20 DUP3 LT DUP2 EQ ISZERO PUSH2 0x32C JUMPI PUSH2 0x32B PUSH2 0x332 JUMP JUMPDEST JUMPDEST POP SWAP2 SWAP1 POP JUMP JUMPDEST PUSH32 0x4E487B7100000000000000000000000000000000000000000000000000000000 PUSH1 0x0 MSTORE PUSH1 0x22 PUSH1 0x4 MSTORE PUSH1 0x24 PUSH1 0x0 REVERT JUMPDEST PUSH1 0x0 PUSH1 0x1F NOT PUSH1 0x1F DUP4 ADD AND SWAP1 POP SWAP2 SWAP1 POP JUMP INVALID LOG2 PUSH5 0x6970667358 0x22 SLT KECCAK256 0xC8 POP BALANCE CHAINID JUMPI NUMBER PUSH7 0x39CCF90811DF2E STOP 0x1F 0xD5 0xCB 0x4D DUP11 PUSH15 0xA69BBE90E2435E0117110764736F6C PUSH4 0x43000807 STOP CALLER "
				},
				"gasEstimates": {
					"creation": {
						"codeDepositCost": "187200",
						"executionCost": "infinite",
						"totalCost": "infinite"
					},
					"external": {
						"b()": "2446",
						"bt()": "2515",
						"c()": "2587",
						"d()": "2521",
						"hi()": "infinite"
					}
				},
				"methodIdentifiers": {
					"b()": "4df7e3d0",
					"bt()": "ac9c1959",
					"c()": "c3da42b8",
					"d()": "8a054ac2",
					"hi()": "a99dca3f"
				}
			},
			"storageLayout": {
				"storage": [
					{
						"astId": 4,
						"contract": "solidityLecture/lecture_02.sol:lec02",
						"label": "b",
						"offset": 0,
						"slot": "0",
						"type": "t_bool"
					},
					{
						"astId": 8,
						"contract": "solidityLecture/lecture_02.sol:lec02",
						"label": "c",
						"offset": 1,
						"slot": "0",
						"type": "t_bool"
					},
					{
						"astId": 13,
						"contract": "solidityLecture/lecture_02.sol:lec02",
						"label": "d",
						"offset": 2,
						"slot": "0",
						"type": "t_bool"
					},
					{
						"astId": 16,
						"contract": "solidityLecture/lecture_02.sol:lec02",
						"label": "hi",
						"offset": 0,
						"slot": "1",
						"type": "t_string_storage"
					},
					{
						"astId": 19,
						"contract": "solidityLecture/lecture_02.sol:lec02",
						"label": "bt",
						"offset": 0,
						"slot": "2",
						"type": "t_bytes4"
					}
				],
				"types": {
					"t_bool": {
						"encoding": "inplace",
						"label": "bool",
						"numberOfBytes": "1"
					},
					"t_bytes4": {
						"encoding": "inplace",
						"label": "bytes4",
						"numberOfBytes": "4"
					},
					"t_string_storage": {
						"encoding": "bytes",
						"label": "string",
						"numberOfBytes": "32"
					}
				}
			},
			"userdoc": {
				"kind": "user",
				"methods": {},
				"version": 1
			}
		}
	}
}