{
	"solidityLecture/lecture_06.sol": {
		"lec6": {
			"abi": [
				{
					"inputs": [],
					"name": "a",
					"outputs": [
						{
							"internalType": "uint256",
							"name": "",
							"type": "uint256"
						}
					],
					"stateMutability": "view",
					"type": "function"
				},
				{
					"inputs": [],
					"name": "readA_1",
					"outputs": [
						{
							"internalType": "uint256",
							"name": "",
							"type": "uint256"
						}
					],
					"stateMutability": "view",
					"type": "function"
				},
				{
					"inputs": [],
					"name": "readA_2",
					"outputs": [
						{
							"internalType": "uint256",
							"name": "",
							"type": "uint256"
						}
					],
					"stateMutability": "nonpayable",
					"type": "function"
				}
			],
			"devdoc": {
				"kind": "dev",
				"methods": {},
				"version": 1
			},
			"evm": {
				"assembly": "    /* \"solidityLecture/lecture_06.sol\":292:487  contract lec6{... */\n  mstore(0x40, 0x80)\n    /* \"solidityLecture/lecture_06.sol\":330:331  1 */\n  0x01\n    /* \"solidityLecture/lecture_06.sol\":311:331  uint256 public a = 1 */\n  0x00\n  sstore\n    /* \"solidityLecture/lecture_06.sol\":292:487  contract lec6{... */\n  callvalue\n  dup1\n  iszero\n  tag_1\n  jumpi\n  0x00\n  dup1\n  revert\ntag_1:\n  pop\n  dataSize(sub_0)\n  dup1\n  dataOffset(sub_0)\n  0x00\n  codecopy\n  0x00\n  return\nstop\n\nsub_0: assembly {\n        /* \"solidityLecture/lecture_06.sol\":292:487  contract lec6{... */\n      mstore(0x40, 0x80)\n      callvalue\n      dup1\n      iszero\n      tag_1\n      jumpi\n      0x00\n      dup1\n      revert\n    tag_1:\n      pop\n      jumpi(tag_2, lt(calldatasize, 0x04))\n      shr(0xe0, calldataload(0x00))\n      dup1\n      0x0dbe671f\n      eq\n      tag_3\n      jumpi\n      dup1\n      0xc0f73d42\n      eq\n      tag_4\n      jumpi\n      dup1\n      0xd863e025\n      eq\n      tag_5\n      jumpi\n    tag_2:\n      0x00\n      dup1\n      revert\n        /* \"solidityLecture/lecture_06.sol\":311:331  uint256 public a = 1 */\n    tag_3:\n      tag_6\n      tag_7\n      jump\t// in\n    tag_6:\n      mload(0x40)\n      tag_8\n      swap2\n      swap1\n      tag_9\n      jump\t// in\n    tag_8:\n      mload(0x40)\n      dup1\n      swap2\n      sub\n      swap1\n      return\n        /* \"solidityLecture/lecture_06.sol\":338:412  function readA_1() public view  returns (uint256){... */\n    tag_4:\n      tag_10\n      tag_11\n      jump\t// in\n    tag_10:\n      mload(0x40)\n      tag_12\n      swap2\n      swap1\n      tag_9\n      jump\t// in\n    tag_12:\n      mload(0x40)\n      dup1\n      swap2\n      sub\n      swap1\n      return\n        /* \"solidityLecture/lecture_06.sol\":417:485  function readA_2() public returns (uint256){... */\n    tag_5:\n      tag_13\n      tag_14\n      jump\t// in\n    tag_13:\n      mload(0x40)\n      tag_15\n      swap2\n      swap1\n      tag_9\n      jump\t// in\n    tag_15:\n      mload(0x40)\n      dup1\n      swap2\n      sub\n      swap1\n      return\n        /* \"solidityLecture/lecture_06.sol\":311:331  uint256 public a = 1 */\n    tag_7:\n      sload(0x00)\n      dup2\n      jump\t// out\n        /* \"solidityLecture/lecture_06.sol\":338:412  function readA_1() public view  returns (uint256){... */\n    tag_11:\n        /* \"solidityLecture/lecture_06.sol\":379:386  uint256 */\n      0x00\n        /* \"solidityLecture/lecture_06.sol\":404:405  a */\n      dup1\n      sload\n        /* \"solidityLecture/lecture_06.sol\":397:405  return a */\n      swap1\n      pop\n        /* \"solidityLecture/lecture_06.sol\":338:412  function readA_1() public view  returns (uint256){... */\n      swap1\n      jump\t// out\n        /* \"solidityLecture/lecture_06.sol\":417:485  function readA_2() public returns (uint256){... */\n    tag_14:\n        /* \"solidityLecture/lecture_06.sol\":452:459  uint256 */\n      0x00\n        /* \"solidityLecture/lecture_06.sol\":477:478  a */\n      dup1\n      sload\n        /* \"solidityLecture/lecture_06.sol\":470:478  return a */\n      swap1\n      pop\n        /* \"solidityLecture/lecture_06.sol\":417:485  function readA_2() public returns (uint256){... */\n      swap1\n      jump\t// out\n        /* \"#utility.yul\":7:125   */\n    tag_19:\n        /* \"#utility.yul\":94:118   */\n      tag_21\n        /* \"#utility.yul\":112:117   */\n      dup2\n        /* \"#utility.yul\":94:118   */\n      tag_22\n      jump\t// in\n    tag_21:\n        /* \"#utility.yul\":89:92   */\n      dup3\n        /* \"#utility.yul\":82:119   */\n      mstore\n        /* \"#utility.yul\":7:125   */\n      pop\n      pop\n      jump\t// out\n        /* \"#utility.yul\":131:353   */\n    tag_9:\n        /* \"#utility.yul\":224:228   */\n      0x00\n        /* \"#utility.yul\":262:264   */\n      0x20\n        /* \"#utility.yul\":251:260   */\n      dup3\n        /* \"#utility.yul\":247:265   */\n      add\n        /* \"#utility.yul\":239:265   */\n      swap1\n      pop\n        /* \"#utility.yul\":275:346   */\n      tag_24\n        /* \"#utility.yul\":343:344   */\n      0x00\n        /* \"#utility.yul\":332:341   */\n      dup4\n        /* \"#utility.yul\":328:345   */\n      add\n        /* \"#utility.yul\":319:325   */\n      dup5\n        /* \"#utility.yul\":275:346   */\n      tag_19\n      jump\t// in\n    tag_24:\n        /* \"#utility.yul\":131:353   */\n      swap3\n      swap2\n      pop\n      pop\n      jump\t// out\n        /* \"#utility.yul\":359:436   */\n    tag_22:\n        /* \"#utility.yul\":396:403   */\n      0x00\n        /* \"#utility.yul\":425:430   */\n      dup2\n        /* \"#utility.yul\":414:430   */\n      swap1\n      pop\n        /* \"#utility.yul\":359:436   */\n      swap2\n      swap1\n      pop\n      jump\t// out\n\n    auxdata: 0xa264697066735822122092c53a3737f80bafab011c4586719255042d6d0e81fff540e14b8c5f7d07fa6564736f6c63430008070033\n}\n",
				"bytecode": {
					"linkReferences": {},
					"object": "6080604052600160005534801561001557600080fd5b5061010d806100256000396000f3fe6080604052348015600f57600080fd5b5060043610603c5760003560e01c80630dbe671f146041578063c0f73d4214605b578063d863e025146075575b600080fd5b6047608f565b6040516052919060b4565b60405180910390f35b60616095565b604051606c919060b4565b60405180910390f35b607b609e565b6040516086919060b4565b60405180910390f35b60005481565b60008054905090565b60008054905090565b60ae8160cd565b82525050565b600060208201905060c7600083018460a7565b92915050565b600081905091905056fea264697066735822122092c53a3737f80bafab011c4586719255042d6d0e81fff540e14b8c5f7d07fa6564736f6c63430008070033",
					"opcodes": "PUSH1 0x80 PUSH1 0x40 MSTORE PUSH1 0x1 PUSH1 0x0 SSTORE CALLVALUE DUP1 ISZERO PUSH2 0x15 JUMPI PUSH1 0x0 DUP1 REVERT JUMPDEST POP PUSH2 0x10D DUP1 PUSH2 0x25 PUSH1 0x0 CODECOPY PUSH1 0x0 RETURN INVALID PUSH1 0x80 PUSH1 0x40 MSTORE CALLVALUE DUP1 ISZERO PUSH1 0xF JUMPI PUSH1 0x0 DUP1 REVERT JUMPDEST POP PUSH1 0x4 CALLDATASIZE LT PUSH1 0x3C JUMPI PUSH1 0x0 CALLDATALOAD PUSH1 0xE0 SHR DUP1 PUSH4 0xDBE671F EQ PUSH1 0x41 JUMPI DUP1 PUSH4 0xC0F73D42 EQ PUSH1 0x5B JUMPI DUP1 PUSH4 0xD863E025 EQ PUSH1 0x75 JUMPI JUMPDEST PUSH1 0x0 DUP1 REVERT JUMPDEST PUSH1 0x47 PUSH1 0x8F JUMP JUMPDEST PUSH1 0x40 MLOAD PUSH1 0x52 SWAP2 SWAP1 PUSH1 0xB4 JUMP JUMPDEST PUSH1 0x40 MLOAD DUP1 SWAP2 SUB SWAP1 RETURN JUMPDEST PUSH1 0x61 PUSH1 0x95 JUMP JUMPDEST PUSH1 0x40 MLOAD PUSH1 0x6C SWAP2 SWAP1 PUSH1 0xB4 JUMP JUMPDEST PUSH1 0x40 MLOAD DUP1 SWAP2 SUB SWAP1 RETURN JUMPDEST PUSH1 0x7B PUSH1 0x9E JUMP JUMPDEST PUSH1 0x40 MLOAD PUSH1 0x86 SWAP2 SWAP1 PUSH1 0xB4 JUMP JUMPDEST PUSH1 0x40 MLOAD DUP1 SWAP2 SUB SWAP1 RETURN JUMPDEST PUSH1 0x0 SLOAD DUP2 JUMP JUMPDEST PUSH1 0x0 DUP1 SLOAD SWAP1 POP SWAP1 JUMP JUMPDEST PUSH1 0x0 DUP1 SLOAD SWAP1 POP SWAP1 JUMP JUMPDEST PUSH1 0xAE DUP2 PUSH1 0xCD JUMP JUMPDEST DUP3 MSTORE POP POP JUMP JUMPDEST PUSH1 0x0 PUSH1 0x20 DUP3 ADD SWAP1 POP PUSH1 0xC7 PUSH1 0x0 DUP4 ADD DUP5 PUSH1 0xA7 JUMP JUMPDEST SWAP3 SWAP2 POP POP JUMP JUMPDEST PUSH1 0x0 DUP2 SWAP1 POP SWAP2 SWAP1 POP JUMP INVALID LOG2 PUSH5 0x6970667358 0x22 SLT KECCAK256 SWAP3 0xC5 GASPRICE CALLDATACOPY CALLDATACOPY 0xF8 SIGNEXTEND 0xAF 0xAB ADD SHR GASLIMIT DUP7 PUSH18 0x9255042D6D0E81FFF540E14B8C5F7D07FA65 PUSH5 0x736F6C6343 STOP ADDMOD SMOD STOP CALLER "
				},
				"gasEstimates": {
					"creation": {
						"codeDepositCost": "53800",
						"executionCost": "22211",
						"totalCost": "76011"
					},
					"external": {
						"a()": "2407",
						"readA_1()": "2437",
						"readA_2()": "2459"
					}
				},
				"methodIdentifiers": {
					"a()": "0dbe671f",
					"readA_1()": "c0f73d42",
					"readA_2()": "d863e025"
				}
			},
			"storageLayout": {
				"storage": [
					{
						"astId": 4,
						"contract": "solidityLecture/lecture_06.sol:lec6",
						"label": "a",
						"offset": 0,
						"slot": "0",
						"type": "t_uint256"
					}
				],
				"types": {
					"t_uint256": {
						"encoding": "inplace",
						"label": "uint256",
						"numberOfBytes": "32"
					}
				}
			},
			"userdoc": {
				"kind": "user",
				"methods": {},
				"version": 1
			}
		}
	}
}