{
	"solidityLecture/lecture_02.sol": {
		"lec02": {
			"abi": [
				{
					"inputs": [],
					"name": "b",
					"outputs": [
						{
							"internalType": "bool",
							"name": "",
							"type": "bool"
						}
					],
					"stateMutability": "view",
					"type": "function"
				},
				{
					"inputs": [],
					"name": "bt",
					"outputs": [
						{
							"internalType": "bytes4",
							"name": "",
							"type": "bytes4"
						}
					],
					"stateMutability": "view",
					"type": "function"
				},
				{
					"inputs": [],
					"name": "bt1",
					"outputs": [
						{
							"internalType": "bytes",
							"name": "",
							"type": "bytes"
						}
					],
					"stateMutability": "view",
					"type": "function"
				},
				{
					"inputs": [],
					"name": "c",
					"outputs": [
						{
							"internalType": "bool",
							"name": "",
							"type": "bool"
						}
					],
					"stateMutability": "view",
					"type": "function"
				},
				{
					"inputs": [],
					"name": "d",
					"outputs": [
						{
							"internalType": "bool",
							"name": "",
							"type": "bool"
						}
					],
					"stateMutability": "view",
					"type": "function"
				},
				{
					"inputs": [],
					"name": "hi",
					"outputs": [
						{
							"internalType": "string",
							"name": "",
							"type": "string"
						}
					],
					"stateMutability": "view",
					"type": "function"
				},
				{
					"inputs": [],
					"name": "myaddr",
					"outputs": [
						{
							"internalType": "address",
							"name": "",
							"type": "address"
						}
					],
					"stateMutability": "view",
					"type": "function"
				}
			],
			"devdoc": {
				"kind": "dev",
				"methods": {},
				"version": 1
			},
			"evm": {
				"assembly": "    /* \"solidityLecture/lecture_02.sol\":67:548  contract lec02{... */\n  mstore(0x40, 0x80)\n    /* \"solidityLecture/lecture_02.sol\":135:140  false */\n  0x00\n    /* \"solidityLecture/lecture_02.sol\":119:140  bool public b = false */\n  dup1\n  exp(0x0100, 0x00)\n  dup2\n  sload\n  dup2\n  0xff\n  mul\n  not\n  and\n  swap1\n  dup4\n  iszero\n  iszero\n  mul\n  or\n  swap1\n  sstore\n  pop\n    /* \"solidityLecture/lecture_02.sol\":163:168  false */\n  0x00\n    /* \"solidityLecture/lecture_02.sol\":162:168  !false */\n  iszero\n    /* \"solidityLecture/lecture_02.sol\":146:168  bool public c = !false */\n  0x00\n  exp(0x0100, 0x01)\n  dup2\n  sload\n  dup2\n  0xff\n  mul\n  not\n  and\n  swap1\n  dup4\n  iszero\n  iszero\n  mul\n  or\n  swap1\n  sstore\n  pop\n    /* \"solidityLecture/lecture_02.sol\":217:222  false */\n  0x00\n    /* \"solidityLecture/lecture_02.sol\":208:222  false == false */\n  iszero\n  iszero\n    /* \"solidityLecture/lecture_02.sol\":208:213  false */\n  0x00\n    /* \"solidityLecture/lecture_02.sol\":208:222  false == false */\n  iszero\n  iszero\n  eq\n    /* \"solidityLecture/lecture_02.sol\":192:222  bool public d = false == false */\n  0x00\n  exp(0x0100, 0x02)\n  dup2\n  sload\n  dup2\n  0xff\n  mul\n  not\n  and\n  swap1\n  dup4\n  iszero\n  iszero\n  mul\n  or\n  swap1\n  sstore\n  pop\n    /* \"solidityLecture/lecture_02.sol\":228:263  string public hi = \"Hello solidity\" */\n  mload(0x40)\n  dup1\n  0x40\n  add\n  0x40\n  mstore\n  dup1\n  0x0e\n  dup2\n  mstore\n  0x20\n  add\n  0x48656c6c6f20736f6c6964697479000000000000000000000000000000000000\n  dup2\n  mstore\n  pop\n  0x01\n  swap1\n  dup1\n  mload\n  swap1\n  0x20\n  add\n  swap1\n  tag_1\n  swap3\n  swap2\n  swap1\n  tag_2\n  jump\t// in\ntag_1:\n  pop\n    /* \"solidityLecture/lecture_02.sol\":310:320  0x12345678 */\n  0x12345678\n    /* \"solidityLecture/lecture_02.sol\":291:320  bytes4 public bt = 0x12345678 */\n  0xe0\n  shl\n  0x02\n  exp(0x0100, 0x00)\n  dup2\n  sload\n  dup2\n  0xffffffff\n  mul\n  not\n  and\n  swap1\n  dup4\n  0xe0\n  shr\n  mul\n  or\n  swap1\n  sstore\n  pop\n    /* \"solidityLecture/lecture_02.sol\":355:383  bytes public  bt1 = \"MYNAME\" */\n  mload(0x40)\n  dup1\n  0x40\n  add\n  0x40\n  mstore\n  dup1\n  0x06\n  dup2\n  mstore\n  0x20\n  add\n  0x4d594e414d450000000000000000000000000000000000000000000000000000\n  dup2\n  mstore\n  pop\n  0x03\n  swap1\n  dup1\n  mload\n  swap1\n  0x20\n  add\n  swap1\n  tag_3\n  swap3\n  swap2\n  swap1\n  tag_4\n  jump\t// in\ntag_3:\n  pop\n    /* \"solidityLecture/lecture_02.sol\":452:494  0xf8e81D47203A594245E36C48e151709F0C19fBe8 */\n  0xf8e81d47203a594245e36c48e151709f0c19fbe8\n    /* \"solidityLecture/lecture_02.sol\":427:494  address public  myaddr = 0xf8e81D47203A594245E36C48e151709F0C19fBe8 */\n  0x04\n  exp(0x0100, 0x00)\n  dup2\n  sload\n  dup2\n  0xffffffffffffffffffffffffffffffffffffffff\n  mul\n  not\n  and\n  swap1\n  dup4\n  0xffffffffffffffffffffffffffffffffffffffff\n  and\n  mul\n  or\n  swap1\n  sstore\n  pop\n    /* \"solidityLecture/lecture_02.sol\":67:548  contract lec02{... */\n  callvalue\n  dup1\n  iszero\n  tag_5\n  jumpi\n  0x00\n  dup1\n  revert\ntag_5:\n  pop\n  jump(tag_6)\ntag_2:\n  dup3\n  dup1\n  sload\n  tag_7\n  swap1\n  tag_8\n  jump\t// in\ntag_7:\n  swap1\n  0x00\n  mstore\n  keccak256(0x00, 0x20)\n  swap1\n  0x1f\n  add\n  0x20\n  swap1\n  div\n  dup2\n  add\n  swap3\n  dup3\n  tag_10\n  jumpi\n  0x00\n  dup6\n  sstore\n  jump(tag_9)\ntag_10:\n  dup3\n  0x1f\n  lt\n  tag_11\n  jumpi\n  dup1\n  mload\n  not(0xff)\n  and\n  dup4\n  dup1\n  add\n  or\n  dup6\n  sstore\n  jump(tag_9)\ntag_11:\n  dup3\n  dup1\n  add\n  0x01\n  add\n  dup6\n  sstore\n  dup3\n  iszero\n  tag_9\n  jumpi\n  swap2\n  dup3\n  add\ntag_12:\n  dup3\n  dup2\n  gt\n  iszero\n  tag_13\n  jumpi\n  dup3\n  mload\n  dup3\n  sstore\n  swap2\n  0x20\n  add\n  swap2\n  swap1\n  0x01\n  add\n  swap1\n  jump(tag_12)\ntag_13:\ntag_9:\n  pop\n  swap1\n  pop\n  tag_14\n  swap2\n  swap1\n  tag_15\n  jump\t// in\ntag_14:\n  pop\n  swap1\n  jump\t// out\ntag_4:\n  dup3\n  dup1\n  sload\n  tag_16\n  swap1\n  tag_8\n  jump\t// in\ntag_16:\n  swap1\n  0x00\n  mstore\n  keccak256(0x00, 0x20)\n  swap1\n  0x1f\n  add\n  0x20\n  swap1\n  div\n  dup2\n  add\n  swap3\n  dup3\n  tag_18\n  jumpi\n  0x00\n  dup6\n  sstore\n  jump(tag_17)\ntag_18:\n  dup3\n  0x1f\n  lt\n  tag_19\n  jumpi\n  dup1\n  mload\n  not(0xff)\n  and\n  dup4\n  dup1\n  add\n  or\n  dup6\n  sstore\n  jump(tag_17)\ntag_19:\n  dup3\n  dup1\n  add\n  0x01\n  add\n  dup6\n  sstore\n  dup3\n  iszero\n  tag_17\n  jumpi\n  swap2\n  dup3\n  add\ntag_20:\n  dup3\n  dup2\n  gt\n  iszero\n  tag_21\n  jumpi\n  dup3\n  mload\n  dup3\n  sstore\n  swap2\n  0x20\n  add\n  swap2\n  swap1\n  0x01\n  add\n  swap1\n  jump(tag_20)\ntag_21:\ntag_17:\n  pop\n  swap1\n  pop\n  tag_22\n  swap2\n  swap1\n  tag_15\n  jump\t// in\ntag_22:\n  pop\n  swap1\n  jump\t// out\ntag_15:\ntag_23:\n  dup1\n  dup3\n  gt\n  iszero\n  tag_24\n  jumpi\n  0x00\n  dup2\n  0x00\n  swap1\n  sstore\n  pop\n  0x01\n  add\n  jump(tag_23)\ntag_24:\n  pop\n  swap1\n  jump\t// out\n    /* \"#utility.yul\":7:327   */\ntag_8:\n    /* \"#utility.yul\":51:57   */\n  0x00\n    /* \"#utility.yul\":88:89   */\n  0x02\n    /* \"#utility.yul\":82:86   */\n  dup3\n    /* \"#utility.yul\":78:90   */\n  div\n    /* \"#utility.yul\":68:90   */\n  swap1\n  pop\n    /* \"#utility.yul\":135:136   */\n  0x01\n    /* \"#utility.yul\":129:133   */\n  dup3\n    /* \"#utility.yul\":125:137   */\n  and\n    /* \"#utility.yul\":156:174   */\n  dup1\n    /* \"#utility.yul\":146:227   */\n  tag_27\n  jumpi\n    /* \"#utility.yul\":212:216   */\n  0x7f\n    /* \"#utility.yul\":204:210   */\n  dup3\n    /* \"#utility.yul\":200:217   */\n  and\n    /* \"#utility.yul\":190:217   */\n  swap2\n  pop\n    /* \"#utility.yul\":146:227   */\ntag_27:\n    /* \"#utility.yul\":274:276   */\n  0x20\n    /* \"#utility.yul\":266:272   */\n  dup3\n    /* \"#utility.yul\":263:277   */\n  lt\n    /* \"#utility.yul\":243:261   */\n  dup2\n    /* \"#utility.yul\":240:278   */\n  eq\n    /* \"#utility.yul\":237:321   */\n  iszero\n  tag_28\n  jumpi\n    /* \"#utility.yul\":293:311   */\n  tag_29\n  tag_30\n  jump\t// in\ntag_29:\n    /* \"#utility.yul\":237:321   */\ntag_28:\n    /* \"#utility.yul\":58:327   */\n  pop\n    /* \"#utility.yul\":7:327   */\n  swap2\n  swap1\n  pop\n  jump\t// out\n    /* \"#utility.yul\":333:513   */\ntag_30:\n    /* \"#utility.yul\":381:458   */\n  0x4e487b7100000000000000000000000000000000000000000000000000000000\n    /* \"#utility.yul\":378:379   */\n  0x00\n    /* \"#utility.yul\":371:459   */\n  mstore\n    /* \"#utility.yul\":478:482   */\n  0x22\n    /* \"#utility.yul\":475:476   */\n  0x04\n    /* \"#utility.yul\":468:483   */\n  mstore\n    /* \"#utility.yul\":502:506   */\n  0x24\n    /* \"#utility.yul\":499:500   */\n  0x00\n    /* \"#utility.yul\":492:507   */\n  revert\n    /* \"solidityLecture/lecture_02.sol\":67:548  contract lec02{... */\ntag_6:\n  dataSize(sub_0)\n  dup1\n  dataOffset(sub_0)\n  0x00\n  codecopy\n  0x00\n  return\nstop\n\nsub_0: assembly {\n        /* \"solidityLecture/lecture_02.sol\":67:548  contract lec02{... */\n      mstore(0x40, 0x80)\n      callvalue\n      dup1\n      iszero\n      tag_1\n      jumpi\n      0x00\n      dup1\n      revert\n    tag_1:\n      pop\n      jumpi(tag_2, lt(calldatasize, 0x04))\n      shr(0xe0, calldataload(0x00))\n      dup1\n      0xac9c1959\n      gt\n      tag_10\n      jumpi\n      dup1\n      0xac9c1959\n      eq\n      tag_6\n      jumpi\n      dup1\n      0xc3da42b8\n      eq\n      tag_7\n      jumpi\n      dup1\n      0xcb6f197e\n      eq\n      tag_8\n      jumpi\n      dup1\n      0xf0759a4d\n      eq\n      tag_9\n      jumpi\n      jump(tag_2)\n    tag_10:\n      dup1\n      0x4df7e3d0\n      eq\n      tag_3\n      jumpi\n      dup1\n      0x8a054ac2\n      eq\n      tag_4\n      jumpi\n      dup1\n      0xa99dca3f\n      eq\n      tag_5\n      jumpi\n    tag_2:\n      0x00\n      dup1\n      revert\n        /* \"solidityLecture/lecture_02.sol\":119:140  bool public b = false */\n    tag_3:\n      tag_11\n      tag_12\n      jump\t// in\n    tag_11:\n      mload(0x40)\n      tag_13\n      swap2\n      swap1\n      tag_14\n      jump\t// in\n    tag_13:\n      mload(0x40)\n      dup1\n      swap2\n      sub\n      swap1\n      return\n        /* \"solidityLecture/lecture_02.sol\":192:222  bool public d = false == false */\n    tag_4:\n      tag_15\n      tag_16\n      jump\t// in\n    tag_15:\n      mload(0x40)\n      tag_17\n      swap2\n      swap1\n      tag_14\n      jump\t// in\n    tag_17:\n      mload(0x40)\n      dup1\n      swap2\n      sub\n      swap1\n      return\n        /* \"solidityLecture/lecture_02.sol\":228:263  string public hi = \"Hello solidity\" */\n    tag_5:\n      tag_18\n      tag_19\n      jump\t// in\n    tag_18:\n      mload(0x40)\n      tag_20\n      swap2\n      swap1\n      tag_21\n      jump\t// in\n    tag_20:\n      mload(0x40)\n      dup1\n      swap2\n      sub\n      swap1\n      return\n        /* \"solidityLecture/lecture_02.sol\":291:320  bytes4 public bt = 0x12345678 */\n    tag_6:\n      tag_22\n      tag_23\n      jump\t// in\n    tag_22:\n      mload(0x40)\n      tag_24\n      swap2\n      swap1\n      tag_25\n      jump\t// in\n    tag_24:\n      mload(0x40)\n      dup1\n      swap2\n      sub\n      swap1\n      return\n        /* \"solidityLecture/lecture_02.sol\":146:168  bool public c = !false */\n    tag_7:\n      tag_26\n      tag_27\n      jump\t// in\n    tag_26:\n      mload(0x40)\n      tag_28\n      swap2\n      swap1\n      tag_14\n      jump\t// in\n    tag_28:\n      mload(0x40)\n      dup1\n      swap2\n      sub\n      swap1\n      return\n        /* \"solidityLecture/lecture_02.sol\":355:383  bytes public  bt1 = \"MYNAME\" */\n    tag_8:\n      tag_29\n      tag_30\n      jump\t// in\n    tag_29:\n      mload(0x40)\n      tag_31\n      swap2\n      swap1\n      tag_32\n      jump\t// in\n    tag_31:\n      mload(0x40)\n      dup1\n      swap2\n      sub\n      swap1\n      return\n        /* \"solidityLecture/lecture_02.sol\":427:494  address public  myaddr = 0xf8e81D47203A594245E36C48e151709F0C19fBe8 */\n    tag_9:\n      tag_33\n      tag_34\n      jump\t// in\n    tag_33:\n      mload(0x40)\n      tag_35\n      swap2\n      swap1\n      tag_36\n      jump\t// in\n    tag_35:\n      mload(0x40)\n      dup1\n      swap2\n      sub\n      swap1\n      return\n        /* \"solidityLecture/lecture_02.sol\":119:140  bool public b = false */\n    tag_12:\n      0x00\n      dup1\n      sload\n      swap1\n      0x0100\n      exp\n      swap1\n      div\n      0xff\n      and\n      dup2\n      jump\t// out\n        /* \"solidityLecture/lecture_02.sol\":192:222  bool public d = false == false */\n    tag_16:\n      0x00\n      0x02\n      swap1\n      sload\n      swap1\n      0x0100\n      exp\n      swap1\n      div\n      0xff\n      and\n      dup2\n      jump\t// out\n        /* \"solidityLecture/lecture_02.sol\":228:263  string public hi = \"Hello solidity\" */\n    tag_19:\n      0x01\n      dup1\n      sload\n      tag_37\n      swap1\n      tag_38\n      jump\t// in\n    tag_37:\n      dup1\n      0x1f\n      add\n      0x20\n      dup1\n      swap2\n      div\n      mul\n      0x20\n      add\n      mload(0x40)\n      swap1\n      dup2\n      add\n      0x40\n      mstore\n      dup1\n      swap3\n      swap2\n      swap1\n      dup2\n      dup2\n      mstore\n      0x20\n      add\n      dup3\n      dup1\n      sload\n      tag_39\n      swap1\n      tag_38\n      jump\t// in\n    tag_39:\n      dup1\n      iszero\n      tag_40\n      jumpi\n      dup1\n      0x1f\n      lt\n      tag_41\n      jumpi\n      0x0100\n      dup1\n      dup4\n      sload\n      div\n      mul\n      dup4\n      mstore\n      swap2\n      0x20\n      add\n      swap2\n      jump(tag_40)\n    tag_41:\n      dup3\n      add\n      swap2\n      swap1\n      0x00\n      mstore\n      keccak256(0x00, 0x20)\n      swap1\n    tag_42:\n      dup2\n      sload\n      dup2\n      mstore\n      swap1\n      0x01\n      add\n      swap1\n      0x20\n      add\n      dup1\n      dup4\n      gt\n      tag_42\n      jumpi\n      dup3\n      swap1\n      sub\n      0x1f\n      and\n      dup3\n      add\n      swap2\n    tag_40:\n      pop\n      pop\n      pop\n      pop\n      pop\n      dup2\n      jump\t// out\n        /* \"solidityLecture/lecture_02.sol\":291:320  bytes4 public bt = 0x12345678 */\n    tag_23:\n      0x02\n      0x00\n      swap1\n      sload\n      swap1\n      0x0100\n      exp\n      swap1\n      div\n      0xe0\n      shl\n      dup2\n      jump\t// out\n        /* \"solidityLecture/lecture_02.sol\":146:168  bool public c = !false */\n    tag_27:\n      0x00\n      0x01\n      swap1\n      sload\n      swap1\n      0x0100\n      exp\n      swap1\n      div\n      0xff\n      and\n      dup2\n      jump\t// out\n        /* \"solidityLecture/lecture_02.sol\":355:383  bytes public  bt1 = \"MYNAME\" */\n    tag_30:\n      0x03\n      dup1\n      sload\n      tag_43\n      swap1\n      tag_38\n      jump\t// in\n    tag_43:\n      dup1\n      0x1f\n      add\n      0x20\n      dup1\n      swap2\n      div\n      mul\n      0x20\n      add\n      mload(0x40)\n      swap1\n      dup2\n      add\n      0x40\n      mstore\n      dup1\n      swap3\n      swap2\n      swap1\n      dup2\n      dup2\n      mstore\n      0x20\n      add\n      dup3\n      dup1\n      sload\n      tag_44\n      swap1\n      tag_38\n      jump\t// in\n    tag_44:\n      dup1\n      iszero\n      tag_45\n      jumpi\n      dup1\n      0x1f\n      lt\n      tag_46\n      jumpi\n      0x0100\n      dup1\n      dup4\n      sload\n      div\n      mul\n      dup4\n      mstore\n      swap2\n      0x20\n      add\n      swap2\n      jump(tag_45)\n    tag_46:\n      dup3\n      add\n      swap2\n      swap1\n      0x00\n      mstore\n      keccak256(0x00, 0x20)\n      swap1\n    tag_47:\n      dup2\n      sload\n      dup2\n      mstore\n      swap1\n      0x01\n      add\n      swap1\n      0x20\n      add\n      dup1\n      dup4\n      gt\n      tag_47\n      jumpi\n      dup3\n      swap1\n      sub\n      0x1f\n      and\n      dup3\n      add\n      swap2\n    tag_45:\n      pop\n      pop\n      pop\n      pop\n      pop\n      dup2\n      jump\t// out\n        /* \"solidityLecture/lecture_02.sol\":427:494  address public  myaddr = 0xf8e81D47203A594245E36C48e151709F0C19fBe8 */\n    tag_34:\n      0x04\n      0x00\n      swap1\n      sload\n      swap1\n      0x0100\n      exp\n      swap1\n      div\n      0xffffffffffffffffffffffffffffffffffffffff\n      and\n      dup2\n      jump\t// out\n        /* \"#utility.yul\":7:125   */\n    tag_49:\n        /* \"#utility.yul\":94:118   */\n      tag_51\n        /* \"#utility.yul\":112:117   */\n      dup2\n        /* \"#utility.yul\":94:118   */\n      tag_52\n      jump\t// in\n    tag_51:\n        /* \"#utility.yul\":89:92   */\n      dup3\n        /* \"#utility.yul\":82:119   */\n      mstore\n        /* \"#utility.yul\":7:125   */\n      pop\n      pop\n      jump\t// out\n        /* \"#utility.yul\":131:240   */\n    tag_53:\n        /* \"#utility.yul\":212:233   */\n      tag_55\n        /* \"#utility.yul\":227:232   */\n      dup2\n        /* \"#utility.yul\":212:233   */\n      tag_56\n      jump\t// in\n    tag_55:\n        /* \"#utility.yul\":207:210   */\n      dup3\n        /* \"#utility.yul\":200:234   */\n      mstore\n        /* \"#utility.yul\":131:240   */\n      pop\n      pop\n      jump\t// out\n        /* \"#utility.yul\":246:361   */\n    tag_57:\n        /* \"#utility.yul\":331:354   */\n      tag_59\n        /* \"#utility.yul\":348:353   */\n      dup2\n        /* \"#utility.yul\":331:354   */\n      tag_60\n      jump\t// in\n    tag_59:\n        /* \"#utility.yul\":326:329   */\n      dup3\n        /* \"#utility.yul\":319:355   */\n      mstore\n        /* \"#utility.yul\":246:361   */\n      pop\n      pop\n      jump\t// out\n        /* \"#utility.yul\":367:727   */\n    tag_61:\n        /* \"#utility.yul\":453:456   */\n      0x00\n        /* \"#utility.yul\":481:519   */\n      tag_63\n        /* \"#utility.yul\":513:518   */\n      dup3\n        /* \"#utility.yul\":481:519   */\n      tag_64\n      jump\t// in\n    tag_63:\n        /* \"#utility.yul\":535:605   */\n      tag_65\n        /* \"#utility.yul\":598:604   */\n      dup2\n        /* \"#utility.yul\":593:596   */\n      dup6\n        /* \"#utility.yul\":535:605   */\n      tag_66\n      jump\t// in\n    tag_65:\n        /* \"#utility.yul\":528:605   */\n      swap4\n      pop\n        /* \"#utility.yul\":614:666   */\n      tag_67\n        /* \"#utility.yul\":659:665   */\n      dup2\n        /* \"#utility.yul\":654:657   */\n      dup6\n        /* \"#utility.yul\":647:651   */\n      0x20\n        /* \"#utility.yul\":640:645   */\n      dup7\n        /* \"#utility.yul\":636:652   */\n      add\n        /* \"#utility.yul\":614:666   */\n      tag_68\n      jump\t// in\n    tag_67:\n        /* \"#utility.yul\":691:720   */\n      tag_69\n        /* \"#utility.yul\":713:719   */\n      dup2\n        /* \"#utility.yul\":691:720   */\n      tag_70\n      jump\t// in\n    tag_69:\n        /* \"#utility.yul\":686:689   */\n      dup5\n        /* \"#utility.yul\":682:721   */\n      add\n        /* \"#utility.yul\":675:721   */\n      swap2\n      pop\n        /* \"#utility.yul\":457:727   */\n      pop\n        /* \"#utility.yul\":367:727   */\n      swap3\n      swap2\n      pop\n      pop\n      jump\t// out\n        /* \"#utility.yul\":733:1097   */\n    tag_71:\n        /* \"#utility.yul\":821:824   */\n      0x00\n        /* \"#utility.yul\":849:888   */\n      tag_73\n        /* \"#utility.yul\":882:887   */\n      dup3\n        /* \"#utility.yul\":849:888   */\n      tag_74\n      jump\t// in\n    tag_73:\n        /* \"#utility.yul\":904:975   */\n      tag_75\n        /* \"#utility.yul\":968:974   */\n      dup2\n        /* \"#utility.yul\":963:966   */\n      dup6\n        /* \"#utility.yul\":904:975   */\n      tag_76\n      jump\t// in\n    tag_75:\n        /* \"#utility.yul\":897:975   */\n      swap4\n      pop\n        /* \"#utility.yul\":984:1036   */\n      tag_77\n        /* \"#utility.yul\":1029:1035   */\n      dup2\n        /* \"#utility.yul\":1024:1027   */\n      dup6\n        /* \"#utility.yul\":1017:1021   */\n      0x20\n        /* \"#utility.yul\":1010:1015   */\n      dup7\n        /* \"#utility.yul\":1006:1022   */\n      add\n        /* \"#utility.yul\":984:1036   */\n      tag_68\n      jump\t// in\n    tag_77:\n        /* \"#utility.yul\":1061:1090   */\n      tag_78\n        /* \"#utility.yul\":1083:1089   */\n      dup2\n        /* \"#utility.yul\":1061:1090   */\n      tag_70\n      jump\t// in\n    tag_78:\n        /* \"#utility.yul\":1056:1059   */\n      dup5\n        /* \"#utility.yul\":1052:1091   */\n      add\n        /* \"#utility.yul\":1045:1091   */\n      swap2\n      pop\n        /* \"#utility.yul\":825:1097   */\n      pop\n        /* \"#utility.yul\":733:1097   */\n      swap3\n      swap2\n      pop\n      pop\n      jump\t// out\n        /* \"#utility.yul\":1103:1325   */\n    tag_36:\n        /* \"#utility.yul\":1196:1200   */\n      0x00\n        /* \"#utility.yul\":1234:1236   */\n      0x20\n        /* \"#utility.yul\":1223:1232   */\n      dup3\n        /* \"#utility.yul\":1219:1237   */\n      add\n        /* \"#utility.yul\":1211:1237   */\n      swap1\n      pop\n        /* \"#utility.yul\":1247:1318   */\n      tag_80\n        /* \"#utility.yul\":1315:1316   */\n      0x00\n        /* \"#utility.yul\":1304:1313   */\n      dup4\n        /* \"#utility.yul\":1300:1317   */\n      add\n        /* \"#utility.yul\":1291:1297   */\n      dup5\n        /* \"#utility.yul\":1247:1318   */\n      tag_49\n      jump\t// in\n    tag_80:\n        /* \"#utility.yul\":1103:1325   */\n      swap3\n      swap2\n      pop\n      pop\n      jump\t// out\n        /* \"#utility.yul\":1331:1541   */\n    tag_14:\n        /* \"#utility.yul\":1418:1422   */\n      0x00\n        /* \"#utility.yul\":1456:1458   */\n      0x20\n        /* \"#utility.yul\":1445:1454   */\n      dup3\n        /* \"#utility.yul\":1441:1459   */\n      add\n        /* \"#utility.yul\":1433:1459   */\n      swap1\n      pop\n        /* \"#utility.yul\":1469:1534   */\n      tag_82\n        /* \"#utility.yul\":1531:1532   */\n      0x00\n        /* \"#utility.yul\":1520:1529   */\n      dup4\n        /* \"#utility.yul\":1516:1533   */\n      add\n        /* \"#utility.yul\":1507:1513   */\n      dup5\n        /* \"#utility.yul\":1469:1534   */\n      tag_53\n      jump\t// in\n    tag_82:\n        /* \"#utility.yul\":1331:1541   */\n      swap3\n      swap2\n      pop\n      pop\n      jump\t// out\n        /* \"#utility.yul\":1547:1765   */\n    tag_25:\n        /* \"#utility.yul\":1638:1642   */\n      0x00\n        /* \"#utility.yul\":1676:1678   */\n      0x20\n        /* \"#utility.yul\":1665:1674   */\n      dup3\n        /* \"#utility.yul\":1661:1679   */\n      add\n        /* \"#utility.yul\":1653:1679   */\n      swap1\n      pop\n        /* \"#utility.yul\":1689:1758   */\n      tag_84\n        /* \"#utility.yul\":1755:1756   */\n      0x00\n        /* \"#utility.yul\":1744:1753   */\n      dup4\n        /* \"#utility.yul\":1740:1757   */\n      add\n        /* \"#utility.yul\":1731:1737   */\n      dup5\n        /* \"#utility.yul\":1689:1758   */\n      tag_57\n      jump\t// in\n    tag_84:\n        /* \"#utility.yul\":1547:1765   */\n      swap3\n      swap2\n      pop\n      pop\n      jump\t// out\n        /* \"#utility.yul\":1771:2080   */\n    tag_32:\n        /* \"#utility.yul\":1882:1886   */\n      0x00\n        /* \"#utility.yul\":1920:1922   */\n      0x20\n        /* \"#utility.yul\":1909:1918   */\n      dup3\n        /* \"#utility.yul\":1905:1923   */\n      add\n        /* \"#utility.yul\":1897:1923   */\n      swap1\n      pop\n        /* \"#utility.yul\":1969:1978   */\n      dup2\n        /* \"#utility.yul\":1963:1967   */\n      dup2\n        /* \"#utility.yul\":1959:1979   */\n      sub\n        /* \"#utility.yul\":1955:1956   */\n      0x00\n        /* \"#utility.yul\":1944:1953   */\n      dup4\n        /* \"#utility.yul\":1940:1957   */\n      add\n        /* \"#utility.yul\":1933:1980   */\n      mstore\n        /* \"#utility.yul\":1997:2073   */\n      tag_86\n        /* \"#utility.yul\":2068:2072   */\n      dup2\n        /* \"#utility.yul\":2059:2065   */\n      dup5\n        /* \"#utility.yul\":1997:2073   */\n      tag_61\n      jump\t// in\n    tag_86:\n        /* \"#utility.yul\":1989:2073   */\n      swap1\n      pop\n        /* \"#utility.yul\":1771:2080   */\n      swap3\n      swap2\n      pop\n      pop\n      jump\t// out\n        /* \"#utility.yul\":2086:2399   */\n    tag_21:\n        /* \"#utility.yul\":2199:2203   */\n      0x00\n        /* \"#utility.yul\":2237:2239   */\n      0x20\n        /* \"#utility.yul\":2226:2235   */\n      dup3\n        /* \"#utility.yul\":2222:2240   */\n      add\n        /* \"#utility.yul\":2214:2240   */\n      swap1\n      pop\n        /* \"#utility.yul\":2286:2295   */\n      dup2\n        /* \"#utility.yul\":2280:2284   */\n      dup2\n        /* \"#utility.yul\":2276:2296   */\n      sub\n        /* \"#utility.yul\":2272:2273   */\n      0x00\n        /* \"#utility.yul\":2261:2270   */\n      dup4\n        /* \"#utility.yul\":2257:2274   */\n      add\n        /* \"#utility.yul\":2250:2297   */\n      mstore\n        /* \"#utility.yul\":2314:2392   */\n      tag_88\n        /* \"#utility.yul\":2387:2391   */\n      dup2\n        /* \"#utility.yul\":2378:2384   */\n      dup5\n        /* \"#utility.yul\":2314:2392   */\n      tag_71\n      jump\t// in\n    tag_88:\n        /* \"#utility.yul\":2306:2392   */\n      swap1\n      pop\n        /* \"#utility.yul\":2086:2399   */\n      swap3\n      swap2\n      pop\n      pop\n      jump\t// out\n        /* \"#utility.yul\":2405:2503   */\n    tag_64:\n        /* \"#utility.yul\":2456:2462   */\n      0x00\n        /* \"#utility.yul\":2490:2495   */\n      dup2\n        /* \"#utility.yul\":2484:2496   */\n      mload\n        /* \"#utility.yul\":2474:2496   */\n      swap1\n      pop\n        /* \"#utility.yul\":2405:2503   */\n      swap2\n      swap1\n      pop\n      jump\t// out\n        /* \"#utility.yul\":2509:2608   */\n    tag_74:\n        /* \"#utility.yul\":2561:2567   */\n      0x00\n        /* \"#utility.yul\":2595:2600   */\n      dup2\n        /* \"#utility.yul\":2589:2601   */\n      mload\n        /* \"#utility.yul\":2579:2601   */\n      swap1\n      pop\n        /* \"#utility.yul\":2509:2608   */\n      swap2\n      swap1\n      pop\n      jump\t// out\n        /* \"#utility.yul\":2614:2782   */\n    tag_66:\n        /* \"#utility.yul\":2697:2708   */\n      0x00\n        /* \"#utility.yul\":2731:2737   */\n      dup3\n        /* \"#utility.yul\":2726:2729   */\n      dup3\n        /* \"#utility.yul\":2719:2738   */\n      mstore\n        /* \"#utility.yul\":2771:2775   */\n      0x20\n        /* \"#utility.yul\":2766:2769   */\n      dup3\n        /* \"#utility.yul\":2762:2776   */\n      add\n        /* \"#utility.yul\":2747:2776   */\n      swap1\n      pop\n        /* \"#utility.yul\":2614:2782   */\n      swap3\n      swap2\n      pop\n      pop\n      jump\t// out\n        /* \"#utility.yul\":2788:2957   */\n    tag_76:\n        /* \"#utility.yul\":2872:2883   */\n      0x00\n        /* \"#utility.yul\":2906:2912   */\n      dup3\n        /* \"#utility.yul\":2901:2904   */\n      dup3\n        /* \"#utility.yul\":2894:2913   */\n      mstore\n        /* \"#utility.yul\":2946:2950   */\n      0x20\n        /* \"#utility.yul\":2941:2944   */\n      dup3\n        /* \"#utility.yul\":2937:2951   */\n      add\n        /* \"#utility.yul\":2922:2951   */\n      swap1\n      pop\n        /* \"#utility.yul\":2788:2957   */\n      swap3\n      swap2\n      pop\n      pop\n      jump\t// out\n        /* \"#utility.yul\":2963:3059   */\n    tag_52:\n        /* \"#utility.yul\":3000:3007   */\n      0x00\n        /* \"#utility.yul\":3029:3053   */\n      tag_94\n        /* \"#utility.yul\":3047:3052   */\n      dup3\n        /* \"#utility.yul\":3029:3053   */\n      tag_95\n      jump\t// in\n    tag_94:\n        /* \"#utility.yul\":3018:3053   */\n      swap1\n      pop\n        /* \"#utility.yul\":2963:3059   */\n      swap2\n      swap1\n      pop\n      jump\t// out\n        /* \"#utility.yul\":3065:3155   */\n    tag_56:\n        /* \"#utility.yul\":3099:3106   */\n      0x00\n        /* \"#utility.yul\":3142:3147   */\n      dup2\n        /* \"#utility.yul\":3135:3148   */\n      iszero\n        /* \"#utility.yul\":3128:3149   */\n      iszero\n        /* \"#utility.yul\":3117:3149   */\n      swap1\n      pop\n        /* \"#utility.yul\":3065:3155   */\n      swap2\n      swap1\n      pop\n      jump\t// out\n        /* \"#utility.yul\":3161:3310   */\n    tag_60:\n        /* \"#utility.yul\":3197:3204   */\n      0x00\n        /* \"#utility.yul\":3237:3303   */\n      0xffffffff00000000000000000000000000000000000000000000000000000000\n        /* \"#utility.yul\":3230:3235   */\n      dup3\n        /* \"#utility.yul\":3226:3304   */\n      and\n        /* \"#utility.yul\":3215:3304   */\n      swap1\n      pop\n        /* \"#utility.yul\":3161:3310   */\n      swap2\n      swap1\n      pop\n      jump\t// out\n        /* \"#utility.yul\":3316:3442   */\n    tag_95:\n        /* \"#utility.yul\":3353:3360   */\n      0x00\n        /* \"#utility.yul\":3393:3435   */\n      0xffffffffffffffffffffffffffffffffffffffff\n        /* \"#utility.yul\":3386:3391   */\n      dup3\n        /* \"#utility.yul\":3382:3436   */\n      and\n        /* \"#utility.yul\":3371:3436   */\n      swap1\n      pop\n        /* \"#utility.yul\":3316:3442   */\n      swap2\n      swap1\n      pop\n      jump\t// out\n        /* \"#utility.yul\":3448:3755   */\n    tag_68:\n        /* \"#utility.yul\":3516:3517   */\n      0x00\n        /* \"#utility.yul\":3526:3639   */\n    tag_100:\n        /* \"#utility.yul\":3540:3546   */\n      dup4\n        /* \"#utility.yul\":3537:3538   */\n      dup2\n        /* \"#utility.yul\":3534:3547   */\n      lt\n        /* \"#utility.yul\":3526:3639   */\n      iszero\n      tag_102\n      jumpi\n        /* \"#utility.yul\":3625:3626   */\n      dup1\n        /* \"#utility.yul\":3620:3623   */\n      dup3\n        /* \"#utility.yul\":3616:3627   */\n      add\n        /* \"#utility.yul\":3610:3628   */\n      mload\n        /* \"#utility.yul\":3606:3607   */\n      dup2\n        /* \"#utility.yul\":3601:3604   */\n      dup5\n        /* \"#utility.yul\":3597:3608   */\n      add\n        /* \"#utility.yul\":3590:3629   */\n      mstore\n        /* \"#utility.yul\":3562:3564   */\n      0x20\n        /* \"#utility.yul\":3559:3560   */\n      dup2\n        /* \"#utility.yul\":3555:3565   */\n      add\n        /* \"#utility.yul\":3550:3565   */\n      swap1\n      pop\n        /* \"#utility.yul\":3526:3639   */\n      jump(tag_100)\n    tag_102:\n        /* \"#utility.yul\":3657:3663   */\n      dup4\n        /* \"#utility.yul\":3654:3655   */\n      dup2\n        /* \"#utility.yul\":3651:3664   */\n      gt\n        /* \"#utility.yul\":3648:3749   */\n      iszero\n      tag_103\n      jumpi\n        /* \"#utility.yul\":3737:3738   */\n      0x00\n        /* \"#utility.yul\":3728:3734   */\n      dup5\n        /* \"#utility.yul\":3723:3726   */\n      dup5\n        /* \"#utility.yul\":3719:3735   */\n      add\n        /* \"#utility.yul\":3712:3739   */\n      mstore\n        /* \"#utility.yul\":3648:3749   */\n    tag_103:\n        /* \"#utility.yul\":3497:3755   */\n      pop\n        /* \"#utility.yul\":3448:3755   */\n      pop\n      pop\n      pop\n      jump\t// out\n        /* \"#utility.yul\":3761:4081   */\n    tag_38:\n        /* \"#utility.yul\":3805:3811   */\n      0x00\n        /* \"#utility.yul\":3842:3843   */\n      0x02\n        /* \"#utility.yul\":3836:3840   */\n      dup3\n        /* \"#utility.yul\":3832:3844   */\n      div\n        /* \"#utility.yul\":3822:3844   */\n      swap1\n      pop\n        /* \"#utility.yul\":3889:3890   */\n      0x01\n        /* \"#utility.yul\":3883:3887   */\n      dup3\n        /* \"#utility.yul\":3879:3891   */\n      and\n        /* \"#utility.yul\":3910:3928   */\n      dup1\n        /* \"#utility.yul\":3900:3981   */\n      tag_105\n      jumpi\n        /* \"#utility.yul\":3966:3970   */\n      0x7f\n        /* \"#utility.yul\":3958:3964   */\n      dup3\n        /* \"#utility.yul\":3954:3971   */\n      and\n        /* \"#utility.yul\":3944:3971   */\n      swap2\n      pop\n        /* \"#utility.yul\":3900:3981   */\n    tag_105:\n        /* \"#utility.yul\":4028:4030   */\n      0x20\n        /* \"#utility.yul\":4020:4026   */\n      dup3\n        /* \"#utility.yul\":4017:4031   */\n      lt\n        /* \"#utility.yul\":3997:4015   */\n      dup2\n        /* \"#utility.yul\":3994:4032   */\n      eq\n        /* \"#utility.yul\":3991:4075   */\n      iszero\n      tag_106\n      jumpi\n        /* \"#utility.yul\":4047:4065   */\n      tag_107\n      tag_108\n      jump\t// in\n    tag_107:\n        /* \"#utility.yul\":3991:4075   */\n    tag_106:\n        /* \"#utility.yul\":3812:4081   */\n      pop\n        /* \"#utility.yul\":3761:4081   */\n      swap2\n      swap1\n      pop\n      jump\t// out\n        /* \"#utility.yul\":4087:4267   */\n    tag_108:\n        /* \"#utility.yul\":4135:4212   */\n      0x4e487b7100000000000000000000000000000000000000000000000000000000\n        /* \"#utility.yul\":4132:4133   */\n      0x00\n        /* \"#utility.yul\":4125:4213   */\n      mstore\n        /* \"#utility.yul\":4232:4236   */\n      0x22\n        /* \"#utility.yul\":4229:4230   */\n      0x04\n        /* \"#utility.yul\":4222:4237   */\n      mstore\n        /* \"#utility.yul\":4256:4260   */\n      0x24\n        /* \"#utility.yul\":4253:4254   */\n      0x00\n        /* \"#utility.yul\":4246:4261   */\n      revert\n        /* \"#utility.yul\":4273:4375   */\n    tag_70:\n        /* \"#utility.yul\":4314:4320   */\n      0x00\n        /* \"#utility.yul\":4365:4367   */\n      0x1f\n        /* \"#utility.yul\":4361:4368   */\n      not\n        /* \"#utility.yul\":4356:4358   */\n      0x1f\n        /* \"#utility.yul\":4349:4354   */\n      dup4\n        /* \"#utility.yul\":4345:4359   */\n      add\n        /* \"#utility.yul\":4341:4369   */\n      and\n        /* \"#utility.yul\":4331:4369   */\n      swap1\n      pop\n        /* \"#utility.yul\":4273:4375   */\n      swap2\n      swap1\n      pop\n      jump\t// out\n\n    auxdata: 0xa2646970667358221220720d97ea3993fc42b0a74b2bcbd7d1c4ac09c4cc479dda97dbfa14845071887064736f6c63430008070033\n}\n",
				"bytecode": {
					"linkReferences": {},
					"object": "608060405260008060006101000a81548160ff021916908315150217905550600015600060016101000a81548160ff021916908315150217905550600015156000151514600060026101000a81548160ff0219169083151502179055506040518060400160405280600e81526020017f48656c6c6f20736f6c6964697479000000000000000000000000000000000000815250600190805190602001906100a7929190610180565b50631234567860e01b600260006101000a81548163ffffffff021916908360e01c02179055506040518060400160405280600681526020017f4d594e414d45000000000000000000000000000000000000000000000000000081525060039080519060200190610118929190610206565b5073f8e81d47203a594245e36c48e151709f0c19fbe8600460006101000a81548173ffffffffffffffffffffffffffffffffffffffff021916908373ffffffffffffffffffffffffffffffffffffffff16021790555034801561017a57600080fd5b5061030a565b82805461018c906102a9565b90600052602060002090601f0160209004810192826101ae57600085556101f5565b82601f106101c757805160ff19168380011785556101f5565b828001600101855582156101f5579182015b828111156101f45782518255916020019190600101906101d9565b5b509050610202919061028c565b5090565b828054610212906102a9565b90600052602060002090601f016020900481019282610234576000855561027b565b82601f1061024d57805160ff191683800117855561027b565b8280016001018555821561027b579182015b8281111561027a57825182559160200191906001019061025f565b5b509050610288919061028c565b5090565b5b808211156102a557600081600090555060010161028d565b5090565b600060028204905060018216806102c157607f821691505b602082108114156102d5576102d46102db565b5b50919050565b7f4e487b7100000000000000000000000000000000000000000000000000000000600052602260045260246000fd5b610591806103196000396000f3fe608060405234801561001057600080fd5b506004361061007d5760003560e01c8063ac9c19591161005b578063ac9c1959146100dc578063c3da42b8146100fa578063cb6f197e14610118578063f0759a4d146101365761007d565b80634df7e3d0146100825780638a054ac2146100a0578063a99dca3f146100be575b600080fd5b61008a610154565b604051610097919061039a565b60405180910390f35b6100a8610165565b6040516100b5919061039a565b60405180910390f35b6100c6610178565b6040516100d391906103f2565b60405180910390f35b6100e4610206565b6040516100f191906103b5565b60405180910390f35b610102610219565b60405161010f919061039a565b60405180910390f35b61012061022c565b60405161012d91906103d0565b60405180910390f35b61013e6102ba565b60405161014b919061037f565b60405180910390f35b60008054906101000a900460ff1681565b600060029054906101000a900460ff1681565b60018054610185906104e9565b80601f01602080910402602001604051908101604052809291908181526020018280546101b1906104e9565b80156101fe5780601f106101d3576101008083540402835291602001916101fe565b820191906000526020600020905b8154815290600101906020018083116101e157829003601f168201915b505050505081565b600260009054906101000a900460e01b81565b600060019054906101000a900460ff1681565b60038054610239906104e9565b80601f0160208091040260200160405190810160405280929190818152602001828054610265906104e9565b80156102b25780601f10610287576101008083540402835291602001916102b2565b820191906000526020600020905b81548152906001019060200180831161029557829003601f168201915b505050505081565b600460009054906101000a900473ffffffffffffffffffffffffffffffffffffffff1681565b6102e98161044c565b82525050565b6102f88161045e565b82525050565b6103078161046a565b82525050565b600061031882610414565b610322818561042a565b93506103328185602086016104b6565b61033b8161054a565b840191505092915050565b60006103518261041f565b61035b818561043b565b935061036b8185602086016104b6565b6103748161054a565b840191505092915050565b600060208201905061039460008301846102e0565b92915050565b60006020820190506103af60008301846102ef565b92915050565b60006020820190506103ca60008301846102fe565b92915050565b600060208201905081810360008301526103ea818461030d565b905092915050565b6000602082019050818103600083015261040c8184610346565b905092915050565b600081519050919050565b600081519050919050565b600082825260208201905092915050565b600082825260208201905092915050565b600061045782610496565b9050919050565b60008115159050919050565b60007fffffffff0000000000000000000000000000000000000000000000000000000082169050919050565b600073ffffffffffffffffffffffffffffffffffffffff82169050919050565b60005b838110156104d45780820151818401526020810190506104b9565b838111156104e3576000848401525b50505050565b6000600282049050600182168061050157607f821691505b602082108114156105155761051461051b565b5b50919050565b7f4e487b7100000000000000000000000000000000000000000000000000000000600052602260045260246000fd5b6000601f19601f830116905091905056fea2646970667358221220720d97ea3993fc42b0a74b2bcbd7d1c4ac09c4cc479dda97dbfa14845071887064736f6c63430008070033",
					"opcodes": "PUSH1 0x80 PUSH1 0x40 MSTORE PUSH1 0x0 DUP1 PUSH1 0x0 PUSH2 0x100 EXP DUP2 SLOAD DUP2 PUSH1 0xFF MUL NOT AND SWAP1 DUP4 ISZERO ISZERO MUL OR SWAP1 SSTORE POP PUSH1 0x0 ISZERO PUSH1 0x0 PUSH1 0x1 PUSH2 0x100 EXP DUP2 SLOAD DUP2 PUSH1 0xFF MUL NOT AND SWAP1 DUP4 ISZERO ISZERO MUL OR SWAP1 SSTORE POP PUSH1 0x0 ISZERO ISZERO PUSH1 0x0 ISZERO ISZERO EQ PUSH1 0x0 PUSH1 0x2 PUSH2 0x100 EXP DUP2 SLOAD DUP2 PUSH1 0xFF MUL NOT AND SWAP1 DUP4 ISZERO ISZERO MUL OR SWAP1 SSTORE POP PUSH1 0x40 MLOAD DUP1 PUSH1 0x40 ADD PUSH1 0x40 MSTORE DUP1 PUSH1 0xE DUP2 MSTORE PUSH1 0x20 ADD PUSH32 0x48656C6C6F20736F6C6964697479000000000000000000000000000000000000 DUP2 MSTORE POP PUSH1 0x1 SWAP1 DUP1 MLOAD SWAP1 PUSH1 0x20 ADD SWAP1 PUSH2 0xA7 SWAP3 SWAP2 SWAP1 PUSH2 0x180 JUMP JUMPDEST POP PUSH4 0x12345678 PUSH1 0xE0 SHL PUSH1 0x2 PUSH1 0x0 PUSH2 0x100 EXP DUP2 SLOAD DUP2 PUSH4 0xFFFFFFFF MUL NOT AND SWAP1 DUP4 PUSH1 0xE0 SHR MUL OR SWAP1 SSTORE POP PUSH1 0x40 MLOAD DUP1 PUSH1 0x40 ADD PUSH1 0x40 MSTORE DUP1 PUSH1 0x6 DUP2 MSTORE PUSH1 0x20 ADD PUSH32 0x4D594E414D450000000000000000000000000000000000000000000000000000 DUP2 MSTORE POP PUSH1 0x3 SWAP1 DUP1 MLOAD SWAP1 PUSH1 0x20 ADD SWAP1 PUSH2 0x118 SWAP3 SWAP2 SWAP1 PUSH2 0x206 JUMP JUMPDEST POP PUSH20 0xF8E81D47203A594245E36C48E151709F0C19FBE8 PUSH1 0x4 PUSH1 0x0 PUSH2 0x100 EXP DUP2 SLOAD DUP2 PUSH20 0xFFFFFFFFFFFFFFFFFFFFFFFFFFFFFFFFFFFFFFFF MUL NOT AND SWAP1 DUP4 PUSH20 0xFFFFFFFFFFFFFFFFFFFFFFFFFFFFFFFFFFFFFFFF AND MUL OR SWAP1 SSTORE POP CALLVALUE DUP1 ISZERO PUSH2 0x17A JUMPI PUSH1 0x0 DUP1 REVERT JUMPDEST POP PUSH2 0x30A JUMP JUMPDEST DUP3 DUP1 SLOAD PUSH2 0x18C SWAP1 PUSH2 0x2A9 JUMP JUMPDEST SWAP1 PUSH1 0x0 MSTORE PUSH1 0x20 PUSH1 0x0 KECCAK256 SWAP1 PUSH1 0x1F ADD PUSH1 0x20 SWAP1 DIV DUP2 ADD SWAP3 DUP3 PUSH2 0x1AE JUMPI PUSH1 0x0 DUP6 SSTORE PUSH2 0x1F5 JUMP JUMPDEST DUP3 PUSH1 0x1F LT PUSH2 0x1C7 JUMPI DUP1 MLOAD PUSH1 0xFF NOT AND DUP4 DUP1 ADD OR DUP6 SSTORE PUSH2 0x1F5 JUMP JUMPDEST DUP3 DUP1 ADD PUSH1 0x1 ADD DUP6 SSTORE DUP3 ISZERO PUSH2 0x1F5 JUMPI SWAP2 DUP3 ADD JUMPDEST DUP3 DUP2 GT ISZERO PUSH2 0x1F4 JUMPI DUP3 MLOAD DUP3 SSTORE SWAP2 PUSH1 0x20 ADD SWAP2 SWAP1 PUSH1 0x1 ADD SWAP1 PUSH2 0x1D9 JUMP JUMPDEST JUMPDEST POP SWAP1 POP PUSH2 0x202 SWAP2 SWAP1 PUSH2 0x28C JUMP JUMPDEST POP SWAP1 JUMP JUMPDEST DUP3 DUP1 SLOAD PUSH2 0x212 SWAP1 PUSH2 0x2A9 JUMP JUMPDEST SWAP1 PUSH1 0x0 MSTORE PUSH1 0x20 PUSH1 0x0 KECCAK256 SWAP1 PUSH1 0x1F ADD PUSH1 0x20 SWAP1 DIV DUP2 ADD SWAP3 DUP3 PUSH2 0x234 JUMPI PUSH1 0x0 DUP6 SSTORE PUSH2 0x27B JUMP JUMPDEST DUP3 PUSH1 0x1F LT PUSH2 0x24D JUMPI DUP1 MLOAD PUSH1 0xFF NOT AND DUP4 DUP1 ADD OR DUP6 SSTORE PUSH2 0x27B JUMP JUMPDEST DUP3 DUP1 ADD PUSH1 0x1 ADD DUP6 SSTORE DUP3 ISZERO PUSH2 0x27B JUMPI SWAP2 DUP3 ADD JUMPDEST DUP3 DUP2 GT ISZERO PUSH2 0x27A JUMPI DUP3 MLOAD DUP3 SSTORE SWAP2 PUSH1 0x20 ADD SWAP2 SWAP1 PUSH1 0x1 ADD SWAP1 PUSH2 0x25F JUMP JUMPDEST JUMPDEST POP SWAP1 POP PUSH2 0x288 SWAP2 SWAP1 PUSH2 0x28C JUMP JUMPDEST POP SWAP1 JUMP JUMPDEST JUMPDEST DUP1 DUP3 GT ISZERO PUSH2 0x2A5 JUMPI PUSH1 0x0 DUP2 PUSH1 0x0 SWAP1 SSTORE POP PUSH1 0x1 ADD PUSH2 0x28D JUMP JUMPDEST POP SWAP1 JUMP JUMPDEST PUSH1 0x0 PUSH1 0x2 DUP3 DIV SWAP1 POP PUSH1 0x1 DUP3 AND DUP1 PUSH2 0x2C1 JUMPI PUSH1 0x7F DUP3 AND SWAP2 POP JUMPDEST PUSH1 0x20 DUP3 LT DUP2 EQ ISZERO PUSH2 0x2D5 JUMPI PUSH2 0x2D4 PUSH2 0x2DB JUMP JUMPDEST JUMPDEST POP SWAP2 SWAP1 POP JUMP JUMPDEST PUSH32 0x4E487B7100000000000000000000000000000000000000000000000000000000 PUSH1 0x0 MSTORE PUSH1 0x22 PUSH1 0x4 MSTORE PUSH1 0x24 PUSH1 0x0 REVERT JUMPDEST PUSH2 0x591 DUP1 PUSH2 0x319 PUSH1 0x0 CODECOPY PUSH1 0x0 RETURN INVALID PUSH1 0x80 PUSH1 0x40 MSTORE CALLVALUE DUP1 ISZERO PUSH2 0x10 JUMPI PUSH1 0x0 DUP1 REVERT JUMPDEST POP PUSH1 0x4 CALLDATASIZE LT PUSH2 0x7D JUMPI PUSH1 0x0 CALLDATALOAD PUSH1 0xE0 SHR DUP1 PUSH4 0xAC9C1959 GT PUSH2 0x5B JUMPI DUP1 PUSH4 0xAC9C1959 EQ PUSH2 0xDC JUMPI DUP1 PUSH4 0xC3DA42B8 EQ PUSH2 0xFA JUMPI DUP1 PUSH4 0xCB6F197E EQ PUSH2 0x118 JUMPI DUP1 PUSH4 0xF0759A4D EQ PUSH2 0x136 JUMPI PUSH2 0x7D JUMP JUMPDEST DUP1 PUSH4 0x4DF7E3D0 EQ PUSH2 0x82 JUMPI DUP1 PUSH4 0x8A054AC2 EQ PUSH2 0xA0 JUMPI DUP1 PUSH4 0xA99DCA3F EQ PUSH2 0xBE JUMPI JUMPDEST PUSH1 0x0 DUP1 REVERT JUMPDEST PUSH2 0x8A PUSH2 0x154 JUMP JUMPDEST PUSH1 0x40 MLOAD PUSH2 0x97 SWAP2 SWAP1 PUSH2 0x39A JUMP JUMPDEST PUSH1 0x40 MLOAD DUP1 SWAP2 SUB SWAP1 RETURN JUMPDEST PUSH2 0xA8 PUSH2 0x165 JUMP JUMPDEST PUSH1 0x40 MLOAD PUSH2 0xB5 SWAP2 SWAP1 PUSH2 0x39A JUMP JUMPDEST PUSH1 0x40 MLOAD DUP1 SWAP2 SUB SWAP1 RETURN JUMPDEST PUSH2 0xC6 PUSH2 0x178 JUMP JUMPDEST PUSH1 0x40 MLOAD PUSH2 0xD3 SWAP2 SWAP1 PUSH2 0x3F2 JUMP JUMPDEST PUSH1 0x40 MLOAD DUP1 SWAP2 SUB SWAP1 RETURN JUMPDEST PUSH2 0xE4 PUSH2 0x206 JUMP JUMPDEST PUSH1 0x40 MLOAD PUSH2 0xF1 SWAP2 SWAP1 PUSH2 0x3B5 JUMP JUMPDEST PUSH1 0x40 MLOAD DUP1 SWAP2 SUB SWAP1 RETURN JUMPDEST PUSH2 0x102 PUSH2 0x219 JUMP JUMPDEST PUSH1 0x40 MLOAD PUSH2 0x10F SWAP2 SWAP1 PUSH2 0x39A JUMP JUMPDEST PUSH1 0x40 MLOAD DUP1 SWAP2 SUB SWAP1 RETURN JUMPDEST PUSH2 0x120 PUSH2 0x22C JUMP JUMPDEST PUSH1 0x40 MLOAD PUSH2 0x12D SWAP2 SWAP1 PUSH2 0x3D0 JUMP JUMPDEST PUSH1 0x40 MLOAD DUP1 SWAP2 SUB SWAP1 RETURN JUMPDEST PUSH2 0x13E PUSH2 0x2BA JUMP JUMPDEST PUSH1 0x40 MLOAD PUSH2 0x14B SWAP2 SWAP1 PUSH2 0x37F JUMP JUMPDEST PUSH1 0x40 MLOAD DUP1 SWAP2 SUB SWAP1 RETURN JUMPDEST PUSH1 0x0 DUP1 SLOAD SWAP1 PUSH2 0x100 EXP SWAP1 DIV PUSH1 0xFF AND DUP2 JUMP JUMPDEST PUSH1 0x0 PUSH1 0x2 SWAP1 SLOAD SWAP1 PUSH2 0x100 EXP SWAP1 DIV PUSH1 0xFF AND DUP2 JUMP JUMPDEST PUSH1 0x1 DUP1 SLOAD PUSH2 0x185 SWAP1 PUSH2 0x4E9 JUMP JUMPDEST DUP1 PUSH1 0x1F ADD PUSH1 0x20 DUP1 SWAP2 DIV MUL PUSH1 0x20 ADD PUSH1 0x40 MLOAD SWAP1 DUP2 ADD PUSH1 0x40 MSTORE DUP1 SWAP3 SWAP2 SWAP1 DUP2 DUP2 MSTORE PUSH1 0x20 ADD DUP3 DUP1 SLOAD PUSH2 0x1B1 SWAP1 PUSH2 0x4E9 JUMP JUMPDEST DUP1 ISZERO PUSH2 0x1FE JUMPI DUP1 PUSH1 0x1F LT PUSH2 0x1D3 JUMPI PUSH2 0x100 DUP1 DUP4 SLOAD DIV MUL DUP4 MSTORE SWAP2 PUSH1 0x20 ADD SWAP2 PUSH2 0x1FE JUMP JUMPDEST DUP3 ADD SWAP2 SWAP1 PUSH1 0x0 MSTORE PUSH1 0x20 PUSH1 0x0 KECCAK256 SWAP1 JUMPDEST DUP2 SLOAD DUP2 MSTORE SWAP1 PUSH1 0x1 ADD SWAP1 PUSH1 0x20 ADD DUP1 DUP4 GT PUSH2 0x1E1 JUMPI DUP3 SWAP1 SUB PUSH1 0x1F AND DUP3 ADD SWAP2 JUMPDEST POP POP POP POP POP DUP2 JUMP JUMPDEST PUSH1 0x2 PUSH1 0x0 SWAP1 SLOAD SWAP1 PUSH2 0x100 EXP SWAP1 DIV PUSH1 0xE0 SHL DUP2 JUMP JUMPDEST PUSH1 0x0 PUSH1 0x1 SWAP1 SLOAD SWAP1 PUSH2 0x100 EXP SWAP1 DIV PUSH1 0xFF AND DUP2 JUMP JUMPDEST PUSH1 0x3 DUP1 SLOAD PUSH2 0x239 SWAP1 PUSH2 0x4E9 JUMP JUMPDEST DUP1 PUSH1 0x1F ADD PUSH1 0x20 DUP1 SWAP2 DIV MUL PUSH1 0x20 ADD PUSH1 0x40 MLOAD SWAP1 DUP2 ADD PUSH1 0x40 MSTORE DUP1 SWAP3 SWAP2 SWAP1 DUP2 DUP2 MSTORE PUSH1 0x20 ADD DUP3 DUP1 SLOAD PUSH2 0x265 SWAP1 PUSH2 0x4E9 JUMP JUMPDEST DUP1 ISZERO PUSH2 0x2B2 JUMPI DUP1 PUSH1 0x1F LT PUSH2 0x287 JUMPI PUSH2 0x100 DUP1 DUP4 SLOAD DIV MUL DUP4 MSTORE SWAP2 PUSH1 0x20 ADD SWAP2 PUSH2 0x2B2 JUMP JUMPDEST DUP3 ADD SWAP2 SWAP1 PUSH1 0x0 MSTORE PUSH1 0x20 PUSH1 0x0 KECCAK256 SWAP1 JUMPDEST DUP2 SLOAD DUP2 MSTORE SWAP1 PUSH1 0x1 ADD SWAP1 PUSH1 0x20 ADD DUP1 DUP4 GT PUSH2 0x295 JUMPI DUP3 SWAP1 SUB PUSH1 0x1F AND DUP3 ADD SWAP2 JUMPDEST POP POP POP POP POP DUP2 JUMP JUMPDEST PUSH1 0x4 PUSH1 0x0 SWAP1 SLOAD SWAP1 PUSH2 0x100 EXP SWAP1 DIV PUSH20 0xFFFFFFFFFFFFFFFFFFFFFFFFFFFFFFFFFFFFFFFF AND DUP2 JUMP JUMPDEST PUSH2 0x2E9 DUP2 PUSH2 0x44C JUMP JUMPDEST DUP3 MSTORE POP POP JUMP JUMPDEST PUSH2 0x2F8 DUP2 PUSH2 0x45E JUMP JUMPDEST DUP3 MSTORE POP POP JUMP JUMPDEST PUSH2 0x307 DUP2 PUSH2 0x46A JUMP JUMPDEST DUP3 MSTORE POP POP JUMP JUMPDEST PUSH1 0x0 PUSH2 0x318 DUP3 PUSH2 0x414 JUMP JUMPDEST PUSH2 0x322 DUP2 DUP6 PUSH2 0x42A JUMP JUMPDEST SWAP4 POP PUSH2 0x332 DUP2 DUP6 PUSH1 0x20 DUP7 ADD PUSH2 0x4B6 JUMP JUMPDEST PUSH2 0x33B DUP2 PUSH2 0x54A JUMP JUMPDEST DUP5 ADD SWAP2 POP POP SWAP3 SWAP2 POP POP JUMP JUMPDEST PUSH1 0x0 PUSH2 0x351 DUP3 PUSH2 0x41F JUMP JUMPDEST PUSH2 0x35B DUP2 DUP6 PUSH2 0x43B JUMP JUMPDEST SWAP4 POP PUSH2 0x36B DUP2 DUP6 PUSH1 0x20 DUP7 ADD PUSH2 0x4B6 JUMP JUMPDEST PUSH2 0x374 DUP2 PUSH2 0x54A JUMP JUMPDEST DUP5 ADD SWAP2 POP POP SWAP3 SWAP2 POP POP JUMP JUMPDEST PUSH1 0x0 PUSH1 0x20 DUP3 ADD SWAP1 POP PUSH2 0x394 PUSH1 0x0 DUP4 ADD DUP5 PUSH2 0x2E0 JUMP JUMPDEST SWAP3 SWAP2 POP POP JUMP JUMPDEST PUSH1 0x0 PUSH1 0x20 DUP3 ADD SWAP1 POP PUSH2 0x3AF PUSH1 0x0 DUP4 ADD DUP5 PUSH2 0x2EF JUMP JUMPDEST SWAP3 SWAP2 POP POP JUMP JUMPDEST PUSH1 0x0 PUSH1 0x20 DUP3 ADD SWAP1 POP PUSH2 0x3CA PUSH1 0x0 DUP4 ADD DUP5 PUSH2 0x2FE JUMP JUMPDEST SWAP3 SWAP2 POP POP JUMP JUMPDEST PUSH1 0x0 PUSH1 0x20 DUP3 ADD SWAP1 POP DUP2 DUP2 SUB PUSH1 0x0 DUP4 ADD MSTORE PUSH2 0x3EA DUP2 DUP5 PUSH2 0x30D JUMP JUMPDEST SWAP1 POP SWAP3 SWAP2 POP POP JUMP JUMPDEST PUSH1 0x0 PUSH1 0x20 DUP3 ADD SWAP1 POP DUP2 DUP2 SUB PUSH1 0x0 DUP4 ADD MSTORE PUSH2 0x40C DUP2 DUP5 PUSH2 0x346 JUMP JUMPDEST SWAP1 POP SWAP3 SWAP2 POP POP JUMP JUMPDEST PUSH1 0x0 DUP2 MLOAD SWAP1 POP SWAP2 SWAP1 POP JUMP JUMPDEST PUSH1 0x0 DUP2 MLOAD SWAP1 POP SWAP2 SWAP1 POP JUMP JUMPDEST PUSH1 0x0 DUP3 DUP3 MSTORE PUSH1 0x20 DUP3 ADD SWAP1 POP SWAP3 SWAP2 POP POP JUMP JUMPDEST PUSH1 0x0 DUP3 DUP3 MSTORE PUSH1 0x20 DUP3 ADD SWAP1 POP SWAP3 SWAP2 POP POP JUMP JUMPDEST PUSH1 0x0 PUSH2 0x457 DUP3 PUSH2 0x496 JUMP JUMPDEST SWAP1 POP SWAP2 SWAP1 POP JUMP JUMPDEST PUSH1 0x0 DUP2 ISZERO ISZERO SWAP1 POP SWAP2 SWAP1 POP JUMP JUMPDEST PUSH1 0x0 PUSH32 0xFFFFFFFF00000000000000000000000000000000000000000000000000000000 DUP3 AND SWAP1 POP SWAP2 SWAP1 POP JUMP JUMPDEST PUSH1 0x0 PUSH20 0xFFFFFFFFFFFFFFFFFFFFFFFFFFFFFFFFFFFFFFFF DUP3 AND SWAP1 POP SWAP2 SWAP1 POP JUMP JUMPDEST PUSH1 0x0 JUMPDEST DUP4 DUP2 LT ISZERO PUSH2 0x4D4 JUMPI DUP1 DUP3 ADD MLOAD DUP2 DUP5 ADD MSTORE PUSH1 0x20 DUP2 ADD SWAP1 POP PUSH2 0x4B9 JUMP JUMPDEST DUP4 DUP2 GT ISZERO PUSH2 0x4E3 JUMPI PUSH1 0x0 DUP5 DUP5 ADD MSTORE JUMPDEST POP POP POP POP JUMP JUMPDEST PUSH1 0x0 PUSH1 0x2 DUP3 DIV SWAP1 POP PUSH1 0x1 DUP3 AND DUP1 PUSH2 0x501 JUMPI PUSH1 0x7F DUP3 AND SWAP2 POP JUMPDEST PUSH1 0x20 DUP3 LT DUP2 EQ ISZERO PUSH2 0x515 JUMPI PUSH2 0x514 PUSH2 0x51B JUMP JUMPDEST JUMPDEST POP SWAP2 SWAP1 POP JUMP JUMPDEST PUSH32 0x4E487B7100000000000000000000000000000000000000000000000000000000 PUSH1 0x0 MSTORE PUSH1 0x22 PUSH1 0x4 MSTORE PUSH1 0x24 PUSH1 0x0 REVERT JUMPDEST PUSH1 0x0 PUSH1 0x1F NOT PUSH1 0x1F DUP4 ADD AND SWAP1 POP SWAP2 SWAP1 POP JUMP INVALID LOG2 PUSH5 0x6970667358 0x22 SLT KECCAK256 PUSH19 0xD97EA3993FC42B0A74B2BCBD7D1C4AC09C4CC SELFBALANCE SWAP14 0xDA SWAP8 0xDB STATICCALL EQ DUP5 POP PUSH18 0x887064736F6C634300080700330000000000 "
				},
				"gasEstimates": {
					"creation": {
						"codeDepositCost": "285000",
						"executionCost": "infinite",
						"totalCost": "infinite"
					},
					"external": {
						"b()": "2469",
						"bt()": "2471",
						"bt1()": "infinite",
						"c()": "2543",
						"d()": "2544",
						"hi()": "infinite",
						"myaddr()": "2580"
					}
				},
				"methodIdentifiers": {
					"b()": "4df7e3d0",
					"bt()": "ac9c1959",
					"bt1()": "cb6f197e",
					"c()": "c3da42b8",
					"d()": "8a054ac2",
					"hi()": "a99dca3f",
					"myaddr()": "f0759a4d"
				}
			},
			"storageLayout": {
				"storage": [
					{
						"astId": 4,
						"contract": "solidityLecture/lecture_02.sol:lec02",
						"label": "b",
						"offset": 0,
						"slot": "0",
						"type": "t_bool"
					},
					{
						"astId": 8,
						"contract": "solidityLecture/lecture_02.sol:lec02",
						"label": "c",
						"offset": 1,
						"slot": "0",
						"type": "t_bool"
					},
					{
						"astId": 13,
						"contract": "solidityLecture/lecture_02.sol:lec02",
						"label": "d",
						"offset": 2,
						"slot": "0",
						"type": "t_bool"
					},
					{
						"astId": 16,
						"contract": "solidityLecture/lecture_02.sol:lec02",
						"label": "hi",
						"offset": 0,
						"slot": "1",
						"type": "t_string_storage"
					},
					{
						"astId": 19,
						"contract": "solidityLecture/lecture_02.sol:lec02",
						"label": "bt",
						"offset": 0,
						"slot": "2",
						"type": "t_bytes4"
					},
					{
						"astId": 22,
						"contract": "solidityLecture/lecture_02.sol:lec02",
						"label": "bt1",
						"offset": 0,
						"slot": "3",
						"type": "t_bytes_storage"
					},
					{
						"astId": 25,
						"contract": "solidityLecture/lecture_02.sol:lec02",
						"label": "myaddr",
						"offset": 0,
						"slot": "4",
						"type": "t_address"
					}
				],
				"types": {
					"t_address": {
						"encoding": "inplace",
						"label": "address",
						"numberOfBytes": "20"
					},
					"t_bool": {
						"encoding": "inplace",
						"label": "bool",
						"numberOfBytes": "1"
					},
					"t_bytes4": {
						"encoding": "inplace",
						"label": "bytes4",
						"numberOfBytes": "4"
					},
					"t_bytes_storage": {
						"encoding": "bytes",
						"label": "bytes",
						"numberOfBytes": "32"
					},
					"t_string_storage": {
						"encoding": "bytes",
						"label": "string",
						"numberOfBytes": "32"
					}
				}
			},
			"userdoc": {
				"kind": "user",
				"methods": {},
				"version": 1
			}
		}
	}
}