{
	"solidityLecture/lecture_08.sol": {
		"B": {
			"abi": [
				{
					"inputs": [
						{
							"internalType": "uint256",
							"name": "_value",
							"type": "uint256"
						}
					],
					"name": "change_a",
					"outputs": [
						{
							"internalType": "uint256",
							"name": "",
							"type": "uint256"
						}
					],
					"stateMutability": "nonpayable",
					"type": "function"
				},
				{
					"inputs": [],
					"name": "get_a",
					"outputs": [
						{
							"internalType": "uint256",
							"name": "",
							"type": "uint256"
						}
					],
					"stateMutability": "view",
					"type": "function"
				}
			],
			"devdoc": {
				"kind": "dev",
				"methods": {},
				"version": 1
			},
			"evm": {
				"assembly": "    /* \"solidityLecture/lecture_08.sol\":180:375  contract B{... */\n  mstore(0x40, 0x80)\n    /* \"solidityLecture/lecture_08.sol\":209:216  new A() */\n  mload(0x40)\n  tag_1\n  swap1\n  tag_2\n  jump\t// in\ntag_1:\n  mload(0x40)\n  dup1\n  swap2\n  sub\n  swap1\n  0x00\n  create\n  dup1\n  iszero\n  dup1\n  iszero\n  tag_3\n  jumpi\n  returndatasize\n  0x00\n  dup1\n  returndatacopy\n  revert(0x00, returndatasize)\ntag_3:\n  pop\n    /* \"solidityLecture/lecture_08.sol\":196:216  A instance = new A() */\n  0x00\n  dup1\n  0x0100\n  exp\n  dup2\n  sload\n  dup2\n  0xffffffffffffffffffffffffffffffffffffffff\n  mul\n  not\n  and\n  swap1\n  dup4\n  0xffffffffffffffffffffffffffffffffffffffff\n  and\n  mul\n  or\n  swap1\n  sstore\n  pop\n    /* \"solidityLecture/lecture_08.sol\":180:375  contract B{... */\n  callvalue\n  dup1\n  iszero\n  tag_4\n  jumpi\n  0x00\n  dup1\n  revert\ntag_4:\n  pop\n  jump(tag_5)\ntag_2:\n  dataSize(sub_1)\n  dup1\n  dataOffset(sub_1)\n  dup4\n  codecopy\n  add\n  swap1\n  jump\t// out\ntag_5:\n  dataSize(sub_0)\n  dup1\n  dataOffset(sub_0)\n  0x00\n  codecopy\n  0x00\n  return\nstop\n\nsub_0: assembly {\n        /* \"solidityLecture/lecture_08.sol\":180:375  contract B{... */\n      mstore(0x40, 0x80)\n      callvalue\n      dup1\n      iszero\n      tag_1\n      jumpi\n      0x00\n      dup1\n      revert\n    tag_1:\n      pop\n      jumpi(tag_2, lt(calldatasize, 0x04))\n      shr(0xe0, calldataload(0x00))\n      dup1\n      0x48159181\n      eq\n      tag_3\n      jumpi\n      dup1\n      0xc9002578\n      eq\n      tag_4\n      jumpi\n    tag_2:\n      0x00\n      dup1\n      revert\n        /* \"solidityLecture/lecture_08.sol\":223:306  function get_a() public view returns (uint256) {... */\n    tag_3:\n      tag_5\n      tag_6\n      jump\t// in\n    tag_5:\n      mload(0x40)\n      tag_7\n      swap2\n      swap1\n      tag_8\n      jump\t// in\n    tag_7:\n      mload(0x40)\n      dup1\n      swap2\n      sub\n      swap1\n      return\n        /* \"solidityLecture/lecture_08.sol\":311:373  function change_a(uint256 _value) public  returns (uint256) {} */\n    tag_4:\n      tag_9\n      0x04\n      dup1\n      calldatasize\n      sub\n      dup2\n      add\n      swap1\n      tag_10\n      swap2\n      swap1\n      tag_11\n      jump\t// in\n    tag_10:\n      tag_12\n      jump\t// in\n    tag_9:\n      mload(0x40)\n      tag_13\n      swap2\n      swap1\n      tag_8\n      jump\t// in\n    tag_13:\n      mload(0x40)\n      dup1\n      swap2\n      sub\n      swap1\n      return\n        /* \"solidityLecture/lecture_08.sol\":223:306  function get_a() public view returns (uint256) {... */\n    tag_6:\n        /* \"solidityLecture/lecture_08.sol\":261:268  uint256 */\n      0x00\n        /* \"solidityLecture/lecture_08.sol\":287:295  instance */\n      dup1\n      0x00\n      swap1\n      sload\n      swap1\n      0x0100\n      exp\n      swap1\n      div\n      0xffffffffffffffffffffffffffffffffffffffff\n      and\n        /* \"solidityLecture/lecture_08.sol\":287:297  instance.a */\n      0xffffffffffffffffffffffffffffffffffffffff\n      and\n      0x0dbe671f\n        /* \"solidityLecture/lecture_08.sol\":287:299  instance.a() */\n      mload(0x40)\n      dup2\n      0xffffffff\n      and\n      0xe0\n      shl\n      dup2\n      mstore\n      0x04\n      add\n      0x20\n      mload(0x40)\n      dup1\n      dup4\n      sub\n      dup2\n      dup7\n      dup1\n      extcodesize\n      iszero\n      dup1\n      iszero\n      tag_15\n      jumpi\n      0x00\n      dup1\n      revert\n    tag_15:\n      pop\n      gas\n      staticcall\n      iszero\n      dup1\n      iszero\n      tag_17\n      jumpi\n      returndatasize\n      0x00\n      dup1\n      returndatacopy\n      revert(0x00, returndatasize)\n    tag_17:\n      pop\n      pop\n      pop\n      pop\n      mload(0x40)\n      returndatasize\n      not(0x1f)\n      0x1f\n      dup3\n      add\n      and\n      dup3\n      add\n      dup1\n      0x40\n      mstore\n      pop\n      dup2\n      add\n      swap1\n      tag_18\n      swap2\n      swap1\n      tag_19\n      jump\t// in\n    tag_18:\n        /* \"solidityLecture/lecture_08.sol\":280:299  return instance.a() */\n      swap1\n      pop\n        /* \"solidityLecture/lecture_08.sol\":223:306  function get_a() public view returns (uint256) {... */\n      swap1\n      jump\t// out\n        /* \"solidityLecture/lecture_08.sol\":311:373  function change_a(uint256 _value) public  returns (uint256) {} */\n    tag_12:\n        /* \"solidityLecture/lecture_08.sol\":362:369  uint256 */\n      0x00\n        /* \"solidityLecture/lecture_08.sol\":311:373  function change_a(uint256 _value) public  returns (uint256) {} */\n      swap2\n      swap1\n      pop\n      jump\t// out\n        /* \"#utility.yul\":7:146   */\n    tag_22:\n        /* \"#utility.yul\":53:58   */\n      0x00\n        /* \"#utility.yul\":91:97   */\n      dup2\n        /* \"#utility.yul\":78:98   */\n      calldataload\n        /* \"#utility.yul\":69:98   */\n      swap1\n      pop\n        /* \"#utility.yul\":107:140   */\n      tag_24\n        /* \"#utility.yul\":134:139   */\n      dup2\n        /* \"#utility.yul\":107:140   */\n      tag_25\n      jump\t// in\n    tag_24:\n        /* \"#utility.yul\":7:146   */\n      swap3\n      swap2\n      pop\n      pop\n      jump\t// out\n        /* \"#utility.yul\":152:295   */\n    tag_26:\n        /* \"#utility.yul\":209:214   */\n      0x00\n        /* \"#utility.yul\":240:246   */\n      dup2\n        /* \"#utility.yul\":234:247   */\n      mload\n        /* \"#utility.yul\":225:247   */\n      swap1\n      pop\n        /* \"#utility.yul\":256:289   */\n      tag_28\n        /* \"#utility.yul\":283:288   */\n      dup2\n        /* \"#utility.yul\":256:289   */\n      tag_25\n      jump\t// in\n    tag_28:\n        /* \"#utility.yul\":152:295   */\n      swap3\n      swap2\n      pop\n      pop\n      jump\t// out\n        /* \"#utility.yul\":301:630   */\n    tag_11:\n        /* \"#utility.yul\":360:366   */\n      0x00\n        /* \"#utility.yul\":409:411   */\n      0x20\n        /* \"#utility.yul\":397:406   */\n      dup3\n        /* \"#utility.yul\":388:395   */\n      dup5\n        /* \"#utility.yul\":384:407   */\n      sub\n        /* \"#utility.yul\":380:412   */\n      slt\n        /* \"#utility.yul\":377:496   */\n      iszero\n      tag_30\n      jumpi\n        /* \"#utility.yul\":415:494   */\n      tag_31\n      tag_32\n      jump\t// in\n    tag_31:\n        /* \"#utility.yul\":377:496   */\n    tag_30:\n        /* \"#utility.yul\":535:536   */\n      0x00\n        /* \"#utility.yul\":560:613   */\n      tag_33\n        /* \"#utility.yul\":605:612   */\n      dup5\n        /* \"#utility.yul\":596:602   */\n      dup3\n        /* \"#utility.yul\":585:594   */\n      dup6\n        /* \"#utility.yul\":581:603   */\n      add\n        /* \"#utility.yul\":560:613   */\n      tag_22\n      jump\t// in\n    tag_33:\n        /* \"#utility.yul\":550:613   */\n      swap2\n      pop\n        /* \"#utility.yul\":506:623   */\n      pop\n        /* \"#utility.yul\":301:630   */\n      swap3\n      swap2\n      pop\n      pop\n      jump\t// out\n        /* \"#utility.yul\":636:987   */\n    tag_19:\n        /* \"#utility.yul\":706:712   */\n      0x00\n        /* \"#utility.yul\":755:757   */\n      0x20\n        /* \"#utility.yul\":743:752   */\n      dup3\n        /* \"#utility.yul\":734:741   */\n      dup5\n        /* \"#utility.yul\":730:753   */\n      sub\n        /* \"#utility.yul\":726:758   */\n      slt\n        /* \"#utility.yul\":723:842   */\n      iszero\n      tag_35\n      jumpi\n        /* \"#utility.yul\":761:840   */\n      tag_36\n      tag_32\n      jump\t// in\n    tag_36:\n        /* \"#utility.yul\":723:842   */\n    tag_35:\n        /* \"#utility.yul\":881:882   */\n      0x00\n        /* \"#utility.yul\":906:970   */\n      tag_37\n        /* \"#utility.yul\":962:969   */\n      dup5\n        /* \"#utility.yul\":953:959   */\n      dup3\n        /* \"#utility.yul\":942:951   */\n      dup6\n        /* \"#utility.yul\":938:960   */\n      add\n        /* \"#utility.yul\":906:970   */\n      tag_26\n      jump\t// in\n    tag_37:\n        /* \"#utility.yul\":896:970   */\n      swap2\n      pop\n        /* \"#utility.yul\":852:980   */\n      pop\n        /* \"#utility.yul\":636:987   */\n      swap3\n      swap2\n      pop\n      pop\n      jump\t// out\n        /* \"#utility.yul\":993:1111   */\n    tag_38:\n        /* \"#utility.yul\":1080:1104   */\n      tag_40\n        /* \"#utility.yul\":1098:1103   */\n      dup2\n        /* \"#utility.yul\":1080:1104   */\n      tag_41\n      jump\t// in\n    tag_40:\n        /* \"#utility.yul\":1075:1078   */\n      dup3\n        /* \"#utility.yul\":1068:1105   */\n      mstore\n        /* \"#utility.yul\":993:1111   */\n      pop\n      pop\n      jump\t// out\n        /* \"#utility.yul\":1117:1339   */\n    tag_8:\n        /* \"#utility.yul\":1210:1214   */\n      0x00\n        /* \"#utility.yul\":1248:1250   */\n      0x20\n        /* \"#utility.yul\":1237:1246   */\n      dup3\n        /* \"#utility.yul\":1233:1251   */\n      add\n        /* \"#utility.yul\":1225:1251   */\n      swap1\n      pop\n        /* \"#utility.yul\":1261:1332   */\n      tag_43\n        /* \"#utility.yul\":1329:1330   */\n      0x00\n        /* \"#utility.yul\":1318:1327   */\n      dup4\n        /* \"#utility.yul\":1314:1331   */\n      add\n        /* \"#utility.yul\":1305:1311   */\n      dup5\n        /* \"#utility.yul\":1261:1332   */\n      tag_38\n      jump\t// in\n    tag_43:\n        /* \"#utility.yul\":1117:1339   */\n      swap3\n      swap2\n      pop\n      pop\n      jump\t// out\n        /* \"#utility.yul\":1426:1503   */\n    tag_41:\n        /* \"#utility.yul\":1463:1470   */\n      0x00\n        /* \"#utility.yul\":1492:1497   */\n      dup2\n        /* \"#utility.yul\":1481:1497   */\n      swap1\n      pop\n        /* \"#utility.yul\":1426:1503   */\n      swap2\n      swap1\n      pop\n      jump\t// out\n        /* \"#utility.yul\":1632:1749   */\n    tag_32:\n        /* \"#utility.yul\":1741:1742   */\n      0x00\n        /* \"#utility.yul\":1738:1739   */\n      dup1\n        /* \"#utility.yul\":1731:1743   */\n      revert\n        /* \"#utility.yul\":1755:1877   */\n    tag_25:\n        /* \"#utility.yul\":1828:1852   */\n      tag_51\n        /* \"#utility.yul\":1846:1851   */\n      dup2\n        /* \"#utility.yul\":1828:1852   */\n      tag_41\n      jump\t// in\n    tag_51:\n        /* \"#utility.yul\":1821:1826   */\n      dup2\n        /* \"#utility.yul\":1818:1853   */\n      eq\n        /* \"#utility.yul\":1808:1871   */\n      tag_52\n      jumpi\n        /* \"#utility.yul\":1867:1868   */\n      0x00\n        /* \"#utility.yul\":1864:1865   */\n      dup1\n        /* \"#utility.yul\":1857:1869   */\n      revert\n        /* \"#utility.yul\":1808:1871   */\n    tag_52:\n        /* \"#utility.yul\":1755:1877   */\n      pop\n      jump\t// out\n\n    auxdata: 0xa2646970667358221220e308223750c54c1ac4b05837ab0541a4fc988d66b18ecfaeebedc313240f532e64736f6c63430008070033\n}\n\nsub_1: assembly {\n        /* \"solidityLecture/lecture_08.sol\":67:178  contract A{... */\n      mstore(0x40, 0x80)\n        /* \"solidityLecture/lecture_08.sol\":102:103  5 */\n      0x05\n        /* \"solidityLecture/lecture_08.sol\":83:103  uint256 public a = 5 */\n      0x00\n      sstore\n        /* \"solidityLecture/lecture_08.sol\":67:178  contract A{... */\n      callvalue\n      dup1\n      iszero\n      tag_1\n      jumpi\n      0x00\n      dup1\n      revert\n    tag_1:\n      pop\n      dataSize(sub_0)\n      dup1\n      dataOffset(sub_0)\n      0x00\n      codecopy\n      0x00\n      return\n    stop\n\n    sub_0: assembly {\n            /* \"solidityLecture/lecture_08.sol\":67:178  contract A{... */\n          mstore(0x40, 0x80)\n          callvalue\n          dup1\n          iszero\n          tag_1\n          jumpi\n          0x00\n          dup1\n          revert\n        tag_1:\n          pop\n          jumpi(tag_2, lt(calldatasize, 0x04))\n          shr(0xe0, calldataload(0x00))\n          dup1\n          0x0dbe671f\n          eq\n          tag_3\n          jumpi\n          dup1\n          0x75322e47\n          eq\n          tag_4\n          jumpi\n        tag_2:\n          0x00\n          dup1\n          revert\n            /* \"solidityLecture/lecture_08.sol\":83:103  uint256 public a = 5 */\n        tag_3:\n          tag_5\n          tag_6\n          jump\t// in\n        tag_5:\n          mload(0x40)\n          tag_7\n          swap2\n          swap1\n          tag_8\n          jump\t// in\n        tag_7:\n          mload(0x40)\n          dup1\n          swap2\n          sub\n          swap1\n          return\n            /* \"solidityLecture/lecture_08.sol\":110:176  function change(uint256 _value) public {... */\n        tag_4:\n          tag_9\n          0x04\n          dup1\n          calldatasize\n          sub\n          dup2\n          add\n          swap1\n          tag_10\n          swap2\n          swap1\n          tag_11\n          jump\t// in\n        tag_10:\n          tag_12\n          jump\t// in\n        tag_9:\n          stop\n            /* \"solidityLecture/lecture_08.sol\":83:103  uint256 public a = 5 */\n        tag_6:\n          sload(0x00)\n          dup2\n          jump\t// out\n            /* \"solidityLecture/lecture_08.sol\":110:176  function change(uint256 _value) public {... */\n        tag_12:\n            /* \"solidityLecture/lecture_08.sol\":163:169  _value */\n          dup1\n            /* \"solidityLecture/lecture_08.sol\":159:160  a */\n          0x00\n            /* \"solidityLecture/lecture_08.sol\":159:169  a = _value */\n          dup2\n          swap1\n          sstore\n          pop\n            /* \"solidityLecture/lecture_08.sol\":110:176  function change(uint256 _value) public {... */\n          pop\n          jump\t// out\n            /* \"#utility.yul\":7:146   */\n        tag_15:\n            /* \"#utility.yul\":53:58   */\n          0x00\n            /* \"#utility.yul\":91:97   */\n          dup2\n            /* \"#utility.yul\":78:98   */\n          calldataload\n            /* \"#utility.yul\":69:98   */\n          swap1\n          pop\n            /* \"#utility.yul\":107:140   */\n          tag_17\n            /* \"#utility.yul\":134:139   */\n          dup2\n            /* \"#utility.yul\":107:140   */\n          tag_18\n          jump\t// in\n        tag_17:\n            /* \"#utility.yul\":7:146   */\n          swap3\n          swap2\n          pop\n          pop\n          jump\t// out\n            /* \"#utility.yul\":152:481   */\n        tag_11:\n            /* \"#utility.yul\":211:217   */\n          0x00\n            /* \"#utility.yul\":260:262   */\n          0x20\n            /* \"#utility.yul\":248:257   */\n          dup3\n            /* \"#utility.yul\":239:246   */\n          dup5\n            /* \"#utility.yul\":235:258   */\n          sub\n            /* \"#utility.yul\":231:263   */\n          slt\n            /* \"#utility.yul\":228:347   */\n          iszero\n          tag_20\n          jumpi\n            /* \"#utility.yul\":266:345   */\n          tag_21\n          tag_22\n          jump\t// in\n        tag_21:\n            /* \"#utility.yul\":228:347   */\n        tag_20:\n            /* \"#utility.yul\":386:387   */\n          0x00\n            /* \"#utility.yul\":411:464   */\n          tag_23\n            /* \"#utility.yul\":456:463   */\n          dup5\n            /* \"#utility.yul\":447:453   */\n          dup3\n            /* \"#utility.yul\":436:445   */\n          dup6\n            /* \"#utility.yul\":432:454   */\n          add\n            /* \"#utility.yul\":411:464   */\n          tag_15\n          jump\t// in\n        tag_23:\n            /* \"#utility.yul\":401:464   */\n          swap2\n          pop\n            /* \"#utility.yul\":357:474   */\n          pop\n            /* \"#utility.yul\":152:481   */\n          swap3\n          swap2\n          pop\n          pop\n          jump\t// out\n            /* \"#utility.yul\":487:605   */\n        tag_24:\n            /* \"#utility.yul\":574:598   */\n          tag_26\n            /* \"#utility.yul\":592:597   */\n          dup2\n            /* \"#utility.yul\":574:598   */\n          tag_27\n          jump\t// in\n        tag_26:\n            /* \"#utility.yul\":569:572   */\n          dup3\n            /* \"#utility.yul\":562:599   */\n          mstore\n            /* \"#utility.yul\":487:605   */\n          pop\n          pop\n          jump\t// out\n            /* \"#utility.yul\":611:833   */\n        tag_8:\n            /* \"#utility.yul\":704:708   */\n          0x00\n            /* \"#utility.yul\":742:744   */\n          0x20\n            /* \"#utility.yul\":731:740   */\n          dup3\n            /* \"#utility.yul\":727:745   */\n          add\n            /* \"#utility.yul\":719:745   */\n          swap1\n          pop\n            /* \"#utility.yul\":755:826   */\n          tag_29\n            /* \"#utility.yul\":823:824   */\n          0x00\n            /* \"#utility.yul\":812:821   */\n          dup4\n            /* \"#utility.yul\":808:825   */\n          add\n            /* \"#utility.yul\":799:805   */\n          dup5\n            /* \"#utility.yul\":755:826   */\n          tag_24\n          jump\t// in\n        tag_29:\n            /* \"#utility.yul\":611:833   */\n          swap3\n          swap2\n          pop\n          pop\n          jump\t// out\n            /* \"#utility.yul\":920:997   */\n        tag_27:\n            /* \"#utility.yul\":957:964   */\n          0x00\n            /* \"#utility.yul\":986:991   */\n          dup2\n            /* \"#utility.yul\":975:991   */\n          swap1\n          pop\n            /* \"#utility.yul\":920:997   */\n          swap2\n          swap1\n          pop\n          jump\t// out\n            /* \"#utility.yul\":1126:1243   */\n        tag_22:\n            /* \"#utility.yul\":1235:1236   */\n          0x00\n            /* \"#utility.yul\":1232:1233   */\n          dup1\n            /* \"#utility.yul\":1225:1237   */\n          revert\n            /* \"#utility.yul\":1249:1371   */\n        tag_18:\n            /* \"#utility.yul\":1322:1346   */\n          tag_37\n            /* \"#utility.yul\":1340:1345   */\n          dup2\n            /* \"#utility.yul\":1322:1346   */\n          tag_27\n          jump\t// in\n        tag_37:\n            /* \"#utility.yul\":1315:1320   */\n          dup2\n            /* \"#utility.yul\":1312:1347   */\n          eq\n            /* \"#utility.yul\":1302:1365   */\n          tag_38\n          jumpi\n            /* \"#utility.yul\":1361:1362   */\n          0x00\n            /* \"#utility.yul\":1358:1359   */\n          dup1\n            /* \"#utility.yul\":1351:1363   */\n          revert\n            /* \"#utility.yul\":1302:1365   */\n        tag_38:\n            /* \"#utility.yul\":1249:1371   */\n          pop\n          jump\t// out\n\n        auxdata: 0xa2646970667358221220776f132f51784669f32e605fcb48ab4d4f6a324ed2ee414091d452732535a54064736f6c63430008070033\n    }\n}\n",
				"bytecode": {
					"linkReferences": {},
					"object": "60806040526040516100109061007e565b604051809103906000f08015801561002c573d6000803e3d6000fd5b506000806101000a81548173ffffffffffffffffffffffffffffffffffffffff021916908373ffffffffffffffffffffffffffffffffffffffff16021790555034801561007857600080fd5b5061008b565b610158806102da83390190565b6102408061009a6000396000f3fe608060405234801561001057600080fd5b50600436106100365760003560e01c8063481591811461003b578063c900257814610059575b600080fd5b610043610089565b60405161005091906101c9565b60405180910390f35b610073600480360381019061006e9190610160565b61012f565b60405161008091906101c9565b60405180910390f35b60008060009054906101000a900473ffffffffffffffffffffffffffffffffffffffff1673ffffffffffffffffffffffffffffffffffffffff16630dbe671f6040518163ffffffff1660e01b815260040160206040518083038186803b1580156100f257600080fd5b505afa158015610106573d6000803e3d6000fd5b505050506040513d601f19601f8201168201806040525081019061012a919061018d565b905090565b6000919050565b600081359050610145816101f3565b92915050565b60008151905061015a816101f3565b92915050565b600060208284031215610176576101756101ee565b5b600061018484828501610136565b91505092915050565b6000602082840312156101a3576101a26101ee565b5b60006101b18482850161014b565b91505092915050565b6101c3816101e4565b82525050565b60006020820190506101de60008301846101ba565b92915050565b6000819050919050565b600080fd5b6101fc816101e4565b811461020757600080fd5b5056fea2646970667358221220e308223750c54c1ac4b05837ab0541a4fc988d66b18ecfaeebedc313240f532e64736f6c634300080700336080604052600560005534801561001557600080fd5b50610133806100256000396000f3fe6080604052348015600f57600080fd5b506004361060325760003560e01c80630dbe671f14603757806375322e47146051575b600080fd5b603d6069565b6040516048919060c1565b60405180910390f35b6067600480360381019060639190608c565b606f565b005b60005481565b8060008190555050565b60008135905060868160e9565b92915050565b600060208284031215609f57609e60e4565b5b600060ab848285016079565b91505092915050565b60bb8160da565b82525050565b600060208201905060d4600083018460b4565b92915050565b6000819050919050565b600080fd5b60f08160da565b811460fa57600080fd5b5056fea2646970667358221220776f132f51784669f32e605fcb48ab4d4f6a324ed2ee414091d452732535a54064736f6c63430008070033",
					"opcodes": "PUSH1 0x80 PUSH1 0x40 MSTORE PUSH1 0x40 MLOAD PUSH2 0x10 SWAP1 PUSH2 0x7E JUMP JUMPDEST PUSH1 0x40 MLOAD DUP1 SWAP2 SUB SWAP1 PUSH1 0x0 CREATE DUP1 ISZERO DUP1 ISZERO PUSH2 0x2C JUMPI RETURNDATASIZE PUSH1 0x0 DUP1 RETURNDATACOPY RETURNDATASIZE PUSH1 0x0 REVERT JUMPDEST POP PUSH1 0x0 DUP1 PUSH2 0x100 EXP DUP2 SLOAD DUP2 PUSH20 0xFFFFFFFFFFFFFFFFFFFFFFFFFFFFFFFFFFFFFFFF MUL NOT AND SWAP1 DUP4 PUSH20 0xFFFFFFFFFFFFFFFFFFFFFFFFFFFFFFFFFFFFFFFF AND MUL OR SWAP1 SSTORE POP CALLVALUE DUP1 ISZERO PUSH2 0x78 JUMPI PUSH1 0x0 DUP1 REVERT JUMPDEST POP PUSH2 0x8B JUMP JUMPDEST PUSH2 0x158 DUP1 PUSH2 0x2DA DUP4 CODECOPY ADD SWAP1 JUMP JUMPDEST PUSH2 0x240 DUP1 PUSH2 0x9A PUSH1 0x0 CODECOPY PUSH1 0x0 RETURN INVALID PUSH1 0x80 PUSH1 0x40 MSTORE CALLVALUE DUP1 ISZERO PUSH2 0x10 JUMPI PUSH1 0x0 DUP1 REVERT JUMPDEST POP PUSH1 0x4 CALLDATASIZE LT PUSH2 0x36 JUMPI PUSH1 0x0 CALLDATALOAD PUSH1 0xE0 SHR DUP1 PUSH4 0x48159181 EQ PUSH2 0x3B JUMPI DUP1 PUSH4 0xC9002578 EQ PUSH2 0x59 JUMPI JUMPDEST PUSH1 0x0 DUP1 REVERT JUMPDEST PUSH2 0x43 PUSH2 0x89 JUMP JUMPDEST PUSH1 0x40 MLOAD PUSH2 0x50 SWAP2 SWAP1 PUSH2 0x1C9 JUMP JUMPDEST PUSH1 0x40 MLOAD DUP1 SWAP2 SUB SWAP1 RETURN JUMPDEST PUSH2 0x73 PUSH1 0x4 DUP1 CALLDATASIZE SUB DUP2 ADD SWAP1 PUSH2 0x6E SWAP2 SWAP1 PUSH2 0x160 JUMP JUMPDEST PUSH2 0x12F JUMP JUMPDEST PUSH1 0x40 MLOAD PUSH2 0x80 SWAP2 SWAP1 PUSH2 0x1C9 JUMP JUMPDEST PUSH1 0x40 MLOAD DUP1 SWAP2 SUB SWAP1 RETURN JUMPDEST PUSH1 0x0 DUP1 PUSH1 0x0 SWAP1 SLOAD SWAP1 PUSH2 0x100 EXP SWAP1 DIV PUSH20 0xFFFFFFFFFFFFFFFFFFFFFFFFFFFFFFFFFFFFFFFF AND PUSH20 0xFFFFFFFFFFFFFFFFFFFFFFFFFFFFFFFFFFFFFFFF AND PUSH4 0xDBE671F PUSH1 0x40 MLOAD DUP2 PUSH4 0xFFFFFFFF AND PUSH1 0xE0 SHL DUP2 MSTORE PUSH1 0x4 ADD PUSH1 0x20 PUSH1 0x40 MLOAD DUP1 DUP4 SUB DUP2 DUP7 DUP1 EXTCODESIZE ISZERO DUP1 ISZERO PUSH2 0xF2 JUMPI PUSH1 0x0 DUP1 REVERT JUMPDEST POP GAS STATICCALL ISZERO DUP1 ISZERO PUSH2 0x106 JUMPI RETURNDATASIZE PUSH1 0x0 DUP1 RETURNDATACOPY RETURNDATASIZE PUSH1 0x0 REVERT JUMPDEST POP POP POP POP PUSH1 0x40 MLOAD RETURNDATASIZE PUSH1 0x1F NOT PUSH1 0x1F DUP3 ADD AND DUP3 ADD DUP1 PUSH1 0x40 MSTORE POP DUP2 ADD SWAP1 PUSH2 0x12A SWAP2 SWAP1 PUSH2 0x18D JUMP JUMPDEST SWAP1 POP SWAP1 JUMP JUMPDEST PUSH1 0x0 SWAP2 SWAP1 POP JUMP JUMPDEST PUSH1 0x0 DUP2 CALLDATALOAD SWAP1 POP PUSH2 0x145 DUP2 PUSH2 0x1F3 JUMP JUMPDEST SWAP3 SWAP2 POP POP JUMP JUMPDEST PUSH1 0x0 DUP2 MLOAD SWAP1 POP PUSH2 0x15A DUP2 PUSH2 0x1F3 JUMP JUMPDEST SWAP3 SWAP2 POP POP JUMP JUMPDEST PUSH1 0x0 PUSH1 0x20 DUP3 DUP5 SUB SLT ISZERO PUSH2 0x176 JUMPI PUSH2 0x175 PUSH2 0x1EE JUMP JUMPDEST JUMPDEST PUSH1 0x0 PUSH2 0x184 DUP5 DUP3 DUP6 ADD PUSH2 0x136 JUMP JUMPDEST SWAP2 POP POP SWAP3 SWAP2 POP POP JUMP JUMPDEST PUSH1 0x0 PUSH1 0x20 DUP3 DUP5 SUB SLT ISZERO PUSH2 0x1A3 JUMPI PUSH2 0x1A2 PUSH2 0x1EE JUMP JUMPDEST JUMPDEST PUSH1 0x0 PUSH2 0x1B1 DUP5 DUP3 DUP6 ADD PUSH2 0x14B JUMP JUMPDEST SWAP2 POP POP SWAP3 SWAP2 POP POP JUMP JUMPDEST PUSH2 0x1C3 DUP2 PUSH2 0x1E4 JUMP JUMPDEST DUP3 MSTORE POP POP JUMP JUMPDEST PUSH1 0x0 PUSH1 0x20 DUP3 ADD SWAP1 POP PUSH2 0x1DE PUSH1 0x0 DUP4 ADD DUP5 PUSH2 0x1BA JUMP JUMPDEST SWAP3 SWAP2 POP POP JUMP JUMPDEST PUSH1 0x0 DUP2 SWAP1 POP SWAP2 SWAP1 POP JUMP JUMPDEST PUSH1 0x0 DUP1 REVERT JUMPDEST PUSH2 0x1FC DUP2 PUSH2 0x1E4 JUMP JUMPDEST DUP2 EQ PUSH2 0x207 JUMPI PUSH1 0x0 DUP1 REVERT JUMPDEST POP JUMP INVALID LOG2 PUSH5 0x6970667358 0x22 SLT KECCAK256 0xE3 ADDMOD 0x22 CALLDATACOPY POP 0xC5 0x4C BYTE 0xC4 0xB0 PC CALLDATACOPY 0xAB SDIV COINBASE LOG4 0xFC SWAP9 DUP14 PUSH7 0xB18ECFAEEBEDC3 SGT 0x24 0xF MSTORE8 0x2E PUSH5 0x736F6C6343 STOP ADDMOD SMOD STOP CALLER PUSH1 0x80 PUSH1 0x40 MSTORE PUSH1 0x5 PUSH1 0x0 SSTORE CALLVALUE DUP1 ISZERO PUSH2 0x15 JUMPI PUSH1 0x0 DUP1 REVERT JUMPDEST POP PUSH2 0x133 DUP1 PUSH2 0x25 PUSH1 0x0 CODECOPY PUSH1 0x0 RETURN INVALID PUSH1 0x80 PUSH1 0x40 MSTORE CALLVALUE DUP1 ISZERO PUSH1 0xF JUMPI PUSH1 0x0 DUP1 REVERT JUMPDEST POP PUSH1 0x4 CALLDATASIZE LT PUSH1 0x32 JUMPI PUSH1 0x0 CALLDATALOAD PUSH1 0xE0 SHR DUP1 PUSH4 0xDBE671F EQ PUSH1 0x37 JUMPI DUP1 PUSH4 0x75322E47 EQ PUSH1 0x51 JUMPI JUMPDEST PUSH1 0x0 DUP1 REVERT JUMPDEST PUSH1 0x3D PUSH1 0x69 JUMP JUMPDEST PUSH1 0x40 MLOAD PUSH1 0x48 SWAP2 SWAP1 PUSH1 0xC1 JUMP JUMPDEST PUSH1 0x40 MLOAD DUP1 SWAP2 SUB SWAP1 RETURN JUMPDEST PUSH1 0x67 PUSH1 0x4 DUP1 CALLDATASIZE SUB DUP2 ADD SWAP1 PUSH1 0x63 SWAP2 SWAP1 PUSH1 0x8C JUMP JUMPDEST PUSH1 0x6F JUMP JUMPDEST STOP JUMPDEST PUSH1 0x0 SLOAD DUP2 JUMP JUMPDEST DUP1 PUSH1 0x0 DUP2 SWAP1 SSTORE POP POP JUMP JUMPDEST PUSH1 0x0 DUP2 CALLDATALOAD SWAP1 POP PUSH1 0x86 DUP2 PUSH1 0xE9 JUMP JUMPDEST SWAP3 SWAP2 POP POP JUMP JUMPDEST PUSH1 0x0 PUSH1 0x20 DUP3 DUP5 SUB SLT ISZERO PUSH1 0x9F JUMPI PUSH1 0x9E PUSH1 0xE4 JUMP JUMPDEST JUMPDEST PUSH1 0x0 PUSH1 0xAB DUP5 DUP3 DUP6 ADD PUSH1 0x79 JUMP JUMPDEST SWAP2 POP POP SWAP3 SWAP2 POP POP JUMP JUMPDEST PUSH1 0xBB DUP2 PUSH1 0xDA JUMP JUMPDEST DUP3 MSTORE POP POP JUMP JUMPDEST PUSH1 0x0 PUSH1 0x20 DUP3 ADD SWAP1 POP PUSH1 0xD4 PUSH1 0x0 DUP4 ADD DUP5 PUSH1 0xB4 JUMP JUMPDEST SWAP3 SWAP2 POP POP JUMP JUMPDEST PUSH1 0x0 DUP2 SWAP1 POP SWAP2 SWAP1 POP JUMP JUMPDEST PUSH1 0x0 DUP1 REVERT JUMPDEST PUSH1 0xF0 DUP2 PUSH1 0xDA JUMP JUMPDEST DUP2 EQ PUSH1 0xFA JUMPI PUSH1 0x0 DUP1 REVERT JUMPDEST POP JUMP INVALID LOG2 PUSH5 0x6970667358 0x22 SLT KECCAK256 PUSH24 0x6F132F51784669F32E605FCB48AB4D4F6A324ED2EE414091 0xD4 MSTORE PUSH20 0x2535A54064736F6C634300080700330000000000 "
				},
				"gasEstimates": {
					"creation": {
						"codeDepositCost": "115200",
						"executionCost": "infinite",
						"totalCost": "infinite"
					},
					"external": {
						"change_a(uint256)": "infinite",
						"get_a()": "infinite"
					}
				},
				"methodIdentifiers": {
					"change_a(uint256)": "c9002578",
					"get_a()": "48159181"
				}
			},
			"storageLayout": {
				"storage": [
					{
						"astId": 22,
						"contract": "solidityLecture/lecture_08.sol:B",
						"label": "instance",
						"offset": 0,
						"slot": "0",
						"type": "t_contract(A)15"
					}
				],
				"types": {
					"t_contract(A)15": {
						"encoding": "inplace",
						"label": "contract A",
						"numberOfBytes": "20"
					}
				}
			},
			"userdoc": {
				"kind": "user",
				"methods": {},
				"version": 1
			}
		}
	}
}