{
	"solidityLecture/lecture_02.sol": {
		"lec02": {
			"abi": [
				{
					"inputs": [],
					"name": "b",
					"outputs": [
						{
							"internalType": "bool",
							"name": "",
							"type": "bool"
						}
					],
					"stateMutability": "view",
					"type": "function"
				},
				{
					"inputs": [],
					"name": "c",
					"outputs": [
						{
							"internalType": "bool",
							"name": "",
							"type": "bool"
						}
					],
					"stateMutability": "view",
					"type": "function"
				},
				{
					"inputs": [],
					"name": "d",
					"outputs": [
						{
							"internalType": "bool",
							"name": "",
							"type": "bool"
						}
					],
					"stateMutability": "view",
					"type": "function"
				},
				{
					"inputs": [],
					"name": "hi",
					"outputs": [
						{
							"internalType": "string",
							"name": "",
							"type": "string"
						}
					],
					"stateMutability": "view",
					"type": "function"
				}
			],
			"devdoc": {
				"kind": "dev",
				"methods": {},
				"version": 1
			},
			"evm": {
				"assembly": "    /* \"solidityLecture/lecture_02.sol\":67:304  contract lec02{... */\n  mstore(0x40, 0x80)\n    /* \"solidityLecture/lecture_02.sol\":173:178  false */\n  0x00\n    /* \"solidityLecture/lecture_02.sol\":157:178  bool public b = false */\n  dup1\n  exp(0x0100, 0x00)\n  dup2\n  sload\n  dup2\n  0xff\n  mul\n  not\n  and\n  swap1\n  dup4\n  iszero\n  iszero\n  mul\n  or\n  swap1\n  sstore\n  pop\n    /* \"solidityLecture/lecture_02.sol\":201:206  false */\n  0x00\n    /* \"solidityLecture/lecture_02.sol\":200:206  !false */\n  iszero\n    /* \"solidityLecture/lecture_02.sol\":184:206  bool public c = !false */\n  0x00\n  exp(0x0100, 0x01)\n  dup2\n  sload\n  dup2\n  0xff\n  mul\n  not\n  and\n  swap1\n  dup4\n  iszero\n  iszero\n  mul\n  or\n  swap1\n  sstore\n  pop\n    /* \"solidityLecture/lecture_02.sol\":255:260  false */\n  0x00\n    /* \"solidityLecture/lecture_02.sol\":246:260  false == false */\n  iszero\n  iszero\n    /* \"solidityLecture/lecture_02.sol\":246:251  false */\n  0x00\n    /* \"solidityLecture/lecture_02.sol\":246:260  false == false */\n  iszero\n  iszero\n  eq\n    /* \"solidityLecture/lecture_02.sol\":230:260  bool public d = false == false */\n  0x00\n  exp(0x0100, 0x02)\n  dup2\n  sload\n  dup2\n  0xff\n  mul\n  not\n  and\n  swap1\n  dup4\n  iszero\n  iszero\n  mul\n  or\n  swap1\n  sstore\n  pop\n    /* \"solidityLecture/lecture_02.sol\":266:301  string public hi = \"Hello solidity\" */\n  mload(0x40)\n  dup1\n  0x40\n  add\n  0x40\n  mstore\n  dup1\n  0x0e\n  dup2\n  mstore\n  0x20\n  add\n  0x48656c6c6f20736f6c6964697479000000000000000000000000000000000000\n  dup2\n  mstore\n  pop\n  0x01\n  swap1\n  dup1\n  mload\n  swap1\n  0x20\n  add\n  swap1\n  tag_1\n  swap3\n  swap2\n  swap1\n  tag_2\n  jump\t// in\ntag_1:\n  pop\n    /* \"solidityLecture/lecture_02.sol\":67:304  contract lec02{... */\n  callvalue\n  dup1\n  iszero\n  tag_3\n  jumpi\n  0x00\n  dup1\n  revert\ntag_3:\n  pop\n  jump(tag_4)\ntag_2:\n  dup3\n  dup1\n  sload\n  tag_5\n  swap1\n  tag_6\n  jump\t// in\ntag_5:\n  swap1\n  0x00\n  mstore\n  keccak256(0x00, 0x20)\n  swap1\n  0x1f\n  add\n  0x20\n  swap1\n  div\n  dup2\n  add\n  swap3\n  dup3\n  tag_8\n  jumpi\n  0x00\n  dup6\n  sstore\n  jump(tag_7)\ntag_8:\n  dup3\n  0x1f\n  lt\n  tag_9\n  jumpi\n  dup1\n  mload\n  not(0xff)\n  and\n  dup4\n  dup1\n  add\n  or\n  dup6\n  sstore\n  jump(tag_7)\ntag_9:\n  dup3\n  dup1\n  add\n  0x01\n  add\n  dup6\n  sstore\n  dup3\n  iszero\n  tag_7\n  jumpi\n  swap2\n  dup3\n  add\ntag_10:\n  dup3\n  dup2\n  gt\n  iszero\n  tag_11\n  jumpi\n  dup3\n  mload\n  dup3\n  sstore\n  swap2\n  0x20\n  add\n  swap2\n  swap1\n  0x01\n  add\n  swap1\n  jump(tag_10)\ntag_11:\ntag_7:\n  pop\n  swap1\n  pop\n  tag_12\n  swap2\n  swap1\n  tag_13\n  jump\t// in\ntag_12:\n  pop\n  swap1\n  jump\t// out\ntag_13:\ntag_14:\n  dup1\n  dup3\n  gt\n  iszero\n  tag_15\n  jumpi\n  0x00\n  dup2\n  0x00\n  swap1\n  sstore\n  pop\n  0x01\n  add\n  jump(tag_14)\ntag_15:\n  pop\n  swap1\n  jump\t// out\n    /* \"#utility.yul\":7:327   */\ntag_6:\n    /* \"#utility.yul\":51:57   */\n  0x00\n    /* \"#utility.yul\":88:89   */\n  0x02\n    /* \"#utility.yul\":82:86   */\n  dup3\n    /* \"#utility.yul\":78:90   */\n  div\n    /* \"#utility.yul\":68:90   */\n  swap1\n  pop\n    /* \"#utility.yul\":135:136   */\n  0x01\n    /* \"#utility.yul\":129:133   */\n  dup3\n    /* \"#utility.yul\":125:137   */\n  and\n    /* \"#utility.yul\":156:174   */\n  dup1\n    /* \"#utility.yul\":146:227   */\n  tag_18\n  jumpi\n    /* \"#utility.yul\":212:216   */\n  0x7f\n    /* \"#utility.yul\":204:210   */\n  dup3\n    /* \"#utility.yul\":200:217   */\n  and\n    /* \"#utility.yul\":190:217   */\n  swap2\n  pop\n    /* \"#utility.yul\":146:227   */\ntag_18:\n    /* \"#utility.yul\":274:276   */\n  0x20\n    /* \"#utility.yul\":266:272   */\n  dup3\n    /* \"#utility.yul\":263:277   */\n  lt\n    /* \"#utility.yul\":243:261   */\n  dup2\n    /* \"#utility.yul\":240:278   */\n  eq\n    /* \"#utility.yul\":237:321   */\n  iszero\n  tag_19\n  jumpi\n    /* \"#utility.yul\":293:311   */\n  tag_20\n  tag_21\n  jump\t// in\ntag_20:\n    /* \"#utility.yul\":237:321   */\ntag_19:\n    /* \"#utility.yul\":58:327   */\n  pop\n    /* \"#utility.yul\":7:327   */\n  swap2\n  swap1\n  pop\n  jump\t// out\n    /* \"#utility.yul\":333:513   */\ntag_21:\n    /* \"#utility.yul\":381:458   */\n  0x4e487b7100000000000000000000000000000000000000000000000000000000\n    /* \"#utility.yul\":378:379   */\n  0x00\n    /* \"#utility.yul\":371:459   */\n  mstore\n    /* \"#utility.yul\":478:482   */\n  0x22\n    /* \"#utility.yul\":475:476   */\n  0x04\n    /* \"#utility.yul\":468:483   */\n  mstore\n    /* \"#utility.yul\":502:506   */\n  0x24\n    /* \"#utility.yul\":499:500   */\n  0x00\n    /* \"#utility.yul\":492:507   */\n  revert\n    /* \"solidityLecture/lecture_02.sol\":67:304  contract lec02{... */\ntag_4:\n  dataSize(sub_0)\n  dup1\n  dataOffset(sub_0)\n  0x00\n  codecopy\n  0x00\n  return\nstop\n\nsub_0: assembly {\n        /* \"solidityLecture/lecture_02.sol\":67:304  contract lec02{... */\n      mstore(0x40, 0x80)\n      callvalue\n      dup1\n      iszero\n      tag_1\n      jumpi\n      0x00\n      dup1\n      revert\n    tag_1:\n      pop\n      jumpi(tag_2, lt(calldatasize, 0x04))\n      shr(0xe0, calldataload(0x00))\n      dup1\n      0x4df7e3d0\n      eq\n      tag_3\n      jumpi\n      dup1\n      0x8a054ac2\n      eq\n      tag_4\n      jumpi\n      dup1\n      0xa99dca3f\n      eq\n      tag_5\n      jumpi\n      dup1\n      0xc3da42b8\n      eq\n      tag_6\n      jumpi\n    tag_2:\n      0x00\n      dup1\n      revert\n        /* \"solidityLecture/lecture_02.sol\":157:178  bool public b = false */\n    tag_3:\n      tag_7\n      tag_8\n      jump\t// in\n    tag_7:\n      mload(0x40)\n      tag_9\n      swap2\n      swap1\n      tag_10\n      jump\t// in\n    tag_9:\n      mload(0x40)\n      dup1\n      swap2\n      sub\n      swap1\n      return\n        /* \"solidityLecture/lecture_02.sol\":230:260  bool public d = false == false */\n    tag_4:\n      tag_11\n      tag_12\n      jump\t// in\n    tag_11:\n      mload(0x40)\n      tag_13\n      swap2\n      swap1\n      tag_10\n      jump\t// in\n    tag_13:\n      mload(0x40)\n      dup1\n      swap2\n      sub\n      swap1\n      return\n        /* \"solidityLecture/lecture_02.sol\":266:301  string public hi = \"Hello solidity\" */\n    tag_5:\n      tag_14\n      tag_15\n      jump\t// in\n    tag_14:\n      mload(0x40)\n      tag_16\n      swap2\n      swap1\n      tag_17\n      jump\t// in\n    tag_16:\n      mload(0x40)\n      dup1\n      swap2\n      sub\n      swap1\n      return\n        /* \"solidityLecture/lecture_02.sol\":184:206  bool public c = !false */\n    tag_6:\n      tag_18\n      tag_19\n      jump\t// in\n    tag_18:\n      mload(0x40)\n      tag_20\n      swap2\n      swap1\n      tag_10\n      jump\t// in\n    tag_20:\n      mload(0x40)\n      dup1\n      swap2\n      sub\n      swap1\n      return\n        /* \"solidityLecture/lecture_02.sol\":157:178  bool public b = false */\n    tag_8:\n      0x00\n      dup1\n      sload\n      swap1\n      0x0100\n      exp\n      swap1\n      div\n      0xff\n      and\n      dup2\n      jump\t// out\n        /* \"solidityLecture/lecture_02.sol\":230:260  bool public d = false == false */\n    tag_12:\n      0x00\n      0x02\n      swap1\n      sload\n      swap1\n      0x0100\n      exp\n      swap1\n      div\n      0xff\n      and\n      dup2\n      jump\t// out\n        /* \"solidityLecture/lecture_02.sol\":266:301  string public hi = \"Hello solidity\" */\n    tag_15:\n      0x01\n      dup1\n      sload\n      tag_21\n      swap1\n      tag_22\n      jump\t// in\n    tag_21:\n      dup1\n      0x1f\n      add\n      0x20\n      dup1\n      swap2\n      div\n      mul\n      0x20\n      add\n      mload(0x40)\n      swap1\n      dup2\n      add\n      0x40\n      mstore\n      dup1\n      swap3\n      swap2\n      swap1\n      dup2\n      dup2\n      mstore\n      0x20\n      add\n      dup3\n      dup1\n      sload\n      tag_23\n      swap1\n      tag_22\n      jump\t// in\n    tag_23:\n      dup1\n      iszero\n      tag_24\n      jumpi\n      dup1\n      0x1f\n      lt\n      tag_25\n      jumpi\n      0x0100\n      dup1\n      dup4\n      sload\n      div\n      mul\n      dup4\n      mstore\n      swap2\n      0x20\n      add\n      swap2\n      jump(tag_24)\n    tag_25:\n      dup3\n      add\n      swap2\n      swap1\n      0x00\n      mstore\n      keccak256(0x00, 0x20)\n      swap1\n    tag_26:\n      dup2\n      sload\n      dup2\n      mstore\n      swap1\n      0x01\n      add\n      swap1\n      0x20\n      add\n      dup1\n      dup4\n      gt\n      tag_26\n      jumpi\n      dup3\n      swap1\n      sub\n      0x1f\n      and\n      dup3\n      add\n      swap2\n    tag_24:\n      pop\n      pop\n      pop\n      pop\n      pop\n      dup2\n      jump\t// out\n        /* \"solidityLecture/lecture_02.sol\":184:206  bool public c = !false */\n    tag_19:\n      0x00\n      0x01\n      swap1\n      sload\n      swap1\n      0x0100\n      exp\n      swap1\n      div\n      0xff\n      and\n      dup2\n      jump\t// out\n        /* \"#utility.yul\":7:116   */\n    tag_28:\n        /* \"#utility.yul\":88:109   */\n      tag_30\n        /* \"#utility.yul\":103:108   */\n      dup2\n        /* \"#utility.yul\":88:109   */\n      tag_31\n      jump\t// in\n    tag_30:\n        /* \"#utility.yul\":83:86   */\n      dup3\n        /* \"#utility.yul\":76:110   */\n      mstore\n        /* \"#utility.yul\":7:116   */\n      pop\n      pop\n      jump\t// out\n        /* \"#utility.yul\":122:486   */\n    tag_32:\n        /* \"#utility.yul\":210:213   */\n      0x00\n        /* \"#utility.yul\":238:277   */\n      tag_34\n        /* \"#utility.yul\":271:276   */\n      dup3\n        /* \"#utility.yul\":238:277   */\n      tag_35\n      jump\t// in\n    tag_34:\n        /* \"#utility.yul\":293:364   */\n      tag_36\n        /* \"#utility.yul\":357:363   */\n      dup2\n        /* \"#utility.yul\":352:355   */\n      dup6\n        /* \"#utility.yul\":293:364   */\n      tag_37\n      jump\t// in\n    tag_36:\n        /* \"#utility.yul\":286:364   */\n      swap4\n      pop\n        /* \"#utility.yul\":373:425   */\n      tag_38\n        /* \"#utility.yul\":418:424   */\n      dup2\n        /* \"#utility.yul\":413:416   */\n      dup6\n        /* \"#utility.yul\":406:410   */\n      0x20\n        /* \"#utility.yul\":399:404   */\n      dup7\n        /* \"#utility.yul\":395:411   */\n      add\n        /* \"#utility.yul\":373:425   */\n      tag_39\n      jump\t// in\n    tag_38:\n        /* \"#utility.yul\":450:479   */\n      tag_40\n        /* \"#utility.yul\":472:478   */\n      dup2\n        /* \"#utility.yul\":450:479   */\n      tag_41\n      jump\t// in\n    tag_40:\n        /* \"#utility.yul\":445:448   */\n      dup5\n        /* \"#utility.yul\":441:480   */\n      add\n        /* \"#utility.yul\":434:480   */\n      swap2\n      pop\n        /* \"#utility.yul\":214:486   */\n      pop\n        /* \"#utility.yul\":122:486   */\n      swap3\n      swap2\n      pop\n      pop\n      jump\t// out\n        /* \"#utility.yul\":492:702   */\n    tag_10:\n        /* \"#utility.yul\":579:583   */\n      0x00\n        /* \"#utility.yul\":617:619   */\n      0x20\n        /* \"#utility.yul\":606:615   */\n      dup3\n        /* \"#utility.yul\":602:620   */\n      add\n        /* \"#utility.yul\":594:620   */\n      swap1\n      pop\n        /* \"#utility.yul\":630:695   */\n      tag_43\n        /* \"#utility.yul\":692:693   */\n      0x00\n        /* \"#utility.yul\":681:690   */\n      dup4\n        /* \"#utility.yul\":677:694   */\n      add\n        /* \"#utility.yul\":668:674   */\n      dup5\n        /* \"#utility.yul\":630:695   */\n      tag_28\n      jump\t// in\n    tag_43:\n        /* \"#utility.yul\":492:702   */\n      swap3\n      swap2\n      pop\n      pop\n      jump\t// out\n        /* \"#utility.yul\":708:1021   */\n    tag_17:\n        /* \"#utility.yul\":821:825   */\n      0x00\n        /* \"#utility.yul\":859:861   */\n      0x20\n        /* \"#utility.yul\":848:857   */\n      dup3\n        /* \"#utility.yul\":844:862   */\n      add\n        /* \"#utility.yul\":836:862   */\n      swap1\n      pop\n        /* \"#utility.yul\":908:917   */\n      dup2\n        /* \"#utility.yul\":902:906   */\n      dup2\n        /* \"#utility.yul\":898:918   */\n      sub\n        /* \"#utility.yul\":894:895   */\n      0x00\n        /* \"#utility.yul\":883:892   */\n      dup4\n        /* \"#utility.yul\":879:896   */\n      add\n        /* \"#utility.yul\":872:919   */\n      mstore\n        /* \"#utility.yul\":936:1014   */\n      tag_45\n        /* \"#utility.yul\":1009:1013   */\n      dup2\n        /* \"#utility.yul\":1000:1006   */\n      dup5\n        /* \"#utility.yul\":936:1014   */\n      tag_32\n      jump\t// in\n    tag_45:\n        /* \"#utility.yul\":928:1014   */\n      swap1\n      pop\n        /* \"#utility.yul\":708:1021   */\n      swap3\n      swap2\n      pop\n      pop\n      jump\t// out\n        /* \"#utility.yul\":1027:1126   */\n    tag_35:\n        /* \"#utility.yul\":1079:1085   */\n      0x00\n        /* \"#utility.yul\":1113:1118   */\n      dup2\n        /* \"#utility.yul\":1107:1119   */\n      mload\n        /* \"#utility.yul\":1097:1119   */\n      swap1\n      pop\n        /* \"#utility.yul\":1027:1126   */\n      swap2\n      swap1\n      pop\n      jump\t// out\n        /* \"#utility.yul\":1132:1301   */\n    tag_37:\n        /* \"#utility.yul\":1216:1227   */\n      0x00\n        /* \"#utility.yul\":1250:1256   */\n      dup3\n        /* \"#utility.yul\":1245:1248   */\n      dup3\n        /* \"#utility.yul\":1238:1257   */\n      mstore\n        /* \"#utility.yul\":1290:1294   */\n      0x20\n        /* \"#utility.yul\":1285:1288   */\n      dup3\n        /* \"#utility.yul\":1281:1295   */\n      add\n        /* \"#utility.yul\":1266:1295   */\n      swap1\n      pop\n        /* \"#utility.yul\":1132:1301   */\n      swap3\n      swap2\n      pop\n      pop\n      jump\t// out\n        /* \"#utility.yul\":1307:1397   */\n    tag_31:\n        /* \"#utility.yul\":1341:1348   */\n      0x00\n        /* \"#utility.yul\":1384:1389   */\n      dup2\n        /* \"#utility.yul\":1377:1390   */\n      iszero\n        /* \"#utility.yul\":1370:1391   */\n      iszero\n        /* \"#utility.yul\":1359:1391   */\n      swap1\n      pop\n        /* \"#utility.yul\":1307:1397   */\n      swap2\n      swap1\n      pop\n      jump\t// out\n        /* \"#utility.yul\":1403:1710   */\n    tag_39:\n        /* \"#utility.yul\":1471:1472   */\n      0x00\n        /* \"#utility.yul\":1481:1594   */\n    tag_50:\n        /* \"#utility.yul\":1495:1501   */\n      dup4\n        /* \"#utility.yul\":1492:1493   */\n      dup2\n        /* \"#utility.yul\":1489:1502   */\n      lt\n        /* \"#utility.yul\":1481:1594   */\n      iszero\n      tag_52\n      jumpi\n        /* \"#utility.yul\":1580:1581   */\n      dup1\n        /* \"#utility.yul\":1575:1578   */\n      dup3\n        /* \"#utility.yul\":1571:1582   */\n      add\n        /* \"#utility.yul\":1565:1583   */\n      mload\n        /* \"#utility.yul\":1561:1562   */\n      dup2\n        /* \"#utility.yul\":1556:1559   */\n      dup5\n        /* \"#utility.yul\":1552:1563   */\n      add\n        /* \"#utility.yul\":1545:1584   */\n      mstore\n        /* \"#utility.yul\":1517:1519   */\n      0x20\n        /* \"#utility.yul\":1514:1515   */\n      dup2\n        /* \"#utility.yul\":1510:1520   */\n      add\n        /* \"#utility.yul\":1505:1520   */\n      swap1\n      pop\n        /* \"#utility.yul\":1481:1594   */\n      jump(tag_50)\n    tag_52:\n        /* \"#utility.yul\":1612:1618   */\n      dup4\n        /* \"#utility.yul\":1609:1610   */\n      dup2\n        /* \"#utility.yul\":1606:1619   */\n      gt\n        /* \"#utility.yul\":1603:1704   */\n      iszero\n      tag_53\n      jumpi\n        /* \"#utility.yul\":1692:1693   */\n      0x00\n        /* \"#utility.yul\":1683:1689   */\n      dup5\n        /* \"#utility.yul\":1678:1681   */\n      dup5\n        /* \"#utility.yul\":1674:1690   */\n      add\n        /* \"#utility.yul\":1667:1694   */\n      mstore\n        /* \"#utility.yul\":1603:1704   */\n    tag_53:\n        /* \"#utility.yul\":1452:1710   */\n      pop\n        /* \"#utility.yul\":1403:1710   */\n      pop\n      pop\n      pop\n      jump\t// out\n        /* \"#utility.yul\":1716:2036   */\n    tag_22:\n        /* \"#utility.yul\":1760:1766   */\n      0x00\n        /* \"#utility.yul\":1797:1798   */\n      0x02\n        /* \"#utility.yul\":1791:1795   */\n      dup3\n        /* \"#utility.yul\":1787:1799   */\n      div\n        /* \"#utility.yul\":1777:1799   */\n      swap1\n      pop\n        /* \"#utility.yul\":1844:1845   */\n      0x01\n        /* \"#utility.yul\":1838:1842   */\n      dup3\n        /* \"#utility.yul\":1834:1846   */\n      and\n        /* \"#utility.yul\":1865:1883   */\n      dup1\n        /* \"#utility.yul\":1855:1936   */\n      tag_55\n      jumpi\n        /* \"#utility.yul\":1921:1925   */\n      0x7f\n        /* \"#utility.yul\":1913:1919   */\n      dup3\n        /* \"#utility.yul\":1909:1926   */\n      and\n        /* \"#utility.yul\":1899:1926   */\n      swap2\n      pop\n        /* \"#utility.yul\":1855:1936   */\n    tag_55:\n        /* \"#utility.yul\":1983:1985   */\n      0x20\n        /* \"#utility.yul\":1975:1981   */\n      dup3\n        /* \"#utility.yul\":1972:1986   */\n      lt\n        /* \"#utility.yul\":1952:1970   */\n      dup2\n        /* \"#utility.yul\":1949:1987   */\n      eq\n        /* \"#utility.yul\":1946:2030   */\n      iszero\n      tag_56\n      jumpi\n        /* \"#utility.yul\":2002:2020   */\n      tag_57\n      tag_58\n      jump\t// in\n    tag_57:\n        /* \"#utility.yul\":1946:2030   */\n    tag_56:\n        /* \"#utility.yul\":1767:2036   */\n      pop\n        /* \"#utility.yul\":1716:2036   */\n      swap2\n      swap1\n      pop\n      jump\t// out\n        /* \"#utility.yul\":2042:2222   */\n    tag_58:\n        /* \"#utility.yul\":2090:2167   */\n      0x4e487b7100000000000000000000000000000000000000000000000000000000\n        /* \"#utility.yul\":2087:2088   */\n      0x00\n        /* \"#utility.yul\":2080:2168   */\n      mstore\n        /* \"#utility.yul\":2187:2191   */\n      0x22\n        /* \"#utility.yul\":2184:2185   */\n      0x04\n        /* \"#utility.yul\":2177:2192   */\n      mstore\n        /* \"#utility.yul\":2211:2215   */\n      0x24\n        /* \"#utility.yul\":2208:2209   */\n      0x00\n        /* \"#utility.yul\":2201:2216   */\n      revert\n        /* \"#utility.yul\":2228:2330   */\n    tag_41:\n        /* \"#utility.yul\":2269:2275   */\n      0x00\n        /* \"#utility.yul\":2320:2322   */\n      0x1f\n        /* \"#utility.yul\":2316:2323   */\n      not\n        /* \"#utility.yul\":2311:2313   */\n      0x1f\n        /* \"#utility.yul\":2304:2309   */\n      dup4\n        /* \"#utility.yul\":2300:2314   */\n      add\n        /* \"#utility.yul\":2296:2324   */\n      and\n        /* \"#utility.yul\":2286:2324   */\n      swap1\n      pop\n        /* \"#utility.yul\":2228:2330   */\n      swap2\n      swap1\n      pop\n      jump\t// out\n\n    auxdata: 0xa2646970667358221220e430b8580aaa34e2e9d58bb09fa6929a0cb00f3c10d5e554097aec8ecafc0b8064736f6c63430008070033\n}\n",
				"bytecode": {
					"linkReferences": {},
					"object": "608060405260008060006101000a81548160ff021916908315150217905550600015600060016101000a81548160ff021916908315150217905550600015156000151514600060026101000a81548160ff0219169083151502179055506040518060400160405280600e81526020017f48656c6c6f20736f6c6964697479000000000000000000000000000000000000815250600190805190602001906100a79291906100ba565b503480156100b457600080fd5b506101be565b8280546100c69061015d565b90600052602060002090601f0160209004810192826100e8576000855561012f565b82601f1061010157805160ff191683800117855561012f565b8280016001018555821561012f579182015b8281111561012e578251825591602001919060010190610113565b5b50905061013c9190610140565b5090565b5b80821115610159576000816000905550600101610141565b5090565b6000600282049050600182168061017557607f821691505b602082108114156101895761018861018f565b5b50919050565b7f4e487b7100000000000000000000000000000000000000000000000000000000600052602260045260246000fd5b610316806101cd6000396000f3fe608060405234801561001057600080fd5b506004361061004c5760003560e01c80634df7e3d0146100515780638a054ac21461006f578063a99dca3f1461008d578063c3da42b8146100ab575b600080fd5b6100596100c9565b60405161006691906101d6565b60405180910390f35b6100776100da565b60405161008491906101d6565b60405180910390f35b6100956100ed565b6040516100a291906101f1565b60405180910390f35b6100b361017b565b6040516100c091906101d6565b60405180910390f35b60008054906101000a900460ff1681565b600060029054906101000a900460ff1681565b600180546100fa9061026e565b80601f01602080910402602001604051908101604052809291908181526020018280546101269061026e565b80156101735780601f1061014857610100808354040283529160200191610173565b820191906000526020600020905b81548152906001019060200180831161015657829003601f168201915b505050505081565b600060019054906101000a900460ff1681565b6101978161022f565b82525050565b60006101a882610213565b6101b2818561021e565b93506101c281856020860161023b565b6101cb816102cf565b840191505092915050565b60006020820190506101eb600083018461018e565b92915050565b6000602082019050818103600083015261020b818461019d565b905092915050565b600081519050919050565b600082825260208201905092915050565b60008115159050919050565b60005b8381101561025957808201518184015260208101905061023e565b83811115610268576000848401525b50505050565b6000600282049050600182168061028657607f821691505b6020821081141561029a576102996102a0565b5b50919050565b7f4e487b7100000000000000000000000000000000000000000000000000000000600052602260045260246000fd5b6000601f19601f830116905091905056fea2646970667358221220e430b8580aaa34e2e9d58bb09fa6929a0cb00f3c10d5e554097aec8ecafc0b8064736f6c63430008070033",
					"opcodes": "PUSH1 0x80 PUSH1 0x40 MSTORE PUSH1 0x0 DUP1 PUSH1 0x0 PUSH2 0x100 EXP DUP2 SLOAD DUP2 PUSH1 0xFF MUL NOT AND SWAP1 DUP4 ISZERO ISZERO MUL OR SWAP1 SSTORE POP PUSH1 0x0 ISZERO PUSH1 0x0 PUSH1 0x1 PUSH2 0x100 EXP DUP2 SLOAD DUP2 PUSH1 0xFF MUL NOT AND SWAP1 DUP4 ISZERO ISZERO MUL OR SWAP1 SSTORE POP PUSH1 0x0 ISZERO ISZERO PUSH1 0x0 ISZERO ISZERO EQ PUSH1 0x0 PUSH1 0x2 PUSH2 0x100 EXP DUP2 SLOAD DUP2 PUSH1 0xFF MUL NOT AND SWAP1 DUP4 ISZERO ISZERO MUL OR SWAP1 SSTORE POP PUSH1 0x40 MLOAD DUP1 PUSH1 0x40 ADD PUSH1 0x40 MSTORE DUP1 PUSH1 0xE DUP2 MSTORE PUSH1 0x20 ADD PUSH32 0x48656C6C6F20736F6C6964697479000000000000000000000000000000000000 DUP2 MSTORE POP PUSH1 0x1 SWAP1 DUP1 MLOAD SWAP1 PUSH1 0x20 ADD SWAP1 PUSH2 0xA7 SWAP3 SWAP2 SWAP1 PUSH2 0xBA JUMP JUMPDEST POP CALLVALUE DUP1 ISZERO PUSH2 0xB4 JUMPI PUSH1 0x0 DUP1 REVERT JUMPDEST POP PUSH2 0x1BE JUMP JUMPDEST DUP3 DUP1 SLOAD PUSH2 0xC6 SWAP1 PUSH2 0x15D JUMP JUMPDEST SWAP1 PUSH1 0x0 MSTORE PUSH1 0x20 PUSH1 0x0 KECCAK256 SWAP1 PUSH1 0x1F ADD PUSH1 0x20 SWAP1 DIV DUP2 ADD SWAP3 DUP3 PUSH2 0xE8 JUMPI PUSH1 0x0 DUP6 SSTORE PUSH2 0x12F JUMP JUMPDEST DUP3 PUSH1 0x1F LT PUSH2 0x101 JUMPI DUP1 MLOAD PUSH1 0xFF NOT AND DUP4 DUP1 ADD OR DUP6 SSTORE PUSH2 0x12F JUMP JUMPDEST DUP3 DUP1 ADD PUSH1 0x1 ADD DUP6 SSTORE DUP3 ISZERO PUSH2 0x12F JUMPI SWAP2 DUP3 ADD JUMPDEST DUP3 DUP2 GT ISZERO PUSH2 0x12E JUMPI DUP3 MLOAD DUP3 SSTORE SWAP2 PUSH1 0x20 ADD SWAP2 SWAP1 PUSH1 0x1 ADD SWAP1 PUSH2 0x113 JUMP JUMPDEST JUMPDEST POP SWAP1 POP PUSH2 0x13C SWAP2 SWAP1 PUSH2 0x140 JUMP JUMPDEST POP SWAP1 JUMP JUMPDEST JUMPDEST DUP1 DUP3 GT ISZERO PUSH2 0x159 JUMPI PUSH1 0x0 DUP2 PUSH1 0x0 SWAP1 SSTORE POP PUSH1 0x1 ADD PUSH2 0x141 JUMP JUMPDEST POP SWAP1 JUMP JUMPDEST PUSH1 0x0 PUSH1 0x2 DUP3 DIV SWAP1 POP PUSH1 0x1 DUP3 AND DUP1 PUSH2 0x175 JUMPI PUSH1 0x7F DUP3 AND SWAP2 POP JUMPDEST PUSH1 0x20 DUP3 LT DUP2 EQ ISZERO PUSH2 0x189 JUMPI PUSH2 0x188 PUSH2 0x18F JUMP JUMPDEST JUMPDEST POP SWAP2 SWAP1 POP JUMP JUMPDEST PUSH32 0x4E487B7100000000000000000000000000000000000000000000000000000000 PUSH1 0x0 MSTORE PUSH1 0x22 PUSH1 0x4 MSTORE PUSH1 0x24 PUSH1 0x0 REVERT JUMPDEST PUSH2 0x316 DUP1 PUSH2 0x1CD PUSH1 0x0 CODECOPY PUSH1 0x0 RETURN INVALID PUSH1 0x80 PUSH1 0x40 MSTORE CALLVALUE DUP1 ISZERO PUSH2 0x10 JUMPI PUSH1 0x0 DUP1 REVERT JUMPDEST POP PUSH1 0x4 CALLDATASIZE LT PUSH2 0x4C JUMPI PUSH1 0x0 CALLDATALOAD PUSH1 0xE0 SHR DUP1 PUSH4 0x4DF7E3D0 EQ PUSH2 0x51 JUMPI DUP1 PUSH4 0x8A054AC2 EQ PUSH2 0x6F JUMPI DUP1 PUSH4 0xA99DCA3F EQ PUSH2 0x8D JUMPI DUP1 PUSH4 0xC3DA42B8 EQ PUSH2 0xAB JUMPI JUMPDEST PUSH1 0x0 DUP1 REVERT JUMPDEST PUSH2 0x59 PUSH2 0xC9 JUMP JUMPDEST PUSH1 0x40 MLOAD PUSH2 0x66 SWAP2 SWAP1 PUSH2 0x1D6 JUMP JUMPDEST PUSH1 0x40 MLOAD DUP1 SWAP2 SUB SWAP1 RETURN JUMPDEST PUSH2 0x77 PUSH2 0xDA JUMP JUMPDEST PUSH1 0x40 MLOAD PUSH2 0x84 SWAP2 SWAP1 PUSH2 0x1D6 JUMP JUMPDEST PUSH1 0x40 MLOAD DUP1 SWAP2 SUB SWAP1 RETURN JUMPDEST PUSH2 0x95 PUSH2 0xED JUMP JUMPDEST PUSH1 0x40 MLOAD PUSH2 0xA2 SWAP2 SWAP1 PUSH2 0x1F1 JUMP JUMPDEST PUSH1 0x40 MLOAD DUP1 SWAP2 SUB SWAP1 RETURN JUMPDEST PUSH2 0xB3 PUSH2 0x17B JUMP JUMPDEST PUSH1 0x40 MLOAD PUSH2 0xC0 SWAP2 SWAP1 PUSH2 0x1D6 JUMP JUMPDEST PUSH1 0x40 MLOAD DUP1 SWAP2 SUB SWAP1 RETURN JUMPDEST PUSH1 0x0 DUP1 SLOAD SWAP1 PUSH2 0x100 EXP SWAP1 DIV PUSH1 0xFF AND DUP2 JUMP JUMPDEST PUSH1 0x0 PUSH1 0x2 SWAP1 SLOAD SWAP1 PUSH2 0x100 EXP SWAP1 DIV PUSH1 0xFF AND DUP2 JUMP JUMPDEST PUSH1 0x1 DUP1 SLOAD PUSH2 0xFA SWAP1 PUSH2 0x26E JUMP JUMPDEST DUP1 PUSH1 0x1F ADD PUSH1 0x20 DUP1 SWAP2 DIV MUL PUSH1 0x20 ADD PUSH1 0x40 MLOAD SWAP1 DUP2 ADD PUSH1 0x40 MSTORE DUP1 SWAP3 SWAP2 SWAP1 DUP2 DUP2 MSTORE PUSH1 0x20 ADD DUP3 DUP1 SLOAD PUSH2 0x126 SWAP1 PUSH2 0x26E JUMP JUMPDEST DUP1 ISZERO PUSH2 0x173 JUMPI DUP1 PUSH1 0x1F LT PUSH2 0x148 JUMPI PUSH2 0x100 DUP1 DUP4 SLOAD DIV MUL DUP4 MSTORE SWAP2 PUSH1 0x20 ADD SWAP2 PUSH2 0x173 JUMP JUMPDEST DUP3 ADD SWAP2 SWAP1 PUSH1 0x0 MSTORE PUSH1 0x20 PUSH1 0x0 KECCAK256 SWAP1 JUMPDEST DUP2 SLOAD DUP2 MSTORE SWAP1 PUSH1 0x1 ADD SWAP1 PUSH1 0x20 ADD DUP1 DUP4 GT PUSH2 0x156 JUMPI DUP3 SWAP1 SUB PUSH1 0x1F AND DUP3 ADD SWAP2 JUMPDEST POP POP POP POP POP DUP2 JUMP JUMPDEST PUSH1 0x0 PUSH1 0x1 SWAP1 SLOAD SWAP1 PUSH2 0x100 EXP SWAP1 DIV PUSH1 0xFF AND DUP2 JUMP JUMPDEST PUSH2 0x197 DUP2 PUSH2 0x22F JUMP JUMPDEST DUP3 MSTORE POP POP JUMP JUMPDEST PUSH1 0x0 PUSH2 0x1A8 DUP3 PUSH2 0x213 JUMP JUMPDEST PUSH2 0x1B2 DUP2 DUP6 PUSH2 0x21E JUMP JUMPDEST SWAP4 POP PUSH2 0x1C2 DUP2 DUP6 PUSH1 0x20 DUP7 ADD PUSH2 0x23B JUMP JUMPDEST PUSH2 0x1CB DUP2 PUSH2 0x2CF JUMP JUMPDEST DUP5 ADD SWAP2 POP POP SWAP3 SWAP2 POP POP JUMP JUMPDEST PUSH1 0x0 PUSH1 0x20 DUP3 ADD SWAP1 POP PUSH2 0x1EB PUSH1 0x0 DUP4 ADD DUP5 PUSH2 0x18E JUMP JUMPDEST SWAP3 SWAP2 POP POP JUMP JUMPDEST PUSH1 0x0 PUSH1 0x20 DUP3 ADD SWAP1 POP DUP2 DUP2 SUB PUSH1 0x0 DUP4 ADD MSTORE PUSH2 0x20B DUP2 DUP5 PUSH2 0x19D JUMP JUMPDEST SWAP1 POP SWAP3 SWAP2 POP POP JUMP JUMPDEST PUSH1 0x0 DUP2 MLOAD SWAP1 POP SWAP2 SWAP1 POP JUMP JUMPDEST PUSH1 0x0 DUP3 DUP3 MSTORE PUSH1 0x20 DUP3 ADD SWAP1 POP SWAP3 SWAP2 POP POP JUMP JUMPDEST PUSH1 0x0 DUP2 ISZERO ISZERO SWAP1 POP SWAP2 SWAP1 POP JUMP JUMPDEST PUSH1 0x0 JUMPDEST DUP4 DUP2 LT ISZERO PUSH2 0x259 JUMPI DUP1 DUP3 ADD MLOAD DUP2 DUP5 ADD MSTORE PUSH1 0x20 DUP2 ADD SWAP1 POP PUSH2 0x23E JUMP JUMPDEST DUP4 DUP2 GT ISZERO PUSH2 0x268 JUMPI PUSH1 0x0 DUP5 DUP5 ADD MSTORE JUMPDEST POP POP POP POP JUMP JUMPDEST PUSH1 0x0 PUSH1 0x2 DUP3 DIV SWAP1 POP PUSH1 0x1 DUP3 AND DUP1 PUSH2 0x286 JUMPI PUSH1 0x7F DUP3 AND SWAP2 POP JUMPDEST PUSH1 0x20 DUP3 LT DUP2 EQ ISZERO PUSH2 0x29A JUMPI PUSH2 0x299 PUSH2 0x2A0 JUMP JUMPDEST JUMPDEST POP SWAP2 SWAP1 POP JUMP JUMPDEST PUSH32 0x4E487B7100000000000000000000000000000000000000000000000000000000 PUSH1 0x0 MSTORE PUSH1 0x22 PUSH1 0x4 MSTORE PUSH1 0x24 PUSH1 0x0 REVERT JUMPDEST PUSH1 0x0 PUSH1 0x1F NOT PUSH1 0x1F DUP4 ADD AND SWAP1 POP SWAP2 SWAP1 POP JUMP INVALID LOG2 PUSH5 0x6970667358 0x22 SLT KECCAK256 0xE4 ADDRESS 0xB8 PC EXP 0xAA CALLVALUE 0xE2 0xE9 0xD5 DUP12 0xB0 SWAP16 0xA6 SWAP3 SWAP11 0xC 0xB0 0xF EXTCODECOPY LT 0xD5 0xE5 SLOAD MULMOD PUSH27 0xEC8ECAFC0B8064736F6C6343000807003300000000000000000000 "
				},
				"gasEstimates": {
					"creation": {
						"codeDepositCost": "158000",
						"executionCost": "infinite",
						"totalCost": "infinite"
					},
					"external": {
						"b()": "2446",
						"c()": "2565",
						"d()": "2521",
						"hi()": "infinite"
					}
				},
				"methodIdentifiers": {
					"b()": "4df7e3d0",
					"c()": "c3da42b8",
					"d()": "8a054ac2",
					"hi()": "a99dca3f"
				}
			},
			"storageLayout": {
				"storage": [
					{
						"astId": 4,
						"contract": "solidityLecture/lecture_02.sol:lec02",
						"label": "b",
						"offset": 0,
						"slot": "0",
						"type": "t_bool"
					},
					{
						"astId": 8,
						"contract": "solidityLecture/lecture_02.sol:lec02",
						"label": "c",
						"offset": 1,
						"slot": "0",
						"type": "t_bool"
					},
					{
						"astId": 13,
						"contract": "solidityLecture/lecture_02.sol:lec02",
						"label": "d",
						"offset": 2,
						"slot": "0",
						"type": "t_bool"
					},
					{
						"astId": 16,
						"contract": "solidityLecture/lecture_02.sol:lec02",
						"label": "hi",
						"offset": 0,
						"slot": "1",
						"type": "t_string_storage"
					}
				],
				"types": {
					"t_bool": {
						"encoding": "inplace",
						"label": "bool",
						"numberOfBytes": "1"
					},
					"t_string_storage": {
						"encoding": "bytes",
						"label": "string",
						"numberOfBytes": "32"
					}
				}
			},
			"userdoc": {
				"kind": "user",
				"methods": {},
				"version": 1
			}
		}
	}
}