{
	"solidityLecture/lecture_02.sol": {
		"lec02": {
			"abi": [
				{
					"inputs": [],
					"name": "b",
					"outputs": [
						{
							"internalType": "bool",
							"name": "",
							"type": "bool"
						}
					],
					"stateMutability": "view",
					"type": "function"
				},
				{
					"inputs": [],
					"name": "bt",
					"outputs": [
						{
							"internalType": "bytes4",
							"name": "",
							"type": "bytes4"
						}
					],
					"stateMutability": "view",
					"type": "function"
				},
				{
					"inputs": [],
					"name": "bt1",
					"outputs": [
						{
							"internalType": "bytes",
							"name": "",
							"type": "bytes"
						}
					],
					"stateMutability": "view",
					"type": "function"
				},
				{
					"inputs": [],
					"name": "c",
					"outputs": [
						{
							"internalType": "bool",
							"name": "",
							"type": "bool"
						}
					],
					"stateMutability": "view",
					"type": "function"
				},
				{
					"inputs": [],
					"name": "d",
					"outputs": [
						{
							"internalType": "bool",
							"name": "",
							"type": "bool"
						}
					],
					"stateMutability": "view",
					"type": "function"
				},
				{
					"inputs": [],
					"name": "hi",
					"outputs": [
						{
							"internalType": "string",
							"name": "",
							"type": "string"
						}
					],
					"stateMutability": "view",
					"type": "function"
				},
				{
					"inputs": [],
					"name": "myaddr",
					"outputs": [
						{
							"internalType": "address",
							"name": "",
							"type": "address"
						}
					],
					"stateMutability": "view",
					"type": "function"
				},
				{
					"inputs": [],
					"name": "number",
					"outputs": [
						{
							"internalType": "uint8",
							"name": "",
							"type": "uint8"
						}
					],
					"stateMutability": "view",
					"type": "function"
				}
			],
			"devdoc": {
				"kind": "dev",
				"methods": {},
				"version": 1
			},
			"evm": {
				"assembly": "    /* \"solidityLecture/lecture_02.sol\":67:576  contract lec02{... */\n  mstore(0x40, 0x80)\n    /* \"solidityLecture/lecture_02.sol\":135:140  false */\n  0x00\n    /* \"solidityLecture/lecture_02.sol\":119:140  bool public b = false */\n  dup1\n  exp(0x0100, 0x00)\n  dup2\n  sload\n  dup2\n  0xff\n  mul\n  not\n  and\n  swap1\n  dup4\n  iszero\n  iszero\n  mul\n  or\n  swap1\n  sstore\n  pop\n    /* \"solidityLecture/lecture_02.sol\":163:168  false */\n  0x00\n    /* \"solidityLecture/lecture_02.sol\":162:168  !false */\n  iszero\n    /* \"solidityLecture/lecture_02.sol\":146:168  bool public c = !false */\n  0x00\n  exp(0x0100, 0x01)\n  dup2\n  sload\n  dup2\n  0xff\n  mul\n  not\n  and\n  swap1\n  dup4\n  iszero\n  iszero\n  mul\n  or\n  swap1\n  sstore\n  pop\n    /* \"solidityLecture/lecture_02.sol\":217:222  false */\n  0x00\n    /* \"solidityLecture/lecture_02.sol\":208:222  false == false */\n  iszero\n  iszero\n    /* \"solidityLecture/lecture_02.sol\":208:213  false */\n  0x00\n    /* \"solidityLecture/lecture_02.sol\":208:222  false == false */\n  iszero\n  iszero\n  eq\n    /* \"solidityLecture/lecture_02.sol\":192:222  bool public d = false == false */\n  0x00\n  exp(0x0100, 0x02)\n  dup2\n  sload\n  dup2\n  0xff\n  mul\n  not\n  and\n  swap1\n  dup4\n  iszero\n  iszero\n  mul\n  or\n  swap1\n  sstore\n  pop\n    /* \"solidityLecture/lecture_02.sol\":228:263  string public hi = \"Hello solidity\" */\n  mload(0x40)\n  dup1\n  0x40\n  add\n  0x40\n  mstore\n  dup1\n  0x0e\n  dup2\n  mstore\n  0x20\n  add\n  0x48656c6c6f20736f6c6964697479000000000000000000000000000000000000\n  dup2\n  mstore\n  pop\n  0x01\n  swap1\n  dup1\n  mload\n  swap1\n  0x20\n  add\n  swap1\n  tag_1\n  swap3\n  swap2\n  swap1\n  tag_2\n  jump\t// in\ntag_1:\n  pop\n    /* \"solidityLecture/lecture_02.sol\":310:320  0x12345678 */\n  0x12345678\n    /* \"solidityLecture/lecture_02.sol\":291:320  bytes4 public bt = 0x12345678 */\n  0xe0\n  shl\n  0x02\n  exp(0x0100, 0x00)\n  dup2\n  sload\n  dup2\n  0xffffffff\n  mul\n  not\n  and\n  swap1\n  dup4\n  0xe0\n  shr\n  mul\n  or\n  swap1\n  sstore\n  pop\n    /* \"solidityLecture/lecture_02.sol\":355:383  bytes public  bt1 = \"MYNAME\" */\n  mload(0x40)\n  dup1\n  0x40\n  add\n  0x40\n  mstore\n  dup1\n  0x06\n  dup2\n  mstore\n  0x20\n  add\n  0x4d594e414d450000000000000000000000000000000000000000000000000000\n  dup2\n  mstore\n  pop\n  0x03\n  swap1\n  dup1\n  mload\n  swap1\n  0x20\n  add\n  swap1\n  tag_3\n  swap3\n  swap2\n  swap1\n  tag_4\n  jump\t// in\ntag_3:\n  pop\n    /* \"solidityLecture/lecture_02.sol\":452:494  0xf8e81D47203A594245E36C48e151709F0C19fBe8 */\n  0xf8e81d47203a594245e36c48e151709f0c19fbe8\n    /* \"solidityLecture/lecture_02.sol\":427:494  address public  myaddr = 0xf8e81D47203A594245E36C48e151709F0C19fBe8 */\n  0x04\n  exp(0x0100, 0x00)\n  dup2\n  sload\n  dup2\n  0xffffffffffffffffffffffffffffffffffffffff\n  mul\n  not\n  and\n  swap1\n  dup4\n  0xffffffffffffffffffffffffffffffffffffffff\n  and\n  mul\n  or\n  swap1\n  sstore\n  pop\n    /* \"solidityLecture/lecture_02.sol\":570:571  4 */\n  0x04\n    /* \"solidityLecture/lecture_02.sol\":549:571  uint8 public number= 4 */\n  dup1\n  exp(0x0100, 0x14)\n  dup2\n  sload\n  dup2\n  0xff\n  mul\n  not\n  and\n  swap1\n  dup4\n  0xff\n  and\n  mul\n  or\n  swap1\n  sstore\n  pop\n    /* \"solidityLecture/lecture_02.sol\":67:576  contract lec02{... */\n  callvalue\n  dup1\n  iszero\n  tag_5\n  jumpi\n  0x00\n  dup1\n  revert\ntag_5:\n  pop\n  jump(tag_6)\ntag_2:\n  dup3\n  dup1\n  sload\n  tag_7\n  swap1\n  tag_8\n  jump\t// in\ntag_7:\n  swap1\n  0x00\n  mstore\n  keccak256(0x00, 0x20)\n  swap1\n  0x1f\n  add\n  0x20\n  swap1\n  div\n  dup2\n  add\n  swap3\n  dup3\n  tag_10\n  jumpi\n  0x00\n  dup6\n  sstore\n  jump(tag_9)\ntag_10:\n  dup3\n  0x1f\n  lt\n  tag_11\n  jumpi\n  dup1\n  mload\n  not(0xff)\n  and\n  dup4\n  dup1\n  add\n  or\n  dup6\n  sstore\n  jump(tag_9)\ntag_11:\n  dup3\n  dup1\n  add\n  0x01\n  add\n  dup6\n  sstore\n  dup3\n  iszero\n  tag_9\n  jumpi\n  swap2\n  dup3\n  add\ntag_12:\n  dup3\n  dup2\n  gt\n  iszero\n  tag_13\n  jumpi\n  dup3\n  mload\n  dup3\n  sstore\n  swap2\n  0x20\n  add\n  swap2\n  swap1\n  0x01\n  add\n  swap1\n  jump(tag_12)\ntag_13:\ntag_9:\n  pop\n  swap1\n  pop\n  tag_14\n  swap2\n  swap1\n  tag_15\n  jump\t// in\ntag_14:\n  pop\n  swap1\n  jump\t// out\ntag_4:\n  dup3\n  dup1\n  sload\n  tag_16\n  swap1\n  tag_8\n  jump\t// in\ntag_16:\n  swap1\n  0x00\n  mstore\n  keccak256(0x00, 0x20)\n  swap1\n  0x1f\n  add\n  0x20\n  swap1\n  div\n  dup2\n  add\n  swap3\n  dup3\n  tag_18\n  jumpi\n  0x00\n  dup6\n  sstore\n  jump(tag_17)\ntag_18:\n  dup3\n  0x1f\n  lt\n  tag_19\n  jumpi\n  dup1\n  mload\n  not(0xff)\n  and\n  dup4\n  dup1\n  add\n  or\n  dup6\n  sstore\n  jump(tag_17)\ntag_19:\n  dup3\n  dup1\n  add\n  0x01\n  add\n  dup6\n  sstore\n  dup3\n  iszero\n  tag_17\n  jumpi\n  swap2\n  dup3\n  add\ntag_20:\n  dup3\n  dup2\n  gt\n  iszero\n  tag_21\n  jumpi\n  dup3\n  mload\n  dup3\n  sstore\n  swap2\n  0x20\n  add\n  swap2\n  swap1\n  0x01\n  add\n  swap1\n  jump(tag_20)\ntag_21:\ntag_17:\n  pop\n  swap1\n  pop\n  tag_22\n  swap2\n  swap1\n  tag_15\n  jump\t// in\ntag_22:\n  pop\n  swap1\n  jump\t// out\ntag_15:\ntag_23:\n  dup1\n  dup3\n  gt\n  iszero\n  tag_24\n  jumpi\n  0x00\n  dup2\n  0x00\n  swap1\n  sstore\n  pop\n  0x01\n  add\n  jump(tag_23)\ntag_24:\n  pop\n  swap1\n  jump\t// out\n    /* \"#utility.yul\":7:327   */\ntag_8:\n    /* \"#utility.yul\":51:57   */\n  0x00\n    /* \"#utility.yul\":88:89   */\n  0x02\n    /* \"#utility.yul\":82:86   */\n  dup3\n    /* \"#utility.yul\":78:90   */\n  div\n    /* \"#utility.yul\":68:90   */\n  swap1\n  pop\n    /* \"#utility.yul\":135:136   */\n  0x01\n    /* \"#utility.yul\":129:133   */\n  dup3\n    /* \"#utility.yul\":125:137   */\n  and\n    /* \"#utility.yul\":156:174   */\n  dup1\n    /* \"#utility.yul\":146:227   */\n  tag_27\n  jumpi\n    /* \"#utility.yul\":212:216   */\n  0x7f\n    /* \"#utility.yul\":204:210   */\n  dup3\n    /* \"#utility.yul\":200:217   */\n  and\n    /* \"#utility.yul\":190:217   */\n  swap2\n  pop\n    /* \"#utility.yul\":146:227   */\ntag_27:\n    /* \"#utility.yul\":274:276   */\n  0x20\n    /* \"#utility.yul\":266:272   */\n  dup3\n    /* \"#utility.yul\":263:277   */\n  lt\n    /* \"#utility.yul\":243:261   */\n  dup2\n    /* \"#utility.yul\":240:278   */\n  eq\n    /* \"#utility.yul\":237:321   */\n  iszero\n  tag_28\n  jumpi\n    /* \"#utility.yul\":293:311   */\n  tag_29\n  tag_30\n  jump\t// in\ntag_29:\n    /* \"#utility.yul\":237:321   */\ntag_28:\n    /* \"#utility.yul\":58:327   */\n  pop\n    /* \"#utility.yul\":7:327   */\n  swap2\n  swap1\n  pop\n  jump\t// out\n    /* \"#utility.yul\":333:513   */\ntag_30:\n    /* \"#utility.yul\":381:458   */\n  0x4e487b7100000000000000000000000000000000000000000000000000000000\n    /* \"#utility.yul\":378:379   */\n  0x00\n    /* \"#utility.yul\":371:459   */\n  mstore\n    /* \"#utility.yul\":478:482   */\n  0x22\n    /* \"#utility.yul\":475:476   */\n  0x04\n    /* \"#utility.yul\":468:483   */\n  mstore\n    /* \"#utility.yul\":502:506   */\n  0x24\n    /* \"#utility.yul\":499:500   */\n  0x00\n    /* \"#utility.yul\":492:507   */\n  revert\n    /* \"solidityLecture/lecture_02.sol\":67:576  contract lec02{... */\ntag_6:\n  dataSize(sub_0)\n  dup1\n  dataOffset(sub_0)\n  0x00\n  codecopy\n  0x00\n  return\nstop\n\nsub_0: assembly {\n        /* \"solidityLecture/lecture_02.sol\":67:576  contract lec02{... */\n      mstore(0x40, 0x80)\n      callvalue\n      dup1\n      iszero\n      tag_1\n      jumpi\n      0x00\n      dup1\n      revert\n    tag_1:\n      pop\n      jumpi(tag_2, lt(calldatasize, 0x04))\n      shr(0xe0, calldataload(0x00))\n      dup1\n      0xac9c1959\n      gt\n      tag_11\n      jumpi\n      dup1\n      0xac9c1959\n      eq\n      tag_7\n      jumpi\n      dup1\n      0xc3da42b8\n      eq\n      tag_8\n      jumpi\n      dup1\n      0xcb6f197e\n      eq\n      tag_9\n      jumpi\n      dup1\n      0xf0759a4d\n      eq\n      tag_10\n      jumpi\n      jump(tag_2)\n    tag_11:\n      dup1\n      0x4df7e3d0\n      eq\n      tag_3\n      jumpi\n      dup1\n      0x8381f58a\n      eq\n      tag_4\n      jumpi\n      dup1\n      0x8a054ac2\n      eq\n      tag_5\n      jumpi\n      dup1\n      0xa99dca3f\n      eq\n      tag_6\n      jumpi\n    tag_2:\n      0x00\n      dup1\n      revert\n        /* \"solidityLecture/lecture_02.sol\":119:140  bool public b = false */\n    tag_3:\n      tag_12\n      tag_13\n      jump\t// in\n    tag_12:\n      mload(0x40)\n      tag_14\n      swap2\n      swap1\n      tag_15\n      jump\t// in\n    tag_14:\n      mload(0x40)\n      dup1\n      swap2\n      sub\n      swap1\n      return\n        /* \"solidityLecture/lecture_02.sol\":549:571  uint8 public number= 4 */\n    tag_4:\n      tag_16\n      tag_17\n      jump\t// in\n    tag_16:\n      mload(0x40)\n      tag_18\n      swap2\n      swap1\n      tag_19\n      jump\t// in\n    tag_18:\n      mload(0x40)\n      dup1\n      swap2\n      sub\n      swap1\n      return\n        /* \"solidityLecture/lecture_02.sol\":192:222  bool public d = false == false */\n    tag_5:\n      tag_20\n      tag_21\n      jump\t// in\n    tag_20:\n      mload(0x40)\n      tag_22\n      swap2\n      swap1\n      tag_15\n      jump\t// in\n    tag_22:\n      mload(0x40)\n      dup1\n      swap2\n      sub\n      swap1\n      return\n        /* \"solidityLecture/lecture_02.sol\":228:263  string public hi = \"Hello solidity\" */\n    tag_6:\n      tag_23\n      tag_24\n      jump\t// in\n    tag_23:\n      mload(0x40)\n      tag_25\n      swap2\n      swap1\n      tag_26\n      jump\t// in\n    tag_25:\n      mload(0x40)\n      dup1\n      swap2\n      sub\n      swap1\n      return\n        /* \"solidityLecture/lecture_02.sol\":291:320  bytes4 public bt = 0x12345678 */\n    tag_7:\n      tag_27\n      tag_28\n      jump\t// in\n    tag_27:\n      mload(0x40)\n      tag_29\n      swap2\n      swap1\n      tag_30\n      jump\t// in\n    tag_29:\n      mload(0x40)\n      dup1\n      swap2\n      sub\n      swap1\n      return\n        /* \"solidityLecture/lecture_02.sol\":146:168  bool public c = !false */\n    tag_8:\n      tag_31\n      tag_32\n      jump\t// in\n    tag_31:\n      mload(0x40)\n      tag_33\n      swap2\n      swap1\n      tag_15\n      jump\t// in\n    tag_33:\n      mload(0x40)\n      dup1\n      swap2\n      sub\n      swap1\n      return\n        /* \"solidityLecture/lecture_02.sol\":355:383  bytes public  bt1 = \"MYNAME\" */\n    tag_9:\n      tag_34\n      tag_35\n      jump\t// in\n    tag_34:\n      mload(0x40)\n      tag_36\n      swap2\n      swap1\n      tag_37\n      jump\t// in\n    tag_36:\n      mload(0x40)\n      dup1\n      swap2\n      sub\n      swap1\n      return\n        /* \"solidityLecture/lecture_02.sol\":427:494  address public  myaddr = 0xf8e81D47203A594245E36C48e151709F0C19fBe8 */\n    tag_10:\n      tag_38\n      tag_39\n      jump\t// in\n    tag_38:\n      mload(0x40)\n      tag_40\n      swap2\n      swap1\n      tag_41\n      jump\t// in\n    tag_40:\n      mload(0x40)\n      dup1\n      swap2\n      sub\n      swap1\n      return\n        /* \"solidityLecture/lecture_02.sol\":119:140  bool public b = false */\n    tag_13:\n      0x00\n      dup1\n      sload\n      swap1\n      0x0100\n      exp\n      swap1\n      div\n      0xff\n      and\n      dup2\n      jump\t// out\n        /* \"solidityLecture/lecture_02.sol\":549:571  uint8 public number= 4 */\n    tag_17:\n      0x04\n      0x14\n      swap1\n      sload\n      swap1\n      0x0100\n      exp\n      swap1\n      div\n      0xff\n      and\n      dup2\n      jump\t// out\n        /* \"solidityLecture/lecture_02.sol\":192:222  bool public d = false == false */\n    tag_21:\n      0x00\n      0x02\n      swap1\n      sload\n      swap1\n      0x0100\n      exp\n      swap1\n      div\n      0xff\n      and\n      dup2\n      jump\t// out\n        /* \"solidityLecture/lecture_02.sol\":228:263  string public hi = \"Hello solidity\" */\n    tag_24:\n      0x01\n      dup1\n      sload\n      tag_42\n      swap1\n      tag_43\n      jump\t// in\n    tag_42:\n      dup1\n      0x1f\n      add\n      0x20\n      dup1\n      swap2\n      div\n      mul\n      0x20\n      add\n      mload(0x40)\n      swap1\n      dup2\n      add\n      0x40\n      mstore\n      dup1\n      swap3\n      swap2\n      swap1\n      dup2\n      dup2\n      mstore\n      0x20\n      add\n      dup3\n      dup1\n      sload\n      tag_44\n      swap1\n      tag_43\n      jump\t// in\n    tag_44:\n      dup1\n      iszero\n      tag_45\n      jumpi\n      dup1\n      0x1f\n      lt\n      tag_46\n      jumpi\n      0x0100\n      dup1\n      dup4\n      sload\n      div\n      mul\n      dup4\n      mstore\n      swap2\n      0x20\n      add\n      swap2\n      jump(tag_45)\n    tag_46:\n      dup3\n      add\n      swap2\n      swap1\n      0x00\n      mstore\n      keccak256(0x00, 0x20)\n      swap1\n    tag_47:\n      dup2\n      sload\n      dup2\n      mstore\n      swap1\n      0x01\n      add\n      swap1\n      0x20\n      add\n      dup1\n      dup4\n      gt\n      tag_47\n      jumpi\n      dup3\n      swap1\n      sub\n      0x1f\n      and\n      dup3\n      add\n      swap2\n    tag_45:\n      pop\n      pop\n      pop\n      pop\n      pop\n      dup2\n      jump\t// out\n        /* \"solidityLecture/lecture_02.sol\":291:320  bytes4 public bt = 0x12345678 */\n    tag_28:\n      0x02\n      0x00\n      swap1\n      sload\n      swap1\n      0x0100\n      exp\n      swap1\n      div\n      0xe0\n      shl\n      dup2\n      jump\t// out\n        /* \"solidityLecture/lecture_02.sol\":146:168  bool public c = !false */\n    tag_32:\n      0x00\n      0x01\n      swap1\n      sload\n      swap1\n      0x0100\n      exp\n      swap1\n      div\n      0xff\n      and\n      dup2\n      jump\t// out\n        /* \"solidityLecture/lecture_02.sol\":355:383  bytes public  bt1 = \"MYNAME\" */\n    tag_35:\n      0x03\n      dup1\n      sload\n      tag_48\n      swap1\n      tag_43\n      jump\t// in\n    tag_48:\n      dup1\n      0x1f\n      add\n      0x20\n      dup1\n      swap2\n      div\n      mul\n      0x20\n      add\n      mload(0x40)\n      swap1\n      dup2\n      add\n      0x40\n      mstore\n      dup1\n      swap3\n      swap2\n      swap1\n      dup2\n      dup2\n      mstore\n      0x20\n      add\n      dup3\n      dup1\n      sload\n      tag_49\n      swap1\n      tag_43\n      jump\t// in\n    tag_49:\n      dup1\n      iszero\n      tag_50\n      jumpi\n      dup1\n      0x1f\n      lt\n      tag_51\n      jumpi\n      0x0100\n      dup1\n      dup4\n      sload\n      div\n      mul\n      dup4\n      mstore\n      swap2\n      0x20\n      add\n      swap2\n      jump(tag_50)\n    tag_51:\n      dup3\n      add\n      swap2\n      swap1\n      0x00\n      mstore\n      keccak256(0x00, 0x20)\n      swap1\n    tag_52:\n      dup2\n      sload\n      dup2\n      mstore\n      swap1\n      0x01\n      add\n      swap1\n      0x20\n      add\n      dup1\n      dup4\n      gt\n      tag_52\n      jumpi\n      dup3\n      swap1\n      sub\n      0x1f\n      and\n      dup3\n      add\n      swap2\n    tag_50:\n      pop\n      pop\n      pop\n      pop\n      pop\n      dup2\n      jump\t// out\n        /* \"solidityLecture/lecture_02.sol\":427:494  address public  myaddr = 0xf8e81D47203A594245E36C48e151709F0C19fBe8 */\n    tag_39:\n      0x04\n      0x00\n      swap1\n      sload\n      swap1\n      0x0100\n      exp\n      swap1\n      div\n      0xffffffffffffffffffffffffffffffffffffffff\n      and\n      dup2\n      jump\t// out\n        /* \"#utility.yul\":7:125   */\n    tag_54:\n        /* \"#utility.yul\":94:118   */\n      tag_56\n        /* \"#utility.yul\":112:117   */\n      dup2\n        /* \"#utility.yul\":94:118   */\n      tag_57\n      jump\t// in\n    tag_56:\n        /* \"#utility.yul\":89:92   */\n      dup3\n        /* \"#utility.yul\":82:119   */\n      mstore\n        /* \"#utility.yul\":7:125   */\n      pop\n      pop\n      jump\t// out\n        /* \"#utility.yul\":131:240   */\n    tag_58:\n        /* \"#utility.yul\":212:233   */\n      tag_60\n        /* \"#utility.yul\":227:232   */\n      dup2\n        /* \"#utility.yul\":212:233   */\n      tag_61\n      jump\t// in\n    tag_60:\n        /* \"#utility.yul\":207:210   */\n      dup3\n        /* \"#utility.yul\":200:234   */\n      mstore\n        /* \"#utility.yul\":131:240   */\n      pop\n      pop\n      jump\t// out\n        /* \"#utility.yul\":246:361   */\n    tag_62:\n        /* \"#utility.yul\":331:354   */\n      tag_64\n        /* \"#utility.yul\":348:353   */\n      dup2\n        /* \"#utility.yul\":331:354   */\n      tag_65\n      jump\t// in\n    tag_64:\n        /* \"#utility.yul\":326:329   */\n      dup3\n        /* \"#utility.yul\":319:355   */\n      mstore\n        /* \"#utility.yul\":246:361   */\n      pop\n      pop\n      jump\t// out\n        /* \"#utility.yul\":367:727   */\n    tag_66:\n        /* \"#utility.yul\":453:456   */\n      0x00\n        /* \"#utility.yul\":481:519   */\n      tag_68\n        /* \"#utility.yul\":513:518   */\n      dup3\n        /* \"#utility.yul\":481:519   */\n      tag_69\n      jump\t// in\n    tag_68:\n        /* \"#utility.yul\":535:605   */\n      tag_70\n        /* \"#utility.yul\":598:604   */\n      dup2\n        /* \"#utility.yul\":593:596   */\n      dup6\n        /* \"#utility.yul\":535:605   */\n      tag_71\n      jump\t// in\n    tag_70:\n        /* \"#utility.yul\":528:605   */\n      swap4\n      pop\n        /* \"#utility.yul\":614:666   */\n      tag_72\n        /* \"#utility.yul\":659:665   */\n      dup2\n        /* \"#utility.yul\":654:657   */\n      dup6\n        /* \"#utility.yul\":647:651   */\n      0x20\n        /* \"#utility.yul\":640:645   */\n      dup7\n        /* \"#utility.yul\":636:652   */\n      add\n        /* \"#utility.yul\":614:666   */\n      tag_73\n      jump\t// in\n    tag_72:\n        /* \"#utility.yul\":691:720   */\n      tag_74\n        /* \"#utility.yul\":713:719   */\n      dup2\n        /* \"#utility.yul\":691:720   */\n      tag_75\n      jump\t// in\n    tag_74:\n        /* \"#utility.yul\":686:689   */\n      dup5\n        /* \"#utility.yul\":682:721   */\n      add\n        /* \"#utility.yul\":675:721   */\n      swap2\n      pop\n        /* \"#utility.yul\":457:727   */\n      pop\n        /* \"#utility.yul\":367:727   */\n      swap3\n      swap2\n      pop\n      pop\n      jump\t// out\n        /* \"#utility.yul\":733:1097   */\n    tag_76:\n        /* \"#utility.yul\":821:824   */\n      0x00\n        /* \"#utility.yul\":849:888   */\n      tag_78\n        /* \"#utility.yul\":882:887   */\n      dup3\n        /* \"#utility.yul\":849:888   */\n      tag_79\n      jump\t// in\n    tag_78:\n        /* \"#utility.yul\":904:975   */\n      tag_80\n        /* \"#utility.yul\":968:974   */\n      dup2\n        /* \"#utility.yul\":963:966   */\n      dup6\n        /* \"#utility.yul\":904:975   */\n      tag_81\n      jump\t// in\n    tag_80:\n        /* \"#utility.yul\":897:975   */\n      swap4\n      pop\n        /* \"#utility.yul\":984:1036   */\n      tag_82\n        /* \"#utility.yul\":1029:1035   */\n      dup2\n        /* \"#utility.yul\":1024:1027   */\n      dup6\n        /* \"#utility.yul\":1017:1021   */\n      0x20\n        /* \"#utility.yul\":1010:1015   */\n      dup7\n        /* \"#utility.yul\":1006:1022   */\n      add\n        /* \"#utility.yul\":984:1036   */\n      tag_73\n      jump\t// in\n    tag_82:\n        /* \"#utility.yul\":1061:1090   */\n      tag_83\n        /* \"#utility.yul\":1083:1089   */\n      dup2\n        /* \"#utility.yul\":1061:1090   */\n      tag_75\n      jump\t// in\n    tag_83:\n        /* \"#utility.yul\":1056:1059   */\n      dup5\n        /* \"#utility.yul\":1052:1091   */\n      add\n        /* \"#utility.yul\":1045:1091   */\n      swap2\n      pop\n        /* \"#utility.yul\":825:1097   */\n      pop\n        /* \"#utility.yul\":733:1097   */\n      swap3\n      swap2\n      pop\n      pop\n      jump\t// out\n        /* \"#utility.yul\":1103:1215   */\n    tag_84:\n        /* \"#utility.yul\":1186:1208   */\n      tag_86\n        /* \"#utility.yul\":1202:1207   */\n      dup2\n        /* \"#utility.yul\":1186:1208   */\n      tag_87\n      jump\t// in\n    tag_86:\n        /* \"#utility.yul\":1181:1184   */\n      dup3\n        /* \"#utility.yul\":1174:1209   */\n      mstore\n        /* \"#utility.yul\":1103:1215   */\n      pop\n      pop\n      jump\t// out\n        /* \"#utility.yul\":1221:1443   */\n    tag_41:\n        /* \"#utility.yul\":1314:1318   */\n      0x00\n        /* \"#utility.yul\":1352:1354   */\n      0x20\n        /* \"#utility.yul\":1341:1350   */\n      dup3\n        /* \"#utility.yul\":1337:1355   */\n      add\n        /* \"#utility.yul\":1329:1355   */\n      swap1\n      pop\n        /* \"#utility.yul\":1365:1436   */\n      tag_89\n        /* \"#utility.yul\":1433:1434   */\n      0x00\n        /* \"#utility.yul\":1422:1431   */\n      dup4\n        /* \"#utility.yul\":1418:1435   */\n      add\n        /* \"#utility.yul\":1409:1415   */\n      dup5\n        /* \"#utility.yul\":1365:1436   */\n      tag_54\n      jump\t// in\n    tag_89:\n        /* \"#utility.yul\":1221:1443   */\n      swap3\n      swap2\n      pop\n      pop\n      jump\t// out\n        /* \"#utility.yul\":1449:1659   */\n    tag_15:\n        /* \"#utility.yul\":1536:1540   */\n      0x00\n        /* \"#utility.yul\":1574:1576   */\n      0x20\n        /* \"#utility.yul\":1563:1572   */\n      dup3\n        /* \"#utility.yul\":1559:1577   */\n      add\n        /* \"#utility.yul\":1551:1577   */\n      swap1\n      pop\n        /* \"#utility.yul\":1587:1652   */\n      tag_91\n        /* \"#utility.yul\":1649:1650   */\n      0x00\n        /* \"#utility.yul\":1638:1647   */\n      dup4\n        /* \"#utility.yul\":1634:1651   */\n      add\n        /* \"#utility.yul\":1625:1631   */\n      dup5\n        /* \"#utility.yul\":1587:1652   */\n      tag_58\n      jump\t// in\n    tag_91:\n        /* \"#utility.yul\":1449:1659   */\n      swap3\n      swap2\n      pop\n      pop\n      jump\t// out\n        /* \"#utility.yul\":1665:1883   */\n    tag_30:\n        /* \"#utility.yul\":1756:1760   */\n      0x00\n        /* \"#utility.yul\":1794:1796   */\n      0x20\n        /* \"#utility.yul\":1783:1792   */\n      dup3\n        /* \"#utility.yul\":1779:1797   */\n      add\n        /* \"#utility.yul\":1771:1797   */\n      swap1\n      pop\n        /* \"#utility.yul\":1807:1876   */\n      tag_93\n        /* \"#utility.yul\":1873:1874   */\n      0x00\n        /* \"#utility.yul\":1862:1871   */\n      dup4\n        /* \"#utility.yul\":1858:1875   */\n      add\n        /* \"#utility.yul\":1849:1855   */\n      dup5\n        /* \"#utility.yul\":1807:1876   */\n      tag_62\n      jump\t// in\n    tag_93:\n        /* \"#utility.yul\":1665:1883   */\n      swap3\n      swap2\n      pop\n      pop\n      jump\t// out\n        /* \"#utility.yul\":1889:2198   */\n    tag_37:\n        /* \"#utility.yul\":2000:2004   */\n      0x00\n        /* \"#utility.yul\":2038:2040   */\n      0x20\n        /* \"#utility.yul\":2027:2036   */\n      dup3\n        /* \"#utility.yul\":2023:2041   */\n      add\n        /* \"#utility.yul\":2015:2041   */\n      swap1\n      pop\n        /* \"#utility.yul\":2087:2096   */\n      dup2\n        /* \"#utility.yul\":2081:2085   */\n      dup2\n        /* \"#utility.yul\":2077:2097   */\n      sub\n        /* \"#utility.yul\":2073:2074   */\n      0x00\n        /* \"#utility.yul\":2062:2071   */\n      dup4\n        /* \"#utility.yul\":2058:2075   */\n      add\n        /* \"#utility.yul\":2051:2098   */\n      mstore\n        /* \"#utility.yul\":2115:2191   */\n      tag_95\n        /* \"#utility.yul\":2186:2190   */\n      dup2\n        /* \"#utility.yul\":2177:2183   */\n      dup5\n        /* \"#utility.yul\":2115:2191   */\n      tag_66\n      jump\t// in\n    tag_95:\n        /* \"#utility.yul\":2107:2191   */\n      swap1\n      pop\n        /* \"#utility.yul\":1889:2198   */\n      swap3\n      swap2\n      pop\n      pop\n      jump\t// out\n        /* \"#utility.yul\":2204:2517   */\n    tag_26:\n        /* \"#utility.yul\":2317:2321   */\n      0x00\n        /* \"#utility.yul\":2355:2357   */\n      0x20\n        /* \"#utility.yul\":2344:2353   */\n      dup3\n        /* \"#utility.yul\":2340:2358   */\n      add\n        /* \"#utility.yul\":2332:2358   */\n      swap1\n      pop\n        /* \"#utility.yul\":2404:2413   */\n      dup2\n        /* \"#utility.yul\":2398:2402   */\n      dup2\n        /* \"#utility.yul\":2394:2414   */\n      sub\n        /* \"#utility.yul\":2390:2391   */\n      0x00\n        /* \"#utility.yul\":2379:2388   */\n      dup4\n        /* \"#utility.yul\":2375:2392   */\n      add\n        /* \"#utility.yul\":2368:2415   */\n      mstore\n        /* \"#utility.yul\":2432:2510   */\n      tag_97\n        /* \"#utility.yul\":2505:2509   */\n      dup2\n        /* \"#utility.yul\":2496:2502   */\n      dup5\n        /* \"#utility.yul\":2432:2510   */\n      tag_76\n      jump\t// in\n    tag_97:\n        /* \"#utility.yul\":2424:2510   */\n      swap1\n      pop\n        /* \"#utility.yul\":2204:2517   */\n      swap3\n      swap2\n      pop\n      pop\n      jump\t// out\n        /* \"#utility.yul\":2523:2737   */\n    tag_19:\n        /* \"#utility.yul\":2612:2616   */\n      0x00\n        /* \"#utility.yul\":2650:2652   */\n      0x20\n        /* \"#utility.yul\":2639:2648   */\n      dup3\n        /* \"#utility.yul\":2635:2653   */\n      add\n        /* \"#utility.yul\":2627:2653   */\n      swap1\n      pop\n        /* \"#utility.yul\":2663:2730   */\n      tag_99\n        /* \"#utility.yul\":2727:2728   */\n      0x00\n        /* \"#utility.yul\":2716:2725   */\n      dup4\n        /* \"#utility.yul\":2712:2729   */\n      add\n        /* \"#utility.yul\":2703:2709   */\n      dup5\n        /* \"#utility.yul\":2663:2730   */\n      tag_84\n      jump\t// in\n    tag_99:\n        /* \"#utility.yul\":2523:2737   */\n      swap3\n      swap2\n      pop\n      pop\n      jump\t// out\n        /* \"#utility.yul\":2743:2841   */\n    tag_69:\n        /* \"#utility.yul\":2794:2800   */\n      0x00\n        /* \"#utility.yul\":2828:2833   */\n      dup2\n        /* \"#utility.yul\":2822:2834   */\n      mload\n        /* \"#utility.yul\":2812:2834   */\n      swap1\n      pop\n        /* \"#utility.yul\":2743:2841   */\n      swap2\n      swap1\n      pop\n      jump\t// out\n        /* \"#utility.yul\":2847:2946   */\n    tag_79:\n        /* \"#utility.yul\":2899:2905   */\n      0x00\n        /* \"#utility.yul\":2933:2938   */\n      dup2\n        /* \"#utility.yul\":2927:2939   */\n      mload\n        /* \"#utility.yul\":2917:2939   */\n      swap1\n      pop\n        /* \"#utility.yul\":2847:2946   */\n      swap2\n      swap1\n      pop\n      jump\t// out\n        /* \"#utility.yul\":2952:3120   */\n    tag_71:\n        /* \"#utility.yul\":3035:3046   */\n      0x00\n        /* \"#utility.yul\":3069:3075   */\n      dup3\n        /* \"#utility.yul\":3064:3067   */\n      dup3\n        /* \"#utility.yul\":3057:3076   */\n      mstore\n        /* \"#utility.yul\":3109:3113   */\n      0x20\n        /* \"#utility.yul\":3104:3107   */\n      dup3\n        /* \"#utility.yul\":3100:3114   */\n      add\n        /* \"#utility.yul\":3085:3114   */\n      swap1\n      pop\n        /* \"#utility.yul\":2952:3120   */\n      swap3\n      swap2\n      pop\n      pop\n      jump\t// out\n        /* \"#utility.yul\":3126:3295   */\n    tag_81:\n        /* \"#utility.yul\":3210:3221   */\n      0x00\n        /* \"#utility.yul\":3244:3250   */\n      dup3\n        /* \"#utility.yul\":3239:3242   */\n      dup3\n        /* \"#utility.yul\":3232:3251   */\n      mstore\n        /* \"#utility.yul\":3284:3288   */\n      0x20\n        /* \"#utility.yul\":3279:3282   */\n      dup3\n        /* \"#utility.yul\":3275:3289   */\n      add\n        /* \"#utility.yul\":3260:3289   */\n      swap1\n      pop\n        /* \"#utility.yul\":3126:3295   */\n      swap3\n      swap2\n      pop\n      pop\n      jump\t// out\n        /* \"#utility.yul\":3301:3397   */\n    tag_57:\n        /* \"#utility.yul\":3338:3345   */\n      0x00\n        /* \"#utility.yul\":3367:3391   */\n      tag_105\n        /* \"#utility.yul\":3385:3390   */\n      dup3\n        /* \"#utility.yul\":3367:3391   */\n      tag_106\n      jump\t// in\n    tag_105:\n        /* \"#utility.yul\":3356:3391   */\n      swap1\n      pop\n        /* \"#utility.yul\":3301:3397   */\n      swap2\n      swap1\n      pop\n      jump\t// out\n        /* \"#utility.yul\":3403:3493   */\n    tag_61:\n        /* \"#utility.yul\":3437:3444   */\n      0x00\n        /* \"#utility.yul\":3480:3485   */\n      dup2\n        /* \"#utility.yul\":3473:3486   */\n      iszero\n        /* \"#utility.yul\":3466:3487   */\n      iszero\n        /* \"#utility.yul\":3455:3487   */\n      swap1\n      pop\n        /* \"#utility.yul\":3403:3493   */\n      swap2\n      swap1\n      pop\n      jump\t// out\n        /* \"#utility.yul\":3499:3648   */\n    tag_65:\n        /* \"#utility.yul\":3535:3542   */\n      0x00\n        /* \"#utility.yul\":3575:3641   */\n      0xffffffff00000000000000000000000000000000000000000000000000000000\n        /* \"#utility.yul\":3568:3573   */\n      dup3\n        /* \"#utility.yul\":3564:3642   */\n      and\n        /* \"#utility.yul\":3553:3642   */\n      swap1\n      pop\n        /* \"#utility.yul\":3499:3648   */\n      swap2\n      swap1\n      pop\n      jump\t// out\n        /* \"#utility.yul\":3654:3780   */\n    tag_106:\n        /* \"#utility.yul\":3691:3698   */\n      0x00\n        /* \"#utility.yul\":3731:3773   */\n      0xffffffffffffffffffffffffffffffffffffffff\n        /* \"#utility.yul\":3724:3729   */\n      dup3\n        /* \"#utility.yul\":3720:3774   */\n      and\n        /* \"#utility.yul\":3709:3774   */\n      swap1\n      pop\n        /* \"#utility.yul\":3654:3780   */\n      swap2\n      swap1\n      pop\n      jump\t// out\n        /* \"#utility.yul\":3786:3872   */\n    tag_87:\n        /* \"#utility.yul\":3821:3828   */\n      0x00\n        /* \"#utility.yul\":3861:3865   */\n      0xff\n        /* \"#utility.yul\":3854:3859   */\n      dup3\n        /* \"#utility.yul\":3850:3866   */\n      and\n        /* \"#utility.yul\":3839:3866   */\n      swap1\n      pop\n        /* \"#utility.yul\":3786:3872   */\n      swap2\n      swap1\n      pop\n      jump\t// out\n        /* \"#utility.yul\":3878:4185   */\n    tag_73:\n        /* \"#utility.yul\":3946:3947   */\n      0x00\n        /* \"#utility.yul\":3956:4069   */\n    tag_112:\n        /* \"#utility.yul\":3970:3976   */\n      dup4\n        /* \"#utility.yul\":3967:3968   */\n      dup2\n        /* \"#utility.yul\":3964:3977   */\n      lt\n        /* \"#utility.yul\":3956:4069   */\n      iszero\n      tag_114\n      jumpi\n        /* \"#utility.yul\":4055:4056   */\n      dup1\n        /* \"#utility.yul\":4050:4053   */\n      dup3\n        /* \"#utility.yul\":4046:4057   */\n      add\n        /* \"#utility.yul\":4040:4058   */\n      mload\n        /* \"#utility.yul\":4036:4037   */\n      dup2\n        /* \"#utility.yul\":4031:4034   */\n      dup5\n        /* \"#utility.yul\":4027:4038   */\n      add\n        /* \"#utility.yul\":4020:4059   */\n      mstore\n        /* \"#utility.yul\":3992:3994   */\n      0x20\n        /* \"#utility.yul\":3989:3990   */\n      dup2\n        /* \"#utility.yul\":3985:3995   */\n      add\n        /* \"#utility.yul\":3980:3995   */\n      swap1\n      pop\n        /* \"#utility.yul\":3956:4069   */\n      jump(tag_112)\n    tag_114:\n        /* \"#utility.yul\":4087:4093   */\n      dup4\n        /* \"#utility.yul\":4084:4085   */\n      dup2\n        /* \"#utility.yul\":4081:4094   */\n      gt\n        /* \"#utility.yul\":4078:4179   */\n      iszero\n      tag_115\n      jumpi\n        /* \"#utility.yul\":4167:4168   */\n      0x00\n        /* \"#utility.yul\":4158:4164   */\n      dup5\n        /* \"#utility.yul\":4153:4156   */\n      dup5\n        /* \"#utility.yul\":4149:4165   */\n      add\n        /* \"#utility.yul\":4142:4169   */\n      mstore\n        /* \"#utility.yul\":4078:4179   */\n    tag_115:\n        /* \"#utility.yul\":3927:4185   */\n      pop\n        /* \"#utility.yul\":3878:4185   */\n      pop\n      pop\n      pop\n      jump\t// out\n        /* \"#utility.yul\":4191:4511   */\n    tag_43:\n        /* \"#utility.yul\":4235:4241   */\n      0x00\n        /* \"#utility.yul\":4272:4273   */\n      0x02\n        /* \"#utility.yul\":4266:4270   */\n      dup3\n        /* \"#utility.yul\":4262:4274   */\n      div\n        /* \"#utility.yul\":4252:4274   */\n      swap1\n      pop\n        /* \"#utility.yul\":4319:4320   */\n      0x01\n        /* \"#utility.yul\":4313:4317   */\n      dup3\n        /* \"#utility.yul\":4309:4321   */\n      and\n        /* \"#utility.yul\":4340:4358   */\n      dup1\n        /* \"#utility.yul\":4330:4411   */\n      tag_117\n      jumpi\n        /* \"#utility.yul\":4396:4400   */\n      0x7f\n        /* \"#utility.yul\":4388:4394   */\n      dup3\n        /* \"#utility.yul\":4384:4401   */\n      and\n        /* \"#utility.yul\":4374:4401   */\n      swap2\n      pop\n        /* \"#utility.yul\":4330:4411   */\n    tag_117:\n        /* \"#utility.yul\":4458:4460   */\n      0x20\n        /* \"#utility.yul\":4450:4456   */\n      dup3\n        /* \"#utility.yul\":4447:4461   */\n      lt\n        /* \"#utility.yul\":4427:4445   */\n      dup2\n        /* \"#utility.yul\":4424:4462   */\n      eq\n        /* \"#utility.yul\":4421:4505   */\n      iszero\n      tag_118\n      jumpi\n        /* \"#utility.yul\":4477:4495   */\n      tag_119\n      tag_120\n      jump\t// in\n    tag_119:\n        /* \"#utility.yul\":4421:4505   */\n    tag_118:\n        /* \"#utility.yul\":4242:4511   */\n      pop\n        /* \"#utility.yul\":4191:4511   */\n      swap2\n      swap1\n      pop\n      jump\t// out\n        /* \"#utility.yul\":4517:4697   */\n    tag_120:\n        /* \"#utility.yul\":4565:4642   */\n      0x4e487b7100000000000000000000000000000000000000000000000000000000\n        /* \"#utility.yul\":4562:4563   */\n      0x00\n        /* \"#utility.yul\":4555:4643   */\n      mstore\n        /* \"#utility.yul\":4662:4666   */\n      0x22\n        /* \"#utility.yul\":4659:4660   */\n      0x04\n        /* \"#utility.yul\":4652:4667   */\n      mstore\n        /* \"#utility.yul\":4686:4690   */\n      0x24\n        /* \"#utility.yul\":4683:4684   */\n      0x00\n        /* \"#utility.yul\":4676:4691   */\n      revert\n        /* \"#utility.yul\":4703:4805   */\n    tag_75:\n        /* \"#utility.yul\":4744:4750   */\n      0x00\n        /* \"#utility.yul\":4795:4797   */\n      0x1f\n        /* \"#utility.yul\":4791:4798   */\n      not\n        /* \"#utility.yul\":4786:4788   */\n      0x1f\n        /* \"#utility.yul\":4779:4784   */\n      dup4\n        /* \"#utility.yul\":4775:4789   */\n      add\n        /* \"#utility.yul\":4771:4799   */\n      and\n        /* \"#utility.yul\":4761:4799   */\n      swap1\n      pop\n        /* \"#utility.yul\":4703:4805   */\n      swap2\n      swap1\n      pop\n      jump\t// out\n\n    auxdata: 0xa2646970667358221220cdd4a55664b966607eadcadc83907f3b12dd3d31d8dc87913545de339f34a8f664736f6c63430008070033\n}\n",
				"bytecode": {
					"linkReferences": {},
					"object": "608060405260008060006101000a81548160ff021916908315150217905550600015600060016101000a81548160ff021916908315150217905550600015156000151514600060026101000a81548160ff0219169083151502179055506040518060400160405280600e81526020017f48656c6c6f20736f6c6964697479000000000000000000000000000000000000815250600190805190602001906100a792919061019b565b50631234567860e01b600260006101000a81548163ffffffff021916908360e01c02179055506040518060400160405280600681526020017f4d594e414d45000000000000000000000000000000000000000000000000000081525060039080519060200190610118929190610221565b5073f8e81d47203a594245e36c48e151709f0c19fbe8600460006101000a81548173ffffffffffffffffffffffffffffffffffffffff021916908373ffffffffffffffffffffffffffffffffffffffff16021790555060048060146101000a81548160ff021916908360ff16021790555034801561019557600080fd5b50610325565b8280546101a7906102c4565b90600052602060002090601f0160209004810192826101c95760008555610210565b82601f106101e257805160ff1916838001178555610210565b82800160010185558215610210579182015b8281111561020f5782518255916020019190600101906101f4565b5b50905061021d91906102a7565b5090565b82805461022d906102c4565b90600052602060002090601f01602090048101928261024f5760008555610296565b82601f1061026857805160ff1916838001178555610296565b82800160010185558215610296579182015b8281111561029557825182559160200191906001019061027a565b5b5090506102a391906102a7565b5090565b5b808211156102c05760008160009055506001016102a8565b5090565b600060028204905060018216806102dc57607f821691505b602082108114156102f0576102ef6102f6565b5b50919050565b7f4e487b7100000000000000000000000000000000000000000000000000000000600052602260045260246000fd5b610604806103346000396000f3fe608060405234801561001057600080fd5b50600436106100885760003560e01c8063ac9c19591161005b578063ac9c195914610105578063c3da42b814610123578063cb6f197e14610141578063f0759a4d1461015f57610088565b80634df7e3d01461008d5780638381f58a146100ab5780638a054ac2146100c9578063a99dca3f146100e7575b600080fd5b61009561017d565b6040516100a291906103e5565b60405180910390f35b6100b361018e565b6040516100c0919061045f565b60405180910390f35b6100d16101a1565b6040516100de91906103e5565b60405180910390f35b6100ef6101b4565b6040516100fc919061043d565b60405180910390f35b61010d610242565b60405161011a9190610400565b60405180910390f35b61012b610255565b60405161013891906103e5565b60405180910390f35b610149610268565b604051610156919061041b565b60405180910390f35b6101676102f6565b60405161017491906103ca565b60405180910390f35b60008054906101000a900460ff1681565b600460149054906101000a900460ff1681565b600060029054906101000a900460ff1681565b600180546101c19061055c565b80601f01602080910402602001604051908101604052809291908181526020018280546101ed9061055c565b801561023a5780601f1061020f5761010080835404028352916020019161023a565b820191906000526020600020905b81548152906001019060200180831161021d57829003601f168201915b505050505081565b600260009054906101000a900460e01b81565b600060019054906101000a900460ff1681565b600380546102759061055c565b80601f01602080910402602001604051908101604052809291908181526020018280546102a19061055c565b80156102ee5780601f106102c3576101008083540402835291602001916102ee565b820191906000526020600020905b8154815290600101906020018083116102d157829003601f168201915b505050505081565b600460009054906101000a900473ffffffffffffffffffffffffffffffffffffffff1681565b610325816104b2565b82525050565b610334816104c4565b82525050565b610343816104d0565b82525050565b60006103548261047a565b61035e8185610490565b935061036e818560208601610529565b610377816105bd565b840191505092915050565b600061038d82610485565b61039781856104a1565b93506103a7818560208601610529565b6103b0816105bd565b840191505092915050565b6103c48161051c565b82525050565b60006020820190506103df600083018461031c565b92915050565b60006020820190506103fa600083018461032b565b92915050565b6000602082019050610415600083018461033a565b92915050565b600060208201905081810360008301526104358184610349565b905092915050565b600060208201905081810360008301526104578184610382565b905092915050565b600060208201905061047460008301846103bb565b92915050565b600081519050919050565b600081519050919050565b600082825260208201905092915050565b600082825260208201905092915050565b60006104bd826104fc565b9050919050565b60008115159050919050565b60007fffffffff0000000000000000000000000000000000000000000000000000000082169050919050565b600073ffffffffffffffffffffffffffffffffffffffff82169050919050565b600060ff82169050919050565b60005b8381101561054757808201518184015260208101905061052c565b83811115610556576000848401525b50505050565b6000600282049050600182168061057457607f821691505b602082108114156105885761058761058e565b5b50919050565b7f4e487b7100000000000000000000000000000000000000000000000000000000600052602260045260246000fd5b6000601f19601f830116905091905056fea2646970667358221220cdd4a55664b966607eadcadc83907f3b12dd3d31d8dc87913545de339f34a8f664736f6c63430008070033",
					"opcodes": "PUSH1 0x80 PUSH1 0x40 MSTORE PUSH1 0x0 DUP1 PUSH1 0x0 PUSH2 0x100 EXP DUP2 SLOAD DUP2 PUSH1 0xFF MUL NOT AND SWAP1 DUP4 ISZERO ISZERO MUL OR SWAP1 SSTORE POP PUSH1 0x0 ISZERO PUSH1 0x0 PUSH1 0x1 PUSH2 0x100 EXP DUP2 SLOAD DUP2 PUSH1 0xFF MUL NOT AND SWAP1 DUP4 ISZERO ISZERO MUL OR SWAP1 SSTORE POP PUSH1 0x0 ISZERO ISZERO PUSH1 0x0 ISZERO ISZERO EQ PUSH1 0x0 PUSH1 0x2 PUSH2 0x100 EXP DUP2 SLOAD DUP2 PUSH1 0xFF MUL NOT AND SWAP1 DUP4 ISZERO ISZERO MUL OR SWAP1 SSTORE POP PUSH1 0x40 MLOAD DUP1 PUSH1 0x40 ADD PUSH1 0x40 MSTORE DUP1 PUSH1 0xE DUP2 MSTORE PUSH1 0x20 ADD PUSH32 0x48656C6C6F20736F6C6964697479000000000000000000000000000000000000 DUP2 MSTORE POP PUSH1 0x1 SWAP1 DUP1 MLOAD SWAP1 PUSH1 0x20 ADD SWAP1 PUSH2 0xA7 SWAP3 SWAP2 SWAP1 PUSH2 0x19B JUMP JUMPDEST POP PUSH4 0x12345678 PUSH1 0xE0 SHL PUSH1 0x2 PUSH1 0x0 PUSH2 0x100 EXP DUP2 SLOAD DUP2 PUSH4 0xFFFFFFFF MUL NOT AND SWAP1 DUP4 PUSH1 0xE0 SHR MUL OR SWAP1 SSTORE POP PUSH1 0x40 MLOAD DUP1 PUSH1 0x40 ADD PUSH1 0x40 MSTORE DUP1 PUSH1 0x6 DUP2 MSTORE PUSH1 0x20 ADD PUSH32 0x4D594E414D450000000000000000000000000000000000000000000000000000 DUP2 MSTORE POP PUSH1 0x3 SWAP1 DUP1 MLOAD SWAP1 PUSH1 0x20 ADD SWAP1 PUSH2 0x118 SWAP3 SWAP2 SWAP1 PUSH2 0x221 JUMP JUMPDEST POP PUSH20 0xF8E81D47203A594245E36C48E151709F0C19FBE8 PUSH1 0x4 PUSH1 0x0 PUSH2 0x100 EXP DUP2 SLOAD DUP2 PUSH20 0xFFFFFFFFFFFFFFFFFFFFFFFFFFFFFFFFFFFFFFFF MUL NOT AND SWAP1 DUP4 PUSH20 0xFFFFFFFFFFFFFFFFFFFFFFFFFFFFFFFFFFFFFFFF AND MUL OR SWAP1 SSTORE POP PUSH1 0x4 DUP1 PUSH1 0x14 PUSH2 0x100 EXP DUP2 SLOAD DUP2 PUSH1 0xFF MUL NOT AND SWAP1 DUP4 PUSH1 0xFF AND MUL OR SWAP1 SSTORE POP CALLVALUE DUP1 ISZERO PUSH2 0x195 JUMPI PUSH1 0x0 DUP1 REVERT JUMPDEST POP PUSH2 0x325 JUMP JUMPDEST DUP3 DUP1 SLOAD PUSH2 0x1A7 SWAP1 PUSH2 0x2C4 JUMP JUMPDEST SWAP1 PUSH1 0x0 MSTORE PUSH1 0x20 PUSH1 0x0 KECCAK256 SWAP1 PUSH1 0x1F ADD PUSH1 0x20 SWAP1 DIV DUP2 ADD SWAP3 DUP3 PUSH2 0x1C9 JUMPI PUSH1 0x0 DUP6 SSTORE PUSH2 0x210 JUMP JUMPDEST DUP3 PUSH1 0x1F LT PUSH2 0x1E2 JUMPI DUP1 MLOAD PUSH1 0xFF NOT AND DUP4 DUP1 ADD OR DUP6 SSTORE PUSH2 0x210 JUMP JUMPDEST DUP3 DUP1 ADD PUSH1 0x1 ADD DUP6 SSTORE DUP3 ISZERO PUSH2 0x210 JUMPI SWAP2 DUP3 ADD JUMPDEST DUP3 DUP2 GT ISZERO PUSH2 0x20F JUMPI DUP3 MLOAD DUP3 SSTORE SWAP2 PUSH1 0x20 ADD SWAP2 SWAP1 PUSH1 0x1 ADD SWAP1 PUSH2 0x1F4 JUMP JUMPDEST JUMPDEST POP SWAP1 POP PUSH2 0x21D SWAP2 SWAP1 PUSH2 0x2A7 JUMP JUMPDEST POP SWAP1 JUMP JUMPDEST DUP3 DUP1 SLOAD PUSH2 0x22D SWAP1 PUSH2 0x2C4 JUMP JUMPDEST SWAP1 PUSH1 0x0 MSTORE PUSH1 0x20 PUSH1 0x0 KECCAK256 SWAP1 PUSH1 0x1F ADD PUSH1 0x20 SWAP1 DIV DUP2 ADD SWAP3 DUP3 PUSH2 0x24F JUMPI PUSH1 0x0 DUP6 SSTORE PUSH2 0x296 JUMP JUMPDEST DUP3 PUSH1 0x1F LT PUSH2 0x268 JUMPI DUP1 MLOAD PUSH1 0xFF NOT AND DUP4 DUP1 ADD OR DUP6 SSTORE PUSH2 0x296 JUMP JUMPDEST DUP3 DUP1 ADD PUSH1 0x1 ADD DUP6 SSTORE DUP3 ISZERO PUSH2 0x296 JUMPI SWAP2 DUP3 ADD JUMPDEST DUP3 DUP2 GT ISZERO PUSH2 0x295 JUMPI DUP3 MLOAD DUP3 SSTORE SWAP2 PUSH1 0x20 ADD SWAP2 SWAP1 PUSH1 0x1 ADD SWAP1 PUSH2 0x27A JUMP JUMPDEST JUMPDEST POP SWAP1 POP PUSH2 0x2A3 SWAP2 SWAP1 PUSH2 0x2A7 JUMP JUMPDEST POP SWAP1 JUMP JUMPDEST JUMPDEST DUP1 DUP3 GT ISZERO PUSH2 0x2C0 JUMPI PUSH1 0x0 DUP2 PUSH1 0x0 SWAP1 SSTORE POP PUSH1 0x1 ADD PUSH2 0x2A8 JUMP JUMPDEST POP SWAP1 JUMP JUMPDEST PUSH1 0x0 PUSH1 0x2 DUP3 DIV SWAP1 POP PUSH1 0x1 DUP3 AND DUP1 PUSH2 0x2DC JUMPI PUSH1 0x7F DUP3 AND SWAP2 POP JUMPDEST PUSH1 0x20 DUP3 LT DUP2 EQ ISZERO PUSH2 0x2F0 JUMPI PUSH2 0x2EF PUSH2 0x2F6 JUMP JUMPDEST JUMPDEST POP SWAP2 SWAP1 POP JUMP JUMPDEST PUSH32 0x4E487B7100000000000000000000000000000000000000000000000000000000 PUSH1 0x0 MSTORE PUSH1 0x22 PUSH1 0x4 MSTORE PUSH1 0x24 PUSH1 0x0 REVERT JUMPDEST PUSH2 0x604 DUP1 PUSH2 0x334 PUSH1 0x0 CODECOPY PUSH1 0x0 RETURN INVALID PUSH1 0x80 PUSH1 0x40 MSTORE CALLVALUE DUP1 ISZERO PUSH2 0x10 JUMPI PUSH1 0x0 DUP1 REVERT JUMPDEST POP PUSH1 0x4 CALLDATASIZE LT PUSH2 0x88 JUMPI PUSH1 0x0 CALLDATALOAD PUSH1 0xE0 SHR DUP1 PUSH4 0xAC9C1959 GT PUSH2 0x5B JUMPI DUP1 PUSH4 0xAC9C1959 EQ PUSH2 0x105 JUMPI DUP1 PUSH4 0xC3DA42B8 EQ PUSH2 0x123 JUMPI DUP1 PUSH4 0xCB6F197E EQ PUSH2 0x141 JUMPI DUP1 PUSH4 0xF0759A4D EQ PUSH2 0x15F JUMPI PUSH2 0x88 JUMP JUMPDEST DUP1 PUSH4 0x4DF7E3D0 EQ PUSH2 0x8D JUMPI DUP1 PUSH4 0x8381F58A EQ PUSH2 0xAB JUMPI DUP1 PUSH4 0x8A054AC2 EQ PUSH2 0xC9 JUMPI DUP1 PUSH4 0xA99DCA3F EQ PUSH2 0xE7 JUMPI JUMPDEST PUSH1 0x0 DUP1 REVERT JUMPDEST PUSH2 0x95 PUSH2 0x17D JUMP JUMPDEST PUSH1 0x40 MLOAD PUSH2 0xA2 SWAP2 SWAP1 PUSH2 0x3E5 JUMP JUMPDEST PUSH1 0x40 MLOAD DUP1 SWAP2 SUB SWAP1 RETURN JUMPDEST PUSH2 0xB3 PUSH2 0x18E JUMP JUMPDEST PUSH1 0x40 MLOAD PUSH2 0xC0 SWAP2 SWAP1 PUSH2 0x45F JUMP JUMPDEST PUSH1 0x40 MLOAD DUP1 SWAP2 SUB SWAP1 RETURN JUMPDEST PUSH2 0xD1 PUSH2 0x1A1 JUMP JUMPDEST PUSH1 0x40 MLOAD PUSH2 0xDE SWAP2 SWAP1 PUSH2 0x3E5 JUMP JUMPDEST PUSH1 0x40 MLOAD DUP1 SWAP2 SUB SWAP1 RETURN JUMPDEST PUSH2 0xEF PUSH2 0x1B4 JUMP JUMPDEST PUSH1 0x40 MLOAD PUSH2 0xFC SWAP2 SWAP1 PUSH2 0x43D JUMP JUMPDEST PUSH1 0x40 MLOAD DUP1 SWAP2 SUB SWAP1 RETURN JUMPDEST PUSH2 0x10D PUSH2 0x242 JUMP JUMPDEST PUSH1 0x40 MLOAD PUSH2 0x11A SWAP2 SWAP1 PUSH2 0x400 JUMP JUMPDEST PUSH1 0x40 MLOAD DUP1 SWAP2 SUB SWAP1 RETURN JUMPDEST PUSH2 0x12B PUSH2 0x255 JUMP JUMPDEST PUSH1 0x40 MLOAD PUSH2 0x138 SWAP2 SWAP1 PUSH2 0x3E5 JUMP JUMPDEST PUSH1 0x40 MLOAD DUP1 SWAP2 SUB SWAP1 RETURN JUMPDEST PUSH2 0x149 PUSH2 0x268 JUMP JUMPDEST PUSH1 0x40 MLOAD PUSH2 0x156 SWAP2 SWAP1 PUSH2 0x41B JUMP JUMPDEST PUSH1 0x40 MLOAD DUP1 SWAP2 SUB SWAP1 RETURN JUMPDEST PUSH2 0x167 PUSH2 0x2F6 JUMP JUMPDEST PUSH1 0x40 MLOAD PUSH2 0x174 SWAP2 SWAP1 PUSH2 0x3CA JUMP JUMPDEST PUSH1 0x40 MLOAD DUP1 SWAP2 SUB SWAP1 RETURN JUMPDEST PUSH1 0x0 DUP1 SLOAD SWAP1 PUSH2 0x100 EXP SWAP1 DIV PUSH1 0xFF AND DUP2 JUMP JUMPDEST PUSH1 0x4 PUSH1 0x14 SWAP1 SLOAD SWAP1 PUSH2 0x100 EXP SWAP1 DIV PUSH1 0xFF AND DUP2 JUMP JUMPDEST PUSH1 0x0 PUSH1 0x2 SWAP1 SLOAD SWAP1 PUSH2 0x100 EXP SWAP1 DIV PUSH1 0xFF AND DUP2 JUMP JUMPDEST PUSH1 0x1 DUP1 SLOAD PUSH2 0x1C1 SWAP1 PUSH2 0x55C JUMP JUMPDEST DUP1 PUSH1 0x1F ADD PUSH1 0x20 DUP1 SWAP2 DIV MUL PUSH1 0x20 ADD PUSH1 0x40 MLOAD SWAP1 DUP2 ADD PUSH1 0x40 MSTORE DUP1 SWAP3 SWAP2 SWAP1 DUP2 DUP2 MSTORE PUSH1 0x20 ADD DUP3 DUP1 SLOAD PUSH2 0x1ED SWAP1 PUSH2 0x55C JUMP JUMPDEST DUP1 ISZERO PUSH2 0x23A JUMPI DUP1 PUSH1 0x1F LT PUSH2 0x20F JUMPI PUSH2 0x100 DUP1 DUP4 SLOAD DIV MUL DUP4 MSTORE SWAP2 PUSH1 0x20 ADD SWAP2 PUSH2 0x23A JUMP JUMPDEST DUP3 ADD SWAP2 SWAP1 PUSH1 0x0 MSTORE PUSH1 0x20 PUSH1 0x0 KECCAK256 SWAP1 JUMPDEST DUP2 SLOAD DUP2 MSTORE SWAP1 PUSH1 0x1 ADD SWAP1 PUSH1 0x20 ADD DUP1 DUP4 GT PUSH2 0x21D JUMPI DUP3 SWAP1 SUB PUSH1 0x1F AND DUP3 ADD SWAP2 JUMPDEST POP POP POP POP POP DUP2 JUMP JUMPDEST PUSH1 0x2 PUSH1 0x0 SWAP1 SLOAD SWAP1 PUSH2 0x100 EXP SWAP1 DIV PUSH1 0xE0 SHL DUP2 JUMP JUMPDEST PUSH1 0x0 PUSH1 0x1 SWAP1 SLOAD SWAP1 PUSH2 0x100 EXP SWAP1 DIV PUSH1 0xFF AND DUP2 JUMP JUMPDEST PUSH1 0x3 DUP1 SLOAD PUSH2 0x275 SWAP1 PUSH2 0x55C JUMP JUMPDEST DUP1 PUSH1 0x1F ADD PUSH1 0x20 DUP1 SWAP2 DIV MUL PUSH1 0x20 ADD PUSH1 0x40 MLOAD SWAP1 DUP2 ADD PUSH1 0x40 MSTORE DUP1 SWAP3 SWAP2 SWAP1 DUP2 DUP2 MSTORE PUSH1 0x20 ADD DUP3 DUP1 SLOAD PUSH2 0x2A1 SWAP1 PUSH2 0x55C JUMP JUMPDEST DUP1 ISZERO PUSH2 0x2EE JUMPI DUP1 PUSH1 0x1F LT PUSH2 0x2C3 JUMPI PUSH2 0x100 DUP1 DUP4 SLOAD DIV MUL DUP4 MSTORE SWAP2 PUSH1 0x20 ADD SWAP2 PUSH2 0x2EE JUMP JUMPDEST DUP3 ADD SWAP2 SWAP1 PUSH1 0x0 MSTORE PUSH1 0x20 PUSH1 0x0 KECCAK256 SWAP1 JUMPDEST DUP2 SLOAD DUP2 MSTORE SWAP1 PUSH1 0x1 ADD SWAP1 PUSH1 0x20 ADD DUP1 DUP4 GT PUSH2 0x2D1 JUMPI DUP3 SWAP1 SUB PUSH1 0x1F AND DUP3 ADD SWAP2 JUMPDEST POP POP POP POP POP DUP2 JUMP JUMPDEST PUSH1 0x4 PUSH1 0x0 SWAP1 SLOAD SWAP1 PUSH2 0x100 EXP SWAP1 DIV PUSH20 0xFFFFFFFFFFFFFFFFFFFFFFFFFFFFFFFFFFFFFFFF AND DUP2 JUMP JUMPDEST PUSH2 0x325 DUP2 PUSH2 0x4B2 JUMP JUMPDEST DUP3 MSTORE POP POP JUMP JUMPDEST PUSH2 0x334 DUP2 PUSH2 0x4C4 JUMP JUMPDEST DUP3 MSTORE POP POP JUMP JUMPDEST PUSH2 0x343 DUP2 PUSH2 0x4D0 JUMP JUMPDEST DUP3 MSTORE POP POP JUMP JUMPDEST PUSH1 0x0 PUSH2 0x354 DUP3 PUSH2 0x47A JUMP JUMPDEST PUSH2 0x35E DUP2 DUP6 PUSH2 0x490 JUMP JUMPDEST SWAP4 POP PUSH2 0x36E DUP2 DUP6 PUSH1 0x20 DUP7 ADD PUSH2 0x529 JUMP JUMPDEST PUSH2 0x377 DUP2 PUSH2 0x5BD JUMP JUMPDEST DUP5 ADD SWAP2 POP POP SWAP3 SWAP2 POP POP JUMP JUMPDEST PUSH1 0x0 PUSH2 0x38D DUP3 PUSH2 0x485 JUMP JUMPDEST PUSH2 0x397 DUP2 DUP6 PUSH2 0x4A1 JUMP JUMPDEST SWAP4 POP PUSH2 0x3A7 DUP2 DUP6 PUSH1 0x20 DUP7 ADD PUSH2 0x529 JUMP JUMPDEST PUSH2 0x3B0 DUP2 PUSH2 0x5BD JUMP JUMPDEST DUP5 ADD SWAP2 POP POP SWAP3 SWAP2 POP POP JUMP JUMPDEST PUSH2 0x3C4 DUP2 PUSH2 0x51C JUMP JUMPDEST DUP3 MSTORE POP POP JUMP JUMPDEST PUSH1 0x0 PUSH1 0x20 DUP3 ADD SWAP1 POP PUSH2 0x3DF PUSH1 0x0 DUP4 ADD DUP5 PUSH2 0x31C JUMP JUMPDEST SWAP3 SWAP2 POP POP JUMP JUMPDEST PUSH1 0x0 PUSH1 0x20 DUP3 ADD SWAP1 POP PUSH2 0x3FA PUSH1 0x0 DUP4 ADD DUP5 PUSH2 0x32B JUMP JUMPDEST SWAP3 SWAP2 POP POP JUMP JUMPDEST PUSH1 0x0 PUSH1 0x20 DUP3 ADD SWAP1 POP PUSH2 0x415 PUSH1 0x0 DUP4 ADD DUP5 PUSH2 0x33A JUMP JUMPDEST SWAP3 SWAP2 POP POP JUMP JUMPDEST PUSH1 0x0 PUSH1 0x20 DUP3 ADD SWAP1 POP DUP2 DUP2 SUB PUSH1 0x0 DUP4 ADD MSTORE PUSH2 0x435 DUP2 DUP5 PUSH2 0x349 JUMP JUMPDEST SWAP1 POP SWAP3 SWAP2 POP POP JUMP JUMPDEST PUSH1 0x0 PUSH1 0x20 DUP3 ADD SWAP1 POP DUP2 DUP2 SUB PUSH1 0x0 DUP4 ADD MSTORE PUSH2 0x457 DUP2 DUP5 PUSH2 0x382 JUMP JUMPDEST SWAP1 POP SWAP3 SWAP2 POP POP JUMP JUMPDEST PUSH1 0x0 PUSH1 0x20 DUP3 ADD SWAP1 POP PUSH2 0x474 PUSH1 0x0 DUP4 ADD DUP5 PUSH2 0x3BB JUMP JUMPDEST SWAP3 SWAP2 POP POP JUMP JUMPDEST PUSH1 0x0 DUP2 MLOAD SWAP1 POP SWAP2 SWAP1 POP JUMP JUMPDEST PUSH1 0x0 DUP2 MLOAD SWAP1 POP SWAP2 SWAP1 POP JUMP JUMPDEST PUSH1 0x0 DUP3 DUP3 MSTORE PUSH1 0x20 DUP3 ADD SWAP1 POP SWAP3 SWAP2 POP POP JUMP JUMPDEST PUSH1 0x0 DUP3 DUP3 MSTORE PUSH1 0x20 DUP3 ADD SWAP1 POP SWAP3 SWAP2 POP POP JUMP JUMPDEST PUSH1 0x0 PUSH2 0x4BD DUP3 PUSH2 0x4FC JUMP JUMPDEST SWAP1 POP SWAP2 SWAP1 POP JUMP JUMPDEST PUSH1 0x0 DUP2 ISZERO ISZERO SWAP1 POP SWAP2 SWAP1 POP JUMP JUMPDEST PUSH1 0x0 PUSH32 0xFFFFFFFF00000000000000000000000000000000000000000000000000000000 DUP3 AND SWAP1 POP SWAP2 SWAP1 POP JUMP JUMPDEST PUSH1 0x0 PUSH20 0xFFFFFFFFFFFFFFFFFFFFFFFFFFFFFFFFFFFFFFFF DUP3 AND SWAP1 POP SWAP2 SWAP1 POP JUMP JUMPDEST PUSH1 0x0 PUSH1 0xFF DUP3 AND SWAP1 POP SWAP2 SWAP1 POP JUMP JUMPDEST PUSH1 0x0 JUMPDEST DUP4 DUP2 LT ISZERO PUSH2 0x547 JUMPI DUP1 DUP3 ADD MLOAD DUP2 DUP5 ADD MSTORE PUSH1 0x20 DUP2 ADD SWAP1 POP PUSH2 0x52C JUMP JUMPDEST DUP4 DUP2 GT ISZERO PUSH2 0x556 JUMPI PUSH1 0x0 DUP5 DUP5 ADD MSTORE JUMPDEST POP POP POP POP JUMP JUMPDEST PUSH1 0x0 PUSH1 0x2 DUP3 DIV SWAP1 POP PUSH1 0x1 DUP3 AND DUP1 PUSH2 0x574 JUMPI PUSH1 0x7F DUP3 AND SWAP2 POP JUMPDEST PUSH1 0x20 DUP3 LT DUP2 EQ ISZERO PUSH2 0x588 JUMPI PUSH2 0x587 PUSH2 0x58E JUMP JUMPDEST JUMPDEST POP SWAP2 SWAP1 POP JUMP JUMPDEST PUSH32 0x4E487B7100000000000000000000000000000000000000000000000000000000 PUSH1 0x0 MSTORE PUSH1 0x22 PUSH1 0x4 MSTORE PUSH1 0x24 PUSH1 0x0 REVERT JUMPDEST PUSH1 0x0 PUSH1 0x1F NOT PUSH1 0x1F DUP4 ADD AND SWAP1 POP SWAP2 SWAP1 POP JUMP INVALID LOG2 PUSH5 0x6970667358 0x22 SLT KECCAK256 0xCD 0xD4 0xA5 JUMP PUSH5 0xB966607EAD 0xCA 0xDC DUP4 SWAP1 PUSH32 0x3B12DD3D31D8DC87913545DE339F34A8F664736F6C6343000807003300000000 "
				},
				"gasEstimates": {
					"creation": {
						"codeDepositCost": "308000",
						"executionCost": "infinite",
						"totalCost": "infinite"
					},
					"external": {
						"b()": "2469",
						"bt()": "2471",
						"bt1()": "infinite",
						"c()": "2543",
						"d()": "2566",
						"hi()": "infinite",
						"myaddr()": "2580",
						"number()": "2544"
					}
				},
				"methodIdentifiers": {
					"b()": "4df7e3d0",
					"bt()": "ac9c1959",
					"bt1()": "cb6f197e",
					"c()": "c3da42b8",
					"d()": "8a054ac2",
					"hi()": "a99dca3f",
					"myaddr()": "f0759a4d",
					"number()": "8381f58a"
				}
			},
			"storageLayout": {
				"storage": [
					{
						"astId": 4,
						"contract": "solidityLecture/lecture_02.sol:lec02",
						"label": "b",
						"offset": 0,
						"slot": "0",
						"type": "t_bool"
					},
					{
						"astId": 8,
						"contract": "solidityLecture/lecture_02.sol:lec02",
						"label": "c",
						"offset": 1,
						"slot": "0",
						"type": "t_bool"
					},
					{
						"astId": 13,
						"contract": "solidityLecture/lecture_02.sol:lec02",
						"label": "d",
						"offset": 2,
						"slot": "0",
						"type": "t_bool"
					},
					{
						"astId": 16,
						"contract": "solidityLecture/lecture_02.sol:lec02",
						"label": "hi",
						"offset": 0,
						"slot": "1",
						"type": "t_string_storage"
					},
					{
						"astId": 19,
						"contract": "solidityLecture/lecture_02.sol:lec02",
						"label": "bt",
						"offset": 0,
						"slot": "2",
						"type": "t_bytes4"
					},
					{
						"astId": 22,
						"contract": "solidityLecture/lecture_02.sol:lec02",
						"label": "bt1",
						"offset": 0,
						"slot": "3",
						"type": "t_bytes_storage"
					},
					{
						"astId": 25,
						"contract": "solidityLecture/lecture_02.sol:lec02",
						"label": "myaddr",
						"offset": 0,
						"slot": "4",
						"type": "t_address"
					},
					{
						"astId": 28,
						"contract": "solidityLecture/lecture_02.sol:lec02",
						"label": "number",
						"offset": 20,
						"slot": "4",
						"type": "t_uint8"
					}
				],
				"types": {
					"t_address": {
						"encoding": "inplace",
						"label": "address",
						"numberOfBytes": "20"
					},
					"t_bool": {
						"encoding": "inplace",
						"label": "bool",
						"numberOfBytes": "1"
					},
					"t_bytes4": {
						"encoding": "inplace",
						"label": "bytes4",
						"numberOfBytes": "4"
					},
					"t_bytes_storage": {
						"encoding": "bytes",
						"label": "bytes",
						"numberOfBytes": "32"
					},
					"t_string_storage": {
						"encoding": "bytes",
						"label": "string",
						"numberOfBytes": "32"
					},
					"t_uint8": {
						"encoding": "inplace",
						"label": "uint8",
						"numberOfBytes": "1"
					}
				}
			},
			"userdoc": {
				"kind": "user",
				"methods": {},
				"version": 1
			}
		}
	}
}