{
	"solidityLecture/lecture_08.sol": {
		"B": {
			"abi": [
				{
					"inputs": [],
					"name": "b",
					"outputs": [
						{
							"internalType": "uint256",
							"name": "",
							"type": "uint256"
						}
					],
					"stateMutability": "view",
					"type": "function"
				},
				{
					"inputs": [
						{
							"internalType": "uint256",
							"name": "_value",
							"type": "uint256"
						}
					],
					"name": "change_a",
					"outputs": [],
					"stateMutability": "nonpayable",
					"type": "function"
				},
				{
					"inputs": [
						{
							"internalType": "uint256",
							"name": "_value",
							"type": "uint256"
						}
					],
					"name": "change_aa",
					"outputs": [
						{
							"internalType": "uint256",
							"name": "",
							"type": "uint256"
						}
					],
					"stateMutability": "nonpayable",
					"type": "function"
				},
				{
					"inputs": [],
					"name": "get_a",
					"outputs": [
						{
							"internalType": "uint256",
							"name": "",
							"type": "uint256"
						}
					],
					"stateMutability": "view",
					"type": "function"
				}
			],
			"devdoc": {
				"kind": "dev",
				"methods": {},
				"version": 1
			},
			"evm": {
				"assembly": "    /* \"solidityLecture/lecture_08.sol\":180:540  contract B{... */\n  mstore(0x40, 0x80)\n    /* \"solidityLecture/lecture_08.sol\":209:216  new A() */\n  mload(0x40)\n  tag_1\n  swap1\n  tag_2\n  jump\t// in\ntag_1:\n  mload(0x40)\n  dup1\n  swap2\n  sub\n  swap1\n  0x00\n  create\n  dup1\n  iszero\n  dup1\n  iszero\n  tag_3\n  jumpi\n  returndatasize\n  0x00\n  dup1\n  returndatacopy\n  revert(0x00, returndatasize)\ntag_3:\n  pop\n    /* \"solidityLecture/lecture_08.sol\":196:216  A instance = new A() */\n  0x00\n  dup1\n  0x0100\n  exp\n  dup2\n  sload\n  dup2\n  0xffffffffffffffffffffffffffffffffffffffff\n  mul\n  not\n  and\n  swap1\n  dup4\n  0xffffffffffffffffffffffffffffffffffffffff\n  and\n  mul\n  or\n  swap1\n  sstore\n  pop\n    /* \"solidityLecture/lecture_08.sol\":180:540  contract B{... */\n  callvalue\n  dup1\n  iszero\n  tag_4\n  jumpi\n  0x00\n  dup1\n  revert\ntag_4:\n  pop\n  jump(tag_5)\ntag_2:\n  dataSize(sub_1)\n  dup1\n  dataOffset(sub_1)\n  dup4\n  codecopy\n  add\n  swap1\n  jump\t// out\ntag_5:\n  dataSize(sub_0)\n  dup1\n  dataOffset(sub_0)\n  0x00\n  codecopy\n  0x00\n  return\nstop\n\nsub_0: assembly {\n        /* \"solidityLecture/lecture_08.sol\":180:540  contract B{... */\n      mstore(0x40, 0x80)\n      callvalue\n      dup1\n      iszero\n      tag_1\n      jumpi\n      0x00\n      dup1\n      revert\n    tag_1:\n      pop\n      jumpi(tag_2, lt(calldatasize, 0x04))\n      shr(0xe0, calldataload(0x00))\n      dup1\n      0x055277aa\n      eq\n      tag_3\n      jumpi\n      dup1\n      0x48159181\n      eq\n      tag_4\n      jumpi\n      dup1\n      0x4df7e3d0\n      eq\n      tag_5\n      jumpi\n      dup1\n      0xc9002578\n      eq\n      tag_6\n      jumpi\n    tag_2:\n      0x00\n      dup1\n      revert\n        /* \"solidityLecture/lecture_08.sol\":419:538  function change_aa(uint256 _value) public returns (uint256){... */\n    tag_3:\n      tag_7\n      0x04\n      dup1\n      calldatasize\n      sub\n      dup2\n      add\n      swap1\n      tag_8\n      swap2\n      swap1\n      tag_9\n      jump\t// in\n    tag_8:\n      tag_10\n      jump\t// in\n    tag_7:\n      mload(0x40)\n      tag_11\n      swap2\n      swap1\n      tag_12\n      jump\t// in\n    tag_11:\n      mload(0x40)\n      dup1\n      swap2\n      sub\n      swap1\n      return\n        /* \"solidityLecture/lecture_08.sol\":245:328  function get_a() public view returns (uint256) {... */\n    tag_4:\n      tag_13\n      tag_14\n      jump\t// in\n    tag_13:\n      mload(0x40)\n      tag_15\n      swap2\n      swap1\n      tag_12\n      jump\t// in\n    tag_15:\n      mload(0x40)\n      dup1\n      swap2\n      sub\n      swap1\n      return\n        /* \"solidityLecture/lecture_08.sol\":222:238  uint256 public b */\n    tag_5:\n      tag_16\n      tag_17\n      jump\t// in\n    tag_16:\n      mload(0x40)\n      tag_18\n      swap2\n      swap1\n      tag_12\n      jump\t// in\n    tag_18:\n      mload(0x40)\n      dup1\n      swap2\n      sub\n      swap1\n      return\n        /* \"solidityLecture/lecture_08.sol\":333:414  function change_a(uint256 _value) public {... */\n    tag_6:\n      tag_19\n      0x04\n      dup1\n      calldatasize\n      sub\n      dup2\n      add\n      swap1\n      tag_20\n      swap2\n      swap1\n      tag_9\n      jump\t// in\n    tag_20:\n      tag_21\n      jump\t// in\n    tag_19:\n      stop\n        /* \"solidityLecture/lecture_08.sol\":419:538  function change_aa(uint256 _value) public returns (uint256){... */\n    tag_10:\n        /* \"solidityLecture/lecture_08.sol\":470:477  uint256 */\n      0x00\n        /* \"solidityLecture/lecture_08.sol\":492:500  instance */\n      dup1\n      0x00\n      swap1\n      sload\n      swap1\n      0x0100\n      exp\n      swap1\n      div\n      0xffffffffffffffffffffffffffffffffffffffff\n      and\n        /* \"solidityLecture/lecture_08.sol\":492:502  instance.a */\n      0xffffffffffffffffffffffffffffffffffffffff\n      and\n      0x0dbe671f\n        /* \"solidityLecture/lecture_08.sol\":492:504  instance.a() */\n      mload(0x40)\n      dup2\n      0xffffffff\n      and\n      0xe0\n      shl\n      dup2\n      mstore\n      0x04\n      add\n      0x20\n      mload(0x40)\n      dup1\n      dup4\n      sub\n      dup2\n      dup7\n      dup1\n      extcodesize\n      iszero\n      dup1\n      iszero\n      tag_23\n      jumpi\n      0x00\n      dup1\n      revert\n    tag_23:\n      pop\n      gas\n      staticcall\n      iszero\n      dup1\n      iszero\n      tag_25\n      jumpi\n      returndatasize\n      0x00\n      dup1\n      returndatacopy\n      revert(0x00, returndatasize)\n    tag_25:\n      pop\n      pop\n      pop\n      pop\n      mload(0x40)\n      returndatasize\n      not(0x1f)\n      0x1f\n      dup3\n      add\n      and\n      dup3\n      add\n      dup1\n      0x40\n      mstore\n      pop\n      dup2\n      add\n      swap1\n      tag_26\n      swap2\n      swap1\n      tag_27\n      jump\t// in\n    tag_26:\n        /* \"solidityLecture/lecture_08.sol\":488:489  b */\n      0x01\n        /* \"solidityLecture/lecture_08.sol\":488:504  b = instance.a() */\n      dup2\n      swap1\n      sstore\n      pop\n        /* \"solidityLecture/lecture_08.sol\":525:531  _value */\n      dup2\n        /* \"solidityLecture/lecture_08.sol\":521:522  b */\n      sload(0x01)\n        /* \"solidityLecture/lecture_08.sol\":521:531  b + _value */\n      tag_28\n      swap2\n      swap1\n      tag_29\n      jump\t// in\n    tag_28:\n        /* \"solidityLecture/lecture_08.sol\":514:531  return b + _value */\n      swap1\n      pop\n        /* \"solidityLecture/lecture_08.sol\":419:538  function change_aa(uint256 _value) public returns (uint256){... */\n      swap2\n      swap1\n      pop\n      jump\t// out\n        /* \"solidityLecture/lecture_08.sol\":245:328  function get_a() public view returns (uint256) {... */\n    tag_14:\n        /* \"solidityLecture/lecture_08.sol\":283:290  uint256 */\n      0x00\n        /* \"solidityLecture/lecture_08.sol\":309:317  instance */\n      dup1\n      0x00\n      swap1\n      sload\n      swap1\n      0x0100\n      exp\n      swap1\n      div\n      0xffffffffffffffffffffffffffffffffffffffff\n      and\n        /* \"solidityLecture/lecture_08.sol\":309:319  instance.a */\n      0xffffffffffffffffffffffffffffffffffffffff\n      and\n      0x0dbe671f\n        /* \"solidityLecture/lecture_08.sol\":309:321  instance.a() */\n      mload(0x40)\n      dup2\n      0xffffffff\n      and\n      0xe0\n      shl\n      dup2\n      mstore\n      0x04\n      add\n      0x20\n      mload(0x40)\n      dup1\n      dup4\n      sub\n      dup2\n      dup7\n      dup1\n      extcodesize\n      iszero\n      dup1\n      iszero\n      tag_31\n      jumpi\n      0x00\n      dup1\n      revert\n    tag_31:\n      pop\n      gas\n      staticcall\n      iszero\n      dup1\n      iszero\n      tag_33\n      jumpi\n      returndatasize\n      0x00\n      dup1\n      returndatacopy\n      revert(0x00, returndatasize)\n    tag_33:\n      pop\n      pop\n      pop\n      pop\n      mload(0x40)\n      returndatasize\n      not(0x1f)\n      0x1f\n      dup3\n      add\n      and\n      dup3\n      add\n      dup1\n      0x40\n      mstore\n      pop\n      dup2\n      add\n      swap1\n      tag_34\n      swap2\n      swap1\n      tag_27\n      jump\t// in\n    tag_34:\n        /* \"solidityLecture/lecture_08.sol\":302:321  return instance.a() */\n      swap1\n      pop\n        /* \"solidityLecture/lecture_08.sol\":245:328  function get_a() public view returns (uint256) {... */\n      swap1\n      jump\t// out\n        /* \"solidityLecture/lecture_08.sol\":222:238  uint256 public b */\n    tag_17:\n      sload(0x01)\n      dup2\n      jump\t// out\n        /* \"solidityLecture/lecture_08.sol\":333:414  function change_a(uint256 _value) public {... */\n    tag_21:\n        /* \"solidityLecture/lecture_08.sol\":384:392  instance */\n      0x00\n      dup1\n      sload\n      swap1\n      0x0100\n      exp\n      swap1\n      div\n      0xffffffffffffffffffffffffffffffffffffffff\n      and\n        /* \"solidityLecture/lecture_08.sol\":384:399  instance.change */\n      0xffffffffffffffffffffffffffffffffffffffff\n      and\n      0x75322e47\n        /* \"solidityLecture/lecture_08.sol\":400:406  _value */\n      dup3\n        /* \"solidityLecture/lecture_08.sol\":384:407  instance.change(_value) */\n      mload(0x40)\n      dup3\n      0xffffffff\n      and\n      0xe0\n      shl\n      dup2\n      mstore\n      0x04\n      add\n      tag_36\n      swap2\n      swap1\n      tag_12\n      jump\t// in\n    tag_36:\n      0x00\n      mload(0x40)\n      dup1\n      dup4\n      sub\n      dup2\n      0x00\n      dup8\n      dup1\n      extcodesize\n      iszero\n      dup1\n      iszero\n      tag_37\n      jumpi\n      0x00\n      dup1\n      revert\n    tag_37:\n      pop\n      gas\n      call\n      iszero\n      dup1\n      iszero\n      tag_39\n      jumpi\n      returndatasize\n      0x00\n      dup1\n      returndatacopy\n      revert(0x00, returndatasize)\n    tag_39:\n      pop\n      pop\n      pop\n      pop\n        /* \"solidityLecture/lecture_08.sol\":333:414  function change_a(uint256 _value) public {... */\n      pop\n      jump\t// out\n        /* \"#utility.yul\":7:146   */\n    tag_41:\n        /* \"#utility.yul\":53:58   */\n      0x00\n        /* \"#utility.yul\":91:97   */\n      dup2\n        /* \"#utility.yul\":78:98   */\n      calldataload\n        /* \"#utility.yul\":69:98   */\n      swap1\n      pop\n        /* \"#utility.yul\":107:140   */\n      tag_43\n        /* \"#utility.yul\":134:139   */\n      dup2\n        /* \"#utility.yul\":107:140   */\n      tag_44\n      jump\t// in\n    tag_43:\n        /* \"#utility.yul\":7:146   */\n      swap3\n      swap2\n      pop\n      pop\n      jump\t// out\n        /* \"#utility.yul\":152:295   */\n    tag_45:\n        /* \"#utility.yul\":209:214   */\n      0x00\n        /* \"#utility.yul\":240:246   */\n      dup2\n        /* \"#utility.yul\":234:247   */\n      mload\n        /* \"#utility.yul\":225:247   */\n      swap1\n      pop\n        /* \"#utility.yul\":256:289   */\n      tag_47\n        /* \"#utility.yul\":283:288   */\n      dup2\n        /* \"#utility.yul\":256:289   */\n      tag_44\n      jump\t// in\n    tag_47:\n        /* \"#utility.yul\":152:295   */\n      swap3\n      swap2\n      pop\n      pop\n      jump\t// out\n        /* \"#utility.yul\":301:630   */\n    tag_9:\n        /* \"#utility.yul\":360:366   */\n      0x00\n        /* \"#utility.yul\":409:411   */\n      0x20\n        /* \"#utility.yul\":397:406   */\n      dup3\n        /* \"#utility.yul\":388:395   */\n      dup5\n        /* \"#utility.yul\":384:407   */\n      sub\n        /* \"#utility.yul\":380:412   */\n      slt\n        /* \"#utility.yul\":377:496   */\n      iszero\n      tag_49\n      jumpi\n        /* \"#utility.yul\":415:494   */\n      tag_50\n      tag_51\n      jump\t// in\n    tag_50:\n        /* \"#utility.yul\":377:496   */\n    tag_49:\n        /* \"#utility.yul\":535:536   */\n      0x00\n        /* \"#utility.yul\":560:613   */\n      tag_52\n        /* \"#utility.yul\":605:612   */\n      dup5\n        /* \"#utility.yul\":596:602   */\n      dup3\n        /* \"#utility.yul\":585:594   */\n      dup6\n        /* \"#utility.yul\":581:603   */\n      add\n        /* \"#utility.yul\":560:613   */\n      tag_41\n      jump\t// in\n    tag_52:\n        /* \"#utility.yul\":550:613   */\n      swap2\n      pop\n        /* \"#utility.yul\":506:623   */\n      pop\n        /* \"#utility.yul\":301:630   */\n      swap3\n      swap2\n      pop\n      pop\n      jump\t// out\n        /* \"#utility.yul\":636:987   */\n    tag_27:\n        /* \"#utility.yul\":706:712   */\n      0x00\n        /* \"#utility.yul\":755:757   */\n      0x20\n        /* \"#utility.yul\":743:752   */\n      dup3\n        /* \"#utility.yul\":734:741   */\n      dup5\n        /* \"#utility.yul\":730:753   */\n      sub\n        /* \"#utility.yul\":726:758   */\n      slt\n        /* \"#utility.yul\":723:842   */\n      iszero\n      tag_54\n      jumpi\n        /* \"#utility.yul\":761:840   */\n      tag_55\n      tag_51\n      jump\t// in\n    tag_55:\n        /* \"#utility.yul\":723:842   */\n    tag_54:\n        /* \"#utility.yul\":881:882   */\n      0x00\n        /* \"#utility.yul\":906:970   */\n      tag_56\n        /* \"#utility.yul\":962:969   */\n      dup5\n        /* \"#utility.yul\":953:959   */\n      dup3\n        /* \"#utility.yul\":942:951   */\n      dup6\n        /* \"#utility.yul\":938:960   */\n      add\n        /* \"#utility.yul\":906:970   */\n      tag_45\n      jump\t// in\n    tag_56:\n        /* \"#utility.yul\":896:970   */\n      swap2\n      pop\n        /* \"#utility.yul\":852:980   */\n      pop\n        /* \"#utility.yul\":636:987   */\n      swap3\n      swap2\n      pop\n      pop\n      jump\t// out\n        /* \"#utility.yul\":993:1111   */\n    tag_57:\n        /* \"#utility.yul\":1080:1104   */\n      tag_59\n        /* \"#utility.yul\":1098:1103   */\n      dup2\n        /* \"#utility.yul\":1080:1104   */\n      tag_60\n      jump\t// in\n    tag_59:\n        /* \"#utility.yul\":1075:1078   */\n      dup3\n        /* \"#utility.yul\":1068:1105   */\n      mstore\n        /* \"#utility.yul\":993:1111   */\n      pop\n      pop\n      jump\t// out\n        /* \"#utility.yul\":1117:1339   */\n    tag_12:\n        /* \"#utility.yul\":1210:1214   */\n      0x00\n        /* \"#utility.yul\":1248:1250   */\n      0x20\n        /* \"#utility.yul\":1237:1246   */\n      dup3\n        /* \"#utility.yul\":1233:1251   */\n      add\n        /* \"#utility.yul\":1225:1251   */\n      swap1\n      pop\n        /* \"#utility.yul\":1261:1332   */\n      tag_62\n        /* \"#utility.yul\":1329:1330   */\n      0x00\n        /* \"#utility.yul\":1318:1327   */\n      dup4\n        /* \"#utility.yul\":1314:1331   */\n      add\n        /* \"#utility.yul\":1305:1311   */\n      dup5\n        /* \"#utility.yul\":1261:1332   */\n      tag_57\n      jump\t// in\n    tag_62:\n        /* \"#utility.yul\":1117:1339   */\n      swap3\n      swap2\n      pop\n      pop\n      jump\t// out\n        /* \"#utility.yul\":1426:1731   */\n    tag_29:\n        /* \"#utility.yul\":1466:1469   */\n      0x00\n        /* \"#utility.yul\":1485:1505   */\n      tag_66\n        /* \"#utility.yul\":1503:1504   */\n      dup3\n        /* \"#utility.yul\":1485:1505   */\n      tag_60\n      jump\t// in\n    tag_66:\n        /* \"#utility.yul\":1480:1505   */\n      swap2\n      pop\n        /* \"#utility.yul\":1519:1539   */\n      tag_67\n        /* \"#utility.yul\":1537:1538   */\n      dup4\n        /* \"#utility.yul\":1519:1539   */\n      tag_60\n      jump\t// in\n    tag_67:\n        /* \"#utility.yul\":1514:1539   */\n      swap3\n      pop\n        /* \"#utility.yul\":1673:1674   */\n      dup3\n        /* \"#utility.yul\":1605:1671   */\n      0xffffffffffffffffffffffffffffffffffffffffffffffffffffffffffffffff\n        /* \"#utility.yul\":1601:1675   */\n      sub\n        /* \"#utility.yul\":1598:1599   */\n      dup3\n        /* \"#utility.yul\":1595:1676   */\n      gt\n        /* \"#utility.yul\":1592:1699   */\n      iszero\n      tag_68\n      jumpi\n        /* \"#utility.yul\":1679:1697   */\n      tag_69\n      tag_70\n      jump\t// in\n    tag_69:\n        /* \"#utility.yul\":1592:1699   */\n    tag_68:\n        /* \"#utility.yul\":1723:1724   */\n      dup3\n        /* \"#utility.yul\":1720:1721   */\n      dup3\n        /* \"#utility.yul\":1716:1725   */\n      add\n        /* \"#utility.yul\":1709:1725   */\n      swap1\n      pop\n        /* \"#utility.yul\":1426:1731   */\n      swap3\n      swap2\n      pop\n      pop\n      jump\t// out\n        /* \"#utility.yul\":1737:1814   */\n    tag_60:\n        /* \"#utility.yul\":1774:1781   */\n      0x00\n        /* \"#utility.yul\":1803:1808   */\n      dup2\n        /* \"#utility.yul\":1792:1808   */\n      swap1\n      pop\n        /* \"#utility.yul\":1737:1814   */\n      swap2\n      swap1\n      pop\n      jump\t// out\n        /* \"#utility.yul\":1820:2000   */\n    tag_70:\n        /* \"#utility.yul\":1868:1945   */\n      0x4e487b7100000000000000000000000000000000000000000000000000000000\n        /* \"#utility.yul\":1865:1866   */\n      0x00\n        /* \"#utility.yul\":1858:1946   */\n      mstore\n        /* \"#utility.yul\":1965:1969   */\n      0x11\n        /* \"#utility.yul\":1962:1963   */\n      0x04\n        /* \"#utility.yul\":1955:1970   */\n      mstore\n        /* \"#utility.yul\":1989:1993   */\n      0x24\n        /* \"#utility.yul\":1986:1987   */\n      0x00\n        /* \"#utility.yul\":1979:1994   */\n      revert\n        /* \"#utility.yul\":2129:2246   */\n    tag_51:\n        /* \"#utility.yul\":2238:2239   */\n      0x00\n        /* \"#utility.yul\":2235:2236   */\n      dup1\n        /* \"#utility.yul\":2228:2240   */\n      revert\n        /* \"#utility.yul\":2252:2374   */\n    tag_44:\n        /* \"#utility.yul\":2325:2349   */\n      tag_77\n        /* \"#utility.yul\":2343:2348   */\n      dup2\n        /* \"#utility.yul\":2325:2349   */\n      tag_60\n      jump\t// in\n    tag_77:\n        /* \"#utility.yul\":2318:2323   */\n      dup2\n        /* \"#utility.yul\":2315:2350   */\n      eq\n        /* \"#utility.yul\":2305:2368   */\n      tag_78\n      jumpi\n        /* \"#utility.yul\":2364:2365   */\n      0x00\n        /* \"#utility.yul\":2361:2362   */\n      dup1\n        /* \"#utility.yul\":2354:2366   */\n      revert\n        /* \"#utility.yul\":2305:2368   */\n    tag_78:\n        /* \"#utility.yul\":2252:2374   */\n      pop\n      jump\t// out\n\n    auxdata: 0xa264697066735822122006b19506016c6eeeaf42435137a858b698b01a401650e55c044b2e52fdddce8d64736f6c63430008070033\n}\n\nsub_1: assembly {\n        /* \"solidityLecture/lecture_08.sol\":67:178  contract A{... */\n      mstore(0x40, 0x80)\n        /* \"solidityLecture/lecture_08.sol\":102:103  5 */\n      0x05\n        /* \"solidityLecture/lecture_08.sol\":83:103  uint256 public a = 5 */\n      0x00\n      sstore\n        /* \"solidityLecture/lecture_08.sol\":67:178  contract A{... */\n      callvalue\n      dup1\n      iszero\n      tag_1\n      jumpi\n      0x00\n      dup1\n      revert\n    tag_1:\n      pop\n      dataSize(sub_0)\n      dup1\n      dataOffset(sub_0)\n      0x00\n      codecopy\n      0x00\n      return\n    stop\n\n    sub_0: assembly {\n            /* \"solidityLecture/lecture_08.sol\":67:178  contract A{... */\n          mstore(0x40, 0x80)\n          callvalue\n          dup1\n          iszero\n          tag_1\n          jumpi\n          0x00\n          dup1\n          revert\n        tag_1:\n          pop\n          jumpi(tag_2, lt(calldatasize, 0x04))\n          shr(0xe0, calldataload(0x00))\n          dup1\n          0x0dbe671f\n          eq\n          tag_3\n          jumpi\n          dup1\n          0x75322e47\n          eq\n          tag_4\n          jumpi\n        tag_2:\n          0x00\n          dup1\n          revert\n            /* \"solidityLecture/lecture_08.sol\":83:103  uint256 public a = 5 */\n        tag_3:\n          tag_5\n          tag_6\n          jump\t// in\n        tag_5:\n          mload(0x40)\n          tag_7\n          swap2\n          swap1\n          tag_8\n          jump\t// in\n        tag_7:\n          mload(0x40)\n          dup1\n          swap2\n          sub\n          swap1\n          return\n            /* \"solidityLecture/lecture_08.sol\":110:176  function change(uint256 _value) public {... */\n        tag_4:\n          tag_9\n          0x04\n          dup1\n          calldatasize\n          sub\n          dup2\n          add\n          swap1\n          tag_10\n          swap2\n          swap1\n          tag_11\n          jump\t// in\n        tag_10:\n          tag_12\n          jump\t// in\n        tag_9:\n          stop\n            /* \"solidityLecture/lecture_08.sol\":83:103  uint256 public a = 5 */\n        tag_6:\n          sload(0x00)\n          dup2\n          jump\t// out\n            /* \"solidityLecture/lecture_08.sol\":110:176  function change(uint256 _value) public {... */\n        tag_12:\n            /* \"solidityLecture/lecture_08.sol\":163:169  _value */\n          dup1\n            /* \"solidityLecture/lecture_08.sol\":159:160  a */\n          0x00\n            /* \"solidityLecture/lecture_08.sol\":159:169  a = _value */\n          dup2\n          swap1\n          sstore\n          pop\n            /* \"solidityLecture/lecture_08.sol\":110:176  function change(uint256 _value) public {... */\n          pop\n          jump\t// out\n            /* \"#utility.yul\":7:146   */\n        tag_15:\n            /* \"#utility.yul\":53:58   */\n          0x00\n            /* \"#utility.yul\":91:97   */\n          dup2\n            /* \"#utility.yul\":78:98   */\n          calldataload\n            /* \"#utility.yul\":69:98   */\n          swap1\n          pop\n            /* \"#utility.yul\":107:140   */\n          tag_17\n            /* \"#utility.yul\":134:139   */\n          dup2\n            /* \"#utility.yul\":107:140   */\n          tag_18\n          jump\t// in\n        tag_17:\n            /* \"#utility.yul\":7:146   */\n          swap3\n          swap2\n          pop\n          pop\n          jump\t// out\n            /* \"#utility.yul\":152:481   */\n        tag_11:\n            /* \"#utility.yul\":211:217   */\n          0x00\n            /* \"#utility.yul\":260:262   */\n          0x20\n            /* \"#utility.yul\":248:257   */\n          dup3\n            /* \"#utility.yul\":239:246   */\n          dup5\n            /* \"#utility.yul\":235:258   */\n          sub\n            /* \"#utility.yul\":231:263   */\n          slt\n            /* \"#utility.yul\":228:347   */\n          iszero\n          tag_20\n          jumpi\n            /* \"#utility.yul\":266:345   */\n          tag_21\n          tag_22\n          jump\t// in\n        tag_21:\n            /* \"#utility.yul\":228:347   */\n        tag_20:\n            /* \"#utility.yul\":386:387   */\n          0x00\n            /* \"#utility.yul\":411:464   */\n          tag_23\n            /* \"#utility.yul\":456:463   */\n          dup5\n            /* \"#utility.yul\":447:453   */\n          dup3\n            /* \"#utility.yul\":436:445   */\n          dup6\n            /* \"#utility.yul\":432:454   */\n          add\n            /* \"#utility.yul\":411:464   */\n          tag_15\n          jump\t// in\n        tag_23:\n            /* \"#utility.yul\":401:464   */\n          swap2\n          pop\n            /* \"#utility.yul\":357:474   */\n          pop\n            /* \"#utility.yul\":152:481   */\n          swap3\n          swap2\n          pop\n          pop\n          jump\t// out\n            /* \"#utility.yul\":487:605   */\n        tag_24:\n            /* \"#utility.yul\":574:598   */\n          tag_26\n            /* \"#utility.yul\":592:597   */\n          dup2\n            /* \"#utility.yul\":574:598   */\n          tag_27\n          jump\t// in\n        tag_26:\n            /* \"#utility.yul\":569:572   */\n          dup3\n            /* \"#utility.yul\":562:599   */\n          mstore\n            /* \"#utility.yul\":487:605   */\n          pop\n          pop\n          jump\t// out\n            /* \"#utility.yul\":611:833   */\n        tag_8:\n            /* \"#utility.yul\":704:708   */\n          0x00\n            /* \"#utility.yul\":742:744   */\n          0x20\n            /* \"#utility.yul\":731:740   */\n          dup3\n            /* \"#utility.yul\":727:745   */\n          add\n            /* \"#utility.yul\":719:745   */\n          swap1\n          pop\n            /* \"#utility.yul\":755:826   */\n          tag_29\n            /* \"#utility.yul\":823:824   */\n          0x00\n            /* \"#utility.yul\":812:821   */\n          dup4\n            /* \"#utility.yul\":808:825   */\n          add\n            /* \"#utility.yul\":799:805   */\n          dup5\n            /* \"#utility.yul\":755:826   */\n          tag_24\n          jump\t// in\n        tag_29:\n            /* \"#utility.yul\":611:833   */\n          swap3\n          swap2\n          pop\n          pop\n          jump\t// out\n            /* \"#utility.yul\":920:997   */\n        tag_27:\n            /* \"#utility.yul\":957:964   */\n          0x00\n            /* \"#utility.yul\":986:991   */\n          dup2\n            /* \"#utility.yul\":975:991   */\n          swap1\n          pop\n            /* \"#utility.yul\":920:997   */\n          swap2\n          swap1\n          pop\n          jump\t// out\n            /* \"#utility.yul\":1126:1243   */\n        tag_22:\n            /* \"#utility.yul\":1235:1236   */\n          0x00\n            /* \"#utility.yul\":1232:1233   */\n          dup1\n            /* \"#utility.yul\":1225:1237   */\n          revert\n            /* \"#utility.yul\":1249:1371   */\n        tag_18:\n            /* \"#utility.yul\":1322:1346   */\n          tag_37\n            /* \"#utility.yul\":1340:1345   */\n          dup2\n            /* \"#utility.yul\":1322:1346   */\n          tag_27\n          jump\t// in\n        tag_37:\n            /* \"#utility.yul\":1315:1320   */\n          dup2\n            /* \"#utility.yul\":1312:1347   */\n          eq\n            /* \"#utility.yul\":1302:1365   */\n          tag_38\n          jumpi\n            /* \"#utility.yul\":1361:1362   */\n          0x00\n            /* \"#utility.yul\":1358:1359   */\n          dup1\n            /* \"#utility.yul\":1351:1363   */\n          revert\n            /* \"#utility.yul\":1302:1365   */\n        tag_38:\n            /* \"#utility.yul\":1249:1371   */\n          pop\n          jump\t// out\n\n        auxdata: 0xa26469706673582212207eef144e341b62904f3fefebae1a95b685cf56e4ab2a51e53d0f8ee4eba00b4064736f6c63430008070033\n    }\n}\n",
				"bytecode": {
					"linkReferences": {},
					"object": "60806040526040516100109061007e565b604051809103906000f08015801561002c573d6000803e3d6000fd5b506000806101000a81548173ffffffffffffffffffffffffffffffffffffffff021916908373ffffffffffffffffffffffffffffffffffffffff16021790555034801561007857600080fd5b5061008b565b610158806104f883390190565b61045e8061009a6000396000f3fe608060405234801561001057600080fd5b506004361061004c5760003560e01c8063055277aa1461005157806348159181146100815780634df7e3d01461009f578063c9002578146100bd575b600080fd5b61006b600480360381019061006691906102f9565b6100d9565b6040516100789190610362565b60405180910390f35b610089610195565b6040516100969190610362565b60405180910390f35b6100a761023b565b6040516100b49190610362565b60405180910390f35b6100d760048036038101906100d291906102f9565b610241565b005b60008060009054906101000a900473ffffffffffffffffffffffffffffffffffffffff1673ffffffffffffffffffffffffffffffffffffffff16630dbe671f6040518163ffffffff1660e01b815260040160206040518083038186803b15801561014257600080fd5b505afa158015610156573d6000803e3d6000fd5b505050506040513d601f19601f8201168201806040525081019061017a9190610326565b6001819055508160015461018e919061037d565b9050919050565b60008060009054906101000a900473ffffffffffffffffffffffffffffffffffffffff1673ffffffffffffffffffffffffffffffffffffffff16630dbe671f6040518163ffffffff1660e01b815260040160206040518083038186803b1580156101fe57600080fd5b505afa158015610212573d6000803e3d6000fd5b505050506040513d601f19601f820116820180604052508101906102369190610326565b905090565b60015481565b60008054906101000a900473ffffffffffffffffffffffffffffffffffffffff1673ffffffffffffffffffffffffffffffffffffffff166375322e47826040518263ffffffff1660e01b815260040161029a9190610362565b600060405180830381600087803b1580156102b457600080fd5b505af11580156102c8573d6000803e3d6000fd5b5050505050565b6000813590506102de81610411565b92915050565b6000815190506102f381610411565b92915050565b60006020828403121561030f5761030e61040c565b5b600061031d848285016102cf565b91505092915050565b60006020828403121561033c5761033b61040c565b5b600061034a848285016102e4565b91505092915050565b61035c816103d3565b82525050565b60006020820190506103776000830184610353565b92915050565b6000610388826103d3565b9150610393836103d3565b9250827fffffffffffffffffffffffffffffffffffffffffffffffffffffffffffffffff038211156103c8576103c76103dd565b5b828201905092915050565b6000819050919050565b7f4e487b7100000000000000000000000000000000000000000000000000000000600052601160045260246000fd5b600080fd5b61041a816103d3565b811461042557600080fd5b5056fea264697066735822122006b19506016c6eeeaf42435137a858b698b01a401650e55c044b2e52fdddce8d64736f6c634300080700336080604052600560005534801561001557600080fd5b50610133806100256000396000f3fe6080604052348015600f57600080fd5b506004361060325760003560e01c80630dbe671f14603757806375322e47146051575b600080fd5b603d6069565b6040516048919060c1565b60405180910390f35b6067600480360381019060639190608c565b606f565b005b60005481565b8060008190555050565b60008135905060868160e9565b92915050565b600060208284031215609f57609e60e4565b5b600060ab848285016079565b91505092915050565b60bb8160da565b82525050565b600060208201905060d4600083018460b4565b92915050565b6000819050919050565b600080fd5b60f08160da565b811460fa57600080fd5b5056fea26469706673582212207eef144e341b62904f3fefebae1a95b685cf56e4ab2a51e53d0f8ee4eba00b4064736f6c63430008070033",
					"opcodes": "PUSH1 0x80 PUSH1 0x40 MSTORE PUSH1 0x40 MLOAD PUSH2 0x10 SWAP1 PUSH2 0x7E JUMP JUMPDEST PUSH1 0x40 MLOAD DUP1 SWAP2 SUB SWAP1 PUSH1 0x0 CREATE DUP1 ISZERO DUP1 ISZERO PUSH2 0x2C JUMPI RETURNDATASIZE PUSH1 0x0 DUP1 RETURNDATACOPY RETURNDATASIZE PUSH1 0x0 REVERT JUMPDEST POP PUSH1 0x0 DUP1 PUSH2 0x100 EXP DUP2 SLOAD DUP2 PUSH20 0xFFFFFFFFFFFFFFFFFFFFFFFFFFFFFFFFFFFFFFFF MUL NOT AND SWAP1 DUP4 PUSH20 0xFFFFFFFFFFFFFFFFFFFFFFFFFFFFFFFFFFFFFFFF AND MUL OR SWAP1 SSTORE POP CALLVALUE DUP1 ISZERO PUSH2 0x78 JUMPI PUSH1 0x0 DUP1 REVERT JUMPDEST POP PUSH2 0x8B JUMP JUMPDEST PUSH2 0x158 DUP1 PUSH2 0x4F8 DUP4 CODECOPY ADD SWAP1 JUMP JUMPDEST PUSH2 0x45E DUP1 PUSH2 0x9A PUSH1 0x0 CODECOPY PUSH1 0x0 RETURN INVALID PUSH1 0x80 PUSH1 0x40 MSTORE CALLVALUE DUP1 ISZERO PUSH2 0x10 JUMPI PUSH1 0x0 DUP1 REVERT JUMPDEST POP PUSH1 0x4 CALLDATASIZE LT PUSH2 0x4C JUMPI PUSH1 0x0 CALLDATALOAD PUSH1 0xE0 SHR DUP1 PUSH4 0x55277AA EQ PUSH2 0x51 JUMPI DUP1 PUSH4 0x48159181 EQ PUSH2 0x81 JUMPI DUP1 PUSH4 0x4DF7E3D0 EQ PUSH2 0x9F JUMPI DUP1 PUSH4 0xC9002578 EQ PUSH2 0xBD JUMPI JUMPDEST PUSH1 0x0 DUP1 REVERT JUMPDEST PUSH2 0x6B PUSH1 0x4 DUP1 CALLDATASIZE SUB DUP2 ADD SWAP1 PUSH2 0x66 SWAP2 SWAP1 PUSH2 0x2F9 JUMP JUMPDEST PUSH2 0xD9 JUMP JUMPDEST PUSH1 0x40 MLOAD PUSH2 0x78 SWAP2 SWAP1 PUSH2 0x362 JUMP JUMPDEST PUSH1 0x40 MLOAD DUP1 SWAP2 SUB SWAP1 RETURN JUMPDEST PUSH2 0x89 PUSH2 0x195 JUMP JUMPDEST PUSH1 0x40 MLOAD PUSH2 0x96 SWAP2 SWAP1 PUSH2 0x362 JUMP JUMPDEST PUSH1 0x40 MLOAD DUP1 SWAP2 SUB SWAP1 RETURN JUMPDEST PUSH2 0xA7 PUSH2 0x23B JUMP JUMPDEST PUSH1 0x40 MLOAD PUSH2 0xB4 SWAP2 SWAP1 PUSH2 0x362 JUMP JUMPDEST PUSH1 0x40 MLOAD DUP1 SWAP2 SUB SWAP1 RETURN JUMPDEST PUSH2 0xD7 PUSH1 0x4 DUP1 CALLDATASIZE SUB DUP2 ADD SWAP1 PUSH2 0xD2 SWAP2 SWAP1 PUSH2 0x2F9 JUMP JUMPDEST PUSH2 0x241 JUMP JUMPDEST STOP JUMPDEST PUSH1 0x0 DUP1 PUSH1 0x0 SWAP1 SLOAD SWAP1 PUSH2 0x100 EXP SWAP1 DIV PUSH20 0xFFFFFFFFFFFFFFFFFFFFFFFFFFFFFFFFFFFFFFFF AND PUSH20 0xFFFFFFFFFFFFFFFFFFFFFFFFFFFFFFFFFFFFFFFF AND PUSH4 0xDBE671F PUSH1 0x40 MLOAD DUP2 PUSH4 0xFFFFFFFF AND PUSH1 0xE0 SHL DUP2 MSTORE PUSH1 0x4 ADD PUSH1 0x20 PUSH1 0x40 MLOAD DUP1 DUP4 SUB DUP2 DUP7 DUP1 EXTCODESIZE ISZERO DUP1 ISZERO PUSH2 0x142 JUMPI PUSH1 0x0 DUP1 REVERT JUMPDEST POP GAS STATICCALL ISZERO DUP1 ISZERO PUSH2 0x156 JUMPI RETURNDATASIZE PUSH1 0x0 DUP1 RETURNDATACOPY RETURNDATASIZE PUSH1 0x0 REVERT JUMPDEST POP POP POP POP PUSH1 0x40 MLOAD RETURNDATASIZE PUSH1 0x1F NOT PUSH1 0x1F DUP3 ADD AND DUP3 ADD DUP1 PUSH1 0x40 MSTORE POP DUP2 ADD SWAP1 PUSH2 0x17A SWAP2 SWAP1 PUSH2 0x326 JUMP JUMPDEST PUSH1 0x1 DUP2 SWAP1 SSTORE POP DUP2 PUSH1 0x1 SLOAD PUSH2 0x18E SWAP2 SWAP1 PUSH2 0x37D JUMP JUMPDEST SWAP1 POP SWAP2 SWAP1 POP JUMP JUMPDEST PUSH1 0x0 DUP1 PUSH1 0x0 SWAP1 SLOAD SWAP1 PUSH2 0x100 EXP SWAP1 DIV PUSH20 0xFFFFFFFFFFFFFFFFFFFFFFFFFFFFFFFFFFFFFFFF AND PUSH20 0xFFFFFFFFFFFFFFFFFFFFFFFFFFFFFFFFFFFFFFFF AND PUSH4 0xDBE671F PUSH1 0x40 MLOAD DUP2 PUSH4 0xFFFFFFFF AND PUSH1 0xE0 SHL DUP2 MSTORE PUSH1 0x4 ADD PUSH1 0x20 PUSH1 0x40 MLOAD DUP1 DUP4 SUB DUP2 DUP7 DUP1 EXTCODESIZE ISZERO DUP1 ISZERO PUSH2 0x1FE JUMPI PUSH1 0x0 DUP1 REVERT JUMPDEST POP GAS STATICCALL ISZERO DUP1 ISZERO PUSH2 0x212 JUMPI RETURNDATASIZE PUSH1 0x0 DUP1 RETURNDATACOPY RETURNDATASIZE PUSH1 0x0 REVERT JUMPDEST POP POP POP POP PUSH1 0x40 MLOAD RETURNDATASIZE PUSH1 0x1F NOT PUSH1 0x1F DUP3 ADD AND DUP3 ADD DUP1 PUSH1 0x40 MSTORE POP DUP2 ADD SWAP1 PUSH2 0x236 SWAP2 SWAP1 PUSH2 0x326 JUMP JUMPDEST SWAP1 POP SWAP1 JUMP JUMPDEST PUSH1 0x1 SLOAD DUP2 JUMP JUMPDEST PUSH1 0x0 DUP1 SLOAD SWAP1 PUSH2 0x100 EXP SWAP1 DIV PUSH20 0xFFFFFFFFFFFFFFFFFFFFFFFFFFFFFFFFFFFFFFFF AND PUSH20 0xFFFFFFFFFFFFFFFFFFFFFFFFFFFFFFFFFFFFFFFF AND PUSH4 0x75322E47 DUP3 PUSH1 0x40 MLOAD DUP3 PUSH4 0xFFFFFFFF AND PUSH1 0xE0 SHL DUP2 MSTORE PUSH1 0x4 ADD PUSH2 0x29A SWAP2 SWAP1 PUSH2 0x362 JUMP JUMPDEST PUSH1 0x0 PUSH1 0x40 MLOAD DUP1 DUP4 SUB DUP2 PUSH1 0x0 DUP8 DUP1 EXTCODESIZE ISZERO DUP1 ISZERO PUSH2 0x2B4 JUMPI PUSH1 0x0 DUP1 REVERT JUMPDEST POP GAS CALL ISZERO DUP1 ISZERO PUSH2 0x2C8 JUMPI RETURNDATASIZE PUSH1 0x0 DUP1 RETURNDATACOPY RETURNDATASIZE PUSH1 0x0 REVERT JUMPDEST POP POP POP POP POP JUMP JUMPDEST PUSH1 0x0 DUP2 CALLDATALOAD SWAP1 POP PUSH2 0x2DE DUP2 PUSH2 0x411 JUMP JUMPDEST SWAP3 SWAP2 POP POP JUMP JUMPDEST PUSH1 0x0 DUP2 MLOAD SWAP1 POP PUSH2 0x2F3 DUP2 PUSH2 0x411 JUMP JUMPDEST SWAP3 SWAP2 POP POP JUMP JUMPDEST PUSH1 0x0 PUSH1 0x20 DUP3 DUP5 SUB SLT ISZERO PUSH2 0x30F JUMPI PUSH2 0x30E PUSH2 0x40C JUMP JUMPDEST JUMPDEST PUSH1 0x0 PUSH2 0x31D DUP5 DUP3 DUP6 ADD PUSH2 0x2CF JUMP JUMPDEST SWAP2 POP POP SWAP3 SWAP2 POP POP JUMP JUMPDEST PUSH1 0x0 PUSH1 0x20 DUP3 DUP5 SUB SLT ISZERO PUSH2 0x33C JUMPI PUSH2 0x33B PUSH2 0x40C JUMP JUMPDEST JUMPDEST PUSH1 0x0 PUSH2 0x34A DUP5 DUP3 DUP6 ADD PUSH2 0x2E4 JUMP JUMPDEST SWAP2 POP POP SWAP3 SWAP2 POP POP JUMP JUMPDEST PUSH2 0x35C DUP2 PUSH2 0x3D3 JUMP JUMPDEST DUP3 MSTORE POP POP JUMP JUMPDEST PUSH1 0x0 PUSH1 0x20 DUP3 ADD SWAP1 POP PUSH2 0x377 PUSH1 0x0 DUP4 ADD DUP5 PUSH2 0x353 JUMP JUMPDEST SWAP3 SWAP2 POP POP JUMP JUMPDEST PUSH1 0x0 PUSH2 0x388 DUP3 PUSH2 0x3D3 JUMP JUMPDEST SWAP2 POP PUSH2 0x393 DUP4 PUSH2 0x3D3 JUMP JUMPDEST SWAP3 POP DUP3 PUSH32 0xFFFFFFFFFFFFFFFFFFFFFFFFFFFFFFFFFFFFFFFFFFFFFFFFFFFFFFFFFFFFFFFF SUB DUP3 GT ISZERO PUSH2 0x3C8 JUMPI PUSH2 0x3C7 PUSH2 0x3DD JUMP JUMPDEST JUMPDEST DUP3 DUP3 ADD SWAP1 POP SWAP3 SWAP2 POP POP JUMP JUMPDEST PUSH1 0x0 DUP2 SWAP1 POP SWAP2 SWAP1 POP JUMP JUMPDEST PUSH32 0x4E487B7100000000000000000000000000000000000000000000000000000000 PUSH1 0x0 MSTORE PUSH1 0x11 PUSH1 0x4 MSTORE PUSH1 0x24 PUSH1 0x0 REVERT JUMPDEST PUSH1 0x0 DUP1 REVERT JUMPDEST PUSH2 0x41A DUP2 PUSH2 0x3D3 JUMP JUMPDEST DUP2 EQ PUSH2 0x425 JUMPI PUSH1 0x0 DUP1 REVERT JUMPDEST POP JUMP INVALID LOG2 PUSH5 0x6970667358 0x22 SLT KECCAK256 MOD 0xB1 SWAP6 MOD ADD PUSH13 0x6EEEAF42435137A858B698B01A BLOCKHASH AND POP 0xE5 0x5C DIV 0x4B 0x2E MSTORE REVERT 0xDD 0xCE DUP14 PUSH5 0x736F6C6343 STOP ADDMOD SMOD STOP CALLER PUSH1 0x80 PUSH1 0x40 MSTORE PUSH1 0x5 PUSH1 0x0 SSTORE CALLVALUE DUP1 ISZERO PUSH2 0x15 JUMPI PUSH1 0x0 DUP1 REVERT JUMPDEST POP PUSH2 0x133 DUP1 PUSH2 0x25 PUSH1 0x0 CODECOPY PUSH1 0x0 RETURN INVALID PUSH1 0x80 PUSH1 0x40 MSTORE CALLVALUE DUP1 ISZERO PUSH1 0xF JUMPI PUSH1 0x0 DUP1 REVERT JUMPDEST POP PUSH1 0x4 CALLDATASIZE LT PUSH1 0x32 JUMPI PUSH1 0x0 CALLDATALOAD PUSH1 0xE0 SHR DUP1 PUSH4 0xDBE671F EQ PUSH1 0x37 JUMPI DUP1 PUSH4 0x75322E47 EQ PUSH1 0x51 JUMPI JUMPDEST PUSH1 0x0 DUP1 REVERT JUMPDEST PUSH1 0x3D PUSH1 0x69 JUMP JUMPDEST PUSH1 0x40 MLOAD PUSH1 0x48 SWAP2 SWAP1 PUSH1 0xC1 JUMP JUMPDEST PUSH1 0x40 MLOAD DUP1 SWAP2 SUB SWAP1 RETURN JUMPDEST PUSH1 0x67 PUSH1 0x4 DUP1 CALLDATASIZE SUB DUP2 ADD SWAP1 PUSH1 0x63 SWAP2 SWAP1 PUSH1 0x8C JUMP JUMPDEST PUSH1 0x6F JUMP JUMPDEST STOP JUMPDEST PUSH1 0x0 SLOAD DUP2 JUMP JUMPDEST DUP1 PUSH1 0x0 DUP2 SWAP1 SSTORE POP POP JUMP JUMPDEST PUSH1 0x0 DUP2 CALLDATALOAD SWAP1 POP PUSH1 0x86 DUP2 PUSH1 0xE9 JUMP JUMPDEST SWAP3 SWAP2 POP POP JUMP JUMPDEST PUSH1 0x0 PUSH1 0x20 DUP3 DUP5 SUB SLT ISZERO PUSH1 0x9F JUMPI PUSH1 0x9E PUSH1 0xE4 JUMP JUMPDEST JUMPDEST PUSH1 0x0 PUSH1 0xAB DUP5 DUP3 DUP6 ADD PUSH1 0x79 JUMP JUMPDEST SWAP2 POP POP SWAP3 SWAP2 POP POP JUMP JUMPDEST PUSH1 0xBB DUP2 PUSH1 0xDA JUMP JUMPDEST DUP3 MSTORE POP POP JUMP JUMPDEST PUSH1 0x0 PUSH1 0x20 DUP3 ADD SWAP1 POP PUSH1 0xD4 PUSH1 0x0 DUP4 ADD DUP5 PUSH1 0xB4 JUMP JUMPDEST SWAP3 SWAP2 POP POP JUMP JUMPDEST PUSH1 0x0 DUP2 SWAP1 POP SWAP2 SWAP1 POP JUMP JUMPDEST PUSH1 0x0 DUP1 REVERT JUMPDEST PUSH1 0xF0 DUP2 PUSH1 0xDA JUMP JUMPDEST DUP2 EQ PUSH1 0xFA JUMPI PUSH1 0x0 DUP1 REVERT JUMPDEST POP JUMP INVALID LOG2 PUSH5 0x6970667358 0x22 SLT KECCAK256 PUSH31 0xEF144E341B62904F3FEFEBAE1A95B685CF56E4AB2A51E53D0F8EE4EBA00B40 PUSH5 0x736F6C6343 STOP ADDMOD SMOD STOP CALLER "
				},
				"gasEstimates": {
					"creation": {
						"codeDepositCost": "223600",
						"executionCost": "infinite",
						"totalCost": "infinite"
					},
					"external": {
						"b()": "2451",
						"change_a(uint256)": "infinite",
						"change_aa(uint256)": "infinite",
						"get_a()": "infinite"
					}
				},
				"methodIdentifiers": {
					"b()": "4df7e3d0",
					"change_a(uint256)": "c9002578",
					"change_aa(uint256)": "055277aa",
					"get_a()": "48159181"
				}
			},
			"storageLayout": {
				"storage": [
					{
						"astId": 22,
						"contract": "solidityLecture/lecture_08.sol:B",
						"label": "instance",
						"offset": 0,
						"slot": "0",
						"type": "t_contract(A)15"
					},
					{
						"astId": 24,
						"contract": "solidityLecture/lecture_08.sol:B",
						"label": "b",
						"offset": 0,
						"slot": "1",
						"type": "t_uint256"
					}
				],
				"types": {
					"t_contract(A)15": {
						"encoding": "inplace",
						"label": "contract A",
						"numberOfBytes": "20"
					},
					"t_uint256": {
						"encoding": "inplace",
						"label": "uint256",
						"numberOfBytes": "32"
					}
				}
			},
			"userdoc": {
				"kind": "user",
				"methods": {},
				"version": 1
			}
		}
	}
}