{
	"lecture/lec41-2.sol": {
		"lec41": {
			"abi": [
				{
					"anonymous": false,
					"inputs": [
						{
							"indexed": false,
							"internalType": "string",
							"name": "_str",
							"type": "string"
						}
					],
					"name": "Hi",
					"type": "event"
				},
				{
					"inputs": [],
					"name": "a",
					"outputs": [
						{
							"internalType": "uint8",
							"name": "",
							"type": "uint8"
						}
					],
					"stateMutability": "view",
					"type": "function"
				},
				{
					"inputs": [
						{
							"internalType": "uint8",
							"name": "_num1",
							"type": "uint8"
						},
						{
							"internalType": "uint8",
							"name": "_num2",
							"type": "uint8"
						}
					],
					"name": "becomeOverflow",
					"outputs": [],
					"stateMutability": "nonpayable",
					"type": "function"
				},
				{
					"inputs": [],
					"name": "hi",
					"outputs": [],
					"stateMutability": "nonpayable",
					"type": "function"
				}
			],
			"devdoc": {
				"kind": "dev",
				"methods": {},
				"version": 1
			},
			"evm": {
				"assembly": "    /* \"lecture/lec41-2.sol\":94:323  contract lec41 is HiSolidity {... */\n  mstore(0x40, 0x80)\n  callvalue\n  dup1\n  iszero\n  tag_1\n  jumpi\n  0x00\n  dup1\n  revert\ntag_1:\n  pop\n  dataSize(sub_0)\n  dup1\n  dataOffset(sub_0)\n  0x00\n  codecopy\n  0x00\n  return\nstop\n\nsub_0: assembly {\n        /* \"lecture/lec41-2.sol\":94:323  contract lec41 is HiSolidity {... */\n      mstore(0x40, 0x80)\n      callvalue\n      dup1\n      iszero\n      tag_1\n      jumpi\n      0x00\n      dup1\n      revert\n    tag_1:\n      pop\n      jumpi(tag_2, lt(calldatasize, 0x04))\n      shr(0xe0, calldataload(0x00))\n      dup1\n      0x0dbe671f\n      eq\n      tag_3\n      jumpi\n      dup1\n      0x5d2b6e03\n      eq\n      tag_4\n      jumpi\n      dup1\n      0xa99dca3f\n      eq\n      tag_5\n      jumpi\n    tag_2:\n      0x00\n      dup1\n      revert\n        /* \"lecture/lec41-2.sol\":159:173  uint8 public a */\n    tag_3:\n      tag_6\n      tag_7\n      jump\t// in\n    tag_6:\n      mload(0x40)\n      tag_8\n      swap2\n      swap1\n      tag_9\n      jump\t// in\n    tag_8:\n      mload(0x40)\n      dup1\n      swap2\n      sub\n      swap1\n      return\n        /* \"lecture/lec41-2.sol\":185:321  function becomeOverflow(uint8 _num1,uint8 _num2) public  {... */\n    tag_4:\n      tag_10\n      0x04\n      dup1\n      calldatasize\n      sub\n      dup2\n      add\n      swap1\n      tag_11\n      swap2\n      swap1\n      tag_12\n      jump\t// in\n    tag_11:\n      tag_13\n      jump\t// in\n    tag_10:\n      stop\n        /* \"lecture/lec41-1.sol\":311:374  function hi() public {... */\n    tag_5:\n      tag_14\n      tag_15\n      jump\t// in\n    tag_14:\n      stop\n        /* \"lecture/lec41-2.sol\":159:173  uint8 public a */\n    tag_7:\n      0x00\n      dup1\n      sload\n      swap1\n      0x0100\n      exp\n      swap1\n      div\n      0xff\n      and\n      dup2\n      jump\t// out\n        /* \"lecture/lec41-2.sol\":185:321  function becomeOverflow(uint8 _num1,uint8 _num2) public  {... */\n    tag_13:\n        /* \"lecture/lec41-2.sol\":288:314  SafeMath.add(_num1 ,_num2) */\n      tag_17\n        /* \"lecture/lec41-2.sol\":301:306  _num1 */\n      dup3\n        /* \"lecture/lec41-2.sol\":308:313  _num2 */\n      dup3\n        /* \"lecture/lec41-2.sol\":288:300  SafeMath.add */\n      tag_18\n        /* \"lecture/lec41-2.sol\":288:314  SafeMath.add(_num1 ,_num2) */\n      jump\t// in\n    tag_17:\n        /* \"lecture/lec41-2.sol\":284:285  a */\n      0x00\n      dup1\n        /* \"lecture/lec41-2.sol\":284:314  a = SafeMath.add(_num1 ,_num2) */\n      0x0100\n      exp\n      dup2\n      sload\n      dup2\n      0xff\n      mul\n      not\n      and\n      swap1\n      dup4\n      0xff\n      and\n      mul\n      or\n      swap1\n      sstore\n      pop\n        /* \"lecture/lec41-2.sol\":185:321  function becomeOverflow(uint8 _num1,uint8 _num2) public  {... */\n      pop\n      pop\n      jump\t// out\n        /* \"lecture/lec41-1.sol\":311:374  function hi() public {... */\n    tag_15:\n        /* \"lecture/lec41-1.sol\":347:367  Hi(\"Hello solidity\") */\n      0x288d740d3b11a36c8526119855345e3ba2aee438370d264289ea6dfb76294fd0\n      mload(0x40)\n      tag_20\n      swap1\n      tag_21\n      jump\t// in\n    tag_20:\n      mload(0x40)\n      dup1\n      swap2\n      sub\n      swap1\n      log1\n        /* \"lecture/lec41-1.sol\":311:374  function hi() public {... */\n      jump\t// out\n        /* \"lecture/lec41-1.sol\":105:254  function add(uint8 a, uint8 b) internal pure returns (uint8) {... */\n    tag_18:\n        /* \"lecture/lec41-1.sol\":159:164  uint8 */\n      0x00\n        /* \"lecture/lec41-1.sol\":191:192  a */\n      dup3\n        /* \"lecture/lec41-1.sol\":184:192  a+b >= a */\n      0xff\n      and\n        /* \"lecture/lec41-1.sol\":186:187  b */\n      dup3\n        /* \"lecture/lec41-1.sol\":184:185  a */\n      dup5\n        /* \"lecture/lec41-1.sol\":184:187  a+b */\n      tag_23\n      swap2\n      swap1\n      tag_24\n      jump\t// in\n    tag_23:\n        /* \"lecture/lec41-1.sol\":184:192  a+b >= a */\n      0xff\n      and\n      lt\n      iszero\n        /* \"lecture/lec41-1.sol\":176:225  require(a+b >= a , \"SafeMath: addition overflow\") */\n      tag_25\n      jumpi\n      mload(0x40)\n      0x08c379a000000000000000000000000000000000000000000000000000000000\n      dup2\n      mstore\n      0x04\n      add\n      tag_26\n      swap1\n      tag_27\n      jump\t// in\n    tag_26:\n      mload(0x40)\n      dup1\n      swap2\n      sub\n      swap1\n      revert\n    tag_25:\n        /* \"lecture/lec41-1.sol\":246:247  b */\n      dup2\n        /* \"lecture/lec41-1.sol\":242:243  a */\n      dup4\n        /* \"lecture/lec41-1.sol\":242:247  a + b */\n      tag_28\n      swap2\n      swap1\n      tag_24\n      jump\t// in\n    tag_28:\n        /* \"lecture/lec41-1.sol\":235:247  return a + b */\n      swap1\n      pop\n        /* \"lecture/lec41-1.sol\":105:254  function add(uint8 a, uint8 b) internal pure returns (uint8) {... */\n      swap3\n      swap2\n      pop\n      pop\n      jump\t// out\n        /* \"#utility.yul\":7:142   */\n    tag_30:\n        /* \"#utility.yul\":51:56   */\n      0x00\n        /* \"#utility.yul\":89:95   */\n      dup2\n        /* \"#utility.yul\":76:96   */\n      calldataload\n        /* \"#utility.yul\":67:96   */\n      swap1\n      pop\n        /* \"#utility.yul\":105:136   */\n      tag_32\n        /* \"#utility.yul\":130:135   */\n      dup2\n        /* \"#utility.yul\":105:136   */\n      tag_33\n      jump\t// in\n    tag_32:\n        /* \"#utility.yul\":7:142   */\n      swap3\n      swap2\n      pop\n      pop\n      jump\t// out\n        /* \"#utility.yul\":148:614   */\n    tag_12:\n        /* \"#utility.yul\":212:218   */\n      0x00\n        /* \"#utility.yul\":220:226   */\n      dup1\n        /* \"#utility.yul\":269:271   */\n      0x40\n        /* \"#utility.yul\":257:266   */\n      dup4\n        /* \"#utility.yul\":248:255   */\n      dup6\n        /* \"#utility.yul\":244:267   */\n      sub\n        /* \"#utility.yul\":240:272   */\n      slt\n        /* \"#utility.yul\":237:356   */\n      iszero\n      tag_35\n      jumpi\n        /* \"#utility.yul\":275:354   */\n      tag_36\n      tag_37\n      jump\t// in\n    tag_36:\n        /* \"#utility.yul\":237:356   */\n    tag_35:\n        /* \"#utility.yul\":395:396   */\n      0x00\n        /* \"#utility.yul\":420:471   */\n      tag_38\n        /* \"#utility.yul\":463:470   */\n      dup6\n        /* \"#utility.yul\":454:460   */\n      dup3\n        /* \"#utility.yul\":443:452   */\n      dup7\n        /* \"#utility.yul\":439:461   */\n      add\n        /* \"#utility.yul\":420:471   */\n      tag_30\n      jump\t// in\n    tag_38:\n        /* \"#utility.yul\":410:471   */\n      swap3\n      pop\n        /* \"#utility.yul\":366:481   */\n      pop\n        /* \"#utility.yul\":520:522   */\n      0x20\n        /* \"#utility.yul\":546:597   */\n      tag_39\n        /* \"#utility.yul\":589:596   */\n      dup6\n        /* \"#utility.yul\":580:586   */\n      dup3\n        /* \"#utility.yul\":569:578   */\n      dup7\n        /* \"#utility.yul\":565:587   */\n      add\n        /* \"#utility.yul\":546:597   */\n      tag_30\n      jump\t// in\n    tag_39:\n        /* \"#utility.yul\":536:597   */\n      swap2\n      pop\n        /* \"#utility.yul\":491:607   */\n      pop\n        /* \"#utility.yul\":148:614   */\n      swap3\n      pop\n      swap3\n      swap1\n      pop\n      jump\t// out\n        /* \"#utility.yul\":620:986   */\n    tag_40:\n        /* \"#utility.yul\":762:765   */\n      0x00\n        /* \"#utility.yul\":783:850   */\n      tag_42\n        /* \"#utility.yul\":847:849   */\n      0x1b\n        /* \"#utility.yul\":842:845   */\n      dup4\n        /* \"#utility.yul\":783:850   */\n      tag_43\n      jump\t// in\n    tag_42:\n        /* \"#utility.yul\":776:850   */\n      swap2\n      pop\n        /* \"#utility.yul\":859:952   */\n      tag_44\n        /* \"#utility.yul\":948:951   */\n      dup3\n        /* \"#utility.yul\":859:952   */\n      tag_45\n      jump\t// in\n    tag_44:\n        /* \"#utility.yul\":977:979   */\n      0x20\n        /* \"#utility.yul\":972:975   */\n      dup3\n        /* \"#utility.yul\":968:980   */\n      add\n        /* \"#utility.yul\":961:980   */\n      swap1\n      pop\n        /* \"#utility.yul\":620:986   */\n      swap2\n      swap1\n      pop\n      jump\t// out\n        /* \"#utility.yul\":992:1358   */\n    tag_46:\n        /* \"#utility.yul\":1134:1137   */\n      0x00\n        /* \"#utility.yul\":1155:1222   */\n      tag_48\n        /* \"#utility.yul\":1219:1221   */\n      0x0e\n        /* \"#utility.yul\":1214:1217   */\n      dup4\n        /* \"#utility.yul\":1155:1222   */\n      tag_43\n      jump\t// in\n    tag_48:\n        /* \"#utility.yul\":1148:1222   */\n      swap2\n      pop\n        /* \"#utility.yul\":1231:1324   */\n      tag_49\n        /* \"#utility.yul\":1320:1323   */\n      dup3\n        /* \"#utility.yul\":1231:1324   */\n      tag_50\n      jump\t// in\n    tag_49:\n        /* \"#utility.yul\":1349:1351   */\n      0x20\n        /* \"#utility.yul\":1344:1347   */\n      dup3\n        /* \"#utility.yul\":1340:1352   */\n      add\n        /* \"#utility.yul\":1333:1352   */\n      swap1\n      pop\n        /* \"#utility.yul\":992:1358   */\n      swap2\n      swap1\n      pop\n      jump\t// out\n        /* \"#utility.yul\":1364:1476   */\n    tag_51:\n        /* \"#utility.yul\":1447:1469   */\n      tag_53\n        /* \"#utility.yul\":1463:1468   */\n      dup2\n        /* \"#utility.yul\":1447:1469   */\n      tag_54\n      jump\t// in\n    tag_53:\n        /* \"#utility.yul\":1442:1445   */\n      dup3\n        /* \"#utility.yul\":1435:1470   */\n      mstore\n        /* \"#utility.yul\":1364:1476   */\n      pop\n      pop\n      jump\t// out\n        /* \"#utility.yul\":1482:1901   */\n    tag_27:\n        /* \"#utility.yul\":1648:1652   */\n      0x00\n        /* \"#utility.yul\":1686:1688   */\n      0x20\n        /* \"#utility.yul\":1675:1684   */\n      dup3\n        /* \"#utility.yul\":1671:1689   */\n      add\n        /* \"#utility.yul\":1663:1689   */\n      swap1\n      pop\n        /* \"#utility.yul\":1735:1744   */\n      dup2\n        /* \"#utility.yul\":1729:1733   */\n      dup2\n        /* \"#utility.yul\":1725:1745   */\n      sub\n        /* \"#utility.yul\":1721:1722   */\n      0x00\n        /* \"#utility.yul\":1710:1719   */\n      dup4\n        /* \"#utility.yul\":1706:1723   */\n      add\n        /* \"#utility.yul\":1699:1746   */\n      mstore\n        /* \"#utility.yul\":1763:1894   */\n      tag_56\n        /* \"#utility.yul\":1889:1893   */\n      dup2\n        /* \"#utility.yul\":1763:1894   */\n      tag_40\n      jump\t// in\n    tag_56:\n        /* \"#utility.yul\":1755:1894   */\n      swap1\n      pop\n        /* \"#utility.yul\":1482:1901   */\n      swap2\n      swap1\n      pop\n      jump\t// out\n        /* \"#utility.yul\":1907:2326   */\n    tag_21:\n        /* \"#utility.yul\":2073:2077   */\n      0x00\n        /* \"#utility.yul\":2111:2113   */\n      0x20\n        /* \"#utility.yul\":2100:2109   */\n      dup3\n        /* \"#utility.yul\":2096:2114   */\n      add\n        /* \"#utility.yul\":2088:2114   */\n      swap1\n      pop\n        /* \"#utility.yul\":2160:2169   */\n      dup2\n        /* \"#utility.yul\":2154:2158   */\n      dup2\n        /* \"#utility.yul\":2150:2170   */\n      sub\n        /* \"#utility.yul\":2146:2147   */\n      0x00\n        /* \"#utility.yul\":2135:2144   */\n      dup4\n        /* \"#utility.yul\":2131:2148   */\n      add\n        /* \"#utility.yul\":2124:2171   */\n      mstore\n        /* \"#utility.yul\":2188:2319   */\n      tag_58\n        /* \"#utility.yul\":2314:2318   */\n      dup2\n        /* \"#utility.yul\":2188:2319   */\n      tag_46\n      jump\t// in\n    tag_58:\n        /* \"#utility.yul\":2180:2319   */\n      swap1\n      pop\n        /* \"#utility.yul\":1907:2326   */\n      swap2\n      swap1\n      pop\n      jump\t// out\n        /* \"#utility.yul\":2332:2546   */\n    tag_9:\n        /* \"#utility.yul\":2421:2425   */\n      0x00\n        /* \"#utility.yul\":2459:2461   */\n      0x20\n        /* \"#utility.yul\":2448:2457   */\n      dup3\n        /* \"#utility.yul\":2444:2462   */\n      add\n        /* \"#utility.yul\":2436:2462   */\n      swap1\n      pop\n        /* \"#utility.yul\":2472:2539   */\n      tag_60\n        /* \"#utility.yul\":2536:2537   */\n      0x00\n        /* \"#utility.yul\":2525:2534   */\n      dup4\n        /* \"#utility.yul\":2521:2538   */\n      add\n        /* \"#utility.yul\":2512:2518   */\n      dup5\n        /* \"#utility.yul\":2472:2539   */\n      tag_51\n      jump\t// in\n    tag_60:\n        /* \"#utility.yul\":2332:2546   */\n      swap3\n      swap2\n      pop\n      pop\n      jump\t// out\n        /* \"#utility.yul\":2633:2802   */\n    tag_43:\n        /* \"#utility.yul\":2717:2728   */\n      0x00\n        /* \"#utility.yul\":2751:2757   */\n      dup3\n        /* \"#utility.yul\":2746:2749   */\n      dup3\n        /* \"#utility.yul\":2739:2758   */\n      mstore\n        /* \"#utility.yul\":2791:2795   */\n      0x20\n        /* \"#utility.yul\":2786:2789   */\n      dup3\n        /* \"#utility.yul\":2782:2796   */\n      add\n        /* \"#utility.yul\":2767:2796   */\n      swap1\n      pop\n        /* \"#utility.yul\":2633:2802   */\n      swap3\n      swap2\n      pop\n      pop\n      jump\t// out\n        /* \"#utility.yul\":2808:3045   */\n    tag_24:\n        /* \"#utility.yul\":2846:2849   */\n      0x00\n        /* \"#utility.yul\":2865:2883   */\n      tag_65\n        /* \"#utility.yul\":2881:2882   */\n      dup3\n        /* \"#utility.yul\":2865:2883   */\n      tag_54\n      jump\t// in\n    tag_65:\n        /* \"#utility.yul\":2860:2883   */\n      swap2\n      pop\n        /* \"#utility.yul\":2897:2915   */\n      tag_66\n        /* \"#utility.yul\":2913:2914   */\n      dup4\n        /* \"#utility.yul\":2897:2915   */\n      tag_54\n      jump\t// in\n    tag_66:\n        /* \"#utility.yul\":2892:2915   */\n      swap3\n      pop\n        /* \"#utility.yul\":2987:2988   */\n      dup3\n        /* \"#utility.yul\":2981:2985   */\n      0xff\n        /* \"#utility.yul\":2977:2989   */\n      sub\n        /* \"#utility.yul\":2974:2975   */\n      dup3\n        /* \"#utility.yul\":2971:2990   */\n      gt\n        /* \"#utility.yul\":2968:3013   */\n      iszero\n      tag_67\n      jumpi\n        /* \"#utility.yul\":2993:3011   */\n      tag_68\n      tag_69\n      jump\t// in\n    tag_68:\n        /* \"#utility.yul\":2968:3013   */\n    tag_67:\n        /* \"#utility.yul\":3037:3038   */\n      dup3\n        /* \"#utility.yul\":3034:3035   */\n      dup3\n        /* \"#utility.yul\":3030:3039   */\n      add\n        /* \"#utility.yul\":3023:3039   */\n      swap1\n      pop\n        /* \"#utility.yul\":2808:3045   */\n      swap3\n      swap2\n      pop\n      pop\n      jump\t// out\n        /* \"#utility.yul\":3051:3137   */\n    tag_54:\n        /* \"#utility.yul\":3086:3093   */\n      0x00\n        /* \"#utility.yul\":3126:3130   */\n      0xff\n        /* \"#utility.yul\":3119:3124   */\n      dup3\n        /* \"#utility.yul\":3115:3131   */\n      and\n        /* \"#utility.yul\":3104:3131   */\n      swap1\n      pop\n        /* \"#utility.yul\":3051:3137   */\n      swap2\n      swap1\n      pop\n      jump\t// out\n        /* \"#utility.yul\":3143:3323   */\n    tag_69:\n        /* \"#utility.yul\":3191:3268   */\n      0x4e487b7100000000000000000000000000000000000000000000000000000000\n        /* \"#utility.yul\":3188:3189   */\n      0x00\n        /* \"#utility.yul\":3181:3269   */\n      mstore\n        /* \"#utility.yul\":3288:3292   */\n      0x11\n        /* \"#utility.yul\":3285:3286   */\n      0x04\n        /* \"#utility.yul\":3278:3293   */\n      mstore\n        /* \"#utility.yul\":3312:3316   */\n      0x24\n        /* \"#utility.yul\":3309:3310   */\n      0x00\n        /* \"#utility.yul\":3302:3317   */\n      revert\n        /* \"#utility.yul\":3452:3569   */\n    tag_37:\n        /* \"#utility.yul\":3561:3562   */\n      0x00\n        /* \"#utility.yul\":3558:3559   */\n      dup1\n        /* \"#utility.yul\":3551:3563   */\n      revert\n        /* \"#utility.yul\":3575:3752   */\n    tag_45:\n        /* \"#utility.yul\":3715:3744   */\n      0x536166654d6174683a206164646974696f6e206f766572666c6f770000000000\n        /* \"#utility.yul\":3711:3712   */\n      0x00\n        /* \"#utility.yul\":3703:3709   */\n      dup3\n        /* \"#utility.yul\":3699:3713   */\n      add\n        /* \"#utility.yul\":3692:3745   */\n      mstore\n        /* \"#utility.yul\":3575:3752   */\n      pop\n      jump\t// out\n        /* \"#utility.yul\":3758:3922   */\n    tag_50:\n        /* \"#utility.yul\":3898:3914   */\n      0x48656c6c6f20736f6c6964697479000000000000000000000000000000000000\n        /* \"#utility.yul\":3894:3895   */\n      0x00\n        /* \"#utility.yul\":3886:3892   */\n      dup3\n        /* \"#utility.yul\":3882:3896   */\n      add\n        /* \"#utility.yul\":3875:3915   */\n      mstore\n        /* \"#utility.yul\":3758:3922   */\n      pop\n      jump\t// out\n        /* \"#utility.yul\":3928:4046   */\n    tag_33:\n        /* \"#utility.yul\":3999:4021   */\n      tag_78\n        /* \"#utility.yul\":4015:4020   */\n      dup2\n        /* \"#utility.yul\":3999:4021   */\n      tag_54\n      jump\t// in\n    tag_78:\n        /* \"#utility.yul\":3992:3997   */\n      dup2\n        /* \"#utility.yul\":3989:4022   */\n      eq\n        /* \"#utility.yul\":3979:4040   */\n      tag_79\n      jumpi\n        /* \"#utility.yul\":4036:4037   */\n      0x00\n        /* \"#utility.yul\":4033:4034   */\n      dup1\n        /* \"#utility.yul\":4026:4038   */\n      revert\n        /* \"#utility.yul\":3979:4040   */\n    tag_79:\n        /* \"#utility.yul\":3928:4046   */\n      pop\n      jump\t// out\n\n    auxdata: 0xa2646970667358221220ae6c41e9c63405941a5b311d4a456f9419643729fc669754b84292de9e4deb0864736f6c63430008070033\n}\n",
				"bytecode": {
					"linkReferences": {},
					"object": "608060405234801561001057600080fd5b50610390806100206000396000f3fe608060405234801561001057600080fd5b50600436106100415760003560e01c80630dbe671f146100465780635d2b6e0314610064578063a99dca3f14610080575b600080fd5b61004e61008a565b60405161005b919061024d565b60405180910390f35b61007e60048036038101906100799190610178565b61009b565b005b6100886100c2565b005b60008054906101000a900460ff1681565b6100a582826100f9565b6000806101000a81548160ff021916908360ff1602179055505050565b7f288d740d3b11a36c8526119855345e3ba2aee438370d264289ea6dfb76294fd06040516100ef9061022d565b60405180910390a1565b60008260ff16828461010b9190610279565b60ff16101561014f576040517f08c379a00000000000000000000000000000000000000000000000000000000081526004016101469061020d565b60405180910390fd5b818361015b9190610279565b905092915050565b60008135905061017281610343565b92915050565b6000806040838503121561018f5761018e6102ec565b5b600061019d85828601610163565b92505060206101ae85828601610163565b9150509250929050565b60006101c5601b83610268565b91506101d0826102f1565b602082019050919050565b60006101e8600e83610268565b91506101f38261031a565b602082019050919050565b610207816102b0565b82525050565b60006020820190508181036000830152610226816101b8565b9050919050565b60006020820190508181036000830152610246816101db565b9050919050565b600060208201905061026260008301846101fe565b92915050565b600082825260208201905092915050565b6000610284826102b0565b915061028f836102b0565b92508260ff038211156102a5576102a46102bd565b5b828201905092915050565b600060ff82169050919050565b7f4e487b7100000000000000000000000000000000000000000000000000000000600052601160045260246000fd5b600080fd5b7f536166654d6174683a206164646974696f6e206f766572666c6f770000000000600082015250565b7f48656c6c6f20736f6c6964697479000000000000000000000000000000000000600082015250565b61034c816102b0565b811461035757600080fd5b5056fea2646970667358221220ae6c41e9c63405941a5b311d4a456f9419643729fc669754b84292de9e4deb0864736f6c63430008070033",
					"opcodes": "PUSH1 0x80 PUSH1 0x40 MSTORE CALLVALUE DUP1 ISZERO PUSH2 0x10 JUMPI PUSH1 0x0 DUP1 REVERT JUMPDEST POP PUSH2 0x390 DUP1 PUSH2 0x20 PUSH1 0x0 CODECOPY PUSH1 0x0 RETURN INVALID PUSH1 0x80 PUSH1 0x40 MSTORE CALLVALUE DUP1 ISZERO PUSH2 0x10 JUMPI PUSH1 0x0 DUP1 REVERT JUMPDEST POP PUSH1 0x4 CALLDATASIZE LT PUSH2 0x41 JUMPI PUSH1 0x0 CALLDATALOAD PUSH1 0xE0 SHR DUP1 PUSH4 0xDBE671F EQ PUSH2 0x46 JUMPI DUP1 PUSH4 0x5D2B6E03 EQ PUSH2 0x64 JUMPI DUP1 PUSH4 0xA99DCA3F EQ PUSH2 0x80 JUMPI JUMPDEST PUSH1 0x0 DUP1 REVERT JUMPDEST PUSH2 0x4E PUSH2 0x8A JUMP JUMPDEST PUSH1 0x40 MLOAD PUSH2 0x5B SWAP2 SWAP1 PUSH2 0x24D JUMP JUMPDEST PUSH1 0x40 MLOAD DUP1 SWAP2 SUB SWAP1 RETURN JUMPDEST PUSH2 0x7E PUSH1 0x4 DUP1 CALLDATASIZE SUB DUP2 ADD SWAP1 PUSH2 0x79 SWAP2 SWAP1 PUSH2 0x178 JUMP JUMPDEST PUSH2 0x9B JUMP JUMPDEST STOP JUMPDEST PUSH2 0x88 PUSH2 0xC2 JUMP JUMPDEST STOP JUMPDEST PUSH1 0x0 DUP1 SLOAD SWAP1 PUSH2 0x100 EXP SWAP1 DIV PUSH1 0xFF AND DUP2 JUMP JUMPDEST PUSH2 0xA5 DUP3 DUP3 PUSH2 0xF9 JUMP JUMPDEST PUSH1 0x0 DUP1 PUSH2 0x100 EXP DUP2 SLOAD DUP2 PUSH1 0xFF MUL NOT AND SWAP1 DUP4 PUSH1 0xFF AND MUL OR SWAP1 SSTORE POP POP POP JUMP JUMPDEST PUSH32 0x288D740D3B11A36C8526119855345E3BA2AEE438370D264289EA6DFB76294FD0 PUSH1 0x40 MLOAD PUSH2 0xEF SWAP1 PUSH2 0x22D JUMP JUMPDEST PUSH1 0x40 MLOAD DUP1 SWAP2 SUB SWAP1 LOG1 JUMP JUMPDEST PUSH1 0x0 DUP3 PUSH1 0xFF AND DUP3 DUP5 PUSH2 0x10B SWAP2 SWAP1 PUSH2 0x279 JUMP JUMPDEST PUSH1 0xFF AND LT ISZERO PUSH2 0x14F JUMPI PUSH1 0x40 MLOAD PUSH32 0x8C379A000000000000000000000000000000000000000000000000000000000 DUP2 MSTORE PUSH1 0x4 ADD PUSH2 0x146 SWAP1 PUSH2 0x20D JUMP JUMPDEST PUSH1 0x40 MLOAD DUP1 SWAP2 SUB SWAP1 REVERT JUMPDEST DUP2 DUP4 PUSH2 0x15B SWAP2 SWAP1 PUSH2 0x279 JUMP JUMPDEST SWAP1 POP SWAP3 SWAP2 POP POP JUMP JUMPDEST PUSH1 0x0 DUP2 CALLDATALOAD SWAP1 POP PUSH2 0x172 DUP2 PUSH2 0x343 JUMP JUMPDEST SWAP3 SWAP2 POP POP JUMP JUMPDEST PUSH1 0x0 DUP1 PUSH1 0x40 DUP4 DUP6 SUB SLT ISZERO PUSH2 0x18F JUMPI PUSH2 0x18E PUSH2 0x2EC JUMP JUMPDEST JUMPDEST PUSH1 0x0 PUSH2 0x19D DUP6 DUP3 DUP7 ADD PUSH2 0x163 JUMP JUMPDEST SWAP3 POP POP PUSH1 0x20 PUSH2 0x1AE DUP6 DUP3 DUP7 ADD PUSH2 0x163 JUMP JUMPDEST SWAP2 POP POP SWAP3 POP SWAP3 SWAP1 POP JUMP JUMPDEST PUSH1 0x0 PUSH2 0x1C5 PUSH1 0x1B DUP4 PUSH2 0x268 JUMP JUMPDEST SWAP2 POP PUSH2 0x1D0 DUP3 PUSH2 0x2F1 JUMP JUMPDEST PUSH1 0x20 DUP3 ADD SWAP1 POP SWAP2 SWAP1 POP JUMP JUMPDEST PUSH1 0x0 PUSH2 0x1E8 PUSH1 0xE DUP4 PUSH2 0x268 JUMP JUMPDEST SWAP2 POP PUSH2 0x1F3 DUP3 PUSH2 0x31A JUMP JUMPDEST PUSH1 0x20 DUP3 ADD SWAP1 POP SWAP2 SWAP1 POP JUMP JUMPDEST PUSH2 0x207 DUP2 PUSH2 0x2B0 JUMP JUMPDEST DUP3 MSTORE POP POP JUMP JUMPDEST PUSH1 0x0 PUSH1 0x20 DUP3 ADD SWAP1 POP DUP2 DUP2 SUB PUSH1 0x0 DUP4 ADD MSTORE PUSH2 0x226 DUP2 PUSH2 0x1B8 JUMP JUMPDEST SWAP1 POP SWAP2 SWAP1 POP JUMP JUMPDEST PUSH1 0x0 PUSH1 0x20 DUP3 ADD SWAP1 POP DUP2 DUP2 SUB PUSH1 0x0 DUP4 ADD MSTORE PUSH2 0x246 DUP2 PUSH2 0x1DB JUMP JUMPDEST SWAP1 POP SWAP2 SWAP1 POP JUMP JUMPDEST PUSH1 0x0 PUSH1 0x20 DUP3 ADD SWAP1 POP PUSH2 0x262 PUSH1 0x0 DUP4 ADD DUP5 PUSH2 0x1FE JUMP JUMPDEST SWAP3 SWAP2 POP POP JUMP JUMPDEST PUSH1 0x0 DUP3 DUP3 MSTORE PUSH1 0x20 DUP3 ADD SWAP1 POP SWAP3 SWAP2 POP POP JUMP JUMPDEST PUSH1 0x0 PUSH2 0x284 DUP3 PUSH2 0x2B0 JUMP JUMPDEST SWAP2 POP PUSH2 0x28F DUP4 PUSH2 0x2B0 JUMP JUMPDEST SWAP3 POP DUP3 PUSH1 0xFF SUB DUP3 GT ISZERO PUSH2 0x2A5 JUMPI PUSH2 0x2A4 PUSH2 0x2BD JUMP JUMPDEST JUMPDEST DUP3 DUP3 ADD SWAP1 POP SWAP3 SWAP2 POP POP JUMP JUMPDEST PUSH1 0x0 PUSH1 0xFF DUP3 AND SWAP1 POP SWAP2 SWAP1 POP JUMP JUMPDEST PUSH32 0x4E487B7100000000000000000000000000000000000000000000000000000000 PUSH1 0x0 MSTORE PUSH1 0x11 PUSH1 0x4 MSTORE PUSH1 0x24 PUSH1 0x0 REVERT JUMPDEST PUSH1 0x0 DUP1 REVERT JUMPDEST PUSH32 0x536166654D6174683A206164646974696F6E206F766572666C6F770000000000 PUSH1 0x0 DUP3 ADD MSTORE POP JUMP JUMPDEST PUSH32 0x48656C6C6F20736F6C6964697479000000000000000000000000000000000000 PUSH1 0x0 DUP3 ADD MSTORE POP JUMP JUMPDEST PUSH2 0x34C DUP2 PUSH2 0x2B0 JUMP JUMPDEST DUP2 EQ PUSH2 0x357 JUMPI PUSH1 0x0 DUP1 REVERT JUMPDEST POP JUMP INVALID LOG2 PUSH5 0x6970667358 0x22 SLT KECCAK256 0xAE PUSH13 0x41E9C63405941A5B311D4A456F SWAP5 NOT PUSH5 0x3729FC6697 SLOAD 0xB8 TIMESTAMP SWAP3 0xDE SWAP15 0x4D 0xEB ADDMOD PUSH5 0x736F6C6343 STOP ADDMOD SMOD STOP CALLER "
				},
				"gasEstimates": {
					"creation": {
						"codeDepositCost": "182400",
						"executionCost": "226",
						"totalCost": "182626"
					},
					"external": {
						"a()": "2446",
						"becomeOverflow(uint8,uint8)": "infinite",
						"hi()": "1968"
					}
				},
				"methodIdentifiers": {
					"a()": "0dbe671f",
					"becomeOverflow(uint8,uint8)": "5d2b6e03",
					"hi()": "a99dca3f"
				}
			},
			"storageLayout": {
				"storage": [
					{
						"astId": 48,
						"contract": "lecture/lec41-2.sol:lec41",
						"label": "a",
						"offset": 0,
						"slot": "0",
						"type": "t_uint8"
					}
				],
				"types": {
					"t_uint8": {
						"encoding": "inplace",
						"label": "uint8",
						"numberOfBytes": "1"
					}
				}
			},
			"userdoc": {
				"kind": "user",
				"methods": {},
				"version": 1
			}
		}
	}
}