{
	"lecture/lec8.sol": {
		"B": {
			"abi": [
				{
					"inputs": [
						{
							"internalType": "uint256",
							"name": "_value",
							"type": "uint256"
						}
					],
					"name": "chaget_A",
					"outputs": [],
					"stateMutability": "nonpayable",
					"type": "function"
				},
				{
					"inputs": [],
					"name": "get_A",
					"outputs": [
						{
							"internalType": "uint256",
							"name": "",
							"type": "uint256"
						}
					],
					"stateMutability": "view",
					"type": "function"
				}
			],
			"devdoc": {
				"kind": "dev",
				"methods": {},
				"version": 1
			},
			"evm": {
				"assembly": "    /* \"lecture/lec8.sol\":182:401  contract B{... */\n  mstore(0x40, 0x80)\n    /* \"lecture/lec8.sol\":213:220  new A() */\n  mload(0x40)\n  tag_1\n  swap1\n  tag_2\n  jump\t// in\ntag_1:\n  mload(0x40)\n  dup1\n  swap2\n  sub\n  swap1\n  0x00\n  create\n  dup1\n  iszero\n  dup1\n  iszero\n  tag_3\n  jumpi\n  returndatasize\n  0x00\n  dup1\n  returndatacopy\n  revert(0x00, returndatasize)\ntag_3:\n  pop\n    /* \"lecture/lec8.sol\":198:220  A instance_1 = new A() */\n  0x00\n  dup1\n  0x0100\n  exp\n  dup2\n  sload\n  dup2\n  0xffffffffffffffffffffffffffffffffffffffff\n  mul\n  not\n  and\n  swap1\n  dup4\n  0xffffffffffffffffffffffffffffffffffffffff\n  and\n  mul\n  or\n  swap1\n  sstore\n  pop\n    /* \"lecture/lec8.sol\":182:401  contract B{... */\n  callvalue\n  dup1\n  iszero\n  tag_4\n  jumpi\n  0x00\n  dup1\n  revert\ntag_4:\n  pop\n  jump(tag_5)\ntag_2:\n  dataSize(sub_1)\n  dup1\n  dataOffset(sub_1)\n  dup4\n  codecopy\n  add\n  swap1\n  jump\t// out\ntag_5:\n  dataSize(sub_0)\n  dup1\n  dataOffset(sub_0)\n  0x00\n  codecopy\n  0x00\n  return\nstop\n\nsub_0: assembly {\n        /* \"lecture/lec8.sol\":182:401  contract B{... */\n      mstore(0x40, 0x80)\n      callvalue\n      dup1\n      iszero\n      tag_1\n      jumpi\n      0x00\n      dup1\n      revert\n    tag_1:\n      pop\n      jumpi(tag_2, lt(calldatasize, 0x04))\n      shr(0xe0, calldataload(0x00))\n      dup1\n      0xdb819109\n      eq\n      tag_3\n      jumpi\n      dup1\n      0xe91df8b3\n      eq\n      tag_4\n      jumpi\n    tag_2:\n      0x00\n      dup1\n      revert\n        /* \"lecture/lec8.sol\":316:399  function chaget_A(uint256 _value) public {... */\n    tag_3:\n      tag_5\n      0x04\n      dup1\n      calldatasize\n      sub\n      dup2\n      add\n      swap1\n      tag_6\n      swap2\n      swap1\n      tag_7\n      jump\t// in\n    tag_6:\n      tag_8\n      jump\t// in\n    tag_5:\n      stop\n        /* \"lecture/lec8.sol\":227:311  function get_A() public view returns(uint256) {... */\n    tag_4:\n      tag_9\n      tag_10\n      jump\t// in\n    tag_9:\n      mload(0x40)\n      tag_11\n      swap2\n      swap1\n      tag_12\n      jump\t// in\n    tag_11:\n      mload(0x40)\n      dup1\n      swap2\n      sub\n      swap1\n      return\n        /* \"lecture/lec8.sol\":316:399  function chaget_A(uint256 _value) public {... */\n    tag_8:\n        /* \"lecture/lec8.sol\":367:377  instance_1 */\n      0x00\n      dup1\n      sload\n      swap1\n      0x0100\n      exp\n      swap1\n      div\n      0xffffffffffffffffffffffffffffffffffffffff\n      and\n        /* \"lecture/lec8.sol\":367:384  instance_1.change */\n      0xffffffffffffffffffffffffffffffffffffffff\n      and\n      0x75322e47\n        /* \"lecture/lec8.sol\":385:391  _value */\n      dup3\n        /* \"lecture/lec8.sol\":367:392  instance_1.change(_value) */\n      mload(0x40)\n      dup3\n      0xffffffff\n      and\n      0xe0\n      shl\n      dup2\n      mstore\n      0x04\n      add\n      tag_14\n      swap2\n      swap1\n      tag_12\n      jump\t// in\n    tag_14:\n      0x00\n      mload(0x40)\n      dup1\n      dup4\n      sub\n      dup2\n      0x00\n      dup8\n      dup1\n      extcodesize\n      iszero\n      dup1\n      iszero\n      tag_15\n      jumpi\n      0x00\n      dup1\n      revert\n    tag_15:\n      pop\n      gas\n      call\n      iszero\n      dup1\n      iszero\n      tag_17\n      jumpi\n      returndatasize\n      0x00\n      dup1\n      returndatacopy\n      revert(0x00, returndatasize)\n    tag_17:\n      pop\n      pop\n      pop\n      pop\n        /* \"lecture/lec8.sol\":316:399  function chaget_A(uint256 _value) public {... */\n      pop\n      jump\t// out\n        /* \"lecture/lec8.sol\":227:311  function get_A() public view returns(uint256) {... */\n    tag_10:\n        /* \"lecture/lec8.sol\":264:271  uint256 */\n      0x00\n        /* \"lecture/lec8.sol\":290:300  instance_1 */\n      dup1\n      0x00\n      swap1\n      sload\n      swap1\n      0x0100\n      exp\n      swap1\n      div\n      0xffffffffffffffffffffffffffffffffffffffff\n      and\n        /* \"lecture/lec8.sol\":290:302  instance_1.a */\n      0xffffffffffffffffffffffffffffffffffffffff\n      and\n      0x0dbe671f\n        /* \"lecture/lec8.sol\":290:304  instance_1.a() */\n      mload(0x40)\n      dup2\n      0xffffffff\n      and\n      0xe0\n      shl\n      dup2\n      mstore\n      0x04\n      add\n      0x20\n      mload(0x40)\n      dup1\n      dup4\n      sub\n      dup2\n      dup7\n      dup1\n      extcodesize\n      iszero\n      dup1\n      iszero\n      tag_19\n      jumpi\n      0x00\n      dup1\n      revert\n    tag_19:\n      pop\n      gas\n      staticcall\n      iszero\n      dup1\n      iszero\n      tag_21\n      jumpi\n      returndatasize\n      0x00\n      dup1\n      returndatacopy\n      revert(0x00, returndatasize)\n    tag_21:\n      pop\n      pop\n      pop\n      pop\n      mload(0x40)\n      returndatasize\n      not(0x1f)\n      0x1f\n      dup3\n      add\n      and\n      dup3\n      add\n      dup1\n      0x40\n      mstore\n      pop\n      dup2\n      add\n      swap1\n      tag_22\n      swap2\n      swap1\n      tag_23\n      jump\t// in\n    tag_22:\n        /* \"lecture/lec8.sol\":283:304  return instance_1.a() */\n      swap1\n      pop\n        /* \"lecture/lec8.sol\":227:311  function get_A() public view returns(uint256) {... */\n      swap1\n      jump\t// out\n        /* \"#utility.yul\":7:146   */\n    tag_25:\n      0x00\n        /* \"#utility.yul\":91:97   */\n      dup2\n        /* \"#utility.yul\":78:98   */\n      calldataload\n        /* \"#utility.yul\":69:98   */\n      swap1\n      pop\n        /* \"#utility.yul\":107:140   */\n      tag_27\n        /* \"#utility.yul\":134:139   */\n      dup2\n        /* \"#utility.yul\":107:140   */\n      tag_28\n      jump\t// in\n    tag_27:\n        /* \"#utility.yul\":59:146   */\n      swap3\n      swap2\n      pop\n      pop\n      jump\t// out\n        /* \"#utility.yul\":152:295   */\n    tag_29:\n      0x00\n        /* \"#utility.yul\":240:246   */\n      dup2\n        /* \"#utility.yul\":234:247   */\n      mload\n        /* \"#utility.yul\":225:247   */\n      swap1\n      pop\n        /* \"#utility.yul\":256:289   */\n      tag_31\n        /* \"#utility.yul\":283:288   */\n      dup2\n        /* \"#utility.yul\":256:289   */\n      tag_28\n      jump\t// in\n    tag_31:\n        /* \"#utility.yul\":215:295   */\n      swap3\n      swap2\n      pop\n      pop\n      jump\t// out\n        /* \"#utility.yul\":301:563   */\n    tag_7:\n      0x00\n        /* \"#utility.yul\":409:411   */\n      0x20\n        /* \"#utility.yul\":397:406   */\n      dup3\n        /* \"#utility.yul\":388:395   */\n      dup5\n        /* \"#utility.yul\":384:407   */\n      sub\n        /* \"#utility.yul\":380:412   */\n      slt\n        /* \"#utility.yul\":377:379   */\n      iszero\n      tag_33\n      jumpi\n        /* \"#utility.yul\":425:426   */\n      0x00\n        /* \"#utility.yul\":422:423   */\n      dup1\n        /* \"#utility.yul\":415:427   */\n      revert\n        /* \"#utility.yul\":377:379   */\n    tag_33:\n        /* \"#utility.yul\":468:469   */\n      0x00\n        /* \"#utility.yul\":493:546   */\n      tag_34\n        /* \"#utility.yul\":538:545   */\n      dup5\n        /* \"#utility.yul\":529:535   */\n      dup3\n        /* \"#utility.yul\":518:527   */\n      dup6\n        /* \"#utility.yul\":514:536   */\n      add\n        /* \"#utility.yul\":493:546   */\n      tag_25\n      jump\t// in\n    tag_34:\n        /* \"#utility.yul\":483:546   */\n      swap2\n      pop\n        /* \"#utility.yul\":439:556   */\n      pop\n        /* \"#utility.yul\":367:563   */\n      swap3\n      swap2\n      pop\n      pop\n      jump\t// out\n        /* \"#utility.yul\":569:853   */\n    tag_23:\n      0x00\n        /* \"#utility.yul\":688:690   */\n      0x20\n        /* \"#utility.yul\":676:685   */\n      dup3\n        /* \"#utility.yul\":667:674   */\n      dup5\n        /* \"#utility.yul\":663:686   */\n      sub\n        /* \"#utility.yul\":659:691   */\n      slt\n        /* \"#utility.yul\":656:658   */\n      iszero\n      tag_36\n      jumpi\n        /* \"#utility.yul\":704:705   */\n      0x00\n        /* \"#utility.yul\":701:702   */\n      dup1\n        /* \"#utility.yul\":694:706   */\n      revert\n        /* \"#utility.yul\":656:658   */\n    tag_36:\n        /* \"#utility.yul\":747:748   */\n      0x00\n        /* \"#utility.yul\":772:836   */\n      tag_37\n        /* \"#utility.yul\":828:835   */\n      dup5\n        /* \"#utility.yul\":819:825   */\n      dup3\n        /* \"#utility.yul\":808:817   */\n      dup6\n        /* \"#utility.yul\":804:826   */\n      add\n        /* \"#utility.yul\":772:836   */\n      tag_29\n      jump\t// in\n    tag_37:\n        /* \"#utility.yul\":762:836   */\n      swap2\n      pop\n        /* \"#utility.yul\":718:846   */\n      pop\n        /* \"#utility.yul\":646:853   */\n      swap3\n      swap2\n      pop\n      pop\n      jump\t// out\n        /* \"#utility.yul\":859:977   */\n    tag_38:\n        /* \"#utility.yul\":946:970   */\n      tag_40\n        /* \"#utility.yul\":964:969   */\n      dup2\n        /* \"#utility.yul\":946:970   */\n      tag_41\n      jump\t// in\n    tag_40:\n        /* \"#utility.yul\":941:944   */\n      dup3\n        /* \"#utility.yul\":934:971   */\n      mstore\n        /* \"#utility.yul\":924:977   */\n      pop\n      pop\n      jump\t// out\n        /* \"#utility.yul\":983:1205   */\n    tag_12:\n      0x00\n        /* \"#utility.yul\":1114:1116   */\n      0x20\n        /* \"#utility.yul\":1103:1112   */\n      dup3\n        /* \"#utility.yul\":1099:1117   */\n      add\n        /* \"#utility.yul\":1091:1117   */\n      swap1\n      pop\n        /* \"#utility.yul\":1127:1198   */\n      tag_43\n        /* \"#utility.yul\":1195:1196   */\n      0x00\n        /* \"#utility.yul\":1184:1193   */\n      dup4\n        /* \"#utility.yul\":1180:1197   */\n      add\n        /* \"#utility.yul\":1171:1177   */\n      dup5\n        /* \"#utility.yul\":1127:1198   */\n      tag_38\n      jump\t// in\n    tag_43:\n        /* \"#utility.yul\":1081:1205   */\n      swap3\n      swap2\n      pop\n      pop\n      jump\t// out\n        /* \"#utility.yul\":1211:1288   */\n    tag_41:\n      0x00\n        /* \"#utility.yul\":1277:1282   */\n      dup2\n        /* \"#utility.yul\":1266:1282   */\n      swap1\n      pop\n        /* \"#utility.yul\":1256:1288   */\n      swap2\n      swap1\n      pop\n      jump\t// out\n        /* \"#utility.yul\":1294:1416   */\n    tag_28:\n        /* \"#utility.yul\":1367:1391   */\n      tag_46\n        /* \"#utility.yul\":1385:1390   */\n      dup2\n        /* \"#utility.yul\":1367:1391   */\n      tag_41\n      jump\t// in\n    tag_46:\n        /* \"#utility.yul\":1360:1365   */\n      dup2\n        /* \"#utility.yul\":1357:1392   */\n      eq\n        /* \"#utility.yul\":1347:1349   */\n      tag_47\n      jumpi\n        /* \"#utility.yul\":1406:1407   */\n      0x00\n        /* \"#utility.yul\":1403:1404   */\n      dup1\n        /* \"#utility.yul\":1396:1408   */\n      revert\n        /* \"#utility.yul\":1347:1349   */\n    tag_47:\n        /* \"#utility.yul\":1337:1416   */\n      pop\n      jump\t// out\n\n    auxdata: 0xa2646970667358221220ee6fdcb5f7d2b242bb3384b1effab972f9a84867090a6eaf027379903c0f31aa64736f6c63430008000033\n}\n\nsub_1: assembly {\n        /* \"lecture/lec8.sol\":71:181  contract A{... */\n      mstore(0x40, 0x80)\n        /* \"lecture/lec8.sol\":106:107  5 */\n      0x05\n        /* \"lecture/lec8.sol\":87:107  uint256 public a = 5 */\n      0x00\n      sstore\n        /* \"lecture/lec8.sol\":71:181  contract A{... */\n      callvalue\n      dup1\n      iszero\n      tag_1\n      jumpi\n      0x00\n      dup1\n      revert\n    tag_1:\n      pop\n      dataSize(sub_0)\n      dup1\n      dataOffset(sub_0)\n      0x00\n      codecopy\n      0x00\n      return\n    stop\n\n    sub_0: assembly {\n            /* \"lecture/lec8.sol\":71:181  contract A{... */\n          mstore(0x40, 0x80)\n          callvalue\n          dup1\n          iszero\n          tag_1\n          jumpi\n          0x00\n          dup1\n          revert\n        tag_1:\n          pop\n          jumpi(tag_2, lt(calldatasize, 0x04))\n          shr(0xe0, calldataload(0x00))\n          dup1\n          0x0dbe671f\n          eq\n          tag_3\n          jumpi\n          dup1\n          0x75322e47\n          eq\n          tag_4\n          jumpi\n        tag_2:\n          0x00\n          dup1\n          revert\n            /* \"lecture/lec8.sol\":87:107  uint256 public a = 5 */\n        tag_3:\n          tag_5\n          tag_6\n          jump\t// in\n        tag_5:\n          mload(0x40)\n          tag_7\n          swap2\n          swap1\n          tag_8\n          jump\t// in\n        tag_7:\n          mload(0x40)\n          dup1\n          swap2\n          sub\n          swap1\n          return\n            /* \"lecture/lec8.sol\":113:179  function change(uint256 _value) public {... */\n        tag_4:\n          tag_9\n          0x04\n          dup1\n          calldatasize\n          sub\n          dup2\n          add\n          swap1\n          tag_10\n          swap2\n          swap1\n          tag_11\n          jump\t// in\n        tag_10:\n          tag_12\n          jump\t// in\n        tag_9:\n          stop\n            /* \"lecture/lec8.sol\":87:107  uint256 public a = 5 */\n        tag_6:\n          sload(0x00)\n          dup2\n          jump\t// out\n            /* \"lecture/lec8.sol\":113:179  function change(uint256 _value) public {... */\n        tag_12:\n            /* \"lecture/lec8.sol\":166:172  _value */\n          dup1\n            /* \"lecture/lec8.sol\":162:163  a */\n          0x00\n            /* \"lecture/lec8.sol\":162:172  a = _value */\n          dup2\n          swap1\n          sstore\n          pop\n            /* \"lecture/lec8.sol\":113:179  function change(uint256 _value) public {... */\n          pop\n          jump\t// out\n            /* \"#utility.yul\":7:146   */\n        tag_15:\n          0x00\n            /* \"#utility.yul\":91:97   */\n          dup2\n            /* \"#utility.yul\":78:98   */\n          calldataload\n            /* \"#utility.yul\":69:98   */\n          swap1\n          pop\n            /* \"#utility.yul\":107:140   */\n          tag_17\n            /* \"#utility.yul\":134:139   */\n          dup2\n            /* \"#utility.yul\":107:140   */\n          tag_18\n          jump\t// in\n        tag_17:\n            /* \"#utility.yul\":59:146   */\n          swap3\n          swap2\n          pop\n          pop\n          jump\t// out\n            /* \"#utility.yul\":152:414   */\n        tag_11:\n          0x00\n            /* \"#utility.yul\":260:262   */\n          0x20\n            /* \"#utility.yul\":248:257   */\n          dup3\n            /* \"#utility.yul\":239:246   */\n          dup5\n            /* \"#utility.yul\":235:258   */\n          sub\n            /* \"#utility.yul\":231:263   */\n          slt\n            /* \"#utility.yul\":228:230   */\n          iszero\n          tag_20\n          jumpi\n            /* \"#utility.yul\":276:277   */\n          0x00\n            /* \"#utility.yul\":273:274   */\n          dup1\n            /* \"#utility.yul\":266:278   */\n          revert\n            /* \"#utility.yul\":228:230   */\n        tag_20:\n            /* \"#utility.yul\":319:320   */\n          0x00\n            /* \"#utility.yul\":344:397   */\n          tag_21\n            /* \"#utility.yul\":389:396   */\n          dup5\n            /* \"#utility.yul\":380:386   */\n          dup3\n            /* \"#utility.yul\":369:378   */\n          dup6\n            /* \"#utility.yul\":365:387   */\n          add\n            /* \"#utility.yul\":344:397   */\n          tag_15\n          jump\t// in\n        tag_21:\n            /* \"#utility.yul\":334:397   */\n          swap2\n          pop\n            /* \"#utility.yul\":290:407   */\n          pop\n            /* \"#utility.yul\":218:414   */\n          swap3\n          swap2\n          pop\n          pop\n          jump\t// out\n            /* \"#utility.yul\":420:538   */\n        tag_22:\n            /* \"#utility.yul\":507:531   */\n          tag_24\n            /* \"#utility.yul\":525:530   */\n          dup2\n            /* \"#utility.yul\":507:531   */\n          tag_25\n          jump\t// in\n        tag_24:\n            /* \"#utility.yul\":502:505   */\n          dup3\n            /* \"#utility.yul\":495:532   */\n          mstore\n            /* \"#utility.yul\":485:538   */\n          pop\n          pop\n          jump\t// out\n            /* \"#utility.yul\":544:766   */\n        tag_8:\n          0x00\n            /* \"#utility.yul\":675:677   */\n          0x20\n            /* \"#utility.yul\":664:673   */\n          dup3\n            /* \"#utility.yul\":660:678   */\n          add\n            /* \"#utility.yul\":652:678   */\n          swap1\n          pop\n            /* \"#utility.yul\":688:759   */\n          tag_27\n            /* \"#utility.yul\":756:757   */\n          0x00\n            /* \"#utility.yul\":745:754   */\n          dup4\n            /* \"#utility.yul\":741:758   */\n          add\n            /* \"#utility.yul\":732:738   */\n          dup5\n            /* \"#utility.yul\":688:759   */\n          tag_22\n          jump\t// in\n        tag_27:\n            /* \"#utility.yul\":642:766   */\n          swap3\n          swap2\n          pop\n          pop\n          jump\t// out\n            /* \"#utility.yul\":772:849   */\n        tag_25:\n          0x00\n            /* \"#utility.yul\":838:843   */\n          dup2\n            /* \"#utility.yul\":827:843   */\n          swap1\n          pop\n            /* \"#utility.yul\":817:849   */\n          swap2\n          swap1\n          pop\n          jump\t// out\n            /* \"#utility.yul\":855:977   */\n        tag_18:\n            /* \"#utility.yul\":928:952   */\n          tag_30\n            /* \"#utility.yul\":946:951   */\n          dup2\n            /* \"#utility.yul\":928:952   */\n          tag_25\n          jump\t// in\n        tag_30:\n            /* \"#utility.yul\":921:926   */\n          dup2\n            /* \"#utility.yul\":918:953   */\n          eq\n            /* \"#utility.yul\":908:910   */\n          tag_31\n          jumpi\n            /* \"#utility.yul\":967:968   */\n          0x00\n            /* \"#utility.yul\":964:965   */\n          dup1\n            /* \"#utility.yul\":957:969   */\n          revert\n            /* \"#utility.yul\":908:910   */\n        tag_31:\n            /* \"#utility.yul\":898:977   */\n          pop\n          jump\t// out\n\n        auxdata: 0xa26469706673582212207715dc682c29ec35669d45a49d12ff8a6770e563405b522a45dbf721e2d1849764736f6c63430008000033\n    }\n}\n",
				"bytecode": {
					"linkReferences": {},
					"object": "60806040526040516100109061007e565b604051809103906000f08015801561002c573d6000803e3d6000fd5b506000806101000a81548173ffffffffffffffffffffffffffffffffffffffff021916908373ffffffffffffffffffffffffffffffffffffffff16021790555034801561007857600080fd5b5061008b565b6101518061034083390190565b6102a68061009a6000396000f3fe608060405234801561001057600080fd5b50600436106100365760003560e01c8063db8191091461003b578063e91df8b314610057575b600080fd5b610055600480360381019061005091906101d3565b610075565b005b61005f610103565b60405161006c9190610234565b60405180910390f35b60008054906101000a900473ffffffffffffffffffffffffffffffffffffffff1673ffffffffffffffffffffffffffffffffffffffff166375322e47826040518263ffffffff1660e01b81526004016100ce9190610234565b600060405180830381600087803b1580156100e857600080fd5b505af11580156100fc573d6000803e3d6000fd5b5050505050565b60008060009054906101000a900473ffffffffffffffffffffffffffffffffffffffff1673ffffffffffffffffffffffffffffffffffffffff16630dbe671f6040518163ffffffff1660e01b815260040160206040518083038186803b15801561016c57600080fd5b505afa158015610180573d6000803e3d6000fd5b505050506040513d601f19601f820116820180604052508101906101a491906101fc565b905090565b6000813590506101b881610259565b92915050565b6000815190506101cd81610259565b92915050565b6000602082840312156101e557600080fd5b60006101f3848285016101a9565b91505092915050565b60006020828403121561020e57600080fd5b600061021c848285016101be565b91505092915050565b61022e8161024f565b82525050565b60006020820190506102496000830184610225565b92915050565b6000819050919050565b6102628161024f565b811461026d57600080fd5b5056fea2646970667358221220ee6fdcb5f7d2b242bb3384b1effab972f9a84867090a6eaf027379903c0f31aa64736f6c634300080000336080604052600560005534801561001557600080fd5b5061012c806100256000396000f3fe6080604052348015600f57600080fd5b506004361060325760003560e01c80630dbe671f14603757806375322e47146051575b600080fd5b603d6069565b6040516048919060bf565b60405180910390f35b6067600480360381019060639190608c565b606f565b005b60005481565b8060008190555050565b60008135905060868160e2565b92915050565b600060208284031215609d57600080fd5b600060a9848285016079565b91505092915050565b60b98160d8565b82525050565b600060208201905060d2600083018460b2565b92915050565b6000819050919050565b60e98160d8565b811460f357600080fd5b5056fea26469706673582212207715dc682c29ec35669d45a49d12ff8a6770e563405b522a45dbf721e2d1849764736f6c63430008000033",
					"opcodes": "PUSH1 0x80 PUSH1 0x40 MSTORE PUSH1 0x40 MLOAD PUSH2 0x10 SWAP1 PUSH2 0x7E JUMP JUMPDEST PUSH1 0x40 MLOAD DUP1 SWAP2 SUB SWAP1 PUSH1 0x0 CREATE DUP1 ISZERO DUP1 ISZERO PUSH2 0x2C JUMPI RETURNDATASIZE PUSH1 0x0 DUP1 RETURNDATACOPY RETURNDATASIZE PUSH1 0x0 REVERT JUMPDEST POP PUSH1 0x0 DUP1 PUSH2 0x100 EXP DUP2 SLOAD DUP2 PUSH20 0xFFFFFFFFFFFFFFFFFFFFFFFFFFFFFFFFFFFFFFFF MUL NOT AND SWAP1 DUP4 PUSH20 0xFFFFFFFFFFFFFFFFFFFFFFFFFFFFFFFFFFFFFFFF AND MUL OR SWAP1 SSTORE POP CALLVALUE DUP1 ISZERO PUSH2 0x78 JUMPI PUSH1 0x0 DUP1 REVERT JUMPDEST POP PUSH2 0x8B JUMP JUMPDEST PUSH2 0x151 DUP1 PUSH2 0x340 DUP4 CODECOPY ADD SWAP1 JUMP JUMPDEST PUSH2 0x2A6 DUP1 PUSH2 0x9A PUSH1 0x0 CODECOPY PUSH1 0x0 RETURN INVALID PUSH1 0x80 PUSH1 0x40 MSTORE CALLVALUE DUP1 ISZERO PUSH2 0x10 JUMPI PUSH1 0x0 DUP1 REVERT JUMPDEST POP PUSH1 0x4 CALLDATASIZE LT PUSH2 0x36 JUMPI PUSH1 0x0 CALLDATALOAD PUSH1 0xE0 SHR DUP1 PUSH4 0xDB819109 EQ PUSH2 0x3B JUMPI DUP1 PUSH4 0xE91DF8B3 EQ PUSH2 0x57 JUMPI JUMPDEST PUSH1 0x0 DUP1 REVERT JUMPDEST PUSH2 0x55 PUSH1 0x4 DUP1 CALLDATASIZE SUB DUP2 ADD SWAP1 PUSH2 0x50 SWAP2 SWAP1 PUSH2 0x1D3 JUMP JUMPDEST PUSH2 0x75 JUMP JUMPDEST STOP JUMPDEST PUSH2 0x5F PUSH2 0x103 JUMP JUMPDEST PUSH1 0x40 MLOAD PUSH2 0x6C SWAP2 SWAP1 PUSH2 0x234 JUMP JUMPDEST PUSH1 0x40 MLOAD DUP1 SWAP2 SUB SWAP1 RETURN JUMPDEST PUSH1 0x0 DUP1 SLOAD SWAP1 PUSH2 0x100 EXP SWAP1 DIV PUSH20 0xFFFFFFFFFFFFFFFFFFFFFFFFFFFFFFFFFFFFFFFF AND PUSH20 0xFFFFFFFFFFFFFFFFFFFFFFFFFFFFFFFFFFFFFFFF AND PUSH4 0x75322E47 DUP3 PUSH1 0x40 MLOAD DUP3 PUSH4 0xFFFFFFFF AND PUSH1 0xE0 SHL DUP2 MSTORE PUSH1 0x4 ADD PUSH2 0xCE SWAP2 SWAP1 PUSH2 0x234 JUMP JUMPDEST PUSH1 0x0 PUSH1 0x40 MLOAD DUP1 DUP4 SUB DUP2 PUSH1 0x0 DUP8 DUP1 EXTCODESIZE ISZERO DUP1 ISZERO PUSH2 0xE8 JUMPI PUSH1 0x0 DUP1 REVERT JUMPDEST POP GAS CALL ISZERO DUP1 ISZERO PUSH2 0xFC JUMPI RETURNDATASIZE PUSH1 0x0 DUP1 RETURNDATACOPY RETURNDATASIZE PUSH1 0x0 REVERT JUMPDEST POP POP POP POP POP JUMP JUMPDEST PUSH1 0x0 DUP1 PUSH1 0x0 SWAP1 SLOAD SWAP1 PUSH2 0x100 EXP SWAP1 DIV PUSH20 0xFFFFFFFFFFFFFFFFFFFFFFFFFFFFFFFFFFFFFFFF AND PUSH20 0xFFFFFFFFFFFFFFFFFFFFFFFFFFFFFFFFFFFFFFFF AND PUSH4 0xDBE671F PUSH1 0x40 MLOAD DUP2 PUSH4 0xFFFFFFFF AND PUSH1 0xE0 SHL DUP2 MSTORE PUSH1 0x4 ADD PUSH1 0x20 PUSH1 0x40 MLOAD DUP1 DUP4 SUB DUP2 DUP7 DUP1 EXTCODESIZE ISZERO DUP1 ISZERO PUSH2 0x16C JUMPI PUSH1 0x0 DUP1 REVERT JUMPDEST POP GAS STATICCALL ISZERO DUP1 ISZERO PUSH2 0x180 JUMPI RETURNDATASIZE PUSH1 0x0 DUP1 RETURNDATACOPY RETURNDATASIZE PUSH1 0x0 REVERT JUMPDEST POP POP POP POP PUSH1 0x40 MLOAD RETURNDATASIZE PUSH1 0x1F NOT PUSH1 0x1F DUP3 ADD AND DUP3 ADD DUP1 PUSH1 0x40 MSTORE POP DUP2 ADD SWAP1 PUSH2 0x1A4 SWAP2 SWAP1 PUSH2 0x1FC JUMP JUMPDEST SWAP1 POP SWAP1 JUMP JUMPDEST PUSH1 0x0 DUP2 CALLDATALOAD SWAP1 POP PUSH2 0x1B8 DUP2 PUSH2 0x259 JUMP JUMPDEST SWAP3 SWAP2 POP POP JUMP JUMPDEST PUSH1 0x0 DUP2 MLOAD SWAP1 POP PUSH2 0x1CD DUP2 PUSH2 0x259 JUMP JUMPDEST SWAP3 SWAP2 POP POP JUMP JUMPDEST PUSH1 0x0 PUSH1 0x20 DUP3 DUP5 SUB SLT ISZERO PUSH2 0x1E5 JUMPI PUSH1 0x0 DUP1 REVERT JUMPDEST PUSH1 0x0 PUSH2 0x1F3 DUP5 DUP3 DUP6 ADD PUSH2 0x1A9 JUMP JUMPDEST SWAP2 POP POP SWAP3 SWAP2 POP POP JUMP JUMPDEST PUSH1 0x0 PUSH1 0x20 DUP3 DUP5 SUB SLT ISZERO PUSH2 0x20E JUMPI PUSH1 0x0 DUP1 REVERT JUMPDEST PUSH1 0x0 PUSH2 0x21C DUP5 DUP3 DUP6 ADD PUSH2 0x1BE JUMP JUMPDEST SWAP2 POP POP SWAP3 SWAP2 POP POP JUMP JUMPDEST PUSH2 0x22E DUP2 PUSH2 0x24F JUMP JUMPDEST DUP3 MSTORE POP POP JUMP JUMPDEST PUSH1 0x0 PUSH1 0x20 DUP3 ADD SWAP1 POP PUSH2 0x249 PUSH1 0x0 DUP4 ADD DUP5 PUSH2 0x225 JUMP JUMPDEST SWAP3 SWAP2 POP POP JUMP JUMPDEST PUSH1 0x0 DUP2 SWAP1 POP SWAP2 SWAP1 POP JUMP JUMPDEST PUSH2 0x262 DUP2 PUSH2 0x24F JUMP JUMPDEST DUP2 EQ PUSH2 0x26D JUMPI PUSH1 0x0 DUP1 REVERT JUMPDEST POP JUMP INVALID LOG2 PUSH5 0x6970667358 0x22 SLT KECCAK256 0xEE PUSH16 0xDCB5F7D2B242BB3384B1EFFAB972F9A8 0x48 PUSH8 0x90A6EAF02737990 EXTCODECOPY 0xF BALANCE 0xAA PUSH5 0x736F6C6343 STOP ADDMOD STOP STOP CALLER PUSH1 0x80 PUSH1 0x40 MSTORE PUSH1 0x5 PUSH1 0x0 SSTORE CALLVALUE DUP1 ISZERO PUSH2 0x15 JUMPI PUSH1 0x0 DUP1 REVERT JUMPDEST POP PUSH2 0x12C DUP1 PUSH2 0x25 PUSH1 0x0 CODECOPY PUSH1 0x0 RETURN INVALID PUSH1 0x80 PUSH1 0x40 MSTORE CALLVALUE DUP1 ISZERO PUSH1 0xF JUMPI PUSH1 0x0 DUP1 REVERT JUMPDEST POP PUSH1 0x4 CALLDATASIZE LT PUSH1 0x32 JUMPI PUSH1 0x0 CALLDATALOAD PUSH1 0xE0 SHR DUP1 PUSH4 0xDBE671F EQ PUSH1 0x37 JUMPI DUP1 PUSH4 0x75322E47 EQ PUSH1 0x51 JUMPI JUMPDEST PUSH1 0x0 DUP1 REVERT JUMPDEST PUSH1 0x3D PUSH1 0x69 JUMP JUMPDEST PUSH1 0x40 MLOAD PUSH1 0x48 SWAP2 SWAP1 PUSH1 0xBF JUMP JUMPDEST PUSH1 0x40 MLOAD DUP1 SWAP2 SUB SWAP1 RETURN JUMPDEST PUSH1 0x67 PUSH1 0x4 DUP1 CALLDATASIZE SUB DUP2 ADD SWAP1 PUSH1 0x63 SWAP2 SWAP1 PUSH1 0x8C JUMP JUMPDEST PUSH1 0x6F JUMP JUMPDEST STOP JUMPDEST PUSH1 0x0 SLOAD DUP2 JUMP JUMPDEST DUP1 PUSH1 0x0 DUP2 SWAP1 SSTORE POP POP JUMP JUMPDEST PUSH1 0x0 DUP2 CALLDATALOAD SWAP1 POP PUSH1 0x86 DUP2 PUSH1 0xE2 JUMP JUMPDEST SWAP3 SWAP2 POP POP JUMP JUMPDEST PUSH1 0x0 PUSH1 0x20 DUP3 DUP5 SUB SLT ISZERO PUSH1 0x9D JUMPI PUSH1 0x0 DUP1 REVERT JUMPDEST PUSH1 0x0 PUSH1 0xA9 DUP5 DUP3 DUP6 ADD PUSH1 0x79 JUMP JUMPDEST SWAP2 POP POP SWAP3 SWAP2 POP POP JUMP JUMPDEST PUSH1 0xB9 DUP2 PUSH1 0xD8 JUMP JUMPDEST DUP3 MSTORE POP POP JUMP JUMPDEST PUSH1 0x0 PUSH1 0x20 DUP3 ADD SWAP1 POP PUSH1 0xD2 PUSH1 0x0 DUP4 ADD DUP5 PUSH1 0xB2 JUMP JUMPDEST SWAP3 SWAP2 POP POP JUMP JUMPDEST PUSH1 0x0 DUP2 SWAP1 POP SWAP2 SWAP1 POP JUMP JUMPDEST PUSH1 0xE9 DUP2 PUSH1 0xD8 JUMP JUMPDEST DUP2 EQ PUSH1 0xF3 JUMPI PUSH1 0x0 DUP1 REVERT JUMPDEST POP JUMP INVALID LOG2 PUSH5 0x6970667358 0x22 SLT KECCAK256 PUSH24 0x15DC682C29EC35669D45A49D12FF8A6770E563405B522A45 0xDB 0xF7 0x21 0xE2 0xD1 DUP5 SWAP8 PUSH5 0x736F6C6343 STOP ADDMOD STOP STOP CALLER "
				},
				"gasEstimates": {
					"creation": {
						"codeDepositCost": "135600",
						"executionCost": "infinite",
						"totalCost": "infinite"
					},
					"external": {
						"chaget_A(uint256)": "infinite",
						"get_A()": "infinite"
					}
				},
				"methodIdentifiers": {
					"chaget_A(uint256)": "db819109",
					"get_A()": "e91df8b3"
				}
			},
			"storageLayout": {
				"storage": [
					{
						"astId": 22,
						"contract": "lecture/lec8.sol:B",
						"label": "instance_1",
						"offset": 0,
						"slot": "0",
						"type": "t_contract(A)15"
					}
				],
				"types": {
					"t_contract(A)15": {
						"encoding": "inplace",
						"label": "contract A",
						"numberOfBytes": "20"
					}
				}
			},
			"userdoc": {
				"kind": "user",
				"methods": {},
				"version": 1
			}
		}
	}
}