{
	"lecture/lec20.sol": {
		"lec10": {
			"abi": [
				{
					"inputs": [
						{
							"internalType": "uint256",
							"name": "",
							"type": "uint256"
						}
					],
					"name": "CharacterMapping",
					"outputs": [
						{
							"internalType": "uint256",
							"name": "age",
							"type": "uint256"
						},
						{
							"internalType": "string",
							"name": "name",
							"type": "string"
						},
						{
							"internalType": "string",
							"name": "job",
							"type": "string"
						}
					],
					"stateMutability": "view",
					"type": "function"
				},
				{
					"inputs": [
						{
							"internalType": "uint256",
							"name": "_age",
							"type": "uint256"
						},
						{
							"internalType": "string",
							"name": "_name",
							"type": "string"
						},
						{
							"internalType": "string",
							"name": "_job",
							"type": "string"
						}
					],
					"name": "createCharacter",
					"outputs": [
						{
							"components": [
								{
									"internalType": "uint256",
									"name": "age",
									"type": "uint256"
								},
								{
									"internalType": "string",
									"name": "name",
									"type": "string"
								},
								{
									"internalType": "string",
									"name": "job",
									"type": "string"
								}
							],
							"internalType": "struct lec10.Character",
							"name": "",
							"type": "tuple"
						}
					],
					"stateMutability": "pure",
					"type": "function"
				}
			],
			"devdoc": {
				"kind": "dev",
				"methods": {},
				"version": 1
			},
			"evm": {
				"assembly": "    /* \"lecture/lec20.sol\":71:414  contract lec10 {... */\n  mstore(0x40, 0x80)\n  callvalue\n  dup1\n  iszero\n  tag_1\n  jumpi\n  0x00\n  dup1\n  revert\ntag_1:\n  pop\n  dataSize(sub_0)\n  dup1\n  dataOffset(sub_0)\n  0x00\n  codecopy\n  0x00\n  return\nstop\n\nsub_0: assembly {\n        /* \"lecture/lec20.sol\":71:414  contract lec10 {... */\n      mstore(0x40, 0x80)\n      callvalue\n      dup1\n      iszero\n      tag_1\n      jumpi\n      0x00\n      dup1\n      revert\n    tag_1:\n      pop\n      jumpi(tag_2, lt(calldatasize, 0x04))\n      shr(0xe0, calldataload(0x00))\n      dup1\n      0x143cd507\n      eq\n      tag_3\n      jumpi\n      dup1\n      0x3189f043\n      eq\n      tag_4\n      jumpi\n    tag_2:\n      0x00\n      dup1\n      revert\n        /* \"lecture/lec20.sol\":245:412  function createCharacter(uint256 _age, string memory _name, string memory _job) pure public returns(Character memory){... */\n    tag_3:\n      tag_5\n      0x04\n      dup1\n      calldatasize\n      sub\n      dup2\n      add\n      swap1\n      tag_6\n      swap2\n      swap1\n      tag_7\n      jump\t// in\n    tag_6:\n      tag_8\n      jump\t// in\n    tag_5:\n      mload(0x40)\n      tag_9\n      swap2\n      swap1\n      tag_10\n      jump\t// in\n    tag_9:\n      mload(0x40)\n      dup1\n      swap2\n      sub\n      swap1\n      return\n        /* \"lecture/lec20.sol\":185:238  mapping(uint256 => Character) public CharacterMapping */\n    tag_4:\n      tag_11\n      0x04\n      dup1\n      calldatasize\n      sub\n      dup2\n      add\n      swap1\n      tag_12\n      swap2\n      swap1\n      tag_13\n      jump\t// in\n    tag_12:\n      tag_14\n      jump\t// in\n    tag_11:\n      mload(0x40)\n      tag_15\n      swap4\n      swap3\n      swap2\n      swap1\n      tag_16\n      jump\t// in\n    tag_15:\n      mload(0x40)\n      dup1\n      swap2\n      sub\n      swap1\n      return\n        /* \"lecture/lec20.sol\":245:412  function createCharacter(uint256 _age, string memory _name, string memory _job) pure public returns(Character memory){... */\n    tag_8:\n        /* \"lecture/lec20.sol\":345:361  Character memory */\n      tag_17\n      tag_18\n      jump\t// in\n    tag_17:\n        /* \"lecture/lec20.sol\":379:405  Character(_age,_name,_job) */\n      mload(0x40)\n      dup1\n      0x60\n      add\n      0x40\n      mstore\n      dup1\n        /* \"lecture/lec20.sol\":389:393  _age */\n      dup6\n        /* \"lecture/lec20.sol\":379:405  Character(_age,_name,_job) */\n      dup2\n      mstore\n      0x20\n      add\n        /* \"lecture/lec20.sol\":394:399  _name */\n      dup5\n        /* \"lecture/lec20.sol\":379:405  Character(_age,_name,_job) */\n      dup2\n      mstore\n      0x20\n      add\n        /* \"lecture/lec20.sol\":400:404  _job */\n      dup4\n        /* \"lecture/lec20.sol\":379:405  Character(_age,_name,_job) */\n      dup2\n      mstore\n      pop\n        /* \"lecture/lec20.sol\":372:405  return Character(_age,_name,_job) */\n      swap1\n      pop\n        /* \"lecture/lec20.sol\":245:412  function createCharacter(uint256 _age, string memory _name, string memory _job) pure public returns(Character memory){... */\n      swap4\n      swap3\n      pop\n      pop\n      pop\n      jump\t// out\n        /* \"lecture/lec20.sol\":185:238  mapping(uint256 => Character) public CharacterMapping */\n    tag_14:\n      mstore(0x20, 0x00)\n      dup1\n      0x00\n      mstore\n      keccak256(0x00, 0x40)\n      0x00\n      swap2\n      pop\n      swap1\n      pop\n      dup1\n      0x00\n      add\n      sload\n      swap1\n      dup1\n      0x01\n      add\n      dup1\n      sload\n      tag_20\n      swap1\n      tag_21\n      jump\t// in\n    tag_20:\n      dup1\n      0x1f\n      add\n      0x20\n      dup1\n      swap2\n      div\n      mul\n      0x20\n      add\n      mload(0x40)\n      swap1\n      dup2\n      add\n      0x40\n      mstore\n      dup1\n      swap3\n      swap2\n      swap1\n      dup2\n      dup2\n      mstore\n      0x20\n      add\n      dup3\n      dup1\n      sload\n      tag_22\n      swap1\n      tag_21\n      jump\t// in\n    tag_22:\n      dup1\n      iszero\n      tag_23\n      jumpi\n      dup1\n      0x1f\n      lt\n      tag_24\n      jumpi\n      0x0100\n      dup1\n      dup4\n      sload\n      div\n      mul\n      dup4\n      mstore\n      swap2\n      0x20\n      add\n      swap2\n      jump(tag_23)\n    tag_24:\n      dup3\n      add\n      swap2\n      swap1\n      0x00\n      mstore\n      keccak256(0x00, 0x20)\n      swap1\n    tag_25:\n      dup2\n      sload\n      dup2\n      mstore\n      swap1\n      0x01\n      add\n      swap1\n      0x20\n      add\n      dup1\n      dup4\n      gt\n      tag_25\n      jumpi\n      dup3\n      swap1\n      sub\n      0x1f\n      and\n      dup3\n      add\n      swap2\n    tag_23:\n      pop\n      pop\n      pop\n      pop\n      pop\n      swap1\n      dup1\n      0x02\n      add\n      dup1\n      sload\n      tag_26\n      swap1\n      tag_21\n      jump\t// in\n    tag_26:\n      dup1\n      0x1f\n      add\n      0x20\n      dup1\n      swap2\n      div\n      mul\n      0x20\n      add\n      mload(0x40)\n      swap1\n      dup2\n      add\n      0x40\n      mstore\n      dup1\n      swap3\n      swap2\n      swap1\n      dup2\n      dup2\n      mstore\n      0x20\n      add\n      dup3\n      dup1\n      sload\n      tag_27\n      swap1\n      tag_21\n      jump\t// in\n    tag_27:\n      dup1\n      iszero\n      tag_28\n      jumpi\n      dup1\n      0x1f\n      lt\n      tag_29\n      jumpi\n      0x0100\n      dup1\n      dup4\n      sload\n      div\n      mul\n      dup4\n      mstore\n      swap2\n      0x20\n      add\n      swap2\n      jump(tag_28)\n    tag_29:\n      dup3\n      add\n      swap2\n      swap1\n      0x00\n      mstore\n      keccak256(0x00, 0x20)\n      swap1\n    tag_30:\n      dup2\n      sload\n      dup2\n      mstore\n      swap1\n      0x01\n      add\n      swap1\n      0x20\n      add\n      dup1\n      dup4\n      gt\n      tag_30\n      jumpi\n      dup3\n      swap1\n      sub\n      0x1f\n      and\n      dup3\n      add\n      swap2\n    tag_28:\n      pop\n      pop\n      pop\n      pop\n      pop\n      swap1\n      pop\n      dup4\n      jump\t// out\n    tag_18:\n      mload(0x40)\n      dup1\n      0x60\n      add\n      0x40\n      mstore\n      dup1\n      0x00\n      dup2\n      mstore\n      0x20\n      add\n      0x60\n      dup2\n      mstore\n      0x20\n      add\n      0x60\n      dup2\n      mstore\n      pop\n      swap1\n      jump\t// out\n        /* \"#utility.yul\":7:419   */\n    tag_32:\n        /* \"#utility.yul\":85:90   */\n      0x00\n        /* \"#utility.yul\":110:176   */\n      tag_34\n        /* \"#utility.yul\":126:175   */\n      tag_35\n        /* \"#utility.yul\":168:174   */\n      dup5\n        /* \"#utility.yul\":126:175   */\n      tag_36\n      jump\t// in\n    tag_35:\n        /* \"#utility.yul\":110:176   */\n      tag_37\n      jump\t// in\n    tag_34:\n        /* \"#utility.yul\":101:176   */\n      swap1\n      pop\n        /* \"#utility.yul\":199:205   */\n      dup3\n        /* \"#utility.yul\":192:197   */\n      dup2\n        /* \"#utility.yul\":185:206   */\n      mstore\n        /* \"#utility.yul\":237:241   */\n      0x20\n        /* \"#utility.yul\":230:235   */\n      dup2\n        /* \"#utility.yul\":226:242   */\n      add\n        /* \"#utility.yul\":275:278   */\n      dup5\n        /* \"#utility.yul\":266:272   */\n      dup5\n        /* \"#utility.yul\":261:264   */\n      dup5\n        /* \"#utility.yul\":257:273   */\n      add\n        /* \"#utility.yul\":254:279   */\n      gt\n        /* \"#utility.yul\":251:363   */\n      iszero\n      tag_38\n      jumpi\n        /* \"#utility.yul\":282:361   */\n      tag_39\n      tag_40\n      jump\t// in\n    tag_39:\n        /* \"#utility.yul\":251:363   */\n    tag_38:\n        /* \"#utility.yul\":372:413   */\n      tag_41\n        /* \"#utility.yul\":406:412   */\n      dup5\n        /* \"#utility.yul\":401:404   */\n      dup3\n        /* \"#utility.yul\":396:399   */\n      dup6\n        /* \"#utility.yul\":372:413   */\n      tag_42\n      jump\t// in\n    tag_41:\n        /* \"#utility.yul\":91:419   */\n      pop\n        /* \"#utility.yul\":7:419   */\n      swap4\n      swap3\n      pop\n      pop\n      pop\n      jump\t// out\n        /* \"#utility.yul\":439:779   */\n    tag_43:\n        /* \"#utility.yul\":495:500   */\n      0x00\n        /* \"#utility.yul\":544:547   */\n      dup3\n        /* \"#utility.yul\":537:541   */\n      0x1f\n        /* \"#utility.yul\":529:535   */\n      dup4\n        /* \"#utility.yul\":525:542   */\n      add\n        /* \"#utility.yul\":521:548   */\n      slt\n        /* \"#utility.yul\":511:633   */\n      tag_45\n      jumpi\n        /* \"#utility.yul\":552:631   */\n      tag_46\n      tag_47\n      jump\t// in\n    tag_46:\n        /* \"#utility.yul\":511:633   */\n    tag_45:\n        /* \"#utility.yul\":669:675   */\n      dup2\n        /* \"#utility.yul\":656:676   */\n      calldataload\n        /* \"#utility.yul\":694:773   */\n      tag_48\n        /* \"#utility.yul\":769:772   */\n      dup5\n        /* \"#utility.yul\":761:767   */\n      dup3\n        /* \"#utility.yul\":754:758   */\n      0x20\n        /* \"#utility.yul\":746:752   */\n      dup7\n        /* \"#utility.yul\":742:759   */\n      add\n        /* \"#utility.yul\":694:773   */\n      tag_32\n      jump\t// in\n    tag_48:\n        /* \"#utility.yul\":685:773   */\n      swap2\n      pop\n        /* \"#utility.yul\":501:779   */\n      pop\n        /* \"#utility.yul\":439:779   */\n      swap3\n      swap2\n      pop\n      pop\n      jump\t// out\n        /* \"#utility.yul\":785:924   */\n    tag_49:\n        /* \"#utility.yul\":831:836   */\n      0x00\n        /* \"#utility.yul\":869:875   */\n      dup2\n        /* \"#utility.yul\":856:876   */\n      calldataload\n        /* \"#utility.yul\":847:876   */\n      swap1\n      pop\n        /* \"#utility.yul\":885:918   */\n      tag_51\n        /* \"#utility.yul\":912:917   */\n      dup2\n        /* \"#utility.yul\":885:918   */\n      tag_52\n      jump\t// in\n    tag_51:\n        /* \"#utility.yul\":785:924   */\n      swap3\n      swap2\n      pop\n      pop\n      jump\t// out\n        /* \"#utility.yul\":930:1259   */\n    tag_13:\n        /* \"#utility.yul\":989:995   */\n      0x00\n        /* \"#utility.yul\":1038:1040   */\n      0x20\n        /* \"#utility.yul\":1026:1035   */\n      dup3\n        /* \"#utility.yul\":1017:1024   */\n      dup5\n        /* \"#utility.yul\":1013:1036   */\n      sub\n        /* \"#utility.yul\":1009:1041   */\n      slt\n        /* \"#utility.yul\":1006:1125   */\n      iszero\n      tag_54\n      jumpi\n        /* \"#utility.yul\":1044:1123   */\n      tag_55\n      tag_56\n      jump\t// in\n    tag_55:\n        /* \"#utility.yul\":1006:1125   */\n    tag_54:\n        /* \"#utility.yul\":1164:1165   */\n      0x00\n        /* \"#utility.yul\":1189:1242   */\n      tag_57\n        /* \"#utility.yul\":1234:1241   */\n      dup5\n        /* \"#utility.yul\":1225:1231   */\n      dup3\n        /* \"#utility.yul\":1214:1223   */\n      dup6\n        /* \"#utility.yul\":1210:1232   */\n      add\n        /* \"#utility.yul\":1189:1242   */\n      tag_49\n      jump\t// in\n    tag_57:\n        /* \"#utility.yul\":1179:1242   */\n      swap2\n      pop\n        /* \"#utility.yul\":1135:1252   */\n      pop\n        /* \"#utility.yul\":930:1259   */\n      swap3\n      swap2\n      pop\n      pop\n      jump\t// out\n        /* \"#utility.yul\":1265:2244   */\n    tag_7:\n        /* \"#utility.yul\":1362:1368   */\n      0x00\n        /* \"#utility.yul\":1370:1376   */\n      dup1\n        /* \"#utility.yul\":1378:1384   */\n      0x00\n        /* \"#utility.yul\":1427:1429   */\n      0x60\n        /* \"#utility.yul\":1415:1424   */\n      dup5\n        /* \"#utility.yul\":1406:1413   */\n      dup7\n        /* \"#utility.yul\":1402:1425   */\n      sub\n        /* \"#utility.yul\":1398:1430   */\n      slt\n        /* \"#utility.yul\":1395:1514   */\n      iszero\n      tag_59\n      jumpi\n        /* \"#utility.yul\":1433:1512   */\n      tag_60\n      tag_56\n      jump\t// in\n    tag_60:\n        /* \"#utility.yul\":1395:1514   */\n    tag_59:\n        /* \"#utility.yul\":1553:1554   */\n      0x00\n        /* \"#utility.yul\":1578:1631   */\n      tag_61\n        /* \"#utility.yul\":1623:1630   */\n      dup7\n        /* \"#utility.yul\":1614:1620   */\n      dup3\n        /* \"#utility.yul\":1603:1612   */\n      dup8\n        /* \"#utility.yul\":1599:1621   */\n      add\n        /* \"#utility.yul\":1578:1631   */\n      tag_49\n      jump\t// in\n    tag_61:\n        /* \"#utility.yul\":1568:1631   */\n      swap4\n      pop\n        /* \"#utility.yul\":1524:1641   */\n      pop\n        /* \"#utility.yul\":1708:1710   */\n      0x20\n        /* \"#utility.yul\":1697:1706   */\n      dup5\n        /* \"#utility.yul\":1693:1711   */\n      add\n        /* \"#utility.yul\":1680:1712   */\n      calldataload\n        /* \"#utility.yul\":1739:1757   */\n      0xffffffffffffffff\n        /* \"#utility.yul\":1731:1737   */\n      dup2\n        /* \"#utility.yul\":1728:1758   */\n      gt\n        /* \"#utility.yul\":1725:1842   */\n      iszero\n      tag_62\n      jumpi\n        /* \"#utility.yul\":1761:1840   */\n      tag_63\n      tag_64\n      jump\t// in\n    tag_63:\n        /* \"#utility.yul\":1725:1842   */\n    tag_62:\n        /* \"#utility.yul\":1866:1929   */\n      tag_65\n        /* \"#utility.yul\":1921:1928   */\n      dup7\n        /* \"#utility.yul\":1912:1918   */\n      dup3\n        /* \"#utility.yul\":1901:1910   */\n      dup8\n        /* \"#utility.yul\":1897:1919   */\n      add\n        /* \"#utility.yul\":1866:1929   */\n      tag_43\n      jump\t// in\n    tag_65:\n        /* \"#utility.yul\":1856:1929   */\n      swap3\n      pop\n        /* \"#utility.yul\":1651:1939   */\n      pop\n        /* \"#utility.yul\":2006:2008   */\n      0x40\n        /* \"#utility.yul\":1995:2004   */\n      dup5\n        /* \"#utility.yul\":1991:2009   */\n      add\n        /* \"#utility.yul\":1978:2010   */\n      calldataload\n        /* \"#utility.yul\":2037:2055   */\n      0xffffffffffffffff\n        /* \"#utility.yul\":2029:2035   */\n      dup2\n        /* \"#utility.yul\":2026:2056   */\n      gt\n        /* \"#utility.yul\":2023:2140   */\n      iszero\n      tag_66\n      jumpi\n        /* \"#utility.yul\":2059:2138   */\n      tag_67\n      tag_64\n      jump\t// in\n    tag_67:\n        /* \"#utility.yul\":2023:2140   */\n    tag_66:\n        /* \"#utility.yul\":2164:2227   */\n      tag_68\n        /* \"#utility.yul\":2219:2226   */\n      dup7\n        /* \"#utility.yul\":2210:2216   */\n      dup3\n        /* \"#utility.yul\":2199:2208   */\n      dup8\n        /* \"#utility.yul\":2195:2217   */\n      add\n        /* \"#utility.yul\":2164:2227   */\n      tag_43\n      jump\t// in\n    tag_68:\n        /* \"#utility.yul\":2154:2227   */\n      swap2\n      pop\n        /* \"#utility.yul\":1949:2237   */\n      pop\n        /* \"#utility.yul\":1265:2244   */\n      swap3\n      pop\n      swap3\n      pop\n      swap3\n      jump\t// out\n        /* \"#utility.yul\":2250:2594   */\n    tag_69:\n        /* \"#utility.yul\":2328:2331   */\n      0x00\n        /* \"#utility.yul\":2356:2395   */\n      tag_71\n        /* \"#utility.yul\":2389:2394   */\n      dup3\n        /* \"#utility.yul\":2356:2395   */\n      tag_72\n      jump\t// in\n    tag_71:\n        /* \"#utility.yul\":2411:2472   */\n      tag_73\n        /* \"#utility.yul\":2465:2471   */\n      dup2\n        /* \"#utility.yul\":2460:2463   */\n      dup6\n        /* \"#utility.yul\":2411:2472   */\n      tag_74\n      jump\t// in\n    tag_73:\n        /* \"#utility.yul\":2404:2472   */\n      swap4\n      pop\n        /* \"#utility.yul\":2481:2533   */\n      tag_75\n        /* \"#utility.yul\":2526:2532   */\n      dup2\n        /* \"#utility.yul\":2521:2524   */\n      dup6\n        /* \"#utility.yul\":2514:2518   */\n      0x20\n        /* \"#utility.yul\":2507:2512   */\n      dup7\n        /* \"#utility.yul\":2503:2519   */\n      add\n        /* \"#utility.yul\":2481:2533   */\n      tag_76\n      jump\t// in\n    tag_75:\n        /* \"#utility.yul\":2558:2587   */\n      tag_77\n        /* \"#utility.yul\":2580:2586   */\n      dup2\n        /* \"#utility.yul\":2558:2587   */\n      tag_78\n      jump\t// in\n    tag_77:\n        /* \"#utility.yul\":2553:2556   */\n      dup5\n        /* \"#utility.yul\":2549:2588   */\n      add\n        /* \"#utility.yul\":2542:2588   */\n      swap2\n      pop\n        /* \"#utility.yul\":2332:2594   */\n      pop\n        /* \"#utility.yul\":2250:2594   */\n      swap3\n      swap2\n      pop\n      pop\n      jump\t// out\n        /* \"#utility.yul\":2600:2964   */\n    tag_79:\n        /* \"#utility.yul\":2688:2691   */\n      0x00\n        /* \"#utility.yul\":2716:2755   */\n      tag_81\n        /* \"#utility.yul\":2749:2754   */\n      dup3\n        /* \"#utility.yul\":2716:2755   */\n      tag_72\n      jump\t// in\n    tag_81:\n        /* \"#utility.yul\":2771:2842   */\n      tag_82\n        /* \"#utility.yul\":2835:2841   */\n      dup2\n        /* \"#utility.yul\":2830:2833   */\n      dup6\n        /* \"#utility.yul\":2771:2842   */\n      tag_83\n      jump\t// in\n    tag_82:\n        /* \"#utility.yul\":2764:2842   */\n      swap4\n      pop\n        /* \"#utility.yul\":2851:2903   */\n      tag_84\n        /* \"#utility.yul\":2896:2902   */\n      dup2\n        /* \"#utility.yul\":2891:2894   */\n      dup6\n        /* \"#utility.yul\":2884:2888   */\n      0x20\n        /* \"#utility.yul\":2877:2882   */\n      dup7\n        /* \"#utility.yul\":2873:2889   */\n      add\n        /* \"#utility.yul\":2851:2903   */\n      tag_76\n      jump\t// in\n    tag_84:\n        /* \"#utility.yul\":2928:2957   */\n      tag_85\n        /* \"#utility.yul\":2950:2956   */\n      dup2\n        /* \"#utility.yul\":2928:2957   */\n      tag_78\n      jump\t// in\n    tag_85:\n        /* \"#utility.yul\":2923:2926   */\n      dup5\n        /* \"#utility.yul\":2919:2958   */\n      add\n        /* \"#utility.yul\":2912:2958   */\n      swap2\n      pop\n        /* \"#utility.yul\":2692:2964   */\n      pop\n        /* \"#utility.yul\":2600:2964   */\n      swap3\n      swap2\n      pop\n      pop\n      jump\t// out\n        /* \"#utility.yul\":3026:3873   */\n    tag_86:\n        /* \"#utility.yul\":3143:3146   */\n      0x00\n        /* \"#utility.yul\":3179:3183   */\n      0x60\n        /* \"#utility.yul\":3174:3177   */\n      dup4\n        /* \"#utility.yul\":3170:3184   */\n      add\n        /* \"#utility.yul\":3265:3269   */\n      0x00\n        /* \"#utility.yul\":3258:3263   */\n      dup4\n        /* \"#utility.yul\":3254:3270   */\n      add\n        /* \"#utility.yul\":3248:3271   */\n      mload\n        /* \"#utility.yul\":3284:3347   */\n      tag_88\n        /* \"#utility.yul\":3341:3345   */\n      0x00\n        /* \"#utility.yul\":3336:3339   */\n      dup7\n        /* \"#utility.yul\":3332:3346   */\n      add\n        /* \"#utility.yul\":3318:3330   */\n      dup3\n        /* \"#utility.yul\":3284:3347   */\n      tag_89\n      jump\t// in\n    tag_88:\n        /* \"#utility.yul\":3194:3357   */\n      pop\n        /* \"#utility.yul\":3439:3443   */\n      0x20\n        /* \"#utility.yul\":3432:3437   */\n      dup4\n        /* \"#utility.yul\":3428:3444   */\n      add\n        /* \"#utility.yul\":3422:3445   */\n      mload\n        /* \"#utility.yul\":3492:3495   */\n      dup5\n        /* \"#utility.yul\":3486:3490   */\n      dup3\n        /* \"#utility.yul\":3482:3496   */\n      sub\n        /* \"#utility.yul\":3475:3479   */\n      0x20\n        /* \"#utility.yul\":3470:3473   */\n      dup7\n        /* \"#utility.yul\":3466:3480   */\n      add\n        /* \"#utility.yul\":3459:3497   */\n      mstore\n        /* \"#utility.yul\":3518:3591   */\n      tag_90\n        /* \"#utility.yul\":3586:3590   */\n      dup3\n        /* \"#utility.yul\":3572:3584   */\n      dup3\n        /* \"#utility.yul\":3518:3591   */\n      tag_69\n      jump\t// in\n    tag_90:\n        /* \"#utility.yul\":3510:3591   */\n      swap2\n      pop\n        /* \"#utility.yul\":3367:3602   */\n      pop\n        /* \"#utility.yul\":3683:3687   */\n      0x40\n        /* \"#utility.yul\":3676:3681   */\n      dup4\n        /* \"#utility.yul\":3672:3688   */\n      add\n        /* \"#utility.yul\":3666:3689   */\n      mload\n        /* \"#utility.yul\":3736:3739   */\n      dup5\n        /* \"#utility.yul\":3730:3734   */\n      dup3\n        /* \"#utility.yul\":3726:3740   */\n      sub\n        /* \"#utility.yul\":3719:3723   */\n      0x40\n        /* \"#utility.yul\":3714:3717   */\n      dup7\n        /* \"#utility.yul\":3710:3724   */\n      add\n        /* \"#utility.yul\":3703:3741   */\n      mstore\n        /* \"#utility.yul\":3762:3835   */\n      tag_91\n        /* \"#utility.yul\":3830:3834   */\n      dup3\n        /* \"#utility.yul\":3816:3828   */\n      dup3\n        /* \"#utility.yul\":3762:3835   */\n      tag_69\n      jump\t// in\n    tag_91:\n        /* \"#utility.yul\":3754:3835   */\n      swap2\n      pop\n        /* \"#utility.yul\":3612:3846   */\n      pop\n        /* \"#utility.yul\":3863:3867   */\n      dup1\n        /* \"#utility.yul\":3856:3867   */\n      swap2\n      pop\n        /* \"#utility.yul\":3148:3873   */\n      pop\n        /* \"#utility.yul\":3026:3873   */\n      swap3\n      swap2\n      pop\n      pop\n      jump\t// out\n        /* \"#utility.yul\":3879:3987   */\n    tag_89:\n        /* \"#utility.yul\":3956:3980   */\n      tag_93\n        /* \"#utility.yul\":3974:3979   */\n      dup2\n        /* \"#utility.yul\":3956:3980   */\n      tag_94\n      jump\t// in\n    tag_93:\n        /* \"#utility.yul\":3951:3954   */\n      dup3\n        /* \"#utility.yul\":3944:3981   */\n      mstore\n        /* \"#utility.yul\":3879:3987   */\n      pop\n      pop\n      jump\t// out\n        /* \"#utility.yul\":3993:4111   */\n    tag_95:\n        /* \"#utility.yul\":4080:4104   */\n      tag_97\n        /* \"#utility.yul\":4098:4103   */\n      dup2\n        /* \"#utility.yul\":4080:4104   */\n      tag_94\n      jump\t// in\n    tag_97:\n        /* \"#utility.yul\":4075:4078   */\n      dup3\n        /* \"#utility.yul\":4068:4105   */\n      mstore\n        /* \"#utility.yul\":3993:4111   */\n      pop\n      pop\n      jump\t// out\n        /* \"#utility.yul\":4117:4486   */\n    tag_10:\n        /* \"#utility.yul\":4258:4262   */\n      0x00\n        /* \"#utility.yul\":4296:4298   */\n      0x20\n        /* \"#utility.yul\":4285:4294   */\n      dup3\n        /* \"#utility.yul\":4281:4299   */\n      add\n        /* \"#utility.yul\":4273:4299   */\n      swap1\n      pop\n        /* \"#utility.yul\":4345:4354   */\n      dup2\n        /* \"#utility.yul\":4339:4343   */\n      dup2\n        /* \"#utility.yul\":4335:4355   */\n      sub\n        /* \"#utility.yul\":4331:4332   */\n      0x00\n        /* \"#utility.yul\":4320:4329   */\n      dup4\n        /* \"#utility.yul\":4316:4333   */\n      add\n        /* \"#utility.yul\":4309:4356   */\n      mstore\n        /* \"#utility.yul\":4373:4479   */\n      tag_99\n        /* \"#utility.yul\":4474:4478   */\n      dup2\n        /* \"#utility.yul\":4465:4471   */\n      dup5\n        /* \"#utility.yul\":4373:4479   */\n      tag_86\n      jump\t// in\n    tag_99:\n        /* \"#utility.yul\":4365:4479   */\n      swap1\n      pop\n        /* \"#utility.yul\":4117:4486   */\n      swap3\n      swap2\n      pop\n      pop\n      jump\t// out\n        /* \"#utility.yul\":4492:5116   */\n    tag_16:\n        /* \"#utility.yul\":4681:4685   */\n      0x00\n        /* \"#utility.yul\":4719:4721   */\n      0x60\n        /* \"#utility.yul\":4708:4717   */\n      dup3\n        /* \"#utility.yul\":4704:4722   */\n      add\n        /* \"#utility.yul\":4696:4722   */\n      swap1\n      pop\n        /* \"#utility.yul\":4732:4803   */\n      tag_101\n        /* \"#utility.yul\":4800:4801   */\n      0x00\n        /* \"#utility.yul\":4789:4798   */\n      dup4\n        /* \"#utility.yul\":4785:4802   */\n      add\n        /* \"#utility.yul\":4776:4782   */\n      dup7\n        /* \"#utility.yul\":4732:4803   */\n      tag_95\n      jump\t// in\n    tag_101:\n        /* \"#utility.yul\":4850:4859   */\n      dup2\n        /* \"#utility.yul\":4844:4848   */\n      dup2\n        /* \"#utility.yul\":4840:4860   */\n      sub\n        /* \"#utility.yul\":4835:4837   */\n      0x20\n        /* \"#utility.yul\":4824:4833   */\n      dup4\n        /* \"#utility.yul\":4820:4838   */\n      add\n        /* \"#utility.yul\":4813:4861   */\n      mstore\n        /* \"#utility.yul\":4878:4956   */\n      tag_102\n        /* \"#utility.yul\":4951:4955   */\n      dup2\n        /* \"#utility.yul\":4942:4948   */\n      dup6\n        /* \"#utility.yul\":4878:4956   */\n      tag_79\n      jump\t// in\n    tag_102:\n        /* \"#utility.yul\":4870:4956   */\n      swap1\n      pop\n        /* \"#utility.yul\":5003:5012   */\n      dup2\n        /* \"#utility.yul\":4997:5001   */\n      dup2\n        /* \"#utility.yul\":4993:5013   */\n      sub\n        /* \"#utility.yul\":4988:4990   */\n      0x40\n        /* \"#utility.yul\":4977:4986   */\n      dup4\n        /* \"#utility.yul\":4973:4991   */\n      add\n        /* \"#utility.yul\":4966:5014   */\n      mstore\n        /* \"#utility.yul\":5031:5109   */\n      tag_103\n        /* \"#utility.yul\":5104:5108   */\n      dup2\n        /* \"#utility.yul\":5095:5101   */\n      dup5\n        /* \"#utility.yul\":5031:5109   */\n      tag_79\n      jump\t// in\n    tag_103:\n        /* \"#utility.yul\":5023:5109   */\n      swap1\n      pop\n        /* \"#utility.yul\":4492:5116   */\n      swap5\n      swap4\n      pop\n      pop\n      pop\n      pop\n      jump\t// out\n        /* \"#utility.yul\":5122:5251   */\n    tag_37:\n        /* \"#utility.yul\":5156:5162   */\n      0x00\n        /* \"#utility.yul\":5183:5203   */\n      tag_105\n      tag_106\n      jump\t// in\n    tag_105:\n        /* \"#utility.yul\":5173:5203   */\n      swap1\n      pop\n        /* \"#utility.yul\":5212:5245   */\n      tag_107\n        /* \"#utility.yul\":5240:5244   */\n      dup3\n        /* \"#utility.yul\":5232:5238   */\n      dup3\n        /* \"#utility.yul\":5212:5245   */\n      tag_108\n      jump\t// in\n    tag_107:\n        /* \"#utility.yul\":5122:5251   */\n      swap2\n      swap1\n      pop\n      jump\t// out\n        /* \"#utility.yul\":5257:5332   */\n    tag_106:\n        /* \"#utility.yul\":5290:5296   */\n      0x00\n        /* \"#utility.yul\":5323:5325   */\n      0x40\n        /* \"#utility.yul\":5317:5326   */\n      mload\n        /* \"#utility.yul\":5307:5326   */\n      swap1\n      pop\n        /* \"#utility.yul\":5257:5332   */\n      swap1\n      jump\t// out\n        /* \"#utility.yul\":5338:5646   */\n    tag_36:\n        /* \"#utility.yul\":5400:5404   */\n      0x00\n        /* \"#utility.yul\":5490:5508   */\n      0xffffffffffffffff\n        /* \"#utility.yul\":5482:5488   */\n      dup3\n        /* \"#utility.yul\":5479:5509   */\n      gt\n        /* \"#utility.yul\":5476:5532   */\n      iszero\n      tag_111\n      jumpi\n        /* \"#utility.yul\":5512:5530   */\n      tag_112\n      tag_113\n      jump\t// in\n    tag_112:\n        /* \"#utility.yul\":5476:5532   */\n    tag_111:\n        /* \"#utility.yul\":5550:5579   */\n      tag_114\n        /* \"#utility.yul\":5572:5578   */\n      dup3\n        /* \"#utility.yul\":5550:5579   */\n      tag_78\n      jump\t// in\n    tag_114:\n        /* \"#utility.yul\":5542:5579   */\n      swap1\n      pop\n        /* \"#utility.yul\":5634:5638   */\n      0x20\n        /* \"#utility.yul\":5628:5632   */\n      dup2\n        /* \"#utility.yul\":5624:5639   */\n      add\n        /* \"#utility.yul\":5616:5639   */\n      swap1\n      pop\n        /* \"#utility.yul\":5338:5646   */\n      swap2\n      swap1\n      pop\n      jump\t// out\n        /* \"#utility.yul\":5652:5751   */\n    tag_72:\n        /* \"#utility.yul\":5704:5710   */\n      0x00\n        /* \"#utility.yul\":5738:5743   */\n      dup2\n        /* \"#utility.yul\":5732:5744   */\n      mload\n        /* \"#utility.yul\":5722:5744   */\n      swap1\n      pop\n        /* \"#utility.yul\":5652:5751   */\n      swap2\n      swap1\n      pop\n      jump\t// out\n        /* \"#utility.yul\":5757:5916   */\n    tag_74:\n        /* \"#utility.yul\":5831:5842   */\n      0x00\n        /* \"#utility.yul\":5865:5871   */\n      dup3\n        /* \"#utility.yul\":5860:5863   */\n      dup3\n        /* \"#utility.yul\":5853:5872   */\n      mstore\n        /* \"#utility.yul\":5905:5909   */\n      0x20\n        /* \"#utility.yul\":5900:5903   */\n      dup3\n        /* \"#utility.yul\":5896:5910   */\n      add\n        /* \"#utility.yul\":5881:5910   */\n      swap1\n      pop\n        /* \"#utility.yul\":5757:5916   */\n      swap3\n      swap2\n      pop\n      pop\n      jump\t// out\n        /* \"#utility.yul\":5922:6091   */\n    tag_83:\n        /* \"#utility.yul\":6006:6017   */\n      0x00\n        /* \"#utility.yul\":6040:6046   */\n      dup3\n        /* \"#utility.yul\":6035:6038   */\n      dup3\n        /* \"#utility.yul\":6028:6047   */\n      mstore\n        /* \"#utility.yul\":6080:6084   */\n      0x20\n        /* \"#utility.yul\":6075:6078   */\n      dup3\n        /* \"#utility.yul\":6071:6085   */\n      add\n        /* \"#utility.yul\":6056:6085   */\n      swap1\n      pop\n        /* \"#utility.yul\":5922:6091   */\n      swap3\n      swap2\n      pop\n      pop\n      jump\t// out\n        /* \"#utility.yul\":6097:6174   */\n    tag_94:\n        /* \"#utility.yul\":6134:6141   */\n      0x00\n        /* \"#utility.yul\":6163:6168   */\n      dup2\n        /* \"#utility.yul\":6152:6168   */\n      swap1\n      pop\n        /* \"#utility.yul\":6097:6174   */\n      swap2\n      swap1\n      pop\n      jump\t// out\n        /* \"#utility.yul\":6180:6334   */\n    tag_42:\n        /* \"#utility.yul\":6264:6270   */\n      dup3\n        /* \"#utility.yul\":6259:6262   */\n      dup2\n        /* \"#utility.yul\":6254:6257   */\n      dup4\n        /* \"#utility.yul\":6241:6271   */\n      calldatacopy\n        /* \"#utility.yul\":6326:6327   */\n      0x00\n        /* \"#utility.yul\":6317:6323   */\n      dup4\n        /* \"#utility.yul\":6312:6315   */\n      dup4\n        /* \"#utility.yul\":6308:6324   */\n      add\n        /* \"#utility.yul\":6301:6328   */\n      mstore\n        /* \"#utility.yul\":6180:6334   */\n      pop\n      pop\n      pop\n      jump\t// out\n        /* \"#utility.yul\":6340:6647   */\n    tag_76:\n        /* \"#utility.yul\":6408:6409   */\n      0x00\n        /* \"#utility.yul\":6418:6531   */\n    tag_121:\n        /* \"#utility.yul\":6432:6438   */\n      dup4\n        /* \"#utility.yul\":6429:6430   */\n      dup2\n        /* \"#utility.yul\":6426:6439   */\n      lt\n        /* \"#utility.yul\":6418:6531   */\n      iszero\n      tag_123\n      jumpi\n        /* \"#utility.yul\":6517:6518   */\n      dup1\n        /* \"#utility.yul\":6512:6515   */\n      dup3\n        /* \"#utility.yul\":6508:6519   */\n      add\n        /* \"#utility.yul\":6502:6520   */\n      mload\n        /* \"#utility.yul\":6498:6499   */\n      dup2\n        /* \"#utility.yul\":6493:6496   */\n      dup5\n        /* \"#utility.yul\":6489:6500   */\n      add\n        /* \"#utility.yul\":6482:6521   */\n      mstore\n        /* \"#utility.yul\":6454:6456   */\n      0x20\n        /* \"#utility.yul\":6451:6452   */\n      dup2\n        /* \"#utility.yul\":6447:6457   */\n      add\n        /* \"#utility.yul\":6442:6457   */\n      swap1\n      pop\n        /* \"#utility.yul\":6418:6531   */\n      jump(tag_121)\n    tag_123:\n        /* \"#utility.yul\":6549:6555   */\n      dup4\n        /* \"#utility.yul\":6546:6547   */\n      dup2\n        /* \"#utility.yul\":6543:6556   */\n      gt\n        /* \"#utility.yul\":6540:6641   */\n      iszero\n      tag_124\n      jumpi\n        /* \"#utility.yul\":6629:6630   */\n      0x00\n        /* \"#utility.yul\":6620:6626   */\n      dup5\n        /* \"#utility.yul\":6615:6618   */\n      dup5\n        /* \"#utility.yul\":6611:6627   */\n      add\n        /* \"#utility.yul\":6604:6631   */\n      mstore\n        /* \"#utility.yul\":6540:6641   */\n    tag_124:\n        /* \"#utility.yul\":6389:6647   */\n      pop\n        /* \"#utility.yul\":6340:6647   */\n      pop\n      pop\n      pop\n      jump\t// out\n        /* \"#utility.yul\":6653:6973   */\n    tag_21:\n        /* \"#utility.yul\":6697:6703   */\n      0x00\n        /* \"#utility.yul\":6734:6735   */\n      0x02\n        /* \"#utility.yul\":6728:6732   */\n      dup3\n        /* \"#utility.yul\":6724:6736   */\n      div\n        /* \"#utility.yul\":6714:6736   */\n      swap1\n      pop\n        /* \"#utility.yul\":6781:6782   */\n      0x01\n        /* \"#utility.yul\":6775:6779   */\n      dup3\n        /* \"#utility.yul\":6771:6783   */\n      and\n        /* \"#utility.yul\":6802:6820   */\n      dup1\n        /* \"#utility.yul\":6792:6873   */\n      tag_126\n      jumpi\n        /* \"#utility.yul\":6858:6862   */\n      0x7f\n        /* \"#utility.yul\":6850:6856   */\n      dup3\n        /* \"#utility.yul\":6846:6863   */\n      and\n        /* \"#utility.yul\":6836:6863   */\n      swap2\n      pop\n        /* \"#utility.yul\":6792:6873   */\n    tag_126:\n        /* \"#utility.yul\":6920:6922   */\n      0x20\n        /* \"#utility.yul\":6912:6918   */\n      dup3\n        /* \"#utility.yul\":6909:6923   */\n      lt\n        /* \"#utility.yul\":6889:6907   */\n      dup2\n        /* \"#utility.yul\":6886:6924   */\n      eq\n        /* \"#utility.yul\":6883:6967   */\n      iszero\n      tag_127\n      jumpi\n        /* \"#utility.yul\":6939:6957   */\n      tag_128\n      tag_129\n      jump\t// in\n    tag_128:\n        /* \"#utility.yul\":6883:6967   */\n    tag_127:\n        /* \"#utility.yul\":6704:6973   */\n      pop\n        /* \"#utility.yul\":6653:6973   */\n      swap2\n      swap1\n      pop\n      jump\t// out\n        /* \"#utility.yul\":6979:7260   */\n    tag_108:\n        /* \"#utility.yul\":7062:7089   */\n      tag_131\n        /* \"#utility.yul\":7084:7088   */\n      dup3\n        /* \"#utility.yul\":7062:7089   */\n      tag_78\n      jump\t// in\n    tag_131:\n        /* \"#utility.yul\":7054:7060   */\n      dup2\n        /* \"#utility.yul\":7050:7090   */\n      add\n        /* \"#utility.yul\":7192:7198   */\n      dup2\n        /* \"#utility.yul\":7180:7190   */\n      dup2\n        /* \"#utility.yul\":7177:7199   */\n      lt\n        /* \"#utility.yul\":7156:7174   */\n      0xffffffffffffffff\n        /* \"#utility.yul\":7144:7154   */\n      dup3\n        /* \"#utility.yul\":7141:7175   */\n      gt\n        /* \"#utility.yul\":7138:7200   */\n      or\n        /* \"#utility.yul\":7135:7223   */\n      iszero\n      tag_132\n      jumpi\n        /* \"#utility.yul\":7203:7221   */\n      tag_133\n      tag_113\n      jump\t// in\n    tag_133:\n        /* \"#utility.yul\":7135:7223   */\n    tag_132:\n        /* \"#utility.yul\":7243:7253   */\n      dup1\n        /* \"#utility.yul\":7239:7241   */\n      0x40\n        /* \"#utility.yul\":7232:7254   */\n      mstore\n        /* \"#utility.yul\":7022:7260   */\n      pop\n        /* \"#utility.yul\":6979:7260   */\n      pop\n      pop\n      jump\t// out\n        /* \"#utility.yul\":7266:7446   */\n    tag_129:\n        /* \"#utility.yul\":7314:7391   */\n      0x4e487b7100000000000000000000000000000000000000000000000000000000\n        /* \"#utility.yul\":7311:7312   */\n      0x00\n        /* \"#utility.yul\":7304:7392   */\n      mstore\n        /* \"#utility.yul\":7411:7415   */\n      0x22\n        /* \"#utility.yul\":7408:7409   */\n      0x04\n        /* \"#utility.yul\":7401:7416   */\n      mstore\n        /* \"#utility.yul\":7435:7439   */\n      0x24\n        /* \"#utility.yul\":7432:7433   */\n      0x00\n        /* \"#utility.yul\":7425:7440   */\n      revert\n        /* \"#utility.yul\":7452:7632   */\n    tag_113:\n        /* \"#utility.yul\":7500:7577   */\n      0x4e487b7100000000000000000000000000000000000000000000000000000000\n        /* \"#utility.yul\":7497:7498   */\n      0x00\n        /* \"#utility.yul\":7490:7578   */\n      mstore\n        /* \"#utility.yul\":7597:7601   */\n      0x41\n        /* \"#utility.yul\":7594:7595   */\n      0x04\n        /* \"#utility.yul\":7587:7602   */\n      mstore\n        /* \"#utility.yul\":7621:7625   */\n      0x24\n        /* \"#utility.yul\":7618:7619   */\n      0x00\n        /* \"#utility.yul\":7611:7626   */\n      revert\n        /* \"#utility.yul\":7638:7755   */\n    tag_47:\n        /* \"#utility.yul\":7747:7748   */\n      0x00\n        /* \"#utility.yul\":7744:7745   */\n      dup1\n        /* \"#utility.yul\":7737:7749   */\n      revert\n        /* \"#utility.yul\":7761:7878   */\n    tag_40:\n        /* \"#utility.yul\":7870:7871   */\n      0x00\n        /* \"#utility.yul\":7867:7868   */\n      dup1\n        /* \"#utility.yul\":7860:7872   */\n      revert\n        /* \"#utility.yul\":7884:8001   */\n    tag_64:\n        /* \"#utility.yul\":7993:7994   */\n      0x00\n        /* \"#utility.yul\":7990:7991   */\n      dup1\n        /* \"#utility.yul\":7983:7995   */\n      revert\n        /* \"#utility.yul\":8007:8124   */\n    tag_56:\n        /* \"#utility.yul\":8116:8117   */\n      0x00\n        /* \"#utility.yul\":8113:8114   */\n      dup1\n        /* \"#utility.yul\":8106:8118   */\n      revert\n        /* \"#utility.yul\":8130:8232   */\n    tag_78:\n        /* \"#utility.yul\":8171:8177   */\n      0x00\n        /* \"#utility.yul\":8222:8224   */\n      0x1f\n        /* \"#utility.yul\":8218:8225   */\n      not\n        /* \"#utility.yul\":8213:8215   */\n      0x1f\n        /* \"#utility.yul\":8206:8211   */\n      dup4\n        /* \"#utility.yul\":8202:8216   */\n      add\n        /* \"#utility.yul\":8198:8226   */\n      and\n        /* \"#utility.yul\":8188:8226   */\n      swap1\n      pop\n        /* \"#utility.yul\":8130:8232   */\n      swap2\n      swap1\n      pop\n      jump\t// out\n        /* \"#utility.yul\":8238:8360   */\n    tag_52:\n        /* \"#utility.yul\":8311:8335   */\n      tag_142\n        /* \"#utility.yul\":8329:8334   */\n      dup2\n        /* \"#utility.yul\":8311:8335   */\n      tag_94\n      jump\t// in\n    tag_142:\n        /* \"#utility.yul\":8304:8309   */\n      dup2\n        /* \"#utility.yul\":8301:8336   */\n      eq\n        /* \"#utility.yul\":8291:8354   */\n      tag_143\n      jumpi\n        /* \"#utility.yul\":8350:8351   */\n      0x00\n        /* \"#utility.yul\":8347:8348   */\n      dup1\n        /* \"#utility.yul\":8340:8352   */\n      revert\n        /* \"#utility.yul\":8291:8354   */\n    tag_143:\n        /* \"#utility.yul\":8238:8360   */\n      pop\n      jump\t// out\n\n    auxdata: 0xa26469706673582212203d40b59ae07c48d4aed623312f3d464e2c84d4cc4fe8f3eae737069c7649edce64736f6c63430008070033\n}\n",
				"bytecode": {
					"linkReferences": {},
					"object": "608060405234801561001057600080fd5b506106b1806100206000396000f3fe608060405234801561001057600080fd5b50600436106100365760003560e01c8063143cd5071461003b5780633189f0431461006b575b600080fd5b610055600480360381019061005091906102d6565b61009d565b6040516100629190610448565b60405180910390f35b610085600480360381019061008091906102a9565b6100c9565b6040516100949392919061046a565b60405180910390f35b6100a5610203565b60405180606001604052808581526020018481526020018381525090509392505050565b60006020528060005260406000206000915090508060000154908060010180546100f29061057e565b80601f016020809104026020016040519081016040528092919081815260200182805461011e9061057e565b801561016b5780601f106101405761010080835404028352916020019161016b565b820191906000526020600020905b81548152906001019060200180831161014e57829003601f168201915b5050505050908060020180546101809061057e565b80601f01602080910402602001604051908101604052809291908181526020018280546101ac9061057e565b80156101f95780601f106101ce576101008083540402835291602001916101f9565b820191906000526020600020905b8154815290600101906020018083116101dc57829003601f168201915b5050505050905083565b60405180606001604052806000815260200160608152602001606081525090565b6000610237610232846104d4565b6104af565b90508281526020810184848401111561025357610252610644565b5b61025e84828561053c565b509392505050565b600082601f83011261027b5761027a61063f565b5b813561028b848260208601610224565b91505092915050565b6000813590506102a381610664565b92915050565b6000602082840312156102bf576102be61064e565b5b60006102cd84828501610294565b91505092915050565b6000806000606084860312156102ef576102ee61064e565b5b60006102fd86828701610294565b935050602084013567ffffffffffffffff81111561031e5761031d610649565b5b61032a86828701610266565b925050604084013567ffffffffffffffff81111561034b5761034a610649565b5b61035786828701610266565b9150509250925092565b600061036c82610505565b6103768185610510565b935061038681856020860161054b565b61038f81610653565b840191505092915050565b60006103a582610505565b6103af8185610521565b93506103bf81856020860161054b565b6103c881610653565b840191505092915050565b60006060830160008301516103eb600086018261042a565b50602083015184820360208601526104038282610361565b9150506040830151848203604086015261041d8282610361565b9150508091505092915050565b61043381610532565b82525050565b61044281610532565b82525050565b6000602082019050818103600083015261046281846103d3565b905092915050565b600060608201905061047f6000830186610439565b8181036020830152610491818561039a565b905081810360408301526104a5818461039a565b9050949350505050565b60006104b96104ca565b90506104c582826105b0565b919050565b6000604051905090565b600067ffffffffffffffff8211156104ef576104ee610610565b5b6104f882610653565b9050602081019050919050565b600081519050919050565b600082825260208201905092915050565b600082825260208201905092915050565b6000819050919050565b82818337600083830152505050565b60005b8381101561056957808201518184015260208101905061054e565b83811115610578576000848401525b50505050565b6000600282049050600182168061059657607f821691505b602082108114156105aa576105a96105e1565b5b50919050565b6105b982610653565b810181811067ffffffffffffffff821117156105d8576105d7610610565b5b80604052505050565b7f4e487b7100000000000000000000000000000000000000000000000000000000600052602260045260246000fd5b7f4e487b7100000000000000000000000000000000000000000000000000000000600052604160045260246000fd5b600080fd5b600080fd5b600080fd5b600080fd5b6000601f19601f8301169050919050565b61066d81610532565b811461067857600080fd5b5056fea26469706673582212203d40b59ae07c48d4aed623312f3d464e2c84d4cc4fe8f3eae737069c7649edce64736f6c63430008070033",
					"opcodes": "PUSH1 0x80 PUSH1 0x40 MSTORE CALLVALUE DUP1 ISZERO PUSH2 0x10 JUMPI PUSH1 0x0 DUP1 REVERT JUMPDEST POP PUSH2 0x6B1 DUP1 PUSH2 0x20 PUSH1 0x0 CODECOPY PUSH1 0x0 RETURN INVALID PUSH1 0x80 PUSH1 0x40 MSTORE CALLVALUE DUP1 ISZERO PUSH2 0x10 JUMPI PUSH1 0x0 DUP1 REVERT JUMPDEST POP PUSH1 0x4 CALLDATASIZE LT PUSH2 0x36 JUMPI PUSH1 0x0 CALLDATALOAD PUSH1 0xE0 SHR DUP1 PUSH4 0x143CD507 EQ PUSH2 0x3B JUMPI DUP1 PUSH4 0x3189F043 EQ PUSH2 0x6B JUMPI JUMPDEST PUSH1 0x0 DUP1 REVERT JUMPDEST PUSH2 0x55 PUSH1 0x4 DUP1 CALLDATASIZE SUB DUP2 ADD SWAP1 PUSH2 0x50 SWAP2 SWAP1 PUSH2 0x2D6 JUMP JUMPDEST PUSH2 0x9D JUMP JUMPDEST PUSH1 0x40 MLOAD PUSH2 0x62 SWAP2 SWAP1 PUSH2 0x448 JUMP JUMPDEST PUSH1 0x40 MLOAD DUP1 SWAP2 SUB SWAP1 RETURN JUMPDEST PUSH2 0x85 PUSH1 0x4 DUP1 CALLDATASIZE SUB DUP2 ADD SWAP1 PUSH2 0x80 SWAP2 SWAP1 PUSH2 0x2A9 JUMP JUMPDEST PUSH2 0xC9 JUMP JUMPDEST PUSH1 0x40 MLOAD PUSH2 0x94 SWAP4 SWAP3 SWAP2 SWAP1 PUSH2 0x46A JUMP JUMPDEST PUSH1 0x40 MLOAD DUP1 SWAP2 SUB SWAP1 RETURN JUMPDEST PUSH2 0xA5 PUSH2 0x203 JUMP JUMPDEST PUSH1 0x40 MLOAD DUP1 PUSH1 0x60 ADD PUSH1 0x40 MSTORE DUP1 DUP6 DUP2 MSTORE PUSH1 0x20 ADD DUP5 DUP2 MSTORE PUSH1 0x20 ADD DUP4 DUP2 MSTORE POP SWAP1 POP SWAP4 SWAP3 POP POP POP JUMP JUMPDEST PUSH1 0x0 PUSH1 0x20 MSTORE DUP1 PUSH1 0x0 MSTORE PUSH1 0x40 PUSH1 0x0 KECCAK256 PUSH1 0x0 SWAP2 POP SWAP1 POP DUP1 PUSH1 0x0 ADD SLOAD SWAP1 DUP1 PUSH1 0x1 ADD DUP1 SLOAD PUSH2 0xF2 SWAP1 PUSH2 0x57E JUMP JUMPDEST DUP1 PUSH1 0x1F ADD PUSH1 0x20 DUP1 SWAP2 DIV MUL PUSH1 0x20 ADD PUSH1 0x40 MLOAD SWAP1 DUP2 ADD PUSH1 0x40 MSTORE DUP1 SWAP3 SWAP2 SWAP1 DUP2 DUP2 MSTORE PUSH1 0x20 ADD DUP3 DUP1 SLOAD PUSH2 0x11E SWAP1 PUSH2 0x57E JUMP JUMPDEST DUP1 ISZERO PUSH2 0x16B JUMPI DUP1 PUSH1 0x1F LT PUSH2 0x140 JUMPI PUSH2 0x100 DUP1 DUP4 SLOAD DIV MUL DUP4 MSTORE SWAP2 PUSH1 0x20 ADD SWAP2 PUSH2 0x16B JUMP JUMPDEST DUP3 ADD SWAP2 SWAP1 PUSH1 0x0 MSTORE PUSH1 0x20 PUSH1 0x0 KECCAK256 SWAP1 JUMPDEST DUP2 SLOAD DUP2 MSTORE SWAP1 PUSH1 0x1 ADD SWAP1 PUSH1 0x20 ADD DUP1 DUP4 GT PUSH2 0x14E JUMPI DUP3 SWAP1 SUB PUSH1 0x1F AND DUP3 ADD SWAP2 JUMPDEST POP POP POP POP POP SWAP1 DUP1 PUSH1 0x2 ADD DUP1 SLOAD PUSH2 0x180 SWAP1 PUSH2 0x57E JUMP JUMPDEST DUP1 PUSH1 0x1F ADD PUSH1 0x20 DUP1 SWAP2 DIV MUL PUSH1 0x20 ADD PUSH1 0x40 MLOAD SWAP1 DUP2 ADD PUSH1 0x40 MSTORE DUP1 SWAP3 SWAP2 SWAP1 DUP2 DUP2 MSTORE PUSH1 0x20 ADD DUP3 DUP1 SLOAD PUSH2 0x1AC SWAP1 PUSH2 0x57E JUMP JUMPDEST DUP1 ISZERO PUSH2 0x1F9 JUMPI DUP1 PUSH1 0x1F LT PUSH2 0x1CE JUMPI PUSH2 0x100 DUP1 DUP4 SLOAD DIV MUL DUP4 MSTORE SWAP2 PUSH1 0x20 ADD SWAP2 PUSH2 0x1F9 JUMP JUMPDEST DUP3 ADD SWAP2 SWAP1 PUSH1 0x0 MSTORE PUSH1 0x20 PUSH1 0x0 KECCAK256 SWAP1 JUMPDEST DUP2 SLOAD DUP2 MSTORE SWAP1 PUSH1 0x1 ADD SWAP1 PUSH1 0x20 ADD DUP1 DUP4 GT PUSH2 0x1DC JUMPI DUP3 SWAP1 SUB PUSH1 0x1F AND DUP3 ADD SWAP2 JUMPDEST POP POP POP POP POP SWAP1 POP DUP4 JUMP JUMPDEST PUSH1 0x40 MLOAD DUP1 PUSH1 0x60 ADD PUSH1 0x40 MSTORE DUP1 PUSH1 0x0 DUP2 MSTORE PUSH1 0x20 ADD PUSH1 0x60 DUP2 MSTORE PUSH1 0x20 ADD PUSH1 0x60 DUP2 MSTORE POP SWAP1 JUMP JUMPDEST PUSH1 0x0 PUSH2 0x237 PUSH2 0x232 DUP5 PUSH2 0x4D4 JUMP JUMPDEST PUSH2 0x4AF JUMP JUMPDEST SWAP1 POP DUP3 DUP2 MSTORE PUSH1 0x20 DUP2 ADD DUP5 DUP5 DUP5 ADD GT ISZERO PUSH2 0x253 JUMPI PUSH2 0x252 PUSH2 0x644 JUMP JUMPDEST JUMPDEST PUSH2 0x25E DUP5 DUP3 DUP6 PUSH2 0x53C JUMP JUMPDEST POP SWAP4 SWAP3 POP POP POP JUMP JUMPDEST PUSH1 0x0 DUP3 PUSH1 0x1F DUP4 ADD SLT PUSH2 0x27B JUMPI PUSH2 0x27A PUSH2 0x63F JUMP JUMPDEST JUMPDEST DUP2 CALLDATALOAD PUSH2 0x28B DUP5 DUP3 PUSH1 0x20 DUP7 ADD PUSH2 0x224 JUMP JUMPDEST SWAP2 POP POP SWAP3 SWAP2 POP POP JUMP JUMPDEST PUSH1 0x0 DUP2 CALLDATALOAD SWAP1 POP PUSH2 0x2A3 DUP2 PUSH2 0x664 JUMP JUMPDEST SWAP3 SWAP2 POP POP JUMP JUMPDEST PUSH1 0x0 PUSH1 0x20 DUP3 DUP5 SUB SLT ISZERO PUSH2 0x2BF JUMPI PUSH2 0x2BE PUSH2 0x64E JUMP JUMPDEST JUMPDEST PUSH1 0x0 PUSH2 0x2CD DUP5 DUP3 DUP6 ADD PUSH2 0x294 JUMP JUMPDEST SWAP2 POP POP SWAP3 SWAP2 POP POP JUMP JUMPDEST PUSH1 0x0 DUP1 PUSH1 0x0 PUSH1 0x60 DUP5 DUP7 SUB SLT ISZERO PUSH2 0x2EF JUMPI PUSH2 0x2EE PUSH2 0x64E JUMP JUMPDEST JUMPDEST PUSH1 0x0 PUSH2 0x2FD DUP7 DUP3 DUP8 ADD PUSH2 0x294 JUMP JUMPDEST SWAP4 POP POP PUSH1 0x20 DUP5 ADD CALLDATALOAD PUSH8 0xFFFFFFFFFFFFFFFF DUP2 GT ISZERO PUSH2 0x31E JUMPI PUSH2 0x31D PUSH2 0x649 JUMP JUMPDEST JUMPDEST PUSH2 0x32A DUP7 DUP3 DUP8 ADD PUSH2 0x266 JUMP JUMPDEST SWAP3 POP POP PUSH1 0x40 DUP5 ADD CALLDATALOAD PUSH8 0xFFFFFFFFFFFFFFFF DUP2 GT ISZERO PUSH2 0x34B JUMPI PUSH2 0x34A PUSH2 0x649 JUMP JUMPDEST JUMPDEST PUSH2 0x357 DUP7 DUP3 DUP8 ADD PUSH2 0x266 JUMP JUMPDEST SWAP2 POP POP SWAP3 POP SWAP3 POP SWAP3 JUMP JUMPDEST PUSH1 0x0 PUSH2 0x36C DUP3 PUSH2 0x505 JUMP JUMPDEST PUSH2 0x376 DUP2 DUP6 PUSH2 0x510 JUMP JUMPDEST SWAP4 POP PUSH2 0x386 DUP2 DUP6 PUSH1 0x20 DUP7 ADD PUSH2 0x54B JUMP JUMPDEST PUSH2 0x38F DUP2 PUSH2 0x653 JUMP JUMPDEST DUP5 ADD SWAP2 POP POP SWAP3 SWAP2 POP POP JUMP JUMPDEST PUSH1 0x0 PUSH2 0x3A5 DUP3 PUSH2 0x505 JUMP JUMPDEST PUSH2 0x3AF DUP2 DUP6 PUSH2 0x521 JUMP JUMPDEST SWAP4 POP PUSH2 0x3BF DUP2 DUP6 PUSH1 0x20 DUP7 ADD PUSH2 0x54B JUMP JUMPDEST PUSH2 0x3C8 DUP2 PUSH2 0x653 JUMP JUMPDEST DUP5 ADD SWAP2 POP POP SWAP3 SWAP2 POP POP JUMP JUMPDEST PUSH1 0x0 PUSH1 0x60 DUP4 ADD PUSH1 0x0 DUP4 ADD MLOAD PUSH2 0x3EB PUSH1 0x0 DUP7 ADD DUP3 PUSH2 0x42A JUMP JUMPDEST POP PUSH1 0x20 DUP4 ADD MLOAD DUP5 DUP3 SUB PUSH1 0x20 DUP7 ADD MSTORE PUSH2 0x403 DUP3 DUP3 PUSH2 0x361 JUMP JUMPDEST SWAP2 POP POP PUSH1 0x40 DUP4 ADD MLOAD DUP5 DUP3 SUB PUSH1 0x40 DUP7 ADD MSTORE PUSH2 0x41D DUP3 DUP3 PUSH2 0x361 JUMP JUMPDEST SWAP2 POP POP DUP1 SWAP2 POP POP SWAP3 SWAP2 POP POP JUMP JUMPDEST PUSH2 0x433 DUP2 PUSH2 0x532 JUMP JUMPDEST DUP3 MSTORE POP POP JUMP JUMPDEST PUSH2 0x442 DUP2 PUSH2 0x532 JUMP JUMPDEST DUP3 MSTORE POP POP JUMP JUMPDEST PUSH1 0x0 PUSH1 0x20 DUP3 ADD SWAP1 POP DUP2 DUP2 SUB PUSH1 0x0 DUP4 ADD MSTORE PUSH2 0x462 DUP2 DUP5 PUSH2 0x3D3 JUMP JUMPDEST SWAP1 POP SWAP3 SWAP2 POP POP JUMP JUMPDEST PUSH1 0x0 PUSH1 0x60 DUP3 ADD SWAP1 POP PUSH2 0x47F PUSH1 0x0 DUP4 ADD DUP7 PUSH2 0x439 JUMP JUMPDEST DUP2 DUP2 SUB PUSH1 0x20 DUP4 ADD MSTORE PUSH2 0x491 DUP2 DUP6 PUSH2 0x39A JUMP JUMPDEST SWAP1 POP DUP2 DUP2 SUB PUSH1 0x40 DUP4 ADD MSTORE PUSH2 0x4A5 DUP2 DUP5 PUSH2 0x39A JUMP JUMPDEST SWAP1 POP SWAP5 SWAP4 POP POP POP POP JUMP JUMPDEST PUSH1 0x0 PUSH2 0x4B9 PUSH2 0x4CA JUMP JUMPDEST SWAP1 POP PUSH2 0x4C5 DUP3 DUP3 PUSH2 0x5B0 JUMP JUMPDEST SWAP2 SWAP1 POP JUMP JUMPDEST PUSH1 0x0 PUSH1 0x40 MLOAD SWAP1 POP SWAP1 JUMP JUMPDEST PUSH1 0x0 PUSH8 0xFFFFFFFFFFFFFFFF DUP3 GT ISZERO PUSH2 0x4EF JUMPI PUSH2 0x4EE PUSH2 0x610 JUMP JUMPDEST JUMPDEST PUSH2 0x4F8 DUP3 PUSH2 0x653 JUMP JUMPDEST SWAP1 POP PUSH1 0x20 DUP2 ADD SWAP1 POP SWAP2 SWAP1 POP JUMP JUMPDEST PUSH1 0x0 DUP2 MLOAD SWAP1 POP SWAP2 SWAP1 POP JUMP JUMPDEST PUSH1 0x0 DUP3 DUP3 MSTORE PUSH1 0x20 DUP3 ADD SWAP1 POP SWAP3 SWAP2 POP POP JUMP JUMPDEST PUSH1 0x0 DUP3 DUP3 MSTORE PUSH1 0x20 DUP3 ADD SWAP1 POP SWAP3 SWAP2 POP POP JUMP JUMPDEST PUSH1 0x0 DUP2 SWAP1 POP SWAP2 SWAP1 POP JUMP JUMPDEST DUP3 DUP2 DUP4 CALLDATACOPY PUSH1 0x0 DUP4 DUP4 ADD MSTORE POP POP POP JUMP JUMPDEST PUSH1 0x0 JUMPDEST DUP4 DUP2 LT ISZERO PUSH2 0x569 JUMPI DUP1 DUP3 ADD MLOAD DUP2 DUP5 ADD MSTORE PUSH1 0x20 DUP2 ADD SWAP1 POP PUSH2 0x54E JUMP JUMPDEST DUP4 DUP2 GT ISZERO PUSH2 0x578 JUMPI PUSH1 0x0 DUP5 DUP5 ADD MSTORE JUMPDEST POP POP POP POP JUMP JUMPDEST PUSH1 0x0 PUSH1 0x2 DUP3 DIV SWAP1 POP PUSH1 0x1 DUP3 AND DUP1 PUSH2 0x596 JUMPI PUSH1 0x7F DUP3 AND SWAP2 POP JUMPDEST PUSH1 0x20 DUP3 LT DUP2 EQ ISZERO PUSH2 0x5AA JUMPI PUSH2 0x5A9 PUSH2 0x5E1 JUMP JUMPDEST JUMPDEST POP SWAP2 SWAP1 POP JUMP JUMPDEST PUSH2 0x5B9 DUP3 PUSH2 0x653 JUMP JUMPDEST DUP2 ADD DUP2 DUP2 LT PUSH8 0xFFFFFFFFFFFFFFFF DUP3 GT OR ISZERO PUSH2 0x5D8 JUMPI PUSH2 0x5D7 PUSH2 0x610 JUMP JUMPDEST JUMPDEST DUP1 PUSH1 0x40 MSTORE POP POP POP JUMP JUMPDEST PUSH32 0x4E487B7100000000000000000000000000000000000000000000000000000000 PUSH1 0x0 MSTORE PUSH1 0x22 PUSH1 0x4 MSTORE PUSH1 0x24 PUSH1 0x0 REVERT JUMPDEST PUSH32 0x4E487B7100000000000000000000000000000000000000000000000000000000 PUSH1 0x0 MSTORE PUSH1 0x41 PUSH1 0x4 MSTORE PUSH1 0x24 PUSH1 0x0 REVERT JUMPDEST PUSH1 0x0 DUP1 REVERT JUMPDEST PUSH1 0x0 DUP1 REVERT JUMPDEST PUSH1 0x0 DUP1 REVERT JUMPDEST PUSH1 0x0 DUP1 REVERT JUMPDEST PUSH1 0x0 PUSH1 0x1F NOT PUSH1 0x1F DUP4 ADD AND SWAP1 POP SWAP2 SWAP1 POP JUMP JUMPDEST PUSH2 0x66D DUP2 PUSH2 0x532 JUMP JUMPDEST DUP2 EQ PUSH2 0x678 JUMPI PUSH1 0x0 DUP1 REVERT JUMPDEST POP JUMP INVALID LOG2 PUSH5 0x6970667358 0x22 SLT KECCAK256 RETURNDATASIZE BLOCKHASH 0xB5 SWAP11 0xE0 PUSH29 0x48D4AED623312F3D464E2C84D4CC4FE8F3EAE737069C7649EDCE64736F PUSH13 0x63430008070033000000000000 "
				},
				"gasEstimates": {
					"creation": {
						"codeDepositCost": "342600",
						"executionCost": "380",
						"totalCost": "342980"
					},
					"external": {
						"CharacterMapping(uint256)": "infinite",
						"createCharacter(uint256,string,string)": "infinite"
					}
				},
				"methodIdentifiers": {
					"CharacterMapping(uint256)": "3189f043",
					"createCharacter(uint256,string,string)": "143cd507"
				}
			},
			"storageLayout": {
				"storage": [
					{
						"astId": 13,
						"contract": "lecture/lec20.sol:lec10",
						"label": "CharacterMapping",
						"offset": 0,
						"slot": "0",
						"type": "t_mapping(t_uint256,t_struct(Character)8_storage)"
					}
				],
				"types": {
					"t_mapping(t_uint256,t_struct(Character)8_storage)": {
						"encoding": "mapping",
						"key": "t_uint256",
						"label": "mapping(uint256 => struct lec10.Character)",
						"numberOfBytes": "32",
						"value": "t_struct(Character)8_storage"
					},
					"t_string_storage": {
						"encoding": "bytes",
						"label": "string",
						"numberOfBytes": "32"
					},
					"t_struct(Character)8_storage": {
						"encoding": "inplace",
						"label": "struct lec10.Character",
						"members": [
							{
								"astId": 3,
								"contract": "lecture/lec20.sol:lec10",
								"label": "age",
								"offset": 0,
								"slot": "0",
								"type": "t_uint256"
							},
							{
								"astId": 5,
								"contract": "lecture/lec20.sol:lec10",
								"label": "name",
								"offset": 0,
								"slot": "1",
								"type": "t_string_storage"
							},
							{
								"astId": 7,
								"contract": "lecture/lec20.sol:lec10",
								"label": "job",
								"offset": 0,
								"slot": "2",
								"type": "t_string_storage"
							}
						],
						"numberOfBytes": "96"
					},
					"t_uint256": {
						"encoding": "inplace",
						"label": "uint256",
						"numberOfBytes": "32"
					}
				}
			},
			"userdoc": {
				"kind": "user",
				"methods": {},
				"version": 1
			}
		}
	}
}