{
	"lecture/lec7.sol": {
		"lec7": {
			"abi": [
				{
					"inputs": [
						{
							"internalType": "string",
							"name": "_str",
							"type": "string"
						}
					],
					"name": "get_string",
					"outputs": [
						{
							"internalType": "string",
							"name": "",
							"type": "string"
						}
					],
					"stateMutability": "pure",
					"type": "function"
				},
				{
					"inputs": [
						{
							"internalType": "uint256",
							"name": "_ui",
							"type": "uint256"
						}
					],
					"name": "get_uint",
					"outputs": [
						{
							"internalType": "uint256",
							"name": "",
							"type": "uint256"
						}
					],
					"stateMutability": "pure",
					"type": "function"
				}
			],
			"devdoc": {
				"kind": "dev",
				"methods": {},
				"version": 1
			},
			"evm": {
				"assembly": "    /* \"lecture/lec7.sol\":72:286  contract lec7{... */\n  mstore(0x40, 0x80)\n  callvalue\n  dup1\n  iszero\n  tag_1\n  jumpi\n  0x00\n  dup1\n  revert\ntag_1:\n  pop\n  dataSize(sub_0)\n  dup1\n  dataOffset(sub_0)\n  0x00\n  codecopy\n  0x00\n  return\nstop\n\nsub_0: assembly {\n        /* \"lecture/lec7.sol\":72:286  contract lec7{... */\n      mstore(0x40, 0x80)\n      callvalue\n      dup1\n      iszero\n      tag_1\n      jumpi\n      0x00\n      dup1\n      revert\n    tag_1:\n      pop\n      jumpi(tag_2, lt(calldatasize, 0x04))\n      shr(0xe0, calldataload(0x00))\n      dup1\n      0x95f6b4c9\n      eq\n      tag_3\n      jumpi\n      dup1\n      0xb3367074\n      eq\n      tag_4\n      jumpi\n    tag_2:\n      0x00\n      dup1\n      revert\n        /* \"lecture/lec7.sol\":198:284  function get_uint(uint256 _ui) public pure returns(uint256){... */\n    tag_3:\n      tag_5\n      0x04\n      dup1\n      calldatasize\n      sub\n      dup2\n      add\n      swap1\n      tag_6\n      swap2\n      swap1\n      tag_7\n      jump\t// in\n    tag_6:\n      tag_8\n      jump\t// in\n    tag_5:\n      mload(0x40)\n      tag_9\n      swap2\n      swap1\n      tag_10\n      jump\t// in\n    tag_9:\n      mload(0x40)\n      dup1\n      swap2\n      sub\n      swap1\n      return\n        /* \"lecture/lec7.sol\":91:193  function get_string(string memory _str) public pure returns(string memory){... */\n    tag_4:\n      tag_11\n      0x04\n      dup1\n      calldatasize\n      sub\n      dup2\n      add\n      swap1\n      tag_12\n      swap2\n      swap1\n      tag_13\n      jump\t// in\n    tag_12:\n      tag_14\n      jump\t// in\n    tag_11:\n      mload(0x40)\n      tag_15\n      swap2\n      swap1\n      tag_16\n      jump\t// in\n    tag_15:\n      mload(0x40)\n      dup1\n      swap2\n      sub\n      swap1\n      return\n        /* \"lecture/lec7.sol\":198:284  function get_uint(uint256 _ui) public pure returns(uint256){... */\n    tag_8:\n        /* \"lecture/lec7.sol\":249:256  uint256 */\n      0x00\n        /* \"lecture/lec7.sol\":274:277  _ui */\n      dup2\n        /* \"lecture/lec7.sol\":267:277  return _ui */\n      swap1\n      pop\n        /* \"lecture/lec7.sol\":198:284  function get_uint(uint256 _ui) public pure returns(uint256){... */\n      swap2\n      swap1\n      pop\n      jump\t// out\n        /* \"lecture/lec7.sol\":91:193  function get_string(string memory _str) public pure returns(string memory){... */\n    tag_14:\n        /* \"lecture/lec7.sol\":151:164  string memory */\n      0x60\n        /* \"lecture/lec7.sol\":182:186  _str */\n      dup2\n        /* \"lecture/lec7.sol\":175:186  return _str */\n      swap1\n      pop\n        /* \"lecture/lec7.sol\":91:193  function get_string(string memory _str) public pure returns(string memory){... */\n      swap2\n      swap1\n      pop\n      jump\t// out\n        /* \"#utility.yul\":7:351   */\n    tag_20:\n      0x00\n        /* \"#utility.yul\":110:175   */\n      tag_22\n        /* \"#utility.yul\":125:174   */\n      tag_23\n        /* \"#utility.yul\":167:173   */\n      dup5\n        /* \"#utility.yul\":125:174   */\n      tag_24\n      jump\t// in\n    tag_23:\n        /* \"#utility.yul\":110:175   */\n      tag_25\n      jump\t// in\n    tag_22:\n        /* \"#utility.yul\":101:175   */\n      swap1\n      pop\n        /* \"#utility.yul\":198:204   */\n      dup3\n        /* \"#utility.yul\":191:196   */\n      dup2\n        /* \"#utility.yul\":184:205   */\n      mstore\n        /* \"#utility.yul\":236:240   */\n      0x20\n        /* \"#utility.yul\":229:234   */\n      dup2\n        /* \"#utility.yul\":225:241   */\n      add\n        /* \"#utility.yul\":274:277   */\n      dup5\n        /* \"#utility.yul\":265:271   */\n      dup5\n        /* \"#utility.yul\":260:263   */\n      dup5\n        /* \"#utility.yul\":256:272   */\n      add\n        /* \"#utility.yul\":253:278   */\n      gt\n        /* \"#utility.yul\":250:252   */\n      iszero\n      tag_26\n      jumpi\n        /* \"#utility.yul\":291:292   */\n      0x00\n        /* \"#utility.yul\":288:289   */\n      dup1\n        /* \"#utility.yul\":281:293   */\n      revert\n        /* \"#utility.yul\":250:252   */\n    tag_26:\n        /* \"#utility.yul\":304:345   */\n      tag_27\n        /* \"#utility.yul\":338:344   */\n      dup5\n        /* \"#utility.yul\":333:336   */\n      dup3\n        /* \"#utility.yul\":328:331   */\n      dup6\n        /* \"#utility.yul\":304:345   */\n      tag_28\n      jump\t// in\n    tag_27:\n        /* \"#utility.yul\":91:351   */\n      pop\n      swap4\n      swap3\n      pop\n      pop\n      pop\n      jump\t// out\n        /* \"#utility.yul\":371:644   */\n    tag_29:\n      0x00\n        /* \"#utility.yul\":476:479   */\n      dup3\n        /* \"#utility.yul\":469:473   */\n      0x1f\n        /* \"#utility.yul\":461:467   */\n      dup4\n        /* \"#utility.yul\":457:474   */\n      add\n        /* \"#utility.yul\":453:480   */\n      slt\n        /* \"#utility.yul\":443:445   */\n      tag_31\n      jumpi\n        /* \"#utility.yul\":494:495   */\n      0x00\n        /* \"#utility.yul\":491:492   */\n      dup1\n        /* \"#utility.yul\":484:496   */\n      revert\n        /* \"#utility.yul\":443:445   */\n    tag_31:\n        /* \"#utility.yul\":534:540   */\n      dup2\n        /* \"#utility.yul\":521:541   */\n      calldataload\n        /* \"#utility.yul\":559:638   */\n      tag_32\n        /* \"#utility.yul\":634:637   */\n      dup5\n        /* \"#utility.yul\":626:632   */\n      dup3\n        /* \"#utility.yul\":619:623   */\n      0x20\n        /* \"#utility.yul\":611:617   */\n      dup7\n        /* \"#utility.yul\":607:624   */\n      add\n        /* \"#utility.yul\":559:638   */\n      tag_20\n      jump\t// in\n    tag_32:\n        /* \"#utility.yul\":550:638   */\n      swap2\n      pop\n        /* \"#utility.yul\":433:644   */\n      pop\n      swap3\n      swap2\n      pop\n      pop\n      jump\t// out\n        /* \"#utility.yul\":650:789   */\n    tag_33:\n      0x00\n        /* \"#utility.yul\":734:740   */\n      dup2\n        /* \"#utility.yul\":721:741   */\n      calldataload\n        /* \"#utility.yul\":712:741   */\n      swap1\n      pop\n        /* \"#utility.yul\":750:783   */\n      tag_35\n        /* \"#utility.yul\":777:782   */\n      dup2\n        /* \"#utility.yul\":750:783   */\n      tag_36\n      jump\t// in\n    tag_35:\n        /* \"#utility.yul\":702:789   */\n      swap3\n      swap2\n      pop\n      pop\n      jump\t// out\n        /* \"#utility.yul\":795:1170   */\n    tag_13:\n      0x00\n        /* \"#utility.yul\":913:915   */\n      0x20\n        /* \"#utility.yul\":901:910   */\n      dup3\n        /* \"#utility.yul\":892:899   */\n      dup5\n        /* \"#utility.yul\":888:911   */\n      sub\n        /* \"#utility.yul\":884:916   */\n      slt\n        /* \"#utility.yul\":881:883   */\n      iszero\n      tag_38\n      jumpi\n        /* \"#utility.yul\":929:930   */\n      0x00\n        /* \"#utility.yul\":926:927   */\n      dup1\n        /* \"#utility.yul\":919:931   */\n      revert\n        /* \"#utility.yul\":881:883   */\n    tag_38:\n        /* \"#utility.yul\":1000:1001   */\n      0x00\n        /* \"#utility.yul\":989:998   */\n      dup3\n        /* \"#utility.yul\":985:1002   */\n      add\n        /* \"#utility.yul\":972:1003   */\n      calldataload\n        /* \"#utility.yul\":1030:1048   */\n      0xffffffffffffffff\n        /* \"#utility.yul\":1022:1028   */\n      dup2\n        /* \"#utility.yul\":1019:1049   */\n      gt\n        /* \"#utility.yul\":1016:1018   */\n      iszero\n      tag_39\n      jumpi\n        /* \"#utility.yul\":1062:1063   */\n      0x00\n        /* \"#utility.yul\":1059:1060   */\n      dup1\n        /* \"#utility.yul\":1052:1064   */\n      revert\n        /* \"#utility.yul\":1016:1018   */\n    tag_39:\n        /* \"#utility.yul\":1090:1153   */\n      tag_40\n        /* \"#utility.yul\":1145:1152   */\n      dup5\n        /* \"#utility.yul\":1136:1142   */\n      dup3\n        /* \"#utility.yul\":1125:1134   */\n      dup6\n        /* \"#utility.yul\":1121:1143   */\n      add\n        /* \"#utility.yul\":1090:1153   */\n      tag_29\n      jump\t// in\n    tag_40:\n        /* \"#utility.yul\":1080:1153   */\n      swap2\n      pop\n        /* \"#utility.yul\":943:1163   */\n      pop\n        /* \"#utility.yul\":871:1170   */\n      swap3\n      swap2\n      pop\n      pop\n      jump\t// out\n        /* \"#utility.yul\":1176:1438   */\n    tag_7:\n      0x00\n        /* \"#utility.yul\":1284:1286   */\n      0x20\n        /* \"#utility.yul\":1272:1281   */\n      dup3\n        /* \"#utility.yul\":1263:1270   */\n      dup5\n        /* \"#utility.yul\":1259:1282   */\n      sub\n        /* \"#utility.yul\":1255:1287   */\n      slt\n        /* \"#utility.yul\":1252:1254   */\n      iszero\n      tag_42\n      jumpi\n        /* \"#utility.yul\":1300:1301   */\n      0x00\n        /* \"#utility.yul\":1297:1298   */\n      dup1\n        /* \"#utility.yul\":1290:1302   */\n      revert\n        /* \"#utility.yul\":1252:1254   */\n    tag_42:\n        /* \"#utility.yul\":1343:1344   */\n      0x00\n        /* \"#utility.yul\":1368:1421   */\n      tag_43\n        /* \"#utility.yul\":1413:1420   */\n      dup5\n        /* \"#utility.yul\":1404:1410   */\n      dup3\n        /* \"#utility.yul\":1393:1402   */\n      dup6\n        /* \"#utility.yul\":1389:1411   */\n      add\n        /* \"#utility.yul\":1368:1421   */\n      tag_33\n      jump\t// in\n    tag_43:\n        /* \"#utility.yul\":1358:1421   */\n      swap2\n      pop\n        /* \"#utility.yul\":1314:1431   */\n      pop\n        /* \"#utility.yul\":1242:1438   */\n      swap3\n      swap2\n      pop\n      pop\n      jump\t// out\n        /* \"#utility.yul\":1444:1808   */\n    tag_44:\n      0x00\n        /* \"#utility.yul\":1560:1599   */\n      tag_46\n        /* \"#utility.yul\":1593:1598   */\n      dup3\n        /* \"#utility.yul\":1560:1599   */\n      tag_47\n      jump\t// in\n    tag_46:\n        /* \"#utility.yul\":1615:1686   */\n      tag_48\n        /* \"#utility.yul\":1679:1685   */\n      dup2\n        /* \"#utility.yul\":1674:1677   */\n      dup6\n        /* \"#utility.yul\":1615:1686   */\n      tag_49\n      jump\t// in\n    tag_48:\n        /* \"#utility.yul\":1608:1686   */\n      swap4\n      pop\n        /* \"#utility.yul\":1695:1747   */\n      tag_50\n        /* \"#utility.yul\":1740:1746   */\n      dup2\n        /* \"#utility.yul\":1735:1738   */\n      dup6\n        /* \"#utility.yul\":1728:1732   */\n      0x20\n        /* \"#utility.yul\":1721:1726   */\n      dup7\n        /* \"#utility.yul\":1717:1733   */\n      add\n        /* \"#utility.yul\":1695:1747   */\n      tag_51\n      jump\t// in\n    tag_50:\n        /* \"#utility.yul\":1772:1801   */\n      tag_52\n        /* \"#utility.yul\":1794:1800   */\n      dup2\n        /* \"#utility.yul\":1772:1801   */\n      tag_53\n      jump\t// in\n    tag_52:\n        /* \"#utility.yul\":1767:1770   */\n      dup5\n        /* \"#utility.yul\":1763:1802   */\n      add\n        /* \"#utility.yul\":1756:1802   */\n      swap2\n      pop\n        /* \"#utility.yul\":1536:1808   */\n      pop\n      swap3\n      swap2\n      pop\n      pop\n      jump\t// out\n        /* \"#utility.yul\":1814:1932   */\n    tag_54:\n        /* \"#utility.yul\":1901:1925   */\n      tag_56\n        /* \"#utility.yul\":1919:1924   */\n      dup2\n        /* \"#utility.yul\":1901:1925   */\n      tag_57\n      jump\t// in\n    tag_56:\n        /* \"#utility.yul\":1896:1899   */\n      dup3\n        /* \"#utility.yul\":1889:1926   */\n      mstore\n        /* \"#utility.yul\":1879:1932   */\n      pop\n      pop\n      jump\t// out\n        /* \"#utility.yul\":1938:2251   */\n    tag_16:\n      0x00\n        /* \"#utility.yul\":2089:2091   */\n      0x20\n        /* \"#utility.yul\":2078:2087   */\n      dup3\n        /* \"#utility.yul\":2074:2092   */\n      add\n        /* \"#utility.yul\":2066:2092   */\n      swap1\n      pop\n        /* \"#utility.yul\":2138:2147   */\n      dup2\n        /* \"#utility.yul\":2132:2136   */\n      dup2\n        /* \"#utility.yul\":2128:2148   */\n      sub\n        /* \"#utility.yul\":2124:2125   */\n      0x00\n        /* \"#utility.yul\":2113:2122   */\n      dup4\n        /* \"#utility.yul\":2109:2126   */\n      add\n        /* \"#utility.yul\":2102:2149   */\n      mstore\n        /* \"#utility.yul\":2166:2244   */\n      tag_59\n        /* \"#utility.yul\":2239:2243   */\n      dup2\n        /* \"#utility.yul\":2230:2236   */\n      dup5\n        /* \"#utility.yul\":2166:2244   */\n      tag_44\n      jump\t// in\n    tag_59:\n        /* \"#utility.yul\":2158:2244   */\n      swap1\n      pop\n        /* \"#utility.yul\":2056:2251   */\n      swap3\n      swap2\n      pop\n      pop\n      jump\t// out\n        /* \"#utility.yul\":2257:2479   */\n    tag_10:\n      0x00\n        /* \"#utility.yul\":2388:2390   */\n      0x20\n        /* \"#utility.yul\":2377:2386   */\n      dup3\n        /* \"#utility.yul\":2373:2391   */\n      add\n        /* \"#utility.yul\":2365:2391   */\n      swap1\n      pop\n        /* \"#utility.yul\":2401:2472   */\n      tag_61\n        /* \"#utility.yul\":2469:2470   */\n      0x00\n        /* \"#utility.yul\":2458:2467   */\n      dup4\n        /* \"#utility.yul\":2454:2471   */\n      add\n        /* \"#utility.yul\":2445:2451   */\n      dup5\n        /* \"#utility.yul\":2401:2472   */\n      tag_54\n      jump\t// in\n    tag_61:\n        /* \"#utility.yul\":2355:2479   */\n      swap3\n      swap2\n      pop\n      pop\n      jump\t// out\n        /* \"#utility.yul\":2485:2768   */\n    tag_25:\n      0x00\n        /* \"#utility.yul\":2551:2553   */\n      0x40\n        /* \"#utility.yul\":2545:2554   */\n      mload\n        /* \"#utility.yul\":2535:2554   */\n      swap1\n      pop\n        /* \"#utility.yul\":2593:2597   */\n      dup2\n        /* \"#utility.yul\":2585:2591   */\n      dup2\n        /* \"#utility.yul\":2581:2598   */\n      add\n        /* \"#utility.yul\":2700:2706   */\n      dup2\n        /* \"#utility.yul\":2688:2698   */\n      dup2\n        /* \"#utility.yul\":2685:2707   */\n      lt\n        /* \"#utility.yul\":2664:2682   */\n      0xffffffffffffffff\n        /* \"#utility.yul\":2652:2662   */\n      dup3\n        /* \"#utility.yul\":2649:2683   */\n      gt\n        /* \"#utility.yul\":2646:2708   */\n      or\n        /* \"#utility.yul\":2643:2645   */\n      iszero\n      tag_63\n      jumpi\n        /* \"#utility.yul\":2711:2729   */\n      tag_64\n      tag_65\n      jump\t// in\n    tag_64:\n        /* \"#utility.yul\":2643:2645   */\n    tag_63:\n        /* \"#utility.yul\":2751:2761   */\n      dup1\n        /* \"#utility.yul\":2747:2749   */\n      0x40\n        /* \"#utility.yul\":2740:2762   */\n      mstore\n        /* \"#utility.yul\":2525:2768   */\n      pop\n      swap2\n      swap1\n      pop\n      jump\t// out\n        /* \"#utility.yul\":2774:3106   */\n    tag_24:\n      0x00\n        /* \"#utility.yul\":2926:2944   */\n      0xffffffffffffffff\n        /* \"#utility.yul\":2918:2924   */\n      dup3\n        /* \"#utility.yul\":2915:2945   */\n      gt\n        /* \"#utility.yul\":2912:2914   */\n      iszero\n      tag_67\n      jumpi\n        /* \"#utility.yul\":2948:2966   */\n      tag_68\n      tag_65\n      jump\t// in\n    tag_68:\n        /* \"#utility.yul\":2912:2914   */\n    tag_67:\n        /* \"#utility.yul\":3033:3037   */\n      0x1f\n        /* \"#utility.yul\":3029:3038   */\n      not\n        /* \"#utility.yul\":3022:3026   */\n      0x1f\n        /* \"#utility.yul\":3014:3020   */\n      dup4\n        /* \"#utility.yul\":3010:3027   */\n      add\n        /* \"#utility.yul\":3006:3039   */\n      and\n        /* \"#utility.yul\":2998:3039   */\n      swap1\n      pop\n        /* \"#utility.yul\":3094:3098   */\n      0x20\n        /* \"#utility.yul\":3088:3092   */\n      dup2\n        /* \"#utility.yul\":3084:3099   */\n      add\n        /* \"#utility.yul\":3076:3099   */\n      swap1\n      pop\n        /* \"#utility.yul\":2841:3106   */\n      swap2\n      swap1\n      pop\n      jump\t// out\n        /* \"#utility.yul\":3112:3211   */\n    tag_47:\n      0x00\n        /* \"#utility.yul\":3198:3203   */\n      dup2\n        /* \"#utility.yul\":3192:3204   */\n      mload\n        /* \"#utility.yul\":3182:3204   */\n      swap1\n      pop\n        /* \"#utility.yul\":3171:3211   */\n      swap2\n      swap1\n      pop\n      jump\t// out\n        /* \"#utility.yul\":3217:3386   */\n    tag_49:\n      0x00\n        /* \"#utility.yul\":3335:3341   */\n      dup3\n        /* \"#utility.yul\":3330:3333   */\n      dup3\n        /* \"#utility.yul\":3323:3342   */\n      mstore\n        /* \"#utility.yul\":3375:3379   */\n      0x20\n        /* \"#utility.yul\":3370:3373   */\n      dup3\n        /* \"#utility.yul\":3366:3380   */\n      add\n        /* \"#utility.yul\":3351:3380   */\n      swap1\n      pop\n        /* \"#utility.yul\":3313:3386   */\n      swap3\n      swap2\n      pop\n      pop\n      jump\t// out\n        /* \"#utility.yul\":3392:3469   */\n    tag_57:\n      0x00\n        /* \"#utility.yul\":3458:3463   */\n      dup2\n        /* \"#utility.yul\":3447:3463   */\n      swap1\n      pop\n        /* \"#utility.yul\":3437:3469   */\n      swap2\n      swap1\n      pop\n      jump\t// out\n        /* \"#utility.yul\":3475:3629   */\n    tag_28:\n        /* \"#utility.yul\":3559:3565   */\n      dup3\n        /* \"#utility.yul\":3554:3557   */\n      dup2\n        /* \"#utility.yul\":3549:3552   */\n      dup4\n        /* \"#utility.yul\":3536:3566   */\n      calldatacopy\n        /* \"#utility.yul\":3621:3622   */\n      0x00\n        /* \"#utility.yul\":3612:3618   */\n      dup4\n        /* \"#utility.yul\":3607:3610   */\n      dup4\n        /* \"#utility.yul\":3603:3619   */\n      add\n        /* \"#utility.yul\":3596:3623   */\n      mstore\n        /* \"#utility.yul\":3526:3629   */\n      pop\n      pop\n      pop\n      jump\t// out\n        /* \"#utility.yul\":3635:3942   */\n    tag_51:\n        /* \"#utility.yul\":3703:3704   */\n      0x00\n        /* \"#utility.yul\":3713:3826   */\n    tag_74:\n        /* \"#utility.yul\":3727:3733   */\n      dup4\n        /* \"#utility.yul\":3724:3725   */\n      dup2\n        /* \"#utility.yul\":3721:3734   */\n      lt\n        /* \"#utility.yul\":3713:3826   */\n      iszero\n      tag_76\n      jumpi\n        /* \"#utility.yul\":3812:3813   */\n      dup1\n        /* \"#utility.yul\":3807:3810   */\n      dup3\n        /* \"#utility.yul\":3803:3814   */\n      add\n        /* \"#utility.yul\":3797:3815   */\n      mload\n        /* \"#utility.yul\":3793:3794   */\n      dup2\n        /* \"#utility.yul\":3788:3791   */\n      dup5\n        /* \"#utility.yul\":3784:3795   */\n      add\n        /* \"#utility.yul\":3777:3816   */\n      mstore\n        /* \"#utility.yul\":3749:3751   */\n      0x20\n        /* \"#utility.yul\":3746:3747   */\n      dup2\n        /* \"#utility.yul\":3742:3752   */\n      add\n        /* \"#utility.yul\":3737:3752   */\n      swap1\n      pop\n        /* \"#utility.yul\":3713:3826   */\n      jump(tag_74)\n    tag_76:\n        /* \"#utility.yul\":3844:3850   */\n      dup4\n        /* \"#utility.yul\":3841:3842   */\n      dup2\n        /* \"#utility.yul\":3838:3851   */\n      gt\n        /* \"#utility.yul\":3835:3837   */\n      iszero\n      tag_77\n      jumpi\n        /* \"#utility.yul\":3924:3925   */\n      0x00\n        /* \"#utility.yul\":3915:3921   */\n      dup5\n        /* \"#utility.yul\":3910:3913   */\n      dup5\n        /* \"#utility.yul\":3906:3922   */\n      add\n        /* \"#utility.yul\":3899:3926   */\n      mstore\n        /* \"#utility.yul\":3835:3837   */\n    tag_77:\n        /* \"#utility.yul\":3684:3942   */\n      pop\n      pop\n      pop\n      pop\n      jump\t// out\n        /* \"#utility.yul\":3948:4128   */\n    tag_65:\n        /* \"#utility.yul\":3996:4073   */\n      0x4e487b7100000000000000000000000000000000000000000000000000000000\n        /* \"#utility.yul\":3993:3994   */\n      0x00\n        /* \"#utility.yul\":3986:4074   */\n      mstore\n        /* \"#utility.yul\":4093:4097   */\n      0x41\n        /* \"#utility.yul\":4090:4091   */\n      0x04\n        /* \"#utility.yul\":4083:4098   */\n      mstore\n        /* \"#utility.yul\":4117:4121   */\n      0x24\n        /* \"#utility.yul\":4114:4115   */\n      0x00\n        /* \"#utility.yul\":4107:4122   */\n      revert\n        /* \"#utility.yul\":4134:4236   */\n    tag_53:\n      0x00\n        /* \"#utility.yul\":4226:4228   */\n      0x1f\n        /* \"#utility.yul\":4222:4229   */\n      not\n        /* \"#utility.yul\":4217:4219   */\n      0x1f\n        /* \"#utility.yul\":4210:4215   */\n      dup4\n        /* \"#utility.yul\":4206:4220   */\n      add\n        /* \"#utility.yul\":4202:4230   */\n      and\n        /* \"#utility.yul\":4192:4230   */\n      swap1\n      pop\n        /* \"#utility.yul\":4182:4236   */\n      swap2\n      swap1\n      pop\n      jump\t// out\n        /* \"#utility.yul\":4242:4364   */\n    tag_36:\n        /* \"#utility.yul\":4315:4339   */\n      tag_81\n        /* \"#utility.yul\":4333:4338   */\n      dup2\n        /* \"#utility.yul\":4315:4339   */\n      tag_57\n      jump\t// in\n    tag_81:\n        /* \"#utility.yul\":4308:4313   */\n      dup2\n        /* \"#utility.yul\":4305:4340   */\n      eq\n        /* \"#utility.yul\":4295:4297   */\n      tag_82\n      jumpi\n        /* \"#utility.yul\":4354:4355   */\n      0x00\n        /* \"#utility.yul\":4351:4352   */\n      dup1\n        /* \"#utility.yul\":4344:4356   */\n      revert\n        /* \"#utility.yul\":4295:4297   */\n    tag_82:\n        /* \"#utility.yul\":4285:4364   */\n      pop\n      jump\t// out\n\n    auxdata: 0xa2646970667358221220895d8146dcd983e6917418715700ba0201246dea18c6c2c82103788454c8a6b564736f6c63430008000033\n}\n",
				"bytecode": {
					"linkReferences": {},
					"object": "608060405234801561001057600080fd5b50610371806100206000396000f3fe608060405234801561001057600080fd5b50600436106100365760003560e01c806395f6b4c91461003b578063b33670741461006b575b600080fd5b6100556004803603810190610050919061016d565b61009b565b6040516100629190610200565b60405180910390f35b6100856004803603810190610080919061012c565b6100a5565b60405161009291906101de565b60405180910390f35b6000819050919050565b6060819050919050565b60006100c26100bd8461024c565b61021b565b9050828152602081018484840111156100da57600080fd5b6100e58482856102a2565b509392505050565b600082601f8301126100fe57600080fd5b813561010e8482602086016100af565b91505092915050565b60008135905061012681610324565b92915050565b60006020828403121561013e57600080fd5b600082013567ffffffffffffffff81111561015857600080fd5b610164848285016100ed565b91505092915050565b60006020828403121561017f57600080fd5b600061018d84828501610117565b91505092915050565b60006101a18261027c565b6101ab8185610287565b93506101bb8185602086016102b1565b6101c481610313565b840191505092915050565b6101d881610298565b82525050565b600060208201905081810360008301526101f88184610196565b905092915050565b600060208201905061021560008301846101cf565b92915050565b6000604051905081810181811067ffffffffffffffff82111715610242576102416102e4565b5b8060405250919050565b600067ffffffffffffffff821115610267576102666102e4565b5b601f19601f8301169050602081019050919050565b600081519050919050565b600082825260208201905092915050565b6000819050919050565b82818337600083830152505050565b60005b838110156102cf5780820151818401526020810190506102b4565b838111156102de576000848401525b50505050565b7f4e487b7100000000000000000000000000000000000000000000000000000000600052604160045260246000fd5b6000601f19601f8301169050919050565b61032d81610298565b811461033857600080fd5b5056fea2646970667358221220895d8146dcd983e6917418715700ba0201246dea18c6c2c82103788454c8a6b564736f6c63430008000033",
					"opcodes": "PUSH1 0x80 PUSH1 0x40 MSTORE CALLVALUE DUP1 ISZERO PUSH2 0x10 JUMPI PUSH1 0x0 DUP1 REVERT JUMPDEST POP PUSH2 0x371 DUP1 PUSH2 0x20 PUSH1 0x0 CODECOPY PUSH1 0x0 RETURN INVALID PUSH1 0x80 PUSH1 0x40 MSTORE CALLVALUE DUP1 ISZERO PUSH2 0x10 JUMPI PUSH1 0x0 DUP1 REVERT JUMPDEST POP PUSH1 0x4 CALLDATASIZE LT PUSH2 0x36 JUMPI PUSH1 0x0 CALLDATALOAD PUSH1 0xE0 SHR DUP1 PUSH4 0x95F6B4C9 EQ PUSH2 0x3B JUMPI DUP1 PUSH4 0xB3367074 EQ PUSH2 0x6B JUMPI JUMPDEST PUSH1 0x0 DUP1 REVERT JUMPDEST PUSH2 0x55 PUSH1 0x4 DUP1 CALLDATASIZE SUB DUP2 ADD SWAP1 PUSH2 0x50 SWAP2 SWAP1 PUSH2 0x16D JUMP JUMPDEST PUSH2 0x9B JUMP JUMPDEST PUSH1 0x40 MLOAD PUSH2 0x62 SWAP2 SWAP1 PUSH2 0x200 JUMP JUMPDEST PUSH1 0x40 MLOAD DUP1 SWAP2 SUB SWAP1 RETURN JUMPDEST PUSH2 0x85 PUSH1 0x4 DUP1 CALLDATASIZE SUB DUP2 ADD SWAP1 PUSH2 0x80 SWAP2 SWAP1 PUSH2 0x12C JUMP JUMPDEST PUSH2 0xA5 JUMP JUMPDEST PUSH1 0x40 MLOAD PUSH2 0x92 SWAP2 SWAP1 PUSH2 0x1DE JUMP JUMPDEST PUSH1 0x40 MLOAD DUP1 SWAP2 SUB SWAP1 RETURN JUMPDEST PUSH1 0x0 DUP2 SWAP1 POP SWAP2 SWAP1 POP JUMP JUMPDEST PUSH1 0x60 DUP2 SWAP1 POP SWAP2 SWAP1 POP JUMP JUMPDEST PUSH1 0x0 PUSH2 0xC2 PUSH2 0xBD DUP5 PUSH2 0x24C JUMP JUMPDEST PUSH2 0x21B JUMP JUMPDEST SWAP1 POP DUP3 DUP2 MSTORE PUSH1 0x20 DUP2 ADD DUP5 DUP5 DUP5 ADD GT ISZERO PUSH2 0xDA JUMPI PUSH1 0x0 DUP1 REVERT JUMPDEST PUSH2 0xE5 DUP5 DUP3 DUP6 PUSH2 0x2A2 JUMP JUMPDEST POP SWAP4 SWAP3 POP POP POP JUMP JUMPDEST PUSH1 0x0 DUP3 PUSH1 0x1F DUP4 ADD SLT PUSH2 0xFE JUMPI PUSH1 0x0 DUP1 REVERT JUMPDEST DUP2 CALLDATALOAD PUSH2 0x10E DUP5 DUP3 PUSH1 0x20 DUP7 ADD PUSH2 0xAF JUMP JUMPDEST SWAP2 POP POP SWAP3 SWAP2 POP POP JUMP JUMPDEST PUSH1 0x0 DUP2 CALLDATALOAD SWAP1 POP PUSH2 0x126 DUP2 PUSH2 0x324 JUMP JUMPDEST SWAP3 SWAP2 POP POP JUMP JUMPDEST PUSH1 0x0 PUSH1 0x20 DUP3 DUP5 SUB SLT ISZERO PUSH2 0x13E JUMPI PUSH1 0x0 DUP1 REVERT JUMPDEST PUSH1 0x0 DUP3 ADD CALLDATALOAD PUSH8 0xFFFFFFFFFFFFFFFF DUP2 GT ISZERO PUSH2 0x158 JUMPI PUSH1 0x0 DUP1 REVERT JUMPDEST PUSH2 0x164 DUP5 DUP3 DUP6 ADD PUSH2 0xED JUMP JUMPDEST SWAP2 POP POP SWAP3 SWAP2 POP POP JUMP JUMPDEST PUSH1 0x0 PUSH1 0x20 DUP3 DUP5 SUB SLT ISZERO PUSH2 0x17F JUMPI PUSH1 0x0 DUP1 REVERT JUMPDEST PUSH1 0x0 PUSH2 0x18D DUP5 DUP3 DUP6 ADD PUSH2 0x117 JUMP JUMPDEST SWAP2 POP POP SWAP3 SWAP2 POP POP JUMP JUMPDEST PUSH1 0x0 PUSH2 0x1A1 DUP3 PUSH2 0x27C JUMP JUMPDEST PUSH2 0x1AB DUP2 DUP6 PUSH2 0x287 JUMP JUMPDEST SWAP4 POP PUSH2 0x1BB DUP2 DUP6 PUSH1 0x20 DUP7 ADD PUSH2 0x2B1 JUMP JUMPDEST PUSH2 0x1C4 DUP2 PUSH2 0x313 JUMP JUMPDEST DUP5 ADD SWAP2 POP POP SWAP3 SWAP2 POP POP JUMP JUMPDEST PUSH2 0x1D8 DUP2 PUSH2 0x298 JUMP JUMPDEST DUP3 MSTORE POP POP JUMP JUMPDEST PUSH1 0x0 PUSH1 0x20 DUP3 ADD SWAP1 POP DUP2 DUP2 SUB PUSH1 0x0 DUP4 ADD MSTORE PUSH2 0x1F8 DUP2 DUP5 PUSH2 0x196 JUMP JUMPDEST SWAP1 POP SWAP3 SWAP2 POP POP JUMP JUMPDEST PUSH1 0x0 PUSH1 0x20 DUP3 ADD SWAP1 POP PUSH2 0x215 PUSH1 0x0 DUP4 ADD DUP5 PUSH2 0x1CF JUMP JUMPDEST SWAP3 SWAP2 POP POP JUMP JUMPDEST PUSH1 0x0 PUSH1 0x40 MLOAD SWAP1 POP DUP2 DUP2 ADD DUP2 DUP2 LT PUSH8 0xFFFFFFFFFFFFFFFF DUP3 GT OR ISZERO PUSH2 0x242 JUMPI PUSH2 0x241 PUSH2 0x2E4 JUMP JUMPDEST JUMPDEST DUP1 PUSH1 0x40 MSTORE POP SWAP2 SWAP1 POP JUMP JUMPDEST PUSH1 0x0 PUSH8 0xFFFFFFFFFFFFFFFF DUP3 GT ISZERO PUSH2 0x267 JUMPI PUSH2 0x266 PUSH2 0x2E4 JUMP JUMPDEST JUMPDEST PUSH1 0x1F NOT PUSH1 0x1F DUP4 ADD AND SWAP1 POP PUSH1 0x20 DUP2 ADD SWAP1 POP SWAP2 SWAP1 POP JUMP JUMPDEST PUSH1 0x0 DUP2 MLOAD SWAP1 POP SWAP2 SWAP1 POP JUMP JUMPDEST PUSH1 0x0 DUP3 DUP3 MSTORE PUSH1 0x20 DUP3 ADD SWAP1 POP SWAP3 SWAP2 POP POP JUMP JUMPDEST PUSH1 0x0 DUP2 SWAP1 POP SWAP2 SWAP1 POP JUMP JUMPDEST DUP3 DUP2 DUP4 CALLDATACOPY PUSH1 0x0 DUP4 DUP4 ADD MSTORE POP POP POP JUMP JUMPDEST PUSH1 0x0 JUMPDEST DUP4 DUP2 LT ISZERO PUSH2 0x2CF JUMPI DUP1 DUP3 ADD MLOAD DUP2 DUP5 ADD MSTORE PUSH1 0x20 DUP2 ADD SWAP1 POP PUSH2 0x2B4 JUMP JUMPDEST DUP4 DUP2 GT ISZERO PUSH2 0x2DE JUMPI PUSH1 0x0 DUP5 DUP5 ADD MSTORE JUMPDEST POP POP POP POP JUMP JUMPDEST PUSH32 0x4E487B7100000000000000000000000000000000000000000000000000000000 PUSH1 0x0 MSTORE PUSH1 0x41 PUSH1 0x4 MSTORE PUSH1 0x24 PUSH1 0x0 REVERT JUMPDEST PUSH1 0x0 PUSH1 0x1F NOT PUSH1 0x1F DUP4 ADD AND SWAP1 POP SWAP2 SWAP1 POP JUMP JUMPDEST PUSH2 0x32D DUP2 PUSH2 0x298 JUMP JUMPDEST DUP2 EQ PUSH2 0x338 JUMPI PUSH1 0x0 DUP1 REVERT JUMPDEST POP JUMP INVALID LOG2 PUSH5 0x6970667358 0x22 SLT KECCAK256 DUP10 0x5D DUP2 CHAINID 0xDC 0xD9 DUP4 0xE6 SWAP2 PUSH21 0x18715700BA0201246DEA18C6C2C82103788454C8A6 0xB5 PUSH5 0x736F6C6343 STOP ADDMOD STOP STOP CALLER "
				},
				"gasEstimates": {
					"creation": {
						"codeDepositCost": "176200",
						"executionCost": "220",
						"totalCost": "176420"
					},
					"external": {
						"get_string(string)": "infinite",
						"get_uint(uint256)": "infinite"
					}
				},
				"methodIdentifiers": {
					"get_string(string)": "b3367074",
					"get_uint(uint256)": "95f6b4c9"
				}
			},
			"storageLayout": {
				"storage": [],
				"types": null
			},
			"userdoc": {
				"kind": "user",
				"methods": {},
				"version": 1
			}
		}
	}
}