{
	"lecture/lec28.sol": {
		"runner": {
			"abi": [
				{
					"anonymous": false,
					"inputs": [
						{
							"indexed": false,
							"internalType": "string",
							"name": "_name",
							"type": "string"
						},
						{
							"indexed": false,
							"internalType": "string",
							"name": "_err",
							"type": "string"
						}
					],
					"name": "catchOnly",
					"type": "event"
				},
				{
					"inputs": [
						{
							"internalType": "string",
							"name": "_name",
							"type": "string"
						},
						{
							"internalType": "uint256",
							"name": "_power",
							"type": "uint256"
						}
					],
					"name": "playTryCatch",
					"outputs": [
						{
							"internalType": "bool",
							"name": "",
							"type": "bool"
						}
					],
					"stateMutability": "nonpayable",
					"type": "function"
				}
			],
			"devdoc": {
				"kind": "dev",
				"methods": {},
				"version": 1
			},
			"evm": {
				"assembly": "    /* \"lecture/lec28.sol\":716:1117  contract runner{... */\n  mstore(0x40, 0x80)\n  callvalue\n  dup1\n  iszero\n  tag_1\n  jumpi\n  0x00\n  dup1\n  revert\ntag_1:\n  pop\n  dataSize(sub_0)\n  dup1\n  dataOffset(sub_0)\n  0x00\n  codecopy\n  0x00\n  return\nstop\n\nsub_0: assembly {\n        /* \"lecture/lec28.sol\":716:1117  contract runner{... */\n      mstore(0x40, 0x80)\n      callvalue\n      dup1\n      iszero\n      tag_1\n      jumpi\n      0x00\n      dup1\n      revert\n    tag_1:\n      pop\n      jumpi(tag_2, lt(calldatasize, 0x04))\n      shr(0xe0, calldataload(0x00))\n      dup1\n      0x447bce4a\n      eq\n      tag_3\n      jumpi\n    tag_2:\n      0x00\n      dup1\n      revert\n        /* \"lecture/lec28.sol\":794:1114  function playTryCatch(string memory _name, uint256 _power) public returns(bool){   ... */\n    tag_3:\n      tag_4\n      0x04\n      dup1\n      calldatasize\n      sub\n      dup2\n      add\n      swap1\n      tag_5\n      swap2\n      swap1\n      tag_6\n      jump\t// in\n    tag_5:\n      tag_7\n      jump\t// in\n    tag_4:\n      mload(0x40)\n      tag_8\n      swap2\n      swap1\n      tag_9\n      jump\t// in\n    tag_8:\n      mload(0x40)\n      dup1\n      swap2\n      sub\n      swap1\n      return\n    tag_7:\n        /* \"lecture/lec28.sol\":868:872  bool */\n      0x00\n        /* \"lecture/lec28.sol\":904:909  _name */\n      dup3\n        /* \"lecture/lec28.sol\":910:916  _power */\n      dup3\n        /* \"lecture/lec28.sol\":890:917  new character(_name,_power) */\n      mload(0x40)\n      tag_11\n      swap1\n      tag_12\n      jump\t// in\n    tag_11:\n      tag_13\n      swap3\n      swap2\n      swap1\n      tag_14\n      jump\t// in\n    tag_13:\n      mload(0x40)\n      dup1\n      swap2\n      sub\n      swap1\n      0x00\n      create\n      dup1\n      iszero\n      tag_15\n      jumpi\n      0x01\n    tag_15:\n        /* \"lecture/lec28.sol\":886:1108  try new character(_name,_power) {... */\n      tag_16\n      jumpi\n        /* \"lecture/lec28.sol\":1041:1070  catchOnly(\"catch\",\"ErrorS!!\") */\n      0xed1339d3b97aca38a4bc95190b93af9130be96b54e1bc34caa04b59819decfa0\n      mload(0x40)\n      tag_20\n      swap1\n      tag_21\n      jump\t// in\n    tag_20:\n      mload(0x40)\n      dup1\n      swap2\n      sub\n      swap1\n      log1\n        /* \"lecture/lec28.sol\":1091:1096  false */\n      0x00\n        /* \"lecture/lec28.sol\":1084:1097  return(false) */\n      swap1\n      pop\n      jump(tag_10)\n        /* \"lecture/lec28.sol\":886:1108  try new character(_name,_power) {... */\n    tag_16:\n      pop\n        /* \"lecture/lec28.sol\":932:971  revert(\"errors in the try/catch block\") */\n      mload(0x40)\n      0x08c379a000000000000000000000000000000000000000000000000000000000\n      dup2\n      mstore\n      0x04\n      add\n      tag_23\n      swap1\n      tag_24\n      jump\t// in\n    tag_23:\n      mload(0x40)\n      dup1\n      swap2\n      sub\n      swap1\n      revert\n        /* \"lecture/lec28.sol\":794:1114  function playTryCatch(string memory _name, uint256 _power) public returns(bool){   ... */\n    tag_10:\n      swap3\n      swap2\n      pop\n      pop\n      jump\t// out\n    tag_12:\n      dataSize(sub_0)\n      dup1\n      dataOffset(sub_0)\n      dup4\n      codecopy\n      add\n      swap1\n      jump\t// out\n        /* \"#utility.yul\":7:419   */\n    tag_26:\n        /* \"#utility.yul\":85:90   */\n      0x00\n        /* \"#utility.yul\":110:176   */\n      tag_28\n        /* \"#utility.yul\":126:175   */\n      tag_29\n        /* \"#utility.yul\":168:174   */\n      dup5\n        /* \"#utility.yul\":126:175   */\n      tag_30\n      jump\t// in\n    tag_29:\n        /* \"#utility.yul\":110:176   */\n      tag_31\n      jump\t// in\n    tag_28:\n        /* \"#utility.yul\":101:176   */\n      swap1\n      pop\n        /* \"#utility.yul\":199:205   */\n      dup3\n        /* \"#utility.yul\":192:197   */\n      dup2\n        /* \"#utility.yul\":185:206   */\n      mstore\n        /* \"#utility.yul\":237:241   */\n      0x20\n        /* \"#utility.yul\":230:235   */\n      dup2\n        /* \"#utility.yul\":226:242   */\n      add\n        /* \"#utility.yul\":275:278   */\n      dup5\n        /* \"#utility.yul\":266:272   */\n      dup5\n        /* \"#utility.yul\":261:264   */\n      dup5\n        /* \"#utility.yul\":257:273   */\n      add\n        /* \"#utility.yul\":254:279   */\n      gt\n        /* \"#utility.yul\":251:363   */\n      iszero\n      tag_32\n      jumpi\n        /* \"#utility.yul\":282:361   */\n      tag_33\n      tag_34\n      jump\t// in\n    tag_33:\n        /* \"#utility.yul\":251:363   */\n    tag_32:\n        /* \"#utility.yul\":372:413   */\n      tag_35\n        /* \"#utility.yul\":406:412   */\n      dup5\n        /* \"#utility.yul\":401:404   */\n      dup3\n        /* \"#utility.yul\":396:399   */\n      dup6\n        /* \"#utility.yul\":372:413   */\n      tag_36\n      jump\t// in\n    tag_35:\n        /* \"#utility.yul\":91:419   */\n      pop\n        /* \"#utility.yul\":7:419   */\n      swap4\n      swap3\n      pop\n      pop\n      pop\n      jump\t// out\n        /* \"#utility.yul\":439:779   */\n    tag_37:\n        /* \"#utility.yul\":495:500   */\n      0x00\n        /* \"#utility.yul\":544:547   */\n      dup3\n        /* \"#utility.yul\":537:541   */\n      0x1f\n        /* \"#utility.yul\":529:535   */\n      dup4\n        /* \"#utility.yul\":525:542   */\n      add\n        /* \"#utility.yul\":521:548   */\n      slt\n        /* \"#utility.yul\":511:633   */\n      tag_39\n      jumpi\n        /* \"#utility.yul\":552:631   */\n      tag_40\n      tag_41\n      jump\t// in\n    tag_40:\n        /* \"#utility.yul\":511:633   */\n    tag_39:\n        /* \"#utility.yul\":669:675   */\n      dup2\n        /* \"#utility.yul\":656:676   */\n      calldataload\n        /* \"#utility.yul\":694:773   */\n      tag_42\n        /* \"#utility.yul\":769:772   */\n      dup5\n        /* \"#utility.yul\":761:767   */\n      dup3\n        /* \"#utility.yul\":754:758   */\n      0x20\n        /* \"#utility.yul\":746:752   */\n      dup7\n        /* \"#utility.yul\":742:759   */\n      add\n        /* \"#utility.yul\":694:773   */\n      tag_26\n      jump\t// in\n    tag_42:\n        /* \"#utility.yul\":685:773   */\n      swap2\n      pop\n        /* \"#utility.yul\":501:779   */\n      pop\n        /* \"#utility.yul\":439:779   */\n      swap3\n      swap2\n      pop\n      pop\n      jump\t// out\n        /* \"#utility.yul\":785:924   */\n    tag_43:\n        /* \"#utility.yul\":831:836   */\n      0x00\n        /* \"#utility.yul\":869:875   */\n      dup2\n        /* \"#utility.yul\":856:876   */\n      calldataload\n        /* \"#utility.yul\":847:876   */\n      swap1\n      pop\n        /* \"#utility.yul\":885:918   */\n      tag_45\n        /* \"#utility.yul\":912:917   */\n      dup2\n        /* \"#utility.yul\":885:918   */\n      tag_46\n      jump\t// in\n    tag_45:\n        /* \"#utility.yul\":785:924   */\n      swap3\n      swap2\n      pop\n      pop\n      jump\t// out\n        /* \"#utility.yul\":930:1584   */\n    tag_6:\n        /* \"#utility.yul\":1008:1014   */\n      0x00\n        /* \"#utility.yul\":1016:1022   */\n      dup1\n        /* \"#utility.yul\":1065:1067   */\n      0x40\n        /* \"#utility.yul\":1053:1062   */\n      dup4\n        /* \"#utility.yul\":1044:1051   */\n      dup6\n        /* \"#utility.yul\":1040:1063   */\n      sub\n        /* \"#utility.yul\":1036:1068   */\n      slt\n        /* \"#utility.yul\":1033:1152   */\n      iszero\n      tag_48\n      jumpi\n        /* \"#utility.yul\":1071:1150   */\n      tag_49\n      tag_50\n      jump\t// in\n    tag_49:\n        /* \"#utility.yul\":1033:1152   */\n    tag_48:\n        /* \"#utility.yul\":1219:1220   */\n      0x00\n        /* \"#utility.yul\":1208:1217   */\n      dup4\n        /* \"#utility.yul\":1204:1221   */\n      add\n        /* \"#utility.yul\":1191:1222   */\n      calldataload\n        /* \"#utility.yul\":1249:1267   */\n      0xffffffffffffffff\n        /* \"#utility.yul\":1241:1247   */\n      dup2\n        /* \"#utility.yul\":1238:1268   */\n      gt\n        /* \"#utility.yul\":1235:1352   */\n      iszero\n      tag_51\n      jumpi\n        /* \"#utility.yul\":1271:1350   */\n      tag_52\n      tag_53\n      jump\t// in\n    tag_52:\n        /* \"#utility.yul\":1235:1352   */\n    tag_51:\n        /* \"#utility.yul\":1376:1439   */\n      tag_54\n        /* \"#utility.yul\":1431:1438   */\n      dup6\n        /* \"#utility.yul\":1422:1428   */\n      dup3\n        /* \"#utility.yul\":1411:1420   */\n      dup7\n        /* \"#utility.yul\":1407:1429   */\n      add\n        /* \"#utility.yul\":1376:1439   */\n      tag_37\n      jump\t// in\n    tag_54:\n        /* \"#utility.yul\":1366:1439   */\n      swap3\n      pop\n        /* \"#utility.yul\":1162:1449   */\n      pop\n        /* \"#utility.yul\":1488:1490   */\n      0x20\n        /* \"#utility.yul\":1514:1567   */\n      tag_55\n        /* \"#utility.yul\":1559:1566   */\n      dup6\n        /* \"#utility.yul\":1550:1556   */\n      dup3\n        /* \"#utility.yul\":1539:1548   */\n      dup7\n        /* \"#utility.yul\":1535:1557   */\n      add\n        /* \"#utility.yul\":1514:1567   */\n      tag_43\n      jump\t// in\n    tag_55:\n        /* \"#utility.yul\":1504:1567   */\n      swap2\n      pop\n        /* \"#utility.yul\":1459:1577   */\n      pop\n        /* \"#utility.yul\":930:1584   */\n      swap3\n      pop\n      swap3\n      swap1\n      pop\n      jump\t// out\n        /* \"#utility.yul\":1590:1699   */\n    tag_56:\n        /* \"#utility.yul\":1671:1692   */\n      tag_58\n        /* \"#utility.yul\":1686:1691   */\n      dup2\n        /* \"#utility.yul\":1671:1692   */\n      tag_59\n      jump\t// in\n    tag_58:\n        /* \"#utility.yul\":1666:1669   */\n      dup3\n        /* \"#utility.yul\":1659:1693   */\n      mstore\n        /* \"#utility.yul\":1590:1699   */\n      pop\n      pop\n      jump\t// out\n        /* \"#utility.yul\":1705:2069   */\n    tag_60:\n        /* \"#utility.yul\":1793:1796   */\n      0x00\n        /* \"#utility.yul\":1821:1860   */\n      tag_62\n        /* \"#utility.yul\":1854:1859   */\n      dup3\n        /* \"#utility.yul\":1821:1860   */\n      tag_63\n      jump\t// in\n    tag_62:\n        /* \"#utility.yul\":1876:1947   */\n      tag_64\n        /* \"#utility.yul\":1940:1946   */\n      dup2\n        /* \"#utility.yul\":1935:1938   */\n      dup6\n        /* \"#utility.yul\":1876:1947   */\n      tag_65\n      jump\t// in\n    tag_64:\n        /* \"#utility.yul\":1869:1947   */\n      swap4\n      pop\n        /* \"#utility.yul\":1956:2008   */\n      tag_66\n        /* \"#utility.yul\":2001:2007   */\n      dup2\n        /* \"#utility.yul\":1996:1999   */\n      dup6\n        /* \"#utility.yul\":1989:1993   */\n      0x20\n        /* \"#utility.yul\":1982:1987   */\n      dup7\n        /* \"#utility.yul\":1978:1994   */\n      add\n        /* \"#utility.yul\":1956:2008   */\n      tag_67\n      jump\t// in\n    tag_66:\n        /* \"#utility.yul\":2033:2062   */\n      tag_68\n        /* \"#utility.yul\":2055:2061   */\n      dup2\n        /* \"#utility.yul\":2033:2062   */\n      tag_69\n      jump\t// in\n    tag_68:\n        /* \"#utility.yul\":2028:2031   */\n      dup5\n        /* \"#utility.yul\":2024:2063   */\n      add\n        /* \"#utility.yul\":2017:2063   */\n      swap2\n      pop\n        /* \"#utility.yul\":1797:2069   */\n      pop\n        /* \"#utility.yul\":1705:2069   */\n      swap3\n      swap2\n      pop\n      pop\n      jump\t// out\n        /* \"#utility.yul\":2075:2441   */\n    tag_70:\n        /* \"#utility.yul\":2217:2220   */\n      0x00\n        /* \"#utility.yul\":2238:2305   */\n      tag_72\n        /* \"#utility.yul\":2302:2304   */\n      0x1d\n        /* \"#utility.yul\":2297:2300   */\n      dup4\n        /* \"#utility.yul\":2238:2305   */\n      tag_65\n      jump\t// in\n    tag_72:\n        /* \"#utility.yul\":2231:2305   */\n      swap2\n      pop\n        /* \"#utility.yul\":2314:2407   */\n      tag_73\n        /* \"#utility.yul\":2403:2406   */\n      dup3\n        /* \"#utility.yul\":2314:2407   */\n      tag_74\n      jump\t// in\n    tag_73:\n        /* \"#utility.yul\":2432:2434   */\n      0x20\n        /* \"#utility.yul\":2427:2430   */\n      dup3\n        /* \"#utility.yul\":2423:2435   */\n      add\n        /* \"#utility.yul\":2416:2435   */\n      swap1\n      pop\n        /* \"#utility.yul\":2075:2441   */\n      swap2\n      swap1\n      pop\n      jump\t// out\n        /* \"#utility.yul\":2447:2812   */\n    tag_75:\n        /* \"#utility.yul\":2589:2592   */\n      0x00\n        /* \"#utility.yul\":2610:2676   */\n      tag_77\n        /* \"#utility.yul\":2674:2675   */\n      0x05\n        /* \"#utility.yul\":2669:2672   */\n      dup4\n        /* \"#utility.yul\":2610:2676   */\n      tag_65\n      jump\t// in\n    tag_77:\n        /* \"#utility.yul\":2603:2676   */\n      swap2\n      pop\n        /* \"#utility.yul\":2685:2778   */\n      tag_78\n        /* \"#utility.yul\":2774:2777   */\n      dup3\n        /* \"#utility.yul\":2685:2778   */\n      tag_79\n      jump\t// in\n    tag_78:\n        /* \"#utility.yul\":2803:2805   */\n      0x20\n        /* \"#utility.yul\":2798:2801   */\n      dup3\n        /* \"#utility.yul\":2794:2806   */\n      add\n        /* \"#utility.yul\":2787:2806   */\n      swap1\n      pop\n        /* \"#utility.yul\":2447:2812   */\n      swap2\n      swap1\n      pop\n      jump\t// out\n        /* \"#utility.yul\":2818:3183   */\n    tag_80:\n        /* \"#utility.yul\":2960:2963   */\n      0x00\n        /* \"#utility.yul\":2981:3047   */\n      tag_82\n        /* \"#utility.yul\":3045:3046   */\n      0x08\n        /* \"#utility.yul\":3040:3043   */\n      dup4\n        /* \"#utility.yul\":2981:3047   */\n      tag_65\n      jump\t// in\n    tag_82:\n        /* \"#utility.yul\":2974:3047   */\n      swap2\n      pop\n        /* \"#utility.yul\":3056:3149   */\n      tag_83\n        /* \"#utility.yul\":3145:3148   */\n      dup3\n        /* \"#utility.yul\":3056:3149   */\n      tag_84\n      jump\t// in\n    tag_83:\n        /* \"#utility.yul\":3174:3176   */\n      0x20\n        /* \"#utility.yul\":3169:3172   */\n      dup3\n        /* \"#utility.yul\":3165:3177   */\n      add\n        /* \"#utility.yul\":3158:3177   */\n      swap1\n      pop\n        /* \"#utility.yul\":2818:3183   */\n      swap2\n      swap1\n      pop\n      jump\t// out\n        /* \"#utility.yul\":3189:3307   */\n    tag_85:\n        /* \"#utility.yul\":3276:3300   */\n      tag_87\n        /* \"#utility.yul\":3294:3299   */\n      dup2\n        /* \"#utility.yul\":3276:3300   */\n      tag_88\n      jump\t// in\n    tag_87:\n        /* \"#utility.yul\":3271:3274   */\n      dup3\n        /* \"#utility.yul\":3264:3301   */\n      mstore\n        /* \"#utility.yul\":3189:3307   */\n      pop\n      pop\n      jump\t// out\n        /* \"#utility.yul\":3313:3523   */\n    tag_9:\n        /* \"#utility.yul\":3400:3404   */\n      0x00\n        /* \"#utility.yul\":3438:3440   */\n      0x20\n        /* \"#utility.yul\":3427:3436   */\n      dup3\n        /* \"#utility.yul\":3423:3441   */\n      add\n        /* \"#utility.yul\":3415:3441   */\n      swap1\n      pop\n        /* \"#utility.yul\":3451:3516   */\n      tag_90\n        /* \"#utility.yul\":3513:3514   */\n      0x00\n        /* \"#utility.yul\":3502:3511   */\n      dup4\n        /* \"#utility.yul\":3498:3515   */\n      add\n        /* \"#utility.yul\":3489:3495   */\n      dup5\n        /* \"#utility.yul\":3451:3516   */\n      tag_56\n      jump\t// in\n    tag_90:\n        /* \"#utility.yul\":3313:3523   */\n      swap3\n      swap2\n      pop\n      pop\n      jump\t// out\n        /* \"#utility.yul\":3529:3952   */\n    tag_14:\n        /* \"#utility.yul\":3670:3674   */\n      0x00\n        /* \"#utility.yul\":3708:3710   */\n      0x40\n        /* \"#utility.yul\":3697:3706   */\n      dup3\n        /* \"#utility.yul\":3693:3711   */\n      add\n        /* \"#utility.yul\":3685:3711   */\n      swap1\n      pop\n        /* \"#utility.yul\":3757:3766   */\n      dup2\n        /* \"#utility.yul\":3751:3755   */\n      dup2\n        /* \"#utility.yul\":3747:3767   */\n      sub\n        /* \"#utility.yul\":3743:3744   */\n      0x00\n        /* \"#utility.yul\":3732:3741   */\n      dup4\n        /* \"#utility.yul\":3728:3745   */\n      add\n        /* \"#utility.yul\":3721:3768   */\n      mstore\n        /* \"#utility.yul\":3785:3863   */\n      tag_92\n        /* \"#utility.yul\":3858:3862   */\n      dup2\n        /* \"#utility.yul\":3849:3855   */\n      dup6\n        /* \"#utility.yul\":3785:3863   */\n      tag_60\n      jump\t// in\n    tag_92:\n        /* \"#utility.yul\":3777:3863   */\n      swap1\n      pop\n        /* \"#utility.yul\":3873:3945   */\n      tag_93\n        /* \"#utility.yul\":3941:3943   */\n      0x20\n        /* \"#utility.yul\":3930:3939   */\n      dup4\n        /* \"#utility.yul\":3926:3944   */\n      add\n        /* \"#utility.yul\":3917:3923   */\n      dup5\n        /* \"#utility.yul\":3873:3945   */\n      tag_85\n      jump\t// in\n    tag_93:\n        /* \"#utility.yul\":3529:3952   */\n      swap4\n      swap3\n      pop\n      pop\n      pop\n      jump\t// out\n        /* \"#utility.yul\":3958:4377   */\n    tag_24:\n        /* \"#utility.yul\":4124:4128   */\n      0x00\n        /* \"#utility.yul\":4162:4164   */\n      0x20\n        /* \"#utility.yul\":4151:4160   */\n      dup3\n        /* \"#utility.yul\":4147:4165   */\n      add\n        /* \"#utility.yul\":4139:4165   */\n      swap1\n      pop\n        /* \"#utility.yul\":4211:4220   */\n      dup2\n        /* \"#utility.yul\":4205:4209   */\n      dup2\n        /* \"#utility.yul\":4201:4221   */\n      sub\n        /* \"#utility.yul\":4197:4198   */\n      0x00\n        /* \"#utility.yul\":4186:4195   */\n      dup4\n        /* \"#utility.yul\":4182:4199   */\n      add\n        /* \"#utility.yul\":4175:4222   */\n      mstore\n        /* \"#utility.yul\":4239:4370   */\n      tag_95\n        /* \"#utility.yul\":4365:4369   */\n      dup2\n        /* \"#utility.yul\":4239:4370   */\n      tag_70\n      jump\t// in\n    tag_95:\n        /* \"#utility.yul\":4231:4370   */\n      swap1\n      pop\n        /* \"#utility.yul\":3958:4377   */\n      swap2\n      swap1\n      pop\n      jump\t// out\n        /* \"#utility.yul\":4383:5109   */\n    tag_21:\n        /* \"#utility.yul\":4650:4654   */\n      0x00\n        /* \"#utility.yul\":4688:4690   */\n      0x40\n        /* \"#utility.yul\":4677:4686   */\n      dup3\n        /* \"#utility.yul\":4673:4691   */\n      add\n        /* \"#utility.yul\":4665:4691   */\n      swap1\n      pop\n        /* \"#utility.yul\":4737:4746   */\n      dup2\n        /* \"#utility.yul\":4731:4735   */\n      dup2\n        /* \"#utility.yul\":4727:4747   */\n      sub\n        /* \"#utility.yul\":4723:4724   */\n      0x00\n        /* \"#utility.yul\":4712:4721   */\n      dup4\n        /* \"#utility.yul\":4708:4725   */\n      add\n        /* \"#utility.yul\":4701:4748   */\n      mstore\n        /* \"#utility.yul\":4765:4896   */\n      tag_97\n        /* \"#utility.yul\":4891:4895   */\n      dup2\n        /* \"#utility.yul\":4765:4896   */\n      tag_75\n      jump\t// in\n    tag_97:\n        /* \"#utility.yul\":4757:4896   */\n      swap1\n      pop\n        /* \"#utility.yul\":4943:4952   */\n      dup2\n        /* \"#utility.yul\":4937:4941   */\n      dup2\n        /* \"#utility.yul\":4933:4953   */\n      sub\n        /* \"#utility.yul\":4928:4930   */\n      0x20\n        /* \"#utility.yul\":4917:4926   */\n      dup4\n        /* \"#utility.yul\":4913:4931   */\n      add\n        /* \"#utility.yul\":4906:4954   */\n      mstore\n        /* \"#utility.yul\":4971:5102   */\n      tag_98\n        /* \"#utility.yul\":5097:5101   */\n      dup2\n        /* \"#utility.yul\":4971:5102   */\n      tag_80\n      jump\t// in\n    tag_98:\n        /* \"#utility.yul\":4963:5102   */\n      swap1\n      pop\n        /* \"#utility.yul\":4383:5109   */\n      swap2\n      swap1\n      pop\n      jump\t// out\n        /* \"#utility.yul\":5115:5244   */\n    tag_31:\n        /* \"#utility.yul\":5149:5155   */\n      0x00\n        /* \"#utility.yul\":5176:5196   */\n      tag_100\n      tag_101\n      jump\t// in\n    tag_100:\n        /* \"#utility.yul\":5166:5196   */\n      swap1\n      pop\n        /* \"#utility.yul\":5205:5238   */\n      tag_102\n        /* \"#utility.yul\":5233:5237   */\n      dup3\n        /* \"#utility.yul\":5225:5231   */\n      dup3\n        /* \"#utility.yul\":5205:5238   */\n      tag_103\n      jump\t// in\n    tag_102:\n        /* \"#utility.yul\":5115:5244   */\n      swap2\n      swap1\n      pop\n      jump\t// out\n        /* \"#utility.yul\":5250:5325   */\n    tag_101:\n        /* \"#utility.yul\":5283:5289   */\n      0x00\n        /* \"#utility.yul\":5316:5318   */\n      0x40\n        /* \"#utility.yul\":5310:5319   */\n      mload\n        /* \"#utility.yul\":5300:5319   */\n      swap1\n      pop\n        /* \"#utility.yul\":5250:5325   */\n      swap1\n      jump\t// out\n        /* \"#utility.yul\":5331:5639   */\n    tag_30:\n        /* \"#utility.yul\":5393:5397   */\n      0x00\n        /* \"#utility.yul\":5483:5501   */\n      0xffffffffffffffff\n        /* \"#utility.yul\":5475:5481   */\n      dup3\n        /* \"#utility.yul\":5472:5502   */\n      gt\n        /* \"#utility.yul\":5469:5525   */\n      iszero\n      tag_106\n      jumpi\n        /* \"#utility.yul\":5505:5523   */\n      tag_107\n      tag_108\n      jump\t// in\n    tag_107:\n        /* \"#utility.yul\":5469:5525   */\n    tag_106:\n        /* \"#utility.yul\":5543:5572   */\n      tag_109\n        /* \"#utility.yul\":5565:5571   */\n      dup3\n        /* \"#utility.yul\":5543:5572   */\n      tag_69\n      jump\t// in\n    tag_109:\n        /* \"#utility.yul\":5535:5572   */\n      swap1\n      pop\n        /* \"#utility.yul\":5627:5631   */\n      0x20\n        /* \"#utility.yul\":5621:5625   */\n      dup2\n        /* \"#utility.yul\":5617:5632   */\n      add\n        /* \"#utility.yul\":5609:5632   */\n      swap1\n      pop\n        /* \"#utility.yul\":5331:5639   */\n      swap2\n      swap1\n      pop\n      jump\t// out\n        /* \"#utility.yul\":5645:5744   */\n    tag_63:\n        /* \"#utility.yul\":5697:5703   */\n      0x00\n        /* \"#utility.yul\":5731:5736   */\n      dup2\n        /* \"#utility.yul\":5725:5737   */\n      mload\n        /* \"#utility.yul\":5715:5737   */\n      swap1\n      pop\n        /* \"#utility.yul\":5645:5744   */\n      swap2\n      swap1\n      pop\n      jump\t// out\n        /* \"#utility.yul\":5750:5919   */\n    tag_65:\n        /* \"#utility.yul\":5834:5845   */\n      0x00\n        /* \"#utility.yul\":5868:5874   */\n      dup3\n        /* \"#utility.yul\":5863:5866   */\n      dup3\n        /* \"#utility.yul\":5856:5875   */\n      mstore\n        /* \"#utility.yul\":5908:5912   */\n      0x20\n        /* \"#utility.yul\":5903:5906   */\n      dup3\n        /* \"#utility.yul\":5899:5913   */\n      add\n        /* \"#utility.yul\":5884:5913   */\n      swap1\n      pop\n        /* \"#utility.yul\":5750:5919   */\n      swap3\n      swap2\n      pop\n      pop\n      jump\t// out\n        /* \"#utility.yul\":5925:6015   */\n    tag_59:\n        /* \"#utility.yul\":5959:5966   */\n      0x00\n        /* \"#utility.yul\":6002:6007   */\n      dup2\n        /* \"#utility.yul\":5995:6008   */\n      iszero\n        /* \"#utility.yul\":5988:6009   */\n      iszero\n        /* \"#utility.yul\":5977:6009   */\n      swap1\n      pop\n        /* \"#utility.yul\":5925:6015   */\n      swap2\n      swap1\n      pop\n      jump\t// out\n        /* \"#utility.yul\":6021:6098   */\n    tag_88:\n        /* \"#utility.yul\":6058:6065   */\n      0x00\n        /* \"#utility.yul\":6087:6092   */\n      dup2\n        /* \"#utility.yul\":6076:6092   */\n      swap1\n      pop\n        /* \"#utility.yul\":6021:6098   */\n      swap2\n      swap1\n      pop\n      jump\t// out\n        /* \"#utility.yul\":6104:6258   */\n    tag_36:\n        /* \"#utility.yul\":6188:6194   */\n      dup3\n        /* \"#utility.yul\":6183:6186   */\n      dup2\n        /* \"#utility.yul\":6178:6181   */\n      dup4\n        /* \"#utility.yul\":6165:6195   */\n      calldatacopy\n        /* \"#utility.yul\":6250:6251   */\n      0x00\n        /* \"#utility.yul\":6241:6247   */\n      dup4\n        /* \"#utility.yul\":6236:6239   */\n      dup4\n        /* \"#utility.yul\":6232:6248   */\n      add\n        /* \"#utility.yul\":6225:6252   */\n      mstore\n        /* \"#utility.yul\":6104:6258   */\n      pop\n      pop\n      pop\n      jump\t// out\n        /* \"#utility.yul\":6264:6571   */\n    tag_67:\n        /* \"#utility.yul\":6332:6333   */\n      0x00\n        /* \"#utility.yul\":6342:6455   */\n    tag_116:\n        /* \"#utility.yul\":6356:6362   */\n      dup4\n        /* \"#utility.yul\":6353:6354   */\n      dup2\n        /* \"#utility.yul\":6350:6363   */\n      lt\n        /* \"#utility.yul\":6342:6455   */\n      iszero\n      tag_118\n      jumpi\n        /* \"#utility.yul\":6441:6442   */\n      dup1\n        /* \"#utility.yul\":6436:6439   */\n      dup3\n        /* \"#utility.yul\":6432:6443   */\n      add\n        /* \"#utility.yul\":6426:6444   */\n      mload\n        /* \"#utility.yul\":6422:6423   */\n      dup2\n        /* \"#utility.yul\":6417:6420   */\n      dup5\n        /* \"#utility.yul\":6413:6424   */\n      add\n        /* \"#utility.yul\":6406:6445   */\n      mstore\n        /* \"#utility.yul\":6378:6380   */\n      0x20\n        /* \"#utility.yul\":6375:6376   */\n      dup2\n        /* \"#utility.yul\":6371:6381   */\n      add\n        /* \"#utility.yul\":6366:6381   */\n      swap1\n      pop\n        /* \"#utility.yul\":6342:6455   */\n      jump(tag_116)\n    tag_118:\n        /* \"#utility.yul\":6473:6479   */\n      dup4\n        /* \"#utility.yul\":6470:6471   */\n      dup2\n        /* \"#utility.yul\":6467:6480   */\n      gt\n        /* \"#utility.yul\":6464:6565   */\n      iszero\n      tag_119\n      jumpi\n        /* \"#utility.yul\":6553:6554   */\n      0x00\n        /* \"#utility.yul\":6544:6550   */\n      dup5\n        /* \"#utility.yul\":6539:6542   */\n      dup5\n        /* \"#utility.yul\":6535:6551   */\n      add\n        /* \"#utility.yul\":6528:6555   */\n      mstore\n        /* \"#utility.yul\":6464:6565   */\n    tag_119:\n        /* \"#utility.yul\":6313:6571   */\n      pop\n        /* \"#utility.yul\":6264:6571   */\n      pop\n      pop\n      pop\n      jump\t// out\n        /* \"#utility.yul\":6577:6858   */\n    tag_103:\n        /* \"#utility.yul\":6660:6687   */\n      tag_121\n        /* \"#utility.yul\":6682:6686   */\n      dup3\n        /* \"#utility.yul\":6660:6687   */\n      tag_69\n      jump\t// in\n    tag_121:\n        /* \"#utility.yul\":6652:6658   */\n      dup2\n        /* \"#utility.yul\":6648:6688   */\n      add\n        /* \"#utility.yul\":6790:6796   */\n      dup2\n        /* \"#utility.yul\":6778:6788   */\n      dup2\n        /* \"#utility.yul\":6775:6797   */\n      lt\n        /* \"#utility.yul\":6754:6772   */\n      0xffffffffffffffff\n        /* \"#utility.yul\":6742:6752   */\n      dup3\n        /* \"#utility.yul\":6739:6773   */\n      gt\n        /* \"#utility.yul\":6736:6798   */\n      or\n        /* \"#utility.yul\":6733:6821   */\n      iszero\n      tag_122\n      jumpi\n        /* \"#utility.yul\":6801:6819   */\n      tag_123\n      tag_108\n      jump\t// in\n    tag_123:\n        /* \"#utility.yul\":6733:6821   */\n    tag_122:\n        /* \"#utility.yul\":6841:6851   */\n      dup1\n        /* \"#utility.yul\":6837:6839   */\n      0x40\n        /* \"#utility.yul\":6830:6852   */\n      mstore\n        /* \"#utility.yul\":6620:6858   */\n      pop\n        /* \"#utility.yul\":6577:6858   */\n      pop\n      pop\n      jump\t// out\n        /* \"#utility.yul\":6864:7044   */\n    tag_108:\n        /* \"#utility.yul\":6912:6989   */\n      0x4e487b7100000000000000000000000000000000000000000000000000000000\n        /* \"#utility.yul\":6909:6910   */\n      0x00\n        /* \"#utility.yul\":6902:6990   */\n      mstore\n        /* \"#utility.yul\":7009:7013   */\n      0x41\n        /* \"#utility.yul\":7006:7007   */\n      0x04\n        /* \"#utility.yul\":6999:7014   */\n      mstore\n        /* \"#utility.yul\":7033:7037   */\n      0x24\n        /* \"#utility.yul\":7030:7031   */\n      0x00\n        /* \"#utility.yul\":7023:7038   */\n      revert\n        /* \"#utility.yul\":7050:7167   */\n    tag_41:\n        /* \"#utility.yul\":7159:7160   */\n      0x00\n        /* \"#utility.yul\":7156:7157   */\n      dup1\n        /* \"#utility.yul\":7149:7161   */\n      revert\n        /* \"#utility.yul\":7173:7290   */\n    tag_34:\n        /* \"#utility.yul\":7282:7283   */\n      0x00\n        /* \"#utility.yul\":7279:7280   */\n      dup1\n        /* \"#utility.yul\":7272:7284   */\n      revert\n        /* \"#utility.yul\":7296:7413   */\n    tag_53:\n        /* \"#utility.yul\":7405:7406   */\n      0x00\n        /* \"#utility.yul\":7402:7403   */\n      dup1\n        /* \"#utility.yul\":7395:7407   */\n      revert\n        /* \"#utility.yul\":7419:7536   */\n    tag_50:\n        /* \"#utility.yul\":7528:7529   */\n      0x00\n        /* \"#utility.yul\":7525:7526   */\n      dup1\n        /* \"#utility.yul\":7518:7530   */\n      revert\n        /* \"#utility.yul\":7542:7644   */\n    tag_69:\n        /* \"#utility.yul\":7583:7589   */\n      0x00\n        /* \"#utility.yul\":7634:7636   */\n      0x1f\n        /* \"#utility.yul\":7630:7637   */\n      not\n        /* \"#utility.yul\":7625:7627   */\n      0x1f\n        /* \"#utility.yul\":7618:7623   */\n      dup4\n        /* \"#utility.yul\":7614:7628   */\n      add\n        /* \"#utility.yul\":7610:7638   */\n      and\n        /* \"#utility.yul\":7600:7638   */\n      swap1\n      pop\n        /* \"#utility.yul\":7542:7644   */\n      swap2\n      swap1\n      pop\n      jump\t// out\n        /* \"#utility.yul\":7650:7829   */\n    tag_74:\n        /* \"#utility.yul\":7790:7821   */\n      0x6572726f727320696e20746865207472792f636174636820626c6f636b000000\n        /* \"#utility.yul\":7786:7787   */\n      0x00\n        /* \"#utility.yul\":7778:7784   */\n      dup3\n        /* \"#utility.yul\":7774:7788   */\n      add\n        /* \"#utility.yul\":7767:7822   */\n      mstore\n        /* \"#utility.yul\":7650:7829   */\n      pop\n      jump\t// out\n        /* \"#utility.yul\":7835:7990   */\n    tag_79:\n        /* \"#utility.yul\":7975:7982   */\n      0x6361746368000000000000000000000000000000000000000000000000000000\n        /* \"#utility.yul\":7971:7972   */\n      0x00\n        /* \"#utility.yul\":7963:7969   */\n      dup3\n        /* \"#utility.yul\":7959:7973   */\n      add\n        /* \"#utility.yul\":7952:7983   */\n      mstore\n        /* \"#utility.yul\":7835:7990   */\n      pop\n      jump\t// out\n        /* \"#utility.yul\":7996:8154   */\n    tag_84:\n        /* \"#utility.yul\":8136:8146   */\n      0x4572726f72532121000000000000000000000000000000000000000000000000\n        /* \"#utility.yul\":8132:8133   */\n      0x00\n        /* \"#utility.yul\":8124:8130   */\n      dup3\n        /* \"#utility.yul\":8120:8134   */\n      add\n        /* \"#utility.yul\":8113:8147   */\n      mstore\n        /* \"#utility.yul\":7996:8154   */\n      pop\n      jump\t// out\n        /* \"#utility.yul\":8160:8282   */\n    tag_46:\n        /* \"#utility.yul\":8233:8257   */\n      tag_134\n        /* \"#utility.yul\":8251:8256   */\n      dup2\n        /* \"#utility.yul\":8233:8257   */\n      tag_88\n      jump\t// in\n    tag_134:\n        /* \"#utility.yul\":8226:8231   */\n      dup2\n        /* \"#utility.yul\":8223:8258   */\n      eq\n        /* \"#utility.yul\":8213:8276   */\n      tag_135\n      jumpi\n        /* \"#utility.yul\":8272:8273   */\n      0x00\n        /* \"#utility.yul\":8269:8270   */\n      dup1\n        /* \"#utility.yul\":8262:8274   */\n      revert\n        /* \"#utility.yul\":8213:8276   */\n    tag_135:\n        /* \"#utility.yul\":8160:8282   */\n      pop\n      jump\t// out\n    stop\n\n    sub_0: assembly {\n            /* \"lecture/lec28.sol\":530:714  contract character{... */\n          mstore(0x40, 0x80)\n            /* \"lecture/lec28.sol\":611:712  constructor(string memory _name, uint256 _power){... */\n          callvalue\n          dup1\n          iszero\n          tag_1\n          jumpi\n          0x00\n          dup1\n          revert\n        tag_1:\n          pop\n          mload(0x40)\n          sub(codesize, bytecodeSize)\n          dup1\n          bytecodeSize\n          dup4\n          codecopy\n          dup2\n          dup2\n          add\n          0x40\n          mstore\n          dup2\n          add\n          swap1\n          tag_2\n          swap2\n          swap1\n          tag_3\n          jump\t// in\n        tag_2:\n            /* \"lecture/lec28.sol\":676:681  _name */\n          dup2\n            /* \"lecture/lec28.sol\":669:673  name */\n          0x00\n            /* \"lecture/lec28.sol\":669:681  name = _name */\n          swap1\n          dup1\n          mload\n          swap1\n          0x20\n          add\n          swap1\n          tag_6\n          swap3\n          swap2\n          swap1\n          tag_7\n          jump\t// in\n        tag_6:\n          pop\n            /* \"lecture/lec28.sol\":699:705  _power */\n          dup1\n            /* \"lecture/lec28.sol\":691:696  power */\n          0x01\n            /* \"lecture/lec28.sol\":691:705  power = _power */\n          dup2\n          swap1\n          sstore\n          pop\n            /* \"lecture/lec28.sol\":611:712  constructor(string memory _name, uint256 _power){... */\n          pop\n          pop\n            /* \"lecture/lec28.sol\":530:714  contract character{... */\n          jump(tag_8)\n        tag_7:\n          dup3\n          dup1\n          sload\n          tag_9\n          swap1\n          tag_10\n          jump\t// in\n        tag_9:\n          swap1\n          0x00\n          mstore\n          keccak256(0x00, 0x20)\n          swap1\n          0x1f\n          add\n          0x20\n          swap1\n          div\n          dup2\n          add\n          swap3\n          dup3\n          tag_12\n          jumpi\n          0x00\n          dup6\n          sstore\n          jump(tag_11)\n        tag_12:\n          dup3\n          0x1f\n          lt\n          tag_13\n          jumpi\n          dup1\n          mload\n          not(0xff)\n          and\n          dup4\n          dup1\n          add\n          or\n          dup6\n          sstore\n          jump(tag_11)\n        tag_13:\n          dup3\n          dup1\n          add\n          0x01\n          add\n          dup6\n          sstore\n          dup3\n          iszero\n          tag_11\n          jumpi\n          swap2\n          dup3\n          add\n        tag_14:\n          dup3\n          dup2\n          gt\n          iszero\n          tag_15\n          jumpi\n          dup3\n          mload\n          dup3\n          sstore\n          swap2\n          0x20\n          add\n          swap2\n          swap1\n          0x01\n          add\n          swap1\n          jump(tag_14)\n        tag_15:\n        tag_11:\n          pop\n          swap1\n          pop\n          tag_16\n          swap2\n          swap1\n          tag_17\n          jump\t// in\n        tag_16:\n          pop\n          swap1\n          jump\t// out\n        tag_17:\n        tag_18:\n          dup1\n          dup3\n          gt\n          iszero\n          tag_19\n          jumpi\n          0x00\n          dup2\n          0x00\n          swap1\n          sstore\n          pop\n          0x01\n          add\n          jump(tag_18)\n        tag_19:\n          pop\n          swap1\n          jump\t// out\n            /* \"#utility.yul\":7:428   */\n        tag_21:\n            /* \"#utility.yul\":96:101   */\n          0x00\n            /* \"#utility.yul\":121:187   */\n          tag_23\n            /* \"#utility.yul\":137:186   */\n          tag_24\n            /* \"#utility.yul\":179:185   */\n          dup5\n            /* \"#utility.yul\":137:186   */\n          tag_25\n          jump\t// in\n        tag_24:\n            /* \"#utility.yul\":121:187   */\n          tag_26\n          jump\t// in\n        tag_23:\n            /* \"#utility.yul\":112:187   */\n          swap1\n          pop\n            /* \"#utility.yul\":210:216   */\n          dup3\n            /* \"#utility.yul\":203:208   */\n          dup2\n            /* \"#utility.yul\":196:217   */\n          mstore\n            /* \"#utility.yul\":248:252   */\n          0x20\n            /* \"#utility.yul\":241:246   */\n          dup2\n            /* \"#utility.yul\":237:253   */\n          add\n            /* \"#utility.yul\":286:289   */\n          dup5\n            /* \"#utility.yul\":277:283   */\n          dup5\n            /* \"#utility.yul\":272:275   */\n          dup5\n            /* \"#utility.yul\":268:284   */\n          add\n            /* \"#utility.yul\":265:290   */\n          gt\n            /* \"#utility.yul\":262:374   */\n          iszero\n          tag_27\n          jumpi\n            /* \"#utility.yul\":293:372   */\n          tag_28\n          tag_29\n          jump\t// in\n        tag_28:\n            /* \"#utility.yul\":262:374   */\n        tag_27:\n            /* \"#utility.yul\":383:422   */\n          tag_30\n            /* \"#utility.yul\":415:421   */\n          dup5\n            /* \"#utility.yul\":410:413   */\n          dup3\n            /* \"#utility.yul\":405:408   */\n          dup6\n            /* \"#utility.yul\":383:422   */\n          tag_31\n          jump\t// in\n        tag_30:\n            /* \"#utility.yul\":102:428   */\n          pop\n            /* \"#utility.yul\":7:428   */\n          swap4\n          swap3\n          pop\n          pop\n          pop\n          jump\t// out\n            /* \"#utility.yul\":448:803   */\n        tag_32:\n            /* \"#utility.yul\":515:520   */\n          0x00\n            /* \"#utility.yul\":564:567   */\n          dup3\n            /* \"#utility.yul\":557:561   */\n          0x1f\n            /* \"#utility.yul\":549:555   */\n          dup4\n            /* \"#utility.yul\":545:562   */\n          add\n            /* \"#utility.yul\":541:568   */\n          slt\n            /* \"#utility.yul\":531:653   */\n          tag_34\n          jumpi\n            /* \"#utility.yul\":572:651   */\n          tag_35\n          tag_36\n          jump\t// in\n        tag_35:\n            /* \"#utility.yul\":531:653   */\n        tag_34:\n            /* \"#utility.yul\":682:688   */\n          dup2\n            /* \"#utility.yul\":676:689   */\n          mload\n            /* \"#utility.yul\":707:797   */\n          tag_37\n            /* \"#utility.yul\":793:796   */\n          dup5\n            /* \"#utility.yul\":785:791   */\n          dup3\n            /* \"#utility.yul\":778:782   */\n          0x20\n            /* \"#utility.yul\":770:776   */\n          dup7\n            /* \"#utility.yul\":766:783   */\n          add\n            /* \"#utility.yul\":707:797   */\n          tag_21\n          jump\t// in\n        tag_37:\n            /* \"#utility.yul\":698:797   */\n          swap2\n          pop\n            /* \"#utility.yul\":521:803   */\n          pop\n            /* \"#utility.yul\":448:803   */\n          swap3\n          swap2\n          pop\n          pop\n          jump\t// out\n            /* \"#utility.yul\":809:952   */\n        tag_38:\n            /* \"#utility.yul\":866:871   */\n          0x00\n            /* \"#utility.yul\":897:903   */\n          dup2\n            /* \"#utility.yul\":891:904   */\n          mload\n            /* \"#utility.yul\":882:904   */\n          swap1\n          pop\n            /* \"#utility.yul\":913:946   */\n          tag_40\n            /* \"#utility.yul\":940:945   */\n          dup2\n            /* \"#utility.yul\":913:946   */\n          tag_41\n          jump\t// in\n        tag_40:\n            /* \"#utility.yul\":809:952   */\n          swap3\n          swap2\n          pop\n          pop\n          jump\t// out\n            /* \"#utility.yul\":958:1638   */\n        tag_3:\n            /* \"#utility.yul\":1047:1053   */\n          0x00\n            /* \"#utility.yul\":1055:1061   */\n          dup1\n            /* \"#utility.yul\":1104:1106   */\n          0x40\n            /* \"#utility.yul\":1092:1101   */\n          dup4\n            /* \"#utility.yul\":1083:1090   */\n          dup6\n            /* \"#utility.yul\":1079:1102   */\n          sub\n            /* \"#utility.yul\":1075:1107   */\n          slt\n            /* \"#utility.yul\":1072:1191   */\n          iszero\n          tag_43\n          jumpi\n            /* \"#utility.yul\":1110:1189   */\n          tag_44\n          tag_45\n          jump\t// in\n        tag_44:\n            /* \"#utility.yul\":1072:1191   */\n        tag_43:\n            /* \"#utility.yul\":1251:1252   */\n          0x00\n            /* \"#utility.yul\":1240:1249   */\n          dup4\n            /* \"#utility.yul\":1236:1253   */\n          add\n            /* \"#utility.yul\":1230:1254   */\n          mload\n            /* \"#utility.yul\":1281:1299   */\n          0xffffffffffffffff\n            /* \"#utility.yul\":1273:1279   */\n          dup2\n            /* \"#utility.yul\":1270:1300   */\n          gt\n            /* \"#utility.yul\":1267:1384   */\n          iszero\n          tag_46\n          jumpi\n            /* \"#utility.yul\":1303:1382   */\n          tag_47\n          tag_48\n          jump\t// in\n        tag_47:\n            /* \"#utility.yul\":1267:1384   */\n        tag_46:\n            /* \"#utility.yul\":1408:1482   */\n          tag_49\n            /* \"#utility.yul\":1474:1481   */\n          dup6\n            /* \"#utility.yul\":1465:1471   */\n          dup3\n            /* \"#utility.yul\":1454:1463   */\n          dup7\n            /* \"#utility.yul\":1450:1472   */\n          add\n            /* \"#utility.yul\":1408:1482   */\n          tag_32\n          jump\t// in\n        tag_49:\n            /* \"#utility.yul\":1398:1482   */\n          swap3\n          pop\n            /* \"#utility.yul\":1201:1492   */\n          pop\n            /* \"#utility.yul\":1531:1533   */\n          0x20\n            /* \"#utility.yul\":1557:1621   */\n          tag_50\n            /* \"#utility.yul\":1613:1620   */\n          dup6\n            /* \"#utility.yul\":1604:1610   */\n          dup3\n            /* \"#utility.yul\":1593:1602   */\n          dup7\n            /* \"#utility.yul\":1589:1611   */\n          add\n            /* \"#utility.yul\":1557:1621   */\n          tag_38\n          jump\t// in\n        tag_50:\n            /* \"#utility.yul\":1547:1621   */\n          swap2\n          pop\n            /* \"#utility.yul\":1502:1631   */\n          pop\n            /* \"#utility.yul\":958:1638   */\n          swap3\n          pop\n          swap3\n          swap1\n          pop\n          jump\t// out\n            /* \"#utility.yul\":1644:1773   */\n        tag_26:\n            /* \"#utility.yul\":1678:1684   */\n          0x00\n            /* \"#utility.yul\":1705:1725   */\n          tag_52\n          tag_53\n          jump\t// in\n        tag_52:\n            /* \"#utility.yul\":1695:1725   */\n          swap1\n          pop\n            /* \"#utility.yul\":1734:1767   */\n          tag_54\n            /* \"#utility.yul\":1762:1766   */\n          dup3\n            /* \"#utility.yul\":1754:1760   */\n          dup3\n            /* \"#utility.yul\":1734:1767   */\n          tag_55\n          jump\t// in\n        tag_54:\n            /* \"#utility.yul\":1644:1773   */\n          swap2\n          swap1\n          pop\n          jump\t// out\n            /* \"#utility.yul\":1779:1854   */\n        tag_53:\n            /* \"#utility.yul\":1812:1818   */\n          0x00\n            /* \"#utility.yul\":1845:1847   */\n          0x40\n            /* \"#utility.yul\":1839:1848   */\n          mload\n            /* \"#utility.yul\":1829:1848   */\n          swap1\n          pop\n            /* \"#utility.yul\":1779:1854   */\n          swap1\n          jump\t// out\n            /* \"#utility.yul\":1860:2168   */\n        tag_25:\n            /* \"#utility.yul\":1922:1926   */\n          0x00\n            /* \"#utility.yul\":2012:2030   */\n          0xffffffffffffffff\n            /* \"#utility.yul\":2004:2010   */\n          dup3\n            /* \"#utility.yul\":2001:2031   */\n          gt\n            /* \"#utility.yul\":1998:2054   */\n          iszero\n          tag_58\n          jumpi\n            /* \"#utility.yul\":2034:2052   */\n          tag_59\n          tag_60\n          jump\t// in\n        tag_59:\n            /* \"#utility.yul\":1998:2054   */\n        tag_58:\n            /* \"#utility.yul\":2072:2101   */\n          tag_61\n            /* \"#utility.yul\":2094:2100   */\n          dup3\n            /* \"#utility.yul\":2072:2101   */\n          tag_62\n          jump\t// in\n        tag_61:\n            /* \"#utility.yul\":2064:2101   */\n          swap1\n          pop\n            /* \"#utility.yul\":2156:2160   */\n          0x20\n            /* \"#utility.yul\":2150:2154   */\n          dup2\n            /* \"#utility.yul\":2146:2161   */\n          add\n            /* \"#utility.yul\":2138:2161   */\n          swap1\n          pop\n            /* \"#utility.yul\":1860:2168   */\n          swap2\n          swap1\n          pop\n          jump\t// out\n            /* \"#utility.yul\":2174:2251   */\n        tag_63:\n            /* \"#utility.yul\":2211:2218   */\n          0x00\n            /* \"#utility.yul\":2240:2245   */\n          dup2\n            /* \"#utility.yul\":2229:2245   */\n          swap1\n          pop\n            /* \"#utility.yul\":2174:2251   */\n          swap2\n          swap1\n          pop\n          jump\t// out\n            /* \"#utility.yul\":2257:2564   */\n        tag_31:\n            /* \"#utility.yul\":2325:2326   */\n          0x00\n            /* \"#utility.yul\":2335:2448   */\n        tag_66:\n            /* \"#utility.yul\":2349:2355   */\n          dup4\n            /* \"#utility.yul\":2346:2347   */\n          dup2\n            /* \"#utility.yul\":2343:2356   */\n          lt\n            /* \"#utility.yul\":2335:2448   */\n          iszero\n          tag_68\n          jumpi\n            /* \"#utility.yul\":2434:2435   */\n          dup1\n            /* \"#utility.yul\":2429:2432   */\n          dup3\n            /* \"#utility.yul\":2425:2436   */\n          add\n            /* \"#utility.yul\":2419:2437   */\n          mload\n            /* \"#utility.yul\":2415:2416   */\n          dup2\n            /* \"#utility.yul\":2410:2413   */\n          dup5\n            /* \"#utility.yul\":2406:2417   */\n          add\n            /* \"#utility.yul\":2399:2438   */\n          mstore\n            /* \"#utility.yul\":2371:2373   */\n          0x20\n            /* \"#utility.yul\":2368:2369   */\n          dup2\n            /* \"#utility.yul\":2364:2374   */\n          add\n            /* \"#utility.yul\":2359:2374   */\n          swap1\n          pop\n            /* \"#utility.yul\":2335:2448   */\n          jump(tag_66)\n        tag_68:\n            /* \"#utility.yul\":2466:2472   */\n          dup4\n            /* \"#utility.yul\":2463:2464   */\n          dup2\n            /* \"#utility.yul\":2460:2473   */\n          gt\n            /* \"#utility.yul\":2457:2558   */\n          iszero\n          tag_69\n          jumpi\n            /* \"#utility.yul\":2546:2547   */\n          0x00\n            /* \"#utility.yul\":2537:2543   */\n          dup5\n            /* \"#utility.yul\":2532:2535   */\n          dup5\n            /* \"#utility.yul\":2528:2544   */\n          add\n            /* \"#utility.yul\":2521:2548   */\n          mstore\n            /* \"#utility.yul\":2457:2558   */\n        tag_69:\n            /* \"#utility.yul\":2306:2564   */\n          pop\n            /* \"#utility.yul\":2257:2564   */\n          pop\n          pop\n          pop\n          jump\t// out\n            /* \"#utility.yul\":2570:2890   */\n        tag_10:\n            /* \"#utility.yul\":2614:2620   */\n          0x00\n            /* \"#utility.yul\":2651:2652   */\n          0x02\n            /* \"#utility.yul\":2645:2649   */\n          dup3\n            /* \"#utility.yul\":2641:2653   */\n          div\n            /* \"#utility.yul\":2631:2653   */\n          swap1\n          pop\n            /* \"#utility.yul\":2698:2699   */\n          0x01\n            /* \"#utility.yul\":2692:2696   */\n          dup3\n            /* \"#utility.yul\":2688:2700   */\n          and\n            /* \"#utility.yul\":2719:2737   */\n          dup1\n            /* \"#utility.yul\":2709:2790   */\n          tag_71\n          jumpi\n            /* \"#utility.yul\":2775:2779   */\n          0x7f\n            /* \"#utility.yul\":2767:2773   */\n          dup3\n            /* \"#utility.yul\":2763:2780   */\n          and\n            /* \"#utility.yul\":2753:2780   */\n          swap2\n          pop\n            /* \"#utility.yul\":2709:2790   */\n        tag_71:\n            /* \"#utility.yul\":2837:2839   */\n          0x20\n            /* \"#utility.yul\":2829:2835   */\n          dup3\n            /* \"#utility.yul\":2826:2840   */\n          lt\n            /* \"#utility.yul\":2806:2824   */\n          dup2\n            /* \"#utility.yul\":2803:2841   */\n          eq\n            /* \"#utility.yul\":2800:2884   */\n          iszero\n          tag_72\n          jumpi\n            /* \"#utility.yul\":2856:2874   */\n          tag_73\n          tag_74\n          jump\t// in\n        tag_73:\n            /* \"#utility.yul\":2800:2884   */\n        tag_72:\n            /* \"#utility.yul\":2621:2890   */\n          pop\n            /* \"#utility.yul\":2570:2890   */\n          swap2\n          swap1\n          pop\n          jump\t// out\n            /* \"#utility.yul\":2896:3177   */\n        tag_55:\n            /* \"#utility.yul\":2979:3006   */\n          tag_76\n            /* \"#utility.yul\":3001:3005   */\n          dup3\n            /* \"#utility.yul\":2979:3006   */\n          tag_62\n          jump\t// in\n        tag_76:\n            /* \"#utility.yul\":2971:2977   */\n          dup2\n            /* \"#utility.yul\":2967:3007   */\n          add\n            /* \"#utility.yul\":3109:3115   */\n          dup2\n            /* \"#utility.yul\":3097:3107   */\n          dup2\n            /* \"#utility.yul\":3094:3116   */\n          lt\n            /* \"#utility.yul\":3073:3091   */\n          0xffffffffffffffff\n            /* \"#utility.yul\":3061:3071   */\n          dup3\n            /* \"#utility.yul\":3058:3092   */\n          gt\n            /* \"#utility.yul\":3055:3117   */\n          or\n            /* \"#utility.yul\":3052:3140   */\n          iszero\n          tag_77\n          jumpi\n            /* \"#utility.yul\":3120:3138   */\n          tag_78\n          tag_60\n          jump\t// in\n        tag_78:\n            /* \"#utility.yul\":3052:3140   */\n        tag_77:\n            /* \"#utility.yul\":3160:3170   */\n          dup1\n            /* \"#utility.yul\":3156:3158   */\n          0x40\n            /* \"#utility.yul\":3149:3171   */\n          mstore\n            /* \"#utility.yul\":2939:3177   */\n          pop\n            /* \"#utility.yul\":2896:3177   */\n          pop\n          pop\n          jump\t// out\n            /* \"#utility.yul\":3183:3363   */\n        tag_74:\n            /* \"#utility.yul\":3231:3308   */\n          0x4e487b7100000000000000000000000000000000000000000000000000000000\n            /* \"#utility.yul\":3228:3229   */\n          0x00\n            /* \"#utility.yul\":3221:3309   */\n          mstore\n            /* \"#utility.yul\":3328:3332   */\n          0x22\n            /* \"#utility.yul\":3325:3326   */\n          0x04\n            /* \"#utility.yul\":3318:3333   */\n          mstore\n            /* \"#utility.yul\":3352:3356   */\n          0x24\n            /* \"#utility.yul\":3349:3350   */\n          0x00\n            /* \"#utility.yul\":3342:3357   */\n          revert\n            /* \"#utility.yul\":3369:3549   */\n        tag_60:\n            /* \"#utility.yul\":3417:3494   */\n          0x4e487b7100000000000000000000000000000000000000000000000000000000\n            /* \"#utility.yul\":3414:3415   */\n          0x00\n            /* \"#utility.yul\":3407:3495   */\n          mstore\n            /* \"#utility.yul\":3514:3518   */\n          0x41\n            /* \"#utility.yul\":3511:3512   */\n          0x04\n            /* \"#utility.yul\":3504:3519   */\n          mstore\n            /* \"#utility.yul\":3538:3542   */\n          0x24\n            /* \"#utility.yul\":3535:3536   */\n          0x00\n            /* \"#utility.yul\":3528:3543   */\n          revert\n            /* \"#utility.yul\":3555:3672   */\n        tag_36:\n            /* \"#utility.yul\":3664:3665   */\n          0x00\n            /* \"#utility.yul\":3661:3662   */\n          dup1\n            /* \"#utility.yul\":3654:3666   */\n          revert\n            /* \"#utility.yul\":3678:3795   */\n        tag_29:\n            /* \"#utility.yul\":3787:3788   */\n          0x00\n            /* \"#utility.yul\":3784:3785   */\n          dup1\n            /* \"#utility.yul\":3777:3789   */\n          revert\n            /* \"#utility.yul\":3801:3918   */\n        tag_48:\n            /* \"#utility.yul\":3910:3911   */\n          0x00\n            /* \"#utility.yul\":3907:3908   */\n          dup1\n            /* \"#utility.yul\":3900:3912   */\n          revert\n            /* \"#utility.yul\":3924:4041   */\n        tag_45:\n            /* \"#utility.yul\":4033:4034   */\n          0x00\n            /* \"#utility.yul\":4030:4031   */\n          dup1\n            /* \"#utility.yul\":4023:4035   */\n          revert\n            /* \"#utility.yul\":4047:4149   */\n        tag_62:\n            /* \"#utility.yul\":4088:4094   */\n          0x00\n            /* \"#utility.yul\":4139:4141   */\n          0x1f\n            /* \"#utility.yul\":4135:4142   */\n          not\n            /* \"#utility.yul\":4130:4132   */\n          0x1f\n            /* \"#utility.yul\":4123:4128   */\n          dup4\n            /* \"#utility.yul\":4119:4133   */\n          add\n            /* \"#utility.yul\":4115:4143   */\n          and\n            /* \"#utility.yul\":4105:4143   */\n          swap1\n          pop\n            /* \"#utility.yul\":4047:4149   */\n          swap2\n          swap1\n          pop\n          jump\t// out\n            /* \"#utility.yul\":4155:4277   */\n        tag_41:\n            /* \"#utility.yul\":4228:4252   */\n          tag_87\n            /* \"#utility.yul\":4246:4251   */\n          dup2\n            /* \"#utility.yul\":4228:4252   */\n          tag_63\n          jump\t// in\n        tag_87:\n            /* \"#utility.yul\":4221:4226   */\n          dup2\n            /* \"#utility.yul\":4218:4253   */\n          eq\n            /* \"#utility.yul\":4208:4271   */\n          tag_88\n          jumpi\n            /* \"#utility.yul\":4267:4268   */\n          0x00\n            /* \"#utility.yul\":4264:4265   */\n          dup1\n            /* \"#utility.yul\":4257:4269   */\n          revert\n            /* \"#utility.yul\":4208:4271   */\n        tag_88:\n            /* \"#utility.yul\":4155:4277   */\n          pop\n          jump\t// out\n            /* \"lecture/lec28.sol\":530:714  contract character{... */\n        tag_8:\n          dataSize(sub_0)\n          dup1\n          dataOffset(sub_0)\n          0x00\n          codecopy\n          0x00\n          return\n        stop\n\n        sub_0: assembly {\n                /* \"lecture/lec28.sol\":530:714  contract character{... */\n              mstore(0x40, 0x80)\n              0x00\n              dup1\n              revert\n\n            auxdata: 0xa264697066735822122003cec83a2e8fbab5393f5051f83fbaa8532ad664ab5e74ab359a22af828c7aa664736f6c63430008070033\n        }\n    }\n\n    auxdata: 0xa26469706673582212208d82d3e08b35d8beef814189688ccbd693cecc31cfae7db609e6668f1923fcdd64736f6c63430008070033\n}\n",
				"bytecode": {
					"linkReferences": {},
					"object": "608060405234801561001057600080fd5b50610994806100206000396000f3fe60806040523480156200001157600080fd5b50600436106200002e5760003560e01c8063447bce4a1462000033575b600080fd5b6200005160048036038101906200004b9190620001c9565b62000069565b60405162000060919062000307565b60405180910390f35b600082826040516200007b9062000126565b6200008892919062000324565b604051809103906000f080156200009c5760015b620000e2577fed1339d3b97aca38a4bc95190b93af9130be96b54e1bc34caa04b59819decfa0604051620000d0906200037a565b60405180910390a16000905062000120565b506040517f08c379a0000000000000000000000000000000000000000000000000000000008152600401620001179062000358565b60405180910390fd5b92915050565b6103b880620005a783390190565b60006200014b6200014584620003da565b620003b1565b9050828152602081018484840111156200016a5762000169620004f1565b5b6200017784828562000442565b509392505050565b600082601f830112620001975762000196620004ec565b5b8135620001a984826020860162000134565b91505092915050565b600081359050620001c3816200058c565b92915050565b60008060408385031215620001e357620001e2620004fb565b5b600083013567ffffffffffffffff811115620002045762000203620004f6565b5b62000212858286016200017f565b92505060206200022585828601620001b2565b9150509250929050565b6200023a816200042c565b82525050565b60006200024d8262000410565b6200025981856200041b565b93506200026b81856020860162000451565b620002768162000500565b840191505092915050565b600062000290601d836200041b565b91506200029d8262000511565b602082019050919050565b6000620002b76005836200041b565b9150620002c4826200053a565b602082019050919050565b6000620002de6008836200041b565b9150620002eb8262000563565b602082019050919050565b620003018162000438565b82525050565b60006020820190506200031e60008301846200022f565b92915050565b6000604082019050818103600083015262000340818562000240565b9050620003516020830184620002f6565b9392505050565b60006020820190508181036000830152620003738162000281565b9050919050565b600060408201905081810360008301526200039581620002a8565b90508181036020830152620003aa81620002cf565b9050919050565b6000620003bd620003d0565b9050620003cb828262000487565b919050565b6000604051905090565b600067ffffffffffffffff821115620003f857620003f7620004bd565b5b620004038262000500565b9050602081019050919050565b600081519050919050565b600082825260208201905092915050565b60008115159050919050565b6000819050919050565b82818337600083830152505050565b60005b838110156200047157808201518184015260208101905062000454565b8381111562000481576000848401525b50505050565b620004928262000500565b810181811067ffffffffffffffff82111715620004b457620004b3620004bd565b5b80604052505050565b7f4e487b7100000000000000000000000000000000000000000000000000000000600052604160045260246000fd5b600080fd5b600080fd5b600080fd5b600080fd5b6000601f19601f8301169050919050565b7f6572726f727320696e20746865207472792f636174636820626c6f636b000000600082015250565b7f6361746368000000000000000000000000000000000000000000000000000000600082015250565b7f4572726f72532121000000000000000000000000000000000000000000000000600082015250565b620005978162000438565b8114620005a357600080fd5b5056fe608060405234801561001057600080fd5b506040516103b83803806103b88339818101604052810190610032919061017f565b8160009080519060200190610048929190610057565b5080600181905550505061036b565b8280546100639061026e565b90600052602060002090601f01602090048101928261008557600085556100cc565b82601f1061009e57805160ff19168380011785556100cc565b828001600101855582156100cc579182015b828111156100cb5782518255916020019190600101906100b0565b5b5090506100d991906100dd565b5090565b5b808211156100f65760008160009055506001016100de565b5090565b600061010d61010884610200565b6101db565b90508281526020810184848401111561012957610128610334565b5b61013484828561023b565b509392505050565b600082601f8301126101515761015061032f565b5b81516101618482602086016100fa565b91505092915050565b60008151905061017981610354565b92915050565b600080604083850312156101965761019561033e565b5b600083015167ffffffffffffffff8111156101b4576101b3610339565b5b6101c08582860161013c565b92505060206101d18582860161016a565b9150509250929050565b60006101e56101f6565b90506101f182826102a0565b919050565b6000604051905090565b600067ffffffffffffffff82111561021b5761021a610300565b5b61022482610343565b9050602081019050919050565b6000819050919050565b60005b8381101561025957808201518184015260208101905061023e565b83811115610268576000848401525b50505050565b6000600282049050600182168061028657607f821691505b6020821081141561029a576102996102d1565b5b50919050565b6102a982610343565b810181811067ffffffffffffffff821117156102c8576102c7610300565b5b80604052505050565b7f4e487b7100000000000000000000000000000000000000000000000000000000600052602260045260246000fd5b7f4e487b7100000000000000000000000000000000000000000000000000000000600052604160045260246000fd5b600080fd5b600080fd5b600080fd5b600080fd5b6000601f19601f8301169050919050565b61035d81610231565b811461036857600080fd5b50565b603f806103796000396000f3fe6080604052600080fdfea264697066735822122003cec83a2e8fbab5393f5051f83fbaa8532ad664ab5e74ab359a22af828c7aa664736f6c63430008070033a26469706673582212208d82d3e08b35d8beef814189688ccbd693cecc31cfae7db609e6668f1923fcdd64736f6c63430008070033",
					"opcodes": "PUSH1 0x80 PUSH1 0x40 MSTORE CALLVALUE DUP1 ISZERO PUSH2 0x10 JUMPI PUSH1 0x0 DUP1 REVERT JUMPDEST POP PUSH2 0x994 DUP1 PUSH2 0x20 PUSH1 0x0 CODECOPY PUSH1 0x0 RETURN INVALID PUSH1 0x80 PUSH1 0x40 MSTORE CALLVALUE DUP1 ISZERO PUSH3 0x11 JUMPI PUSH1 0x0 DUP1 REVERT JUMPDEST POP PUSH1 0x4 CALLDATASIZE LT PUSH3 0x2E JUMPI PUSH1 0x0 CALLDATALOAD PUSH1 0xE0 SHR DUP1 PUSH4 0x447BCE4A EQ PUSH3 0x33 JUMPI JUMPDEST PUSH1 0x0 DUP1 REVERT JUMPDEST PUSH3 0x51 PUSH1 0x4 DUP1 CALLDATASIZE SUB DUP2 ADD SWAP1 PUSH3 0x4B SWAP2 SWAP1 PUSH3 0x1C9 JUMP JUMPDEST PUSH3 0x69 JUMP JUMPDEST PUSH1 0x40 MLOAD PUSH3 0x60 SWAP2 SWAP1 PUSH3 0x307 JUMP JUMPDEST PUSH1 0x40 MLOAD DUP1 SWAP2 SUB SWAP1 RETURN JUMPDEST PUSH1 0x0 DUP3 DUP3 PUSH1 0x40 MLOAD PUSH3 0x7B SWAP1 PUSH3 0x126 JUMP JUMPDEST PUSH3 0x88 SWAP3 SWAP2 SWAP1 PUSH3 0x324 JUMP JUMPDEST PUSH1 0x40 MLOAD DUP1 SWAP2 SUB SWAP1 PUSH1 0x0 CREATE DUP1 ISZERO PUSH3 0x9C JUMPI PUSH1 0x1 JUMPDEST PUSH3 0xE2 JUMPI PUSH32 0xED1339D3B97ACA38A4BC95190B93AF9130BE96B54E1BC34CAA04B59819DECFA0 PUSH1 0x40 MLOAD PUSH3 0xD0 SWAP1 PUSH3 0x37A JUMP JUMPDEST PUSH1 0x40 MLOAD DUP1 SWAP2 SUB SWAP1 LOG1 PUSH1 0x0 SWAP1 POP PUSH3 0x120 JUMP JUMPDEST POP PUSH1 0x40 MLOAD PUSH32 0x8C379A000000000000000000000000000000000000000000000000000000000 DUP2 MSTORE PUSH1 0x4 ADD PUSH3 0x117 SWAP1 PUSH3 0x358 JUMP JUMPDEST PUSH1 0x40 MLOAD DUP1 SWAP2 SUB SWAP1 REVERT JUMPDEST SWAP3 SWAP2 POP POP JUMP JUMPDEST PUSH2 0x3B8 DUP1 PUSH3 0x5A7 DUP4 CODECOPY ADD SWAP1 JUMP JUMPDEST PUSH1 0x0 PUSH3 0x14B PUSH3 0x145 DUP5 PUSH3 0x3DA JUMP JUMPDEST PUSH3 0x3B1 JUMP JUMPDEST SWAP1 POP DUP3 DUP2 MSTORE PUSH1 0x20 DUP2 ADD DUP5 DUP5 DUP5 ADD GT ISZERO PUSH3 0x16A JUMPI PUSH3 0x169 PUSH3 0x4F1 JUMP JUMPDEST JUMPDEST PUSH3 0x177 DUP5 DUP3 DUP6 PUSH3 0x442 JUMP JUMPDEST POP SWAP4 SWAP3 POP POP POP JUMP JUMPDEST PUSH1 0x0 DUP3 PUSH1 0x1F DUP4 ADD SLT PUSH3 0x197 JUMPI PUSH3 0x196 PUSH3 0x4EC JUMP JUMPDEST JUMPDEST DUP2 CALLDATALOAD PUSH3 0x1A9 DUP5 DUP3 PUSH1 0x20 DUP7 ADD PUSH3 0x134 JUMP JUMPDEST SWAP2 POP POP SWAP3 SWAP2 POP POP JUMP JUMPDEST PUSH1 0x0 DUP2 CALLDATALOAD SWAP1 POP PUSH3 0x1C3 DUP2 PUSH3 0x58C JUMP JUMPDEST SWAP3 SWAP2 POP POP JUMP JUMPDEST PUSH1 0x0 DUP1 PUSH1 0x40 DUP4 DUP6 SUB SLT ISZERO PUSH3 0x1E3 JUMPI PUSH3 0x1E2 PUSH3 0x4FB JUMP JUMPDEST JUMPDEST PUSH1 0x0 DUP4 ADD CALLDATALOAD PUSH8 0xFFFFFFFFFFFFFFFF DUP2 GT ISZERO PUSH3 0x204 JUMPI PUSH3 0x203 PUSH3 0x4F6 JUMP JUMPDEST JUMPDEST PUSH3 0x212 DUP6 DUP3 DUP7 ADD PUSH3 0x17F JUMP JUMPDEST SWAP3 POP POP PUSH1 0x20 PUSH3 0x225 DUP6 DUP3 DUP7 ADD PUSH3 0x1B2 JUMP JUMPDEST SWAP2 POP POP SWAP3 POP SWAP3 SWAP1 POP JUMP JUMPDEST PUSH3 0x23A DUP2 PUSH3 0x42C JUMP JUMPDEST DUP3 MSTORE POP POP JUMP JUMPDEST PUSH1 0x0 PUSH3 0x24D DUP3 PUSH3 0x410 JUMP JUMPDEST PUSH3 0x259 DUP2 DUP6 PUSH3 0x41B JUMP JUMPDEST SWAP4 POP PUSH3 0x26B DUP2 DUP6 PUSH1 0x20 DUP7 ADD PUSH3 0x451 JUMP JUMPDEST PUSH3 0x276 DUP2 PUSH3 0x500 JUMP JUMPDEST DUP5 ADD SWAP2 POP POP SWAP3 SWAP2 POP POP JUMP JUMPDEST PUSH1 0x0 PUSH3 0x290 PUSH1 0x1D DUP4 PUSH3 0x41B JUMP JUMPDEST SWAP2 POP PUSH3 0x29D DUP3 PUSH3 0x511 JUMP JUMPDEST PUSH1 0x20 DUP3 ADD SWAP1 POP SWAP2 SWAP1 POP JUMP JUMPDEST PUSH1 0x0 PUSH3 0x2B7 PUSH1 0x5 DUP4 PUSH3 0x41B JUMP JUMPDEST SWAP2 POP PUSH3 0x2C4 DUP3 PUSH3 0x53A JUMP JUMPDEST PUSH1 0x20 DUP3 ADD SWAP1 POP SWAP2 SWAP1 POP JUMP JUMPDEST PUSH1 0x0 PUSH3 0x2DE PUSH1 0x8 DUP4 PUSH3 0x41B JUMP JUMPDEST SWAP2 POP PUSH3 0x2EB DUP3 PUSH3 0x563 JUMP JUMPDEST PUSH1 0x20 DUP3 ADD SWAP1 POP SWAP2 SWAP1 POP JUMP JUMPDEST PUSH3 0x301 DUP2 PUSH3 0x438 JUMP JUMPDEST DUP3 MSTORE POP POP JUMP JUMPDEST PUSH1 0x0 PUSH1 0x20 DUP3 ADD SWAP1 POP PUSH3 0x31E PUSH1 0x0 DUP4 ADD DUP5 PUSH3 0x22F JUMP JUMPDEST SWAP3 SWAP2 POP POP JUMP JUMPDEST PUSH1 0x0 PUSH1 0x40 DUP3 ADD SWAP1 POP DUP2 DUP2 SUB PUSH1 0x0 DUP4 ADD MSTORE PUSH3 0x340 DUP2 DUP6 PUSH3 0x240 JUMP JUMPDEST SWAP1 POP PUSH3 0x351 PUSH1 0x20 DUP4 ADD DUP5 PUSH3 0x2F6 JUMP JUMPDEST SWAP4 SWAP3 POP POP POP JUMP JUMPDEST PUSH1 0x0 PUSH1 0x20 DUP3 ADD SWAP1 POP DUP2 DUP2 SUB PUSH1 0x0 DUP4 ADD MSTORE PUSH3 0x373 DUP2 PUSH3 0x281 JUMP JUMPDEST SWAP1 POP SWAP2 SWAP1 POP JUMP JUMPDEST PUSH1 0x0 PUSH1 0x40 DUP3 ADD SWAP1 POP DUP2 DUP2 SUB PUSH1 0x0 DUP4 ADD MSTORE PUSH3 0x395 DUP2 PUSH3 0x2A8 JUMP JUMPDEST SWAP1 POP DUP2 DUP2 SUB PUSH1 0x20 DUP4 ADD MSTORE PUSH3 0x3AA DUP2 PUSH3 0x2CF JUMP JUMPDEST SWAP1 POP SWAP2 SWAP1 POP JUMP JUMPDEST PUSH1 0x0 PUSH3 0x3BD PUSH3 0x3D0 JUMP JUMPDEST SWAP1 POP PUSH3 0x3CB DUP3 DUP3 PUSH3 0x487 JUMP JUMPDEST SWAP2 SWAP1 POP JUMP JUMPDEST PUSH1 0x0 PUSH1 0x40 MLOAD SWAP1 POP SWAP1 JUMP JUMPDEST PUSH1 0x0 PUSH8 0xFFFFFFFFFFFFFFFF DUP3 GT ISZERO PUSH3 0x3F8 JUMPI PUSH3 0x3F7 PUSH3 0x4BD JUMP JUMPDEST JUMPDEST PUSH3 0x403 DUP3 PUSH3 0x500 JUMP JUMPDEST SWAP1 POP PUSH1 0x20 DUP2 ADD SWAP1 POP SWAP2 SWAP1 POP JUMP JUMPDEST PUSH1 0x0 DUP2 MLOAD SWAP1 POP SWAP2 SWAP1 POP JUMP JUMPDEST PUSH1 0x0 DUP3 DUP3 MSTORE PUSH1 0x20 DUP3 ADD SWAP1 POP SWAP3 SWAP2 POP POP JUMP JUMPDEST PUSH1 0x0 DUP2 ISZERO ISZERO SWAP1 POP SWAP2 SWAP1 POP JUMP JUMPDEST PUSH1 0x0 DUP2 SWAP1 POP SWAP2 SWAP1 POP JUMP JUMPDEST DUP3 DUP2 DUP4 CALLDATACOPY PUSH1 0x0 DUP4 DUP4 ADD MSTORE POP POP POP JUMP JUMPDEST PUSH1 0x0 JUMPDEST DUP4 DUP2 LT ISZERO PUSH3 0x471 JUMPI DUP1 DUP3 ADD MLOAD DUP2 DUP5 ADD MSTORE PUSH1 0x20 DUP2 ADD SWAP1 POP PUSH3 0x454 JUMP JUMPDEST DUP4 DUP2 GT ISZERO PUSH3 0x481 JUMPI PUSH1 0x0 DUP5 DUP5 ADD MSTORE JUMPDEST POP POP POP POP JUMP JUMPDEST PUSH3 0x492 DUP3 PUSH3 0x500 JUMP JUMPDEST DUP2 ADD DUP2 DUP2 LT PUSH8 0xFFFFFFFFFFFFFFFF DUP3 GT OR ISZERO PUSH3 0x4B4 JUMPI PUSH3 0x4B3 PUSH3 0x4BD JUMP JUMPDEST JUMPDEST DUP1 PUSH1 0x40 MSTORE POP POP POP JUMP JUMPDEST PUSH32 0x4E487B7100000000000000000000000000000000000000000000000000000000 PUSH1 0x0 MSTORE PUSH1 0x41 PUSH1 0x4 MSTORE PUSH1 0x24 PUSH1 0x0 REVERT JUMPDEST PUSH1 0x0 DUP1 REVERT JUMPDEST PUSH1 0x0 DUP1 REVERT JUMPDEST PUSH1 0x0 DUP1 REVERT JUMPDEST PUSH1 0x0 DUP1 REVERT JUMPDEST PUSH1 0x0 PUSH1 0x1F NOT PUSH1 0x1F DUP4 ADD AND SWAP1 POP SWAP2 SWAP1 POP JUMP JUMPDEST PUSH32 0x6572726F727320696E20746865207472792F636174636820626C6F636B000000 PUSH1 0x0 DUP3 ADD MSTORE POP JUMP JUMPDEST PUSH32 0x6361746368000000000000000000000000000000000000000000000000000000 PUSH1 0x0 DUP3 ADD MSTORE POP JUMP JUMPDEST PUSH32 0x4572726F72532121000000000000000000000000000000000000000000000000 PUSH1 0x0 DUP3 ADD MSTORE POP JUMP JUMPDEST PUSH3 0x597 DUP2 PUSH3 0x438 JUMP JUMPDEST DUP2 EQ PUSH3 0x5A3 JUMPI PUSH1 0x0 DUP1 REVERT JUMPDEST POP JUMP INVALID PUSH1 0x80 PUSH1 0x40 MSTORE CALLVALUE DUP1 ISZERO PUSH2 0x10 JUMPI PUSH1 0x0 DUP1 REVERT JUMPDEST POP PUSH1 0x40 MLOAD PUSH2 0x3B8 CODESIZE SUB DUP1 PUSH2 0x3B8 DUP4 CODECOPY DUP2 DUP2 ADD PUSH1 0x40 MSTORE DUP2 ADD SWAP1 PUSH2 0x32 SWAP2 SWAP1 PUSH2 0x17F JUMP JUMPDEST DUP2 PUSH1 0x0 SWAP1 DUP1 MLOAD SWAP1 PUSH1 0x20 ADD SWAP1 PUSH2 0x48 SWAP3 SWAP2 SWAP1 PUSH2 0x57 JUMP JUMPDEST POP DUP1 PUSH1 0x1 DUP2 SWAP1 SSTORE POP POP POP PUSH2 0x36B JUMP JUMPDEST DUP3 DUP1 SLOAD PUSH2 0x63 SWAP1 PUSH2 0x26E JUMP JUMPDEST SWAP1 PUSH1 0x0 MSTORE PUSH1 0x20 PUSH1 0x0 KECCAK256 SWAP1 PUSH1 0x1F ADD PUSH1 0x20 SWAP1 DIV DUP2 ADD SWAP3 DUP3 PUSH2 0x85 JUMPI PUSH1 0x0 DUP6 SSTORE PUSH2 0xCC JUMP JUMPDEST DUP3 PUSH1 0x1F LT PUSH2 0x9E JUMPI DUP1 MLOAD PUSH1 0xFF NOT AND DUP4 DUP1 ADD OR DUP6 SSTORE PUSH2 0xCC JUMP JUMPDEST DUP3 DUP1 ADD PUSH1 0x1 ADD DUP6 SSTORE DUP3 ISZERO PUSH2 0xCC JUMPI SWAP2 DUP3 ADD JUMPDEST DUP3 DUP2 GT ISZERO PUSH2 0xCB JUMPI DUP3 MLOAD DUP3 SSTORE SWAP2 PUSH1 0x20 ADD SWAP2 SWAP1 PUSH1 0x1 ADD SWAP1 PUSH2 0xB0 JUMP JUMPDEST JUMPDEST POP SWAP1 POP PUSH2 0xD9 SWAP2 SWAP1 PUSH2 0xDD JUMP JUMPDEST POP SWAP1 JUMP JUMPDEST JUMPDEST DUP1 DUP3 GT ISZERO PUSH2 0xF6 JUMPI PUSH1 0x0 DUP2 PUSH1 0x0 SWAP1 SSTORE POP PUSH1 0x1 ADD PUSH2 0xDE JUMP JUMPDEST POP SWAP1 JUMP JUMPDEST PUSH1 0x0 PUSH2 0x10D PUSH2 0x108 DUP5 PUSH2 0x200 JUMP JUMPDEST PUSH2 0x1DB JUMP JUMPDEST SWAP1 POP DUP3 DUP2 MSTORE PUSH1 0x20 DUP2 ADD DUP5 DUP5 DUP5 ADD GT ISZERO PUSH2 0x129 JUMPI PUSH2 0x128 PUSH2 0x334 JUMP JUMPDEST JUMPDEST PUSH2 0x134 DUP5 DUP3 DUP6 PUSH2 0x23B JUMP JUMPDEST POP SWAP4 SWAP3 POP POP POP JUMP JUMPDEST PUSH1 0x0 DUP3 PUSH1 0x1F DUP4 ADD SLT PUSH2 0x151 JUMPI PUSH2 0x150 PUSH2 0x32F JUMP JUMPDEST JUMPDEST DUP2 MLOAD PUSH2 0x161 DUP5 DUP3 PUSH1 0x20 DUP7 ADD PUSH2 0xFA JUMP JUMPDEST SWAP2 POP POP SWAP3 SWAP2 POP POP JUMP JUMPDEST PUSH1 0x0 DUP2 MLOAD SWAP1 POP PUSH2 0x179 DUP2 PUSH2 0x354 JUMP JUMPDEST SWAP3 SWAP2 POP POP JUMP JUMPDEST PUSH1 0x0 DUP1 PUSH1 0x40 DUP4 DUP6 SUB SLT ISZERO PUSH2 0x196 JUMPI PUSH2 0x195 PUSH2 0x33E JUMP JUMPDEST JUMPDEST PUSH1 0x0 DUP4 ADD MLOAD PUSH8 0xFFFFFFFFFFFFFFFF DUP2 GT ISZERO PUSH2 0x1B4 JUMPI PUSH2 0x1B3 PUSH2 0x339 JUMP JUMPDEST JUMPDEST PUSH2 0x1C0 DUP6 DUP3 DUP7 ADD PUSH2 0x13C JUMP JUMPDEST SWAP3 POP POP PUSH1 0x20 PUSH2 0x1D1 DUP6 DUP3 DUP7 ADD PUSH2 0x16A JUMP JUMPDEST SWAP2 POP POP SWAP3 POP SWAP3 SWAP1 POP JUMP JUMPDEST PUSH1 0x0 PUSH2 0x1E5 PUSH2 0x1F6 JUMP JUMPDEST SWAP1 POP PUSH2 0x1F1 DUP3 DUP3 PUSH2 0x2A0 JUMP JUMPDEST SWAP2 SWAP1 POP JUMP JUMPDEST PUSH1 0x0 PUSH1 0x40 MLOAD SWAP1 POP SWAP1 JUMP JUMPDEST PUSH1 0x0 PUSH8 0xFFFFFFFFFFFFFFFF DUP3 GT ISZERO PUSH2 0x21B JUMPI PUSH2 0x21A PUSH2 0x300 JUMP JUMPDEST JUMPDEST PUSH2 0x224 DUP3 PUSH2 0x343 JUMP JUMPDEST SWAP1 POP PUSH1 0x20 DUP2 ADD SWAP1 POP SWAP2 SWAP1 POP JUMP JUMPDEST PUSH1 0x0 DUP2 SWAP1 POP SWAP2 SWAP1 POP JUMP JUMPDEST PUSH1 0x0 JUMPDEST DUP4 DUP2 LT ISZERO PUSH2 0x259 JUMPI DUP1 DUP3 ADD MLOAD DUP2 DUP5 ADD MSTORE PUSH1 0x20 DUP2 ADD SWAP1 POP PUSH2 0x23E JUMP JUMPDEST DUP4 DUP2 GT ISZERO PUSH2 0x268 JUMPI PUSH1 0x0 DUP5 DUP5 ADD MSTORE JUMPDEST POP POP POP POP JUMP JUMPDEST PUSH1 0x0 PUSH1 0x2 DUP3 DIV SWAP1 POP PUSH1 0x1 DUP3 AND DUP1 PUSH2 0x286 JUMPI PUSH1 0x7F DUP3 AND SWAP2 POP JUMPDEST PUSH1 0x20 DUP3 LT DUP2 EQ ISZERO PUSH2 0x29A JUMPI PUSH2 0x299 PUSH2 0x2D1 JUMP JUMPDEST JUMPDEST POP SWAP2 SWAP1 POP JUMP JUMPDEST PUSH2 0x2A9 DUP3 PUSH2 0x343 JUMP JUMPDEST DUP2 ADD DUP2 DUP2 LT PUSH8 0xFFFFFFFFFFFFFFFF DUP3 GT OR ISZERO PUSH2 0x2C8 JUMPI PUSH2 0x2C7 PUSH2 0x300 JUMP JUMPDEST JUMPDEST DUP1 PUSH1 0x40 MSTORE POP POP POP JUMP JUMPDEST PUSH32 0x4E487B7100000000000000000000000000000000000000000000000000000000 PUSH1 0x0 MSTORE PUSH1 0x22 PUSH1 0x4 MSTORE PUSH1 0x24 PUSH1 0x0 REVERT JUMPDEST PUSH32 0x4E487B7100000000000000000000000000000000000000000000000000000000 PUSH1 0x0 MSTORE PUSH1 0x41 PUSH1 0x4 MSTORE PUSH1 0x24 PUSH1 0x0 REVERT JUMPDEST PUSH1 0x0 DUP1 REVERT JUMPDEST PUSH1 0x0 DUP1 REVERT JUMPDEST PUSH1 0x0 DUP1 REVERT JUMPDEST PUSH1 0x0 DUP1 REVERT JUMPDEST PUSH1 0x0 PUSH1 0x1F NOT PUSH1 0x1F DUP4 ADD AND SWAP1 POP SWAP2 SWAP1 POP JUMP JUMPDEST PUSH2 0x35D DUP2 PUSH2 0x231 JUMP JUMPDEST DUP2 EQ PUSH2 0x368 JUMPI PUSH1 0x0 DUP1 REVERT JUMPDEST POP JUMP JUMPDEST PUSH1 0x3F DUP1 PUSH2 0x379 PUSH1 0x0 CODECOPY PUSH1 0x0 RETURN INVALID PUSH1 0x80 PUSH1 0x40 MSTORE PUSH1 0x0 DUP1 REVERT INVALID LOG2 PUSH5 0x6970667358 0x22 SLT KECCAK256 SUB 0xCE 0xC8 GASPRICE 0x2E DUP16 0xBA 0xB5 CODECOPY EXTCODEHASH POP MLOAD 0xF8 EXTCODEHASH 0xBA 0xA8 MSTORE8 0x2A 0xD6 PUSH5 0xAB5E74AB35 SWAP11 0x22 0xAF DUP3 DUP13 PUSH27 0xA664736F6C63430008070033A26469706673582212208D82D3E08B CALLDATALOAD 0xD8 0xBE 0xEF DUP2 COINBASE DUP10 PUSH9 0x8CCBD693CECC31CFAE PUSH30 0xB609E6668F1923FCDD64736F6C6343000807003300000000000000000000 "
				},
				"gasEstimates": {
					"creation": {
						"codeDepositCost": "490400",
						"executionCost": "524",
						"totalCost": "490924"
					},
					"external": {
						"playTryCatch(string,uint256)": "infinite"
					}
				},
				"methodIdentifiers": {
					"playTryCatch(string,uint256)": "447bce4a"
				}
			},
			"storageLayout": {
				"storage": [],
				"types": null
			},
			"userdoc": {
				"kind": "user",
				"methods": {},
				"version": 1
			}
		}
	}
}