{
	"lecture/lec36.sol": {
		"caller": {
			"abi": [
				{
					"anonymous": false,
					"inputs": [
						{
							"indexed": false,
							"internalType": "bool",
							"name": "_success",
							"type": "bool"
						},
						{
							"indexed": false,
							"internalType": "bytes",
							"name": "_output",
							"type": "bytes"
						}
					],
					"name": "calledFunction",
					"type": "event"
				},
				{
					"inputs": [
						{
							"internalType": "address",
							"name": "_contractAddr",
							"type": "address"
						},
						{
							"internalType": "uint256",
							"name": "_num1",
							"type": "uint256"
						},
						{
							"internalType": "uint256",
							"name": "_num2",
							"type": "uint256"
						}
					],
					"name": "callMethod",
					"outputs": [],
					"stateMutability": "nonpayable",
					"type": "function"
				},
				{
					"inputs": [
						{
							"internalType": "address",
							"name": "_contractAddr",
							"type": "address"
						}
					],
					"name": "callMethod3",
					"outputs": [],
					"stateMutability": "payable",
					"type": "function"
				},
				{
					"inputs": [
						{
							"internalType": "address payable",
							"name": "_to",
							"type": "address"
						}
					],
					"name": "transferEther",
					"outputs": [],
					"stateMutability": "payable",
					"type": "function"
				}
			],
			"devdoc": {
				"kind": "dev",
				"methods": {},
				"version": 1
			},
			"evm": {
				"assembly": "    /* \"lecture/lec36.sol\":801:1930  contract caller{... */\n  mstore(0x40, 0x80)\n  callvalue\n  dup1\n  iszero\n  tag_1\n  jumpi\n  0x00\n  dup1\n  revert\ntag_1:\n  pop\n  dataSize(sub_0)\n  dup1\n  dataOffset(sub_0)\n  0x00\n  codecopy\n  0x00\n  return\nstop\n\nsub_0: assembly {\n        /* \"lecture/lec36.sol\":801:1930  contract caller{... */\n      mstore(0x40, 0x80)\n      jumpi(tag_1, lt(calldatasize, 0x04))\n      shr(0xe0, calldataload(0x00))\n      dup1\n      0x6b55e991\n      eq\n      tag_2\n      jumpi\n      dup1\n      0x6bca61b9\n      eq\n      tag_3\n      jumpi\n      dup1\n      0xf41a0b6b\n      eq\n      tag_4\n      jumpi\n    tag_1:\n      0x00\n      dup1\n      revert\n        /* \"lecture/lec36.sol\":905:1080  function transferEther(address payable _to) public payable{... */\n    tag_2:\n      tag_5\n      0x04\n      dup1\n      calldatasize\n      sub\n      dup2\n      add\n      swap1\n      tag_6\n      swap2\n      swap1\n      tag_7\n      jump\t// in\n    tag_6:\n      tag_8\n      jump\t// in\n    tag_5:\n      stop\n        /* \"lecture/lec36.sol\":1144:1547  function callMethod(address _contractAddr,uint256 _num1, uint256 _num2) public{... */\n    tag_3:\n      callvalue\n      dup1\n      iszero\n      tag_9\n      jumpi\n      0x00\n      dup1\n      revert\n    tag_9:\n      pop\n      tag_10\n      0x04\n      dup1\n      calldatasize\n      sub\n      dup2\n      add\n      swap1\n      tag_11\n      swap2\n      swap1\n      tag_12\n      jump\t// in\n    tag_11:\n      tag_13\n      jump\t// in\n    tag_10:\n      stop\n        /* \"lecture/lec36.sol\":1557:1928  function callMethod3(address _contractAddr) public payable{... */\n    tag_4:\n      tag_14\n      0x04\n      dup1\n      calldatasize\n      sub\n      dup2\n      add\n      swap1\n      tag_15\n      swap2\n      swap1\n      tag_16\n      jump\t// in\n    tag_15:\n      tag_17\n      jump\t// in\n    tag_14:\n      stop\n        /* \"lecture/lec36.sol\":905:1080  function transferEther(address payable _to) public payable{... */\n    tag_8:\n        /* \"lecture/lec36.sol\":974:986  bool success */\n      0x00\n        /* \"lecture/lec36.sol\":991:994  _to */\n      dup2\n        /* \"lecture/lec36.sol\":991:999  _to.call */\n      0xffffffffffffffffffffffffffffffffffffffff\n      and\n        /* \"lecture/lec36.sol\":1006:1015  msg.value */\n      callvalue\n        /* \"lecture/lec36.sol\":991:1020  _to.call{value:msg.value}(\"\") */\n      mload(0x40)\n      tag_19\n      swap1\n      tag_20\n      jump\t// in\n    tag_19:\n      0x00\n      mload(0x40)\n      dup1\n      dup4\n      sub\n      dup2\n      dup6\n      dup8\n      gas\n      call\n      swap3\n      pop\n      pop\n      pop\n      returndatasize\n      dup1\n      0x00\n      dup2\n      eq\n      tag_23\n      jumpi\n      mload(0x40)\n      swap2\n      pop\n      and(add(returndatasize, 0x3f), not(0x1f))\n      dup3\n      add\n      0x40\n      mstore\n      returndatasize\n      dup3\n      mstore\n      returndatasize\n      0x00\n      0x20\n      dup5\n      add\n      returndatacopy\n      jump(tag_22)\n    tag_23:\n      0x60\n      swap2\n      pop\n    tag_22:\n      pop\n        /* \"lecture/lec36.sol\":973:1020  (bool success,) = _to.call{value:msg.value}(\"\") */\n      pop\n      swap1\n      pop\n        /* \"lecture/lec36.sol\":1038:1045  success */\n      dup1\n        /* \"lecture/lec36.sol\":1030:1073  require(success,\"failed to transfer ether\") */\n      tag_24\n      jumpi\n      mload(0x40)\n      0x08c379a000000000000000000000000000000000000000000000000000000000\n      dup2\n      mstore\n      0x04\n      add\n      tag_25\n      swap1\n      tag_26\n      jump\t// in\n    tag_25:\n      mload(0x40)\n      dup1\n      swap2\n      sub\n      swap1\n      revert\n    tag_24:\n        /* \"lecture/lec36.sol\":963:1080  {... */\n      pop\n        /* \"lecture/lec36.sol\":905:1080  function transferEther(address payable _to) public payable{... */\n      pop\n      jump\t// out\n        /* \"lecture/lec36.sol\":1144:1547  function callMethod(address _contractAddr,uint256 _num1, uint256 _num2) public{... */\n    tag_13:\n        /* \"lecture/lec36.sol\":1242:1254  bool success */\n      0x00\n        /* \"lecture/lec36.sol\":1256:1293  bytes memory outputFromCalledFunction */\n      dup1\n        /* \"lecture/lec36.sol\":1297:1310  _contractAddr */\n      dup5\n        /* \"lecture/lec36.sol\":1297:1315  _contractAddr.call */\n      0xffffffffffffffffffffffffffffffffffffffff\n      and\n        /* \"lecture/lec36.sol\":1383:1388  _num1 */\n      dup5\n        /* \"lecture/lec36.sol\":1389:1394  _num2 */\n      dup5\n        /* \"lecture/lec36.sol\":1330:1395  abi.encodeWithSignature(\"addNumber(uint256,uint256)\",_num1,_num2) */\n      add(0x24, mload(0x40))\n      tag_28\n      swap3\n      swap2\n      swap1\n      tag_29\n      jump\t// in\n    tag_28:\n      mload(0x40)\n      0x20\n      dup2\n      dup4\n      sub\n      sub\n      dup2\n      mstore\n      swap1\n      0x40\n      mstore\n      and(not(0xffffffffffffffffffffffffffffffffffffffffffffffffffffffff), 0x0f3d020400000000000000000000000000000000000000000000000000000000)\n      0x20\n      dup3\n      add\n      dup1\n      mload\n      0xffffffffffffffffffffffffffffffffffffffffffffffffffffffff\n      dup4\n      dup2\n      dup4\n      and\n      or\n      dup4\n      mstore\n      pop\n      pop\n      pop\n      pop\n        /* \"lecture/lec36.sol\":1297:1409  _contractAddr.call(... */\n      mload(0x40)\n      tag_30\n      swap2\n      swap1\n      tag_31\n      jump\t// in\n    tag_30:\n      0x00\n      mload(0x40)\n      dup1\n      dup4\n      sub\n      dup2\n      0x00\n      dup7\n      gas\n      call\n      swap2\n      pop\n      pop\n      returndatasize\n      dup1\n      0x00\n      dup2\n      eq\n      tag_34\n      jumpi\n      mload(0x40)\n      swap2\n      pop\n      and(add(returndatasize, 0x3f), not(0x1f))\n      dup3\n      add\n      0x40\n      mstore\n      returndatasize\n      dup3\n      mstore\n      returndatasize\n      0x00\n      0x20\n      dup5\n      add\n      returndatacopy\n      jump(tag_33)\n    tag_34:\n      0x60\n      swap2\n      pop\n    tag_33:\n      pop\n        /* \"lecture/lec36.sol\":1241:1409  (bool success, bytes memory outputFromCalledFunction) = _contractAddr.call(... */\n      swap2\n      pop\n      swap2\n      pop\n        /* \"lecture/lec36.sol\":1442:1449  success */\n      dup2\n        /* \"lecture/lec36.sol\":1434:1477  require(success,\"failed to transfer ether\") */\n      tag_35\n      jumpi\n      mload(0x40)\n      0x08c379a000000000000000000000000000000000000000000000000000000000\n      dup2\n      mstore\n      0x04\n      add\n      tag_36\n      swap1\n      tag_26\n      jump\t// in\n    tag_36:\n      mload(0x40)\n      dup1\n      swap2\n      sub\n      swap1\n      revert\n    tag_35:\n        /* \"lecture/lec36.sol\":1492:1540  calledFunction(success,outputFromCalledFunction) */\n      0x80360304bd82b2c0e319d3e23ce5c7dea2dce952fb2b6bc695a70153f96d93d4\n        /* \"lecture/lec36.sol\":1507:1514  success */\n      dup3\n        /* \"lecture/lec36.sol\":1515:1539  outputFromCalledFunction */\n      dup3\n        /* \"lecture/lec36.sol\":1492:1540  calledFunction(success,outputFromCalledFunction) */\n      mload(0x40)\n      tag_37\n      swap3\n      swap2\n      swap1\n      tag_38\n      jump\t// in\n    tag_37:\n      mload(0x40)\n      dup1\n      swap2\n      sub\n      swap1\n      log1\n        /* \"lecture/lec36.sol\":1222:1547  {... */\n      pop\n      pop\n        /* \"lecture/lec36.sol\":1144:1547  function callMethod(address _contractAddr,uint256 _num1, uint256 _num2) public{... */\n      pop\n      pop\n      pop\n      jump\t// out\n        /* \"lecture/lec36.sol\":1557:1928  function callMethod3(address _contractAddr) public payable{... */\n    tag_17:\n        /* \"lecture/lec36.sol\":1635:1647  bool success */\n      0x00\n        /* \"lecture/lec36.sol\":1649:1686  bytes memory outputFromCalledFunction */\n      dup1\n        /* \"lecture/lec36.sol\":1690:1703  _contractAddr */\n      dup3\n        /* \"lecture/lec36.sol\":1690:1708  _contractAddr.call */\n      0xffffffffffffffffffffffffffffffffffffffff\n      and\n        /* \"lecture/lec36.sol\":1715:1724  msg.value */\n      callvalue\n        /* \"lecture/lec36.sol\":1740:1776  abi.encodeWithSignature(\"Nothing()\") */\n      add(0x24, mload(0x40))\n      mload(0x40)\n      0x20\n      dup2\n      dup4\n      sub\n      sub\n      dup2\n      mstore\n      swap1\n      0x40\n      mstore\n      and(not(0xffffffffffffffffffffffffffffffffffffffffffffffffffffffff), 0xf9820cc100000000000000000000000000000000000000000000000000000000)\n      0x20\n      dup3\n      add\n      dup1\n      mload\n      0xffffffffffffffffffffffffffffffffffffffffffffffffffffffff\n      dup4\n      dup2\n      dup4\n      and\n      or\n      dup4\n      mstore\n      pop\n      pop\n      pop\n      pop\n        /* \"lecture/lec36.sol\":1690:1790  _contractAddr.call{value:msg.value}(... */\n      mload(0x40)\n      tag_40\n      swap2\n      swap1\n      tag_31\n      jump\t// in\n    tag_40:\n      0x00\n      mload(0x40)\n      dup1\n      dup4\n      sub\n      dup2\n      dup6\n      dup8\n      gas\n      call\n      swap3\n      pop\n      pop\n      pop\n      returndatasize\n      dup1\n      0x00\n      dup2\n      eq\n      tag_43\n      jumpi\n      mload(0x40)\n      swap2\n      pop\n      and(add(returndatasize, 0x3f), not(0x1f))\n      dup3\n      add\n      0x40\n      mstore\n      returndatasize\n      dup3\n      mstore\n      returndatasize\n      0x00\n      0x20\n      dup5\n      add\n      returndatacopy\n      jump(tag_42)\n    tag_43:\n      0x60\n      swap2\n      pop\n    tag_42:\n      pop\n        /* \"lecture/lec36.sol\":1634:1790  (bool success, bytes memory outputFromCalledFunction) = _contractAddr.call{value:msg.value}(... */\n      swap2\n      pop\n      swap2\n      pop\n        /* \"lecture/lec36.sol\":1823:1830  success */\n      dup2\n        /* \"lecture/lec36.sol\":1815:1858  require(success,\"failed to transfer ether\") */\n      tag_44\n      jumpi\n      mload(0x40)\n      0x08c379a000000000000000000000000000000000000000000000000000000000\n      dup2\n      mstore\n      0x04\n      add\n      tag_45\n      swap1\n      tag_26\n      jump\t// in\n    tag_45:\n      mload(0x40)\n      dup1\n      swap2\n      sub\n      swap1\n      revert\n    tag_44:\n        /* \"lecture/lec36.sol\":1873:1921  calledFunction(success,outputFromCalledFunction) */\n      0x80360304bd82b2c0e319d3e23ce5c7dea2dce952fb2b6bc695a70153f96d93d4\n        /* \"lecture/lec36.sol\":1888:1895  success */\n      dup3\n        /* \"lecture/lec36.sol\":1896:1920  outputFromCalledFunction */\n      dup3\n        /* \"lecture/lec36.sol\":1873:1921  calledFunction(success,outputFromCalledFunction) */\n      mload(0x40)\n      tag_46\n      swap3\n      swap2\n      swap1\n      tag_38\n      jump\t// in\n    tag_46:\n      mload(0x40)\n      dup1\n      swap2\n      sub\n      swap1\n      log1\n        /* \"lecture/lec36.sol\":1615:1928  {... */\n      pop\n      pop\n        /* \"lecture/lec36.sol\":1557:1928  function callMethod3(address _contractAddr) public payable{... */\n      pop\n      jump\t// out\n        /* \"#utility.yul\":7:146   */\n    tag_48:\n        /* \"#utility.yul\":53:58   */\n      0x00\n        /* \"#utility.yul\":91:97   */\n      dup2\n        /* \"#utility.yul\":78:98   */\n      calldataload\n        /* \"#utility.yul\":69:98   */\n      swap1\n      pop\n        /* \"#utility.yul\":107:140   */\n      tag_50\n        /* \"#utility.yul\":134:139   */\n      dup2\n        /* \"#utility.yul\":107:140   */\n      tag_51\n      jump\t// in\n    tag_50:\n        /* \"#utility.yul\":7:146   */\n      swap3\n      swap2\n      pop\n      pop\n      jump\t// out\n        /* \"#utility.yul\":152:307   */\n    tag_52:\n        /* \"#utility.yul\":206:211   */\n      0x00\n        /* \"#utility.yul\":244:250   */\n      dup2\n        /* \"#utility.yul\":231:251   */\n      calldataload\n        /* \"#utility.yul\":222:251   */\n      swap1\n      pop\n        /* \"#utility.yul\":260:301   */\n      tag_54\n        /* \"#utility.yul\":295:300   */\n      dup2\n        /* \"#utility.yul\":260:301   */\n      tag_55\n      jump\t// in\n    tag_54:\n        /* \"#utility.yul\":152:307   */\n      swap3\n      swap2\n      pop\n      pop\n      jump\t// out\n        /* \"#utility.yul\":313:452   */\n    tag_56:\n        /* \"#utility.yul\":359:364   */\n      0x00\n        /* \"#utility.yul\":397:403   */\n      dup2\n        /* \"#utility.yul\":384:404   */\n      calldataload\n        /* \"#utility.yul\":375:404   */\n      swap1\n      pop\n        /* \"#utility.yul\":413:446   */\n      tag_58\n        /* \"#utility.yul\":440:445   */\n      dup2\n        /* \"#utility.yul\":413:446   */\n      tag_59\n      jump\t// in\n    tag_58:\n        /* \"#utility.yul\":313:452   */\n      swap3\n      swap2\n      pop\n      pop\n      jump\t// out\n        /* \"#utility.yul\":458:787   */\n    tag_16:\n        /* \"#utility.yul\":517:523   */\n      0x00\n        /* \"#utility.yul\":566:568   */\n      0x20\n        /* \"#utility.yul\":554:563   */\n      dup3\n        /* \"#utility.yul\":545:552   */\n      dup5\n        /* \"#utility.yul\":541:564   */\n      sub\n        /* \"#utility.yul\":537:569   */\n      slt\n        /* \"#utility.yul\":534:653   */\n      iszero\n      tag_61\n      jumpi\n        /* \"#utility.yul\":572:651   */\n      tag_62\n      tag_63\n      jump\t// in\n    tag_62:\n        /* \"#utility.yul\":534:653   */\n    tag_61:\n        /* \"#utility.yul\":692:693   */\n      0x00\n        /* \"#utility.yul\":717:770   */\n      tag_64\n        /* \"#utility.yul\":762:769   */\n      dup5\n        /* \"#utility.yul\":753:759   */\n      dup3\n        /* \"#utility.yul\":742:751   */\n      dup6\n        /* \"#utility.yul\":738:760   */\n      add\n        /* \"#utility.yul\":717:770   */\n      tag_48\n      jump\t// in\n    tag_64:\n        /* \"#utility.yul\":707:770   */\n      swap2\n      pop\n        /* \"#utility.yul\":663:780   */\n      pop\n        /* \"#utility.yul\":458:787   */\n      swap3\n      swap2\n      pop\n      pop\n      jump\t// out\n        /* \"#utility.yul\":793:1138   */\n    tag_7:\n        /* \"#utility.yul\":860:866   */\n      0x00\n        /* \"#utility.yul\":909:911   */\n      0x20\n        /* \"#utility.yul\":897:906   */\n      dup3\n        /* \"#utility.yul\":888:895   */\n      dup5\n        /* \"#utility.yul\":884:907   */\n      sub\n        /* \"#utility.yul\":880:912   */\n      slt\n        /* \"#utility.yul\":877:996   */\n      iszero\n      tag_66\n      jumpi\n        /* \"#utility.yul\":915:994   */\n      tag_67\n      tag_63\n      jump\t// in\n    tag_67:\n        /* \"#utility.yul\":877:996   */\n    tag_66:\n        /* \"#utility.yul\":1035:1036   */\n      0x00\n        /* \"#utility.yul\":1060:1121   */\n      tag_68\n        /* \"#utility.yul\":1113:1120   */\n      dup5\n        /* \"#utility.yul\":1104:1110   */\n      dup3\n        /* \"#utility.yul\":1093:1102   */\n      dup6\n        /* \"#utility.yul\":1089:1111   */\n      add\n        /* \"#utility.yul\":1060:1121   */\n      tag_52\n      jump\t// in\n    tag_68:\n        /* \"#utility.yul\":1050:1121   */\n      swap2\n      pop\n        /* \"#utility.yul\":1006:1131   */\n      pop\n        /* \"#utility.yul\":793:1138   */\n      swap3\n      swap2\n      pop\n      pop\n      jump\t// out\n        /* \"#utility.yul\":1144:1763   */\n    tag_12:\n        /* \"#utility.yul\":1221:1227   */\n      0x00\n        /* \"#utility.yul\":1229:1235   */\n      dup1\n        /* \"#utility.yul\":1237:1243   */\n      0x00\n        /* \"#utility.yul\":1286:1288   */\n      0x60\n        /* \"#utility.yul\":1274:1283   */\n      dup5\n        /* \"#utility.yul\":1265:1272   */\n      dup7\n        /* \"#utility.yul\":1261:1284   */\n      sub\n        /* \"#utility.yul\":1257:1289   */\n      slt\n        /* \"#utility.yul\":1254:1373   */\n      iszero\n      tag_70\n      jumpi\n        /* \"#utility.yul\":1292:1371   */\n      tag_71\n      tag_63\n      jump\t// in\n    tag_71:\n        /* \"#utility.yul\":1254:1373   */\n    tag_70:\n        /* \"#utility.yul\":1412:1413   */\n      0x00\n        /* \"#utility.yul\":1437:1490   */\n      tag_72\n        /* \"#utility.yul\":1482:1489   */\n      dup7\n        /* \"#utility.yul\":1473:1479   */\n      dup3\n        /* \"#utility.yul\":1462:1471   */\n      dup8\n        /* \"#utility.yul\":1458:1480   */\n      add\n        /* \"#utility.yul\":1437:1490   */\n      tag_48\n      jump\t// in\n    tag_72:\n        /* \"#utility.yul\":1427:1490   */\n      swap4\n      pop\n        /* \"#utility.yul\":1383:1500   */\n      pop\n        /* \"#utility.yul\":1539:1541   */\n      0x20\n        /* \"#utility.yul\":1565:1618   */\n      tag_73\n        /* \"#utility.yul\":1610:1617   */\n      dup7\n        /* \"#utility.yul\":1601:1607   */\n      dup3\n        /* \"#utility.yul\":1590:1599   */\n      dup8\n        /* \"#utility.yul\":1586:1608   */\n      add\n        /* \"#utility.yul\":1565:1618   */\n      tag_56\n      jump\t// in\n    tag_73:\n        /* \"#utility.yul\":1555:1618   */\n      swap3\n      pop\n        /* \"#utility.yul\":1510:1628   */\n      pop\n        /* \"#utility.yul\":1667:1669   */\n      0x40\n        /* \"#utility.yul\":1693:1746   */\n      tag_74\n        /* \"#utility.yul\":1738:1745   */\n      dup7\n        /* \"#utility.yul\":1729:1735   */\n      dup3\n        /* \"#utility.yul\":1718:1727   */\n      dup8\n        /* \"#utility.yul\":1714:1736   */\n      add\n        /* \"#utility.yul\":1693:1746   */\n      tag_56\n      jump\t// in\n    tag_74:\n        /* \"#utility.yul\":1683:1746   */\n      swap2\n      pop\n        /* \"#utility.yul\":1638:1756   */\n      pop\n        /* \"#utility.yul\":1144:1763   */\n      swap3\n      pop\n      swap3\n      pop\n      swap3\n      jump\t// out\n        /* \"#utility.yul\":1769:1878   */\n    tag_75:\n        /* \"#utility.yul\":1850:1871   */\n      tag_77\n        /* \"#utility.yul\":1865:1870   */\n      dup2\n        /* \"#utility.yul\":1850:1871   */\n      tag_78\n      jump\t// in\n    tag_77:\n        /* \"#utility.yul\":1845:1848   */\n      dup3\n        /* \"#utility.yul\":1838:1872   */\n      mstore\n        /* \"#utility.yul\":1769:1878   */\n      pop\n      pop\n      jump\t// out\n        /* \"#utility.yul\":1884:2244   */\n    tag_79:\n        /* \"#utility.yul\":1970:1973   */\n      0x00\n        /* \"#utility.yul\":1998:2036   */\n      tag_81\n        /* \"#utility.yul\":2030:2035   */\n      dup3\n        /* \"#utility.yul\":1998:2036   */\n      tag_82\n      jump\t// in\n    tag_81:\n        /* \"#utility.yul\":2052:2122   */\n      tag_83\n        /* \"#utility.yul\":2115:2121   */\n      dup2\n        /* \"#utility.yul\":2110:2113   */\n      dup6\n        /* \"#utility.yul\":2052:2122   */\n      tag_84\n      jump\t// in\n    tag_83:\n        /* \"#utility.yul\":2045:2122   */\n      swap4\n      pop\n        /* \"#utility.yul\":2131:2183   */\n      tag_85\n        /* \"#utility.yul\":2176:2182   */\n      dup2\n        /* \"#utility.yul\":2171:2174   */\n      dup6\n        /* \"#utility.yul\":2164:2168   */\n      0x20\n        /* \"#utility.yul\":2157:2162   */\n      dup7\n        /* \"#utility.yul\":2153:2169   */\n      add\n        /* \"#utility.yul\":2131:2183   */\n      tag_86\n      jump\t// in\n    tag_85:\n        /* \"#utility.yul\":2208:2237   */\n      tag_87\n        /* \"#utility.yul\":2230:2236   */\n      dup2\n        /* \"#utility.yul\":2208:2237   */\n      tag_88\n      jump\t// in\n    tag_87:\n        /* \"#utility.yul\":2203:2206   */\n      dup5\n        /* \"#utility.yul\":2199:2238   */\n      add\n        /* \"#utility.yul\":2192:2238   */\n      swap2\n      pop\n        /* \"#utility.yul\":1974:2244   */\n      pop\n        /* \"#utility.yul\":1884:2244   */\n      swap3\n      swap2\n      pop\n      pop\n      jump\t// out\n        /* \"#utility.yul\":2250:2623   */\n    tag_89:\n        /* \"#utility.yul\":2354:2357   */\n      0x00\n        /* \"#utility.yul\":2382:2420   */\n      tag_91\n        /* \"#utility.yul\":2414:2419   */\n      dup3\n        /* \"#utility.yul\":2382:2420   */\n      tag_82\n      jump\t// in\n    tag_91:\n        /* \"#utility.yul\":2436:2524   */\n      tag_92\n        /* \"#utility.yul\":2517:2523   */\n      dup2\n        /* \"#utility.yul\":2512:2515   */\n      dup6\n        /* \"#utility.yul\":2436:2524   */\n      tag_93\n      jump\t// in\n    tag_92:\n        /* \"#utility.yul\":2429:2524   */\n      swap4\n      pop\n        /* \"#utility.yul\":2533:2585   */\n      tag_94\n        /* \"#utility.yul\":2578:2584   */\n      dup2\n        /* \"#utility.yul\":2573:2576   */\n      dup6\n        /* \"#utility.yul\":2566:2570   */\n      0x20\n        /* \"#utility.yul\":2559:2564   */\n      dup7\n        /* \"#utility.yul\":2555:2571   */\n      add\n        /* \"#utility.yul\":2533:2585   */\n      tag_86\n      jump\t// in\n    tag_94:\n        /* \"#utility.yul\":2610:2616   */\n      dup1\n        /* \"#utility.yul\":2605:2608   */\n      dup5\n        /* \"#utility.yul\":2601:2617   */\n      add\n        /* \"#utility.yul\":2594:2617   */\n      swap2\n      pop\n        /* \"#utility.yul\":2358:2623   */\n      pop\n        /* \"#utility.yul\":2250:2623   */\n      swap3\n      swap2\n      pop\n      pop\n      jump\t// out\n        /* \"#utility.yul\":2629:2995   */\n    tag_95:\n        /* \"#utility.yul\":2771:2774   */\n      0x00\n        /* \"#utility.yul\":2792:2859   */\n      tag_97\n        /* \"#utility.yul\":2856:2858   */\n      0x18\n        /* \"#utility.yul\":2851:2854   */\n      dup4\n        /* \"#utility.yul\":2792:2859   */\n      tag_98\n      jump\t// in\n    tag_97:\n        /* \"#utility.yul\":2785:2859   */\n      swap2\n      pop\n        /* \"#utility.yul\":2868:2961   */\n      tag_99\n        /* \"#utility.yul\":2957:2960   */\n      dup3\n        /* \"#utility.yul\":2868:2961   */\n      tag_100\n      jump\t// in\n    tag_99:\n        /* \"#utility.yul\":2986:2988   */\n      0x20\n        /* \"#utility.yul\":2981:2984   */\n      dup3\n        /* \"#utility.yul\":2977:2989   */\n      add\n        /* \"#utility.yul\":2970:2989   */\n      swap1\n      pop\n        /* \"#utility.yul\":2629:2995   */\n      swap2\n      swap1\n      pop\n      jump\t// out\n        /* \"#utility.yul\":3001:3399   */\n    tag_101:\n        /* \"#utility.yul\":3160:3163   */\n      0x00\n        /* \"#utility.yul\":3181:3264   */\n      tag_103\n        /* \"#utility.yul\":3262:3263   */\n      0x00\n        /* \"#utility.yul\":3257:3260   */\n      dup4\n        /* \"#utility.yul\":3181:3264   */\n      tag_93\n      jump\t// in\n    tag_103:\n        /* \"#utility.yul\":3174:3264   */\n      swap2\n      pop\n        /* \"#utility.yul\":3273:3366   */\n      tag_104\n        /* \"#utility.yul\":3362:3365   */\n      dup3\n        /* \"#utility.yul\":3273:3366   */\n      tag_105\n      jump\t// in\n    tag_104:\n        /* \"#utility.yul\":3391:3392   */\n      0x00\n        /* \"#utility.yul\":3386:3389   */\n      dup3\n        /* \"#utility.yul\":3382:3393   */\n      add\n        /* \"#utility.yul\":3375:3393   */\n      swap1\n      pop\n        /* \"#utility.yul\":3001:3399   */\n      swap2\n      swap1\n      pop\n      jump\t// out\n        /* \"#utility.yul\":3405:3523   */\n    tag_106:\n        /* \"#utility.yul\":3492:3516   */\n      tag_108\n        /* \"#utility.yul\":3510:3515   */\n      dup2\n        /* \"#utility.yul\":3492:3516   */\n      tag_109\n      jump\t// in\n    tag_108:\n        /* \"#utility.yul\":3487:3490   */\n      dup3\n        /* \"#utility.yul\":3480:3517   */\n      mstore\n        /* \"#utility.yul\":3405:3523   */\n      pop\n      pop\n      jump\t// out\n        /* \"#utility.yul\":3529:3800   */\n    tag_31:\n        /* \"#utility.yul\":3659:3662   */\n      0x00\n        /* \"#utility.yul\":3681:3774   */\n      tag_111\n        /* \"#utility.yul\":3770:3773   */\n      dup3\n        /* \"#utility.yul\":3761:3767   */\n      dup5\n        /* \"#utility.yul\":3681:3774   */\n      tag_89\n      jump\t// in\n    tag_111:\n        /* \"#utility.yul\":3674:3774   */\n      swap2\n      pop\n        /* \"#utility.yul\":3791:3794   */\n      dup2\n        /* \"#utility.yul\":3784:3794   */\n      swap1\n      pop\n        /* \"#utility.yul\":3529:3800   */\n      swap3\n      swap2\n      pop\n      pop\n      jump\t// out\n        /* \"#utility.yul\":3806:4185   */\n    tag_20:\n        /* \"#utility.yul\":3990:3993   */\n      0x00\n        /* \"#utility.yul\":4012:4159   */\n      tag_113\n        /* \"#utility.yul\":4155:4158   */\n      dup3\n        /* \"#utility.yul\":4012:4159   */\n      tag_101\n      jump\t// in\n    tag_113:\n        /* \"#utility.yul\":4005:4159   */\n      swap2\n      pop\n        /* \"#utility.yul\":4176:4179   */\n      dup2\n        /* \"#utility.yul\":4169:4179   */\n      swap1\n      pop\n        /* \"#utility.yul\":3806:4185   */\n      swap2\n      swap1\n      pop\n      jump\t// out\n        /* \"#utility.yul\":4191:4598   */\n    tag_38:\n        /* \"#utility.yul\":4324:4328   */\n      0x00\n        /* \"#utility.yul\":4362:4364   */\n      0x40\n        /* \"#utility.yul\":4351:4360   */\n      dup3\n        /* \"#utility.yul\":4347:4365   */\n      add\n        /* \"#utility.yul\":4339:4365   */\n      swap1\n      pop\n        /* \"#utility.yul\":4375:4440   */\n      tag_115\n        /* \"#utility.yul\":4437:4438   */\n      0x00\n        /* \"#utility.yul\":4426:4435   */\n      dup4\n        /* \"#utility.yul\":4422:4439   */\n      add\n        /* \"#utility.yul\":4413:4419   */\n      dup6\n        /* \"#utility.yul\":4375:4440   */\n      tag_75\n      jump\t// in\n    tag_115:\n        /* \"#utility.yul\":4487:4496   */\n      dup2\n        /* \"#utility.yul\":4481:4485   */\n      dup2\n        /* \"#utility.yul\":4477:4497   */\n      sub\n        /* \"#utility.yul\":4472:4474   */\n      0x20\n        /* \"#utility.yul\":4461:4470   */\n      dup4\n        /* \"#utility.yul\":4457:4475   */\n      add\n        /* \"#utility.yul\":4450:4498   */\n      mstore\n        /* \"#utility.yul\":4515:4591   */\n      tag_116\n        /* \"#utility.yul\":4586:4590   */\n      dup2\n        /* \"#utility.yul\":4577:4583   */\n      dup5\n        /* \"#utility.yul\":4515:4591   */\n      tag_79\n      jump\t// in\n    tag_116:\n        /* \"#utility.yul\":4507:4591   */\n      swap1\n      pop\n        /* \"#utility.yul\":4191:4598   */\n      swap4\n      swap3\n      pop\n      pop\n      pop\n      jump\t// out\n        /* \"#utility.yul\":4604:5023   */\n    tag_26:\n        /* \"#utility.yul\":4770:4774   */\n      0x00\n        /* \"#utility.yul\":4808:4810   */\n      0x20\n        /* \"#utility.yul\":4797:4806   */\n      dup3\n        /* \"#utility.yul\":4793:4811   */\n      add\n        /* \"#utility.yul\":4785:4811   */\n      swap1\n      pop\n        /* \"#utility.yul\":4857:4866   */\n      dup2\n        /* \"#utility.yul\":4851:4855   */\n      dup2\n        /* \"#utility.yul\":4847:4867   */\n      sub\n        /* \"#utility.yul\":4843:4844   */\n      0x00\n        /* \"#utility.yul\":4832:4841   */\n      dup4\n        /* \"#utility.yul\":4828:4845   */\n      add\n        /* \"#utility.yul\":4821:4868   */\n      mstore\n        /* \"#utility.yul\":4885:5016   */\n      tag_118\n        /* \"#utility.yul\":5011:5015   */\n      dup2\n        /* \"#utility.yul\":4885:5016   */\n      tag_95\n      jump\t// in\n    tag_118:\n        /* \"#utility.yul\":4877:5016   */\n      swap1\n      pop\n        /* \"#utility.yul\":4604:5023   */\n      swap2\n      swap1\n      pop\n      jump\t// out\n        /* \"#utility.yul\":5029:5361   */\n    tag_29:\n        /* \"#utility.yul\":5150:5154   */\n      0x00\n        /* \"#utility.yul\":5188:5190   */\n      0x40\n        /* \"#utility.yul\":5177:5186   */\n      dup3\n        /* \"#utility.yul\":5173:5191   */\n      add\n        /* \"#utility.yul\":5165:5191   */\n      swap1\n      pop\n        /* \"#utility.yul\":5201:5272   */\n      tag_120\n        /* \"#utility.yul\":5269:5270   */\n      0x00\n        /* \"#utility.yul\":5258:5267   */\n      dup4\n        /* \"#utility.yul\":5254:5271   */\n      add\n        /* \"#utility.yul\":5245:5251   */\n      dup6\n        /* \"#utility.yul\":5201:5272   */\n      tag_106\n      jump\t// in\n    tag_120:\n        /* \"#utility.yul\":5282:5354   */\n      tag_121\n        /* \"#utility.yul\":5350:5352   */\n      0x20\n        /* \"#utility.yul\":5339:5348   */\n      dup4\n        /* \"#utility.yul\":5335:5353   */\n      add\n        /* \"#utility.yul\":5326:5332   */\n      dup5\n        /* \"#utility.yul\":5282:5354   */\n      tag_106\n      jump\t// in\n    tag_121:\n        /* \"#utility.yul\":5029:5361   */\n      swap4\n      swap3\n      pop\n      pop\n      pop\n      jump\t// out\n        /* \"#utility.yul\":5448:5546   */\n    tag_82:\n        /* \"#utility.yul\":5499:5505   */\n      0x00\n        /* \"#utility.yul\":5533:5538   */\n      dup2\n        /* \"#utility.yul\":5527:5539   */\n      mload\n        /* \"#utility.yul\":5517:5539   */\n      swap1\n      pop\n        /* \"#utility.yul\":5448:5546   */\n      swap2\n      swap1\n      pop\n      jump\t// out\n        /* \"#utility.yul\":5552:5720   */\n    tag_84:\n        /* \"#utility.yul\":5635:5646   */\n      0x00\n        /* \"#utility.yul\":5669:5675   */\n      dup3\n        /* \"#utility.yul\":5664:5667   */\n      dup3\n        /* \"#utility.yul\":5657:5676   */\n      mstore\n        /* \"#utility.yul\":5709:5713   */\n      0x20\n        /* \"#utility.yul\":5704:5707   */\n      dup3\n        /* \"#utility.yul\":5700:5714   */\n      add\n        /* \"#utility.yul\":5685:5714   */\n      swap1\n      pop\n        /* \"#utility.yul\":5552:5720   */\n      swap3\n      swap2\n      pop\n      pop\n      jump\t// out\n        /* \"#utility.yul\":5726:5873   */\n    tag_93:\n        /* \"#utility.yul\":5827:5838   */\n      0x00\n        /* \"#utility.yul\":5864:5867   */\n      dup2\n        /* \"#utility.yul\":5849:5867   */\n      swap1\n      pop\n        /* \"#utility.yul\":5726:5873   */\n      swap3\n      swap2\n      pop\n      pop\n      jump\t// out\n        /* \"#utility.yul\":5879:6048   */\n    tag_98:\n        /* \"#utility.yul\":5963:5974   */\n      0x00\n        /* \"#utility.yul\":5997:6003   */\n      dup3\n        /* \"#utility.yul\":5992:5995   */\n      dup3\n        /* \"#utility.yul\":5985:6004   */\n      mstore\n        /* \"#utility.yul\":6037:6041   */\n      0x20\n        /* \"#utility.yul\":6032:6035   */\n      dup3\n        /* \"#utility.yul\":6028:6042   */\n      add\n        /* \"#utility.yul\":6013:6042   */\n      swap1\n      pop\n        /* \"#utility.yul\":5879:6048   */\n      swap3\n      swap2\n      pop\n      pop\n      jump\t// out\n        /* \"#utility.yul\":6054:6150   */\n    tag_128:\n        /* \"#utility.yul\":6091:6098   */\n      0x00\n        /* \"#utility.yul\":6120:6144   */\n      tag_130\n        /* \"#utility.yul\":6138:6143   */\n      dup3\n        /* \"#utility.yul\":6120:6144   */\n      tag_131\n      jump\t// in\n    tag_130:\n        /* \"#utility.yul\":6109:6144   */\n      swap1\n      pop\n        /* \"#utility.yul\":6054:6150   */\n      swap2\n      swap1\n      pop\n      jump\t// out\n        /* \"#utility.yul\":6156:6260   */\n    tag_132:\n        /* \"#utility.yul\":6201:6208   */\n      0x00\n        /* \"#utility.yul\":6230:6254   */\n      tag_134\n        /* \"#utility.yul\":6248:6253   */\n      dup3\n        /* \"#utility.yul\":6230:6254   */\n      tag_131\n      jump\t// in\n    tag_134:\n        /* \"#utility.yul\":6219:6254   */\n      swap1\n      pop\n        /* \"#utility.yul\":6156:6260   */\n      swap2\n      swap1\n      pop\n      jump\t// out\n        /* \"#utility.yul\":6266:6356   */\n    tag_78:\n        /* \"#utility.yul\":6300:6307   */\n      0x00\n        /* \"#utility.yul\":6343:6348   */\n      dup2\n        /* \"#utility.yul\":6336:6349   */\n      iszero\n        /* \"#utility.yul\":6329:6350   */\n      iszero\n        /* \"#utility.yul\":6318:6350   */\n      swap1\n      pop\n        /* \"#utility.yul\":6266:6356   */\n      swap2\n      swap1\n      pop\n      jump\t// out\n        /* \"#utility.yul\":6362:6488   */\n    tag_131:\n        /* \"#utility.yul\":6399:6406   */\n      0x00\n        /* \"#utility.yul\":6439:6481   */\n      0xffffffffffffffffffffffffffffffffffffffff\n        /* \"#utility.yul\":6432:6437   */\n      dup3\n        /* \"#utility.yul\":6428:6482   */\n      and\n        /* \"#utility.yul\":6417:6482   */\n      swap1\n      pop\n        /* \"#utility.yul\":6362:6488   */\n      swap2\n      swap1\n      pop\n      jump\t// out\n        /* \"#utility.yul\":6494:6571   */\n    tag_109:\n        /* \"#utility.yul\":6531:6538   */\n      0x00\n        /* \"#utility.yul\":6560:6565   */\n      dup2\n        /* \"#utility.yul\":6549:6565   */\n      swap1\n      pop\n        /* \"#utility.yul\":6494:6571   */\n      swap2\n      swap1\n      pop\n      jump\t// out\n        /* \"#utility.yul\":6577:6884   */\n    tag_86:\n        /* \"#utility.yul\":6645:6646   */\n      0x00\n        /* \"#utility.yul\":6655:6768   */\n    tag_139:\n        /* \"#utility.yul\":6669:6675   */\n      dup4\n        /* \"#utility.yul\":6666:6667   */\n      dup2\n        /* \"#utility.yul\":6663:6676   */\n      lt\n        /* \"#utility.yul\":6655:6768   */\n      iszero\n      tag_141\n      jumpi\n        /* \"#utility.yul\":6754:6755   */\n      dup1\n        /* \"#utility.yul\":6749:6752   */\n      dup3\n        /* \"#utility.yul\":6745:6756   */\n      add\n        /* \"#utility.yul\":6739:6757   */\n      mload\n        /* \"#utility.yul\":6735:6736   */\n      dup2\n        /* \"#utility.yul\":6730:6733   */\n      dup5\n        /* \"#utility.yul\":6726:6737   */\n      add\n        /* \"#utility.yul\":6719:6758   */\n      mstore\n        /* \"#utility.yul\":6691:6693   */\n      0x20\n        /* \"#utility.yul\":6688:6689   */\n      dup2\n        /* \"#utility.yul\":6684:6694   */\n      add\n        /* \"#utility.yul\":6679:6694   */\n      swap1\n      pop\n        /* \"#utility.yul\":6655:6768   */\n      jump(tag_139)\n    tag_141:\n        /* \"#utility.yul\":6786:6792   */\n      dup4\n        /* \"#utility.yul\":6783:6784   */\n      dup2\n        /* \"#utility.yul\":6780:6793   */\n      gt\n        /* \"#utility.yul\":6777:6878   */\n      iszero\n      tag_142\n      jumpi\n        /* \"#utility.yul\":6866:6867   */\n      0x00\n        /* \"#utility.yul\":6857:6863   */\n      dup5\n        /* \"#utility.yul\":6852:6855   */\n      dup5\n        /* \"#utility.yul\":6848:6864   */\n      add\n        /* \"#utility.yul\":6841:6868   */\n      mstore\n        /* \"#utility.yul\":6777:6878   */\n    tag_142:\n        /* \"#utility.yul\":6626:6884   */\n      pop\n        /* \"#utility.yul\":6577:6884   */\n      pop\n      pop\n      pop\n      jump\t// out\n        /* \"#utility.yul\":7013:7130   */\n    tag_63:\n        /* \"#utility.yul\":7122:7123   */\n      0x00\n        /* \"#utility.yul\":7119:7120   */\n      dup1\n        /* \"#utility.yul\":7112:7124   */\n      revert\n        /* \"#utility.yul\":7136:7238   */\n    tag_88:\n        /* \"#utility.yul\":7177:7183   */\n      0x00\n        /* \"#utility.yul\":7228:7230   */\n      0x1f\n        /* \"#utility.yul\":7224:7231   */\n      not\n        /* \"#utility.yul\":7219:7221   */\n      0x1f\n        /* \"#utility.yul\":7212:7217   */\n      dup4\n        /* \"#utility.yul\":7208:7222   */\n      add\n        /* \"#utility.yul\":7204:7232   */\n      and\n        /* \"#utility.yul\":7194:7232   */\n      swap1\n      pop\n        /* \"#utility.yul\":7136:7238   */\n      swap2\n      swap1\n      pop\n      jump\t// out\n        /* \"#utility.yul\":7244:7418   */\n    tag_100:\n        /* \"#utility.yul\":7384:7410   */\n      0x6661696c656420746f207472616e736665722065746865720000000000000000\n        /* \"#utility.yul\":7380:7381   */\n      0x00\n        /* \"#utility.yul\":7372:7378   */\n      dup3\n        /* \"#utility.yul\":7368:7382   */\n      add\n        /* \"#utility.yul\":7361:7411   */\n      mstore\n        /* \"#utility.yul\":7244:7418   */\n      pop\n      jump\t// out\n        /* \"#utility.yul\":7424:7538   */\n    tag_105:\n      pop\n      jump\t// out\n        /* \"#utility.yul\":7544:7666   */\n    tag_51:\n        /* \"#utility.yul\":7617:7641   */\n      tag_150\n        /* \"#utility.yul\":7635:7640   */\n      dup2\n        /* \"#utility.yul\":7617:7641   */\n      tag_128\n      jump\t// in\n    tag_150:\n        /* \"#utility.yul\":7610:7615   */\n      dup2\n        /* \"#utility.yul\":7607:7642   */\n      eq\n        /* \"#utility.yul\":7597:7660   */\n      tag_151\n      jumpi\n        /* \"#utility.yul\":7656:7657   */\n      0x00\n        /* \"#utility.yul\":7653:7654   */\n      dup1\n        /* \"#utility.yul\":7646:7658   */\n      revert\n        /* \"#utility.yul\":7597:7660   */\n    tag_151:\n        /* \"#utility.yul\":7544:7666   */\n      pop\n      jump\t// out\n        /* \"#utility.yul\":7672:7810   */\n    tag_55:\n        /* \"#utility.yul\":7753:7785   */\n      tag_153\n        /* \"#utility.yul\":7779:7784   */\n      dup2\n        /* \"#utility.yul\":7753:7785   */\n      tag_132\n      jump\t// in\n    tag_153:\n        /* \"#utility.yul\":7746:7751   */\n      dup2\n        /* \"#utility.yul\":7743:7786   */\n      eq\n        /* \"#utility.yul\":7733:7804   */\n      tag_154\n      jumpi\n        /* \"#utility.yul\":7800:7801   */\n      0x00\n        /* \"#utility.yul\":7797:7798   */\n      dup1\n        /* \"#utility.yul\":7790:7802   */\n      revert\n        /* \"#utility.yul\":7733:7804   */\n    tag_154:\n        /* \"#utility.yul\":7672:7810   */\n      pop\n      jump\t// out\n        /* \"#utility.yul\":7816:7938   */\n    tag_59:\n        /* \"#utility.yul\":7889:7913   */\n      tag_156\n        /* \"#utility.yul\":7907:7912   */\n      dup2\n        /* \"#utility.yul\":7889:7913   */\n      tag_109\n      jump\t// in\n    tag_156:\n        /* \"#utility.yul\":7882:7887   */\n      dup2\n        /* \"#utility.yul\":7879:7914   */\n      eq\n        /* \"#utility.yul\":7869:7932   */\n      tag_157\n      jumpi\n        /* \"#utility.yul\":7928:7929   */\n      0x00\n        /* \"#utility.yul\":7925:7926   */\n      dup1\n        /* \"#utility.yul\":7918:7930   */\n      revert\n        /* \"#utility.yul\":7869:7932   */\n    tag_157:\n        /* \"#utility.yul\":7816:7938   */\n      pop\n      jump\t// out\n\n    auxdata: 0xa2646970667358221220d5c7fb4633e3363060d2008626713c973222cc856b3a9e5b78ca32d982492a2964736f6c63430008070033\n}\n",
				"bytecode": {
					"linkReferences": {},
					"object": "608060405234801561001057600080fd5b50610819806100206000396000f3fe6080604052600436106100345760003560e01c80636b55e991146100395780636bca61b914610055578063f41a0b6b1461007e575b600080fd5b610053600480360381019061004e91906104a4565b61009a565b005b34801561006157600080fd5b5061007c600480360381019061007791906104d1565b61014a565b005b61009860048036038101906100939190610477565b6102c8565b005b60008173ffffffffffffffffffffffffffffffffffffffff16346040516100c090610609565b60006040518083038185875af1925050503d80600081146100fd576040519150601f19603f3d011682016040523d82523d6000602084013e610102565b606091505b5050905080610146576040517f08c379a000000000000000000000000000000000000000000000000000000000815260040161013d9061064e565b60405180910390fd5b5050565b6000808473ffffffffffffffffffffffffffffffffffffffff16848460405160240161017792919061066e565b6040516020818303038152906040527f0f3d0204000000000000000000000000000000000000000000000000000000007bffffffffffffffffffffffffffffffffffffffffffffffffffffffff19166020820180517bffffffffffffffffffffffffffffffffffffffffffffffffffffffff838183161783525050505060405161020191906105f2565b6000604051808303816000865af19150503d806000811461023e576040519150601f19603f3d011682016040523d82523d6000602084013e610243565b606091505b509150915081610288576040517f08c379a000000000000000000000000000000000000000000000000000000000815260040161027f9061064e565b60405180910390fd5b7f80360304bd82b2c0e319d3e23ce5c7dea2dce952fb2b6bc695a70153f96d93d482826040516102b992919061061e565b60405180910390a15050505050565b6000808273ffffffffffffffffffffffffffffffffffffffff16346040516024016040516020818303038152906040527ff9820cc1000000000000000000000000000000000000000000000000000000007bffffffffffffffffffffffffffffffffffffffffffffffffffffffff19166020820180517bffffffffffffffffffffffffffffffffffffffffffffffffffffffff838183161783525050505060405161037391906105f2565b60006040518083038185875af1925050503d80600081146103b0576040519150601f19603f3d011682016040523d82523d6000602084013e6103b5565b606091505b5091509150816103fa576040517f08c379a00000000000000000000000000000000000000000000000000000000081526004016103f19061064e565b60405180910390fd5b7f80360304bd82b2c0e319d3e23ce5c7dea2dce952fb2b6bc695a70153f96d93d4828260405161042b92919061061e565b60405180910390a1505050565b6000813590506104478161079e565b92915050565b60008135905061045c816107b5565b92915050565b600081359050610471816107cc565b92915050565b60006020828403121561048d5761048c61075c565b5b600061049b84828501610438565b91505092915050565b6000602082840312156104ba576104b961075c565b5b60006104c88482850161044d565b91505092915050565b6000806000606084860312156104ea576104e961075c565b5b60006104f886828701610438565b935050602061050986828701610462565b925050604061051a86828701610462565b9150509250925092565b61052d816106f3565b82525050565b600061053e82610697565b61054881856106a2565b9350610558818560208601610729565b61056181610761565b840191505092915050565b600061057782610697565b61058181856106b3565b9350610591818560208601610729565b80840191505092915050565b60006105aa6018836106be565b91506105b582610772565b602082019050919050565b60006105cd6000836106b3565b91506105d88261079b565b600082019050919050565b6105ec8161071f565b82525050565b60006105fe828461056c565b915081905092915050565b6000610614826105c0565b9150819050919050565b60006040820190506106336000830185610524565b81810360208301526106458184610533565b90509392505050565b600060208201905081810360008301526106678161059d565b9050919050565b600060408201905061068360008301856105e3565b61069060208301846105e3565b9392505050565b600081519050919050565b600082825260208201905092915050565b600081905092915050565b600082825260208201905092915050565b60006106da826106ff565b9050919050565b60006106ec826106ff565b9050919050565b60008115159050919050565b600073ffffffffffffffffffffffffffffffffffffffff82169050919050565b6000819050919050565b60005b8381101561074757808201518184015260208101905061072c565b83811115610756576000848401525b50505050565b600080fd5b6000601f19601f8301169050919050565b7f6661696c656420746f207472616e736665722065746865720000000000000000600082015250565b50565b6107a7816106cf565b81146107b257600080fd5b50565b6107be816106e1565b81146107c957600080fd5b50565b6107d58161071f565b81146107e057600080fd5b5056fea2646970667358221220d5c7fb4633e3363060d2008626713c973222cc856b3a9e5b78ca32d982492a2964736f6c63430008070033",
					"opcodes": "PUSH1 0x80 PUSH1 0x40 MSTORE CALLVALUE DUP1 ISZERO PUSH2 0x10 JUMPI PUSH1 0x0 DUP1 REVERT JUMPDEST POP PUSH2 0x819 DUP1 PUSH2 0x20 PUSH1 0x0 CODECOPY PUSH1 0x0 RETURN INVALID PUSH1 0x80 PUSH1 0x40 MSTORE PUSH1 0x4 CALLDATASIZE LT PUSH2 0x34 JUMPI PUSH1 0x0 CALLDATALOAD PUSH1 0xE0 SHR DUP1 PUSH4 0x6B55E991 EQ PUSH2 0x39 JUMPI DUP1 PUSH4 0x6BCA61B9 EQ PUSH2 0x55 JUMPI DUP1 PUSH4 0xF41A0B6B EQ PUSH2 0x7E JUMPI JUMPDEST PUSH1 0x0 DUP1 REVERT JUMPDEST PUSH2 0x53 PUSH1 0x4 DUP1 CALLDATASIZE SUB DUP2 ADD SWAP1 PUSH2 0x4E SWAP2 SWAP1 PUSH2 0x4A4 JUMP JUMPDEST PUSH2 0x9A JUMP JUMPDEST STOP JUMPDEST CALLVALUE DUP1 ISZERO PUSH2 0x61 JUMPI PUSH1 0x0 DUP1 REVERT JUMPDEST POP PUSH2 0x7C PUSH1 0x4 DUP1 CALLDATASIZE SUB DUP2 ADD SWAP1 PUSH2 0x77 SWAP2 SWAP1 PUSH2 0x4D1 JUMP JUMPDEST PUSH2 0x14A JUMP JUMPDEST STOP JUMPDEST PUSH2 0x98 PUSH1 0x4 DUP1 CALLDATASIZE SUB DUP2 ADD SWAP1 PUSH2 0x93 SWAP2 SWAP1 PUSH2 0x477 JUMP JUMPDEST PUSH2 0x2C8 JUMP JUMPDEST STOP JUMPDEST PUSH1 0x0 DUP2 PUSH20 0xFFFFFFFFFFFFFFFFFFFFFFFFFFFFFFFFFFFFFFFF AND CALLVALUE PUSH1 0x40 MLOAD PUSH2 0xC0 SWAP1 PUSH2 0x609 JUMP JUMPDEST PUSH1 0x0 PUSH1 0x40 MLOAD DUP1 DUP4 SUB DUP2 DUP6 DUP8 GAS CALL SWAP3 POP POP POP RETURNDATASIZE DUP1 PUSH1 0x0 DUP2 EQ PUSH2 0xFD JUMPI PUSH1 0x40 MLOAD SWAP2 POP PUSH1 0x1F NOT PUSH1 0x3F RETURNDATASIZE ADD AND DUP3 ADD PUSH1 0x40 MSTORE RETURNDATASIZE DUP3 MSTORE RETURNDATASIZE PUSH1 0x0 PUSH1 0x20 DUP5 ADD RETURNDATACOPY PUSH2 0x102 JUMP JUMPDEST PUSH1 0x60 SWAP2 POP JUMPDEST POP POP SWAP1 POP DUP1 PUSH2 0x146 JUMPI PUSH1 0x40 MLOAD PUSH32 0x8C379A000000000000000000000000000000000000000000000000000000000 DUP2 MSTORE PUSH1 0x4 ADD PUSH2 0x13D SWAP1 PUSH2 0x64E JUMP JUMPDEST PUSH1 0x40 MLOAD DUP1 SWAP2 SUB SWAP1 REVERT JUMPDEST POP POP JUMP JUMPDEST PUSH1 0x0 DUP1 DUP5 PUSH20 0xFFFFFFFFFFFFFFFFFFFFFFFFFFFFFFFFFFFFFFFF AND DUP5 DUP5 PUSH1 0x40 MLOAD PUSH1 0x24 ADD PUSH2 0x177 SWAP3 SWAP2 SWAP1 PUSH2 0x66E JUMP JUMPDEST PUSH1 0x40 MLOAD PUSH1 0x20 DUP2 DUP4 SUB SUB DUP2 MSTORE SWAP1 PUSH1 0x40 MSTORE PUSH32 0xF3D020400000000000000000000000000000000000000000000000000000000 PUSH28 0xFFFFFFFFFFFFFFFFFFFFFFFFFFFFFFFFFFFFFFFFFFFFFFFFFFFFFFFF NOT AND PUSH1 0x20 DUP3 ADD DUP1 MLOAD PUSH28 0xFFFFFFFFFFFFFFFFFFFFFFFFFFFFFFFFFFFFFFFFFFFFFFFFFFFFFFFF DUP4 DUP2 DUP4 AND OR DUP4 MSTORE POP POP POP POP PUSH1 0x40 MLOAD PUSH2 0x201 SWAP2 SWAP1 PUSH2 0x5F2 JUMP JUMPDEST PUSH1 0x0 PUSH1 0x40 MLOAD DUP1 DUP4 SUB DUP2 PUSH1 0x0 DUP7 GAS CALL SWAP2 POP POP RETURNDATASIZE DUP1 PUSH1 0x0 DUP2 EQ PUSH2 0x23E JUMPI PUSH1 0x40 MLOAD SWAP2 POP PUSH1 0x1F NOT PUSH1 0x3F RETURNDATASIZE ADD AND DUP3 ADD PUSH1 0x40 MSTORE RETURNDATASIZE DUP3 MSTORE RETURNDATASIZE PUSH1 0x0 PUSH1 0x20 DUP5 ADD RETURNDATACOPY PUSH2 0x243 JUMP JUMPDEST PUSH1 0x60 SWAP2 POP JUMPDEST POP SWAP2 POP SWAP2 POP DUP2 PUSH2 0x288 JUMPI PUSH1 0x40 MLOAD PUSH32 0x8C379A000000000000000000000000000000000000000000000000000000000 DUP2 MSTORE PUSH1 0x4 ADD PUSH2 0x27F SWAP1 PUSH2 0x64E JUMP JUMPDEST PUSH1 0x40 MLOAD DUP1 SWAP2 SUB SWAP1 REVERT JUMPDEST PUSH32 0x80360304BD82B2C0E319D3E23CE5C7DEA2DCE952FB2B6BC695A70153F96D93D4 DUP3 DUP3 PUSH1 0x40 MLOAD PUSH2 0x2B9 SWAP3 SWAP2 SWAP1 PUSH2 0x61E JUMP JUMPDEST PUSH1 0x40 MLOAD DUP1 SWAP2 SUB SWAP1 LOG1 POP POP POP POP POP JUMP JUMPDEST PUSH1 0x0 DUP1 DUP3 PUSH20 0xFFFFFFFFFFFFFFFFFFFFFFFFFFFFFFFFFFFFFFFF AND CALLVALUE PUSH1 0x40 MLOAD PUSH1 0x24 ADD PUSH1 0x40 MLOAD PUSH1 0x20 DUP2 DUP4 SUB SUB DUP2 MSTORE SWAP1 PUSH1 0x40 MSTORE PUSH32 0xF9820CC100000000000000000000000000000000000000000000000000000000 PUSH28 0xFFFFFFFFFFFFFFFFFFFFFFFFFFFFFFFFFFFFFFFFFFFFFFFFFFFFFFFF NOT AND PUSH1 0x20 DUP3 ADD DUP1 MLOAD PUSH28 0xFFFFFFFFFFFFFFFFFFFFFFFFFFFFFFFFFFFFFFFFFFFFFFFFFFFFFFFF DUP4 DUP2 DUP4 AND OR DUP4 MSTORE POP POP POP POP PUSH1 0x40 MLOAD PUSH2 0x373 SWAP2 SWAP1 PUSH2 0x5F2 JUMP JUMPDEST PUSH1 0x0 PUSH1 0x40 MLOAD DUP1 DUP4 SUB DUP2 DUP6 DUP8 GAS CALL SWAP3 POP POP POP RETURNDATASIZE DUP1 PUSH1 0x0 DUP2 EQ PUSH2 0x3B0 JUMPI PUSH1 0x40 MLOAD SWAP2 POP PUSH1 0x1F NOT PUSH1 0x3F RETURNDATASIZE ADD AND DUP3 ADD PUSH1 0x40 MSTORE RETURNDATASIZE DUP3 MSTORE RETURNDATASIZE PUSH1 0x0 PUSH1 0x20 DUP5 ADD RETURNDATACOPY PUSH2 0x3B5 JUMP JUMPDEST PUSH1 0x60 SWAP2 POP JUMPDEST POP SWAP2 POP SWAP2 POP DUP2 PUSH2 0x3FA JUMPI PUSH1 0x40 MLOAD PUSH32 0x8C379A000000000000000000000000000000000000000000000000000000000 DUP2 MSTORE PUSH1 0x4 ADD PUSH2 0x3F1 SWAP1 PUSH2 0x64E JUMP JUMPDEST PUSH1 0x40 MLOAD DUP1 SWAP2 SUB SWAP1 REVERT JUMPDEST PUSH32 0x80360304BD82B2C0E319D3E23CE5C7DEA2DCE952FB2B6BC695A70153F96D93D4 DUP3 DUP3 PUSH1 0x40 MLOAD PUSH2 0x42B SWAP3 SWAP2 SWAP1 PUSH2 0x61E JUMP JUMPDEST PUSH1 0x40 MLOAD DUP1 SWAP2 SUB SWAP1 LOG1 POP POP POP JUMP JUMPDEST PUSH1 0x0 DUP2 CALLDATALOAD SWAP1 POP PUSH2 0x447 DUP2 PUSH2 0x79E JUMP JUMPDEST SWAP3 SWAP2 POP POP JUMP JUMPDEST PUSH1 0x0 DUP2 CALLDATALOAD SWAP1 POP PUSH2 0x45C DUP2 PUSH2 0x7B5 JUMP JUMPDEST SWAP3 SWAP2 POP POP JUMP JUMPDEST PUSH1 0x0 DUP2 CALLDATALOAD SWAP1 POP PUSH2 0x471 DUP2 PUSH2 0x7CC JUMP JUMPDEST SWAP3 SWAP2 POP POP JUMP JUMPDEST PUSH1 0x0 PUSH1 0x20 DUP3 DUP5 SUB SLT ISZERO PUSH2 0x48D JUMPI PUSH2 0x48C PUSH2 0x75C JUMP JUMPDEST JUMPDEST PUSH1 0x0 PUSH2 0x49B DUP5 DUP3 DUP6 ADD PUSH2 0x438 JUMP JUMPDEST SWAP2 POP POP SWAP3 SWAP2 POP POP JUMP JUMPDEST PUSH1 0x0 PUSH1 0x20 DUP3 DUP5 SUB SLT ISZERO PUSH2 0x4BA JUMPI PUSH2 0x4B9 PUSH2 0x75C JUMP JUMPDEST JUMPDEST PUSH1 0x0 PUSH2 0x4C8 DUP5 DUP3 DUP6 ADD PUSH2 0x44D JUMP JUMPDEST SWAP2 POP POP SWAP3 SWAP2 POP POP JUMP JUMPDEST PUSH1 0x0 DUP1 PUSH1 0x0 PUSH1 0x60 DUP5 DUP7 SUB SLT ISZERO PUSH2 0x4EA JUMPI PUSH2 0x4E9 PUSH2 0x75C JUMP JUMPDEST JUMPDEST PUSH1 0x0 PUSH2 0x4F8 DUP7 DUP3 DUP8 ADD PUSH2 0x438 JUMP JUMPDEST SWAP4 POP POP PUSH1 0x20 PUSH2 0x509 DUP7 DUP3 DUP8 ADD PUSH2 0x462 JUMP JUMPDEST SWAP3 POP POP PUSH1 0x40 PUSH2 0x51A DUP7 DUP3 DUP8 ADD PUSH2 0x462 JUMP JUMPDEST SWAP2 POP POP SWAP3 POP SWAP3 POP SWAP3 JUMP JUMPDEST PUSH2 0x52D DUP2 PUSH2 0x6F3 JUMP JUMPDEST DUP3 MSTORE POP POP JUMP JUMPDEST PUSH1 0x0 PUSH2 0x53E DUP3 PUSH2 0x697 JUMP JUMPDEST PUSH2 0x548 DUP2 DUP6 PUSH2 0x6A2 JUMP JUMPDEST SWAP4 POP PUSH2 0x558 DUP2 DUP6 PUSH1 0x20 DUP7 ADD PUSH2 0x729 JUMP JUMPDEST PUSH2 0x561 DUP2 PUSH2 0x761 JUMP JUMPDEST DUP5 ADD SWAP2 POP POP SWAP3 SWAP2 POP POP JUMP JUMPDEST PUSH1 0x0 PUSH2 0x577 DUP3 PUSH2 0x697 JUMP JUMPDEST PUSH2 0x581 DUP2 DUP6 PUSH2 0x6B3 JUMP JUMPDEST SWAP4 POP PUSH2 0x591 DUP2 DUP6 PUSH1 0x20 DUP7 ADD PUSH2 0x729 JUMP JUMPDEST DUP1 DUP5 ADD SWAP2 POP POP SWAP3 SWAP2 POP POP JUMP JUMPDEST PUSH1 0x0 PUSH2 0x5AA PUSH1 0x18 DUP4 PUSH2 0x6BE JUMP JUMPDEST SWAP2 POP PUSH2 0x5B5 DUP3 PUSH2 0x772 JUMP JUMPDEST PUSH1 0x20 DUP3 ADD SWAP1 POP SWAP2 SWAP1 POP JUMP JUMPDEST PUSH1 0x0 PUSH2 0x5CD PUSH1 0x0 DUP4 PUSH2 0x6B3 JUMP JUMPDEST SWAP2 POP PUSH2 0x5D8 DUP3 PUSH2 0x79B JUMP JUMPDEST PUSH1 0x0 DUP3 ADD SWAP1 POP SWAP2 SWAP1 POP JUMP JUMPDEST PUSH2 0x5EC DUP2 PUSH2 0x71F JUMP JUMPDEST DUP3 MSTORE POP POP JUMP JUMPDEST PUSH1 0x0 PUSH2 0x5FE DUP3 DUP5 PUSH2 0x56C JUMP JUMPDEST SWAP2 POP DUP2 SWAP1 POP SWAP3 SWAP2 POP POP JUMP JUMPDEST PUSH1 0x0 PUSH2 0x614 DUP3 PUSH2 0x5C0 JUMP JUMPDEST SWAP2 POP DUP2 SWAP1 POP SWAP2 SWAP1 POP JUMP JUMPDEST PUSH1 0x0 PUSH1 0x40 DUP3 ADD SWAP1 POP PUSH2 0x633 PUSH1 0x0 DUP4 ADD DUP6 PUSH2 0x524 JUMP JUMPDEST DUP2 DUP2 SUB PUSH1 0x20 DUP4 ADD MSTORE PUSH2 0x645 DUP2 DUP5 PUSH2 0x533 JUMP JUMPDEST SWAP1 POP SWAP4 SWAP3 POP POP POP JUMP JUMPDEST PUSH1 0x0 PUSH1 0x20 DUP3 ADD SWAP1 POP DUP2 DUP2 SUB PUSH1 0x0 DUP4 ADD MSTORE PUSH2 0x667 DUP2 PUSH2 0x59D JUMP JUMPDEST SWAP1 POP SWAP2 SWAP1 POP JUMP JUMPDEST PUSH1 0x0 PUSH1 0x40 DUP3 ADD SWAP1 POP PUSH2 0x683 PUSH1 0x0 DUP4 ADD DUP6 PUSH2 0x5E3 JUMP JUMPDEST PUSH2 0x690 PUSH1 0x20 DUP4 ADD DUP5 PUSH2 0x5E3 JUMP JUMPDEST SWAP4 SWAP3 POP POP POP JUMP JUMPDEST PUSH1 0x0 DUP2 MLOAD SWAP1 POP SWAP2 SWAP1 POP JUMP JUMPDEST PUSH1 0x0 DUP3 DUP3 MSTORE PUSH1 0x20 DUP3 ADD SWAP1 POP SWAP3 SWAP2 POP POP JUMP JUMPDEST PUSH1 0x0 DUP2 SWAP1 POP SWAP3 SWAP2 POP POP JUMP JUMPDEST PUSH1 0x0 DUP3 DUP3 MSTORE PUSH1 0x20 DUP3 ADD SWAP1 POP SWAP3 SWAP2 POP POP JUMP JUMPDEST PUSH1 0x0 PUSH2 0x6DA DUP3 PUSH2 0x6FF JUMP JUMPDEST SWAP1 POP SWAP2 SWAP1 POP JUMP JUMPDEST PUSH1 0x0 PUSH2 0x6EC DUP3 PUSH2 0x6FF JUMP JUMPDEST SWAP1 POP SWAP2 SWAP1 POP JUMP JUMPDEST PUSH1 0x0 DUP2 ISZERO ISZERO SWAP1 POP SWAP2 SWAP1 POP JUMP JUMPDEST PUSH1 0x0 PUSH20 0xFFFFFFFFFFFFFFFFFFFFFFFFFFFFFFFFFFFFFFFF DUP3 AND SWAP1 POP SWAP2 SWAP1 POP JUMP JUMPDEST PUSH1 0x0 DUP2 SWAP1 POP SWAP2 SWAP1 POP JUMP JUMPDEST PUSH1 0x0 JUMPDEST DUP4 DUP2 LT ISZERO PUSH2 0x747 JUMPI DUP1 DUP3 ADD MLOAD DUP2 DUP5 ADD MSTORE PUSH1 0x20 DUP2 ADD SWAP1 POP PUSH2 0x72C JUMP JUMPDEST DUP4 DUP2 GT ISZERO PUSH2 0x756 JUMPI PUSH1 0x0 DUP5 DUP5 ADD MSTORE JUMPDEST POP POP POP POP JUMP JUMPDEST PUSH1 0x0 DUP1 REVERT JUMPDEST PUSH1 0x0 PUSH1 0x1F NOT PUSH1 0x1F DUP4 ADD AND SWAP1 POP SWAP2 SWAP1 POP JUMP JUMPDEST PUSH32 0x6661696C656420746F207472616E736665722065746865720000000000000000 PUSH1 0x0 DUP3 ADD MSTORE POP JUMP JUMPDEST POP JUMP JUMPDEST PUSH2 0x7A7 DUP2 PUSH2 0x6CF JUMP JUMPDEST DUP2 EQ PUSH2 0x7B2 JUMPI PUSH1 0x0 DUP1 REVERT JUMPDEST POP JUMP JUMPDEST PUSH2 0x7BE DUP2 PUSH2 0x6E1 JUMP JUMPDEST DUP2 EQ PUSH2 0x7C9 JUMPI PUSH1 0x0 DUP1 REVERT JUMPDEST POP JUMP JUMPDEST PUSH2 0x7D5 DUP2 PUSH2 0x71F JUMP JUMPDEST DUP2 EQ PUSH2 0x7E0 JUMPI PUSH1 0x0 DUP1 REVERT JUMPDEST POP JUMP INVALID LOG2 PUSH5 0x6970667358 0x22 SLT KECCAK256 0xD5 0xC7 0xFB CHAINID CALLER 0xE3 CALLDATASIZE ADDRESS PUSH1 0xD2 STOP DUP7 0x26 PUSH18 0x3C973222CC856B3A9E5B78CA32D982492A29 PUSH5 0x736F6C6343 STOP ADDMOD SMOD STOP CALLER "
				},
				"gasEstimates": {
					"creation": {
						"codeDepositCost": "414600",
						"executionCost": "449",
						"totalCost": "415049"
					},
					"external": {
						"callMethod(address,uint256,uint256)": "infinite",
						"callMethod3(address)": "infinite",
						"transferEther(address)": "infinite"
					}
				},
				"methodIdentifiers": {
					"callMethod(address,uint256,uint256)": "6bca61b9",
					"callMethod3(address)": "f41a0b6b",
					"transferEther(address)": "6b55e991"
				}
			},
			"storageLayout": {
				"storage": [],
				"types": null
			},
			"userdoc": {
				"kind": "user",
				"methods": {},
				"version": 1
			}
		}
	}
}