{
	"lecture/lec36.sol": {
		"add": {
			"abi": [
				{
					"anonymous": false,
					"inputs": [
						{
							"indexed": false,
							"internalType": "string",
							"name": "_str",
							"type": "string"
						}
					],
					"name": "JustFallback",
					"type": "event"
				},
				{
					"anonymous": false,
					"inputs": [
						{
							"indexed": false,
							"internalType": "string",
							"name": "_str",
							"type": "string"
						}
					],
					"name": "JustReceive",
					"type": "event"
				},
				{
					"stateMutability": "payable",
					"type": "fallback"
				},
				{
					"inputs": [
						{
							"internalType": "uint256",
							"name": "_num1",
							"type": "uint256"
						},
						{
							"internalType": "uint256",
							"name": "_num2",
							"type": "uint256"
						}
					],
					"name": "addNumber",
					"outputs": [
						{
							"internalType": "uint256",
							"name": "",
							"type": "uint256"
						}
					],
					"stateMutability": "pure",
					"type": "function"
				},
				{
					"stateMutability": "payable",
					"type": "receive"
				}
			],
			"devdoc": {
				"kind": "dev",
				"methods": {},
				"version": 1
			},
			"evm": {
				"assembly": "    /* \"lecture/lec36.sol\":409:799  contract add{... */\n  mstore(0x40, 0x80)\n  callvalue\n  dup1\n  iszero\n  tag_1\n  jumpi\n  0x00\n  dup1\n  revert\ntag_1:\n  pop\n  dataSize(sub_0)\n  dup1\n  dataOffset(sub_0)\n  0x00\n  codecopy\n  0x00\n  return\nstop\n\nsub_0: assembly {\n        /* \"lecture/lec36.sol\":409:799  contract add{... */\n      mstore(0x40, 0x80)\n      jumpi(tag_1, lt(calldatasize, 0x04))\n      shr(0xe0, calldataload(0x00))\n      dup1\n      0x0f3d0204\n      eq\n      tag_3\n      jumpi\n      jump(tag_2)\n    tag_1:\n      jumpi(tag_2, calldatasize)\n        /* \"lecture/lec36.sol\":754:790  JustReceive(\"JustReceive is called\") */\n      0xea76936da7e733de51185273d52362d5abc78a41b970e52e5a32d35a187566c2\n      mload(0x40)\n      tag_6\n      swap1\n      tag_7\n      jump\t// in\n    tag_6:\n      mload(0x40)\n      dup1\n      swap2\n      sub\n      swap1\n      log1\n        /* \"lecture/lec36.sol\":409:799  contract add{... */\n      stop\n    tag_2:\n        /* \"lecture/lec36.sol\":665:703  JustFallback(\"JustFallback is called\") */\n      0xa34784e3343c15d43f7dcaa7f7575208ff57743c4f087aade7e1f63d9f87b35c\n      mload(0x40)\n      tag_10\n      swap1\n      tag_11\n      jump\t// in\n    tag_10:\n      mload(0x40)\n      dup1\n      swap2\n      sub\n      swap1\n      log1\n        /* \"lecture/lec36.sol\":409:799  contract add{... */\n      stop\n        /* \"lecture/lec36.sol\":505:619  function addNumber(uint256 _num1, uint256 _num2) public pure returns(uint256){... */\n    tag_3:\n      callvalue\n      dup1\n      iszero\n      tag_12\n      jumpi\n      0x00\n      dup1\n      revert\n    tag_12:\n      pop\n      tag_13\n      0x04\n      dup1\n      calldatasize\n      sub\n      dup2\n      add\n      swap1\n      tag_14\n      swap2\n      swap1\n      tag_15\n      jump\t// in\n    tag_14:\n      tag_16\n      jump\t// in\n    tag_13:\n      mload(0x40)\n      tag_17\n      swap2\n      swap1\n      tag_18\n      jump\t// in\n    tag_17:\n      mload(0x40)\n      dup1\n      swap2\n      sub\n      swap1\n      return\n    tag_16:\n        /* \"lecture/lec36.sol\":574:581  uint256 */\n      0x00\n        /* \"lecture/lec36.sol\":607:612  _num2 */\n      dup2\n        /* \"lecture/lec36.sol\":599:604  _num1 */\n      dup4\n        /* \"lecture/lec36.sol\":599:612  _num1 + _num2 */\n      tag_20\n      swap2\n      swap1\n      tag_21\n      jump\t// in\n    tag_20:\n        /* \"lecture/lec36.sol\":592:612  return _num1 + _num2 */\n      swap1\n      pop\n        /* \"lecture/lec36.sol\":505:619  function addNumber(uint256 _num1, uint256 _num2) public pure returns(uint256){... */\n      swap3\n      swap2\n      pop\n      pop\n      jump\t// out\n        /* \"#utility.yul\":7:146   */\n    tag_23:\n        /* \"#utility.yul\":53:58   */\n      0x00\n        /* \"#utility.yul\":91:97   */\n      dup2\n        /* \"#utility.yul\":78:98   */\n      calldataload\n        /* \"#utility.yul\":69:98   */\n      swap1\n      pop\n        /* \"#utility.yul\":107:140   */\n      tag_25\n        /* \"#utility.yul\":134:139   */\n      dup2\n        /* \"#utility.yul\":107:140   */\n      tag_26\n      jump\t// in\n    tag_25:\n        /* \"#utility.yul\":7:146   */\n      swap3\n      swap2\n      pop\n      pop\n      jump\t// out\n        /* \"#utility.yul\":152:626   */\n    tag_15:\n        /* \"#utility.yul\":220:226   */\n      0x00\n        /* \"#utility.yul\":228:234   */\n      dup1\n        /* \"#utility.yul\":277:279   */\n      0x40\n        /* \"#utility.yul\":265:274   */\n      dup4\n        /* \"#utility.yul\":256:263   */\n      dup6\n        /* \"#utility.yul\":252:275   */\n      sub\n        /* \"#utility.yul\":248:280   */\n      slt\n        /* \"#utility.yul\":245:364   */\n      iszero\n      tag_28\n      jumpi\n        /* \"#utility.yul\":283:362   */\n      tag_29\n      tag_30\n      jump\t// in\n    tag_29:\n        /* \"#utility.yul\":245:364   */\n    tag_28:\n        /* \"#utility.yul\":403:404   */\n      0x00\n        /* \"#utility.yul\":428:481   */\n      tag_31\n        /* \"#utility.yul\":473:480   */\n      dup6\n        /* \"#utility.yul\":464:470   */\n      dup3\n        /* \"#utility.yul\":453:462   */\n      dup7\n        /* \"#utility.yul\":449:471   */\n      add\n        /* \"#utility.yul\":428:481   */\n      tag_23\n      jump\t// in\n    tag_31:\n        /* \"#utility.yul\":418:481   */\n      swap3\n      pop\n        /* \"#utility.yul\":374:491   */\n      pop\n        /* \"#utility.yul\":530:532   */\n      0x20\n        /* \"#utility.yul\":556:609   */\n      tag_32\n        /* \"#utility.yul\":601:608   */\n      dup6\n        /* \"#utility.yul\":592:598   */\n      dup3\n        /* \"#utility.yul\":581:590   */\n      dup7\n        /* \"#utility.yul\":577:599   */\n      add\n        /* \"#utility.yul\":556:609   */\n      tag_23\n      jump\t// in\n    tag_32:\n        /* \"#utility.yul\":546:609   */\n      swap2\n      pop\n        /* \"#utility.yul\":501:619   */\n      pop\n        /* \"#utility.yul\":152:626   */\n      swap3\n      pop\n      swap3\n      swap1\n      pop\n      jump\t// out\n        /* \"#utility.yul\":632:998   */\n    tag_33:\n        /* \"#utility.yul\":774:777   */\n      0x00\n        /* \"#utility.yul\":795:862   */\n      tag_35\n        /* \"#utility.yul\":859:861   */\n      0x15\n        /* \"#utility.yul\":854:857   */\n      dup4\n        /* \"#utility.yul\":795:862   */\n      tag_36\n      jump\t// in\n    tag_35:\n        /* \"#utility.yul\":788:862   */\n      swap2\n      pop\n        /* \"#utility.yul\":871:964   */\n      tag_37\n        /* \"#utility.yul\":960:963   */\n      dup3\n        /* \"#utility.yul\":871:964   */\n      tag_38\n      jump\t// in\n    tag_37:\n        /* \"#utility.yul\":989:991   */\n      0x20\n        /* \"#utility.yul\":984:987   */\n      dup3\n        /* \"#utility.yul\":980:992   */\n      add\n        /* \"#utility.yul\":973:992   */\n      swap1\n      pop\n        /* \"#utility.yul\":632:998   */\n      swap2\n      swap1\n      pop\n      jump\t// out\n        /* \"#utility.yul\":1004:1370   */\n    tag_39:\n        /* \"#utility.yul\":1146:1149   */\n      0x00\n        /* \"#utility.yul\":1167:1234   */\n      tag_41\n        /* \"#utility.yul\":1231:1233   */\n      0x16\n        /* \"#utility.yul\":1226:1229   */\n      dup4\n        /* \"#utility.yul\":1167:1234   */\n      tag_36\n      jump\t// in\n    tag_41:\n        /* \"#utility.yul\":1160:1234   */\n      swap2\n      pop\n        /* \"#utility.yul\":1243:1336   */\n      tag_42\n        /* \"#utility.yul\":1332:1335   */\n      dup3\n        /* \"#utility.yul\":1243:1336   */\n      tag_43\n      jump\t// in\n    tag_42:\n        /* \"#utility.yul\":1361:1363   */\n      0x20\n        /* \"#utility.yul\":1356:1359   */\n      dup3\n        /* \"#utility.yul\":1352:1364   */\n      add\n        /* \"#utility.yul\":1345:1364   */\n      swap1\n      pop\n        /* \"#utility.yul\":1004:1370   */\n      swap2\n      swap1\n      pop\n      jump\t// out\n        /* \"#utility.yul\":1376:1494   */\n    tag_44:\n        /* \"#utility.yul\":1463:1487   */\n      tag_46\n        /* \"#utility.yul\":1481:1486   */\n      dup2\n        /* \"#utility.yul\":1463:1487   */\n      tag_47\n      jump\t// in\n    tag_46:\n        /* \"#utility.yul\":1458:1461   */\n      dup3\n        /* \"#utility.yul\":1451:1488   */\n      mstore\n        /* \"#utility.yul\":1376:1494   */\n      pop\n      pop\n      jump\t// out\n        /* \"#utility.yul\":1500:1919   */\n    tag_7:\n        /* \"#utility.yul\":1666:1670   */\n      0x00\n        /* \"#utility.yul\":1704:1706   */\n      0x20\n        /* \"#utility.yul\":1693:1702   */\n      dup3\n        /* \"#utility.yul\":1689:1707   */\n      add\n        /* \"#utility.yul\":1681:1707   */\n      swap1\n      pop\n        /* \"#utility.yul\":1753:1762   */\n      dup2\n        /* \"#utility.yul\":1747:1751   */\n      dup2\n        /* \"#utility.yul\":1743:1763   */\n      sub\n        /* \"#utility.yul\":1739:1740   */\n      0x00\n        /* \"#utility.yul\":1728:1737   */\n      dup4\n        /* \"#utility.yul\":1724:1741   */\n      add\n        /* \"#utility.yul\":1717:1764   */\n      mstore\n        /* \"#utility.yul\":1781:1912   */\n      tag_49\n        /* \"#utility.yul\":1907:1911   */\n      dup2\n        /* \"#utility.yul\":1781:1912   */\n      tag_33\n      jump\t// in\n    tag_49:\n        /* \"#utility.yul\":1773:1912   */\n      swap1\n      pop\n        /* \"#utility.yul\":1500:1919   */\n      swap2\n      swap1\n      pop\n      jump\t// out\n        /* \"#utility.yul\":1925:2344   */\n    tag_11:\n        /* \"#utility.yul\":2091:2095   */\n      0x00\n        /* \"#utility.yul\":2129:2131   */\n      0x20\n        /* \"#utility.yul\":2118:2127   */\n      dup3\n        /* \"#utility.yul\":2114:2132   */\n      add\n        /* \"#utility.yul\":2106:2132   */\n      swap1\n      pop\n        /* \"#utility.yul\":2178:2187   */\n      dup2\n        /* \"#utility.yul\":2172:2176   */\n      dup2\n        /* \"#utility.yul\":2168:2188   */\n      sub\n        /* \"#utility.yul\":2164:2165   */\n      0x00\n        /* \"#utility.yul\":2153:2162   */\n      dup4\n        /* \"#utility.yul\":2149:2166   */\n      add\n        /* \"#utility.yul\":2142:2189   */\n      mstore\n        /* \"#utility.yul\":2206:2337   */\n      tag_51\n        /* \"#utility.yul\":2332:2336   */\n      dup2\n        /* \"#utility.yul\":2206:2337   */\n      tag_39\n      jump\t// in\n    tag_51:\n        /* \"#utility.yul\":2198:2337   */\n      swap1\n      pop\n        /* \"#utility.yul\":1925:2344   */\n      swap2\n      swap1\n      pop\n      jump\t// out\n        /* \"#utility.yul\":2350:2572   */\n    tag_18:\n        /* \"#utility.yul\":2443:2447   */\n      0x00\n        /* \"#utility.yul\":2481:2483   */\n      0x20\n        /* \"#utility.yul\":2470:2479   */\n      dup3\n        /* \"#utility.yul\":2466:2484   */\n      add\n        /* \"#utility.yul\":2458:2484   */\n      swap1\n      pop\n        /* \"#utility.yul\":2494:2565   */\n      tag_53\n        /* \"#utility.yul\":2562:2563   */\n      0x00\n        /* \"#utility.yul\":2551:2560   */\n      dup4\n        /* \"#utility.yul\":2547:2564   */\n      add\n        /* \"#utility.yul\":2538:2544   */\n      dup5\n        /* \"#utility.yul\":2494:2565   */\n      tag_44\n      jump\t// in\n    tag_53:\n        /* \"#utility.yul\":2350:2572   */\n      swap3\n      swap2\n      pop\n      pop\n      jump\t// out\n        /* \"#utility.yul\":2659:2828   */\n    tag_36:\n        /* \"#utility.yul\":2743:2754   */\n      0x00\n        /* \"#utility.yul\":2777:2783   */\n      dup3\n        /* \"#utility.yul\":2772:2775   */\n      dup3\n        /* \"#utility.yul\":2765:2784   */\n      mstore\n        /* \"#utility.yul\":2817:2821   */\n      0x20\n        /* \"#utility.yul\":2812:2815   */\n      dup3\n        /* \"#utility.yul\":2808:2822   */\n      add\n        /* \"#utility.yul\":2793:2822   */\n      swap1\n      pop\n        /* \"#utility.yul\":2659:2828   */\n      swap3\n      swap2\n      pop\n      pop\n      jump\t// out\n        /* \"#utility.yul\":2834:3139   */\n    tag_21:\n        /* \"#utility.yul\":2874:2877   */\n      0x00\n        /* \"#utility.yul\":2893:2913   */\n      tag_58\n        /* \"#utility.yul\":2911:2912   */\n      dup3\n        /* \"#utility.yul\":2893:2913   */\n      tag_47\n      jump\t// in\n    tag_58:\n        /* \"#utility.yul\":2888:2913   */\n      swap2\n      pop\n        /* \"#utility.yul\":2927:2947   */\n      tag_59\n        /* \"#utility.yul\":2945:2946   */\n      dup4\n        /* \"#utility.yul\":2927:2947   */\n      tag_47\n      jump\t// in\n    tag_59:\n        /* \"#utility.yul\":2922:2947   */\n      swap3\n      pop\n        /* \"#utility.yul\":3081:3082   */\n      dup3\n        /* \"#utility.yul\":3013:3079   */\n      0xffffffffffffffffffffffffffffffffffffffffffffffffffffffffffffffff\n        /* \"#utility.yul\":3009:3083   */\n      sub\n        /* \"#utility.yul\":3006:3007   */\n      dup3\n        /* \"#utility.yul\":3003:3084   */\n      gt\n        /* \"#utility.yul\":3000:3107   */\n      iszero\n      tag_60\n      jumpi\n        /* \"#utility.yul\":3087:3105   */\n      tag_61\n      tag_62\n      jump\t// in\n    tag_61:\n        /* \"#utility.yul\":3000:3107   */\n    tag_60:\n        /* \"#utility.yul\":3131:3132   */\n      dup3\n        /* \"#utility.yul\":3128:3129   */\n      dup3\n        /* \"#utility.yul\":3124:3133   */\n      add\n        /* \"#utility.yul\":3117:3133   */\n      swap1\n      pop\n        /* \"#utility.yul\":2834:3139   */\n      swap3\n      swap2\n      pop\n      pop\n      jump\t// out\n        /* \"#utility.yul\":3145:3222   */\n    tag_47:\n        /* \"#utility.yul\":3182:3189   */\n      0x00\n        /* \"#utility.yul\":3211:3216   */\n      dup2\n        /* \"#utility.yul\":3200:3216   */\n      swap1\n      pop\n        /* \"#utility.yul\":3145:3222   */\n      swap2\n      swap1\n      pop\n      jump\t// out\n        /* \"#utility.yul\":3228:3408   */\n    tag_62:\n        /* \"#utility.yul\":3276:3353   */\n      0x4e487b7100000000000000000000000000000000000000000000000000000000\n        /* \"#utility.yul\":3273:3274   */\n      0x00\n        /* \"#utility.yul\":3266:3354   */\n      mstore\n        /* \"#utility.yul\":3373:3377   */\n      0x11\n        /* \"#utility.yul\":3370:3371   */\n      0x04\n        /* \"#utility.yul\":3363:3378   */\n      mstore\n        /* \"#utility.yul\":3397:3401   */\n      0x24\n        /* \"#utility.yul\":3394:3395   */\n      0x00\n        /* \"#utility.yul\":3387:3402   */\n      revert\n        /* \"#utility.yul\":3537:3654   */\n    tag_30:\n        /* \"#utility.yul\":3646:3647   */\n      0x00\n        /* \"#utility.yul\":3643:3644   */\n      dup1\n        /* \"#utility.yul\":3636:3648   */\n      revert\n        /* \"#utility.yul\":3660:3831   */\n    tag_38:\n        /* \"#utility.yul\":3800:3823   */\n      0x4a757374526563656976652069732063616c6c65640000000000000000000000\n        /* \"#utility.yul\":3796:3797   */\n      0x00\n        /* \"#utility.yul\":3788:3794   */\n      dup3\n        /* \"#utility.yul\":3784:3798   */\n      add\n        /* \"#utility.yul\":3777:3824   */\n      mstore\n        /* \"#utility.yul\":3660:3831   */\n      pop\n      jump\t// out\n        /* \"#utility.yul\":3837:4009   */\n    tag_43:\n        /* \"#utility.yul\":3977:4001   */\n      0x4a75737446616c6c6261636b2069732063616c6c656400000000000000000000\n        /* \"#utility.yul\":3973:3974   */\n      0x00\n        /* \"#utility.yul\":3965:3971   */\n      dup3\n        /* \"#utility.yul\":3961:3975   */\n      add\n        /* \"#utility.yul\":3954:4002   */\n      mstore\n        /* \"#utility.yul\":3837:4009   */\n      pop\n      jump\t// out\n        /* \"#utility.yul\":4015:4137   */\n    tag_26:\n        /* \"#utility.yul\":4088:4112   */\n      tag_71\n        /* \"#utility.yul\":4106:4111   */\n      dup2\n        /* \"#utility.yul\":4088:4112   */\n      tag_47\n      jump\t// in\n    tag_71:\n        /* \"#utility.yul\":4081:4086   */\n      dup2\n        /* \"#utility.yul\":4078:4113   */\n      eq\n        /* \"#utility.yul\":4068:4131   */\n      tag_72\n      jumpi\n        /* \"#utility.yul\":4127:4128   */\n      0x00\n        /* \"#utility.yul\":4124:4125   */\n      dup1\n        /* \"#utility.yul\":4117:4129   */\n      revert\n        /* \"#utility.yul\":4068:4131   */\n    tag_72:\n        /* \"#utility.yul\":4015:4137   */\n      pop\n      jump\t// out\n\n    auxdata: 0xa26469706673582212203b7d14f34a760b5d12460d6d69630e2fcffc841ed961a950f8a1e03d932b014064736f6c63430008070033\n}\n",
				"bytecode": {
					"linkReferences": {},
					"object": "608060405234801561001057600080fd5b50610331806100206000396000f3fe6080604052600436106100225760003560e01c80630f3d0204146100955761005e565b3661005e577fea76936da7e733de51185273d52362d5abc78a41b970e52e5a32d35a187566c260405161005490610192565b60405180910390a1005b7fa34784e3343c15d43f7dcaa7f7575208ff57743c4f087aade7e1f63d9f87b35c60405161008b906101b2565b60405180910390a1005b3480156100a157600080fd5b506100bc60048036038101906100b791906100fd565b6100d2565b6040516100c991906101d2565b60405180910390f35b600081836100e091906101fe565b905092915050565b6000813590506100f7816102e4565b92915050565b600080604083850312156101145761011361028d565b5b6000610122858286016100e8565b9250506020610133858286016100e8565b9150509250929050565b600061014a6015836101ed565b915061015582610292565b602082019050919050565b600061016d6016836101ed565b9150610178826102bb565b602082019050919050565b61018c81610254565b82525050565b600060208201905081810360008301526101ab8161013d565b9050919050565b600060208201905081810360008301526101cb81610160565b9050919050565b60006020820190506101e76000830184610183565b92915050565b600082825260208201905092915050565b600061020982610254565b915061021483610254565b9250827fffffffffffffffffffffffffffffffffffffffffffffffffffffffffffffffff038211156102495761024861025e565b5b828201905092915050565b6000819050919050565b7f4e487b7100000000000000000000000000000000000000000000000000000000600052601160045260246000fd5b600080fd5b7f4a757374526563656976652069732063616c6c65640000000000000000000000600082015250565b7f4a75737446616c6c6261636b2069732063616c6c656400000000000000000000600082015250565b6102ed81610254565b81146102f857600080fd5b5056fea26469706673582212203b7d14f34a760b5d12460d6d69630e2fcffc841ed961a950f8a1e03d932b014064736f6c63430008070033",
					"opcodes": "PUSH1 0x80 PUSH1 0x40 MSTORE CALLVALUE DUP1 ISZERO PUSH2 0x10 JUMPI PUSH1 0x0 DUP1 REVERT JUMPDEST POP PUSH2 0x331 DUP1 PUSH2 0x20 PUSH1 0x0 CODECOPY PUSH1 0x0 RETURN INVALID PUSH1 0x80 PUSH1 0x40 MSTORE PUSH1 0x4 CALLDATASIZE LT PUSH2 0x22 JUMPI PUSH1 0x0 CALLDATALOAD PUSH1 0xE0 SHR DUP1 PUSH4 0xF3D0204 EQ PUSH2 0x95 JUMPI PUSH2 0x5E JUMP JUMPDEST CALLDATASIZE PUSH2 0x5E JUMPI PUSH32 0xEA76936DA7E733DE51185273D52362D5ABC78A41B970E52E5A32D35A187566C2 PUSH1 0x40 MLOAD PUSH2 0x54 SWAP1 PUSH2 0x192 JUMP JUMPDEST PUSH1 0x40 MLOAD DUP1 SWAP2 SUB SWAP1 LOG1 STOP JUMPDEST PUSH32 0xA34784E3343C15D43F7DCAA7F7575208FF57743C4F087AADE7E1F63D9F87B35C PUSH1 0x40 MLOAD PUSH2 0x8B SWAP1 PUSH2 0x1B2 JUMP JUMPDEST PUSH1 0x40 MLOAD DUP1 SWAP2 SUB SWAP1 LOG1 STOP JUMPDEST CALLVALUE DUP1 ISZERO PUSH2 0xA1 JUMPI PUSH1 0x0 DUP1 REVERT JUMPDEST POP PUSH2 0xBC PUSH1 0x4 DUP1 CALLDATASIZE SUB DUP2 ADD SWAP1 PUSH2 0xB7 SWAP2 SWAP1 PUSH2 0xFD JUMP JUMPDEST PUSH2 0xD2 JUMP JUMPDEST PUSH1 0x40 MLOAD PUSH2 0xC9 SWAP2 SWAP1 PUSH2 0x1D2 JUMP JUMPDEST PUSH1 0x40 MLOAD DUP1 SWAP2 SUB SWAP1 RETURN JUMPDEST PUSH1 0x0 DUP2 DUP4 PUSH2 0xE0 SWAP2 SWAP1 PUSH2 0x1FE JUMP JUMPDEST SWAP1 POP SWAP3 SWAP2 POP POP JUMP JUMPDEST PUSH1 0x0 DUP2 CALLDATALOAD SWAP1 POP PUSH2 0xF7 DUP2 PUSH2 0x2E4 JUMP JUMPDEST SWAP3 SWAP2 POP POP JUMP JUMPDEST PUSH1 0x0 DUP1 PUSH1 0x40 DUP4 DUP6 SUB SLT ISZERO PUSH2 0x114 JUMPI PUSH2 0x113 PUSH2 0x28D JUMP JUMPDEST JUMPDEST PUSH1 0x0 PUSH2 0x122 DUP6 DUP3 DUP7 ADD PUSH2 0xE8 JUMP JUMPDEST SWAP3 POP POP PUSH1 0x20 PUSH2 0x133 DUP6 DUP3 DUP7 ADD PUSH2 0xE8 JUMP JUMPDEST SWAP2 POP POP SWAP3 POP SWAP3 SWAP1 POP JUMP JUMPDEST PUSH1 0x0 PUSH2 0x14A PUSH1 0x15 DUP4 PUSH2 0x1ED JUMP JUMPDEST SWAP2 POP PUSH2 0x155 DUP3 PUSH2 0x292 JUMP JUMPDEST PUSH1 0x20 DUP3 ADD SWAP1 POP SWAP2 SWAP1 POP JUMP JUMPDEST PUSH1 0x0 PUSH2 0x16D PUSH1 0x16 DUP4 PUSH2 0x1ED JUMP JUMPDEST SWAP2 POP PUSH2 0x178 DUP3 PUSH2 0x2BB JUMP JUMPDEST PUSH1 0x20 DUP3 ADD SWAP1 POP SWAP2 SWAP1 POP JUMP JUMPDEST PUSH2 0x18C DUP2 PUSH2 0x254 JUMP JUMPDEST DUP3 MSTORE POP POP JUMP JUMPDEST PUSH1 0x0 PUSH1 0x20 DUP3 ADD SWAP1 POP DUP2 DUP2 SUB PUSH1 0x0 DUP4 ADD MSTORE PUSH2 0x1AB DUP2 PUSH2 0x13D JUMP JUMPDEST SWAP1 POP SWAP2 SWAP1 POP JUMP JUMPDEST PUSH1 0x0 PUSH1 0x20 DUP3 ADD SWAP1 POP DUP2 DUP2 SUB PUSH1 0x0 DUP4 ADD MSTORE PUSH2 0x1CB DUP2 PUSH2 0x160 JUMP JUMPDEST SWAP1 POP SWAP2 SWAP1 POP JUMP JUMPDEST PUSH1 0x0 PUSH1 0x20 DUP3 ADD SWAP1 POP PUSH2 0x1E7 PUSH1 0x0 DUP4 ADD DUP5 PUSH2 0x183 JUMP JUMPDEST SWAP3 SWAP2 POP POP JUMP JUMPDEST PUSH1 0x0 DUP3 DUP3 MSTORE PUSH1 0x20 DUP3 ADD SWAP1 POP SWAP3 SWAP2 POP POP JUMP JUMPDEST PUSH1 0x0 PUSH2 0x209 DUP3 PUSH2 0x254 JUMP JUMPDEST SWAP2 POP PUSH2 0x214 DUP4 PUSH2 0x254 JUMP JUMPDEST SWAP3 POP DUP3 PUSH32 0xFFFFFFFFFFFFFFFFFFFFFFFFFFFFFFFFFFFFFFFFFFFFFFFFFFFFFFFFFFFFFFFF SUB DUP3 GT ISZERO PUSH2 0x249 JUMPI PUSH2 0x248 PUSH2 0x25E JUMP JUMPDEST JUMPDEST DUP3 DUP3 ADD SWAP1 POP SWAP3 SWAP2 POP POP JUMP JUMPDEST PUSH1 0x0 DUP2 SWAP1 POP SWAP2 SWAP1 POP JUMP JUMPDEST PUSH32 0x4E487B7100000000000000000000000000000000000000000000000000000000 PUSH1 0x0 MSTORE PUSH1 0x11 PUSH1 0x4 MSTORE PUSH1 0x24 PUSH1 0x0 REVERT JUMPDEST PUSH1 0x0 DUP1 REVERT JUMPDEST PUSH32 0x4A757374526563656976652069732063616C6C65640000000000000000000000 PUSH1 0x0 DUP3 ADD MSTORE POP JUMP JUMPDEST PUSH32 0x4A75737446616C6C6261636B2069732063616C6C656400000000000000000000 PUSH1 0x0 DUP3 ADD MSTORE POP JUMP JUMPDEST PUSH2 0x2ED DUP2 PUSH2 0x254 JUMP JUMPDEST DUP2 EQ PUSH2 0x2F8 JUMPI PUSH1 0x0 DUP1 REVERT JUMPDEST POP JUMP INVALID LOG2 PUSH5 0x6970667358 0x22 SLT KECCAK256 EXTCODESIZE PUSH30 0x14F34A760B5D12460D6D69630E2FCFFC841ED961A950F8A1E03D932B0140 PUSH5 0x736F6C6343 STOP ADDMOD SMOD STOP CALLER "
				},
				"gasEstimates": {
					"creation": {
						"codeDepositCost": "163400",
						"executionCost": "208",
						"totalCost": "163608"
					},
					"external": {
						"": "1887",
						"addNumber(uint256,uint256)": "infinite"
					}
				},
				"methodIdentifiers": {
					"addNumber(uint256,uint256)": "0f3d0204"
				}
			},
			"storageLayout": {
				"storage": [],
				"types": null
			},
			"userdoc": {
				"kind": "user",
				"methods": {},
				"version": 1
			}
		}
	}
}