{
	"lecture/lec20.sol": {
		"lec10": {
			"abi": [
				{
					"inputs": [
						{
							"internalType": "uint256",
							"name": "_age",
							"type": "uint256"
						},
						{
							"internalType": "string",
							"name": "_name",
							"type": "string"
						},
						{
							"internalType": "string",
							"name": "_job",
							"type": "string"
						}
					],
					"name": "createCharacter",
					"outputs": [
						{
							"components": [
								{
									"internalType": "uint256",
									"name": "age",
									"type": "uint256"
								},
								{
									"internalType": "string",
									"name": "name",
									"type": "string"
								},
								{
									"internalType": "string",
									"name": "job",
									"type": "string"
								}
							],
							"internalType": "struct lec10.Character",
							"name": "",
							"type": "tuple"
						}
					],
					"stateMutability": "pure",
					"type": "function"
				}
			],
			"devdoc": {
				"kind": "dev",
				"methods": {},
				"version": 1
			},
			"evm": {
				"assembly": "    /* \"lecture/lec20.sol\":71:354  contract lec10 {... */\n  mstore(0x40, 0x80)\n  callvalue\n  dup1\n  iszero\n  tag_1\n  jumpi\n  0x00\n  dup1\n  revert\ntag_1:\n  pop\n  dataSize(sub_0)\n  dup1\n  dataOffset(sub_0)\n  0x00\n  codecopy\n  0x00\n  return\nstop\n\nsub_0: assembly {\n        /* \"lecture/lec20.sol\":71:354  contract lec10 {... */\n      mstore(0x40, 0x80)\n      callvalue\n      dup1\n      iszero\n      tag_1\n      jumpi\n      0x00\n      dup1\n      revert\n    tag_1:\n      pop\n      jumpi(tag_2, lt(calldatasize, 0x04))\n      shr(0xe0, calldataload(0x00))\n      dup1\n      0x143cd507\n      eq\n      tag_3\n      jumpi\n    tag_2:\n      0x00\n      dup1\n      revert\n        /* \"lecture/lec20.sol\":185:352  function createCharacter(uint256 _age, string memory _name, string memory _job) pure public returns(Character memory){... */\n    tag_3:\n      tag_4\n      0x04\n      dup1\n      calldatasize\n      sub\n      dup2\n      add\n      swap1\n      tag_5\n      swap2\n      swap1\n      tag_6\n      jump\t// in\n    tag_5:\n      tag_7\n      jump\t// in\n    tag_4:\n      mload(0x40)\n      tag_8\n      swap2\n      swap1\n      tag_9\n      jump\t// in\n    tag_8:\n      mload(0x40)\n      dup1\n      swap2\n      sub\n      swap1\n      return\n    tag_7:\n        /* \"lecture/lec20.sol\":285:301  Character memory */\n      tag_10\n      tag_11\n      jump\t// in\n    tag_10:\n        /* \"lecture/lec20.sol\":319:345  Character(_age,_name,_job) */\n      mload(0x40)\n      dup1\n      0x60\n      add\n      0x40\n      mstore\n      dup1\n        /* \"lecture/lec20.sol\":329:333  _age */\n      dup6\n        /* \"lecture/lec20.sol\":319:345  Character(_age,_name,_job) */\n      dup2\n      mstore\n      0x20\n      add\n        /* \"lecture/lec20.sol\":334:339  _name */\n      dup5\n        /* \"lecture/lec20.sol\":319:345  Character(_age,_name,_job) */\n      dup2\n      mstore\n      0x20\n      add\n        /* \"lecture/lec20.sol\":340:344  _job */\n      dup4\n        /* \"lecture/lec20.sol\":319:345  Character(_age,_name,_job) */\n      dup2\n      mstore\n      pop\n        /* \"lecture/lec20.sol\":312:345  return Character(_age,_name,_job) */\n      swap1\n      pop\n        /* \"lecture/lec20.sol\":185:352  function createCharacter(uint256 _age, string memory _name, string memory _job) pure public returns(Character memory){... */\n      swap4\n      swap3\n      pop\n      pop\n      pop\n      jump\t// out\n    tag_11:\n      mload(0x40)\n      dup1\n      0x60\n      add\n      0x40\n      mstore\n      dup1\n      0x00\n      dup2\n      mstore\n      0x20\n      add\n      0x60\n      dup2\n      mstore\n      0x20\n      add\n      0x60\n      dup2\n      mstore\n      pop\n      swap1\n      jump\t// out\n        /* \"#utility.yul\":7:419   */\n    tag_14:\n        /* \"#utility.yul\":85:90   */\n      0x00\n        /* \"#utility.yul\":110:176   */\n      tag_16\n        /* \"#utility.yul\":126:175   */\n      tag_17\n        /* \"#utility.yul\":168:174   */\n      dup5\n        /* \"#utility.yul\":126:175   */\n      tag_18\n      jump\t// in\n    tag_17:\n        /* \"#utility.yul\":110:176   */\n      tag_19\n      jump\t// in\n    tag_16:\n        /* \"#utility.yul\":101:176   */\n      swap1\n      pop\n        /* \"#utility.yul\":199:205   */\n      dup3\n        /* \"#utility.yul\":192:197   */\n      dup2\n        /* \"#utility.yul\":185:206   */\n      mstore\n        /* \"#utility.yul\":237:241   */\n      0x20\n        /* \"#utility.yul\":230:235   */\n      dup2\n        /* \"#utility.yul\":226:242   */\n      add\n        /* \"#utility.yul\":275:278   */\n      dup5\n        /* \"#utility.yul\":266:272   */\n      dup5\n        /* \"#utility.yul\":261:264   */\n      dup5\n        /* \"#utility.yul\":257:273   */\n      add\n        /* \"#utility.yul\":254:279   */\n      gt\n        /* \"#utility.yul\":251:363   */\n      iszero\n      tag_20\n      jumpi\n        /* \"#utility.yul\":282:361   */\n      tag_21\n      tag_22\n      jump\t// in\n    tag_21:\n        /* \"#utility.yul\":251:363   */\n    tag_20:\n        /* \"#utility.yul\":372:413   */\n      tag_23\n        /* \"#utility.yul\":406:412   */\n      dup5\n        /* \"#utility.yul\":401:404   */\n      dup3\n        /* \"#utility.yul\":396:399   */\n      dup6\n        /* \"#utility.yul\":372:413   */\n      tag_24\n      jump\t// in\n    tag_23:\n        /* \"#utility.yul\":91:419   */\n      pop\n        /* \"#utility.yul\":7:419   */\n      swap4\n      swap3\n      pop\n      pop\n      pop\n      jump\t// out\n        /* \"#utility.yul\":439:779   */\n    tag_25:\n        /* \"#utility.yul\":495:500   */\n      0x00\n        /* \"#utility.yul\":544:547   */\n      dup3\n        /* \"#utility.yul\":537:541   */\n      0x1f\n        /* \"#utility.yul\":529:535   */\n      dup4\n        /* \"#utility.yul\":525:542   */\n      add\n        /* \"#utility.yul\":521:548   */\n      slt\n        /* \"#utility.yul\":511:633   */\n      tag_27\n      jumpi\n        /* \"#utility.yul\":552:631   */\n      tag_28\n      tag_29\n      jump\t// in\n    tag_28:\n        /* \"#utility.yul\":511:633   */\n    tag_27:\n        /* \"#utility.yul\":669:675   */\n      dup2\n        /* \"#utility.yul\":656:676   */\n      calldataload\n        /* \"#utility.yul\":694:773   */\n      tag_30\n        /* \"#utility.yul\":769:772   */\n      dup5\n        /* \"#utility.yul\":761:767   */\n      dup3\n        /* \"#utility.yul\":754:758   */\n      0x20\n        /* \"#utility.yul\":746:752   */\n      dup7\n        /* \"#utility.yul\":742:759   */\n      add\n        /* \"#utility.yul\":694:773   */\n      tag_14\n      jump\t// in\n    tag_30:\n        /* \"#utility.yul\":685:773   */\n      swap2\n      pop\n        /* \"#utility.yul\":501:779   */\n      pop\n        /* \"#utility.yul\":439:779   */\n      swap3\n      swap2\n      pop\n      pop\n      jump\t// out\n        /* \"#utility.yul\":785:924   */\n    tag_31:\n        /* \"#utility.yul\":831:836   */\n      0x00\n        /* \"#utility.yul\":869:875   */\n      dup2\n        /* \"#utility.yul\":856:876   */\n      calldataload\n        /* \"#utility.yul\":847:876   */\n      swap1\n      pop\n        /* \"#utility.yul\":885:918   */\n      tag_33\n        /* \"#utility.yul\":912:917   */\n      dup2\n        /* \"#utility.yul\":885:918   */\n      tag_34\n      jump\t// in\n    tag_33:\n        /* \"#utility.yul\":785:924   */\n      swap3\n      swap2\n      pop\n      pop\n      jump\t// out\n        /* \"#utility.yul\":930:1909   */\n    tag_6:\n        /* \"#utility.yul\":1027:1033   */\n      0x00\n        /* \"#utility.yul\":1035:1041   */\n      dup1\n        /* \"#utility.yul\":1043:1049   */\n      0x00\n        /* \"#utility.yul\":1092:1094   */\n      0x60\n        /* \"#utility.yul\":1080:1089   */\n      dup5\n        /* \"#utility.yul\":1071:1078   */\n      dup7\n        /* \"#utility.yul\":1067:1090   */\n      sub\n        /* \"#utility.yul\":1063:1095   */\n      slt\n        /* \"#utility.yul\":1060:1179   */\n      iszero\n      tag_36\n      jumpi\n        /* \"#utility.yul\":1098:1177   */\n      tag_37\n      tag_38\n      jump\t// in\n    tag_37:\n        /* \"#utility.yul\":1060:1179   */\n    tag_36:\n        /* \"#utility.yul\":1218:1219   */\n      0x00\n        /* \"#utility.yul\":1243:1296   */\n      tag_39\n        /* \"#utility.yul\":1288:1295   */\n      dup7\n        /* \"#utility.yul\":1279:1285   */\n      dup3\n        /* \"#utility.yul\":1268:1277   */\n      dup8\n        /* \"#utility.yul\":1264:1286   */\n      add\n        /* \"#utility.yul\":1243:1296   */\n      tag_31\n      jump\t// in\n    tag_39:\n        /* \"#utility.yul\":1233:1296   */\n      swap4\n      pop\n        /* \"#utility.yul\":1189:1306   */\n      pop\n        /* \"#utility.yul\":1373:1375   */\n      0x20\n        /* \"#utility.yul\":1362:1371   */\n      dup5\n        /* \"#utility.yul\":1358:1376   */\n      add\n        /* \"#utility.yul\":1345:1377   */\n      calldataload\n        /* \"#utility.yul\":1404:1422   */\n      0xffffffffffffffff\n        /* \"#utility.yul\":1396:1402   */\n      dup2\n        /* \"#utility.yul\":1393:1423   */\n      gt\n        /* \"#utility.yul\":1390:1507   */\n      iszero\n      tag_40\n      jumpi\n        /* \"#utility.yul\":1426:1505   */\n      tag_41\n      tag_42\n      jump\t// in\n    tag_41:\n        /* \"#utility.yul\":1390:1507   */\n    tag_40:\n        /* \"#utility.yul\":1531:1594   */\n      tag_43\n        /* \"#utility.yul\":1586:1593   */\n      dup7\n        /* \"#utility.yul\":1577:1583   */\n      dup3\n        /* \"#utility.yul\":1566:1575   */\n      dup8\n        /* \"#utility.yul\":1562:1584   */\n      add\n        /* \"#utility.yul\":1531:1594   */\n      tag_25\n      jump\t// in\n    tag_43:\n        /* \"#utility.yul\":1521:1594   */\n      swap3\n      pop\n        /* \"#utility.yul\":1316:1604   */\n      pop\n        /* \"#utility.yul\":1671:1673   */\n      0x40\n        /* \"#utility.yul\":1660:1669   */\n      dup5\n        /* \"#utility.yul\":1656:1674   */\n      add\n        /* \"#utility.yul\":1643:1675   */\n      calldataload\n        /* \"#utility.yul\":1702:1720   */\n      0xffffffffffffffff\n        /* \"#utility.yul\":1694:1700   */\n      dup2\n        /* \"#utility.yul\":1691:1721   */\n      gt\n        /* \"#utility.yul\":1688:1805   */\n      iszero\n      tag_44\n      jumpi\n        /* \"#utility.yul\":1724:1803   */\n      tag_45\n      tag_42\n      jump\t// in\n    tag_45:\n        /* \"#utility.yul\":1688:1805   */\n    tag_44:\n        /* \"#utility.yul\":1829:1892   */\n      tag_46\n        /* \"#utility.yul\":1884:1891   */\n      dup7\n        /* \"#utility.yul\":1875:1881   */\n      dup3\n        /* \"#utility.yul\":1864:1873   */\n      dup8\n        /* \"#utility.yul\":1860:1882   */\n      add\n        /* \"#utility.yul\":1829:1892   */\n      tag_25\n      jump\t// in\n    tag_46:\n        /* \"#utility.yul\":1819:1892   */\n      swap2\n      pop\n        /* \"#utility.yul\":1614:1902   */\n      pop\n        /* \"#utility.yul\":930:1909   */\n      swap3\n      pop\n      swap3\n      pop\n      swap3\n      jump\t// out\n        /* \"#utility.yul\":1915:2259   */\n    tag_47:\n        /* \"#utility.yul\":1993:1996   */\n      0x00\n        /* \"#utility.yul\":2021:2060   */\n      tag_49\n        /* \"#utility.yul\":2054:2059   */\n      dup3\n        /* \"#utility.yul\":2021:2060   */\n      tag_50\n      jump\t// in\n    tag_49:\n        /* \"#utility.yul\":2076:2137   */\n      tag_51\n        /* \"#utility.yul\":2130:2136   */\n      dup2\n        /* \"#utility.yul\":2125:2128   */\n      dup6\n        /* \"#utility.yul\":2076:2137   */\n      tag_52\n      jump\t// in\n    tag_51:\n        /* \"#utility.yul\":2069:2137   */\n      swap4\n      pop\n        /* \"#utility.yul\":2146:2198   */\n      tag_53\n        /* \"#utility.yul\":2191:2197   */\n      dup2\n        /* \"#utility.yul\":2186:2189   */\n      dup6\n        /* \"#utility.yul\":2179:2183   */\n      0x20\n        /* \"#utility.yul\":2172:2177   */\n      dup7\n        /* \"#utility.yul\":2168:2184   */\n      add\n        /* \"#utility.yul\":2146:2198   */\n      tag_54\n      jump\t// in\n    tag_53:\n        /* \"#utility.yul\":2223:2252   */\n      tag_55\n        /* \"#utility.yul\":2245:2251   */\n      dup2\n        /* \"#utility.yul\":2223:2252   */\n      tag_56\n      jump\t// in\n    tag_55:\n        /* \"#utility.yul\":2218:2221   */\n      dup5\n        /* \"#utility.yul\":2214:2253   */\n      add\n        /* \"#utility.yul\":2207:2253   */\n      swap2\n      pop\n        /* \"#utility.yul\":1997:2259   */\n      pop\n        /* \"#utility.yul\":1915:2259   */\n      swap3\n      swap2\n      pop\n      pop\n      jump\t// out\n        /* \"#utility.yul\":2321:3168   */\n    tag_57:\n        /* \"#utility.yul\":2438:2441   */\n      0x00\n        /* \"#utility.yul\":2474:2478   */\n      0x60\n        /* \"#utility.yul\":2469:2472   */\n      dup4\n        /* \"#utility.yul\":2465:2479   */\n      add\n        /* \"#utility.yul\":2560:2564   */\n      0x00\n        /* \"#utility.yul\":2553:2558   */\n      dup4\n        /* \"#utility.yul\":2549:2565   */\n      add\n        /* \"#utility.yul\":2543:2566   */\n      mload\n        /* \"#utility.yul\":2579:2642   */\n      tag_59\n        /* \"#utility.yul\":2636:2640   */\n      0x00\n        /* \"#utility.yul\":2631:2634   */\n      dup7\n        /* \"#utility.yul\":2627:2641   */\n      add\n        /* \"#utility.yul\":2613:2625   */\n      dup3\n        /* \"#utility.yul\":2579:2642   */\n      tag_60\n      jump\t// in\n    tag_59:\n        /* \"#utility.yul\":2489:2652   */\n      pop\n        /* \"#utility.yul\":2734:2738   */\n      0x20\n        /* \"#utility.yul\":2727:2732   */\n      dup4\n        /* \"#utility.yul\":2723:2739   */\n      add\n        /* \"#utility.yul\":2717:2740   */\n      mload\n        /* \"#utility.yul\":2787:2790   */\n      dup5\n        /* \"#utility.yul\":2781:2785   */\n      dup3\n        /* \"#utility.yul\":2777:2791   */\n      sub\n        /* \"#utility.yul\":2770:2774   */\n      0x20\n        /* \"#utility.yul\":2765:2768   */\n      dup7\n        /* \"#utility.yul\":2761:2775   */\n      add\n        /* \"#utility.yul\":2754:2792   */\n      mstore\n        /* \"#utility.yul\":2813:2886   */\n      tag_61\n        /* \"#utility.yul\":2881:2885   */\n      dup3\n        /* \"#utility.yul\":2867:2879   */\n      dup3\n        /* \"#utility.yul\":2813:2886   */\n      tag_47\n      jump\t// in\n    tag_61:\n        /* \"#utility.yul\":2805:2886   */\n      swap2\n      pop\n        /* \"#utility.yul\":2662:2897   */\n      pop\n        /* \"#utility.yul\":2978:2982   */\n      0x40\n        /* \"#utility.yul\":2971:2976   */\n      dup4\n        /* \"#utility.yul\":2967:2983   */\n      add\n        /* \"#utility.yul\":2961:2984   */\n      mload\n        /* \"#utility.yul\":3031:3034   */\n      dup5\n        /* \"#utility.yul\":3025:3029   */\n      dup3\n        /* \"#utility.yul\":3021:3035   */\n      sub\n        /* \"#utility.yul\":3014:3018   */\n      0x40\n        /* \"#utility.yul\":3009:3012   */\n      dup7\n        /* \"#utility.yul\":3005:3019   */\n      add\n        /* \"#utility.yul\":2998:3036   */\n      mstore\n        /* \"#utility.yul\":3057:3130   */\n      tag_62\n        /* \"#utility.yul\":3125:3129   */\n      dup3\n        /* \"#utility.yul\":3111:3123   */\n      dup3\n        /* \"#utility.yul\":3057:3130   */\n      tag_47\n      jump\t// in\n    tag_62:\n        /* \"#utility.yul\":3049:3130   */\n      swap2\n      pop\n        /* \"#utility.yul\":2907:3141   */\n      pop\n        /* \"#utility.yul\":3158:3162   */\n      dup1\n        /* \"#utility.yul\":3151:3162   */\n      swap2\n      pop\n        /* \"#utility.yul\":2443:3168   */\n      pop\n        /* \"#utility.yul\":2321:3168   */\n      swap3\n      swap2\n      pop\n      pop\n      jump\t// out\n        /* \"#utility.yul\":3174:3282   */\n    tag_60:\n        /* \"#utility.yul\":3251:3275   */\n      tag_64\n        /* \"#utility.yul\":3269:3274   */\n      dup2\n        /* \"#utility.yul\":3251:3275   */\n      tag_65\n      jump\t// in\n    tag_64:\n        /* \"#utility.yul\":3246:3249   */\n      dup3\n        /* \"#utility.yul\":3239:3276   */\n      mstore\n        /* \"#utility.yul\":3174:3282   */\n      pop\n      pop\n      jump\t// out\n        /* \"#utility.yul\":3288:3657   */\n    tag_9:\n        /* \"#utility.yul\":3429:3433   */\n      0x00\n        /* \"#utility.yul\":3467:3469   */\n      0x20\n        /* \"#utility.yul\":3456:3465   */\n      dup3\n        /* \"#utility.yul\":3452:3470   */\n      add\n        /* \"#utility.yul\":3444:3470   */\n      swap1\n      pop\n        /* \"#utility.yul\":3516:3525   */\n      dup2\n        /* \"#utility.yul\":3510:3514   */\n      dup2\n        /* \"#utility.yul\":3506:3526   */\n      sub\n        /* \"#utility.yul\":3502:3503   */\n      0x00\n        /* \"#utility.yul\":3491:3500   */\n      dup4\n        /* \"#utility.yul\":3487:3504   */\n      add\n        /* \"#utility.yul\":3480:3527   */\n      mstore\n        /* \"#utility.yul\":3544:3650   */\n      tag_67\n        /* \"#utility.yul\":3645:3649   */\n      dup2\n        /* \"#utility.yul\":3636:3642   */\n      dup5\n        /* \"#utility.yul\":3544:3650   */\n      tag_57\n      jump\t// in\n    tag_67:\n        /* \"#utility.yul\":3536:3650   */\n      swap1\n      pop\n        /* \"#utility.yul\":3288:3657   */\n      swap3\n      swap2\n      pop\n      pop\n      jump\t// out\n        /* \"#utility.yul\":3663:3792   */\n    tag_19:\n        /* \"#utility.yul\":3697:3703   */\n      0x00\n        /* \"#utility.yul\":3724:3744   */\n      tag_69\n      tag_70\n      jump\t// in\n    tag_69:\n        /* \"#utility.yul\":3714:3744   */\n      swap1\n      pop\n        /* \"#utility.yul\":3753:3786   */\n      tag_71\n        /* \"#utility.yul\":3781:3785   */\n      dup3\n        /* \"#utility.yul\":3773:3779   */\n      dup3\n        /* \"#utility.yul\":3753:3786   */\n      tag_72\n      jump\t// in\n    tag_71:\n        /* \"#utility.yul\":3663:3792   */\n      swap2\n      swap1\n      pop\n      jump\t// out\n        /* \"#utility.yul\":3798:3873   */\n    tag_70:\n        /* \"#utility.yul\":3831:3837   */\n      0x00\n        /* \"#utility.yul\":3864:3866   */\n      0x40\n        /* \"#utility.yul\":3858:3867   */\n      mload\n        /* \"#utility.yul\":3848:3867   */\n      swap1\n      pop\n        /* \"#utility.yul\":3798:3873   */\n      swap1\n      jump\t// out\n        /* \"#utility.yul\":3879:4187   */\n    tag_18:\n        /* \"#utility.yul\":3941:3945   */\n      0x00\n        /* \"#utility.yul\":4031:4049   */\n      0xffffffffffffffff\n        /* \"#utility.yul\":4023:4029   */\n      dup3\n        /* \"#utility.yul\":4020:4050   */\n      gt\n        /* \"#utility.yul\":4017:4073   */\n      iszero\n      tag_75\n      jumpi\n        /* \"#utility.yul\":4053:4071   */\n      tag_76\n      tag_77\n      jump\t// in\n    tag_76:\n        /* \"#utility.yul\":4017:4073   */\n    tag_75:\n        /* \"#utility.yul\":4091:4120   */\n      tag_78\n        /* \"#utility.yul\":4113:4119   */\n      dup3\n        /* \"#utility.yul\":4091:4120   */\n      tag_56\n      jump\t// in\n    tag_78:\n        /* \"#utility.yul\":4083:4120   */\n      swap1\n      pop\n        /* \"#utility.yul\":4175:4179   */\n      0x20\n        /* \"#utility.yul\":4169:4173   */\n      dup2\n        /* \"#utility.yul\":4165:4180   */\n      add\n        /* \"#utility.yul\":4157:4180   */\n      swap1\n      pop\n        /* \"#utility.yul\":3879:4187   */\n      swap2\n      swap1\n      pop\n      jump\t// out\n        /* \"#utility.yul\":4193:4292   */\n    tag_50:\n        /* \"#utility.yul\":4245:4251   */\n      0x00\n        /* \"#utility.yul\":4279:4284   */\n      dup2\n        /* \"#utility.yul\":4273:4285   */\n      mload\n        /* \"#utility.yul\":4263:4285   */\n      swap1\n      pop\n        /* \"#utility.yul\":4193:4292   */\n      swap2\n      swap1\n      pop\n      jump\t// out\n        /* \"#utility.yul\":4298:4457   */\n    tag_52:\n        /* \"#utility.yul\":4372:4383   */\n      0x00\n        /* \"#utility.yul\":4406:4412   */\n      dup3\n        /* \"#utility.yul\":4401:4404   */\n      dup3\n        /* \"#utility.yul\":4394:4413   */\n      mstore\n        /* \"#utility.yul\":4446:4450   */\n      0x20\n        /* \"#utility.yul\":4441:4444   */\n      dup3\n        /* \"#utility.yul\":4437:4451   */\n      add\n        /* \"#utility.yul\":4422:4451   */\n      swap1\n      pop\n        /* \"#utility.yul\":4298:4457   */\n      swap3\n      swap2\n      pop\n      pop\n      jump\t// out\n        /* \"#utility.yul\":4463:4540   */\n    tag_65:\n        /* \"#utility.yul\":4500:4507   */\n      0x00\n        /* \"#utility.yul\":4529:4534   */\n      dup2\n        /* \"#utility.yul\":4518:4534   */\n      swap1\n      pop\n        /* \"#utility.yul\":4463:4540   */\n      swap2\n      swap1\n      pop\n      jump\t// out\n        /* \"#utility.yul\":4546:4700   */\n    tag_24:\n        /* \"#utility.yul\":4630:4636   */\n      dup3\n        /* \"#utility.yul\":4625:4628   */\n      dup2\n        /* \"#utility.yul\":4620:4623   */\n      dup4\n        /* \"#utility.yul\":4607:4637   */\n      calldatacopy\n        /* \"#utility.yul\":4692:4693   */\n      0x00\n        /* \"#utility.yul\":4683:4689   */\n      dup4\n        /* \"#utility.yul\":4678:4681   */\n      dup4\n        /* \"#utility.yul\":4674:4690   */\n      add\n        /* \"#utility.yul\":4667:4694   */\n      mstore\n        /* \"#utility.yul\":4546:4700   */\n      pop\n      pop\n      pop\n      jump\t// out\n        /* \"#utility.yul\":4706:5013   */\n    tag_54:\n        /* \"#utility.yul\":4774:4775   */\n      0x00\n        /* \"#utility.yul\":4784:4897   */\n    tag_84:\n        /* \"#utility.yul\":4798:4804   */\n      dup4\n        /* \"#utility.yul\":4795:4796   */\n      dup2\n        /* \"#utility.yul\":4792:4805   */\n      lt\n        /* \"#utility.yul\":4784:4897   */\n      iszero\n      tag_86\n      jumpi\n        /* \"#utility.yul\":4883:4884   */\n      dup1\n        /* \"#utility.yul\":4878:4881   */\n      dup3\n        /* \"#utility.yul\":4874:4885   */\n      add\n        /* \"#utility.yul\":4868:4886   */\n      mload\n        /* \"#utility.yul\":4864:4865   */\n      dup2\n        /* \"#utility.yul\":4859:4862   */\n      dup5\n        /* \"#utility.yul\":4855:4866   */\n      add\n        /* \"#utility.yul\":4848:4887   */\n      mstore\n        /* \"#utility.yul\":4820:4822   */\n      0x20\n        /* \"#utility.yul\":4817:4818   */\n      dup2\n        /* \"#utility.yul\":4813:4823   */\n      add\n        /* \"#utility.yul\":4808:4823   */\n      swap1\n      pop\n        /* \"#utility.yul\":4784:4897   */\n      jump(tag_84)\n    tag_86:\n        /* \"#utility.yul\":4915:4921   */\n      dup4\n        /* \"#utility.yul\":4912:4913   */\n      dup2\n        /* \"#utility.yul\":4909:4922   */\n      gt\n        /* \"#utility.yul\":4906:5007   */\n      iszero\n      tag_87\n      jumpi\n        /* \"#utility.yul\":4995:4996   */\n      0x00\n        /* \"#utility.yul\":4986:4992   */\n      dup5\n        /* \"#utility.yul\":4981:4984   */\n      dup5\n        /* \"#utility.yul\":4977:4993   */\n      add\n        /* \"#utility.yul\":4970:4997   */\n      mstore\n        /* \"#utility.yul\":4906:5007   */\n    tag_87:\n        /* \"#utility.yul\":4755:5013   */\n      pop\n        /* \"#utility.yul\":4706:5013   */\n      pop\n      pop\n      pop\n      jump\t// out\n        /* \"#utility.yul\":5019:5300   */\n    tag_72:\n        /* \"#utility.yul\":5102:5129   */\n      tag_89\n        /* \"#utility.yul\":5124:5128   */\n      dup3\n        /* \"#utility.yul\":5102:5129   */\n      tag_56\n      jump\t// in\n    tag_89:\n        /* \"#utility.yul\":5094:5100   */\n      dup2\n        /* \"#utility.yul\":5090:5130   */\n      add\n        /* \"#utility.yul\":5232:5238   */\n      dup2\n        /* \"#utility.yul\":5220:5230   */\n      dup2\n        /* \"#utility.yul\":5217:5239   */\n      lt\n        /* \"#utility.yul\":5196:5214   */\n      0xffffffffffffffff\n        /* \"#utility.yul\":5184:5194   */\n      dup3\n        /* \"#utility.yul\":5181:5215   */\n      gt\n        /* \"#utility.yul\":5178:5240   */\n      or\n        /* \"#utility.yul\":5175:5263   */\n      iszero\n      tag_90\n      jumpi\n        /* \"#utility.yul\":5243:5261   */\n      tag_91\n      tag_77\n      jump\t// in\n    tag_91:\n        /* \"#utility.yul\":5175:5263   */\n    tag_90:\n        /* \"#utility.yul\":5283:5293   */\n      dup1\n        /* \"#utility.yul\":5279:5281   */\n      0x40\n        /* \"#utility.yul\":5272:5294   */\n      mstore\n        /* \"#utility.yul\":5062:5300   */\n      pop\n        /* \"#utility.yul\":5019:5300   */\n      pop\n      pop\n      jump\t// out\n        /* \"#utility.yul\":5306:5486   */\n    tag_77:\n        /* \"#utility.yul\":5354:5431   */\n      0x4e487b7100000000000000000000000000000000000000000000000000000000\n        /* \"#utility.yul\":5351:5352   */\n      0x00\n        /* \"#utility.yul\":5344:5432   */\n      mstore\n        /* \"#utility.yul\":5451:5455   */\n      0x41\n        /* \"#utility.yul\":5448:5449   */\n      0x04\n        /* \"#utility.yul\":5441:5456   */\n      mstore\n        /* \"#utility.yul\":5475:5479   */\n      0x24\n        /* \"#utility.yul\":5472:5473   */\n      0x00\n        /* \"#utility.yul\":5465:5480   */\n      revert\n        /* \"#utility.yul\":5492:5609   */\n    tag_29:\n        /* \"#utility.yul\":5601:5602   */\n      0x00\n        /* \"#utility.yul\":5598:5599   */\n      dup1\n        /* \"#utility.yul\":5591:5603   */\n      revert\n        /* \"#utility.yul\":5615:5732   */\n    tag_22:\n        /* \"#utility.yul\":5724:5725   */\n      0x00\n        /* \"#utility.yul\":5721:5722   */\n      dup1\n        /* \"#utility.yul\":5714:5726   */\n      revert\n        /* \"#utility.yul\":5738:5855   */\n    tag_42:\n        /* \"#utility.yul\":5847:5848   */\n      0x00\n        /* \"#utility.yul\":5844:5845   */\n      dup1\n        /* \"#utility.yul\":5837:5849   */\n      revert\n        /* \"#utility.yul\":5861:5978   */\n    tag_38:\n        /* \"#utility.yul\":5970:5971   */\n      0x00\n        /* \"#utility.yul\":5967:5968   */\n      dup1\n        /* \"#utility.yul\":5960:5972   */\n      revert\n        /* \"#utility.yul\":5984:6086   */\n    tag_56:\n        /* \"#utility.yul\":6025:6031   */\n      0x00\n        /* \"#utility.yul\":6076:6078   */\n      0x1f\n        /* \"#utility.yul\":6072:6079   */\n      not\n        /* \"#utility.yul\":6067:6069   */\n      0x1f\n        /* \"#utility.yul\":6060:6065   */\n      dup4\n        /* \"#utility.yul\":6056:6070   */\n      add\n        /* \"#utility.yul\":6052:6080   */\n      and\n        /* \"#utility.yul\":6042:6080   */\n      swap1\n      pop\n        /* \"#utility.yul\":5984:6086   */\n      swap2\n      swap1\n      pop\n      jump\t// out\n        /* \"#utility.yul\":6092:6214   */\n    tag_34:\n        /* \"#utility.yul\":6165:6189   */\n      tag_99\n        /* \"#utility.yul\":6183:6188   */\n      dup2\n        /* \"#utility.yul\":6165:6189   */\n      tag_65\n      jump\t// in\n    tag_99:\n        /* \"#utility.yul\":6158:6163   */\n      dup2\n        /* \"#utility.yul\":6155:6190   */\n      eq\n        /* \"#utility.yul\":6145:6208   */\n      tag_100\n      jumpi\n        /* \"#utility.yul\":6204:6205   */\n      0x00\n        /* \"#utility.yul\":6201:6202   */\n      dup1\n        /* \"#utility.yul\":6194:6206   */\n      revert\n        /* \"#utility.yul\":6145:6208   */\n    tag_100:\n        /* \"#utility.yul\":6092:6214   */\n      pop\n      jump\t// out\n\n    auxdata: 0xa26469706673582212203916e55027b0d96f246cd5b1273fc722ecc0334669d72fe1104baf679cf04d4764736f6c63430008070033\n}\n",
				"bytecode": {
					"linkReferences": {},
					"object": "608060405234801561001057600080fd5b5061040e806100206000396000f3fe608060405234801561001057600080fd5b506004361061002b5760003560e01c8063143cd50714610030575b600080fd5b61004a60048036038101906100459190610132565b610060565b604051610057919061025c565b60405180910390f35b61006861008c565b60405180606001604052808581526020018481526020018381525090509392505050565b60405180606001604052806000815260200160608152602001606081525090565b60006100c06100bb846102a3565b61027e565b9050828152602081018484840111156100dc576100db6103a1565b5b6100e78482856102fa565b509392505050565b600082601f8301126101045761010361039c565b5b81356101148482602086016100ad565b91505092915050565b60008135905061012c816103c1565b92915050565b60008060006060848603121561014b5761014a6103ab565b5b60006101598682870161011d565b935050602084013567ffffffffffffffff81111561017a576101796103a6565b5b610186868287016100ef565b925050604084013567ffffffffffffffff8111156101a7576101a66103a6565b5b6101b3868287016100ef565b9150509250925092565b60006101c8826102d4565b6101d281856102df565b93506101e2818560208601610309565b6101eb816103b0565b840191505092915050565b600060608301600083015161020e600086018261024d565b506020830151848203602086015261022682826101bd565b9150506040830151848203604086015261024082826101bd565b9150508091505092915050565b610256816102f0565b82525050565b6000602082019050818103600083015261027681846101f6565b905092915050565b6000610288610299565b9050610294828261033c565b919050565b6000604051905090565b600067ffffffffffffffff8211156102be576102bd61036d565b5b6102c7826103b0565b9050602081019050919050565b600081519050919050565b600082825260208201905092915050565b6000819050919050565b82818337600083830152505050565b60005b8381101561032757808201518184015260208101905061030c565b83811115610336576000848401525b50505050565b610345826103b0565b810181811067ffffffffffffffff821117156103645761036361036d565b5b80604052505050565b7f4e487b7100000000000000000000000000000000000000000000000000000000600052604160045260246000fd5b600080fd5b600080fd5b600080fd5b600080fd5b6000601f19601f8301169050919050565b6103ca816102f0565b81146103d557600080fd5b5056fea26469706673582212203916e55027b0d96f246cd5b1273fc722ecc0334669d72fe1104baf679cf04d4764736f6c63430008070033",
					"opcodes": "PUSH1 0x80 PUSH1 0x40 MSTORE CALLVALUE DUP1 ISZERO PUSH2 0x10 JUMPI PUSH1 0x0 DUP1 REVERT JUMPDEST POP PUSH2 0x40E DUP1 PUSH2 0x20 PUSH1 0x0 CODECOPY PUSH1 0x0 RETURN INVALID PUSH1 0x80 PUSH1 0x40 MSTORE CALLVALUE DUP1 ISZERO PUSH2 0x10 JUMPI PUSH1 0x0 DUP1 REVERT JUMPDEST POP PUSH1 0x4 CALLDATASIZE LT PUSH2 0x2B JUMPI PUSH1 0x0 CALLDATALOAD PUSH1 0xE0 SHR DUP1 PUSH4 0x143CD507 EQ PUSH2 0x30 JUMPI JUMPDEST PUSH1 0x0 DUP1 REVERT JUMPDEST PUSH2 0x4A PUSH1 0x4 DUP1 CALLDATASIZE SUB DUP2 ADD SWAP1 PUSH2 0x45 SWAP2 SWAP1 PUSH2 0x132 JUMP JUMPDEST PUSH2 0x60 JUMP JUMPDEST PUSH1 0x40 MLOAD PUSH2 0x57 SWAP2 SWAP1 PUSH2 0x25C JUMP JUMPDEST PUSH1 0x40 MLOAD DUP1 SWAP2 SUB SWAP1 RETURN JUMPDEST PUSH2 0x68 PUSH2 0x8C JUMP JUMPDEST PUSH1 0x40 MLOAD DUP1 PUSH1 0x60 ADD PUSH1 0x40 MSTORE DUP1 DUP6 DUP2 MSTORE PUSH1 0x20 ADD DUP5 DUP2 MSTORE PUSH1 0x20 ADD DUP4 DUP2 MSTORE POP SWAP1 POP SWAP4 SWAP3 POP POP POP JUMP JUMPDEST PUSH1 0x40 MLOAD DUP1 PUSH1 0x60 ADD PUSH1 0x40 MSTORE DUP1 PUSH1 0x0 DUP2 MSTORE PUSH1 0x20 ADD PUSH1 0x60 DUP2 MSTORE PUSH1 0x20 ADD PUSH1 0x60 DUP2 MSTORE POP SWAP1 JUMP JUMPDEST PUSH1 0x0 PUSH2 0xC0 PUSH2 0xBB DUP5 PUSH2 0x2A3 JUMP JUMPDEST PUSH2 0x27E JUMP JUMPDEST SWAP1 POP DUP3 DUP2 MSTORE PUSH1 0x20 DUP2 ADD DUP5 DUP5 DUP5 ADD GT ISZERO PUSH2 0xDC JUMPI PUSH2 0xDB PUSH2 0x3A1 JUMP JUMPDEST JUMPDEST PUSH2 0xE7 DUP5 DUP3 DUP6 PUSH2 0x2FA JUMP JUMPDEST POP SWAP4 SWAP3 POP POP POP JUMP JUMPDEST PUSH1 0x0 DUP3 PUSH1 0x1F DUP4 ADD SLT PUSH2 0x104 JUMPI PUSH2 0x103 PUSH2 0x39C JUMP JUMPDEST JUMPDEST DUP2 CALLDATALOAD PUSH2 0x114 DUP5 DUP3 PUSH1 0x20 DUP7 ADD PUSH2 0xAD JUMP JUMPDEST SWAP2 POP POP SWAP3 SWAP2 POP POP JUMP JUMPDEST PUSH1 0x0 DUP2 CALLDATALOAD SWAP1 POP PUSH2 0x12C DUP2 PUSH2 0x3C1 JUMP JUMPDEST SWAP3 SWAP2 POP POP JUMP JUMPDEST PUSH1 0x0 DUP1 PUSH1 0x0 PUSH1 0x60 DUP5 DUP7 SUB SLT ISZERO PUSH2 0x14B JUMPI PUSH2 0x14A PUSH2 0x3AB JUMP JUMPDEST JUMPDEST PUSH1 0x0 PUSH2 0x159 DUP7 DUP3 DUP8 ADD PUSH2 0x11D JUMP JUMPDEST SWAP4 POP POP PUSH1 0x20 DUP5 ADD CALLDATALOAD PUSH8 0xFFFFFFFFFFFFFFFF DUP2 GT ISZERO PUSH2 0x17A JUMPI PUSH2 0x179 PUSH2 0x3A6 JUMP JUMPDEST JUMPDEST PUSH2 0x186 DUP7 DUP3 DUP8 ADD PUSH2 0xEF JUMP JUMPDEST SWAP3 POP POP PUSH1 0x40 DUP5 ADD CALLDATALOAD PUSH8 0xFFFFFFFFFFFFFFFF DUP2 GT ISZERO PUSH2 0x1A7 JUMPI PUSH2 0x1A6 PUSH2 0x3A6 JUMP JUMPDEST JUMPDEST PUSH2 0x1B3 DUP7 DUP3 DUP8 ADD PUSH2 0xEF JUMP JUMPDEST SWAP2 POP POP SWAP3 POP SWAP3 POP SWAP3 JUMP JUMPDEST PUSH1 0x0 PUSH2 0x1C8 DUP3 PUSH2 0x2D4 JUMP JUMPDEST PUSH2 0x1D2 DUP2 DUP6 PUSH2 0x2DF JUMP JUMPDEST SWAP4 POP PUSH2 0x1E2 DUP2 DUP6 PUSH1 0x20 DUP7 ADD PUSH2 0x309 JUMP JUMPDEST PUSH2 0x1EB DUP2 PUSH2 0x3B0 JUMP JUMPDEST DUP5 ADD SWAP2 POP POP SWAP3 SWAP2 POP POP JUMP JUMPDEST PUSH1 0x0 PUSH1 0x60 DUP4 ADD PUSH1 0x0 DUP4 ADD MLOAD PUSH2 0x20E PUSH1 0x0 DUP7 ADD DUP3 PUSH2 0x24D JUMP JUMPDEST POP PUSH1 0x20 DUP4 ADD MLOAD DUP5 DUP3 SUB PUSH1 0x20 DUP7 ADD MSTORE PUSH2 0x226 DUP3 DUP3 PUSH2 0x1BD JUMP JUMPDEST SWAP2 POP POP PUSH1 0x40 DUP4 ADD MLOAD DUP5 DUP3 SUB PUSH1 0x40 DUP7 ADD MSTORE PUSH2 0x240 DUP3 DUP3 PUSH2 0x1BD JUMP JUMPDEST SWAP2 POP POP DUP1 SWAP2 POP POP SWAP3 SWAP2 POP POP JUMP JUMPDEST PUSH2 0x256 DUP2 PUSH2 0x2F0 JUMP JUMPDEST DUP3 MSTORE POP POP JUMP JUMPDEST PUSH1 0x0 PUSH1 0x20 DUP3 ADD SWAP1 POP DUP2 DUP2 SUB PUSH1 0x0 DUP4 ADD MSTORE PUSH2 0x276 DUP2 DUP5 PUSH2 0x1F6 JUMP JUMPDEST SWAP1 POP SWAP3 SWAP2 POP POP JUMP JUMPDEST PUSH1 0x0 PUSH2 0x288 PUSH2 0x299 JUMP JUMPDEST SWAP1 POP PUSH2 0x294 DUP3 DUP3 PUSH2 0x33C JUMP JUMPDEST SWAP2 SWAP1 POP JUMP JUMPDEST PUSH1 0x0 PUSH1 0x40 MLOAD SWAP1 POP SWAP1 JUMP JUMPDEST PUSH1 0x0 PUSH8 0xFFFFFFFFFFFFFFFF DUP3 GT ISZERO PUSH2 0x2BE JUMPI PUSH2 0x2BD PUSH2 0x36D JUMP JUMPDEST JUMPDEST PUSH2 0x2C7 DUP3 PUSH2 0x3B0 JUMP JUMPDEST SWAP1 POP PUSH1 0x20 DUP2 ADD SWAP1 POP SWAP2 SWAP1 POP JUMP JUMPDEST PUSH1 0x0 DUP2 MLOAD SWAP1 POP SWAP2 SWAP1 POP JUMP JUMPDEST PUSH1 0x0 DUP3 DUP3 MSTORE PUSH1 0x20 DUP3 ADD SWAP1 POP SWAP3 SWAP2 POP POP JUMP JUMPDEST PUSH1 0x0 DUP2 SWAP1 POP SWAP2 SWAP1 POP JUMP JUMPDEST DUP3 DUP2 DUP4 CALLDATACOPY PUSH1 0x0 DUP4 DUP4 ADD MSTORE POP POP POP JUMP JUMPDEST PUSH1 0x0 JUMPDEST DUP4 DUP2 LT ISZERO PUSH2 0x327 JUMPI DUP1 DUP3 ADD MLOAD DUP2 DUP5 ADD MSTORE PUSH1 0x20 DUP2 ADD SWAP1 POP PUSH2 0x30C JUMP JUMPDEST DUP4 DUP2 GT ISZERO PUSH2 0x336 JUMPI PUSH1 0x0 DUP5 DUP5 ADD MSTORE JUMPDEST POP POP POP POP JUMP JUMPDEST PUSH2 0x345 DUP3 PUSH2 0x3B0 JUMP JUMPDEST DUP2 ADD DUP2 DUP2 LT PUSH8 0xFFFFFFFFFFFFFFFF DUP3 GT OR ISZERO PUSH2 0x364 JUMPI PUSH2 0x363 PUSH2 0x36D JUMP JUMPDEST JUMPDEST DUP1 PUSH1 0x40 MSTORE POP POP POP JUMP JUMPDEST PUSH32 0x4E487B7100000000000000000000000000000000000000000000000000000000 PUSH1 0x0 MSTORE PUSH1 0x41 PUSH1 0x4 MSTORE PUSH1 0x24 PUSH1 0x0 REVERT JUMPDEST PUSH1 0x0 DUP1 REVERT JUMPDEST PUSH1 0x0 DUP1 REVERT JUMPDEST PUSH1 0x0 DUP1 REVERT JUMPDEST PUSH1 0x0 DUP1 REVERT JUMPDEST PUSH1 0x0 PUSH1 0x1F NOT PUSH1 0x1F DUP4 ADD AND SWAP1 POP SWAP2 SWAP1 POP JUMP JUMPDEST PUSH2 0x3CA DUP2 PUSH2 0x2F0 JUMP JUMPDEST DUP2 EQ PUSH2 0x3D5 JUMPI PUSH1 0x0 DUP1 REVERT JUMPDEST POP JUMP INVALID LOG2 PUSH5 0x6970667358 0x22 SLT KECCAK256 CODECOPY AND 0xE5 POP 0x27 0xB0 0xD9 PUSH16 0x246CD5B1273FC722ECC0334669D72FE1 LT 0x4B 0xAF PUSH8 0x9CF04D4764736F6C PUSH4 0x43000807 STOP CALLER "
				},
				"gasEstimates": {
					"creation": {
						"codeDepositCost": "207600",
						"executionCost": "251",
						"totalCost": "207851"
					},
					"external": {
						"createCharacter(uint256,string,string)": "infinite"
					}
				},
				"methodIdentifiers": {
					"createCharacter(uint256,string,string)": "143cd507"
				}
			},
			"storageLayout": {
				"storage": [],
				"types": null
			},
			"userdoc": {
				"kind": "user",
				"methods": {},
				"version": 1
			}
		}
	}
}