{
	"lecture/lec17.sol": {
		"lec17": {
			"abi": [
				{
					"inputs": [
						{
							"internalType": "uint256",
							"name": "_index",
							"type": "uint256"
						}
					],
					"name": "getAgeList",
					"outputs": [
						{
							"internalType": "uint256",
							"name": "",
							"type": "uint256"
						}
					],
					"stateMutability": "view",
					"type": "function"
				},
				{
					"inputs": [
						{
							"internalType": "uint256",
							"name": "_index",
							"type": "uint256"
						}
					],
					"name": "getName",
					"outputs": [
						{
							"internalType": "string",
							"name": "",
							"type": "string"
						}
					],
					"stateMutability": "view",
					"type": "function"
				},
				{
					"inputs": [
						{
							"internalType": "string",
							"name": "_itemName",
							"type": "string"
						}
					],
					"name": "getPirceList",
					"outputs": [
						{
							"internalType": "uint256",
							"name": "",
							"type": "uint256"
						}
					],
					"stateMutability": "view",
					"type": "function"
				},
				{
					"inputs": [
						{
							"internalType": "uint256",
							"name": "_index",
							"type": "uint256"
						},
						{
							"internalType": "uint256",
							"name": "_age",
							"type": "uint256"
						}
					],
					"name": "setAgeList",
					"outputs": [],
					"stateMutability": "nonpayable",
					"type": "function"
				},
				{
					"inputs": [
						{
							"internalType": "uint256",
							"name": "_index",
							"type": "uint256"
						},
						{
							"internalType": "string",
							"name": "_name",
							"type": "string"
						}
					],
					"name": "setNameList",
					"outputs": [],
					"stateMutability": "nonpayable",
					"type": "function"
				},
				{
					"inputs": [
						{
							"internalType": "string",
							"name": "_itemName",
							"type": "string"
						},
						{
							"internalType": "uint256",
							"name": "_price",
							"type": "uint256"
						}
					],
					"name": "setPriceList",
					"outputs": [],
					"stateMutability": "nonpayable",
					"type": "function"
				}
			],
			"devdoc": {
				"kind": "dev",
				"methods": {},
				"version": 1
			},
			"evm": {
				"assembly": "    /* \"lecture/lec17.sol\":71:917  contract lec17 {... */\n  mstore(0x40, 0x80)\n  callvalue\n  dup1\n  iszero\n  tag_1\n  jumpi\n  0x00\n  dup1\n  revert\ntag_1:\n  pop\n  dataSize(sub_0)\n  dup1\n  dataOffset(sub_0)\n  0x00\n  codecopy\n  0x00\n  return\nstop\n\nsub_0: assembly {\n        /* \"lecture/lec17.sol\":71:917  contract lec17 {... */\n      mstore(0x40, 0x80)\n      callvalue\n      dup1\n      iszero\n      tag_1\n      jumpi\n      0x00\n      dup1\n      revert\n    tag_1:\n      pop\n      jumpi(tag_2, lt(calldatasize, 0x04))\n      shr(0xe0, calldataload(0x00))\n      dup1\n      0x1bbefaf1\n      eq\n      tag_3\n      jumpi\n      dup1\n      0x3923cf71\n      eq\n      tag_4\n      jumpi\n      dup1\n      0x3c8c3931\n      eq\n      tag_5\n      jumpi\n      dup1\n      0x6b8ff574\n      eq\n      tag_6\n      jumpi\n      dup1\n      0xa266f6c2\n      eq\n      tag_7\n      jumpi\n      dup1\n      0xfe093d3b\n      eq\n      tag_8\n      jumpi\n    tag_2:\n      0x00\n      dup1\n      revert\n        /* \"lecture/lec17.sol\":452:558  function setNameList(uint256 _index, string memory _name) public {... */\n    tag_3:\n      tag_9\n      0x04\n      dup1\n      calldatasize\n      sub\n      dup2\n      add\n      swap1\n      tag_10\n      swap2\n      swap1\n      tag_11\n      jump\t// in\n    tag_10:\n      tag_12\n      jump\t// in\n    tag_9:\n      stop\n        /* \"lecture/lec17.sol\":343:446  function getAgeList(uint256 _index) public view returns(uint256){... */\n    tag_4:\n      tag_13\n      0x04\n      dup1\n      calldatasize\n      sub\n      dup2\n      add\n      swap1\n      tag_14\n      swap2\n      swap1\n      tag_15\n      jump\t// in\n    tag_14:\n      tag_16\n      jump\t// in\n    tag_13:\n      mload(0x40)\n      tag_17\n      swap2\n      swap1\n      tag_18\n      jump\t// in\n    tag_17:\n      mload(0x40)\n      dup1\n      swap2\n      sub\n      swap1\n      return\n        /* \"lecture/lec17.sol\":796:915  function getPirceList(string memory _itemName) public view returns(uint256){... */\n    tag_5:\n      tag_19\n      0x04\n      dup1\n      calldatasize\n      sub\n      dup2\n      add\n      swap1\n      tag_20\n      swap2\n      swap1\n      tag_21\n      jump\t// in\n    tag_20:\n      tag_22\n      jump\t// in\n    tag_19:\n      mload(0x40)\n      tag_23\n      swap2\n      swap1\n      tag_18\n      jump\t// in\n    tag_23:\n      mload(0x40)\n      dup1\n      swap2\n      sub\n      swap1\n      return\n        /* \"lecture/lec17.sol\":563:670  function getName(uint256 _index) public view returns(string memory){... */\n    tag_6:\n      tag_24\n      0x04\n      dup1\n      calldatasize\n      sub\n      dup2\n      add\n      swap1\n      tag_25\n      swap2\n      swap1\n      tag_15\n      jump\t// in\n    tag_25:\n      tag_26\n      jump\t// in\n    tag_24:\n      mload(0x40)\n      tag_27\n      swap2\n      swap1\n      tag_28\n      jump\t// in\n    tag_27:\n      mload(0x40)\n      dup1\n      swap2\n      sub\n      swap1\n      return\n        /* \"lecture/lec17.sol\":675:791  function setPriceList(string memory _itemName, uint256 _price) public {... */\n    tag_7:\n      tag_29\n      0x04\n      dup1\n      calldatasize\n      sub\n      dup2\n      add\n      swap1\n      tag_30\n      swap2\n      swap1\n      tag_31\n      jump\t// in\n    tag_30:\n      tag_32\n      jump\t// in\n    tag_29:\n      stop\n        /* \"lecture/lec17.sol\":241:337  function setAgeList(uint256 _index, uint256 _age) public {... */\n    tag_8:\n      tag_33\n      0x04\n      dup1\n      calldatasize\n      sub\n      dup2\n      add\n      swap1\n      tag_34\n      swap2\n      swap1\n      tag_35\n      jump\t// in\n    tag_34:\n      tag_36\n      jump\t// in\n    tag_33:\n      stop\n        /* \"lecture/lec17.sol\":452:558  function setNameList(uint256 _index, string memory _name) public {... */\n    tag_12:\n        /* \"lecture/lec17.sol\":546:551  _name */\n      dup1\n        /* \"lecture/lec17.sol\":527:535  nameList */\n      0x02\n        /* \"lecture/lec17.sol\":527:543  nameList[_index] */\n      0x00\n        /* \"lecture/lec17.sol\":536:542  _index */\n      dup5\n        /* \"lecture/lec17.sol\":527:543  nameList[_index] */\n      dup2\n      mstore\n      0x20\n      add\n      swap1\n      dup2\n      mstore\n      0x20\n      add\n      0x00\n      keccak256\n        /* \"lecture/lec17.sol\":527:551  nameList[_index] = _name */\n      swap1\n      dup1\n      mload\n      swap1\n      0x20\n      add\n      swap1\n      tag_38\n      swap3\n      swap2\n      swap1\n      tag_39\n      jump\t// in\n    tag_38:\n      pop\n        /* \"lecture/lec17.sol\":452:558  function setNameList(uint256 _index, string memory _name) public {... */\n      pop\n      pop\n      jump\t// out\n        /* \"lecture/lec17.sol\":343:446  function getAgeList(uint256 _index) public view returns(uint256){... */\n    tag_16:\n        /* \"lecture/lec17.sol\":399:406  uint256 */\n      0x00\n        /* \"lecture/lec17.sol\":424:431  ageList */\n      dup1\n        /* \"lecture/lec17.sol\":424:439  ageList[_index] */\n      0x00\n        /* \"lecture/lec17.sol\":432:438  _index */\n      dup4\n        /* \"lecture/lec17.sol\":424:439  ageList[_index] */\n      dup2\n      mstore\n      0x20\n      add\n      swap1\n      dup2\n      mstore\n      0x20\n      add\n      0x00\n      keccak256\n      sload\n        /* \"lecture/lec17.sol\":417:439  return ageList[_index] */\n      swap1\n      pop\n        /* \"lecture/lec17.sol\":343:446  function getAgeList(uint256 _index) public view returns(uint256){... */\n      swap2\n      swap1\n      pop\n      jump\t// out\n        /* \"lecture/lec17.sol\":796:915  function getPirceList(string memory _itemName) public view returns(uint256){... */\n    tag_22:\n        /* \"lecture/lec17.sol\":863:870  uint256 */\n      0x00\n        /* \"lecture/lec17.sol\":888:897  priceList */\n      0x01\n        /* \"lecture/lec17.sol\":898:907  _itemName */\n      dup3\n        /* \"lecture/lec17.sol\":888:908  priceList[_itemName] */\n      mload(0x40)\n      tag_42\n      swap2\n      swap1\n      tag_43\n      jump\t// in\n    tag_42:\n      swap1\n      dup2\n      mstore\n      0x20\n      add\n      mload(0x40)\n      dup1\n      swap2\n      sub\n      swap1\n      keccak256\n      sload\n        /* \"lecture/lec17.sol\":881:908  return priceList[_itemName] */\n      swap1\n      pop\n        /* \"lecture/lec17.sol\":796:915  function getPirceList(string memory _itemName) public view returns(uint256){... */\n      swap2\n      swap1\n      pop\n      jump\t// out\n        /* \"lecture/lec17.sol\":563:670  function getName(uint256 _index) public view returns(string memory){... */\n    tag_26:\n        /* \"lecture/lec17.sol\":616:629  string memory */\n      0x60\n        /* \"lecture/lec17.sol\":647:655  nameList */\n      0x02\n        /* \"lecture/lec17.sol\":647:663  nameList[_index] */\n      0x00\n        /* \"lecture/lec17.sol\":656:662  _index */\n      dup4\n        /* \"lecture/lec17.sol\":647:663  nameList[_index] */\n      dup2\n      mstore\n      0x20\n      add\n      swap1\n      dup2\n      mstore\n      0x20\n      add\n      0x00\n      keccak256\n        /* \"lecture/lec17.sol\":640:663  return nameList[_index] */\n      dup1\n      sload\n      tag_45\n      swap1\n      tag_46\n      jump\t// in\n    tag_45:\n      dup1\n      0x1f\n      add\n      0x20\n      dup1\n      swap2\n      div\n      mul\n      0x20\n      add\n      mload(0x40)\n      swap1\n      dup2\n      add\n      0x40\n      mstore\n      dup1\n      swap3\n      swap2\n      swap1\n      dup2\n      dup2\n      mstore\n      0x20\n      add\n      dup3\n      dup1\n      sload\n      tag_47\n      swap1\n      tag_46\n      jump\t// in\n    tag_47:\n      dup1\n      iszero\n      tag_48\n      jumpi\n      dup1\n      0x1f\n      lt\n      tag_49\n      jumpi\n      0x0100\n      dup1\n      dup4\n      sload\n      div\n      mul\n      dup4\n      mstore\n      swap2\n      0x20\n      add\n      swap2\n      jump(tag_48)\n    tag_49:\n      dup3\n      add\n      swap2\n      swap1\n      0x00\n      mstore\n      keccak256(0x00, 0x20)\n      swap1\n    tag_50:\n      dup2\n      sload\n      dup2\n      mstore\n      swap1\n      0x01\n      add\n      swap1\n      0x20\n      add\n      dup1\n      dup4\n      gt\n      tag_50\n      jumpi\n      dup3\n      swap1\n      sub\n      0x1f\n      and\n      dup3\n      add\n      swap2\n    tag_48:\n      pop\n      pop\n      pop\n      pop\n      pop\n      swap1\n      pop\n        /* \"lecture/lec17.sol\":563:670  function getName(uint256 _index) public view returns(string memory){... */\n      swap2\n      swap1\n      pop\n      jump\t// out\n        /* \"lecture/lec17.sol\":675:791  function setPriceList(string memory _itemName, uint256 _price) public {... */\n    tag_32:\n        /* \"lecture/lec17.sol\":778:784  _price */\n      dup1\n        /* \"lecture/lec17.sol\":755:764  priceList */\n      0x01\n        /* \"lecture/lec17.sol\":765:774  _itemName */\n      dup4\n        /* \"lecture/lec17.sol\":755:775  priceList[_itemName] */\n      mload(0x40)\n      tag_52\n      swap2\n      swap1\n      tag_43\n      jump\t// in\n    tag_52:\n      swap1\n      dup2\n      mstore\n      0x20\n      add\n      mload(0x40)\n      dup1\n      swap2\n      sub\n      swap1\n      keccak256\n        /* \"lecture/lec17.sol\":755:784  priceList[_itemName] = _price */\n      dup2\n      swap1\n      sstore\n      pop\n        /* \"lecture/lec17.sol\":675:791  function setPriceList(string memory _itemName, uint256 _price) public {... */\n      pop\n      pop\n      jump\t// out\n        /* \"lecture/lec17.sol\":241:337  function setAgeList(uint256 _index, uint256 _age) public {... */\n    tag_36:\n        /* \"lecture/lec17.sol\":326:330  _age */\n      dup1\n        /* \"lecture/lec17.sol\":308:315  ageList */\n      0x00\n        /* \"lecture/lec17.sol\":308:323  ageList[_index] */\n      dup1\n        /* \"lecture/lec17.sol\":316:322  _index */\n      dup5\n        /* \"lecture/lec17.sol\":308:323  ageList[_index] */\n      dup2\n      mstore\n      0x20\n      add\n      swap1\n      dup2\n      mstore\n      0x20\n      add\n      0x00\n      keccak256\n        /* \"lecture/lec17.sol\":308:330  ageList[_index] = _age */\n      dup2\n      swap1\n      sstore\n      pop\n        /* \"lecture/lec17.sol\":241:337  function setAgeList(uint256 _index, uint256 _age) public {... */\n      pop\n      pop\n      jump\t// out\n    tag_39:\n      dup3\n      dup1\n      sload\n      tag_54\n      swap1\n      tag_46\n      jump\t// in\n    tag_54:\n      swap1\n      0x00\n      mstore\n      keccak256(0x00, 0x20)\n      swap1\n      0x1f\n      add\n      0x20\n      swap1\n      div\n      dup2\n      add\n      swap3\n      dup3\n      tag_56\n      jumpi\n      0x00\n      dup6\n      sstore\n      jump(tag_55)\n    tag_56:\n      dup3\n      0x1f\n      lt\n      tag_57\n      jumpi\n      dup1\n      mload\n      not(0xff)\n      and\n      dup4\n      dup1\n      add\n      or\n      dup6\n      sstore\n      jump(tag_55)\n    tag_57:\n      dup3\n      dup1\n      add\n      0x01\n      add\n      dup6\n      sstore\n      dup3\n      iszero\n      tag_55\n      jumpi\n      swap2\n      dup3\n      add\n    tag_58:\n      dup3\n      dup2\n      gt\n      iszero\n      tag_59\n      jumpi\n      dup3\n      mload\n      dup3\n      sstore\n      swap2\n      0x20\n      add\n      swap2\n      swap1\n      0x01\n      add\n      swap1\n      jump(tag_58)\n    tag_59:\n    tag_55:\n      pop\n      swap1\n      pop\n      tag_60\n      swap2\n      swap1\n      tag_61\n      jump\t// in\n    tag_60:\n      pop\n      swap1\n      jump\t// out\n    tag_61:\n    tag_62:\n      dup1\n      dup3\n      gt\n      iszero\n      tag_63\n      jumpi\n      0x00\n      dup2\n      0x00\n      swap1\n      sstore\n      pop\n      0x01\n      add\n      jump(tag_62)\n    tag_63:\n      pop\n      swap1\n      jump\t// out\n        /* \"#utility.yul\":7:419   */\n    tag_65:\n        /* \"#utility.yul\":85:90   */\n      0x00\n        /* \"#utility.yul\":110:176   */\n      tag_67\n        /* \"#utility.yul\":126:175   */\n      tag_68\n        /* \"#utility.yul\":168:174   */\n      dup5\n        /* \"#utility.yul\":126:175   */\n      tag_69\n      jump\t// in\n    tag_68:\n        /* \"#utility.yul\":110:176   */\n      tag_70\n      jump\t// in\n    tag_67:\n        /* \"#utility.yul\":101:176   */\n      swap1\n      pop\n        /* \"#utility.yul\":199:205   */\n      dup3\n        /* \"#utility.yul\":192:197   */\n      dup2\n        /* \"#utility.yul\":185:206   */\n      mstore\n        /* \"#utility.yul\":237:241   */\n      0x20\n        /* \"#utility.yul\":230:235   */\n      dup2\n        /* \"#utility.yul\":226:242   */\n      add\n        /* \"#utility.yul\":275:278   */\n      dup5\n        /* \"#utility.yul\":266:272   */\n      dup5\n        /* \"#utility.yul\":261:264   */\n      dup5\n        /* \"#utility.yul\":257:273   */\n      add\n        /* \"#utility.yul\":254:279   */\n      gt\n        /* \"#utility.yul\":251:363   */\n      iszero\n      tag_71\n      jumpi\n        /* \"#utility.yul\":282:361   */\n      tag_72\n      tag_73\n      jump\t// in\n    tag_72:\n        /* \"#utility.yul\":251:363   */\n    tag_71:\n        /* \"#utility.yul\":372:413   */\n      tag_74\n        /* \"#utility.yul\":406:412   */\n      dup5\n        /* \"#utility.yul\":401:404   */\n      dup3\n        /* \"#utility.yul\":396:399   */\n      dup6\n        /* \"#utility.yul\":372:413   */\n      tag_75\n      jump\t// in\n    tag_74:\n        /* \"#utility.yul\":91:419   */\n      pop\n        /* \"#utility.yul\":7:419   */\n      swap4\n      swap3\n      pop\n      pop\n      pop\n      jump\t// out\n        /* \"#utility.yul\":439:779   */\n    tag_76:\n        /* \"#utility.yul\":495:500   */\n      0x00\n        /* \"#utility.yul\":544:547   */\n      dup3\n        /* \"#utility.yul\":537:541   */\n      0x1f\n        /* \"#utility.yul\":529:535   */\n      dup4\n        /* \"#utility.yul\":525:542   */\n      add\n        /* \"#utility.yul\":521:548   */\n      slt\n        /* \"#utility.yul\":511:633   */\n      tag_78\n      jumpi\n        /* \"#utility.yul\":552:631   */\n      tag_79\n      tag_80\n      jump\t// in\n    tag_79:\n        /* \"#utility.yul\":511:633   */\n    tag_78:\n        /* \"#utility.yul\":669:675   */\n      dup2\n        /* \"#utility.yul\":656:676   */\n      calldataload\n        /* \"#utility.yul\":694:773   */\n      tag_81\n        /* \"#utility.yul\":769:772   */\n      dup5\n        /* \"#utility.yul\":761:767   */\n      dup3\n        /* \"#utility.yul\":754:758   */\n      0x20\n        /* \"#utility.yul\":746:752   */\n      dup7\n        /* \"#utility.yul\":742:759   */\n      add\n        /* \"#utility.yul\":694:773   */\n      tag_65\n      jump\t// in\n    tag_81:\n        /* \"#utility.yul\":685:773   */\n      swap2\n      pop\n        /* \"#utility.yul\":501:779   */\n      pop\n        /* \"#utility.yul\":439:779   */\n      swap3\n      swap2\n      pop\n      pop\n      jump\t// out\n        /* \"#utility.yul\":785:924   */\n    tag_82:\n        /* \"#utility.yul\":831:836   */\n      0x00\n        /* \"#utility.yul\":869:875   */\n      dup2\n        /* \"#utility.yul\":856:876   */\n      calldataload\n        /* \"#utility.yul\":847:876   */\n      swap1\n      pop\n        /* \"#utility.yul\":885:918   */\n      tag_84\n        /* \"#utility.yul\":912:917   */\n      dup2\n        /* \"#utility.yul\":885:918   */\n      tag_85\n      jump\t// in\n    tag_84:\n        /* \"#utility.yul\":785:924   */\n      swap3\n      swap2\n      pop\n      pop\n      jump\t// out\n        /* \"#utility.yul\":930:1439   */\n    tag_21:\n        /* \"#utility.yul\":999:1005   */\n      0x00\n        /* \"#utility.yul\":1048:1050   */\n      0x20\n        /* \"#utility.yul\":1036:1045   */\n      dup3\n        /* \"#utility.yul\":1027:1034   */\n      dup5\n        /* \"#utility.yul\":1023:1046   */\n      sub\n        /* \"#utility.yul\":1019:1051   */\n      slt\n        /* \"#utility.yul\":1016:1135   */\n      iszero\n      tag_87\n      jumpi\n        /* \"#utility.yul\":1054:1133   */\n      tag_88\n      tag_89\n      jump\t// in\n    tag_88:\n        /* \"#utility.yul\":1016:1135   */\n    tag_87:\n        /* \"#utility.yul\":1202:1203   */\n      0x00\n        /* \"#utility.yul\":1191:1200   */\n      dup3\n        /* \"#utility.yul\":1187:1204   */\n      add\n        /* \"#utility.yul\":1174:1205   */\n      calldataload\n        /* \"#utility.yul\":1232:1250   */\n      0xffffffffffffffff\n        /* \"#utility.yul\":1224:1230   */\n      dup2\n        /* \"#utility.yul\":1221:1251   */\n      gt\n        /* \"#utility.yul\":1218:1335   */\n      iszero\n      tag_90\n      jumpi\n        /* \"#utility.yul\":1254:1333   */\n      tag_91\n      tag_92\n      jump\t// in\n    tag_91:\n        /* \"#utility.yul\":1218:1335   */\n    tag_90:\n        /* \"#utility.yul\":1359:1422   */\n      tag_93\n        /* \"#utility.yul\":1414:1421   */\n      dup5\n        /* \"#utility.yul\":1405:1411   */\n      dup3\n        /* \"#utility.yul\":1394:1403   */\n      dup6\n        /* \"#utility.yul\":1390:1412   */\n      add\n        /* \"#utility.yul\":1359:1422   */\n      tag_76\n      jump\t// in\n    tag_93:\n        /* \"#utility.yul\":1349:1422   */\n      swap2\n      pop\n        /* \"#utility.yul\":1145:1432   */\n      pop\n        /* \"#utility.yul\":930:1439   */\n      swap3\n      swap2\n      pop\n      pop\n      jump\t// out\n        /* \"#utility.yul\":1445:2099   */\n    tag_31:\n        /* \"#utility.yul\":1523:1529   */\n      0x00\n        /* \"#utility.yul\":1531:1537   */\n      dup1\n        /* \"#utility.yul\":1580:1582   */\n      0x40\n        /* \"#utility.yul\":1568:1577   */\n      dup4\n        /* \"#utility.yul\":1559:1566   */\n      dup6\n        /* \"#utility.yul\":1555:1578   */\n      sub\n        /* \"#utility.yul\":1551:1583   */\n      slt\n        /* \"#utility.yul\":1548:1667   */\n      iszero\n      tag_95\n      jumpi\n        /* \"#utility.yul\":1586:1665   */\n      tag_96\n      tag_89\n      jump\t// in\n    tag_96:\n        /* \"#utility.yul\":1548:1667   */\n    tag_95:\n        /* \"#utility.yul\":1734:1735   */\n      0x00\n        /* \"#utility.yul\":1723:1732   */\n      dup4\n        /* \"#utility.yul\":1719:1736   */\n      add\n        /* \"#utility.yul\":1706:1737   */\n      calldataload\n        /* \"#utility.yul\":1764:1782   */\n      0xffffffffffffffff\n        /* \"#utility.yul\":1756:1762   */\n      dup2\n        /* \"#utility.yul\":1753:1783   */\n      gt\n        /* \"#utility.yul\":1750:1867   */\n      iszero\n      tag_97\n      jumpi\n        /* \"#utility.yul\":1786:1865   */\n      tag_98\n      tag_92\n      jump\t// in\n    tag_98:\n        /* \"#utility.yul\":1750:1867   */\n    tag_97:\n        /* \"#utility.yul\":1891:1954   */\n      tag_99\n        /* \"#utility.yul\":1946:1953   */\n      dup6\n        /* \"#utility.yul\":1937:1943   */\n      dup3\n        /* \"#utility.yul\":1926:1935   */\n      dup7\n        /* \"#utility.yul\":1922:1944   */\n      add\n        /* \"#utility.yul\":1891:1954   */\n      tag_76\n      jump\t// in\n    tag_99:\n        /* \"#utility.yul\":1881:1954   */\n      swap3\n      pop\n        /* \"#utility.yul\":1677:1964   */\n      pop\n        /* \"#utility.yul\":2003:2005   */\n      0x20\n        /* \"#utility.yul\":2029:2082   */\n      tag_100\n        /* \"#utility.yul\":2074:2081   */\n      dup6\n        /* \"#utility.yul\":2065:2071   */\n      dup3\n        /* \"#utility.yul\":2054:2063   */\n      dup7\n        /* \"#utility.yul\":2050:2072   */\n      add\n        /* \"#utility.yul\":2029:2082   */\n      tag_82\n      jump\t// in\n    tag_100:\n        /* \"#utility.yul\":2019:2082   */\n      swap2\n      pop\n        /* \"#utility.yul\":1974:2092   */\n      pop\n        /* \"#utility.yul\":1445:2099   */\n      swap3\n      pop\n      swap3\n      swap1\n      pop\n      jump\t// out\n        /* \"#utility.yul\":2105:2434   */\n    tag_15:\n        /* \"#utility.yul\":2164:2170   */\n      0x00\n        /* \"#utility.yul\":2213:2215   */\n      0x20\n        /* \"#utility.yul\":2201:2210   */\n      dup3\n        /* \"#utility.yul\":2192:2199   */\n      dup5\n        /* \"#utility.yul\":2188:2211   */\n      sub\n        /* \"#utility.yul\":2184:2216   */\n      slt\n        /* \"#utility.yul\":2181:2300   */\n      iszero\n      tag_102\n      jumpi\n        /* \"#utility.yul\":2219:2298   */\n      tag_103\n      tag_89\n      jump\t// in\n    tag_103:\n        /* \"#utility.yul\":2181:2300   */\n    tag_102:\n        /* \"#utility.yul\":2339:2340   */\n      0x00\n        /* \"#utility.yul\":2364:2417   */\n      tag_104\n        /* \"#utility.yul\":2409:2416   */\n      dup5\n        /* \"#utility.yul\":2400:2406   */\n      dup3\n        /* \"#utility.yul\":2389:2398   */\n      dup6\n        /* \"#utility.yul\":2385:2407   */\n      add\n        /* \"#utility.yul\":2364:2417   */\n      tag_82\n      jump\t// in\n    tag_104:\n        /* \"#utility.yul\":2354:2417   */\n      swap2\n      pop\n        /* \"#utility.yul\":2310:2427   */\n      pop\n        /* \"#utility.yul\":2105:2434   */\n      swap3\n      swap2\n      pop\n      pop\n      jump\t// out\n        /* \"#utility.yul\":2440:3094   */\n    tag_11:\n        /* \"#utility.yul\":2518:2524   */\n      0x00\n        /* \"#utility.yul\":2526:2532   */\n      dup1\n        /* \"#utility.yul\":2575:2577   */\n      0x40\n        /* \"#utility.yul\":2563:2572   */\n      dup4\n        /* \"#utility.yul\":2554:2561   */\n      dup6\n        /* \"#utility.yul\":2550:2573   */\n      sub\n        /* \"#utility.yul\":2546:2578   */\n      slt\n        /* \"#utility.yul\":2543:2662   */\n      iszero\n      tag_106\n      jumpi\n        /* \"#utility.yul\":2581:2660   */\n      tag_107\n      tag_89\n      jump\t// in\n    tag_107:\n        /* \"#utility.yul\":2543:2662   */\n    tag_106:\n        /* \"#utility.yul\":2701:2702   */\n      0x00\n        /* \"#utility.yul\":2726:2779   */\n      tag_108\n        /* \"#utility.yul\":2771:2778   */\n      dup6\n        /* \"#utility.yul\":2762:2768   */\n      dup3\n        /* \"#utility.yul\":2751:2760   */\n      dup7\n        /* \"#utility.yul\":2747:2769   */\n      add\n        /* \"#utility.yul\":2726:2779   */\n      tag_82\n      jump\t// in\n    tag_108:\n        /* \"#utility.yul\":2716:2779   */\n      swap3\n      pop\n        /* \"#utility.yul\":2672:2789   */\n      pop\n        /* \"#utility.yul\":2856:2858   */\n      0x20\n        /* \"#utility.yul\":2845:2854   */\n      dup4\n        /* \"#utility.yul\":2841:2859   */\n      add\n        /* \"#utility.yul\":2828:2860   */\n      calldataload\n        /* \"#utility.yul\":2887:2905   */\n      0xffffffffffffffff\n        /* \"#utility.yul\":2879:2885   */\n      dup2\n        /* \"#utility.yul\":2876:2906   */\n      gt\n        /* \"#utility.yul\":2873:2990   */\n      iszero\n      tag_109\n      jumpi\n        /* \"#utility.yul\":2909:2988   */\n      tag_110\n      tag_92\n      jump\t// in\n    tag_110:\n        /* \"#utility.yul\":2873:2990   */\n    tag_109:\n        /* \"#utility.yul\":3014:3077   */\n      tag_111\n        /* \"#utility.yul\":3069:3076   */\n      dup6\n        /* \"#utility.yul\":3060:3066   */\n      dup3\n        /* \"#utility.yul\":3049:3058   */\n      dup7\n        /* \"#utility.yul\":3045:3067   */\n      add\n        /* \"#utility.yul\":3014:3077   */\n      tag_76\n      jump\t// in\n    tag_111:\n        /* \"#utility.yul\":3004:3077   */\n      swap2\n      pop\n        /* \"#utility.yul\":2799:3087   */\n      pop\n        /* \"#utility.yul\":2440:3094   */\n      swap3\n      pop\n      swap3\n      swap1\n      pop\n      jump\t// out\n        /* \"#utility.yul\":3100:3574   */\n    tag_35:\n        /* \"#utility.yul\":3168:3174   */\n      0x00\n        /* \"#utility.yul\":3176:3182   */\n      dup1\n        /* \"#utility.yul\":3225:3227   */\n      0x40\n        /* \"#utility.yul\":3213:3222   */\n      dup4\n        /* \"#utility.yul\":3204:3211   */\n      dup6\n        /* \"#utility.yul\":3200:3223   */\n      sub\n        /* \"#utility.yul\":3196:3228   */\n      slt\n        /* \"#utility.yul\":3193:3312   */\n      iszero\n      tag_113\n      jumpi\n        /* \"#utility.yul\":3231:3310   */\n      tag_114\n      tag_89\n      jump\t// in\n    tag_114:\n        /* \"#utility.yul\":3193:3312   */\n    tag_113:\n        /* \"#utility.yul\":3351:3352   */\n      0x00\n        /* \"#utility.yul\":3376:3429   */\n      tag_115\n        /* \"#utility.yul\":3421:3428   */\n      dup6\n        /* \"#utility.yul\":3412:3418   */\n      dup3\n        /* \"#utility.yul\":3401:3410   */\n      dup7\n        /* \"#utility.yul\":3397:3419   */\n      add\n        /* \"#utility.yul\":3376:3429   */\n      tag_82\n      jump\t// in\n    tag_115:\n        /* \"#utility.yul\":3366:3429   */\n      swap3\n      pop\n        /* \"#utility.yul\":3322:3439   */\n      pop\n        /* \"#utility.yul\":3478:3480   */\n      0x20\n        /* \"#utility.yul\":3504:3557   */\n      tag_116\n        /* \"#utility.yul\":3549:3556   */\n      dup6\n        /* \"#utility.yul\":3540:3546   */\n      dup3\n        /* \"#utility.yul\":3529:3538   */\n      dup7\n        /* \"#utility.yul\":3525:3547   */\n      add\n        /* \"#utility.yul\":3504:3557   */\n      tag_82\n      jump\t// in\n    tag_116:\n        /* \"#utility.yul\":3494:3557   */\n      swap2\n      pop\n        /* \"#utility.yul\":3449:3567   */\n      pop\n        /* \"#utility.yul\":3100:3574   */\n      swap3\n      pop\n      swap3\n      swap1\n      pop\n      jump\t// out\n        /* \"#utility.yul\":3580:3944   */\n    tag_117:\n        /* \"#utility.yul\":3668:3671   */\n      0x00\n        /* \"#utility.yul\":3696:3735   */\n      tag_119\n        /* \"#utility.yul\":3729:3734   */\n      dup3\n        /* \"#utility.yul\":3696:3735   */\n      tag_120\n      jump\t// in\n    tag_119:\n        /* \"#utility.yul\":3751:3822   */\n      tag_121\n        /* \"#utility.yul\":3815:3821   */\n      dup2\n        /* \"#utility.yul\":3810:3813   */\n      dup6\n        /* \"#utility.yul\":3751:3822   */\n      tag_122\n      jump\t// in\n    tag_121:\n        /* \"#utility.yul\":3744:3822   */\n      swap4\n      pop\n        /* \"#utility.yul\":3831:3883   */\n      tag_123\n        /* \"#utility.yul\":3876:3882   */\n      dup2\n        /* \"#utility.yul\":3871:3874   */\n      dup6\n        /* \"#utility.yul\":3864:3868   */\n      0x20\n        /* \"#utility.yul\":3857:3862   */\n      dup7\n        /* \"#utility.yul\":3853:3869   */\n      add\n        /* \"#utility.yul\":3831:3883   */\n      tag_124\n      jump\t// in\n    tag_123:\n        /* \"#utility.yul\":3908:3937   */\n      tag_125\n        /* \"#utility.yul\":3930:3936   */\n      dup2\n        /* \"#utility.yul\":3908:3937   */\n      tag_126\n      jump\t// in\n    tag_125:\n        /* \"#utility.yul\":3903:3906   */\n      dup5\n        /* \"#utility.yul\":3899:3938   */\n      add\n        /* \"#utility.yul\":3892:3938   */\n      swap2\n      pop\n        /* \"#utility.yul\":3672:3944   */\n      pop\n        /* \"#utility.yul\":3580:3944   */\n      swap3\n      swap2\n      pop\n      pop\n      jump\t// out\n        /* \"#utility.yul\":3950:4327   */\n    tag_127:\n        /* \"#utility.yul\":4056:4059   */\n      0x00\n        /* \"#utility.yul\":4084:4123   */\n      tag_129\n        /* \"#utility.yul\":4117:4122   */\n      dup3\n        /* \"#utility.yul\":4084:4123   */\n      tag_120\n      jump\t// in\n    tag_129:\n        /* \"#utility.yul\":4139:4228   */\n      tag_130\n        /* \"#utility.yul\":4221:4227   */\n      dup2\n        /* \"#utility.yul\":4216:4219   */\n      dup6\n        /* \"#utility.yul\":4139:4228   */\n      tag_131\n      jump\t// in\n    tag_130:\n        /* \"#utility.yul\":4132:4228   */\n      swap4\n      pop\n        /* \"#utility.yul\":4237:4289   */\n      tag_132\n        /* \"#utility.yul\":4282:4288   */\n      dup2\n        /* \"#utility.yul\":4277:4280   */\n      dup6\n        /* \"#utility.yul\":4270:4274   */\n      0x20\n        /* \"#utility.yul\":4263:4268   */\n      dup7\n        /* \"#utility.yul\":4259:4275   */\n      add\n        /* \"#utility.yul\":4237:4289   */\n      tag_124\n      jump\t// in\n    tag_132:\n        /* \"#utility.yul\":4314:4320   */\n      dup1\n        /* \"#utility.yul\":4309:4312   */\n      dup5\n        /* \"#utility.yul\":4305:4321   */\n      add\n        /* \"#utility.yul\":4298:4321   */\n      swap2\n      pop\n        /* \"#utility.yul\":4060:4327   */\n      pop\n        /* \"#utility.yul\":3950:4327   */\n      swap3\n      swap2\n      pop\n      pop\n      jump\t// out\n        /* \"#utility.yul\":4333:4451   */\n    tag_133:\n        /* \"#utility.yul\":4420:4444   */\n      tag_135\n        /* \"#utility.yul\":4438:4443   */\n      dup2\n        /* \"#utility.yul\":4420:4444   */\n      tag_136\n      jump\t// in\n    tag_135:\n        /* \"#utility.yul\":4415:4418   */\n      dup3\n        /* \"#utility.yul\":4408:4445   */\n      mstore\n        /* \"#utility.yul\":4333:4451   */\n      pop\n      pop\n      jump\t// out\n        /* \"#utility.yul\":4457:4732   */\n    tag_43:\n        /* \"#utility.yul\":4589:4592   */\n      0x00\n        /* \"#utility.yul\":4611:4706   */\n      tag_138\n        /* \"#utility.yul\":4702:4705   */\n      dup3\n        /* \"#utility.yul\":4693:4699   */\n      dup5\n        /* \"#utility.yul\":4611:4706   */\n      tag_127\n      jump\t// in\n    tag_138:\n        /* \"#utility.yul\":4604:4706   */\n      swap2\n      pop\n        /* \"#utility.yul\":4723:4726   */\n      dup2\n        /* \"#utility.yul\":4716:4726   */\n      swap1\n      pop\n        /* \"#utility.yul\":4457:4732   */\n      swap3\n      swap2\n      pop\n      pop\n      jump\t// out\n        /* \"#utility.yul\":4738:5051   */\n    tag_28:\n        /* \"#utility.yul\":4851:4855   */\n      0x00\n        /* \"#utility.yul\":4889:4891   */\n      0x20\n        /* \"#utility.yul\":4878:4887   */\n      dup3\n        /* \"#utility.yul\":4874:4892   */\n      add\n        /* \"#utility.yul\":4866:4892   */\n      swap1\n      pop\n        /* \"#utility.yul\":4938:4947   */\n      dup2\n        /* \"#utility.yul\":4932:4936   */\n      dup2\n        /* \"#utility.yul\":4928:4948   */\n      sub\n        /* \"#utility.yul\":4924:4925   */\n      0x00\n        /* \"#utility.yul\":4913:4922   */\n      dup4\n        /* \"#utility.yul\":4909:4926   */\n      add\n        /* \"#utility.yul\":4902:4949   */\n      mstore\n        /* \"#utility.yul\":4966:5044   */\n      tag_140\n        /* \"#utility.yul\":5039:5043   */\n      dup2\n        /* \"#utility.yul\":5030:5036   */\n      dup5\n        /* \"#utility.yul\":4966:5044   */\n      tag_117\n      jump\t// in\n    tag_140:\n        /* \"#utility.yul\":4958:5044   */\n      swap1\n      pop\n        /* \"#utility.yul\":4738:5051   */\n      swap3\n      swap2\n      pop\n      pop\n      jump\t// out\n        /* \"#utility.yul\":5057:5279   */\n    tag_18:\n        /* \"#utility.yul\":5150:5154   */\n      0x00\n        /* \"#utility.yul\":5188:5190   */\n      0x20\n        /* \"#utility.yul\":5177:5186   */\n      dup3\n        /* \"#utility.yul\":5173:5191   */\n      add\n        /* \"#utility.yul\":5165:5191   */\n      swap1\n      pop\n        /* \"#utility.yul\":5201:5272   */\n      tag_142\n        /* \"#utility.yul\":5269:5270   */\n      0x00\n        /* \"#utility.yul\":5258:5267   */\n      dup4\n        /* \"#utility.yul\":5254:5271   */\n      add\n        /* \"#utility.yul\":5245:5251   */\n      dup5\n        /* \"#utility.yul\":5201:5272   */\n      tag_133\n      jump\t// in\n    tag_142:\n        /* \"#utility.yul\":5057:5279   */\n      swap3\n      swap2\n      pop\n      pop\n      jump\t// out\n        /* \"#utility.yul\":5285:5414   */\n    tag_70:\n        /* \"#utility.yul\":5319:5325   */\n      0x00\n        /* \"#utility.yul\":5346:5366   */\n      tag_144\n      tag_145\n      jump\t// in\n    tag_144:\n        /* \"#utility.yul\":5336:5366   */\n      swap1\n      pop\n        /* \"#utility.yul\":5375:5408   */\n      tag_146\n        /* \"#utility.yul\":5403:5407   */\n      dup3\n        /* \"#utility.yul\":5395:5401   */\n      dup3\n        /* \"#utility.yul\":5375:5408   */\n      tag_147\n      jump\t// in\n    tag_146:\n        /* \"#utility.yul\":5285:5414   */\n      swap2\n      swap1\n      pop\n      jump\t// out\n        /* \"#utility.yul\":5420:5495   */\n    tag_145:\n        /* \"#utility.yul\":5453:5459   */\n      0x00\n        /* \"#utility.yul\":5486:5488   */\n      0x40\n        /* \"#utility.yul\":5480:5489   */\n      mload\n        /* \"#utility.yul\":5470:5489   */\n      swap1\n      pop\n        /* \"#utility.yul\":5420:5495   */\n      swap1\n      jump\t// out\n        /* \"#utility.yul\":5501:5809   */\n    tag_69:\n        /* \"#utility.yul\":5563:5567   */\n      0x00\n        /* \"#utility.yul\":5653:5671   */\n      0xffffffffffffffff\n        /* \"#utility.yul\":5645:5651   */\n      dup3\n        /* \"#utility.yul\":5642:5672   */\n      gt\n        /* \"#utility.yul\":5639:5695   */\n      iszero\n      tag_150\n      jumpi\n        /* \"#utility.yul\":5675:5693   */\n      tag_151\n      tag_152\n      jump\t// in\n    tag_151:\n        /* \"#utility.yul\":5639:5695   */\n    tag_150:\n        /* \"#utility.yul\":5713:5742   */\n      tag_153\n        /* \"#utility.yul\":5735:5741   */\n      dup3\n        /* \"#utility.yul\":5713:5742   */\n      tag_126\n      jump\t// in\n    tag_153:\n        /* \"#utility.yul\":5705:5742   */\n      swap1\n      pop\n        /* \"#utility.yul\":5797:5801   */\n      0x20\n        /* \"#utility.yul\":5791:5795   */\n      dup2\n        /* \"#utility.yul\":5787:5802   */\n      add\n        /* \"#utility.yul\":5779:5802   */\n      swap1\n      pop\n        /* \"#utility.yul\":5501:5809   */\n      swap2\n      swap1\n      pop\n      jump\t// out\n        /* \"#utility.yul\":5815:5914   */\n    tag_120:\n        /* \"#utility.yul\":5867:5873   */\n      0x00\n        /* \"#utility.yul\":5901:5906   */\n      dup2\n        /* \"#utility.yul\":5895:5907   */\n      mload\n        /* \"#utility.yul\":5885:5907   */\n      swap1\n      pop\n        /* \"#utility.yul\":5815:5914   */\n      swap2\n      swap1\n      pop\n      jump\t// out\n        /* \"#utility.yul\":5920:6089   */\n    tag_122:\n        /* \"#utility.yul\":6004:6015   */\n      0x00\n        /* \"#utility.yul\":6038:6044   */\n      dup3\n        /* \"#utility.yul\":6033:6036   */\n      dup3\n        /* \"#utility.yul\":6026:6045   */\n      mstore\n        /* \"#utility.yul\":6078:6082   */\n      0x20\n        /* \"#utility.yul\":6073:6076   */\n      dup3\n        /* \"#utility.yul\":6069:6083   */\n      add\n        /* \"#utility.yul\":6054:6083   */\n      swap1\n      pop\n        /* \"#utility.yul\":5920:6089   */\n      swap3\n      swap2\n      pop\n      pop\n      jump\t// out\n        /* \"#utility.yul\":6095:6243   */\n    tag_131:\n        /* \"#utility.yul\":6197:6208   */\n      0x00\n        /* \"#utility.yul\":6234:6237   */\n      dup2\n        /* \"#utility.yul\":6219:6237   */\n      swap1\n      pop\n        /* \"#utility.yul\":6095:6243   */\n      swap3\n      swap2\n      pop\n      pop\n      jump\t// out\n        /* \"#utility.yul\":6249:6326   */\n    tag_136:\n        /* \"#utility.yul\":6286:6293   */\n      0x00\n        /* \"#utility.yul\":6315:6320   */\n      dup2\n        /* \"#utility.yul\":6304:6320   */\n      swap1\n      pop\n        /* \"#utility.yul\":6249:6326   */\n      swap2\n      swap1\n      pop\n      jump\t// out\n        /* \"#utility.yul\":6332:6486   */\n    tag_75:\n        /* \"#utility.yul\":6416:6422   */\n      dup3\n        /* \"#utility.yul\":6411:6414   */\n      dup2\n        /* \"#utility.yul\":6406:6409   */\n      dup4\n        /* \"#utility.yul\":6393:6423   */\n      calldatacopy\n        /* \"#utility.yul\":6478:6479   */\n      0x00\n        /* \"#utility.yul\":6469:6475   */\n      dup4\n        /* \"#utility.yul\":6464:6467   */\n      dup4\n        /* \"#utility.yul\":6460:6476   */\n      add\n        /* \"#utility.yul\":6453:6480   */\n      mstore\n        /* \"#utility.yul\":6332:6486   */\n      pop\n      pop\n      pop\n      jump\t// out\n        /* \"#utility.yul\":6492:6799   */\n    tag_124:\n        /* \"#utility.yul\":6560:6561   */\n      0x00\n        /* \"#utility.yul\":6570:6683   */\n    tag_160:\n        /* \"#utility.yul\":6584:6590   */\n      dup4\n        /* \"#utility.yul\":6581:6582   */\n      dup2\n        /* \"#utility.yul\":6578:6591   */\n      lt\n        /* \"#utility.yul\":6570:6683   */\n      iszero\n      tag_162\n      jumpi\n        /* \"#utility.yul\":6669:6670   */\n      dup1\n        /* \"#utility.yul\":6664:6667   */\n      dup3\n        /* \"#utility.yul\":6660:6671   */\n      add\n        /* \"#utility.yul\":6654:6672   */\n      mload\n        /* \"#utility.yul\":6650:6651   */\n      dup2\n        /* \"#utility.yul\":6645:6648   */\n      dup5\n        /* \"#utility.yul\":6641:6652   */\n      add\n        /* \"#utility.yul\":6634:6673   */\n      mstore\n        /* \"#utility.yul\":6606:6608   */\n      0x20\n        /* \"#utility.yul\":6603:6604   */\n      dup2\n        /* \"#utility.yul\":6599:6609   */\n      add\n        /* \"#utility.yul\":6594:6609   */\n      swap1\n      pop\n        /* \"#utility.yul\":6570:6683   */\n      jump(tag_160)\n    tag_162:\n        /* \"#utility.yul\":6701:6707   */\n      dup4\n        /* \"#utility.yul\":6698:6699   */\n      dup2\n        /* \"#utility.yul\":6695:6708   */\n      gt\n        /* \"#utility.yul\":6692:6793   */\n      iszero\n      tag_163\n      jumpi\n        /* \"#utility.yul\":6781:6782   */\n      0x00\n        /* \"#utility.yul\":6772:6778   */\n      dup5\n        /* \"#utility.yul\":6767:6770   */\n      dup5\n        /* \"#utility.yul\":6763:6779   */\n      add\n        /* \"#utility.yul\":6756:6783   */\n      mstore\n        /* \"#utility.yul\":6692:6793   */\n    tag_163:\n        /* \"#utility.yul\":6541:6799   */\n      pop\n        /* \"#utility.yul\":6492:6799   */\n      pop\n      pop\n      pop\n      jump\t// out\n        /* \"#utility.yul\":6805:7125   */\n    tag_46:\n        /* \"#utility.yul\":6849:6855   */\n      0x00\n        /* \"#utility.yul\":6886:6887   */\n      0x02\n        /* \"#utility.yul\":6880:6884   */\n      dup3\n        /* \"#utility.yul\":6876:6888   */\n      div\n        /* \"#utility.yul\":6866:6888   */\n      swap1\n      pop\n        /* \"#utility.yul\":6933:6934   */\n      0x01\n        /* \"#utility.yul\":6927:6931   */\n      dup3\n        /* \"#utility.yul\":6923:6935   */\n      and\n        /* \"#utility.yul\":6954:6972   */\n      dup1\n        /* \"#utility.yul\":6944:7025   */\n      tag_165\n      jumpi\n        /* \"#utility.yul\":7010:7014   */\n      0x7f\n        /* \"#utility.yul\":7002:7008   */\n      dup3\n        /* \"#utility.yul\":6998:7015   */\n      and\n        /* \"#utility.yul\":6988:7015   */\n      swap2\n      pop\n        /* \"#utility.yul\":6944:7025   */\n    tag_165:\n        /* \"#utility.yul\":7072:7074   */\n      0x20\n        /* \"#utility.yul\":7064:7070   */\n      dup3\n        /* \"#utility.yul\":7061:7075   */\n      lt\n        /* \"#utility.yul\":7041:7059   */\n      dup2\n        /* \"#utility.yul\":7038:7076   */\n      eq\n        /* \"#utility.yul\":7035:7119   */\n      iszero\n      tag_166\n      jumpi\n        /* \"#utility.yul\":7091:7109   */\n      tag_167\n      tag_168\n      jump\t// in\n    tag_167:\n        /* \"#utility.yul\":7035:7119   */\n    tag_166:\n        /* \"#utility.yul\":6856:7125   */\n      pop\n        /* \"#utility.yul\":6805:7125   */\n      swap2\n      swap1\n      pop\n      jump\t// out\n        /* \"#utility.yul\":7131:7412   */\n    tag_147:\n        /* \"#utility.yul\":7214:7241   */\n      tag_170\n        /* \"#utility.yul\":7236:7240   */\n      dup3\n        /* \"#utility.yul\":7214:7241   */\n      tag_126\n      jump\t// in\n    tag_170:\n        /* \"#utility.yul\":7206:7212   */\n      dup2\n        /* \"#utility.yul\":7202:7242   */\n      add\n        /* \"#utility.yul\":7344:7350   */\n      dup2\n        /* \"#utility.yul\":7332:7342   */\n      dup2\n        /* \"#utility.yul\":7329:7351   */\n      lt\n        /* \"#utility.yul\":7308:7326   */\n      0xffffffffffffffff\n        /* \"#utility.yul\":7296:7306   */\n      dup3\n        /* \"#utility.yul\":7293:7327   */\n      gt\n        /* \"#utility.yul\":7290:7352   */\n      or\n        /* \"#utility.yul\":7287:7375   */\n      iszero\n      tag_171\n      jumpi\n        /* \"#utility.yul\":7355:7373   */\n      tag_172\n      tag_152\n      jump\t// in\n    tag_172:\n        /* \"#utility.yul\":7287:7375   */\n    tag_171:\n        /* \"#utility.yul\":7395:7405   */\n      dup1\n        /* \"#utility.yul\":7391:7393   */\n      0x40\n        /* \"#utility.yul\":7384:7406   */\n      mstore\n        /* \"#utility.yul\":7174:7412   */\n      pop\n        /* \"#utility.yul\":7131:7412   */\n      pop\n      pop\n      jump\t// out\n        /* \"#utility.yul\":7418:7598   */\n    tag_168:\n        /* \"#utility.yul\":7466:7543   */\n      0x4e487b7100000000000000000000000000000000000000000000000000000000\n        /* \"#utility.yul\":7463:7464   */\n      0x00\n        /* \"#utility.yul\":7456:7544   */\n      mstore\n        /* \"#utility.yul\":7563:7567   */\n      0x22\n        /* \"#utility.yul\":7560:7561   */\n      0x04\n        /* \"#utility.yul\":7553:7568   */\n      mstore\n        /* \"#utility.yul\":7587:7591   */\n      0x24\n        /* \"#utility.yul\":7584:7585   */\n      0x00\n        /* \"#utility.yul\":7577:7592   */\n      revert\n        /* \"#utility.yul\":7604:7784   */\n    tag_152:\n        /* \"#utility.yul\":7652:7729   */\n      0x4e487b7100000000000000000000000000000000000000000000000000000000\n        /* \"#utility.yul\":7649:7650   */\n      0x00\n        /* \"#utility.yul\":7642:7730   */\n      mstore\n        /* \"#utility.yul\":7749:7753   */\n      0x41\n        /* \"#utility.yul\":7746:7747   */\n      0x04\n        /* \"#utility.yul\":7739:7754   */\n      mstore\n        /* \"#utility.yul\":7773:7777   */\n      0x24\n        /* \"#utility.yul\":7770:7771   */\n      0x00\n        /* \"#utility.yul\":7763:7778   */\n      revert\n        /* \"#utility.yul\":7790:7907   */\n    tag_80:\n        /* \"#utility.yul\":7899:7900   */\n      0x00\n        /* \"#utility.yul\":7896:7897   */\n      dup1\n        /* \"#utility.yul\":7889:7901   */\n      revert\n        /* \"#utility.yul\":7913:8030   */\n    tag_73:\n        /* \"#utility.yul\":8022:8023   */\n      0x00\n        /* \"#utility.yul\":8019:8020   */\n      dup1\n        /* \"#utility.yul\":8012:8024   */\n      revert\n        /* \"#utility.yul\":8036:8153   */\n    tag_92:\n        /* \"#utility.yul\":8145:8146   */\n      0x00\n        /* \"#utility.yul\":8142:8143   */\n      dup1\n        /* \"#utility.yul\":8135:8147   */\n      revert\n        /* \"#utility.yul\":8159:8276   */\n    tag_89:\n        /* \"#utility.yul\":8268:8269   */\n      0x00\n        /* \"#utility.yul\":8265:8266   */\n      dup1\n        /* \"#utility.yul\":8258:8270   */\n      revert\n        /* \"#utility.yul\":8282:8384   */\n    tag_126:\n        /* \"#utility.yul\":8323:8329   */\n      0x00\n        /* \"#utility.yul\":8374:8376   */\n      0x1f\n        /* \"#utility.yul\":8370:8377   */\n      not\n        /* \"#utility.yul\":8365:8367   */\n      0x1f\n        /* \"#utility.yul\":8358:8363   */\n      dup4\n        /* \"#utility.yul\":8354:8368   */\n      add\n        /* \"#utility.yul\":8350:8378   */\n      and\n        /* \"#utility.yul\":8340:8378   */\n      swap1\n      pop\n        /* \"#utility.yul\":8282:8384   */\n      swap2\n      swap1\n      pop\n      jump\t// out\n        /* \"#utility.yul\":8390:8512   */\n    tag_85:\n        /* \"#utility.yul\":8463:8487   */\n      tag_181\n        /* \"#utility.yul\":8481:8486   */\n      dup2\n        /* \"#utility.yul\":8463:8487   */\n      tag_136\n      jump\t// in\n    tag_181:\n        /* \"#utility.yul\":8456:8461   */\n      dup2\n        /* \"#utility.yul\":8453:8488   */\n      eq\n        /* \"#utility.yul\":8443:8506   */\n      tag_182\n      jumpi\n        /* \"#utility.yul\":8502:8503   */\n      0x00\n        /* \"#utility.yul\":8499:8500   */\n      dup1\n        /* \"#utility.yul\":8492:8504   */\n      revert\n        /* \"#utility.yul\":8443:8506   */\n    tag_182:\n        /* \"#utility.yul\":8390:8512   */\n      pop\n      jump\t// out\n\n    auxdata: 0xa26469706673582212202bb1d63153a2fe54e8b79c8938e53095ddd8f6a15e83fe56bd25e6e6fcd272ed64736f6c63430008070033\n}\n",
				"bytecode": {
					"linkReferences": {},
					"object": "608060405234801561001057600080fd5b50610801806100206000396000f3fe608060405234801561001057600080fd5b50600436106100625760003560e01c80631bbefaf1146100675780633923cf71146100835780633c8c3931146100b35780636b8ff574146100e3578063a266f6c214610113578063fe093d3b1461012f575b600080fd5b610081600480360381019061007c919061049c565b61014b565b005b61009d6004803603810190610098919061046f565b610177565b6040516100aa91906105ea565b60405180910390f35b6100cd60048036038101906100c891906103ca565b610193565b6040516100da91906105ea565b60405180910390f35b6100fd60048036038101906100f8919061046f565b6101bb565b60405161010a91906105c8565b60405180910390f35b61012d60048036038101906101289190610413565b610260565b005b610149600480360381019061014491906104f8565b610287565b005b806002600084815260200190815260200160002090805190602001906101729291906102a2565b505050565b6000806000838152602001908152602001600020549050919050565b60006001826040516101a591906105b1565b9081526020016040518091039020549050919050565b60606002600083815260200190815260200160002080546101db906106ce565b80601f0160208091040260200160405190810160405280929190818152602001828054610207906106ce565b80156102545780601f1061022957610100808354040283529160200191610254565b820191906000526020600020905b81548152906001019060200180831161023757829003601f168201915b50505050509050919050565b8060018360405161027191906105b1565b9081526020016040518091039020819055505050565b80600080848152602001908152602001600020819055505050565b8280546102ae906106ce565b90600052602060002090601f0160209004810192826102d05760008555610317565b82601f106102e957805160ff1916838001178555610317565b82800160010185558215610317579182015b828111156103165782518255916020019190600101906102fb565b5b5090506103249190610328565b5090565b5b80821115610341576000816000905550600101610329565b5090565b60006103586103538461062a565b610605565b90508281526020810184848401111561037457610373610794565b5b61037f84828561068c565b509392505050565b600082601f83011261039c5761039b61078f565b5b81356103ac848260208601610345565b91505092915050565b6000813590506103c4816107b4565b92915050565b6000602082840312156103e0576103df61079e565b5b600082013567ffffffffffffffff8111156103fe576103fd610799565b5b61040a84828501610387565b91505092915050565b6000806040838503121561042a5761042961079e565b5b600083013567ffffffffffffffff81111561044857610447610799565b5b61045485828601610387565b9250506020610465858286016103b5565b9150509250929050565b6000602082840312156104855761048461079e565b5b6000610493848285016103b5565b91505092915050565b600080604083850312156104b3576104b261079e565b5b60006104c1858286016103b5565b925050602083013567ffffffffffffffff8111156104e2576104e1610799565b5b6104ee85828601610387565b9150509250929050565b6000806040838503121561050f5761050e61079e565b5b600061051d858286016103b5565b925050602061052e858286016103b5565b9150509250929050565b60006105438261065b565b61054d8185610666565b935061055d81856020860161069b565b610566816107a3565b840191505092915050565b600061057c8261065b565b6105868185610677565b935061059681856020860161069b565b80840191505092915050565b6105ab81610682565b82525050565b60006105bd8284610571565b915081905092915050565b600060208201905081810360008301526105e28184610538565b905092915050565b60006020820190506105ff60008301846105a2565b92915050565b600061060f610620565b905061061b8282610700565b919050565b6000604051905090565b600067ffffffffffffffff82111561064557610644610760565b5b61064e826107a3565b9050602081019050919050565b600081519050919050565b600082825260208201905092915050565b600081905092915050565b6000819050919050565b82818337600083830152505050565b60005b838110156106b957808201518184015260208101905061069e565b838111156106c8576000848401525b50505050565b600060028204905060018216806106e657607f821691505b602082108114156106fa576106f9610731565b5b50919050565b610709826107a3565b810181811067ffffffffffffffff8211171561072857610727610760565b5b80604052505050565b7f4e487b7100000000000000000000000000000000000000000000000000000000600052602260045260246000fd5b7f4e487b7100000000000000000000000000000000000000000000000000000000600052604160045260246000fd5b600080fd5b600080fd5b600080fd5b600080fd5b6000601f19601f8301169050919050565b6107bd81610682565b81146107c857600080fd5b5056fea26469706673582212202bb1d63153a2fe54e8b79c8938e53095ddd8f6a15e83fe56bd25e6e6fcd272ed64736f6c63430008070033",
					"opcodes": "PUSH1 0x80 PUSH1 0x40 MSTORE CALLVALUE DUP1 ISZERO PUSH2 0x10 JUMPI PUSH1 0x0 DUP1 REVERT JUMPDEST POP PUSH2 0x801 DUP1 PUSH2 0x20 PUSH1 0x0 CODECOPY PUSH1 0x0 RETURN INVALID PUSH1 0x80 PUSH1 0x40 MSTORE CALLVALUE DUP1 ISZERO PUSH2 0x10 JUMPI PUSH1 0x0 DUP1 REVERT JUMPDEST POP PUSH1 0x4 CALLDATASIZE LT PUSH2 0x62 JUMPI PUSH1 0x0 CALLDATALOAD PUSH1 0xE0 SHR DUP1 PUSH4 0x1BBEFAF1 EQ PUSH2 0x67 JUMPI DUP1 PUSH4 0x3923CF71 EQ PUSH2 0x83 JUMPI DUP1 PUSH4 0x3C8C3931 EQ PUSH2 0xB3 JUMPI DUP1 PUSH4 0x6B8FF574 EQ PUSH2 0xE3 JUMPI DUP1 PUSH4 0xA266F6C2 EQ PUSH2 0x113 JUMPI DUP1 PUSH4 0xFE093D3B EQ PUSH2 0x12F JUMPI JUMPDEST PUSH1 0x0 DUP1 REVERT JUMPDEST PUSH2 0x81 PUSH1 0x4 DUP1 CALLDATASIZE SUB DUP2 ADD SWAP1 PUSH2 0x7C SWAP2 SWAP1 PUSH2 0x49C JUMP JUMPDEST PUSH2 0x14B JUMP JUMPDEST STOP JUMPDEST PUSH2 0x9D PUSH1 0x4 DUP1 CALLDATASIZE SUB DUP2 ADD SWAP1 PUSH2 0x98 SWAP2 SWAP1 PUSH2 0x46F JUMP JUMPDEST PUSH2 0x177 JUMP JUMPDEST PUSH1 0x40 MLOAD PUSH2 0xAA SWAP2 SWAP1 PUSH2 0x5EA JUMP JUMPDEST PUSH1 0x40 MLOAD DUP1 SWAP2 SUB SWAP1 RETURN JUMPDEST PUSH2 0xCD PUSH1 0x4 DUP1 CALLDATASIZE SUB DUP2 ADD SWAP1 PUSH2 0xC8 SWAP2 SWAP1 PUSH2 0x3CA JUMP JUMPDEST PUSH2 0x193 JUMP JUMPDEST PUSH1 0x40 MLOAD PUSH2 0xDA SWAP2 SWAP1 PUSH2 0x5EA JUMP JUMPDEST PUSH1 0x40 MLOAD DUP1 SWAP2 SUB SWAP1 RETURN JUMPDEST PUSH2 0xFD PUSH1 0x4 DUP1 CALLDATASIZE SUB DUP2 ADD SWAP1 PUSH2 0xF8 SWAP2 SWAP1 PUSH2 0x46F JUMP JUMPDEST PUSH2 0x1BB JUMP JUMPDEST PUSH1 0x40 MLOAD PUSH2 0x10A SWAP2 SWAP1 PUSH2 0x5C8 JUMP JUMPDEST PUSH1 0x40 MLOAD DUP1 SWAP2 SUB SWAP1 RETURN JUMPDEST PUSH2 0x12D PUSH1 0x4 DUP1 CALLDATASIZE SUB DUP2 ADD SWAP1 PUSH2 0x128 SWAP2 SWAP1 PUSH2 0x413 JUMP JUMPDEST PUSH2 0x260 JUMP JUMPDEST STOP JUMPDEST PUSH2 0x149 PUSH1 0x4 DUP1 CALLDATASIZE SUB DUP2 ADD SWAP1 PUSH2 0x144 SWAP2 SWAP1 PUSH2 0x4F8 JUMP JUMPDEST PUSH2 0x287 JUMP JUMPDEST STOP JUMPDEST DUP1 PUSH1 0x2 PUSH1 0x0 DUP5 DUP2 MSTORE PUSH1 0x20 ADD SWAP1 DUP2 MSTORE PUSH1 0x20 ADD PUSH1 0x0 KECCAK256 SWAP1 DUP1 MLOAD SWAP1 PUSH1 0x20 ADD SWAP1 PUSH2 0x172 SWAP3 SWAP2 SWAP1 PUSH2 0x2A2 JUMP JUMPDEST POP POP POP JUMP JUMPDEST PUSH1 0x0 DUP1 PUSH1 0x0 DUP4 DUP2 MSTORE PUSH1 0x20 ADD SWAP1 DUP2 MSTORE PUSH1 0x20 ADD PUSH1 0x0 KECCAK256 SLOAD SWAP1 POP SWAP2 SWAP1 POP JUMP JUMPDEST PUSH1 0x0 PUSH1 0x1 DUP3 PUSH1 0x40 MLOAD PUSH2 0x1A5 SWAP2 SWAP1 PUSH2 0x5B1 JUMP JUMPDEST SWAP1 DUP2 MSTORE PUSH1 0x20 ADD PUSH1 0x40 MLOAD DUP1 SWAP2 SUB SWAP1 KECCAK256 SLOAD SWAP1 POP SWAP2 SWAP1 POP JUMP JUMPDEST PUSH1 0x60 PUSH1 0x2 PUSH1 0x0 DUP4 DUP2 MSTORE PUSH1 0x20 ADD SWAP1 DUP2 MSTORE PUSH1 0x20 ADD PUSH1 0x0 KECCAK256 DUP1 SLOAD PUSH2 0x1DB SWAP1 PUSH2 0x6CE JUMP JUMPDEST DUP1 PUSH1 0x1F ADD PUSH1 0x20 DUP1 SWAP2 DIV MUL PUSH1 0x20 ADD PUSH1 0x40 MLOAD SWAP1 DUP2 ADD PUSH1 0x40 MSTORE DUP1 SWAP3 SWAP2 SWAP1 DUP2 DUP2 MSTORE PUSH1 0x20 ADD DUP3 DUP1 SLOAD PUSH2 0x207 SWAP1 PUSH2 0x6CE JUMP JUMPDEST DUP1 ISZERO PUSH2 0x254 JUMPI DUP1 PUSH1 0x1F LT PUSH2 0x229 JUMPI PUSH2 0x100 DUP1 DUP4 SLOAD DIV MUL DUP4 MSTORE SWAP2 PUSH1 0x20 ADD SWAP2 PUSH2 0x254 JUMP JUMPDEST DUP3 ADD SWAP2 SWAP1 PUSH1 0x0 MSTORE PUSH1 0x20 PUSH1 0x0 KECCAK256 SWAP1 JUMPDEST DUP2 SLOAD DUP2 MSTORE SWAP1 PUSH1 0x1 ADD SWAP1 PUSH1 0x20 ADD DUP1 DUP4 GT PUSH2 0x237 JUMPI DUP3 SWAP1 SUB PUSH1 0x1F AND DUP3 ADD SWAP2 JUMPDEST POP POP POP POP POP SWAP1 POP SWAP2 SWAP1 POP JUMP JUMPDEST DUP1 PUSH1 0x1 DUP4 PUSH1 0x40 MLOAD PUSH2 0x271 SWAP2 SWAP1 PUSH2 0x5B1 JUMP JUMPDEST SWAP1 DUP2 MSTORE PUSH1 0x20 ADD PUSH1 0x40 MLOAD DUP1 SWAP2 SUB SWAP1 KECCAK256 DUP2 SWAP1 SSTORE POP POP POP JUMP JUMPDEST DUP1 PUSH1 0x0 DUP1 DUP5 DUP2 MSTORE PUSH1 0x20 ADD SWAP1 DUP2 MSTORE PUSH1 0x20 ADD PUSH1 0x0 KECCAK256 DUP2 SWAP1 SSTORE POP POP POP JUMP JUMPDEST DUP3 DUP1 SLOAD PUSH2 0x2AE SWAP1 PUSH2 0x6CE JUMP JUMPDEST SWAP1 PUSH1 0x0 MSTORE PUSH1 0x20 PUSH1 0x0 KECCAK256 SWAP1 PUSH1 0x1F ADD PUSH1 0x20 SWAP1 DIV DUP2 ADD SWAP3 DUP3 PUSH2 0x2D0 JUMPI PUSH1 0x0 DUP6 SSTORE PUSH2 0x317 JUMP JUMPDEST DUP3 PUSH1 0x1F LT PUSH2 0x2E9 JUMPI DUP1 MLOAD PUSH1 0xFF NOT AND DUP4 DUP1 ADD OR DUP6 SSTORE PUSH2 0x317 JUMP JUMPDEST DUP3 DUP1 ADD PUSH1 0x1 ADD DUP6 SSTORE DUP3 ISZERO PUSH2 0x317 JUMPI SWAP2 DUP3 ADD JUMPDEST DUP3 DUP2 GT ISZERO PUSH2 0x316 JUMPI DUP3 MLOAD DUP3 SSTORE SWAP2 PUSH1 0x20 ADD SWAP2 SWAP1 PUSH1 0x1 ADD SWAP1 PUSH2 0x2FB JUMP JUMPDEST JUMPDEST POP SWAP1 POP PUSH2 0x324 SWAP2 SWAP1 PUSH2 0x328 JUMP JUMPDEST POP SWAP1 JUMP JUMPDEST JUMPDEST DUP1 DUP3 GT ISZERO PUSH2 0x341 JUMPI PUSH1 0x0 DUP2 PUSH1 0x0 SWAP1 SSTORE POP PUSH1 0x1 ADD PUSH2 0x329 JUMP JUMPDEST POP SWAP1 JUMP JUMPDEST PUSH1 0x0 PUSH2 0x358 PUSH2 0x353 DUP5 PUSH2 0x62A JUMP JUMPDEST PUSH2 0x605 JUMP JUMPDEST SWAP1 POP DUP3 DUP2 MSTORE PUSH1 0x20 DUP2 ADD DUP5 DUP5 DUP5 ADD GT ISZERO PUSH2 0x374 JUMPI PUSH2 0x373 PUSH2 0x794 JUMP JUMPDEST JUMPDEST PUSH2 0x37F DUP5 DUP3 DUP6 PUSH2 0x68C JUMP JUMPDEST POP SWAP4 SWAP3 POP POP POP JUMP JUMPDEST PUSH1 0x0 DUP3 PUSH1 0x1F DUP4 ADD SLT PUSH2 0x39C JUMPI PUSH2 0x39B PUSH2 0x78F JUMP JUMPDEST JUMPDEST DUP2 CALLDATALOAD PUSH2 0x3AC DUP5 DUP3 PUSH1 0x20 DUP7 ADD PUSH2 0x345 JUMP JUMPDEST SWAP2 POP POP SWAP3 SWAP2 POP POP JUMP JUMPDEST PUSH1 0x0 DUP2 CALLDATALOAD SWAP1 POP PUSH2 0x3C4 DUP2 PUSH2 0x7B4 JUMP JUMPDEST SWAP3 SWAP2 POP POP JUMP JUMPDEST PUSH1 0x0 PUSH1 0x20 DUP3 DUP5 SUB SLT ISZERO PUSH2 0x3E0 JUMPI PUSH2 0x3DF PUSH2 0x79E JUMP JUMPDEST JUMPDEST PUSH1 0x0 DUP3 ADD CALLDATALOAD PUSH8 0xFFFFFFFFFFFFFFFF DUP2 GT ISZERO PUSH2 0x3FE JUMPI PUSH2 0x3FD PUSH2 0x799 JUMP JUMPDEST JUMPDEST PUSH2 0x40A DUP5 DUP3 DUP6 ADD PUSH2 0x387 JUMP JUMPDEST SWAP2 POP POP SWAP3 SWAP2 POP POP JUMP JUMPDEST PUSH1 0x0 DUP1 PUSH1 0x40 DUP4 DUP6 SUB SLT ISZERO PUSH2 0x42A JUMPI PUSH2 0x429 PUSH2 0x79E JUMP JUMPDEST JUMPDEST PUSH1 0x0 DUP4 ADD CALLDATALOAD PUSH8 0xFFFFFFFFFFFFFFFF DUP2 GT ISZERO PUSH2 0x448 JUMPI PUSH2 0x447 PUSH2 0x799 JUMP JUMPDEST JUMPDEST PUSH2 0x454 DUP6 DUP3 DUP7 ADD PUSH2 0x387 JUMP JUMPDEST SWAP3 POP POP PUSH1 0x20 PUSH2 0x465 DUP6 DUP3 DUP7 ADD PUSH2 0x3B5 JUMP JUMPDEST SWAP2 POP POP SWAP3 POP SWAP3 SWAP1 POP JUMP JUMPDEST PUSH1 0x0 PUSH1 0x20 DUP3 DUP5 SUB SLT ISZERO PUSH2 0x485 JUMPI PUSH2 0x484 PUSH2 0x79E JUMP JUMPDEST JUMPDEST PUSH1 0x0 PUSH2 0x493 DUP5 DUP3 DUP6 ADD PUSH2 0x3B5 JUMP JUMPDEST SWAP2 POP POP SWAP3 SWAP2 POP POP JUMP JUMPDEST PUSH1 0x0 DUP1 PUSH1 0x40 DUP4 DUP6 SUB SLT ISZERO PUSH2 0x4B3 JUMPI PUSH2 0x4B2 PUSH2 0x79E JUMP JUMPDEST JUMPDEST PUSH1 0x0 PUSH2 0x4C1 DUP6 DUP3 DUP7 ADD PUSH2 0x3B5 JUMP JUMPDEST SWAP3 POP POP PUSH1 0x20 DUP4 ADD CALLDATALOAD PUSH8 0xFFFFFFFFFFFFFFFF DUP2 GT ISZERO PUSH2 0x4E2 JUMPI PUSH2 0x4E1 PUSH2 0x799 JUMP JUMPDEST JUMPDEST PUSH2 0x4EE DUP6 DUP3 DUP7 ADD PUSH2 0x387 JUMP JUMPDEST SWAP2 POP POP SWAP3 POP SWAP3 SWAP1 POP JUMP JUMPDEST PUSH1 0x0 DUP1 PUSH1 0x40 DUP4 DUP6 SUB SLT ISZERO PUSH2 0x50F JUMPI PUSH2 0x50E PUSH2 0x79E JUMP JUMPDEST JUMPDEST PUSH1 0x0 PUSH2 0x51D DUP6 DUP3 DUP7 ADD PUSH2 0x3B5 JUMP JUMPDEST SWAP3 POP POP PUSH1 0x20 PUSH2 0x52E DUP6 DUP3 DUP7 ADD PUSH2 0x3B5 JUMP JUMPDEST SWAP2 POP POP SWAP3 POP SWAP3 SWAP1 POP JUMP JUMPDEST PUSH1 0x0 PUSH2 0x543 DUP3 PUSH2 0x65B JUMP JUMPDEST PUSH2 0x54D DUP2 DUP6 PUSH2 0x666 JUMP JUMPDEST SWAP4 POP PUSH2 0x55D DUP2 DUP6 PUSH1 0x20 DUP7 ADD PUSH2 0x69B JUMP JUMPDEST PUSH2 0x566 DUP2 PUSH2 0x7A3 JUMP JUMPDEST DUP5 ADD SWAP2 POP POP SWAP3 SWAP2 POP POP JUMP JUMPDEST PUSH1 0x0 PUSH2 0x57C DUP3 PUSH2 0x65B JUMP JUMPDEST PUSH2 0x586 DUP2 DUP6 PUSH2 0x677 JUMP JUMPDEST SWAP4 POP PUSH2 0x596 DUP2 DUP6 PUSH1 0x20 DUP7 ADD PUSH2 0x69B JUMP JUMPDEST DUP1 DUP5 ADD SWAP2 POP POP SWAP3 SWAP2 POP POP JUMP JUMPDEST PUSH2 0x5AB DUP2 PUSH2 0x682 JUMP JUMPDEST DUP3 MSTORE POP POP JUMP JUMPDEST PUSH1 0x0 PUSH2 0x5BD DUP3 DUP5 PUSH2 0x571 JUMP JUMPDEST SWAP2 POP DUP2 SWAP1 POP SWAP3 SWAP2 POP POP JUMP JUMPDEST PUSH1 0x0 PUSH1 0x20 DUP3 ADD SWAP1 POP DUP2 DUP2 SUB PUSH1 0x0 DUP4 ADD MSTORE PUSH2 0x5E2 DUP2 DUP5 PUSH2 0x538 JUMP JUMPDEST SWAP1 POP SWAP3 SWAP2 POP POP JUMP JUMPDEST PUSH1 0x0 PUSH1 0x20 DUP3 ADD SWAP1 POP PUSH2 0x5FF PUSH1 0x0 DUP4 ADD DUP5 PUSH2 0x5A2 JUMP JUMPDEST SWAP3 SWAP2 POP POP JUMP JUMPDEST PUSH1 0x0 PUSH2 0x60F PUSH2 0x620 JUMP JUMPDEST SWAP1 POP PUSH2 0x61B DUP3 DUP3 PUSH2 0x700 JUMP JUMPDEST SWAP2 SWAP1 POP JUMP JUMPDEST PUSH1 0x0 PUSH1 0x40 MLOAD SWAP1 POP SWAP1 JUMP JUMPDEST PUSH1 0x0 PUSH8 0xFFFFFFFFFFFFFFFF DUP3 GT ISZERO PUSH2 0x645 JUMPI PUSH2 0x644 PUSH2 0x760 JUMP JUMPDEST JUMPDEST PUSH2 0x64E DUP3 PUSH2 0x7A3 JUMP JUMPDEST SWAP1 POP PUSH1 0x20 DUP2 ADD SWAP1 POP SWAP2 SWAP1 POP JUMP JUMPDEST PUSH1 0x0 DUP2 MLOAD SWAP1 POP SWAP2 SWAP1 POP JUMP JUMPDEST PUSH1 0x0 DUP3 DUP3 MSTORE PUSH1 0x20 DUP3 ADD SWAP1 POP SWAP3 SWAP2 POP POP JUMP JUMPDEST PUSH1 0x0 DUP2 SWAP1 POP SWAP3 SWAP2 POP POP JUMP JUMPDEST PUSH1 0x0 DUP2 SWAP1 POP SWAP2 SWAP1 POP JUMP JUMPDEST DUP3 DUP2 DUP4 CALLDATACOPY PUSH1 0x0 DUP4 DUP4 ADD MSTORE POP POP POP JUMP JUMPDEST PUSH1 0x0 JUMPDEST DUP4 DUP2 LT ISZERO PUSH2 0x6B9 JUMPI DUP1 DUP3 ADD MLOAD DUP2 DUP5 ADD MSTORE PUSH1 0x20 DUP2 ADD SWAP1 POP PUSH2 0x69E JUMP JUMPDEST DUP4 DUP2 GT ISZERO PUSH2 0x6C8 JUMPI PUSH1 0x0 DUP5 DUP5 ADD MSTORE JUMPDEST POP POP POP POP JUMP JUMPDEST PUSH1 0x0 PUSH1 0x2 DUP3 DIV SWAP1 POP PUSH1 0x1 DUP3 AND DUP1 PUSH2 0x6E6 JUMPI PUSH1 0x7F DUP3 AND SWAP2 POP JUMPDEST PUSH1 0x20 DUP3 LT DUP2 EQ ISZERO PUSH2 0x6FA JUMPI PUSH2 0x6F9 PUSH2 0x731 JUMP JUMPDEST JUMPDEST POP SWAP2 SWAP1 POP JUMP JUMPDEST PUSH2 0x709 DUP3 PUSH2 0x7A3 JUMP JUMPDEST DUP2 ADD DUP2 DUP2 LT PUSH8 0xFFFFFFFFFFFFFFFF DUP3 GT OR ISZERO PUSH2 0x728 JUMPI PUSH2 0x727 PUSH2 0x760 JUMP JUMPDEST JUMPDEST DUP1 PUSH1 0x40 MSTORE POP POP POP JUMP JUMPDEST PUSH32 0x4E487B7100000000000000000000000000000000000000000000000000000000 PUSH1 0x0 MSTORE PUSH1 0x22 PUSH1 0x4 MSTORE PUSH1 0x24 PUSH1 0x0 REVERT JUMPDEST PUSH32 0x4E487B7100000000000000000000000000000000000000000000000000000000 PUSH1 0x0 MSTORE PUSH1 0x41 PUSH1 0x4 MSTORE PUSH1 0x24 PUSH1 0x0 REVERT JUMPDEST PUSH1 0x0 DUP1 REVERT JUMPDEST PUSH1 0x0 DUP1 REVERT JUMPDEST PUSH1 0x0 DUP1 REVERT JUMPDEST PUSH1 0x0 DUP1 REVERT JUMPDEST PUSH1 0x0 PUSH1 0x1F NOT PUSH1 0x1F DUP4 ADD AND SWAP1 POP SWAP2 SWAP1 POP JUMP JUMPDEST PUSH2 0x7BD DUP2 PUSH2 0x682 JUMP JUMPDEST DUP2 EQ PUSH2 0x7C8 JUMPI PUSH1 0x0 DUP1 REVERT JUMPDEST POP JUMP INVALID LOG2 PUSH5 0x6970667358 0x22 SLT KECCAK256 0x2B 0xB1 0xD6 BALANCE MSTORE8 LOG2 INVALID SLOAD 0xE8 0xB7 SWAP13 DUP10 CODESIZE 0xE5 ADDRESS SWAP6 0xDD 0xD8 0xF6 LOG1 0x5E DUP4 INVALID JUMP 0xBD 0x25 0xE6 0xE6 0xFC 0xD2 PUSH19 0xED64736F6C6343000807003300000000000000 "
				},
				"gasEstimates": {
					"creation": {
						"codeDepositCost": "409800",
						"executionCost": "449",
						"totalCost": "410249"
					},
					"external": {
						"getAgeList(uint256)": "infinite",
						"getName(uint256)": "infinite",
						"getPirceList(string)": "infinite",
						"setAgeList(uint256,uint256)": "infinite",
						"setNameList(uint256,string)": "infinite",
						"setPriceList(string,uint256)": "infinite"
					}
				},
				"methodIdentifiers": {
					"getAgeList(uint256)": "3923cf71",
					"getName(uint256)": "6b8ff574",
					"getPirceList(string)": "3c8c3931",
					"setAgeList(uint256,uint256)": "fe093d3b",
					"setNameList(uint256,string)": "1bbefaf1",
					"setPriceList(string,uint256)": "a266f6c2"
				}
			},
			"storageLayout": {
				"storage": [
					{
						"astId": 5,
						"contract": "lecture/lec17.sol:lec17",
						"label": "ageList",
						"offset": 0,
						"slot": "0",
						"type": "t_mapping(t_uint256,t_uint256)"
					},
					{
						"astId": 9,
						"contract": "lecture/lec17.sol:lec17",
						"label": "priceList",
						"offset": 0,
						"slot": "1",
						"type": "t_mapping(t_string_memory_ptr,t_uint256)"
					},
					{
						"astId": 13,
						"contract": "lecture/lec17.sol:lec17",
						"label": "nameList",
						"offset": 0,
						"slot": "2",
						"type": "t_mapping(t_uint256,t_string_storage)"
					}
				],
				"types": {
					"t_mapping(t_string_memory_ptr,t_uint256)": {
						"encoding": "mapping",
						"key": "t_string_memory_ptr",
						"label": "mapping(string => uint256)",
						"numberOfBytes": "32",
						"value": "t_uint256"
					},
					"t_mapping(t_uint256,t_string_storage)": {
						"encoding": "mapping",
						"key": "t_uint256",
						"label": "mapping(uint256 => string)",
						"numberOfBytes": "32",
						"value": "t_string_storage"
					},
					"t_mapping(t_uint256,t_uint256)": {
						"encoding": "mapping",
						"key": "t_uint256",
						"label": "mapping(uint256 => uint256)",
						"numberOfBytes": "32",
						"value": "t_uint256"
					},
					"t_string_memory_ptr": {
						"encoding": "bytes",
						"label": "string",
						"numberOfBytes": "32"
					},
					"t_string_storage": {
						"encoding": "bytes",
						"label": "string",
						"numberOfBytes": "32"
					},
					"t_uint256": {
						"encoding": "inplace",
						"label": "uint256",
						"numberOfBytes": "32"
					}
				}
			},
			"userdoc": {
				"kind": "user",
				"methods": {},
				"version": 1
			}
		}
	}
}