{
	"lecture/lec28.sol": {
		"runner2": {
			"abi": [
				{
					"anonymous": false,
					"inputs": [
						{
							"indexed": false,
							"internalType": "string",
							"name": "_name",
							"type": "string"
						},
						{
							"indexed": false,
							"internalType": "string",
							"name": "_err",
							"type": "string"
						}
					],
					"name": "catchOnly",
					"type": "event"
				},
				{
					"inputs": [],
					"name": "playTryCatch",
					"outputs": [
						{
							"internalType": "uint256",
							"name": "",
							"type": "uint256"
						},
						{
							"internalType": "bool",
							"name": "",
							"type": "bool"
						}
					],
					"stateMutability": "nonpayable",
					"type": "function"
				},
				{
					"inputs": [],
					"name": "simple",
					"outputs": [
						{
							"internalType": "uint256",
							"name": "",
							"type": "uint256"
						}
					],
					"stateMutability": "pure",
					"type": "function"
				}
			],
			"devdoc": {
				"kind": "dev",
				"methods": {},
				"version": 1
			},
			"evm": {
				"assembly": "    /* \"lecture/lec28.sol\":1230:1643  contract runner2{... */\n  mstore(0x40, 0x80)\n  callvalue\n  dup1\n  iszero\n  tag_1\n  jumpi\n  0x00\n  dup1\n  revert\ntag_1:\n  pop\n  dataSize(sub_0)\n  dup1\n  dataOffset(sub_0)\n  0x00\n  codecopy\n  0x00\n  return\nstop\n\nsub_0: assembly {\n        /* \"lecture/lec28.sol\":1230:1643  contract runner2{... */\n      mstore(0x40, 0x80)\n      callvalue\n      dup1\n      iszero\n      tag_1\n      jumpi\n      0x00\n      dup1\n      revert\n    tag_1:\n      pop\n      jumpi(tag_2, lt(calldatasize, 0x04))\n      shr(0xe0, calldataload(0x00))\n      dup1\n      0xd57f4383\n      eq\n      tag_3\n      jumpi\n      dup1\n      0xdf201a46\n      eq\n      tag_4\n      jumpi\n    tag_2:\n      0x00\n      dup1\n      revert\n        /* \"lecture/lec28.sol\":1380:1640  function playTryCatch() public  returns(uint256,bool){    ... */\n    tag_3:\n      tag_5\n      tag_6\n      jump\t// in\n    tag_5:\n      mload(0x40)\n      tag_7\n      swap3\n      swap2\n      swap1\n      tag_8\n      jump\t// in\n    tag_7:\n      mload(0x40)\n      dup1\n      swap2\n      sub\n      swap1\n      return\n        /* \"lecture/lec28.sol\":1304:1375  function simple() public pure returns(uint256){... */\n    tag_4:\n      tag_9\n      tag_10\n      jump\t// in\n    tag_9:\n      mload(0x40)\n      tag_11\n      swap2\n      swap1\n      tag_12\n      jump\t// in\n    tag_11:\n      mload(0x40)\n      dup1\n      swap2\n      sub\n      swap1\n      return\n        /* \"lecture/lec28.sol\":1380:1640  function playTryCatch() public  returns(uint256,bool){    ... */\n    tag_6:\n        /* \"lecture/lec28.sol\":1420:1427  uint256 */\n      0x00\n        /* \"lecture/lec28.sol\":1428:1432  bool */\n      dup1\n        /* \"lecture/lec28.sol\":1451:1455  this */\n      address\n        /* \"lecture/lec28.sol\":1451:1462  this.simple */\n      0xffffffffffffffffffffffffffffffffffffffff\n      and\n      0xdf201a46\n        /* \"lecture/lec28.sol\":1451:1464  this.simple() */\n      mload(0x40)\n      dup2\n      0xffffffff\n      and\n      0xe0\n      shl\n      dup2\n      mstore\n      0x04\n      add\n      0x20\n      mload(0x40)\n      dup1\n      dup4\n      sub\n      dup2\n      dup7\n      dup1\n      extcodesize\n      iszero\n      dup1\n      iszero\n      tag_14\n      jumpi\n      0x00\n      dup1\n      revert\n    tag_14:\n      pop\n      gas\n      staticcall\n      swap3\n      pop\n      pop\n      pop\n      dup1\n      iszero\n      tag_15\n      jumpi\n      pop\n      mload(0x40)\n      returndatasize\n      not(0x1f)\n      0x1f\n      dup3\n      add\n      and\n      dup3\n      add\n      dup1\n      0x40\n      mstore\n      pop\n      dup2\n      add\n      swap1\n      tag_16\n      swap2\n      swap1\n      tag_17\n      jump\t// in\n    tag_16:\n      0x01\n    tag_15:\n        /* \"lecture/lec28.sol\":1447:1634  try this.simple() returns(uint256 _value){... */\n      tag_18\n      jumpi\n        /* \"lecture/lec28.sol\":1565:1594  catchOnly(\"catch\",\"ErrorS!!\") */\n      0xed1339d3b97aca38a4bc95190b93af9130be96b54e1bc34caa04b59819decfa0\n      mload(0x40)\n      tag_22\n      swap1\n      tag_23\n      jump\t// in\n    tag_22:\n      mload(0x40)\n      dup1\n      swap2\n      sub\n      swap1\n      log1\n        /* \"lecture/lec28.sol\":1615:1616  0 */\n      0x00\n        /* \"lecture/lec28.sol\":1617:1622  false */\n      dup1\n        /* \"lecture/lec28.sol\":1608:1623  return(0,false) */\n      swap2\n      pop\n      swap2\n      pop\n      jump(tag_13)\n        /* \"lecture/lec28.sol\":1447:1634  try this.simple() returns(uint256 _value){... */\n    tag_18:\n        /* \"lecture/lec28.sol\":1509:1515  _value */\n      dup1\n        /* \"lecture/lec28.sol\":1516:1520  true */\n      0x01\n        /* \"lecture/lec28.sol\":1502:1521  return(_value,true) */\n      swap3\n      pop\n      swap3\n      pop\n      pop\n        /* \"lecture/lec28.sol\":1380:1640  function playTryCatch() public  returns(uint256,bool){    ... */\n    tag_13:\n      swap1\n      swap2\n      jump\t// out\n        /* \"lecture/lec28.sol\":1304:1375  function simple() public pure returns(uint256){... */\n    tag_10:\n        /* \"lecture/lec28.sol\":1342:1349  uint256 */\n      0x00\n        /* \"lecture/lec28.sol\":1367:1368  4 */\n      0x04\n        /* \"lecture/lec28.sol\":1360:1368  return 4 */\n      swap1\n      pop\n        /* \"lecture/lec28.sol\":1304:1375  function simple() public pure returns(uint256){... */\n      swap1\n      jump\t// out\n        /* \"#utility.yul\":7:150   */\n    tag_27:\n        /* \"#utility.yul\":64:69   */\n      0x00\n        /* \"#utility.yul\":95:101   */\n      dup2\n        /* \"#utility.yul\":89:102   */\n      mload\n        /* \"#utility.yul\":80:102   */\n      swap1\n      pop\n        /* \"#utility.yul\":111:144   */\n      tag_29\n        /* \"#utility.yul\":138:143   */\n      dup2\n        /* \"#utility.yul\":111:144   */\n      tag_30\n      jump\t// in\n    tag_29:\n        /* \"#utility.yul\":7:150   */\n      swap3\n      swap2\n      pop\n      pop\n      jump\t// out\n        /* \"#utility.yul\":156:507   */\n    tag_17:\n        /* \"#utility.yul\":226:232   */\n      0x00\n        /* \"#utility.yul\":275:277   */\n      0x20\n        /* \"#utility.yul\":263:272   */\n      dup3\n        /* \"#utility.yul\":254:261   */\n      dup5\n        /* \"#utility.yul\":250:273   */\n      sub\n        /* \"#utility.yul\":246:278   */\n      slt\n        /* \"#utility.yul\":243:362   */\n      iszero\n      tag_32\n      jumpi\n        /* \"#utility.yul\":281:360   */\n      tag_33\n      tag_34\n      jump\t// in\n    tag_33:\n        /* \"#utility.yul\":243:362   */\n    tag_32:\n        /* \"#utility.yul\":401:402   */\n      0x00\n        /* \"#utility.yul\":426:490   */\n      tag_35\n        /* \"#utility.yul\":482:489   */\n      dup5\n        /* \"#utility.yul\":473:479   */\n      dup3\n        /* \"#utility.yul\":462:471   */\n      dup6\n        /* \"#utility.yul\":458:480   */\n      add\n        /* \"#utility.yul\":426:490   */\n      tag_27\n      jump\t// in\n    tag_35:\n        /* \"#utility.yul\":416:490   */\n      swap2\n      pop\n        /* \"#utility.yul\":372:500   */\n      pop\n        /* \"#utility.yul\":156:507   */\n      swap3\n      swap2\n      pop\n      pop\n      jump\t// out\n        /* \"#utility.yul\":513:622   */\n    tag_36:\n        /* \"#utility.yul\":594:615   */\n      tag_38\n        /* \"#utility.yul\":609:614   */\n      dup2\n        /* \"#utility.yul\":594:615   */\n      tag_39\n      jump\t// in\n    tag_38:\n        /* \"#utility.yul\":589:592   */\n      dup3\n        /* \"#utility.yul\":582:616   */\n      mstore\n        /* \"#utility.yul\":513:622   */\n      pop\n      pop\n      jump\t// out\n        /* \"#utility.yul\":628:993   */\n    tag_40:\n        /* \"#utility.yul\":770:773   */\n      0x00\n        /* \"#utility.yul\":791:857   */\n      tag_42\n        /* \"#utility.yul\":855:856   */\n      0x05\n        /* \"#utility.yul\":850:853   */\n      dup4\n        /* \"#utility.yul\":791:857   */\n      tag_43\n      jump\t// in\n    tag_42:\n        /* \"#utility.yul\":784:857   */\n      swap2\n      pop\n        /* \"#utility.yul\":866:959   */\n      tag_44\n        /* \"#utility.yul\":955:958   */\n      dup3\n        /* \"#utility.yul\":866:959   */\n      tag_45\n      jump\t// in\n    tag_44:\n        /* \"#utility.yul\":984:986   */\n      0x20\n        /* \"#utility.yul\":979:982   */\n      dup3\n        /* \"#utility.yul\":975:987   */\n      add\n        /* \"#utility.yul\":968:987   */\n      swap1\n      pop\n        /* \"#utility.yul\":628:993   */\n      swap2\n      swap1\n      pop\n      jump\t// out\n        /* \"#utility.yul\":999:1364   */\n    tag_46:\n        /* \"#utility.yul\":1141:1144   */\n      0x00\n        /* \"#utility.yul\":1162:1228   */\n      tag_48\n        /* \"#utility.yul\":1226:1227   */\n      0x08\n        /* \"#utility.yul\":1221:1224   */\n      dup4\n        /* \"#utility.yul\":1162:1228   */\n      tag_43\n      jump\t// in\n    tag_48:\n        /* \"#utility.yul\":1155:1228   */\n      swap2\n      pop\n        /* \"#utility.yul\":1237:1330   */\n      tag_49\n        /* \"#utility.yul\":1326:1329   */\n      dup3\n        /* \"#utility.yul\":1237:1330   */\n      tag_50\n      jump\t// in\n    tag_49:\n        /* \"#utility.yul\":1355:1357   */\n      0x20\n        /* \"#utility.yul\":1350:1353   */\n      dup3\n        /* \"#utility.yul\":1346:1358   */\n      add\n        /* \"#utility.yul\":1339:1358   */\n      swap1\n      pop\n        /* \"#utility.yul\":999:1364   */\n      swap2\n      swap1\n      pop\n      jump\t// out\n        /* \"#utility.yul\":1370:1488   */\n    tag_51:\n        /* \"#utility.yul\":1457:1481   */\n      tag_53\n        /* \"#utility.yul\":1475:1480   */\n      dup2\n        /* \"#utility.yul\":1457:1481   */\n      tag_54\n      jump\t// in\n    tag_53:\n        /* \"#utility.yul\":1452:1455   */\n      dup3\n        /* \"#utility.yul\":1445:1482   */\n      mstore\n        /* \"#utility.yul\":1370:1488   */\n      pop\n      pop\n      jump\t// out\n        /* \"#utility.yul\":1494:2220   */\n    tag_23:\n        /* \"#utility.yul\":1761:1765   */\n      0x00\n        /* \"#utility.yul\":1799:1801   */\n      0x40\n        /* \"#utility.yul\":1788:1797   */\n      dup3\n        /* \"#utility.yul\":1784:1802   */\n      add\n        /* \"#utility.yul\":1776:1802   */\n      swap1\n      pop\n        /* \"#utility.yul\":1848:1857   */\n      dup2\n        /* \"#utility.yul\":1842:1846   */\n      dup2\n        /* \"#utility.yul\":1838:1858   */\n      sub\n        /* \"#utility.yul\":1834:1835   */\n      0x00\n        /* \"#utility.yul\":1823:1832   */\n      dup4\n        /* \"#utility.yul\":1819:1836   */\n      add\n        /* \"#utility.yul\":1812:1859   */\n      mstore\n        /* \"#utility.yul\":1876:2007   */\n      tag_56\n        /* \"#utility.yul\":2002:2006   */\n      dup2\n        /* \"#utility.yul\":1876:2007   */\n      tag_40\n      jump\t// in\n    tag_56:\n        /* \"#utility.yul\":1868:2007   */\n      swap1\n      pop\n        /* \"#utility.yul\":2054:2063   */\n      dup2\n        /* \"#utility.yul\":2048:2052   */\n      dup2\n        /* \"#utility.yul\":2044:2064   */\n      sub\n        /* \"#utility.yul\":2039:2041   */\n      0x20\n        /* \"#utility.yul\":2028:2037   */\n      dup4\n        /* \"#utility.yul\":2024:2042   */\n      add\n        /* \"#utility.yul\":2017:2065   */\n      mstore\n        /* \"#utility.yul\":2082:2213   */\n      tag_57\n        /* \"#utility.yul\":2208:2212   */\n      dup2\n        /* \"#utility.yul\":2082:2213   */\n      tag_46\n      jump\t// in\n    tag_57:\n        /* \"#utility.yul\":2074:2213   */\n      swap1\n      pop\n        /* \"#utility.yul\":1494:2220   */\n      swap2\n      swap1\n      pop\n      jump\t// out\n        /* \"#utility.yul\":2226:2448   */\n    tag_12:\n        /* \"#utility.yul\":2319:2323   */\n      0x00\n        /* \"#utility.yul\":2357:2359   */\n      0x20\n        /* \"#utility.yul\":2346:2355   */\n      dup3\n        /* \"#utility.yul\":2342:2360   */\n      add\n        /* \"#utility.yul\":2334:2360   */\n      swap1\n      pop\n        /* \"#utility.yul\":2370:2441   */\n      tag_59\n        /* \"#utility.yul\":2438:2439   */\n      0x00\n        /* \"#utility.yul\":2427:2436   */\n      dup4\n        /* \"#utility.yul\":2423:2440   */\n      add\n        /* \"#utility.yul\":2414:2420   */\n      dup5\n        /* \"#utility.yul\":2370:2441   */\n      tag_51\n      jump\t// in\n    tag_59:\n        /* \"#utility.yul\":2226:2448   */\n      swap3\n      swap2\n      pop\n      pop\n      jump\t// out\n        /* \"#utility.yul\":2454:2774   */\n    tag_8:\n        /* \"#utility.yul\":2569:2573   */\n      0x00\n        /* \"#utility.yul\":2607:2609   */\n      0x40\n        /* \"#utility.yul\":2596:2605   */\n      dup3\n        /* \"#utility.yul\":2592:2610   */\n      add\n        /* \"#utility.yul\":2584:2610   */\n      swap1\n      pop\n        /* \"#utility.yul\":2620:2691   */\n      tag_61\n        /* \"#utility.yul\":2688:2689   */\n      0x00\n        /* \"#utility.yul\":2677:2686   */\n      dup4\n        /* \"#utility.yul\":2673:2690   */\n      add\n        /* \"#utility.yul\":2664:2670   */\n      dup6\n        /* \"#utility.yul\":2620:2691   */\n      tag_51\n      jump\t// in\n    tag_61:\n        /* \"#utility.yul\":2701:2767   */\n      tag_62\n        /* \"#utility.yul\":2763:2765   */\n      0x20\n        /* \"#utility.yul\":2752:2761   */\n      dup4\n        /* \"#utility.yul\":2748:2766   */\n      add\n        /* \"#utility.yul\":2739:2745   */\n      dup5\n        /* \"#utility.yul\":2701:2767   */\n      tag_36\n      jump\t// in\n    tag_62:\n        /* \"#utility.yul\":2454:2774   */\n      swap4\n      swap3\n      pop\n      pop\n      pop\n      jump\t// out\n        /* \"#utility.yul\":2861:3030   */\n    tag_43:\n        /* \"#utility.yul\":2945:2956   */\n      0x00\n        /* \"#utility.yul\":2979:2985   */\n      dup3\n        /* \"#utility.yul\":2974:2977   */\n      dup3\n        /* \"#utility.yul\":2967:2986   */\n      mstore\n        /* \"#utility.yul\":3019:3023   */\n      0x20\n        /* \"#utility.yul\":3014:3017   */\n      dup3\n        /* \"#utility.yul\":3010:3024   */\n      add\n        /* \"#utility.yul\":2995:3024   */\n      swap1\n      pop\n        /* \"#utility.yul\":2861:3030   */\n      swap3\n      swap2\n      pop\n      pop\n      jump\t// out\n        /* \"#utility.yul\":3036:3126   */\n    tag_39:\n        /* \"#utility.yul\":3070:3077   */\n      0x00\n        /* \"#utility.yul\":3113:3118   */\n      dup2\n        /* \"#utility.yul\":3106:3119   */\n      iszero\n        /* \"#utility.yul\":3099:3120   */\n      iszero\n        /* \"#utility.yul\":3088:3120   */\n      swap1\n      pop\n        /* \"#utility.yul\":3036:3126   */\n      swap2\n      swap1\n      pop\n      jump\t// out\n        /* \"#utility.yul\":3132:3209   */\n    tag_54:\n        /* \"#utility.yul\":3169:3176   */\n      0x00\n        /* \"#utility.yul\":3198:3203   */\n      dup2\n        /* \"#utility.yul\":3187:3203   */\n      swap1\n      pop\n        /* \"#utility.yul\":3132:3209   */\n      swap2\n      swap1\n      pop\n      jump\t// out\n        /* \"#utility.yul\":3338:3455   */\n    tag_34:\n        /* \"#utility.yul\":3447:3448   */\n      0x00\n        /* \"#utility.yul\":3444:3445   */\n      dup1\n        /* \"#utility.yul\":3437:3449   */\n      revert\n        /* \"#utility.yul\":3461:3616   */\n    tag_45:\n        /* \"#utility.yul\":3601:3608   */\n      0x6361746368000000000000000000000000000000000000000000000000000000\n        /* \"#utility.yul\":3597:3598   */\n      0x00\n        /* \"#utility.yul\":3589:3595   */\n      dup3\n        /* \"#utility.yul\":3585:3599   */\n      add\n        /* \"#utility.yul\":3578:3609   */\n      mstore\n        /* \"#utility.yul\":3461:3616   */\n      pop\n      jump\t// out\n        /* \"#utility.yul\":3622:3780   */\n    tag_50:\n        /* \"#utility.yul\":3762:3772   */\n      0x4572726f72532121000000000000000000000000000000000000000000000000\n        /* \"#utility.yul\":3758:3759   */\n      0x00\n        /* \"#utility.yul\":3750:3756   */\n      dup3\n        /* \"#utility.yul\":3746:3760   */\n      add\n        /* \"#utility.yul\":3739:3773   */\n      mstore\n        /* \"#utility.yul\":3622:3780   */\n      pop\n      jump\t// out\n        /* \"#utility.yul\":3786:3908   */\n    tag_30:\n        /* \"#utility.yul\":3859:3883   */\n      tag_74\n        /* \"#utility.yul\":3877:3882   */\n      dup2\n        /* \"#utility.yul\":3859:3883   */\n      tag_54\n      jump\t// in\n    tag_74:\n        /* \"#utility.yul\":3852:3857   */\n      dup2\n        /* \"#utility.yul\":3849:3884   */\n      eq\n        /* \"#utility.yul\":3839:3902   */\n      tag_75\n      jumpi\n        /* \"#utility.yul\":3898:3899   */\n      0x00\n        /* \"#utility.yul\":3895:3896   */\n      dup1\n        /* \"#utility.yul\":3888:3900   */\n      revert\n        /* \"#utility.yul\":3839:3902   */\n    tag_75:\n        /* \"#utility.yul\":3786:3908   */\n      pop\n      jump\t// out\n\n    auxdata: 0xa264697066735822122069d0a397aed79e95a3161a1ff296610ccf128a613584cdd5d4973a2f328ee9da64736f6c63430008070033\n}\n",
				"bytecode": {
					"linkReferences": {},
					"object": "608060405234801561001057600080fd5b50610335806100206000396000f3fe608060405234801561001057600080fd5b50600436106100365760003560e01c8063d57f43831461003b578063df201a461461005a575b600080fd5b610043610078565b604051610051929190610241565b60405180910390f35b610062610144565b60405161006f9190610226565b60405180910390f35b6000803073ffffffffffffffffffffffffffffffffffffffff1663df201a466040518163ffffffff1660e01b815260040160206040518083038186803b1580156100c157600080fd5b505afa9250505080156100f257506040513d601f19601f820116820180604052508101906100ef9190610162565b60015b610137577fed1339d3b97aca38a4bc95190b93af9130be96b54e1bc34caa04b59819decfa0604051610123906101f3565b60405180910390a160008091509150610140565b80600192509250505b9091565b60006004905090565b60008151905061015c816102e8565b92915050565b60006020828403121561017857610177610291565b5b60006101868482850161014d565b91505092915050565b6101988161027b565b82525050565b60006101ab60058361026a565b91506101b682610296565b602082019050919050565b60006101ce60088361026a565b91506101d9826102bf565b602082019050919050565b6101ed81610287565b82525050565b6000604082019050818103600083015261020c8161019e565b9050818103602083015261021f816101c1565b9050919050565b600060208201905061023b60008301846101e4565b92915050565b600060408201905061025660008301856101e4565b610263602083018461018f565b9392505050565b600082825260208201905092915050565b60008115159050919050565b6000819050919050565b600080fd5b7f6361746368000000000000000000000000000000000000000000000000000000600082015250565b7f4572726f72532121000000000000000000000000000000000000000000000000600082015250565b6102f181610287565b81146102fc57600080fd5b5056fea264697066735822122069d0a397aed79e95a3161a1ff296610ccf128a613584cdd5d4973a2f328ee9da64736f6c63430008070033",
					"opcodes": "PUSH1 0x80 PUSH1 0x40 MSTORE CALLVALUE DUP1 ISZERO PUSH2 0x10 JUMPI PUSH1 0x0 DUP1 REVERT JUMPDEST POP PUSH2 0x335 DUP1 PUSH2 0x20 PUSH1 0x0 CODECOPY PUSH1 0x0 RETURN INVALID PUSH1 0x80 PUSH1 0x40 MSTORE CALLVALUE DUP1 ISZERO PUSH2 0x10 JUMPI PUSH1 0x0 DUP1 REVERT JUMPDEST POP PUSH1 0x4 CALLDATASIZE LT PUSH2 0x36 JUMPI PUSH1 0x0 CALLDATALOAD PUSH1 0xE0 SHR DUP1 PUSH4 0xD57F4383 EQ PUSH2 0x3B JUMPI DUP1 PUSH4 0xDF201A46 EQ PUSH2 0x5A JUMPI JUMPDEST PUSH1 0x0 DUP1 REVERT JUMPDEST PUSH2 0x43 PUSH2 0x78 JUMP JUMPDEST PUSH1 0x40 MLOAD PUSH2 0x51 SWAP3 SWAP2 SWAP1 PUSH2 0x241 JUMP JUMPDEST PUSH1 0x40 MLOAD DUP1 SWAP2 SUB SWAP1 RETURN JUMPDEST PUSH2 0x62 PUSH2 0x144 JUMP JUMPDEST PUSH1 0x40 MLOAD PUSH2 0x6F SWAP2 SWAP1 PUSH2 0x226 JUMP JUMPDEST PUSH1 0x40 MLOAD DUP1 SWAP2 SUB SWAP1 RETURN JUMPDEST PUSH1 0x0 DUP1 ADDRESS PUSH20 0xFFFFFFFFFFFFFFFFFFFFFFFFFFFFFFFFFFFFFFFF AND PUSH4 0xDF201A46 PUSH1 0x40 MLOAD DUP2 PUSH4 0xFFFFFFFF AND PUSH1 0xE0 SHL DUP2 MSTORE PUSH1 0x4 ADD PUSH1 0x20 PUSH1 0x40 MLOAD DUP1 DUP4 SUB DUP2 DUP7 DUP1 EXTCODESIZE ISZERO DUP1 ISZERO PUSH2 0xC1 JUMPI PUSH1 0x0 DUP1 REVERT JUMPDEST POP GAS STATICCALL SWAP3 POP POP POP DUP1 ISZERO PUSH2 0xF2 JUMPI POP PUSH1 0x40 MLOAD RETURNDATASIZE PUSH1 0x1F NOT PUSH1 0x1F DUP3 ADD AND DUP3 ADD DUP1 PUSH1 0x40 MSTORE POP DUP2 ADD SWAP1 PUSH2 0xEF SWAP2 SWAP1 PUSH2 0x162 JUMP JUMPDEST PUSH1 0x1 JUMPDEST PUSH2 0x137 JUMPI PUSH32 0xED1339D3B97ACA38A4BC95190B93AF9130BE96B54E1BC34CAA04B59819DECFA0 PUSH1 0x40 MLOAD PUSH2 0x123 SWAP1 PUSH2 0x1F3 JUMP JUMPDEST PUSH1 0x40 MLOAD DUP1 SWAP2 SUB SWAP1 LOG1 PUSH1 0x0 DUP1 SWAP2 POP SWAP2 POP PUSH2 0x140 JUMP JUMPDEST DUP1 PUSH1 0x1 SWAP3 POP SWAP3 POP POP JUMPDEST SWAP1 SWAP2 JUMP JUMPDEST PUSH1 0x0 PUSH1 0x4 SWAP1 POP SWAP1 JUMP JUMPDEST PUSH1 0x0 DUP2 MLOAD SWAP1 POP PUSH2 0x15C DUP2 PUSH2 0x2E8 JUMP JUMPDEST SWAP3 SWAP2 POP POP JUMP JUMPDEST PUSH1 0x0 PUSH1 0x20 DUP3 DUP5 SUB SLT ISZERO PUSH2 0x178 JUMPI PUSH2 0x177 PUSH2 0x291 JUMP JUMPDEST JUMPDEST PUSH1 0x0 PUSH2 0x186 DUP5 DUP3 DUP6 ADD PUSH2 0x14D JUMP JUMPDEST SWAP2 POP POP SWAP3 SWAP2 POP POP JUMP JUMPDEST PUSH2 0x198 DUP2 PUSH2 0x27B JUMP JUMPDEST DUP3 MSTORE POP POP JUMP JUMPDEST PUSH1 0x0 PUSH2 0x1AB PUSH1 0x5 DUP4 PUSH2 0x26A JUMP JUMPDEST SWAP2 POP PUSH2 0x1B6 DUP3 PUSH2 0x296 JUMP JUMPDEST PUSH1 0x20 DUP3 ADD SWAP1 POP SWAP2 SWAP1 POP JUMP JUMPDEST PUSH1 0x0 PUSH2 0x1CE PUSH1 0x8 DUP4 PUSH2 0x26A JUMP JUMPDEST SWAP2 POP PUSH2 0x1D9 DUP3 PUSH2 0x2BF JUMP JUMPDEST PUSH1 0x20 DUP3 ADD SWAP1 POP SWAP2 SWAP1 POP JUMP JUMPDEST PUSH2 0x1ED DUP2 PUSH2 0x287 JUMP JUMPDEST DUP3 MSTORE POP POP JUMP JUMPDEST PUSH1 0x0 PUSH1 0x40 DUP3 ADD SWAP1 POP DUP2 DUP2 SUB PUSH1 0x0 DUP4 ADD MSTORE PUSH2 0x20C DUP2 PUSH2 0x19E JUMP JUMPDEST SWAP1 POP DUP2 DUP2 SUB PUSH1 0x20 DUP4 ADD MSTORE PUSH2 0x21F DUP2 PUSH2 0x1C1 JUMP JUMPDEST SWAP1 POP SWAP2 SWAP1 POP JUMP JUMPDEST PUSH1 0x0 PUSH1 0x20 DUP3 ADD SWAP1 POP PUSH2 0x23B PUSH1 0x0 DUP4 ADD DUP5 PUSH2 0x1E4 JUMP JUMPDEST SWAP3 SWAP2 POP POP JUMP JUMPDEST PUSH1 0x0 PUSH1 0x40 DUP3 ADD SWAP1 POP PUSH2 0x256 PUSH1 0x0 DUP4 ADD DUP6 PUSH2 0x1E4 JUMP JUMPDEST PUSH2 0x263 PUSH1 0x20 DUP4 ADD DUP5 PUSH2 0x18F JUMP JUMPDEST SWAP4 SWAP3 POP POP POP JUMP JUMPDEST PUSH1 0x0 DUP3 DUP3 MSTORE PUSH1 0x20 DUP3 ADD SWAP1 POP SWAP3 SWAP2 POP POP JUMP JUMPDEST PUSH1 0x0 DUP2 ISZERO ISZERO SWAP1 POP SWAP2 SWAP1 POP JUMP JUMPDEST PUSH1 0x0 DUP2 SWAP1 POP SWAP2 SWAP1 POP JUMP JUMPDEST PUSH1 0x0 DUP1 REVERT JUMPDEST PUSH32 0x6361746368000000000000000000000000000000000000000000000000000000 PUSH1 0x0 DUP3 ADD MSTORE POP JUMP JUMPDEST PUSH32 0x4572726F72532121000000000000000000000000000000000000000000000000 PUSH1 0x0 DUP3 ADD MSTORE POP JUMP JUMPDEST PUSH2 0x2F1 DUP2 PUSH2 0x287 JUMP JUMPDEST DUP2 EQ PUSH2 0x2FC JUMPI PUSH1 0x0 DUP1 REVERT JUMPDEST POP JUMP INVALID LOG2 PUSH5 0x6970667358 0x22 SLT KECCAK256 PUSH10 0xD0A397AED79E95A3161A 0x1F CALLCODE SWAP7 PUSH2 0xCCF SLT DUP11 PUSH2 0x3584 0xCD 0xD5 0xD4 SWAP8 GASPRICE 0x2F ORIGIN DUP15 0xE9 0xDA PUSH5 0x736F6C6343 STOP ADDMOD SMOD STOP CALLER "
				},
				"gasEstimates": {
					"creation": {
						"codeDepositCost": "164200",
						"executionCost": "208",
						"totalCost": "164408"
					},
					"external": {
						"playTryCatch()": "infinite",
						"simple()": "337"
					}
				},
				"methodIdentifiers": {
					"playTryCatch()": "d57f4383",
					"simple()": "df201a46"
				}
			},
			"storageLayout": {
				"storage": [],
				"types": null
			},
			"userdoc": {
				"kind": "user",
				"methods": {},
				"version": 1
			}
		}
	}
}