{
	"lecture/lec32.sol": {
		"lec32": {
			"abi": [
				{
					"anonymous": false,
					"inputs": [
						{
							"indexed": false,
							"internalType": "uint256",
							"name": "_value",
							"type": "uint256"
						}
					],
					"name": "howMuch",
					"type": "event"
				},
				{
					"inputs": [
						{
							"internalType": "address payable",
							"name": "_to",
							"type": "address"
						}
					],
					"name": "callNow",
					"outputs": [],
					"stateMutability": "payable",
					"type": "function"
				},
				{
					"inputs": [
						{
							"internalType": "address payable",
							"name": "_to",
							"type": "address"
						}
					],
					"name": "sendNow",
					"outputs": [],
					"stateMutability": "payable",
					"type": "function"
				},
				{
					"inputs": [
						{
							"internalType": "address payable",
							"name": "_to",
							"type": "address"
						}
					],
					"name": "transferNow",
					"outputs": [],
					"stateMutability": "payable",
					"type": "function"
				}
			],
			"devdoc": {
				"kind": "dev",
				"methods": {},
				"version": 1
			},
			"evm": {
				"assembly": "    /* \"lecture/lec32.sol\":71:1637  contract lec32 {... */\n  mstore(0x40, 0x80)\n  callvalue\n  dup1\n  iszero\n  tag_1\n  jumpi\n  0x00\n  dup1\n  revert\ntag_1:\n  pop\n  dataSize(sub_0)\n  dup1\n  dataOffset(sub_0)\n  0x00\n  codecopy\n  0x00\n  return\nstop\n\nsub_0: assembly {\n        /* \"lecture/lec32.sol\":71:1637  contract lec32 {... */\n      mstore(0x40, 0x80)\n      jumpi(tag_1, lt(calldatasize, 0x04))\n      shr(0xe0, calldataload(0x00))\n      dup1\n      0x0b1fa23f\n      eq\n      tag_2\n      jumpi\n      dup1\n      0x56a967b4\n      eq\n      tag_3\n      jumpi\n      dup1\n      0x75a4624d\n      eq\n      tag_4\n      jumpi\n    tag_1:\n      0x00\n      dup1\n      revert\n        /* \"lecture/lec32.sol\":901:1105  function sendNow(address payable _to) public payable{... */\n    tag_2:\n      tag_5\n      0x04\n      dup1\n      calldatasize\n      sub\n      dup2\n      add\n      swap1\n      tag_6\n      swap2\n      swap1\n      tag_7\n      jump\t// in\n    tag_6:\n      tag_8\n      jump\t// in\n    tag_5:\n      stop\n        /* \"lecture/lec32.sol\":1115:1244  function transferNow(address payable _to) public payable{... */\n    tag_3:\n      tag_9\n      0x04\n      dup1\n      calldatasize\n      sub\n      dup2\n      add\n      swap1\n      tag_10\n      swap2\n      swap1\n      tag_7\n      jump\t// in\n    tag_10:\n      tag_11\n      jump\t// in\n    tag_9:\n      stop\n        /* \"lecture/lec32.sol\":1254:1630  function callNow (address payable _to) public payable{... */\n    tag_4:\n      tag_12\n      0x04\n      dup1\n      calldatasize\n      sub\n      dup2\n      add\n      swap1\n      tag_13\n      swap2\n      swap1\n      tag_7\n      jump\t// in\n    tag_13:\n      tag_14\n      jump\t// in\n    tag_12:\n      stop\n        /* \"lecture/lec32.sol\":901:1105  function sendNow(address payable _to) public payable{... */\n    tag_8:\n        /* \"lecture/lec32.sol\":963:972  bool sent */\n      0x00\n        /* \"lecture/lec32.sol\":975:978  _to */\n      dup2\n        /* \"lecture/lec32.sol\":975:983  _to.send */\n      0xffffffffffffffffffffffffffffffffffffffff\n      and\n        /* \"lecture/lec32.sol\":975:994  _to.send(msg.value) */\n      0x08fc\n        /* \"lecture/lec32.sol\":984:993  msg.value */\n      callvalue\n        /* \"lecture/lec32.sol\":975:994  _to.send(msg.value) */\n      swap1\n      dup2\n      iszero\n      mul\n      swap1\n      mload(0x40)\n      0x00\n      mload(0x40)\n      dup1\n      dup4\n      sub\n      dup2\n      dup6\n      dup9\n      dup9\n      call\n      swap4\n      pop\n      pop\n      pop\n      pop\n        /* \"lecture/lec32.sol\":963:994  bool sent = _to.send(msg.value) */\n      swap1\n      pop\n        /* \"lecture/lec32.sol\":1036:1040  sent */\n      dup1\n        /* \"lecture/lec32.sol\":1028:1065  require(sent,\"Failed to send either\") */\n      tag_17\n      jumpi\n      mload(0x40)\n      0x08c379a000000000000000000000000000000000000000000000000000000000\n      dup2\n      mstore\n      0x04\n      add\n      tag_18\n      swap1\n      tag_19\n      jump\t// in\n    tag_18:\n      mload(0x40)\n      dup1\n      swap2\n      sub\n      swap1\n      revert\n    tag_17:\n        /* \"lecture/lec32.sol\":1080:1098  howMuch(msg.value) */\n      0xe4f740571b79610deff27ca80ef3046de224a7fc42e82177a0d9919cd5b7a8d9\n        /* \"lecture/lec32.sol\":1088:1097  msg.value */\n      callvalue\n        /* \"lecture/lec32.sol\":1080:1098  howMuch(msg.value) */\n      mload(0x40)\n      tag_20\n      swap2\n      swap1\n      tag_21\n      jump\t// in\n    tag_20:\n      mload(0x40)\n      dup1\n      swap2\n      sub\n      swap1\n      log1\n        /* \"lecture/lec32.sol\":953:1105  {... */\n      pop\n        /* \"lecture/lec32.sol\":901:1105  function sendNow(address payable _to) public payable{... */\n      pop\n      jump\t// out\n        /* \"lecture/lec32.sol\":1115:1244  function transferNow(address payable _to) public payable{... */\n    tag_11:\n        /* \"lecture/lec32.sol\":1181:1184  _to */\n      dup1\n        /* \"lecture/lec32.sol\":1181:1193  _to.transfer */\n      0xffffffffffffffffffffffffffffffffffffffff\n      and\n        /* \"lecture/lec32.sol\":1181:1204  _to.transfer(msg.value) */\n      0x08fc\n        /* \"lecture/lec32.sol\":1194:1203  msg.value */\n      callvalue\n        /* \"lecture/lec32.sol\":1181:1204  _to.transfer(msg.value) */\n      swap1\n      dup2\n      iszero\n      mul\n      swap1\n      mload(0x40)\n      0x00\n      mload(0x40)\n      dup1\n      dup4\n      sub\n      dup2\n      dup6\n      dup9\n      dup9\n      call\n      swap4\n      pop\n      pop\n      pop\n      pop\n      iszero\n      dup1\n      iszero\n      tag_24\n      jumpi\n      returndatasize\n      0x00\n      dup1\n      returndatacopy\n      revert(0x00, returndatasize)\n    tag_24:\n      pop\n        /* \"lecture/lec32.sol\":1219:1237  howMuch(msg.value) */\n      0xe4f740571b79610deff27ca80ef3046de224a7fc42e82177a0d9919cd5b7a8d9\n        /* \"lecture/lec32.sol\":1227:1236  msg.value */\n      callvalue\n        /* \"lecture/lec32.sol\":1219:1237  howMuch(msg.value) */\n      mload(0x40)\n      tag_25\n      swap2\n      swap1\n      tag_21\n      jump\t// in\n    tag_25:\n      mload(0x40)\n      dup1\n      swap2\n      sub\n      swap1\n      log1\n        /* \"lecture/lec32.sol\":1115:1244  function transferNow(address payable _to) public payable{... */\n      pop\n      jump\t// out\n        /* \"lecture/lec32.sol\":1254:1630  function callNow (address payable _to) public payable{... */\n    tag_14:\n        /* \"lecture/lec32.sol\":1478:1487  bool sent */\n      0x00\n        /* \"lecture/lec32.sol\":1493:1496  _to */\n      dup2\n        /* \"lecture/lec32.sol\":1493:1501  _to.call */\n      0xffffffffffffffffffffffffffffffffffffffff\n      and\n        /* \"lecture/lec32.sol\":1509:1518  msg.value */\n      callvalue\n        /* \"lecture/lec32.sol\":1525:1529  1000 */\n      0x03e8\n        /* \"lecture/lec32.sol\":1493:1534  _to.call{value: msg.value , gas:1000}(\"\") */\n      swap1\n      mload(0x40)\n      tag_27\n      swap1\n      tag_28\n      jump\t// in\n    tag_27:\n      0x00\n      mload(0x40)\n      dup1\n      dup4\n      sub\n      dup2\n      dup6\n      dup9\n      dup9\n      call\n      swap4\n      pop\n      pop\n      pop\n      pop\n      returndatasize\n      dup1\n      0x00\n      dup2\n      eq\n      tag_31\n      jumpi\n      mload(0x40)\n      swap2\n      pop\n      and(add(returndatasize, 0x3f), not(0x1f))\n      dup3\n      add\n      0x40\n      mstore\n      returndatasize\n      dup3\n      mstore\n      returndatasize\n      0x00\n      0x20\n      dup5\n      add\n      returndatacopy\n      jump(tag_30)\n    tag_31:\n      0x60\n      swap2\n      pop\n    tag_30:\n      pop\n        /* \"lecture/lec32.sol\":1477:1534  (bool sent, ) = _to.call{value: msg.value , gas:1000}(\"\") */\n      pop\n      swap1\n      pop\n        /* \"lecture/lec32.sol\":1552:1556  sent */\n      dup1\n        /* \"lecture/lec32.sol\":1544:1581  require(sent, \"Failed to send Ether\") */\n      tag_32\n      jumpi\n      mload(0x40)\n      0x08c379a000000000000000000000000000000000000000000000000000000000\n      dup2\n      mstore\n      0x04\n      add\n      tag_33\n      swap1\n      tag_34\n      jump\t// in\n    tag_33:\n      mload(0x40)\n      dup1\n      swap2\n      sub\n      swap1\n      revert\n    tag_32:\n        /* \"lecture/lec32.sol\":1596:1614  howMuch(msg.value) */\n      0xe4f740571b79610deff27ca80ef3046de224a7fc42e82177a0d9919cd5b7a8d9\n        /* \"lecture/lec32.sol\":1604:1613  msg.value */\n      callvalue\n        /* \"lecture/lec32.sol\":1596:1614  howMuch(msg.value) */\n      mload(0x40)\n      tag_35\n      swap2\n      swap1\n      tag_21\n      jump\t// in\n    tag_35:\n      mload(0x40)\n      dup1\n      swap2\n      sub\n      swap1\n      log1\n        /* \"lecture/lec32.sol\":1307:1630  {... */\n      pop\n        /* \"lecture/lec32.sol\":1254:1630  function callNow (address payable _to) public payable{... */\n      pop\n      jump\t// out\n        /* \"#utility.yul\":7:162   */\n    tag_37:\n        /* \"#utility.yul\":61:66   */\n      0x00\n        /* \"#utility.yul\":99:105   */\n      dup2\n        /* \"#utility.yul\":86:106   */\n      calldataload\n        /* \"#utility.yul\":77:106   */\n      swap1\n      pop\n        /* \"#utility.yul\":115:156   */\n      tag_39\n        /* \"#utility.yul\":150:155   */\n      dup2\n        /* \"#utility.yul\":115:156   */\n      tag_40\n      jump\t// in\n    tag_39:\n        /* \"#utility.yul\":7:162   */\n      swap3\n      swap2\n      pop\n      pop\n      jump\t// out\n        /* \"#utility.yul\":168:513   */\n    tag_7:\n        /* \"#utility.yul\":235:241   */\n      0x00\n        /* \"#utility.yul\":284:286   */\n      0x20\n        /* \"#utility.yul\":272:281   */\n      dup3\n        /* \"#utility.yul\":263:270   */\n      dup5\n        /* \"#utility.yul\":259:282   */\n      sub\n        /* \"#utility.yul\":255:287   */\n      slt\n        /* \"#utility.yul\":252:371   */\n      iszero\n      tag_42\n      jumpi\n        /* \"#utility.yul\":290:369   */\n      tag_43\n      tag_44\n      jump\t// in\n    tag_43:\n        /* \"#utility.yul\":252:371   */\n    tag_42:\n        /* \"#utility.yul\":410:411   */\n      0x00\n        /* \"#utility.yul\":435:496   */\n      tag_45\n        /* \"#utility.yul\":488:495   */\n      dup5\n        /* \"#utility.yul\":479:485   */\n      dup3\n        /* \"#utility.yul\":468:477   */\n      dup6\n        /* \"#utility.yul\":464:486   */\n      add\n        /* \"#utility.yul\":435:496   */\n      tag_37\n      jump\t// in\n    tag_45:\n        /* \"#utility.yul\":425:496   */\n      swap2\n      pop\n        /* \"#utility.yul\":381:506   */\n      pop\n        /* \"#utility.yul\":168:513   */\n      swap3\n      swap2\n      pop\n      pop\n      jump\t// out\n        /* \"#utility.yul\":519:885   */\n    tag_46:\n        /* \"#utility.yul\":661:664   */\n      0x00\n        /* \"#utility.yul\":682:749   */\n      tag_48\n        /* \"#utility.yul\":746:748   */\n      0x14\n        /* \"#utility.yul\":741:744   */\n      dup4\n        /* \"#utility.yul\":682:749   */\n      tag_49\n      jump\t// in\n    tag_48:\n        /* \"#utility.yul\":675:749   */\n      swap2\n      pop\n        /* \"#utility.yul\":758:851   */\n      tag_50\n        /* \"#utility.yul\":847:850   */\n      dup3\n        /* \"#utility.yul\":758:851   */\n      tag_51\n      jump\t// in\n    tag_50:\n        /* \"#utility.yul\":876:878   */\n      0x20\n        /* \"#utility.yul\":871:874   */\n      dup3\n        /* \"#utility.yul\":867:879   */\n      add\n        /* \"#utility.yul\":860:879   */\n      swap1\n      pop\n        /* \"#utility.yul\":519:885   */\n      swap2\n      swap1\n      pop\n      jump\t// out\n        /* \"#utility.yul\":891:1289   */\n    tag_52:\n        /* \"#utility.yul\":1050:1053   */\n      0x00\n        /* \"#utility.yul\":1071:1154   */\n      tag_54\n        /* \"#utility.yul\":1152:1153   */\n      0x00\n        /* \"#utility.yul\":1147:1150   */\n      dup4\n        /* \"#utility.yul\":1071:1154   */\n      tag_55\n      jump\t// in\n    tag_54:\n        /* \"#utility.yul\":1064:1154   */\n      swap2\n      pop\n        /* \"#utility.yul\":1163:1256   */\n      tag_56\n        /* \"#utility.yul\":1252:1255   */\n      dup3\n        /* \"#utility.yul\":1163:1256   */\n      tag_57\n      jump\t// in\n    tag_56:\n        /* \"#utility.yul\":1281:1282   */\n      0x00\n        /* \"#utility.yul\":1276:1279   */\n      dup3\n        /* \"#utility.yul\":1272:1283   */\n      add\n        /* \"#utility.yul\":1265:1283   */\n      swap1\n      pop\n        /* \"#utility.yul\":891:1289   */\n      swap2\n      swap1\n      pop\n      jump\t// out\n        /* \"#utility.yul\":1295:1661   */\n    tag_58:\n        /* \"#utility.yul\":1437:1440   */\n      0x00\n        /* \"#utility.yul\":1458:1525   */\n      tag_60\n        /* \"#utility.yul\":1522:1524   */\n      0x15\n        /* \"#utility.yul\":1517:1520   */\n      dup4\n        /* \"#utility.yul\":1458:1525   */\n      tag_49\n      jump\t// in\n    tag_60:\n        /* \"#utility.yul\":1451:1525   */\n      swap2\n      pop\n        /* \"#utility.yul\":1534:1627   */\n      tag_61\n        /* \"#utility.yul\":1623:1626   */\n      dup3\n        /* \"#utility.yul\":1534:1627   */\n      tag_62\n      jump\t// in\n    tag_61:\n        /* \"#utility.yul\":1652:1654   */\n      0x20\n        /* \"#utility.yul\":1647:1650   */\n      dup3\n        /* \"#utility.yul\":1643:1655   */\n      add\n        /* \"#utility.yul\":1636:1655   */\n      swap1\n      pop\n        /* \"#utility.yul\":1295:1661   */\n      swap2\n      swap1\n      pop\n      jump\t// out\n        /* \"#utility.yul\":1667:1785   */\n    tag_63:\n        /* \"#utility.yul\":1754:1778   */\n      tag_65\n        /* \"#utility.yul\":1772:1777   */\n      dup2\n        /* \"#utility.yul\":1754:1778   */\n      tag_66\n      jump\t// in\n    tag_65:\n        /* \"#utility.yul\":1749:1752   */\n      dup3\n        /* \"#utility.yul\":1742:1779   */\n      mstore\n        /* \"#utility.yul\":1667:1785   */\n      pop\n      pop\n      jump\t// out\n        /* \"#utility.yul\":1791:2170   */\n    tag_28:\n        /* \"#utility.yul\":1975:1978   */\n      0x00\n        /* \"#utility.yul\":1997:2144   */\n      tag_68\n        /* \"#utility.yul\":2140:2143   */\n      dup3\n        /* \"#utility.yul\":1997:2144   */\n      tag_52\n      jump\t// in\n    tag_68:\n        /* \"#utility.yul\":1990:2144   */\n      swap2\n      pop\n        /* \"#utility.yul\":2161:2164   */\n      dup2\n        /* \"#utility.yul\":2154:2164   */\n      swap1\n      pop\n        /* \"#utility.yul\":1791:2170   */\n      swap2\n      swap1\n      pop\n      jump\t// out\n        /* \"#utility.yul\":2176:2595   */\n    tag_34:\n        /* \"#utility.yul\":2342:2346   */\n      0x00\n        /* \"#utility.yul\":2380:2382   */\n      0x20\n        /* \"#utility.yul\":2369:2378   */\n      dup3\n        /* \"#utility.yul\":2365:2383   */\n      add\n        /* \"#utility.yul\":2357:2383   */\n      swap1\n      pop\n        /* \"#utility.yul\":2429:2438   */\n      dup2\n        /* \"#utility.yul\":2423:2427   */\n      dup2\n        /* \"#utility.yul\":2419:2439   */\n      sub\n        /* \"#utility.yul\":2415:2416   */\n      0x00\n        /* \"#utility.yul\":2404:2413   */\n      dup4\n        /* \"#utility.yul\":2400:2417   */\n      add\n        /* \"#utility.yul\":2393:2440   */\n      mstore\n        /* \"#utility.yul\":2457:2588   */\n      tag_70\n        /* \"#utility.yul\":2583:2587   */\n      dup2\n        /* \"#utility.yul\":2457:2588   */\n      tag_46\n      jump\t// in\n    tag_70:\n        /* \"#utility.yul\":2449:2588   */\n      swap1\n      pop\n        /* \"#utility.yul\":2176:2595   */\n      swap2\n      swap1\n      pop\n      jump\t// out\n        /* \"#utility.yul\":2601:3020   */\n    tag_19:\n        /* \"#utility.yul\":2767:2771   */\n      0x00\n        /* \"#utility.yul\":2805:2807   */\n      0x20\n        /* \"#utility.yul\":2794:2803   */\n      dup3\n        /* \"#utility.yul\":2790:2808   */\n      add\n        /* \"#utility.yul\":2782:2808   */\n      swap1\n      pop\n        /* \"#utility.yul\":2854:2863   */\n      dup2\n        /* \"#utility.yul\":2848:2852   */\n      dup2\n        /* \"#utility.yul\":2844:2864   */\n      sub\n        /* \"#utility.yul\":2840:2841   */\n      0x00\n        /* \"#utility.yul\":2829:2838   */\n      dup4\n        /* \"#utility.yul\":2825:2842   */\n      add\n        /* \"#utility.yul\":2818:2865   */\n      mstore\n        /* \"#utility.yul\":2882:3013   */\n      tag_72\n        /* \"#utility.yul\":3008:3012   */\n      dup2\n        /* \"#utility.yul\":2882:3013   */\n      tag_58\n      jump\t// in\n    tag_72:\n        /* \"#utility.yul\":2874:3013   */\n      swap1\n      pop\n        /* \"#utility.yul\":2601:3020   */\n      swap2\n      swap1\n      pop\n      jump\t// out\n        /* \"#utility.yul\":3026:3248   */\n    tag_21:\n        /* \"#utility.yul\":3119:3123   */\n      0x00\n        /* \"#utility.yul\":3157:3159   */\n      0x20\n        /* \"#utility.yul\":3146:3155   */\n      dup3\n        /* \"#utility.yul\":3142:3160   */\n      add\n        /* \"#utility.yul\":3134:3160   */\n      swap1\n      pop\n        /* \"#utility.yul\":3170:3241   */\n      tag_74\n        /* \"#utility.yul\":3238:3239   */\n      0x00\n        /* \"#utility.yul\":3227:3236   */\n      dup4\n        /* \"#utility.yul\":3223:3240   */\n      add\n        /* \"#utility.yul\":3214:3220   */\n      dup5\n        /* \"#utility.yul\":3170:3241   */\n      tag_63\n      jump\t// in\n    tag_74:\n        /* \"#utility.yul\":3026:3248   */\n      swap3\n      swap2\n      pop\n      pop\n      jump\t// out\n        /* \"#utility.yul\":3335:3482   */\n    tag_55:\n        /* \"#utility.yul\":3436:3447   */\n      0x00\n        /* \"#utility.yul\":3473:3476   */\n      dup2\n        /* \"#utility.yul\":3458:3476   */\n      swap1\n      pop\n        /* \"#utility.yul\":3335:3482   */\n      swap3\n      swap2\n      pop\n      pop\n      jump\t// out\n        /* \"#utility.yul\":3488:3657   */\n    tag_49:\n        /* \"#utility.yul\":3572:3583   */\n      0x00\n        /* \"#utility.yul\":3606:3612   */\n      dup3\n        /* \"#utility.yul\":3601:3604   */\n      dup3\n        /* \"#utility.yul\":3594:3613   */\n      mstore\n        /* \"#utility.yul\":3646:3650   */\n      0x20\n        /* \"#utility.yul\":3641:3644   */\n      dup3\n        /* \"#utility.yul\":3637:3651   */\n      add\n        /* \"#utility.yul\":3622:3651   */\n      swap1\n      pop\n        /* \"#utility.yul\":3488:3657   */\n      swap3\n      swap2\n      pop\n      pop\n      jump\t// out\n        /* \"#utility.yul\":3663:3767   */\n    tag_79:\n        /* \"#utility.yul\":3708:3715   */\n      0x00\n        /* \"#utility.yul\":3737:3761   */\n      tag_81\n        /* \"#utility.yul\":3755:3760   */\n      dup3\n        /* \"#utility.yul\":3737:3761   */\n      tag_82\n      jump\t// in\n    tag_81:\n        /* \"#utility.yul\":3726:3761   */\n      swap1\n      pop\n        /* \"#utility.yul\":3663:3767   */\n      swap2\n      swap1\n      pop\n      jump\t// out\n        /* \"#utility.yul\":3773:3899   */\n    tag_82:\n        /* \"#utility.yul\":3810:3817   */\n      0x00\n        /* \"#utility.yul\":3850:3892   */\n      0xffffffffffffffffffffffffffffffffffffffff\n        /* \"#utility.yul\":3843:3848   */\n      dup3\n        /* \"#utility.yul\":3839:3893   */\n      and\n        /* \"#utility.yul\":3828:3893   */\n      swap1\n      pop\n        /* \"#utility.yul\":3773:3899   */\n      swap2\n      swap1\n      pop\n      jump\t// out\n        /* \"#utility.yul\":3905:3982   */\n    tag_66:\n        /* \"#utility.yul\":3942:3949   */\n      0x00\n        /* \"#utility.yul\":3971:3976   */\n      dup2\n        /* \"#utility.yul\":3960:3976   */\n      swap1\n      pop\n        /* \"#utility.yul\":3905:3982   */\n      swap2\n      swap1\n      pop\n      jump\t// out\n        /* \"#utility.yul\":4111:4228   */\n    tag_44:\n        /* \"#utility.yul\":4220:4221   */\n      0x00\n        /* \"#utility.yul\":4217:4218   */\n      dup1\n        /* \"#utility.yul\":4210:4222   */\n      revert\n        /* \"#utility.yul\":4234:4404   */\n    tag_51:\n        /* \"#utility.yul\":4374:4396   */\n      0x4661696c656420746f2073656e64204574686572000000000000000000000000\n        /* \"#utility.yul\":4370:4371   */\n      0x00\n        /* \"#utility.yul\":4362:4368   */\n      dup3\n        /* \"#utility.yul\":4358:4372   */\n      add\n        /* \"#utility.yul\":4351:4397   */\n      mstore\n        /* \"#utility.yul\":4234:4404   */\n      pop\n      jump\t// out\n        /* \"#utility.yul\":4410:4524   */\n    tag_57:\n      pop\n      jump\t// out\n        /* \"#utility.yul\":4530:4701   */\n    tag_62:\n        /* \"#utility.yul\":4670:4693   */\n      0x4661696c656420746f2073656e64206569746865720000000000000000000000\n        /* \"#utility.yul\":4666:4667   */\n      0x00\n        /* \"#utility.yul\":4658:4664   */\n      dup3\n        /* \"#utility.yul\":4654:4668   */\n      add\n        /* \"#utility.yul\":4647:4694   */\n      mstore\n        /* \"#utility.yul\":4530:4701   */\n      pop\n      jump\t// out\n        /* \"#utility.yul\":4707:4845   */\n    tag_40:\n        /* \"#utility.yul\":4788:4820   */\n      tag_92\n        /* \"#utility.yul\":4814:4819   */\n      dup2\n        /* \"#utility.yul\":4788:4820   */\n      tag_79\n      jump\t// in\n    tag_92:\n        /* \"#utility.yul\":4781:4786   */\n      dup2\n        /* \"#utility.yul\":4778:4821   */\n      eq\n        /* \"#utility.yul\":4768:4839   */\n      tag_93\n      jumpi\n        /* \"#utility.yul\":4835:4836   */\n      0x00\n        /* \"#utility.yul\":4832:4833   */\n      dup1\n        /* \"#utility.yul\":4825:4837   */\n      revert\n        /* \"#utility.yul\":4768:4839   */\n    tag_93:\n        /* \"#utility.yul\":4707:4845   */\n      pop\n      jump\t// out\n\n    auxdata: 0xa264697066735822122001b69d12e167bacc2e2e51af9bfb6b6255b6973141bfb58709776836c51c2fd864736f6c63430008070033\n}\n",
				"bytecode": {
					"linkReferences": {},
					"object": "608060405234801561001057600080fd5b506104d7806100206000396000f3fe6080604052600436106100345760003560e01c80630b1fa23f1461003957806356a967b41461005557806375a4624d14610071575b600080fd5b610053600480360381019061004e91906102c3565b61008d565b005b61006f600480360381019061006a91906102c3565b610141565b005b61008b600480360381019061008691906102c3565b6101c2565b005b60008173ffffffffffffffffffffffffffffffffffffffff166108fc349081150290604051600060405180830381858888f19350505050905080610106576040517f08c379a00000000000000000000000000000000000000000000000000000000081526004016100fd9061039d565b60405180910390fd5b7fe4f740571b79610deff27ca80ef3046de224a7fc42e82177a0d9919cd5b7a8d93460405161013591906103bd565b60405180910390a15050565b8073ffffffffffffffffffffffffffffffffffffffff166108fc349081150290604051600060405180830381858888f19350505050158015610187573d6000803e3d6000fd5b507fe4f740571b79610deff27ca80ef3046de224a7fc42e82177a0d9919cd5b7a8d9346040516101b791906103bd565b60405180910390a150565b60008173ffffffffffffffffffffffffffffffffffffffff16346103e8906040516101ec90610368565b600060405180830381858888f193505050503d806000811461022a576040519150601f19603f3d011682016040523d82523d6000602084013e61022f565b606091505b5050905080610273576040517f08c379a000000000000000000000000000000000000000000000000000000000815260040161026a9061037d565b60405180910390fd5b7fe4f740571b79610deff27ca80ef3046de224a7fc42e82177a0d9919cd5b7a8d9346040516102a291906103bd565b60405180910390a15050565b6000813590506102bd8161048a565b92915050565b6000602082840312156102d9576102d8610430565b5b60006102e7848285016102ae565b91505092915050565b60006102fd6014836103e3565b915061030882610435565b602082019050919050565b60006103206000836103d8565b915061032b8261045e565b600082019050919050565b60006103436015836103e3565b915061034e82610461565b602082019050919050565b61036281610426565b82525050565b600061037382610313565b9150819050919050565b60006020820190508181036000830152610396816102f0565b9050919050565b600060208201905081810360008301526103b681610336565b9050919050565b60006020820190506103d26000830184610359565b92915050565b600081905092915050565b600082825260208201905092915050565b60006103ff82610406565b9050919050565b600073ffffffffffffffffffffffffffffffffffffffff82169050919050565b6000819050919050565b600080fd5b7f4661696c656420746f2073656e64204574686572000000000000000000000000600082015250565b50565b7f4661696c656420746f2073656e64206569746865720000000000000000000000600082015250565b610493816103f4565b811461049e57600080fd5b5056fea264697066735822122001b69d12e167bacc2e2e51af9bfb6b6255b6973141bfb58709776836c51c2fd864736f6c63430008070033",
					"opcodes": "PUSH1 0x80 PUSH1 0x40 MSTORE CALLVALUE DUP1 ISZERO PUSH2 0x10 JUMPI PUSH1 0x0 DUP1 REVERT JUMPDEST POP PUSH2 0x4D7 DUP1 PUSH2 0x20 PUSH1 0x0 CODECOPY PUSH1 0x0 RETURN INVALID PUSH1 0x80 PUSH1 0x40 MSTORE PUSH1 0x4 CALLDATASIZE LT PUSH2 0x34 JUMPI PUSH1 0x0 CALLDATALOAD PUSH1 0xE0 SHR DUP1 PUSH4 0xB1FA23F EQ PUSH2 0x39 JUMPI DUP1 PUSH4 0x56A967B4 EQ PUSH2 0x55 JUMPI DUP1 PUSH4 0x75A4624D EQ PUSH2 0x71 JUMPI JUMPDEST PUSH1 0x0 DUP1 REVERT JUMPDEST PUSH2 0x53 PUSH1 0x4 DUP1 CALLDATASIZE SUB DUP2 ADD SWAP1 PUSH2 0x4E SWAP2 SWAP1 PUSH2 0x2C3 JUMP JUMPDEST PUSH2 0x8D JUMP JUMPDEST STOP JUMPDEST PUSH2 0x6F PUSH1 0x4 DUP1 CALLDATASIZE SUB DUP2 ADD SWAP1 PUSH2 0x6A SWAP2 SWAP1 PUSH2 0x2C3 JUMP JUMPDEST PUSH2 0x141 JUMP JUMPDEST STOP JUMPDEST PUSH2 0x8B PUSH1 0x4 DUP1 CALLDATASIZE SUB DUP2 ADD SWAP1 PUSH2 0x86 SWAP2 SWAP1 PUSH2 0x2C3 JUMP JUMPDEST PUSH2 0x1C2 JUMP JUMPDEST STOP JUMPDEST PUSH1 0x0 DUP2 PUSH20 0xFFFFFFFFFFFFFFFFFFFFFFFFFFFFFFFFFFFFFFFF AND PUSH2 0x8FC CALLVALUE SWAP1 DUP2 ISZERO MUL SWAP1 PUSH1 0x40 MLOAD PUSH1 0x0 PUSH1 0x40 MLOAD DUP1 DUP4 SUB DUP2 DUP6 DUP9 DUP9 CALL SWAP4 POP POP POP POP SWAP1 POP DUP1 PUSH2 0x106 JUMPI PUSH1 0x40 MLOAD PUSH32 0x8C379A000000000000000000000000000000000000000000000000000000000 DUP2 MSTORE PUSH1 0x4 ADD PUSH2 0xFD SWAP1 PUSH2 0x39D JUMP JUMPDEST PUSH1 0x40 MLOAD DUP1 SWAP2 SUB SWAP1 REVERT JUMPDEST PUSH32 0xE4F740571B79610DEFF27CA80EF3046DE224A7FC42E82177A0D9919CD5B7A8D9 CALLVALUE PUSH1 0x40 MLOAD PUSH2 0x135 SWAP2 SWAP1 PUSH2 0x3BD JUMP JUMPDEST PUSH1 0x40 MLOAD DUP1 SWAP2 SUB SWAP1 LOG1 POP POP JUMP JUMPDEST DUP1 PUSH20 0xFFFFFFFFFFFFFFFFFFFFFFFFFFFFFFFFFFFFFFFF AND PUSH2 0x8FC CALLVALUE SWAP1 DUP2 ISZERO MUL SWAP1 PUSH1 0x40 MLOAD PUSH1 0x0 PUSH1 0x40 MLOAD DUP1 DUP4 SUB DUP2 DUP6 DUP9 DUP9 CALL SWAP4 POP POP POP POP ISZERO DUP1 ISZERO PUSH2 0x187 JUMPI RETURNDATASIZE PUSH1 0x0 DUP1 RETURNDATACOPY RETURNDATASIZE PUSH1 0x0 REVERT JUMPDEST POP PUSH32 0xE4F740571B79610DEFF27CA80EF3046DE224A7FC42E82177A0D9919CD5B7A8D9 CALLVALUE PUSH1 0x40 MLOAD PUSH2 0x1B7 SWAP2 SWAP1 PUSH2 0x3BD JUMP JUMPDEST PUSH1 0x40 MLOAD DUP1 SWAP2 SUB SWAP1 LOG1 POP JUMP JUMPDEST PUSH1 0x0 DUP2 PUSH20 0xFFFFFFFFFFFFFFFFFFFFFFFFFFFFFFFFFFFFFFFF AND CALLVALUE PUSH2 0x3E8 SWAP1 PUSH1 0x40 MLOAD PUSH2 0x1EC SWAP1 PUSH2 0x368 JUMP JUMPDEST PUSH1 0x0 PUSH1 0x40 MLOAD DUP1 DUP4 SUB DUP2 DUP6 DUP9 DUP9 CALL SWAP4 POP POP POP POP RETURNDATASIZE DUP1 PUSH1 0x0 DUP2 EQ PUSH2 0x22A JUMPI PUSH1 0x40 MLOAD SWAP2 POP PUSH1 0x1F NOT PUSH1 0x3F RETURNDATASIZE ADD AND DUP3 ADD PUSH1 0x40 MSTORE RETURNDATASIZE DUP3 MSTORE RETURNDATASIZE PUSH1 0x0 PUSH1 0x20 DUP5 ADD RETURNDATACOPY PUSH2 0x22F JUMP JUMPDEST PUSH1 0x60 SWAP2 POP JUMPDEST POP POP SWAP1 POP DUP1 PUSH2 0x273 JUMPI PUSH1 0x40 MLOAD PUSH32 0x8C379A000000000000000000000000000000000000000000000000000000000 DUP2 MSTORE PUSH1 0x4 ADD PUSH2 0x26A SWAP1 PUSH2 0x37D JUMP JUMPDEST PUSH1 0x40 MLOAD DUP1 SWAP2 SUB SWAP1 REVERT JUMPDEST PUSH32 0xE4F740571B79610DEFF27CA80EF3046DE224A7FC42E82177A0D9919CD5B7A8D9 CALLVALUE PUSH1 0x40 MLOAD PUSH2 0x2A2 SWAP2 SWAP1 PUSH2 0x3BD JUMP JUMPDEST PUSH1 0x40 MLOAD DUP1 SWAP2 SUB SWAP1 LOG1 POP POP JUMP JUMPDEST PUSH1 0x0 DUP2 CALLDATALOAD SWAP1 POP PUSH2 0x2BD DUP2 PUSH2 0x48A JUMP JUMPDEST SWAP3 SWAP2 POP POP JUMP JUMPDEST PUSH1 0x0 PUSH1 0x20 DUP3 DUP5 SUB SLT ISZERO PUSH2 0x2D9 JUMPI PUSH2 0x2D8 PUSH2 0x430 JUMP JUMPDEST JUMPDEST PUSH1 0x0 PUSH2 0x2E7 DUP5 DUP3 DUP6 ADD PUSH2 0x2AE JUMP JUMPDEST SWAP2 POP POP SWAP3 SWAP2 POP POP JUMP JUMPDEST PUSH1 0x0 PUSH2 0x2FD PUSH1 0x14 DUP4 PUSH2 0x3E3 JUMP JUMPDEST SWAP2 POP PUSH2 0x308 DUP3 PUSH2 0x435 JUMP JUMPDEST PUSH1 0x20 DUP3 ADD SWAP1 POP SWAP2 SWAP1 POP JUMP JUMPDEST PUSH1 0x0 PUSH2 0x320 PUSH1 0x0 DUP4 PUSH2 0x3D8 JUMP JUMPDEST SWAP2 POP PUSH2 0x32B DUP3 PUSH2 0x45E JUMP JUMPDEST PUSH1 0x0 DUP3 ADD SWAP1 POP SWAP2 SWAP1 POP JUMP JUMPDEST PUSH1 0x0 PUSH2 0x343 PUSH1 0x15 DUP4 PUSH2 0x3E3 JUMP JUMPDEST SWAP2 POP PUSH2 0x34E DUP3 PUSH2 0x461 JUMP JUMPDEST PUSH1 0x20 DUP3 ADD SWAP1 POP SWAP2 SWAP1 POP JUMP JUMPDEST PUSH2 0x362 DUP2 PUSH2 0x426 JUMP JUMPDEST DUP3 MSTORE POP POP JUMP JUMPDEST PUSH1 0x0 PUSH2 0x373 DUP3 PUSH2 0x313 JUMP JUMPDEST SWAP2 POP DUP2 SWAP1 POP SWAP2 SWAP1 POP JUMP JUMPDEST PUSH1 0x0 PUSH1 0x20 DUP3 ADD SWAP1 POP DUP2 DUP2 SUB PUSH1 0x0 DUP4 ADD MSTORE PUSH2 0x396 DUP2 PUSH2 0x2F0 JUMP JUMPDEST SWAP1 POP SWAP2 SWAP1 POP JUMP JUMPDEST PUSH1 0x0 PUSH1 0x20 DUP3 ADD SWAP1 POP DUP2 DUP2 SUB PUSH1 0x0 DUP4 ADD MSTORE PUSH2 0x3B6 DUP2 PUSH2 0x336 JUMP JUMPDEST SWAP1 POP SWAP2 SWAP1 POP JUMP JUMPDEST PUSH1 0x0 PUSH1 0x20 DUP3 ADD SWAP1 POP PUSH2 0x3D2 PUSH1 0x0 DUP4 ADD DUP5 PUSH2 0x359 JUMP JUMPDEST SWAP3 SWAP2 POP POP JUMP JUMPDEST PUSH1 0x0 DUP2 SWAP1 POP SWAP3 SWAP2 POP POP JUMP JUMPDEST PUSH1 0x0 DUP3 DUP3 MSTORE PUSH1 0x20 DUP3 ADD SWAP1 POP SWAP3 SWAP2 POP POP JUMP JUMPDEST PUSH1 0x0 PUSH2 0x3FF DUP3 PUSH2 0x406 JUMP JUMPDEST SWAP1 POP SWAP2 SWAP1 POP JUMP JUMPDEST PUSH1 0x0 PUSH20 0xFFFFFFFFFFFFFFFFFFFFFFFFFFFFFFFFFFFFFFFF DUP3 AND SWAP1 POP SWAP2 SWAP1 POP JUMP JUMPDEST PUSH1 0x0 DUP2 SWAP1 POP SWAP2 SWAP1 POP JUMP JUMPDEST PUSH1 0x0 DUP1 REVERT JUMPDEST PUSH32 0x4661696C656420746F2073656E64204574686572000000000000000000000000 PUSH1 0x0 DUP3 ADD MSTORE POP JUMP JUMPDEST POP JUMP JUMPDEST PUSH32 0x4661696C656420746F2073656E64206569746865720000000000000000000000 PUSH1 0x0 DUP3 ADD MSTORE POP JUMP JUMPDEST PUSH2 0x493 DUP2 PUSH2 0x3F4 JUMP JUMPDEST DUP2 EQ PUSH2 0x49E JUMPI PUSH1 0x0 DUP1 REVERT JUMPDEST POP JUMP INVALID LOG2 PUSH5 0x6970667358 0x22 SLT KECCAK256 ADD 0xB6 SWAP14 SLT 0xE1 PUSH8 0xBACC2E2E51AF9BFB PUSH12 0x6255B6973141BFB587097768 CALLDATASIZE 0xC5 SHR 0x2F 0xD8 PUSH5 0x736F6C6343 STOP ADDMOD SMOD STOP CALLER "
				},
				"gasEstimates": {
					"creation": {
						"codeDepositCost": "247800",
						"executionCost": "287",
						"totalCost": "248087"
					},
					"external": {
						"callNow(address)": "infinite",
						"sendNow(address)": "infinite",
						"transferNow(address)": "infinite"
					}
				},
				"methodIdentifiers": {
					"callNow(address)": "75a4624d",
					"sendNow(address)": "0b1fa23f",
					"transferNow(address)": "56a967b4"
				}
			},
			"storageLayout": {
				"storage": [],
				"types": null
			},
			"userdoc": {
				"kind": "user",
				"methods": {},
				"version": 1
			}
		}
	}
}