{
	"lecture/lec40.sol": {
		"lec40": {
			"abi": [
				{
					"inputs": [],
					"name": "a",
					"outputs": [
						{
							"internalType": "uint8",
							"name": "",
							"type": "uint8"
						}
					],
					"stateMutability": "view",
					"type": "function"
				},
				{
					"inputs": [
						{
							"internalType": "uint8",
							"name": "_num1",
							"type": "uint8"
						},
						{
							"internalType": "uint8",
							"name": "_num2",
							"type": "uint8"
						}
					],
					"name": "becomeOverflow",
					"outputs": [],
					"stateMutability": "nonpayable",
					"type": "function"
				}
			],
			"devdoc": {
				"kind": "dev",
				"methods": {},
				"version": 1
			},
			"evm": {
				"assembly": "    /* \"lecture/lec40.sol\":1454:1677  contract lec40{... */\n  mstore(0x40, 0x80)\n  callvalue\n  dup1\n  iszero\n  tag_1\n  jumpi\n  0x00\n  dup1\n  revert\ntag_1:\n  pop\n  dataSize(sub_0)\n  dup1\n  dataOffset(sub_0)\n  0x00\n  codecopy\n  0x00\n  return\nstop\n\nsub_0: assembly {\n        /* \"lecture/lec40.sol\":1454:1677  contract lec40{... */\n      mstore(0x40, 0x80)\n      callvalue\n      dup1\n      iszero\n      tag_1\n      jumpi\n      0x00\n      dup1\n      revert\n    tag_1:\n      pop\n      jumpi(tag_2, lt(calldatasize, 0x04))\n      shr(0xe0, calldataload(0x00))\n      dup1\n      0x0dbe671f\n      eq\n      tag_3\n      jumpi\n      dup1\n      0x5d2b6e03\n      eq\n      tag_4\n      jumpi\n    tag_2:\n      0x00\n      dup1\n      revert\n        /* \"lecture/lec40.sol\":1504:1518  uint8 public a */\n    tag_3:\n      tag_5\n      tag_6\n      jump\t// in\n    tag_5:\n      mload(0x40)\n      tag_7\n      swap2\n      swap1\n      tag_8\n      jump\t// in\n    tag_7:\n      mload(0x40)\n      dup1\n      swap2\n      sub\n      swap1\n      return\n        /* \"lecture/lec40.sol\":1530:1674  function becomeOverflow(uint8 _num1,uint8 _num2) public  {... */\n    tag_4:\n      tag_9\n      0x04\n      dup1\n      calldatasize\n      sub\n      dup2\n      add\n      swap1\n      tag_10\n      swap2\n      swap1\n      tag_11\n      jump\t// in\n    tag_10:\n      tag_12\n      jump\t// in\n    tag_9:\n      stop\n        /* \"lecture/lec40.sol\":1504:1518  uint8 public a */\n    tag_6:\n      0x00\n      dup1\n      sload\n      swap1\n      0x0100\n      exp\n      swap1\n      div\n      0xff\n      and\n      dup2\n      jump\t// out\n        /* \"lecture/lec40.sol\":1530:1674  function becomeOverflow(uint8 _num1,uint8 _num2) public  {... */\n    tag_12:\n        /* \"lecture/lec40.sol\":1633:1659  SafeMath.add(_num1 ,_num2) */\n      tag_14\n        /* \"lecture/lec40.sol\":1646:1651  _num1 */\n      dup3\n        /* \"lecture/lec40.sol\":1653:1658  _num2 */\n      dup3\n        /* \"lecture/lec40.sol\":1633:1645  SafeMath.add */\n      tag_15\n        /* \"lecture/lec40.sol\":1633:1659  SafeMath.add(_num1 ,_num2) */\n      jump\t// in\n    tag_14:\n        /* \"lecture/lec40.sol\":1629:1630  a */\n      0x00\n      dup1\n        /* \"lecture/lec40.sol\":1629:1659  a = SafeMath.add(_num1 ,_num2) */\n      0x0100\n      exp\n      dup2\n      sload\n      dup2\n      0xff\n      mul\n      not\n      and\n      swap1\n      dup4\n      0xff\n      and\n      mul\n      or\n      swap1\n      sstore\n      pop\n        /* \"lecture/lec40.sol\":1530:1674  function becomeOverflow(uint8 _num1,uint8 _num2) public  {... */\n      pop\n      pop\n      jump\t// out\n        /* \"lecture/lec40.sol\":1301:1450  function add(uint8 a, uint8 b) internal pure returns (uint8) {... */\n    tag_15:\n        /* \"lecture/lec40.sol\":1355:1360  uint8 */\n      0x00\n        /* \"lecture/lec40.sol\":1387:1388  a */\n      dup3\n        /* \"lecture/lec40.sol\":1380:1388  a+b >= a */\n      0xff\n      and\n        /* \"lecture/lec40.sol\":1382:1383  b */\n      dup3\n        /* \"lecture/lec40.sol\":1380:1381  a */\n      dup5\n        /* \"lecture/lec40.sol\":1380:1383  a+b */\n      tag_17\n      swap2\n      swap1\n      tag_18\n      jump\t// in\n    tag_17:\n        /* \"lecture/lec40.sol\":1380:1388  a+b >= a */\n      0xff\n      and\n      lt\n      iszero\n        /* \"lecture/lec40.sol\":1372:1421  require(a+b >= a , \"SafeMath: addition overflow\") */\n      tag_19\n      jumpi\n      mload(0x40)\n      0x08c379a000000000000000000000000000000000000000000000000000000000\n      dup2\n      mstore\n      0x04\n      add\n      tag_20\n      swap1\n      tag_21\n      jump\t// in\n    tag_20:\n      mload(0x40)\n      dup1\n      swap2\n      sub\n      swap1\n      revert\n    tag_19:\n        /* \"lecture/lec40.sol\":1442:1443  b */\n      dup2\n        /* \"lecture/lec40.sol\":1438:1439  a */\n      dup4\n        /* \"lecture/lec40.sol\":1438:1443  a + b */\n      tag_22\n      swap2\n      swap1\n      tag_18\n      jump\t// in\n    tag_22:\n        /* \"lecture/lec40.sol\":1431:1443  return a + b */\n      swap1\n      pop\n        /* \"lecture/lec40.sol\":1301:1450  function add(uint8 a, uint8 b) internal pure returns (uint8) {... */\n      swap3\n      swap2\n      pop\n      pop\n      jump\t// out\n        /* \"#utility.yul\":7:142   */\n    tag_24:\n        /* \"#utility.yul\":51:56   */\n      0x00\n        /* \"#utility.yul\":89:95   */\n      dup2\n        /* \"#utility.yul\":76:96   */\n      calldataload\n        /* \"#utility.yul\":67:96   */\n      swap1\n      pop\n        /* \"#utility.yul\":105:136   */\n      tag_26\n        /* \"#utility.yul\":130:135   */\n      dup2\n        /* \"#utility.yul\":105:136   */\n      tag_27\n      jump\t// in\n    tag_26:\n        /* \"#utility.yul\":7:142   */\n      swap3\n      swap2\n      pop\n      pop\n      jump\t// out\n        /* \"#utility.yul\":148:614   */\n    tag_11:\n        /* \"#utility.yul\":212:218   */\n      0x00\n        /* \"#utility.yul\":220:226   */\n      dup1\n        /* \"#utility.yul\":269:271   */\n      0x40\n        /* \"#utility.yul\":257:266   */\n      dup4\n        /* \"#utility.yul\":248:255   */\n      dup6\n        /* \"#utility.yul\":244:267   */\n      sub\n        /* \"#utility.yul\":240:272   */\n      slt\n        /* \"#utility.yul\":237:356   */\n      iszero\n      tag_29\n      jumpi\n        /* \"#utility.yul\":275:354   */\n      tag_30\n      tag_31\n      jump\t// in\n    tag_30:\n        /* \"#utility.yul\":237:356   */\n    tag_29:\n        /* \"#utility.yul\":395:396   */\n      0x00\n        /* \"#utility.yul\":420:471   */\n      tag_32\n        /* \"#utility.yul\":463:470   */\n      dup6\n        /* \"#utility.yul\":454:460   */\n      dup3\n        /* \"#utility.yul\":443:452   */\n      dup7\n        /* \"#utility.yul\":439:461   */\n      add\n        /* \"#utility.yul\":420:471   */\n      tag_24\n      jump\t// in\n    tag_32:\n        /* \"#utility.yul\":410:471   */\n      swap3\n      pop\n        /* \"#utility.yul\":366:481   */\n      pop\n        /* \"#utility.yul\":520:522   */\n      0x20\n        /* \"#utility.yul\":546:597   */\n      tag_33\n        /* \"#utility.yul\":589:596   */\n      dup6\n        /* \"#utility.yul\":580:586   */\n      dup3\n        /* \"#utility.yul\":569:578   */\n      dup7\n        /* \"#utility.yul\":565:587   */\n      add\n        /* \"#utility.yul\":546:597   */\n      tag_24\n      jump\t// in\n    tag_33:\n        /* \"#utility.yul\":536:597   */\n      swap2\n      pop\n        /* \"#utility.yul\":491:607   */\n      pop\n        /* \"#utility.yul\":148:614   */\n      swap3\n      pop\n      swap3\n      swap1\n      pop\n      jump\t// out\n        /* \"#utility.yul\":620:986   */\n    tag_34:\n        /* \"#utility.yul\":762:765   */\n      0x00\n        /* \"#utility.yul\":783:850   */\n      tag_36\n        /* \"#utility.yul\":847:849   */\n      0x1b\n        /* \"#utility.yul\":842:845   */\n      dup4\n        /* \"#utility.yul\":783:850   */\n      tag_37\n      jump\t// in\n    tag_36:\n        /* \"#utility.yul\":776:850   */\n      swap2\n      pop\n        /* \"#utility.yul\":859:952   */\n      tag_38\n        /* \"#utility.yul\":948:951   */\n      dup3\n        /* \"#utility.yul\":859:952   */\n      tag_39\n      jump\t// in\n    tag_38:\n        /* \"#utility.yul\":977:979   */\n      0x20\n        /* \"#utility.yul\":972:975   */\n      dup3\n        /* \"#utility.yul\":968:980   */\n      add\n        /* \"#utility.yul\":961:980   */\n      swap1\n      pop\n        /* \"#utility.yul\":620:986   */\n      swap2\n      swap1\n      pop\n      jump\t// out\n        /* \"#utility.yul\":992:1104   */\n    tag_40:\n        /* \"#utility.yul\":1075:1097   */\n      tag_42\n        /* \"#utility.yul\":1091:1096   */\n      dup2\n        /* \"#utility.yul\":1075:1097   */\n      tag_43\n      jump\t// in\n    tag_42:\n        /* \"#utility.yul\":1070:1073   */\n      dup3\n        /* \"#utility.yul\":1063:1098   */\n      mstore\n        /* \"#utility.yul\":992:1104   */\n      pop\n      pop\n      jump\t// out\n        /* \"#utility.yul\":1110:1529   */\n    tag_21:\n        /* \"#utility.yul\":1276:1280   */\n      0x00\n        /* \"#utility.yul\":1314:1316   */\n      0x20\n        /* \"#utility.yul\":1303:1312   */\n      dup3\n        /* \"#utility.yul\":1299:1317   */\n      add\n        /* \"#utility.yul\":1291:1317   */\n      swap1\n      pop\n        /* \"#utility.yul\":1363:1372   */\n      dup2\n        /* \"#utility.yul\":1357:1361   */\n      dup2\n        /* \"#utility.yul\":1353:1373   */\n      sub\n        /* \"#utility.yul\":1349:1350   */\n      0x00\n        /* \"#utility.yul\":1338:1347   */\n      dup4\n        /* \"#utility.yul\":1334:1351   */\n      add\n        /* \"#utility.yul\":1327:1374   */\n      mstore\n        /* \"#utility.yul\":1391:1522   */\n      tag_45\n        /* \"#utility.yul\":1517:1521   */\n      dup2\n        /* \"#utility.yul\":1391:1522   */\n      tag_34\n      jump\t// in\n    tag_45:\n        /* \"#utility.yul\":1383:1522   */\n      swap1\n      pop\n        /* \"#utility.yul\":1110:1529   */\n      swap2\n      swap1\n      pop\n      jump\t// out\n        /* \"#utility.yul\":1535:1749   */\n    tag_8:\n        /* \"#utility.yul\":1624:1628   */\n      0x00\n        /* \"#utility.yul\":1662:1664   */\n      0x20\n        /* \"#utility.yul\":1651:1660   */\n      dup3\n        /* \"#utility.yul\":1647:1665   */\n      add\n        /* \"#utility.yul\":1639:1665   */\n      swap1\n      pop\n        /* \"#utility.yul\":1675:1742   */\n      tag_47\n        /* \"#utility.yul\":1739:1740   */\n      0x00\n        /* \"#utility.yul\":1728:1737   */\n      dup4\n        /* \"#utility.yul\":1724:1741   */\n      add\n        /* \"#utility.yul\":1715:1721   */\n      dup5\n        /* \"#utility.yul\":1675:1742   */\n      tag_40\n      jump\t// in\n    tag_47:\n        /* \"#utility.yul\":1535:1749   */\n      swap3\n      swap2\n      pop\n      pop\n      jump\t// out\n        /* \"#utility.yul\":1836:2005   */\n    tag_37:\n        /* \"#utility.yul\":1920:1931   */\n      0x00\n        /* \"#utility.yul\":1954:1960   */\n      dup3\n        /* \"#utility.yul\":1949:1952   */\n      dup3\n        /* \"#utility.yul\":1942:1961   */\n      mstore\n        /* \"#utility.yul\":1994:1998   */\n      0x20\n        /* \"#utility.yul\":1989:1992   */\n      dup3\n        /* \"#utility.yul\":1985:1999   */\n      add\n        /* \"#utility.yul\":1970:1999   */\n      swap1\n      pop\n        /* \"#utility.yul\":1836:2005   */\n      swap3\n      swap2\n      pop\n      pop\n      jump\t// out\n        /* \"#utility.yul\":2011:2248   */\n    tag_18:\n        /* \"#utility.yul\":2049:2052   */\n      0x00\n        /* \"#utility.yul\":2068:2086   */\n      tag_52\n        /* \"#utility.yul\":2084:2085   */\n      dup3\n        /* \"#utility.yul\":2068:2086   */\n      tag_43\n      jump\t// in\n    tag_52:\n        /* \"#utility.yul\":2063:2086   */\n      swap2\n      pop\n        /* \"#utility.yul\":2100:2118   */\n      tag_53\n        /* \"#utility.yul\":2116:2117   */\n      dup4\n        /* \"#utility.yul\":2100:2118   */\n      tag_43\n      jump\t// in\n    tag_53:\n        /* \"#utility.yul\":2095:2118   */\n      swap3\n      pop\n        /* \"#utility.yul\":2190:2191   */\n      dup3\n        /* \"#utility.yul\":2184:2188   */\n      0xff\n        /* \"#utility.yul\":2180:2192   */\n      sub\n        /* \"#utility.yul\":2177:2178   */\n      dup3\n        /* \"#utility.yul\":2174:2193   */\n      gt\n        /* \"#utility.yul\":2171:2216   */\n      iszero\n      tag_54\n      jumpi\n        /* \"#utility.yul\":2196:2214   */\n      tag_55\n      tag_56\n      jump\t// in\n    tag_55:\n        /* \"#utility.yul\":2171:2216   */\n    tag_54:\n        /* \"#utility.yul\":2240:2241   */\n      dup3\n        /* \"#utility.yul\":2237:2238   */\n      dup3\n        /* \"#utility.yul\":2233:2242   */\n      add\n        /* \"#utility.yul\":2226:2242   */\n      swap1\n      pop\n        /* \"#utility.yul\":2011:2248   */\n      swap3\n      swap2\n      pop\n      pop\n      jump\t// out\n        /* \"#utility.yul\":2254:2340   */\n    tag_43:\n        /* \"#utility.yul\":2289:2296   */\n      0x00\n        /* \"#utility.yul\":2329:2333   */\n      0xff\n        /* \"#utility.yul\":2322:2327   */\n      dup3\n        /* \"#utility.yul\":2318:2334   */\n      and\n        /* \"#utility.yul\":2307:2334   */\n      swap1\n      pop\n        /* \"#utility.yul\":2254:2340   */\n      swap2\n      swap1\n      pop\n      jump\t// out\n        /* \"#utility.yul\":2346:2526   */\n    tag_56:\n        /* \"#utility.yul\":2394:2471   */\n      0x4e487b7100000000000000000000000000000000000000000000000000000000\n        /* \"#utility.yul\":2391:2392   */\n      0x00\n        /* \"#utility.yul\":2384:2472   */\n      mstore\n        /* \"#utility.yul\":2491:2495   */\n      0x11\n        /* \"#utility.yul\":2488:2489   */\n      0x04\n        /* \"#utility.yul\":2481:2496   */\n      mstore\n        /* \"#utility.yul\":2515:2519   */\n      0x24\n        /* \"#utility.yul\":2512:2513   */\n      0x00\n        /* \"#utility.yul\":2505:2520   */\n      revert\n        /* \"#utility.yul\":2655:2772   */\n    tag_31:\n        /* \"#utility.yul\":2764:2765   */\n      0x00\n        /* \"#utility.yul\":2761:2762   */\n      dup1\n        /* \"#utility.yul\":2754:2766   */\n      revert\n        /* \"#utility.yul\":2778:2955   */\n    tag_39:\n        /* \"#utility.yul\":2918:2947   */\n      0x536166654d6174683a206164646974696f6e206f766572666c6f770000000000\n        /* \"#utility.yul\":2914:2915   */\n      0x00\n        /* \"#utility.yul\":2906:2912   */\n      dup3\n        /* \"#utility.yul\":2902:2916   */\n      add\n        /* \"#utility.yul\":2895:2948   */\n      mstore\n        /* \"#utility.yul\":2778:2955   */\n      pop\n      jump\t// out\n        /* \"#utility.yul\":2961:3079   */\n    tag_27:\n        /* \"#utility.yul\":3032:3054   */\n      tag_64\n        /* \"#utility.yul\":3048:3053   */\n      dup2\n        /* \"#utility.yul\":3032:3054   */\n      tag_43\n      jump\t// in\n    tag_64:\n        /* \"#utility.yul\":3025:3030   */\n      dup2\n        /* \"#utility.yul\":3022:3055   */\n      eq\n        /* \"#utility.yul\":3012:3073   */\n      tag_65\n      jumpi\n        /* \"#utility.yul\":3069:3070   */\n      0x00\n        /* \"#utility.yul\":3066:3067   */\n      dup1\n        /* \"#utility.yul\":3059:3071   */\n      revert\n        /* \"#utility.yul\":3012:3073   */\n    tag_65:\n        /* \"#utility.yul\":2961:3079   */\n      pop\n      jump\t// out\n\n    auxdata: 0xa2646970667358221220661d9aa904a34e8464599e4f86a7b791f5d1fbe92c2f553260809f15c055cc8d64736f6c63430008070033\n}\n",
				"bytecode": {
					"linkReferences": {},
					"object": "608060405234801561001057600080fd5b506102d8806100206000396000f3fe608060405234801561001057600080fd5b50600436106100365760003560e01c80630dbe671f1461003b5780635d2b6e0314610059575b600080fd5b610043610075565b60405161005091906101be565b60405180910390f35b610073600480360381019061006e919061012c565b610086565b005b60008054906101000a900460ff1681565b61009082826100ad565b6000806101000a81548160ff021916908360ff1602179055505050565b60008260ff1682846100bf91906101ea565b60ff161015610103576040517f08c379a00000000000000000000000000000000000000000000000000000000081526004016100fa9061019e565b60405180910390fd5b818361010f91906101ea565b905092915050565b6000813590506101268161028b565b92915050565b600080604083850312156101435761014261025d565b5b600061015185828601610117565b925050602061016285828601610117565b9150509250929050565b6000610179601b836101d9565b915061018482610262565b602082019050919050565b61019881610221565b82525050565b600060208201905081810360008301526101b78161016c565b9050919050565b60006020820190506101d3600083018461018f565b92915050565b600082825260208201905092915050565b60006101f582610221565b915061020083610221565b92508260ff038211156102165761021561022e565b5b828201905092915050565b600060ff82169050919050565b7f4e487b7100000000000000000000000000000000000000000000000000000000600052601160045260246000fd5b600080fd5b7f536166654d6174683a206164646974696f6e206f766572666c6f770000000000600082015250565b61029481610221565b811461029f57600080fd5b5056fea2646970667358221220661d9aa904a34e8464599e4f86a7b791f5d1fbe92c2f553260809f15c055cc8d64736f6c63430008070033",
					"opcodes": "PUSH1 0x80 PUSH1 0x40 MSTORE CALLVALUE DUP1 ISZERO PUSH2 0x10 JUMPI PUSH1 0x0 DUP1 REVERT JUMPDEST POP PUSH2 0x2D8 DUP1 PUSH2 0x20 PUSH1 0x0 CODECOPY PUSH1 0x0 RETURN INVALID PUSH1 0x80 PUSH1 0x40 MSTORE CALLVALUE DUP1 ISZERO PUSH2 0x10 JUMPI PUSH1 0x0 DUP1 REVERT JUMPDEST POP PUSH1 0x4 CALLDATASIZE LT PUSH2 0x36 JUMPI PUSH1 0x0 CALLDATALOAD PUSH1 0xE0 SHR DUP1 PUSH4 0xDBE671F EQ PUSH2 0x3B JUMPI DUP1 PUSH4 0x5D2B6E03 EQ PUSH2 0x59 JUMPI JUMPDEST PUSH1 0x0 DUP1 REVERT JUMPDEST PUSH2 0x43 PUSH2 0x75 JUMP JUMPDEST PUSH1 0x40 MLOAD PUSH2 0x50 SWAP2 SWAP1 PUSH2 0x1BE JUMP JUMPDEST PUSH1 0x40 MLOAD DUP1 SWAP2 SUB SWAP1 RETURN JUMPDEST PUSH2 0x73 PUSH1 0x4 DUP1 CALLDATASIZE SUB DUP2 ADD SWAP1 PUSH2 0x6E SWAP2 SWAP1 PUSH2 0x12C JUMP JUMPDEST PUSH2 0x86 JUMP JUMPDEST STOP JUMPDEST PUSH1 0x0 DUP1 SLOAD SWAP1 PUSH2 0x100 EXP SWAP1 DIV PUSH1 0xFF AND DUP2 JUMP JUMPDEST PUSH2 0x90 DUP3 DUP3 PUSH2 0xAD JUMP JUMPDEST PUSH1 0x0 DUP1 PUSH2 0x100 EXP DUP2 SLOAD DUP2 PUSH1 0xFF MUL NOT AND SWAP1 DUP4 PUSH1 0xFF AND MUL OR SWAP1 SSTORE POP POP POP JUMP JUMPDEST PUSH1 0x0 DUP3 PUSH1 0xFF AND DUP3 DUP5 PUSH2 0xBF SWAP2 SWAP1 PUSH2 0x1EA JUMP JUMPDEST PUSH1 0xFF AND LT ISZERO PUSH2 0x103 JUMPI PUSH1 0x40 MLOAD PUSH32 0x8C379A000000000000000000000000000000000000000000000000000000000 DUP2 MSTORE PUSH1 0x4 ADD PUSH2 0xFA SWAP1 PUSH2 0x19E JUMP JUMPDEST PUSH1 0x40 MLOAD DUP1 SWAP2 SUB SWAP1 REVERT JUMPDEST DUP2 DUP4 PUSH2 0x10F SWAP2 SWAP1 PUSH2 0x1EA JUMP JUMPDEST SWAP1 POP SWAP3 SWAP2 POP POP JUMP JUMPDEST PUSH1 0x0 DUP2 CALLDATALOAD SWAP1 POP PUSH2 0x126 DUP2 PUSH2 0x28B JUMP JUMPDEST SWAP3 SWAP2 POP POP JUMP JUMPDEST PUSH1 0x0 DUP1 PUSH1 0x40 DUP4 DUP6 SUB SLT ISZERO PUSH2 0x143 JUMPI PUSH2 0x142 PUSH2 0x25D JUMP JUMPDEST JUMPDEST PUSH1 0x0 PUSH2 0x151 DUP6 DUP3 DUP7 ADD PUSH2 0x117 JUMP JUMPDEST SWAP3 POP POP PUSH1 0x20 PUSH2 0x162 DUP6 DUP3 DUP7 ADD PUSH2 0x117 JUMP JUMPDEST SWAP2 POP POP SWAP3 POP SWAP3 SWAP1 POP JUMP JUMPDEST PUSH1 0x0 PUSH2 0x179 PUSH1 0x1B DUP4 PUSH2 0x1D9 JUMP JUMPDEST SWAP2 POP PUSH2 0x184 DUP3 PUSH2 0x262 JUMP JUMPDEST PUSH1 0x20 DUP3 ADD SWAP1 POP SWAP2 SWAP1 POP JUMP JUMPDEST PUSH2 0x198 DUP2 PUSH2 0x221 JUMP JUMPDEST DUP3 MSTORE POP POP JUMP JUMPDEST PUSH1 0x0 PUSH1 0x20 DUP3 ADD SWAP1 POP DUP2 DUP2 SUB PUSH1 0x0 DUP4 ADD MSTORE PUSH2 0x1B7 DUP2 PUSH2 0x16C JUMP JUMPDEST SWAP1 POP SWAP2 SWAP1 POP JUMP JUMPDEST PUSH1 0x0 PUSH1 0x20 DUP3 ADD SWAP1 POP PUSH2 0x1D3 PUSH1 0x0 DUP4 ADD DUP5 PUSH2 0x18F JUMP JUMPDEST SWAP3 SWAP2 POP POP JUMP JUMPDEST PUSH1 0x0 DUP3 DUP3 MSTORE PUSH1 0x20 DUP3 ADD SWAP1 POP SWAP3 SWAP2 POP POP JUMP JUMPDEST PUSH1 0x0 PUSH2 0x1F5 DUP3 PUSH2 0x221 JUMP JUMPDEST SWAP2 POP PUSH2 0x200 DUP4 PUSH2 0x221 JUMP JUMPDEST SWAP3 POP DUP3 PUSH1 0xFF SUB DUP3 GT ISZERO PUSH2 0x216 JUMPI PUSH2 0x215 PUSH2 0x22E JUMP JUMPDEST JUMPDEST DUP3 DUP3 ADD SWAP1 POP SWAP3 SWAP2 POP POP JUMP JUMPDEST PUSH1 0x0 PUSH1 0xFF DUP3 AND SWAP1 POP SWAP2 SWAP1 POP JUMP JUMPDEST PUSH32 0x4E487B7100000000000000000000000000000000000000000000000000000000 PUSH1 0x0 MSTORE PUSH1 0x11 PUSH1 0x4 MSTORE PUSH1 0x24 PUSH1 0x0 REVERT JUMPDEST PUSH1 0x0 DUP1 REVERT JUMPDEST PUSH32 0x536166654D6174683A206164646974696F6E206F766572666C6F770000000000 PUSH1 0x0 DUP3 ADD MSTORE POP JUMP JUMPDEST PUSH2 0x294 DUP2 PUSH2 0x221 JUMP JUMPDEST DUP2 EQ PUSH2 0x29F JUMPI PUSH1 0x0 DUP1 REVERT JUMPDEST POP JUMP INVALID LOG2 PUSH5 0x6970667358 0x22 SLT KECCAK256 PUSH7 0x1D9AA904A34E84 PUSH5 0x599E4F86A7 0xB7 SWAP2 CREATE2 0xD1 0xFB 0xE9 0x2C 0x2F SSTORE ORIGIN PUSH1 0x80 SWAP16 ISZERO 0xC0 SSTORE 0xCC DUP14 PUSH5 0x736F6C6343 STOP ADDMOD SMOD STOP CALLER "
				},
				"gasEstimates": {
					"creation": {
						"codeDepositCost": "145600",
						"executionCost": "190",
						"totalCost": "145790"
					},
					"external": {
						"a()": "2446",
						"becomeOverflow(uint8,uint8)": "infinite"
					}
				},
				"methodIdentifiers": {
					"a()": "0dbe671f",
					"becomeOverflow(uint8,uint8)": "5d2b6e03"
				}
			},
			"storageLayout": {
				"storage": [
					{
						"astId": 30,
						"contract": "lecture/lec40.sol:lec40",
						"label": "a",
						"offset": 0,
						"slot": "0",
						"type": "t_uint8"
					}
				],
				"types": {
					"t_uint8": {
						"encoding": "inplace",
						"label": "uint8",
						"numberOfBytes": "1"
					}
				}
			},
			"userdoc": {
				"kind": "user",
				"methods": {},
				"version": 1
			}
		}
	}
}