{
	"lecture/lec42.sol": {
		"MoneyBox": {
			"abi": [
				{
					"inputs": [],
					"stateMutability": "nonpayable",
					"type": "constructor"
				},
				{
					"anonymous": false,
					"inputs": [
						{
							"indexed": true,
							"internalType": "address",
							"name": "sender",
							"type": "address"
						},
						{
							"indexed": false,
							"internalType": "uint256",
							"name": "payment",
							"type": "uint256"
						}
					],
					"name": "WhoPaid",
					"type": "event"
				},
				{
					"inputs": [],
					"name": "checkRound",
					"outputs": [
						{
							"internalType": "uint256",
							"name": "",
							"type": "uint256"
						}
					],
					"stateMutability": "view",
					"type": "function"
				},
				{
					"inputs": [],
					"name": "checkValue",
					"outputs": [
						{
							"internalType": "uint256",
							"name": "",
							"type": "uint256"
						}
					],
					"stateMutability": "view",
					"type": "function"
				},
				{
					"stateMutability": "payable",
					"type": "receive"
				}
			],
			"devdoc": {
				"kind": "dev",
				"methods": {},
				"version": 1
			},
			"evm": {
				"assembly": "    /* \"lecture/lec42.sol\":298:1547  contract MoneyBox {... */\n  mstore(0x40, 0x80)\n    /* \"lecture/lec42.sol\":667:668  1 */\n  0x01\n    /* \"lecture/lec42.sol\":651:668  uint256 round = 1 */\n  0x02\n  sstore\n    /* \"lecture/lec42.sol\":679:727  constructor(){... */\n  callvalue\n  dup1\n  iszero\n  tag_1\n  jumpi\n  0x00\n  dup1\n  revert\ntag_1:\n  pop\n    /* \"lecture/lec42.sol\":710:720  msg.sender */\n  caller\n    /* \"lecture/lec42.sol\":702:707  owner */\n  0x00\n  dup1\n    /* \"lecture/lec42.sol\":702:720  owner = msg.sender */\n  0x0100\n  exp\n  dup2\n  sload\n  dup2\n  0xffffffffffffffffffffffffffffffffffffffff\n  mul\n  not\n  and\n  swap1\n  dup4\n  0xffffffffffffffffffffffffffffffffffffffff\n  and\n  mul\n  or\n  swap1\n  sstore\n  pop\n    /* \"lecture/lec42.sol\":298:1547  contract MoneyBox {... */\n  dataSize(sub_0)\n  dup1\n  dataOffset(sub_0)\n  0x00\n  codecopy\n  0x00\n  return\nstop\n\nsub_0: assembly {\n        /* \"lecture/lec42.sol\":298:1547  contract MoneyBox {... */\n      mstore(0x40, 0x80)\n      jumpi(tag_1, lt(calldatasize, 0x04))\n      shr(0xe0, calldataload(0x00))\n      dup1\n      0x5c681920\n      eq\n      tag_3\n      jumpi\n      dup1\n      0x69bbe5c7\n      eq\n      tag_4\n      jumpi\n      jump(tag_2)\n    tag_1:\n      jumpi(tag_2, calldatasize)\n        /* \"lecture/lec42.sol\":794:801  1 ether */\n      0x0de0b6b3a7640000\n        /* \"lecture/lec42.sol\":781:790  msg.value */\n      callvalue\n        /* \"lecture/lec42.sol\":781:801  msg.value == 1 ether */\n      eq\n        /* \"lecture/lec42.sol\":773:822  require(msg.value == 1 ether, \"Must be 1 ether.\") */\n      tag_7\n      jumpi\n      mload(0x40)\n      0x08c379a000000000000000000000000000000000000000000000000000000000\n      dup2\n      mstore\n      0x04\n      add\n      tag_8\n      swap1\n      tag_9\n      jump\t// in\n    tag_8:\n      mload(0x40)\n      dup1\n      swap2\n      sub\n      swap1\n      revert\n    tag_7:\n        /* \"lecture/lec42.sol\":877:882  false */\n      0x00\n        /* \"lecture/lec42.sol\":840:882  paidMemberList[round][msg.sender] == false */\n      iszero\n      iszero\n        /* \"lecture/lec42.sol\":840:854  paidMemberList */\n      0x01\n        /* \"lecture/lec42.sol\":840:861  paidMemberList[round] */\n      0x00\n        /* \"lecture/lec42.sol\":855:860  round */\n      sload(0x02)\n        /* \"lecture/lec42.sol\":840:861  paidMemberList[round] */\n      dup2\n      mstore\n      0x20\n      add\n      swap1\n      dup2\n      mstore\n      0x20\n      add\n      0x00\n      keccak256\n        /* \"lecture/lec42.sol\":840:873  paidMemberList[round][msg.sender] */\n      0x00\n        /* \"lecture/lec42.sol\":862:872  msg.sender */\n      caller\n        /* \"lecture/lec42.sol\":840:873  paidMemberList[round][msg.sender] */\n      0xffffffffffffffffffffffffffffffffffffffff\n      and\n      0xffffffffffffffffffffffffffffffffffffffff\n      and\n      dup2\n      mstore\n      0x20\n      add\n      swap1\n      dup2\n      mstore\n      0x20\n      add\n      0x00\n      keccak256\n      0x00\n      swap1\n      sload\n      swap1\n      0x0100\n      exp\n      swap1\n      div\n      0xff\n      and\n        /* \"lecture/lec42.sol\":840:882  paidMemberList[round][msg.sender] == false */\n      iszero\n      iszero\n      eq\n        /* \"lecture/lec42.sol\":832:921  require(paidMemberList[round][msg.sender] == false, \"Must be a new player in each game.\") */\n      tag_10\n      jumpi\n      mload(0x40)\n      0x08c379a000000000000000000000000000000000000000000000000000000000\n      dup2\n      mstore\n      0x04\n      add\n      tag_11\n      swap1\n      tag_12\n      jump\t// in\n    tag_11:\n      mload(0x40)\n      dup1\n      swap2\n      sub\n      swap1\n      revert\n    tag_10:\n        /* \"lecture/lec42.sol\":976:980  true */\n      0x01\n        /* \"lecture/lec42.sol\":940:954  paidMemberList */\n      dup1\n        /* \"lecture/lec42.sol\":940:961  paidMemberList[round] */\n      0x00\n        /* \"lecture/lec42.sol\":955:960  round */\n      sload(0x02)\n        /* \"lecture/lec42.sol\":940:961  paidMemberList[round] */\n      dup2\n      mstore\n      0x20\n      add\n      swap1\n      dup2\n      mstore\n      0x20\n      add\n      0x00\n      keccak256\n        /* \"lecture/lec42.sol\":940:973  paidMemberList[round][msg.sender] */\n      0x00\n        /* \"lecture/lec42.sol\":962:972  msg.sender */\n      caller\n        /* \"lecture/lec42.sol\":940:973  paidMemberList[round][msg.sender] */\n      0xffffffffffffffffffffffffffffffffffffffff\n      and\n      0xffffffffffffffffffffffffffffffffffffffff\n      and\n      dup2\n      mstore\n      0x20\n      add\n      swap1\n      dup2\n      mstore\n      0x20\n      add\n      0x00\n      keccak256\n      0x00\n        /* \"lecture/lec42.sol\":940:980  paidMemberList[round][msg.sender] = true */\n      0x0100\n      exp\n      dup2\n      sload\n      dup2\n      0xff\n      mul\n      not\n      and\n      swap1\n      dup4\n      iszero\n      iszero\n      mul\n      or\n      swap1\n      sstore\n      pop\n        /* \"lecture/lec42.sol\":1012:1022  msg.sender */\n      caller\n        /* \"lecture/lec42.sol\":1004:1033  WhoPaid(msg.sender,msg.value) */\n      0xffffffffffffffffffffffffffffffffffffffff\n      and\n      0x124914a3e6966a060a8132f2c609203a76d9b0cc2b5ba9e626df64525de4765c\n        /* \"lecture/lec42.sol\":1023:1032  msg.value */\n      callvalue\n        /* \"lecture/lec42.sol\":1004:1033  WhoPaid(msg.sender,msg.value) */\n      mload(0x40)\n      tag_13\n      swap2\n      swap1\n      tag_14\n      jump\t// in\n    tag_13:\n      mload(0x40)\n      dup1\n      swap2\n      sub\n      swap1\n      log2\n        /* \"lecture/lec42.sol\":1080:1087  3 ether */\n      0x29a2241af62c0000\n        /* \"lecture/lec42.sol\":1055:1076  address(this).balance */\n      selfbalance\n        /* \"lecture/lec42.sol\":1055:1087  address(this).balance == 3 ether */\n      eq\n        /* \"lecture/lec42.sol\":1052:1248  if(address(this).balance == 3 ether){... */\n      iszero\n      tag_15\n      jumpi\n        /* \"lecture/lec42.sol\":1103:1112  bool sent */\n      0x00\n        /* \"lecture/lec42.sol\":1124:1134  msg.sender */\n      caller\n        /* \"lecture/lec42.sol\":1116:1140  payable(msg.sender).call */\n      0xffffffffffffffffffffffffffffffffffffffff\n      and\n        /* \"lecture/lec42.sol\":1147:1168  address(this).balance */\n      selfbalance\n        /* \"lecture/lec42.sol\":1116:1173  payable(msg.sender).call{value:address(this).balance}(\"\") */\n      mload(0x40)\n      tag_16\n      swap1\n      tag_17\n      jump\t// in\n    tag_16:\n      0x00\n      mload(0x40)\n      dup1\n      dup4\n      sub\n      dup2\n      dup6\n      dup8\n      gas\n      call\n      swap3\n      pop\n      pop\n      pop\n      returndatasize\n      dup1\n      0x00\n      dup2\n      eq\n      tag_20\n      jumpi\n      mload(0x40)\n      swap2\n      pop\n      and(add(returndatasize, 0x3f), not(0x1f))\n      dup3\n      add\n      0x40\n      mstore\n      returndatasize\n      dup3\n      mstore\n      returndatasize\n      0x00\n      0x20\n      dup5\n      add\n      returndatacopy\n      jump(tag_19)\n    tag_20:\n      0x60\n      swap2\n      pop\n    tag_19:\n      pop\n        /* \"lecture/lec42.sol\":1102:1173  (bool sent,)= payable(msg.sender).call{value:address(this).balance}(\"\") */\n      pop\n      swap1\n      pop\n        /* \"lecture/lec42.sol\":1195:1199  sent */\n      dup1\n        /* \"lecture/lec42.sol\":1187:1216  require(sent,\"Failed to pay\") */\n      tag_21\n      jumpi\n      mload(0x40)\n      0x08c379a000000000000000000000000000000000000000000000000000000000\n      dup2\n      mstore\n      0x04\n      add\n      tag_22\n      swap1\n      tag_23\n      jump\t// in\n    tag_22:\n      mload(0x40)\n      dup1\n      swap2\n      sub\n      swap1\n      revert\n    tag_21:\n        /* \"lecture/lec42.sol\":1230:1235  round */\n      0x02\n      0x00\n        /* \"lecture/lec42.sol\":1230:1237  round++ */\n      dup2\n      sload\n      dup1\n      swap3\n      swap2\n      swap1\n      tag_24\n      swap1\n      tag_25\n      jump\t// in\n    tag_24:\n      swap2\n      swap1\n      pop\n      sstore\n      pop\n        /* \"lecture/lec42.sol\":1088:1248  {... */\n      pop\n        /* \"lecture/lec42.sol\":1052:1248  if(address(this).balance == 3 ether){... */\n    tag_15:\n        /* \"lecture/lec42.sol\":298:1547  contract MoneyBox {... */\n      stop\n    tag_2:\n      0x00\n      dup1\n      revert\n        /* \"lecture/lec42.sol\":1372:1538  function checkValue() public view  returns(uint256){... */\n    tag_3:\n      callvalue\n      dup1\n      iszero\n      tag_26\n      jumpi\n      0x00\n      dup1\n      revert\n    tag_26:\n      pop\n      tag_27\n      tag_28\n      jump\t// in\n    tag_27:\n      mload(0x40)\n      tag_29\n      swap2\n      swap1\n      tag_14\n      jump\t// in\n    tag_29:\n      mload(0x40)\n      dup1\n      swap2\n      sub\n      swap1\n      return\n        /* \"lecture/lec42.sol\":1283:1362  function checkRound() public view returns(uint256){... */\n    tag_4:\n      callvalue\n      dup1\n      iszero\n      tag_30\n      jumpi\n      0x00\n      dup1\n      revert\n    tag_30:\n      pop\n      tag_31\n      tag_32\n      jump\t// in\n    tag_31:\n      mload(0x40)\n      tag_33\n      swap2\n      swap1\n      tag_14\n      jump\t// in\n    tag_33:\n      mload(0x40)\n      dup1\n      swap2\n      sub\n      swap1\n      return\n        /* \"lecture/lec42.sol\":1372:1538  function checkValue() public view  returns(uint256){... */\n    tag_28:\n        /* \"lecture/lec42.sol\":1415:1422  uint256 */\n      0x00\n        /* \"lecture/lec42.sol\":1448:1458  msg.sender */\n      caller\n        /* \"lecture/lec42.sol\":1441:1458  owner==msg.sender */\n      0xffffffffffffffffffffffffffffffffffffffff\n      and\n        /* \"lecture/lec42.sol\":1441:1446  owner */\n      0x00\n      dup1\n      sload\n      swap1\n      0x0100\n      exp\n      swap1\n      div\n      0xffffffffffffffffffffffffffffffffffffffff\n      and\n        /* \"lecture/lec42.sol\":1441:1458  owner==msg.sender */\n      0xffffffffffffffffffffffffffffffffffffffff\n      and\n      eq\n        /* \"lecture/lec42.sol\":1433:1493  require(owner==msg.sender, \"Only Onwer can check the value\") */\n      tag_35\n      jumpi\n      mload(0x40)\n      0x08c379a000000000000000000000000000000000000000000000000000000000\n      dup2\n      mstore\n      0x04\n      add\n      tag_36\n      swap1\n      tag_37\n      jump\t// in\n    tag_36:\n      mload(0x40)\n      dup1\n      swap2\n      sub\n      swap1\n      revert\n    tag_35:\n        /* \"lecture/lec42.sol\":1510:1531  address(this).balance */\n      selfbalance\n        /* \"lecture/lec42.sol\":1503:1531  return address(this).balance */\n      swap1\n      pop\n        /* \"lecture/lec42.sol\":1372:1538  function checkValue() public view  returns(uint256){... */\n      swap1\n      jump\t// out\n        /* \"lecture/lec42.sol\":1283:1362  function checkRound() public view returns(uint256){... */\n    tag_32:\n        /* \"lecture/lec42.sol\":1325:1332  uint256 */\n      0x00\n        /* \"lecture/lec42.sol\":1350:1355  round */\n      sload(0x02)\n        /* \"lecture/lec42.sol\":1343:1355  return round */\n      swap1\n      pop\n        /* \"lecture/lec42.sol\":1283:1362  function checkRound() public view returns(uint256){... */\n      swap1\n      jump\t// out\n        /* \"#utility.yul\":7:373   */\n    tag_40:\n        /* \"#utility.yul\":149:152   */\n      0x00\n        /* \"#utility.yul\":170:237   */\n      tag_42\n        /* \"#utility.yul\":234:236   */\n      0x10\n        /* \"#utility.yul\":229:232   */\n      dup4\n        /* \"#utility.yul\":170:237   */\n      tag_43\n      jump\t// in\n    tag_42:\n        /* \"#utility.yul\":163:237   */\n      swap2\n      pop\n        /* \"#utility.yul\":246:339   */\n      tag_44\n        /* \"#utility.yul\":335:338   */\n      dup3\n        /* \"#utility.yul\":246:339   */\n      tag_45\n      jump\t// in\n    tag_44:\n        /* \"#utility.yul\":364:366   */\n      0x20\n        /* \"#utility.yul\":359:362   */\n      dup3\n        /* \"#utility.yul\":355:367   */\n      add\n        /* \"#utility.yul\":348:367   */\n      swap1\n      pop\n        /* \"#utility.yul\":7:373   */\n      swap2\n      swap1\n      pop\n      jump\t// out\n        /* \"#utility.yul\":379:745   */\n    tag_46:\n        /* \"#utility.yul\":521:524   */\n      0x00\n        /* \"#utility.yul\":542:609   */\n      tag_48\n        /* \"#utility.yul\":606:608   */\n      0x1e\n        /* \"#utility.yul\":601:604   */\n      dup4\n        /* \"#utility.yul\":542:609   */\n      tag_43\n      jump\t// in\n    tag_48:\n        /* \"#utility.yul\":535:609   */\n      swap2\n      pop\n        /* \"#utility.yul\":618:711   */\n      tag_49\n        /* \"#utility.yul\":707:710   */\n      dup3\n        /* \"#utility.yul\":618:711   */\n      tag_50\n      jump\t// in\n    tag_49:\n        /* \"#utility.yul\":736:738   */\n      0x20\n        /* \"#utility.yul\":731:734   */\n      dup3\n        /* \"#utility.yul\":727:739   */\n      add\n        /* \"#utility.yul\":720:739   */\n      swap1\n      pop\n        /* \"#utility.yul\":379:745   */\n      swap2\n      swap1\n      pop\n      jump\t// out\n        /* \"#utility.yul\":751:1117   */\n    tag_51:\n        /* \"#utility.yul\":893:896   */\n      0x00\n        /* \"#utility.yul\":914:981   */\n      tag_53\n        /* \"#utility.yul\":978:980   */\n      0x0d\n        /* \"#utility.yul\":973:976   */\n      dup4\n        /* \"#utility.yul\":914:981   */\n      tag_43\n      jump\t// in\n    tag_53:\n        /* \"#utility.yul\":907:981   */\n      swap2\n      pop\n        /* \"#utility.yul\":990:1083   */\n      tag_54\n        /* \"#utility.yul\":1079:1082   */\n      dup3\n        /* \"#utility.yul\":990:1083   */\n      tag_55\n      jump\t// in\n    tag_54:\n        /* \"#utility.yul\":1108:1110   */\n      0x20\n        /* \"#utility.yul\":1103:1106   */\n      dup3\n        /* \"#utility.yul\":1099:1111   */\n      add\n        /* \"#utility.yul\":1092:1111   */\n      swap1\n      pop\n        /* \"#utility.yul\":751:1117   */\n      swap2\n      swap1\n      pop\n      jump\t// out\n        /* \"#utility.yul\":1123:1521   */\n    tag_56:\n        /* \"#utility.yul\":1282:1285   */\n      0x00\n        /* \"#utility.yul\":1303:1386   */\n      tag_58\n        /* \"#utility.yul\":1384:1385   */\n      0x00\n        /* \"#utility.yul\":1379:1382   */\n      dup4\n        /* \"#utility.yul\":1303:1386   */\n      tag_59\n      jump\t// in\n    tag_58:\n        /* \"#utility.yul\":1296:1386   */\n      swap2\n      pop\n        /* \"#utility.yul\":1395:1488   */\n      tag_60\n        /* \"#utility.yul\":1484:1487   */\n      dup3\n        /* \"#utility.yul\":1395:1488   */\n      tag_61\n      jump\t// in\n    tag_60:\n        /* \"#utility.yul\":1513:1514   */\n      0x00\n        /* \"#utility.yul\":1508:1511   */\n      dup3\n        /* \"#utility.yul\":1504:1515   */\n      add\n        /* \"#utility.yul\":1497:1515   */\n      swap1\n      pop\n        /* \"#utility.yul\":1123:1521   */\n      swap2\n      swap1\n      pop\n      jump\t// out\n        /* \"#utility.yul\":1527:1893   */\n    tag_62:\n        /* \"#utility.yul\":1669:1672   */\n      0x00\n        /* \"#utility.yul\":1690:1757   */\n      tag_64\n        /* \"#utility.yul\":1754:1756   */\n      0x22\n        /* \"#utility.yul\":1749:1752   */\n      dup4\n        /* \"#utility.yul\":1690:1757   */\n      tag_43\n      jump\t// in\n    tag_64:\n        /* \"#utility.yul\":1683:1757   */\n      swap2\n      pop\n        /* \"#utility.yul\":1766:1859   */\n      tag_65\n        /* \"#utility.yul\":1855:1858   */\n      dup3\n        /* \"#utility.yul\":1766:1859   */\n      tag_66\n      jump\t// in\n    tag_65:\n        /* \"#utility.yul\":1884:1886   */\n      0x40\n        /* \"#utility.yul\":1879:1882   */\n      dup3\n        /* \"#utility.yul\":1875:1887   */\n      add\n        /* \"#utility.yul\":1868:1887   */\n      swap1\n      pop\n        /* \"#utility.yul\":1527:1893   */\n      swap2\n      swap1\n      pop\n      jump\t// out\n        /* \"#utility.yul\":1899:2017   */\n    tag_67:\n        /* \"#utility.yul\":1986:2010   */\n      tag_69\n        /* \"#utility.yul\":2004:2009   */\n      dup2\n        /* \"#utility.yul\":1986:2010   */\n      tag_70\n      jump\t// in\n    tag_69:\n        /* \"#utility.yul\":1981:1984   */\n      dup3\n        /* \"#utility.yul\":1974:2011   */\n      mstore\n        /* \"#utility.yul\":1899:2017   */\n      pop\n      pop\n      jump\t// out\n        /* \"#utility.yul\":2023:2402   */\n    tag_17:\n        /* \"#utility.yul\":2207:2210   */\n      0x00\n        /* \"#utility.yul\":2229:2376   */\n      tag_72\n        /* \"#utility.yul\":2372:2375   */\n      dup3\n        /* \"#utility.yul\":2229:2376   */\n      tag_56\n      jump\t// in\n    tag_72:\n        /* \"#utility.yul\":2222:2376   */\n      swap2\n      pop\n        /* \"#utility.yul\":2393:2396   */\n      dup2\n        /* \"#utility.yul\":2386:2396   */\n      swap1\n      pop\n        /* \"#utility.yul\":2023:2402   */\n      swap2\n      swap1\n      pop\n      jump\t// out\n        /* \"#utility.yul\":2408:2827   */\n    tag_9:\n        /* \"#utility.yul\":2574:2578   */\n      0x00\n        /* \"#utility.yul\":2612:2614   */\n      0x20\n        /* \"#utility.yul\":2601:2610   */\n      dup3\n        /* \"#utility.yul\":2597:2615   */\n      add\n        /* \"#utility.yul\":2589:2615   */\n      swap1\n      pop\n        /* \"#utility.yul\":2661:2670   */\n      dup2\n        /* \"#utility.yul\":2655:2659   */\n      dup2\n        /* \"#utility.yul\":2651:2671   */\n      sub\n        /* \"#utility.yul\":2647:2648   */\n      0x00\n        /* \"#utility.yul\":2636:2645   */\n      dup4\n        /* \"#utility.yul\":2632:2649   */\n      add\n        /* \"#utility.yul\":2625:2672   */\n      mstore\n        /* \"#utility.yul\":2689:2820   */\n      tag_74\n        /* \"#utility.yul\":2815:2819   */\n      dup2\n        /* \"#utility.yul\":2689:2820   */\n      tag_40\n      jump\t// in\n    tag_74:\n        /* \"#utility.yul\":2681:2820   */\n      swap1\n      pop\n        /* \"#utility.yul\":2408:2827   */\n      swap2\n      swap1\n      pop\n      jump\t// out\n        /* \"#utility.yul\":2833:3252   */\n    tag_37:\n        /* \"#utility.yul\":2999:3003   */\n      0x00\n        /* \"#utility.yul\":3037:3039   */\n      0x20\n        /* \"#utility.yul\":3026:3035   */\n      dup3\n        /* \"#utility.yul\":3022:3040   */\n      add\n        /* \"#utility.yul\":3014:3040   */\n      swap1\n      pop\n        /* \"#utility.yul\":3086:3095   */\n      dup2\n        /* \"#utility.yul\":3080:3084   */\n      dup2\n        /* \"#utility.yul\":3076:3096   */\n      sub\n        /* \"#utility.yul\":3072:3073   */\n      0x00\n        /* \"#utility.yul\":3061:3070   */\n      dup4\n        /* \"#utility.yul\":3057:3074   */\n      add\n        /* \"#utility.yul\":3050:3097   */\n      mstore\n        /* \"#utility.yul\":3114:3245   */\n      tag_76\n        /* \"#utility.yul\":3240:3244   */\n      dup2\n        /* \"#utility.yul\":3114:3245   */\n      tag_46\n      jump\t// in\n    tag_76:\n        /* \"#utility.yul\":3106:3245   */\n      swap1\n      pop\n        /* \"#utility.yul\":2833:3252   */\n      swap2\n      swap1\n      pop\n      jump\t// out\n        /* \"#utility.yul\":3258:3677   */\n    tag_23:\n        /* \"#utility.yul\":3424:3428   */\n      0x00\n        /* \"#utility.yul\":3462:3464   */\n      0x20\n        /* \"#utility.yul\":3451:3460   */\n      dup3\n        /* \"#utility.yul\":3447:3465   */\n      add\n        /* \"#utility.yul\":3439:3465   */\n      swap1\n      pop\n        /* \"#utility.yul\":3511:3520   */\n      dup2\n        /* \"#utility.yul\":3505:3509   */\n      dup2\n        /* \"#utility.yul\":3501:3521   */\n      sub\n        /* \"#utility.yul\":3497:3498   */\n      0x00\n        /* \"#utility.yul\":3486:3495   */\n      dup4\n        /* \"#utility.yul\":3482:3499   */\n      add\n        /* \"#utility.yul\":3475:3522   */\n      mstore\n        /* \"#utility.yul\":3539:3670   */\n      tag_78\n        /* \"#utility.yul\":3665:3669   */\n      dup2\n        /* \"#utility.yul\":3539:3670   */\n      tag_51\n      jump\t// in\n    tag_78:\n        /* \"#utility.yul\":3531:3670   */\n      swap1\n      pop\n        /* \"#utility.yul\":3258:3677   */\n      swap2\n      swap1\n      pop\n      jump\t// out\n        /* \"#utility.yul\":3683:4102   */\n    tag_12:\n        /* \"#utility.yul\":3849:3853   */\n      0x00\n        /* \"#utility.yul\":3887:3889   */\n      0x20\n        /* \"#utility.yul\":3876:3885   */\n      dup3\n        /* \"#utility.yul\":3872:3890   */\n      add\n        /* \"#utility.yul\":3864:3890   */\n      swap1\n      pop\n        /* \"#utility.yul\":3936:3945   */\n      dup2\n        /* \"#utility.yul\":3930:3934   */\n      dup2\n        /* \"#utility.yul\":3926:3946   */\n      sub\n        /* \"#utility.yul\":3922:3923   */\n      0x00\n        /* \"#utility.yul\":3911:3920   */\n      dup4\n        /* \"#utility.yul\":3907:3924   */\n      add\n        /* \"#utility.yul\":3900:3947   */\n      mstore\n        /* \"#utility.yul\":3964:4095   */\n      tag_80\n        /* \"#utility.yul\":4090:4094   */\n      dup2\n        /* \"#utility.yul\":3964:4095   */\n      tag_62\n      jump\t// in\n    tag_80:\n        /* \"#utility.yul\":3956:4095   */\n      swap1\n      pop\n        /* \"#utility.yul\":3683:4102   */\n      swap2\n      swap1\n      pop\n      jump\t// out\n        /* \"#utility.yul\":4108:4330   */\n    tag_14:\n        /* \"#utility.yul\":4201:4205   */\n      0x00\n        /* \"#utility.yul\":4239:4241   */\n      0x20\n        /* \"#utility.yul\":4228:4237   */\n      dup3\n        /* \"#utility.yul\":4224:4242   */\n      add\n        /* \"#utility.yul\":4216:4242   */\n      swap1\n      pop\n        /* \"#utility.yul\":4252:4323   */\n      tag_82\n        /* \"#utility.yul\":4320:4321   */\n      0x00\n        /* \"#utility.yul\":4309:4318   */\n      dup4\n        /* \"#utility.yul\":4305:4322   */\n      add\n        /* \"#utility.yul\":4296:4302   */\n      dup5\n        /* \"#utility.yul\":4252:4323   */\n      tag_67\n      jump\t// in\n    tag_82:\n        /* \"#utility.yul\":4108:4330   */\n      swap3\n      swap2\n      pop\n      pop\n      jump\t// out\n        /* \"#utility.yul\":4336:4483   */\n    tag_59:\n        /* \"#utility.yul\":4437:4448   */\n      0x00\n        /* \"#utility.yul\":4474:4477   */\n      dup2\n        /* \"#utility.yul\":4459:4477   */\n      swap1\n      pop\n        /* \"#utility.yul\":4336:4483   */\n      swap3\n      swap2\n      pop\n      pop\n      jump\t// out\n        /* \"#utility.yul\":4489:4658   */\n    tag_43:\n        /* \"#utility.yul\":4573:4584   */\n      0x00\n        /* \"#utility.yul\":4607:4613   */\n      dup3\n        /* \"#utility.yul\":4602:4605   */\n      dup3\n        /* \"#utility.yul\":4595:4614   */\n      mstore\n        /* \"#utility.yul\":4647:4651   */\n      0x20\n        /* \"#utility.yul\":4642:4645   */\n      dup3\n        /* \"#utility.yul\":4638:4652   */\n      add\n        /* \"#utility.yul\":4623:4652   */\n      swap1\n      pop\n        /* \"#utility.yul\":4489:4658   */\n      swap3\n      swap2\n      pop\n      pop\n      jump\t// out\n        /* \"#utility.yul\":4664:4741   */\n    tag_70:\n        /* \"#utility.yul\":4701:4708   */\n      0x00\n        /* \"#utility.yul\":4730:4735   */\n      dup2\n        /* \"#utility.yul\":4719:4735   */\n      swap1\n      pop\n        /* \"#utility.yul\":4664:4741   */\n      swap2\n      swap1\n      pop\n      jump\t// out\n        /* \"#utility.yul\":4747:4980   */\n    tag_25:\n        /* \"#utility.yul\":4786:4789   */\n      0x00\n        /* \"#utility.yul\":4809:4833   */\n      tag_87\n        /* \"#utility.yul\":4827:4832   */\n      dup3\n        /* \"#utility.yul\":4809:4833   */\n      tag_70\n      jump\t// in\n    tag_87:\n        /* \"#utility.yul\":4800:4833   */\n      swap2\n      pop\n        /* \"#utility.yul\":4855:4921   */\n      0xffffffffffffffffffffffffffffffffffffffffffffffffffffffffffffffff\n        /* \"#utility.yul\":4848:4853   */\n      dup3\n        /* \"#utility.yul\":4845:4922   */\n      eq\n        /* \"#utility.yul\":4842:4945   */\n      iszero\n      tag_88\n      jumpi\n        /* \"#utility.yul\":4925:4943   */\n      tag_89\n      tag_90\n      jump\t// in\n    tag_89:\n        /* \"#utility.yul\":4842:4945   */\n    tag_88:\n        /* \"#utility.yul\":4972:4973   */\n      0x01\n        /* \"#utility.yul\":4965:4970   */\n      dup3\n        /* \"#utility.yul\":4961:4974   */\n      add\n        /* \"#utility.yul\":4954:4974   */\n      swap1\n      pop\n        /* \"#utility.yul\":4747:4980   */\n      swap2\n      swap1\n      pop\n      jump\t// out\n        /* \"#utility.yul\":4986:5166   */\n    tag_90:\n        /* \"#utility.yul\":5034:5111   */\n      0x4e487b7100000000000000000000000000000000000000000000000000000000\n        /* \"#utility.yul\":5031:5032   */\n      0x00\n        /* \"#utility.yul\":5024:5112   */\n      mstore\n        /* \"#utility.yul\":5131:5135   */\n      0x11\n        /* \"#utility.yul\":5128:5129   */\n      0x04\n        /* \"#utility.yul\":5121:5136   */\n      mstore\n        /* \"#utility.yul\":5155:5159   */\n      0x24\n        /* \"#utility.yul\":5152:5153   */\n      0x00\n        /* \"#utility.yul\":5145:5160   */\n      revert\n        /* \"#utility.yul\":5172:5338   */\n    tag_45:\n        /* \"#utility.yul\":5312:5330   */\n      0x4d75737420626520312065746865722e00000000000000000000000000000000\n        /* \"#utility.yul\":5308:5309   */\n      0x00\n        /* \"#utility.yul\":5300:5306   */\n      dup3\n        /* \"#utility.yul\":5296:5310   */\n      add\n        /* \"#utility.yul\":5289:5331   */\n      mstore\n        /* \"#utility.yul\":5172:5338   */\n      pop\n      jump\t// out\n        /* \"#utility.yul\":5344:5524   */\n    tag_50:\n        /* \"#utility.yul\":5484:5516   */\n      0x4f6e6c79204f6e7765722063616e20636865636b207468652076616c75650000\n        /* \"#utility.yul\":5480:5481   */\n      0x00\n        /* \"#utility.yul\":5472:5478   */\n      dup3\n        /* \"#utility.yul\":5468:5482   */\n      add\n        /* \"#utility.yul\":5461:5517   */\n      mstore\n        /* \"#utility.yul\":5344:5524   */\n      pop\n      jump\t// out\n        /* \"#utility.yul\":5530:5693   */\n    tag_55:\n        /* \"#utility.yul\":5670:5685   */\n      0x4661696c656420746f2070617900000000000000000000000000000000000000\n        /* \"#utility.yul\":5666:5667   */\n      0x00\n        /* \"#utility.yul\":5658:5664   */\n      dup3\n        /* \"#utility.yul\":5654:5668   */\n      add\n        /* \"#utility.yul\":5647:5686   */\n      mstore\n        /* \"#utility.yul\":5530:5693   */\n      pop\n      jump\t// out\n        /* \"#utility.yul\":5699:5813   */\n    tag_61:\n      pop\n      jump\t// out\n        /* \"#utility.yul\":5819:6040   */\n    tag_66:\n        /* \"#utility.yul\":5959:5993   */\n      0x4d7573742062652061206e657720706c6179657220696e20656163682067616d\n        /* \"#utility.yul\":5955:5956   */\n      0x00\n        /* \"#utility.yul\":5947:5953   */\n      dup3\n        /* \"#utility.yul\":5943:5957   */\n      add\n        /* \"#utility.yul\":5936:5994   */\n      mstore\n        /* \"#utility.yul\":6028:6032   */\n      0x652e000000000000000000000000000000000000000000000000000000000000\n        /* \"#utility.yul\":6023:6025   */\n      0x20\n        /* \"#utility.yul\":6015:6021   */\n      dup3\n        /* \"#utility.yul\":6011:6026   */\n      add\n        /* \"#utility.yul\":6004:6033   */\n      mstore\n        /* \"#utility.yul\":5819:6040   */\n      pop\n      jump\t// out\n\n    auxdata: 0xa2646970667358221220461906a6684c62e5166998cb349bbeab990870711b2ff815a88375d4ef3019d564736f6c63430008070033\n}\n",
				"bytecode": {
					"linkReferences": {},
					"object": "6080604052600160025534801561001557600080fd5b50336000806101000a81548173ffffffffffffffffffffffffffffffffffffffff021916908373ffffffffffffffffffffffffffffffffffffffff1602179055506106bc806100656000396000f3fe60806040526004361061002d5760003560e01c80635c681920146102b757806369bbe5c7146102e2576102b2565b366102b257670de0b6b3a7640000341461007c576040517f08c379a000000000000000000000000000000000000000000000000000000000815260040161007390610480565b60405180910390fd5b6000151560016000600254815260200190815260200160002060003373ffffffffffffffffffffffffffffffffffffffff1673ffffffffffffffffffffffffffffffffffffffff16815260200190815260200160002060009054906101000a900460ff16151514610122576040517f08c379a0000000000000000000000000000000000000000000000000000000008152600401610119906104e0565b60405180910390fd5b6001806000600254815260200190815260200160002060003373ffffffffffffffffffffffffffffffffffffffff1673ffffffffffffffffffffffffffffffffffffffff16815260200190815260200160002060006101000a81548160ff0219169083151502179055503373ffffffffffffffffffffffffffffffffffffffff167f124914a3e6966a060a8132f2c609203a76d9b0cc2b5ba9e626df64525de4765c346040516101d29190610500565b60405180910390a26729a2241af62c00004714156102b05760003373ffffffffffffffffffffffffffffffffffffffff16476040516102109061046b565b60006040518083038185875af1925050503d806000811461024d576040519150601f19603f3d011682016040523d82523d6000602084013e610252565b606091505b5050905080610296576040517f08c379a000000000000000000000000000000000000000000000000000000000815260040161028d906104c0565b60405180910390fd5b600260008154809291906102a990610541565b9190505550505b005b600080fd5b3480156102c357600080fd5b506102cc61030d565b6040516102d99190610500565b60405180910390f35b3480156102ee57600080fd5b506102f76103a3565b6040516103049190610500565b60405180910390f35b60003373ffffffffffffffffffffffffffffffffffffffff1660008054906101000a900473ffffffffffffffffffffffffffffffffffffffff1673ffffffffffffffffffffffffffffffffffffffff161461039d576040517f08c379a0000000000000000000000000000000000000000000000000000000008152600401610394906104a0565b60405180910390fd5b47905090565b6000600254905090565b60006103ba601083610526565b91506103c5826105b9565b602082019050919050565b60006103dd601e83610526565b91506103e8826105e2565b602082019050919050565b6000610400600d83610526565b915061040b8261060b565b602082019050919050565b600061042360008361051b565b915061042e82610634565b600082019050919050565b6000610446602283610526565b915061045182610637565b604082019050919050565b61046581610537565b82525050565b600061047682610416565b9150819050919050565b60006020820190508181036000830152610499816103ad565b9050919050565b600060208201905081810360008301526104b9816103d0565b9050919050565b600060208201905081810360008301526104d9816103f3565b9050919050565b600060208201905081810360008301526104f981610439565b9050919050565b6000602082019050610515600083018461045c565b92915050565b600081905092915050565b600082825260208201905092915050565b6000819050919050565b600061054c82610537565b91507fffffffffffffffffffffffffffffffffffffffffffffffffffffffffffffffff82141561057f5761057e61058a565b5b600182019050919050565b7f4e487b7100000000000000000000000000000000000000000000000000000000600052601160045260246000fd5b7f4d75737420626520312065746865722e00000000000000000000000000000000600082015250565b7f4f6e6c79204f6e7765722063616e20636865636b207468652076616c75650000600082015250565b7f4661696c656420746f2070617900000000000000000000000000000000000000600082015250565b50565b7f4d7573742062652061206e657720706c6179657220696e20656163682067616d60008201527f652e00000000000000000000000000000000000000000000000000000000000060208201525056fea2646970667358221220461906a6684c62e5166998cb349bbeab990870711b2ff815a88375d4ef3019d564736f6c63430008070033",
					"opcodes": "PUSH1 0x80 PUSH1 0x40 MSTORE PUSH1 0x1 PUSH1 0x2 SSTORE CALLVALUE DUP1 ISZERO PUSH2 0x15 JUMPI PUSH1 0x0 DUP1 REVERT JUMPDEST POP CALLER PUSH1 0x0 DUP1 PUSH2 0x100 EXP DUP2 SLOAD DUP2 PUSH20 0xFFFFFFFFFFFFFFFFFFFFFFFFFFFFFFFFFFFFFFFF MUL NOT AND SWAP1 DUP4 PUSH20 0xFFFFFFFFFFFFFFFFFFFFFFFFFFFFFFFFFFFFFFFF AND MUL OR SWAP1 SSTORE POP PUSH2 0x6BC DUP1 PUSH2 0x65 PUSH1 0x0 CODECOPY PUSH1 0x0 RETURN INVALID PUSH1 0x80 PUSH1 0x40 MSTORE PUSH1 0x4 CALLDATASIZE LT PUSH2 0x2D JUMPI PUSH1 0x0 CALLDATALOAD PUSH1 0xE0 SHR DUP1 PUSH4 0x5C681920 EQ PUSH2 0x2B7 JUMPI DUP1 PUSH4 0x69BBE5C7 EQ PUSH2 0x2E2 JUMPI PUSH2 0x2B2 JUMP JUMPDEST CALLDATASIZE PUSH2 0x2B2 JUMPI PUSH8 0xDE0B6B3A7640000 CALLVALUE EQ PUSH2 0x7C JUMPI PUSH1 0x40 MLOAD PUSH32 0x8C379A000000000000000000000000000000000000000000000000000000000 DUP2 MSTORE PUSH1 0x4 ADD PUSH2 0x73 SWAP1 PUSH2 0x480 JUMP JUMPDEST PUSH1 0x40 MLOAD DUP1 SWAP2 SUB SWAP1 REVERT JUMPDEST PUSH1 0x0 ISZERO ISZERO PUSH1 0x1 PUSH1 0x0 PUSH1 0x2 SLOAD DUP2 MSTORE PUSH1 0x20 ADD SWAP1 DUP2 MSTORE PUSH1 0x20 ADD PUSH1 0x0 KECCAK256 PUSH1 0x0 CALLER PUSH20 0xFFFFFFFFFFFFFFFFFFFFFFFFFFFFFFFFFFFFFFFF AND PUSH20 0xFFFFFFFFFFFFFFFFFFFFFFFFFFFFFFFFFFFFFFFF AND DUP2 MSTORE PUSH1 0x20 ADD SWAP1 DUP2 MSTORE PUSH1 0x20 ADD PUSH1 0x0 KECCAK256 PUSH1 0x0 SWAP1 SLOAD SWAP1 PUSH2 0x100 EXP SWAP1 DIV PUSH1 0xFF AND ISZERO ISZERO EQ PUSH2 0x122 JUMPI PUSH1 0x40 MLOAD PUSH32 0x8C379A000000000000000000000000000000000000000000000000000000000 DUP2 MSTORE PUSH1 0x4 ADD PUSH2 0x119 SWAP1 PUSH2 0x4E0 JUMP JUMPDEST PUSH1 0x40 MLOAD DUP1 SWAP2 SUB SWAP1 REVERT JUMPDEST PUSH1 0x1 DUP1 PUSH1 0x0 PUSH1 0x2 SLOAD DUP2 MSTORE PUSH1 0x20 ADD SWAP1 DUP2 MSTORE PUSH1 0x20 ADD PUSH1 0x0 KECCAK256 PUSH1 0x0 CALLER PUSH20 0xFFFFFFFFFFFFFFFFFFFFFFFFFFFFFFFFFFFFFFFF AND PUSH20 0xFFFFFFFFFFFFFFFFFFFFFFFFFFFFFFFFFFFFFFFF AND DUP2 MSTORE PUSH1 0x20 ADD SWAP1 DUP2 MSTORE PUSH1 0x20 ADD PUSH1 0x0 KECCAK256 PUSH1 0x0 PUSH2 0x100 EXP DUP2 SLOAD DUP2 PUSH1 0xFF MUL NOT AND SWAP1 DUP4 ISZERO ISZERO MUL OR SWAP1 SSTORE POP CALLER PUSH20 0xFFFFFFFFFFFFFFFFFFFFFFFFFFFFFFFFFFFFFFFF AND PUSH32 0x124914A3E6966A060A8132F2C609203A76D9B0CC2B5BA9E626DF64525DE4765C CALLVALUE PUSH1 0x40 MLOAD PUSH2 0x1D2 SWAP2 SWAP1 PUSH2 0x500 JUMP JUMPDEST PUSH1 0x40 MLOAD DUP1 SWAP2 SUB SWAP1 LOG2 PUSH8 0x29A2241AF62C0000 SELFBALANCE EQ ISZERO PUSH2 0x2B0 JUMPI PUSH1 0x0 CALLER PUSH20 0xFFFFFFFFFFFFFFFFFFFFFFFFFFFFFFFFFFFFFFFF AND SELFBALANCE PUSH1 0x40 MLOAD PUSH2 0x210 SWAP1 PUSH2 0x46B JUMP JUMPDEST PUSH1 0x0 PUSH1 0x40 MLOAD DUP1 DUP4 SUB DUP2 DUP6 DUP8 GAS CALL SWAP3 POP POP POP RETURNDATASIZE DUP1 PUSH1 0x0 DUP2 EQ PUSH2 0x24D JUMPI PUSH1 0x40 MLOAD SWAP2 POP PUSH1 0x1F NOT PUSH1 0x3F RETURNDATASIZE ADD AND DUP3 ADD PUSH1 0x40 MSTORE RETURNDATASIZE DUP3 MSTORE RETURNDATASIZE PUSH1 0x0 PUSH1 0x20 DUP5 ADD RETURNDATACOPY PUSH2 0x252 JUMP JUMPDEST PUSH1 0x60 SWAP2 POP JUMPDEST POP POP SWAP1 POP DUP1 PUSH2 0x296 JUMPI PUSH1 0x40 MLOAD PUSH32 0x8C379A000000000000000000000000000000000000000000000000000000000 DUP2 MSTORE PUSH1 0x4 ADD PUSH2 0x28D SWAP1 PUSH2 0x4C0 JUMP JUMPDEST PUSH1 0x40 MLOAD DUP1 SWAP2 SUB SWAP1 REVERT JUMPDEST PUSH1 0x2 PUSH1 0x0 DUP2 SLOAD DUP1 SWAP3 SWAP2 SWAP1 PUSH2 0x2A9 SWAP1 PUSH2 0x541 JUMP JUMPDEST SWAP2 SWAP1 POP SSTORE POP POP JUMPDEST STOP JUMPDEST PUSH1 0x0 DUP1 REVERT JUMPDEST CALLVALUE DUP1 ISZERO PUSH2 0x2C3 JUMPI PUSH1 0x0 DUP1 REVERT JUMPDEST POP PUSH2 0x2CC PUSH2 0x30D JUMP JUMPDEST PUSH1 0x40 MLOAD PUSH2 0x2D9 SWAP2 SWAP1 PUSH2 0x500 JUMP JUMPDEST PUSH1 0x40 MLOAD DUP1 SWAP2 SUB SWAP1 RETURN JUMPDEST CALLVALUE DUP1 ISZERO PUSH2 0x2EE JUMPI PUSH1 0x0 DUP1 REVERT JUMPDEST POP PUSH2 0x2F7 PUSH2 0x3A3 JUMP JUMPDEST PUSH1 0x40 MLOAD PUSH2 0x304 SWAP2 SWAP1 PUSH2 0x500 JUMP JUMPDEST PUSH1 0x40 MLOAD DUP1 SWAP2 SUB SWAP1 RETURN JUMPDEST PUSH1 0x0 CALLER PUSH20 0xFFFFFFFFFFFFFFFFFFFFFFFFFFFFFFFFFFFFFFFF AND PUSH1 0x0 DUP1 SLOAD SWAP1 PUSH2 0x100 EXP SWAP1 DIV PUSH20 0xFFFFFFFFFFFFFFFFFFFFFFFFFFFFFFFFFFFFFFFF AND PUSH20 0xFFFFFFFFFFFFFFFFFFFFFFFFFFFFFFFFFFFFFFFF AND EQ PUSH2 0x39D JUMPI PUSH1 0x40 MLOAD PUSH32 0x8C379A000000000000000000000000000000000000000000000000000000000 DUP2 MSTORE PUSH1 0x4 ADD PUSH2 0x394 SWAP1 PUSH2 0x4A0 JUMP JUMPDEST PUSH1 0x40 MLOAD DUP1 SWAP2 SUB SWAP1 REVERT JUMPDEST SELFBALANCE SWAP1 POP SWAP1 JUMP JUMPDEST PUSH1 0x0 PUSH1 0x2 SLOAD SWAP1 POP SWAP1 JUMP JUMPDEST PUSH1 0x0 PUSH2 0x3BA PUSH1 0x10 DUP4 PUSH2 0x526 JUMP JUMPDEST SWAP2 POP PUSH2 0x3C5 DUP3 PUSH2 0x5B9 JUMP JUMPDEST PUSH1 0x20 DUP3 ADD SWAP1 POP SWAP2 SWAP1 POP JUMP JUMPDEST PUSH1 0x0 PUSH2 0x3DD PUSH1 0x1E DUP4 PUSH2 0x526 JUMP JUMPDEST SWAP2 POP PUSH2 0x3E8 DUP3 PUSH2 0x5E2 JUMP JUMPDEST PUSH1 0x20 DUP3 ADD SWAP1 POP SWAP2 SWAP1 POP JUMP JUMPDEST PUSH1 0x0 PUSH2 0x400 PUSH1 0xD DUP4 PUSH2 0x526 JUMP JUMPDEST SWAP2 POP PUSH2 0x40B DUP3 PUSH2 0x60B JUMP JUMPDEST PUSH1 0x20 DUP3 ADD SWAP1 POP SWAP2 SWAP1 POP JUMP JUMPDEST PUSH1 0x0 PUSH2 0x423 PUSH1 0x0 DUP4 PUSH2 0x51B JUMP JUMPDEST SWAP2 POP PUSH2 0x42E DUP3 PUSH2 0x634 JUMP JUMPDEST PUSH1 0x0 DUP3 ADD SWAP1 POP SWAP2 SWAP1 POP JUMP JUMPDEST PUSH1 0x0 PUSH2 0x446 PUSH1 0x22 DUP4 PUSH2 0x526 JUMP JUMPDEST SWAP2 POP PUSH2 0x451 DUP3 PUSH2 0x637 JUMP JUMPDEST PUSH1 0x40 DUP3 ADD SWAP1 POP SWAP2 SWAP1 POP JUMP JUMPDEST PUSH2 0x465 DUP2 PUSH2 0x537 JUMP JUMPDEST DUP3 MSTORE POP POP JUMP JUMPDEST PUSH1 0x0 PUSH2 0x476 DUP3 PUSH2 0x416 JUMP JUMPDEST SWAP2 POP DUP2 SWAP1 POP SWAP2 SWAP1 POP JUMP JUMPDEST PUSH1 0x0 PUSH1 0x20 DUP3 ADD SWAP1 POP DUP2 DUP2 SUB PUSH1 0x0 DUP4 ADD MSTORE PUSH2 0x499 DUP2 PUSH2 0x3AD JUMP JUMPDEST SWAP1 POP SWAP2 SWAP1 POP JUMP JUMPDEST PUSH1 0x0 PUSH1 0x20 DUP3 ADD SWAP1 POP DUP2 DUP2 SUB PUSH1 0x0 DUP4 ADD MSTORE PUSH2 0x4B9 DUP2 PUSH2 0x3D0 JUMP JUMPDEST SWAP1 POP SWAP2 SWAP1 POP JUMP JUMPDEST PUSH1 0x0 PUSH1 0x20 DUP3 ADD SWAP1 POP DUP2 DUP2 SUB PUSH1 0x0 DUP4 ADD MSTORE PUSH2 0x4D9 DUP2 PUSH2 0x3F3 JUMP JUMPDEST SWAP1 POP SWAP2 SWAP1 POP JUMP JUMPDEST PUSH1 0x0 PUSH1 0x20 DUP3 ADD SWAP1 POP DUP2 DUP2 SUB PUSH1 0x0 DUP4 ADD MSTORE PUSH2 0x4F9 DUP2 PUSH2 0x439 JUMP JUMPDEST SWAP1 POP SWAP2 SWAP1 POP JUMP JUMPDEST PUSH1 0x0 PUSH1 0x20 DUP3 ADD SWAP1 POP PUSH2 0x515 PUSH1 0x0 DUP4 ADD DUP5 PUSH2 0x45C JUMP JUMPDEST SWAP3 SWAP2 POP POP JUMP JUMPDEST PUSH1 0x0 DUP2 SWAP1 POP SWAP3 SWAP2 POP POP JUMP JUMPDEST PUSH1 0x0 DUP3 DUP3 MSTORE PUSH1 0x20 DUP3 ADD SWAP1 POP SWAP3 SWAP2 POP POP JUMP JUMPDEST PUSH1 0x0 DUP2 SWAP1 POP SWAP2 SWAP1 POP JUMP JUMPDEST PUSH1 0x0 PUSH2 0x54C DUP3 PUSH2 0x537 JUMP JUMPDEST SWAP2 POP PUSH32 0xFFFFFFFFFFFFFFFFFFFFFFFFFFFFFFFFFFFFFFFFFFFFFFFFFFFFFFFFFFFFFFFF DUP3 EQ ISZERO PUSH2 0x57F JUMPI PUSH2 0x57E PUSH2 0x58A JUMP JUMPDEST JUMPDEST PUSH1 0x1 DUP3 ADD SWAP1 POP SWAP2 SWAP1 POP JUMP JUMPDEST PUSH32 0x4E487B7100000000000000000000000000000000000000000000000000000000 PUSH1 0x0 MSTORE PUSH1 0x11 PUSH1 0x4 MSTORE PUSH1 0x24 PUSH1 0x0 REVERT JUMPDEST PUSH32 0x4D75737420626520312065746865722E00000000000000000000000000000000 PUSH1 0x0 DUP3 ADD MSTORE POP JUMP JUMPDEST PUSH32 0x4F6E6C79204F6E7765722063616E20636865636B207468652076616C75650000 PUSH1 0x0 DUP3 ADD MSTORE POP JUMP JUMPDEST PUSH32 0x4661696C656420746F2070617900000000000000000000000000000000000000 PUSH1 0x0 DUP3 ADD MSTORE POP JUMP JUMPDEST POP JUMP JUMPDEST PUSH32 0x4D7573742062652061206E657720706C6179657220696E20656163682067616D PUSH1 0x0 DUP3 ADD MSTORE PUSH32 0x652E000000000000000000000000000000000000000000000000000000000000 PUSH1 0x20 DUP3 ADD MSTORE POP JUMP INVALID LOG2 PUSH5 0x6970667358 0x22 SLT KECCAK256 CHAINID NOT MOD 0xA6 PUSH9 0x4C62E5166998CB349B 0xBE 0xAB SWAP10 ADDMOD PUSH17 0x711B2FF815A88375D4EF3019D564736F6C PUSH4 0x43000807 STOP CALLER "
				},
				"gasEstimates": {
					"creation": {
						"codeDepositCost": "344800",
						"executionCost": "46752",
						"totalCost": "391552"
					},
					"external": {
						"checkRound()": "2437",
						"checkValue()": "2581"
					}
				},
				"methodIdentifiers": {
					"checkRound()": "69bbe5c7",
					"checkValue()": "5c681920"
				}
			},
			"storageLayout": {
				"storage": [
					{
						"astId": 9,
						"contract": "lecture/lec42.sol:MoneyBox",
						"label": "owner",
						"offset": 0,
						"slot": "0",
						"type": "t_address"
					},
					{
						"astId": 15,
						"contract": "lecture/lec42.sol:MoneyBox",
						"label": "paidMemberList",
						"offset": 0,
						"slot": "1",
						"type": "t_mapping(t_uint256,t_mapping(t_address,t_bool))"
					},
					{
						"astId": 18,
						"contract": "lecture/lec42.sol:MoneyBox",
						"label": "round",
						"offset": 0,
						"slot": "2",
						"type": "t_uint256"
					}
				],
				"types": {
					"t_address": {
						"encoding": "inplace",
						"label": "address",
						"numberOfBytes": "20"
					},
					"t_bool": {
						"encoding": "inplace",
						"label": "bool",
						"numberOfBytes": "1"
					},
					"t_mapping(t_address,t_bool)": {
						"encoding": "mapping",
						"key": "t_address",
						"label": "mapping(address => bool)",
						"numberOfBytes": "32",
						"value": "t_bool"
					},
					"t_mapping(t_uint256,t_mapping(t_address,t_bool))": {
						"encoding": "mapping",
						"key": "t_uint256",
						"label": "mapping(uint256 => mapping(address => bool))",
						"numberOfBytes": "32",
						"value": "t_mapping(t_address,t_bool)"
					},
					"t_uint256": {
						"encoding": "inplace",
						"label": "uint256",
						"numberOfBytes": "32"
					}
				}
			},
			"userdoc": {
				"kind": "user",
				"methods": {},
				"version": 1
			}
		}
	}
}