{
	"lecture/lec2.sol": {
		"lec2": {
			"abi": [
				{
					"inputs": [],
					"name": "addr",
					"outputs": [
						{
							"internalType": "address",
							"name": "",
							"type": "address"
						}
					],
					"stateMutability": "view",
					"type": "function"
				},
				{
					"inputs": [],
					"name": "b",
					"outputs": [
						{
							"internalType": "bool",
							"name": "",
							"type": "bool"
						}
					],
					"stateMutability": "view",
					"type": "function"
				},
				{
					"inputs": [],
					"name": "b1",
					"outputs": [
						{
							"internalType": "bool",
							"name": "",
							"type": "bool"
						}
					],
					"stateMutability": "view",
					"type": "function"
				},
				{
					"inputs": [],
					"name": "b2",
					"outputs": [
						{
							"internalType": "bool",
							"name": "",
							"type": "bool"
						}
					],
					"stateMutability": "view",
					"type": "function"
				},
				{
					"inputs": [],
					"name": "b3",
					"outputs": [
						{
							"internalType": "bool",
							"name": "",
							"type": "bool"
						}
					],
					"stateMutability": "view",
					"type": "function"
				},
				{
					"inputs": [],
					"name": "b4",
					"outputs": [
						{
							"internalType": "bool",
							"name": "",
							"type": "bool"
						}
					],
					"stateMutability": "view",
					"type": "function"
				},
				{
					"inputs": [],
					"name": "bt1",
					"outputs": [
						{
							"internalType": "bytes1",
							"name": "",
							"type": "bytes1"
						}
					],
					"stateMutability": "view",
					"type": "function"
				},
				{
					"inputs": [],
					"name": "bt4",
					"outputs": [
						{
							"internalType": "bytes4",
							"name": "",
							"type": "bytes4"
						}
					],
					"stateMutability": "view",
					"type": "function"
				},
				{
					"inputs": [],
					"name": "bt5",
					"outputs": [
						{
							"internalType": "bytes5",
							"name": "",
							"type": "bytes5"
						}
					],
					"stateMutability": "view",
					"type": "function"
				},
				{
					"inputs": [],
					"name": "bt6",
					"outputs": [
						{
							"internalType": "bytes",
							"name": "",
							"type": "bytes"
						}
					],
					"stateMutability": "view",
					"type": "function"
				}
			],
			"devdoc": {
				"kind": "dev",
				"methods": {},
				"version": 1
			},
			"evm": {
				"assembly": "    /* \"lecture/lec2.sol\":72:478  contract lec2{... */\n  mstore(0x40, 0x80)\n    /* \"lecture/lec2.sol\":107:112  false */\n  0x00\n    /* \"lecture/lec2.sol\":91:112  bool public b = false */\n  dup1\n  exp(0x0100, 0x00)\n  dup2\n  sload\n  dup2\n  0xff\n  mul\n  not\n  and\n  swap1\n  dup4\n  iszero\n  iszero\n  mul\n  or\n  swap1\n  sstore\n  pop\n    /* \"lecture/lec2.sol\":136:141  false */\n  0x00\n    /* \"lecture/lec2.sol\":135:141  !false */\n  iszero\n    /* \"lecture/lec2.sol\":118:141  bool public b1 = !false */\n  0x00\n  exp(0x0100, 0x01)\n  dup2\n  sload\n  dup2\n  0xff\n  mul\n  not\n  and\n  swap1\n  dup4\n  iszero\n  iszero\n  mul\n  or\n  swap1\n  sstore\n  pop\n    /* \"lecture/lec2.sol\":164:169  false */\n  0x00\n    /* \"lecture/lec2.sol\":164:177  false || true */\n  dup1\n  tag_1\n  jumpi\n  pop\n    /* \"lecture/lec2.sol\":173:177  true */\n  0x01\n    /* \"lecture/lec2.sol\":164:177  false || true */\ntag_1:\n    /* \"lecture/lec2.sol\":147:177  bool public b2 = false || true */\n  0x00\n  exp(0x0100, 0x02)\n  dup2\n  sload\n  dup2\n  0xff\n  mul\n  not\n  and\n  swap1\n  dup4\n  iszero\n  iszero\n  mul\n  or\n  swap1\n  sstore\n  pop\n    /* \"lecture/lec2.sol\":209:213  true */\n  0x01\n    /* \"lecture/lec2.sol\":200:213  false == true */\n  iszero\n  iszero\n    /* \"lecture/lec2.sol\":200:205  false */\n  0x00\n    /* \"lecture/lec2.sol\":200:213  false == true */\n  iszero\n  iszero\n  eq\n    /* \"lecture/lec2.sol\":183:213  bool public b3 = false == true */\n  0x00\n  exp(0x0100, 0x03)\n  dup2\n  sload\n  dup2\n  0xff\n  mul\n  not\n  and\n  swap1\n  dup4\n  iszero\n  iszero\n  mul\n  or\n  swap1\n  sstore\n  pop\n    /* \"lecture/lec2.sol\":236:241  false */\n  0x00\n    /* \"lecture/lec2.sol\":236:249  false && true */\n  dup1\n  iszero\n  tag_2\n  jumpi\n  pop\n    /* \"lecture/lec2.sol\":245:249  true */\n  0x01\n    /* \"lecture/lec2.sol\":236:249  false && true */\ntag_2:\n    /* \"lecture/lec2.sol\":219:249  bool public b4 = false && true */\n  0x00\n  exp(0x0100, 0x04)\n  dup2\n  sload\n  dup2\n  0xff\n  mul\n  not\n  and\n  swap1\n  dup4\n  iszero\n  iszero\n  mul\n  or\n  swap1\n  sstore\n  pop\n    /* \"lecture/lec2.sol\":276:280  0x12 */\n  0x12\n    /* \"lecture/lec2.sol\":256:280  bytes1 public bt1 = 0x12 */\n  0xf8\n  shl\n  0x00\n  exp(0x0100, 0x05)\n  dup2\n  sload\n  dup2\n  0xff\n  mul\n  not\n  and\n  swap1\n  dup4\n  0xf8\n  shr\n  mul\n  or\n  swap1\n  sstore\n  pop\n    /* \"lecture/lec2.sol\":306:316  0x12345678 */\n  0x12345678\n    /* \"lecture/lec2.sol\":286:316  bytes4 public bt4 = 0x12345678 */\n  0xe0\n  shl\n  0x00\n  exp(0x0100, 0x06)\n  dup2\n  sload\n  dup2\n  0xffffffff\n  mul\n  not\n  and\n  swap1\n  dup4\n  0xe0\n  shr\n  mul\n  or\n  swap1\n  sstore\n  pop\n    /* \"lecture/lec2.sol\":342:354  0x1234567890 */\n  0x1234567890\n    /* \"lecture/lec2.sol\":322:354  bytes5 public bt5 = 0x1234567890 */\n  0xd8\n  shl\n  0x00\n  exp(0x0100, 0x0a)\n  dup2\n  sload\n  dup2\n  0xffffffffff\n  mul\n  not\n  and\n  swap1\n  dup4\n  0xd8\n  shr\n  mul\n  or\n  swap1\n  sstore\n  pop\n    /* \"lecture/lec2.sol\":360:387  bytes public bt6 = \"string\" */\n  mload(0x40)\n  dup1\n  0x40\n  add\n  0x40\n  mstore\n  dup1\n  0x06\n  dup2\n  mstore\n  0x20\n  add\n  0x737472696e670000000000000000000000000000000000000000000000000000\n  dup2\n  mstore\n  pop\n  0x01\n  swap1\n  dup1\n  mload\n  swap1\n  0x20\n  add\n  swap1\n  tag_3\n  swap3\n  swap2\n  swap1\n  tag_4\n  jump\t// in\ntag_3:\n  pop\n    /* \"lecture/lec2.sol\":416:458  0xd8b934580fcE35a11B58C6D73aDeE468a2833fa8 */\n  0xd8b934580fce35a11b58c6d73adee468a2833fa8\n    /* \"lecture/lec2.sol\":394:458  address public addr = 0xd8b934580fcE35a11B58C6D73aDeE468a2833fa8 */\n  0x02\n  exp(0x0100, 0x00)\n  dup2\n  sload\n  dup2\n  0xffffffffffffffffffffffffffffffffffffffff\n  mul\n  not\n  and\n  swap1\n  dup4\n  0xffffffffffffffffffffffffffffffffffffffff\n  and\n  mul\n  or\n  swap1\n  sstore\n  pop\n    /* \"lecture/lec2.sol\":72:478  contract lec2{... */\n  callvalue\n  dup1\n  iszero\n  tag_5\n  jumpi\n  0x00\n  dup1\n  revert\ntag_5:\n  pop\n  jump(tag_6)\ntag_4:\n  dup3\n  dup1\n  sload\n  tag_7\n  swap1\n  tag_8\n  jump\t// in\ntag_7:\n  swap1\n  0x00\n  mstore\n  keccak256(0x00, 0x20)\n  swap1\n  0x1f\n  add\n  0x20\n  swap1\n  div\n  dup2\n  add\n  swap3\n  dup3\n  tag_10\n  jumpi\n  0x00\n  dup6\n  sstore\n  jump(tag_9)\ntag_10:\n  dup3\n  0x1f\n  lt\n  tag_11\n  jumpi\n  dup1\n  mload\n  not(0xff)\n  and\n  dup4\n  dup1\n  add\n  or\n  dup6\n  sstore\n  jump(tag_9)\ntag_11:\n  dup3\n  dup1\n  add\n  0x01\n  add\n  dup6\n  sstore\n  dup3\n  iszero\n  tag_9\n  jumpi\n  swap2\n  dup3\n  add\ntag_12:\n  dup3\n  dup2\n  gt\n  iszero\n  tag_13\n  jumpi\n  dup3\n  mload\n  dup3\n  sstore\n  swap2\n  0x20\n  add\n  swap2\n  swap1\n  0x01\n  add\n  swap1\n  jump(tag_12)\ntag_13:\ntag_9:\n  pop\n  swap1\n  pop\n  tag_14\n  swap2\n  swap1\n  tag_15\n  jump\t// in\ntag_14:\n  pop\n  swap1\n  jump\t// out\ntag_15:\ntag_16:\n  dup1\n  dup3\n  gt\n  iszero\n  tag_17\n  jumpi\n  0x00\n  dup2\n  0x00\n  swap1\n  sstore\n  pop\n  0x01\n  add\n  jump(tag_16)\ntag_17:\n  pop\n  swap1\n  jump\t// out\n    /* \"#utility.yul\":7:327   */\ntag_8:\n    /* \"#utility.yul\":51:57   */\n  0x00\n    /* \"#utility.yul\":88:89   */\n  0x02\n    /* \"#utility.yul\":82:86   */\n  dup3\n    /* \"#utility.yul\":78:90   */\n  div\n    /* \"#utility.yul\":68:90   */\n  swap1\n  pop\n    /* \"#utility.yul\":135:136   */\n  0x01\n    /* \"#utility.yul\":129:133   */\n  dup3\n    /* \"#utility.yul\":125:137   */\n  and\n    /* \"#utility.yul\":156:174   */\n  dup1\n    /* \"#utility.yul\":146:227   */\n  tag_20\n  jumpi\n    /* \"#utility.yul\":212:216   */\n  0x7f\n    /* \"#utility.yul\":204:210   */\n  dup3\n    /* \"#utility.yul\":200:217   */\n  and\n    /* \"#utility.yul\":190:217   */\n  swap2\n  pop\n    /* \"#utility.yul\":146:227   */\ntag_20:\n    /* \"#utility.yul\":274:276   */\n  0x20\n    /* \"#utility.yul\":266:272   */\n  dup3\n    /* \"#utility.yul\":263:277   */\n  lt\n    /* \"#utility.yul\":243:261   */\n  dup2\n    /* \"#utility.yul\":240:278   */\n  eq\n    /* \"#utility.yul\":237:321   */\n  iszero\n  tag_21\n  jumpi\n    /* \"#utility.yul\":293:311   */\n  tag_22\n  tag_23\n  jump\t// in\ntag_22:\n    /* \"#utility.yul\":237:321   */\ntag_21:\n    /* \"#utility.yul\":58:327   */\n  pop\n    /* \"#utility.yul\":7:327   */\n  swap2\n  swap1\n  pop\n  jump\t// out\n    /* \"#utility.yul\":333:513   */\ntag_23:\n    /* \"#utility.yul\":381:458   */\n  0x4e487b7100000000000000000000000000000000000000000000000000000000\n    /* \"#utility.yul\":378:379   */\n  0x00\n    /* \"#utility.yul\":371:459   */\n  mstore\n    /* \"#utility.yul\":478:482   */\n  0x22\n    /* \"#utility.yul\":475:476   */\n  0x04\n    /* \"#utility.yul\":468:483   */\n  mstore\n    /* \"#utility.yul\":502:506   */\n  0x24\n    /* \"#utility.yul\":499:500   */\n  0x00\n    /* \"#utility.yul\":492:507   */\n  revert\n    /* \"lecture/lec2.sol\":72:478  contract lec2{... */\ntag_6:\n  dataSize(sub_0)\n  dup1\n  dataOffset(sub_0)\n  0x00\n  codecopy\n  0x00\n  return\nstop\n\nsub_0: assembly {\n        /* \"lecture/lec2.sol\":72:478  contract lec2{... */\n      mstore(0x40, 0x80)\n      callvalue\n      dup1\n      iszero\n      tag_1\n      jumpi\n      0x00\n      dup1\n      revert\n    tag_1:\n      pop\n      jumpi(tag_2, lt(calldatasize, 0x04))\n      shr(0xe0, calldataload(0x00))\n      dup1\n      0x767800de\n      gt\n      tag_13\n      jumpi\n      dup1\n      0x767800de\n      eq\n      tag_8\n      jumpi\n      dup1\n      0xc862230c\n      eq\n      tag_9\n      jumpi\n      dup1\n      0xcb6f197e\n      eq\n      tag_10\n      jumpi\n      dup1\n      0xe9b61909\n      eq\n      tag_11\n      jumpi\n      dup1\n      0xee495002\n      eq\n      tag_12\n      jumpi\n      jump(tag_2)\n    tag_13:\n      dup1\n      0x0add6ef2\n      eq\n      tag_3\n      jumpi\n      dup1\n      0x12c9e787\n      eq\n      tag_4\n      jumpi\n      dup1\n      0x2469b987\n      eq\n      tag_5\n      jumpi\n      dup1\n      0x3db3fb0a\n      eq\n      tag_6\n      jumpi\n      dup1\n      0x4df7e3d0\n      eq\n      tag_7\n      jumpi\n    tag_2:\n      0x00\n      dup1\n      revert\n        /* \"lecture/lec2.sol\":147:177  bool public b2 = false || true */\n    tag_3:\n      tag_14\n      tag_15\n      jump\t// in\n    tag_14:\n      mload(0x40)\n      tag_16\n      swap2\n      swap1\n      tag_17\n      jump\t// in\n    tag_16:\n      mload(0x40)\n      dup1\n      swap2\n      sub\n      swap1\n      return\n        /* \"lecture/lec2.sol\":286:316  bytes4 public bt4 = 0x12345678 */\n    tag_4:\n      tag_18\n      tag_19\n      jump\t// in\n    tag_18:\n      mload(0x40)\n      tag_20\n      swap2\n      swap1\n      tag_21\n      jump\t// in\n    tag_20:\n      mload(0x40)\n      dup1\n      swap2\n      sub\n      swap1\n      return\n        /* \"lecture/lec2.sol\":322:354  bytes5 public bt5 = 0x1234567890 */\n    tag_5:\n      tag_22\n      tag_23\n      jump\t// in\n    tag_22:\n      mload(0x40)\n      tag_24\n      swap2\n      swap1\n      tag_25\n      jump\t// in\n    tag_24:\n      mload(0x40)\n      dup1\n      swap2\n      sub\n      swap1\n      return\n        /* \"lecture/lec2.sol\":219:249  bool public b4 = false && true */\n    tag_6:\n      tag_26\n      tag_27\n      jump\t// in\n    tag_26:\n      mload(0x40)\n      tag_28\n      swap2\n      swap1\n      tag_17\n      jump\t// in\n    tag_28:\n      mload(0x40)\n      dup1\n      swap2\n      sub\n      swap1\n      return\n        /* \"lecture/lec2.sol\":91:112  bool public b = false */\n    tag_7:\n      tag_29\n      tag_30\n      jump\t// in\n    tag_29:\n      mload(0x40)\n      tag_31\n      swap2\n      swap1\n      tag_17\n      jump\t// in\n    tag_31:\n      mload(0x40)\n      dup1\n      swap2\n      sub\n      swap1\n      return\n        /* \"lecture/lec2.sol\":394:458  address public addr = 0xd8b934580fcE35a11B58C6D73aDeE468a2833fa8 */\n    tag_8:\n      tag_32\n      tag_33\n      jump\t// in\n    tag_32:\n      mload(0x40)\n      tag_34\n      swap2\n      swap1\n      tag_35\n      jump\t// in\n    tag_34:\n      mload(0x40)\n      dup1\n      swap2\n      sub\n      swap1\n      return\n        /* \"lecture/lec2.sol\":360:387  bytes public bt6 = \"string\" */\n    tag_9:\n      tag_36\n      tag_37\n      jump\t// in\n    tag_36:\n      mload(0x40)\n      tag_38\n      swap2\n      swap1\n      tag_39\n      jump\t// in\n    tag_38:\n      mload(0x40)\n      dup1\n      swap2\n      sub\n      swap1\n      return\n        /* \"lecture/lec2.sol\":256:280  bytes1 public bt1 = 0x12 */\n    tag_10:\n      tag_40\n      tag_41\n      jump\t// in\n    tag_40:\n      mload(0x40)\n      tag_42\n      swap2\n      swap1\n      tag_43\n      jump\t// in\n    tag_42:\n      mload(0x40)\n      dup1\n      swap2\n      sub\n      swap1\n      return\n        /* \"lecture/lec2.sol\":183:213  bool public b3 = false == true */\n    tag_11:\n      tag_44\n      tag_45\n      jump\t// in\n    tag_44:\n      mload(0x40)\n      tag_46\n      swap2\n      swap1\n      tag_17\n      jump\t// in\n    tag_46:\n      mload(0x40)\n      dup1\n      swap2\n      sub\n      swap1\n      return\n        /* \"lecture/lec2.sol\":118:141  bool public b1 = !false */\n    tag_12:\n      tag_47\n      tag_48\n      jump\t// in\n    tag_47:\n      mload(0x40)\n      tag_49\n      swap2\n      swap1\n      tag_17\n      jump\t// in\n    tag_49:\n      mload(0x40)\n      dup1\n      swap2\n      sub\n      swap1\n      return\n        /* \"lecture/lec2.sol\":147:177  bool public b2 = false || true */\n    tag_15:\n      0x00\n      0x02\n      swap1\n      sload\n      swap1\n      0x0100\n      exp\n      swap1\n      div\n      0xff\n      and\n      dup2\n      jump\t// out\n        /* \"lecture/lec2.sol\":286:316  bytes4 public bt4 = 0x12345678 */\n    tag_19:\n      0x00\n      0x06\n      swap1\n      sload\n      swap1\n      0x0100\n      exp\n      swap1\n      div\n      0xe0\n      shl\n      dup2\n      jump\t// out\n        /* \"lecture/lec2.sol\":322:354  bytes5 public bt5 = 0x1234567890 */\n    tag_23:\n      0x00\n      0x0a\n      swap1\n      sload\n      swap1\n      0x0100\n      exp\n      swap1\n      div\n      0xd8\n      shl\n      dup2\n      jump\t// out\n        /* \"lecture/lec2.sol\":219:249  bool public b4 = false && true */\n    tag_27:\n      0x00\n      0x04\n      swap1\n      sload\n      swap1\n      0x0100\n      exp\n      swap1\n      div\n      0xff\n      and\n      dup2\n      jump\t// out\n        /* \"lecture/lec2.sol\":91:112  bool public b = false */\n    tag_30:\n      0x00\n      dup1\n      sload\n      swap1\n      0x0100\n      exp\n      swap1\n      div\n      0xff\n      and\n      dup2\n      jump\t// out\n        /* \"lecture/lec2.sol\":394:458  address public addr = 0xd8b934580fcE35a11B58C6D73aDeE468a2833fa8 */\n    tag_33:\n      0x02\n      0x00\n      swap1\n      sload\n      swap1\n      0x0100\n      exp\n      swap1\n      div\n      0xffffffffffffffffffffffffffffffffffffffff\n      and\n      dup2\n      jump\t// out\n        /* \"lecture/lec2.sol\":360:387  bytes public bt6 = \"string\" */\n    tag_37:\n      0x01\n      dup1\n      sload\n      tag_50\n      swap1\n      tag_51\n      jump\t// in\n    tag_50:\n      dup1\n      0x1f\n      add\n      0x20\n      dup1\n      swap2\n      div\n      mul\n      0x20\n      add\n      mload(0x40)\n      swap1\n      dup2\n      add\n      0x40\n      mstore\n      dup1\n      swap3\n      swap2\n      swap1\n      dup2\n      dup2\n      mstore\n      0x20\n      add\n      dup3\n      dup1\n      sload\n      tag_52\n      swap1\n      tag_51\n      jump\t// in\n    tag_52:\n      dup1\n      iszero\n      tag_53\n      jumpi\n      dup1\n      0x1f\n      lt\n      tag_54\n      jumpi\n      0x0100\n      dup1\n      dup4\n      sload\n      div\n      mul\n      dup4\n      mstore\n      swap2\n      0x20\n      add\n      swap2\n      jump(tag_53)\n    tag_54:\n      dup3\n      add\n      swap2\n      swap1\n      0x00\n      mstore\n      keccak256(0x00, 0x20)\n      swap1\n    tag_55:\n      dup2\n      sload\n      dup2\n      mstore\n      swap1\n      0x01\n      add\n      swap1\n      0x20\n      add\n      dup1\n      dup4\n      gt\n      tag_55\n      jumpi\n      dup3\n      swap1\n      sub\n      0x1f\n      and\n      dup3\n      add\n      swap2\n    tag_53:\n      pop\n      pop\n      pop\n      pop\n      pop\n      dup2\n      jump\t// out\n        /* \"lecture/lec2.sol\":256:280  bytes1 public bt1 = 0x12 */\n    tag_41:\n      0x00\n      0x05\n      swap1\n      sload\n      swap1\n      0x0100\n      exp\n      swap1\n      div\n      0xf8\n      shl\n      dup2\n      jump\t// out\n        /* \"lecture/lec2.sol\":183:213  bool public b3 = false == true */\n    tag_45:\n      0x00\n      0x03\n      swap1\n      sload\n      swap1\n      0x0100\n      exp\n      swap1\n      div\n      0xff\n      and\n      dup2\n      jump\t// out\n        /* \"lecture/lec2.sol\":118:141  bool public b1 = !false */\n    tag_48:\n      0x00\n      0x01\n      swap1\n      sload\n      swap1\n      0x0100\n      exp\n      swap1\n      div\n      0xff\n      and\n      dup2\n      jump\t// out\n        /* \"#utility.yul\":7:125   */\n    tag_57:\n        /* \"#utility.yul\":94:118   */\n      tag_59\n        /* \"#utility.yul\":112:117   */\n      dup2\n        /* \"#utility.yul\":94:118   */\n      tag_60\n      jump\t// in\n    tag_59:\n        /* \"#utility.yul\":89:92   */\n      dup3\n        /* \"#utility.yul\":82:119   */\n      mstore\n        /* \"#utility.yul\":7:125   */\n      pop\n      pop\n      jump\t// out\n        /* \"#utility.yul\":131:240   */\n    tag_61:\n        /* \"#utility.yul\":212:233   */\n      tag_63\n        /* \"#utility.yul\":227:232   */\n      dup2\n        /* \"#utility.yul\":212:233   */\n      tag_64\n      jump\t// in\n    tag_63:\n        /* \"#utility.yul\":207:210   */\n      dup3\n        /* \"#utility.yul\":200:234   */\n      mstore\n        /* \"#utility.yul\":131:240   */\n      pop\n      pop\n      jump\t// out\n        /* \"#utility.yul\":246:361   */\n    tag_65:\n        /* \"#utility.yul\":331:354   */\n      tag_67\n        /* \"#utility.yul\":348:353   */\n      dup2\n        /* \"#utility.yul\":331:354   */\n      tag_68\n      jump\t// in\n    tag_67:\n        /* \"#utility.yul\":326:329   */\n      dup3\n        /* \"#utility.yul\":319:355   */\n      mstore\n        /* \"#utility.yul\":246:361   */\n      pop\n      pop\n      jump\t// out\n        /* \"#utility.yul\":367:482   */\n    tag_69:\n        /* \"#utility.yul\":452:475   */\n      tag_71\n        /* \"#utility.yul\":469:474   */\n      dup2\n        /* \"#utility.yul\":452:475   */\n      tag_72\n      jump\t// in\n    tag_71:\n        /* \"#utility.yul\":447:450   */\n      dup3\n        /* \"#utility.yul\":440:476   */\n      mstore\n        /* \"#utility.yul\":367:482   */\n      pop\n      pop\n      jump\t// out\n        /* \"#utility.yul\":488:603   */\n    tag_73:\n        /* \"#utility.yul\":573:596   */\n      tag_75\n        /* \"#utility.yul\":590:595   */\n      dup2\n        /* \"#utility.yul\":573:596   */\n      tag_76\n      jump\t// in\n    tag_75:\n        /* \"#utility.yul\":568:571   */\n      dup3\n        /* \"#utility.yul\":561:597   */\n      mstore\n        /* \"#utility.yul\":488:603   */\n      pop\n      pop\n      jump\t// out\n        /* \"#utility.yul\":609:969   */\n    tag_77:\n        /* \"#utility.yul\":695:698   */\n      0x00\n        /* \"#utility.yul\":723:761   */\n      tag_79\n        /* \"#utility.yul\":755:760   */\n      dup3\n        /* \"#utility.yul\":723:761   */\n      tag_80\n      jump\t// in\n    tag_79:\n        /* \"#utility.yul\":777:847   */\n      tag_81\n        /* \"#utility.yul\":840:846   */\n      dup2\n        /* \"#utility.yul\":835:838   */\n      dup6\n        /* \"#utility.yul\":777:847   */\n      tag_82\n      jump\t// in\n    tag_81:\n        /* \"#utility.yul\":770:847   */\n      swap4\n      pop\n        /* \"#utility.yul\":856:908   */\n      tag_83\n        /* \"#utility.yul\":901:907   */\n      dup2\n        /* \"#utility.yul\":896:899   */\n      dup6\n        /* \"#utility.yul\":889:893   */\n      0x20\n        /* \"#utility.yul\":882:887   */\n      dup7\n        /* \"#utility.yul\":878:894   */\n      add\n        /* \"#utility.yul\":856:908   */\n      tag_84\n      jump\t// in\n    tag_83:\n        /* \"#utility.yul\":933:962   */\n      tag_85\n        /* \"#utility.yul\":955:961   */\n      dup2\n        /* \"#utility.yul\":933:962   */\n      tag_86\n      jump\t// in\n    tag_85:\n        /* \"#utility.yul\":928:931   */\n      dup5\n        /* \"#utility.yul\":924:963   */\n      add\n        /* \"#utility.yul\":917:963   */\n      swap2\n      pop\n        /* \"#utility.yul\":699:969   */\n      pop\n        /* \"#utility.yul\":609:969   */\n      swap3\n      swap2\n      pop\n      pop\n      jump\t// out\n        /* \"#utility.yul\":975:1197   */\n    tag_35:\n        /* \"#utility.yul\":1068:1072   */\n      0x00\n        /* \"#utility.yul\":1106:1108   */\n      0x20\n        /* \"#utility.yul\":1095:1104   */\n      dup3\n        /* \"#utility.yul\":1091:1109   */\n      add\n        /* \"#utility.yul\":1083:1109   */\n      swap1\n      pop\n        /* \"#utility.yul\":1119:1190   */\n      tag_88\n        /* \"#utility.yul\":1187:1188   */\n      0x00\n        /* \"#utility.yul\":1176:1185   */\n      dup4\n        /* \"#utility.yul\":1172:1189   */\n      add\n        /* \"#utility.yul\":1163:1169   */\n      dup5\n        /* \"#utility.yul\":1119:1190   */\n      tag_57\n      jump\t// in\n    tag_88:\n        /* \"#utility.yul\":975:1197   */\n      swap3\n      swap2\n      pop\n      pop\n      jump\t// out\n        /* \"#utility.yul\":1203:1413   */\n    tag_17:\n        /* \"#utility.yul\":1290:1294   */\n      0x00\n        /* \"#utility.yul\":1328:1330   */\n      0x20\n        /* \"#utility.yul\":1317:1326   */\n      dup3\n        /* \"#utility.yul\":1313:1331   */\n      add\n        /* \"#utility.yul\":1305:1331   */\n      swap1\n      pop\n        /* \"#utility.yul\":1341:1406   */\n      tag_90\n        /* \"#utility.yul\":1403:1404   */\n      0x00\n        /* \"#utility.yul\":1392:1401   */\n      dup4\n        /* \"#utility.yul\":1388:1405   */\n      add\n        /* \"#utility.yul\":1379:1385   */\n      dup5\n        /* \"#utility.yul\":1341:1406   */\n      tag_61\n      jump\t// in\n    tag_90:\n        /* \"#utility.yul\":1203:1413   */\n      swap3\n      swap2\n      pop\n      pop\n      jump\t// out\n        /* \"#utility.yul\":1419:1637   */\n    tag_43:\n        /* \"#utility.yul\":1510:1514   */\n      0x00\n        /* \"#utility.yul\":1548:1550   */\n      0x20\n        /* \"#utility.yul\":1537:1546   */\n      dup3\n        /* \"#utility.yul\":1533:1551   */\n      add\n        /* \"#utility.yul\":1525:1551   */\n      swap1\n      pop\n        /* \"#utility.yul\":1561:1630   */\n      tag_92\n        /* \"#utility.yul\":1627:1628   */\n      0x00\n        /* \"#utility.yul\":1616:1625   */\n      dup4\n        /* \"#utility.yul\":1612:1629   */\n      add\n        /* \"#utility.yul\":1603:1609   */\n      dup5\n        /* \"#utility.yul\":1561:1630   */\n      tag_65\n      jump\t// in\n    tag_92:\n        /* \"#utility.yul\":1419:1637   */\n      swap3\n      swap2\n      pop\n      pop\n      jump\t// out\n        /* \"#utility.yul\":1643:1861   */\n    tag_21:\n        /* \"#utility.yul\":1734:1738   */\n      0x00\n        /* \"#utility.yul\":1772:1774   */\n      0x20\n        /* \"#utility.yul\":1761:1770   */\n      dup3\n        /* \"#utility.yul\":1757:1775   */\n      add\n        /* \"#utility.yul\":1749:1775   */\n      swap1\n      pop\n        /* \"#utility.yul\":1785:1854   */\n      tag_94\n        /* \"#utility.yul\":1851:1852   */\n      0x00\n        /* \"#utility.yul\":1840:1849   */\n      dup4\n        /* \"#utility.yul\":1836:1853   */\n      add\n        /* \"#utility.yul\":1827:1833   */\n      dup5\n        /* \"#utility.yul\":1785:1854   */\n      tag_69\n      jump\t// in\n    tag_94:\n        /* \"#utility.yul\":1643:1861   */\n      swap3\n      swap2\n      pop\n      pop\n      jump\t// out\n        /* \"#utility.yul\":1867:2085   */\n    tag_25:\n        /* \"#utility.yul\":1958:1962   */\n      0x00\n        /* \"#utility.yul\":1996:1998   */\n      0x20\n        /* \"#utility.yul\":1985:1994   */\n      dup3\n        /* \"#utility.yul\":1981:1999   */\n      add\n        /* \"#utility.yul\":1973:1999   */\n      swap1\n      pop\n        /* \"#utility.yul\":2009:2078   */\n      tag_96\n        /* \"#utility.yul\":2075:2076   */\n      0x00\n        /* \"#utility.yul\":2064:2073   */\n      dup4\n        /* \"#utility.yul\":2060:2077   */\n      add\n        /* \"#utility.yul\":2051:2057   */\n      dup5\n        /* \"#utility.yul\":2009:2078   */\n      tag_73\n      jump\t// in\n    tag_96:\n        /* \"#utility.yul\":1867:2085   */\n      swap3\n      swap2\n      pop\n      pop\n      jump\t// out\n        /* \"#utility.yul\":2091:2400   */\n    tag_39:\n        /* \"#utility.yul\":2202:2206   */\n      0x00\n        /* \"#utility.yul\":2240:2242   */\n      0x20\n        /* \"#utility.yul\":2229:2238   */\n      dup3\n        /* \"#utility.yul\":2225:2243   */\n      add\n        /* \"#utility.yul\":2217:2243   */\n      swap1\n      pop\n        /* \"#utility.yul\":2289:2298   */\n      dup2\n        /* \"#utility.yul\":2283:2287   */\n      dup2\n        /* \"#utility.yul\":2279:2299   */\n      sub\n        /* \"#utility.yul\":2275:2276   */\n      0x00\n        /* \"#utility.yul\":2264:2273   */\n      dup4\n        /* \"#utility.yul\":2260:2277   */\n      add\n        /* \"#utility.yul\":2253:2300   */\n      mstore\n        /* \"#utility.yul\":2317:2393   */\n      tag_98\n        /* \"#utility.yul\":2388:2392   */\n      dup2\n        /* \"#utility.yul\":2379:2385   */\n      dup5\n        /* \"#utility.yul\":2317:2393   */\n      tag_77\n      jump\t// in\n    tag_98:\n        /* \"#utility.yul\":2309:2393   */\n      swap1\n      pop\n        /* \"#utility.yul\":2091:2400   */\n      swap3\n      swap2\n      pop\n      pop\n      jump\t// out\n        /* \"#utility.yul\":2406:2504   */\n    tag_80:\n        /* \"#utility.yul\":2457:2463   */\n      0x00\n        /* \"#utility.yul\":2491:2496   */\n      dup2\n        /* \"#utility.yul\":2485:2497   */\n      mload\n        /* \"#utility.yul\":2475:2497   */\n      swap1\n      pop\n        /* \"#utility.yul\":2406:2504   */\n      swap2\n      swap1\n      pop\n      jump\t// out\n        /* \"#utility.yul\":2510:2678   */\n    tag_82:\n        /* \"#utility.yul\":2593:2604   */\n      0x00\n        /* \"#utility.yul\":2627:2633   */\n      dup3\n        /* \"#utility.yul\":2622:2625   */\n      dup3\n        /* \"#utility.yul\":2615:2634   */\n      mstore\n        /* \"#utility.yul\":2667:2671   */\n      0x20\n        /* \"#utility.yul\":2662:2665   */\n      dup3\n        /* \"#utility.yul\":2658:2672   */\n      add\n        /* \"#utility.yul\":2643:2672   */\n      swap1\n      pop\n        /* \"#utility.yul\":2510:2678   */\n      swap3\n      swap2\n      pop\n      pop\n      jump\t// out\n        /* \"#utility.yul\":2684:2780   */\n    tag_60:\n        /* \"#utility.yul\":2721:2728   */\n      0x00\n        /* \"#utility.yul\":2750:2774   */\n      tag_102\n        /* \"#utility.yul\":2768:2773   */\n      dup3\n        /* \"#utility.yul\":2750:2774   */\n      tag_103\n      jump\t// in\n    tag_102:\n        /* \"#utility.yul\":2739:2774   */\n      swap1\n      pop\n        /* \"#utility.yul\":2684:2780   */\n      swap2\n      swap1\n      pop\n      jump\t// out\n        /* \"#utility.yul\":2786:2876   */\n    tag_64:\n        /* \"#utility.yul\":2820:2827   */\n      0x00\n        /* \"#utility.yul\":2863:2868   */\n      dup2\n        /* \"#utility.yul\":2856:2869   */\n      iszero\n        /* \"#utility.yul\":2849:2870   */\n      iszero\n        /* \"#utility.yul\":2838:2870   */\n      swap1\n      pop\n        /* \"#utility.yul\":2786:2876   */\n      swap2\n      swap1\n      pop\n      jump\t// out\n        /* \"#utility.yul\":2882:3031   */\n    tag_68:\n        /* \"#utility.yul\":2918:2925   */\n      0x00\n        /* \"#utility.yul\":2958:3024   */\n      0xff00000000000000000000000000000000000000000000000000000000000000\n        /* \"#utility.yul\":2951:2956   */\n      dup3\n        /* \"#utility.yul\":2947:3025   */\n      and\n        /* \"#utility.yul\":2936:3025   */\n      swap1\n      pop\n        /* \"#utility.yul\":2882:3031   */\n      swap2\n      swap1\n      pop\n      jump\t// out\n        /* \"#utility.yul\":3037:3186   */\n    tag_72:\n        /* \"#utility.yul\":3073:3080   */\n      0x00\n        /* \"#utility.yul\":3113:3179   */\n      0xffffffff00000000000000000000000000000000000000000000000000000000\n        /* \"#utility.yul\":3106:3111   */\n      dup3\n        /* \"#utility.yul\":3102:3180   */\n      and\n        /* \"#utility.yul\":3091:3180   */\n      swap1\n      pop\n        /* \"#utility.yul\":3037:3186   */\n      swap2\n      swap1\n      pop\n      jump\t// out\n        /* \"#utility.yul\":3192:3341   */\n    tag_76:\n        /* \"#utility.yul\":3228:3235   */\n      0x00\n        /* \"#utility.yul\":3268:3334   */\n      0xffffffffff000000000000000000000000000000000000000000000000000000\n        /* \"#utility.yul\":3261:3266   */\n      dup3\n        /* \"#utility.yul\":3257:3335   */\n      and\n        /* \"#utility.yul\":3246:3335   */\n      swap1\n      pop\n        /* \"#utility.yul\":3192:3341   */\n      swap2\n      swap1\n      pop\n      jump\t// out\n        /* \"#utility.yul\":3347:3473   */\n    tag_103:\n        /* \"#utility.yul\":3384:3391   */\n      0x00\n        /* \"#utility.yul\":3424:3466   */\n      0xffffffffffffffffffffffffffffffffffffffff\n        /* \"#utility.yul\":3417:3422   */\n      dup3\n        /* \"#utility.yul\":3413:3467   */\n      and\n        /* \"#utility.yul\":3402:3467   */\n      swap1\n      pop\n        /* \"#utility.yul\":3347:3473   */\n      swap2\n      swap1\n      pop\n      jump\t// out\n        /* \"#utility.yul\":3479:3786   */\n    tag_84:\n        /* \"#utility.yul\":3547:3548   */\n      0x00\n        /* \"#utility.yul\":3557:3670   */\n    tag_110:\n        /* \"#utility.yul\":3571:3577   */\n      dup4\n        /* \"#utility.yul\":3568:3569   */\n      dup2\n        /* \"#utility.yul\":3565:3578   */\n      lt\n        /* \"#utility.yul\":3557:3670   */\n      iszero\n      tag_112\n      jumpi\n        /* \"#utility.yul\":3656:3657   */\n      dup1\n        /* \"#utility.yul\":3651:3654   */\n      dup3\n        /* \"#utility.yul\":3647:3658   */\n      add\n        /* \"#utility.yul\":3641:3659   */\n      mload\n        /* \"#utility.yul\":3637:3638   */\n      dup2\n        /* \"#utility.yul\":3632:3635   */\n      dup5\n        /* \"#utility.yul\":3628:3639   */\n      add\n        /* \"#utility.yul\":3621:3660   */\n      mstore\n        /* \"#utility.yul\":3593:3595   */\n      0x20\n        /* \"#utility.yul\":3590:3591   */\n      dup2\n        /* \"#utility.yul\":3586:3596   */\n      add\n        /* \"#utility.yul\":3581:3596   */\n      swap1\n      pop\n        /* \"#utility.yul\":3557:3670   */\n      jump(tag_110)\n    tag_112:\n        /* \"#utility.yul\":3688:3694   */\n      dup4\n        /* \"#utility.yul\":3685:3686   */\n      dup2\n        /* \"#utility.yul\":3682:3695   */\n      gt\n        /* \"#utility.yul\":3679:3780   */\n      iszero\n      tag_113\n      jumpi\n        /* \"#utility.yul\":3768:3769   */\n      0x00\n        /* \"#utility.yul\":3759:3765   */\n      dup5\n        /* \"#utility.yul\":3754:3757   */\n      dup5\n        /* \"#utility.yul\":3750:3766   */\n      add\n        /* \"#utility.yul\":3743:3770   */\n      mstore\n        /* \"#utility.yul\":3679:3780   */\n    tag_113:\n        /* \"#utility.yul\":3528:3786   */\n      pop\n        /* \"#utility.yul\":3479:3786   */\n      pop\n      pop\n      pop\n      jump\t// out\n        /* \"#utility.yul\":3792:4112   */\n    tag_51:\n        /* \"#utility.yul\":3836:3842   */\n      0x00\n        /* \"#utility.yul\":3873:3874   */\n      0x02\n        /* \"#utility.yul\":3867:3871   */\n      dup3\n        /* \"#utility.yul\":3863:3875   */\n      div\n        /* \"#utility.yul\":3853:3875   */\n      swap1\n      pop\n        /* \"#utility.yul\":3920:3921   */\n      0x01\n        /* \"#utility.yul\":3914:3918   */\n      dup3\n        /* \"#utility.yul\":3910:3922   */\n      and\n        /* \"#utility.yul\":3941:3959   */\n      dup1\n        /* \"#utility.yul\":3931:4012   */\n      tag_115\n      jumpi\n        /* \"#utility.yul\":3997:4001   */\n      0x7f\n        /* \"#utility.yul\":3989:3995   */\n      dup3\n        /* \"#utility.yul\":3985:4002   */\n      and\n        /* \"#utility.yul\":3975:4002   */\n      swap2\n      pop\n        /* \"#utility.yul\":3931:4012   */\n    tag_115:\n        /* \"#utility.yul\":4059:4061   */\n      0x20\n        /* \"#utility.yul\":4051:4057   */\n      dup3\n        /* \"#utility.yul\":4048:4062   */\n      lt\n        /* \"#utility.yul\":4028:4046   */\n      dup2\n        /* \"#utility.yul\":4025:4063   */\n      eq\n        /* \"#utility.yul\":4022:4106   */\n      iszero\n      tag_116\n      jumpi\n        /* \"#utility.yul\":4078:4096   */\n      tag_117\n      tag_118\n      jump\t// in\n    tag_117:\n        /* \"#utility.yul\":4022:4106   */\n    tag_116:\n        /* \"#utility.yul\":3843:4112   */\n      pop\n        /* \"#utility.yul\":3792:4112   */\n      swap2\n      swap1\n      pop\n      jump\t// out\n        /* \"#utility.yul\":4118:4298   */\n    tag_118:\n        /* \"#utility.yul\":4166:4243   */\n      0x4e487b7100000000000000000000000000000000000000000000000000000000\n        /* \"#utility.yul\":4163:4164   */\n      0x00\n        /* \"#utility.yul\":4156:4244   */\n      mstore\n        /* \"#utility.yul\":4263:4267   */\n      0x22\n        /* \"#utility.yul\":4260:4261   */\n      0x04\n        /* \"#utility.yul\":4253:4268   */\n      mstore\n        /* \"#utility.yul\":4287:4291   */\n      0x24\n        /* \"#utility.yul\":4284:4285   */\n      0x00\n        /* \"#utility.yul\":4277:4292   */\n      revert\n        /* \"#utility.yul\":4304:4406   */\n    tag_86:\n        /* \"#utility.yul\":4345:4351   */\n      0x00\n        /* \"#utility.yul\":4396:4398   */\n      0x1f\n        /* \"#utility.yul\":4392:4399   */\n      not\n        /* \"#utility.yul\":4387:4389   */\n      0x1f\n        /* \"#utility.yul\":4380:4385   */\n      dup4\n        /* \"#utility.yul\":4376:4390   */\n      add\n        /* \"#utility.yul\":4372:4400   */\n      and\n        /* \"#utility.yul\":4362:4400   */\n      swap1\n      pop\n        /* \"#utility.yul\":4304:4406   */\n      swap2\n      swap1\n      pop\n      jump\t// out\n\n    auxdata: 0xa26469706673582212206f42114a8a8f4adc42c614ad5115764e0fb6da9987fcba83aac5c3124f6d9a0664736f6c63430008070033\n}\n",
				"bytecode": {
					"linkReferences": {},
					"object": "608060405260008060006101000a81548160ff021916908315150217905550600015600060016101000a81548160ff021916908315150217905550600080610045575060015b600060026101000a81548160ff021916908315150217905550600115156000151514600060036101000a81548160ff0219169083151502179055506000801561008c575060015b600060046101000a81548160ff021916908315150217905550601260f81b600060056101000a81548160ff021916908360f81c0217905550631234567860e01b600060066101000a81548163ffffffff021916908360e01c021790555064123456789060d81b6000600a6101000a81548164ffffffffff021916908360d81c02179055506040518060400160405280600681526020017f737472696e6700000000000000000000000000000000000000000000000000008152506001908051906020019061015b9291906101c3565b5073d8b934580fce35a11b58c6d73adee468a2833fa8600260006101000a81548173ffffffffffffffffffffffffffffffffffffffff021916908373ffffffffffffffffffffffffffffffffffffffff1602179055503480156101bd57600080fd5b506102c7565b8280546101cf90610266565b90600052602060002090601f0160209004810192826101f15760008555610238565b82601f1061020a57805160ff1916838001178555610238565b82800160010185558215610238579182015b8281111561023757825182559160200191906001019061021c565b5b5090506102459190610249565b5090565b5b8082111561026257600081600090555060010161024a565b5090565b6000600282049050600182168061027e57607f821691505b6020821081141561029257610291610298565b5b50919050565b7f4e487b7100000000000000000000000000000000000000000000000000000000600052602260045260246000fd5b6105ff806102d66000396000f3fe608060405234801561001057600080fd5b506004361061009e5760003560e01c8063767800de11610066578063767800de14610139578063c862230c14610157578063cb6f197e14610175578063e9b6190914610193578063ee495002146101b15761009e565b80630add6ef2146100a357806312c9e787146100c15780632469b987146100df5780633db3fb0a146100fd5780634df7e3d01461011b575b600080fd5b6100ab6101cf565b6040516100b891906103b8565b60405180910390f35b6100c96101e2565b6040516100d691906103ee565b60405180910390f35b6100e76101f5565b6040516100f49190610409565b60405180910390f35b610105610208565b60405161011291906103b8565b60405180910390f35b61012361021b565b60405161013091906103b8565b60405180910390f35b61014161022c565b60405161014e919061039d565b60405180910390f35b61015f610252565b60405161016c9190610424565b60405180910390f35b61017d6102e0565b60405161018a91906103d3565b60405180910390f35b61019b6102f3565b6040516101a891906103b8565b60405180910390f35b6101b9610306565b6040516101c691906103b8565b60405180910390f35b600060029054906101000a900460ff1681565b600060069054906101000a900460e01b81565b6000600a9054906101000a900460d81b81565b600060049054906101000a900460ff1681565b60008054906101000a900460ff1681565b600260009054906101000a900473ffffffffffffffffffffffffffffffffffffffff1681565b6001805461025f90610557565b80601f016020809104026020016040519081016040528092919081815260200182805461028b90610557565b80156102d85780601f106102ad576101008083540402835291602001916102d8565b820191906000526020600020905b8154815290600101906020018083116102bb57829003601f168201915b505050505081565b600060059054906101000a900460f81b81565b600060039054906101000a900460ff1681565b600060019054906101000a900460ff1681565b61032281610462565b82525050565b61033181610474565b82525050565b61034081610480565b82525050565b61034f816104ac565b82525050565b61035e816104d8565b82525050565b600061036f82610446565b6103798185610451565b9350610389818560208601610524565b610392816105b8565b840191505092915050565b60006020820190506103b26000830184610319565b92915050565b60006020820190506103cd6000830184610328565b92915050565b60006020820190506103e86000830184610337565b92915050565b60006020820190506104036000830184610346565b92915050565b600060208201905061041e6000830184610355565b92915050565b6000602082019050818103600083015261043e8184610364565b905092915050565b600081519050919050565b600082825260208201905092915050565b600061046d82610504565b9050919050565b60008115159050919050565b60007fff0000000000000000000000000000000000000000000000000000000000000082169050919050565b60007fffffffff0000000000000000000000000000000000000000000000000000000082169050919050565b60007fffffffffff00000000000000000000000000000000000000000000000000000082169050919050565b600073ffffffffffffffffffffffffffffffffffffffff82169050919050565b60005b83811015610542578082015181840152602081019050610527565b83811115610551576000848401525b50505050565b6000600282049050600182168061056f57607f821691505b6020821081141561058357610582610589565b5b50919050565b7f4e487b7100000000000000000000000000000000000000000000000000000000600052602260045260246000fd5b6000601f19601f830116905091905056fea26469706673582212206f42114a8a8f4adc42c614ad5115764e0fb6da9987fcba83aac5c3124f6d9a0664736f6c63430008070033",
					"opcodes": "PUSH1 0x80 PUSH1 0x40 MSTORE PUSH1 0x0 DUP1 PUSH1 0x0 PUSH2 0x100 EXP DUP2 SLOAD DUP2 PUSH1 0xFF MUL NOT AND SWAP1 DUP4 ISZERO ISZERO MUL OR SWAP1 SSTORE POP PUSH1 0x0 ISZERO PUSH1 0x0 PUSH1 0x1 PUSH2 0x100 EXP DUP2 SLOAD DUP2 PUSH1 0xFF MUL NOT AND SWAP1 DUP4 ISZERO ISZERO MUL OR SWAP1 SSTORE POP PUSH1 0x0 DUP1 PUSH2 0x45 JUMPI POP PUSH1 0x1 JUMPDEST PUSH1 0x0 PUSH1 0x2 PUSH2 0x100 EXP DUP2 SLOAD DUP2 PUSH1 0xFF MUL NOT AND SWAP1 DUP4 ISZERO ISZERO MUL OR SWAP1 SSTORE POP PUSH1 0x1 ISZERO ISZERO PUSH1 0x0 ISZERO ISZERO EQ PUSH1 0x0 PUSH1 0x3 PUSH2 0x100 EXP DUP2 SLOAD DUP2 PUSH1 0xFF MUL NOT AND SWAP1 DUP4 ISZERO ISZERO MUL OR SWAP1 SSTORE POP PUSH1 0x0 DUP1 ISZERO PUSH2 0x8C JUMPI POP PUSH1 0x1 JUMPDEST PUSH1 0x0 PUSH1 0x4 PUSH2 0x100 EXP DUP2 SLOAD DUP2 PUSH1 0xFF MUL NOT AND SWAP1 DUP4 ISZERO ISZERO MUL OR SWAP1 SSTORE POP PUSH1 0x12 PUSH1 0xF8 SHL PUSH1 0x0 PUSH1 0x5 PUSH2 0x100 EXP DUP2 SLOAD DUP2 PUSH1 0xFF MUL NOT AND SWAP1 DUP4 PUSH1 0xF8 SHR MUL OR SWAP1 SSTORE POP PUSH4 0x12345678 PUSH1 0xE0 SHL PUSH1 0x0 PUSH1 0x6 PUSH2 0x100 EXP DUP2 SLOAD DUP2 PUSH4 0xFFFFFFFF MUL NOT AND SWAP1 DUP4 PUSH1 0xE0 SHR MUL OR SWAP1 SSTORE POP PUSH5 0x1234567890 PUSH1 0xD8 SHL PUSH1 0x0 PUSH1 0xA PUSH2 0x100 EXP DUP2 SLOAD DUP2 PUSH5 0xFFFFFFFFFF MUL NOT AND SWAP1 DUP4 PUSH1 0xD8 SHR MUL OR SWAP1 SSTORE POP PUSH1 0x40 MLOAD DUP1 PUSH1 0x40 ADD PUSH1 0x40 MSTORE DUP1 PUSH1 0x6 DUP2 MSTORE PUSH1 0x20 ADD PUSH32 0x737472696E670000000000000000000000000000000000000000000000000000 DUP2 MSTORE POP PUSH1 0x1 SWAP1 DUP1 MLOAD SWAP1 PUSH1 0x20 ADD SWAP1 PUSH2 0x15B SWAP3 SWAP2 SWAP1 PUSH2 0x1C3 JUMP JUMPDEST POP PUSH20 0xD8B934580FCE35A11B58C6D73ADEE468A2833FA8 PUSH1 0x2 PUSH1 0x0 PUSH2 0x100 EXP DUP2 SLOAD DUP2 PUSH20 0xFFFFFFFFFFFFFFFFFFFFFFFFFFFFFFFFFFFFFFFF MUL NOT AND SWAP1 DUP4 PUSH20 0xFFFFFFFFFFFFFFFFFFFFFFFFFFFFFFFFFFFFFFFF AND MUL OR SWAP1 SSTORE POP CALLVALUE DUP1 ISZERO PUSH2 0x1BD JUMPI PUSH1 0x0 DUP1 REVERT JUMPDEST POP PUSH2 0x2C7 JUMP JUMPDEST DUP3 DUP1 SLOAD PUSH2 0x1CF SWAP1 PUSH2 0x266 JUMP JUMPDEST SWAP1 PUSH1 0x0 MSTORE PUSH1 0x20 PUSH1 0x0 KECCAK256 SWAP1 PUSH1 0x1F ADD PUSH1 0x20 SWAP1 DIV DUP2 ADD SWAP3 DUP3 PUSH2 0x1F1 JUMPI PUSH1 0x0 DUP6 SSTORE PUSH2 0x238 JUMP JUMPDEST DUP3 PUSH1 0x1F LT PUSH2 0x20A JUMPI DUP1 MLOAD PUSH1 0xFF NOT AND DUP4 DUP1 ADD OR DUP6 SSTORE PUSH2 0x238 JUMP JUMPDEST DUP3 DUP1 ADD PUSH1 0x1 ADD DUP6 SSTORE DUP3 ISZERO PUSH2 0x238 JUMPI SWAP2 DUP3 ADD JUMPDEST DUP3 DUP2 GT ISZERO PUSH2 0x237 JUMPI DUP3 MLOAD DUP3 SSTORE SWAP2 PUSH1 0x20 ADD SWAP2 SWAP1 PUSH1 0x1 ADD SWAP1 PUSH2 0x21C JUMP JUMPDEST JUMPDEST POP SWAP1 POP PUSH2 0x245 SWAP2 SWAP1 PUSH2 0x249 JUMP JUMPDEST POP SWAP1 JUMP JUMPDEST JUMPDEST DUP1 DUP3 GT ISZERO PUSH2 0x262 JUMPI PUSH1 0x0 DUP2 PUSH1 0x0 SWAP1 SSTORE POP PUSH1 0x1 ADD PUSH2 0x24A JUMP JUMPDEST POP SWAP1 JUMP JUMPDEST PUSH1 0x0 PUSH1 0x2 DUP3 DIV SWAP1 POP PUSH1 0x1 DUP3 AND DUP1 PUSH2 0x27E JUMPI PUSH1 0x7F DUP3 AND SWAP2 POP JUMPDEST PUSH1 0x20 DUP3 LT DUP2 EQ ISZERO PUSH2 0x292 JUMPI PUSH2 0x291 PUSH2 0x298 JUMP JUMPDEST JUMPDEST POP SWAP2 SWAP1 POP JUMP JUMPDEST PUSH32 0x4E487B7100000000000000000000000000000000000000000000000000000000 PUSH1 0x0 MSTORE PUSH1 0x22 PUSH1 0x4 MSTORE PUSH1 0x24 PUSH1 0x0 REVERT JUMPDEST PUSH2 0x5FF DUP1 PUSH2 0x2D6 PUSH1 0x0 CODECOPY PUSH1 0x0 RETURN INVALID PUSH1 0x80 PUSH1 0x40 MSTORE CALLVALUE DUP1 ISZERO PUSH2 0x10 JUMPI PUSH1 0x0 DUP1 REVERT JUMPDEST POP PUSH1 0x4 CALLDATASIZE LT PUSH2 0x9E JUMPI PUSH1 0x0 CALLDATALOAD PUSH1 0xE0 SHR DUP1 PUSH4 0x767800DE GT PUSH2 0x66 JUMPI DUP1 PUSH4 0x767800DE EQ PUSH2 0x139 JUMPI DUP1 PUSH4 0xC862230C EQ PUSH2 0x157 JUMPI DUP1 PUSH4 0xCB6F197E EQ PUSH2 0x175 JUMPI DUP1 PUSH4 0xE9B61909 EQ PUSH2 0x193 JUMPI DUP1 PUSH4 0xEE495002 EQ PUSH2 0x1B1 JUMPI PUSH2 0x9E JUMP JUMPDEST DUP1 PUSH4 0xADD6EF2 EQ PUSH2 0xA3 JUMPI DUP1 PUSH4 0x12C9E787 EQ PUSH2 0xC1 JUMPI DUP1 PUSH4 0x2469B987 EQ PUSH2 0xDF JUMPI DUP1 PUSH4 0x3DB3FB0A EQ PUSH2 0xFD JUMPI DUP1 PUSH4 0x4DF7E3D0 EQ PUSH2 0x11B JUMPI JUMPDEST PUSH1 0x0 DUP1 REVERT JUMPDEST PUSH2 0xAB PUSH2 0x1CF JUMP JUMPDEST PUSH1 0x40 MLOAD PUSH2 0xB8 SWAP2 SWAP1 PUSH2 0x3B8 JUMP JUMPDEST PUSH1 0x40 MLOAD DUP1 SWAP2 SUB SWAP1 RETURN JUMPDEST PUSH2 0xC9 PUSH2 0x1E2 JUMP JUMPDEST PUSH1 0x40 MLOAD PUSH2 0xD6 SWAP2 SWAP1 PUSH2 0x3EE JUMP JUMPDEST PUSH1 0x40 MLOAD DUP1 SWAP2 SUB SWAP1 RETURN JUMPDEST PUSH2 0xE7 PUSH2 0x1F5 JUMP JUMPDEST PUSH1 0x40 MLOAD PUSH2 0xF4 SWAP2 SWAP1 PUSH2 0x409 JUMP JUMPDEST PUSH1 0x40 MLOAD DUP1 SWAP2 SUB SWAP1 RETURN JUMPDEST PUSH2 0x105 PUSH2 0x208 JUMP JUMPDEST PUSH1 0x40 MLOAD PUSH2 0x112 SWAP2 SWAP1 PUSH2 0x3B8 JUMP JUMPDEST PUSH1 0x40 MLOAD DUP1 SWAP2 SUB SWAP1 RETURN JUMPDEST PUSH2 0x123 PUSH2 0x21B JUMP JUMPDEST PUSH1 0x40 MLOAD PUSH2 0x130 SWAP2 SWAP1 PUSH2 0x3B8 JUMP JUMPDEST PUSH1 0x40 MLOAD DUP1 SWAP2 SUB SWAP1 RETURN JUMPDEST PUSH2 0x141 PUSH2 0x22C JUMP JUMPDEST PUSH1 0x40 MLOAD PUSH2 0x14E SWAP2 SWAP1 PUSH2 0x39D JUMP JUMPDEST PUSH1 0x40 MLOAD DUP1 SWAP2 SUB SWAP1 RETURN JUMPDEST PUSH2 0x15F PUSH2 0x252 JUMP JUMPDEST PUSH1 0x40 MLOAD PUSH2 0x16C SWAP2 SWAP1 PUSH2 0x424 JUMP JUMPDEST PUSH1 0x40 MLOAD DUP1 SWAP2 SUB SWAP1 RETURN JUMPDEST PUSH2 0x17D PUSH2 0x2E0 JUMP JUMPDEST PUSH1 0x40 MLOAD PUSH2 0x18A SWAP2 SWAP1 PUSH2 0x3D3 JUMP JUMPDEST PUSH1 0x40 MLOAD DUP1 SWAP2 SUB SWAP1 RETURN JUMPDEST PUSH2 0x19B PUSH2 0x2F3 JUMP JUMPDEST PUSH1 0x40 MLOAD PUSH2 0x1A8 SWAP2 SWAP1 PUSH2 0x3B8 JUMP JUMPDEST PUSH1 0x40 MLOAD DUP1 SWAP2 SUB SWAP1 RETURN JUMPDEST PUSH2 0x1B9 PUSH2 0x306 JUMP JUMPDEST PUSH1 0x40 MLOAD PUSH2 0x1C6 SWAP2 SWAP1 PUSH2 0x3B8 JUMP JUMPDEST PUSH1 0x40 MLOAD DUP1 SWAP2 SUB SWAP1 RETURN JUMPDEST PUSH1 0x0 PUSH1 0x2 SWAP1 SLOAD SWAP1 PUSH2 0x100 EXP SWAP1 DIV PUSH1 0xFF AND DUP2 JUMP JUMPDEST PUSH1 0x0 PUSH1 0x6 SWAP1 SLOAD SWAP1 PUSH2 0x100 EXP SWAP1 DIV PUSH1 0xE0 SHL DUP2 JUMP JUMPDEST PUSH1 0x0 PUSH1 0xA SWAP1 SLOAD SWAP1 PUSH2 0x100 EXP SWAP1 DIV PUSH1 0xD8 SHL DUP2 JUMP JUMPDEST PUSH1 0x0 PUSH1 0x4 SWAP1 SLOAD SWAP1 PUSH2 0x100 EXP SWAP1 DIV PUSH1 0xFF AND DUP2 JUMP JUMPDEST PUSH1 0x0 DUP1 SLOAD SWAP1 PUSH2 0x100 EXP SWAP1 DIV PUSH1 0xFF AND DUP2 JUMP JUMPDEST PUSH1 0x2 PUSH1 0x0 SWAP1 SLOAD SWAP1 PUSH2 0x100 EXP SWAP1 DIV PUSH20 0xFFFFFFFFFFFFFFFFFFFFFFFFFFFFFFFFFFFFFFFF AND DUP2 JUMP JUMPDEST PUSH1 0x1 DUP1 SLOAD PUSH2 0x25F SWAP1 PUSH2 0x557 JUMP JUMPDEST DUP1 PUSH1 0x1F ADD PUSH1 0x20 DUP1 SWAP2 DIV MUL PUSH1 0x20 ADD PUSH1 0x40 MLOAD SWAP1 DUP2 ADD PUSH1 0x40 MSTORE DUP1 SWAP3 SWAP2 SWAP1 DUP2 DUP2 MSTORE PUSH1 0x20 ADD DUP3 DUP1 SLOAD PUSH2 0x28B SWAP1 PUSH2 0x557 JUMP JUMPDEST DUP1 ISZERO PUSH2 0x2D8 JUMPI DUP1 PUSH1 0x1F LT PUSH2 0x2AD JUMPI PUSH2 0x100 DUP1 DUP4 SLOAD DIV MUL DUP4 MSTORE SWAP2 PUSH1 0x20 ADD SWAP2 PUSH2 0x2D8 JUMP JUMPDEST DUP3 ADD SWAP2 SWAP1 PUSH1 0x0 MSTORE PUSH1 0x20 PUSH1 0x0 KECCAK256 SWAP1 JUMPDEST DUP2 SLOAD DUP2 MSTORE SWAP1 PUSH1 0x1 ADD SWAP1 PUSH1 0x20 ADD DUP1 DUP4 GT PUSH2 0x2BB JUMPI DUP3 SWAP1 SUB PUSH1 0x1F AND DUP3 ADD SWAP2 JUMPDEST POP POP POP POP POP DUP2 JUMP JUMPDEST PUSH1 0x0 PUSH1 0x5 SWAP1 SLOAD SWAP1 PUSH2 0x100 EXP SWAP1 DIV PUSH1 0xF8 SHL DUP2 JUMP JUMPDEST PUSH1 0x0 PUSH1 0x3 SWAP1 SLOAD SWAP1 PUSH2 0x100 EXP SWAP1 DIV PUSH1 0xFF AND DUP2 JUMP JUMPDEST PUSH1 0x0 PUSH1 0x1 SWAP1 SLOAD SWAP1 PUSH2 0x100 EXP SWAP1 DIV PUSH1 0xFF AND DUP2 JUMP JUMPDEST PUSH2 0x322 DUP2 PUSH2 0x462 JUMP JUMPDEST DUP3 MSTORE POP POP JUMP JUMPDEST PUSH2 0x331 DUP2 PUSH2 0x474 JUMP JUMPDEST DUP3 MSTORE POP POP JUMP JUMPDEST PUSH2 0x340 DUP2 PUSH2 0x480 JUMP JUMPDEST DUP3 MSTORE POP POP JUMP JUMPDEST PUSH2 0x34F DUP2 PUSH2 0x4AC JUMP JUMPDEST DUP3 MSTORE POP POP JUMP JUMPDEST PUSH2 0x35E DUP2 PUSH2 0x4D8 JUMP JUMPDEST DUP3 MSTORE POP POP JUMP JUMPDEST PUSH1 0x0 PUSH2 0x36F DUP3 PUSH2 0x446 JUMP JUMPDEST PUSH2 0x379 DUP2 DUP6 PUSH2 0x451 JUMP JUMPDEST SWAP4 POP PUSH2 0x389 DUP2 DUP6 PUSH1 0x20 DUP7 ADD PUSH2 0x524 JUMP JUMPDEST PUSH2 0x392 DUP2 PUSH2 0x5B8 JUMP JUMPDEST DUP5 ADD SWAP2 POP POP SWAP3 SWAP2 POP POP JUMP JUMPDEST PUSH1 0x0 PUSH1 0x20 DUP3 ADD SWAP1 POP PUSH2 0x3B2 PUSH1 0x0 DUP4 ADD DUP5 PUSH2 0x319 JUMP JUMPDEST SWAP3 SWAP2 POP POP JUMP JUMPDEST PUSH1 0x0 PUSH1 0x20 DUP3 ADD SWAP1 POP PUSH2 0x3CD PUSH1 0x0 DUP4 ADD DUP5 PUSH2 0x328 JUMP JUMPDEST SWAP3 SWAP2 POP POP JUMP JUMPDEST PUSH1 0x0 PUSH1 0x20 DUP3 ADD SWAP1 POP PUSH2 0x3E8 PUSH1 0x0 DUP4 ADD DUP5 PUSH2 0x337 JUMP JUMPDEST SWAP3 SWAP2 POP POP JUMP JUMPDEST PUSH1 0x0 PUSH1 0x20 DUP3 ADD SWAP1 POP PUSH2 0x403 PUSH1 0x0 DUP4 ADD DUP5 PUSH2 0x346 JUMP JUMPDEST SWAP3 SWAP2 POP POP JUMP JUMPDEST PUSH1 0x0 PUSH1 0x20 DUP3 ADD SWAP1 POP PUSH2 0x41E PUSH1 0x0 DUP4 ADD DUP5 PUSH2 0x355 JUMP JUMPDEST SWAP3 SWAP2 POP POP JUMP JUMPDEST PUSH1 0x0 PUSH1 0x20 DUP3 ADD SWAP1 POP DUP2 DUP2 SUB PUSH1 0x0 DUP4 ADD MSTORE PUSH2 0x43E DUP2 DUP5 PUSH2 0x364 JUMP JUMPDEST SWAP1 POP SWAP3 SWAP2 POP POP JUMP JUMPDEST PUSH1 0x0 DUP2 MLOAD SWAP1 POP SWAP2 SWAP1 POP JUMP JUMPDEST PUSH1 0x0 DUP3 DUP3 MSTORE PUSH1 0x20 DUP3 ADD SWAP1 POP SWAP3 SWAP2 POP POP JUMP JUMPDEST PUSH1 0x0 PUSH2 0x46D DUP3 PUSH2 0x504 JUMP JUMPDEST SWAP1 POP SWAP2 SWAP1 POP JUMP JUMPDEST PUSH1 0x0 DUP2 ISZERO ISZERO SWAP1 POP SWAP2 SWAP1 POP JUMP JUMPDEST PUSH1 0x0 PUSH32 0xFF00000000000000000000000000000000000000000000000000000000000000 DUP3 AND SWAP1 POP SWAP2 SWAP1 POP JUMP JUMPDEST PUSH1 0x0 PUSH32 0xFFFFFFFF00000000000000000000000000000000000000000000000000000000 DUP3 AND SWAP1 POP SWAP2 SWAP1 POP JUMP JUMPDEST PUSH1 0x0 PUSH32 0xFFFFFFFFFF000000000000000000000000000000000000000000000000000000 DUP3 AND SWAP1 POP SWAP2 SWAP1 POP JUMP JUMPDEST PUSH1 0x0 PUSH20 0xFFFFFFFFFFFFFFFFFFFFFFFFFFFFFFFFFFFFFFFF DUP3 AND SWAP1 POP SWAP2 SWAP1 POP JUMP JUMPDEST PUSH1 0x0 JUMPDEST DUP4 DUP2 LT ISZERO PUSH2 0x542 JUMPI DUP1 DUP3 ADD MLOAD DUP2 DUP5 ADD MSTORE PUSH1 0x20 DUP2 ADD SWAP1 POP PUSH2 0x527 JUMP JUMPDEST DUP4 DUP2 GT ISZERO PUSH2 0x551 JUMPI PUSH1 0x0 DUP5 DUP5 ADD MSTORE JUMPDEST POP POP POP POP JUMP JUMPDEST PUSH1 0x0 PUSH1 0x2 DUP3 DIV SWAP1 POP PUSH1 0x1 DUP3 AND DUP1 PUSH2 0x56F JUMPI PUSH1 0x7F DUP3 AND SWAP2 POP JUMPDEST PUSH1 0x20 DUP3 LT DUP2 EQ ISZERO PUSH2 0x583 JUMPI PUSH2 0x582 PUSH2 0x589 JUMP JUMPDEST JUMPDEST POP SWAP2 SWAP1 POP JUMP JUMPDEST PUSH32 0x4E487B7100000000000000000000000000000000000000000000000000000000 PUSH1 0x0 MSTORE PUSH1 0x22 PUSH1 0x4 MSTORE PUSH1 0x24 PUSH1 0x0 REVERT JUMPDEST PUSH1 0x0 PUSH1 0x1F NOT PUSH1 0x1F DUP4 ADD AND SWAP1 POP SWAP2 SWAP1 POP JUMP INVALID LOG2 PUSH5 0x6970667358 0x22 SLT KECCAK256 PUSH16 0x42114A8A8F4ADC42C614AD5115764E0F 0xB6 0xDA SWAP10 DUP8 0xFC 0xBA DUP4 0xAA 0xC5 0xC3 SLT 0x4F PUSH14 0x9A0664736F6C6343000807003300 "
				},
				"gasEstimates": {
					"creation": {
						"codeDepositCost": "307000",
						"executionCost": "infinite",
						"totalCost": "infinite"
					},
					"external": {
						"addr()": "2514",
						"b()": "2557",
						"b1()": "2609",
						"b2()": "2522",
						"b3()": "2587",
						"b4()": "2588",
						"bt1()": "2565",
						"bt4()": "2544",
						"bt5()": "2566",
						"bt6()": "infinite"
					}
				},
				"methodIdentifiers": {
					"addr()": "767800de",
					"b()": "4df7e3d0",
					"b1()": "ee495002",
					"b2()": "0add6ef2",
					"b3()": "e9b61909",
					"b4()": "3db3fb0a",
					"bt1()": "cb6f197e",
					"bt4()": "12c9e787",
					"bt5()": "2469b987",
					"bt6()": "c862230c"
				}
			},
			"storageLayout": {
				"storage": [
					{
						"astId": 4,
						"contract": "lecture/lec2.sol:lec2",
						"label": "b",
						"offset": 0,
						"slot": "0",
						"type": "t_bool"
					},
					{
						"astId": 8,
						"contract": "lecture/lec2.sol:lec2",
						"label": "b1",
						"offset": 1,
						"slot": "0",
						"type": "t_bool"
					},
					{
						"astId": 13,
						"contract": "lecture/lec2.sol:lec2",
						"label": "b2",
						"offset": 2,
						"slot": "0",
						"type": "t_bool"
					},
					{
						"astId": 18,
						"contract": "lecture/lec2.sol:lec2",
						"label": "b3",
						"offset": 3,
						"slot": "0",
						"type": "t_bool"
					},
					{
						"astId": 23,
						"contract": "lecture/lec2.sol:lec2",
						"label": "b4",
						"offset": 4,
						"slot": "0",
						"type": "t_bool"
					},
					{
						"astId": 26,
						"contract": "lecture/lec2.sol:lec2",
						"label": "bt1",
						"offset": 5,
						"slot": "0",
						"type": "t_bytes1"
					},
					{
						"astId": 29,
						"contract": "lecture/lec2.sol:lec2",
						"label": "bt4",
						"offset": 6,
						"slot": "0",
						"type": "t_bytes4"
					},
					{
						"astId": 32,
						"contract": "lecture/lec2.sol:lec2",
						"label": "bt5",
						"offset": 10,
						"slot": "0",
						"type": "t_bytes5"
					},
					{
						"astId": 35,
						"contract": "lecture/lec2.sol:lec2",
						"label": "bt6",
						"offset": 0,
						"slot": "1",
						"type": "t_bytes_storage"
					},
					{
						"astId": 38,
						"contract": "lecture/lec2.sol:lec2",
						"label": "addr",
						"offset": 0,
						"slot": "2",
						"type": "t_address"
					}
				],
				"types": {
					"t_address": {
						"encoding": "inplace",
						"label": "address",
						"numberOfBytes": "20"
					},
					"t_bool": {
						"encoding": "inplace",
						"label": "bool",
						"numberOfBytes": "1"
					},
					"t_bytes1": {
						"encoding": "inplace",
						"label": "bytes1",
						"numberOfBytes": "1"
					},
					"t_bytes4": {
						"encoding": "inplace",
						"label": "bytes4",
						"numberOfBytes": "4"
					},
					"t_bytes5": {
						"encoding": "inplace",
						"label": "bytes5",
						"numberOfBytes": "5"
					},
					"t_bytes_storage": {
						"encoding": "bytes",
						"label": "bytes",
						"numberOfBytes": "32"
					}
				}
			},
			"userdoc": {
				"kind": "user",
				"methods": {},
				"version": 1
			}
		}
	}
}