{
	"lecture/lec26.sol": {
		"lec26": {
			"abi": [
				{
					"inputs": [],
					"name": "assertNow",
					"outputs": [],
					"stateMutability": "pure",
					"type": "function"
				},
				{
					"inputs": [
						{
							"internalType": "uint256",
							"name": "_age",
							"type": "uint256"
						}
					],
					"name": "onlyAdults",
					"outputs": [
						{
							"internalType": "string",
							"name": "",
							"type": "string"
						}
					],
					"stateMutability": "pure",
					"type": "function"
				},
				{
					"inputs": [
						{
							"internalType": "uint256",
							"name": "_age",
							"type": "uint256"
						}
					],
					"name": "onlyAdults2",
					"outputs": [
						{
							"internalType": "string",
							"name": "",
							"type": "string"
						}
					],
					"stateMutability": "pure",
					"type": "function"
				},
				{
					"inputs": [],
					"name": "requireNow",
					"outputs": [],
					"stateMutability": "pure",
					"type": "function"
				},
				{
					"inputs": [],
					"name": "revertNow",
					"outputs": [],
					"stateMutability": "pure",
					"type": "function"
				}
			],
			"devdoc": {
				"kind": "dev",
				"methods": {},
				"version": 1
			},
			"evm": {
				"assembly": "    /* \"lecture/lec26.sol\":128:1120  contract lec26{... */\n  mstore(0x40, 0x80)\n  callvalue\n  dup1\n  iszero\n  tag_1\n  jumpi\n  0x00\n  dup1\n  revert\ntag_1:\n  pop\n  dataSize(sub_0)\n  dup1\n  dataOffset(sub_0)\n  0x00\n  codecopy\n  0x00\n  return\nstop\n\nsub_0: assembly {\n        /* \"lecture/lec26.sol\":128:1120  contract lec26{... */\n      mstore(0x40, 0x80)\n      callvalue\n      dup1\n      iszero\n      tag_1\n      jumpi\n      0x00\n      dup1\n      revert\n    tag_1:\n      pop\n      jumpi(tag_2, lt(calldatasize, 0x04))\n      shr(0xe0, calldataload(0x00))\n      dup1\n      0x746715\n      eq\n      tag_3\n      jumpi\n      dup1\n      0x2712f519\n      eq\n      tag_4\n      jumpi\n      dup1\n      0x844adfd2\n      eq\n      tag_5\n      jumpi\n      dup1\n      0x9de5b7d2\n      eq\n      tag_6\n      jumpi\n      dup1\n      0xafe26609\n      eq\n      tag_7\n      jumpi\n    tag_2:\n      0x00\n      dup1\n      revert\n        /* \"lecture/lec26.sol\":916:1117  function onlyAdults2(uint256 _age) public pure returns(string memory){... */\n    tag_3:\n      tag_8\n      0x04\n      dup1\n      calldatasize\n      sub\n      0x20\n      dup2\n      lt\n      iszero\n      tag_9\n      jumpi\n      0x00\n      dup1\n      revert\n    tag_9:\n      dup2\n      add\n      swap1\n      dup1\n      dup1\n      calldataload\n      swap1\n      0x20\n      add\n      swap1\n      swap3\n      swap2\n      swap1\n      pop\n      pop\n      pop\n      tag_10\n      jump\t// in\n    tag_8:\n      mload(0x40)\n      dup1\n      dup1\n      0x20\n      add\n      dup3\n      dup2\n      sub\n      dup3\n      mstore\n      dup4\n      dup2\n      dup2\n      mload\n      dup2\n      mstore\n      0x20\n      add\n      swap2\n      pop\n      dup1\n      mload\n      swap1\n      0x20\n      add\n      swap1\n      dup1\n      dup4\n      dup4\n      0x00\n    tag_11:\n      dup4\n      dup2\n      lt\n      iszero\n      tag_13\n      jumpi\n      dup1\n      dup3\n      add\n      mload\n      dup2\n      dup5\n      add\n      mstore\n      0x20\n      dup2\n      add\n      swap1\n      pop\n      jump(tag_11)\n    tag_13:\n      pop\n      pop\n      pop\n      pop\n      swap1\n      pop\n      swap1\n      dup2\n      add\n      swap1\n      0x1f\n      and\n      dup1\n      iszero\n      tag_14\n      jumpi\n      dup1\n      dup3\n      sub\n      dup1\n      mload\n      0x01\n      dup4\n      0x20\n      sub\n      0x0100\n      exp\n      sub\n      not\n      and\n      dup2\n      mstore\n      0x20\n      add\n      swap2\n      pop\n    tag_14:\n      pop\n      swap3\n      pop\n      pop\n      pop\n      mload(0x40)\n      dup1\n      swap2\n      sub\n      swap1\n      return\n        /* \"lecture/lec26.sol\":382:453  function assertNow() public pure{... */\n    tag_4:\n      tag_15\n      tag_16\n      jump\t// in\n    tag_15:\n      stop\n        /* \"lecture/lec26.sol\":592:666  function requireNow()public pure{... */\n    tag_5:\n      tag_17\n      tag_18\n      jump\t// in\n    tag_17:\n      stop\n        /* \"lecture/lec26.sol\":676:905  function onlyAdults(uint256 _age) public pure returns(string memory){... */\n    tag_6:\n      tag_19\n      0x04\n      dup1\n      calldatasize\n      sub\n      0x20\n      dup2\n      lt\n      iszero\n      tag_20\n      jumpi\n      0x00\n      dup1\n      revert\n    tag_20:\n      dup2\n      add\n      swap1\n      dup1\n      dup1\n      calldataload\n      swap1\n      0x20\n      add\n      swap1\n      swap3\n      swap2\n      swap1\n      pop\n      pop\n      pop\n      tag_21\n      jump\t// in\n    tag_19:\n      mload(0x40)\n      dup1\n      dup1\n      0x20\n      add\n      dup3\n      dup2\n      sub\n      dup3\n      mstore\n      dup4\n      dup2\n      dup2\n      mload\n      dup2\n      mstore\n      0x20\n      add\n      swap2\n      pop\n      dup1\n      mload\n      swap1\n      0x20\n      add\n      swap1\n      dup1\n      dup4\n      dup4\n      0x00\n    tag_22:\n      dup4\n      dup2\n      lt\n      iszero\n      tag_24\n      jumpi\n      dup1\n      dup3\n      add\n      mload\n      dup2\n      dup5\n      add\n      mstore\n      0x20\n      dup2\n      add\n      swap1\n      pop\n      jump(tag_22)\n    tag_24:\n      pop\n      pop\n      pop\n      pop\n      swap1\n      pop\n      swap1\n      dup2\n      add\n      swap1\n      0x1f\n      and\n      dup1\n      iszero\n      tag_25\n      jumpi\n      dup1\n      dup3\n      sub\n      dup1\n      mload\n      0x01\n      dup4\n      0x20\n      sub\n      0x0100\n      exp\n      sub\n      not\n      and\n      dup2\n      mstore\n      0x20\n      add\n      swap2\n      pop\n    tag_25:\n      pop\n      swap3\n      pop\n      pop\n      pop\n      mload(0x40)\n      dup1\n      swap2\n      sub\n      swap1\n      return\n        /* \"lecture/lec26.sol\":472:570  function revertNow() public pure{... */\n    tag_7:\n      tag_26\n      tag_27\n      jump\t// in\n    tag_26:\n      stop\n        /* \"lecture/lec26.sol\":916:1117  function onlyAdults2(uint256 _age) public pure returns(string memory){... */\n    tag_10:\n        /* \"lecture/lec26.sol\":971:984  string memory */\n      0x60\n        /* \"lecture/lec26.sol\":1008:1010  19 */\n      0x13\n        /* \"lecture/lec26.sol\":1003:1007  _age */\n      dup3\n        /* \"lecture/lec26.sol\":1003:1010  _age>19 */\n      gt\n        /* \"lecture/lec26.sol\":995:1058  require(_age>19,\"You are not allowed to pay for the cigarette\") */\n      tag_29\n      jumpi\n      mload(0x40)\n      0x08c379a000000000000000000000000000000000000000000000000000000000\n      dup2\n      mstore\n      0x04\n      add\n      dup1\n      dup1\n      0x20\n      add\n      dup3\n      dup2\n      sub\n      dup3\n      mstore\n      0x2c\n      dup2\n      mstore\n      0x20\n      add\n      dup1\n      data_18ff8e4c1dbcd628bb354fb25623fc3309d6d5df0acd40db294d38068724a7ef\n      0x2c\n      swap2\n      codecopy\n      0x40\n      add\n      swap2\n      pop\n      pop\n      mload(0x40)\n      dup1\n      swap2\n      sub\n      swap1\n      revert\n    tag_29:\n        /* \"lecture/lec26.sol\":1068:1101  return \"Your payment is scceeded\" */\n      mload(0x40)\n      dup1\n      0x40\n      add\n      0x40\n      mstore\n      dup1\n      0x18\n      dup2\n      mstore\n      0x20\n      add\n      0x596f7572207061796d656e742069732073636365656465640000000000000000\n      dup2\n      mstore\n      pop\n      swap1\n      pop\n        /* \"lecture/lec26.sol\":916:1117  function onlyAdults2(uint256 _age) public pure returns(string memory){... */\n      swap2\n      swap1\n      pop\n      jump\t// out\n        /* \"lecture/lec26.sol\":382:453  function assertNow() public pure{... */\n    tag_16:\n        /* \"lecture/lec26.sol\":431:436  false */\n      0x00\n        /* \"lecture/lec26.sol\":424:437  assert(false) */\n      tag_31\n      jumpi\n      invalid\n    tag_31:\n        /* \"lecture/lec26.sol\":382:453  function assertNow() public pure{... */\n      jump\t// out\n        /* \"lecture/lec26.sol\":592:666  function requireNow()public pure{... */\n    tag_18:\n        /* \"lecture/lec26.sol\":642:647  false */\n      0x00\n        /* \"lecture/lec26.sol\":634:659  require(false,\"occurred\") */\n      tag_33\n      jumpi\n      mload(0x40)\n      0x08c379a000000000000000000000000000000000000000000000000000000000\n      dup2\n      mstore\n      0x04\n      add\n      dup1\n      dup1\n      0x20\n      add\n      dup3\n      dup2\n      sub\n      dup3\n      mstore\n      0x08\n      dup2\n      mstore\n      0x20\n      add\n      dup1\n      0x6f63637572726564000000000000000000000000000000000000000000000000\n      dup2\n      mstore\n      pop\n      0x20\n      add\n      swap2\n      pop\n      pop\n      mload(0x40)\n      dup1\n      swap2\n      sub\n      swap1\n      revert\n    tag_33:\n        /* \"lecture/lec26.sol\":592:666  function requireNow()public pure{... */\n      jump\t// out\n        /* \"lecture/lec26.sol\":676:905  function onlyAdults(uint256 _age) public pure returns(string memory){... */\n    tag_21:\n        /* \"lecture/lec26.sol\":730:743  string memory */\n      0x60\n        /* \"lecture/lec26.sol\":765:767  19 */\n      0x13\n        /* \"lecture/lec26.sol\":758:762  _age */\n      dup3\n        /* \"lecture/lec26.sol\":758:767  _age < 19 */\n      lt\n        /* \"lecture/lec26.sol\":754:847  if( _age < 19){... */\n      iszero\n      tag_35\n      jumpi\n        /* \"lecture/lec26.sol\":782:836  revert(\"You are not allowed to pay for the cigarette\") */\n      mload(0x40)\n      0x08c379a000000000000000000000000000000000000000000000000000000000\n      dup2\n      mstore\n      0x04\n      add\n      dup1\n      dup1\n      0x20\n      add\n      dup3\n      dup2\n      sub\n      dup3\n      mstore\n      0x2c\n      dup2\n      mstore\n      0x20\n      add\n      dup1\n      data_18ff8e4c1dbcd628bb354fb25623fc3309d6d5df0acd40db294d38068724a7ef\n      0x2c\n      swap2\n      codecopy\n      0x40\n      add\n      swap2\n      pop\n      pop\n      mload(0x40)\n      dup1\n      swap2\n      sub\n      swap1\n      revert\n        /* \"lecture/lec26.sol\":754:847  if( _age < 19){... */\n    tag_35:\n        /* \"lecture/lec26.sol\":856:889  return \"Your payment is scceeded\" */\n      mload(0x40)\n      dup1\n      0x40\n      add\n      0x40\n      mstore\n      dup1\n      0x18\n      dup2\n      mstore\n      0x20\n      add\n      0x596f7572207061796d656e742069732073636365656465640000000000000000\n      dup2\n      mstore\n      pop\n      swap1\n      pop\n        /* \"lecture/lec26.sol\":676:905  function onlyAdults(uint256 _age) public pure returns(string memory){... */\n      swap2\n      swap1\n      pop\n      jump\t// out\n        /* \"lecture/lec26.sol\":472:570  function revertNow() public pure{... */\n    tag_27:\n        /* \"lecture/lec26.sol\":514:531  revert(\"error!!\") */\n      mload(0x40)\n      0x08c379a000000000000000000000000000000000000000000000000000000000\n      dup2\n      mstore\n      0x04\n      add\n      dup1\n      dup1\n      0x20\n      add\n      dup3\n      dup2\n      sub\n      dup3\n      mstore\n      0x07\n      dup2\n      mstore\n      0x20\n      add\n      dup1\n      0x6572726f72212100000000000000000000000000000000000000000000000000\n      dup2\n      mstore\n      pop\n      0x20\n      add\n      swap2\n      pop\n      pop\n      mload(0x40)\n      dup1\n      swap2\n      sub\n      swap1\n      revert\n    stop\n    data_18ff8e4c1dbcd628bb354fb25623fc3309d6d5df0acd40db294d38068724a7ef 596f7520617265206e6f7420616c6c6f77656420746f2070617920666f722074686520636967617265747465\n\n    auxdata: 0xa26469706673582212201fcc5c9763889f61f859661d1e51ac641db6a0ec516f92cc9aa5bb1a38d3a95664736f6c63430007040033\n}\n",
				"bytecode": {
					"linkReferences": {},
					"object": "608060405234801561001057600080fd5b50610448806100206000396000f3fe608060405234801561001057600080fd5b50600436106100565760003560e01c80627467151461005b5780632712f51914610102578063844adfd21461010c5780639de5b7d214610116578063afe26609146101bd575b600080fd5b6100876004803603602081101561007157600080fd5b81019080803590602001909291905050506101c7565b6040518080602001828103825283818151815260200191508051906020019080838360005b838110156100c75780820151818401526020810190506100ac565b50505050905090810190601f1680156100f45780820380516001836020036101000a031916815260200191505b509250505060405180910390f35b61010a61025f565b005b610114610269565b005b6101426004803603602081101561012c57600080fd5b81019080803590602001909291905050506102df565b6040518080602001828103825283818151815260200191508051906020019080838360005b83811015610182578082015181840152602081019050610167565b50505050905090810190601f1680156101af5780820380516001836020036101000a031916815260200191505b509250505060405180910390f35b6101c5610378565b005b606060138211610222576040517f08c379a000000000000000000000000000000000000000000000000000000000815260040180806020018281038252602c8152602001806103e7602c913960400191505060405180910390fd5b6040518060400160405280601881526020017f596f7572207061796d656e7420697320736363656564656400000000000000008152509050919050565b600061026757fe5b565b60006102dd576040517f08c379a00000000000000000000000000000000000000000000000000000000081526004018080602001828103825260088152602001807f6f6363757272656400000000000000000000000000000000000000000000000081525060200191505060405180910390fd5b565b6060601382101561033b576040517f08c379a000000000000000000000000000000000000000000000000000000000815260040180806020018281038252602c8152602001806103e7602c913960400191505060405180910390fd5b6040518060400160405280601881526020017f596f7572207061796d656e7420697320736363656564656400000000000000008152509050919050565b6040517f08c379a00000000000000000000000000000000000000000000000000000000081526004018080602001828103825260078152602001807f6572726f7221210000000000000000000000000000000000000000000000000081525060200191505060405180910390fdfe596f7520617265206e6f7420616c6c6f77656420746f2070617920666f722074686520636967617265747465a26469706673582212201fcc5c9763889f61f859661d1e51ac641db6a0ec516f92cc9aa5bb1a38d3a95664736f6c63430007040033",
					"opcodes": "PUSH1 0x80 PUSH1 0x40 MSTORE CALLVALUE DUP1 ISZERO PUSH2 0x10 JUMPI PUSH1 0x0 DUP1 REVERT JUMPDEST POP PUSH2 0x448 DUP1 PUSH2 0x20 PUSH1 0x0 CODECOPY PUSH1 0x0 RETURN INVALID PUSH1 0x80 PUSH1 0x40 MSTORE CALLVALUE DUP1 ISZERO PUSH2 0x10 JUMPI PUSH1 0x0 DUP1 REVERT JUMPDEST POP PUSH1 0x4 CALLDATASIZE LT PUSH2 0x56 JUMPI PUSH1 0x0 CALLDATALOAD PUSH1 0xE0 SHR DUP1 PUSH3 0x746715 EQ PUSH2 0x5B JUMPI DUP1 PUSH4 0x2712F519 EQ PUSH2 0x102 JUMPI DUP1 PUSH4 0x844ADFD2 EQ PUSH2 0x10C JUMPI DUP1 PUSH4 0x9DE5B7D2 EQ PUSH2 0x116 JUMPI DUP1 PUSH4 0xAFE26609 EQ PUSH2 0x1BD JUMPI JUMPDEST PUSH1 0x0 DUP1 REVERT JUMPDEST PUSH2 0x87 PUSH1 0x4 DUP1 CALLDATASIZE SUB PUSH1 0x20 DUP2 LT ISZERO PUSH2 0x71 JUMPI PUSH1 0x0 DUP1 REVERT JUMPDEST DUP2 ADD SWAP1 DUP1 DUP1 CALLDATALOAD SWAP1 PUSH1 0x20 ADD SWAP1 SWAP3 SWAP2 SWAP1 POP POP POP PUSH2 0x1C7 JUMP JUMPDEST PUSH1 0x40 MLOAD DUP1 DUP1 PUSH1 0x20 ADD DUP3 DUP2 SUB DUP3 MSTORE DUP4 DUP2 DUP2 MLOAD DUP2 MSTORE PUSH1 0x20 ADD SWAP2 POP DUP1 MLOAD SWAP1 PUSH1 0x20 ADD SWAP1 DUP1 DUP4 DUP4 PUSH1 0x0 JUMPDEST DUP4 DUP2 LT ISZERO PUSH2 0xC7 JUMPI DUP1 DUP3 ADD MLOAD DUP2 DUP5 ADD MSTORE PUSH1 0x20 DUP2 ADD SWAP1 POP PUSH2 0xAC JUMP JUMPDEST POP POP POP POP SWAP1 POP SWAP1 DUP2 ADD SWAP1 PUSH1 0x1F AND DUP1 ISZERO PUSH2 0xF4 JUMPI DUP1 DUP3 SUB DUP1 MLOAD PUSH1 0x1 DUP4 PUSH1 0x20 SUB PUSH2 0x100 EXP SUB NOT AND DUP2 MSTORE PUSH1 0x20 ADD SWAP2 POP JUMPDEST POP SWAP3 POP POP POP PUSH1 0x40 MLOAD DUP1 SWAP2 SUB SWAP1 RETURN JUMPDEST PUSH2 0x10A PUSH2 0x25F JUMP JUMPDEST STOP JUMPDEST PUSH2 0x114 PUSH2 0x269 JUMP JUMPDEST STOP JUMPDEST PUSH2 0x142 PUSH1 0x4 DUP1 CALLDATASIZE SUB PUSH1 0x20 DUP2 LT ISZERO PUSH2 0x12C JUMPI PUSH1 0x0 DUP1 REVERT JUMPDEST DUP2 ADD SWAP1 DUP1 DUP1 CALLDATALOAD SWAP1 PUSH1 0x20 ADD SWAP1 SWAP3 SWAP2 SWAP1 POP POP POP PUSH2 0x2DF JUMP JUMPDEST PUSH1 0x40 MLOAD DUP1 DUP1 PUSH1 0x20 ADD DUP3 DUP2 SUB DUP3 MSTORE DUP4 DUP2 DUP2 MLOAD DUP2 MSTORE PUSH1 0x20 ADD SWAP2 POP DUP1 MLOAD SWAP1 PUSH1 0x20 ADD SWAP1 DUP1 DUP4 DUP4 PUSH1 0x0 JUMPDEST DUP4 DUP2 LT ISZERO PUSH2 0x182 JUMPI DUP1 DUP3 ADD MLOAD DUP2 DUP5 ADD MSTORE PUSH1 0x20 DUP2 ADD SWAP1 POP PUSH2 0x167 JUMP JUMPDEST POP POP POP POP SWAP1 POP SWAP1 DUP2 ADD SWAP1 PUSH1 0x1F AND DUP1 ISZERO PUSH2 0x1AF JUMPI DUP1 DUP3 SUB DUP1 MLOAD PUSH1 0x1 DUP4 PUSH1 0x20 SUB PUSH2 0x100 EXP SUB NOT AND DUP2 MSTORE PUSH1 0x20 ADD SWAP2 POP JUMPDEST POP SWAP3 POP POP POP PUSH1 0x40 MLOAD DUP1 SWAP2 SUB SWAP1 RETURN JUMPDEST PUSH2 0x1C5 PUSH2 0x378 JUMP JUMPDEST STOP JUMPDEST PUSH1 0x60 PUSH1 0x13 DUP3 GT PUSH2 0x222 JUMPI PUSH1 0x40 MLOAD PUSH32 0x8C379A000000000000000000000000000000000000000000000000000000000 DUP2 MSTORE PUSH1 0x4 ADD DUP1 DUP1 PUSH1 0x20 ADD DUP3 DUP2 SUB DUP3 MSTORE PUSH1 0x2C DUP2 MSTORE PUSH1 0x20 ADD DUP1 PUSH2 0x3E7 PUSH1 0x2C SWAP2 CODECOPY PUSH1 0x40 ADD SWAP2 POP POP PUSH1 0x40 MLOAD DUP1 SWAP2 SUB SWAP1 REVERT JUMPDEST PUSH1 0x40 MLOAD DUP1 PUSH1 0x40 ADD PUSH1 0x40 MSTORE DUP1 PUSH1 0x18 DUP2 MSTORE PUSH1 0x20 ADD PUSH32 0x596F7572207061796D656E742069732073636365656465640000000000000000 DUP2 MSTORE POP SWAP1 POP SWAP2 SWAP1 POP JUMP JUMPDEST PUSH1 0x0 PUSH2 0x267 JUMPI INVALID JUMPDEST JUMP JUMPDEST PUSH1 0x0 PUSH2 0x2DD JUMPI PUSH1 0x40 MLOAD PUSH32 0x8C379A000000000000000000000000000000000000000000000000000000000 DUP2 MSTORE PUSH1 0x4 ADD DUP1 DUP1 PUSH1 0x20 ADD DUP3 DUP2 SUB DUP3 MSTORE PUSH1 0x8 DUP2 MSTORE PUSH1 0x20 ADD DUP1 PUSH32 0x6F63637572726564000000000000000000000000000000000000000000000000 DUP2 MSTORE POP PUSH1 0x20 ADD SWAP2 POP POP PUSH1 0x40 MLOAD DUP1 SWAP2 SUB SWAP1 REVERT JUMPDEST JUMP JUMPDEST PUSH1 0x60 PUSH1 0x13 DUP3 LT ISZERO PUSH2 0x33B JUMPI PUSH1 0x40 MLOAD PUSH32 0x8C379A000000000000000000000000000000000000000000000000000000000 DUP2 MSTORE PUSH1 0x4 ADD DUP1 DUP1 PUSH1 0x20 ADD DUP3 DUP2 SUB DUP3 MSTORE PUSH1 0x2C DUP2 MSTORE PUSH1 0x20 ADD DUP1 PUSH2 0x3E7 PUSH1 0x2C SWAP2 CODECOPY PUSH1 0x40 ADD SWAP2 POP POP PUSH1 0x40 MLOAD DUP1 SWAP2 SUB SWAP1 REVERT JUMPDEST PUSH1 0x40 MLOAD DUP1 PUSH1 0x40 ADD PUSH1 0x40 MSTORE DUP1 PUSH1 0x18 DUP2 MSTORE PUSH1 0x20 ADD PUSH32 0x596F7572207061796D656E742069732073636365656465640000000000000000 DUP2 MSTORE POP SWAP1 POP SWAP2 SWAP1 POP JUMP JUMPDEST PUSH1 0x40 MLOAD PUSH32 0x8C379A000000000000000000000000000000000000000000000000000000000 DUP2 MSTORE PUSH1 0x4 ADD DUP1 DUP1 PUSH1 0x20 ADD DUP3 DUP2 SUB DUP3 MSTORE PUSH1 0x7 DUP2 MSTORE PUSH1 0x20 ADD DUP1 PUSH32 0x6572726F72212100000000000000000000000000000000000000000000000000 DUP2 MSTORE POP PUSH1 0x20 ADD SWAP2 POP POP PUSH1 0x40 MLOAD DUP1 SWAP2 SUB SWAP1 REVERT INVALID MSIZE PUSH16 0x7520617265206E6F7420616C6C6F7765 PUSH5 0x20746F2070 PUSH2 0x7920 PUSH7 0x6F722074686520 PUSH4 0x69676172 PUSH6 0x747465A26469 PUSH17 0x6673582212201FCC5C9763889F61F85966 SAR 0x1E MLOAD 0xAC PUSH5 0x1DB6A0EC51 PUSH16 0x92CC9AA5BB1A38D3A95664736F6C6343 STOP SMOD DIV STOP CALLER "
				},
				"gasEstimates": {
					"creation": {
						"codeDepositCost": "219200",
						"executionCost": "263",
						"totalCost": "219463"
					},
					"external": {
						"assertNow()": "151",
						"onlyAdults(uint256)": "infinite",
						"onlyAdults2(uint256)": "infinite",
						"requireNow()": "296",
						"revertNow()": "324"
					}
				},
				"methodIdentifiers": {
					"assertNow()": "2712f519",
					"onlyAdults(uint256)": "9de5b7d2",
					"onlyAdults2(uint256)": "00746715",
					"requireNow()": "844adfd2",
					"revertNow()": "afe26609"
				}
			},
			"storageLayout": {
				"storage": [],
				"types": null
			},
			"userdoc": {
				"kind": "user",
				"methods": {},
				"version": 1
			}
		}
	}
}