{
	"lecture/lec24.sol": {
		"lec24": {
			"abi": [
				{
					"anonymous": false,
					"inputs": [
						{
							"indexed": true,
							"internalType": "uint256",
							"name": "_index",
							"type": "uint256"
						},
						{
							"indexed": false,
							"internalType": "string",
							"name": "_name",
							"type": "string"
						}
					],
					"name": "CountryIndexName",
					"type": "event"
				},
				{
					"inputs": [
						{
							"internalType": "string",
							"name": "_search",
							"type": "string"
						}
					],
					"name": "linearSearch",
					"outputs": [
						{
							"internalType": "uint256",
							"name": "",
							"type": "uint256"
						},
						{
							"internalType": "string",
							"name": "",
							"type": "string"
						}
					],
					"stateMutability": "view",
					"type": "function"
				}
			],
			"devdoc": {
				"kind": "dev",
				"methods": {},
				"version": 1
			},
			"evm": {
				"assembly": "    /* \"lecture/lec24.sol\":70:635  contract lec24{... */\n  mstore(0x40, 0x80)\n    /* \"lecture/lec24.sol\":161:243  string[] private countryList = [\"South Korea\",\"North Korea\",\"USA\",\"China\",\"Japan\"] */\n  mload(0x40)\n  dup1\n  0xa0\n  add\n  0x40\n  mstore\n  dup1\n  mload(0x40)\n  dup1\n  0x40\n  add\n  0x40\n  mstore\n  dup1\n  0x0b\n  dup2\n  mstore\n  0x20\n  add\n  0x536f757468204b6f726561000000000000000000000000000000000000000000\n  dup2\n  mstore\n  pop\n  dup2\n  mstore\n  0x20\n  add\n  mload(0x40)\n  dup1\n  0x40\n  add\n  0x40\n  mstore\n  dup1\n  0x0b\n  dup2\n  mstore\n  0x20\n  add\n  0x4e6f727468204b6f726561000000000000000000000000000000000000000000\n  dup2\n  mstore\n  pop\n  dup2\n  mstore\n  0x20\n  add\n  mload(0x40)\n  dup1\n  0x40\n  add\n  0x40\n  mstore\n  dup1\n  0x03\n  dup2\n  mstore\n  0x20\n  add\n  0x5553410000000000000000000000000000000000000000000000000000000000\n  dup2\n  mstore\n  pop\n  dup2\n  mstore\n  0x20\n  add\n  mload(0x40)\n  dup1\n  0x40\n  add\n  0x40\n  mstore\n  dup1\n  0x05\n  dup2\n  mstore\n  0x20\n  add\n  0x4368696e61000000000000000000000000000000000000000000000000000000\n  dup2\n  mstore\n  pop\n  dup2\n  mstore\n  0x20\n  add\n  mload(0x40)\n  dup1\n  0x40\n  add\n  0x40\n  mstore\n  dup1\n  0x05\n  dup2\n  mstore\n  0x20\n  add\n  0x4a6170616e000000000000000000000000000000000000000000000000000000\n  dup2\n  mstore\n  pop\n  dup2\n  mstore\n  pop\n  0x00\n  swap1\n  0x05\n  tag_1\n  swap3\n  swap2\n  swap1\n  tag_2\n  jump\t// in\ntag_1:\n  pop\n    /* \"lecture/lec24.sol\":70:635  contract lec24{... */\n  callvalue\n  dup1\n  iszero\n  tag_3\n  jumpi\n  0x00\n  dup1\n  revert\ntag_3:\n  pop\n  jump(tag_4)\ntag_2:\n  dup3\n  dup1\n  sload\n  dup3\n  dup3\n  sstore\n  swap1\n  0x00\n  mstore\n  keccak256(0x00, 0x20)\n  swap1\n  dup2\n  add\n  swap3\n  dup3\n  iszero\n  tag_5\n  jumpi\n  swap2\n  0x20\n  mul\n  dup3\n  add\ntag_6:\n  dup3\n  dup2\n  gt\n  iszero\n  tag_7\n  jumpi\n  dup3\n  mload\n  dup3\n  swap1\n  dup1\n  mload\n  swap1\n  0x20\n  add\n  swap1\n  tag_8\n  swap3\n  swap2\n  swap1\n  tag_9\n  jump\t// in\ntag_8:\n  pop\n  swap2\n  0x20\n  add\n  swap2\n  swap1\n  0x01\n  add\n  swap1\n  jump(tag_6)\ntag_7:\ntag_5:\n  pop\n  swap1\n  pop\n  tag_10\n  swap2\n  swap1\n  tag_11\n  jump\t// in\ntag_10:\n  pop\n  swap1\n  jump\t// out\ntag_9:\n  dup3\n  dup1\n  sload\n  tag_12\n  swap1\n  tag_13\n  jump\t// in\ntag_12:\n  swap1\n  0x00\n  mstore\n  keccak256(0x00, 0x20)\n  swap1\n  0x1f\n  add\n  0x20\n  swap1\n  div\n  dup2\n  add\n  swap3\n  dup3\n  tag_15\n  jumpi\n  0x00\n  dup6\n  sstore\n  jump(tag_14)\ntag_15:\n  dup3\n  0x1f\n  lt\n  tag_16\n  jumpi\n  dup1\n  mload\n  not(0xff)\n  and\n  dup4\n  dup1\n  add\n  or\n  dup6\n  sstore\n  jump(tag_14)\ntag_16:\n  dup3\n  dup1\n  add\n  0x01\n  add\n  dup6\n  sstore\n  dup3\n  iszero\n  tag_14\n  jumpi\n  swap2\n  dup3\n  add\ntag_17:\n  dup3\n  dup2\n  gt\n  iszero\n  tag_18\n  jumpi\n  dup3\n  mload\n  dup3\n  sstore\n  swap2\n  0x20\n  add\n  swap2\n  swap1\n  0x01\n  add\n  swap1\n  jump(tag_17)\ntag_18:\ntag_14:\n  pop\n  swap1\n  pop\n  tag_19\n  swap2\n  swap1\n  tag_20\n  jump\t// in\ntag_19:\n  pop\n  swap1\n  jump\t// out\ntag_11:\ntag_21:\n  dup1\n  dup3\n  gt\n  iszero\n  tag_22\n  jumpi\n  0x00\n  dup2\n  dup2\n  tag_23\n  swap2\n  swap1\n  tag_24\n  jump\t// in\ntag_23:\n  pop\n  0x01\n  add\n  jump(tag_21)\ntag_22:\n  pop\n  swap1\n  jump\t// out\ntag_20:\ntag_25:\n  dup1\n  dup3\n  gt\n  iszero\n  tag_26\n  jumpi\n  0x00\n  dup2\n  0x00\n  swap1\n  sstore\n  pop\n  0x01\n  add\n  jump(tag_25)\ntag_26:\n  pop\n  swap1\n  jump\t// out\ntag_24:\n  pop\n  dup1\n  sload\n  tag_27\n  swap1\n  tag_13\n  jump\t// in\ntag_27:\n  0x00\n  dup3\n  sstore\n  dup1\n  0x1f\n  lt\n  tag_29\n  jumpi\n  pop\n  jump(tag_28)\ntag_29:\n  0x1f\n  add\n  0x20\n  swap1\n  div\n  swap1\n  0x00\n  mstore\n  keccak256(0x00, 0x20)\n  swap1\n  dup2\n  add\n  swap1\n  tag_30\n  swap2\n  swap1\n  tag_20\n  jump\t// in\ntag_30:\ntag_28:\n  pop\n  jump\t// out\n    /* \"#utility.yul\":7:327   */\ntag_13:\n    /* \"#utility.yul\":51:57   */\n  0x00\n    /* \"#utility.yul\":88:89   */\n  0x02\n    /* \"#utility.yul\":82:86   */\n  dup3\n    /* \"#utility.yul\":78:90   */\n  div\n    /* \"#utility.yul\":68:90   */\n  swap1\n  pop\n    /* \"#utility.yul\":135:136   */\n  0x01\n    /* \"#utility.yul\":129:133   */\n  dup3\n    /* \"#utility.yul\":125:137   */\n  and\n    /* \"#utility.yul\":156:174   */\n  dup1\n    /* \"#utility.yul\":146:227   */\n  tag_33\n  jumpi\n    /* \"#utility.yul\":212:216   */\n  0x7f\n    /* \"#utility.yul\":204:210   */\n  dup3\n    /* \"#utility.yul\":200:217   */\n  and\n    /* \"#utility.yul\":190:217   */\n  swap2\n  pop\n    /* \"#utility.yul\":146:227   */\ntag_33:\n    /* \"#utility.yul\":274:276   */\n  0x20\n    /* \"#utility.yul\":266:272   */\n  dup3\n    /* \"#utility.yul\":263:277   */\n  lt\n    /* \"#utility.yul\":243:261   */\n  dup2\n    /* \"#utility.yul\":240:278   */\n  eq\n    /* \"#utility.yul\":237:321   */\n  iszero\n  tag_34\n  jumpi\n    /* \"#utility.yul\":293:311   */\n  tag_35\n  tag_36\n  jump\t// in\ntag_35:\n    /* \"#utility.yul\":237:321   */\ntag_34:\n    /* \"#utility.yul\":58:327   */\n  pop\n    /* \"#utility.yul\":7:327   */\n  swap2\n  swap1\n  pop\n  jump\t// out\n    /* \"#utility.yul\":333:513   */\ntag_36:\n    /* \"#utility.yul\":381:458   */\n  0x4e487b7100000000000000000000000000000000000000000000000000000000\n    /* \"#utility.yul\":378:379   */\n  0x00\n    /* \"#utility.yul\":371:459   */\n  mstore\n    /* \"#utility.yul\":478:482   */\n  0x22\n    /* \"#utility.yul\":475:476   */\n  0x04\n    /* \"#utility.yul\":468:483   */\n  mstore\n    /* \"#utility.yul\":502:506   */\n  0x24\n    /* \"#utility.yul\":499:500   */\n  0x00\n    /* \"#utility.yul\":492:507   */\n  revert\n    /* \"lecture/lec24.sol\":70:635  contract lec24{... */\ntag_4:\n  dataSize(sub_0)\n  dup1\n  dataOffset(sub_0)\n  0x00\n  codecopy\n  0x00\n  return\nstop\n\nsub_0: assembly {\n        /* \"lecture/lec24.sol\":70:635  contract lec24{... */\n      mstore(0x40, 0x80)\n      callvalue\n      dup1\n      iszero\n      tag_1\n      jumpi\n      0x00\n      dup1\n      revert\n    tag_1:\n      pop\n      jumpi(tag_2, lt(calldatasize, 0x04))\n      shr(0xe0, calldataload(0x00))\n      dup1\n      0x655f478b\n      eq\n      tag_3\n      jumpi\n    tag_2:\n      0x00\n      dup1\n      revert\n        /* \"lecture/lec24.sol\":273:631  function linearSearch(string memory _search) public view returns(uint256,string memory){... */\n    tag_3:\n      tag_4\n      0x04\n      dup1\n      calldatasize\n      sub\n      dup2\n      add\n      swap1\n      tag_5\n      swap2\n      swap1\n      tag_6\n      jump\t// in\n    tag_5:\n      tag_7\n      jump\t// in\n    tag_4:\n      mload(0x40)\n      tag_8\n      swap3\n      swap2\n      swap1\n      tag_9\n      jump\t// in\n    tag_8:\n      mload(0x40)\n      dup1\n      swap2\n      sub\n      swap1\n      return\n    tag_7:\n        /* \"lecture/lec24.sol\":338:345  uint256 */\n      0x00\n        /* \"lecture/lec24.sol\":346:359  string memory */\n      0x60\n        /* \"lecture/lec24.sol\":383:392  uint256 i */\n      0x00\n        /* \"lecture/lec24.sol\":379:578  for(uint256 i=0; i<countryList.length; i++){... */\n    tag_11:\n        /* \"lecture/lec24.sol\":398:409  countryList */\n      0x00\n        /* \"lecture/lec24.sol\":398:416  countryList.length */\n      dup1\n      sload\n      swap1\n      pop\n        /* \"lecture/lec24.sol\":396:397  i */\n      dup2\n        /* \"lecture/lec24.sol\":396:416  i<countryList.length */\n      lt\n        /* \"lecture/lec24.sol\":379:578  for(uint256 i=0; i<countryList.length; i++){... */\n      iszero\n      tag_12\n      jumpi\n        /* \"lecture/lec24.sol\":500:507  _search */\n      dup4\n        /* \"lecture/lec24.sol\":484:509  keccak256(bytes(_search)) */\n      dup1\n      mload\n      swap1\n      0x20\n      add\n      keccak256\n        /* \"lecture/lec24.sol\":464:475  countryList */\n      0x00\n        /* \"lecture/lec24.sol\":476:477  i */\n      dup3\n        /* \"lecture/lec24.sol\":464:478  countryList[i] */\n      dup2\n      sload\n      dup2\n      lt\n      tag_14\n      jumpi\n      tag_15\n      tag_16\n      jump\t// in\n    tag_15:\n    tag_14:\n      swap1\n      0x00\n      mstore\n      keccak256(0x00, 0x20)\n      add\n        /* \"lecture/lec24.sol\":448:480  keccak256(bytes(countryList[i])) */\n      mload(0x40)\n      tag_18\n      swap2\n      swap1\n      tag_19\n      jump\t// in\n    tag_18:\n      mload(0x40)\n      dup1\n      swap2\n      sub\n      swap1\n      keccak256\n        /* \"lecture/lec24.sol\":448:509  keccak256(bytes(countryList[i])) == keccak256(bytes(_search)) */\n      eq\n        /* \"lecture/lec24.sol\":445:568  if(keccak256(bytes(countryList[i])) == keccak256(bytes(_search))){... */\n      iszero\n      tag_20\n      jumpi\n        /* \"lecture/lec24.sol\":536:537  i */\n      dup1\n        /* \"lecture/lec24.sol\":538:549  countryList */\n      0x00\n        /* \"lecture/lec24.sol\":550:551  i */\n      dup3\n        /* \"lecture/lec24.sol\":538:552  countryList[i] */\n      dup2\n      sload\n      dup2\n      lt\n      tag_21\n      jumpi\n      tag_22\n      tag_16\n      jump\t// in\n    tag_22:\n    tag_21:\n      swap1\n      0x00\n      mstore\n      keccak256(0x00, 0x20)\n      add\n        /* \"lecture/lec24.sol\":528:553  return (i,countryList[i]) */\n      dup1\n      dup1\n      sload\n      tag_24\n      swap1\n      tag_25\n      jump\t// in\n    tag_24:\n      dup1\n      0x1f\n      add\n      0x20\n      dup1\n      swap2\n      div\n      mul\n      0x20\n      add\n      mload(0x40)\n      swap1\n      dup2\n      add\n      0x40\n      mstore\n      dup1\n      swap3\n      swap2\n      swap1\n      dup2\n      dup2\n      mstore\n      0x20\n      add\n      dup3\n      dup1\n      sload\n      tag_26\n      swap1\n      tag_25\n      jump\t// in\n    tag_26:\n      dup1\n      iszero\n      tag_27\n      jumpi\n      dup1\n      0x1f\n      lt\n      tag_28\n      jumpi\n      0x0100\n      dup1\n      dup4\n      sload\n      div\n      mul\n      dup4\n      mstore\n      swap2\n      0x20\n      add\n      swap2\n      jump(tag_27)\n    tag_28:\n      dup3\n      add\n      swap2\n      swap1\n      0x00\n      mstore\n      keccak256(0x00, 0x20)\n      swap1\n    tag_29:\n      dup2\n      sload\n      dup2\n      mstore\n      swap1\n      0x01\n      add\n      swap1\n      0x20\n      add\n      dup1\n      dup4\n      gt\n      tag_29\n      jumpi\n      dup3\n      swap1\n      sub\n      0x1f\n      and\n      dup3\n      add\n      swap2\n    tag_27:\n      pop\n      pop\n      pop\n      pop\n      pop\n      swap1\n      pop\n      swap3\n      pop\n      swap3\n      pop\n      pop\n      jump(tag_10)\n        /* \"lecture/lec24.sol\":445:568  if(keccak256(bytes(countryList[i])) == keccak256(bytes(_search))){... */\n    tag_20:\n        /* \"lecture/lec24.sol\":418:421  i++ */\n      dup1\n      dup1\n      tag_30\n      swap1\n      tag_31\n      jump\t// in\n    tag_30:\n      swap2\n      pop\n      pop\n        /* \"lecture/lec24.sol\":379:578  for(uint256 i=0; i<countryList.length; i++){... */\n      jump(tag_11)\n    tag_12:\n      pop\n        /* \"lecture/lec24.sol\":603:604  0 */\n      0x00\n        /* \"lecture/lec24.sol\":596:615  return(0,\"Nothing\") */\n      mload(0x40)\n      dup1\n      0x40\n      add\n      0x40\n      mstore\n      dup1\n      0x07\n      dup2\n      mstore\n      0x20\n      add\n      0x4e6f7468696e6700000000000000000000000000000000000000000000000000\n      dup2\n      mstore\n      pop\n      swap2\n      pop\n      swap2\n      pop\n        /* \"lecture/lec24.sol\":273:631  function linearSearch(string memory _search) public view returns(uint256,string memory){... */\n    tag_10:\n      swap2\n      pop\n      swap2\n      jump\t// out\n        /* \"#utility.yul\":7:419   */\n    tag_33:\n        /* \"#utility.yul\":85:90   */\n      0x00\n        /* \"#utility.yul\":110:176   */\n      tag_35\n        /* \"#utility.yul\":126:175   */\n      tag_36\n        /* \"#utility.yul\":168:174   */\n      dup5\n        /* \"#utility.yul\":126:175   */\n      tag_37\n      jump\t// in\n    tag_36:\n        /* \"#utility.yul\":110:176   */\n      tag_38\n      jump\t// in\n    tag_35:\n        /* \"#utility.yul\":101:176   */\n      swap1\n      pop\n        /* \"#utility.yul\":199:205   */\n      dup3\n        /* \"#utility.yul\":192:197   */\n      dup2\n        /* \"#utility.yul\":185:206   */\n      mstore\n        /* \"#utility.yul\":237:241   */\n      0x20\n        /* \"#utility.yul\":230:235   */\n      dup2\n        /* \"#utility.yul\":226:242   */\n      add\n        /* \"#utility.yul\":275:278   */\n      dup5\n        /* \"#utility.yul\":266:272   */\n      dup5\n        /* \"#utility.yul\":261:264   */\n      dup5\n        /* \"#utility.yul\":257:273   */\n      add\n        /* \"#utility.yul\":254:279   */\n      gt\n        /* \"#utility.yul\":251:363   */\n      iszero\n      tag_39\n      jumpi\n        /* \"#utility.yul\":282:361   */\n      tag_40\n      tag_41\n      jump\t// in\n    tag_40:\n        /* \"#utility.yul\":251:363   */\n    tag_39:\n        /* \"#utility.yul\":372:413   */\n      tag_42\n        /* \"#utility.yul\":406:412   */\n      dup5\n        /* \"#utility.yul\":401:404   */\n      dup3\n        /* \"#utility.yul\":396:399   */\n      dup6\n        /* \"#utility.yul\":372:413   */\n      tag_43\n      jump\t// in\n    tag_42:\n        /* \"#utility.yul\":91:419   */\n      pop\n        /* \"#utility.yul\":7:419   */\n      swap4\n      swap3\n      pop\n      pop\n      pop\n      jump\t// out\n        /* \"#utility.yul\":439:779   */\n    tag_44:\n        /* \"#utility.yul\":495:500   */\n      0x00\n        /* \"#utility.yul\":544:547   */\n      dup3\n        /* \"#utility.yul\":537:541   */\n      0x1f\n        /* \"#utility.yul\":529:535   */\n      dup4\n        /* \"#utility.yul\":525:542   */\n      add\n        /* \"#utility.yul\":521:548   */\n      slt\n        /* \"#utility.yul\":511:633   */\n      tag_46\n      jumpi\n        /* \"#utility.yul\":552:631   */\n      tag_47\n      tag_48\n      jump\t// in\n    tag_47:\n        /* \"#utility.yul\":511:633   */\n    tag_46:\n        /* \"#utility.yul\":669:675   */\n      dup2\n        /* \"#utility.yul\":656:676   */\n      calldataload\n        /* \"#utility.yul\":694:773   */\n      tag_49\n        /* \"#utility.yul\":769:772   */\n      dup5\n        /* \"#utility.yul\":761:767   */\n      dup3\n        /* \"#utility.yul\":754:758   */\n      0x20\n        /* \"#utility.yul\":746:752   */\n      dup7\n        /* \"#utility.yul\":742:759   */\n      add\n        /* \"#utility.yul\":694:773   */\n      tag_33\n      jump\t// in\n    tag_49:\n        /* \"#utility.yul\":685:773   */\n      swap2\n      pop\n        /* \"#utility.yul\":501:779   */\n      pop\n        /* \"#utility.yul\":439:779   */\n      swap3\n      swap2\n      pop\n      pop\n      jump\t// out\n        /* \"#utility.yul\":785:1294   */\n    tag_6:\n        /* \"#utility.yul\":854:860   */\n      0x00\n        /* \"#utility.yul\":903:905   */\n      0x20\n        /* \"#utility.yul\":891:900   */\n      dup3\n        /* \"#utility.yul\":882:889   */\n      dup5\n        /* \"#utility.yul\":878:901   */\n      sub\n        /* \"#utility.yul\":874:906   */\n      slt\n        /* \"#utility.yul\":871:990   */\n      iszero\n      tag_51\n      jumpi\n        /* \"#utility.yul\":909:988   */\n      tag_52\n      tag_53\n      jump\t// in\n    tag_52:\n        /* \"#utility.yul\":871:990   */\n    tag_51:\n        /* \"#utility.yul\":1057:1058   */\n      0x00\n        /* \"#utility.yul\":1046:1055   */\n      dup3\n        /* \"#utility.yul\":1042:1059   */\n      add\n        /* \"#utility.yul\":1029:1060   */\n      calldataload\n        /* \"#utility.yul\":1087:1105   */\n      0xffffffffffffffff\n        /* \"#utility.yul\":1079:1085   */\n      dup2\n        /* \"#utility.yul\":1076:1106   */\n      gt\n        /* \"#utility.yul\":1073:1190   */\n      iszero\n      tag_54\n      jumpi\n        /* \"#utility.yul\":1109:1188   */\n      tag_55\n      tag_56\n      jump\t// in\n    tag_55:\n        /* \"#utility.yul\":1073:1190   */\n    tag_54:\n        /* \"#utility.yul\":1214:1277   */\n      tag_57\n        /* \"#utility.yul\":1269:1276   */\n      dup5\n        /* \"#utility.yul\":1260:1266   */\n      dup3\n        /* \"#utility.yul\":1249:1258   */\n      dup6\n        /* \"#utility.yul\":1245:1267   */\n      add\n        /* \"#utility.yul\":1214:1277   */\n      tag_44\n      jump\t// in\n    tag_57:\n        /* \"#utility.yul\":1204:1277   */\n      swap2\n      pop\n        /* \"#utility.yul\":1000:1287   */\n      pop\n        /* \"#utility.yul\":785:1294   */\n      swap3\n      swap2\n      pop\n      pop\n      jump\t// out\n        /* \"#utility.yul\":1322:2171   */\n    tag_58:\n        /* \"#utility.yul\":1427:1430   */\n      0x00\n        /* \"#utility.yul\":1464:1469   */\n      dup2\n        /* \"#utility.yul\":1458:1470   */\n      sload\n        /* \"#utility.yul\":1493:1529   */\n      tag_60\n        /* \"#utility.yul\":1519:1528   */\n      dup2\n        /* \"#utility.yul\":1493:1529   */\n      tag_25\n      jump\t// in\n    tag_60:\n        /* \"#utility.yul\":1545:1633   */\n      tag_61\n        /* \"#utility.yul\":1626:1632   */\n      dup2\n        /* \"#utility.yul\":1621:1624   */\n      dup7\n        /* \"#utility.yul\":1545:1633   */\n      tag_62\n      jump\t// in\n    tag_61:\n        /* \"#utility.yul\":1538:1633   */\n      swap5\n      pop\n        /* \"#utility.yul\":1664:1665   */\n      0x01\n        /* \"#utility.yul\":1653:1662   */\n      dup3\n        /* \"#utility.yul\":1649:1666   */\n      and\n        /* \"#utility.yul\":1680:1681   */\n      0x00\n        /* \"#utility.yul\":1675:1812   */\n      dup2\n      eq\n      tag_64\n      jumpi\n        /* \"#utility.yul\":1826:1827   */\n      0x01\n        /* \"#utility.yul\":1821:2165   */\n      dup2\n      eq\n      tag_65\n      jumpi\n        /* \"#utility.yul\":1642:2165   */\n      jump(tag_63)\n        /* \"#utility.yul\":1675:1812   */\n    tag_64:\n        /* \"#utility.yul\":1759:1763   */\n      0xff\n        /* \"#utility.yul\":1755:1764   */\n      not\n        /* \"#utility.yul\":1744:1753   */\n      dup4\n        /* \"#utility.yul\":1740:1765   */\n      and\n        /* \"#utility.yul\":1735:1738   */\n      dup7\n        /* \"#utility.yul\":1728:1766   */\n      mstore\n        /* \"#utility.yul\":1795:1801   */\n      dup2\n        /* \"#utility.yul\":1790:1793   */\n      dup7\n        /* \"#utility.yul\":1786:1802   */\n      add\n        /* \"#utility.yul\":1779:1802   */\n      swap4\n      pop\n        /* \"#utility.yul\":1675:1812   */\n      jump(tag_63)\n        /* \"#utility.yul\":1821:2165   */\n    tag_65:\n        /* \"#utility.yul\":1888:1929   */\n      tag_66\n        /* \"#utility.yul\":1923:1928   */\n      dup6\n        /* \"#utility.yul\":1888:1929   */\n      tag_67\n      jump\t// in\n    tag_66:\n        /* \"#utility.yul\":1951:1952   */\n      0x00\n        /* \"#utility.yul\":1965:2119   */\n    tag_68:\n        /* \"#utility.yul\":1979:1985   */\n      dup4\n        /* \"#utility.yul\":1976:1977   */\n      dup2\n        /* \"#utility.yul\":1973:1986   */\n      lt\n        /* \"#utility.yul\":1965:2119   */\n      iszero\n      tag_70\n      jumpi\n        /* \"#utility.yul\":2053:2060   */\n      dup2\n        /* \"#utility.yul\":2047:2061   */\n      sload\n        /* \"#utility.yul\":2043:2044   */\n      dup2\n        /* \"#utility.yul\":2038:2041   */\n      dup10\n        /* \"#utility.yul\":2034:2045   */\n      add\n        /* \"#utility.yul\":2027:2062   */\n      mstore\n        /* \"#utility.yul\":2103:2104   */\n      0x01\n        /* \"#utility.yul\":2094:2101   */\n      dup3\n        /* \"#utility.yul\":2090:2105   */\n      add\n        /* \"#utility.yul\":2079:2105   */\n      swap2\n      pop\n        /* \"#utility.yul\":2001:2005   */\n      0x20\n        /* \"#utility.yul\":1998:1999   */\n      dup2\n        /* \"#utility.yul\":1994:2006   */\n      add\n        /* \"#utility.yul\":1989:2006   */\n      swap1\n      pop\n        /* \"#utility.yul\":1965:2119   */\n      jump(tag_68)\n    tag_70:\n        /* \"#utility.yul\":2148:2154   */\n      dup4\n        /* \"#utility.yul\":2143:2146   */\n      dup9\n        /* \"#utility.yul\":2139:2155   */\n      add\n        /* \"#utility.yul\":2132:2155   */\n      swap6\n      pop\n        /* \"#utility.yul\":1828:2165   */\n      pop\n      pop\n        /* \"#utility.yul\":1642:2165   */\n    tag_63:\n      pop\n        /* \"#utility.yul\":1431:2171   */\n      pop\n      pop\n        /* \"#utility.yul\":1322:2171   */\n      swap3\n      swap2\n      pop\n      pop\n      jump\t// out\n        /* \"#utility.yul\":2177:2541   */\n    tag_71:\n        /* \"#utility.yul\":2265:2268   */\n      0x00\n        /* \"#utility.yul\":2293:2332   */\n      tag_73\n        /* \"#utility.yul\":2326:2331   */\n      dup3\n        /* \"#utility.yul\":2293:2332   */\n      tag_74\n      jump\t// in\n    tag_73:\n        /* \"#utility.yul\":2348:2419   */\n      tag_75\n        /* \"#utility.yul\":2412:2418   */\n      dup2\n        /* \"#utility.yul\":2407:2410   */\n      dup6\n        /* \"#utility.yul\":2348:2419   */\n      tag_76\n      jump\t// in\n    tag_75:\n        /* \"#utility.yul\":2341:2419   */\n      swap4\n      pop\n        /* \"#utility.yul\":2428:2480   */\n      tag_77\n        /* \"#utility.yul\":2473:2479   */\n      dup2\n        /* \"#utility.yul\":2468:2471   */\n      dup6\n        /* \"#utility.yul\":2461:2465   */\n      0x20\n        /* \"#utility.yul\":2454:2459   */\n      dup7\n        /* \"#utility.yul\":2450:2466   */\n      add\n        /* \"#utility.yul\":2428:2480   */\n      tag_78\n      jump\t// in\n    tag_77:\n        /* \"#utility.yul\":2505:2534   */\n      tag_79\n        /* \"#utility.yul\":2527:2533   */\n      dup2\n        /* \"#utility.yul\":2505:2534   */\n      tag_80\n      jump\t// in\n    tag_79:\n        /* \"#utility.yul\":2500:2503   */\n      dup5\n        /* \"#utility.yul\":2496:2535   */\n      add\n        /* \"#utility.yul\":2489:2535   */\n      swap2\n      pop\n        /* \"#utility.yul\":2269:2541   */\n      pop\n        /* \"#utility.yul\":2177:2541   */\n      swap3\n      swap2\n      pop\n      pop\n      jump\t// out\n        /* \"#utility.yul\":2547:2665   */\n    tag_81:\n        /* \"#utility.yul\":2634:2658   */\n      tag_83\n        /* \"#utility.yul\":2652:2657   */\n      dup2\n        /* \"#utility.yul\":2634:2658   */\n      tag_84\n      jump\t// in\n    tag_83:\n        /* \"#utility.yul\":2629:2632   */\n      dup3\n        /* \"#utility.yul\":2622:2659   */\n      mstore\n        /* \"#utility.yul\":2547:2665   */\n      pop\n      pop\n      jump\t// out\n        /* \"#utility.yul\":2671:2944   */\n    tag_19:\n        /* \"#utility.yul\":2802:2805   */\n      0x00\n        /* \"#utility.yul\":2824:2918   */\n      tag_86\n        /* \"#utility.yul\":2914:2917   */\n      dup3\n        /* \"#utility.yul\":2905:2911   */\n      dup5\n        /* \"#utility.yul\":2824:2918   */\n      tag_58\n      jump\t// in\n    tag_86:\n        /* \"#utility.yul\":2817:2918   */\n      swap2\n      pop\n        /* \"#utility.yul\":2935:2938   */\n      dup2\n        /* \"#utility.yul\":2928:2938   */\n      swap1\n      pop\n        /* \"#utility.yul\":2671:2944   */\n      swap3\n      swap2\n      pop\n      pop\n      jump\t// out\n        /* \"#utility.yul\":2950:3373   */\n    tag_9:\n        /* \"#utility.yul\":3091:3095   */\n      0x00\n        /* \"#utility.yul\":3129:3131   */\n      0x40\n        /* \"#utility.yul\":3118:3127   */\n      dup3\n        /* \"#utility.yul\":3114:3132   */\n      add\n        /* \"#utility.yul\":3106:3132   */\n      swap1\n      pop\n        /* \"#utility.yul\":3142:3213   */\n      tag_88\n        /* \"#utility.yul\":3210:3211   */\n      0x00\n        /* \"#utility.yul\":3199:3208   */\n      dup4\n        /* \"#utility.yul\":3195:3212   */\n      add\n        /* \"#utility.yul\":3186:3192   */\n      dup6\n        /* \"#utility.yul\":3142:3213   */\n      tag_81\n      jump\t// in\n    tag_88:\n        /* \"#utility.yul\":3260:3269   */\n      dup2\n        /* \"#utility.yul\":3254:3258   */\n      dup2\n        /* \"#utility.yul\":3250:3270   */\n      sub\n        /* \"#utility.yul\":3245:3247   */\n      0x20\n        /* \"#utility.yul\":3234:3243   */\n      dup4\n        /* \"#utility.yul\":3230:3248   */\n      add\n        /* \"#utility.yul\":3223:3271   */\n      mstore\n        /* \"#utility.yul\":3288:3366   */\n      tag_89\n        /* \"#utility.yul\":3361:3365   */\n      dup2\n        /* \"#utility.yul\":3352:3358   */\n      dup5\n        /* \"#utility.yul\":3288:3366   */\n      tag_71\n      jump\t// in\n    tag_89:\n        /* \"#utility.yul\":3280:3366   */\n      swap1\n      pop\n        /* \"#utility.yul\":2950:3373   */\n      swap4\n      swap3\n      pop\n      pop\n      pop\n      jump\t// out\n        /* \"#utility.yul\":3379:3508   */\n    tag_38:\n        /* \"#utility.yul\":3413:3419   */\n      0x00\n        /* \"#utility.yul\":3440:3460   */\n      tag_91\n      tag_92\n      jump\t// in\n    tag_91:\n        /* \"#utility.yul\":3430:3460   */\n      swap1\n      pop\n        /* \"#utility.yul\":3469:3502   */\n      tag_93\n        /* \"#utility.yul\":3497:3501   */\n      dup3\n        /* \"#utility.yul\":3489:3495   */\n      dup3\n        /* \"#utility.yul\":3469:3502   */\n      tag_94\n      jump\t// in\n    tag_93:\n        /* \"#utility.yul\":3379:3508   */\n      swap2\n      swap1\n      pop\n      jump\t// out\n        /* \"#utility.yul\":3514:3589   */\n    tag_92:\n        /* \"#utility.yul\":3547:3553   */\n      0x00\n        /* \"#utility.yul\":3580:3582   */\n      0x40\n        /* \"#utility.yul\":3574:3583   */\n      mload\n        /* \"#utility.yul\":3564:3583   */\n      swap1\n      pop\n        /* \"#utility.yul\":3514:3589   */\n      swap1\n      jump\t// out\n        /* \"#utility.yul\":3595:3903   */\n    tag_37:\n        /* \"#utility.yul\":3657:3661   */\n      0x00\n        /* \"#utility.yul\":3747:3765   */\n      0xffffffffffffffff\n        /* \"#utility.yul\":3739:3745   */\n      dup3\n        /* \"#utility.yul\":3736:3766   */\n      gt\n        /* \"#utility.yul\":3733:3789   */\n      iszero\n      tag_97\n      jumpi\n        /* \"#utility.yul\":3769:3787   */\n      tag_98\n      tag_99\n      jump\t// in\n    tag_98:\n        /* \"#utility.yul\":3733:3789   */\n    tag_97:\n        /* \"#utility.yul\":3807:3836   */\n      tag_100\n        /* \"#utility.yul\":3829:3835   */\n      dup3\n        /* \"#utility.yul\":3807:3836   */\n      tag_80\n      jump\t// in\n    tag_100:\n        /* \"#utility.yul\":3799:3836   */\n      swap1\n      pop\n        /* \"#utility.yul\":3891:3895   */\n      0x20\n        /* \"#utility.yul\":3885:3889   */\n      dup2\n        /* \"#utility.yul\":3881:3896   */\n      add\n        /* \"#utility.yul\":3873:3896   */\n      swap1\n      pop\n        /* \"#utility.yul\":3595:3903   */\n      swap2\n      swap1\n      pop\n      jump\t// out\n        /* \"#utility.yul\":3909:4053   */\n    tag_67:\n        /* \"#utility.yul\":3961:3965   */\n      0x00\n        /* \"#utility.yul\":3984:3987   */\n      dup2\n        /* \"#utility.yul\":3976:3987   */\n      swap1\n      pop\n        /* \"#utility.yul\":4007:4010   */\n      dup2\n        /* \"#utility.yul\":4004:4005   */\n      0x00\n        /* \"#utility.yul\":3997:4011   */\n      mstore\n        /* \"#utility.yul\":4041:4045   */\n      0x20\n        /* \"#utility.yul\":4038:4039   */\n      0x00\n        /* \"#utility.yul\":4028:4046   */\n      keccak256\n        /* \"#utility.yul\":4020:4046   */\n      swap1\n      pop\n        /* \"#utility.yul\":3909:4053   */\n      swap2\n      swap1\n      pop\n      jump\t// out\n        /* \"#utility.yul\":4059:4158   */\n    tag_74:\n        /* \"#utility.yul\":4111:4117   */\n      0x00\n        /* \"#utility.yul\":4145:4150   */\n      dup2\n        /* \"#utility.yul\":4139:4151   */\n      mload\n        /* \"#utility.yul\":4129:4151   */\n      swap1\n      pop\n        /* \"#utility.yul\":4059:4158   */\n      swap2\n      swap1\n      pop\n      jump\t// out\n        /* \"#utility.yul\":4164:4311   */\n    tag_62:\n        /* \"#utility.yul\":4265:4276   */\n      0x00\n        /* \"#utility.yul\":4302:4305   */\n      dup2\n        /* \"#utility.yul\":4287:4305   */\n      swap1\n      pop\n        /* \"#utility.yul\":4164:4311   */\n      swap3\n      swap2\n      pop\n      pop\n      jump\t// out\n        /* \"#utility.yul\":4317:4486   */\n    tag_76:\n        /* \"#utility.yul\":4401:4412   */\n      0x00\n        /* \"#utility.yul\":4435:4441   */\n      dup3\n        /* \"#utility.yul\":4430:4433   */\n      dup3\n        /* \"#utility.yul\":4423:4442   */\n      mstore\n        /* \"#utility.yul\":4475:4479   */\n      0x20\n        /* \"#utility.yul\":4470:4473   */\n      dup3\n        /* \"#utility.yul\":4466:4480   */\n      add\n        /* \"#utility.yul\":4451:4480   */\n      swap1\n      pop\n        /* \"#utility.yul\":4317:4486   */\n      swap3\n      swap2\n      pop\n      pop\n      jump\t// out\n        /* \"#utility.yul\":4492:4569   */\n    tag_84:\n        /* \"#utility.yul\":4529:4536   */\n      0x00\n        /* \"#utility.yul\":4558:4563   */\n      dup2\n        /* \"#utility.yul\":4547:4563   */\n      swap1\n      pop\n        /* \"#utility.yul\":4492:4569   */\n      swap2\n      swap1\n      pop\n      jump\t// out\n        /* \"#utility.yul\":4575:4729   */\n    tag_43:\n        /* \"#utility.yul\":4659:4665   */\n      dup3\n        /* \"#utility.yul\":4654:4657   */\n      dup2\n        /* \"#utility.yul\":4649:4652   */\n      dup4\n        /* \"#utility.yul\":4636:4666   */\n      calldatacopy\n        /* \"#utility.yul\":4721:4722   */\n      0x00\n        /* \"#utility.yul\":4712:4718   */\n      dup4\n        /* \"#utility.yul\":4707:4710   */\n      dup4\n        /* \"#utility.yul\":4703:4719   */\n      add\n        /* \"#utility.yul\":4696:4723   */\n      mstore\n        /* \"#utility.yul\":4575:4729   */\n      pop\n      pop\n      pop\n      jump\t// out\n        /* \"#utility.yul\":4735:5042   */\n    tag_78:\n        /* \"#utility.yul\":4803:4804   */\n      0x00\n        /* \"#utility.yul\":4813:4926   */\n    tag_108:\n        /* \"#utility.yul\":4827:4833   */\n      dup4\n        /* \"#utility.yul\":4824:4825   */\n      dup2\n        /* \"#utility.yul\":4821:4834   */\n      lt\n        /* \"#utility.yul\":4813:4926   */\n      iszero\n      tag_110\n      jumpi\n        /* \"#utility.yul\":4912:4913   */\n      dup1\n        /* \"#utility.yul\":4907:4910   */\n      dup3\n        /* \"#utility.yul\":4903:4914   */\n      add\n        /* \"#utility.yul\":4897:4915   */\n      mload\n        /* \"#utility.yul\":4893:4894   */\n      dup2\n        /* \"#utility.yul\":4888:4891   */\n      dup5\n        /* \"#utility.yul\":4884:4895   */\n      add\n        /* \"#utility.yul\":4877:4916   */\n      mstore\n        /* \"#utility.yul\":4849:4851   */\n      0x20\n        /* \"#utility.yul\":4846:4847   */\n      dup2\n        /* \"#utility.yul\":4842:4852   */\n      add\n        /* \"#utility.yul\":4837:4852   */\n      swap1\n      pop\n        /* \"#utility.yul\":4813:4926   */\n      jump(tag_108)\n    tag_110:\n        /* \"#utility.yul\":4944:4950   */\n      dup4\n        /* \"#utility.yul\":4941:4942   */\n      dup2\n        /* \"#utility.yul\":4938:4951   */\n      gt\n        /* \"#utility.yul\":4935:5036   */\n      iszero\n      tag_111\n      jumpi\n        /* \"#utility.yul\":5024:5025   */\n      0x00\n        /* \"#utility.yul\":5015:5021   */\n      dup5\n        /* \"#utility.yul\":5010:5013   */\n      dup5\n        /* \"#utility.yul\":5006:5022   */\n      add\n        /* \"#utility.yul\":4999:5026   */\n      mstore\n        /* \"#utility.yul\":4935:5036   */\n    tag_111:\n        /* \"#utility.yul\":4784:5042   */\n      pop\n        /* \"#utility.yul\":4735:5042   */\n      pop\n      pop\n      pop\n      jump\t// out\n        /* \"#utility.yul\":5048:5368   */\n    tag_25:\n        /* \"#utility.yul\":5092:5098   */\n      0x00\n        /* \"#utility.yul\":5129:5130   */\n      0x02\n        /* \"#utility.yul\":5123:5127   */\n      dup3\n        /* \"#utility.yul\":5119:5131   */\n      div\n        /* \"#utility.yul\":5109:5131   */\n      swap1\n      pop\n        /* \"#utility.yul\":5176:5177   */\n      0x01\n        /* \"#utility.yul\":5170:5174   */\n      dup3\n        /* \"#utility.yul\":5166:5178   */\n      and\n        /* \"#utility.yul\":5197:5215   */\n      dup1\n        /* \"#utility.yul\":5187:5268   */\n      tag_113\n      jumpi\n        /* \"#utility.yul\":5253:5257   */\n      0x7f\n        /* \"#utility.yul\":5245:5251   */\n      dup3\n        /* \"#utility.yul\":5241:5258   */\n      and\n        /* \"#utility.yul\":5231:5258   */\n      swap2\n      pop\n        /* \"#utility.yul\":5187:5268   */\n    tag_113:\n        /* \"#utility.yul\":5315:5317   */\n      0x20\n        /* \"#utility.yul\":5307:5313   */\n      dup3\n        /* \"#utility.yul\":5304:5318   */\n      lt\n        /* \"#utility.yul\":5284:5302   */\n      dup2\n        /* \"#utility.yul\":5281:5319   */\n      eq\n        /* \"#utility.yul\":5278:5362   */\n      iszero\n      tag_114\n      jumpi\n        /* \"#utility.yul\":5334:5352   */\n      tag_115\n      tag_116\n      jump\t// in\n    tag_115:\n        /* \"#utility.yul\":5278:5362   */\n    tag_114:\n        /* \"#utility.yul\":5099:5368   */\n      pop\n        /* \"#utility.yul\":5048:5368   */\n      swap2\n      swap1\n      pop\n      jump\t// out\n        /* \"#utility.yul\":5374:5655   */\n    tag_94:\n        /* \"#utility.yul\":5457:5484   */\n      tag_118\n        /* \"#utility.yul\":5479:5483   */\n      dup3\n        /* \"#utility.yul\":5457:5484   */\n      tag_80\n      jump\t// in\n    tag_118:\n        /* \"#utility.yul\":5449:5455   */\n      dup2\n        /* \"#utility.yul\":5445:5485   */\n      add\n        /* \"#utility.yul\":5587:5593   */\n      dup2\n        /* \"#utility.yul\":5575:5585   */\n      dup2\n        /* \"#utility.yul\":5572:5594   */\n      lt\n        /* \"#utility.yul\":5551:5569   */\n      0xffffffffffffffff\n        /* \"#utility.yul\":5539:5549   */\n      dup3\n        /* \"#utility.yul\":5536:5570   */\n      gt\n        /* \"#utility.yul\":5533:5595   */\n      or\n        /* \"#utility.yul\":5530:5618   */\n      iszero\n      tag_119\n      jumpi\n        /* \"#utility.yul\":5598:5616   */\n      tag_120\n      tag_99\n      jump\t// in\n    tag_120:\n        /* \"#utility.yul\":5530:5618   */\n    tag_119:\n        /* \"#utility.yul\":5638:5648   */\n      dup1\n        /* \"#utility.yul\":5634:5636   */\n      0x40\n        /* \"#utility.yul\":5627:5649   */\n      mstore\n        /* \"#utility.yul\":5417:5655   */\n      pop\n        /* \"#utility.yul\":5374:5655   */\n      pop\n      pop\n      jump\t// out\n        /* \"#utility.yul\":5661:5894   */\n    tag_31:\n        /* \"#utility.yul\":5700:5703   */\n      0x00\n        /* \"#utility.yul\":5723:5747   */\n      tag_122\n        /* \"#utility.yul\":5741:5746   */\n      dup3\n        /* \"#utility.yul\":5723:5747   */\n      tag_84\n      jump\t// in\n    tag_122:\n        /* \"#utility.yul\":5714:5747   */\n      swap2\n      pop\n        /* \"#utility.yul\":5769:5835   */\n      0xffffffffffffffffffffffffffffffffffffffffffffffffffffffffffffffff\n        /* \"#utility.yul\":5762:5767   */\n      dup3\n        /* \"#utility.yul\":5759:5836   */\n      eq\n        /* \"#utility.yul\":5756:5859   */\n      iszero\n      tag_123\n      jumpi\n        /* \"#utility.yul\":5839:5857   */\n      tag_124\n      tag_125\n      jump\t// in\n    tag_124:\n        /* \"#utility.yul\":5756:5859   */\n    tag_123:\n        /* \"#utility.yul\":5886:5887   */\n      0x01\n        /* \"#utility.yul\":5879:5884   */\n      dup3\n        /* \"#utility.yul\":5875:5888   */\n      add\n        /* \"#utility.yul\":5868:5888   */\n      swap1\n      pop\n        /* \"#utility.yul\":5661:5894   */\n      swap2\n      swap1\n      pop\n      jump\t// out\n        /* \"#utility.yul\":5900:6080   */\n    tag_125:\n        /* \"#utility.yul\":5948:6025   */\n      0x4e487b7100000000000000000000000000000000000000000000000000000000\n        /* \"#utility.yul\":5945:5946   */\n      0x00\n        /* \"#utility.yul\":5938:6026   */\n      mstore\n        /* \"#utility.yul\":6045:6049   */\n      0x11\n        /* \"#utility.yul\":6042:6043   */\n      0x04\n        /* \"#utility.yul\":6035:6050   */\n      mstore\n        /* \"#utility.yul\":6069:6073   */\n      0x24\n        /* \"#utility.yul\":6066:6067   */\n      0x00\n        /* \"#utility.yul\":6059:6074   */\n      revert\n        /* \"#utility.yul\":6086:6266   */\n    tag_116:\n        /* \"#utility.yul\":6134:6211   */\n      0x4e487b7100000000000000000000000000000000000000000000000000000000\n        /* \"#utility.yul\":6131:6132   */\n      0x00\n        /* \"#utility.yul\":6124:6212   */\n      mstore\n        /* \"#utility.yul\":6231:6235   */\n      0x22\n        /* \"#utility.yul\":6228:6229   */\n      0x04\n        /* \"#utility.yul\":6221:6236   */\n      mstore\n        /* \"#utility.yul\":6255:6259   */\n      0x24\n        /* \"#utility.yul\":6252:6253   */\n      0x00\n        /* \"#utility.yul\":6245:6260   */\n      revert\n        /* \"#utility.yul\":6272:6452   */\n    tag_16:\n        /* \"#utility.yul\":6320:6397   */\n      0x4e487b7100000000000000000000000000000000000000000000000000000000\n        /* \"#utility.yul\":6317:6318   */\n      0x00\n        /* \"#utility.yul\":6310:6398   */\n      mstore\n        /* \"#utility.yul\":6417:6421   */\n      0x32\n        /* \"#utility.yul\":6414:6415   */\n      0x04\n        /* \"#utility.yul\":6407:6422   */\n      mstore\n        /* \"#utility.yul\":6441:6445   */\n      0x24\n        /* \"#utility.yul\":6438:6439   */\n      0x00\n        /* \"#utility.yul\":6431:6446   */\n      revert\n        /* \"#utility.yul\":6458:6638   */\n    tag_99:\n        /* \"#utility.yul\":6506:6583   */\n      0x4e487b7100000000000000000000000000000000000000000000000000000000\n        /* \"#utility.yul\":6503:6504   */\n      0x00\n        /* \"#utility.yul\":6496:6584   */\n      mstore\n        /* \"#utility.yul\":6603:6607   */\n      0x41\n        /* \"#utility.yul\":6600:6601   */\n      0x04\n        /* \"#utility.yul\":6593:6608   */\n      mstore\n        /* \"#utility.yul\":6627:6631   */\n      0x24\n        /* \"#utility.yul\":6624:6625   */\n      0x00\n        /* \"#utility.yul\":6617:6632   */\n      revert\n        /* \"#utility.yul\":6644:6761   */\n    tag_48:\n        /* \"#utility.yul\":6753:6754   */\n      0x00\n        /* \"#utility.yul\":6750:6751   */\n      dup1\n        /* \"#utility.yul\":6743:6755   */\n      revert\n        /* \"#utility.yul\":6767:6884   */\n    tag_41:\n        /* \"#utility.yul\":6876:6877   */\n      0x00\n        /* \"#utility.yul\":6873:6874   */\n      dup1\n        /* \"#utility.yul\":6866:6878   */\n      revert\n        /* \"#utility.yul\":6890:7007   */\n    tag_56:\n        /* \"#utility.yul\":6999:7000   */\n      0x00\n        /* \"#utility.yul\":6996:6997   */\n      dup1\n        /* \"#utility.yul\":6989:7001   */\n      revert\n        /* \"#utility.yul\":7013:7130   */\n    tag_53:\n        /* \"#utility.yul\":7122:7123   */\n      0x00\n        /* \"#utility.yul\":7119:7120   */\n      dup1\n        /* \"#utility.yul\":7112:7124   */\n      revert\n        /* \"#utility.yul\":7136:7238   */\n    tag_80:\n        /* \"#utility.yul\":7177:7183   */\n      0x00\n        /* \"#utility.yul\":7228:7230   */\n      0x1f\n        /* \"#utility.yul\":7224:7231   */\n      not\n        /* \"#utility.yul\":7219:7221   */\n      0x1f\n        /* \"#utility.yul\":7212:7217   */\n      dup4\n        /* \"#utility.yul\":7208:7222   */\n      add\n        /* \"#utility.yul\":7204:7232   */\n      and\n        /* \"#utility.yul\":7194:7232   */\n      swap1\n      pop\n        /* \"#utility.yul\":7136:7238   */\n      swap2\n      swap1\n      pop\n      jump\t// out\n\n    auxdata: 0xa26469706673582212203215a508b039c1cc7ac961a75af4ef8f925c1ffea7b0f044bdedb0e8c49a760164736f6c63430008070033\n}\n",
				"bytecode": {
					"linkReferences": {},
					"object": "60806040526040518060a001604052806040518060400160405280600b81526020017f536f757468204b6f72656100000000000000000000000000000000000000000081525081526020016040518060400160405280600b81526020017f4e6f727468204b6f72656100000000000000000000000000000000000000000081525081526020016040518060400160405280600381526020017f555341000000000000000000000000000000000000000000000000000000000081525081526020016040518060400160405280600581526020017f4368696e6100000000000000000000000000000000000000000000000000000081525081526020016040518060400160405280600581526020017f4a6170616e0000000000000000000000000000000000000000000000000000008152508152506000906005610144929190610157565b5034801561015157600080fd5b5061031f565b8280548282559060005260206000209081019282156101a6579160200282015b828111156101a55782518290805190602001906101959291906101b7565b5091602001919060010190610177565b5b5090506101b3919061023d565b5090565b8280546101c3906102be565b90600052602060002090601f0160209004810192826101e5576000855561022c565b82601f106101fe57805160ff191683800117855561022c565b8280016001018555821561022c579182015b8281111561022b578251825591602001919060010190610210565b5b5090506102399190610261565b5090565b5b8082111561025d5760008181610254919061027e565b5060010161023e565b5090565b5b8082111561027a576000816000905550600101610262565b5090565b50805461028a906102be565b6000825580601f1061029c57506102bb565b601f0160209004906000526020600020908101906102ba9190610261565b5b50565b600060028204905060018216806102d657607f821691505b602082108114156102ea576102e96102f0565b5b50919050565b7f4e487b7100000000000000000000000000000000000000000000000000000000600052602260045260246000fd5b6106298061032e6000396000f3fe608060405234801561001057600080fd5b506004361061002b5760003560e01c8063655f478b14610030575b600080fd5b61004a60048036038101906100459190610231565b610061565b604051610058929190610358565b60405180910390f35b6000606060005b60008054905081101561017e5783805190602001206000828154811061009157610090610570565b5b906000526020600020016040516100a89190610341565b6040518091039020141561016b5780600082815481106100cb576100ca610570565b5b906000526020600020018080546100e190610466565b80601f016020809104026020016040519081016040528092919081815260200182805461010d90610466565b801561015a5780601f1061012f5761010080835404028352916020019161015a565b820191906000526020600020905b81548152906001019060200180831161013d57829003601f168201915b5050505050905092509250506101bc565b8080610176906104c9565b915050610068565b5060006040518060400160405280600781526020017f4e6f7468696e6700000000000000000000000000000000000000000000000000815250915091505b915091565b60006101d46101cf846103ad565b610388565b9050828152602081018484840111156101f0576101ef6105d3565b5b6101fb848285610424565b509392505050565b600082601f830112610218576102176105ce565b5b81356102288482602086016101c1565b91505092915050565b600060208284031215610247576102466105dd565b5b600082013567ffffffffffffffff811115610265576102646105d8565b5b61027184828501610203565b91505092915050565b6000815461028781610466565b61029181866103fe565b945060018216600081146102ac57600181146102bd576102f0565b60ff198316865281860193506102f0565b6102c6856103de565b60005b838110156102e8578154818901526001820191506020810190506102c9565b838801955050505b50505092915050565b6000610304826103f3565b61030e8185610409565b935061031e818560208601610433565b610327816105e2565b840191505092915050565b61033b8161041a565b82525050565b600061034d828461027a565b915081905092915050565b600060408201905061036d6000830185610332565b818103602083015261037f81846102f9565b90509392505050565b60006103926103a3565b905061039e8282610498565b919050565b6000604051905090565b600067ffffffffffffffff8211156103c8576103c761059f565b5b6103d1826105e2565b9050602081019050919050565b60008190508160005260206000209050919050565b600081519050919050565b600081905092915050565b600082825260208201905092915050565b6000819050919050565b82818337600083830152505050565b60005b83811015610451578082015181840152602081019050610436565b83811115610460576000848401525b50505050565b6000600282049050600182168061047e57607f821691505b6020821081141561049257610491610541565b5b50919050565b6104a1826105e2565b810181811067ffffffffffffffff821117156104c0576104bf61059f565b5b80604052505050565b60006104d48261041a565b91507fffffffffffffffffffffffffffffffffffffffffffffffffffffffffffffffff82141561050757610506610512565b5b600182019050919050565b7f4e487b7100000000000000000000000000000000000000000000000000000000600052601160045260246000fd5b7f4e487b7100000000000000000000000000000000000000000000000000000000600052602260045260246000fd5b7f4e487b7100000000000000000000000000000000000000000000000000000000600052603260045260246000fd5b7f4e487b7100000000000000000000000000000000000000000000000000000000600052604160045260246000fd5b600080fd5b600080fd5b600080fd5b600080fd5b6000601f19601f830116905091905056fea26469706673582212203215a508b039c1cc7ac961a75af4ef8f925c1ffea7b0f044bdedb0e8c49a760164736f6c63430008070033",
					"opcodes": "PUSH1 0x80 PUSH1 0x40 MSTORE PUSH1 0x40 MLOAD DUP1 PUSH1 0xA0 ADD PUSH1 0x40 MSTORE DUP1 PUSH1 0x40 MLOAD DUP1 PUSH1 0x40 ADD PUSH1 0x40 MSTORE DUP1 PUSH1 0xB DUP2 MSTORE PUSH1 0x20 ADD PUSH32 0x536F757468204B6F726561000000000000000000000000000000000000000000 DUP2 MSTORE POP DUP2 MSTORE PUSH1 0x20 ADD PUSH1 0x40 MLOAD DUP1 PUSH1 0x40 ADD PUSH1 0x40 MSTORE DUP1 PUSH1 0xB DUP2 MSTORE PUSH1 0x20 ADD PUSH32 0x4E6F727468204B6F726561000000000000000000000000000000000000000000 DUP2 MSTORE POP DUP2 MSTORE PUSH1 0x20 ADD PUSH1 0x40 MLOAD DUP1 PUSH1 0x40 ADD PUSH1 0x40 MSTORE DUP1 PUSH1 0x3 DUP2 MSTORE PUSH1 0x20 ADD PUSH32 0x5553410000000000000000000000000000000000000000000000000000000000 DUP2 MSTORE POP DUP2 MSTORE PUSH1 0x20 ADD PUSH1 0x40 MLOAD DUP1 PUSH1 0x40 ADD PUSH1 0x40 MSTORE DUP1 PUSH1 0x5 DUP2 MSTORE PUSH1 0x20 ADD PUSH32 0x4368696E61000000000000000000000000000000000000000000000000000000 DUP2 MSTORE POP DUP2 MSTORE PUSH1 0x20 ADD PUSH1 0x40 MLOAD DUP1 PUSH1 0x40 ADD PUSH1 0x40 MSTORE DUP1 PUSH1 0x5 DUP2 MSTORE PUSH1 0x20 ADD PUSH32 0x4A6170616E000000000000000000000000000000000000000000000000000000 DUP2 MSTORE POP DUP2 MSTORE POP PUSH1 0x0 SWAP1 PUSH1 0x5 PUSH2 0x144 SWAP3 SWAP2 SWAP1 PUSH2 0x157 JUMP JUMPDEST POP CALLVALUE DUP1 ISZERO PUSH2 0x151 JUMPI PUSH1 0x0 DUP1 REVERT JUMPDEST POP PUSH2 0x31F JUMP JUMPDEST DUP3 DUP1 SLOAD DUP3 DUP3 SSTORE SWAP1 PUSH1 0x0 MSTORE PUSH1 0x20 PUSH1 0x0 KECCAK256 SWAP1 DUP2 ADD SWAP3 DUP3 ISZERO PUSH2 0x1A6 JUMPI SWAP2 PUSH1 0x20 MUL DUP3 ADD JUMPDEST DUP3 DUP2 GT ISZERO PUSH2 0x1A5 JUMPI DUP3 MLOAD DUP3 SWAP1 DUP1 MLOAD SWAP1 PUSH1 0x20 ADD SWAP1 PUSH2 0x195 SWAP3 SWAP2 SWAP1 PUSH2 0x1B7 JUMP JUMPDEST POP SWAP2 PUSH1 0x20 ADD SWAP2 SWAP1 PUSH1 0x1 ADD SWAP1 PUSH2 0x177 JUMP JUMPDEST JUMPDEST POP SWAP1 POP PUSH2 0x1B3 SWAP2 SWAP1 PUSH2 0x23D JUMP JUMPDEST POP SWAP1 JUMP JUMPDEST DUP3 DUP1 SLOAD PUSH2 0x1C3 SWAP1 PUSH2 0x2BE JUMP JUMPDEST SWAP1 PUSH1 0x0 MSTORE PUSH1 0x20 PUSH1 0x0 KECCAK256 SWAP1 PUSH1 0x1F ADD PUSH1 0x20 SWAP1 DIV DUP2 ADD SWAP3 DUP3 PUSH2 0x1E5 JUMPI PUSH1 0x0 DUP6 SSTORE PUSH2 0x22C JUMP JUMPDEST DUP3 PUSH1 0x1F LT PUSH2 0x1FE JUMPI DUP1 MLOAD PUSH1 0xFF NOT AND DUP4 DUP1 ADD OR DUP6 SSTORE PUSH2 0x22C JUMP JUMPDEST DUP3 DUP1 ADD PUSH1 0x1 ADD DUP6 SSTORE DUP3 ISZERO PUSH2 0x22C JUMPI SWAP2 DUP3 ADD JUMPDEST DUP3 DUP2 GT ISZERO PUSH2 0x22B JUMPI DUP3 MLOAD DUP3 SSTORE SWAP2 PUSH1 0x20 ADD SWAP2 SWAP1 PUSH1 0x1 ADD SWAP1 PUSH2 0x210 JUMP JUMPDEST JUMPDEST POP SWAP1 POP PUSH2 0x239 SWAP2 SWAP1 PUSH2 0x261 JUMP JUMPDEST POP SWAP1 JUMP JUMPDEST JUMPDEST DUP1 DUP3 GT ISZERO PUSH2 0x25D JUMPI PUSH1 0x0 DUP2 DUP2 PUSH2 0x254 SWAP2 SWAP1 PUSH2 0x27E JUMP JUMPDEST POP PUSH1 0x1 ADD PUSH2 0x23E JUMP JUMPDEST POP SWAP1 JUMP JUMPDEST JUMPDEST DUP1 DUP3 GT ISZERO PUSH2 0x27A JUMPI PUSH1 0x0 DUP2 PUSH1 0x0 SWAP1 SSTORE POP PUSH1 0x1 ADD PUSH2 0x262 JUMP JUMPDEST POP SWAP1 JUMP JUMPDEST POP DUP1 SLOAD PUSH2 0x28A SWAP1 PUSH2 0x2BE JUMP JUMPDEST PUSH1 0x0 DUP3 SSTORE DUP1 PUSH1 0x1F LT PUSH2 0x29C JUMPI POP PUSH2 0x2BB JUMP JUMPDEST PUSH1 0x1F ADD PUSH1 0x20 SWAP1 DIV SWAP1 PUSH1 0x0 MSTORE PUSH1 0x20 PUSH1 0x0 KECCAK256 SWAP1 DUP2 ADD SWAP1 PUSH2 0x2BA SWAP2 SWAP1 PUSH2 0x261 JUMP JUMPDEST JUMPDEST POP JUMP JUMPDEST PUSH1 0x0 PUSH1 0x2 DUP3 DIV SWAP1 POP PUSH1 0x1 DUP3 AND DUP1 PUSH2 0x2D6 JUMPI PUSH1 0x7F DUP3 AND SWAP2 POP JUMPDEST PUSH1 0x20 DUP3 LT DUP2 EQ ISZERO PUSH2 0x2EA JUMPI PUSH2 0x2E9 PUSH2 0x2F0 JUMP JUMPDEST JUMPDEST POP SWAP2 SWAP1 POP JUMP JUMPDEST PUSH32 0x4E487B7100000000000000000000000000000000000000000000000000000000 PUSH1 0x0 MSTORE PUSH1 0x22 PUSH1 0x4 MSTORE PUSH1 0x24 PUSH1 0x0 REVERT JUMPDEST PUSH2 0x629 DUP1 PUSH2 0x32E PUSH1 0x0 CODECOPY PUSH1 0x0 RETURN INVALID PUSH1 0x80 PUSH1 0x40 MSTORE CALLVALUE DUP1 ISZERO PUSH2 0x10 JUMPI PUSH1 0x0 DUP1 REVERT JUMPDEST POP PUSH1 0x4 CALLDATASIZE LT PUSH2 0x2B JUMPI PUSH1 0x0 CALLDATALOAD PUSH1 0xE0 SHR DUP1 PUSH4 0x655F478B EQ PUSH2 0x30 JUMPI JUMPDEST PUSH1 0x0 DUP1 REVERT JUMPDEST PUSH2 0x4A PUSH1 0x4 DUP1 CALLDATASIZE SUB DUP2 ADD SWAP1 PUSH2 0x45 SWAP2 SWAP1 PUSH2 0x231 JUMP JUMPDEST PUSH2 0x61 JUMP JUMPDEST PUSH1 0x40 MLOAD PUSH2 0x58 SWAP3 SWAP2 SWAP1 PUSH2 0x358 JUMP JUMPDEST PUSH1 0x40 MLOAD DUP1 SWAP2 SUB SWAP1 RETURN JUMPDEST PUSH1 0x0 PUSH1 0x60 PUSH1 0x0 JUMPDEST PUSH1 0x0 DUP1 SLOAD SWAP1 POP DUP2 LT ISZERO PUSH2 0x17E JUMPI DUP4 DUP1 MLOAD SWAP1 PUSH1 0x20 ADD KECCAK256 PUSH1 0x0 DUP3 DUP2 SLOAD DUP2 LT PUSH2 0x91 JUMPI PUSH2 0x90 PUSH2 0x570 JUMP JUMPDEST JUMPDEST SWAP1 PUSH1 0x0 MSTORE PUSH1 0x20 PUSH1 0x0 KECCAK256 ADD PUSH1 0x40 MLOAD PUSH2 0xA8 SWAP2 SWAP1 PUSH2 0x341 JUMP JUMPDEST PUSH1 0x40 MLOAD DUP1 SWAP2 SUB SWAP1 KECCAK256 EQ ISZERO PUSH2 0x16B JUMPI DUP1 PUSH1 0x0 DUP3 DUP2 SLOAD DUP2 LT PUSH2 0xCB JUMPI PUSH2 0xCA PUSH2 0x570 JUMP JUMPDEST JUMPDEST SWAP1 PUSH1 0x0 MSTORE PUSH1 0x20 PUSH1 0x0 KECCAK256 ADD DUP1 DUP1 SLOAD PUSH2 0xE1 SWAP1 PUSH2 0x466 JUMP JUMPDEST DUP1 PUSH1 0x1F ADD PUSH1 0x20 DUP1 SWAP2 DIV MUL PUSH1 0x20 ADD PUSH1 0x40 MLOAD SWAP1 DUP2 ADD PUSH1 0x40 MSTORE DUP1 SWAP3 SWAP2 SWAP1 DUP2 DUP2 MSTORE PUSH1 0x20 ADD DUP3 DUP1 SLOAD PUSH2 0x10D SWAP1 PUSH2 0x466 JUMP JUMPDEST DUP1 ISZERO PUSH2 0x15A JUMPI DUP1 PUSH1 0x1F LT PUSH2 0x12F JUMPI PUSH2 0x100 DUP1 DUP4 SLOAD DIV MUL DUP4 MSTORE SWAP2 PUSH1 0x20 ADD SWAP2 PUSH2 0x15A JUMP JUMPDEST DUP3 ADD SWAP2 SWAP1 PUSH1 0x0 MSTORE PUSH1 0x20 PUSH1 0x0 KECCAK256 SWAP1 JUMPDEST DUP2 SLOAD DUP2 MSTORE SWAP1 PUSH1 0x1 ADD SWAP1 PUSH1 0x20 ADD DUP1 DUP4 GT PUSH2 0x13D JUMPI DUP3 SWAP1 SUB PUSH1 0x1F AND DUP3 ADD SWAP2 JUMPDEST POP POP POP POP POP SWAP1 POP SWAP3 POP SWAP3 POP POP PUSH2 0x1BC JUMP JUMPDEST DUP1 DUP1 PUSH2 0x176 SWAP1 PUSH2 0x4C9 JUMP JUMPDEST SWAP2 POP POP PUSH2 0x68 JUMP JUMPDEST POP PUSH1 0x0 PUSH1 0x40 MLOAD DUP1 PUSH1 0x40 ADD PUSH1 0x40 MSTORE DUP1 PUSH1 0x7 DUP2 MSTORE PUSH1 0x20 ADD PUSH32 0x4E6F7468696E6700000000000000000000000000000000000000000000000000 DUP2 MSTORE POP SWAP2 POP SWAP2 POP JUMPDEST SWAP2 POP SWAP2 JUMP JUMPDEST PUSH1 0x0 PUSH2 0x1D4 PUSH2 0x1CF DUP5 PUSH2 0x3AD JUMP JUMPDEST PUSH2 0x388 JUMP JUMPDEST SWAP1 POP DUP3 DUP2 MSTORE PUSH1 0x20 DUP2 ADD DUP5 DUP5 DUP5 ADD GT ISZERO PUSH2 0x1F0 JUMPI PUSH2 0x1EF PUSH2 0x5D3 JUMP JUMPDEST JUMPDEST PUSH2 0x1FB DUP5 DUP3 DUP6 PUSH2 0x424 JUMP JUMPDEST POP SWAP4 SWAP3 POP POP POP JUMP JUMPDEST PUSH1 0x0 DUP3 PUSH1 0x1F DUP4 ADD SLT PUSH2 0x218 JUMPI PUSH2 0x217 PUSH2 0x5CE JUMP JUMPDEST JUMPDEST DUP2 CALLDATALOAD PUSH2 0x228 DUP5 DUP3 PUSH1 0x20 DUP7 ADD PUSH2 0x1C1 JUMP JUMPDEST SWAP2 POP POP SWAP3 SWAP2 POP POP JUMP JUMPDEST PUSH1 0x0 PUSH1 0x20 DUP3 DUP5 SUB SLT ISZERO PUSH2 0x247 JUMPI PUSH2 0x246 PUSH2 0x5DD JUMP JUMPDEST JUMPDEST PUSH1 0x0 DUP3 ADD CALLDATALOAD PUSH8 0xFFFFFFFFFFFFFFFF DUP2 GT ISZERO PUSH2 0x265 JUMPI PUSH2 0x264 PUSH2 0x5D8 JUMP JUMPDEST JUMPDEST PUSH2 0x271 DUP5 DUP3 DUP6 ADD PUSH2 0x203 JUMP JUMPDEST SWAP2 POP POP SWAP3 SWAP2 POP POP JUMP JUMPDEST PUSH1 0x0 DUP2 SLOAD PUSH2 0x287 DUP2 PUSH2 0x466 JUMP JUMPDEST PUSH2 0x291 DUP2 DUP7 PUSH2 0x3FE JUMP JUMPDEST SWAP5 POP PUSH1 0x1 DUP3 AND PUSH1 0x0 DUP2 EQ PUSH2 0x2AC JUMPI PUSH1 0x1 DUP2 EQ PUSH2 0x2BD JUMPI PUSH2 0x2F0 JUMP JUMPDEST PUSH1 0xFF NOT DUP4 AND DUP7 MSTORE DUP2 DUP7 ADD SWAP4 POP PUSH2 0x2F0 JUMP JUMPDEST PUSH2 0x2C6 DUP6 PUSH2 0x3DE JUMP JUMPDEST PUSH1 0x0 JUMPDEST DUP4 DUP2 LT ISZERO PUSH2 0x2E8 JUMPI DUP2 SLOAD DUP2 DUP10 ADD MSTORE PUSH1 0x1 DUP3 ADD SWAP2 POP PUSH1 0x20 DUP2 ADD SWAP1 POP PUSH2 0x2C9 JUMP JUMPDEST DUP4 DUP9 ADD SWAP6 POP POP POP JUMPDEST POP POP POP SWAP3 SWAP2 POP POP JUMP JUMPDEST PUSH1 0x0 PUSH2 0x304 DUP3 PUSH2 0x3F3 JUMP JUMPDEST PUSH2 0x30E DUP2 DUP6 PUSH2 0x409 JUMP JUMPDEST SWAP4 POP PUSH2 0x31E DUP2 DUP6 PUSH1 0x20 DUP7 ADD PUSH2 0x433 JUMP JUMPDEST PUSH2 0x327 DUP2 PUSH2 0x5E2 JUMP JUMPDEST DUP5 ADD SWAP2 POP POP SWAP3 SWAP2 POP POP JUMP JUMPDEST PUSH2 0x33B DUP2 PUSH2 0x41A JUMP JUMPDEST DUP3 MSTORE POP POP JUMP JUMPDEST PUSH1 0x0 PUSH2 0x34D DUP3 DUP5 PUSH2 0x27A JUMP JUMPDEST SWAP2 POP DUP2 SWAP1 POP SWAP3 SWAP2 POP POP JUMP JUMPDEST PUSH1 0x0 PUSH1 0x40 DUP3 ADD SWAP1 POP PUSH2 0x36D PUSH1 0x0 DUP4 ADD DUP6 PUSH2 0x332 JUMP JUMPDEST DUP2 DUP2 SUB PUSH1 0x20 DUP4 ADD MSTORE PUSH2 0x37F DUP2 DUP5 PUSH2 0x2F9 JUMP JUMPDEST SWAP1 POP SWAP4 SWAP3 POP POP POP JUMP JUMPDEST PUSH1 0x0 PUSH2 0x392 PUSH2 0x3A3 JUMP JUMPDEST SWAP1 POP PUSH2 0x39E DUP3 DUP3 PUSH2 0x498 JUMP JUMPDEST SWAP2 SWAP1 POP JUMP JUMPDEST PUSH1 0x0 PUSH1 0x40 MLOAD SWAP1 POP SWAP1 JUMP JUMPDEST PUSH1 0x0 PUSH8 0xFFFFFFFFFFFFFFFF DUP3 GT ISZERO PUSH2 0x3C8 JUMPI PUSH2 0x3C7 PUSH2 0x59F JUMP JUMPDEST JUMPDEST PUSH2 0x3D1 DUP3 PUSH2 0x5E2 JUMP JUMPDEST SWAP1 POP PUSH1 0x20 DUP2 ADD SWAP1 POP SWAP2 SWAP1 POP JUMP JUMPDEST PUSH1 0x0 DUP2 SWAP1 POP DUP2 PUSH1 0x0 MSTORE PUSH1 0x20 PUSH1 0x0 KECCAK256 SWAP1 POP SWAP2 SWAP1 POP JUMP JUMPDEST PUSH1 0x0 DUP2 MLOAD SWAP1 POP SWAP2 SWAP1 POP JUMP JUMPDEST PUSH1 0x0 DUP2 SWAP1 POP SWAP3 SWAP2 POP POP JUMP JUMPDEST PUSH1 0x0 DUP3 DUP3 MSTORE PUSH1 0x20 DUP3 ADD SWAP1 POP SWAP3 SWAP2 POP POP JUMP JUMPDEST PUSH1 0x0 DUP2 SWAP1 POP SWAP2 SWAP1 POP JUMP JUMPDEST DUP3 DUP2 DUP4 CALLDATACOPY PUSH1 0x0 DUP4 DUP4 ADD MSTORE POP POP POP JUMP JUMPDEST PUSH1 0x0 JUMPDEST DUP4 DUP2 LT ISZERO PUSH2 0x451 JUMPI DUP1 DUP3 ADD MLOAD DUP2 DUP5 ADD MSTORE PUSH1 0x20 DUP2 ADD SWAP1 POP PUSH2 0x436 JUMP JUMPDEST DUP4 DUP2 GT ISZERO PUSH2 0x460 JUMPI PUSH1 0x0 DUP5 DUP5 ADD MSTORE JUMPDEST POP POP POP POP JUMP JUMPDEST PUSH1 0x0 PUSH1 0x2 DUP3 DIV SWAP1 POP PUSH1 0x1 DUP3 AND DUP1 PUSH2 0x47E JUMPI PUSH1 0x7F DUP3 AND SWAP2 POP JUMPDEST PUSH1 0x20 DUP3 LT DUP2 EQ ISZERO PUSH2 0x492 JUMPI PUSH2 0x491 PUSH2 0x541 JUMP JUMPDEST JUMPDEST POP SWAP2 SWAP1 POP JUMP JUMPDEST PUSH2 0x4A1 DUP3 PUSH2 0x5E2 JUMP JUMPDEST DUP2 ADD DUP2 DUP2 LT PUSH8 0xFFFFFFFFFFFFFFFF DUP3 GT OR ISZERO PUSH2 0x4C0 JUMPI PUSH2 0x4BF PUSH2 0x59F JUMP JUMPDEST JUMPDEST DUP1 PUSH1 0x40 MSTORE POP POP POP JUMP JUMPDEST PUSH1 0x0 PUSH2 0x4D4 DUP3 PUSH2 0x41A JUMP JUMPDEST SWAP2 POP PUSH32 0xFFFFFFFFFFFFFFFFFFFFFFFFFFFFFFFFFFFFFFFFFFFFFFFFFFFFFFFFFFFFFFFF DUP3 EQ ISZERO PUSH2 0x507 JUMPI PUSH2 0x506 PUSH2 0x512 JUMP JUMPDEST JUMPDEST PUSH1 0x1 DUP3 ADD SWAP1 POP SWAP2 SWAP1 POP JUMP JUMPDEST PUSH32 0x4E487B7100000000000000000000000000000000000000000000000000000000 PUSH1 0x0 MSTORE PUSH1 0x11 PUSH1 0x4 MSTORE PUSH1 0x24 PUSH1 0x0 REVERT JUMPDEST PUSH32 0x4E487B7100000000000000000000000000000000000000000000000000000000 PUSH1 0x0 MSTORE PUSH1 0x22 PUSH1 0x4 MSTORE PUSH1 0x24 PUSH1 0x0 REVERT JUMPDEST PUSH32 0x4E487B7100000000000000000000000000000000000000000000000000000000 PUSH1 0x0 MSTORE PUSH1 0x32 PUSH1 0x4 MSTORE PUSH1 0x24 PUSH1 0x0 REVERT JUMPDEST PUSH32 0x4E487B7100000000000000000000000000000000000000000000000000000000 PUSH1 0x0 MSTORE PUSH1 0x41 PUSH1 0x4 MSTORE PUSH1 0x24 PUSH1 0x0 REVERT JUMPDEST PUSH1 0x0 DUP1 REVERT JUMPDEST PUSH1 0x0 DUP1 REVERT JUMPDEST PUSH1 0x0 DUP1 REVERT JUMPDEST PUSH1 0x0 DUP1 REVERT JUMPDEST PUSH1 0x0 PUSH1 0x1F NOT PUSH1 0x1F DUP4 ADD AND SWAP1 POP SWAP2 SWAP1 POP JUMP INVALID LOG2 PUSH5 0x6970667358 0x22 SLT KECCAK256 ORIGIN ISZERO 0xA5 ADDMOD 0xB0 CODECOPY 0xC1 0xCC PUSH27 0xC961A75AF4EF8F925C1FFEA7B0F044BDEDB0E8C49A760164736F6C PUSH4 0x43000807 STOP CALLER "
				},
				"gasEstimates": {
					"creation": {
						"codeDepositCost": "315400",
						"executionCost": "infinite",
						"totalCost": "infinite"
					},
					"external": {
						"linearSearch(string)": "infinite"
					}
				},
				"methodIdentifiers": {
					"linearSearch(string)": "655f478b"
				}
			},
			"storageLayout": {
				"storage": [
					{
						"astId": 16,
						"contract": "lecture/lec24.sol:lec24",
						"label": "countryList",
						"offset": 0,
						"slot": "0",
						"type": "t_array(t_string_storage)dyn_storage"
					}
				],
				"types": {
					"t_array(t_string_storage)dyn_storage": {
						"base": "t_string_storage",
						"encoding": "dynamic_array",
						"label": "string[]",
						"numberOfBytes": "32"
					},
					"t_string_storage": {
						"encoding": "bytes",
						"label": "string",
						"numberOfBytes": "32"
					}
				}
			},
			"userdoc": {
				"kind": "user",
				"methods": {},
				"version": 1
			}
		}
	}
}