{
	"lecture/lec17.sol": {
		"lec17": {
			"abi": [
				{
					"inputs": [
						{
							"internalType": "uint256",
							"name": "_index",
							"type": "uint256"
						}
					],
					"name": "getAgeList",
					"outputs": [
						{
							"internalType": "uint256",
							"name": "",
							"type": "uint256"
						}
					],
					"stateMutability": "view",
					"type": "function"
				},
				{
					"inputs": [
						{
							"internalType": "uint256",
							"name": "_index",
							"type": "uint256"
						}
					],
					"name": "getName",
					"outputs": [
						{
							"internalType": "string",
							"name": "",
							"type": "string"
						}
					],
					"stateMutability": "view",
					"type": "function"
				},
				{
					"inputs": [
						{
							"internalType": "uint256",
							"name": "_index",
							"type": "uint256"
						},
						{
							"internalType": "uint256",
							"name": "_age",
							"type": "uint256"
						}
					],
					"name": "setAgeList",
					"outputs": [],
					"stateMutability": "nonpayable",
					"type": "function"
				},
				{
					"inputs": [
						{
							"internalType": "uint256",
							"name": "_index",
							"type": "uint256"
						},
						{
							"internalType": "string",
							"name": "_name",
							"type": "string"
						}
					],
					"name": "setNameList",
					"outputs": [],
					"stateMutability": "nonpayable",
					"type": "function"
				},
				{
					"inputs": [
						{
							"internalType": "string",
							"name": "_itemName",
							"type": "string"
						},
						{
							"internalType": "uint256",
							"name": "_price",
							"type": "uint256"
						}
					],
					"name": "setPriceList",
					"outputs": [],
					"stateMutability": "nonpayable",
					"type": "function"
				}
			],
			"devdoc": {
				"kind": "dev",
				"methods": {},
				"version": 1
			},
			"evm": {
				"assembly": "    /* \"lecture/lec17.sol\":71:798  contract lec17 {... */\n  mstore(0x40, 0x80)\n  callvalue\n  dup1\n  iszero\n  tag_1\n  jumpi\n  0x00\n  dup1\n  revert\ntag_1:\n  pop\n  dataSize(sub_0)\n  dup1\n  dataOffset(sub_0)\n  0x00\n  codecopy\n  0x00\n  return\nstop\n\nsub_0: assembly {\n        /* \"lecture/lec17.sol\":71:798  contract lec17 {... */\n      mstore(0x40, 0x80)\n      callvalue\n      dup1\n      iszero\n      tag_1\n      jumpi\n      0x00\n      dup1\n      revert\n    tag_1:\n      pop\n      jumpi(tag_2, lt(calldatasize, 0x04))\n      shr(0xe0, calldataload(0x00))\n      dup1\n      0x1bbefaf1\n      eq\n      tag_3\n      jumpi\n      dup1\n      0x3923cf71\n      eq\n      tag_4\n      jumpi\n      dup1\n      0x6b8ff574\n      eq\n      tag_5\n      jumpi\n      dup1\n      0xa266f6c2\n      eq\n      tag_6\n      jumpi\n      dup1\n      0xfe093d3b\n      eq\n      tag_7\n      jumpi\n    tag_2:\n      0x00\n      dup1\n      revert\n        /* \"lecture/lec17.sol\":452:558  function setNameList(uint256 _index, string memory _name) public {... */\n    tag_3:\n      tag_8\n      0x04\n      dup1\n      calldatasize\n      sub\n      dup2\n      add\n      swap1\n      tag_9\n      swap2\n      swap1\n      tag_10\n      jump\t// in\n    tag_9:\n      tag_11\n      jump\t// in\n    tag_8:\n      stop\n        /* \"lecture/lec17.sol\":343:446  function getAgeList(uint256 _index) public view returns(uint256){... */\n    tag_4:\n      tag_12\n      0x04\n      dup1\n      calldatasize\n      sub\n      dup2\n      add\n      swap1\n      tag_13\n      swap2\n      swap1\n      tag_14\n      jump\t// in\n    tag_13:\n      tag_15\n      jump\t// in\n    tag_12:\n      mload(0x40)\n      tag_16\n      swap2\n      swap1\n      tag_17\n      jump\t// in\n    tag_16:\n      mload(0x40)\n      dup1\n      swap2\n      sub\n      swap1\n      return\n        /* \"lecture/lec17.sol\":563:670  function getName(uint256 _index) public view returns(string memory){... */\n    tag_5:\n      tag_18\n      0x04\n      dup1\n      calldatasize\n      sub\n      dup2\n      add\n      swap1\n      tag_19\n      swap2\n      swap1\n      tag_14\n      jump\t// in\n    tag_19:\n      tag_20\n      jump\t// in\n    tag_18:\n      mload(0x40)\n      tag_21\n      swap2\n      swap1\n      tag_22\n      jump\t// in\n    tag_21:\n      mload(0x40)\n      dup1\n      swap2\n      sub\n      swap1\n      return\n        /* \"lecture/lec17.sol\":675:791  function setPriceList(string memory _itemName, uint256 _price) public {... */\n    tag_6:\n      tag_23\n      0x04\n      dup1\n      calldatasize\n      sub\n      dup2\n      add\n      swap1\n      tag_24\n      swap2\n      swap1\n      tag_25\n      jump\t// in\n    tag_24:\n      tag_26\n      jump\t// in\n    tag_23:\n      stop\n        /* \"lecture/lec17.sol\":241:337  function setAgeList(uint256 _index, uint256 _age) public {... */\n    tag_7:\n      tag_27\n      0x04\n      dup1\n      calldatasize\n      sub\n      dup2\n      add\n      swap1\n      tag_28\n      swap2\n      swap1\n      tag_29\n      jump\t// in\n    tag_28:\n      tag_30\n      jump\t// in\n    tag_27:\n      stop\n        /* \"lecture/lec17.sol\":452:558  function setNameList(uint256 _index, string memory _name) public {... */\n    tag_11:\n        /* \"lecture/lec17.sol\":546:551  _name */\n      dup1\n        /* \"lecture/lec17.sol\":527:535  nameList */\n      0x02\n        /* \"lecture/lec17.sol\":527:543  nameList[_index] */\n      0x00\n        /* \"lecture/lec17.sol\":536:542  _index */\n      dup5\n        /* \"lecture/lec17.sol\":527:543  nameList[_index] */\n      dup2\n      mstore\n      0x20\n      add\n      swap1\n      dup2\n      mstore\n      0x20\n      add\n      0x00\n      keccak256\n        /* \"lecture/lec17.sol\":527:551  nameList[_index] = _name */\n      swap1\n      dup1\n      mload\n      swap1\n      0x20\n      add\n      swap1\n      tag_32\n      swap3\n      swap2\n      swap1\n      tag_33\n      jump\t// in\n    tag_32:\n      pop\n        /* \"lecture/lec17.sol\":452:558  function setNameList(uint256 _index, string memory _name) public {... */\n      pop\n      pop\n      jump\t// out\n        /* \"lecture/lec17.sol\":343:446  function getAgeList(uint256 _index) public view returns(uint256){... */\n    tag_15:\n        /* \"lecture/lec17.sol\":399:406  uint256 */\n      0x00\n        /* \"lecture/lec17.sol\":424:431  ageList */\n      dup1\n        /* \"lecture/lec17.sol\":424:439  ageList[_index] */\n      0x00\n        /* \"lecture/lec17.sol\":432:438  _index */\n      dup4\n        /* \"lecture/lec17.sol\":424:439  ageList[_index] */\n      dup2\n      mstore\n      0x20\n      add\n      swap1\n      dup2\n      mstore\n      0x20\n      add\n      0x00\n      keccak256\n      sload\n        /* \"lecture/lec17.sol\":417:439  return ageList[_index] */\n      swap1\n      pop\n        /* \"lecture/lec17.sol\":343:446  function getAgeList(uint256 _index) public view returns(uint256){... */\n      swap2\n      swap1\n      pop\n      jump\t// out\n        /* \"lecture/lec17.sol\":563:670  function getName(uint256 _index) public view returns(string memory){... */\n    tag_20:\n        /* \"lecture/lec17.sol\":616:629  string memory */\n      0x60\n        /* \"lecture/lec17.sol\":647:655  nameList */\n      0x02\n        /* \"lecture/lec17.sol\":647:663  nameList[_index] */\n      0x00\n        /* \"lecture/lec17.sol\":656:662  _index */\n      dup4\n        /* \"lecture/lec17.sol\":647:663  nameList[_index] */\n      dup2\n      mstore\n      0x20\n      add\n      swap1\n      dup2\n      mstore\n      0x20\n      add\n      0x00\n      keccak256\n        /* \"lecture/lec17.sol\":640:663  return nameList[_index] */\n      dup1\n      sload\n      tag_36\n      swap1\n      tag_37\n      jump\t// in\n    tag_36:\n      dup1\n      0x1f\n      add\n      0x20\n      dup1\n      swap2\n      div\n      mul\n      0x20\n      add\n      mload(0x40)\n      swap1\n      dup2\n      add\n      0x40\n      mstore\n      dup1\n      swap3\n      swap2\n      swap1\n      dup2\n      dup2\n      mstore\n      0x20\n      add\n      dup3\n      dup1\n      sload\n      tag_38\n      swap1\n      tag_37\n      jump\t// in\n    tag_38:\n      dup1\n      iszero\n      tag_39\n      jumpi\n      dup1\n      0x1f\n      lt\n      tag_40\n      jumpi\n      0x0100\n      dup1\n      dup4\n      sload\n      div\n      mul\n      dup4\n      mstore\n      swap2\n      0x20\n      add\n      swap2\n      jump(tag_39)\n    tag_40:\n      dup3\n      add\n      swap2\n      swap1\n      0x00\n      mstore\n      keccak256(0x00, 0x20)\n      swap1\n    tag_41:\n      dup2\n      sload\n      dup2\n      mstore\n      swap1\n      0x01\n      add\n      swap1\n      0x20\n      add\n      dup1\n      dup4\n      gt\n      tag_41\n      jumpi\n      dup3\n      swap1\n      sub\n      0x1f\n      and\n      dup3\n      add\n      swap2\n    tag_39:\n      pop\n      pop\n      pop\n      pop\n      pop\n      swap1\n      pop\n        /* \"lecture/lec17.sol\":563:670  function getName(uint256 _index) public view returns(string memory){... */\n      swap2\n      swap1\n      pop\n      jump\t// out\n        /* \"lecture/lec17.sol\":675:791  function setPriceList(string memory _itemName, uint256 _price) public {... */\n    tag_26:\n        /* \"lecture/lec17.sol\":778:784  _price */\n      dup1\n        /* \"lecture/lec17.sol\":755:764  priceList */\n      0x01\n        /* \"lecture/lec17.sol\":765:774  _itemName */\n      dup4\n        /* \"lecture/lec17.sol\":755:775  priceList[_itemName] */\n      mload(0x40)\n      tag_43\n      swap2\n      swap1\n      tag_44\n      jump\t// in\n    tag_43:\n      swap1\n      dup2\n      mstore\n      0x20\n      add\n      mload(0x40)\n      dup1\n      swap2\n      sub\n      swap1\n      keccak256\n        /* \"lecture/lec17.sol\":755:784  priceList[_itemName] = _price */\n      dup2\n      swap1\n      sstore\n      pop\n        /* \"lecture/lec17.sol\":675:791  function setPriceList(string memory _itemName, uint256 _price) public {... */\n      pop\n      pop\n      jump\t// out\n        /* \"lecture/lec17.sol\":241:337  function setAgeList(uint256 _index, uint256 _age) public {... */\n    tag_30:\n        /* \"lecture/lec17.sol\":326:330  _age */\n      dup1\n        /* \"lecture/lec17.sol\":308:315  ageList */\n      0x00\n        /* \"lecture/lec17.sol\":308:323  ageList[_index] */\n      dup1\n        /* \"lecture/lec17.sol\":316:322  _index */\n      dup5\n        /* \"lecture/lec17.sol\":308:323  ageList[_index] */\n      dup2\n      mstore\n      0x20\n      add\n      swap1\n      dup2\n      mstore\n      0x20\n      add\n      0x00\n      keccak256\n        /* \"lecture/lec17.sol\":308:330  ageList[_index] = _age */\n      dup2\n      swap1\n      sstore\n      pop\n        /* \"lecture/lec17.sol\":241:337  function setAgeList(uint256 _index, uint256 _age) public {... */\n      pop\n      pop\n      jump\t// out\n    tag_33:\n      dup3\n      dup1\n      sload\n      tag_46\n      swap1\n      tag_37\n      jump\t// in\n    tag_46:\n      swap1\n      0x00\n      mstore\n      keccak256(0x00, 0x20)\n      swap1\n      0x1f\n      add\n      0x20\n      swap1\n      div\n      dup2\n      add\n      swap3\n      dup3\n      tag_48\n      jumpi\n      0x00\n      dup6\n      sstore\n      jump(tag_47)\n    tag_48:\n      dup3\n      0x1f\n      lt\n      tag_49\n      jumpi\n      dup1\n      mload\n      not(0xff)\n      and\n      dup4\n      dup1\n      add\n      or\n      dup6\n      sstore\n      jump(tag_47)\n    tag_49:\n      dup3\n      dup1\n      add\n      0x01\n      add\n      dup6\n      sstore\n      dup3\n      iszero\n      tag_47\n      jumpi\n      swap2\n      dup3\n      add\n    tag_50:\n      dup3\n      dup2\n      gt\n      iszero\n      tag_51\n      jumpi\n      dup3\n      mload\n      dup3\n      sstore\n      swap2\n      0x20\n      add\n      swap2\n      swap1\n      0x01\n      add\n      swap1\n      jump(tag_50)\n    tag_51:\n    tag_47:\n      pop\n      swap1\n      pop\n      tag_52\n      swap2\n      swap1\n      tag_53\n      jump\t// in\n    tag_52:\n      pop\n      swap1\n      jump\t// out\n    tag_53:\n    tag_54:\n      dup1\n      dup3\n      gt\n      iszero\n      tag_55\n      jumpi\n      0x00\n      dup2\n      0x00\n      swap1\n      sstore\n      pop\n      0x01\n      add\n      jump(tag_54)\n    tag_55:\n      pop\n      swap1\n      jump\t// out\n        /* \"#utility.yul\":7:419   */\n    tag_57:\n        /* \"#utility.yul\":85:90   */\n      0x00\n        /* \"#utility.yul\":110:176   */\n      tag_59\n        /* \"#utility.yul\":126:175   */\n      tag_60\n        /* \"#utility.yul\":168:174   */\n      dup5\n        /* \"#utility.yul\":126:175   */\n      tag_61\n      jump\t// in\n    tag_60:\n        /* \"#utility.yul\":110:176   */\n      tag_62\n      jump\t// in\n    tag_59:\n        /* \"#utility.yul\":101:176   */\n      swap1\n      pop\n        /* \"#utility.yul\":199:205   */\n      dup3\n        /* \"#utility.yul\":192:197   */\n      dup2\n        /* \"#utility.yul\":185:206   */\n      mstore\n        /* \"#utility.yul\":237:241   */\n      0x20\n        /* \"#utility.yul\":230:235   */\n      dup2\n        /* \"#utility.yul\":226:242   */\n      add\n        /* \"#utility.yul\":275:278   */\n      dup5\n        /* \"#utility.yul\":266:272   */\n      dup5\n        /* \"#utility.yul\":261:264   */\n      dup5\n        /* \"#utility.yul\":257:273   */\n      add\n        /* \"#utility.yul\":254:279   */\n      gt\n        /* \"#utility.yul\":251:363   */\n      iszero\n      tag_63\n      jumpi\n        /* \"#utility.yul\":282:361   */\n      tag_64\n      tag_65\n      jump\t// in\n    tag_64:\n        /* \"#utility.yul\":251:363   */\n    tag_63:\n        /* \"#utility.yul\":372:413   */\n      tag_66\n        /* \"#utility.yul\":406:412   */\n      dup5\n        /* \"#utility.yul\":401:404   */\n      dup3\n        /* \"#utility.yul\":396:399   */\n      dup6\n        /* \"#utility.yul\":372:413   */\n      tag_67\n      jump\t// in\n    tag_66:\n        /* \"#utility.yul\":91:419   */\n      pop\n        /* \"#utility.yul\":7:419   */\n      swap4\n      swap3\n      pop\n      pop\n      pop\n      jump\t// out\n        /* \"#utility.yul\":439:779   */\n    tag_68:\n        /* \"#utility.yul\":495:500   */\n      0x00\n        /* \"#utility.yul\":544:547   */\n      dup3\n        /* \"#utility.yul\":537:541   */\n      0x1f\n        /* \"#utility.yul\":529:535   */\n      dup4\n        /* \"#utility.yul\":525:542   */\n      add\n        /* \"#utility.yul\":521:548   */\n      slt\n        /* \"#utility.yul\":511:633   */\n      tag_70\n      jumpi\n        /* \"#utility.yul\":552:631   */\n      tag_71\n      tag_72\n      jump\t// in\n    tag_71:\n        /* \"#utility.yul\":511:633   */\n    tag_70:\n        /* \"#utility.yul\":669:675   */\n      dup2\n        /* \"#utility.yul\":656:676   */\n      calldataload\n        /* \"#utility.yul\":694:773   */\n      tag_73\n        /* \"#utility.yul\":769:772   */\n      dup5\n        /* \"#utility.yul\":761:767   */\n      dup3\n        /* \"#utility.yul\":754:758   */\n      0x20\n        /* \"#utility.yul\":746:752   */\n      dup7\n        /* \"#utility.yul\":742:759   */\n      add\n        /* \"#utility.yul\":694:773   */\n      tag_57\n      jump\t// in\n    tag_73:\n        /* \"#utility.yul\":685:773   */\n      swap2\n      pop\n        /* \"#utility.yul\":501:779   */\n      pop\n        /* \"#utility.yul\":439:779   */\n      swap3\n      swap2\n      pop\n      pop\n      jump\t// out\n        /* \"#utility.yul\":785:924   */\n    tag_74:\n        /* \"#utility.yul\":831:836   */\n      0x00\n        /* \"#utility.yul\":869:875   */\n      dup2\n        /* \"#utility.yul\":856:876   */\n      calldataload\n        /* \"#utility.yul\":847:876   */\n      swap1\n      pop\n        /* \"#utility.yul\":885:918   */\n      tag_76\n        /* \"#utility.yul\":912:917   */\n      dup2\n        /* \"#utility.yul\":885:918   */\n      tag_77\n      jump\t// in\n    tag_76:\n        /* \"#utility.yul\":785:924   */\n      swap3\n      swap2\n      pop\n      pop\n      jump\t// out\n        /* \"#utility.yul\":930:1584   */\n    tag_25:\n        /* \"#utility.yul\":1008:1014   */\n      0x00\n        /* \"#utility.yul\":1016:1022   */\n      dup1\n        /* \"#utility.yul\":1065:1067   */\n      0x40\n        /* \"#utility.yul\":1053:1062   */\n      dup4\n        /* \"#utility.yul\":1044:1051   */\n      dup6\n        /* \"#utility.yul\":1040:1063   */\n      sub\n        /* \"#utility.yul\":1036:1068   */\n      slt\n        /* \"#utility.yul\":1033:1152   */\n      iszero\n      tag_79\n      jumpi\n        /* \"#utility.yul\":1071:1150   */\n      tag_80\n      tag_81\n      jump\t// in\n    tag_80:\n        /* \"#utility.yul\":1033:1152   */\n    tag_79:\n        /* \"#utility.yul\":1219:1220   */\n      0x00\n        /* \"#utility.yul\":1208:1217   */\n      dup4\n        /* \"#utility.yul\":1204:1221   */\n      add\n        /* \"#utility.yul\":1191:1222   */\n      calldataload\n        /* \"#utility.yul\":1249:1267   */\n      0xffffffffffffffff\n        /* \"#utility.yul\":1241:1247   */\n      dup2\n        /* \"#utility.yul\":1238:1268   */\n      gt\n        /* \"#utility.yul\":1235:1352   */\n      iszero\n      tag_82\n      jumpi\n        /* \"#utility.yul\":1271:1350   */\n      tag_83\n      tag_84\n      jump\t// in\n    tag_83:\n        /* \"#utility.yul\":1235:1352   */\n    tag_82:\n        /* \"#utility.yul\":1376:1439   */\n      tag_85\n        /* \"#utility.yul\":1431:1438   */\n      dup6\n        /* \"#utility.yul\":1422:1428   */\n      dup3\n        /* \"#utility.yul\":1411:1420   */\n      dup7\n        /* \"#utility.yul\":1407:1429   */\n      add\n        /* \"#utility.yul\":1376:1439   */\n      tag_68\n      jump\t// in\n    tag_85:\n        /* \"#utility.yul\":1366:1439   */\n      swap3\n      pop\n        /* \"#utility.yul\":1162:1449   */\n      pop\n        /* \"#utility.yul\":1488:1490   */\n      0x20\n        /* \"#utility.yul\":1514:1567   */\n      tag_86\n        /* \"#utility.yul\":1559:1566   */\n      dup6\n        /* \"#utility.yul\":1550:1556   */\n      dup3\n        /* \"#utility.yul\":1539:1548   */\n      dup7\n        /* \"#utility.yul\":1535:1557   */\n      add\n        /* \"#utility.yul\":1514:1567   */\n      tag_74\n      jump\t// in\n    tag_86:\n        /* \"#utility.yul\":1504:1567   */\n      swap2\n      pop\n        /* \"#utility.yul\":1459:1577   */\n      pop\n        /* \"#utility.yul\":930:1584   */\n      swap3\n      pop\n      swap3\n      swap1\n      pop\n      jump\t// out\n        /* \"#utility.yul\":1590:1919   */\n    tag_14:\n        /* \"#utility.yul\":1649:1655   */\n      0x00\n        /* \"#utility.yul\":1698:1700   */\n      0x20\n        /* \"#utility.yul\":1686:1695   */\n      dup3\n        /* \"#utility.yul\":1677:1684   */\n      dup5\n        /* \"#utility.yul\":1673:1696   */\n      sub\n        /* \"#utility.yul\":1669:1701   */\n      slt\n        /* \"#utility.yul\":1666:1785   */\n      iszero\n      tag_88\n      jumpi\n        /* \"#utility.yul\":1704:1783   */\n      tag_89\n      tag_81\n      jump\t// in\n    tag_89:\n        /* \"#utility.yul\":1666:1785   */\n    tag_88:\n        /* \"#utility.yul\":1824:1825   */\n      0x00\n        /* \"#utility.yul\":1849:1902   */\n      tag_90\n        /* \"#utility.yul\":1894:1901   */\n      dup5\n        /* \"#utility.yul\":1885:1891   */\n      dup3\n        /* \"#utility.yul\":1874:1883   */\n      dup6\n        /* \"#utility.yul\":1870:1892   */\n      add\n        /* \"#utility.yul\":1849:1902   */\n      tag_74\n      jump\t// in\n    tag_90:\n        /* \"#utility.yul\":1839:1902   */\n      swap2\n      pop\n        /* \"#utility.yul\":1795:1912   */\n      pop\n        /* \"#utility.yul\":1590:1919   */\n      swap3\n      swap2\n      pop\n      pop\n      jump\t// out\n        /* \"#utility.yul\":1925:2579   */\n    tag_10:\n        /* \"#utility.yul\":2003:2009   */\n      0x00\n        /* \"#utility.yul\":2011:2017   */\n      dup1\n        /* \"#utility.yul\":2060:2062   */\n      0x40\n        /* \"#utility.yul\":2048:2057   */\n      dup4\n        /* \"#utility.yul\":2039:2046   */\n      dup6\n        /* \"#utility.yul\":2035:2058   */\n      sub\n        /* \"#utility.yul\":2031:2063   */\n      slt\n        /* \"#utility.yul\":2028:2147   */\n      iszero\n      tag_92\n      jumpi\n        /* \"#utility.yul\":2066:2145   */\n      tag_93\n      tag_81\n      jump\t// in\n    tag_93:\n        /* \"#utility.yul\":2028:2147   */\n    tag_92:\n        /* \"#utility.yul\":2186:2187   */\n      0x00\n        /* \"#utility.yul\":2211:2264   */\n      tag_94\n        /* \"#utility.yul\":2256:2263   */\n      dup6\n        /* \"#utility.yul\":2247:2253   */\n      dup3\n        /* \"#utility.yul\":2236:2245   */\n      dup7\n        /* \"#utility.yul\":2232:2254   */\n      add\n        /* \"#utility.yul\":2211:2264   */\n      tag_74\n      jump\t// in\n    tag_94:\n        /* \"#utility.yul\":2201:2264   */\n      swap3\n      pop\n        /* \"#utility.yul\":2157:2274   */\n      pop\n        /* \"#utility.yul\":2341:2343   */\n      0x20\n        /* \"#utility.yul\":2330:2339   */\n      dup4\n        /* \"#utility.yul\":2326:2344   */\n      add\n        /* \"#utility.yul\":2313:2345   */\n      calldataload\n        /* \"#utility.yul\":2372:2390   */\n      0xffffffffffffffff\n        /* \"#utility.yul\":2364:2370   */\n      dup2\n        /* \"#utility.yul\":2361:2391   */\n      gt\n        /* \"#utility.yul\":2358:2475   */\n      iszero\n      tag_95\n      jumpi\n        /* \"#utility.yul\":2394:2473   */\n      tag_96\n      tag_84\n      jump\t// in\n    tag_96:\n        /* \"#utility.yul\":2358:2475   */\n    tag_95:\n        /* \"#utility.yul\":2499:2562   */\n      tag_97\n        /* \"#utility.yul\":2554:2561   */\n      dup6\n        /* \"#utility.yul\":2545:2551   */\n      dup3\n        /* \"#utility.yul\":2534:2543   */\n      dup7\n        /* \"#utility.yul\":2530:2552   */\n      add\n        /* \"#utility.yul\":2499:2562   */\n      tag_68\n      jump\t// in\n    tag_97:\n        /* \"#utility.yul\":2489:2562   */\n      swap2\n      pop\n        /* \"#utility.yul\":2284:2572   */\n      pop\n        /* \"#utility.yul\":1925:2579   */\n      swap3\n      pop\n      swap3\n      swap1\n      pop\n      jump\t// out\n        /* \"#utility.yul\":2585:3059   */\n    tag_29:\n        /* \"#utility.yul\":2653:2659   */\n      0x00\n        /* \"#utility.yul\":2661:2667   */\n      dup1\n        /* \"#utility.yul\":2710:2712   */\n      0x40\n        /* \"#utility.yul\":2698:2707   */\n      dup4\n        /* \"#utility.yul\":2689:2696   */\n      dup6\n        /* \"#utility.yul\":2685:2708   */\n      sub\n        /* \"#utility.yul\":2681:2713   */\n      slt\n        /* \"#utility.yul\":2678:2797   */\n      iszero\n      tag_99\n      jumpi\n        /* \"#utility.yul\":2716:2795   */\n      tag_100\n      tag_81\n      jump\t// in\n    tag_100:\n        /* \"#utility.yul\":2678:2797   */\n    tag_99:\n        /* \"#utility.yul\":2836:2837   */\n      0x00\n        /* \"#utility.yul\":2861:2914   */\n      tag_101\n        /* \"#utility.yul\":2906:2913   */\n      dup6\n        /* \"#utility.yul\":2897:2903   */\n      dup3\n        /* \"#utility.yul\":2886:2895   */\n      dup7\n        /* \"#utility.yul\":2882:2904   */\n      add\n        /* \"#utility.yul\":2861:2914   */\n      tag_74\n      jump\t// in\n    tag_101:\n        /* \"#utility.yul\":2851:2914   */\n      swap3\n      pop\n        /* \"#utility.yul\":2807:2924   */\n      pop\n        /* \"#utility.yul\":2963:2965   */\n      0x20\n        /* \"#utility.yul\":2989:3042   */\n      tag_102\n        /* \"#utility.yul\":3034:3041   */\n      dup6\n        /* \"#utility.yul\":3025:3031   */\n      dup3\n        /* \"#utility.yul\":3014:3023   */\n      dup7\n        /* \"#utility.yul\":3010:3032   */\n      add\n        /* \"#utility.yul\":2989:3042   */\n      tag_74\n      jump\t// in\n    tag_102:\n        /* \"#utility.yul\":2979:3042   */\n      swap2\n      pop\n        /* \"#utility.yul\":2934:3052   */\n      pop\n        /* \"#utility.yul\":2585:3059   */\n      swap3\n      pop\n      swap3\n      swap1\n      pop\n      jump\t// out\n        /* \"#utility.yul\":3065:3429   */\n    tag_103:\n        /* \"#utility.yul\":3153:3156   */\n      0x00\n        /* \"#utility.yul\":3181:3220   */\n      tag_105\n        /* \"#utility.yul\":3214:3219   */\n      dup3\n        /* \"#utility.yul\":3181:3220   */\n      tag_106\n      jump\t// in\n    tag_105:\n        /* \"#utility.yul\":3236:3307   */\n      tag_107\n        /* \"#utility.yul\":3300:3306   */\n      dup2\n        /* \"#utility.yul\":3295:3298   */\n      dup6\n        /* \"#utility.yul\":3236:3307   */\n      tag_108\n      jump\t// in\n    tag_107:\n        /* \"#utility.yul\":3229:3307   */\n      swap4\n      pop\n        /* \"#utility.yul\":3316:3368   */\n      tag_109\n        /* \"#utility.yul\":3361:3367   */\n      dup2\n        /* \"#utility.yul\":3356:3359   */\n      dup6\n        /* \"#utility.yul\":3349:3353   */\n      0x20\n        /* \"#utility.yul\":3342:3347   */\n      dup7\n        /* \"#utility.yul\":3338:3354   */\n      add\n        /* \"#utility.yul\":3316:3368   */\n      tag_110\n      jump\t// in\n    tag_109:\n        /* \"#utility.yul\":3393:3422   */\n      tag_111\n        /* \"#utility.yul\":3415:3421   */\n      dup2\n        /* \"#utility.yul\":3393:3422   */\n      tag_112\n      jump\t// in\n    tag_111:\n        /* \"#utility.yul\":3388:3391   */\n      dup5\n        /* \"#utility.yul\":3384:3423   */\n      add\n        /* \"#utility.yul\":3377:3423   */\n      swap2\n      pop\n        /* \"#utility.yul\":3157:3429   */\n      pop\n        /* \"#utility.yul\":3065:3429   */\n      swap3\n      swap2\n      pop\n      pop\n      jump\t// out\n        /* \"#utility.yul\":3435:3812   */\n    tag_113:\n        /* \"#utility.yul\":3541:3544   */\n      0x00\n        /* \"#utility.yul\":3569:3608   */\n      tag_115\n        /* \"#utility.yul\":3602:3607   */\n      dup3\n        /* \"#utility.yul\":3569:3608   */\n      tag_106\n      jump\t// in\n    tag_115:\n        /* \"#utility.yul\":3624:3713   */\n      tag_116\n        /* \"#utility.yul\":3706:3712   */\n      dup2\n        /* \"#utility.yul\":3701:3704   */\n      dup6\n        /* \"#utility.yul\":3624:3713   */\n      tag_117\n      jump\t// in\n    tag_116:\n        /* \"#utility.yul\":3617:3713   */\n      swap4\n      pop\n        /* \"#utility.yul\":3722:3774   */\n      tag_118\n        /* \"#utility.yul\":3767:3773   */\n      dup2\n        /* \"#utility.yul\":3762:3765   */\n      dup6\n        /* \"#utility.yul\":3755:3759   */\n      0x20\n        /* \"#utility.yul\":3748:3753   */\n      dup7\n        /* \"#utility.yul\":3744:3760   */\n      add\n        /* \"#utility.yul\":3722:3774   */\n      tag_110\n      jump\t// in\n    tag_118:\n        /* \"#utility.yul\":3799:3805   */\n      dup1\n        /* \"#utility.yul\":3794:3797   */\n      dup5\n        /* \"#utility.yul\":3790:3806   */\n      add\n        /* \"#utility.yul\":3783:3806   */\n      swap2\n      pop\n        /* \"#utility.yul\":3545:3812   */\n      pop\n        /* \"#utility.yul\":3435:3812   */\n      swap3\n      swap2\n      pop\n      pop\n      jump\t// out\n        /* \"#utility.yul\":3818:3936   */\n    tag_119:\n        /* \"#utility.yul\":3905:3929   */\n      tag_121\n        /* \"#utility.yul\":3923:3928   */\n      dup2\n        /* \"#utility.yul\":3905:3929   */\n      tag_122\n      jump\t// in\n    tag_121:\n        /* \"#utility.yul\":3900:3903   */\n      dup3\n        /* \"#utility.yul\":3893:3930   */\n      mstore\n        /* \"#utility.yul\":3818:3936   */\n      pop\n      pop\n      jump\t// out\n        /* \"#utility.yul\":3942:4217   */\n    tag_44:\n        /* \"#utility.yul\":4074:4077   */\n      0x00\n        /* \"#utility.yul\":4096:4191   */\n      tag_124\n        /* \"#utility.yul\":4187:4190   */\n      dup3\n        /* \"#utility.yul\":4178:4184   */\n      dup5\n        /* \"#utility.yul\":4096:4191   */\n      tag_113\n      jump\t// in\n    tag_124:\n        /* \"#utility.yul\":4089:4191   */\n      swap2\n      pop\n        /* \"#utility.yul\":4208:4211   */\n      dup2\n        /* \"#utility.yul\":4201:4211   */\n      swap1\n      pop\n        /* \"#utility.yul\":3942:4217   */\n      swap3\n      swap2\n      pop\n      pop\n      jump\t// out\n        /* \"#utility.yul\":4223:4536   */\n    tag_22:\n        /* \"#utility.yul\":4336:4340   */\n      0x00\n        /* \"#utility.yul\":4374:4376   */\n      0x20\n        /* \"#utility.yul\":4363:4372   */\n      dup3\n        /* \"#utility.yul\":4359:4377   */\n      add\n        /* \"#utility.yul\":4351:4377   */\n      swap1\n      pop\n        /* \"#utility.yul\":4423:4432   */\n      dup2\n        /* \"#utility.yul\":4417:4421   */\n      dup2\n        /* \"#utility.yul\":4413:4433   */\n      sub\n        /* \"#utility.yul\":4409:4410   */\n      0x00\n        /* \"#utility.yul\":4398:4407   */\n      dup4\n        /* \"#utility.yul\":4394:4411   */\n      add\n        /* \"#utility.yul\":4387:4434   */\n      mstore\n        /* \"#utility.yul\":4451:4529   */\n      tag_126\n        /* \"#utility.yul\":4524:4528   */\n      dup2\n        /* \"#utility.yul\":4515:4521   */\n      dup5\n        /* \"#utility.yul\":4451:4529   */\n      tag_103\n      jump\t// in\n    tag_126:\n        /* \"#utility.yul\":4443:4529   */\n      swap1\n      pop\n        /* \"#utility.yul\":4223:4536   */\n      swap3\n      swap2\n      pop\n      pop\n      jump\t// out\n        /* \"#utility.yul\":4542:4764   */\n    tag_17:\n        /* \"#utility.yul\":4635:4639   */\n      0x00\n        /* \"#utility.yul\":4673:4675   */\n      0x20\n        /* \"#utility.yul\":4662:4671   */\n      dup3\n        /* \"#utility.yul\":4658:4676   */\n      add\n        /* \"#utility.yul\":4650:4676   */\n      swap1\n      pop\n        /* \"#utility.yul\":4686:4757   */\n      tag_128\n        /* \"#utility.yul\":4754:4755   */\n      0x00\n        /* \"#utility.yul\":4743:4752   */\n      dup4\n        /* \"#utility.yul\":4739:4756   */\n      add\n        /* \"#utility.yul\":4730:4736   */\n      dup5\n        /* \"#utility.yul\":4686:4757   */\n      tag_119\n      jump\t// in\n    tag_128:\n        /* \"#utility.yul\":4542:4764   */\n      swap3\n      swap2\n      pop\n      pop\n      jump\t// out\n        /* \"#utility.yul\":4770:4899   */\n    tag_62:\n        /* \"#utility.yul\":4804:4810   */\n      0x00\n        /* \"#utility.yul\":4831:4851   */\n      tag_130\n      tag_131\n      jump\t// in\n    tag_130:\n        /* \"#utility.yul\":4821:4851   */\n      swap1\n      pop\n        /* \"#utility.yul\":4860:4893   */\n      tag_132\n        /* \"#utility.yul\":4888:4892   */\n      dup3\n        /* \"#utility.yul\":4880:4886   */\n      dup3\n        /* \"#utility.yul\":4860:4893   */\n      tag_133\n      jump\t// in\n    tag_132:\n        /* \"#utility.yul\":4770:4899   */\n      swap2\n      swap1\n      pop\n      jump\t// out\n        /* \"#utility.yul\":4905:4980   */\n    tag_131:\n        /* \"#utility.yul\":4938:4944   */\n      0x00\n        /* \"#utility.yul\":4971:4973   */\n      0x40\n        /* \"#utility.yul\":4965:4974   */\n      mload\n        /* \"#utility.yul\":4955:4974   */\n      swap1\n      pop\n        /* \"#utility.yul\":4905:4980   */\n      swap1\n      jump\t// out\n        /* \"#utility.yul\":4986:5294   */\n    tag_61:\n        /* \"#utility.yul\":5048:5052   */\n      0x00\n        /* \"#utility.yul\":5138:5156   */\n      0xffffffffffffffff\n        /* \"#utility.yul\":5130:5136   */\n      dup3\n        /* \"#utility.yul\":5127:5157   */\n      gt\n        /* \"#utility.yul\":5124:5180   */\n      iszero\n      tag_136\n      jumpi\n        /* \"#utility.yul\":5160:5178   */\n      tag_137\n      tag_138\n      jump\t// in\n    tag_137:\n        /* \"#utility.yul\":5124:5180   */\n    tag_136:\n        /* \"#utility.yul\":5198:5227   */\n      tag_139\n        /* \"#utility.yul\":5220:5226   */\n      dup3\n        /* \"#utility.yul\":5198:5227   */\n      tag_112\n      jump\t// in\n    tag_139:\n        /* \"#utility.yul\":5190:5227   */\n      swap1\n      pop\n        /* \"#utility.yul\":5282:5286   */\n      0x20\n        /* \"#utility.yul\":5276:5280   */\n      dup2\n        /* \"#utility.yul\":5272:5287   */\n      add\n        /* \"#utility.yul\":5264:5287   */\n      swap1\n      pop\n        /* \"#utility.yul\":4986:5294   */\n      swap2\n      swap1\n      pop\n      jump\t// out\n        /* \"#utility.yul\":5300:5399   */\n    tag_106:\n        /* \"#utility.yul\":5352:5358   */\n      0x00\n        /* \"#utility.yul\":5386:5391   */\n      dup2\n        /* \"#utility.yul\":5380:5392   */\n      mload\n        /* \"#utility.yul\":5370:5392   */\n      swap1\n      pop\n        /* \"#utility.yul\":5300:5399   */\n      swap2\n      swap1\n      pop\n      jump\t// out\n        /* \"#utility.yul\":5405:5574   */\n    tag_108:\n        /* \"#utility.yul\":5489:5500   */\n      0x00\n        /* \"#utility.yul\":5523:5529   */\n      dup3\n        /* \"#utility.yul\":5518:5521   */\n      dup3\n        /* \"#utility.yul\":5511:5530   */\n      mstore\n        /* \"#utility.yul\":5563:5567   */\n      0x20\n        /* \"#utility.yul\":5558:5561   */\n      dup3\n        /* \"#utility.yul\":5554:5568   */\n      add\n        /* \"#utility.yul\":5539:5568   */\n      swap1\n      pop\n        /* \"#utility.yul\":5405:5574   */\n      swap3\n      swap2\n      pop\n      pop\n      jump\t// out\n        /* \"#utility.yul\":5580:5728   */\n    tag_117:\n        /* \"#utility.yul\":5682:5693   */\n      0x00\n        /* \"#utility.yul\":5719:5722   */\n      dup2\n        /* \"#utility.yul\":5704:5722   */\n      swap1\n      pop\n        /* \"#utility.yul\":5580:5728   */\n      swap3\n      swap2\n      pop\n      pop\n      jump\t// out\n        /* \"#utility.yul\":5734:5811   */\n    tag_122:\n        /* \"#utility.yul\":5771:5778   */\n      0x00\n        /* \"#utility.yul\":5800:5805   */\n      dup2\n        /* \"#utility.yul\":5789:5805   */\n      swap1\n      pop\n        /* \"#utility.yul\":5734:5811   */\n      swap2\n      swap1\n      pop\n      jump\t// out\n        /* \"#utility.yul\":5817:5971   */\n    tag_67:\n        /* \"#utility.yul\":5901:5907   */\n      dup3\n        /* \"#utility.yul\":5896:5899   */\n      dup2\n        /* \"#utility.yul\":5891:5894   */\n      dup4\n        /* \"#utility.yul\":5878:5908   */\n      calldatacopy\n        /* \"#utility.yul\":5963:5964   */\n      0x00\n        /* \"#utility.yul\":5954:5960   */\n      dup4\n        /* \"#utility.yul\":5949:5952   */\n      dup4\n        /* \"#utility.yul\":5945:5961   */\n      add\n        /* \"#utility.yul\":5938:5965   */\n      mstore\n        /* \"#utility.yul\":5817:5971   */\n      pop\n      pop\n      pop\n      jump\t// out\n        /* \"#utility.yul\":5977:6284   */\n    tag_110:\n        /* \"#utility.yul\":6045:6046   */\n      0x00\n        /* \"#utility.yul\":6055:6168   */\n    tag_146:\n        /* \"#utility.yul\":6069:6075   */\n      dup4\n        /* \"#utility.yul\":6066:6067   */\n      dup2\n        /* \"#utility.yul\":6063:6076   */\n      lt\n        /* \"#utility.yul\":6055:6168   */\n      iszero\n      tag_148\n      jumpi\n        /* \"#utility.yul\":6154:6155   */\n      dup1\n        /* \"#utility.yul\":6149:6152   */\n      dup3\n        /* \"#utility.yul\":6145:6156   */\n      add\n        /* \"#utility.yul\":6139:6157   */\n      mload\n        /* \"#utility.yul\":6135:6136   */\n      dup2\n        /* \"#utility.yul\":6130:6133   */\n      dup5\n        /* \"#utility.yul\":6126:6137   */\n      add\n        /* \"#utility.yul\":6119:6158   */\n      mstore\n        /* \"#utility.yul\":6091:6093   */\n      0x20\n        /* \"#utility.yul\":6088:6089   */\n      dup2\n        /* \"#utility.yul\":6084:6094   */\n      add\n        /* \"#utility.yul\":6079:6094   */\n      swap1\n      pop\n        /* \"#utility.yul\":6055:6168   */\n      jump(tag_146)\n    tag_148:\n        /* \"#utility.yul\":6186:6192   */\n      dup4\n        /* \"#utility.yul\":6183:6184   */\n      dup2\n        /* \"#utility.yul\":6180:6193   */\n      gt\n        /* \"#utility.yul\":6177:6278   */\n      iszero\n      tag_149\n      jumpi\n        /* \"#utility.yul\":6266:6267   */\n      0x00\n        /* \"#utility.yul\":6257:6263   */\n      dup5\n        /* \"#utility.yul\":6252:6255   */\n      dup5\n        /* \"#utility.yul\":6248:6264   */\n      add\n        /* \"#utility.yul\":6241:6268   */\n      mstore\n        /* \"#utility.yul\":6177:6278   */\n    tag_149:\n        /* \"#utility.yul\":6026:6284   */\n      pop\n        /* \"#utility.yul\":5977:6284   */\n      pop\n      pop\n      pop\n      jump\t// out\n        /* \"#utility.yul\":6290:6610   */\n    tag_37:\n        /* \"#utility.yul\":6334:6340   */\n      0x00\n        /* \"#utility.yul\":6371:6372   */\n      0x02\n        /* \"#utility.yul\":6365:6369   */\n      dup3\n        /* \"#utility.yul\":6361:6373   */\n      div\n        /* \"#utility.yul\":6351:6373   */\n      swap1\n      pop\n        /* \"#utility.yul\":6418:6419   */\n      0x01\n        /* \"#utility.yul\":6412:6416   */\n      dup3\n        /* \"#utility.yul\":6408:6420   */\n      and\n        /* \"#utility.yul\":6439:6457   */\n      dup1\n        /* \"#utility.yul\":6429:6510   */\n      tag_151\n      jumpi\n        /* \"#utility.yul\":6495:6499   */\n      0x7f\n        /* \"#utility.yul\":6487:6493   */\n      dup3\n        /* \"#utility.yul\":6483:6500   */\n      and\n        /* \"#utility.yul\":6473:6500   */\n      swap2\n      pop\n        /* \"#utility.yul\":6429:6510   */\n    tag_151:\n        /* \"#utility.yul\":6557:6559   */\n      0x20\n        /* \"#utility.yul\":6549:6555   */\n      dup3\n        /* \"#utility.yul\":6546:6560   */\n      lt\n        /* \"#utility.yul\":6526:6544   */\n      dup2\n        /* \"#utility.yul\":6523:6561   */\n      eq\n        /* \"#utility.yul\":6520:6604   */\n      iszero\n      tag_152\n      jumpi\n        /* \"#utility.yul\":6576:6594   */\n      tag_153\n      tag_154\n      jump\t// in\n    tag_153:\n        /* \"#utility.yul\":6520:6604   */\n    tag_152:\n        /* \"#utility.yul\":6341:6610   */\n      pop\n        /* \"#utility.yul\":6290:6610   */\n      swap2\n      swap1\n      pop\n      jump\t// out\n        /* \"#utility.yul\":6616:6897   */\n    tag_133:\n        /* \"#utility.yul\":6699:6726   */\n      tag_156\n        /* \"#utility.yul\":6721:6725   */\n      dup3\n        /* \"#utility.yul\":6699:6726   */\n      tag_112\n      jump\t// in\n    tag_156:\n        /* \"#utility.yul\":6691:6697   */\n      dup2\n        /* \"#utility.yul\":6687:6727   */\n      add\n        /* \"#utility.yul\":6829:6835   */\n      dup2\n        /* \"#utility.yul\":6817:6827   */\n      dup2\n        /* \"#utility.yul\":6814:6836   */\n      lt\n        /* \"#utility.yul\":6793:6811   */\n      0xffffffffffffffff\n        /* \"#utility.yul\":6781:6791   */\n      dup3\n        /* \"#utility.yul\":6778:6812   */\n      gt\n        /* \"#utility.yul\":6775:6837   */\n      or\n        /* \"#utility.yul\":6772:6860   */\n      iszero\n      tag_157\n      jumpi\n        /* \"#utility.yul\":6840:6858   */\n      tag_158\n      tag_138\n      jump\t// in\n    tag_158:\n        /* \"#utility.yul\":6772:6860   */\n    tag_157:\n        /* \"#utility.yul\":6880:6890   */\n      dup1\n        /* \"#utility.yul\":6876:6878   */\n      0x40\n        /* \"#utility.yul\":6869:6891   */\n      mstore\n        /* \"#utility.yul\":6659:6897   */\n      pop\n        /* \"#utility.yul\":6616:6897   */\n      pop\n      pop\n      jump\t// out\n        /* \"#utility.yul\":6903:7083   */\n    tag_154:\n        /* \"#utility.yul\":6951:7028   */\n      0x4e487b7100000000000000000000000000000000000000000000000000000000\n        /* \"#utility.yul\":6948:6949   */\n      0x00\n        /* \"#utility.yul\":6941:7029   */\n      mstore\n        /* \"#utility.yul\":7048:7052   */\n      0x22\n        /* \"#utility.yul\":7045:7046   */\n      0x04\n        /* \"#utility.yul\":7038:7053   */\n      mstore\n        /* \"#utility.yul\":7072:7076   */\n      0x24\n        /* \"#utility.yul\":7069:7070   */\n      0x00\n        /* \"#utility.yul\":7062:7077   */\n      revert\n        /* \"#utility.yul\":7089:7269   */\n    tag_138:\n        /* \"#utility.yul\":7137:7214   */\n      0x4e487b7100000000000000000000000000000000000000000000000000000000\n        /* \"#utility.yul\":7134:7135   */\n      0x00\n        /* \"#utility.yul\":7127:7215   */\n      mstore\n        /* \"#utility.yul\":7234:7238   */\n      0x41\n        /* \"#utility.yul\":7231:7232   */\n      0x04\n        /* \"#utility.yul\":7224:7239   */\n      mstore\n        /* \"#utility.yul\":7258:7262   */\n      0x24\n        /* \"#utility.yul\":7255:7256   */\n      0x00\n        /* \"#utility.yul\":7248:7263   */\n      revert\n        /* \"#utility.yul\":7275:7392   */\n    tag_72:\n        /* \"#utility.yul\":7384:7385   */\n      0x00\n        /* \"#utility.yul\":7381:7382   */\n      dup1\n        /* \"#utility.yul\":7374:7386   */\n      revert\n        /* \"#utility.yul\":7398:7515   */\n    tag_65:\n        /* \"#utility.yul\":7507:7508   */\n      0x00\n        /* \"#utility.yul\":7504:7505   */\n      dup1\n        /* \"#utility.yul\":7497:7509   */\n      revert\n        /* \"#utility.yul\":7521:7638   */\n    tag_84:\n        /* \"#utility.yul\":7630:7631   */\n      0x00\n        /* \"#utility.yul\":7627:7628   */\n      dup1\n        /* \"#utility.yul\":7620:7632   */\n      revert\n        /* \"#utility.yul\":7644:7761   */\n    tag_81:\n        /* \"#utility.yul\":7753:7754   */\n      0x00\n        /* \"#utility.yul\":7750:7751   */\n      dup1\n        /* \"#utility.yul\":7743:7755   */\n      revert\n        /* \"#utility.yul\":7767:7869   */\n    tag_112:\n        /* \"#utility.yul\":7808:7814   */\n      0x00\n        /* \"#utility.yul\":7859:7861   */\n      0x1f\n        /* \"#utility.yul\":7855:7862   */\n      not\n        /* \"#utility.yul\":7850:7852   */\n      0x1f\n        /* \"#utility.yul\":7843:7848   */\n      dup4\n        /* \"#utility.yul\":7839:7853   */\n      add\n        /* \"#utility.yul\":7835:7863   */\n      and\n        /* \"#utility.yul\":7825:7863   */\n      swap1\n      pop\n        /* \"#utility.yul\":7767:7869   */\n      swap2\n      swap1\n      pop\n      jump\t// out\n        /* \"#utility.yul\":7875:7997   */\n    tag_77:\n        /* \"#utility.yul\":7948:7972   */\n      tag_167\n        /* \"#utility.yul\":7966:7971   */\n      dup2\n        /* \"#utility.yul\":7948:7972   */\n      tag_122\n      jump\t// in\n    tag_167:\n        /* \"#utility.yul\":7941:7946   */\n      dup2\n        /* \"#utility.yul\":7938:7973   */\n      eq\n        /* \"#utility.yul\":7928:7991   */\n      tag_168\n      jumpi\n        /* \"#utility.yul\":7987:7988   */\n      0x00\n        /* \"#utility.yul\":7984:7985   */\n      dup1\n        /* \"#utility.yul\":7977:7989   */\n      revert\n        /* \"#utility.yul\":7928:7991   */\n    tag_168:\n        /* \"#utility.yul\":7875:7997   */\n      pop\n      jump\t// out\n\n    auxdata: 0xa2646970667358221220e59e0d4e8d4f840cce37e3f1479cb230a54f2fa858cfeb6f17aefd7b676fe87964736f6c63430008070033\n}\n",
				"bytecode": {
					"linkReferences": {},
					"object": "608060405234801561001057600080fd5b50610755806100206000396000f3fe608060405234801561001057600080fd5b50600436106100575760003560e01c80631bbefaf11461005c5780633923cf71146100785780636b8ff574146100a8578063a266f6c2146100d8578063fe093d3b146100f4575b600080fd5b610076600480360381019061007191906103f0565b610110565b005b610092600480360381019061008d91906103c3565b61013c565b60405161009f919061053e565b60405180910390f35b6100c260048036038101906100bd91906103c3565b610158565b6040516100cf919061051c565b60405180910390f35b6100f260048036038101906100ed9190610367565b6101fd565b005b61010e6004803603810190610109919061044c565b610224565b005b8060026000848152602001908152602001600020908051906020019061013792919061023f565b505050565b6000806000838152602001908152602001600020549050919050565b606060026000838152602001908152602001600020805461017890610622565b80601f01602080910402602001604051908101604052809291908181526020018280546101a490610622565b80156101f15780601f106101c6576101008083540402835291602001916101f1565b820191906000526020600020905b8154815290600101906020018083116101d457829003601f168201915b50505050509050919050565b8060018360405161020e9190610505565b9081526020016040518091039020819055505050565b80600080848152602001908152602001600020819055505050565b82805461024b90610622565b90600052602060002090601f01602090048101928261026d57600085556102b4565b82601f1061028657805160ff19168380011785556102b4565b828001600101855582156102b4579182015b828111156102b3578251825591602001919060010190610298565b5b5090506102c191906102c5565b5090565b5b808211156102de5760008160009055506001016102c6565b5090565b60006102f56102f08461057e565b610559565b905082815260208101848484011115610311576103106106e8565b5b61031c8482856105e0565b509392505050565b600082601f830112610339576103386106e3565b5b81356103498482602086016102e2565b91505092915050565b60008135905061036181610708565b92915050565b6000806040838503121561037e5761037d6106f2565b5b600083013567ffffffffffffffff81111561039c5761039b6106ed565b5b6103a885828601610324565b92505060206103b985828601610352565b9150509250929050565b6000602082840312156103d9576103d86106f2565b5b60006103e784828501610352565b91505092915050565b60008060408385031215610407576104066106f2565b5b600061041585828601610352565b925050602083013567ffffffffffffffff811115610436576104356106ed565b5b61044285828601610324565b9150509250929050565b60008060408385031215610463576104626106f2565b5b600061047185828601610352565b925050602061048285828601610352565b9150509250929050565b6000610497826105af565b6104a181856105ba565b93506104b18185602086016105ef565b6104ba816106f7565b840191505092915050565b60006104d0826105af565b6104da81856105cb565b93506104ea8185602086016105ef565b80840191505092915050565b6104ff816105d6565b82525050565b600061051182846104c5565b915081905092915050565b60006020820190508181036000830152610536818461048c565b905092915050565b600060208201905061055360008301846104f6565b92915050565b6000610563610574565b905061056f8282610654565b919050565b6000604051905090565b600067ffffffffffffffff821115610599576105986106b4565b5b6105a2826106f7565b9050602081019050919050565b600081519050919050565b600082825260208201905092915050565b600081905092915050565b6000819050919050565b82818337600083830152505050565b60005b8381101561060d5780820151818401526020810190506105f2565b8381111561061c576000848401525b50505050565b6000600282049050600182168061063a57607f821691505b6020821081141561064e5761064d610685565b5b50919050565b61065d826106f7565b810181811067ffffffffffffffff8211171561067c5761067b6106b4565b5b80604052505050565b7f4e487b7100000000000000000000000000000000000000000000000000000000600052602260045260246000fd5b7f4e487b7100000000000000000000000000000000000000000000000000000000600052604160045260246000fd5b600080fd5b600080fd5b600080fd5b600080fd5b6000601f19601f8301169050919050565b610711816105d6565b811461071c57600080fd5b5056fea2646970667358221220e59e0d4e8d4f840cce37e3f1479cb230a54f2fa858cfeb6f17aefd7b676fe87964736f6c63430008070033",
					"opcodes": "PUSH1 0x80 PUSH1 0x40 MSTORE CALLVALUE DUP1 ISZERO PUSH2 0x10 JUMPI PUSH1 0x0 DUP1 REVERT JUMPDEST POP PUSH2 0x755 DUP1 PUSH2 0x20 PUSH1 0x0 CODECOPY PUSH1 0x0 RETURN INVALID PUSH1 0x80 PUSH1 0x40 MSTORE CALLVALUE DUP1 ISZERO PUSH2 0x10 JUMPI PUSH1 0x0 DUP1 REVERT JUMPDEST POP PUSH1 0x4 CALLDATASIZE LT PUSH2 0x57 JUMPI PUSH1 0x0 CALLDATALOAD PUSH1 0xE0 SHR DUP1 PUSH4 0x1BBEFAF1 EQ PUSH2 0x5C JUMPI DUP1 PUSH4 0x3923CF71 EQ PUSH2 0x78 JUMPI DUP1 PUSH4 0x6B8FF574 EQ PUSH2 0xA8 JUMPI DUP1 PUSH4 0xA266F6C2 EQ PUSH2 0xD8 JUMPI DUP1 PUSH4 0xFE093D3B EQ PUSH2 0xF4 JUMPI JUMPDEST PUSH1 0x0 DUP1 REVERT JUMPDEST PUSH2 0x76 PUSH1 0x4 DUP1 CALLDATASIZE SUB DUP2 ADD SWAP1 PUSH2 0x71 SWAP2 SWAP1 PUSH2 0x3F0 JUMP JUMPDEST PUSH2 0x110 JUMP JUMPDEST STOP JUMPDEST PUSH2 0x92 PUSH1 0x4 DUP1 CALLDATASIZE SUB DUP2 ADD SWAP1 PUSH2 0x8D SWAP2 SWAP1 PUSH2 0x3C3 JUMP JUMPDEST PUSH2 0x13C JUMP JUMPDEST PUSH1 0x40 MLOAD PUSH2 0x9F SWAP2 SWAP1 PUSH2 0x53E JUMP JUMPDEST PUSH1 0x40 MLOAD DUP1 SWAP2 SUB SWAP1 RETURN JUMPDEST PUSH2 0xC2 PUSH1 0x4 DUP1 CALLDATASIZE SUB DUP2 ADD SWAP1 PUSH2 0xBD SWAP2 SWAP1 PUSH2 0x3C3 JUMP JUMPDEST PUSH2 0x158 JUMP JUMPDEST PUSH1 0x40 MLOAD PUSH2 0xCF SWAP2 SWAP1 PUSH2 0x51C JUMP JUMPDEST PUSH1 0x40 MLOAD DUP1 SWAP2 SUB SWAP1 RETURN JUMPDEST PUSH2 0xF2 PUSH1 0x4 DUP1 CALLDATASIZE SUB DUP2 ADD SWAP1 PUSH2 0xED SWAP2 SWAP1 PUSH2 0x367 JUMP JUMPDEST PUSH2 0x1FD JUMP JUMPDEST STOP JUMPDEST PUSH2 0x10E PUSH1 0x4 DUP1 CALLDATASIZE SUB DUP2 ADD SWAP1 PUSH2 0x109 SWAP2 SWAP1 PUSH2 0x44C JUMP JUMPDEST PUSH2 0x224 JUMP JUMPDEST STOP JUMPDEST DUP1 PUSH1 0x2 PUSH1 0x0 DUP5 DUP2 MSTORE PUSH1 0x20 ADD SWAP1 DUP2 MSTORE PUSH1 0x20 ADD PUSH1 0x0 KECCAK256 SWAP1 DUP1 MLOAD SWAP1 PUSH1 0x20 ADD SWAP1 PUSH2 0x137 SWAP3 SWAP2 SWAP1 PUSH2 0x23F JUMP JUMPDEST POP POP POP JUMP JUMPDEST PUSH1 0x0 DUP1 PUSH1 0x0 DUP4 DUP2 MSTORE PUSH1 0x20 ADD SWAP1 DUP2 MSTORE PUSH1 0x20 ADD PUSH1 0x0 KECCAK256 SLOAD SWAP1 POP SWAP2 SWAP1 POP JUMP JUMPDEST PUSH1 0x60 PUSH1 0x2 PUSH1 0x0 DUP4 DUP2 MSTORE PUSH1 0x20 ADD SWAP1 DUP2 MSTORE PUSH1 0x20 ADD PUSH1 0x0 KECCAK256 DUP1 SLOAD PUSH2 0x178 SWAP1 PUSH2 0x622 JUMP JUMPDEST DUP1 PUSH1 0x1F ADD PUSH1 0x20 DUP1 SWAP2 DIV MUL PUSH1 0x20 ADD PUSH1 0x40 MLOAD SWAP1 DUP2 ADD PUSH1 0x40 MSTORE DUP1 SWAP3 SWAP2 SWAP1 DUP2 DUP2 MSTORE PUSH1 0x20 ADD DUP3 DUP1 SLOAD PUSH2 0x1A4 SWAP1 PUSH2 0x622 JUMP JUMPDEST DUP1 ISZERO PUSH2 0x1F1 JUMPI DUP1 PUSH1 0x1F LT PUSH2 0x1C6 JUMPI PUSH2 0x100 DUP1 DUP4 SLOAD DIV MUL DUP4 MSTORE SWAP2 PUSH1 0x20 ADD SWAP2 PUSH2 0x1F1 JUMP JUMPDEST DUP3 ADD SWAP2 SWAP1 PUSH1 0x0 MSTORE PUSH1 0x20 PUSH1 0x0 KECCAK256 SWAP1 JUMPDEST DUP2 SLOAD DUP2 MSTORE SWAP1 PUSH1 0x1 ADD SWAP1 PUSH1 0x20 ADD DUP1 DUP4 GT PUSH2 0x1D4 JUMPI DUP3 SWAP1 SUB PUSH1 0x1F AND DUP3 ADD SWAP2 JUMPDEST POP POP POP POP POP SWAP1 POP SWAP2 SWAP1 POP JUMP JUMPDEST DUP1 PUSH1 0x1 DUP4 PUSH1 0x40 MLOAD PUSH2 0x20E SWAP2 SWAP1 PUSH2 0x505 JUMP JUMPDEST SWAP1 DUP2 MSTORE PUSH1 0x20 ADD PUSH1 0x40 MLOAD DUP1 SWAP2 SUB SWAP1 KECCAK256 DUP2 SWAP1 SSTORE POP POP POP JUMP JUMPDEST DUP1 PUSH1 0x0 DUP1 DUP5 DUP2 MSTORE PUSH1 0x20 ADD SWAP1 DUP2 MSTORE PUSH1 0x20 ADD PUSH1 0x0 KECCAK256 DUP2 SWAP1 SSTORE POP POP POP JUMP JUMPDEST DUP3 DUP1 SLOAD PUSH2 0x24B SWAP1 PUSH2 0x622 JUMP JUMPDEST SWAP1 PUSH1 0x0 MSTORE PUSH1 0x20 PUSH1 0x0 KECCAK256 SWAP1 PUSH1 0x1F ADD PUSH1 0x20 SWAP1 DIV DUP2 ADD SWAP3 DUP3 PUSH2 0x26D JUMPI PUSH1 0x0 DUP6 SSTORE PUSH2 0x2B4 JUMP JUMPDEST DUP3 PUSH1 0x1F LT PUSH2 0x286 JUMPI DUP1 MLOAD PUSH1 0xFF NOT AND DUP4 DUP1 ADD OR DUP6 SSTORE PUSH2 0x2B4 JUMP JUMPDEST DUP3 DUP1 ADD PUSH1 0x1 ADD DUP6 SSTORE DUP3 ISZERO PUSH2 0x2B4 JUMPI SWAP2 DUP3 ADD JUMPDEST DUP3 DUP2 GT ISZERO PUSH2 0x2B3 JUMPI DUP3 MLOAD DUP3 SSTORE SWAP2 PUSH1 0x20 ADD SWAP2 SWAP1 PUSH1 0x1 ADD SWAP1 PUSH2 0x298 JUMP JUMPDEST JUMPDEST POP SWAP1 POP PUSH2 0x2C1 SWAP2 SWAP1 PUSH2 0x2C5 JUMP JUMPDEST POP SWAP1 JUMP JUMPDEST JUMPDEST DUP1 DUP3 GT ISZERO PUSH2 0x2DE JUMPI PUSH1 0x0 DUP2 PUSH1 0x0 SWAP1 SSTORE POP PUSH1 0x1 ADD PUSH2 0x2C6 JUMP JUMPDEST POP SWAP1 JUMP JUMPDEST PUSH1 0x0 PUSH2 0x2F5 PUSH2 0x2F0 DUP5 PUSH2 0x57E JUMP JUMPDEST PUSH2 0x559 JUMP JUMPDEST SWAP1 POP DUP3 DUP2 MSTORE PUSH1 0x20 DUP2 ADD DUP5 DUP5 DUP5 ADD GT ISZERO PUSH2 0x311 JUMPI PUSH2 0x310 PUSH2 0x6E8 JUMP JUMPDEST JUMPDEST PUSH2 0x31C DUP5 DUP3 DUP6 PUSH2 0x5E0 JUMP JUMPDEST POP SWAP4 SWAP3 POP POP POP JUMP JUMPDEST PUSH1 0x0 DUP3 PUSH1 0x1F DUP4 ADD SLT PUSH2 0x339 JUMPI PUSH2 0x338 PUSH2 0x6E3 JUMP JUMPDEST JUMPDEST DUP2 CALLDATALOAD PUSH2 0x349 DUP5 DUP3 PUSH1 0x20 DUP7 ADD PUSH2 0x2E2 JUMP JUMPDEST SWAP2 POP POP SWAP3 SWAP2 POP POP JUMP JUMPDEST PUSH1 0x0 DUP2 CALLDATALOAD SWAP1 POP PUSH2 0x361 DUP2 PUSH2 0x708 JUMP JUMPDEST SWAP3 SWAP2 POP POP JUMP JUMPDEST PUSH1 0x0 DUP1 PUSH1 0x40 DUP4 DUP6 SUB SLT ISZERO PUSH2 0x37E JUMPI PUSH2 0x37D PUSH2 0x6F2 JUMP JUMPDEST JUMPDEST PUSH1 0x0 DUP4 ADD CALLDATALOAD PUSH8 0xFFFFFFFFFFFFFFFF DUP2 GT ISZERO PUSH2 0x39C JUMPI PUSH2 0x39B PUSH2 0x6ED JUMP JUMPDEST JUMPDEST PUSH2 0x3A8 DUP6 DUP3 DUP7 ADD PUSH2 0x324 JUMP JUMPDEST SWAP3 POP POP PUSH1 0x20 PUSH2 0x3B9 DUP6 DUP3 DUP7 ADD PUSH2 0x352 JUMP JUMPDEST SWAP2 POP POP SWAP3 POP SWAP3 SWAP1 POP JUMP JUMPDEST PUSH1 0x0 PUSH1 0x20 DUP3 DUP5 SUB SLT ISZERO PUSH2 0x3D9 JUMPI PUSH2 0x3D8 PUSH2 0x6F2 JUMP JUMPDEST JUMPDEST PUSH1 0x0 PUSH2 0x3E7 DUP5 DUP3 DUP6 ADD PUSH2 0x352 JUMP JUMPDEST SWAP2 POP POP SWAP3 SWAP2 POP POP JUMP JUMPDEST PUSH1 0x0 DUP1 PUSH1 0x40 DUP4 DUP6 SUB SLT ISZERO PUSH2 0x407 JUMPI PUSH2 0x406 PUSH2 0x6F2 JUMP JUMPDEST JUMPDEST PUSH1 0x0 PUSH2 0x415 DUP6 DUP3 DUP7 ADD PUSH2 0x352 JUMP JUMPDEST SWAP3 POP POP PUSH1 0x20 DUP4 ADD CALLDATALOAD PUSH8 0xFFFFFFFFFFFFFFFF DUP2 GT ISZERO PUSH2 0x436 JUMPI PUSH2 0x435 PUSH2 0x6ED JUMP JUMPDEST JUMPDEST PUSH2 0x442 DUP6 DUP3 DUP7 ADD PUSH2 0x324 JUMP JUMPDEST SWAP2 POP POP SWAP3 POP SWAP3 SWAP1 POP JUMP JUMPDEST PUSH1 0x0 DUP1 PUSH1 0x40 DUP4 DUP6 SUB SLT ISZERO PUSH2 0x463 JUMPI PUSH2 0x462 PUSH2 0x6F2 JUMP JUMPDEST JUMPDEST PUSH1 0x0 PUSH2 0x471 DUP6 DUP3 DUP7 ADD PUSH2 0x352 JUMP JUMPDEST SWAP3 POP POP PUSH1 0x20 PUSH2 0x482 DUP6 DUP3 DUP7 ADD PUSH2 0x352 JUMP JUMPDEST SWAP2 POP POP SWAP3 POP SWAP3 SWAP1 POP JUMP JUMPDEST PUSH1 0x0 PUSH2 0x497 DUP3 PUSH2 0x5AF JUMP JUMPDEST PUSH2 0x4A1 DUP2 DUP6 PUSH2 0x5BA JUMP JUMPDEST SWAP4 POP PUSH2 0x4B1 DUP2 DUP6 PUSH1 0x20 DUP7 ADD PUSH2 0x5EF JUMP JUMPDEST PUSH2 0x4BA DUP2 PUSH2 0x6F7 JUMP JUMPDEST DUP5 ADD SWAP2 POP POP SWAP3 SWAP2 POP POP JUMP JUMPDEST PUSH1 0x0 PUSH2 0x4D0 DUP3 PUSH2 0x5AF JUMP JUMPDEST PUSH2 0x4DA DUP2 DUP6 PUSH2 0x5CB JUMP JUMPDEST SWAP4 POP PUSH2 0x4EA DUP2 DUP6 PUSH1 0x20 DUP7 ADD PUSH2 0x5EF JUMP JUMPDEST DUP1 DUP5 ADD SWAP2 POP POP SWAP3 SWAP2 POP POP JUMP JUMPDEST PUSH2 0x4FF DUP2 PUSH2 0x5D6 JUMP JUMPDEST DUP3 MSTORE POP POP JUMP JUMPDEST PUSH1 0x0 PUSH2 0x511 DUP3 DUP5 PUSH2 0x4C5 JUMP JUMPDEST SWAP2 POP DUP2 SWAP1 POP SWAP3 SWAP2 POP POP JUMP JUMPDEST PUSH1 0x0 PUSH1 0x20 DUP3 ADD SWAP1 POP DUP2 DUP2 SUB PUSH1 0x0 DUP4 ADD MSTORE PUSH2 0x536 DUP2 DUP5 PUSH2 0x48C JUMP JUMPDEST SWAP1 POP SWAP3 SWAP2 POP POP JUMP JUMPDEST PUSH1 0x0 PUSH1 0x20 DUP3 ADD SWAP1 POP PUSH2 0x553 PUSH1 0x0 DUP4 ADD DUP5 PUSH2 0x4F6 JUMP JUMPDEST SWAP3 SWAP2 POP POP JUMP JUMPDEST PUSH1 0x0 PUSH2 0x563 PUSH2 0x574 JUMP JUMPDEST SWAP1 POP PUSH2 0x56F DUP3 DUP3 PUSH2 0x654 JUMP JUMPDEST SWAP2 SWAP1 POP JUMP JUMPDEST PUSH1 0x0 PUSH1 0x40 MLOAD SWAP1 POP SWAP1 JUMP JUMPDEST PUSH1 0x0 PUSH8 0xFFFFFFFFFFFFFFFF DUP3 GT ISZERO PUSH2 0x599 JUMPI PUSH2 0x598 PUSH2 0x6B4 JUMP JUMPDEST JUMPDEST PUSH2 0x5A2 DUP3 PUSH2 0x6F7 JUMP JUMPDEST SWAP1 POP PUSH1 0x20 DUP2 ADD SWAP1 POP SWAP2 SWAP1 POP JUMP JUMPDEST PUSH1 0x0 DUP2 MLOAD SWAP1 POP SWAP2 SWAP1 POP JUMP JUMPDEST PUSH1 0x0 DUP3 DUP3 MSTORE PUSH1 0x20 DUP3 ADD SWAP1 POP SWAP3 SWAP2 POP POP JUMP JUMPDEST PUSH1 0x0 DUP2 SWAP1 POP SWAP3 SWAP2 POP POP JUMP JUMPDEST PUSH1 0x0 DUP2 SWAP1 POP SWAP2 SWAP1 POP JUMP JUMPDEST DUP3 DUP2 DUP4 CALLDATACOPY PUSH1 0x0 DUP4 DUP4 ADD MSTORE POP POP POP JUMP JUMPDEST PUSH1 0x0 JUMPDEST DUP4 DUP2 LT ISZERO PUSH2 0x60D JUMPI DUP1 DUP3 ADD MLOAD DUP2 DUP5 ADD MSTORE PUSH1 0x20 DUP2 ADD SWAP1 POP PUSH2 0x5F2 JUMP JUMPDEST DUP4 DUP2 GT ISZERO PUSH2 0x61C JUMPI PUSH1 0x0 DUP5 DUP5 ADD MSTORE JUMPDEST POP POP POP POP JUMP JUMPDEST PUSH1 0x0 PUSH1 0x2 DUP3 DIV SWAP1 POP PUSH1 0x1 DUP3 AND DUP1 PUSH2 0x63A JUMPI PUSH1 0x7F DUP3 AND SWAP2 POP JUMPDEST PUSH1 0x20 DUP3 LT DUP2 EQ ISZERO PUSH2 0x64E JUMPI PUSH2 0x64D PUSH2 0x685 JUMP JUMPDEST JUMPDEST POP SWAP2 SWAP1 POP JUMP JUMPDEST PUSH2 0x65D DUP3 PUSH2 0x6F7 JUMP JUMPDEST DUP2 ADD DUP2 DUP2 LT PUSH8 0xFFFFFFFFFFFFFFFF DUP3 GT OR ISZERO PUSH2 0x67C JUMPI PUSH2 0x67B PUSH2 0x6B4 JUMP JUMPDEST JUMPDEST DUP1 PUSH1 0x40 MSTORE POP POP POP JUMP JUMPDEST PUSH32 0x4E487B7100000000000000000000000000000000000000000000000000000000 PUSH1 0x0 MSTORE PUSH1 0x22 PUSH1 0x4 MSTORE PUSH1 0x24 PUSH1 0x0 REVERT JUMPDEST PUSH32 0x4E487B7100000000000000000000000000000000000000000000000000000000 PUSH1 0x0 MSTORE PUSH1 0x41 PUSH1 0x4 MSTORE PUSH1 0x24 PUSH1 0x0 REVERT JUMPDEST PUSH1 0x0 DUP1 REVERT JUMPDEST PUSH1 0x0 DUP1 REVERT JUMPDEST PUSH1 0x0 DUP1 REVERT JUMPDEST PUSH1 0x0 DUP1 REVERT JUMPDEST PUSH1 0x0 PUSH1 0x1F NOT PUSH1 0x1F DUP4 ADD AND SWAP1 POP SWAP2 SWAP1 POP JUMP JUMPDEST PUSH2 0x711 DUP2 PUSH2 0x5D6 JUMP JUMPDEST DUP2 EQ PUSH2 0x71C JUMPI PUSH1 0x0 DUP1 REVERT JUMPDEST POP JUMP INVALID LOG2 PUSH5 0x6970667358 0x22 SLT KECCAK256 0xE5 SWAP15 0xD 0x4E DUP14 0x4F DUP5 0xC 0xCE CALLDATACOPY 0xE3 CALL SELFBALANCE SWAP13 0xB2 ADDRESS 0xA5 0x4F 0x2F 0xA8 PC 0xCF 0xEB PUSH16 0x17AEFD7B676FE87964736F6C63430008 SMOD STOP CALLER "
				},
				"gasEstimates": {
					"creation": {
						"codeDepositCost": "375400",
						"executionCost": "411",
						"totalCost": "375811"
					},
					"external": {
						"getAgeList(uint256)": "infinite",
						"getName(uint256)": "infinite",
						"setAgeList(uint256,uint256)": "infinite",
						"setNameList(uint256,string)": "infinite",
						"setPriceList(string,uint256)": "infinite"
					}
				},
				"methodIdentifiers": {
					"getAgeList(uint256)": "3923cf71",
					"getName(uint256)": "6b8ff574",
					"setAgeList(uint256,uint256)": "fe093d3b",
					"setNameList(uint256,string)": "1bbefaf1",
					"setPriceList(string,uint256)": "a266f6c2"
				}
			},
			"storageLayout": {
				"storage": [
					{
						"astId": 5,
						"contract": "lecture/lec17.sol:lec17",
						"label": "ageList",
						"offset": 0,
						"slot": "0",
						"type": "t_mapping(t_uint256,t_uint256)"
					},
					{
						"astId": 9,
						"contract": "lecture/lec17.sol:lec17",
						"label": "priceList",
						"offset": 0,
						"slot": "1",
						"type": "t_mapping(t_string_memory_ptr,t_uint256)"
					},
					{
						"astId": 13,
						"contract": "lecture/lec17.sol:lec17",
						"label": "nameList",
						"offset": 0,
						"slot": "2",
						"type": "t_mapping(t_uint256,t_string_storage)"
					}
				],
				"types": {
					"t_mapping(t_string_memory_ptr,t_uint256)": {
						"encoding": "mapping",
						"key": "t_string_memory_ptr",
						"label": "mapping(string => uint256)",
						"numberOfBytes": "32",
						"value": "t_uint256"
					},
					"t_mapping(t_uint256,t_string_storage)": {
						"encoding": "mapping",
						"key": "t_uint256",
						"label": "mapping(uint256 => string)",
						"numberOfBytes": "32",
						"value": "t_string_storage"
					},
					"t_mapping(t_uint256,t_uint256)": {
						"encoding": "mapping",
						"key": "t_uint256",
						"label": "mapping(uint256 => uint256)",
						"numberOfBytes": "32",
						"value": "t_uint256"
					},
					"t_string_memory_ptr": {
						"encoding": "bytes",
						"label": "string",
						"numberOfBytes": "32"
					},
					"t_string_storage": {
						"encoding": "bytes",
						"label": "string",
						"numberOfBytes": "32"
					},
					"t_uint256": {
						"encoding": "inplace",
						"label": "uint256",
						"numberOfBytes": "32"
					}
				}
			},
			"userdoc": {
				"kind": "user",
				"methods": {},
				"version": 1
			}
		}
	}
}