{
	"lecture/lec15.sol": {
		"Son": {
			"abi": [
				{
					"anonymous": false,
					"inputs": [
						{
							"indexed": false,
							"internalType": "string",
							"name": "name",
							"type": "string"
						}
					],
					"name": "FatherName",
					"type": "event"
				},
				{
					"anonymous": false,
					"inputs": [
						{
							"indexed": false,
							"internalType": "string",
							"name": "name",
							"type": "string"
						}
					],
					"name": "sonName",
					"type": "event"
				},
				{
					"inputs": [],
					"name": "who",
					"outputs": [],
					"stateMutability": "nonpayable",
					"type": "function"
				}
			],
			"devdoc": {
				"kind": "dev",
				"methods": {},
				"version": 1
			},
			"evm": {
				"assembly": "    /* \"lecture/lec15.sol\":206:376  contract Son is Father {... */\n  mstore(0x40, 0x80)\n  callvalue\n  dup1\n  iszero\n  tag_1\n  jumpi\n  0x00\n  dup1\n  revert\ntag_1:\n  pop\n  dataSize(sub_0)\n  dup1\n  dataOffset(sub_0)\n  0x00\n  codecopy\n  0x00\n  return\nstop\n\nsub_0: assembly {\n        /* \"lecture/lec15.sol\":206:376  contract Son is Father {... */\n      mstore(0x40, 0x80)\n      callvalue\n      dup1\n      iszero\n      tag_1\n      jumpi\n      0x00\n      dup1\n      revert\n    tag_1:\n      pop\n      jumpi(tag_2, lt(calldatasize, 0x04))\n      shr(0xe0, calldataload(0x00))\n      dup1\n      0xd6d21dfd\n      eq\n      tag_3\n      jumpi\n    tag_2:\n      0x00\n      dup1\n      revert\n        /* \"lecture/lec15.sol\":267:374  function who() public override {... */\n    tag_3:\n      tag_4\n      tag_5\n      jump\t// in\n    tag_4:\n      stop\n    tag_5:\n        /* \"lecture/lec15.sol\":313:335  FatherName(\"KIMDAEHO\") */\n      0x5657acc33fa9dbb926b6b6a1479e21e5e99a97b612f5d7f3ddfb47197d2148cc\n      mload(0x40)\n      tag_7\n      swap1\n      tag_8\n      jump\t// in\n    tag_7:\n      mload(0x40)\n      dup1\n      swap2\n      sub\n      swap1\n      log1\n        /* \"lecture/lec15.sol\":350:367  sonName(\"KIMJIN\") */\n      0xbee719c766e37b1cc0e50bfaa28bd13f3deb24ff1ac437f55a31ff864afe13a6\n      mload(0x40)\n      tag_9\n      swap1\n      tag_10\n      jump\t// in\n    tag_9:\n      mload(0x40)\n      dup1\n      swap2\n      sub\n      swap1\n      log1\n        /* \"lecture/lec15.sol\":267:374  function who() public override {... */\n      jump\t// out\n        /* \"#utility.yul\":7:372   */\n    tag_12:\n        /* \"#utility.yul\":149:152   */\n      0x00\n        /* \"#utility.yul\":170:236   */\n      tag_14\n        /* \"#utility.yul\":234:235   */\n      0x08\n        /* \"#utility.yul\":229:232   */\n      dup4\n        /* \"#utility.yul\":170:236   */\n      tag_15\n      jump\t// in\n    tag_14:\n        /* \"#utility.yul\":163:236   */\n      swap2\n      pop\n        /* \"#utility.yul\":245:338   */\n      tag_16\n        /* \"#utility.yul\":334:337   */\n      dup3\n        /* \"#utility.yul\":245:338   */\n      tag_17\n      jump\t// in\n    tag_16:\n        /* \"#utility.yul\":363:365   */\n      0x20\n        /* \"#utility.yul\":358:361   */\n      dup3\n        /* \"#utility.yul\":354:366   */\n      add\n        /* \"#utility.yul\":347:366   */\n      swap1\n      pop\n        /* \"#utility.yul\":7:372   */\n      swap2\n      swap1\n      pop\n      jump\t// out\n        /* \"#utility.yul\":378:743   */\n    tag_18:\n        /* \"#utility.yul\":520:523   */\n      0x00\n        /* \"#utility.yul\":541:607   */\n      tag_20\n        /* \"#utility.yul\":605:606   */\n      0x06\n        /* \"#utility.yul\":600:603   */\n      dup4\n        /* \"#utility.yul\":541:607   */\n      tag_15\n      jump\t// in\n    tag_20:\n        /* \"#utility.yul\":534:607   */\n      swap2\n      pop\n        /* \"#utility.yul\":616:709   */\n      tag_21\n        /* \"#utility.yul\":705:708   */\n      dup3\n        /* \"#utility.yul\":616:709   */\n      tag_22\n      jump\t// in\n    tag_21:\n        /* \"#utility.yul\":734:736   */\n      0x20\n        /* \"#utility.yul\":729:732   */\n      dup3\n        /* \"#utility.yul\":725:737   */\n      add\n        /* \"#utility.yul\":718:737   */\n      swap1\n      pop\n        /* \"#utility.yul\":378:743   */\n      swap2\n      swap1\n      pop\n      jump\t// out\n        /* \"#utility.yul\":749:1168   */\n    tag_8:\n        /* \"#utility.yul\":915:919   */\n      0x00\n        /* \"#utility.yul\":953:955   */\n      0x20\n        /* \"#utility.yul\":942:951   */\n      dup3\n        /* \"#utility.yul\":938:956   */\n      add\n        /* \"#utility.yul\":930:956   */\n      swap1\n      pop\n        /* \"#utility.yul\":1002:1011   */\n      dup2\n        /* \"#utility.yul\":996:1000   */\n      dup2\n        /* \"#utility.yul\":992:1012   */\n      sub\n        /* \"#utility.yul\":988:989   */\n      0x00\n        /* \"#utility.yul\":977:986   */\n      dup4\n        /* \"#utility.yul\":973:990   */\n      add\n        /* \"#utility.yul\":966:1013   */\n      mstore\n        /* \"#utility.yul\":1030:1161   */\n      tag_24\n        /* \"#utility.yul\":1156:1160   */\n      dup2\n        /* \"#utility.yul\":1030:1161   */\n      tag_12\n      jump\t// in\n    tag_24:\n        /* \"#utility.yul\":1022:1161   */\n      swap1\n      pop\n        /* \"#utility.yul\":749:1168   */\n      swap2\n      swap1\n      pop\n      jump\t// out\n        /* \"#utility.yul\":1174:1593   */\n    tag_10:\n        /* \"#utility.yul\":1340:1344   */\n      0x00\n        /* \"#utility.yul\":1378:1380   */\n      0x20\n        /* \"#utility.yul\":1367:1376   */\n      dup3\n        /* \"#utility.yul\":1363:1381   */\n      add\n        /* \"#utility.yul\":1355:1381   */\n      swap1\n      pop\n        /* \"#utility.yul\":1427:1436   */\n      dup2\n        /* \"#utility.yul\":1421:1425   */\n      dup2\n        /* \"#utility.yul\":1417:1437   */\n      sub\n        /* \"#utility.yul\":1413:1414   */\n      0x00\n        /* \"#utility.yul\":1402:1411   */\n      dup4\n        /* \"#utility.yul\":1398:1415   */\n      add\n        /* \"#utility.yul\":1391:1438   */\n      mstore\n        /* \"#utility.yul\":1455:1586   */\n      tag_26\n        /* \"#utility.yul\":1581:1585   */\n      dup2\n        /* \"#utility.yul\":1455:1586   */\n      tag_18\n      jump\t// in\n    tag_26:\n        /* \"#utility.yul\":1447:1586   */\n      swap1\n      pop\n        /* \"#utility.yul\":1174:1593   */\n      swap2\n      swap1\n      pop\n      jump\t// out\n        /* \"#utility.yul\":1599:1768   */\n    tag_15:\n        /* \"#utility.yul\":1683:1694   */\n      0x00\n        /* \"#utility.yul\":1717:1723   */\n      dup3\n        /* \"#utility.yul\":1712:1715   */\n      dup3\n        /* \"#utility.yul\":1705:1724   */\n      mstore\n        /* \"#utility.yul\":1757:1761   */\n      0x20\n        /* \"#utility.yul\":1752:1755   */\n      dup3\n        /* \"#utility.yul\":1748:1762   */\n      add\n        /* \"#utility.yul\":1733:1762   */\n      swap1\n      pop\n        /* \"#utility.yul\":1599:1768   */\n      swap3\n      swap2\n      pop\n      pop\n      jump\t// out\n        /* \"#utility.yul\":1774:1932   */\n    tag_17:\n        /* \"#utility.yul\":1914:1924   */\n      0x4b494d444145484f000000000000000000000000000000000000000000000000\n        /* \"#utility.yul\":1910:1911   */\n      0x00\n        /* \"#utility.yul\":1902:1908   */\n      dup3\n        /* \"#utility.yul\":1898:1912   */\n      add\n        /* \"#utility.yul\":1891:1925   */\n      mstore\n        /* \"#utility.yul\":1774:1932   */\n      pop\n      jump\t// out\n        /* \"#utility.yul\":1938:2094   */\n    tag_22:\n        /* \"#utility.yul\":2078:2086   */\n      0x4b494d4a494e0000000000000000000000000000000000000000000000000000\n        /* \"#utility.yul\":2074:2075   */\n      0x00\n        /* \"#utility.yul\":2066:2072   */\n      dup3\n        /* \"#utility.yul\":2062:2076   */\n      add\n        /* \"#utility.yul\":2055:2087   */\n      mstore\n        /* \"#utility.yul\":1938:2094   */\n      pop\n      jump\t// out\n\n    auxdata: 0xa2646970667358221220f817e1a153c5281c23853767449d6efc22f716d8d2c0dfb2d8ed64f6c762fef264736f6c63430008070033\n}\n",
				"bytecode": {
					"linkReferences": {},
					"object": "608060405234801561001057600080fd5b506101c5806100206000396000f3fe608060405234801561001057600080fd5b506004361061002b5760003560e01c8063d6d21dfd14610030575b600080fd5b61003861003a565b005b7f5657acc33fa9dbb926b6b6a1479e21e5e99a97b612f5d7f3ddfb47197d2148cc604051610067906100ec565b60405180910390a17fbee719c766e37b1cc0e50bfaa28bd13f3deb24ff1ac437f55a31ff864afe13a660405161009c9061010c565b60405180910390a1565b60006100b360088361012c565b91506100be8261013d565b602082019050919050565b60006100d660068361012c565b91506100e182610166565b602082019050919050565b60006020820190508181036000830152610105816100a6565b9050919050565b60006020820190508181036000830152610125816100c9565b9050919050565b600082825260208201905092915050565b7f4b494d444145484f000000000000000000000000000000000000000000000000600082015250565b7f4b494d4a494e000000000000000000000000000000000000000000000000000060008201525056fea2646970667358221220f817e1a153c5281c23853767449d6efc22f716d8d2c0dfb2d8ed64f6c762fef264736f6c63430008070033",
					"opcodes": "PUSH1 0x80 PUSH1 0x40 MSTORE CALLVALUE DUP1 ISZERO PUSH2 0x10 JUMPI PUSH1 0x0 DUP1 REVERT JUMPDEST POP PUSH2 0x1C5 DUP1 PUSH2 0x20 PUSH1 0x0 CODECOPY PUSH1 0x0 RETURN INVALID PUSH1 0x80 PUSH1 0x40 MSTORE CALLVALUE DUP1 ISZERO PUSH2 0x10 JUMPI PUSH1 0x0 DUP1 REVERT JUMPDEST POP PUSH1 0x4 CALLDATASIZE LT PUSH2 0x2B JUMPI PUSH1 0x0 CALLDATALOAD PUSH1 0xE0 SHR DUP1 PUSH4 0xD6D21DFD EQ PUSH2 0x30 JUMPI JUMPDEST PUSH1 0x0 DUP1 REVERT JUMPDEST PUSH2 0x38 PUSH2 0x3A JUMP JUMPDEST STOP JUMPDEST PUSH32 0x5657ACC33FA9DBB926B6B6A1479E21E5E99A97B612F5D7F3DDFB47197D2148CC PUSH1 0x40 MLOAD PUSH2 0x67 SWAP1 PUSH2 0xEC JUMP JUMPDEST PUSH1 0x40 MLOAD DUP1 SWAP2 SUB SWAP1 LOG1 PUSH32 0xBEE719C766E37B1CC0E50BFAA28BD13F3DEB24FF1AC437F55A31FF864AFE13A6 PUSH1 0x40 MLOAD PUSH2 0x9C SWAP1 PUSH2 0x10C JUMP JUMPDEST PUSH1 0x40 MLOAD DUP1 SWAP2 SUB SWAP1 LOG1 JUMP JUMPDEST PUSH1 0x0 PUSH2 0xB3 PUSH1 0x8 DUP4 PUSH2 0x12C JUMP JUMPDEST SWAP2 POP PUSH2 0xBE DUP3 PUSH2 0x13D JUMP JUMPDEST PUSH1 0x20 DUP3 ADD SWAP1 POP SWAP2 SWAP1 POP JUMP JUMPDEST PUSH1 0x0 PUSH2 0xD6 PUSH1 0x6 DUP4 PUSH2 0x12C JUMP JUMPDEST SWAP2 POP PUSH2 0xE1 DUP3 PUSH2 0x166 JUMP JUMPDEST PUSH1 0x20 DUP3 ADD SWAP1 POP SWAP2 SWAP1 POP JUMP JUMPDEST PUSH1 0x0 PUSH1 0x20 DUP3 ADD SWAP1 POP DUP2 DUP2 SUB PUSH1 0x0 DUP4 ADD MSTORE PUSH2 0x105 DUP2 PUSH2 0xA6 JUMP JUMPDEST SWAP1 POP SWAP2 SWAP1 POP JUMP JUMPDEST PUSH1 0x0 PUSH1 0x20 DUP3 ADD SWAP1 POP DUP2 DUP2 SUB PUSH1 0x0 DUP4 ADD MSTORE PUSH2 0x125 DUP2 PUSH2 0xC9 JUMP JUMPDEST SWAP1 POP SWAP2 SWAP1 POP JUMP JUMPDEST PUSH1 0x0 DUP3 DUP3 MSTORE PUSH1 0x20 DUP3 ADD SWAP1 POP SWAP3 SWAP2 POP POP JUMP JUMPDEST PUSH32 0x4B494D444145484F000000000000000000000000000000000000000000000000 PUSH1 0x0 DUP3 ADD MSTORE POP JUMP JUMPDEST PUSH32 0x4B494D4A494E0000000000000000000000000000000000000000000000000000 PUSH1 0x0 DUP3 ADD MSTORE POP JUMP INVALID LOG2 PUSH5 0x6970667358 0x22 SLT KECCAK256 0xF8 OR 0xE1 LOG1 MSTORE8 0xC5 0x28 SHR 0x23 DUP6 CALLDATACOPY PUSH8 0x449D6EFC22F716D8 0xD2 0xC0 0xDF 0xB2 0xD8 0xED PUSH5 0xF6C762FEF2 PUSH5 0x736F6C6343 STOP ADDMOD SMOD STOP CALLER "
				},
				"gasEstimates": {
					"creation": {
						"codeDepositCost": "90600",
						"executionCost": "141",
						"totalCost": "90741"
					},
					"external": {
						"who()": "infinite"
					}
				},
				"methodIdentifiers": {
					"who()": "d6d21dfd"
				}
			},
			"storageLayout": {
				"storage": [],
				"types": null
			},
			"userdoc": {
				"kind": "user",
				"methods": {},
				"version": 1
			}
		}
	}
}