{
	"lecture/;ec25.sol": {
		"lec25": {
			"abi": [
				{
					"inputs": [],
					"name": "assertNow",
					"outputs": [],
					"stateMutability": "pure",
					"type": "function"
				},
				{
					"inputs": [
						{
							"internalType": "uint256",
							"name": "_age",
							"type": "uint256"
						}
					],
					"name": "onlyAdults",
					"outputs": [
						{
							"internalType": "string",
							"name": "",
							"type": "string"
						}
					],
					"stateMutability": "pure",
					"type": "function"
				},
				{
					"inputs": [
						{
							"internalType": "uint256",
							"name": "_age",
							"type": "uint256"
						}
					],
					"name": "onlyAdults2",
					"outputs": [
						{
							"internalType": "string",
							"name": "",
							"type": "string"
						}
					],
					"stateMutability": "pure",
					"type": "function"
				},
				{
					"inputs": [],
					"name": "requireNow",
					"outputs": [],
					"stateMutability": "pure",
					"type": "function"
				},
				{
					"inputs": [],
					"name": "revertNow",
					"outputs": [],
					"stateMutability": "pure",
					"type": "function"
				}
			],
			"devdoc": {
				"kind": "dev",
				"methods": {},
				"version": 1
			},
			"evm": {
				"assembly": "    /* \"lecture/;ec25.sol\":129:1266  contract lec25{... */\n  mstore(0x40, 0x80)\n  callvalue\n  dup1\n  iszero\n  tag_1\n  jumpi\n  0x00\n  dup1\n  revert\ntag_1:\n  pop\n  dataSize(sub_0)\n  dup1\n  dataOffset(sub_0)\n  0x00\n  codecopy\n  0x00\n  return\nstop\n\nsub_0: assembly {\n        /* \"lecture/;ec25.sol\":129:1266  contract lec25{... */\n      mstore(0x40, 0x80)\n      callvalue\n      dup1\n      iszero\n      tag_1\n      jumpi\n      0x00\n      dup1\n      revert\n    tag_1:\n      pop\n      jumpi(tag_2, lt(calldatasize, 0x04))\n      shr(0xe0, calldataload(0x00))\n      dup1\n      0x746715\n      eq\n      tag_3\n      jumpi\n      dup1\n      0x2712f519\n      eq\n      tag_4\n      jumpi\n      dup1\n      0x844adfd2\n      eq\n      tag_5\n      jumpi\n      dup1\n      0x9de5b7d2\n      eq\n      tag_6\n      jumpi\n      dup1\n      0xafe26609\n      eq\n      tag_7\n      jumpi\n    tag_2:\n      0x00\n      dup1\n      revert\n        /* \"lecture/;ec25.sol\":1062:1263  function onlyAdults2(uint256 _age) public pure returns(string memory){... */\n    tag_3:\n      tag_8\n      0x04\n      dup1\n      calldatasize\n      sub\n      dup2\n      add\n      swap1\n      tag_9\n      swap2\n      swap1\n      tag_10\n      jump\t// in\n    tag_9:\n      tag_11\n      jump\t// in\n    tag_8:\n      mload(0x40)\n      tag_12\n      swap2\n      swap1\n      tag_13\n      jump\t// in\n    tag_12:\n      mload(0x40)\n      dup1\n      swap2\n      sub\n      swap1\n      return\n        /* \"lecture/;ec25.sol\":528:599  function assertNow() public pure{... */\n    tag_4:\n      tag_14\n      tag_15\n      jump\t// in\n    tag_14:\n      stop\n        /* \"lecture/;ec25.sol\":738:812  function requireNow()public pure{... */\n    tag_5:\n      tag_16\n      tag_17\n      jump\t// in\n    tag_16:\n      stop\n        /* \"lecture/;ec25.sol\":822:1051  function onlyAdults(uint256 _age) public pure returns(string memory){... */\n    tag_6:\n      tag_18\n      0x04\n      dup1\n      calldatasize\n      sub\n      dup2\n      add\n      swap1\n      tag_19\n      swap2\n      swap1\n      tag_10\n      jump\t// in\n    tag_19:\n      tag_20\n      jump\t// in\n    tag_18:\n      mload(0x40)\n      tag_21\n      swap2\n      swap1\n      tag_13\n      jump\t// in\n    tag_21:\n      mload(0x40)\n      dup1\n      swap2\n      sub\n      swap1\n      return\n        /* \"lecture/;ec25.sol\":618:716  function revertNow() public pure{... */\n    tag_7:\n      tag_22\n      tag_23\n      jump\t// in\n    tag_22:\n      stop\n        /* \"lecture/;ec25.sol\":1062:1263  function onlyAdults2(uint256 _age) public pure returns(string memory){... */\n    tag_11:\n        /* \"lecture/;ec25.sol\":1117:1130  string memory */\n      0x60\n        /* \"lecture/;ec25.sol\":1154:1156  19 */\n      0x13\n        /* \"lecture/;ec25.sol\":1149:1153  _age */\n      dup3\n        /* \"lecture/;ec25.sol\":1149:1156  _age>19 */\n      gt\n        /* \"lecture/;ec25.sol\":1141:1204  require(_age>19,\"You are not allowed to pay for the cigarette\") */\n      tag_25\n      jumpi\n      mload(0x40)\n      0x08c379a000000000000000000000000000000000000000000000000000000000\n      dup2\n      mstore\n      0x04\n      add\n      tag_26\n      swap1\n      tag_27\n      jump\t// in\n    tag_26:\n      mload(0x40)\n      dup1\n      swap2\n      sub\n      swap1\n      revert\n    tag_25:\n        /* \"lecture/;ec25.sol\":1214:1247  return \"Your payment is scceeded\" */\n      mload(0x40)\n      dup1\n      0x40\n      add\n      0x40\n      mstore\n      dup1\n      0x18\n      dup2\n      mstore\n      0x20\n      add\n      0x596f7572207061796d656e742069732073636365656465640000000000000000\n      dup2\n      mstore\n      pop\n      swap1\n      pop\n        /* \"lecture/;ec25.sol\":1062:1263  function onlyAdults2(uint256 _age) public pure returns(string memory){... */\n      swap2\n      swap1\n      pop\n      jump\t// out\n        /* \"lecture/;ec25.sol\":528:599  function assertNow() public pure{... */\n    tag_15:\n        /* \"lecture/;ec25.sol\":577:582  false */\n      0x00\n        /* \"lecture/;ec25.sol\":570:583  assert(false) */\n      tag_29\n      jumpi\n      tag_30\n      tag_31\n      jump\t// in\n    tag_30:\n    tag_29:\n        /* \"lecture/;ec25.sol\":528:599  function assertNow() public pure{... */\n      jump\t// out\n        /* \"lecture/;ec25.sol\":738:812  function requireNow()public pure{... */\n    tag_17:\n        /* \"lecture/;ec25.sol\":788:793  false */\n      0x00\n        /* \"lecture/;ec25.sol\":780:805  require(false,\"occurred\") */\n      tag_33\n      jumpi\n      mload(0x40)\n      0x08c379a000000000000000000000000000000000000000000000000000000000\n      dup2\n      mstore\n      0x04\n      add\n      tag_34\n      swap1\n      tag_35\n      jump\t// in\n    tag_34:\n      mload(0x40)\n      dup1\n      swap2\n      sub\n      swap1\n      revert\n    tag_33:\n        /* \"lecture/;ec25.sol\":738:812  function requireNow()public pure{... */\n      jump\t// out\n        /* \"lecture/;ec25.sol\":822:1051  function onlyAdults(uint256 _age) public pure returns(string memory){... */\n    tag_20:\n        /* \"lecture/;ec25.sol\":876:889  string memory */\n      0x60\n        /* \"lecture/;ec25.sol\":911:913  19 */\n      0x13\n        /* \"lecture/;ec25.sol\":904:908  _age */\n      dup3\n        /* \"lecture/;ec25.sol\":904:913  _age < 19 */\n      lt\n        /* \"lecture/;ec25.sol\":900:993  if( _age < 19){... */\n      iszero\n      tag_37\n      jumpi\n        /* \"lecture/;ec25.sol\":928:982  revert(\"You are not allowed to pay for the cigarette\") */\n      mload(0x40)\n      0x08c379a000000000000000000000000000000000000000000000000000000000\n      dup2\n      mstore\n      0x04\n      add\n      tag_38\n      swap1\n      tag_27\n      jump\t// in\n    tag_38:\n      mload(0x40)\n      dup1\n      swap2\n      sub\n      swap1\n      revert\n        /* \"lecture/;ec25.sol\":900:993  if( _age < 19){... */\n    tag_37:\n        /* \"lecture/;ec25.sol\":1002:1035  return \"Your payment is scceeded\" */\n      mload(0x40)\n      dup1\n      0x40\n      add\n      0x40\n      mstore\n      dup1\n      0x18\n      dup2\n      mstore\n      0x20\n      add\n      0x596f7572207061796d656e742069732073636365656465640000000000000000\n      dup2\n      mstore\n      pop\n      swap1\n      pop\n        /* \"lecture/;ec25.sol\":822:1051  function onlyAdults(uint256 _age) public pure returns(string memory){... */\n      swap2\n      swap1\n      pop\n      jump\t// out\n        /* \"lecture/;ec25.sol\":618:716  function revertNow() public pure{... */\n    tag_23:\n        /* \"lecture/;ec25.sol\":660:677  revert(\"error!!\") */\n      mload(0x40)\n      0x08c379a000000000000000000000000000000000000000000000000000000000\n      dup2\n      mstore\n      0x04\n      add\n      tag_40\n      swap1\n      tag_41\n      jump\t// in\n    tag_40:\n      mload(0x40)\n      dup1\n      swap2\n      sub\n      swap1\n      revert\n        /* \"#utility.yul\":7:146   */\n    tag_43:\n        /* \"#utility.yul\":53:58   */\n      0x00\n        /* \"#utility.yul\":91:97   */\n      dup2\n        /* \"#utility.yul\":78:98   */\n      calldataload\n        /* \"#utility.yul\":69:98   */\n      swap1\n      pop\n        /* \"#utility.yul\":107:140   */\n      tag_45\n        /* \"#utility.yul\":134:139   */\n      dup2\n        /* \"#utility.yul\":107:140   */\n      tag_46\n      jump\t// in\n    tag_45:\n        /* \"#utility.yul\":7:146   */\n      swap3\n      swap2\n      pop\n      pop\n      jump\t// out\n        /* \"#utility.yul\":152:481   */\n    tag_10:\n        /* \"#utility.yul\":211:217   */\n      0x00\n        /* \"#utility.yul\":260:262   */\n      0x20\n        /* \"#utility.yul\":248:257   */\n      dup3\n        /* \"#utility.yul\":239:246   */\n      dup5\n        /* \"#utility.yul\":235:258   */\n      sub\n        /* \"#utility.yul\":231:263   */\n      slt\n        /* \"#utility.yul\":228:347   */\n      iszero\n      tag_48\n      jumpi\n        /* \"#utility.yul\":266:345   */\n      tag_49\n      tag_50\n      jump\t// in\n    tag_49:\n        /* \"#utility.yul\":228:347   */\n    tag_48:\n        /* \"#utility.yul\":386:387   */\n      0x00\n        /* \"#utility.yul\":411:464   */\n      tag_51\n        /* \"#utility.yul\":456:463   */\n      dup5\n        /* \"#utility.yul\":447:453   */\n      dup3\n        /* \"#utility.yul\":436:445   */\n      dup6\n        /* \"#utility.yul\":432:454   */\n      add\n        /* \"#utility.yul\":411:464   */\n      tag_43\n      jump\t// in\n    tag_51:\n        /* \"#utility.yul\":401:464   */\n      swap2\n      pop\n        /* \"#utility.yul\":357:474   */\n      pop\n        /* \"#utility.yul\":152:481   */\n      swap3\n      swap2\n      pop\n      pop\n      jump\t// out\n        /* \"#utility.yul\":487:851   */\n    tag_52:\n        /* \"#utility.yul\":575:578   */\n      0x00\n        /* \"#utility.yul\":603:642   */\n      tag_54\n        /* \"#utility.yul\":636:641   */\n      dup3\n        /* \"#utility.yul\":603:642   */\n      tag_55\n      jump\t// in\n    tag_54:\n        /* \"#utility.yul\":658:729   */\n      tag_56\n        /* \"#utility.yul\":722:728   */\n      dup2\n        /* \"#utility.yul\":717:720   */\n      dup6\n        /* \"#utility.yul\":658:729   */\n      tag_57\n      jump\t// in\n    tag_56:\n        /* \"#utility.yul\":651:729   */\n      swap4\n      pop\n        /* \"#utility.yul\":738:790   */\n      tag_58\n        /* \"#utility.yul\":783:789   */\n      dup2\n        /* \"#utility.yul\":778:781   */\n      dup6\n        /* \"#utility.yul\":771:775   */\n      0x20\n        /* \"#utility.yul\":764:769   */\n      dup7\n        /* \"#utility.yul\":760:776   */\n      add\n        /* \"#utility.yul\":738:790   */\n      tag_59\n      jump\t// in\n    tag_58:\n        /* \"#utility.yul\":815:844   */\n      tag_60\n        /* \"#utility.yul\":837:843   */\n      dup2\n        /* \"#utility.yul\":815:844   */\n      tag_61\n      jump\t// in\n    tag_60:\n        /* \"#utility.yul\":810:813   */\n      dup5\n        /* \"#utility.yul\":806:845   */\n      add\n        /* \"#utility.yul\":799:845   */\n      swap2\n      pop\n        /* \"#utility.yul\":579:851   */\n      pop\n        /* \"#utility.yul\":487:851   */\n      swap3\n      swap2\n      pop\n      pop\n      jump\t// out\n        /* \"#utility.yul\":857:1223   */\n    tag_62:\n        /* \"#utility.yul\":999:1002   */\n      0x00\n        /* \"#utility.yul\":1020:1087   */\n      tag_64\n        /* \"#utility.yul\":1084:1086   */\n      0x2c\n        /* \"#utility.yul\":1079:1082   */\n      dup4\n        /* \"#utility.yul\":1020:1087   */\n      tag_57\n      jump\t// in\n    tag_64:\n        /* \"#utility.yul\":1013:1087   */\n      swap2\n      pop\n        /* \"#utility.yul\":1096:1189   */\n      tag_65\n        /* \"#utility.yul\":1185:1188   */\n      dup3\n        /* \"#utility.yul\":1096:1189   */\n      tag_66\n      jump\t// in\n    tag_65:\n        /* \"#utility.yul\":1214:1216   */\n      0x40\n        /* \"#utility.yul\":1209:1212   */\n      dup3\n        /* \"#utility.yul\":1205:1217   */\n      add\n        /* \"#utility.yul\":1198:1217   */\n      swap1\n      pop\n        /* \"#utility.yul\":857:1223   */\n      swap2\n      swap1\n      pop\n      jump\t// out\n        /* \"#utility.yul\":1229:1594   */\n    tag_67:\n        /* \"#utility.yul\":1371:1374   */\n      0x00\n        /* \"#utility.yul\":1392:1458   */\n      tag_69\n        /* \"#utility.yul\":1456:1457   */\n      0x08\n        /* \"#utility.yul\":1451:1454   */\n      dup4\n        /* \"#utility.yul\":1392:1458   */\n      tag_57\n      jump\t// in\n    tag_69:\n        /* \"#utility.yul\":1385:1458   */\n      swap2\n      pop\n        /* \"#utility.yul\":1467:1560   */\n      tag_70\n        /* \"#utility.yul\":1556:1559   */\n      dup3\n        /* \"#utility.yul\":1467:1560   */\n      tag_71\n      jump\t// in\n    tag_70:\n        /* \"#utility.yul\":1585:1587   */\n      0x20\n        /* \"#utility.yul\":1580:1583   */\n      dup3\n        /* \"#utility.yul\":1576:1588   */\n      add\n        /* \"#utility.yul\":1569:1588   */\n      swap1\n      pop\n        /* \"#utility.yul\":1229:1594   */\n      swap2\n      swap1\n      pop\n      jump\t// out\n        /* \"#utility.yul\":1600:1965   */\n    tag_72:\n        /* \"#utility.yul\":1742:1745   */\n      0x00\n        /* \"#utility.yul\":1763:1829   */\n      tag_74\n        /* \"#utility.yul\":1827:1828   */\n      0x07\n        /* \"#utility.yul\":1822:1825   */\n      dup4\n        /* \"#utility.yul\":1763:1829   */\n      tag_57\n      jump\t// in\n    tag_74:\n        /* \"#utility.yul\":1756:1829   */\n      swap2\n      pop\n        /* \"#utility.yul\":1838:1931   */\n      tag_75\n        /* \"#utility.yul\":1927:1930   */\n      dup3\n        /* \"#utility.yul\":1838:1931   */\n      tag_76\n      jump\t// in\n    tag_75:\n        /* \"#utility.yul\":1956:1958   */\n      0x20\n        /* \"#utility.yul\":1951:1954   */\n      dup3\n        /* \"#utility.yul\":1947:1959   */\n      add\n        /* \"#utility.yul\":1940:1959   */\n      swap1\n      pop\n        /* \"#utility.yul\":1600:1965   */\n      swap2\n      swap1\n      pop\n      jump\t// out\n        /* \"#utility.yul\":1971:2284   */\n    tag_13:\n        /* \"#utility.yul\":2084:2088   */\n      0x00\n        /* \"#utility.yul\":2122:2124   */\n      0x20\n        /* \"#utility.yul\":2111:2120   */\n      dup3\n        /* \"#utility.yul\":2107:2125   */\n      add\n        /* \"#utility.yul\":2099:2125   */\n      swap1\n      pop\n        /* \"#utility.yul\":2171:2180   */\n      dup2\n        /* \"#utility.yul\":2165:2169   */\n      dup2\n        /* \"#utility.yul\":2161:2181   */\n      sub\n        /* \"#utility.yul\":2157:2158   */\n      0x00\n        /* \"#utility.yul\":2146:2155   */\n      dup4\n        /* \"#utility.yul\":2142:2159   */\n      add\n        /* \"#utility.yul\":2135:2182   */\n      mstore\n        /* \"#utility.yul\":2199:2277   */\n      tag_78\n        /* \"#utility.yul\":2272:2276   */\n      dup2\n        /* \"#utility.yul\":2263:2269   */\n      dup5\n        /* \"#utility.yul\":2199:2277   */\n      tag_52\n      jump\t// in\n    tag_78:\n        /* \"#utility.yul\":2191:2277   */\n      swap1\n      pop\n        /* \"#utility.yul\":1971:2284   */\n      swap3\n      swap2\n      pop\n      pop\n      jump\t// out\n        /* \"#utility.yul\":2290:2709   */\n    tag_27:\n        /* \"#utility.yul\":2456:2460   */\n      0x00\n        /* \"#utility.yul\":2494:2496   */\n      0x20\n        /* \"#utility.yul\":2483:2492   */\n      dup3\n        /* \"#utility.yul\":2479:2497   */\n      add\n        /* \"#utility.yul\":2471:2497   */\n      swap1\n      pop\n        /* \"#utility.yul\":2543:2552   */\n      dup2\n        /* \"#utility.yul\":2537:2541   */\n      dup2\n        /* \"#utility.yul\":2533:2553   */\n      sub\n        /* \"#utility.yul\":2529:2530   */\n      0x00\n        /* \"#utility.yul\":2518:2527   */\n      dup4\n        /* \"#utility.yul\":2514:2531   */\n      add\n        /* \"#utility.yul\":2507:2554   */\n      mstore\n        /* \"#utility.yul\":2571:2702   */\n      tag_80\n        /* \"#utility.yul\":2697:2701   */\n      dup2\n        /* \"#utility.yul\":2571:2702   */\n      tag_62\n      jump\t// in\n    tag_80:\n        /* \"#utility.yul\":2563:2702   */\n      swap1\n      pop\n        /* \"#utility.yul\":2290:2709   */\n      swap2\n      swap1\n      pop\n      jump\t// out\n        /* \"#utility.yul\":2715:3134   */\n    tag_35:\n        /* \"#utility.yul\":2881:2885   */\n      0x00\n        /* \"#utility.yul\":2919:2921   */\n      0x20\n        /* \"#utility.yul\":2908:2917   */\n      dup3\n        /* \"#utility.yul\":2904:2922   */\n      add\n        /* \"#utility.yul\":2896:2922   */\n      swap1\n      pop\n        /* \"#utility.yul\":2968:2977   */\n      dup2\n        /* \"#utility.yul\":2962:2966   */\n      dup2\n        /* \"#utility.yul\":2958:2978   */\n      sub\n        /* \"#utility.yul\":2954:2955   */\n      0x00\n        /* \"#utility.yul\":2943:2952   */\n      dup4\n        /* \"#utility.yul\":2939:2956   */\n      add\n        /* \"#utility.yul\":2932:2979   */\n      mstore\n        /* \"#utility.yul\":2996:3127   */\n      tag_82\n        /* \"#utility.yul\":3122:3126   */\n      dup2\n        /* \"#utility.yul\":2996:3127   */\n      tag_67\n      jump\t// in\n    tag_82:\n        /* \"#utility.yul\":2988:3127   */\n      swap1\n      pop\n        /* \"#utility.yul\":2715:3134   */\n      swap2\n      swap1\n      pop\n      jump\t// out\n        /* \"#utility.yul\":3140:3559   */\n    tag_41:\n        /* \"#utility.yul\":3306:3310   */\n      0x00\n        /* \"#utility.yul\":3344:3346   */\n      0x20\n        /* \"#utility.yul\":3333:3342   */\n      dup3\n        /* \"#utility.yul\":3329:3347   */\n      add\n        /* \"#utility.yul\":3321:3347   */\n      swap1\n      pop\n        /* \"#utility.yul\":3393:3402   */\n      dup2\n        /* \"#utility.yul\":3387:3391   */\n      dup2\n        /* \"#utility.yul\":3383:3403   */\n      sub\n        /* \"#utility.yul\":3379:3380   */\n      0x00\n        /* \"#utility.yul\":3368:3377   */\n      dup4\n        /* \"#utility.yul\":3364:3381   */\n      add\n        /* \"#utility.yul\":3357:3404   */\n      mstore\n        /* \"#utility.yul\":3421:3552   */\n      tag_84\n        /* \"#utility.yul\":3547:3551   */\n      dup2\n        /* \"#utility.yul\":3421:3552   */\n      tag_72\n      jump\t// in\n    tag_84:\n        /* \"#utility.yul\":3413:3552   */\n      swap1\n      pop\n        /* \"#utility.yul\":3140:3559   */\n      swap2\n      swap1\n      pop\n      jump\t// out\n        /* \"#utility.yul\":3646:3745   */\n    tag_55:\n        /* \"#utility.yul\":3698:3704   */\n      0x00\n        /* \"#utility.yul\":3732:3737   */\n      dup2\n        /* \"#utility.yul\":3726:3738   */\n      mload\n        /* \"#utility.yul\":3716:3738   */\n      swap1\n      pop\n        /* \"#utility.yul\":3646:3745   */\n      swap2\n      swap1\n      pop\n      jump\t// out\n        /* \"#utility.yul\":3751:3920   */\n    tag_57:\n        /* \"#utility.yul\":3835:3846   */\n      0x00\n        /* \"#utility.yul\":3869:3875   */\n      dup3\n        /* \"#utility.yul\":3864:3867   */\n      dup3\n        /* \"#utility.yul\":3857:3876   */\n      mstore\n        /* \"#utility.yul\":3909:3913   */\n      0x20\n        /* \"#utility.yul\":3904:3907   */\n      dup3\n        /* \"#utility.yul\":3900:3914   */\n      add\n        /* \"#utility.yul\":3885:3914   */\n      swap1\n      pop\n        /* \"#utility.yul\":3751:3920   */\n      swap3\n      swap2\n      pop\n      pop\n      jump\t// out\n        /* \"#utility.yul\":3926:4003   */\n    tag_89:\n        /* \"#utility.yul\":3963:3970   */\n      0x00\n        /* \"#utility.yul\":3992:3997   */\n      dup2\n        /* \"#utility.yul\":3981:3997   */\n      swap1\n      pop\n        /* \"#utility.yul\":3926:4003   */\n      swap2\n      swap1\n      pop\n      jump\t// out\n        /* \"#utility.yul\":4009:4316   */\n    tag_59:\n        /* \"#utility.yul\":4077:4078   */\n      0x00\n        /* \"#utility.yul\":4087:4200   */\n    tag_92:\n        /* \"#utility.yul\":4101:4107   */\n      dup4\n        /* \"#utility.yul\":4098:4099   */\n      dup2\n        /* \"#utility.yul\":4095:4108   */\n      lt\n        /* \"#utility.yul\":4087:4200   */\n      iszero\n      tag_94\n      jumpi\n        /* \"#utility.yul\":4186:4187   */\n      dup1\n        /* \"#utility.yul\":4181:4184   */\n      dup3\n        /* \"#utility.yul\":4177:4188   */\n      add\n        /* \"#utility.yul\":4171:4189   */\n      mload\n        /* \"#utility.yul\":4167:4168   */\n      dup2\n        /* \"#utility.yul\":4162:4165   */\n      dup5\n        /* \"#utility.yul\":4158:4169   */\n      add\n        /* \"#utility.yul\":4151:4190   */\n      mstore\n        /* \"#utility.yul\":4123:4125   */\n      0x20\n        /* \"#utility.yul\":4120:4121   */\n      dup2\n        /* \"#utility.yul\":4116:4126   */\n      add\n        /* \"#utility.yul\":4111:4126   */\n      swap1\n      pop\n        /* \"#utility.yul\":4087:4200   */\n      jump(tag_92)\n    tag_94:\n        /* \"#utility.yul\":4218:4224   */\n      dup4\n        /* \"#utility.yul\":4215:4216   */\n      dup2\n        /* \"#utility.yul\":4212:4225   */\n      gt\n        /* \"#utility.yul\":4209:4310   */\n      iszero\n      tag_95\n      jumpi\n        /* \"#utility.yul\":4298:4299   */\n      0x00\n        /* \"#utility.yul\":4289:4295   */\n      dup5\n        /* \"#utility.yul\":4284:4287   */\n      dup5\n        /* \"#utility.yul\":4280:4296   */\n      add\n        /* \"#utility.yul\":4273:4300   */\n      mstore\n        /* \"#utility.yul\":4209:4310   */\n    tag_95:\n        /* \"#utility.yul\":4058:4316   */\n      pop\n        /* \"#utility.yul\":4009:4316   */\n      pop\n      pop\n      pop\n      jump\t// out\n        /* \"#utility.yul\":4322:4502   */\n    tag_31:\n        /* \"#utility.yul\":4370:4447   */\n      0x4e487b7100000000000000000000000000000000000000000000000000000000\n        /* \"#utility.yul\":4367:4368   */\n      0x00\n        /* \"#utility.yul\":4360:4448   */\n      mstore\n        /* \"#utility.yul\":4467:4471   */\n      0x01\n        /* \"#utility.yul\":4464:4465   */\n      0x04\n        /* \"#utility.yul\":4457:4472   */\n      mstore\n        /* \"#utility.yul\":4491:4495   */\n      0x24\n        /* \"#utility.yul\":4488:4489   */\n      0x00\n        /* \"#utility.yul\":4481:4496   */\n      revert\n        /* \"#utility.yul\":4631:4748   */\n    tag_50:\n        /* \"#utility.yul\":4740:4741   */\n      0x00\n        /* \"#utility.yul\":4737:4738   */\n      dup1\n        /* \"#utility.yul\":4730:4742   */\n      revert\n        /* \"#utility.yul\":4754:4856   */\n    tag_61:\n        /* \"#utility.yul\":4795:4801   */\n      0x00\n        /* \"#utility.yul\":4846:4848   */\n      0x1f\n        /* \"#utility.yul\":4842:4849   */\n      not\n        /* \"#utility.yul\":4837:4839   */\n      0x1f\n        /* \"#utility.yul\":4830:4835   */\n      dup4\n        /* \"#utility.yul\":4826:4840   */\n      add\n        /* \"#utility.yul\":4822:4850   */\n      and\n        /* \"#utility.yul\":4812:4850   */\n      swap1\n      pop\n        /* \"#utility.yul\":4754:4856   */\n      swap2\n      swap1\n      pop\n      jump\t// out\n        /* \"#utility.yul\":4862:5093   */\n    tag_66:\n        /* \"#utility.yul\":5002:5036   */\n      0x596f7520617265206e6f7420616c6c6f77656420746f2070617920666f722074\n        /* \"#utility.yul\":4998:4999   */\n      0x00\n        /* \"#utility.yul\":4990:4996   */\n      dup3\n        /* \"#utility.yul\":4986:5000   */\n      add\n        /* \"#utility.yul\":4979:5037   */\n      mstore\n        /* \"#utility.yul\":5071:5085   */\n      0x6865206369676172657474650000000000000000000000000000000000000000\n        /* \"#utility.yul\":5066:5068   */\n      0x20\n        /* \"#utility.yul\":5058:5064   */\n      dup3\n        /* \"#utility.yul\":5054:5069   */\n      add\n        /* \"#utility.yul\":5047:5086   */\n      mstore\n        /* \"#utility.yul\":4862:5093   */\n      pop\n      jump\t// out\n        /* \"#utility.yul\":5099:5257   */\n    tag_71:\n        /* \"#utility.yul\":5239:5249   */\n      0x6f63637572726564000000000000000000000000000000000000000000000000\n        /* \"#utility.yul\":5235:5236   */\n      0x00\n        /* \"#utility.yul\":5227:5233   */\n      dup3\n        /* \"#utility.yul\":5223:5237   */\n      add\n        /* \"#utility.yul\":5216:5250   */\n      mstore\n        /* \"#utility.yul\":5099:5257   */\n      pop\n      jump\t// out\n        /* \"#utility.yul\":5263:5420   */\n    tag_76:\n        /* \"#utility.yul\":5403:5412   */\n      0x6572726f72212100000000000000000000000000000000000000000000000000\n        /* \"#utility.yul\":5399:5400   */\n      0x00\n        /* \"#utility.yul\":5391:5397   */\n      dup3\n        /* \"#utility.yul\":5387:5401   */\n      add\n        /* \"#utility.yul\":5380:5413   */\n      mstore\n        /* \"#utility.yul\":5263:5420   */\n      pop\n      jump\t// out\n        /* \"#utility.yul\":5426:5548   */\n    tag_46:\n        /* \"#utility.yul\":5499:5523   */\n      tag_105\n        /* \"#utility.yul\":5517:5522   */\n      dup2\n        /* \"#utility.yul\":5499:5523   */\n      tag_89\n      jump\t// in\n    tag_105:\n        /* \"#utility.yul\":5492:5497   */\n      dup2\n        /* \"#utility.yul\":5489:5524   */\n      eq\n        /* \"#utility.yul\":5479:5542   */\n      tag_106\n      jumpi\n        /* \"#utility.yul\":5538:5539   */\n      0x00\n        /* \"#utility.yul\":5535:5536   */\n      dup1\n        /* \"#utility.yul\":5528:5540   */\n      revert\n        /* \"#utility.yul\":5479:5542   */\n    tag_106:\n        /* \"#utility.yul\":5426:5548   */\n      pop\n      jump\t// out\n\n    auxdata: 0xa26469706673582212208ee3e77b7ba74ac06210c805952d3097991a47ef51004a84dc041e041046841664736f6c63430008070033\n}\n",
				"bytecode": {
					"linkReferences": {},
					"object": "608060405234801561001057600080fd5b5061055f806100206000396000f3fe608060405234801561001057600080fd5b50600436106100565760003560e01c80627467151461005b5780632712f5191461008b578063844adfd2146100955780639de5b7d21461009f578063afe26609146100cf575b600080fd5b61007560048036038101906100709190610282565b6100d9565b6040516100829190610351565b60405180910390f35b61009361015b565b005b61009d61016c565b005b6100b960048036038101906100b49190610282565b6101af565b6040516100c69190610351565b60405180910390f35b6100d7610232565b005b60606013821161011e576040517f08c379a000000000000000000000000000000000000000000000000000000000815260040161011590610373565b60405180910390fd5b6040518060400160405280601881526020017f596f7572207061796d656e7420697320736363656564656400000000000000008152509050919050565b600061016a5761016961042c565b5b565b60006101ad576040517f08c379a00000000000000000000000000000000000000000000000000000000081526004016101a490610393565b60405180910390fd5b565b606060138210156101f5576040517f08c379a00000000000000000000000000000000000000000000000000000000081526004016101ec90610373565b60405180910390fd5b6040518060400160405280601881526020017f596f7572207061796d656e7420697320736363656564656400000000000000008152509050919050565b6040517f08c379a0000000000000000000000000000000000000000000000000000000008152600401610264906103b3565b60405180910390fd5b60008135905061027c81610512565b92915050565b6000602082840312156102985761029761045b565b5b60006102a68482850161026d565b91505092915050565b60006102ba826103d3565b6102c481856103de565b93506102d48185602086016103f9565b6102dd81610460565b840191505092915050565b60006102f5602c836103de565b915061030082610471565b604082019050919050565b60006103186008836103de565b9150610323826104c0565b602082019050919050565b600061033b6007836103de565b9150610346826104e9565b602082019050919050565b6000602082019050818103600083015261036b81846102af565b905092915050565b6000602082019050818103600083015261038c816102e8565b9050919050565b600060208201905081810360008301526103ac8161030b565b9050919050565b600060208201905081810360008301526103cc8161032e565b9050919050565b600081519050919050565b600082825260208201905092915050565b6000819050919050565b60005b838110156104175780820151818401526020810190506103fc565b83811115610426576000848401525b50505050565b7f4e487b7100000000000000000000000000000000000000000000000000000000600052600160045260246000fd5b600080fd5b6000601f19601f8301169050919050565b7f596f7520617265206e6f7420616c6c6f77656420746f2070617920666f72207460008201527f6865206369676172657474650000000000000000000000000000000000000000602082015250565b7f6f63637572726564000000000000000000000000000000000000000000000000600082015250565b7f6572726f72212100000000000000000000000000000000000000000000000000600082015250565b61051b816103ef565b811461052657600080fd5b5056fea26469706673582212208ee3e77b7ba74ac06210c805952d3097991a47ef51004a84dc041e041046841664736f6c63430008070033",
					"opcodes": "PUSH1 0x80 PUSH1 0x40 MSTORE CALLVALUE DUP1 ISZERO PUSH2 0x10 JUMPI PUSH1 0x0 DUP1 REVERT JUMPDEST POP PUSH2 0x55F DUP1 PUSH2 0x20 PUSH1 0x0 CODECOPY PUSH1 0x0 RETURN INVALID PUSH1 0x80 PUSH1 0x40 MSTORE CALLVALUE DUP1 ISZERO PUSH2 0x10 JUMPI PUSH1 0x0 DUP1 REVERT JUMPDEST POP PUSH1 0x4 CALLDATASIZE LT PUSH2 0x56 JUMPI PUSH1 0x0 CALLDATALOAD PUSH1 0xE0 SHR DUP1 PUSH3 0x746715 EQ PUSH2 0x5B JUMPI DUP1 PUSH4 0x2712F519 EQ PUSH2 0x8B JUMPI DUP1 PUSH4 0x844ADFD2 EQ PUSH2 0x95 JUMPI DUP1 PUSH4 0x9DE5B7D2 EQ PUSH2 0x9F JUMPI DUP1 PUSH4 0xAFE26609 EQ PUSH2 0xCF JUMPI JUMPDEST PUSH1 0x0 DUP1 REVERT JUMPDEST PUSH2 0x75 PUSH1 0x4 DUP1 CALLDATASIZE SUB DUP2 ADD SWAP1 PUSH2 0x70 SWAP2 SWAP1 PUSH2 0x282 JUMP JUMPDEST PUSH2 0xD9 JUMP JUMPDEST PUSH1 0x40 MLOAD PUSH2 0x82 SWAP2 SWAP1 PUSH2 0x351 JUMP JUMPDEST PUSH1 0x40 MLOAD DUP1 SWAP2 SUB SWAP1 RETURN JUMPDEST PUSH2 0x93 PUSH2 0x15B JUMP JUMPDEST STOP JUMPDEST PUSH2 0x9D PUSH2 0x16C JUMP JUMPDEST STOP JUMPDEST PUSH2 0xB9 PUSH1 0x4 DUP1 CALLDATASIZE SUB DUP2 ADD SWAP1 PUSH2 0xB4 SWAP2 SWAP1 PUSH2 0x282 JUMP JUMPDEST PUSH2 0x1AF JUMP JUMPDEST PUSH1 0x40 MLOAD PUSH2 0xC6 SWAP2 SWAP1 PUSH2 0x351 JUMP JUMPDEST PUSH1 0x40 MLOAD DUP1 SWAP2 SUB SWAP1 RETURN JUMPDEST PUSH2 0xD7 PUSH2 0x232 JUMP JUMPDEST STOP JUMPDEST PUSH1 0x60 PUSH1 0x13 DUP3 GT PUSH2 0x11E JUMPI PUSH1 0x40 MLOAD PUSH32 0x8C379A000000000000000000000000000000000000000000000000000000000 DUP2 MSTORE PUSH1 0x4 ADD PUSH2 0x115 SWAP1 PUSH2 0x373 JUMP JUMPDEST PUSH1 0x40 MLOAD DUP1 SWAP2 SUB SWAP1 REVERT JUMPDEST PUSH1 0x40 MLOAD DUP1 PUSH1 0x40 ADD PUSH1 0x40 MSTORE DUP1 PUSH1 0x18 DUP2 MSTORE PUSH1 0x20 ADD PUSH32 0x596F7572207061796D656E742069732073636365656465640000000000000000 DUP2 MSTORE POP SWAP1 POP SWAP2 SWAP1 POP JUMP JUMPDEST PUSH1 0x0 PUSH2 0x16A JUMPI PUSH2 0x169 PUSH2 0x42C JUMP JUMPDEST JUMPDEST JUMP JUMPDEST PUSH1 0x0 PUSH2 0x1AD JUMPI PUSH1 0x40 MLOAD PUSH32 0x8C379A000000000000000000000000000000000000000000000000000000000 DUP2 MSTORE PUSH1 0x4 ADD PUSH2 0x1A4 SWAP1 PUSH2 0x393 JUMP JUMPDEST PUSH1 0x40 MLOAD DUP1 SWAP2 SUB SWAP1 REVERT JUMPDEST JUMP JUMPDEST PUSH1 0x60 PUSH1 0x13 DUP3 LT ISZERO PUSH2 0x1F5 JUMPI PUSH1 0x40 MLOAD PUSH32 0x8C379A000000000000000000000000000000000000000000000000000000000 DUP2 MSTORE PUSH1 0x4 ADD PUSH2 0x1EC SWAP1 PUSH2 0x373 JUMP JUMPDEST PUSH1 0x40 MLOAD DUP1 SWAP2 SUB SWAP1 REVERT JUMPDEST PUSH1 0x40 MLOAD DUP1 PUSH1 0x40 ADD PUSH1 0x40 MSTORE DUP1 PUSH1 0x18 DUP2 MSTORE PUSH1 0x20 ADD PUSH32 0x596F7572207061796D656E742069732073636365656465640000000000000000 DUP2 MSTORE POP SWAP1 POP SWAP2 SWAP1 POP JUMP JUMPDEST PUSH1 0x40 MLOAD PUSH32 0x8C379A000000000000000000000000000000000000000000000000000000000 DUP2 MSTORE PUSH1 0x4 ADD PUSH2 0x264 SWAP1 PUSH2 0x3B3 JUMP JUMPDEST PUSH1 0x40 MLOAD DUP1 SWAP2 SUB SWAP1 REVERT JUMPDEST PUSH1 0x0 DUP2 CALLDATALOAD SWAP1 POP PUSH2 0x27C DUP2 PUSH2 0x512 JUMP JUMPDEST SWAP3 SWAP2 POP POP JUMP JUMPDEST PUSH1 0x0 PUSH1 0x20 DUP3 DUP5 SUB SLT ISZERO PUSH2 0x298 JUMPI PUSH2 0x297 PUSH2 0x45B JUMP JUMPDEST JUMPDEST PUSH1 0x0 PUSH2 0x2A6 DUP5 DUP3 DUP6 ADD PUSH2 0x26D JUMP JUMPDEST SWAP2 POP POP SWAP3 SWAP2 POP POP JUMP JUMPDEST PUSH1 0x0 PUSH2 0x2BA DUP3 PUSH2 0x3D3 JUMP JUMPDEST PUSH2 0x2C4 DUP2 DUP6 PUSH2 0x3DE JUMP JUMPDEST SWAP4 POP PUSH2 0x2D4 DUP2 DUP6 PUSH1 0x20 DUP7 ADD PUSH2 0x3F9 JUMP JUMPDEST PUSH2 0x2DD DUP2 PUSH2 0x460 JUMP JUMPDEST DUP5 ADD SWAP2 POP POP SWAP3 SWAP2 POP POP JUMP JUMPDEST PUSH1 0x0 PUSH2 0x2F5 PUSH1 0x2C DUP4 PUSH2 0x3DE JUMP JUMPDEST SWAP2 POP PUSH2 0x300 DUP3 PUSH2 0x471 JUMP JUMPDEST PUSH1 0x40 DUP3 ADD SWAP1 POP SWAP2 SWAP1 POP JUMP JUMPDEST PUSH1 0x0 PUSH2 0x318 PUSH1 0x8 DUP4 PUSH2 0x3DE JUMP JUMPDEST SWAP2 POP PUSH2 0x323 DUP3 PUSH2 0x4C0 JUMP JUMPDEST PUSH1 0x20 DUP3 ADD SWAP1 POP SWAP2 SWAP1 POP JUMP JUMPDEST PUSH1 0x0 PUSH2 0x33B PUSH1 0x7 DUP4 PUSH2 0x3DE JUMP JUMPDEST SWAP2 POP PUSH2 0x346 DUP3 PUSH2 0x4E9 JUMP JUMPDEST PUSH1 0x20 DUP3 ADD SWAP1 POP SWAP2 SWAP1 POP JUMP JUMPDEST PUSH1 0x0 PUSH1 0x20 DUP3 ADD SWAP1 POP DUP2 DUP2 SUB PUSH1 0x0 DUP4 ADD MSTORE PUSH2 0x36B DUP2 DUP5 PUSH2 0x2AF JUMP JUMPDEST SWAP1 POP SWAP3 SWAP2 POP POP JUMP JUMPDEST PUSH1 0x0 PUSH1 0x20 DUP3 ADD SWAP1 POP DUP2 DUP2 SUB PUSH1 0x0 DUP4 ADD MSTORE PUSH2 0x38C DUP2 PUSH2 0x2E8 JUMP JUMPDEST SWAP1 POP SWAP2 SWAP1 POP JUMP JUMPDEST PUSH1 0x0 PUSH1 0x20 DUP3 ADD SWAP1 POP DUP2 DUP2 SUB PUSH1 0x0 DUP4 ADD MSTORE PUSH2 0x3AC DUP2 PUSH2 0x30B JUMP JUMPDEST SWAP1 POP SWAP2 SWAP1 POP JUMP JUMPDEST PUSH1 0x0 PUSH1 0x20 DUP3 ADD SWAP1 POP DUP2 DUP2 SUB PUSH1 0x0 DUP4 ADD MSTORE PUSH2 0x3CC DUP2 PUSH2 0x32E JUMP JUMPDEST SWAP1 POP SWAP2 SWAP1 POP JUMP JUMPDEST PUSH1 0x0 DUP2 MLOAD SWAP1 POP SWAP2 SWAP1 POP JUMP JUMPDEST PUSH1 0x0 DUP3 DUP3 MSTORE PUSH1 0x20 DUP3 ADD SWAP1 POP SWAP3 SWAP2 POP POP JUMP JUMPDEST PUSH1 0x0 DUP2 SWAP1 POP SWAP2 SWAP1 POP JUMP JUMPDEST PUSH1 0x0 JUMPDEST DUP4 DUP2 LT ISZERO PUSH2 0x417 JUMPI DUP1 DUP3 ADD MLOAD DUP2 DUP5 ADD MSTORE PUSH1 0x20 DUP2 ADD SWAP1 POP PUSH2 0x3FC JUMP JUMPDEST DUP4 DUP2 GT ISZERO PUSH2 0x426 JUMPI PUSH1 0x0 DUP5 DUP5 ADD MSTORE JUMPDEST POP POP POP POP JUMP JUMPDEST PUSH32 0x4E487B7100000000000000000000000000000000000000000000000000000000 PUSH1 0x0 MSTORE PUSH1 0x1 PUSH1 0x4 MSTORE PUSH1 0x24 PUSH1 0x0 REVERT JUMPDEST PUSH1 0x0 DUP1 REVERT JUMPDEST PUSH1 0x0 PUSH1 0x1F NOT PUSH1 0x1F DUP4 ADD AND SWAP1 POP SWAP2 SWAP1 POP JUMP JUMPDEST PUSH32 0x596F7520617265206E6F7420616C6C6F77656420746F2070617920666F722074 PUSH1 0x0 DUP3 ADD MSTORE PUSH32 0x6865206369676172657474650000000000000000000000000000000000000000 PUSH1 0x20 DUP3 ADD MSTORE POP JUMP JUMPDEST PUSH32 0x6F63637572726564000000000000000000000000000000000000000000000000 PUSH1 0x0 DUP3 ADD MSTORE POP JUMP JUMPDEST PUSH32 0x6572726F72212100000000000000000000000000000000000000000000000000 PUSH1 0x0 DUP3 ADD MSTORE POP JUMP JUMPDEST PUSH2 0x51B DUP2 PUSH2 0x3EF JUMP JUMPDEST DUP2 EQ PUSH2 0x526 JUMPI PUSH1 0x0 DUP1 REVERT JUMPDEST POP JUMP INVALID LOG2 PUSH5 0x6970667358 0x22 SLT KECCAK256 DUP15 0xE3 0xE7 PUSH28 0x7BA74AC06210C805952D3097991A47EF51004A84DC041E0410468416 PUSH5 0x736F6C6343 STOP ADDMOD SMOD STOP CALLER "
				},
				"gasEstimates": {
					"creation": {
						"codeDepositCost": "275000",
						"executionCost": "312",
						"totalCost": "275312"
					},
					"external": {
						"assertNow()": "190",
						"onlyAdults(uint256)": "infinite",
						"onlyAdults2(uint256)": "infinite",
						"requireNow()": "472",
						"revertNow()": "500"
					}
				},
				"methodIdentifiers": {
					"assertNow()": "2712f519",
					"onlyAdults(uint256)": "9de5b7d2",
					"onlyAdults2(uint256)": "00746715",
					"requireNow()": "844adfd2",
					"revertNow()": "afe26609"
				}
			},
			"storageLayout": {
				"storage": [],
				"types": null
			},
			"userdoc": {
				"kind": "user",
				"methods": {},
				"version": 1
			}
		}
	}
}