{
	"lecture/lec35.sol": {
		"You": {
			"abi": [
				{
					"inputs": [
						{
							"internalType": "address payable",
							"name": "_to",
							"type": "address"
						}
					],
					"name": "DepositWithCall",
					"outputs": [],
					"stateMutability": "payable",
					"type": "function"
				},
				{
					"inputs": [
						{
							"internalType": "address payable",
							"name": "_to",
							"type": "address"
						}
					],
					"name": "DepositWithSend",
					"outputs": [],
					"stateMutability": "payable",
					"type": "function"
				},
				{
					"inputs": [
						{
							"internalType": "address payable",
							"name": "_to",
							"type": "address"
						}
					],
					"name": "DepositWithTransfer",
					"outputs": [],
					"stateMutability": "payable",
					"type": "function"
				},
				{
					"inputs": [
						{
							"internalType": "address",
							"name": "_to",
							"type": "address"
						}
					],
					"name": "JustGiveMessage",
					"outputs": [],
					"stateMutability": "nonpayable",
					"type": "function"
				},
				{
					"inputs": [
						{
							"internalType": "address payable",
							"name": "_to",
							"type": "address"
						}
					],
					"name": "JustGiveMessageWithFunds",
					"outputs": [],
					"stateMutability": "payable",
					"type": "function"
				}
			],
			"devdoc": {
				"kind": "dev",
				"methods": {},
				"version": 1
			},
			"evm": {
				"assembly": "    /* \"lecture/lec35.sol\":1909:3198  contract You{... */\n  mstore(0x40, 0x80)\n  callvalue\n  dup1\n  iszero\n  tag_1\n  jumpi\n  0x00\n  dup1\n  revert\ntag_1:\n  pop\n  dataSize(sub_0)\n  dup1\n  dataOffset(sub_0)\n  0x00\n  codecopy\n  0x00\n  return\nstop\n\nsub_0: assembly {\n        /* \"lecture/lec35.sol\":1909:3198  contract You{... */\n      mstore(0x40, 0x80)\n      jumpi(tag_1, lt(calldatasize, 0x04))\n      shr(0xe0, calldataload(0x00))\n      dup1\n      0x7ea4d6ae\n      eq\n      tag_2\n      jumpi\n      dup1\n      0xac2a35c8\n      eq\n      tag_3\n      jumpi\n      dup1\n      0xbc54f7ed\n      eq\n      tag_4\n      jumpi\n      dup1\n      0xe1972dbb\n      eq\n      tag_5\n      jumpi\n      dup1\n      0xf97447dd\n      eq\n      tag_6\n      jumpi\n    tag_1:\n      0x00\n      dup1\n      revert\n        /* \"lecture/lec35.sol\":2554:2821  function JustGiveMessage(address _to) public{... */\n    tag_2:\n      callvalue\n      dup1\n      iszero\n      tag_7\n      jumpi\n      0x00\n      dup1\n      revert\n    tag_7:\n      pop\n      tag_8\n      0x04\n      dup1\n      calldatasize\n      sub\n      dup2\n      add\n      swap1\n      tag_9\n      swap2\n      swap1\n      tag_10\n      jump\t// in\n    tag_9:\n      tag_11\n      jump\t// in\n    tag_8:\n      stop\n        /* \"lecture/lec35.sol\":2866:3191  function JustGiveMessageWithFunds(address payable _to) public payable{... */\n    tag_3:\n      tag_12\n      0x04\n      dup1\n      calldatasize\n      sub\n      dup2\n      add\n      swap1\n      tag_13\n      swap2\n      swap1\n      tag_14\n      jump\t// in\n    tag_13:\n      tag_15\n      jump\t// in\n    tag_12:\n      stop\n        /* \"lecture/lec35.sol\":2219:2527  function DepositWithCall(address payable _to) public payable{... */\n    tag_4:\n      tag_16\n      0x04\n      dup1\n      calldatasize\n      sub\n      dup2\n      add\n      swap1\n      tag_17\n      swap2\n      swap1\n      tag_14\n      jump\t// in\n    tag_17:\n      tag_18\n      jump\t// in\n    tag_16:\n      stop\n        /* \"lecture/lec35.sol\":2105:2209  function DepositWithTransfer(address payable _to) public payable{... */\n    tag_5:\n      tag_19\n      0x04\n      dup1\n      calldatasize\n      sub\n      dup2\n      add\n      swap1\n      tag_20\n      swap2\n      swap1\n      tag_14\n      jump\t// in\n    tag_20:\n      tag_21\n      jump\t// in\n    tag_19:\n      stop\n        /* \"lecture/lec35.sol\":1944:2095  function DepositWithSend(address payable _to) public payable{... */\n    tag_6:\n      tag_22\n      0x04\n      dup1\n      calldatasize\n      sub\n      dup2\n      add\n      swap1\n      tag_23\n      swap2\n      swap1\n      tag_14\n      jump\t// in\n    tag_23:\n      tag_24\n      jump\t// in\n    tag_22:\n      stop\n        /* \"lecture/lec35.sol\":2554:2821  function JustGiveMessage(address _to) public{... */\n    tag_11:\n        /* \"lecture/lec35.sol\":2744:2756  bool success */\n      0x00\n        /* \"lecture/lec35.sol\":2762:2765  _to */\n      dup2\n        /* \"lecture/lec35.sol\":2762:2770  _to.call */\n      0xffffffffffffffffffffffffffffffffffffffff\n      and\n        /* \"lecture/lec35.sol\":2762:2776  _to.call(\"HI\") */\n      mload(0x40)\n      tag_26\n      swap1\n      tag_27\n      jump\t// in\n    tag_26:\n      0x00\n      mload(0x40)\n      dup1\n      dup4\n      sub\n      dup2\n      0x00\n      dup7\n      gas\n      call\n      swap2\n      pop\n      pop\n      returndatasize\n      dup1\n      0x00\n      dup2\n      eq\n      tag_30\n      jumpi\n      mload(0x40)\n      swap2\n      pop\n      and(add(returndatasize, 0x3f), not(0x1f))\n      dup3\n      add\n      0x40\n      mstore\n      returndatasize\n      dup3\n      mstore\n      returndatasize\n      0x00\n      0x20\n      dup5\n      add\n      returndatacopy\n      jump(tag_29)\n    tag_30:\n      0x60\n      swap2\n      pop\n    tag_29:\n      pop\n        /* \"lecture/lec35.sol\":2743:2776  (bool success, ) = _to.call(\"HI\") */\n      pop\n      swap1\n      pop\n        /* \"lecture/lec35.sol\":2794:2801  success */\n      dup1\n        /* \"lecture/lec35.sol\":2786:2814  require(success, \"Failled\" ) */\n      tag_31\n      jumpi\n      mload(0x40)\n      0x08c379a000000000000000000000000000000000000000000000000000000000\n      dup2\n      mstore\n      0x04\n      add\n      tag_32\n      swap1\n      tag_33\n      jump\t// in\n    tag_32:\n      mload(0x40)\n      dup1\n      swap2\n      sub\n      swap1\n      revert\n    tag_31:\n        /* \"lecture/lec35.sol\":2598:2821  {... */\n      pop\n        /* \"lecture/lec35.sol\":2554:2821  function JustGiveMessage(address _to) public{... */\n      pop\n      jump\t// out\n        /* \"lecture/lec35.sol\":2866:3191  function JustGiveMessageWithFunds(address payable _to) public payable{... */\n    tag_15:\n        /* \"lecture/lec35.sol\":3098:3110  bool success */\n      0x00\n        /* \"lecture/lec35.sol\":3115:3118  _to */\n      dup2\n        /* \"lecture/lec35.sol\":3115:3123  _to.call */\n      0xffffffffffffffffffffffffffffffffffffffff\n      and\n        /* \"lecture/lec35.sol\":3130:3139  msg.value */\n      callvalue\n        /* \"lecture/lec35.sol\":3115:3146  _to.call{value:msg.value}(\"HI\") */\n      mload(0x40)\n      tag_35\n      swap1\n      tag_27\n      jump\t// in\n    tag_35:\n      0x00\n      mload(0x40)\n      dup1\n      dup4\n      sub\n      dup2\n      dup6\n      dup8\n      gas\n      call\n      swap3\n      pop\n      pop\n      pop\n      returndatasize\n      dup1\n      0x00\n      dup2\n      eq\n      tag_38\n      jumpi\n      mload(0x40)\n      swap2\n      pop\n      and(add(returndatasize, 0x3f), not(0x1f))\n      dup3\n      add\n      0x40\n      mstore\n      returndatasize\n      dup3\n      mstore\n      returndatasize\n      0x00\n      0x20\n      dup5\n      add\n      returndatacopy\n      jump(tag_37)\n    tag_38:\n      0x60\n      swap2\n      pop\n    tag_37:\n      pop\n        /* \"lecture/lec35.sol\":3097:3146  (bool success,) = _to.call{value:msg.value}(\"HI\") */\n      pop\n      swap1\n      pop\n        /* \"lecture/lec35.sol\":3164:3171  success */\n      dup1\n        /* \"lecture/lec35.sol\":3156:3184  require(success, \"Failled\" ) */\n      tag_39\n      jumpi\n      mload(0x40)\n      0x08c379a000000000000000000000000000000000000000000000000000000000\n      dup2\n      mstore\n      0x04\n      add\n      tag_40\n      swap1\n      tag_33\n      jump\t// in\n    tag_40:\n      mload(0x40)\n      dup1\n      swap2\n      sub\n      swap1\n      revert\n    tag_39:\n        /* \"lecture/lec35.sol\":2935:3191  {... */\n      pop\n        /* \"lecture/lec35.sol\":2866:3191  function JustGiveMessageWithFunds(address payable _to) public payable{... */\n      pop\n      jump\t// out\n        /* \"lecture/lec35.sol\":2219:2527  function DepositWithCall(address payable _to) public payable{... */\n    tag_18:\n        /* \"lecture/lec35.sol\":2440:2449  bool sent */\n      0x00\n        /* \"lecture/lec35.sol\":2455:2458  _to */\n      dup2\n        /* \"lecture/lec35.sol\":2455:2463  _to.call */\n      0xffffffffffffffffffffffffffffffffffffffff\n      and\n        /* \"lecture/lec35.sol\":2471:2480  msg.value */\n      callvalue\n        /* \"lecture/lec35.sol\":2455:2485  _to.call{value: msg.value}(\"\") */\n      mload(0x40)\n      tag_42\n      swap1\n      tag_43\n      jump\t// in\n    tag_42:\n      0x00\n      mload(0x40)\n      dup1\n      dup4\n      sub\n      dup2\n      dup6\n      dup8\n      gas\n      call\n      swap3\n      pop\n      pop\n      pop\n      returndatasize\n      dup1\n      0x00\n      dup2\n      eq\n      tag_46\n      jumpi\n      mload(0x40)\n      swap2\n      pop\n      and(add(returndatasize, 0x3f), not(0x1f))\n      dup3\n      add\n      0x40\n      mstore\n      returndatasize\n      dup3\n      mstore\n      returndatasize\n      0x00\n      0x20\n      dup5\n      add\n      returndatacopy\n      jump(tag_45)\n    tag_46:\n      0x60\n      swap2\n      pop\n    tag_45:\n      pop\n        /* \"lecture/lec35.sol\":2439:2485  (bool sent, ) = _to.call{value: msg.value}(\"\") */\n      pop\n      swap1\n      pop\n        /* \"lecture/lec35.sol\":2503:2507  sent */\n      dup1\n        /* \"lecture/lec35.sol\":2495:2520  require(sent, \"Failled\" ) */\n      tag_47\n      jumpi\n      mload(0x40)\n      0x08c379a000000000000000000000000000000000000000000000000000000000\n      dup2\n      mstore\n      0x04\n      add\n      tag_48\n      swap1\n      tag_33\n      jump\t// in\n    tag_48:\n      mload(0x40)\n      dup1\n      swap2\n      sub\n      swap1\n      revert\n    tag_47:\n        /* \"lecture/lec35.sol\":2279:2527  {... */\n      pop\n        /* \"lecture/lec35.sol\":2219:2527  function DepositWithCall(address payable _to) public payable{... */\n      pop\n      jump\t// out\n        /* \"lecture/lec35.sol\":2105:2209  function DepositWithTransfer(address payable _to) public payable{... */\n    tag_21:\n        /* \"lecture/lec35.sol\":2179:2182  _to */\n      dup1\n        /* \"lecture/lec35.sol\":2179:2191  _to.transfer */\n      0xffffffffffffffffffffffffffffffffffffffff\n      and\n        /* \"lecture/lec35.sol\":2179:2202  _to.transfer(msg.value) */\n      0x08fc\n        /* \"lecture/lec35.sol\":2192:2201  msg.value */\n      callvalue\n        /* \"lecture/lec35.sol\":2179:2202  _to.transfer(msg.value) */\n      swap1\n      dup2\n      iszero\n      mul\n      swap1\n      mload(0x40)\n      0x00\n      mload(0x40)\n      dup1\n      dup4\n      sub\n      dup2\n      dup6\n      dup9\n      dup9\n      call\n      swap4\n      pop\n      pop\n      pop\n      pop\n      iszero\n      dup1\n      iszero\n      tag_51\n      jumpi\n      returndatasize\n      0x00\n      dup1\n      returndatacopy\n      revert(0x00, returndatasize)\n    tag_51:\n      pop\n        /* \"lecture/lec35.sol\":2105:2209  function DepositWithTransfer(address payable _to) public payable{... */\n      pop\n      jump\t// out\n        /* \"lecture/lec35.sol\":1944:2095  function DepositWithSend(address payable _to) public payable{... */\n    tag_24:\n        /* \"lecture/lec35.sol\":2015:2027  bool success */\n      0x00\n        /* \"lecture/lec35.sol\":2030:2033  _to */\n      dup2\n        /* \"lecture/lec35.sol\":2030:2038  _to.send */\n      0xffffffffffffffffffffffffffffffffffffffff\n      and\n        /* \"lecture/lec35.sol\":2030:2049  _to.send(msg.value) */\n      0x08fc\n        /* \"lecture/lec35.sol\":2039:2048  msg.value */\n      callvalue\n        /* \"lecture/lec35.sol\":2030:2049  _to.send(msg.value) */\n      swap1\n      dup2\n      iszero\n      mul\n      swap1\n      mload(0x40)\n      0x00\n      mload(0x40)\n      dup1\n      dup4\n      sub\n      dup2\n      dup6\n      dup9\n      dup9\n      call\n      swap4\n      pop\n      pop\n      pop\n      pop\n        /* \"lecture/lec35.sol\":2015:2049  bool success = _to.send(msg.value) */\n      swap1\n      pop\n        /* \"lecture/lec35.sol\":2068:2075  success */\n      dup1\n        /* \"lecture/lec35.sol\":2060:2088  require(success, \"Failled\" ) */\n      tag_54\n      jumpi\n      mload(0x40)\n      0x08c379a000000000000000000000000000000000000000000000000000000000\n      dup2\n      mstore\n      0x04\n      add\n      tag_55\n      swap1\n      tag_33\n      jump\t// in\n    tag_55:\n      mload(0x40)\n      dup1\n      swap2\n      sub\n      swap1\n      revert\n    tag_54:\n        /* \"lecture/lec35.sol\":2004:2095  {... */\n      pop\n        /* \"lecture/lec35.sol\":1944:2095  function DepositWithSend(address payable _to) public payable{... */\n      pop\n      jump\t// out\n        /* \"#utility.yul\":7:146   */\n    tag_57:\n        /* \"#utility.yul\":53:58   */\n      0x00\n        /* \"#utility.yul\":91:97   */\n      dup2\n        /* \"#utility.yul\":78:98   */\n      calldataload\n        /* \"#utility.yul\":69:98   */\n      swap1\n      pop\n        /* \"#utility.yul\":107:140   */\n      tag_59\n        /* \"#utility.yul\":134:139   */\n      dup2\n        /* \"#utility.yul\":107:140   */\n      tag_60\n      jump\t// in\n    tag_59:\n        /* \"#utility.yul\":7:146   */\n      swap3\n      swap2\n      pop\n      pop\n      jump\t// out\n        /* \"#utility.yul\":152:307   */\n    tag_61:\n        /* \"#utility.yul\":206:211   */\n      0x00\n        /* \"#utility.yul\":244:250   */\n      dup2\n        /* \"#utility.yul\":231:251   */\n      calldataload\n        /* \"#utility.yul\":222:251   */\n      swap1\n      pop\n        /* \"#utility.yul\":260:301   */\n      tag_63\n        /* \"#utility.yul\":295:300   */\n      dup2\n        /* \"#utility.yul\":260:301   */\n      tag_64\n      jump\t// in\n    tag_63:\n        /* \"#utility.yul\":152:307   */\n      swap3\n      swap2\n      pop\n      pop\n      jump\t// out\n        /* \"#utility.yul\":313:642   */\n    tag_10:\n        /* \"#utility.yul\":372:378   */\n      0x00\n        /* \"#utility.yul\":421:423   */\n      0x20\n        /* \"#utility.yul\":409:418   */\n      dup3\n        /* \"#utility.yul\":400:407   */\n      dup5\n        /* \"#utility.yul\":396:419   */\n      sub\n        /* \"#utility.yul\":392:424   */\n      slt\n        /* \"#utility.yul\":389:508   */\n      iszero\n      tag_66\n      jumpi\n        /* \"#utility.yul\":427:506   */\n      tag_67\n      tag_68\n      jump\t// in\n    tag_67:\n        /* \"#utility.yul\":389:508   */\n    tag_66:\n        /* \"#utility.yul\":547:548   */\n      0x00\n        /* \"#utility.yul\":572:625   */\n      tag_69\n        /* \"#utility.yul\":617:624   */\n      dup5\n        /* \"#utility.yul\":608:614   */\n      dup3\n        /* \"#utility.yul\":597:606   */\n      dup6\n        /* \"#utility.yul\":593:615   */\n      add\n        /* \"#utility.yul\":572:625   */\n      tag_57\n      jump\t// in\n    tag_69:\n        /* \"#utility.yul\":562:625   */\n      swap2\n      pop\n        /* \"#utility.yul\":518:635   */\n      pop\n        /* \"#utility.yul\":313:642   */\n      swap3\n      swap2\n      pop\n      pop\n      jump\t// out\n        /* \"#utility.yul\":648:993   */\n    tag_14:\n        /* \"#utility.yul\":715:721   */\n      0x00\n        /* \"#utility.yul\":764:766   */\n      0x20\n        /* \"#utility.yul\":752:761   */\n      dup3\n        /* \"#utility.yul\":743:750   */\n      dup5\n        /* \"#utility.yul\":739:762   */\n      sub\n        /* \"#utility.yul\":735:767   */\n      slt\n        /* \"#utility.yul\":732:851   */\n      iszero\n      tag_71\n      jumpi\n        /* \"#utility.yul\":770:849   */\n      tag_72\n      tag_68\n      jump\t// in\n    tag_72:\n        /* \"#utility.yul\":732:851   */\n    tag_71:\n        /* \"#utility.yul\":890:891   */\n      0x00\n        /* \"#utility.yul\":915:976   */\n      tag_73\n        /* \"#utility.yul\":968:975   */\n      dup5\n        /* \"#utility.yul\":959:965   */\n      dup3\n        /* \"#utility.yul\":948:957   */\n      dup6\n        /* \"#utility.yul\":944:966   */\n      add\n        /* \"#utility.yul\":915:976   */\n      tag_61\n      jump\t// in\n    tag_73:\n        /* \"#utility.yul\":905:976   */\n      swap2\n      pop\n        /* \"#utility.yul\":861:986   */\n      pop\n        /* \"#utility.yul\":648:993   */\n      swap3\n      swap2\n      pop\n      pop\n      jump\t// out\n        /* \"#utility.yul\":999:1397   */\n    tag_74:\n        /* \"#utility.yul\":1158:1161   */\n      0x00\n        /* \"#utility.yul\":1179:1262   */\n      tag_76\n        /* \"#utility.yul\":1260:1261   */\n      0x02\n        /* \"#utility.yul\":1255:1258   */\n      dup4\n        /* \"#utility.yul\":1179:1262   */\n      tag_77\n      jump\t// in\n    tag_76:\n        /* \"#utility.yul\":1172:1262   */\n      swap2\n      pop\n        /* \"#utility.yul\":1271:1364   */\n      tag_78\n        /* \"#utility.yul\":1360:1363   */\n      dup3\n        /* \"#utility.yul\":1271:1364   */\n      tag_79\n      jump\t// in\n    tag_78:\n        /* \"#utility.yul\":1389:1390   */\n      0x02\n        /* \"#utility.yul\":1384:1387   */\n      dup3\n        /* \"#utility.yul\":1380:1391   */\n      add\n        /* \"#utility.yul\":1373:1391   */\n      swap1\n      pop\n        /* \"#utility.yul\":999:1397   */\n      swap2\n      swap1\n      pop\n      jump\t// out\n        /* \"#utility.yul\":1403:1801   */\n    tag_80:\n        /* \"#utility.yul\":1562:1565   */\n      0x00\n        /* \"#utility.yul\":1583:1666   */\n      tag_82\n        /* \"#utility.yul\":1664:1665   */\n      0x00\n        /* \"#utility.yul\":1659:1662   */\n      dup4\n        /* \"#utility.yul\":1583:1666   */\n      tag_77\n      jump\t// in\n    tag_82:\n        /* \"#utility.yul\":1576:1666   */\n      swap2\n      pop\n        /* \"#utility.yul\":1675:1768   */\n      tag_83\n        /* \"#utility.yul\":1764:1767   */\n      dup3\n        /* \"#utility.yul\":1675:1768   */\n      tag_84\n      jump\t// in\n    tag_83:\n        /* \"#utility.yul\":1793:1794   */\n      0x00\n        /* \"#utility.yul\":1788:1791   */\n      dup3\n        /* \"#utility.yul\":1784:1795   */\n      add\n        /* \"#utility.yul\":1777:1795   */\n      swap1\n      pop\n        /* \"#utility.yul\":1403:1801   */\n      swap2\n      swap1\n      pop\n      jump\t// out\n        /* \"#utility.yul\":1807:2172   */\n    tag_85:\n        /* \"#utility.yul\":1949:1952   */\n      0x00\n        /* \"#utility.yul\":1970:2036   */\n      tag_87\n        /* \"#utility.yul\":2034:2035   */\n      0x07\n        /* \"#utility.yul\":2029:2032   */\n      dup4\n        /* \"#utility.yul\":1970:2036   */\n      tag_88\n      jump\t// in\n    tag_87:\n        /* \"#utility.yul\":1963:2036   */\n      swap2\n      pop\n        /* \"#utility.yul\":2045:2138   */\n      tag_89\n        /* \"#utility.yul\":2134:2137   */\n      dup3\n        /* \"#utility.yul\":2045:2138   */\n      tag_90\n      jump\t// in\n    tag_89:\n        /* \"#utility.yul\":2163:2165   */\n      0x20\n        /* \"#utility.yul\":2158:2161   */\n      dup3\n        /* \"#utility.yul\":2154:2166   */\n      add\n        /* \"#utility.yul\":2147:2166   */\n      swap1\n      pop\n        /* \"#utility.yul\":1807:2172   */\n      swap2\n      swap1\n      pop\n      jump\t// out\n        /* \"#utility.yul\":2178:2557   */\n    tag_27:\n        /* \"#utility.yul\":2362:2365   */\n      0x00\n        /* \"#utility.yul\":2384:2531   */\n      tag_92\n        /* \"#utility.yul\":2527:2530   */\n      dup3\n        /* \"#utility.yul\":2384:2531   */\n      tag_74\n      jump\t// in\n    tag_92:\n        /* \"#utility.yul\":2377:2531   */\n      swap2\n      pop\n        /* \"#utility.yul\":2548:2551   */\n      dup2\n        /* \"#utility.yul\":2541:2551   */\n      swap1\n      pop\n        /* \"#utility.yul\":2178:2557   */\n      swap2\n      swap1\n      pop\n      jump\t// out\n        /* \"#utility.yul\":2563:2942   */\n    tag_43:\n        /* \"#utility.yul\":2747:2750   */\n      0x00\n        /* \"#utility.yul\":2769:2916   */\n      tag_94\n        /* \"#utility.yul\":2912:2915   */\n      dup3\n        /* \"#utility.yul\":2769:2916   */\n      tag_80\n      jump\t// in\n    tag_94:\n        /* \"#utility.yul\":2762:2916   */\n      swap2\n      pop\n        /* \"#utility.yul\":2933:2936   */\n      dup2\n        /* \"#utility.yul\":2926:2936   */\n      swap1\n      pop\n        /* \"#utility.yul\":2563:2942   */\n      swap2\n      swap1\n      pop\n      jump\t// out\n        /* \"#utility.yul\":2948:3367   */\n    tag_33:\n        /* \"#utility.yul\":3114:3118   */\n      0x00\n        /* \"#utility.yul\":3152:3154   */\n      0x20\n        /* \"#utility.yul\":3141:3150   */\n      dup3\n        /* \"#utility.yul\":3137:3155   */\n      add\n        /* \"#utility.yul\":3129:3155   */\n      swap1\n      pop\n        /* \"#utility.yul\":3201:3210   */\n      dup2\n        /* \"#utility.yul\":3195:3199   */\n      dup2\n        /* \"#utility.yul\":3191:3211   */\n      sub\n        /* \"#utility.yul\":3187:3188   */\n      0x00\n        /* \"#utility.yul\":3176:3185   */\n      dup4\n        /* \"#utility.yul\":3172:3189   */\n      add\n        /* \"#utility.yul\":3165:3212   */\n      mstore\n        /* \"#utility.yul\":3229:3360   */\n      tag_96\n        /* \"#utility.yul\":3355:3359   */\n      dup2\n        /* \"#utility.yul\":3229:3360   */\n      tag_85\n      jump\t// in\n    tag_96:\n        /* \"#utility.yul\":3221:3360   */\n      swap1\n      pop\n        /* \"#utility.yul\":2948:3367   */\n      swap2\n      swap1\n      pop\n      jump\t// out\n        /* \"#utility.yul\":3454:3601   */\n    tag_77:\n        /* \"#utility.yul\":3555:3566   */\n      0x00\n        /* \"#utility.yul\":3592:3595   */\n      dup2\n        /* \"#utility.yul\":3577:3595   */\n      swap1\n      pop\n        /* \"#utility.yul\":3454:3601   */\n      swap3\n      swap2\n      pop\n      pop\n      jump\t// out\n        /* \"#utility.yul\":3607:3776   */\n    tag_88:\n        /* \"#utility.yul\":3691:3702   */\n      0x00\n        /* \"#utility.yul\":3725:3731   */\n      dup3\n        /* \"#utility.yul\":3720:3723   */\n      dup3\n        /* \"#utility.yul\":3713:3732   */\n      mstore\n        /* \"#utility.yul\":3765:3769   */\n      0x20\n        /* \"#utility.yul\":3760:3763   */\n      dup3\n        /* \"#utility.yul\":3756:3770   */\n      add\n        /* \"#utility.yul\":3741:3770   */\n      swap1\n      pop\n        /* \"#utility.yul\":3607:3776   */\n      swap3\n      swap2\n      pop\n      pop\n      jump\t// out\n        /* \"#utility.yul\":3782:3878   */\n    tag_101:\n        /* \"#utility.yul\":3819:3826   */\n      0x00\n        /* \"#utility.yul\":3848:3872   */\n      tag_103\n        /* \"#utility.yul\":3866:3871   */\n      dup3\n        /* \"#utility.yul\":3848:3872   */\n      tag_104\n      jump\t// in\n    tag_103:\n        /* \"#utility.yul\":3837:3872   */\n      swap1\n      pop\n        /* \"#utility.yul\":3782:3878   */\n      swap2\n      swap1\n      pop\n      jump\t// out\n        /* \"#utility.yul\":3884:3988   */\n    tag_105:\n        /* \"#utility.yul\":3929:3936   */\n      0x00\n        /* \"#utility.yul\":3958:3982   */\n      tag_107\n        /* \"#utility.yul\":3976:3981   */\n      dup3\n        /* \"#utility.yul\":3958:3982   */\n      tag_104\n      jump\t// in\n    tag_107:\n        /* \"#utility.yul\":3947:3982   */\n      swap1\n      pop\n        /* \"#utility.yul\":3884:3988   */\n      swap2\n      swap1\n      pop\n      jump\t// out\n        /* \"#utility.yul\":3994:4120   */\n    tag_104:\n        /* \"#utility.yul\":4031:4038   */\n      0x00\n        /* \"#utility.yul\":4071:4113   */\n      0xffffffffffffffffffffffffffffffffffffffff\n        /* \"#utility.yul\":4064:4069   */\n      dup3\n        /* \"#utility.yul\":4060:4114   */\n      and\n        /* \"#utility.yul\":4049:4114   */\n      swap1\n      pop\n        /* \"#utility.yul\":3994:4120   */\n      swap2\n      swap1\n      pop\n      jump\t// out\n        /* \"#utility.yul\":4249:4366   */\n    tag_68:\n        /* \"#utility.yul\":4358:4359   */\n      0x00\n        /* \"#utility.yul\":4355:4356   */\n      dup1\n        /* \"#utility.yul\":4348:4360   */\n      revert\n        /* \"#utility.yul\":4372:4524   */\n    tag_79:\n        /* \"#utility.yul\":4512:4516   */\n      0x4849000000000000000000000000000000000000000000000000000000000000\n        /* \"#utility.yul\":4508:4509   */\n      0x00\n        /* \"#utility.yul\":4500:4506   */\n      dup3\n        /* \"#utility.yul\":4496:4510   */\n      add\n        /* \"#utility.yul\":4489:4517   */\n      mstore\n        /* \"#utility.yul\":4372:4524   */\n      pop\n      jump\t// out\n        /* \"#utility.yul\":4530:4644   */\n    tag_84:\n      pop\n      jump\t// out\n        /* \"#utility.yul\":4650:4807   */\n    tag_90:\n        /* \"#utility.yul\":4790:4799   */\n      0x4661696c6c656400000000000000000000000000000000000000000000000000\n        /* \"#utility.yul\":4786:4787   */\n      0x00\n        /* \"#utility.yul\":4778:4784   */\n      dup3\n        /* \"#utility.yul\":4774:4788   */\n      add\n        /* \"#utility.yul\":4767:4800   */\n      mstore\n        /* \"#utility.yul\":4650:4807   */\n      pop\n      jump\t// out\n        /* \"#utility.yul\":4813:4935   */\n    tag_60:\n        /* \"#utility.yul\":4886:4910   */\n      tag_116\n        /* \"#utility.yul\":4904:4909   */\n      dup2\n        /* \"#utility.yul\":4886:4910   */\n      tag_101\n      jump\t// in\n    tag_116:\n        /* \"#utility.yul\":4879:4884   */\n      dup2\n        /* \"#utility.yul\":4876:4911   */\n      eq\n        /* \"#utility.yul\":4866:4929   */\n      tag_117\n      jumpi\n        /* \"#utility.yul\":4925:4926   */\n      0x00\n        /* \"#utility.yul\":4922:4923   */\n      dup1\n        /* \"#utility.yul\":4915:4927   */\n      revert\n        /* \"#utility.yul\":4866:4929   */\n    tag_117:\n        /* \"#utility.yul\":4813:4935   */\n      pop\n      jump\t// out\n        /* \"#utility.yul\":4941:5079   */\n    tag_64:\n        /* \"#utility.yul\":5022:5054   */\n      tag_119\n        /* \"#utility.yul\":5048:5053   */\n      dup2\n        /* \"#utility.yul\":5022:5054   */\n      tag_105\n      jump\t// in\n    tag_119:\n        /* \"#utility.yul\":5015:5020   */\n      dup2\n        /* \"#utility.yul\":5012:5055   */\n      eq\n        /* \"#utility.yul\":5002:5073   */\n      tag_120\n      jumpi\n        /* \"#utility.yul\":5069:5070   */\n      0x00\n        /* \"#utility.yul\":5066:5067   */\n      dup1\n        /* \"#utility.yul\":5059:5071   */\n      revert\n        /* \"#utility.yul\":5002:5073   */\n    tag_120:\n        /* \"#utility.yul\":4941:5079   */\n      pop\n      jump\t// out\n\n    auxdata: 0xa26469706673582212200074f28c7ca83177473db46660db811cf51cb3ad3fd6b4c8b91d5ed79dd335f364736f6c63430008070033\n}\n",
				"bytecode": {
					"linkReferences": {},
					"object": "608060405234801561001057600080fd5b50610613806100206000396000f3fe60806040526004361061004a5760003560e01c80637ea4d6ae1461004f578063ac2a35c814610078578063bc54f7ed14610094578063e1972dbb146100b0578063f97447dd146100cc575b600080fd5b34801561005b57600080fd5b50610076600480360381019061007191906103e8565b6100e8565b005b610092600480360381019061008d9190610415565b610197565b005b6100ae60048036038101906100a99190610415565b610247565b005b6100ca60048036038101906100c59190610415565b6102f7565b005b6100e660048036038101906100e19190610415565b610341565b005b60008173ffffffffffffffffffffffffffffffffffffffff1660405161010d906104ab565b6000604051808303816000865af19150503d806000811461014a576040519150601f19603f3d011682016040523d82523d6000602084013e61014f565b606091505b5050905080610193576040517f08c379a000000000000000000000000000000000000000000000000000000000815260040161018a906104d5565b60405180910390fd5b5050565b60008173ffffffffffffffffffffffffffffffffffffffff16346040516101bd906104ab565b60006040518083038185875af1925050503d80600081146101fa576040519150601f19603f3d011682016040523d82523d6000602084013e6101ff565b606091505b5050905080610243576040517f08c379a000000000000000000000000000000000000000000000000000000000815260040161023a906104d5565b60405180910390fd5b5050565b60008173ffffffffffffffffffffffffffffffffffffffff163460405161026d906104c0565b60006040518083038185875af1925050503d80600081146102aa576040519150601f19603f3d011682016040523d82523d6000602084013e6102af565b606091505b50509050806102f3576040517f08c379a00000000000000000000000000000000000000000000000000000000081526004016102ea906104d5565b60405180910390fd5b5050565b8073ffffffffffffffffffffffffffffffffffffffff166108fc349081150290604051600060405180830381858888f1935050505015801561033d573d6000803e3d6000fd5b5050565b60008173ffffffffffffffffffffffffffffffffffffffff166108fc349081150290604051600060405180830381858888f193505050509050806103ba576040517f08c379a00000000000000000000000000000000000000000000000000000000081526004016103b1906104d5565b60405180910390fd5b5050565b6000813590506103cd816105af565b92915050565b6000813590506103e2816105c6565b92915050565b6000602082840312156103fe576103fd610555565b5b600061040c848285016103be565b91505092915050565b60006020828403121561042b5761042a610555565b5b6000610439848285016103d3565b91505092915050565b600061044f6002836104f5565b915061045a8261055a565b600282019050919050565b60006104726000836104f5565b915061047d82610583565b600082019050919050565b6000610495600783610500565b91506104a082610586565b602082019050919050565b60006104b682610442565b9150819050919050565b60006104cb82610465565b9150819050919050565b600060208201905081810360008301526104ee81610488565b9050919050565b600081905092915050565b600082825260208201905092915050565b600061051c82610535565b9050919050565b600061052e82610535565b9050919050565b600073ffffffffffffffffffffffffffffffffffffffff82169050919050565b600080fd5b7f4849000000000000000000000000000000000000000000000000000000000000600082015250565b50565b7f4661696c6c656400000000000000000000000000000000000000000000000000600082015250565b6105b881610511565b81146105c357600080fd5b50565b6105cf81610523565b81146105da57600080fd5b5056fea26469706673582212200074f28c7ca83177473db46660db811cf51cb3ad3fd6b4c8b91d5ed79dd335f364736f6c63430008070033",
					"opcodes": "PUSH1 0x80 PUSH1 0x40 MSTORE CALLVALUE DUP1 ISZERO PUSH2 0x10 JUMPI PUSH1 0x0 DUP1 REVERT JUMPDEST POP PUSH2 0x613 DUP1 PUSH2 0x20 PUSH1 0x0 CODECOPY PUSH1 0x0 RETURN INVALID PUSH1 0x80 PUSH1 0x40 MSTORE PUSH1 0x4 CALLDATASIZE LT PUSH2 0x4A JUMPI PUSH1 0x0 CALLDATALOAD PUSH1 0xE0 SHR DUP1 PUSH4 0x7EA4D6AE EQ PUSH2 0x4F JUMPI DUP1 PUSH4 0xAC2A35C8 EQ PUSH2 0x78 JUMPI DUP1 PUSH4 0xBC54F7ED EQ PUSH2 0x94 JUMPI DUP1 PUSH4 0xE1972DBB EQ PUSH2 0xB0 JUMPI DUP1 PUSH4 0xF97447DD EQ PUSH2 0xCC JUMPI JUMPDEST PUSH1 0x0 DUP1 REVERT JUMPDEST CALLVALUE DUP1 ISZERO PUSH2 0x5B JUMPI PUSH1 0x0 DUP1 REVERT JUMPDEST POP PUSH2 0x76 PUSH1 0x4 DUP1 CALLDATASIZE SUB DUP2 ADD SWAP1 PUSH2 0x71 SWAP2 SWAP1 PUSH2 0x3E8 JUMP JUMPDEST PUSH2 0xE8 JUMP JUMPDEST STOP JUMPDEST PUSH2 0x92 PUSH1 0x4 DUP1 CALLDATASIZE SUB DUP2 ADD SWAP1 PUSH2 0x8D SWAP2 SWAP1 PUSH2 0x415 JUMP JUMPDEST PUSH2 0x197 JUMP JUMPDEST STOP JUMPDEST PUSH2 0xAE PUSH1 0x4 DUP1 CALLDATASIZE SUB DUP2 ADD SWAP1 PUSH2 0xA9 SWAP2 SWAP1 PUSH2 0x415 JUMP JUMPDEST PUSH2 0x247 JUMP JUMPDEST STOP JUMPDEST PUSH2 0xCA PUSH1 0x4 DUP1 CALLDATASIZE SUB DUP2 ADD SWAP1 PUSH2 0xC5 SWAP2 SWAP1 PUSH2 0x415 JUMP JUMPDEST PUSH2 0x2F7 JUMP JUMPDEST STOP JUMPDEST PUSH2 0xE6 PUSH1 0x4 DUP1 CALLDATASIZE SUB DUP2 ADD SWAP1 PUSH2 0xE1 SWAP2 SWAP1 PUSH2 0x415 JUMP JUMPDEST PUSH2 0x341 JUMP JUMPDEST STOP JUMPDEST PUSH1 0x0 DUP2 PUSH20 0xFFFFFFFFFFFFFFFFFFFFFFFFFFFFFFFFFFFFFFFF AND PUSH1 0x40 MLOAD PUSH2 0x10D SWAP1 PUSH2 0x4AB JUMP JUMPDEST PUSH1 0x0 PUSH1 0x40 MLOAD DUP1 DUP4 SUB DUP2 PUSH1 0x0 DUP7 GAS CALL SWAP2 POP POP RETURNDATASIZE DUP1 PUSH1 0x0 DUP2 EQ PUSH2 0x14A JUMPI PUSH1 0x40 MLOAD SWAP2 POP PUSH1 0x1F NOT PUSH1 0x3F RETURNDATASIZE ADD AND DUP3 ADD PUSH1 0x40 MSTORE RETURNDATASIZE DUP3 MSTORE RETURNDATASIZE PUSH1 0x0 PUSH1 0x20 DUP5 ADD RETURNDATACOPY PUSH2 0x14F JUMP JUMPDEST PUSH1 0x60 SWAP2 POP JUMPDEST POP POP SWAP1 POP DUP1 PUSH2 0x193 JUMPI PUSH1 0x40 MLOAD PUSH32 0x8C379A000000000000000000000000000000000000000000000000000000000 DUP2 MSTORE PUSH1 0x4 ADD PUSH2 0x18A SWAP1 PUSH2 0x4D5 JUMP JUMPDEST PUSH1 0x40 MLOAD DUP1 SWAP2 SUB SWAP1 REVERT JUMPDEST POP POP JUMP JUMPDEST PUSH1 0x0 DUP2 PUSH20 0xFFFFFFFFFFFFFFFFFFFFFFFFFFFFFFFFFFFFFFFF AND CALLVALUE PUSH1 0x40 MLOAD PUSH2 0x1BD SWAP1 PUSH2 0x4AB JUMP JUMPDEST PUSH1 0x0 PUSH1 0x40 MLOAD DUP1 DUP4 SUB DUP2 DUP6 DUP8 GAS CALL SWAP3 POP POP POP RETURNDATASIZE DUP1 PUSH1 0x0 DUP2 EQ PUSH2 0x1FA JUMPI PUSH1 0x40 MLOAD SWAP2 POP PUSH1 0x1F NOT PUSH1 0x3F RETURNDATASIZE ADD AND DUP3 ADD PUSH1 0x40 MSTORE RETURNDATASIZE DUP3 MSTORE RETURNDATASIZE PUSH1 0x0 PUSH1 0x20 DUP5 ADD RETURNDATACOPY PUSH2 0x1FF JUMP JUMPDEST PUSH1 0x60 SWAP2 POP JUMPDEST POP POP SWAP1 POP DUP1 PUSH2 0x243 JUMPI PUSH1 0x40 MLOAD PUSH32 0x8C379A000000000000000000000000000000000000000000000000000000000 DUP2 MSTORE PUSH1 0x4 ADD PUSH2 0x23A SWAP1 PUSH2 0x4D5 JUMP JUMPDEST PUSH1 0x40 MLOAD DUP1 SWAP2 SUB SWAP1 REVERT JUMPDEST POP POP JUMP JUMPDEST PUSH1 0x0 DUP2 PUSH20 0xFFFFFFFFFFFFFFFFFFFFFFFFFFFFFFFFFFFFFFFF AND CALLVALUE PUSH1 0x40 MLOAD PUSH2 0x26D SWAP1 PUSH2 0x4C0 JUMP JUMPDEST PUSH1 0x0 PUSH1 0x40 MLOAD DUP1 DUP4 SUB DUP2 DUP6 DUP8 GAS CALL SWAP3 POP POP POP RETURNDATASIZE DUP1 PUSH1 0x0 DUP2 EQ PUSH2 0x2AA JUMPI PUSH1 0x40 MLOAD SWAP2 POP PUSH1 0x1F NOT PUSH1 0x3F RETURNDATASIZE ADD AND DUP3 ADD PUSH1 0x40 MSTORE RETURNDATASIZE DUP3 MSTORE RETURNDATASIZE PUSH1 0x0 PUSH1 0x20 DUP5 ADD RETURNDATACOPY PUSH2 0x2AF JUMP JUMPDEST PUSH1 0x60 SWAP2 POP JUMPDEST POP POP SWAP1 POP DUP1 PUSH2 0x2F3 JUMPI PUSH1 0x40 MLOAD PUSH32 0x8C379A000000000000000000000000000000000000000000000000000000000 DUP2 MSTORE PUSH1 0x4 ADD PUSH2 0x2EA SWAP1 PUSH2 0x4D5 JUMP JUMPDEST PUSH1 0x40 MLOAD DUP1 SWAP2 SUB SWAP1 REVERT JUMPDEST POP POP JUMP JUMPDEST DUP1 PUSH20 0xFFFFFFFFFFFFFFFFFFFFFFFFFFFFFFFFFFFFFFFF AND PUSH2 0x8FC CALLVALUE SWAP1 DUP2 ISZERO MUL SWAP1 PUSH1 0x40 MLOAD PUSH1 0x0 PUSH1 0x40 MLOAD DUP1 DUP4 SUB DUP2 DUP6 DUP9 DUP9 CALL SWAP4 POP POP POP POP ISZERO DUP1 ISZERO PUSH2 0x33D JUMPI RETURNDATASIZE PUSH1 0x0 DUP1 RETURNDATACOPY RETURNDATASIZE PUSH1 0x0 REVERT JUMPDEST POP POP JUMP JUMPDEST PUSH1 0x0 DUP2 PUSH20 0xFFFFFFFFFFFFFFFFFFFFFFFFFFFFFFFFFFFFFFFF AND PUSH2 0x8FC CALLVALUE SWAP1 DUP2 ISZERO MUL SWAP1 PUSH1 0x40 MLOAD PUSH1 0x0 PUSH1 0x40 MLOAD DUP1 DUP4 SUB DUP2 DUP6 DUP9 DUP9 CALL SWAP4 POP POP POP POP SWAP1 POP DUP1 PUSH2 0x3BA JUMPI PUSH1 0x40 MLOAD PUSH32 0x8C379A000000000000000000000000000000000000000000000000000000000 DUP2 MSTORE PUSH1 0x4 ADD PUSH2 0x3B1 SWAP1 PUSH2 0x4D5 JUMP JUMPDEST PUSH1 0x40 MLOAD DUP1 SWAP2 SUB SWAP1 REVERT JUMPDEST POP POP JUMP JUMPDEST PUSH1 0x0 DUP2 CALLDATALOAD SWAP1 POP PUSH2 0x3CD DUP2 PUSH2 0x5AF JUMP JUMPDEST SWAP3 SWAP2 POP POP JUMP JUMPDEST PUSH1 0x0 DUP2 CALLDATALOAD SWAP1 POP PUSH2 0x3E2 DUP2 PUSH2 0x5C6 JUMP JUMPDEST SWAP3 SWAP2 POP POP JUMP JUMPDEST PUSH1 0x0 PUSH1 0x20 DUP3 DUP5 SUB SLT ISZERO PUSH2 0x3FE JUMPI PUSH2 0x3FD PUSH2 0x555 JUMP JUMPDEST JUMPDEST PUSH1 0x0 PUSH2 0x40C DUP5 DUP3 DUP6 ADD PUSH2 0x3BE JUMP JUMPDEST SWAP2 POP POP SWAP3 SWAP2 POP POP JUMP JUMPDEST PUSH1 0x0 PUSH1 0x20 DUP3 DUP5 SUB SLT ISZERO PUSH2 0x42B JUMPI PUSH2 0x42A PUSH2 0x555 JUMP JUMPDEST JUMPDEST PUSH1 0x0 PUSH2 0x439 DUP5 DUP3 DUP6 ADD PUSH2 0x3D3 JUMP JUMPDEST SWAP2 POP POP SWAP3 SWAP2 POP POP JUMP JUMPDEST PUSH1 0x0 PUSH2 0x44F PUSH1 0x2 DUP4 PUSH2 0x4F5 JUMP JUMPDEST SWAP2 POP PUSH2 0x45A DUP3 PUSH2 0x55A JUMP JUMPDEST PUSH1 0x2 DUP3 ADD SWAP1 POP SWAP2 SWAP1 POP JUMP JUMPDEST PUSH1 0x0 PUSH2 0x472 PUSH1 0x0 DUP4 PUSH2 0x4F5 JUMP JUMPDEST SWAP2 POP PUSH2 0x47D DUP3 PUSH2 0x583 JUMP JUMPDEST PUSH1 0x0 DUP3 ADD SWAP1 POP SWAP2 SWAP1 POP JUMP JUMPDEST PUSH1 0x0 PUSH2 0x495 PUSH1 0x7 DUP4 PUSH2 0x500 JUMP JUMPDEST SWAP2 POP PUSH2 0x4A0 DUP3 PUSH2 0x586 JUMP JUMPDEST PUSH1 0x20 DUP3 ADD SWAP1 POP SWAP2 SWAP1 POP JUMP JUMPDEST PUSH1 0x0 PUSH2 0x4B6 DUP3 PUSH2 0x442 JUMP JUMPDEST SWAP2 POP DUP2 SWAP1 POP SWAP2 SWAP1 POP JUMP JUMPDEST PUSH1 0x0 PUSH2 0x4CB DUP3 PUSH2 0x465 JUMP JUMPDEST SWAP2 POP DUP2 SWAP1 POP SWAP2 SWAP1 POP JUMP JUMPDEST PUSH1 0x0 PUSH1 0x20 DUP3 ADD SWAP1 POP DUP2 DUP2 SUB PUSH1 0x0 DUP4 ADD MSTORE PUSH2 0x4EE DUP2 PUSH2 0x488 JUMP JUMPDEST SWAP1 POP SWAP2 SWAP1 POP JUMP JUMPDEST PUSH1 0x0 DUP2 SWAP1 POP SWAP3 SWAP2 POP POP JUMP JUMPDEST PUSH1 0x0 DUP3 DUP3 MSTORE PUSH1 0x20 DUP3 ADD SWAP1 POP SWAP3 SWAP2 POP POP JUMP JUMPDEST PUSH1 0x0 PUSH2 0x51C DUP3 PUSH2 0x535 JUMP JUMPDEST SWAP1 POP SWAP2 SWAP1 POP JUMP JUMPDEST PUSH1 0x0 PUSH2 0x52E DUP3 PUSH2 0x535 JUMP JUMPDEST SWAP1 POP SWAP2 SWAP1 POP JUMP JUMPDEST PUSH1 0x0 PUSH20 0xFFFFFFFFFFFFFFFFFFFFFFFFFFFFFFFFFFFFFFFF DUP3 AND SWAP1 POP SWAP2 SWAP1 POP JUMP JUMPDEST PUSH1 0x0 DUP1 REVERT JUMPDEST PUSH32 0x4849000000000000000000000000000000000000000000000000000000000000 PUSH1 0x0 DUP3 ADD MSTORE POP JUMP JUMPDEST POP JUMP JUMPDEST PUSH32 0x4661696C6C656400000000000000000000000000000000000000000000000000 PUSH1 0x0 DUP3 ADD MSTORE POP JUMP JUMPDEST PUSH2 0x5B8 DUP2 PUSH2 0x511 JUMP JUMPDEST DUP2 EQ PUSH2 0x5C3 JUMPI PUSH1 0x0 DUP1 REVERT JUMPDEST POP JUMP JUMPDEST PUSH2 0x5CF DUP2 PUSH2 0x523 JUMP JUMPDEST DUP2 EQ PUSH2 0x5DA JUMPI PUSH1 0x0 DUP1 REVERT JUMPDEST POP JUMP INVALID LOG2 PUSH5 0x6970667358 0x22 SLT KECCAK256 STOP PUSH21 0xF28C7CA83177473DB46660DB811CF51CB3AD3FD6B4 0xC8 0xB9 SAR 0x5E 0xD7 SWAP14 0xD3 CALLDATALOAD RETURN PUSH5 0x736F6C6343 STOP ADDMOD SMOD STOP CALLER "
				},
				"gasEstimates": {
					"creation": {
						"codeDepositCost": "311000",
						"executionCost": "349",
						"totalCost": "311349"
					},
					"external": {
						"DepositWithCall(address)": "infinite",
						"DepositWithSend(address)": "infinite",
						"DepositWithTransfer(address)": "infinite",
						"JustGiveMessage(address)": "infinite",
						"JustGiveMessageWithFunds(address)": "infinite"
					}
				},
				"methodIdentifiers": {
					"DepositWithCall(address)": "bc54f7ed",
					"DepositWithSend(address)": "f97447dd",
					"DepositWithTransfer(address)": "e1972dbb",
					"JustGiveMessage(address)": "7ea4d6ae",
					"JustGiveMessageWithFunds(address)": "ac2a35c8"
				}
			},
			"storageLayout": {
				"storage": [],
				"types": null
			},
			"userdoc": {
				"kind": "user",
				"methods": {},
				"version": 1
			}
		}
	}
}