{
	"lecture/lec38.sol": {
		"lec38": {
			"abi": [
				{
					"inputs": [],
					"stateMutability": "nonpayable",
					"type": "constructor"
				},
				{
					"anonymous": false,
					"inputs": [
						{
							"indexed": false,
							"internalType": "enum lec38.CarStatus",
							"name": "_carStatus",
							"type": "uint8"
						},
						{
							"indexed": false,
							"internalType": "uint256",
							"name": "_carStatusInInt",
							"type": "uint256"
						}
					],
					"name": "carCurrentStatus",
					"type": "event"
				},
				{
					"inputs": [],
					"name": "CheckStatus",
					"outputs": [
						{
							"internalType": "enum lec38.CarStatus",
							"name": "",
							"type": "uint8"
						}
					],
					"stateMutability": "view",
					"type": "function"
				},
				{
					"inputs": [],
					"name": "DrivingCar",
					"outputs": [],
					"stateMutability": "nonpayable",
					"type": "function"
				},
				{
					"inputs": [],
					"name": "StopCar",
					"outputs": [],
					"stateMutability": "nonpayable",
					"type": "function"
				},
				{
					"inputs": [],
					"name": "carStatus",
					"outputs": [
						{
							"internalType": "enum lec38.CarStatus",
							"name": "",
							"type": "uint8"
						}
					],
					"stateMutability": "view",
					"type": "function"
				},
				{
					"inputs": [],
					"name": "turnOffCar",
					"outputs": [],
					"stateMutability": "nonpayable",
					"type": "function"
				},
				{
					"inputs": [],
					"name": "turnOnCar",
					"outputs": [],
					"stateMutability": "nonpayable",
					"type": "function"
				}
			],
			"devdoc": {
				"kind": "dev",
				"methods": {},
				"version": 1
			},
			"evm": {
				"assembly": "    /* \"lecture/lec38.sol\":220:1613  contract lec38{... */\n  mstore(0x40, 0x80)\n    /* \"lecture/lec38.sol\":376:435  constructor(){... */\n  callvalue\n  dup1\n  iszero\n  tag_1\n  jumpi\n  0x00\n  dup1\n  revert\ntag_1:\n  pop\n    /* \"lecture/lec38.sol\":411:428  CarStatus.TurnOff */\n  0x00\n    /* \"lecture/lec38.sol\":399:408  carStatus */\n  dup1\n  0x00\n    /* \"lecture/lec38.sol\":399:428  carStatus = CarStatus.TurnOff */\n  0x0100\n  exp\n  dup2\n  sload\n  dup2\n  0xff\n  mul\n  not\n  and\n  swap1\n  dup4\n  0x03\n  dup2\n  gt\n  iszero\n  tag_4\n  jumpi\n  tag_5\n  tag_6\n  jump\t// in\ntag_5:\ntag_4:\n  mul\n  or\n  swap1\n  sstore\n  pop\n    /* \"lecture/lec38.sol\":220:1613  contract lec38{... */\n  jump(tag_7)\n    /* \"#utility.yul\":7:187   */\ntag_6:\n    /* \"#utility.yul\":55:132   */\n  0x4e487b7100000000000000000000000000000000000000000000000000000000\n    /* \"#utility.yul\":52:53   */\n  0x00\n    /* \"#utility.yul\":45:133   */\n  mstore\n    /* \"#utility.yul\":152:156   */\n  0x21\n    /* \"#utility.yul\":149:150   */\n  0x04\n    /* \"#utility.yul\":142:157   */\n  mstore\n    /* \"#utility.yul\":176:180   */\n  0x24\n    /* \"#utility.yul\":173:174   */\n  0x00\n    /* \"#utility.yul\":166:181   */\n  revert\n    /* \"lecture/lec38.sol\":220:1613  contract lec38{... */\ntag_7:\n  dataSize(sub_0)\n  dup1\n  dataOffset(sub_0)\n  0x00\n  codecopy\n  0x00\n  return\nstop\n\nsub_0: assembly {\n        /* \"lecture/lec38.sol\":220:1613  contract lec38{... */\n      mstore(0x40, 0x80)\n      callvalue\n      dup1\n      iszero\n      tag_1\n      jumpi\n      0x00\n      dup1\n      revert\n    tag_1:\n      pop\n      jumpi(tag_2, lt(calldatasize, 0x04))\n      shr(0xe0, calldataload(0x00))\n      dup1\n      0x196fbd7a\n      eq\n      tag_3\n      jumpi\n      dup1\n      0x3ba825ec\n      eq\n      tag_4\n      jumpi\n      dup1\n      0x5745105b\n      eq\n      tag_5\n      jumpi\n      dup1\n      0x6eb4a8d2\n      eq\n      tag_6\n      jumpi\n      dup1\n      0xdfb2abd2\n      eq\n      tag_7\n      jumpi\n      dup1\n      0xf1d67397\n      eq\n      tag_8\n      jumpi\n    tag_2:\n      0x00\n      dup1\n      revert\n        /* \"lecture/lec38.sol\":753:984  function DrivingCar() public {... */\n    tag_3:\n      tag_9\n      tag_10\n      jump\t// in\n    tag_9:\n      stop\n        /* \"lecture/lec38.sol\":339:365  CarStatus public carStatus */\n    tag_4:\n      tag_11\n      tag_12\n      jump\t// in\n    tag_11:\n      mload(0x40)\n      tag_13\n      swap2\n      swap1\n      tag_14\n      jump\t// in\n    tag_13:\n      mload(0x40)\n      dup1\n      swap2\n      sub\n      swap1\n      return\n        /* \"lecture/lec38.sol\":994:1220  function StopCar() public {... */\n    tag_5:\n      tag_15\n      tag_16\n      jump\t// in\n    tag_15:\n      stop\n        /* \"lecture/lec38.sol\":525:743  function turnOnCar() public {... */\n    tag_6:\n      tag_17\n      tag_18\n      jump\t// in\n    tag_17:\n      stop\n        /* \"lecture/lec38.sol\":1230:1518  function turnOffCar() public {... */\n    tag_7:\n      tag_19\n      tag_20\n      jump\t// in\n    tag_19:\n      stop\n        /* \"lecture/lec38.sol\":1524:1611  function CheckStatus() public view returns(CarStatus) {... */\n    tag_8:\n      tag_21\n      tag_22\n      jump\t// in\n    tag_21:\n      mload(0x40)\n      tag_23\n      swap2\n      swap1\n      tag_14\n      jump\t// in\n    tag_23:\n      mload(0x40)\n      dup1\n      swap2\n      sub\n      swap1\n      return\n        /* \"lecture/lec38.sol\":753:984  function DrivingCar() public {... */\n    tag_10:\n        /* \"lecture/lec38.sol\":813:829  CarStatus.TurnOn */\n      0x01\n        /* \"lecture/lec38.sol\":800:829  carStatus == CarStatus.TurnOn */\n      0x03\n      dup2\n      gt\n      iszero\n      tag_25\n      jumpi\n      tag_26\n      tag_27\n      jump\t// in\n    tag_26:\n    tag_25:\n        /* \"lecture/lec38.sol\":800:809  carStatus */\n      0x00\n      dup1\n      sload\n      swap1\n      0x0100\n      exp\n      swap1\n      div\n      0xff\n      and\n        /* \"lecture/lec38.sol\":800:829  carStatus == CarStatus.TurnOn */\n      0x03\n      dup2\n      gt\n      iszero\n      tag_28\n      jumpi\n      tag_29\n      tag_27\n      jump\t// in\n    tag_29:\n    tag_28:\n      eq\n        /* \"lecture/lec38.sol\":792:876  require(carStatus == CarStatus.TurnOn, \"To drive a car, your car must be turned on\") */\n      tag_30\n      jumpi\n      mload(0x40)\n      0x08c379a000000000000000000000000000000000000000000000000000000000\n      dup2\n      mstore\n      0x04\n      add\n      tag_31\n      swap1\n      tag_32\n      jump\t// in\n    tag_31:\n      mload(0x40)\n      dup1\n      swap2\n      sub\n      swap1\n      revert\n    tag_30:\n        /* \"lecture/lec38.sol\":898:915  CarStatus.Driving */\n      0x02\n        /* \"lecture/lec38.sol\":886:895  carStatus */\n      0x00\n      dup1\n        /* \"lecture/lec38.sol\":886:915  carStatus = CarStatus.Driving */\n      0x0100\n      exp\n      dup2\n      sload\n      dup2\n      0xff\n      mul\n      not\n      and\n      swap1\n      dup4\n      0x03\n      dup2\n      gt\n      iszero\n      tag_33\n      jumpi\n      tag_34\n      tag_27\n      jump\t// in\n    tag_34:\n    tag_33:\n      mul\n      or\n      swap1\n      sstore\n      pop\n        /* \"lecture/lec38.sol\":930:977  carCurrentStatus(carStatus, uint256(carStatus)) */\n      0x077f134d3966f81009f754fc11af11c8f578f7101883ef57d6923bef5fb2c012\n        /* \"lecture/lec38.sol\":947:956  carStatus */\n      0x00\n      dup1\n      sload\n      swap1\n      0x0100\n      exp\n      swap1\n      div\n      0xff\n      and\n        /* \"lecture/lec38.sol\":966:975  carStatus */\n      0x00\n      dup1\n      sload\n      swap1\n      0x0100\n      exp\n      swap1\n      div\n      0xff\n      and\n        /* \"lecture/lec38.sol\":958:976  uint256(carStatus) */\n      0x03\n      dup2\n      gt\n      iszero\n      tag_35\n      jumpi\n      tag_36\n      tag_27\n      jump\t// in\n    tag_36:\n    tag_35:\n        /* \"lecture/lec38.sol\":930:977  carCurrentStatus(carStatus, uint256(carStatus)) */\n      mload(0x40)\n      tag_37\n      swap3\n      swap2\n      swap1\n      tag_38\n      jump\t// in\n    tag_37:\n      mload(0x40)\n      dup1\n      swap2\n      sub\n      swap1\n      log1\n        /* \"lecture/lec38.sol\":753:984  function DrivingCar() public {... */\n      jump\t// out\n        /* \"lecture/lec38.sol\":339:365  CarStatus public carStatus */\n    tag_12:\n      0x00\n      dup1\n      sload\n      swap1\n      0x0100\n      exp\n      swap1\n      div\n      0xff\n      and\n      dup2\n      jump\t// out\n        /* \"lecture/lec38.sol\":994:1220  function StopCar() public {... */\n    tag_16:\n        /* \"lecture/lec38.sol\":1051:1068  CarStatus.Driving */\n      0x02\n        /* \"lecture/lec38.sol\":1038:1068  carStatus == CarStatus.Driving */\n      0x03\n      dup2\n      gt\n      iszero\n      tag_40\n      jumpi\n      tag_41\n      tag_27\n      jump\t// in\n    tag_41:\n    tag_40:\n        /* \"lecture/lec38.sol\":1038:1047  carStatus */\n      0x00\n      dup1\n      sload\n      swap1\n      0x0100\n      exp\n      swap1\n      div\n      0xff\n      and\n        /* \"lecture/lec38.sol\":1038:1068  carStatus == CarStatus.Driving */\n      0x03\n      dup2\n      gt\n      iszero\n      tag_42\n      jumpi\n      tag_43\n      tag_27\n      jump\t// in\n    tag_43:\n    tag_42:\n      eq\n        /* \"lecture/lec38.sol\":1030:1115  require(carStatus == CarStatus.Driving, \"To drive a car, your car must be turned on\") */\n      tag_44\n      jumpi\n      mload(0x40)\n      0x08c379a000000000000000000000000000000000000000000000000000000000\n      dup2\n      mstore\n      0x04\n      add\n      tag_45\n      swap1\n      tag_32\n      jump\t// in\n    tag_45:\n      mload(0x40)\n      dup1\n      swap2\n      sub\n      swap1\n      revert\n    tag_44:\n        /* \"lecture/lec38.sol\":1137:1151  CarStatus.Stop */\n      0x03\n        /* \"lecture/lec38.sol\":1125:1134  carStatus */\n      0x00\n      dup1\n        /* \"lecture/lec38.sol\":1125:1151  carStatus = CarStatus.Stop */\n      0x0100\n      exp\n      dup2\n      sload\n      dup2\n      0xff\n      mul\n      not\n      and\n      swap1\n      dup4\n      0x03\n      dup2\n      gt\n      iszero\n      tag_46\n      jumpi\n      tag_47\n      tag_27\n      jump\t// in\n    tag_47:\n    tag_46:\n      mul\n      or\n      swap1\n      sstore\n      pop\n        /* \"lecture/lec38.sol\":1166:1213  carCurrentStatus(carStatus, uint256(carStatus)) */\n      0x077f134d3966f81009f754fc11af11c8f578f7101883ef57d6923bef5fb2c012\n        /* \"lecture/lec38.sol\":1183:1192  carStatus */\n      0x00\n      dup1\n      sload\n      swap1\n      0x0100\n      exp\n      swap1\n      div\n      0xff\n      and\n        /* \"lecture/lec38.sol\":1202:1211  carStatus */\n      0x00\n      dup1\n      sload\n      swap1\n      0x0100\n      exp\n      swap1\n      div\n      0xff\n      and\n        /* \"lecture/lec38.sol\":1194:1212  uint256(carStatus) */\n      0x03\n      dup2\n      gt\n      iszero\n      tag_48\n      jumpi\n      tag_49\n      tag_27\n      jump\t// in\n    tag_49:\n    tag_48:\n        /* \"lecture/lec38.sol\":1166:1213  carCurrentStatus(carStatus, uint256(carStatus)) */\n      mload(0x40)\n      tag_50\n      swap3\n      swap2\n      swap1\n      tag_38\n      jump\t// in\n    tag_50:\n      mload(0x40)\n      dup1\n      swap2\n      sub\n      swap1\n      log1\n        /* \"lecture/lec38.sol\":994:1220  function StopCar() public {... */\n      jump\t// out\n        /* \"lecture/lec38.sol\":525:743  function turnOnCar() public {... */\n    tag_18:\n        /* \"lecture/lec38.sol\":594:595  0 */\n      0x00\n        /* \"lecture/lec38.sol\":584:596  CarStatus(0) */\n      0x03\n      dup2\n      gt\n      iszero\n      tag_52\n      jumpi\n      tag_53\n      tag_27\n      jump\t// in\n    tag_53:\n    tag_52:\n        /* \"lecture/lec38.sol\":571:596  carStatus == CarStatus(0) */\n      0x03\n      dup2\n      gt\n      iszero\n      tag_54\n      jumpi\n      tag_55\n      tag_27\n      jump\t// in\n    tag_55:\n    tag_54:\n        /* \"lecture/lec38.sol\":571:580  carStatus */\n      0x00\n      dup1\n      sload\n      swap1\n      0x0100\n      exp\n      swap1\n      div\n      0xff\n      and\n        /* \"lecture/lec38.sol\":571:596  carStatus == CarStatus(0) */\n      0x03\n      dup2\n      gt\n      iszero\n      tag_56\n      jumpi\n      tag_57\n      tag_27\n      jump\t// in\n    tag_57:\n    tag_56:\n      eq\n        /* \"lecture/lec38.sol\":563:640  require(carStatus == CarStatus(0), \"To turn on, your car must be turned off\") */\n      tag_58\n      jumpi\n      mload(0x40)\n      0x08c379a000000000000000000000000000000000000000000000000000000000\n      dup2\n      mstore\n      0x04\n      add\n      tag_59\n      swap1\n      tag_60\n      jump\t// in\n    tag_59:\n      mload(0x40)\n      dup1\n      swap2\n      sub\n      swap1\n      revert\n    tag_58:\n        /* \"lecture/lec38.sol\":672:673  1 */\n      0x01\n        /* \"lecture/lec38.sol\":662:674  CarStatus(1) */\n      0x03\n      dup2\n      gt\n      iszero\n      tag_61\n      jumpi\n      tag_62\n      tag_27\n      jump\t// in\n    tag_62:\n    tag_61:\n        /* \"lecture/lec38.sol\":650:659  carStatus */\n      0x00\n      dup1\n        /* \"lecture/lec38.sol\":650:674  carStatus = CarStatus(1) */\n      0x0100\n      exp\n      dup2\n      sload\n      dup2\n      0xff\n      mul\n      not\n      and\n      swap1\n      dup4\n      0x03\n      dup2\n      gt\n      iszero\n      tag_63\n      jumpi\n      tag_64\n      tag_27\n      jump\t// in\n    tag_64:\n    tag_63:\n      mul\n      or\n      swap1\n      sstore\n      pop\n        /* \"lecture/lec38.sol\":689:736  carCurrentStatus(carStatus, uint256(carStatus)) */\n      0x077f134d3966f81009f754fc11af11c8f578f7101883ef57d6923bef5fb2c012\n        /* \"lecture/lec38.sol\":706:715  carStatus */\n      0x00\n      dup1\n      sload\n      swap1\n      0x0100\n      exp\n      swap1\n      div\n      0xff\n      and\n        /* \"lecture/lec38.sol\":725:734  carStatus */\n      0x00\n      dup1\n      sload\n      swap1\n      0x0100\n      exp\n      swap1\n      div\n      0xff\n      and\n        /* \"lecture/lec38.sol\":717:735  uint256(carStatus) */\n      0x03\n      dup2\n      gt\n      iszero\n      tag_65\n      jumpi\n      tag_66\n      tag_27\n      jump\t// in\n    tag_66:\n    tag_65:\n        /* \"lecture/lec38.sol\":689:736  carCurrentStatus(carStatus, uint256(carStatus)) */\n      mload(0x40)\n      tag_67\n      swap3\n      swap2\n      swap1\n      tag_38\n      jump\t// in\n    tag_67:\n      mload(0x40)\n      dup1\n      swap2\n      sub\n      swap1\n      log1\n        /* \"lecture/lec38.sol\":525:743  function turnOnCar() public {... */\n      jump\t// out\n        /* \"lecture/lec38.sol\":1230:1518  function turnOffCar() public {... */\n    tag_20:\n        /* \"lecture/lec38.sol\":1290:1306  CarStatus.TurnOn */\n      0x01\n        /* \"lecture/lec38.sol\":1277:1306  carStatus == CarStatus.TurnOn */\n      0x03\n      dup2\n      gt\n      iszero\n      tag_69\n      jumpi\n      tag_70\n      tag_27\n      jump\t// in\n    tag_70:\n    tag_69:\n        /* \"lecture/lec38.sol\":1277:1286  carStatus */\n      0x00\n      dup1\n      sload\n      swap1\n      0x0100\n      exp\n      swap1\n      div\n      0xff\n      and\n        /* \"lecture/lec38.sol\":1277:1306  carStatus == CarStatus.TurnOn */\n      0x03\n      dup2\n      gt\n      iszero\n      tag_71\n      jumpi\n      tag_72\n      tag_27\n      jump\t// in\n    tag_72:\n    tag_71:\n      eq\n        /* \"lecture/lec38.sol\":1277:1354  carStatus == CarStatus.TurnOn ... */\n      dup1\n      tag_73\n      jumpi\n      pop\n        /* \"lecture/lec38.sol\":1340:1354  CarStatus.Stop */\n      0x03\n        /* \"lecture/lec38.sol\":1327:1354  carStatus == CarStatus.Stop */\n      dup1\n      dup2\n      gt\n      iszero\n      tag_74\n      jumpi\n      tag_75\n      tag_27\n      jump\t// in\n    tag_75:\n    tag_74:\n        /* \"lecture/lec38.sol\":1327:1336  carStatus */\n      0x00\n      dup1\n      sload\n      swap1\n      0x0100\n      exp\n      swap1\n      div\n      0xff\n      and\n        /* \"lecture/lec38.sol\":1327:1354  carStatus == CarStatus.Stop */\n      0x03\n      dup2\n      gt\n      iszero\n      tag_76\n      jumpi\n      tag_77\n      tag_27\n      jump\t// in\n    tag_77:\n    tag_76:\n      eq\n        /* \"lecture/lec38.sol\":1277:1354  carStatus == CarStatus.TurnOn ... */\n    tag_73:\n        /* \"lecture/lec38.sol\":1269:1410  require(carStatus == CarStatus.TurnOn ... */\n      tag_78\n      jumpi\n      mload(0x40)\n      0x08c379a000000000000000000000000000000000000000000000000000000000\n      dup2\n      mstore\n      0x04\n      add\n      tag_79\n      swap1\n      tag_80\n      jump\t// in\n    tag_79:\n      mload(0x40)\n      dup1\n      swap2\n      sub\n      swap1\n      revert\n    tag_78:\n        /* \"lecture/lec38.sol\":1432:1449  CarStatus.TurnOff */\n      0x00\n        /* \"lecture/lec38.sol\":1420:1429  carStatus */\n      dup1\n      0x00\n        /* \"lecture/lec38.sol\":1420:1449  carStatus = CarStatus.TurnOff */\n      0x0100\n      exp\n      dup2\n      sload\n      dup2\n      0xff\n      mul\n      not\n      and\n      swap1\n      dup4\n      0x03\n      dup2\n      gt\n      iszero\n      tag_81\n      jumpi\n      tag_82\n      tag_27\n      jump\t// in\n    tag_82:\n    tag_81:\n      mul\n      or\n      swap1\n      sstore\n      pop\n        /* \"lecture/lec38.sol\":1464:1511  carCurrentStatus(carStatus, uint256(carStatus)) */\n      0x077f134d3966f81009f754fc11af11c8f578f7101883ef57d6923bef5fb2c012\n        /* \"lecture/lec38.sol\":1481:1490  carStatus */\n      0x00\n      dup1\n      sload\n      swap1\n      0x0100\n      exp\n      swap1\n      div\n      0xff\n      and\n        /* \"lecture/lec38.sol\":1500:1509  carStatus */\n      0x00\n      dup1\n      sload\n      swap1\n      0x0100\n      exp\n      swap1\n      div\n      0xff\n      and\n        /* \"lecture/lec38.sol\":1492:1510  uint256(carStatus) */\n      0x03\n      dup2\n      gt\n      iszero\n      tag_83\n      jumpi\n      tag_84\n      tag_27\n      jump\t// in\n    tag_84:\n    tag_83:\n        /* \"lecture/lec38.sol\":1464:1511  carCurrentStatus(carStatus, uint256(carStatus)) */\n      mload(0x40)\n      tag_85\n      swap3\n      swap2\n      swap1\n      tag_38\n      jump\t// in\n    tag_85:\n      mload(0x40)\n      dup1\n      swap2\n      sub\n      swap1\n      log1\n        /* \"lecture/lec38.sol\":1230:1518  function turnOffCar() public {... */\n      jump\t// out\n        /* \"lecture/lec38.sol\":1524:1611  function CheckStatus() public view returns(CarStatus) {... */\n    tag_22:\n        /* \"lecture/lec38.sol\":1567:1576  CarStatus */\n      0x00\n        /* \"lecture/lec38.sol\":1595:1604  carStatus */\n      dup1\n      0x00\n      swap1\n      sload\n      swap1\n      0x0100\n      exp\n      swap1\n      div\n      0xff\n      and\n        /* \"lecture/lec38.sol\":1588:1604  return carStatus */\n      swap1\n      pop\n        /* \"lecture/lec38.sol\":1524:1611  function CheckStatus() public view returns(CarStatus) {... */\n      swap1\n      jump\t// out\n        /* \"#utility.yul\":7:156   */\n    tag_88:\n        /* \"#utility.yul\":103:149   */\n      tag_90\n        /* \"#utility.yul\":143:148   */\n      dup2\n        /* \"#utility.yul\":103:149   */\n      tag_91\n      jump\t// in\n    tag_90:\n        /* \"#utility.yul\":98:101   */\n      dup3\n        /* \"#utility.yul\":91:150   */\n      mstore\n        /* \"#utility.yul\":7:156   */\n      pop\n      pop\n      jump\t// out\n        /* \"#utility.yul\":162:528   */\n    tag_92:\n        /* \"#utility.yul\":304:307   */\n      0x00\n        /* \"#utility.yul\":325:392   */\n      tag_94\n        /* \"#utility.yul\":389:391   */\n      0x2a\n        /* \"#utility.yul\":384:387   */\n      dup4\n        /* \"#utility.yul\":325:392   */\n      tag_95\n      jump\t// in\n    tag_94:\n        /* \"#utility.yul\":318:392   */\n      swap2\n      pop\n        /* \"#utility.yul\":401:494   */\n      tag_96\n        /* \"#utility.yul\":490:493   */\n      dup3\n        /* \"#utility.yul\":401:494   */\n      tag_97\n      jump\t// in\n    tag_96:\n        /* \"#utility.yul\":519:521   */\n      0x40\n        /* \"#utility.yul\":514:517   */\n      dup3\n        /* \"#utility.yul\":510:522   */\n      add\n        /* \"#utility.yul\":503:522   */\n      swap1\n      pop\n        /* \"#utility.yul\":162:528   */\n      swap2\n      swap1\n      pop\n      jump\t// out\n        /* \"#utility.yul\":534:900   */\n    tag_98:\n        /* \"#utility.yul\":676:679   */\n      0x00\n        /* \"#utility.yul\":697:764   */\n      tag_100\n        /* \"#utility.yul\":761:763   */\n      0x27\n        /* \"#utility.yul\":756:759   */\n      dup4\n        /* \"#utility.yul\":697:764   */\n      tag_95\n      jump\t// in\n    tag_100:\n        /* \"#utility.yul\":690:764   */\n      swap2\n      pop\n        /* \"#utility.yul\":773:866   */\n      tag_101\n        /* \"#utility.yul\":862:865   */\n      dup3\n        /* \"#utility.yul\":773:866   */\n      tag_102\n      jump\t// in\n    tag_101:\n        /* \"#utility.yul\":891:893   */\n      0x40\n        /* \"#utility.yul\":886:889   */\n      dup3\n        /* \"#utility.yul\":882:894   */\n      add\n        /* \"#utility.yul\":875:894   */\n      swap1\n      pop\n        /* \"#utility.yul\":534:900   */\n      swap2\n      swap1\n      pop\n      jump\t// out\n        /* \"#utility.yul\":906:1272   */\n    tag_103:\n        /* \"#utility.yul\":1048:1051   */\n      0x00\n        /* \"#utility.yul\":1069:1136   */\n      tag_105\n        /* \"#utility.yul\":1133:1135   */\n      0x32\n        /* \"#utility.yul\":1128:1131   */\n      dup4\n        /* \"#utility.yul\":1069:1136   */\n      tag_95\n      jump\t// in\n    tag_105:\n        /* \"#utility.yul\":1062:1136   */\n      swap2\n      pop\n        /* \"#utility.yul\":1145:1238   */\n      tag_106\n        /* \"#utility.yul\":1234:1237   */\n      dup3\n        /* \"#utility.yul\":1145:1238   */\n      tag_107\n      jump\t// in\n    tag_106:\n        /* \"#utility.yul\":1263:1265   */\n      0x40\n        /* \"#utility.yul\":1258:1261   */\n      dup3\n        /* \"#utility.yul\":1254:1266   */\n      add\n        /* \"#utility.yul\":1247:1266   */\n      swap1\n      pop\n        /* \"#utility.yul\":906:1272   */\n      swap2\n      swap1\n      pop\n      jump\t// out\n        /* \"#utility.yul\":1278:1396   */\n    tag_108:\n        /* \"#utility.yul\":1365:1389   */\n      tag_110\n        /* \"#utility.yul\":1383:1388   */\n      dup2\n        /* \"#utility.yul\":1365:1389   */\n      tag_111\n      jump\t// in\n    tag_110:\n        /* \"#utility.yul\":1360:1363   */\n      dup3\n        /* \"#utility.yul\":1353:1390   */\n      mstore\n        /* \"#utility.yul\":1278:1396   */\n      pop\n      pop\n      jump\t// out\n        /* \"#utility.yul\":1402:1642   */\n    tag_14:\n        /* \"#utility.yul\":1504:1508   */\n      0x00\n        /* \"#utility.yul\":1542:1544   */\n      0x20\n        /* \"#utility.yul\":1531:1540   */\n      dup3\n        /* \"#utility.yul\":1527:1545   */\n      add\n        /* \"#utility.yul\":1519:1545   */\n      swap1\n      pop\n        /* \"#utility.yul\":1555:1635   */\n      tag_113\n        /* \"#utility.yul\":1632:1633   */\n      0x00\n        /* \"#utility.yul\":1621:1630   */\n      dup4\n        /* \"#utility.yul\":1617:1634   */\n      add\n        /* \"#utility.yul\":1608:1614   */\n      dup5\n        /* \"#utility.yul\":1555:1635   */\n      tag_88\n      jump\t// in\n    tag_113:\n        /* \"#utility.yul\":1402:1642   */\n      swap3\n      swap2\n      pop\n      pop\n      jump\t// out\n        /* \"#utility.yul\":1648:1998   */\n    tag_38:\n        /* \"#utility.yul\":1778:1782   */\n      0x00\n        /* \"#utility.yul\":1816:1818   */\n      0x40\n        /* \"#utility.yul\":1805:1814   */\n      dup3\n        /* \"#utility.yul\":1801:1819   */\n      add\n        /* \"#utility.yul\":1793:1819   */\n      swap1\n      pop\n        /* \"#utility.yul\":1829:1909   */\n      tag_115\n        /* \"#utility.yul\":1906:1907   */\n      0x00\n        /* \"#utility.yul\":1895:1904   */\n      dup4\n        /* \"#utility.yul\":1891:1908   */\n      add\n        /* \"#utility.yul\":1882:1888   */\n      dup6\n        /* \"#utility.yul\":1829:1909   */\n      tag_88\n      jump\t// in\n    tag_115:\n        /* \"#utility.yul\":1919:1991   */\n      tag_116\n        /* \"#utility.yul\":1987:1989   */\n      0x20\n        /* \"#utility.yul\":1976:1985   */\n      dup4\n        /* \"#utility.yul\":1972:1990   */\n      add\n        /* \"#utility.yul\":1963:1969   */\n      dup5\n        /* \"#utility.yul\":1919:1991   */\n      tag_108\n      jump\t// in\n    tag_116:\n        /* \"#utility.yul\":1648:1998   */\n      swap4\n      swap3\n      pop\n      pop\n      pop\n      jump\t// out\n        /* \"#utility.yul\":2004:2423   */\n    tag_32:\n        /* \"#utility.yul\":2170:2174   */\n      0x00\n        /* \"#utility.yul\":2208:2210   */\n      0x20\n        /* \"#utility.yul\":2197:2206   */\n      dup3\n        /* \"#utility.yul\":2193:2211   */\n      add\n        /* \"#utility.yul\":2185:2211   */\n      swap1\n      pop\n        /* \"#utility.yul\":2257:2266   */\n      dup2\n        /* \"#utility.yul\":2251:2255   */\n      dup2\n        /* \"#utility.yul\":2247:2267   */\n      sub\n        /* \"#utility.yul\":2243:2244   */\n      0x00\n        /* \"#utility.yul\":2232:2241   */\n      dup4\n        /* \"#utility.yul\":2228:2245   */\n      add\n        /* \"#utility.yul\":2221:2268   */\n      mstore\n        /* \"#utility.yul\":2285:2416   */\n      tag_118\n        /* \"#utility.yul\":2411:2415   */\n      dup2\n        /* \"#utility.yul\":2285:2416   */\n      tag_92\n      jump\t// in\n    tag_118:\n        /* \"#utility.yul\":2277:2416   */\n      swap1\n      pop\n        /* \"#utility.yul\":2004:2423   */\n      swap2\n      swap1\n      pop\n      jump\t// out\n        /* \"#utility.yul\":2429:2848   */\n    tag_60:\n        /* \"#utility.yul\":2595:2599   */\n      0x00\n        /* \"#utility.yul\":2633:2635   */\n      0x20\n        /* \"#utility.yul\":2622:2631   */\n      dup3\n        /* \"#utility.yul\":2618:2636   */\n      add\n        /* \"#utility.yul\":2610:2636   */\n      swap1\n      pop\n        /* \"#utility.yul\":2682:2691   */\n      dup2\n        /* \"#utility.yul\":2676:2680   */\n      dup2\n        /* \"#utility.yul\":2672:2692   */\n      sub\n        /* \"#utility.yul\":2668:2669   */\n      0x00\n        /* \"#utility.yul\":2657:2666   */\n      dup4\n        /* \"#utility.yul\":2653:2670   */\n      add\n        /* \"#utility.yul\":2646:2693   */\n      mstore\n        /* \"#utility.yul\":2710:2841   */\n      tag_120\n        /* \"#utility.yul\":2836:2840   */\n      dup2\n        /* \"#utility.yul\":2710:2841   */\n      tag_98\n      jump\t// in\n    tag_120:\n        /* \"#utility.yul\":2702:2841   */\n      swap1\n      pop\n        /* \"#utility.yul\":2429:2848   */\n      swap2\n      swap1\n      pop\n      jump\t// out\n        /* \"#utility.yul\":2854:3273   */\n    tag_80:\n        /* \"#utility.yul\":3020:3024   */\n      0x00\n        /* \"#utility.yul\":3058:3060   */\n      0x20\n        /* \"#utility.yul\":3047:3056   */\n      dup3\n        /* \"#utility.yul\":3043:3061   */\n      add\n        /* \"#utility.yul\":3035:3061   */\n      swap1\n      pop\n        /* \"#utility.yul\":3107:3116   */\n      dup2\n        /* \"#utility.yul\":3101:3105   */\n      dup2\n        /* \"#utility.yul\":3097:3117   */\n      sub\n        /* \"#utility.yul\":3093:3094   */\n      0x00\n        /* \"#utility.yul\":3082:3091   */\n      dup4\n        /* \"#utility.yul\":3078:3095   */\n      add\n        /* \"#utility.yul\":3071:3118   */\n      mstore\n        /* \"#utility.yul\":3135:3266   */\n      tag_122\n        /* \"#utility.yul\":3261:3265   */\n      dup2\n        /* \"#utility.yul\":3135:3266   */\n      tag_103\n      jump\t// in\n    tag_122:\n        /* \"#utility.yul\":3127:3266   */\n      swap1\n      pop\n        /* \"#utility.yul\":2854:3273   */\n      swap2\n      swap1\n      pop\n      jump\t// out\n        /* \"#utility.yul\":3279:3448   */\n    tag_95:\n        /* \"#utility.yul\":3363:3374   */\n      0x00\n        /* \"#utility.yul\":3397:3403   */\n      dup3\n        /* \"#utility.yul\":3392:3395   */\n      dup3\n        /* \"#utility.yul\":3385:3404   */\n      mstore\n        /* \"#utility.yul\":3437:3441   */\n      0x20\n        /* \"#utility.yul\":3432:3435   */\n      dup3\n        /* \"#utility.yul\":3428:3442   */\n      add\n        /* \"#utility.yul\":3413:3442   */\n      swap1\n      pop\n        /* \"#utility.yul\":3279:3448   */\n      swap3\n      swap2\n      pop\n      pop\n      jump\t// out\n        /* \"#utility.yul\":3454:3587   */\n    tag_124:\n        /* \"#utility.yul\":3502:3509   */\n      0x00\n        /* \"#utility.yul\":3531:3536   */\n      dup2\n        /* \"#utility.yul\":3520:3536   */\n      swap1\n      pop\n        /* \"#utility.yul\":3537:3581   */\n      tag_126\n        /* \"#utility.yul\":3575:3580   */\n      dup3\n        /* \"#utility.yul\":3537:3581   */\n      tag_127\n      jump\t// in\n    tag_126:\n        /* \"#utility.yul\":3454:3587   */\n      swap2\n      swap1\n      pop\n      jump\t// out\n        /* \"#utility.yul\":3593:3670   */\n    tag_111:\n        /* \"#utility.yul\":3630:3637   */\n      0x00\n        /* \"#utility.yul\":3659:3664   */\n      dup2\n        /* \"#utility.yul\":3648:3664   */\n      swap1\n      pop\n        /* \"#utility.yul\":3593:3670   */\n      swap2\n      swap1\n      pop\n      jump\t// out\n        /* \"#utility.yul\":3676:3809   */\n    tag_91:\n        /* \"#utility.yul\":3735:3744   */\n      0x00\n        /* \"#utility.yul\":3768:3803   */\n      tag_130\n        /* \"#utility.yul\":3797:3802   */\n      dup3\n        /* \"#utility.yul\":3768:3803   */\n      tag_124\n      jump\t// in\n    tag_130:\n        /* \"#utility.yul\":3755:3803   */\n      swap1\n      pop\n        /* \"#utility.yul\":3676:3809   */\n      swap2\n      swap1\n      pop\n      jump\t// out\n        /* \"#utility.yul\":3815:3995   */\n    tag_27:\n        /* \"#utility.yul\":3863:3940   */\n      0x4e487b7100000000000000000000000000000000000000000000000000000000\n        /* \"#utility.yul\":3860:3861   */\n      0x00\n        /* \"#utility.yul\":3853:3941   */\n      mstore\n        /* \"#utility.yul\":3960:3964   */\n      0x21\n        /* \"#utility.yul\":3957:3958   */\n      0x04\n        /* \"#utility.yul\":3950:3965   */\n      mstore\n        /* \"#utility.yul\":3984:3988   */\n      0x24\n        /* \"#utility.yul\":3981:3982   */\n      0x00\n        /* \"#utility.yul\":3974:3989   */\n      revert\n        /* \"#utility.yul\":4001:4230   */\n    tag_97:\n        /* \"#utility.yul\":4141:4175   */\n      0x546f2064726976652061206361722c20796f757220636172206d757374206265\n        /* \"#utility.yul\":4137:4138   */\n      0x00\n        /* \"#utility.yul\":4129:4135   */\n      dup3\n        /* \"#utility.yul\":4125:4139   */\n      add\n        /* \"#utility.yul\":4118:4176   */\n      mstore\n        /* \"#utility.yul\":4210:4222   */\n      0x207475726e6564206f6e00000000000000000000000000000000000000000000\n        /* \"#utility.yul\":4205:4207   */\n      0x20\n        /* \"#utility.yul\":4197:4203   */\n      dup3\n        /* \"#utility.yul\":4193:4208   */\n      add\n        /* \"#utility.yul\":4186:4223   */\n      mstore\n        /* \"#utility.yul\":4001:4230   */\n      pop\n      jump\t// out\n        /* \"#utility.yul\":4236:4462   */\n    tag_102:\n        /* \"#utility.yul\":4376:4410   */\n      0x546f207475726e206f6e2c20796f757220636172206d75737420626520747572\n        /* \"#utility.yul\":4372:4373   */\n      0x00\n        /* \"#utility.yul\":4364:4370   */\n      dup3\n        /* \"#utility.yul\":4360:4374   */\n      add\n        /* \"#utility.yul\":4353:4411   */\n      mstore\n        /* \"#utility.yul\":4445:4454   */\n      0x6e6564206f666600000000000000000000000000000000000000000000000000\n        /* \"#utility.yul\":4440:4442   */\n      0x20\n        /* \"#utility.yul\":4432:4438   */\n      dup3\n        /* \"#utility.yul\":4428:4443   */\n      add\n        /* \"#utility.yul\":4421:4455   */\n      mstore\n        /* \"#utility.yul\":4236:4462   */\n      pop\n      jump\t// out\n        /* \"#utility.yul\":4468:4705   */\n    tag_107:\n        /* \"#utility.yul\":4608:4642   */\n      0x546f207475726e206f66662c20796f757220636172206d757374206265207475\n        /* \"#utility.yul\":4604:4605   */\n      0x00\n        /* \"#utility.yul\":4596:4602   */\n      dup3\n        /* \"#utility.yul\":4592:4606   */\n      add\n        /* \"#utility.yul\":4585:4643   */\n      mstore\n        /* \"#utility.yul\":4677:4697   */\n      0x726e6564206f6e206f722064726976696e670000000000000000000000000000\n        /* \"#utility.yul\":4672:4674   */\n      0x20\n        /* \"#utility.yul\":4664:4670   */\n      dup3\n        /* \"#utility.yul\":4660:4675   */\n      add\n        /* \"#utility.yul\":4653:4698   */\n      mstore\n        /* \"#utility.yul\":4468:4705   */\n      pop\n      jump\t// out\n        /* \"#utility.yul\":4711:4827   */\n    tag_127:\n        /* \"#utility.yul\":4795:4796   */\n      0x04\n        /* \"#utility.yul\":4788:4793   */\n      dup2\n        /* \"#utility.yul\":4785:4797   */\n      lt\n        /* \"#utility.yul\":4775:4821   */\n      tag_136\n      jumpi\n        /* \"#utility.yul\":4801:4819   */\n      tag_137\n      tag_27\n      jump\t// in\n    tag_137:\n        /* \"#utility.yul\":4775:4821   */\n    tag_136:\n        /* \"#utility.yul\":4711:4827   */\n      pop\n      jump\t// out\n\n    auxdata: 0xa26469706673582212205caedaba44bf70b44f9c2ca1dfa2cdb99a4e6acbfb8f5d81b1d9f797f5d6fdf864736f6c63430008070033\n}\n",
				"bytecode": {
					"linkReferences": {},
					"object": "608060405234801561001057600080fd5b5060008060006101000a81548160ff0219169083600381111561003657610035610040565b5b021790555061006f565b7f4e487b7100000000000000000000000000000000000000000000000000000000600052602160045260246000fd5b6108368061007e6000396000f3fe608060405234801561001057600080fd5b50600436106100625760003560e01c8063196fbd7a146100675780633ba825ec146100715780635745105b1461008f5780636eb4a8d214610099578063dfb2abd2146100a3578063f1d67397146100ad575b600080fd5b61006f6100cb565b005b6100796101d0565b60405161008691906105ec565b60405180910390f35b6100976101e1565b005b6100a16102e6565b005b6100ab61040f565b005b6100b561054f565b6040516100c291906105ec565b60405180910390f35b600160038111156100df576100de6106d0565b5b60008054906101000a900460ff1660038111156100ff576100fe6106d0565b5b1461013f576040517f08c379a000000000000000000000000000000000000000000000000000000000815260040161013690610630565b60405180910390fd5b60026000806101000a81548160ff02191690836003811115610164576101636106d0565b5b02179055507f077f134d3966f81009f754fc11af11c8f578f7101883ef57d6923bef5fb2c01260008054906101000a900460ff1660008054906101000a900460ff1660038111156101b8576101b76106d0565b5b6040516101c6929190610607565b60405180910390a1565b60008054906101000a900460ff1681565b600260038111156101f5576101f46106d0565b5b60008054906101000a900460ff166003811115610215576102146106d0565b5b14610255576040517f08c379a000000000000000000000000000000000000000000000000000000000815260040161024c90610630565b60405180910390fd5b60036000806101000a81548160ff0219169083600381111561027a576102796106d0565b5b02179055507f077f134d3966f81009f754fc11af11c8f578f7101883ef57d6923bef5fb2c01260008054906101000a900460ff1660008054906101000a900460ff1660038111156102ce576102cd6106d0565b5b6040516102dc929190610607565b60405180910390a1565b600060038111156102fa576102f96106d0565b5b600381111561030c5761030b6106d0565b5b60008054906101000a900460ff16600381111561032c5761032b6106d0565b5b1461036c576040517f08c379a000000000000000000000000000000000000000000000000000000000815260040161036390610650565b60405180910390fd5b600160038111156103805761037f6106d0565b5b6000806101000a81548160ff021916908360038111156103a3576103a26106d0565b5b02179055507f077f134d3966f81009f754fc11af11c8f578f7101883ef57d6923bef5fb2c01260008054906101000a900460ff1660008054906101000a900460ff1660038111156103f7576103f66106d0565b5b604051610405929190610607565b60405180910390a1565b60016003811115610423576104226106d0565b5b60008054906101000a900460ff166003811115610443576104426106d0565b5b148061047f575060038081111561045d5761045c6106d0565b5b60008054906101000a900460ff16600381111561047d5761047c6106d0565b5b145b6104be576040517f08c379a00000000000000000000000000000000000000000000000000000000081526004016104b590610670565b60405180910390fd5b60008060006101000a81548160ff021916908360038111156104e3576104e26106d0565b5b02179055507f077f134d3966f81009f754fc11af11c8f578f7101883ef57d6923bef5fb2c01260008054906101000a900460ff1660008054906101000a900460ff166003811115610537576105366106d0565b5b604051610545929190610607565b60405180910390a1565b60008060009054906101000a900460ff16905090565b61056e816106be565b82525050565b6000610581602a83610690565b915061058c826106ff565b604082019050919050565b60006105a4602783610690565b91506105af8261074e565b604082019050919050565b60006105c7603283610690565b91506105d28261079d565b604082019050919050565b6105e6816106b4565b82525050565b60006020820190506106016000830184610565565b92915050565b600060408201905061061c6000830185610565565b61062960208301846105dd565b9392505050565b6000602082019050818103600083015261064981610574565b9050919050565b6000602082019050818103600083015261066981610597565b9050919050565b60006020820190508181036000830152610689816105ba565b9050919050565b600082825260208201905092915050565b60008190506106af826107ec565b919050565b6000819050919050565b60006106c9826106a1565b9050919050565b7f4e487b7100000000000000000000000000000000000000000000000000000000600052602160045260246000fd5b7f546f2064726976652061206361722c20796f757220636172206d75737420626560008201527f207475726e6564206f6e00000000000000000000000000000000000000000000602082015250565b7f546f207475726e206f6e2c20796f757220636172206d7573742062652074757260008201527f6e6564206f666600000000000000000000000000000000000000000000000000602082015250565b7f546f207475726e206f66662c20796f757220636172206d75737420626520747560008201527f726e6564206f6e206f722064726976696e670000000000000000000000000000602082015250565b600481106107fd576107fc6106d0565b5b5056fea26469706673582212205caedaba44bf70b44f9c2ca1dfa2cdb99a4e6acbfb8f5d81b1d9f797f5d6fdf864736f6c63430008070033",
					"opcodes": "PUSH1 0x80 PUSH1 0x40 MSTORE CALLVALUE DUP1 ISZERO PUSH2 0x10 JUMPI PUSH1 0x0 DUP1 REVERT JUMPDEST POP PUSH1 0x0 DUP1 PUSH1 0x0 PUSH2 0x100 EXP DUP2 SLOAD DUP2 PUSH1 0xFF MUL NOT AND SWAP1 DUP4 PUSH1 0x3 DUP2 GT ISZERO PUSH2 0x36 JUMPI PUSH2 0x35 PUSH2 0x40 JUMP JUMPDEST JUMPDEST MUL OR SWAP1 SSTORE POP PUSH2 0x6F JUMP JUMPDEST PUSH32 0x4E487B7100000000000000000000000000000000000000000000000000000000 PUSH1 0x0 MSTORE PUSH1 0x21 PUSH1 0x4 MSTORE PUSH1 0x24 PUSH1 0x0 REVERT JUMPDEST PUSH2 0x836 DUP1 PUSH2 0x7E PUSH1 0x0 CODECOPY PUSH1 0x0 RETURN INVALID PUSH1 0x80 PUSH1 0x40 MSTORE CALLVALUE DUP1 ISZERO PUSH2 0x10 JUMPI PUSH1 0x0 DUP1 REVERT JUMPDEST POP PUSH1 0x4 CALLDATASIZE LT PUSH2 0x62 JUMPI PUSH1 0x0 CALLDATALOAD PUSH1 0xE0 SHR DUP1 PUSH4 0x196FBD7A EQ PUSH2 0x67 JUMPI DUP1 PUSH4 0x3BA825EC EQ PUSH2 0x71 JUMPI DUP1 PUSH4 0x5745105B EQ PUSH2 0x8F JUMPI DUP1 PUSH4 0x6EB4A8D2 EQ PUSH2 0x99 JUMPI DUP1 PUSH4 0xDFB2ABD2 EQ PUSH2 0xA3 JUMPI DUP1 PUSH4 0xF1D67397 EQ PUSH2 0xAD JUMPI JUMPDEST PUSH1 0x0 DUP1 REVERT JUMPDEST PUSH2 0x6F PUSH2 0xCB JUMP JUMPDEST STOP JUMPDEST PUSH2 0x79 PUSH2 0x1D0 JUMP JUMPDEST PUSH1 0x40 MLOAD PUSH2 0x86 SWAP2 SWAP1 PUSH2 0x5EC JUMP JUMPDEST PUSH1 0x40 MLOAD DUP1 SWAP2 SUB SWAP1 RETURN JUMPDEST PUSH2 0x97 PUSH2 0x1E1 JUMP JUMPDEST STOP JUMPDEST PUSH2 0xA1 PUSH2 0x2E6 JUMP JUMPDEST STOP JUMPDEST PUSH2 0xAB PUSH2 0x40F JUMP JUMPDEST STOP JUMPDEST PUSH2 0xB5 PUSH2 0x54F JUMP JUMPDEST PUSH1 0x40 MLOAD PUSH2 0xC2 SWAP2 SWAP1 PUSH2 0x5EC JUMP JUMPDEST PUSH1 0x40 MLOAD DUP1 SWAP2 SUB SWAP1 RETURN JUMPDEST PUSH1 0x1 PUSH1 0x3 DUP2 GT ISZERO PUSH2 0xDF JUMPI PUSH2 0xDE PUSH2 0x6D0 JUMP JUMPDEST JUMPDEST PUSH1 0x0 DUP1 SLOAD SWAP1 PUSH2 0x100 EXP SWAP1 DIV PUSH1 0xFF AND PUSH1 0x3 DUP2 GT ISZERO PUSH2 0xFF JUMPI PUSH2 0xFE PUSH2 0x6D0 JUMP JUMPDEST JUMPDEST EQ PUSH2 0x13F JUMPI PUSH1 0x40 MLOAD PUSH32 0x8C379A000000000000000000000000000000000000000000000000000000000 DUP2 MSTORE PUSH1 0x4 ADD PUSH2 0x136 SWAP1 PUSH2 0x630 JUMP JUMPDEST PUSH1 0x40 MLOAD DUP1 SWAP2 SUB SWAP1 REVERT JUMPDEST PUSH1 0x2 PUSH1 0x0 DUP1 PUSH2 0x100 EXP DUP2 SLOAD DUP2 PUSH1 0xFF MUL NOT AND SWAP1 DUP4 PUSH1 0x3 DUP2 GT ISZERO PUSH2 0x164 JUMPI PUSH2 0x163 PUSH2 0x6D0 JUMP JUMPDEST JUMPDEST MUL OR SWAP1 SSTORE POP PUSH32 0x77F134D3966F81009F754FC11AF11C8F578F7101883EF57D6923BEF5FB2C012 PUSH1 0x0 DUP1 SLOAD SWAP1 PUSH2 0x100 EXP SWAP1 DIV PUSH1 0xFF AND PUSH1 0x0 DUP1 SLOAD SWAP1 PUSH2 0x100 EXP SWAP1 DIV PUSH1 0xFF AND PUSH1 0x3 DUP2 GT ISZERO PUSH2 0x1B8 JUMPI PUSH2 0x1B7 PUSH2 0x6D0 JUMP JUMPDEST JUMPDEST PUSH1 0x40 MLOAD PUSH2 0x1C6 SWAP3 SWAP2 SWAP1 PUSH2 0x607 JUMP JUMPDEST PUSH1 0x40 MLOAD DUP1 SWAP2 SUB SWAP1 LOG1 JUMP JUMPDEST PUSH1 0x0 DUP1 SLOAD SWAP1 PUSH2 0x100 EXP SWAP1 DIV PUSH1 0xFF AND DUP2 JUMP JUMPDEST PUSH1 0x2 PUSH1 0x3 DUP2 GT ISZERO PUSH2 0x1F5 JUMPI PUSH2 0x1F4 PUSH2 0x6D0 JUMP JUMPDEST JUMPDEST PUSH1 0x0 DUP1 SLOAD SWAP1 PUSH2 0x100 EXP SWAP1 DIV PUSH1 0xFF AND PUSH1 0x3 DUP2 GT ISZERO PUSH2 0x215 JUMPI PUSH2 0x214 PUSH2 0x6D0 JUMP JUMPDEST JUMPDEST EQ PUSH2 0x255 JUMPI PUSH1 0x40 MLOAD PUSH32 0x8C379A000000000000000000000000000000000000000000000000000000000 DUP2 MSTORE PUSH1 0x4 ADD PUSH2 0x24C SWAP1 PUSH2 0x630 JUMP JUMPDEST PUSH1 0x40 MLOAD DUP1 SWAP2 SUB SWAP1 REVERT JUMPDEST PUSH1 0x3 PUSH1 0x0 DUP1 PUSH2 0x100 EXP DUP2 SLOAD DUP2 PUSH1 0xFF MUL NOT AND SWAP1 DUP4 PUSH1 0x3 DUP2 GT ISZERO PUSH2 0x27A JUMPI PUSH2 0x279 PUSH2 0x6D0 JUMP JUMPDEST JUMPDEST MUL OR SWAP1 SSTORE POP PUSH32 0x77F134D3966F81009F754FC11AF11C8F578F7101883EF57D6923BEF5FB2C012 PUSH1 0x0 DUP1 SLOAD SWAP1 PUSH2 0x100 EXP SWAP1 DIV PUSH1 0xFF AND PUSH1 0x0 DUP1 SLOAD SWAP1 PUSH2 0x100 EXP SWAP1 DIV PUSH1 0xFF AND PUSH1 0x3 DUP2 GT ISZERO PUSH2 0x2CE JUMPI PUSH2 0x2CD PUSH2 0x6D0 JUMP JUMPDEST JUMPDEST PUSH1 0x40 MLOAD PUSH2 0x2DC SWAP3 SWAP2 SWAP1 PUSH2 0x607 JUMP JUMPDEST PUSH1 0x40 MLOAD DUP1 SWAP2 SUB SWAP1 LOG1 JUMP JUMPDEST PUSH1 0x0 PUSH1 0x3 DUP2 GT ISZERO PUSH2 0x2FA JUMPI PUSH2 0x2F9 PUSH2 0x6D0 JUMP JUMPDEST JUMPDEST PUSH1 0x3 DUP2 GT ISZERO PUSH2 0x30C JUMPI PUSH2 0x30B PUSH2 0x6D0 JUMP JUMPDEST JUMPDEST PUSH1 0x0 DUP1 SLOAD SWAP1 PUSH2 0x100 EXP SWAP1 DIV PUSH1 0xFF AND PUSH1 0x3 DUP2 GT ISZERO PUSH2 0x32C JUMPI PUSH2 0x32B PUSH2 0x6D0 JUMP JUMPDEST JUMPDEST EQ PUSH2 0x36C JUMPI PUSH1 0x40 MLOAD PUSH32 0x8C379A000000000000000000000000000000000000000000000000000000000 DUP2 MSTORE PUSH1 0x4 ADD PUSH2 0x363 SWAP1 PUSH2 0x650 JUMP JUMPDEST PUSH1 0x40 MLOAD DUP1 SWAP2 SUB SWAP1 REVERT JUMPDEST PUSH1 0x1 PUSH1 0x3 DUP2 GT ISZERO PUSH2 0x380 JUMPI PUSH2 0x37F PUSH2 0x6D0 JUMP JUMPDEST JUMPDEST PUSH1 0x0 DUP1 PUSH2 0x100 EXP DUP2 SLOAD DUP2 PUSH1 0xFF MUL NOT AND SWAP1 DUP4 PUSH1 0x3 DUP2 GT ISZERO PUSH2 0x3A3 JUMPI PUSH2 0x3A2 PUSH2 0x6D0 JUMP JUMPDEST JUMPDEST MUL OR SWAP1 SSTORE POP PUSH32 0x77F134D3966F81009F754FC11AF11C8F578F7101883EF57D6923BEF5FB2C012 PUSH1 0x0 DUP1 SLOAD SWAP1 PUSH2 0x100 EXP SWAP1 DIV PUSH1 0xFF AND PUSH1 0x0 DUP1 SLOAD SWAP1 PUSH2 0x100 EXP SWAP1 DIV PUSH1 0xFF AND PUSH1 0x3 DUP2 GT ISZERO PUSH2 0x3F7 JUMPI PUSH2 0x3F6 PUSH2 0x6D0 JUMP JUMPDEST JUMPDEST PUSH1 0x40 MLOAD PUSH2 0x405 SWAP3 SWAP2 SWAP1 PUSH2 0x607 JUMP JUMPDEST PUSH1 0x40 MLOAD DUP1 SWAP2 SUB SWAP1 LOG1 JUMP JUMPDEST PUSH1 0x1 PUSH1 0x3 DUP2 GT ISZERO PUSH2 0x423 JUMPI PUSH2 0x422 PUSH2 0x6D0 JUMP JUMPDEST JUMPDEST PUSH1 0x0 DUP1 SLOAD SWAP1 PUSH2 0x100 EXP SWAP1 DIV PUSH1 0xFF AND PUSH1 0x3 DUP2 GT ISZERO PUSH2 0x443 JUMPI PUSH2 0x442 PUSH2 0x6D0 JUMP JUMPDEST JUMPDEST EQ DUP1 PUSH2 0x47F JUMPI POP PUSH1 0x3 DUP1 DUP2 GT ISZERO PUSH2 0x45D JUMPI PUSH2 0x45C PUSH2 0x6D0 JUMP JUMPDEST JUMPDEST PUSH1 0x0 DUP1 SLOAD SWAP1 PUSH2 0x100 EXP SWAP1 DIV PUSH1 0xFF AND PUSH1 0x3 DUP2 GT ISZERO PUSH2 0x47D JUMPI PUSH2 0x47C PUSH2 0x6D0 JUMP JUMPDEST JUMPDEST EQ JUMPDEST PUSH2 0x4BE JUMPI PUSH1 0x40 MLOAD PUSH32 0x8C379A000000000000000000000000000000000000000000000000000000000 DUP2 MSTORE PUSH1 0x4 ADD PUSH2 0x4B5 SWAP1 PUSH2 0x670 JUMP JUMPDEST PUSH1 0x40 MLOAD DUP1 SWAP2 SUB SWAP1 REVERT JUMPDEST PUSH1 0x0 DUP1 PUSH1 0x0 PUSH2 0x100 EXP DUP2 SLOAD DUP2 PUSH1 0xFF MUL NOT AND SWAP1 DUP4 PUSH1 0x3 DUP2 GT ISZERO PUSH2 0x4E3 JUMPI PUSH2 0x4E2 PUSH2 0x6D0 JUMP JUMPDEST JUMPDEST MUL OR SWAP1 SSTORE POP PUSH32 0x77F134D3966F81009F754FC11AF11C8F578F7101883EF57D6923BEF5FB2C012 PUSH1 0x0 DUP1 SLOAD SWAP1 PUSH2 0x100 EXP SWAP1 DIV PUSH1 0xFF AND PUSH1 0x0 DUP1 SLOAD SWAP1 PUSH2 0x100 EXP SWAP1 DIV PUSH1 0xFF AND PUSH1 0x3 DUP2 GT ISZERO PUSH2 0x537 JUMPI PUSH2 0x536 PUSH2 0x6D0 JUMP JUMPDEST JUMPDEST PUSH1 0x40 MLOAD PUSH2 0x545 SWAP3 SWAP2 SWAP1 PUSH2 0x607 JUMP JUMPDEST PUSH1 0x40 MLOAD DUP1 SWAP2 SUB SWAP1 LOG1 JUMP JUMPDEST PUSH1 0x0 DUP1 PUSH1 0x0 SWAP1 SLOAD SWAP1 PUSH2 0x100 EXP SWAP1 DIV PUSH1 0xFF AND SWAP1 POP SWAP1 JUMP JUMPDEST PUSH2 0x56E DUP2 PUSH2 0x6BE JUMP JUMPDEST DUP3 MSTORE POP POP JUMP JUMPDEST PUSH1 0x0 PUSH2 0x581 PUSH1 0x2A DUP4 PUSH2 0x690 JUMP JUMPDEST SWAP2 POP PUSH2 0x58C DUP3 PUSH2 0x6FF JUMP JUMPDEST PUSH1 0x40 DUP3 ADD SWAP1 POP SWAP2 SWAP1 POP JUMP JUMPDEST PUSH1 0x0 PUSH2 0x5A4 PUSH1 0x27 DUP4 PUSH2 0x690 JUMP JUMPDEST SWAP2 POP PUSH2 0x5AF DUP3 PUSH2 0x74E JUMP JUMPDEST PUSH1 0x40 DUP3 ADD SWAP1 POP SWAP2 SWAP1 POP JUMP JUMPDEST PUSH1 0x0 PUSH2 0x5C7 PUSH1 0x32 DUP4 PUSH2 0x690 JUMP JUMPDEST SWAP2 POP PUSH2 0x5D2 DUP3 PUSH2 0x79D JUMP JUMPDEST PUSH1 0x40 DUP3 ADD SWAP1 POP SWAP2 SWAP1 POP JUMP JUMPDEST PUSH2 0x5E6 DUP2 PUSH2 0x6B4 JUMP JUMPDEST DUP3 MSTORE POP POP JUMP JUMPDEST PUSH1 0x0 PUSH1 0x20 DUP3 ADD SWAP1 POP PUSH2 0x601 PUSH1 0x0 DUP4 ADD DUP5 PUSH2 0x565 JUMP JUMPDEST SWAP3 SWAP2 POP POP JUMP JUMPDEST PUSH1 0x0 PUSH1 0x40 DUP3 ADD SWAP1 POP PUSH2 0x61C PUSH1 0x0 DUP4 ADD DUP6 PUSH2 0x565 JUMP JUMPDEST PUSH2 0x629 PUSH1 0x20 DUP4 ADD DUP5 PUSH2 0x5DD JUMP JUMPDEST SWAP4 SWAP3 POP POP POP JUMP JUMPDEST PUSH1 0x0 PUSH1 0x20 DUP3 ADD SWAP1 POP DUP2 DUP2 SUB PUSH1 0x0 DUP4 ADD MSTORE PUSH2 0x649 DUP2 PUSH2 0x574 JUMP JUMPDEST SWAP1 POP SWAP2 SWAP1 POP JUMP JUMPDEST PUSH1 0x0 PUSH1 0x20 DUP3 ADD SWAP1 POP DUP2 DUP2 SUB PUSH1 0x0 DUP4 ADD MSTORE PUSH2 0x669 DUP2 PUSH2 0x597 JUMP JUMPDEST SWAP1 POP SWAP2 SWAP1 POP JUMP JUMPDEST PUSH1 0x0 PUSH1 0x20 DUP3 ADD SWAP1 POP DUP2 DUP2 SUB PUSH1 0x0 DUP4 ADD MSTORE PUSH2 0x689 DUP2 PUSH2 0x5BA JUMP JUMPDEST SWAP1 POP SWAP2 SWAP1 POP JUMP JUMPDEST PUSH1 0x0 DUP3 DUP3 MSTORE PUSH1 0x20 DUP3 ADD SWAP1 POP SWAP3 SWAP2 POP POP JUMP JUMPDEST PUSH1 0x0 DUP2 SWAP1 POP PUSH2 0x6AF DUP3 PUSH2 0x7EC JUMP JUMPDEST SWAP2 SWAP1 POP JUMP JUMPDEST PUSH1 0x0 DUP2 SWAP1 POP SWAP2 SWAP1 POP JUMP JUMPDEST PUSH1 0x0 PUSH2 0x6C9 DUP3 PUSH2 0x6A1 JUMP JUMPDEST SWAP1 POP SWAP2 SWAP1 POP JUMP JUMPDEST PUSH32 0x4E487B7100000000000000000000000000000000000000000000000000000000 PUSH1 0x0 MSTORE PUSH1 0x21 PUSH1 0x4 MSTORE PUSH1 0x24 PUSH1 0x0 REVERT JUMPDEST PUSH32 0x546F2064726976652061206361722C20796F757220636172206D757374206265 PUSH1 0x0 DUP3 ADD MSTORE PUSH32 0x207475726E6564206F6E00000000000000000000000000000000000000000000 PUSH1 0x20 DUP3 ADD MSTORE POP JUMP JUMPDEST PUSH32 0x546F207475726E206F6E2C20796F757220636172206D75737420626520747572 PUSH1 0x0 DUP3 ADD MSTORE PUSH32 0x6E6564206F666600000000000000000000000000000000000000000000000000 PUSH1 0x20 DUP3 ADD MSTORE POP JUMP JUMPDEST PUSH32 0x546F207475726E206F66662C20796F757220636172206D757374206265207475 PUSH1 0x0 DUP3 ADD MSTORE PUSH32 0x726E6564206F6E206F722064726976696E670000000000000000000000000000 PUSH1 0x20 DUP3 ADD MSTORE POP JUMP JUMPDEST PUSH1 0x4 DUP2 LT PUSH2 0x7FD JUMPI PUSH2 0x7FC PUSH2 0x6D0 JUMP JUMPDEST JUMPDEST POP JUMP INVALID LOG2 PUSH5 0x6970667358 0x22 SLT KECCAK256 0x5C 0xAE 0xDA 0xBA DIFFICULTY 0xBF PUSH17 0xB44F9C2CA1DFA2CDB99A4E6ACBFB8F5D81 0xB1 0xD9 0xF7 SWAP8 CREATE2 0xD6 REVERT 0xF8 PUSH5 0x736F6C6343 STOP ADDMOD SMOD STOP CALLER "
				},
				"gasEstimates": {
					"creation": {
						"codeDepositCost": "420400",
						"executionCost": "24754",
						"totalCost": "445154"
					},
					"external": {
						"CheckStatus()": "2656",
						"DrivingCar()": "32554",
						"StopCar()": "32598",
						"carStatus()": "2557",
						"turnOffCar()": "34855",
						"turnOnCar()": "32672"
					}
				},
				"methodIdentifiers": {
					"CheckStatus()": "f1d67397",
					"DrivingCar()": "196fbd7a",
					"StopCar()": "5745105b",
					"carStatus()": "3ba825ec",
					"turnOffCar()": "dfb2abd2",
					"turnOnCar()": "6eb4a8d2"
				}
			},
			"storageLayout": {
				"storage": [
					{
						"astId": 9,
						"contract": "lecture/lec38.sol:lec38",
						"label": "carStatus",
						"offset": 0,
						"slot": "0",
						"type": "t_enum(CarStatus)6"
					}
				],
				"types": {
					"t_enum(CarStatus)6": {
						"encoding": "inplace",
						"label": "enum lec38.CarStatus",
						"numberOfBytes": "1"
					}
				}
			},
			"userdoc": {
				"kind": "user",
				"methods": {},
				"version": 1
			}
		}
	}
}