{
	"lecture/lec23.sol": {
		"lec23": {
			"abi": [
				{
					"anonymous": false,
					"inputs": [
						{
							"indexed": true,
							"internalType": "uint256",
							"name": "_index",
							"type": "uint256"
						},
						{
							"indexed": false,
							"internalType": "string",
							"name": "_name",
							"type": "string"
						}
					],
					"name": "CountryIndexName",
					"type": "event"
				},
				{
					"inputs": [],
					"name": "useBreak",
					"outputs": [],
					"stateMutability": "nonpayable",
					"type": "function"
				},
				{
					"inputs": [],
					"name": "useContinue",
					"outputs": [],
					"stateMutability": "nonpayable",
					"type": "function"
				}
			],
			"devdoc": {
				"kind": "dev",
				"methods": {},
				"version": 1
			},
			"evm": {
				"assembly": "    /* \"lecture/lec23.sol\":70:931  contract lec23{... */\n  mstore(0x40, 0x80)\n    /* \"lecture/lec23.sol\":246:328  string[] private countryList = [\"South Korea\",\"North Korea\",\"USA\",\"China\",\"Japan\"] */\n  mload(0x40)\n  dup1\n  0xa0\n  add\n  0x40\n  mstore\n  dup1\n  mload(0x40)\n  dup1\n  0x40\n  add\n  0x40\n  mstore\n  dup1\n  0x0b\n  dup2\n  mstore\n  0x20\n  add\n  0x536f757468204b6f726561000000000000000000000000000000000000000000\n  dup2\n  mstore\n  pop\n  dup2\n  mstore\n  0x20\n  add\n  mload(0x40)\n  dup1\n  0x40\n  add\n  0x40\n  mstore\n  dup1\n  0x0b\n  dup2\n  mstore\n  0x20\n  add\n  0x4e6f727468204b6f726561000000000000000000000000000000000000000000\n  dup2\n  mstore\n  pop\n  dup2\n  mstore\n  0x20\n  add\n  mload(0x40)\n  dup1\n  0x40\n  add\n  0x40\n  mstore\n  dup1\n  0x03\n  dup2\n  mstore\n  0x20\n  add\n  0x5553410000000000000000000000000000000000000000000000000000000000\n  dup2\n  mstore\n  pop\n  dup2\n  mstore\n  0x20\n  add\n  mload(0x40)\n  dup1\n  0x40\n  add\n  0x40\n  mstore\n  dup1\n  0x05\n  dup2\n  mstore\n  0x20\n  add\n  0x4368696e61000000000000000000000000000000000000000000000000000000\n  dup2\n  mstore\n  pop\n  dup2\n  mstore\n  0x20\n  add\n  mload(0x40)\n  dup1\n  0x40\n  add\n  0x40\n  mstore\n  dup1\n  0x05\n  dup2\n  mstore\n  0x20\n  add\n  0x4a6170616e000000000000000000000000000000000000000000000000000000\n  dup2\n  mstore\n  pop\n  dup2\n  mstore\n  pop\n  0x00\n  swap1\n  0x05\n  tag_1\n  swap3\n  swap2\n  swap1\n  tag_2\n  jump\t// in\ntag_1:\n  pop\n    /* \"lecture/lec23.sol\":70:931  contract lec23{... */\n  callvalue\n  dup1\n  iszero\n  tag_3\n  jumpi\n  0x00\n  dup1\n  revert\ntag_3:\n  pop\n  jump(tag_4)\ntag_2:\n  dup3\n  dup1\n  sload\n  dup3\n  dup3\n  sstore\n  swap1\n  0x00\n  mstore\n  keccak256(0x00, 0x20)\n  swap1\n  dup2\n  add\n  swap3\n  dup3\n  iszero\n  tag_5\n  jumpi\n  swap2\n  0x20\n  mul\n  dup3\n  add\ntag_6:\n  dup3\n  dup2\n  gt\n  iszero\n  tag_7\n  jumpi\n  dup3\n  mload\n  dup3\n  swap1\n  dup1\n  mload\n  swap1\n  0x20\n  add\n  swap1\n  tag_8\n  swap3\n  swap2\n  swap1\n  tag_9\n  jump\t// in\ntag_8:\n  pop\n  swap2\n  0x20\n  add\n  swap2\n  swap1\n  0x01\n  add\n  swap1\n  jump(tag_6)\ntag_7:\ntag_5:\n  pop\n  swap1\n  pop\n  tag_10\n  swap2\n  swap1\n  tag_11\n  jump\t// in\ntag_10:\n  pop\n  swap1\n  jump\t// out\ntag_9:\n  dup3\n  dup1\n  sload\n  tag_12\n  swap1\n  tag_13\n  jump\t// in\ntag_12:\n  swap1\n  0x00\n  mstore\n  keccak256(0x00, 0x20)\n  swap1\n  0x1f\n  add\n  0x20\n  swap1\n  div\n  dup2\n  add\n  swap3\n  dup3\n  tag_15\n  jumpi\n  0x00\n  dup6\n  sstore\n  jump(tag_14)\ntag_15:\n  dup3\n  0x1f\n  lt\n  tag_16\n  jumpi\n  dup1\n  mload\n  not(0xff)\n  and\n  dup4\n  dup1\n  add\n  or\n  dup6\n  sstore\n  jump(tag_14)\ntag_16:\n  dup3\n  dup1\n  add\n  0x01\n  add\n  dup6\n  sstore\n  dup3\n  iszero\n  tag_14\n  jumpi\n  swap2\n  dup3\n  add\ntag_17:\n  dup3\n  dup2\n  gt\n  iszero\n  tag_18\n  jumpi\n  dup3\n  mload\n  dup3\n  sstore\n  swap2\n  0x20\n  add\n  swap2\n  swap1\n  0x01\n  add\n  swap1\n  jump(tag_17)\ntag_18:\ntag_14:\n  pop\n  swap1\n  pop\n  tag_19\n  swap2\n  swap1\n  tag_20\n  jump\t// in\ntag_19:\n  pop\n  swap1\n  jump\t// out\ntag_11:\ntag_21:\n  dup1\n  dup3\n  gt\n  iszero\n  tag_22\n  jumpi\n  0x00\n  dup2\n  dup2\n  tag_23\n  swap2\n  swap1\n  tag_24\n  jump\t// in\ntag_23:\n  pop\n  0x01\n  add\n  jump(tag_21)\ntag_22:\n  pop\n  swap1\n  jump\t// out\ntag_20:\ntag_25:\n  dup1\n  dup3\n  gt\n  iszero\n  tag_26\n  jumpi\n  0x00\n  dup2\n  0x00\n  swap1\n  sstore\n  pop\n  0x01\n  add\n  jump(tag_25)\ntag_26:\n  pop\n  swap1\n  jump\t// out\ntag_24:\n  pop\n  dup1\n  sload\n  tag_27\n  swap1\n  tag_13\n  jump\t// in\ntag_27:\n  0x00\n  dup3\n  sstore\n  dup1\n  0x1f\n  lt\n  tag_29\n  jumpi\n  pop\n  jump(tag_28)\ntag_29:\n  0x1f\n  add\n  0x20\n  swap1\n  div\n  swap1\n  0x00\n  mstore\n  keccak256(0x00, 0x20)\n  swap1\n  dup2\n  add\n  swap1\n  tag_30\n  swap2\n  swap1\n  tag_20\n  jump\t// in\ntag_30:\ntag_28:\n  pop\n  jump\t// out\n    /* \"#utility.yul\":7:327   */\ntag_13:\n    /* \"#utility.yul\":51:57   */\n  0x00\n    /* \"#utility.yul\":88:89   */\n  0x02\n    /* \"#utility.yul\":82:86   */\n  dup3\n    /* \"#utility.yul\":78:90   */\n  div\n    /* \"#utility.yul\":68:90   */\n  swap1\n  pop\n    /* \"#utility.yul\":135:136   */\n  0x01\n    /* \"#utility.yul\":129:133   */\n  dup3\n    /* \"#utility.yul\":125:137   */\n  and\n    /* \"#utility.yul\":156:174   */\n  dup1\n    /* \"#utility.yul\":146:227   */\n  tag_33\n  jumpi\n    /* \"#utility.yul\":212:216   */\n  0x7f\n    /* \"#utility.yul\":204:210   */\n  dup3\n    /* \"#utility.yul\":200:217   */\n  and\n    /* \"#utility.yul\":190:217   */\n  swap2\n  pop\n    /* \"#utility.yul\":146:227   */\ntag_33:\n    /* \"#utility.yul\":274:276   */\n  0x20\n    /* \"#utility.yul\":266:272   */\n  dup3\n    /* \"#utility.yul\":263:277   */\n  lt\n    /* \"#utility.yul\":243:261   */\n  dup2\n    /* \"#utility.yul\":240:278   */\n  eq\n    /* \"#utility.yul\":237:321   */\n  iszero\n  tag_34\n  jumpi\n    /* \"#utility.yul\":293:311   */\n  tag_35\n  tag_36\n  jump\t// in\ntag_35:\n    /* \"#utility.yul\":237:321   */\ntag_34:\n    /* \"#utility.yul\":58:327   */\n  pop\n    /* \"#utility.yul\":7:327   */\n  swap2\n  swap1\n  pop\n  jump\t// out\n    /* \"#utility.yul\":333:513   */\ntag_36:\n    /* \"#utility.yul\":381:458   */\n  0x4e487b7100000000000000000000000000000000000000000000000000000000\n    /* \"#utility.yul\":378:379   */\n  0x00\n    /* \"#utility.yul\":371:459   */\n  mstore\n    /* \"#utility.yul\":478:482   */\n  0x22\n    /* \"#utility.yul\":475:476   */\n  0x04\n    /* \"#utility.yul\":468:483   */\n  mstore\n    /* \"#utility.yul\":502:506   */\n  0x24\n    /* \"#utility.yul\":499:500   */\n  0x00\n    /* \"#utility.yul\":492:507   */\n  revert\n    /* \"lecture/lec23.sol\":70:931  contract lec23{... */\ntag_4:\n  dataSize(sub_0)\n  dup1\n  dataOffset(sub_0)\n  0x00\n  codecopy\n  0x00\n  return\nstop\n\nsub_0: assembly {\n        /* \"lecture/lec23.sol\":70:931  contract lec23{... */\n      mstore(0x40, 0x80)\n      callvalue\n      dup1\n      iszero\n      tag_1\n      jumpi\n      0x00\n      dup1\n      revert\n    tag_1:\n      pop\n      jumpi(tag_2, lt(calldatasize, 0x04))\n      shr(0xe0, calldataload(0x00))\n      dup1\n      0x1e2ae857\n      eq\n      tag_3\n      jumpi\n      dup1\n      0x268caf73\n      eq\n      tag_4\n      jumpi\n    tag_2:\n      0x00\n      dup1\n      revert\n        /* \"lecture/lec23.sol\":340:701  function useContinue() public  {... */\n    tag_3:\n      tag_5\n      tag_6\n      jump\t// in\n    tag_5:\n      stop\n        /* \"lecture/lec23.sol\":712:923  function useBreak() public {... */\n    tag_4:\n      tag_7\n      tag_8\n      jump\t// in\n    tag_7:\n      stop\n        /* \"lecture/lec23.sol\":340:701  function useContinue() public  {... */\n    tag_6:\n        /* \"lecture/lec23.sol\":385:394  uint256 i */\n      0x00\n        /* \"lecture/lec23.sol\":381:694  for(uint256 i =0; i<countryList.length; i++){... */\n    tag_10:\n        /* \"lecture/lec23.sol\":401:412  countryList */\n      0x00\n        /* \"lecture/lec23.sol\":401:419  countryList.length */\n      dup1\n      sload\n      swap1\n      pop\n        /* \"lecture/lec23.sol\":399:400  i */\n      dup2\n        /* \"lecture/lec23.sol\":399:419  i<countryList.length */\n      lt\n        /* \"lecture/lec23.sol\":381:694  for(uint256 i =0; i<countryList.length; i++){... */\n      iszero\n      tag_11\n      jumpi\n        /* \"lecture/lec23.sol\":447:448  1 */\n      0x01\n        /* \"lecture/lec23.sol\":444:445  2 */\n      0x02\n        /* \"lecture/lec23.sol\":442:443  i */\n      dup3\n        /* \"lecture/lec23.sol\":442:445  i%2 */\n      tag_13\n      swap2\n      swap1\n      tag_14\n      jump\t// in\n    tag_13:\n        /* \"lecture/lec23.sol\":442:448  i%2==1 */\n      eq\n        /* \"lecture/lec23.sol\":439:631  if(i%2==1){ // odds... */\n      iszero\n      tag_15\n      jumpi\n        /* \"lecture/lec23.sol\":608:616  continue */\n      jump(tag_12)\n        /* \"lecture/lec23.sol\":439:631  if(i%2==1){ // odds... */\n    tag_15:\n        /* \"lecture/lec23.sol\":666:667  i */\n      dup1\n        /* \"lecture/lec23.sol\":649:683  CountryIndexName(i,countryList[i]) */\n      0xc3750795857a09dd89d722c915dbd49e7496a6f23cad9de450838745e45f9329\n        /* \"lecture/lec23.sol\":668:679  countryList */\n      0x00\n        /* \"lecture/lec23.sol\":680:681  i */\n      dup4\n        /* \"lecture/lec23.sol\":668:682  countryList[i] */\n      dup2\n      sload\n      dup2\n      lt\n      tag_16\n      jumpi\n      tag_17\n      tag_18\n      jump\t// in\n    tag_17:\n    tag_16:\n      swap1\n      0x00\n      mstore\n      keccak256(0x00, 0x20)\n      add\n        /* \"lecture/lec23.sol\":649:683  CountryIndexName(i,countryList[i]) */\n      mload(0x40)\n      tag_20\n      swap2\n      swap1\n      tag_21\n      jump\t// in\n    tag_20:\n      mload(0x40)\n      dup1\n      swap2\n      sub\n      swap1\n      log2\n        /* \"lecture/lec23.sol\":381:694  for(uint256 i =0; i<countryList.length; i++){... */\n    tag_12:\n        /* \"lecture/lec23.sol\":421:424  i++ */\n      dup1\n      dup1\n      tag_22\n      swap1\n      tag_23\n      jump\t// in\n    tag_22:\n      swap2\n      pop\n      pop\n        /* \"lecture/lec23.sol\":381:694  for(uint256 i =0; i<countryList.length; i++){... */\n      jump(tag_10)\n    tag_11:\n      pop\n        /* \"lecture/lec23.sol\":340:701  function useContinue() public  {... */\n      jump\t// out\n        /* \"lecture/lec23.sol\":712:923  function useBreak() public {... */\n    tag_8:\n        /* \"lecture/lec23.sol\":753:762  uint256 i */\n      0x00\n        /* \"lecture/lec23.sol\":749:916  for(uint256 i =0; i<countryList.length; i++){... */\n    tag_25:\n        /* \"lecture/lec23.sol\":769:780  countryList */\n      0x00\n        /* \"lecture/lec23.sol\":769:787  countryList.length */\n      dup1\n      sload\n      swap1\n      pop\n        /* \"lecture/lec23.sol\":767:768  i */\n      dup2\n        /* \"lecture/lec23.sol\":767:787  i<countryList.length */\n      lt\n        /* \"lecture/lec23.sol\":749:916  for(uint256 i =0; i<countryList.length; i++){... */\n      iszero\n      tag_26\n      jumpi\n        /* \"lecture/lec23.sol\":813:814  2 */\n      0x02\n        /* \"lecture/lec23.sol\":810:811  i */\n      dup2\n        /* \"lecture/lec23.sol\":810:814  i==2 */\n      eq\n        /* \"lecture/lec23.sol\":807:853  if(i==2){... */\n      iszero\n      tag_28\n      jumpi\n        /* \"lecture/lec23.sol\":833:838  break */\n      jump(tag_26)\n        /* \"lecture/lec23.sol\":807:853  if(i==2){... */\n    tag_28:\n        /* \"lecture/lec23.sol\":888:889  i */\n      dup1\n        /* \"lecture/lec23.sol\":871:905  CountryIndexName(i,countryList[i]) */\n      0xc3750795857a09dd89d722c915dbd49e7496a6f23cad9de450838745e45f9329\n        /* \"lecture/lec23.sol\":890:901  countryList */\n      0x00\n        /* \"lecture/lec23.sol\":902:903  i */\n      dup4\n        /* \"lecture/lec23.sol\":890:904  countryList[i] */\n      dup2\n      sload\n      dup2\n      lt\n      tag_29\n      jumpi\n      tag_30\n      tag_18\n      jump\t// in\n    tag_30:\n    tag_29:\n      swap1\n      0x00\n      mstore\n      keccak256(0x00, 0x20)\n      add\n        /* \"lecture/lec23.sol\":871:905  CountryIndexName(i,countryList[i]) */\n      mload(0x40)\n      tag_32\n      swap2\n      swap1\n      tag_21\n      jump\t// in\n    tag_32:\n      mload(0x40)\n      dup1\n      swap2\n      sub\n      swap1\n      log2\n        /* \"lecture/lec23.sol\":789:792  i++ */\n      dup1\n      dup1\n      tag_33\n      swap1\n      tag_23\n      jump\t// in\n    tag_33:\n      swap2\n      pop\n      pop\n        /* \"lecture/lec23.sol\":749:916  for(uint256 i =0; i<countryList.length; i++){... */\n      jump(tag_25)\n    tag_26:\n      pop\n        /* \"lecture/lec23.sol\":712:923  function useBreak() public {... */\n      jump\t// out\n        /* \"#utility.yul\":31:833   */\n    tag_35:\n        /* \"#utility.yul\":116:119   */\n      0x00\n        /* \"#utility.yul\":153:158   */\n      dup2\n        /* \"#utility.yul\":147:159   */\n      sload\n        /* \"#utility.yul\":182:218   */\n      tag_37\n        /* \"#utility.yul\":208:217   */\n      dup2\n        /* \"#utility.yul\":182:218   */\n      tag_38\n      jump\t// in\n    tag_37:\n        /* \"#utility.yul\":234:305   */\n      tag_39\n        /* \"#utility.yul\":298:304   */\n      dup2\n        /* \"#utility.yul\":293:296   */\n      dup7\n        /* \"#utility.yul\":234:305   */\n      tag_40\n      jump\t// in\n    tag_39:\n        /* \"#utility.yul\":227:305   */\n      swap5\n      pop\n        /* \"#utility.yul\":336:337   */\n      0x01\n        /* \"#utility.yul\":325:334   */\n      dup3\n        /* \"#utility.yul\":321:338   */\n      and\n        /* \"#utility.yul\":352:353   */\n      0x00\n        /* \"#utility.yul\":347:482   */\n      dup2\n      eq\n      tag_42\n      jumpi\n        /* \"#utility.yul\":496:497   */\n      0x01\n        /* \"#utility.yul\":491:827   */\n      dup2\n      eq\n      tag_43\n      jumpi\n        /* \"#utility.yul\":314:827   */\n      jump(tag_41)\n        /* \"#utility.yul\":347:482   */\n    tag_42:\n        /* \"#utility.yul\":431:435   */\n      0xff\n        /* \"#utility.yul\":427:436   */\n      not\n        /* \"#utility.yul\":416:425   */\n      dup4\n        /* \"#utility.yul\":412:437   */\n      and\n        /* \"#utility.yul\":407:410   */\n      dup7\n        /* \"#utility.yul\":400:438   */\n      mstore\n        /* \"#utility.yul\":467:471   */\n      0x20\n        /* \"#utility.yul\":462:465   */\n      dup7\n        /* \"#utility.yul\":458:472   */\n      add\n        /* \"#utility.yul\":451:472   */\n      swap4\n      pop\n        /* \"#utility.yul\":347:482   */\n      jump(tag_41)\n        /* \"#utility.yul\":491:827   */\n    tag_43:\n        /* \"#utility.yul\":558:596   */\n      tag_44\n        /* \"#utility.yul\":590:595   */\n      dup6\n        /* \"#utility.yul\":558:596   */\n      tag_45\n      jump\t// in\n    tag_44:\n        /* \"#utility.yul\":618:619   */\n      0x00\n        /* \"#utility.yul\":632:786   */\n    tag_46:\n        /* \"#utility.yul\":646:652   */\n      dup4\n        /* \"#utility.yul\":643:644   */\n      dup2\n        /* \"#utility.yul\":640:653   */\n      lt\n        /* \"#utility.yul\":632:786   */\n      iszero\n      tag_48\n      jumpi\n        /* \"#utility.yul\":720:727   */\n      dup2\n        /* \"#utility.yul\":714:728   */\n      sload\n        /* \"#utility.yul\":710:711   */\n      dup2\n        /* \"#utility.yul\":705:708   */\n      dup10\n        /* \"#utility.yul\":701:712   */\n      add\n        /* \"#utility.yul\":694:729   */\n      mstore\n        /* \"#utility.yul\":770:771   */\n      0x01\n        /* \"#utility.yul\":761:768   */\n      dup3\n        /* \"#utility.yul\":757:772   */\n      add\n        /* \"#utility.yul\":746:772   */\n      swap2\n      pop\n        /* \"#utility.yul\":668:672   */\n      0x20\n        /* \"#utility.yul\":665:666   */\n      dup2\n        /* \"#utility.yul\":661:673   */\n      add\n        /* \"#utility.yul\":656:673   */\n      swap1\n      pop\n        /* \"#utility.yul\":632:786   */\n      jump(tag_46)\n    tag_48:\n        /* \"#utility.yul\":815:816   */\n      dup1\n        /* \"#utility.yul\":810:813   */\n      dup9\n        /* \"#utility.yul\":806:817   */\n      add\n        /* \"#utility.yul\":799:817   */\n      swap6\n      pop\n        /* \"#utility.yul\":498:827   */\n      pop\n      pop\n        /* \"#utility.yul\":314:827   */\n    tag_41:\n      pop\n        /* \"#utility.yul\":120:833   */\n      pop\n      pop\n        /* \"#utility.yul\":31:833   */\n      swap3\n      swap2\n      pop\n      pop\n      jump\t// out\n        /* \"#utility.yul\":839:1146   */\n    tag_21:\n        /* \"#utility.yul\":949:953   */\n      0x00\n        /* \"#utility.yul\":987:989   */\n      0x20\n        /* \"#utility.yul\":976:985   */\n      dup3\n        /* \"#utility.yul\":972:990   */\n      add\n        /* \"#utility.yul\":964:990   */\n      swap1\n      pop\n        /* \"#utility.yul\":1036:1045   */\n      dup2\n        /* \"#utility.yul\":1030:1034   */\n      dup2\n        /* \"#utility.yul\":1026:1046   */\n      sub\n        /* \"#utility.yul\":1022:1023   */\n      0x00\n        /* \"#utility.yul\":1011:1020   */\n      dup4\n        /* \"#utility.yul\":1007:1024   */\n      add\n        /* \"#utility.yul\":1000:1047   */\n      mstore\n        /* \"#utility.yul\":1064:1139   */\n      tag_50\n        /* \"#utility.yul\":1134:1138   */\n      dup2\n        /* \"#utility.yul\":1125:1131   */\n      dup5\n        /* \"#utility.yul\":1064:1139   */\n      tag_35\n      jump\t// in\n    tag_50:\n        /* \"#utility.yul\":1056:1139   */\n      swap1\n      pop\n        /* \"#utility.yul\":839:1146   */\n      swap3\n      swap2\n      pop\n      pop\n      jump\t// out\n        /* \"#utility.yul\":1152:1293   */\n    tag_45:\n        /* \"#utility.yul\":1201:1205   */\n      0x00\n        /* \"#utility.yul\":1224:1227   */\n      dup2\n        /* \"#utility.yul\":1216:1227   */\n      swap1\n      pop\n        /* \"#utility.yul\":1247:1250   */\n      dup2\n        /* \"#utility.yul\":1244:1245   */\n      0x00\n        /* \"#utility.yul\":1237:1251   */\n      mstore\n        /* \"#utility.yul\":1281:1285   */\n      0x20\n        /* \"#utility.yul\":1278:1279   */\n      0x00\n        /* \"#utility.yul\":1268:1286   */\n      keccak256\n        /* \"#utility.yul\":1260:1286   */\n      swap1\n      pop\n        /* \"#utility.yul\":1152:1293   */\n      swap2\n      swap1\n      pop\n      jump\t// out\n        /* \"#utility.yul\":1299:1468   */\n    tag_40:\n        /* \"#utility.yul\":1383:1394   */\n      0x00\n        /* \"#utility.yul\":1417:1423   */\n      dup3\n        /* \"#utility.yul\":1412:1415   */\n      dup3\n        /* \"#utility.yul\":1405:1424   */\n      mstore\n        /* \"#utility.yul\":1457:1461   */\n      0x20\n        /* \"#utility.yul\":1452:1455   */\n      dup3\n        /* \"#utility.yul\":1448:1462   */\n      add\n        /* \"#utility.yul\":1433:1462   */\n      swap1\n      pop\n        /* \"#utility.yul\":1299:1468   */\n      swap3\n      swap2\n      pop\n      pop\n      jump\t// out\n        /* \"#utility.yul\":1474:1551   */\n    tag_53:\n        /* \"#utility.yul\":1511:1518   */\n      0x00\n        /* \"#utility.yul\":1540:1545   */\n      dup2\n        /* \"#utility.yul\":1529:1545   */\n      swap1\n      pop\n        /* \"#utility.yul\":1474:1551   */\n      swap2\n      swap1\n      pop\n      jump\t// out\n        /* \"#utility.yul\":1557:1877   */\n    tag_38:\n        /* \"#utility.yul\":1601:1607   */\n      0x00\n        /* \"#utility.yul\":1638:1639   */\n      0x02\n        /* \"#utility.yul\":1632:1636   */\n      dup3\n        /* \"#utility.yul\":1628:1640   */\n      div\n        /* \"#utility.yul\":1618:1640   */\n      swap1\n      pop\n        /* \"#utility.yul\":1685:1686   */\n      0x01\n        /* \"#utility.yul\":1679:1683   */\n      dup3\n        /* \"#utility.yul\":1675:1687   */\n      and\n        /* \"#utility.yul\":1706:1724   */\n      dup1\n        /* \"#utility.yul\":1696:1777   */\n      tag_56\n      jumpi\n        /* \"#utility.yul\":1762:1766   */\n      0x7f\n        /* \"#utility.yul\":1754:1760   */\n      dup3\n        /* \"#utility.yul\":1750:1767   */\n      and\n        /* \"#utility.yul\":1740:1767   */\n      swap2\n      pop\n        /* \"#utility.yul\":1696:1777   */\n    tag_56:\n        /* \"#utility.yul\":1824:1826   */\n      0x20\n        /* \"#utility.yul\":1816:1822   */\n      dup3\n        /* \"#utility.yul\":1813:1827   */\n      lt\n        /* \"#utility.yul\":1793:1811   */\n      dup2\n        /* \"#utility.yul\":1790:1828   */\n      eq\n        /* \"#utility.yul\":1787:1871   */\n      iszero\n      tag_57\n      jumpi\n        /* \"#utility.yul\":1843:1861   */\n      tag_58\n      tag_59\n      jump\t// in\n    tag_58:\n        /* \"#utility.yul\":1787:1871   */\n    tag_57:\n        /* \"#utility.yul\":1608:1877   */\n      pop\n        /* \"#utility.yul\":1557:1877   */\n      swap2\n      swap1\n      pop\n      jump\t// out\n        /* \"#utility.yul\":1883:2116   */\n    tag_23:\n        /* \"#utility.yul\":1922:1925   */\n      0x00\n        /* \"#utility.yul\":1945:1969   */\n      tag_61\n        /* \"#utility.yul\":1963:1968   */\n      dup3\n        /* \"#utility.yul\":1945:1969   */\n      tag_53\n      jump\t// in\n    tag_61:\n        /* \"#utility.yul\":1936:1969   */\n      swap2\n      pop\n        /* \"#utility.yul\":1991:2057   */\n      0xffffffffffffffffffffffffffffffffffffffffffffffffffffffffffffffff\n        /* \"#utility.yul\":1984:1989   */\n      dup3\n        /* \"#utility.yul\":1981:2058   */\n      eq\n        /* \"#utility.yul\":1978:2081   */\n      iszero\n      tag_62\n      jumpi\n        /* \"#utility.yul\":2061:2079   */\n      tag_63\n      tag_64\n      jump\t// in\n    tag_63:\n        /* \"#utility.yul\":1978:2081   */\n    tag_62:\n        /* \"#utility.yul\":2108:2109   */\n      0x01\n        /* \"#utility.yul\":2101:2106   */\n      dup3\n        /* \"#utility.yul\":2097:2110   */\n      add\n        /* \"#utility.yul\":2090:2110   */\n      swap1\n      pop\n        /* \"#utility.yul\":1883:2116   */\n      swap2\n      swap1\n      pop\n      jump\t// out\n        /* \"#utility.yul\":2122:2298   */\n    tag_14:\n        /* \"#utility.yul\":2154:2155   */\n      0x00\n        /* \"#utility.yul\":2171:2191   */\n      tag_66\n        /* \"#utility.yul\":2189:2190   */\n      dup3\n        /* \"#utility.yul\":2171:2191   */\n      tag_53\n      jump\t// in\n    tag_66:\n        /* \"#utility.yul\":2166:2191   */\n      swap2\n      pop\n        /* \"#utility.yul\":2205:2225   */\n      tag_67\n        /* \"#utility.yul\":2223:2224   */\n      dup4\n        /* \"#utility.yul\":2205:2225   */\n      tag_53\n      jump\t// in\n    tag_67:\n        /* \"#utility.yul\":2200:2225   */\n      swap3\n      pop\n        /* \"#utility.yul\":2244:2245   */\n      dup3\n        /* \"#utility.yul\":2234:2269   */\n      tag_68\n      jumpi\n        /* \"#utility.yul\":2249:2267   */\n      tag_69\n      tag_70\n      jump\t// in\n    tag_69:\n        /* \"#utility.yul\":2234:2269   */\n    tag_68:\n        /* \"#utility.yul\":2290:2291   */\n      dup3\n        /* \"#utility.yul\":2287:2288   */\n      dup3\n        /* \"#utility.yul\":2283:2292   */\n      mod\n        /* \"#utility.yul\":2278:2292   */\n      swap1\n      pop\n        /* \"#utility.yul\":2122:2298   */\n      swap3\n      swap2\n      pop\n      pop\n      jump\t// out\n        /* \"#utility.yul\":2304:2484   */\n    tag_64:\n        /* \"#utility.yul\":2352:2429   */\n      0x4e487b7100000000000000000000000000000000000000000000000000000000\n        /* \"#utility.yul\":2349:2350   */\n      0x00\n        /* \"#utility.yul\":2342:2430   */\n      mstore\n        /* \"#utility.yul\":2449:2453   */\n      0x11\n        /* \"#utility.yul\":2446:2447   */\n      0x04\n        /* \"#utility.yul\":2439:2454   */\n      mstore\n        /* \"#utility.yul\":2473:2477   */\n      0x24\n        /* \"#utility.yul\":2470:2471   */\n      0x00\n        /* \"#utility.yul\":2463:2478   */\n      revert\n        /* \"#utility.yul\":2490:2670   */\n    tag_70:\n        /* \"#utility.yul\":2538:2615   */\n      0x4e487b7100000000000000000000000000000000000000000000000000000000\n        /* \"#utility.yul\":2535:2536   */\n      0x00\n        /* \"#utility.yul\":2528:2616   */\n      mstore\n        /* \"#utility.yul\":2635:2639   */\n      0x12\n        /* \"#utility.yul\":2632:2633   */\n      0x04\n        /* \"#utility.yul\":2625:2640   */\n      mstore\n        /* \"#utility.yul\":2659:2663   */\n      0x24\n        /* \"#utility.yul\":2656:2657   */\n      0x00\n        /* \"#utility.yul\":2649:2664   */\n      revert\n        /* \"#utility.yul\":2676:2856   */\n    tag_59:\n        /* \"#utility.yul\":2724:2801   */\n      0x4e487b7100000000000000000000000000000000000000000000000000000000\n        /* \"#utility.yul\":2721:2722   */\n      0x00\n        /* \"#utility.yul\":2714:2802   */\n      mstore\n        /* \"#utility.yul\":2821:2825   */\n      0x22\n        /* \"#utility.yul\":2818:2819   */\n      0x04\n        /* \"#utility.yul\":2811:2826   */\n      mstore\n        /* \"#utility.yul\":2845:2849   */\n      0x24\n        /* \"#utility.yul\":2842:2843   */\n      0x00\n        /* \"#utility.yul\":2835:2850   */\n      revert\n        /* \"#utility.yul\":2862:3042   */\n    tag_18:\n        /* \"#utility.yul\":2910:2987   */\n      0x4e487b7100000000000000000000000000000000000000000000000000000000\n        /* \"#utility.yul\":2907:2908   */\n      0x00\n        /* \"#utility.yul\":2900:2988   */\n      mstore\n        /* \"#utility.yul\":3007:3011   */\n      0x32\n        /* \"#utility.yul\":3004:3005   */\n      0x04\n        /* \"#utility.yul\":2997:3012   */\n      mstore\n        /* \"#utility.yul\":3031:3035   */\n      0x24\n        /* \"#utility.yul\":3028:3029   */\n      0x00\n        /* \"#utility.yul\":3021:3036   */\n      revert\n\n    auxdata: 0xa2646970667358221220f4c5b834e1f3a14c3f4032f61599bef759daa2ba3a56f56365c1aa9fe104b3cc64736f6c63430008070033\n}\n",
				"bytecode": {
					"linkReferences": {},
					"object": "60806040526040518060a001604052806040518060400160405280600b81526020017f536f757468204b6f72656100000000000000000000000000000000000000000081525081526020016040518060400160405280600b81526020017f4e6f727468204b6f72656100000000000000000000000000000000000000000081525081526020016040518060400160405280600381526020017f555341000000000000000000000000000000000000000000000000000000000081525081526020016040518060400160405280600581526020017f4368696e6100000000000000000000000000000000000000000000000000000081525081526020016040518060400160405280600581526020017f4a6170616e0000000000000000000000000000000000000000000000000000008152508152506000906005610144929190610157565b5034801561015157600080fd5b5061031f565b8280548282559060005260206000209081019282156101a6579160200282015b828111156101a55782518290805190602001906101959291906101b7565b5091602001919060010190610177565b5b5090506101b3919061023d565b5090565b8280546101c3906102be565b90600052602060002090601f0160209004810192826101e5576000855561022c565b82601f106101fe57805160ff191683800117855561022c565b8280016001018555821561022c579182015b8281111561022b578251825591602001919060010190610210565b5b5090506102399190610261565b5090565b5b8082111561025d5760008181610254919061027e565b5060010161023e565b5090565b5b8082111561027a576000816000905550600101610262565b5090565b50805461028a906102be565b6000825580601f1061029c57506102bb565b601f0160209004906000526020600020908101906102ba9190610261565b5b50565b600060028204905060018216806102d657607f821691505b602082108114156102ea576102e96102f0565b5b50919050565b7f4e487b7100000000000000000000000000000000000000000000000000000000600052602260045260246000fd5b6103de8061032e6000396000f3fe608060405234801561001057600080fd5b50600436106100365760003560e01c80631e2ae8571461003b578063268caf7314610045575b600080fd5b61004361004f565b005b61004d6100e5565b005b60005b6000805490508110156100e257600160028261006e91906102bb565b1415610079576100cf565b807fc3750795857a09dd89d722c915dbd49e7496a6f23cad9de450838745e45f9329600083815481106100af576100ae610379565b5b906000526020600020016040516100c691906101ee565b60405180910390a25b80806100da90610272565b915050610052565b50565b60005b60008054905081101561016b5760028114156101035761016b565b807fc3750795857a09dd89d722c915dbd49e7496a6f23cad9de450838745e45f93296000838154811061013957610138610379565b5b9060005260206000200160405161015091906101ee565b60405180910390a2808061016390610272565b9150506100e8565b50565b6000815461017b81610240565b6101858186610225565b945060018216600081146101a057600181146101b2576101e5565b60ff19831686526020860193506101e5565b6101bb85610210565b60005b838110156101dd578154818901526001820191506020810190506101be565b808801955050505b50505092915050565b60006020820190508181036000830152610208818461016e565b905092915050565b60008190508160005260206000209050919050565b600082825260208201905092915050565b6000819050919050565b6000600282049050600182168061025857607f821691505b6020821081141561026c5761026b61034a565b5b50919050565b600061027d82610236565b91507fffffffffffffffffffffffffffffffffffffffffffffffffffffffffffffffff8214156102b0576102af6102ec565b5b600182019050919050565b60006102c682610236565b91506102d183610236565b9250826102e1576102e061031b565b5b828206905092915050565b7f4e487b7100000000000000000000000000000000000000000000000000000000600052601160045260246000fd5b7f4e487b7100000000000000000000000000000000000000000000000000000000600052601260045260246000fd5b7f4e487b7100000000000000000000000000000000000000000000000000000000600052602260045260246000fd5b7f4e487b7100000000000000000000000000000000000000000000000000000000600052603260045260246000fdfea2646970667358221220f4c5b834e1f3a14c3f4032f61599bef759daa2ba3a56f56365c1aa9fe104b3cc64736f6c63430008070033",
					"opcodes": "PUSH1 0x80 PUSH1 0x40 MSTORE PUSH1 0x40 MLOAD DUP1 PUSH1 0xA0 ADD PUSH1 0x40 MSTORE DUP1 PUSH1 0x40 MLOAD DUP1 PUSH1 0x40 ADD PUSH1 0x40 MSTORE DUP1 PUSH1 0xB DUP2 MSTORE PUSH1 0x20 ADD PUSH32 0x536F757468204B6F726561000000000000000000000000000000000000000000 DUP2 MSTORE POP DUP2 MSTORE PUSH1 0x20 ADD PUSH1 0x40 MLOAD DUP1 PUSH1 0x40 ADD PUSH1 0x40 MSTORE DUP1 PUSH1 0xB DUP2 MSTORE PUSH1 0x20 ADD PUSH32 0x4E6F727468204B6F726561000000000000000000000000000000000000000000 DUP2 MSTORE POP DUP2 MSTORE PUSH1 0x20 ADD PUSH1 0x40 MLOAD DUP1 PUSH1 0x40 ADD PUSH1 0x40 MSTORE DUP1 PUSH1 0x3 DUP2 MSTORE PUSH1 0x20 ADD PUSH32 0x5553410000000000000000000000000000000000000000000000000000000000 DUP2 MSTORE POP DUP2 MSTORE PUSH1 0x20 ADD PUSH1 0x40 MLOAD DUP1 PUSH1 0x40 ADD PUSH1 0x40 MSTORE DUP1 PUSH1 0x5 DUP2 MSTORE PUSH1 0x20 ADD PUSH32 0x4368696E61000000000000000000000000000000000000000000000000000000 DUP2 MSTORE POP DUP2 MSTORE PUSH1 0x20 ADD PUSH1 0x40 MLOAD DUP1 PUSH1 0x40 ADD PUSH1 0x40 MSTORE DUP1 PUSH1 0x5 DUP2 MSTORE PUSH1 0x20 ADD PUSH32 0x4A6170616E000000000000000000000000000000000000000000000000000000 DUP2 MSTORE POP DUP2 MSTORE POP PUSH1 0x0 SWAP1 PUSH1 0x5 PUSH2 0x144 SWAP3 SWAP2 SWAP1 PUSH2 0x157 JUMP JUMPDEST POP CALLVALUE DUP1 ISZERO PUSH2 0x151 JUMPI PUSH1 0x0 DUP1 REVERT JUMPDEST POP PUSH2 0x31F JUMP JUMPDEST DUP3 DUP1 SLOAD DUP3 DUP3 SSTORE SWAP1 PUSH1 0x0 MSTORE PUSH1 0x20 PUSH1 0x0 KECCAK256 SWAP1 DUP2 ADD SWAP3 DUP3 ISZERO PUSH2 0x1A6 JUMPI SWAP2 PUSH1 0x20 MUL DUP3 ADD JUMPDEST DUP3 DUP2 GT ISZERO PUSH2 0x1A5 JUMPI DUP3 MLOAD DUP3 SWAP1 DUP1 MLOAD SWAP1 PUSH1 0x20 ADD SWAP1 PUSH2 0x195 SWAP3 SWAP2 SWAP1 PUSH2 0x1B7 JUMP JUMPDEST POP SWAP2 PUSH1 0x20 ADD SWAP2 SWAP1 PUSH1 0x1 ADD SWAP1 PUSH2 0x177 JUMP JUMPDEST JUMPDEST POP SWAP1 POP PUSH2 0x1B3 SWAP2 SWAP1 PUSH2 0x23D JUMP JUMPDEST POP SWAP1 JUMP JUMPDEST DUP3 DUP1 SLOAD PUSH2 0x1C3 SWAP1 PUSH2 0x2BE JUMP JUMPDEST SWAP1 PUSH1 0x0 MSTORE PUSH1 0x20 PUSH1 0x0 KECCAK256 SWAP1 PUSH1 0x1F ADD PUSH1 0x20 SWAP1 DIV DUP2 ADD SWAP3 DUP3 PUSH2 0x1E5 JUMPI PUSH1 0x0 DUP6 SSTORE PUSH2 0x22C JUMP JUMPDEST DUP3 PUSH1 0x1F LT PUSH2 0x1FE JUMPI DUP1 MLOAD PUSH1 0xFF NOT AND DUP4 DUP1 ADD OR DUP6 SSTORE PUSH2 0x22C JUMP JUMPDEST DUP3 DUP1 ADD PUSH1 0x1 ADD DUP6 SSTORE DUP3 ISZERO PUSH2 0x22C JUMPI SWAP2 DUP3 ADD JUMPDEST DUP3 DUP2 GT ISZERO PUSH2 0x22B JUMPI DUP3 MLOAD DUP3 SSTORE SWAP2 PUSH1 0x20 ADD SWAP2 SWAP1 PUSH1 0x1 ADD SWAP1 PUSH2 0x210 JUMP JUMPDEST JUMPDEST POP SWAP1 POP PUSH2 0x239 SWAP2 SWAP1 PUSH2 0x261 JUMP JUMPDEST POP SWAP1 JUMP JUMPDEST JUMPDEST DUP1 DUP3 GT ISZERO PUSH2 0x25D JUMPI PUSH1 0x0 DUP2 DUP2 PUSH2 0x254 SWAP2 SWAP1 PUSH2 0x27E JUMP JUMPDEST POP PUSH1 0x1 ADD PUSH2 0x23E JUMP JUMPDEST POP SWAP1 JUMP JUMPDEST JUMPDEST DUP1 DUP3 GT ISZERO PUSH2 0x27A JUMPI PUSH1 0x0 DUP2 PUSH1 0x0 SWAP1 SSTORE POP PUSH1 0x1 ADD PUSH2 0x262 JUMP JUMPDEST POP SWAP1 JUMP JUMPDEST POP DUP1 SLOAD PUSH2 0x28A SWAP1 PUSH2 0x2BE JUMP JUMPDEST PUSH1 0x0 DUP3 SSTORE DUP1 PUSH1 0x1F LT PUSH2 0x29C JUMPI POP PUSH2 0x2BB JUMP JUMPDEST PUSH1 0x1F ADD PUSH1 0x20 SWAP1 DIV SWAP1 PUSH1 0x0 MSTORE PUSH1 0x20 PUSH1 0x0 KECCAK256 SWAP1 DUP2 ADD SWAP1 PUSH2 0x2BA SWAP2 SWAP1 PUSH2 0x261 JUMP JUMPDEST JUMPDEST POP JUMP JUMPDEST PUSH1 0x0 PUSH1 0x2 DUP3 DIV SWAP1 POP PUSH1 0x1 DUP3 AND DUP1 PUSH2 0x2D6 JUMPI PUSH1 0x7F DUP3 AND SWAP2 POP JUMPDEST PUSH1 0x20 DUP3 LT DUP2 EQ ISZERO PUSH2 0x2EA JUMPI PUSH2 0x2E9 PUSH2 0x2F0 JUMP JUMPDEST JUMPDEST POP SWAP2 SWAP1 POP JUMP JUMPDEST PUSH32 0x4E487B7100000000000000000000000000000000000000000000000000000000 PUSH1 0x0 MSTORE PUSH1 0x22 PUSH1 0x4 MSTORE PUSH1 0x24 PUSH1 0x0 REVERT JUMPDEST PUSH2 0x3DE DUP1 PUSH2 0x32E PUSH1 0x0 CODECOPY PUSH1 0x0 RETURN INVALID PUSH1 0x80 PUSH1 0x40 MSTORE CALLVALUE DUP1 ISZERO PUSH2 0x10 JUMPI PUSH1 0x0 DUP1 REVERT JUMPDEST POP PUSH1 0x4 CALLDATASIZE LT PUSH2 0x36 JUMPI PUSH1 0x0 CALLDATALOAD PUSH1 0xE0 SHR DUP1 PUSH4 0x1E2AE857 EQ PUSH2 0x3B JUMPI DUP1 PUSH4 0x268CAF73 EQ PUSH2 0x45 JUMPI JUMPDEST PUSH1 0x0 DUP1 REVERT JUMPDEST PUSH2 0x43 PUSH2 0x4F JUMP JUMPDEST STOP JUMPDEST PUSH2 0x4D PUSH2 0xE5 JUMP JUMPDEST STOP JUMPDEST PUSH1 0x0 JUMPDEST PUSH1 0x0 DUP1 SLOAD SWAP1 POP DUP2 LT ISZERO PUSH2 0xE2 JUMPI PUSH1 0x1 PUSH1 0x2 DUP3 PUSH2 0x6E SWAP2 SWAP1 PUSH2 0x2BB JUMP JUMPDEST EQ ISZERO PUSH2 0x79 JUMPI PUSH2 0xCF JUMP JUMPDEST DUP1 PUSH32 0xC3750795857A09DD89D722C915DBD49E7496A6F23CAD9DE450838745E45F9329 PUSH1 0x0 DUP4 DUP2 SLOAD DUP2 LT PUSH2 0xAF JUMPI PUSH2 0xAE PUSH2 0x379 JUMP JUMPDEST JUMPDEST SWAP1 PUSH1 0x0 MSTORE PUSH1 0x20 PUSH1 0x0 KECCAK256 ADD PUSH1 0x40 MLOAD PUSH2 0xC6 SWAP2 SWAP1 PUSH2 0x1EE JUMP JUMPDEST PUSH1 0x40 MLOAD DUP1 SWAP2 SUB SWAP1 LOG2 JUMPDEST DUP1 DUP1 PUSH2 0xDA SWAP1 PUSH2 0x272 JUMP JUMPDEST SWAP2 POP POP PUSH2 0x52 JUMP JUMPDEST POP JUMP JUMPDEST PUSH1 0x0 JUMPDEST PUSH1 0x0 DUP1 SLOAD SWAP1 POP DUP2 LT ISZERO PUSH2 0x16B JUMPI PUSH1 0x2 DUP2 EQ ISZERO PUSH2 0x103 JUMPI PUSH2 0x16B JUMP JUMPDEST DUP1 PUSH32 0xC3750795857A09DD89D722C915DBD49E7496A6F23CAD9DE450838745E45F9329 PUSH1 0x0 DUP4 DUP2 SLOAD DUP2 LT PUSH2 0x139 JUMPI PUSH2 0x138 PUSH2 0x379 JUMP JUMPDEST JUMPDEST SWAP1 PUSH1 0x0 MSTORE PUSH1 0x20 PUSH1 0x0 KECCAK256 ADD PUSH1 0x40 MLOAD PUSH2 0x150 SWAP2 SWAP1 PUSH2 0x1EE JUMP JUMPDEST PUSH1 0x40 MLOAD DUP1 SWAP2 SUB SWAP1 LOG2 DUP1 DUP1 PUSH2 0x163 SWAP1 PUSH2 0x272 JUMP JUMPDEST SWAP2 POP POP PUSH2 0xE8 JUMP JUMPDEST POP JUMP JUMPDEST PUSH1 0x0 DUP2 SLOAD PUSH2 0x17B DUP2 PUSH2 0x240 JUMP JUMPDEST PUSH2 0x185 DUP2 DUP7 PUSH2 0x225 JUMP JUMPDEST SWAP5 POP PUSH1 0x1 DUP3 AND PUSH1 0x0 DUP2 EQ PUSH2 0x1A0 JUMPI PUSH1 0x1 DUP2 EQ PUSH2 0x1B2 JUMPI PUSH2 0x1E5 JUMP JUMPDEST PUSH1 0xFF NOT DUP4 AND DUP7 MSTORE PUSH1 0x20 DUP7 ADD SWAP4 POP PUSH2 0x1E5 JUMP JUMPDEST PUSH2 0x1BB DUP6 PUSH2 0x210 JUMP JUMPDEST PUSH1 0x0 JUMPDEST DUP4 DUP2 LT ISZERO PUSH2 0x1DD JUMPI DUP2 SLOAD DUP2 DUP10 ADD MSTORE PUSH1 0x1 DUP3 ADD SWAP2 POP PUSH1 0x20 DUP2 ADD SWAP1 POP PUSH2 0x1BE JUMP JUMPDEST DUP1 DUP9 ADD SWAP6 POP POP POP JUMPDEST POP POP POP SWAP3 SWAP2 POP POP JUMP JUMPDEST PUSH1 0x0 PUSH1 0x20 DUP3 ADD SWAP1 POP DUP2 DUP2 SUB PUSH1 0x0 DUP4 ADD MSTORE PUSH2 0x208 DUP2 DUP5 PUSH2 0x16E JUMP JUMPDEST SWAP1 POP SWAP3 SWAP2 POP POP JUMP JUMPDEST PUSH1 0x0 DUP2 SWAP1 POP DUP2 PUSH1 0x0 MSTORE PUSH1 0x20 PUSH1 0x0 KECCAK256 SWAP1 POP SWAP2 SWAP1 POP JUMP JUMPDEST PUSH1 0x0 DUP3 DUP3 MSTORE PUSH1 0x20 DUP3 ADD SWAP1 POP SWAP3 SWAP2 POP POP JUMP JUMPDEST PUSH1 0x0 DUP2 SWAP1 POP SWAP2 SWAP1 POP JUMP JUMPDEST PUSH1 0x0 PUSH1 0x2 DUP3 DIV SWAP1 POP PUSH1 0x1 DUP3 AND DUP1 PUSH2 0x258 JUMPI PUSH1 0x7F DUP3 AND SWAP2 POP JUMPDEST PUSH1 0x20 DUP3 LT DUP2 EQ ISZERO PUSH2 0x26C JUMPI PUSH2 0x26B PUSH2 0x34A JUMP JUMPDEST JUMPDEST POP SWAP2 SWAP1 POP JUMP JUMPDEST PUSH1 0x0 PUSH2 0x27D DUP3 PUSH2 0x236 JUMP JUMPDEST SWAP2 POP PUSH32 0xFFFFFFFFFFFFFFFFFFFFFFFFFFFFFFFFFFFFFFFFFFFFFFFFFFFFFFFFFFFFFFFF DUP3 EQ ISZERO PUSH2 0x2B0 JUMPI PUSH2 0x2AF PUSH2 0x2EC JUMP JUMPDEST JUMPDEST PUSH1 0x1 DUP3 ADD SWAP1 POP SWAP2 SWAP1 POP JUMP JUMPDEST PUSH1 0x0 PUSH2 0x2C6 DUP3 PUSH2 0x236 JUMP JUMPDEST SWAP2 POP PUSH2 0x2D1 DUP4 PUSH2 0x236 JUMP JUMPDEST SWAP3 POP DUP3 PUSH2 0x2E1 JUMPI PUSH2 0x2E0 PUSH2 0x31B JUMP JUMPDEST JUMPDEST DUP3 DUP3 MOD SWAP1 POP SWAP3 SWAP2 POP POP JUMP JUMPDEST PUSH32 0x4E487B7100000000000000000000000000000000000000000000000000000000 PUSH1 0x0 MSTORE PUSH1 0x11 PUSH1 0x4 MSTORE PUSH1 0x24 PUSH1 0x0 REVERT JUMPDEST PUSH32 0x4E487B7100000000000000000000000000000000000000000000000000000000 PUSH1 0x0 MSTORE PUSH1 0x12 PUSH1 0x4 MSTORE PUSH1 0x24 PUSH1 0x0 REVERT JUMPDEST PUSH32 0x4E487B7100000000000000000000000000000000000000000000000000000000 PUSH1 0x0 MSTORE PUSH1 0x22 PUSH1 0x4 MSTORE PUSH1 0x24 PUSH1 0x0 REVERT JUMPDEST PUSH32 0x4E487B7100000000000000000000000000000000000000000000000000000000 PUSH1 0x0 MSTORE PUSH1 0x32 PUSH1 0x4 MSTORE PUSH1 0x24 PUSH1 0x0 REVERT INVALID LOG2 PUSH5 0x6970667358 0x22 SLT KECCAK256 DELEGATECALL 0xC5 0xB8 CALLVALUE 0xE1 RETURN LOG1 0x4C EXTCODEHASH BLOCKHASH ORIGIN 0xF6 ISZERO SWAP10 0xBE 0xF7 MSIZE 0xDA LOG2 0xBA GASPRICE JUMP CREATE2 PUSH4 0x65C1AA9F 0xE1 DIV 0xB3 0xCC PUSH5 0x736F6C6343 STOP ADDMOD SMOD STOP CALLER "
				},
				"gasEstimates": {
					"creation": {
						"codeDepositCost": "198000",
						"executionCost": "infinite",
						"totalCost": "infinite"
					},
					"external": {
						"useBreak()": "infinite",
						"useContinue()": "infinite"
					}
				},
				"methodIdentifiers": {
					"useBreak()": "268caf73",
					"useContinue()": "1e2ae857"
				}
			},
			"storageLayout": {
				"storage": [
					{
						"astId": 16,
						"contract": "lecture/lec23.sol:lec23",
						"label": "countryList",
						"offset": 0,
						"slot": "0",
						"type": "t_array(t_string_storage)dyn_storage"
					}
				],
				"types": {
					"t_array(t_string_storage)dyn_storage": {
						"base": "t_string_storage",
						"encoding": "dynamic_array",
						"label": "string[]",
						"numberOfBytes": "32"
					},
					"t_string_storage": {
						"encoding": "bytes",
						"label": "string",
						"numberOfBytes": "32"
					}
				}
			},
			"userdoc": {
				"kind": "user",
				"methods": {},
				"version": 1
			}
		}
	}
}