{
	"lecture/lec34.sol": {
		"MobileBanking": {
			"abi": [
				{
					"inputs": [],
					"stateMutability": "payable",
					"type": "constructor"
				},
				{
					"anonymous": false,
					"inputs": [
						{
							"indexed": false,
							"internalType": "address",
							"name": "_msgSender",
							"type": "address"
						},
						{
							"indexed": false,
							"internalType": "address",
							"name": "_to",
							"type": "address"
						},
						{
							"indexed": false,
							"internalType": "uint256",
							"name": "_value",
							"type": "uint256"
						}
					],
					"name": "CurrentValueOfSomeone",
					"type": "event"
				},
				{
					"anonymous": false,
					"inputs": [
						{
							"indexed": false,
							"internalType": "address",
							"name": "_msgSender",
							"type": "address"
						},
						{
							"indexed": false,
							"internalType": "uint256",
							"name": "_value",
							"type": "uint256"
						}
					],
					"name": "MyCurrentValue",
					"type": "event"
				},
				{
					"anonymous": false,
					"inputs": [
						{
							"indexed": false,
							"internalType": "address",
							"name": "_msgSender",
							"type": "address"
						},
						{
							"indexed": false,
							"internalType": "uint256",
							"name": "_currentValue",
							"type": "uint256"
						}
					],
					"name": "SendInfo",
					"type": "event"
				},
				{
					"inputs": [
						{
							"internalType": "address",
							"name": "_to",
							"type": "address"
						}
					],
					"name": "checkUserMoney",
					"outputs": [],
					"stateMutability": "nonpayable",
					"type": "function"
				},
				{
					"inputs": [],
					"name": "checkValueNow",
					"outputs": [],
					"stateMutability": "nonpayable",
					"type": "function"
				},
				{
					"inputs": [
						{
							"internalType": "address payable",
							"name": "_to",
							"type": "address"
						}
					],
					"name": "sendEther",
					"outputs": [],
					"stateMutability": "payable",
					"type": "function"
				}
			],
			"devdoc": {
				"kind": "dev",
				"methods": {},
				"version": 1
			},
			"evm": {
				"assembly": "    /* \"lecture/lec34.sol\":150:1083  contract MobileBanking{... */\n  mstore(0x40, 0x80)\n    /* \"lecture/lec34.sol\":241:251  msg.sender */\n  caller\n    /* \"lecture/lec34.sol\":233:238  owner */\n  0x00\n  dup1\n    /* \"lecture/lec34.sol\":233:251  owner = msg.sender */\n  0x0100\n  exp\n  dup2\n  sload\n  dup2\n  0xffffffffffffffffffffffffffffffffffffffff\n  mul\n  not\n  and\n  swap1\n  dup4\n  0xffffffffffffffffffffffffffffffffffffffff\n  and\n  mul\n  or\n  swap1\n  sstore\n  pop\n    /* \"lecture/lec34.sol\":150:1083  contract MobileBanking{... */\n  dataSize(sub_0)\n  dup1\n  dataOffset(sub_0)\n  0x00\n  codecopy\n  0x00\n  return\nstop\n\nsub_0: assembly {\n        /* \"lecture/lec34.sol\":150:1083  contract MobileBanking{... */\n      mstore(0x40, 0x80)\n      jumpi(tag_1, lt(calldatasize, 0x04))\n      shr(0xe0, calldataload(0x00))\n      dup1\n      0x48c981e2\n      eq\n      tag_2\n      jumpi\n      dup1\n      0x9d427413\n      eq\n      tag_3\n      jumpi\n      dup1\n      0xc776b4df\n      eq\n      tag_4\n      jumpi\n    tag_1:\n      0x00\n      dup1\n      revert\n        /* \"lecture/lec34.sol\":577:820  function sendEther(address payable _to) public onlyOwner payable {... */\n    tag_2:\n      tag_5\n      0x04\n      dup1\n      calldatasize\n      sub\n      dup2\n      add\n      swap1\n      tag_6\n      swap2\n      swap1\n      tag_7\n      jump\t// in\n    tag_6:\n      tag_8\n      jump\t// in\n    tag_5:\n      stop\n        /* \"lecture/lec34.sol\":950:1076  function checkUserMoney(address _to) public onlyOwner {... */\n    tag_3:\n      callvalue\n      dup1\n      iszero\n      tag_9\n      jumpi\n      0x00\n      dup1\n      revert\n    tag_9:\n      pop\n      tag_10\n      0x04\n      dup1\n      calldatasize\n      sub\n      dup2\n      add\n      swap1\n      tag_11\n      swap2\n      swap1\n      tag_12\n      jump\t// in\n    tag_11:\n      tag_13\n      jump\t// in\n    tag_10:\n      stop\n        /* \"lecture/lec34.sol\":830:940  function checkValueNow() public onlyOwner {... */\n    tag_4:\n      callvalue\n      dup1\n      iszero\n      tag_14\n      jumpi\n      0x00\n      dup1\n      revert\n    tag_14:\n      pop\n      tag_15\n      tag_16\n      jump\t// in\n    tag_15:\n      stop\n        /* \"lecture/lec34.sol\":577:820  function sendEther(address payable _to) public onlyOwner payable {... */\n    tag_8:\n        /* \"lecture/lec34.sol\":318:323  owner */\n      0x00\n      dup1\n      sload\n      swap1\n      0x0100\n      exp\n      swap1\n      div\n      0xffffffffffffffffffffffffffffffffffffffff\n      and\n        /* \"lecture/lec34.sol\":304:323  msg.sender == owner */\n      0xffffffffffffffffffffffffffffffffffffffff\n      and\n        /* \"lecture/lec34.sol\":304:314  msg.sender */\n      caller\n        /* \"lecture/lec34.sol\":304:323  msg.sender == owner */\n      0xffffffffffffffffffffffffffffffffffffffff\n      and\n      eq\n        /* \"lecture/lec34.sol\":296:339  require(msg.sender == owner, \"Only Owner!\") */\n      tag_18\n      jumpi\n      mload(0x40)\n      0x08c379a000000000000000000000000000000000000000000000000000000000\n      dup2\n      mstore\n      0x04\n      add\n      tag_19\n      swap1\n      tag_20\n      jump\t// in\n    tag_19:\n      mload(0x40)\n      dup1\n      swap2\n      sub\n      swap1\n      revert\n    tag_18:\n        /* \"lecture/lec34.sol\":680:689  msg.value */\n      callvalue\n        /* \"lecture/lec34.sol\":660:670  msg.sender */\n      caller\n        /* \"lecture/lec34.sol\":660:678  msg.sender.balance */\n      0xffffffffffffffffffffffffffffffffffffffff\n      and\n      balance\n        /* \"lecture/lec34.sol\":660:689  msg.sender.balance>=msg.value */\n      lt\n      iszero\n        /* \"lecture/lec34.sol\":652:720  require(msg.sender.balance>=msg.value, \"Your balance is not enough\") */\n      tag_22\n      jumpi\n      mload(0x40)\n      0x08c379a000000000000000000000000000000000000000000000000000000000\n      dup2\n      mstore\n      0x04\n      add\n      tag_23\n      swap1\n      tag_24\n      jump\t// in\n    tag_23:\n      mload(0x40)\n      dup1\n      swap2\n      sub\n      swap1\n      revert\n    tag_22:\n        /* \"lecture/lec34.sol\":730:733  _to */\n      dup1\n        /* \"lecture/lec34.sol\":730:742  _to.transfer */\n      0xffffffffffffffffffffffffffffffffffffffff\n      and\n        /* \"lecture/lec34.sol\":730:753  _to.transfer(msg.value) */\n      0x08fc\n        /* \"lecture/lec34.sol\":743:752  msg.value */\n      callvalue\n        /* \"lecture/lec34.sol\":730:753  _to.transfer(msg.value) */\n      swap1\n      dup2\n      iszero\n      mul\n      swap1\n      mload(0x40)\n      0x00\n      mload(0x40)\n      dup1\n      dup4\n      sub\n      dup2\n      dup6\n      dup9\n      dup9\n      call\n      swap4\n      pop\n      pop\n      pop\n      pop\n      iszero\n      dup1\n      iszero\n      tag_26\n      jumpi\n      returndatasize\n      0x00\n      dup1\n      returndatacopy\n      revert(0x00, returndatasize)\n    tag_26:\n      pop\n        /* \"lecture/lec34.sol\":772:813  SendInfo(msg.sender,(msg.sender).balance) */\n      0xef3d45e3976629248ff5a27c6e07e8c80013b2b1f46611f16ebf46c6bf09be29\n        /* \"lecture/lec34.sol\":781:791  msg.sender */\n      caller\n        /* \"lecture/lec34.sol\":793:803  msg.sender */\n      caller\n        /* \"lecture/lec34.sol\":792:812  (msg.sender).balance */\n      0xffffffffffffffffffffffffffffffffffffffff\n      and\n      balance\n        /* \"lecture/lec34.sol\":772:813  SendInfo(msg.sender,(msg.sender).balance) */\n      mload(0x40)\n      tag_27\n      swap3\n      swap2\n      swap1\n      tag_28\n      jump\t// in\n    tag_27:\n      mload(0x40)\n      dup1\n      swap2\n      sub\n      swap1\n      log1\n        /* \"lecture/lec34.sol\":577:820  function sendEther(address payable _to) public onlyOwner payable {... */\n      pop\n      jump\t// out\n        /* \"lecture/lec34.sol\":950:1076  function checkUserMoney(address _to) public onlyOwner {... */\n    tag_13:\n        /* \"lecture/lec34.sol\":318:323  owner */\n      0x00\n      dup1\n      sload\n      swap1\n      0x0100\n      exp\n      swap1\n      div\n      0xffffffffffffffffffffffffffffffffffffffff\n      and\n        /* \"lecture/lec34.sol\":304:323  msg.sender == owner */\n      0xffffffffffffffffffffffffffffffffffffffff\n      and\n        /* \"lecture/lec34.sol\":304:314  msg.sender */\n      caller\n        /* \"lecture/lec34.sol\":304:323  msg.sender == owner */\n      0xffffffffffffffffffffffffffffffffffffffff\n      and\n      eq\n        /* \"lecture/lec34.sol\":296:339  require(msg.sender == owner, \"Only Owner!\") */\n      tag_30\n      jumpi\n      mload(0x40)\n      0x08c379a000000000000000000000000000000000000000000000000000000000\n      dup2\n      mstore\n      0x04\n      add\n      tag_31\n      swap1\n      tag_20\n      jump\t// in\n    tag_31:\n      mload(0x40)\n      dup1\n      swap2\n      sub\n      swap1\n      revert\n    tag_30:\n        /* \"lecture/lec34.sol\":1019:1069  CurrentValueOfSomeone(msg.sender,_to ,_to.balance) */\n      0xbce456ac206bf5f267f4accbf956229979251e867ffc3fb45ca938fc6a27a440\n        /* \"lecture/lec34.sol\":1041:1051  msg.sender */\n      caller\n        /* \"lecture/lec34.sol\":1052:1055  _to */\n      dup3\n        /* \"lecture/lec34.sol\":1057:1060  _to */\n      dup4\n        /* \"lecture/lec34.sol\":1057:1068  _to.balance */\n      0xffffffffffffffffffffffffffffffffffffffff\n      and\n      balance\n        /* \"lecture/lec34.sol\":1019:1069  CurrentValueOfSomeone(msg.sender,_to ,_to.balance) */\n      mload(0x40)\n      tag_33\n      swap4\n      swap3\n      swap2\n      swap1\n      tag_34\n      jump\t// in\n    tag_33:\n      mload(0x40)\n      dup1\n      swap2\n      sub\n      swap1\n      log1\n        /* \"lecture/lec34.sol\":950:1076  function checkUserMoney(address _to) public onlyOwner {... */\n      pop\n      jump\t// out\n        /* \"lecture/lec34.sol\":830:940  function checkValueNow() public onlyOwner {... */\n    tag_16:\n        /* \"lecture/lec34.sol\":318:323  owner */\n      0x00\n      dup1\n      sload\n      swap1\n      0x0100\n      exp\n      swap1\n      div\n      0xffffffffffffffffffffffffffffffffffffffff\n      and\n        /* \"lecture/lec34.sol\":304:323  msg.sender == owner */\n      0xffffffffffffffffffffffffffffffffffffffff\n      and\n        /* \"lecture/lec34.sol\":304:314  msg.sender */\n      caller\n        /* \"lecture/lec34.sol\":304:323  msg.sender == owner */\n      0xffffffffffffffffffffffffffffffffffffffff\n      and\n      eq\n        /* \"lecture/lec34.sol\":296:339  require(msg.sender == owner, \"Only Owner!\") */\n      tag_36\n      jumpi\n      mload(0x40)\n      0x08c379a000000000000000000000000000000000000000000000000000000000\n      dup2\n      mstore\n      0x04\n      add\n      tag_37\n      swap1\n      tag_20\n      jump\t// in\n    tag_37:\n      mload(0x40)\n      dup1\n      swap2\n      sub\n      swap1\n      revert\n    tag_36:\n        /* \"lecture/lec34.sol\":887:933  MyCurrentValue(msg.sender, msg.sender.balance) */\n      0x96f3ab567151de7a605db2b427c0e7bd4c402b81f2d24c89b0b92687e0494c15\n        /* \"lecture/lec34.sol\":902:912  msg.sender */\n      caller\n        /* \"lecture/lec34.sol\":914:924  msg.sender */\n      caller\n        /* \"lecture/lec34.sol\":914:932  msg.sender.balance */\n      0xffffffffffffffffffffffffffffffffffffffff\n      and\n      balance\n        /* \"lecture/lec34.sol\":887:933  MyCurrentValue(msg.sender, msg.sender.balance) */\n      mload(0x40)\n      tag_39\n      swap3\n      swap2\n      swap1\n      tag_28\n      jump\t// in\n    tag_39:\n      mload(0x40)\n      dup1\n      swap2\n      sub\n      swap1\n      log1\n        /* \"lecture/lec34.sol\":830:940  function checkValueNow() public onlyOwner {... */\n      jump\t// out\n        /* \"#utility.yul\":7:146   */\n    tag_41:\n        /* \"#utility.yul\":53:58   */\n      0x00\n        /* \"#utility.yul\":91:97   */\n      dup2\n        /* \"#utility.yul\":78:98   */\n      calldataload\n        /* \"#utility.yul\":69:98   */\n      swap1\n      pop\n        /* \"#utility.yul\":107:140   */\n      tag_43\n        /* \"#utility.yul\":134:139   */\n      dup2\n        /* \"#utility.yul\":107:140   */\n      tag_44\n      jump\t// in\n    tag_43:\n        /* \"#utility.yul\":7:146   */\n      swap3\n      swap2\n      pop\n      pop\n      jump\t// out\n        /* \"#utility.yul\":152:307   */\n    tag_45:\n        /* \"#utility.yul\":206:211   */\n      0x00\n        /* \"#utility.yul\":244:250   */\n      dup2\n        /* \"#utility.yul\":231:251   */\n      calldataload\n        /* \"#utility.yul\":222:251   */\n      swap1\n      pop\n        /* \"#utility.yul\":260:301   */\n      tag_47\n        /* \"#utility.yul\":295:300   */\n      dup2\n        /* \"#utility.yul\":260:301   */\n      tag_48\n      jump\t// in\n    tag_47:\n        /* \"#utility.yul\":152:307   */\n      swap3\n      swap2\n      pop\n      pop\n      jump\t// out\n        /* \"#utility.yul\":313:642   */\n    tag_12:\n        /* \"#utility.yul\":372:378   */\n      0x00\n        /* \"#utility.yul\":421:423   */\n      0x20\n        /* \"#utility.yul\":409:418   */\n      dup3\n        /* \"#utility.yul\":400:407   */\n      dup5\n        /* \"#utility.yul\":396:419   */\n      sub\n        /* \"#utility.yul\":392:424   */\n      slt\n        /* \"#utility.yul\":389:508   */\n      iszero\n      tag_50\n      jumpi\n        /* \"#utility.yul\":427:506   */\n      tag_51\n      tag_52\n      jump\t// in\n    tag_51:\n        /* \"#utility.yul\":389:508   */\n    tag_50:\n        /* \"#utility.yul\":547:548   */\n      0x00\n        /* \"#utility.yul\":572:625   */\n      tag_53\n        /* \"#utility.yul\":617:624   */\n      dup5\n        /* \"#utility.yul\":608:614   */\n      dup3\n        /* \"#utility.yul\":597:606   */\n      dup6\n        /* \"#utility.yul\":593:615   */\n      add\n        /* \"#utility.yul\":572:625   */\n      tag_41\n      jump\t// in\n    tag_53:\n        /* \"#utility.yul\":562:625   */\n      swap2\n      pop\n        /* \"#utility.yul\":518:635   */\n      pop\n        /* \"#utility.yul\":313:642   */\n      swap3\n      swap2\n      pop\n      pop\n      jump\t// out\n        /* \"#utility.yul\":648:993   */\n    tag_7:\n        /* \"#utility.yul\":715:721   */\n      0x00\n        /* \"#utility.yul\":764:766   */\n      0x20\n        /* \"#utility.yul\":752:761   */\n      dup3\n        /* \"#utility.yul\":743:750   */\n      dup5\n        /* \"#utility.yul\":739:762   */\n      sub\n        /* \"#utility.yul\":735:767   */\n      slt\n        /* \"#utility.yul\":732:851   */\n      iszero\n      tag_55\n      jumpi\n        /* \"#utility.yul\":770:849   */\n      tag_56\n      tag_52\n      jump\t// in\n    tag_56:\n        /* \"#utility.yul\":732:851   */\n    tag_55:\n        /* \"#utility.yul\":890:891   */\n      0x00\n        /* \"#utility.yul\":915:976   */\n      tag_57\n        /* \"#utility.yul\":968:975   */\n      dup5\n        /* \"#utility.yul\":959:965   */\n      dup3\n        /* \"#utility.yul\":948:957   */\n      dup6\n        /* \"#utility.yul\":944:966   */\n      add\n        /* \"#utility.yul\":915:976   */\n      tag_45\n      jump\t// in\n    tag_57:\n        /* \"#utility.yul\":905:976   */\n      swap2\n      pop\n        /* \"#utility.yul\":861:986   */\n      pop\n        /* \"#utility.yul\":648:993   */\n      swap3\n      swap2\n      pop\n      pop\n      jump\t// out\n        /* \"#utility.yul\":999:1117   */\n    tag_58:\n        /* \"#utility.yul\":1086:1110   */\n      tag_60\n        /* \"#utility.yul\":1104:1109   */\n      dup2\n        /* \"#utility.yul\":1086:1110   */\n      tag_61\n      jump\t// in\n    tag_60:\n        /* \"#utility.yul\":1081:1084   */\n      dup3\n        /* \"#utility.yul\":1074:1111   */\n      mstore\n        /* \"#utility.yul\":999:1117   */\n      pop\n      pop\n      jump\t// out\n        /* \"#utility.yul\":1123:1489   */\n    tag_62:\n        /* \"#utility.yul\":1265:1268   */\n      0x00\n        /* \"#utility.yul\":1286:1353   */\n      tag_64\n        /* \"#utility.yul\":1350:1352   */\n      0x0b\n        /* \"#utility.yul\":1345:1348   */\n      dup4\n        /* \"#utility.yul\":1286:1353   */\n      tag_65\n      jump\t// in\n    tag_64:\n        /* \"#utility.yul\":1279:1353   */\n      swap2\n      pop\n        /* \"#utility.yul\":1362:1455   */\n      tag_66\n        /* \"#utility.yul\":1451:1454   */\n      dup3\n        /* \"#utility.yul\":1362:1455   */\n      tag_67\n      jump\t// in\n    tag_66:\n        /* \"#utility.yul\":1480:1482   */\n      0x20\n        /* \"#utility.yul\":1475:1478   */\n      dup3\n        /* \"#utility.yul\":1471:1483   */\n      add\n        /* \"#utility.yul\":1464:1483   */\n      swap1\n      pop\n        /* \"#utility.yul\":1123:1489   */\n      swap2\n      swap1\n      pop\n      jump\t// out\n        /* \"#utility.yul\":1495:1861   */\n    tag_68:\n        /* \"#utility.yul\":1637:1640   */\n      0x00\n        /* \"#utility.yul\":1658:1725   */\n      tag_70\n        /* \"#utility.yul\":1722:1724   */\n      0x1a\n        /* \"#utility.yul\":1717:1720   */\n      dup4\n        /* \"#utility.yul\":1658:1725   */\n      tag_65\n      jump\t// in\n    tag_70:\n        /* \"#utility.yul\":1651:1725   */\n      swap2\n      pop\n        /* \"#utility.yul\":1734:1827   */\n      tag_71\n        /* \"#utility.yul\":1823:1826   */\n      dup3\n        /* \"#utility.yul\":1734:1827   */\n      tag_72\n      jump\t// in\n    tag_71:\n        /* \"#utility.yul\":1852:1854   */\n      0x20\n        /* \"#utility.yul\":1847:1850   */\n      dup3\n        /* \"#utility.yul\":1843:1855   */\n      add\n        /* \"#utility.yul\":1836:1855   */\n      swap1\n      pop\n        /* \"#utility.yul\":1495:1861   */\n      swap2\n      swap1\n      pop\n      jump\t// out\n        /* \"#utility.yul\":1867:1985   */\n    tag_73:\n        /* \"#utility.yul\":1954:1978   */\n      tag_75\n        /* \"#utility.yul\":1972:1977   */\n      dup2\n        /* \"#utility.yul\":1954:1978   */\n      tag_76\n      jump\t// in\n    tag_75:\n        /* \"#utility.yul\":1949:1952   */\n      dup3\n        /* \"#utility.yul\":1942:1979   */\n      mstore\n        /* \"#utility.yul\":1867:1985   */\n      pop\n      pop\n      jump\t// out\n        /* \"#utility.yul\":1991:2433   */\n    tag_34:\n        /* \"#utility.yul\":2140:2144   */\n      0x00\n        /* \"#utility.yul\":2178:2180   */\n      0x60\n        /* \"#utility.yul\":2167:2176   */\n      dup3\n        /* \"#utility.yul\":2163:2181   */\n      add\n        /* \"#utility.yul\":2155:2181   */\n      swap1\n      pop\n        /* \"#utility.yul\":2191:2262   */\n      tag_78\n        /* \"#utility.yul\":2259:2260   */\n      0x00\n        /* \"#utility.yul\":2248:2257   */\n      dup4\n        /* \"#utility.yul\":2244:2261   */\n      add\n        /* \"#utility.yul\":2235:2241   */\n      dup7\n        /* \"#utility.yul\":2191:2262   */\n      tag_58\n      jump\t// in\n    tag_78:\n        /* \"#utility.yul\":2272:2344   */\n      tag_79\n        /* \"#utility.yul\":2340:2342   */\n      0x20\n        /* \"#utility.yul\":2329:2338   */\n      dup4\n        /* \"#utility.yul\":2325:2343   */\n      add\n        /* \"#utility.yul\":2316:2322   */\n      dup6\n        /* \"#utility.yul\":2272:2344   */\n      tag_58\n      jump\t// in\n    tag_79:\n        /* \"#utility.yul\":2354:2426   */\n      tag_80\n        /* \"#utility.yul\":2422:2424   */\n      0x40\n        /* \"#utility.yul\":2411:2420   */\n      dup4\n        /* \"#utility.yul\":2407:2425   */\n      add\n        /* \"#utility.yul\":2398:2404   */\n      dup5\n        /* \"#utility.yul\":2354:2426   */\n      tag_73\n      jump\t// in\n    tag_80:\n        /* \"#utility.yul\":1991:2433   */\n      swap5\n      swap4\n      pop\n      pop\n      pop\n      pop\n      jump\t// out\n        /* \"#utility.yul\":2439:2771   */\n    tag_28:\n        /* \"#utility.yul\":2560:2564   */\n      0x00\n        /* \"#utility.yul\":2598:2600   */\n      0x40\n        /* \"#utility.yul\":2587:2596   */\n      dup3\n        /* \"#utility.yul\":2583:2601   */\n      add\n        /* \"#utility.yul\":2575:2601   */\n      swap1\n      pop\n        /* \"#utility.yul\":2611:2682   */\n      tag_82\n        /* \"#utility.yul\":2679:2680   */\n      0x00\n        /* \"#utility.yul\":2668:2677   */\n      dup4\n        /* \"#utility.yul\":2664:2681   */\n      add\n        /* \"#utility.yul\":2655:2661   */\n      dup6\n        /* \"#utility.yul\":2611:2682   */\n      tag_58\n      jump\t// in\n    tag_82:\n        /* \"#utility.yul\":2692:2764   */\n      tag_83\n        /* \"#utility.yul\":2760:2762   */\n      0x20\n        /* \"#utility.yul\":2749:2758   */\n      dup4\n        /* \"#utility.yul\":2745:2763   */\n      add\n        /* \"#utility.yul\":2736:2742   */\n      dup5\n        /* \"#utility.yul\":2692:2764   */\n      tag_73\n      jump\t// in\n    tag_83:\n        /* \"#utility.yul\":2439:2771   */\n      swap4\n      swap3\n      pop\n      pop\n      pop\n      jump\t// out\n        /* \"#utility.yul\":2777:3196   */\n    tag_20:\n        /* \"#utility.yul\":2943:2947   */\n      0x00\n        /* \"#utility.yul\":2981:2983   */\n      0x20\n        /* \"#utility.yul\":2970:2979   */\n      dup3\n        /* \"#utility.yul\":2966:2984   */\n      add\n        /* \"#utility.yul\":2958:2984   */\n      swap1\n      pop\n        /* \"#utility.yul\":3030:3039   */\n      dup2\n        /* \"#utility.yul\":3024:3028   */\n      dup2\n        /* \"#utility.yul\":3020:3040   */\n      sub\n        /* \"#utility.yul\":3016:3017   */\n      0x00\n        /* \"#utility.yul\":3005:3014   */\n      dup4\n        /* \"#utility.yul\":3001:3018   */\n      add\n        /* \"#utility.yul\":2994:3041   */\n      mstore\n        /* \"#utility.yul\":3058:3189   */\n      tag_85\n        /* \"#utility.yul\":3184:3188   */\n      dup2\n        /* \"#utility.yul\":3058:3189   */\n      tag_62\n      jump\t// in\n    tag_85:\n        /* \"#utility.yul\":3050:3189   */\n      swap1\n      pop\n        /* \"#utility.yul\":2777:3196   */\n      swap2\n      swap1\n      pop\n      jump\t// out\n        /* \"#utility.yul\":3202:3621   */\n    tag_24:\n        /* \"#utility.yul\":3368:3372   */\n      0x00\n        /* \"#utility.yul\":3406:3408   */\n      0x20\n        /* \"#utility.yul\":3395:3404   */\n      dup3\n        /* \"#utility.yul\":3391:3409   */\n      add\n        /* \"#utility.yul\":3383:3409   */\n      swap1\n      pop\n        /* \"#utility.yul\":3455:3464   */\n      dup2\n        /* \"#utility.yul\":3449:3453   */\n      dup2\n        /* \"#utility.yul\":3445:3465   */\n      sub\n        /* \"#utility.yul\":3441:3442   */\n      0x00\n        /* \"#utility.yul\":3430:3439   */\n      dup4\n        /* \"#utility.yul\":3426:3443   */\n      add\n        /* \"#utility.yul\":3419:3466   */\n      mstore\n        /* \"#utility.yul\":3483:3614   */\n      tag_87\n        /* \"#utility.yul\":3609:3613   */\n      dup2\n        /* \"#utility.yul\":3483:3614   */\n      tag_68\n      jump\t// in\n    tag_87:\n        /* \"#utility.yul\":3475:3614   */\n      swap1\n      pop\n        /* \"#utility.yul\":3202:3621   */\n      swap2\n      swap1\n      pop\n      jump\t// out\n        /* \"#utility.yul\":3708:3877   */\n    tag_65:\n        /* \"#utility.yul\":3792:3803   */\n      0x00\n        /* \"#utility.yul\":3826:3832   */\n      dup3\n        /* \"#utility.yul\":3821:3824   */\n      dup3\n        /* \"#utility.yul\":3814:3833   */\n      mstore\n        /* \"#utility.yul\":3866:3870   */\n      0x20\n        /* \"#utility.yul\":3861:3864   */\n      dup3\n        /* \"#utility.yul\":3857:3871   */\n      add\n        /* \"#utility.yul\":3842:3871   */\n      swap1\n      pop\n        /* \"#utility.yul\":3708:3877   */\n      swap3\n      swap2\n      pop\n      pop\n      jump\t// out\n        /* \"#utility.yul\":3883:3979   */\n    tag_61:\n        /* \"#utility.yul\":3920:3927   */\n      0x00\n        /* \"#utility.yul\":3949:3973   */\n      tag_92\n        /* \"#utility.yul\":3967:3972   */\n      dup3\n        /* \"#utility.yul\":3949:3973   */\n      tag_93\n      jump\t// in\n    tag_92:\n        /* \"#utility.yul\":3938:3973   */\n      swap1\n      pop\n        /* \"#utility.yul\":3883:3979   */\n      swap2\n      swap1\n      pop\n      jump\t// out\n        /* \"#utility.yul\":3985:4089   */\n    tag_94:\n        /* \"#utility.yul\":4030:4037   */\n      0x00\n        /* \"#utility.yul\":4059:4083   */\n      tag_96\n        /* \"#utility.yul\":4077:4082   */\n      dup3\n        /* \"#utility.yul\":4059:4083   */\n      tag_93\n      jump\t// in\n    tag_96:\n        /* \"#utility.yul\":4048:4083   */\n      swap1\n      pop\n        /* \"#utility.yul\":3985:4089   */\n      swap2\n      swap1\n      pop\n      jump\t// out\n        /* \"#utility.yul\":4095:4221   */\n    tag_93:\n        /* \"#utility.yul\":4132:4139   */\n      0x00\n        /* \"#utility.yul\":4172:4214   */\n      0xffffffffffffffffffffffffffffffffffffffff\n        /* \"#utility.yul\":4165:4170   */\n      dup3\n        /* \"#utility.yul\":4161:4215   */\n      and\n        /* \"#utility.yul\":4150:4215   */\n      swap1\n      pop\n        /* \"#utility.yul\":4095:4221   */\n      swap2\n      swap1\n      pop\n      jump\t// out\n        /* \"#utility.yul\":4227:4304   */\n    tag_76:\n        /* \"#utility.yul\":4264:4271   */\n      0x00\n        /* \"#utility.yul\":4293:4298   */\n      dup2\n        /* \"#utility.yul\":4282:4298   */\n      swap1\n      pop\n        /* \"#utility.yul\":4227:4304   */\n      swap2\n      swap1\n      pop\n      jump\t// out\n        /* \"#utility.yul\":4433:4550   */\n    tag_52:\n        /* \"#utility.yul\":4542:4543   */\n      0x00\n        /* \"#utility.yul\":4539:4540   */\n      dup1\n        /* \"#utility.yul\":4532:4544   */\n      revert\n        /* \"#utility.yul\":4556:4717   */\n    tag_67:\n        /* \"#utility.yul\":4696:4709   */\n      0x4f6e6c79204f776e657221000000000000000000000000000000000000000000\n        /* \"#utility.yul\":4692:4693   */\n      0x00\n        /* \"#utility.yul\":4684:4690   */\n      dup3\n        /* \"#utility.yul\":4680:4694   */\n      add\n        /* \"#utility.yul\":4673:4710   */\n      mstore\n        /* \"#utility.yul\":4556:4717   */\n      pop\n      jump\t// out\n        /* \"#utility.yul\":4723:4899   */\n    tag_72:\n        /* \"#utility.yul\":4863:4891   */\n      0x596f75722062616c616e6365206973206e6f7420656e6f756768000000000000\n        /* \"#utility.yul\":4859:4860   */\n      0x00\n        /* \"#utility.yul\":4851:4857   */\n      dup3\n        /* \"#utility.yul\":4847:4861   */\n      add\n        /* \"#utility.yul\":4840:4892   */\n      mstore\n        /* \"#utility.yul\":4723:4899   */\n      pop\n      jump\t// out\n        /* \"#utility.yul\":4905:5027   */\n    tag_44:\n        /* \"#utility.yul\":4978:5002   */\n      tag_105\n        /* \"#utility.yul\":4996:5001   */\n      dup2\n        /* \"#utility.yul\":4978:5002   */\n      tag_61\n      jump\t// in\n    tag_105:\n        /* \"#utility.yul\":4971:4976   */\n      dup2\n        /* \"#utility.yul\":4968:5003   */\n      eq\n        /* \"#utility.yul\":4958:5021   */\n      tag_106\n      jumpi\n        /* \"#utility.yul\":5017:5018   */\n      0x00\n        /* \"#utility.yul\":5014:5015   */\n      dup1\n        /* \"#utility.yul\":5007:5019   */\n      revert\n        /* \"#utility.yul\":4958:5021   */\n    tag_106:\n        /* \"#utility.yul\":4905:5027   */\n      pop\n      jump\t// out\n        /* \"#utility.yul\":5033:5171   */\n    tag_48:\n        /* \"#utility.yul\":5114:5146   */\n      tag_108\n        /* \"#utility.yul\":5140:5145   */\n      dup2\n        /* \"#utility.yul\":5114:5146   */\n      tag_94\n      jump\t// in\n    tag_108:\n        /* \"#utility.yul\":5107:5112   */\n      dup2\n        /* \"#utility.yul\":5104:5147   */\n      eq\n        /* \"#utility.yul\":5094:5165   */\n      tag_109\n      jumpi\n        /* \"#utility.yul\":5161:5162   */\n      0x00\n        /* \"#utility.yul\":5158:5159   */\n      dup1\n        /* \"#utility.yul\":5151:5163   */\n      revert\n        /* \"#utility.yul\":5094:5165   */\n    tag_109:\n        /* \"#utility.yul\":5033:5171   */\n      pop\n      jump\t// out\n\n    auxdata: 0xa26469706673582212203ee389cd840b03390041a0c39ef500ac21ced54cfcb55e8c4a63cf5dd933f01764736f6c63430008070033\n}\n",
				"bytecode": {
					"linkReferences": {},
					"object": "6080604052336000806101000a81548173ffffffffffffffffffffffffffffffffffffffff021916908373ffffffffffffffffffffffffffffffffffffffff16021790555061067c806100536000396000f3fe6080604052600436106100345760003560e01c806348c981e2146100395780639d42741314610055578063c776b4df1461007e575b600080fd5b610053600480360381019061004e9190610431565b610095565b005b34801561006157600080fd5b5061007c60048036038101906100779190610404565b610217565b005b34801561008a57600080fd5b506100936102fa565b005b60008054906101000a900473ffffffffffffffffffffffffffffffffffffffff1673ffffffffffffffffffffffffffffffffffffffff163373ffffffffffffffffffffffffffffffffffffffff1614610123576040517f08c379a000000000000000000000000000000000000000000000000000000000815260040161011a90610522565b60405180910390fd5b343373ffffffffffffffffffffffffffffffffffffffff1631101561017d576040517f08c379a000000000000000000000000000000000000000000000000000000000815260040161017490610542565b60405180910390fd5b8073ffffffffffffffffffffffffffffffffffffffff166108fc349081150290604051600060405180830381858888f193505050501580156101c3573d6000803e3d6000fd5b507fef3d45e3976629248ff5a27c6e07e8c80013b2b1f46611f16ebf46c6bf09be29333373ffffffffffffffffffffffffffffffffffffffff163160405161020c9291906104f9565b60405180910390a150565b60008054906101000a900473ffffffffffffffffffffffffffffffffffffffff1673ffffffffffffffffffffffffffffffffffffffff163373ffffffffffffffffffffffffffffffffffffffff16146102a5576040517f08c379a000000000000000000000000000000000000000000000000000000000815260040161029c90610522565b60405180910390fd5b7fbce456ac206bf5f267f4accbf956229979251e867ffc3fb45ca938fc6a27a44033828373ffffffffffffffffffffffffffffffffffffffff16316040516102ef939291906104c2565b60405180910390a150565b60008054906101000a900473ffffffffffffffffffffffffffffffffffffffff1673ffffffffffffffffffffffffffffffffffffffff163373ffffffffffffffffffffffffffffffffffffffff1614610388576040517f08c379a000000000000000000000000000000000000000000000000000000000815260040161037f90610522565b60405180910390fd5b7f96f3ab567151de7a605db2b427c0e7bd4c402b81f2d24c89b0b92687e0494c15333373ffffffffffffffffffffffffffffffffffffffff16316040516103d09291906104f9565b60405180910390a1565b6000813590506103e981610618565b92915050565b6000813590506103fe8161062f565b92915050565b60006020828403121561041a576104196105c1565b5b6000610428848285016103da565b91505092915050565b600060208284031215610447576104466105c1565b5b6000610455848285016103ef565b91505092915050565b61046781610573565b82525050565b600061047a600b83610562565b9150610485826105c6565b602082019050919050565b600061049d601a83610562565b91506104a8826105ef565b602082019050919050565b6104bc816105b7565b82525050565b60006060820190506104d7600083018661045e565b6104e4602083018561045e565b6104f160408301846104b3565b949350505050565b600060408201905061050e600083018561045e565b61051b60208301846104b3565b9392505050565b6000602082019050818103600083015261053b8161046d565b9050919050565b6000602082019050818103600083015261055b81610490565b9050919050565b600082825260208201905092915050565b600061057e82610597565b9050919050565b600061059082610597565b9050919050565b600073ffffffffffffffffffffffffffffffffffffffff82169050919050565b6000819050919050565b600080fd5b7f4f6e6c79204f776e657221000000000000000000000000000000000000000000600082015250565b7f596f75722062616c616e6365206973206e6f7420656e6f756768000000000000600082015250565b61062181610573565b811461062c57600080fd5b50565b61063881610585565b811461064357600080fd5b5056fea26469706673582212203ee389cd840b03390041a0c39ef500ac21ced54cfcb55e8c4a63cf5dd933f01764736f6c63430008070033",
					"opcodes": "PUSH1 0x80 PUSH1 0x40 MSTORE CALLER PUSH1 0x0 DUP1 PUSH2 0x100 EXP DUP2 SLOAD DUP2 PUSH20 0xFFFFFFFFFFFFFFFFFFFFFFFFFFFFFFFFFFFFFFFF MUL NOT AND SWAP1 DUP4 PUSH20 0xFFFFFFFFFFFFFFFFFFFFFFFFFFFFFFFFFFFFFFFF AND MUL OR SWAP1 SSTORE POP PUSH2 0x67C DUP1 PUSH2 0x53 PUSH1 0x0 CODECOPY PUSH1 0x0 RETURN INVALID PUSH1 0x80 PUSH1 0x40 MSTORE PUSH1 0x4 CALLDATASIZE LT PUSH2 0x34 JUMPI PUSH1 0x0 CALLDATALOAD PUSH1 0xE0 SHR DUP1 PUSH4 0x48C981E2 EQ PUSH2 0x39 JUMPI DUP1 PUSH4 0x9D427413 EQ PUSH2 0x55 JUMPI DUP1 PUSH4 0xC776B4DF EQ PUSH2 0x7E JUMPI JUMPDEST PUSH1 0x0 DUP1 REVERT JUMPDEST PUSH2 0x53 PUSH1 0x4 DUP1 CALLDATASIZE SUB DUP2 ADD SWAP1 PUSH2 0x4E SWAP2 SWAP1 PUSH2 0x431 JUMP JUMPDEST PUSH2 0x95 JUMP JUMPDEST STOP JUMPDEST CALLVALUE DUP1 ISZERO PUSH2 0x61 JUMPI PUSH1 0x0 DUP1 REVERT JUMPDEST POP PUSH2 0x7C PUSH1 0x4 DUP1 CALLDATASIZE SUB DUP2 ADD SWAP1 PUSH2 0x77 SWAP2 SWAP1 PUSH2 0x404 JUMP JUMPDEST PUSH2 0x217 JUMP JUMPDEST STOP JUMPDEST CALLVALUE DUP1 ISZERO PUSH2 0x8A JUMPI PUSH1 0x0 DUP1 REVERT JUMPDEST POP PUSH2 0x93 PUSH2 0x2FA JUMP JUMPDEST STOP JUMPDEST PUSH1 0x0 DUP1 SLOAD SWAP1 PUSH2 0x100 EXP SWAP1 DIV PUSH20 0xFFFFFFFFFFFFFFFFFFFFFFFFFFFFFFFFFFFFFFFF AND PUSH20 0xFFFFFFFFFFFFFFFFFFFFFFFFFFFFFFFFFFFFFFFF AND CALLER PUSH20 0xFFFFFFFFFFFFFFFFFFFFFFFFFFFFFFFFFFFFFFFF AND EQ PUSH2 0x123 JUMPI PUSH1 0x40 MLOAD PUSH32 0x8C379A000000000000000000000000000000000000000000000000000000000 DUP2 MSTORE PUSH1 0x4 ADD PUSH2 0x11A SWAP1 PUSH2 0x522 JUMP JUMPDEST PUSH1 0x40 MLOAD DUP1 SWAP2 SUB SWAP1 REVERT JUMPDEST CALLVALUE CALLER PUSH20 0xFFFFFFFFFFFFFFFFFFFFFFFFFFFFFFFFFFFFFFFF AND BALANCE LT ISZERO PUSH2 0x17D JUMPI PUSH1 0x40 MLOAD PUSH32 0x8C379A000000000000000000000000000000000000000000000000000000000 DUP2 MSTORE PUSH1 0x4 ADD PUSH2 0x174 SWAP1 PUSH2 0x542 JUMP JUMPDEST PUSH1 0x40 MLOAD DUP1 SWAP2 SUB SWAP1 REVERT JUMPDEST DUP1 PUSH20 0xFFFFFFFFFFFFFFFFFFFFFFFFFFFFFFFFFFFFFFFF AND PUSH2 0x8FC CALLVALUE SWAP1 DUP2 ISZERO MUL SWAP1 PUSH1 0x40 MLOAD PUSH1 0x0 PUSH1 0x40 MLOAD DUP1 DUP4 SUB DUP2 DUP6 DUP9 DUP9 CALL SWAP4 POP POP POP POP ISZERO DUP1 ISZERO PUSH2 0x1C3 JUMPI RETURNDATASIZE PUSH1 0x0 DUP1 RETURNDATACOPY RETURNDATASIZE PUSH1 0x0 REVERT JUMPDEST POP PUSH32 0xEF3D45E3976629248FF5A27C6E07E8C80013B2B1F46611F16EBF46C6BF09BE29 CALLER CALLER PUSH20 0xFFFFFFFFFFFFFFFFFFFFFFFFFFFFFFFFFFFFFFFF AND BALANCE PUSH1 0x40 MLOAD PUSH2 0x20C SWAP3 SWAP2 SWAP1 PUSH2 0x4F9 JUMP JUMPDEST PUSH1 0x40 MLOAD DUP1 SWAP2 SUB SWAP1 LOG1 POP JUMP JUMPDEST PUSH1 0x0 DUP1 SLOAD SWAP1 PUSH2 0x100 EXP SWAP1 DIV PUSH20 0xFFFFFFFFFFFFFFFFFFFFFFFFFFFFFFFFFFFFFFFF AND PUSH20 0xFFFFFFFFFFFFFFFFFFFFFFFFFFFFFFFFFFFFFFFF AND CALLER PUSH20 0xFFFFFFFFFFFFFFFFFFFFFFFFFFFFFFFFFFFFFFFF AND EQ PUSH2 0x2A5 JUMPI PUSH1 0x40 MLOAD PUSH32 0x8C379A000000000000000000000000000000000000000000000000000000000 DUP2 MSTORE PUSH1 0x4 ADD PUSH2 0x29C SWAP1 PUSH2 0x522 JUMP JUMPDEST PUSH1 0x40 MLOAD DUP1 SWAP2 SUB SWAP1 REVERT JUMPDEST PUSH32 0xBCE456AC206BF5F267F4ACCBF956229979251E867FFC3FB45CA938FC6A27A440 CALLER DUP3 DUP4 PUSH20 0xFFFFFFFFFFFFFFFFFFFFFFFFFFFFFFFFFFFFFFFF AND BALANCE PUSH1 0x40 MLOAD PUSH2 0x2EF SWAP4 SWAP3 SWAP2 SWAP1 PUSH2 0x4C2 JUMP JUMPDEST PUSH1 0x40 MLOAD DUP1 SWAP2 SUB SWAP1 LOG1 POP JUMP JUMPDEST PUSH1 0x0 DUP1 SLOAD SWAP1 PUSH2 0x100 EXP SWAP1 DIV PUSH20 0xFFFFFFFFFFFFFFFFFFFFFFFFFFFFFFFFFFFFFFFF AND PUSH20 0xFFFFFFFFFFFFFFFFFFFFFFFFFFFFFFFFFFFFFFFF AND CALLER PUSH20 0xFFFFFFFFFFFFFFFFFFFFFFFFFFFFFFFFFFFFFFFF AND EQ PUSH2 0x388 JUMPI PUSH1 0x40 MLOAD PUSH32 0x8C379A000000000000000000000000000000000000000000000000000000000 DUP2 MSTORE PUSH1 0x4 ADD PUSH2 0x37F SWAP1 PUSH2 0x522 JUMP JUMPDEST PUSH1 0x40 MLOAD DUP1 SWAP2 SUB SWAP1 REVERT JUMPDEST PUSH32 0x96F3AB567151DE7A605DB2B427C0E7BD4C402B81F2D24C89B0B92687E0494C15 CALLER CALLER PUSH20 0xFFFFFFFFFFFFFFFFFFFFFFFFFFFFFFFFFFFFFFFF AND BALANCE PUSH1 0x40 MLOAD PUSH2 0x3D0 SWAP3 SWAP2 SWAP1 PUSH2 0x4F9 JUMP JUMPDEST PUSH1 0x40 MLOAD DUP1 SWAP2 SUB SWAP1 LOG1 JUMP JUMPDEST PUSH1 0x0 DUP2 CALLDATALOAD SWAP1 POP PUSH2 0x3E9 DUP2 PUSH2 0x618 JUMP JUMPDEST SWAP3 SWAP2 POP POP JUMP JUMPDEST PUSH1 0x0 DUP2 CALLDATALOAD SWAP1 POP PUSH2 0x3FE DUP2 PUSH2 0x62F JUMP JUMPDEST SWAP3 SWAP2 POP POP JUMP JUMPDEST PUSH1 0x0 PUSH1 0x20 DUP3 DUP5 SUB SLT ISZERO PUSH2 0x41A JUMPI PUSH2 0x419 PUSH2 0x5C1 JUMP JUMPDEST JUMPDEST PUSH1 0x0 PUSH2 0x428 DUP5 DUP3 DUP6 ADD PUSH2 0x3DA JUMP JUMPDEST SWAP2 POP POP SWAP3 SWAP2 POP POP JUMP JUMPDEST PUSH1 0x0 PUSH1 0x20 DUP3 DUP5 SUB SLT ISZERO PUSH2 0x447 JUMPI PUSH2 0x446 PUSH2 0x5C1 JUMP JUMPDEST JUMPDEST PUSH1 0x0 PUSH2 0x455 DUP5 DUP3 DUP6 ADD PUSH2 0x3EF JUMP JUMPDEST SWAP2 POP POP SWAP3 SWAP2 POP POP JUMP JUMPDEST PUSH2 0x467 DUP2 PUSH2 0x573 JUMP JUMPDEST DUP3 MSTORE POP POP JUMP JUMPDEST PUSH1 0x0 PUSH2 0x47A PUSH1 0xB DUP4 PUSH2 0x562 JUMP JUMPDEST SWAP2 POP PUSH2 0x485 DUP3 PUSH2 0x5C6 JUMP JUMPDEST PUSH1 0x20 DUP3 ADD SWAP1 POP SWAP2 SWAP1 POP JUMP JUMPDEST PUSH1 0x0 PUSH2 0x49D PUSH1 0x1A DUP4 PUSH2 0x562 JUMP JUMPDEST SWAP2 POP PUSH2 0x4A8 DUP3 PUSH2 0x5EF JUMP JUMPDEST PUSH1 0x20 DUP3 ADD SWAP1 POP SWAP2 SWAP1 POP JUMP JUMPDEST PUSH2 0x4BC DUP2 PUSH2 0x5B7 JUMP JUMPDEST DUP3 MSTORE POP POP JUMP JUMPDEST PUSH1 0x0 PUSH1 0x60 DUP3 ADD SWAP1 POP PUSH2 0x4D7 PUSH1 0x0 DUP4 ADD DUP7 PUSH2 0x45E JUMP JUMPDEST PUSH2 0x4E4 PUSH1 0x20 DUP4 ADD DUP6 PUSH2 0x45E JUMP JUMPDEST PUSH2 0x4F1 PUSH1 0x40 DUP4 ADD DUP5 PUSH2 0x4B3 JUMP JUMPDEST SWAP5 SWAP4 POP POP POP POP JUMP JUMPDEST PUSH1 0x0 PUSH1 0x40 DUP3 ADD SWAP1 POP PUSH2 0x50E PUSH1 0x0 DUP4 ADD DUP6 PUSH2 0x45E JUMP JUMPDEST PUSH2 0x51B PUSH1 0x20 DUP4 ADD DUP5 PUSH2 0x4B3 JUMP JUMPDEST SWAP4 SWAP3 POP POP POP JUMP JUMPDEST PUSH1 0x0 PUSH1 0x20 DUP3 ADD SWAP1 POP DUP2 DUP2 SUB PUSH1 0x0 DUP4 ADD MSTORE PUSH2 0x53B DUP2 PUSH2 0x46D JUMP JUMPDEST SWAP1 POP SWAP2 SWAP1 POP JUMP JUMPDEST PUSH1 0x0 PUSH1 0x20 DUP3 ADD SWAP1 POP DUP2 DUP2 SUB PUSH1 0x0 DUP4 ADD MSTORE PUSH2 0x55B DUP2 PUSH2 0x490 JUMP JUMPDEST SWAP1 POP SWAP2 SWAP1 POP JUMP JUMPDEST PUSH1 0x0 DUP3 DUP3 MSTORE PUSH1 0x20 DUP3 ADD SWAP1 POP SWAP3 SWAP2 POP POP JUMP JUMPDEST PUSH1 0x0 PUSH2 0x57E DUP3 PUSH2 0x597 JUMP JUMPDEST SWAP1 POP SWAP2 SWAP1 POP JUMP JUMPDEST PUSH1 0x0 PUSH2 0x590 DUP3 PUSH2 0x597 JUMP JUMPDEST SWAP1 POP SWAP2 SWAP1 POP JUMP JUMPDEST PUSH1 0x0 PUSH20 0xFFFFFFFFFFFFFFFFFFFFFFFFFFFFFFFFFFFFFFFF DUP3 AND SWAP1 POP SWAP2 SWAP1 POP JUMP JUMPDEST PUSH1 0x0 DUP2 SWAP1 POP SWAP2 SWAP1 POP JUMP JUMPDEST PUSH1 0x0 DUP1 REVERT JUMPDEST PUSH32 0x4F6E6C79204F776E657221000000000000000000000000000000000000000000 PUSH1 0x0 DUP3 ADD MSTORE POP JUMP JUMPDEST PUSH32 0x596F75722062616C616E6365206973206E6F7420656E6F756768000000000000 PUSH1 0x0 DUP3 ADD MSTORE POP JUMP JUMPDEST PUSH2 0x621 DUP2 PUSH2 0x573 JUMP JUMPDEST DUP2 EQ PUSH2 0x62C JUMPI PUSH1 0x0 DUP1 REVERT JUMPDEST POP JUMP JUMPDEST PUSH2 0x638 DUP2 PUSH2 0x585 JUMP JUMPDEST DUP2 EQ PUSH2 0x643 JUMPI PUSH1 0x0 DUP1 REVERT JUMPDEST POP JUMP INVALID LOG2 PUSH5 0x6970667358 0x22 SLT KECCAK256 RETURNDATACOPY 0xE3 DUP10 0xCD DUP5 SIGNEXTEND SUB CODECOPY STOP COINBASE LOG0 0xC3 SWAP15 CREATE2 STOP 0xAC 0x21 0xCE 0xD5 0x4C 0xFC 0xB5 0x5E DUP13 0x4A PUSH4 0xCF5DD933 CREATE OR PUSH5 0x736F6C6343 STOP ADDMOD SMOD STOP CALLER "
				},
				"gasEstimates": {
					"creation": {
						"codeDepositCost": "332000",
						"executionCost": "24610",
						"totalCost": "356610"
					},
					"external": {
						"checkUserMoney(address)": "infinite",
						"checkValueNow()": "6536",
						"sendEther(address)": "infinite"
					}
				},
				"methodIdentifiers": {
					"checkUserMoney(address)": "9d427413",
					"checkValueNow()": "c776b4df",
					"sendEther(address)": "48c981e2"
				}
			},
			"storageLayout": {
				"storage": [
					{
						"astId": 3,
						"contract": "lecture/lec34.sol:MobileBanking",
						"label": "owner",
						"offset": 0,
						"slot": "0",
						"type": "t_address"
					}
				],
				"types": {
					"t_address": {
						"encoding": "inplace",
						"label": "address",
						"numberOfBytes": "20"
					}
				}
			},
			"userdoc": {
				"kind": "user",
				"methods": {},
				"version": 1
			}
		}
	}
}