{
	"lecture/lec41-1.sol": {
		"HiSolidity": {
			"abi": [
				{
					"anonymous": false,
					"inputs": [
						{
							"indexed": false,
							"internalType": "string",
							"name": "_str",
							"type": "string"
						}
					],
					"name": "Hi",
					"type": "event"
				},
				{
					"inputs": [],
					"name": "hi",
					"outputs": [],
					"stateMutability": "nonpayable",
					"type": "function"
				}
			],
			"devdoc": {
				"kind": "dev",
				"methods": {},
				"version": 1
			},
			"evm": {
				"assembly": "    /* \"lecture/lec41-1.sol\":258:376  contract HiSolidity{... */\n  mstore(0x40, 0x80)\n  callvalue\n  dup1\n  iszero\n  tag_1\n  jumpi\n  0x00\n  dup1\n  revert\ntag_1:\n  pop\n  dataSize(sub_0)\n  dup1\n  dataOffset(sub_0)\n  0x00\n  codecopy\n  0x00\n  return\nstop\n\nsub_0: assembly {\n        /* \"lecture/lec41-1.sol\":258:376  contract HiSolidity{... */\n      mstore(0x40, 0x80)\n      callvalue\n      dup1\n      iszero\n      tag_1\n      jumpi\n      0x00\n      dup1\n      revert\n    tag_1:\n      pop\n      jumpi(tag_2, lt(calldatasize, 0x04))\n      shr(0xe0, calldataload(0x00))\n      dup1\n      0xa99dca3f\n      eq\n      tag_3\n      jumpi\n    tag_2:\n      0x00\n      dup1\n      revert\n        /* \"lecture/lec41-1.sol\":311:374  function hi() public {... */\n    tag_3:\n      tag_4\n      tag_5\n      jump\t// in\n    tag_4:\n      stop\n    tag_5:\n        /* \"lecture/lec41-1.sol\":347:367  Hi(\"Hello solidity\") */\n      0x288d740d3b11a36c8526119855345e3ba2aee438370d264289ea6dfb76294fd0\n      mload(0x40)\n      tag_7\n      swap1\n      tag_8\n      jump\t// in\n    tag_7:\n      mload(0x40)\n      dup1\n      swap2\n      sub\n      swap1\n      log1\n        /* \"lecture/lec41-1.sol\":311:374  function hi() public {... */\n      jump\t// out\n        /* \"#utility.yul\":7:373   */\n    tag_10:\n        /* \"#utility.yul\":149:152   */\n      0x00\n        /* \"#utility.yul\":170:237   */\n      tag_12\n        /* \"#utility.yul\":234:236   */\n      0x0e\n        /* \"#utility.yul\":229:232   */\n      dup4\n        /* \"#utility.yul\":170:237   */\n      tag_13\n      jump\t// in\n    tag_12:\n        /* \"#utility.yul\":163:237   */\n      swap2\n      pop\n        /* \"#utility.yul\":246:339   */\n      tag_14\n        /* \"#utility.yul\":335:338   */\n      dup3\n        /* \"#utility.yul\":246:339   */\n      tag_15\n      jump\t// in\n    tag_14:\n        /* \"#utility.yul\":364:366   */\n      0x20\n        /* \"#utility.yul\":359:362   */\n      dup3\n        /* \"#utility.yul\":355:367   */\n      add\n        /* \"#utility.yul\":348:367   */\n      swap1\n      pop\n        /* \"#utility.yul\":7:373   */\n      swap2\n      swap1\n      pop\n      jump\t// out\n        /* \"#utility.yul\":379:798   */\n    tag_8:\n        /* \"#utility.yul\":545:549   */\n      0x00\n        /* \"#utility.yul\":583:585   */\n      0x20\n        /* \"#utility.yul\":572:581   */\n      dup3\n        /* \"#utility.yul\":568:586   */\n      add\n        /* \"#utility.yul\":560:586   */\n      swap1\n      pop\n        /* \"#utility.yul\":632:641   */\n      dup2\n        /* \"#utility.yul\":626:630   */\n      dup2\n        /* \"#utility.yul\":622:642   */\n      sub\n        /* \"#utility.yul\":618:619   */\n      0x00\n        /* \"#utility.yul\":607:616   */\n      dup4\n        /* \"#utility.yul\":603:620   */\n      add\n        /* \"#utility.yul\":596:643   */\n      mstore\n        /* \"#utility.yul\":660:791   */\n      tag_17\n        /* \"#utility.yul\":786:790   */\n      dup2\n        /* \"#utility.yul\":660:791   */\n      tag_10\n      jump\t// in\n    tag_17:\n        /* \"#utility.yul\":652:791   */\n      swap1\n      pop\n        /* \"#utility.yul\":379:798   */\n      swap2\n      swap1\n      pop\n      jump\t// out\n        /* \"#utility.yul\":804:973   */\n    tag_13:\n        /* \"#utility.yul\":888:899   */\n      0x00\n        /* \"#utility.yul\":922:928   */\n      dup3\n        /* \"#utility.yul\":917:920   */\n      dup3\n        /* \"#utility.yul\":910:929   */\n      mstore\n        /* \"#utility.yul\":962:966   */\n      0x20\n        /* \"#utility.yul\":957:960   */\n      dup3\n        /* \"#utility.yul\":953:967   */\n      add\n        /* \"#utility.yul\":938:967   */\n      swap1\n      pop\n        /* \"#utility.yul\":804:973   */\n      swap3\n      swap2\n      pop\n      pop\n      jump\t// out\n        /* \"#utility.yul\":979:1143   */\n    tag_15:\n        /* \"#utility.yul\":1119:1135   */\n      0x48656c6c6f20736f6c6964697479000000000000000000000000000000000000\n        /* \"#utility.yul\":1115:1116   */\n      0x00\n        /* \"#utility.yul\":1107:1113   */\n      dup3\n        /* \"#utility.yul\":1103:1117   */\n      add\n        /* \"#utility.yul\":1096:1136   */\n      mstore\n        /* \"#utility.yul\":979:1143   */\n      pop\n      jump\t// out\n\n    auxdata: 0xa26469706673582212206e8eff4ed6a900018f3d9b403da6e158d037b0f02b288b8e285bf56343c51dec64736f6c63430008070033\n}\n",
				"bytecode": {
					"linkReferences": {},
					"object": "608060405234801561001057600080fd5b50610117806100206000396000f3fe6080604052348015600f57600080fd5b506004361060285760003560e01c8063a99dca3f14602d575b600080fd5b60336035565b005b7f288d740d3b11a36c8526119855345e3ba2aee438370d264289ea6dfb76294fd06040516060906089565b60405180910390a1565b60006075600e8360a7565b9150607e8260b8565b602082019050919050565b6000602082019050818103600083015260a081606a565b9050919050565b600082825260208201905092915050565b7f48656c6c6f20736f6c696469747900000000000000000000000000000000000060008201525056fea26469706673582212206e8eff4ed6a900018f3d9b403da6e158d037b0f02b288b8e285bf56343c51dec64736f6c63430008070033",
					"opcodes": "PUSH1 0x80 PUSH1 0x40 MSTORE CALLVALUE DUP1 ISZERO PUSH2 0x10 JUMPI PUSH1 0x0 DUP1 REVERT JUMPDEST POP PUSH2 0x117 DUP1 PUSH2 0x20 PUSH1 0x0 CODECOPY PUSH1 0x0 RETURN INVALID PUSH1 0x80 PUSH1 0x40 MSTORE CALLVALUE DUP1 ISZERO PUSH1 0xF JUMPI PUSH1 0x0 DUP1 REVERT JUMPDEST POP PUSH1 0x4 CALLDATASIZE LT PUSH1 0x28 JUMPI PUSH1 0x0 CALLDATALOAD PUSH1 0xE0 SHR DUP1 PUSH4 0xA99DCA3F EQ PUSH1 0x2D JUMPI JUMPDEST PUSH1 0x0 DUP1 REVERT JUMPDEST PUSH1 0x33 PUSH1 0x35 JUMP JUMPDEST STOP JUMPDEST PUSH32 0x288D740D3B11A36C8526119855345E3BA2AEE438370D264289EA6DFB76294FD0 PUSH1 0x40 MLOAD PUSH1 0x60 SWAP1 PUSH1 0x89 JUMP JUMPDEST PUSH1 0x40 MLOAD DUP1 SWAP2 SUB SWAP1 LOG1 JUMP JUMPDEST PUSH1 0x0 PUSH1 0x75 PUSH1 0xE DUP4 PUSH1 0xA7 JUMP JUMPDEST SWAP2 POP PUSH1 0x7E DUP3 PUSH1 0xB8 JUMP JUMPDEST PUSH1 0x20 DUP3 ADD SWAP1 POP SWAP2 SWAP1 POP JUMP JUMPDEST PUSH1 0x0 PUSH1 0x20 DUP3 ADD SWAP1 POP DUP2 DUP2 SUB PUSH1 0x0 DUP4 ADD MSTORE PUSH1 0xA0 DUP2 PUSH1 0x6A JUMP JUMPDEST SWAP1 POP SWAP2 SWAP1 POP JUMP JUMPDEST PUSH1 0x0 DUP3 DUP3 MSTORE PUSH1 0x20 DUP3 ADD SWAP1 POP SWAP3 SWAP2 POP POP JUMP JUMPDEST PUSH32 0x48656C6C6F20736F6C6964697479000000000000000000000000000000000000 PUSH1 0x0 DUP3 ADD MSTORE POP JUMP INVALID LOG2 PUSH5 0x6970667358 0x22 SLT KECCAK256 PUSH15 0x8EFF4ED6A900018F3D9B403DA6E158 0xD0 CALLDATACOPY 0xB0 CREATE 0x2B 0x28 DUP12 DUP15 0x28 JUMPDEST CREATE2 PUSH4 0x43C51DEC PUSH5 0x736F6C6343 STOP ADDMOD SMOD STOP CALLER "
				},
				"gasEstimates": {
					"creation": {
						"codeDepositCost": "55800",
						"executionCost": "105",
						"totalCost": "55905"
					},
					"external": {
						"hi()": "1924"
					}
				},
				"methodIdentifiers": {
					"hi()": "a99dca3f"
				}
			},
			"storageLayout": {
				"storage": [],
				"types": null
			},
			"userdoc": {
				"kind": "user",
				"methods": {},
				"version": 1
			}
		}
	}
}